{
  "address": "0xc1656B63D9EEBa6d114f6bE19565177893e5bCBF",
  "abi": [
    {
      "inputs": [],
      "name": "MinterBadRole",
      "type": "error"
    },
    {
      "anonymous": false,
      "inputs": [
        {
          "indexed": true,
          "internalType": "address",
          "name": "owner",
          "type": "address"
        },
        {
          "indexed": true,
          "internalType": "address",
          "name": "spender",
          "type": "address"
        },
        {
          "indexed": false,
          "internalType": "uint256",
          "name": "value",
          "type": "uint256"
        }
      ],
      "name": "Approval",
      "type": "event"
    },
    {
      "anonymous": false,
      "inputs": [
        {
          "indexed": true,
          "internalType": "bytes32",
          "name": "role",
          "type": "bytes32"
        },
        {
          "indexed": true,
          "internalType": "bytes32",
          "name": "previousAdminRole",
          "type": "bytes32"
        },
        {
          "indexed": true,
          "internalType": "bytes32",
          "name": "newAdminRole",
          "type": "bytes32"
        }
      ],
      "name": "RoleAdminChanged",
      "type": "event"
    },
    {
      "anonymous": false,
      "inputs": [
        {
          "indexed": true,
          "internalType": "bytes32",
          "name": "role",
          "type": "bytes32"
        },
        {
          "indexed": true,
          "internalType": "address",
          "name": "account",
          "type": "address"
        },
        {
          "indexed": true,
          "internalType": "address",
          "name": "sender",
          "type": "address"
        }
      ],
      "name": "RoleGranted",
      "type": "event"
    },
    {
      "anonymous": false,
      "inputs": [
        {
          "indexed": true,
          "internalType": "bytes32",
          "name": "role",
          "type": "bytes32"
        },
        {
          "indexed": true,
          "internalType": "address",
          "name": "account",
          "type": "address"
        },
        {
          "indexed": true,
          "internalType": "address",
          "name": "sender",
          "type": "address"
        }
      ],
      "name": "RoleRevoked",
      "type": "event"
    },
    {
      "anonymous": false,
      "inputs": [
        {
          "indexed": true,
          "internalType": "address",
          "name": "from",
          "type": "address"
        },
        {
          "indexed": true,
          "internalType": "address",
          "name": "to",
          "type": "address"
        },
        {
          "indexed": false,
          "internalType": "uint256",
          "name": "value",
          "type": "uint256"
        }
      ],
      "name": "Transfer",
      "type": "event"
    },
    {
      "inputs": [],
      "name": "DEFAULT_ADMIN_ROLE",
      "outputs": [
        {
          "internalType": "bytes32",
          "name": "",
          "type": "bytes32"
        }
      ],
      "stateMutability": "view",
      "type": "function"
    },
    {
      "inputs": [],
      "name": "DOMAIN_SEPARATOR",
      "outputs": [
        {
          "internalType": "bytes32",
          "name": "",
          "type": "bytes32"
        }
      ],
      "stateMutability": "view",
      "type": "function"
    },
    {
      "inputs": [],
      "name": "MINTER_ROLE",
      "outputs": [
        {
          "internalType": "bytes32",
          "name": "",
          "type": "bytes32"
        }
      ],
      "stateMutability": "view",
      "type": "function"
    },
    {
      "inputs": [],
      "name": "PERMIT_TYPEHASH",
      "outputs": [
        {
          "internalType": "bytes32",
          "name": "",
          "type": "bytes32"
        }
      ],
      "stateMutability": "view",
      "type": "function"
    },
    {
      "inputs": [
        {
          "internalType": "address",
          "name": "owner",
          "type": "address"
        },
        {
          "internalType": "address",
          "name": "spender",
          "type": "address"
        }
      ],
      "name": "allowance",
      "outputs": [
        {
          "internalType": "uint256",
          "name": "",
          "type": "uint256"
        }
      ],
      "stateMutability": "view",
      "type": "function"
    },
    {
      "inputs": [
        {
          "internalType": "address",
          "name": "spender",
          "type": "address"
        },
        {
          "internalType": "uint256",
          "name": "amount",
          "type": "uint256"
        }
      ],
      "name": "approve",
      "outputs": [
        {
          "internalType": "bool",
          "name": "",
          "type": "bool"
        }
      ],
      "stateMutability": "nonpayable",
      "type": "function"
    },
    {
      "inputs": [
        {
          "internalType": "address",
          "name": "account",
          "type": "address"
        }
      ],
      "name": "balanceOf",
      "outputs": [
        {
          "internalType": "uint256",
          "name": "",
          "type": "uint256"
        }
      ],
      "stateMutability": "view",
      "type": "function"
    },
    {
      "inputs": [
        {
          "internalType": "uint256",
          "name": "_amount",
          "type": "uint256"
        }
      ],
      "name": "burn",
      "outputs": [],
      "stateMutability": "nonpayable",
      "type": "function"
    },
    {
      "inputs": [],
      "name": "decimals",
      "outputs": [
        {
          "internalType": "uint8",
          "name": "",
          "type": "uint8"
        }
      ],
      "stateMutability": "view",
      "type": "function"
    },
    {
      "inputs": [
        {
          "internalType": "address",
          "name": "spender",
          "type": "address"
        },
        {
          "internalType": "uint256",
          "name": "subtractedValue",
          "type": "uint256"
        }
      ],
      "name": "decreaseAllowance",
      "outputs": [
        {
          "internalType": "bool",
          "name": "",
          "type": "bool"
        }
      ],
      "stateMutability": "nonpayable",
      "type": "function"
    },
    {
      "inputs": [
        {
          "internalType": "bytes32",
          "name": "role",
          "type": "bytes32"
        }
      ],
      "name": "getRoleAdmin",
      "outputs": [
        {
          "internalType": "bytes32",
          "name": "",
          "type": "bytes32"
        }
      ],
      "stateMutability": "view",
      "type": "function"
    },
    {
      "inputs": [
        {
          "internalType": "bytes32",
          "name": "role",
          "type": "bytes32"
        },
        {
          "internalType": "address",
          "name": "account",
          "type": "address"
        }
      ],
      "name": "grantRole",
      "outputs": [],
      "stateMutability": "nonpayable",
      "type": "function"
    },
    {
      "inputs": [
        {
          "internalType": "bytes32",
          "name": "role",
          "type": "bytes32"
        },
        {
          "internalType": "address",
          "name": "account",
          "type": "address"
        }
      ],
      "name": "hasRole",
      "outputs": [
        {
          "internalType": "bool",
          "name": "",
          "type": "bool"
        }
      ],
      "stateMutability": "view",
      "type": "function"
    },
    {
      "inputs": [
        {
          "internalType": "address",
          "name": "spender",
          "type": "address"
        },
        {
          "internalType": "uint256",
          "name": "addedValue",
          "type": "uint256"
        }
      ],
      "name": "increaseAllowance",
      "outputs": [
        {
          "internalType": "bool",
          "name": "",
          "type": "bool"
        }
      ],
      "stateMutability": "nonpayable",
      "type": "function"
    },
    {
      "inputs": [
        {
          "internalType": "string",
          "name": "name_",
          "type": "string"
        },
        {
          "internalType": "string",
          "name": "symbol_",
          "type": "string"
        },
        {
          "internalType": "uint8",
          "name": "decimals_",
          "type": "uint8"
        },
        {
          "internalType": "address",
          "name": "admin",
          "type": "address"
        },
        {
          "internalType": "address[]",
          "name": "minters",
          "type": "address[]"
        }
      ],
      "name": "initialize",
      "outputs": [],
      "stateMutability": "nonpayable",
      "type": "function"
    },
    {
      "inputs": [
        {
          "internalType": "address",
          "name": "_receiver",
          "type": "address"
        },
        {
          "internalType": "uint256",
          "name": "_amount",
          "type": "uint256"
        }
      ],
      "name": "mint",
      "outputs": [],
      "stateMutability": "nonpayable",
      "type": "function"
    },
    {
      "inputs": [],
      "name": "name",
      "outputs": [
        {
          "internalType": "string",
          "name": "",
          "type": "string"
        }
      ],
      "stateMutability": "view",
      "type": "function"
    },
    {
      "inputs": [
        {
          "internalType": "address",
          "name": "",
          "type": "address"
        }
      ],
      "name": "nonces",
      "outputs": [
        {
          "internalType": "uint256",
          "name": "",
          "type": "uint256"
        }
      ],
      "stateMutability": "view",
      "type": "function"
    },
    {
      "inputs": [
        {
          "internalType": "address",
          "name": "_owner",
          "type": "address"
        },
        {
          "internalType": "address",
          "name": "_spender",
          "type": "address"
        },
        {
          "internalType": "uint256",
          "name": "_value",
          "type": "uint256"
        },
        {
          "internalType": "uint256",
          "name": "_deadline",
          "type": "uint256"
        },
        {
          "internalType": "uint8",
          "name": "_v",
          "type": "uint8"
        },
        {
          "internalType": "bytes32",
          "name": "_r",
          "type": "bytes32"
        },
        {
          "internalType": "bytes32",
          "name": "_s",
          "type": "bytes32"
        }
      ],
      "name": "permit",
      "outputs": [],
      "stateMutability": "nonpayable",
      "type": "function"
    },
    {
      "inputs": [
        {
          "internalType": "bytes32",
          "name": "role",
          "type": "bytes32"
        },
        {
          "internalType": "address",
          "name": "account",
          "type": "address"
        }
      ],
      "name": "renounceRole",
      "outputs": [],
      "stateMutability": "nonpayable",
      "type": "function"
    },
    {
      "inputs": [
        {
          "internalType": "bytes32",
          "name": "role",
          "type": "bytes32"
        },
        {
          "internalType": "address",
          "name": "account",
          "type": "address"
        }
      ],
      "name": "revokeRole",
      "outputs": [],
      "stateMutability": "nonpayable",
      "type": "function"
    },
    {
      "inputs": [
        {
          "internalType": "bytes4",
          "name": "interfaceId",
          "type": "bytes4"
        }
      ],
      "name": "supportsInterface",
      "outputs": [
        {
          "internalType": "bool",
          "name": "",
          "type": "bool"
        }
      ],
      "stateMutability": "view",
      "type": "function"
    },
    {
      "inputs": [],
      "name": "symbol",
      "outputs": [
        {
          "internalType": "string",
          "name": "",
          "type": "string"
        }
      ],
      "stateMutability": "view",
      "type": "function"
    },
    {
      "inputs": [],
      "name": "totalSupply",
      "outputs": [
        {
          "internalType": "uint256",
          "name": "",
          "type": "uint256"
        }
      ],
      "stateMutability": "view",
      "type": "function"
    },
    {
      "inputs": [
        {
          "internalType": "address",
          "name": "recipient",
          "type": "address"
        },
        {
          "internalType": "uint256",
          "name": "amount",
          "type": "uint256"
        }
      ],
      "name": "transfer",
      "outputs": [
        {
          "internalType": "bool",
          "name": "",
          "type": "bool"
        }
      ],
      "stateMutability": "nonpayable",
      "type": "function"
    },
    {
      "inputs": [
        {
          "internalType": "address",
          "name": "sender",
          "type": "address"
        },
        {
          "internalType": "address",
          "name": "recipient",
          "type": "address"
        },
        {
          "internalType": "uint256",
          "name": "amount",
          "type": "uint256"
        }
      ],
      "name": "transferFrom",
      "outputs": [
        {
          "internalType": "bool",
          "name": "",
          "type": "bool"
        }
      ],
      "stateMutability": "nonpayable",
      "type": "function"
    }
  ],
  "transactionHash": "0x00144b6791250c8f5aea5f8ec8066162db4f2d11a354f995be229271b7fd9cdb",
  "args": [],
  "solcInputHash": "65a6b073fdd1b40d135a482ce2a921d6",
  "bytecode": "0x608060405234801561001057600080fd5b50611c44806100206000396000f3fe608060405234801561001057600080fd5b506004361061018e5760003560e01c806342966c68116100de578063a217fddf11610097578063d505accf11610071578063d505accf14610376578063d539139314610389578063d547741f1461039e578063dd62ed3e146103b157600080fd5b8063a217fddf14610348578063a457c2d714610350578063a9059cbb1461036357600080fd5b806342966c68146102be5780635471a504146102d157806370a08231146102e45780637ecebe001461030d57806391d148541461032d57806395d89b411461034057600080fd5b80632f2ff15d1161014b5780633644e515116101255780633644e5151461027c57806336568abe14610285578063395093511461029857806340c10f19146102ab57600080fd5b80632f2ff15d1461022b57806330adf81f14610240578063313ce5671461026757600080fd5b806301ffc9a71461019357806306fdde03146101bb578063095ea7b3146101d057806318160ddd146101e357806323b872dd146101f5578063248a9ca314610208575b600080fd5b6101a66101a13660046117fc565b6103ea565b60405190151581526020015b60405180910390f35b6101c3610421565b6040516101b29190611a13565b6101a66101de366004611796565b6104b3565b6035545b6040519081526020016101b2565b6101a66102033660046116f0565b6104c9565b6101e76102163660046117c0565b60009081526097602052604090206001015490565b61023e6102393660046117d9565b610578565b005b6101e77f6e71edae12b1b97f4d1f60370fef10105fa2faae0126114a169c64845d6126c981565b60cb5460405160ff90911681526020016101b2565b6101e760c95481565b61023e6102933660046117d9565b6105a3565b6101a66102a6366004611796565b610621565b61023e6102b9366004611796565b61065d565b61023e6102cc3660046117c0565b61069c565b61023e6102df366004611826565b6106de565b6101e76102f23660046116a2565b6001600160a01b031660009081526033602052604090205490565b6101e761031b3660046116a2565b60ca6020526000908152604090205481565b6101a661033b3660046117d9565b6108b7565b6101c36108e2565b6101e7600081565b6101a661035e366004611796565b6108f1565b6101a6610371366004611796565b61098a565b61023e61038436600461172c565b610997565b6101e7600080516020611bef83398151915281565b61023e6103ac3660046117d9565b610ba8565b6101e76103bf3660046116bd565b6001600160a01b03918216600090815260346020908152604080832093909416825291909152205490565b60006001600160e01b03198216637965db0b60e01b148061041b57506301ffc9a760e01b6001600160e01b03198316145b92915050565b60606036805461043090611b56565b80601f016020809104026020016040519081016040528092919081815260200182805461045c90611b56565b80156104a95780601f1061047e576101008083540402835291602001916104a9565b820191906000526020600020905b81548152906001019060200180831161048c57829003601f168201915b5050505050905090565b60006104c0338484610bce565b50600192915050565b60006104d6848484610cf2565b6001600160a01b0384166000908152603460209081526040808320338452909152902054828110156105605760405162461bcd60e51b815260206004820152602860248201527f45524332303a207472616e7366657220616d6f756e74206578636565647320616044820152676c6c6f77616e636560c01b60648201526084015b60405180910390fd5b61056d8533858403610bce565b506001949350505050565b6000828152609760205260409020600101546105948133610ec2565b61059e8383610f26565b505050565b6001600160a01b03811633146106135760405162461bcd60e51b815260206004820152602f60248201527f416363657373436f6e74726f6c3a2063616e206f6e6c792072656e6f756e636560448201526e103937b632b9903337b91039b2b63360891b6064820152608401610557565b61061d8282610fac565b5050565b3360008181526034602090815260408083206001600160a01b038716845290915281205490916104c0918590610658908690611ac5565b610bce565b610675600080516020611bef833981519152336108b7565b61069257604051630b21270760e21b815260040160405180910390fd5b61061d8282611013565b6106b4600080516020611bef833981519152336108b7565b6106d157604051630b21270760e21b815260040160405180910390fd5b6106db33826110f2565b50565b600054610100900460ff16806106f7575060005460ff16155b6107135760405162461bcd60e51b815260040161055790611a46565b600054610100900460ff16158015610735576000805461ffff19166101011790555b60cb805460ff191660ff86161790558551156107515785610753565b845b6040516020016107639190611943565b6040516020818303038152906040529550846040516020016107859190611974565b60405160208183030381529060405294506107a08686611240565b6107ab6000846112bf565b60005b82518110156107fa576107e8600080516020611bef8339815191528483815181106107db576107db611bc2565b60200260200101516112bf565b806107f281611b91565b9150506107ae565b50855160208088019190912060408051808201825260018152603160f81b9084015280517f8b73c3c69bb8fe3d512ecc4cf759cc79239f7b179b0ffacaa9a75d522b39400f938101939093528201527fc89efdaa54c0f20c7adf612882df0950f5a951637e0307cdcb4c672f298b8bc6606082015246608082018190523060a08301529060c00160408051601f19818403018152919052805160209091012060c9555080156108af576000805461ff00191690555b505050505050565b60009182526097602090815260408084206001600160a01b0393909316845291905290205460ff1690565b60606037805461043090611b56565b3360009081526034602090815260408083206001600160a01b0386168452909152812054828110156109735760405162461bcd60e51b815260206004820152602560248201527f45524332303a2064656372656173656420616c6c6f77616e63652062656c6f77604482015264207a65726f60d81b6064820152608401610557565b6109803385858403610bce565b5060019392505050565b60006104c0338484610cf2565b428410156109d95760405162461bcd60e51b815260206004820152600f60248201526e1c195c9b5a5d0e8811561412549151608a1b6044820152606401610557565b60c9546001600160a01b038816600090815260ca6020526040812080549192917f6e71edae12b1b97f4d1f60370fef10105fa2faae0126114a169c64845d6126c9918b918b918b919087610a2c83611b91565b909155506040805160208101969096526001600160a01b0394851690860152929091166060840152608083015260a082015260c0810187905260e00160405160208183030381529060405280519060200120604051602001610aa592919061190160f01b81526002810192909252602282015260420190565b60408051601f198184030181528282528051602091820120600080855291840180845281905260ff88169284019290925260608301869052608083018590529092509060019060a0016020604051602081039080840390855afa158015610b10573d6000803e3d6000fd5b5050604051601f1901519150506001600160a01b03811615801590610b465750886001600160a01b0316816001600160a01b0316145b610b925760405162461bcd60e51b815260206004820152601960248201527f7065726d69743a20696e76616c6964207369676e6174757265000000000000006044820152606401610557565b610b9d898989610bce565b505050505050505050565b600082815260976020526040902060010154610bc48133610ec2565b61059e8383610fac565b6001600160a01b038316610c305760405162461bcd60e51b8152602060048201526024808201527f45524332303a20617070726f76652066726f6d20746865207a65726f206164646044820152637265737360e01b6064820152608401610557565b6001600160a01b038216610c915760405162461bcd60e51b815260206004820152602260248201527f45524332303a20617070726f766520746f20746865207a65726f206164647265604482015261737360f01b6064820152608401610557565b6001600160a01b0383811660008181526034602090815260408083209487168084529482529182902085905590518481527f8c5be1e5ebec7d5bd14f71427d1e84f3dd0314c0f7b2291e5b200ac8c7c3b925910160405180910390a3505050565b6001600160a01b038316610d565760405162461bcd60e51b815260206004820152602560248201527f45524332303a207472616e736665722066726f6d20746865207a65726f206164604482015264647265737360d81b6064820152608401610557565b6001600160a01b038216610db85760405162461bcd60e51b815260206004820152602360248201527f45524332303a207472616e7366657220746f20746865207a65726f206164647260448201526265737360e81b6064820152608401610557565b6001600160a01b03831660009081526033602052604090205481811015610e305760405162461bcd60e51b815260206004820152602660248201527f45524332303a207472616e7366657220616d6f756e7420657863656564732062604482015265616c616e636560d01b6064820152608401610557565b6001600160a01b03808516600090815260336020526040808220858503905591851681529081208054849290610e67908490611ac5565b92505081905550826001600160a01b0316846001600160a01b03167fddf252ad1be2c89b69c2b068fc378daa952ba7f163c4a11628f55a4df523b3ef84604051610eb391815260200190565b60405180910390a35b50505050565b610ecc82826108b7565b61061d57610ee4816001600160a01b031660146112c9565b610eef8360206112c9565b604051602001610f0092919061199e565b60408051601f198184030181529082905262461bcd60e51b825261055791600401611a13565b610f3082826108b7565b61061d5760008281526097602090815260408083206001600160a01b03851684529091529020805460ff19166001179055610f683390565b6001600160a01b0316816001600160a01b0316837f2f8788117e7eff1d82e926ec794901d17c78024a50270940304540a733656f0d60405160405180910390a45050565b610fb682826108b7565b1561061d5760008281526097602090815260408083206001600160a01b0385168085529252808320805460ff1916905551339285917ff6391f5c32d9c69d2a47ea670b442974b53935d1edc7fd64eb21e047a839171b9190a45050565b6001600160a01b0382166110695760405162461bcd60e51b815260206004820152601f60248201527f45524332303a206d696e7420746f20746865207a65726f2061646472657373006044820152606401610557565b806035600082825461107b9190611ac5565b90915550506001600160a01b038216600090815260336020526040812080548392906110a8908490611ac5565b90915550506040518181526001600160a01b038316906000907fddf252ad1be2c89b69c2b068fc378daa952ba7f163c4a11628f55a4df523b3ef9060200160405180910390a35050565b6001600160a01b0382166111525760405162461bcd60e51b815260206004820152602160248201527f45524332303a206275726e2066726f6d20746865207a65726f206164647265736044820152607360f81b6064820152608401610557565b6001600160a01b038216600090815260336020526040902054818110156111c65760405162461bcd60e51b815260206004820152602260248201527f45524332303a206275726e20616d6f756e7420657863656564732062616c616e604482015261636560f01b6064820152608401610557565b6001600160a01b03831660009081526033602052604081208383039055603580548492906111f5908490611afc565b90915550506040518281526000906001600160a01b038516907fddf252ad1be2c89b69c2b068fc378daa952ba7f163c4a11628f55a4df523b3ef9060200160405180910390a3505050565b600054610100900460ff1680611259575060005460ff16155b6112755760405162461bcd60e51b815260040161055790611a46565b600054610100900460ff16158015611297576000805461ffff19166101011790555b61129f61146c565b6112a983836114d7565b801561059e576000805461ff0019169055505050565b61061d8282610f26565b606060006112d8836002611add565b6112e3906002611ac5565b67ffffffffffffffff8111156112fb576112fb611bd8565b6040519080825280601f01601f191660200182016040528015611325576020820181803683370190505b509050600360fc1b8160008151811061134057611340611bc2565b60200101906001600160f81b031916908160001a905350600f60fb1b8160018151811061136f5761136f611bc2565b60200101906001600160f81b031916908160001a9053506000611393846002611add565b61139e906001611ac5565b90505b6001811115611416576f181899199a1a9b1b9c1cb0b131b232b360811b85600f16601081106113d2576113d2611bc2565b1a60f81b8282815181106113e8576113e8611bc2565b60200101906001600160f81b031916908160001a90535060049490941c9361140f81611b3f565b90506113a1565b5083156114655760405162461bcd60e51b815260206004820181905260248201527f537472696e67733a20686578206c656e67746820696e73756666696369656e746044820152606401610557565b9392505050565b600054610100900460ff1680611485575060005460ff16155b6114a15760405162461bcd60e51b815260040161055790611a46565b600054610100900460ff161580156114c3576000805461ffff19166101011790555b80156106db576000805461ff001916905550565b600054610100900460ff16806114f0575060005460ff16155b61150c5760405162461bcd60e51b815260040161055790611a46565b600054610100900460ff1615801561152e576000805461ffff19166101011790555b825161154190603690602086019061156c565b50815161155590603790602085019061156c565b50801561059e576000805461ff0019169055505050565b82805461157890611b56565b90600052602060002090601f01602090048101928261159a57600085556115e0565b82601f106115b357805160ff19168380011785556115e0565b828001600101855582156115e0579182015b828111156115e05782518255916020019190600101906115c5565b506115ec9291506115f0565b5090565b5b808211156115ec57600081556001016115f1565b80356001600160a01b038116811461161c57600080fd5b919050565b600082601f83011261163257600080fd5b813567ffffffffffffffff81111561164c5761164c611bd8565b61165f601f8201601f1916602001611a94565b81815284602083860101111561167457600080fd5b816020850160208301376000918101602001919091529392505050565b803560ff8116811461161c57600080fd5b6000602082840312156116b457600080fd5b61146582611605565b600080604083850312156116d057600080fd5b6116d983611605565b91506116e760208401611605565b90509250929050565b60008060006060848603121561170557600080fd5b61170e84611605565b925061171c60208501611605565b9150604084013590509250925092565b600080600080600080600060e0888a03121561174757600080fd5b61175088611605565b965061175e60208901611605565b9550604088013594506060880135935061177a60808901611691565b925060a0880135915060c0880135905092959891949750929550565b600080604083850312156117a957600080fd5b6117b283611605565b946020939093013593505050565b6000602082840312156117d257600080fd5b5035919050565b600080604083850312156117ec57600080fd5b823591506116e760208401611605565b60006020828403121561180e57600080fd5b81356001600160e01b03198116811461146557600080fd5b600080600080600060a0868803121561183e57600080fd5b853567ffffffffffffffff8082111561185657600080fd5b61186289838a01611621565b965060209150818801358181111561187957600080fd5b6118858a828b01611621565b96505061189460408901611691565b94506118a260608901611605565b93506080880135818111156118b657600080fd5b8801601f81018a136118c757600080fd5b8035828111156118d9576118d9611bd8565b8060051b92506118ea848401611a94565b8181528481019083860185850187018e101561190557600080fd5b600095505b8386101561192f5761191b81611605565b83526001959095019491860191860161190a565b508096505050505050509295509295909350565b6803232a13934b233b2960bd1b815260008251611967816009850160208701611b13565b9190910160090192915050565b61646560f01b815260008251611991816002850160208701611b13565b9190910160020192915050565b7f416363657373436f6e74726f6c3a206163636f756e74200000000000000000008152600083516119d6816017850160208801611b13565b7001034b99036b4b9b9b4b733903937b6329607d1b6017918401918201528351611a07816028840160208801611b13565b01602801949350505050565b6020815260008251806020840152611a32816040850160208701611b13565b601f01601f19169190910160400192915050565b6020808252602e908201527f496e697469616c697a61626c653a20636f6e747261637420697320616c72656160408201526d191e481a5b9a5d1a585b1a5e995960921b606082015260800190565b604051601f8201601f1916810167ffffffffffffffff81118282101715611abd57611abd611bd8565b604052919050565b60008219821115611ad857611ad8611bac565b500190565b6000816000190483118215151615611af757611af7611bac565b500290565b600082821015611b0e57611b0e611bac565b500390565b60005b83811015611b2e578181015183820152602001611b16565b83811115610ebc5750506000910152565b600081611b4e57611b4e611bac565b506000190190565b600181811c90821680611b6a57607f821691505b60208210811415611b8b57634e487b7160e01b600052602260045260246000fd5b50919050565b6000600019821415611ba557611ba5611bac565b5060010190565b634e487b7160e01b600052601160045260246000fd5b634e487b7160e01b600052603260045260246000fd5b634e487b7160e01b600052604160045260246000fdfe9f2df0fed2c77648de5860a4cc508cd0818c85b8b8a1ab4ceeef8d981c8956a6a264697066735822122055a76b9c82c73705116b6de4f6ec1440ed2c979d21c45ce9690bbb37c1995d7264736f6c63430008070033",
  "devdoc": {
    "kind": "dev",
    "methods": {
      "allowance(address,address)": {
        "details": "See {IERC20-allowance}."
      },
      "approve(address,uint256)": {
        "details": "See {IERC20-approve}. Requirements: - `spender` cannot be the zero address."
      },
      "balanceOf(address)": {
        "details": "See {IERC20-balanceOf}."
      },
      "burn(uint256)": {
        "details": "Destroys existed tokens.",
        "params": {
          "_amount": "Amount to be burnt."
        }
      },
      "decimals()": {
        "details": "Returns the number of decimals used to get its user representation. For example, if `decimals` equals `2`, a balance of `505` tokens should be displayed to a user as `5.05` (`505 / 10 ** 2`). Tokens usually opt for a value of 18, imitating the relationship between Ether and Wei. This is the value {ERC20} uses, unless this function is overridden; NOTE: This information is only used for _display_ purposes: it in no way affects any of the arithmetic of the contract, including {IERC20-balanceOf} and {IERC20-transfer}."
      },
      "decreaseAllowance(address,uint256)": {
        "details": "Atomically decreases the allowance granted to `spender` by the caller. This is an alternative to {approve} that can be used as a mitigation for problems described in {IERC20-approve}. Emits an {Approval} event indicating the updated allowance. Requirements: - `spender` cannot be the zero address. - `spender` must have allowance for the caller of at least `subtractedValue`."
      },
      "getRoleAdmin(bytes32)": {
        "details": "Returns the admin role that controls `role`. See {grantRole} and {revokeRole}. To change a role's admin, use {_setRoleAdmin}."
      },
      "grantRole(bytes32,address)": {
        "details": "Grants `role` to `account`. If `account` had not been already granted `role`, emits a {RoleGranted} event. Requirements: - the caller must have ``role``'s admin role."
      },
      "hasRole(bytes32,address)": {
        "details": "Returns `true` if `account` has been granted `role`."
      },
      "increaseAllowance(address,uint256)": {
        "details": "Atomically increases the allowance granted to `spender` by the caller. This is an alternative to {approve} that can be used as a mitigation for problems described in {IERC20-approve}. Emits an {Approval} event indicating the updated allowance. Requirements: - `spender` cannot be the zero address."
      },
      "initialize(string,string,uint8,address,address[])": {
        "details": "Constructor that initializes the most important configurations.",
        "params": {
          "minters": "The accounts allowed to int new tokens.",
          "name_": "Asset's name.",
          "symbol_": "Asset's symbol."
        }
      },
      "mint(address,uint256)": {
        "details": "Issues new tokens.",
        "params": {
          "_amount": "Amount to be minted.",
          "_receiver": "Token's receiver."
        }
      },
      "name()": {
        "details": "Returns the name of the token."
      },
      "permit(address,address,uint256,uint256,uint8,bytes32,bytes32)": {
        "details": "Approves the spender by signature.",
        "params": {
          "_deadline": "The permit valid until.",
          "_owner": "Token's owner.",
          "_r": "Signature part.",
          "_s": "Signature part.",
          "_spender": "Account to be approved.",
          "_v": "Signature part.",
          "_value": "Amount to be approved."
        }
      },
      "renounceRole(bytes32,address)": {
        "details": "Revokes `role` from the calling account. Roles are often managed via {grantRole} and {revokeRole}: this function's purpose is to provide a mechanism for accounts to lose their privileges if they are compromised (such as when a trusted device is misplaced). If the calling account had been granted `role`, emits a {RoleRevoked} event. Requirements: - the caller must be `account`."
      },
      "revokeRole(bytes32,address)": {
        "details": "Revokes `role` from `account`. If `account` had been granted `role`, emits a {RoleRevoked} event. Requirements: - the caller must have ``role``'s admin role."
      },
      "supportsInterface(bytes4)": {
        "details": "See {IERC165-supportsInterface}."
      },
      "symbol()": {
        "details": "Returns the symbol of the token, usually a shorter version of the name."
      },
      "totalSupply()": {
        "details": "See {IERC20-totalSupply}."
      },
      "transfer(address,uint256)": {
        "details": "See {IERC20-transfer}. Requirements: - `recipient` cannot be the zero address. - the caller must have a balance of at least `amount`."
      },
      "transferFrom(address,address,uint256)": {
        "details": "See {IERC20-transferFrom}. Emits an {Approval} event indicating the updated allowance. This is not required by the EIP. See the note at the beginning of {ERC20}. Requirements: - `sender` and `recipient` cannot be the zero address. - `sender` must have a balance of at least `amount`. - the caller must have allowance for ``sender``'s tokens of at least `amount`."
      }
    },
    "version": 1
  },
  "userdoc": {
    "kind": "user",
    "methods": {},
    "version": 1
  },
  "storageLayout": {
    "storage": [
      {
        "astId": 413,
        "contract": "contracts/periphery/DeBridgeToken.sol:DeBridgeToken",
        "label": "_initialized",
        "offset": 0,
        "slot": "0",
        "type": "t_bool"
      },
      {
        "astId": 416,
        "contract": "contracts/periphery/DeBridgeToken.sol:DeBridgeToken",
        "label": "_initializing",
        "offset": 1,
        "slot": "0",
        "type": "t_bool"
      },
      {
        "astId": 1343,
        "contract": "contracts/periphery/DeBridgeToken.sol:DeBridgeToken",
        "label": "__gap",
        "offset": 0,
        "slot": "1",
        "type": "t_array(t_uint256)50_storage"
      },
      {
        "astId": 643,
        "contract": "contracts/periphery/DeBridgeToken.sol:DeBridgeToken",
        "label": "_balances",
        "offset": 0,
        "slot": "51",
        "type": "t_mapping(t_address,t_uint256)"
      },
      {
        "astId": 649,
        "contract": "contracts/periphery/DeBridgeToken.sol:DeBridgeToken",
        "label": "_allowances",
        "offset": 0,
        "slot": "52",
        "type": "t_mapping(t_address,t_mapping(t_address,t_uint256))"
      },
      {
        "astId": 651,
        "contract": "contracts/periphery/DeBridgeToken.sol:DeBridgeToken",
        "label": "_totalSupply",
        "offset": 0,
        "slot": "53",
        "type": "t_uint256"
      },
      {
        "astId": 653,
        "contract": "contracts/periphery/DeBridgeToken.sol:DeBridgeToken",
        "label": "_name",
        "offset": 0,
        "slot": "54",
        "type": "t_string_storage"
      },
      {
        "astId": 655,
        "contract": "contracts/periphery/DeBridgeToken.sol:DeBridgeToken",
        "label": "_symbol",
        "offset": 0,
        "slot": "55",
        "type": "t_string_storage"
      },
      {
        "astId": 1196,
        "contract": "contracts/periphery/DeBridgeToken.sol:DeBridgeToken",
        "label": "__gap",
        "offset": 0,
        "slot": "56",
        "type": "t_array(t_uint256)45_storage"
      },
      {
        "astId": 1592,
        "contract": "contracts/periphery/DeBridgeToken.sol:DeBridgeToken",
        "label": "__gap",
        "offset": 0,
        "slot": "101",
        "type": "t_array(t_uint256)50_storage"
      },
      {
        "astId": 48,
        "contract": "contracts/periphery/DeBridgeToken.sol:DeBridgeToken",
        "label": "_roles",
        "offset": 0,
        "slot": "151",
        "type": "t_mapping(t_bytes32,t_struct(RoleData)43_storage)"
      },
      {
        "astId": 333,
        "contract": "contracts/periphery/DeBridgeToken.sol:DeBridgeToken",
        "label": "__gap",
        "offset": 0,
        "slot": "152",
        "type": "t_array(t_uint256)49_storage"
      },
      {
        "astId": 16834,
        "contract": "contracts/periphery/DeBridgeToken.sol:DeBridgeToken",
        "label": "DOMAIN_SEPARATOR",
        "offset": 0,
        "slot": "201",
        "type": "t_bytes32"
      },
      {
        "astId": 16841,
        "contract": "contracts/periphery/DeBridgeToken.sol:DeBridgeToken",
        "label": "nonces",
        "offset": 0,
        "slot": "202",
        "type": "t_mapping(t_address,t_uint256)"
      },
      {
        "astId": 16843,
        "contract": "contracts/periphery/DeBridgeToken.sol:DeBridgeToken",
        "label": "_decimals",
        "offset": 0,
        "slot": "203",
        "type": "t_uint8"
      }
    ],
    "types": {
      "t_address": {
        "encoding": "inplace",
        "label": "address",
        "numberOfBytes": "20"
      },
      "t_array(t_uint256)45_storage": {
        "base": "t_uint256",
        "encoding": "inplace",
        "label": "uint256[45]",
        "numberOfBytes": "1440"
      },
      "t_array(t_uint256)49_storage": {
        "base": "t_uint256",
        "encoding": "inplace",
        "label": "uint256[49]",
        "numberOfBytes": "1568"
      },
      "t_array(t_uint256)50_storage": {
        "base": "t_uint256",
        "encoding": "inplace",
        "label": "uint256[50]",
        "numberOfBytes": "1600"
      },
      "t_bool": {
        "encoding": "inplace",
        "label": "bool",
        "numberOfBytes": "1"
      },
      "t_bytes32": {
        "encoding": "inplace",
        "label": "bytes32",
        "numberOfBytes": "32"
      },
      "t_mapping(t_address,t_bool)": {
        "encoding": "mapping",
        "key": "t_address",
        "label": "mapping(address => bool)",
        "numberOfBytes": "32",
        "value": "t_bool"
      },
      "t_mapping(t_address,t_mapping(t_address,t_uint256))": {
        "encoding": "mapping",
        "key": "t_address",
        "label": "mapping(address => mapping(address => uint256))",
        "numberOfBytes": "32",
        "value": "t_mapping(t_address,t_uint256)"
      },
      "t_mapping(t_address,t_uint256)": {
        "encoding": "mapping",
        "key": "t_address",
        "label": "mapping(address => uint256)",
        "numberOfBytes": "32",
        "value": "t_uint256"
      },
      "t_mapping(t_bytes32,t_struct(RoleData)43_storage)": {
        "encoding": "mapping",
        "key": "t_bytes32",
        "label": "mapping(bytes32 => struct AccessControlUpgradeable.RoleData)",
        "numberOfBytes": "32",
        "value": "t_struct(RoleData)43_storage"
      },
      "t_string_storage": {
        "encoding": "bytes",
        "label": "string",
        "numberOfBytes": "32"
      },
      "t_struct(RoleData)43_storage": {
        "encoding": "inplace",
        "label": "struct AccessControlUpgradeable.RoleData",
        "members": [
          {
            "astId": 40,
            "contract": "contracts/periphery/DeBridgeToken.sol:DeBridgeToken",
            "label": "members",
            "offset": 0,
            "slot": "0",
            "type": "t_mapping(t_address,t_bool)"
          },
          {
            "astId": 42,
            "contract": "contracts/periphery/DeBridgeToken.sol:DeBridgeToken",
            "label": "adminRole",
            "offset": 0,
            "slot": "1",
            "type": "t_bytes32"
          }
        ],
        "numberOfBytes": "64"
      },
      "t_uint256": {
        "encoding": "inplace",
        "label": "uint256",
        "numberOfBytes": "32"
      },
      "t_uint8": {
        "encoding": "inplace",
        "label": "uint8",
        "numberOfBytes": "1"
      }
    }
  }
}