{
  "address": "0x797161BCC625155D2302251404ccB93c2632658e",
  "abi": [
    {
      "inputs": [],
      "stateMutability": "nonpayable",
      "type": "constructor"
    },
    {
      "inputs": [],
      "name": "AdminBadRole",
      "type": "error"
    },
    {
      "inputs": [],
      "name": "AssetAlreadyExist",
      "type": "error"
    },
    {
      "inputs": [],
      "name": "DebridgeNotFound",
      "type": "error"
    },
    {
      "inputs": [],
      "name": "EthTransferFailed",
      "type": "error"
    },
    {
      "inputs": [],
      "name": "FeeContractUpdaterBadRole",
      "type": "error"
    },
    {
      "inputs": [],
      "name": "FeeProxyBadRole",
      "type": "error"
    },
    {
      "inputs": [],
      "name": "GovMonitoringBadRole",
      "type": "error"
    },
    {
      "inputs": [],
      "name": "InvalidTokenToSend",
      "type": "error"
    },
    {
      "inputs": [],
      "name": "NotEnoughReserves",
      "type": "error"
    },
    {
      "inputs": [],
      "name": "NotSupportedFixedFee",
      "type": "error"
    },
    {
      "inputs": [],
      "name": "ProposedFeeTooHigh",
      "type": "error"
    },
    {
      "inputs": [],
      "name": "SignatureInvalidV",
      "type": "error"
    },
    {
      "inputs": [],
      "name": "SubmissionBlocked",
      "type": "error"
    },
    {
      "inputs": [],
      "name": "SubmissionUsed",
      "type": "error"
    },
    {
      "inputs": [],
      "name": "TransferAmountNotCoverFees",
      "type": "error"
    },
    {
      "inputs": [],
      "name": "TransferAmountTooHigh",
      "type": "error"
    },
    {
      "inputs": [],
      "name": "WrongArgument",
      "type": "error"
    },
    {
      "inputs": [],
      "name": "WrongArgumentLength",
      "type": "error"
    },
    {
      "inputs": [],
      "name": "WrongAutoArgument",
      "type": "error"
    },
    {
      "inputs": [],
      "name": "WrongChainFrom",
      "type": "error"
    },
    {
      "inputs": [],
      "name": "WrongChainTo",
      "type": "error"
    },
    {
      "inputs": [],
      "name": "ZeroAddress",
      "type": "error"
    },
    {
      "anonymous": false,
      "inputs": [
        {
          "indexed": false,
          "internalType": "bytes32",
          "name": "submissionId",
          "type": "bytes32"
        },
        {
          "indexed": true,
          "internalType": "bool",
          "name": "success",
          "type": "bool"
        },
        {
          "indexed": false,
          "internalType": "address",
          "name": "callProxy",
          "type": "address"
        }
      ],
      "name": "AutoRequestExecuted",
      "type": "event"
    },
    {
      "anonymous": false,
      "inputs": [
        {
          "indexed": false,
          "internalType": "bytes32",
          "name": "submissionId",
          "type": "bytes32"
        }
      ],
      "name": "Blocked",
      "type": "event"
    },
    {
      "anonymous": false,
      "inputs": [
        {
          "indexed": false,
          "internalType": "address",
          "name": "callProxy",
          "type": "address"
        }
      ],
      "name": "CallProxyUpdated",
      "type": "event"
    },
    {
      "anonymous": false,
      "inputs": [
        {
          "indexed": false,
          "internalType": "uint256",
          "name": "chainId",
          "type": "uint256"
        },
        {
          "indexed": false,
          "internalType": "bool",
          "name": "isSupported",
          "type": "bool"
        },
        {
          "indexed": false,
          "internalType": "bool",
          "name": "isChainFrom",
          "type": "bool"
        }
      ],
      "name": "ChainSupportUpdated",
      "type": "event"
    },
    {
      "anonymous": false,
      "inputs": [
        {
          "indexed": false,
          "internalType": "uint256",
          "name": "chainIds",
          "type": "uint256"
        },
        {
          "components": [
            {
              "internalType": "uint256",
              "name": "fixedNativeFee",
              "type": "uint256"
            },
            {
              "internalType": "bool",
              "name": "isSupported",
              "type": "bool"
            },
            {
              "internalType": "uint16",
              "name": "transferFeeBps",
              "type": "uint16"
            }
          ],
          "indexed": false,
          "internalType": "struct IDeBridgeGate.ChainSupportInfo",
          "name": "chainSupportInfo",
          "type": "tuple"
        },
        {
          "indexed": false,
          "internalType": "bool",
          "name": "isChainFrom",
          "type": "bool"
        }
      ],
      "name": "ChainsSupportUpdated",
      "type": "event"
    },
    {
      "anonymous": false,
      "inputs": [
        {
          "indexed": false,
          "internalType": "bytes32",
          "name": "submissionId",
          "type": "bytes32"
        },
        {
          "indexed": true,
          "internalType": "bytes32",
          "name": "debridgeId",
          "type": "bytes32"
        },
        {
          "indexed": false,
          "internalType": "uint256",
          "name": "amount",
          "type": "uint256"
        },
        {
          "indexed": true,
          "internalType": "address",
          "name": "receiver",
          "type": "address"
        },
        {
          "indexed": false,
          "internalType": "uint256",
          "name": "nonce",
          "type": "uint256"
        },
        {
          "indexed": true,
          "internalType": "uint256",
          "name": "chainIdFrom",
          "type": "uint256"
        },
        {
          "indexed": false,
          "internalType": "bytes",
          "name": "autoParams",
          "type": "bytes"
        },
        {
          "indexed": false,
          "internalType": "bool",
          "name": "isNativeToken",
          "type": "bool"
        }
      ],
      "name": "Claimed",
      "type": "event"
    },
    {
      "anonymous": false,
      "inputs": [
        {
          "indexed": false,
          "internalType": "uint256",
          "name": "globalFixedNativeFee",
          "type": "uint256"
        }
      ],
      "name": "FixedNativeFeeAutoUpdated",
      "type": "event"
    },
    {
      "anonymous": false,
      "inputs": [
        {
          "indexed": false,
          "internalType": "uint256",
          "name": "globalFixedNativeFee",
          "type": "uint256"
        },
        {
          "indexed": false,
          "internalType": "uint256",
          "name": "globalTransferFeeBps",
          "type": "uint256"
        }
      ],
      "name": "FixedNativeFeeUpdated",
      "type": "event"
    },
    {
      "anonymous": false,
      "inputs": [
        {
          "indexed": false,
          "internalType": "bytes32",
          "name": "submissionId",
          "type": "bytes32"
        },
        {
          "indexed": false,
          "internalType": "uint256",
          "name": "lockedOrMintedAmount",
          "type": "uint256"
        },
        {
          "indexed": false,
          "internalType": "uint256",
          "name": "totalSupply",
          "type": "uint256"
        }
      ],
      "name": "MonitoringClaimEvent",
      "type": "event"
    },
    {
      "anonymous": false,
      "inputs": [
        {
          "indexed": false,
          "internalType": "bytes32",
          "name": "submissionId",
          "type": "bytes32"
        },
        {
          "indexed": false,
          "internalType": "uint256",
          "name": "nonce",
          "type": "uint256"
        },
        {
          "indexed": false,
          "internalType": "uint256",
          "name": "lockedOrMintedAmount",
          "type": "uint256"
        },
        {
          "indexed": false,
          "internalType": "uint256",
          "name": "totalSupply",
          "type": "uint256"
        }
      ],
      "name": "MonitoringSendEvent",
      "type": "event"
    },
    {
      "anonymous": false,
      "inputs": [
        {
          "indexed": false,
          "internalType": "bytes32",
          "name": "debridgeId",
          "type": "bytes32"
        },
        {
          "indexed": false,
          "internalType": "address",
          "name": "tokenAddress",
          "type": "address"
        },
        {
          "indexed": false,
          "internalType": "bytes",
          "name": "nativeAddress",
          "type": "bytes"
        },
        {
          "indexed": true,
          "internalType": "uint256",
          "name": "nativeChainId",
          "type": "uint256"
        },
        {
          "indexed": false,
          "internalType": "uint256",
          "name": "maxAmount",
          "type": "uint256"
        },
        {
          "indexed": false,
          "internalType": "uint16",
          "name": "minReservesBps",
          "type": "uint16"
        }
      ],
      "name": "PairAdded",
      "type": "event"
    },
    {
      "anonymous": false,
      "inputs": [
        {
          "indexed": false,
          "internalType": "address",
          "name": "account",
          "type": "address"
        }
      ],
      "name": "Paused",
      "type": "event"
    },
    {
      "anonymous": false,
      "inputs": [
        {
          "indexed": true,
          "internalType": "bytes32",
          "name": "role",
          "type": "bytes32"
        },
        {
          "indexed": true,
          "internalType": "bytes32",
          "name": "previousAdminRole",
          "type": "bytes32"
        },
        {
          "indexed": true,
          "internalType": "bytes32",
          "name": "newAdminRole",
          "type": "bytes32"
        }
      ],
      "name": "RoleAdminChanged",
      "type": "event"
    },
    {
      "anonymous": false,
      "inputs": [
        {
          "indexed": true,
          "internalType": "bytes32",
          "name": "role",
          "type": "bytes32"
        },
        {
          "indexed": true,
          "internalType": "address",
          "name": "account",
          "type": "address"
        },
        {
          "indexed": true,
          "internalType": "address",
          "name": "sender",
          "type": "address"
        }
      ],
      "name": "RoleGranted",
      "type": "event"
    },
    {
      "anonymous": false,
      "inputs": [
        {
          "indexed": true,
          "internalType": "bytes32",
          "name": "role",
          "type": "bytes32"
        },
        {
          "indexed": true,
          "internalType": "address",
          "name": "account",
          "type": "address"
        },
        {
          "indexed": true,
          "internalType": "address",
          "name": "sender",
          "type": "address"
        }
      ],
      "name": "RoleRevoked",
      "type": "event"
    },
    {
      "anonymous": false,
      "inputs": [
        {
          "indexed": false,
          "internalType": "bytes32",
          "name": "submissionId",
          "type": "bytes32"
        },
        {
          "indexed": true,
          "internalType": "bytes32",
          "name": "debridgeId",
          "type": "bytes32"
        },
        {
          "indexed": false,
          "internalType": "uint256",
          "name": "amount",
          "type": "uint256"
        },
        {
          "indexed": false,
          "internalType": "bytes",
          "name": "receiver",
          "type": "bytes"
        },
        {
          "indexed": false,
          "internalType": "uint256",
          "name": "nonce",
          "type": "uint256"
        },
        {
          "indexed": true,
          "internalType": "uint256",
          "name": "chainIdTo",
          "type": "uint256"
        },
        {
          "indexed": false,
          "internalType": "uint32",
          "name": "referralCode",
          "type": "uint32"
        },
        {
          "components": [
            {
              "internalType": "uint256",
              "name": "receivedAmount",
              "type": "uint256"
            },
            {
              "internalType": "uint256",
              "name": "fixFee",
              "type": "uint256"
            },
            {
              "internalType": "uint256",
              "name": "transferFee",
              "type": "uint256"
            },
            {
              "internalType": "bool",
              "name": "useAssetFee",
              "type": "bool"
            },
            {
              "internalType": "bool",
              "name": "isNativeToken",
              "type": "bool"
            }
          ],
          "indexed": false,
          "internalType": "struct IDeBridgeGate.FeeParams",
          "name": "feeParams",
          "type": "tuple"
        },
        {
          "indexed": false,
          "internalType": "bytes",
          "name": "autoParams",
          "type": "bytes"
        },
        {
          "indexed": false,
          "internalType": "address",
          "name": "nativeSender",
          "type": "address"
        }
      ],
      "name": "Sent",
      "type": "event"
    },
    {
      "anonymous": false,
      "inputs": [
        {
          "indexed": false,
          "internalType": "bytes32",
          "name": "submissionId",
          "type": "bytes32"
        }
      ],
      "name": "Unblocked",
      "type": "event"
    },
    {
      "anonymous": false,
      "inputs": [
        {
          "indexed": false,
          "internalType": "address",
          "name": "account",
          "type": "address"
        }
      ],
      "name": "Unpaused",
      "type": "event"
    },
    {
      "anonymous": false,
      "inputs": [
        {
          "indexed": false,
          "internalType": "bytes32",
          "name": "debridgeId",
          "type": "bytes32"
        },
        {
          "indexed": false,
          "internalType": "uint256",
          "name": "fee",
          "type": "uint256"
        }
      ],
      "name": "WithdrawnFee",
      "type": "event"
    },
    {
      "inputs": [],
      "name": "BPS_DENOMINATOR",
      "outputs": [
        {
          "internalType": "uint256",
          "name": "",
          "type": "uint256"
        }
      ],
      "stateMutability": "view",
      "type": "function"
    },
    {
      "inputs": [],
      "name": "DEFAULT_ADMIN_ROLE",
      "outputs": [
        {
          "internalType": "bytes32",
          "name": "",
          "type": "bytes32"
        }
      ],
      "stateMutability": "view",
      "type": "function"
    },
    {
      "inputs": [],
      "name": "DEPLOY_PREFIX",
      "outputs": [
        {
          "internalType": "uint256",
          "name": "",
          "type": "uint256"
        }
      ],
      "stateMutability": "view",
      "type": "function"
    },
    {
      "inputs": [],
      "name": "GOVMONITORING_ROLE",
      "outputs": [
        {
          "internalType": "bytes32",
          "name": "",
          "type": "bytes32"
        }
      ],
      "stateMutability": "view",
      "type": "function"
    },
    {
      "inputs": [],
      "name": "SUBMISSION_PREFIX",
      "outputs": [
        {
          "internalType": "uint256",
          "name": "",
          "type": "uint256"
        }
      ],
      "stateMutability": "view",
      "type": "function"
    },
    {
      "inputs": [
        {
          "internalType": "uint256",
          "name": "_globalFixedNativeFee",
          "type": "uint256"
        }
      ],
      "name": "autoUpdateFixedNativeFee",
      "outputs": [],
      "stateMutability": "nonpayable",
      "type": "function"
    },
    {
      "inputs": [
        {
          "internalType": "bytes32[]",
          "name": "_submissionIds",
          "type": "bytes32[]"
        },
        {
          "internalType": "bool",
          "name": "isBlocked",
          "type": "bool"
        }
      ],
      "name": "blockSubmission",
      "outputs": [],
      "stateMutability": "nonpayable",
      "type": "function"
    },
    {
      "inputs": [],
      "name": "callProxy",
      "outputs": [
        {
          "internalType": "address",
          "name": "",
          "type": "address"
        }
      ],
      "stateMutability": "view",
      "type": "function"
    },
    {
      "inputs": [
        {
          "internalType": "bytes32",
          "name": "_debridgeId",
          "type": "bytes32"
        },
        {
          "internalType": "uint256",
          "name": "_amount",
          "type": "uint256"
        },
        {
          "internalType": "uint256",
          "name": "_chainIdFrom",
          "type": "uint256"
        },
        {
          "internalType": "address",
          "name": "_receiver",
          "type": "address"
        },
        {
          "internalType": "uint256",
          "name": "_nonce",
          "type": "uint256"
        },
        {
          "internalType": "bytes",
          "name": "_signatures",
          "type": "bytes"
        },
        {
          "internalType": "bytes",
          "name": "_autoParams",
          "type": "bytes"
        }
      ],
      "name": "claim",
      "outputs": [],
      "stateMutability": "nonpayable",
      "type": "function"
    },
    {
      "inputs": [],
      "name": "deBridgeTokenDeployer",
      "outputs": [
        {
          "internalType": "address",
          "name": "",
          "type": "address"
        }
      ],
      "stateMutability": "view",
      "type": "function"
    },
    {
      "inputs": [
        {
          "internalType": "bytes",
          "name": "_nativeTokenAddress",
          "type": "bytes"
        },
        {
          "internalType": "uint256",
          "name": "_nativeChainId",
          "type": "uint256"
        },
        {
          "internalType": "string",
          "name": "_name",
          "type": "string"
        },
        {
          "internalType": "string",
          "name": "_symbol",
          "type": "string"
        },
        {
          "internalType": "uint8",
          "name": "_decimals",
          "type": "uint8"
        },
        {
          "internalType": "bytes",
          "name": "_signatures",
          "type": "bytes"
        }
      ],
      "name": "deployNewAsset",
      "outputs": [],
      "stateMutability": "nonpayable",
      "type": "function"
    },
    {
      "inputs": [],
      "name": "excessConfirmations",
      "outputs": [
        {
          "internalType": "uint8",
          "name": "",
          "type": "uint8"
        }
      ],
      "stateMutability": "view",
      "type": "function"
    },
    {
      "inputs": [],
      "name": "feeContractUpdater",
      "outputs": [
        {
          "internalType": "address",
          "name": "",
          "type": "address"
        }
      ],
      "stateMutability": "view",
      "type": "function"
    },
    {
      "inputs": [
        {
          "internalType": "address",
          "name": "",
          "type": "address"
        }
      ],
      "name": "feeDiscount",
      "outputs": [
        {
          "internalType": "uint16",
          "name": "discountFixBps",
          "type": "uint16"
        },
        {
          "internalType": "uint16",
          "name": "discountTransferBps",
          "type": "uint16"
        }
      ],
      "stateMutability": "view",
      "type": "function"
    },
    {
      "inputs": [],
      "name": "feeProxy",
      "outputs": [
        {
          "internalType": "address",
          "name": "",
          "type": "address"
        }
      ],
      "stateMutability": "view",
      "type": "function"
    },
    {
      "inputs": [],
      "name": "gap0",
      "outputs": [
        {
          "internalType": "uint256",
          "name": "",
          "type": "uint256"
        }
      ],
      "stateMutability": "view",
      "type": "function"
    },
    {
      "inputs": [],
      "name": "gap1",
      "outputs": [
        {
          "internalType": "address",
          "name": "",
          "type": "address"
        }
      ],
      "stateMutability": "view",
      "type": "function"
    },
    {
      "inputs": [
        {
          "internalType": "bytes32",
          "name": "",
          "type": "bytes32"
        }
      ],
      "name": "getAmountThreshold",
      "outputs": [
        {
          "internalType": "uint256",
          "name": "",
          "type": "uint256"
        }
      ],
      "stateMutability": "view",
      "type": "function"
    },
    {
      "inputs": [
        {
          "internalType": "uint256",
          "name": "",
          "type": "uint256"
        }
      ],
      "name": "getChainFromConfig",
      "outputs": [
        {
          "internalType": "uint256",
          "name": "fixedNativeFee",
          "type": "uint256"
        },
        {
          "internalType": "bool",
          "name": "isSupported",
          "type": "bool"
        },
        {
          "internalType": "uint16",
          "name": "transferFeeBps",
          "type": "uint16"
        }
      ],
      "stateMutability": "view",
      "type": "function"
    },
    {
      "inputs": [],
      "name": "getChainId",
      "outputs": [
        {
          "internalType": "uint256",
          "name": "cid",
          "type": "uint256"
        }
      ],
      "stateMutability": "view",
      "type": "function"
    },
    {
      "inputs": [
        {
          "internalType": "uint256",
          "name": "",
          "type": "uint256"
        }
      ],
      "name": "getChainToConfig",
      "outputs": [
        {
          "internalType": "uint256",
          "name": "fixedNativeFee",
          "type": "uint256"
        },
        {
          "internalType": "bool",
          "name": "isSupported",
          "type": "bool"
        },
        {
          "internalType": "uint16",
          "name": "transferFeeBps",
          "type": "uint16"
        }
      ],
      "stateMutability": "view",
      "type": "function"
    },
    {
      "inputs": [
        {
          "internalType": "bytes32",
          "name": "",
          "type": "bytes32"
        }
      ],
      "name": "getDebridge",
      "outputs": [
        {
          "internalType": "uint256",
          "name": "chainId",
          "type": "uint256"
        },
        {
          "internalType": "uint256",
          "name": "maxAmount",
          "type": "uint256"
        },
        {
          "internalType": "uint256",
          "name": "balance",
          "type": "uint256"
        },
        {
          "internalType": "uint256",
          "name": "lockedInStrategies",
          "type": "uint256"
        },
        {
          "internalType": "address",
          "name": "tokenAddress",
          "type": "address"
        },
        {
          "internalType": "uint16",
          "name": "minReservesBps",
          "type": "uint16"
        },
        {
          "internalType": "bool",
          "name": "exist",
          "type": "bool"
        }
      ],
      "stateMutability": "view",
      "type": "function"
    },
    {
      "inputs": [
        {
          "internalType": "bytes32",
          "name": "_debridgeId",
          "type": "bytes32"
        },
        {
          "internalType": "uint256",
          "name": "_chainId",
          "type": "uint256"
        }
      ],
      "name": "getDebridgeChainAssetFixedFee",
      "outputs": [
        {
          "internalType": "uint256",
          "name": "",
          "type": "uint256"
        }
      ],
      "stateMutability": "view",
      "type": "function"
    },
    {
      "inputs": [
        {
          "internalType": "bytes32",
          "name": "",
          "type": "bytes32"
        }
      ],
      "name": "getDebridgeFeeInfo",
      "outputs": [
        {
          "internalType": "uint256",
          "name": "collectedFees",
          "type": "uint256"
        },
        {
          "internalType": "uint256",
          "name": "withdrawnFees",
          "type": "uint256"
        }
      ],
      "stateMutability": "view",
      "type": "function"
    },
    {
      "inputs": [
        {
          "internalType": "uint256",
          "name": "_chainId",
          "type": "uint256"
        },
        {
          "internalType": "address",
          "name": "_tokenAddress",
          "type": "address"
        }
      ],
      "name": "getDebridgeId",
      "outputs": [
        {
          "internalType": "bytes32",
          "name": "",
          "type": "bytes32"
        }
      ],
      "stateMutability": "pure",
      "type": "function"
    },
    {
      "inputs": [
        {
          "internalType": "bytes32",
          "name": "_debridgeId",
          "type": "bytes32"
        },
        {
          "internalType": "string",
          "name": "_name",
          "type": "string"
        },
        {
          "internalType": "string",
          "name": "_symbol",
          "type": "string"
        },
        {
          "internalType": "uint8",
          "name": "_decimals",
          "type": "uint8"
        }
      ],
      "name": "getDeployId",
      "outputs": [
        {
          "internalType": "bytes32",
          "name": "",
          "type": "bytes32"
        }
      ],
      "stateMutability": "pure",
      "type": "function"
    },
    {
      "inputs": [
        {
          "internalType": "address",
          "name": "",
          "type": "address"
        }
      ],
      "name": "getNativeInfo",
      "outputs": [
        {
          "internalType": "uint256",
          "name": "nativeChainId",
          "type": "uint256"
        },
        {
          "internalType": "bytes",
          "name": "nativeAddress",
          "type": "bytes"
        }
      ],
      "stateMutability": "view",
      "type": "function"
    },
    {
      "inputs": [
        {
          "internalType": "bytes32",
          "name": "role",
          "type": "bytes32"
        }
      ],
      "name": "getRoleAdmin",
      "outputs": [
        {
          "internalType": "bytes32",
          "name": "",
          "type": "bytes32"
        }
      ],
      "stateMutability": "view",
      "type": "function"
    },
    {
      "inputs": [
        {
          "internalType": "bytes32",
          "name": "_debridgeId",
          "type": "bytes32"
        },
        {
          "internalType": "uint256",
          "name": "_chainIdFrom",
          "type": "uint256"
        },
        {
          "internalType": "uint256",
          "name": "_amount",
          "type": "uint256"
        },
        {
          "internalType": "address",
          "name": "_receiver",
          "type": "address"
        },
        {
          "internalType": "uint256",
          "name": "_nonce",
          "type": "uint256"
        },
        {
          "components": [
            {
              "internalType": "uint256",
              "name": "executionFee",
              "type": "uint256"
            },
            {
              "internalType": "uint256",
              "name": "flags",
              "type": "uint256"
            },
            {
              "internalType": "address",
              "name": "fallbackAddress",
              "type": "address"
            },
            {
              "internalType": "bytes",
              "name": "data",
              "type": "bytes"
            },
            {
              "internalType": "bytes",
              "name": "nativeSender",
              "type": "bytes"
            }
          ],
          "internalType": "struct IDeBridgeGate.SubmissionAutoParamsFrom",
          "name": "_autoParams",
          "type": "tuple"
        },
        {
          "internalType": "bool",
          "name": "_hasAutoParams",
          "type": "bool"
        },
        {
          "internalType": "address",
          "name": "_sender",
          "type": "address"
        }
      ],
      "name": "getSubmissionIdFrom",
      "outputs": [
        {
          "internalType": "bytes32",
          "name": "",
          "type": "bytes32"
        }
      ],
      "stateMutability": "view",
      "type": "function"
    },
    {
      "inputs": [
        {
          "internalType": "uint256",
          "name": "_chainId",
          "type": "uint256"
        },
        {
          "internalType": "bytes",
          "name": "_tokenAddress",
          "type": "bytes"
        }
      ],
      "name": "getbDebridgeId",
      "outputs": [
        {
          "internalType": "bytes32",
          "name": "",
          "type": "bytes32"
        }
      ],
      "stateMutability": "pure",
      "type": "function"
    },
    {
      "inputs": [],
      "name": "globalFixedNativeFee",
      "outputs": [
        {
          "internalType": "uint256",
          "name": "",
          "type": "uint256"
        }
      ],
      "stateMutability": "view",
      "type": "function"
    },
    {
      "inputs": [],
      "name": "globalTransferFeeBps",
      "outputs": [
        {
          "internalType": "uint16",
          "name": "",
          "type": "uint16"
        }
      ],
      "stateMutability": "view",
      "type": "function"
    },
    {
      "inputs": [
        {
          "internalType": "bytes32",
          "name": "role",
          "type": "bytes32"
        },
        {
          "internalType": "address",
          "name": "account",
          "type": "address"
        }
      ],
      "name": "grantRole",
      "outputs": [],
      "stateMutability": "nonpayable",
      "type": "function"
    },
    {
      "inputs": [
        {
          "internalType": "bytes32",
          "name": "role",
          "type": "bytes32"
        },
        {
          "internalType": "address",
          "name": "account",
          "type": "address"
        }
      ],
      "name": "hasRole",
      "outputs": [
        {
          "internalType": "bool",
          "name": "",
          "type": "bool"
        }
      ],
      "stateMutability": "view",
      "type": "function"
    },
    {
      "inputs": [
        {
          "internalType": "uint8",
          "name": "_excessConfirmations",
          "type": "uint8"
        },
        {
          "internalType": "contract IWETH",
          "name": "_weth",
          "type": "address"
        }
      ],
      "name": "initialize",
      "outputs": [],
      "stateMutability": "nonpayable",
      "type": "function"
    },
    {
      "inputs": [
        {
          "internalType": "bytes32",
          "name": "",
          "type": "bytes32"
        }
      ],
      "name": "isBlockedSubmission",
      "outputs": [
        {
          "internalType": "bool",
          "name": "",
          "type": "bool"
        }
      ],
      "stateMutability": "view",
      "type": "function"
    },
    {
      "inputs": [
        {
          "internalType": "bytes32",
          "name": "",
          "type": "bytes32"
        }
      ],
      "name": "isSubmissionUsed",
      "outputs": [
        {
          "internalType": "bool",
          "name": "",
          "type": "bool"
        }
      ],
      "stateMutability": "view",
      "type": "function"
    },
    {
      "inputs": [],
      "name": "lockedClaim",
      "outputs": [
        {
          "internalType": "uint256",
          "name": "",
          "type": "uint256"
        }
      ],
      "stateMutability": "view",
      "type": "function"
    },
    {
      "inputs": [],
      "name": "nonce",
      "outputs": [
        {
          "internalType": "uint256",
          "name": "",
          "type": "uint256"
        }
      ],
      "stateMutability": "view",
      "type": "function"
    },
    {
      "inputs": [],
      "name": "pause",
      "outputs": [],
      "stateMutability": "nonpayable",
      "type": "function"
    },
    {
      "inputs": [],
      "name": "paused",
      "outputs": [
        {
          "internalType": "bool",
          "name": "",
          "type": "bool"
        }
      ],
      "stateMutability": "view",
      "type": "function"
    },
    {
      "inputs": [
        {
          "internalType": "bytes32",
          "name": "role",
          "type": "bytes32"
        },
        {
          "internalType": "address",
          "name": "account",
          "type": "address"
        }
      ],
      "name": "renounceRole",
      "outputs": [],
      "stateMutability": "nonpayable",
      "type": "function"
    },
    {
      "inputs": [
        {
          "internalType": "bytes32",
          "name": "role",
          "type": "bytes32"
        },
        {
          "internalType": "address",
          "name": "account",
          "type": "address"
        }
      ],
      "name": "revokeRole",
      "outputs": [],
      "stateMutability": "nonpayable",
      "type": "function"
    },
    {
      "inputs": [
        {
          "internalType": "address",
          "name": "_tokenAddress",
          "type": "address"
        },
        {
          "internalType": "uint256",
          "name": "_amount",
          "type": "uint256"
        },
        {
          "internalType": "uint256",
          "name": "_chainIdTo",
          "type": "uint256"
        },
        {
          "internalType": "bytes",
          "name": "_receiver",
          "type": "bytes"
        },
        {
          "internalType": "bytes",
          "name": "_permitEnvelope",
          "type": "bytes"
        },
        {
          "internalType": "bool",
          "name": "_useAssetFee",
          "type": "bool"
        },
        {
          "internalType": "uint32",
          "name": "_referralCode",
          "type": "uint32"
        },
        {
          "internalType": "bytes",
          "name": "_autoParams",
          "type": "bytes"
        }
      ],
      "name": "send",
      "outputs": [
        {
          "internalType": "bytes32",
          "name": "submissionId",
          "type": "bytes32"
        }
      ],
      "stateMutability": "payable",
      "type": "function"
    },
    {
      "inputs": [
        {
          "internalType": "uint256",
          "name": "_chainIdTo",
          "type": "uint256"
        },
        {
          "internalType": "bytes",
          "name": "_targetContractAddress",
          "type": "bytes"
        },
        {
          "internalType": "bytes",
          "name": "_targetContractCalldata",
          "type": "bytes"
        },
        {
          "internalType": "uint256",
          "name": "_flags",
          "type": "uint256"
        },
        {
          "internalType": "uint32",
          "name": "_referralCode",
          "type": "uint32"
        }
      ],
      "name": "sendMessage",
      "outputs": [
        {
          "internalType": "bytes32",
          "name": "submissionId",
          "type": "bytes32"
        }
      ],
      "stateMutability": "payable",
      "type": "function"
    },
    {
      "inputs": [
        {
          "internalType": "uint256",
          "name": "_chainIdTo",
          "type": "uint256"
        },
        {
          "internalType": "bytes",
          "name": "_targetContractAddress",
          "type": "bytes"
        },
        {
          "internalType": "bytes",
          "name": "_targetContractCalldata",
          "type": "bytes"
        }
      ],
      "name": "sendMessage",
      "outputs": [
        {
          "internalType": "bytes32",
          "name": "submissionId",
          "type": "bytes32"
        }
      ],
      "stateMutability": "payable",
      "type": "function"
    },
    {
      "inputs": [
        {
          "internalType": "address",
          "name": "_callProxy",
          "type": "address"
        }
      ],
      "name": "setCallProxy",
      "outputs": [],
      "stateMutability": "nonpayable",
      "type": "function"
    },
    {
      "inputs": [
        {
          "internalType": "uint256",
          "name": "_chainId",
          "type": "uint256"
        },
        {
          "internalType": "bool",
          "name": "_isSupported",
          "type": "bool"
        },
        {
          "internalType": "bool",
          "name": "_isChainFrom",
          "type": "bool"
        }
      ],
      "name": "setChainSupport",
      "outputs": [],
      "stateMutability": "nonpayable",
      "type": "function"
    },
    {
      "inputs": [
        {
          "internalType": "address",
          "name": "_deBridgeTokenDeployer",
          "type": "address"
        }
      ],
      "name": "setDeBridgeTokenDeployer",
      "outputs": [],
      "stateMutability": "nonpayable",
      "type": "function"
    },
    {
      "inputs": [
        {
          "internalType": "address",
          "name": "_value",
          "type": "address"
        }
      ],
      "name": "setFeeContractUpdater",
      "outputs": [],
      "stateMutability": "nonpayable",
      "type": "function"
    },
    {
      "inputs": [
        {
          "internalType": "address",
          "name": "_feeProxy",
          "type": "address"
        }
      ],
      "name": "setFeeProxy",
      "outputs": [],
      "stateMutability": "nonpayable",
      "type": "function"
    },
    {
      "inputs": [
        {
          "internalType": "address",
          "name": "_verifier",
          "type": "address"
        }
      ],
      "name": "setSignatureVerifier",
      "outputs": [],
      "stateMutability": "nonpayable",
      "type": "function"
    },
    {
      "inputs": [
        {
          "internalType": "contract IWethGate",
          "name": "_wethGate",
          "type": "address"
        }
      ],
      "name": "setWethGate",
      "outputs": [],
      "stateMutability": "nonpayable",
      "type": "function"
    },
    {
      "inputs": [],
      "name": "signatureVerifier",
      "outputs": [
        {
          "internalType": "address",
          "name": "",
          "type": "address"
        }
      ],
      "stateMutability": "view",
      "type": "function"
    },
    {
      "inputs": [
        {
          "internalType": "bytes4",
          "name": "interfaceId",
          "type": "bytes4"
        }
      ],
      "name": "supportsInterface",
      "outputs": [
        {
          "internalType": "bool",
          "name": "",
          "type": "bool"
        }
      ],
      "stateMutability": "view",
      "type": "function"
    },
    {
      "inputs": [],
      "name": "unpause",
      "outputs": [],
      "stateMutability": "nonpayable",
      "type": "function"
    },
    {
      "inputs": [
        {
          "internalType": "bytes32",
          "name": "_debridgeId",
          "type": "bytes32"
        },
        {
          "internalType": "uint256",
          "name": "_maxAmount",
          "type": "uint256"
        },
        {
          "internalType": "uint16",
          "name": "_minReservesBps",
          "type": "uint16"
        },
        {
          "internalType": "uint256",
          "name": "_amountThreshold",
          "type": "uint256"
        }
      ],
      "name": "updateAsset",
      "outputs": [],
      "stateMutability": "nonpayable",
      "type": "function"
    },
    {
      "inputs": [
        {
          "internalType": "bytes32",
          "name": "_debridgeId",
          "type": "bytes32"
        },
        {
          "internalType": "uint256[]",
          "name": "_supportedChainIds",
          "type": "uint256[]"
        },
        {
          "internalType": "uint256[]",
          "name": "_assetFeesInfo",
          "type": "uint256[]"
        }
      ],
      "name": "updateAssetFixedFees",
      "outputs": [],
      "stateMutability": "nonpayable",
      "type": "function"
    },
    {
      "inputs": [
        {
          "internalType": "uint256[]",
          "name": "_chainIds",
          "type": "uint256[]"
        },
        {
          "components": [
            {
              "internalType": "uint256",
              "name": "fixedNativeFee",
              "type": "uint256"
            },
            {
              "internalType": "bool",
              "name": "isSupported",
              "type": "bool"
            },
            {
              "internalType": "uint16",
              "name": "transferFeeBps",
              "type": "uint16"
            }
          ],
          "internalType": "struct IDeBridgeGate.ChainSupportInfo[]",
          "name": "_chainSupportInfo",
          "type": "tuple[]"
        },
        {
          "internalType": "bool",
          "name": "_isChainFrom",
          "type": "bool"
        }
      ],
      "name": "updateChainSupport",
      "outputs": [],
      "stateMutability": "nonpayable",
      "type": "function"
    },
    {
      "inputs": [
        {
          "internalType": "uint8",
          "name": "_excessConfirmations",
          "type": "uint8"
        }
      ],
      "name": "updateExcessConfirmations",
      "outputs": [],
      "stateMutability": "nonpayable",
      "type": "function"
    },
    {
      "inputs": [
        {
          "internalType": "address",
          "name": "_address",
          "type": "address"
        },
        {
          "internalType": "uint16",
          "name": "_discountFixBps",
          "type": "uint16"
        },
        {
          "internalType": "uint16",
          "name": "_discountTransferBps",
          "type": "uint16"
        }
      ],
      "name": "updateFeeDiscount",
      "outputs": [],
      "stateMutability": "nonpayable",
      "type": "function"
    },
    {
      "inputs": [
        {
          "internalType": "uint256",
          "name": "_globalFixedNativeFee",
          "type": "uint256"
        },
        {
          "internalType": "uint16",
          "name": "_globalTransferFeeBps",
          "type": "uint16"
        }
      ],
      "name": "updateGlobalFee",
      "outputs": [],
      "stateMutability": "nonpayable",
      "type": "function"
    },
    {
      "inputs": [],
      "name": "version",
      "outputs": [
        {
          "internalType": "uint256",
          "name": "",
          "type": "uint256"
        }
      ],
      "stateMutability": "pure",
      "type": "function"
    },
    {
      "inputs": [],
      "name": "weth",
      "outputs": [
        {
          "internalType": "contract IWETH",
          "name": "",
          "type": "address"
        }
      ],
      "stateMutability": "view",
      "type": "function"
    },
    {
      "inputs": [],
      "name": "wethGate",
      "outputs": [
        {
          "internalType": "contract IWethGate",
          "name": "",
          "type": "address"
        }
      ],
      "stateMutability": "view",
      "type": "function"
    },
    {
      "inputs": [
        {
          "internalType": "bytes32",
          "name": "_debridgeId",
          "type": "bytes32"
        }
      ],
      "name": "withdrawFee",
      "outputs": [],
      "stateMutability": "nonpayable",
      "type": "function"
    },
    {
      "stateMutability": "payable",
      "type": "receive"
    }
  ],
  "transactionHash": "0x957a669e82eeb866a59867983fe272519b4f1e005ae2bc81b04c81902dec7f1e",
  "args": [],
  "solcInputHash": "7e98ca12daf2b9abcd0731b7f754144f",
  "bytecode": "0x60806040523480156200001157600080fd5b50600054610100900460ff16806200002c575060005460ff16155b620000945760405162461bcd60e51b815260206004820152602e60248201527f496e697469616c697a61626c653a20636f6e747261637420697320616c72656160448201526d191e481a5b9a5d1a585b1a5e995960921b606482015260840160405180910390fd5b600054610100900460ff16158015620000b7576000805461ffff19166101011790555b8015620000ca576000805461ff00191690555b5061565d80620000db6000396000f3fe6080604052600436106103dd5760003560e01c8063932fb34b116101fd578063c41449eb11610118578063da615052116100ab578063e1a452181161007a578063e1a4521814610d22578063e836a7a914610d38578063ee81fb9714610d66578063f449063314610d7d578063fde919f614610d9d57600080fd5b8063da61505214610c80578063dc1995e914610cb4578063e08a660514610ce2578063e0d3f02914610d0257600080fd5b8063d19c3dd8116100e7578063d19c3dd814610c00578063d547741f14610c20578063d6b531aa14610c40578063d7457c0314610c6057600080fd5b8063c41449eb14610b62578063c432e3ff14610b82578063c93f974014610ba2578063cb33764a14610bc357600080fd5b8063b242e7cf11610190578063bd2608fa1161015f578063bd2608fa14610acc578063be29747614610aec578063c1efe77d14610aff578063c280c90514610b4257600080fd5b8063b242e7cf14610a01578063b3b25f9514610a58578063b9b5565214610a78578063ba9f777614610aab57600080fd5b8063970a117c116101cc578063970a117c1461096b5780639a8c3a0f1461098c578063a217fddf146109d6578063affed0e0146109eb57600080fd5b8063932fb34b146108e5578063960396ae1461091657806396341ea71461092b5780639682b9091461094b57600080fd5b80634665a2f4116102f857806365ac9f781161028b5780637f4de21c1161025a5780637f4de21c146108495780638456cb5914610870578063889d71a214610885578063895f0c6a146108a557806391d14854146108c557600080fd5b806365ac9f78146107835780636ea9cec9146107b4578063760112ff146107c75780637796656c146107e757600080fd5b8063551156d6116102c7578063551156d61461066a57806357cf07ca1461068a5780635c8371981461073c5780635c975abb1461076b57600080fd5b80634665a2f4146106005780634a77d3b6146106205780635187599d1461063557806354fd4d501461065557600080fd5b80632da688ac1161037057806335087f0a1161033f57806335087f0a1461059357806336568abe146105aa5780633f4ba83a146105ca5780633fc8cef3146105df57600080fd5b80632da688ac146105075780632f2ff15d1461054057806331bf10c1146105605780633408e4701461058057600080fd5b806325ff97a0116103ac57806325ff97a01461049e57806326c09e94146104b15780632b0d0a8b146104d15780632d716a3f146104f157600080fd5b806301ffc9a7146103e957806315a4587a1461041e578063248a9ca31461044057806325be0be11461047e57600080fd5b366103e457005b600080fd5b3480156103f557600080fd5b50610409610404366004614103565b610dbd565b60405190151581526020015b60405180910390f35b34801561042a57600080fd5b5061043e61043936600461427b565b610df4565b005b34801561044c57600080fd5b5061047061045b366004614380565b60009081526065602052604090206001015490565b604051908152602001610415565b34801561048a57600080fd5b5061043e6104993660046143b9565b611006565b6104706104ac366004614459565b611051565b3480156104bd57600080fd5b5061043e6104cc366004614380565b61116c565b3480156104dd57600080fd5b5061043e6104ec3660046143b9565b6112bd565b3480156104fd57600080fd5b5061047060fd5481565b34801561051357600080fd5b5061010a54610528906001600160a01b031681565b6040516001600160a01b039091168152602001610415565b34801561054c57600080fd5b5061043e61055b3660046144e0565b61133b565b34801561056c57600080fd5b5061043e61057b366004614510565b611366565b34801561058c57600080fd5b5046610470565b34801561059f57600080fd5b5061047061010d5481565b3480156105b657600080fd5b5061043e6105c53660046144e0565b61141d565b3480156105d657600080fd5b5061043e61149b565b3480156105eb57600080fd5b5061010b54610528906001600160a01b031681565b34801561060c57600080fd5b5061043e61061b36600461456c565b6114cd565b34801561062c57600080fd5b50610470600281565b34801561064157600080fd5b5061043e610650366004614589565b611539565b34801561066157600080fd5b506101a5610470565b34801561067657600080fd5b5061043e6106853660046145b7565b6115ed565b34801561069657600080fd5b506106f86106a5366004614380565b60ff602081905260009182526040909120805460018201546002830154600384015460049094015492949193909290916001600160a01b0382169161ffff600160a01b82041691600160b01b9091041687565b6040805197885260208801969096529486019390935260608501919091526001600160a01b0316608084015261ffff1660a0830152151560c082015260e001610415565b34801561074857600080fd5b5061010e546107589061ffff1681565b60405161ffff9091168152602001610415565b34801561077757600080fd5b5060975460ff16610409565b34801561078f57600080fd5b5061040961079e366004614380565b6101016020526000908152604090205460ff1681565b6104706107c23660046145f4565b611684565b3480156107d357600080fd5b506104706107e2366004614713565b6116bb565b3480156107f357600080fd5b5061082a610802366004614380565b610104602052600090815260409020805460019091015460ff811690610100900461ffff1683565b60408051938452911515602084015261ffff1690820152606001610415565b34801561085557600080fd5b5061010e54610528906201000090046001600160a01b031681565b34801561087c57600080fd5b5061043e611836565b34801561089157600080fd5b5061043e6108a03660046143b9565b611885565b3480156108b157600080fd5b5061043e6108c03660046147b0565b6118cf565b3480156108d157600080fd5b506104096108e03660046144e0565b611999565b3480156108f157600080fd5b50610409610900366004614380565b6101026020526000908152604090205460ff1681565b34801561092257600080fd5b50610470600181565b34801561093757600080fd5b5061043e610946366004614812565b6119c4565b34801561095757600080fd5b506104706109663660046144e0565b611aff565b34801561097757600080fd5b5061010c54610528906001600160a01b031681565b34801561099857600080fd5b506109c16109a7366004614380565b610100602052600090815260409020805460019091015482565b60408051928352602083019190915201610415565b3480156109e257600080fd5b50610470600081565b3480156109f757600080fd5b5061047060fe5481565b348015610a0d57600080fd5b50610a3d610a1c3660046143b9565b6101066020526000908152604090205461ffff808216916201000090041682565b6040805161ffff938416815292909116602083015201610415565b348015610a6457600080fd5b5061043e610a733660046148b4565b611b48565b348015610a8457600080fd5b5060fc54610a9990600160a01b900460ff1681565b60405160ff9091168152602001610415565b348015610ab757600080fd5b5061010954610528906001600160a01b031681565b348015610ad857600080fd5b5061043e610ae73660046148f0565b611bf6565b610470610afa3660046149fd565b611da5565b348015610b0b57600080fd5b5061082a610b1a366004614380565b610105602052600090815260409020805460019091015460ff811690610100900461ffff1683565b348015610b4e57600080fd5b5061043e610b5d366004614ad3565b611f07565b348015610b6e57600080fd5b5061043e610b7d366004614b59565b612089565b348015610b8e57600080fd5b5061043e610b9d3660046143b9565b61210a565b348015610bae57600080fd5b5061010854610528906001600160a01b031681565b348015610bcf57600080fd5b50610470610bde366004614b85565b6000918252610100602090815260408084209284526002909201905290205490565b348015610c0c57600080fd5b50610470610c1b366004614ba7565b61215d565b348015610c2c57600080fd5b5061043e610c3b3660046144e0565b612203565b348015610c4c57600080fd5b5061043e610c5b366004614380565b612229565b348015610c6c57600080fd5b5060fb54610528906001600160a01b031681565b348015610c8c57600080fd5b506104707f2b36fa99e118fa8485d488becf749a974743fbeb6a7aa57e663893bf5d69a3c181565b348015610cc057600080fd5b50610cd4610ccf3660046143b9565b61228b565b604051610415929190614c76565b348015610cee57600080fd5b5061043e610cfd3660046143b9565b612331565b348015610d0e57600080fd5b5061043e610d1d3660046143b9565b61237b565b348015610d2e57600080fd5b5061047061271081565b348015610d4457600080fd5b50610470610d53366004614380565b6101036020526000908152604090205481565b348015610d7257600080fd5b5061047061010f5481565b348015610d8957600080fd5b50610470610d98366004614c8f565b6123c6565b348015610da957600080fd5b5060fc54610528906001600160a01b031681565b60006001600160e01b03198216637965db0b60e01b1480610dee57506301ffc9a760e01b6001600160e01b03198316145b92915050565b610dff600033611999565b610e1c57604051636f4720fd60e11b815260040160405180910390fd5b8151835114610e3e57604051634668624160e01b815260040160405180910390fd5b60005b8351811015611000578115610eda57828181518110610e6257610e62614cd5565b60200260200101516101056000868481518110610e8157610e81614cd5565b6020908102919091018101518252818101929092526040908101600020835181559183015160019092018054939091015161ffff166101000262ffff00199215159290921662ffffff1990931692909217179055610f60565b828181518110610eec57610eec614cd5565b60200260200101516101046000868481518110610f0b57610f0b614cd5565b6020908102919091018101518252818101929092526040908101600020835181559183015160019092018054939091015161ffff166101000262ffff00199215159290921662ffffff19909316929092171790555b7f753df979edb610900dbec05f67411d26a90a78013a0e3a028f2fd9d3c6fd214f848281518110610f9357610f93614cd5565b6020026020010151848381518110610fad57610fad614cd5565b6020908102919091018101516040805193845281518484015291810151151583830152015161ffff166060820152831515608082015260a00160405180910390a180610ff881614d01565b915050610e41565b50505050565b611011600033611999565b61102e57604051636f4720fd60e11b815260040160405180910390fd5b61010980546001600160a01b0319166001600160a01b0392909216919091179055565b6000600260c9540361107e5760405162461bcd60e51b815260040161107590614d1a565b60405180910390fd5b600260c95560975460ff16156110a65760405162461bcd60e51b815260040161107590614d51565b845115806110b357508351155b156110d1576040516315c1f47560e31b815260040160405180910390fd5b60008060006110f4604051806020016040528060008152506000808c60006123db565b9250925092506111256040518060800160405280600081526020016000815260200160608152602001606081525090565b611130600085612bbd565b8152602081018790526040810189905260608101889052611159838b60008c868b876001612c83565b600160c9559a9950505050505050505050565b600260c9540361118e5760405162461bcd60e51b815260040161107590614d1a565b600260c955610109546001600160a01b031633146111bf5760405163dd518cdb60e01b815260040160405180910390fd5b600081815261010060205260408120600181015481549192916111e29190614d7b565b9050806000036112055760405163c6c13aa760e01b815260040160405180910390fd5b808260010160008282546112199190614d8e565b9091555061122b9050465b6000611aff565b830361124d5761010954611248906001600160a01b031682612f2e565b61127a565b61010954600084815260ff602052604090206004015461127a916001600160a01b03918216911683612fbc565b60408051848152602081018390527fb4006a5a0c03fd761a319df109910cdb56253d60a54ffc647c070b8bad0a8ae3910160405180910390a15050600160c95550565b6112c8600033611999565b6112e557604051636f4720fd60e11b815260040160405180910390fd5b61010a80546001600160a01b0319166001600160a01b0383169081179091556040519081527fa9543b36462a5e2c2259a14d72a8bd4e2342eaf9d7c828e9fb86921b3aa3eb5f906020015b60405180910390a150565b600082815260656020526040902060010154611357813361301f565b6113618383613083565b505050565b611371600033611999565b61138e57604051636f4720fd60e11b815260040160405180910390fd5b80156113b757600083815261010560205260409020600101805460ff19168315151790556113d6565b600083815261010460205260409020600101805460ff19168315151790555b6040805184815283151560208201528215158183015290517f522cc1aea4e8d667320894993cf2dc17feb624e400eb812c41a8efbcefc3d3409181900360600190a1505050565b6001600160a01b038116331461148d5760405162461bcd60e51b815260206004820152602f60248201527f416363657373436f6e74726f6c3a2063616e206f6e6c792072656e6f756e636560448201526e103937b632b9903337b91039b2b63360891b6064820152608401611075565b6114978282613109565b5050565b6114a6600033611999565b6114c357604051636f4720fd60e11b815260040160405180910390fd5b6114cb613170565b565b6114d8600033611999565b6114f557604051636f4720fd60e11b815260040160405180910390fd5b8060ff1660000361151957604051634668624160e01b815260040160405180910390fd5b60fc805460ff909216600160a01b0260ff60a01b19909216919091179055565b600054610100900460ff1680611552575060005460ff16155b61156e5760405162461bcd60e51b815260040161107590614da1565b600054610100900460ff16158015611590576000805461ffff19166101011790555b60fc805460ff60a01b1916600160a01b60ff86160217905561010b80546001600160a01b0319166001600160a01b0384161790556115cf600033613203565b6115d761320d565b8015611361576000805461ff0019169055505050565b6115f8600033611999565b61161557604051636f4720fd60e11b815260040160405180910390fd5b6127108261ffff16111561163c57604051634668624160e01b815260040160405180910390fd5b600093845260ff6020908152604080862060018101959095556004909401805461ffff909416600160a01b0261ffff60a01b1990941693909317909255610103909152912055565b6000806116a060026001611699848280613281565b9190613281565b90506116b0858585846000611051565b9150505b9392505050565b60408051600160208201528082018a905260608082018a905246608083015260a0820189905287901b6001600160601b03191660c082015260d48082018790528251808303909101815260f4909101909152600090831561181f57602085015160009060031c6001908116148015611748575085604001516001600160a01b0316846001600160a01b0316145b801561175957508560600151516020145b90508186600001518760200151886040015160405160200161178e919060609190911b6001600160601b031916815260140190565b60405160208183030381529060405280519060200120846117db5760608a015180516020918201206040516117c7920190815260200190565b6040516020818303038152906040526117e1565b89606001515b60808b0151805160209182012060405161180097969594939201614def565b604051602081830303815290604052805190602001209250505061182a565b805160209091012090505b98975050505050505050565b6118607f2b36fa99e118fa8485d488becf749a974743fbeb6a7aa57e663893bf5d69a3c133611999565b61187d57604051636053780560e01b815260040160405180910390fd5b6114cb6132a2565b611890600033611999565b6118ad57604051636f4720fd60e11b815260040160405180910390fd5b60fb80546001600160a01b0319166001600160a01b0392909216919091179055565b6118da600033611999565b6118f757604051636f4720fd60e11b815260040160405180910390fd5b805182511461191957604051634668624160e01b815260040160405180910390fd5b600083815261010060205260408120905b83518110156119925782818151811061194557611945614cd5565b602002602001015182600201600086848151811061196557611965614cd5565b6020026020010151815260200190815260200160002081905550808061198a90614d01565b91505061192a565b5050505050565b60009182526065602090815260408084206001600160a01b0393909316845291905290205460ff1690565b6119cf600033611999565b6119ec57604051636f4720fd60e11b815260040160405180910390fd5b60005b825181101561136157816101026000858481518110611a1057611a10614cd5565b6020026020010151815260200190815260200160002060006101000a81548160ff0219169083151502179055508115611a9a577f7f2b4c099f4c970e6d3b8677f8c32755ce38018a03dad58ed015c68a7e9bc791838281518110611a7657611a76614cd5565b6020026020010151604051611a8d91815260200190565b60405180910390a1611aed565b7f598eac83c515ef525efc37796beda3b069e752328e8325fb446f84e6cc7d2242838281518110611acd57611acd614cd5565b6020026020010151604051611ae491815260200190565b60405180910390a15b80611af781614d01565b9150506119ef565b60008282604051602001611b2a92919091825260601b6001600160601b031916602082015260340190565b60405160208183030381529060405280519060200120905092915050565b611b53600033611999565b611b7057604051636f4720fd60e11b815260040160405180910390fd5b6001600160a01b0383161580611b8b57506127108261ffff16115b80611b9b57506127108161ffff16115b15611bb957604051634668624160e01b815260040160405180910390fd5b6001600160a01b03909216600090815261010660205260409020805461ffff938416620100000263ffffffff199091169390921692909217179055565b600260c95403611c185760405162461bcd60e51b815260040161107590614d1a565b600260c95560975460ff1615611c405760405162461bcd60e51b815260040161107590614d51565b6000611c4c86886123c6565b600081815260ff6020819052604090912060040154919250600160b01b9091041615611c8b5760405163f0faeff560e01b815260040160405180910390fd5b6000611c998287878761215d565b60fc54604051632597429960e21b81529192506001600160a01b0381169163965d0a6491611cd99185918891600160a01b90910460ff1690600401614e3f565b600060405180830381600087803b158015611cf357600080fd5b505af1158015611d07573d6000803e3d6000fd5b505060fb54604051630743550560e01b8152600093506001600160a01b039091169150630743550590611d449086908b908b908b90600401614e6b565b6020604051808303816000875af1158015611d63573d6000803e3d6000fd5b505050506040513d601f19601f82011682018060405250810190611d879190614eab565b9050611d9583828b8b6132fa565b5050600160c95550505050505050565b6000600260c95403611dc95760405162461bcd60e51b815260040161107590614d1a565b600260c95560975460ff1615611df15760405162461bcd60e51b815260040161107590614d51565b6040805160a08101825260008082526020820181905291810182905260608101829052608081018290526000611e2a898e8e8e8c6123db565b604080516080810182526000808252602082015260609181018290528181019190915291955093509091508515611ec457611e6786880188614ec8565b9050611e778e8260000151612bbd565b808252821015611e8e57611e8b8e83612bbd565b81525b6000816060015151118015611ea65750604081015151155b15611ec4576040516315c1f47560e31b815260040160405180910390fd5b8051611ed09083614d7b565b9150611edc8e83612bbd565b9150611ef0848d848e878d878d1515612c83565b600160c9559e9d5050505050505050505050505050565b60975460ff1615611f2a5760405162461bcd60e51b815260040161107590614d51565b6000878152610105602052604090206001015460ff16611f5d57604051633b5bbdf960e11b815260040160405180910390fd5b611f986040518060a00160405280600081526020016000815260200160006001600160a01b0316815260200160608152602001606081525090565b8115611fad57611faa82840184614f6c565b90505b6000611fc18b8a8c8b8b87891515336116bb565b6000818152610101602052604090205490915060ff1615611ff55760405163e4e5e97560e01b815260040160405180910390fd5b600081815261010160205260409020805460ff1916600117905561201c818c8c898961346a565b600061202c828d8b8e8e8861353a565b905089896001600160a01b03168d7ffee5cae6d86f128037e90fc8d24296e73ad402bd6f6f09098589d528c2e14ad2858f8d8b8b8960405161207396959493929190614fc9565b60405180910390a4505050505050505050505050565b612094600033611999565b6120b157604051636f4720fd60e11b815260040160405180910390fd5b61010d82905561010e805461ffff191661ffff83169081179091556040805184815260208101929092527f850cd955704b99a3588cb377341a321bc53b01073abba0af4616b0c70eb77943910160405180910390a15050565b612115600033611999565b61213257604051636f4720fd60e11b815260040160405180910390fd5b61010e80546001600160a01b03909216620100000262010000600160b01b0319909216919091179055565b6000600285856040516020016121739190615004565b604051602081830303815290604052805190602001208560405160200161219a9190615004565b60408051601f19818403018152828252805160209182012090830195909552810192909252606082015260808101919091526001600160f81b031960f884901b1660a082015260a101604051602081830303815290604052805190602001209050949350505050565b60008281526065602052604090206001015461221f813361301f565b6113618383613109565b61010c546001600160a01b03163314612255576040516341c83f5f60e11b815260040160405180910390fd5b61010d8190556040518181527f6af65247cf743b7cb486dac49457e290bf672f3d89f71ed05d3f56d7b69c014b90602001611330565b61010760205260009081526040902080546001820180549192916122ae90615020565b80601f01602080910402602001604051908101604052809291908181526020018280546122da90615020565b80156123275780601f106122fc57610100808354040283529160200191612327565b820191906000526020600020905b81548152906001019060200180831161230a57829003601f168201915b5050505050905082565b61233c600033611999565b61235957604051636f4720fd60e11b815260040160405180910390fd5b60fc80546001600160a01b0319166001600160a01b0392909216919091179055565b612386600033611999565b6123a357604051636f4720fd60e11b815260040160405180910390fd5b61010c80546001600160a01b0319166001600160a01b0392909216919091179055565b60008282604051602001611b2a92919061505a565b6040805160a08101825260008082526020820181905291810182905260608101829052608081018290528190612410876138ab565b8751156124d55760006124238982613a06565b905060006124328a6020613a06565b9050600080806124438d6040613a3d565b60405163d505accf60e01b8152336004820152306024820152604481018990526064810188905260ff8216608482015260a4810184905260c4810183905292955090935091506001600160a01b038d169063d505accf9060e401600060405180830381600087803b1580156124b757600080fd5b505af11580156124cb573d6000803e3d6000fd5b5050505050505050505b60006101076000896001600160a01b03166001600160a01b031681526020019081526020016000206040518060400160405290816000820154815260200160018201805461252290615020565b80601f016020809104026020016040519081016040528092919081815260200182805461254e90615020565b801561259b5780601f106125705761010080835404028352916020019161259b565b820191906000526020600020905b81548152906001019060200180831161257e57829003601f168201915b5050505050815250509050600081600001516000146125bd57468251146125c0565b60015b905080156125fa576125f3466001600160a01b038b16156125e1578a611aff565b61010b546001600160a01b0316611aff565b935061260f565b61260c826000015183602001516123c6565b93505b600084815260ff6020819052604090912060048101549091600160b01b909104166126be5781156126a55760006001600160a01b038b1615612651578a61265f565b61010b546001600160a01b03165b6040516001600160601b0319606083901b16602082015290915061269f908790839060340160405160208183030381529060405261269a4690565b6132fa565b506126be565b604051631433b3cd60e01b815260040160405180910390fd5b6000888152610104602090815260409182902082516060810184528154815260019091015460ff81161515928201839052610100900461ffff169281019290925261271c576040516357fca4cf60e11b815260040160405180910390fd5b6001600160a01b038b166127a05734995061010b60009054906101000a90046001600160a01b03166001600160a01b031663d0e30db08b6040518263ffffffff1660e01b81526004016000604051808303818588803b15801561277e57600080fd5b505af1158015612792573d6000803e3d6000fd5b50505050506001975061289d565b6040516370a0823160e01b81523060048201528b906000906001600160a01b038316906370a0823190602401602060405180830381865afa1580156127e9573d6000803e3d6000fd5b505050506040513d601f19601f8201168201806040525081019061280d9190615080565b90506128246001600160a01b03831633308f613aaa565b6040516370a0823160e01b815230600482015281906001600160a01b038416906370a0823190602401602060405180830381865afa15801561286a573d6000803e3d6000fd5b505050506040513d601f19601f8201168201806040525081019061288e9190615080565b6128989190614d7b565b9b5050505b81600101548a11156128c257604051635a20217760e11b815260040160405180910390fd5b3360009081526101066020908152604080832081518083018352905461ffff8082168352620100009091041681840152898452610100909252822090918a1561299d576001600160a01b038e1661292d57835115612921578351612926565b61010d545b9050612960565b5060008b8152600282016020526040812054908190036129605760405163156321fb60e11b815260040160405180910390fd5b61296e818460000151613ae2565b9050808d101561299157604051630a44071360e01b815260040160405180910390fd5b60208801819052612a3c565b8351600090156129ae5784516129b3565b61010d545b90506129c3818560000151613ae2565b9050803410156129e657604051630a44071360e01b815260040160405180910390fd5b80341115612a0157612a01336129fc8334614d7b565b612f2e565b6000612a0c46611224565b60008181526101006020526040812080549293508492909190612a30908490614d8e565b90915550505060208901525b6000612710828f612a4d9190614d7b565b604087015161ffff1615612a65578660400151612a6e565b61010e5461ffff165b61ffff16612a7c9190615099565b612a8691906150b0565b9050612a96818560200151613ae2565b90506000612aa48383614d8e565b9050808f1015612ac757604051630a44071360e01b815260040160405180910390fd5b80846000016000828254612adb9190614d8e565b92505081905550808f612aee9190614d7b565b60408b0192909252508b151560608a01528d89528615801560808b0152909a509250612b369150505786826002016000828254612b2b9190614d8e565b90915550612bae9050565b86826002016000828254612b4a9190614d7b565b9091555050600482810154604051630852cd8d60e31b81529182018990526001600160a01b0316906342966c6890602401600060405180830381600087803b158015612b9557600080fd5b505af1158015612ba9573d6000803e3d6000fd5b505050505b50505050955095509592505050565b6000806001600160a01b03841615612c3657836001600160a01b031663313ce5676040518163ffffffff1660e01b8152600401602060405180830381865afa158015612c0d573d6000803e3d6000fd5b505050506040513d601f19601f82011682018060405250810190612c3191906150d2565b612c39565b60125b60ff169050600880821115612c7a576000612c548284614d7b565b612c5f90600a6151d3565b905080612c6c81876150b0565b612c769190615099565b9450505b50919392505050565b60008060018a4660fe54604051612ca5949392918e918e918e916020016151df565b60405160208183030381529060405290508215612db157602084015160031c600190811614808015612cdd5750846060015151602014155b15612cfb576040516315c1f47560e31b815260040160405180910390fd5b818560000151866020015187604001518051906020012084612d495760608901518051602091820120604051612d35920190815260200190565b604051602081830303815290604052612d4f565b88606001515b6040516001600160601b03193360601b16602082015260340160405160208183030381529060405280519060200120604051602001612d9396959493929190614def565b60405160208183030381529060405280519060200120925050612dbb565b8051602082012091505b888a7fe315721819a1f353fe56de404206bdd896ab5edc7822f1804a8c4c2c4788174c848b8b60fe548b8d8b612e005760405180602001604052806000815250612e21565b8c604051602001612e119190615228565b6040516020818303038152906040525b33604051612e3698979695949392919061527e565b60405180910390a360fe5460008b815260ff6020908152604091829020600281015460049182015484516318160ddd60e01b815294517f6bc83b8dd1a15f3a247f8f99d37e3bb8ae7074ea13ee1f509e045723fafe0b55968996909593946001600160a01b03909316936318160ddd938281019391928290030181865afa158015612ec5573d6000803e3d6000fd5b505050506040513d601f19601f82011682018060405250810190612ee99190615080565b60408051948552602085019390935291830152606082015260800160405180910390a160fe8054906000612f1c83614d01565b91905055505098975050505050505050565b604080516000808252602082019092526001600160a01b038416908390604051612f589190615004565b60006040518083038185875af1925050503d8060008114612f95576040519150601f19603f3d011682016040523d82523d6000602084013e612f9a565b606091505b505090508061136157604051630db2c7f160e31b815260040160405180910390fd5b6040516001600160a01b03831660248201526044810182905261136190849063a9059cbb60e01b906064015b60408051601f198184030181529190526020810180516001600160e01b03166001600160e01b031990931692909217909152613b09565b6130298282611999565b61149757613041816001600160a01b03166014613bdb565b61304c836020613bdb565b60405160200161305d929190615320565b60408051601f198184030181529082905262461bcd60e51b825261107591600401615395565b61308d8282611999565b6114975760008281526065602090815260408083206001600160a01b03851684529091529020805460ff191660011790556130c53390565b6001600160a01b0316816001600160a01b0316837f2f8788117e7eff1d82e926ec794901d17c78024a50270940304540a733656f0d60405160405180910390a45050565b6131138282611999565b156114975760008281526065602090815260408083206001600160a01b0385168085529252808320805460ff1916905551339285917ff6391f5c32d9c69d2a47ea670b442974b53935d1edc7fd64eb21e047a839171b9190a45050565b60975460ff166131b95760405162461bcd60e51b815260206004820152601460248201527314185d5cd8589b194e881b9bdd081c185d5cd95960621b6044820152606401611075565b6097805460ff191690557f5db9ee0a495bf2e6ff9c91a7834c1ba4fdd244a5e8aa4e537bd38aeae4b073aa335b6040516001600160a01b03909116815260200160405180910390a1565b6114978282613083565b600054610100900460ff1680613226575060005460ff16155b6132425760405162461bcd60e51b815260040161107590614da1565b600054610100900460ff16158015613264576000805461ffff19166101011790555b61326c613d76565b801561327e576000805461ff00191690555b50565b6000811561329557506001821b83176116b4565b506001821b1983166116b4565b60975460ff16156132c55760405162461bcd60e51b815260040161107590614d51565b6097805460ff191660011790557f62e78cea01bee320cd4e420270b5ea74000d11b0c9f74754ebdbfc544b05a2586131e63390565b600084815260ff6020819052604090912060048101549091600160b01b90910416156133395760405163f0faeff560e01b815260040160405180910390fd5b6001600160a01b0384166133605760405163d92e233d60e01b815260040160405180910390fd5b6004810180546001600160a01b038616600162ff000160a01b031990911617600160b01b179055818155600181015460000361339f5760001960018201555b60048101805461ffff60a01b191661027160a41b1790556000858152610103602052604081205490036133e15760008581526101036020526040902060001990555b6001600160a01b0384166000908152610107602052604090208281556001810161340b85826153ee565b50827f2fe256b895c7737f17df53e47f93d864727942c40cbfeb0098fb10b2b57da51487878786600101548760040160149054906101000a900461ffff1660405161345a9594939291906154ad565b60405180910390a2505050505050565b6000858152610102602052604090205460ff161561349b5760405163d49624bf60e01b815260040160405180910390fd5b60fc54600085815261010360205260409020546001600160a01b039091169063965d0a64908790859085908810156134d45760006134e2565b60fc54600160a01b900460ff165b6040518563ffffffff1660e01b815260040161350194939291906154f3565b600060405180830381600087803b15801561351b57600080fd5b505af115801561352f573d6000803e3d6000fd5b505050505050505050565b600085815260ff60208190526040822060048101549091600160b01b9091041661357757604051631433b3cd60e01b815260040160405180910390fd5b46815414915081156135ad57825161358f9086614d8e565b8160020160008282546135a29190614d7b565b909155506135d29050565b82516135b99086614d8e565b8160020160008282546135cc9190614d8e565b90915550505b60048101546001600160a01b031660008380156135f6575060208501516001908116145b8015613610575061010b546001600160a01b038381169116145b85519091501561362a5761362a8233876000015187613de6565b606085015151156137ca5761010a546001600160a01b0316600082156136e457613654828a613e73565b816001600160a01b03166329e164db88604001518c8a606001518b602001518c608001518e6040518763ffffffff1660e01b815260040161369a96959493929190615521565b6020604051808303816000875af11580156136b9573d6000803e3d6000fd5b505050506040513d601f19601f820116820180604052508101906136dd9190615579565b905061377e565b6136f084838b89613de6565b816001600160a01b031663b88c998b8589604001518d8b606001518c602001518d608001518f6040518863ffffffff1660e01b81526004016137389796959493929190615596565b6020604051808303816000875af1158015613757573d6000803e3d6000fd5b505050506040513d601f19601f8201168201806040525081019061377b9190615579565b90505b604080518d81526001600160a01b0384166020820152821515917fb5fadd70c6860131059f49f37dff63a2b25d1df54e62d75c8327d896c0f7a0ad910160405180910390a250506137eb565b80156137df576137da8888613e73565b6137eb565b6137eb82898987613de6565b6002830154600480850154604080516318160ddd60e01b815290517fe16b3d616e66789124fb71bf745a9a969a79906489c299e52e09686696152ef1948f9490936001600160a01b0316926318160ddd92818301926020928290030181865afa15801561385c573d6000803e3d6000fd5b505050506040513d601f19601f820116820180604052508101906138809190615080565b6040805193845260208401929092529082015260600160405180910390a15050509695505050505050565b6001600160a01b0381166138bc5750565b60408051600481526024810182526020810180516001600160e01b031663313ce56760e01b17905290516000916001600160a01b038416916138fe9190615004565b6000604051808303816000865af19150503d806000811461393b576040519150601f19603f3d011682016040523d82523d6000602084013e613940565b606091505b505090508061396257604051636d737eeb60e01b815260040160405180910390fd5b60408051600481526024810182526020810180516001600160e01b03166395d89b4160e01b17905290516001600160a01b038416916139a091615004565b6000604051808303816000865af19150503d80600081146139dd576040519150601f19603f3d011682016040523d82523d6000602084013e6139e2565b606091505b5050809150508061149757604051636d737eeb60e01b815260040160405180910390fd5b6000613a13826020614d8e565b83511015613a34576040516340f0f32960e01b815260040160405180910390fd5b50016020015190565b8181016020810151604082015160419092015190919060ff16601b811015613a6d57613a6a601b826155f7565b90505b8060ff16601b14158015613a8557508060ff16601c14155b15613aa357604051630633a0a560e21b815260040160405180910390fd5b9250925092565b6040516001600160a01b03808516602483015283166044820152606481018290526110009085906323b872dd60e01b90608401612fe8565b6000612710613af561ffff841685615099565b613aff91906150b0565b6116b49084614d7b565b6000613b5e826040518060400160405280602081526020017f5361666545524332303a206c6f772d6c6576656c2063616c6c206661696c6564815250856001600160a01b0316613f8b9092919063ffffffff16565b8051909150156113615780806020019051810190613b7c9190615579565b6113615760405162461bcd60e51b815260206004820152602a60248201527f5361666545524332303a204552433230206f7065726174696f6e20646964206e6044820152691bdd081cdd58d8d9595960b21b6064820152608401611075565b60606000613bea836002615099565b613bf5906002614d8e565b6001600160401b03811115613c0c57613c0c61412d565b6040519080825280601f01601f191660200182016040528015613c36576020820181803683370190505b509050600360fc1b81600081518110613c5157613c51614cd5565b60200101906001600160f81b031916908160001a905350600f60fb1b81600181518110613c8057613c80614cd5565b60200101906001600160f81b031916908160001a9053506000613ca4846002615099565b613caf906001614d8e565b90505b6001811115613d27576f181899199a1a9b1b9c1cb0b131b232b360811b85600f1660108110613ce357613ce3614cd5565b1a60f81b828281518110613cf957613cf9614cd5565b60200101906001600160f81b031916908160001a90535060049490941c93613d2081615610565b9050613cb2565b5083156116b45760405162461bcd60e51b815260206004820181905260248201527f537472696e67733a20686578206c656e67746820696e73756666696369656e746044820152606401611075565b600054610100900460ff1680613d8f575060005460ff16155b613dab5760405162461bcd60e51b815260040161107590614da1565b600054610100900460ff16158015613dcd576000805461ffff19166101011790555b600160c955801561327e576000805461ff001916905550565b8115611000578015613e0b57613e066001600160a01b0385168484612fbc565b611000565b6040516340c10f1960e01b81526001600160a01b038481166004830152602482018490528516906340c10f1990604401600060405180830381600087803b158015613e5557600080fd5b505af1158015613e69573d6000803e3d6000fd5b5050505050505050565b61010e546201000090046001600160a01b0316613ef35761010b54604051632e1a7d4d60e01b8152600481018390526001600160a01b0390911690632e1a7d4d90602401600060405180830381600087803b158015613ed157600080fd5b505af1158015613ee5573d6000803e3d6000fd5b505050506114978282612f2e565b61010e5461010b54613f19916001600160a01b0391821691620100009091041683612fbc565b61010e5460405163f3fef3a360e01b81526001600160a01b03848116600483015260248201849052620100009092049091169063f3fef3a390604401600060405180830381600087803b158015613f6f57600080fd5b505af1158015613f83573d6000803e3d6000fd5b505050505050565b6060613f9a8484600085613fa2565b949350505050565b6060824710156140035760405162461bcd60e51b815260206004820152602660248201527f416464726573733a20696e73756666696369656e742062616c616e636520666f6044820152651c8818d85b1b60d21b6064820152608401611075565b843b6140515760405162461bcd60e51b815260206004820152601d60248201527f416464726573733a2063616c6c20746f206e6f6e2d636f6e74726163740000006044820152606401611075565b600080866001600160a01b0316858760405161406d9190615004565b60006040518083038185875af1925050503d80600081146140aa576040519150601f19603f3d011682016040523d82523d6000602084013e6140af565b606091505b50915091506140bf8282866140ca565b979650505050505050565b606083156140d95750816116b4565b8251156140e95782518084602001fd5b8160405162461bcd60e51b81526004016110759190615395565b60006020828403121561411557600080fd5b81356001600160e01b0319811681146116b457600080fd5b634e487b7160e01b600052604160045260246000fd5b604051606081016001600160401b03811182821017156141655761416561412d565b60405290565b604051608081016001600160401b03811182821017156141655761416561412d565b604051601f8201601f191681016001600160401b03811182821017156141b5576141b561412d565b604052919050565b60006001600160401b038211156141d6576141d661412d565b5060051b60200190565b600082601f8301126141f157600080fd5b81356020614206614201836141bd565b61418d565b82815260059290921b8401810191818101908684111561422557600080fd5b8286015b848110156142405780358352918301918301614229565b509695505050505050565b801515811461327e57600080fd5b80356142648161424b565b919050565b803561ffff8116811461426457600080fd5b6000806000606080858703121561429157600080fd5b84356001600160401b03808211156142a857600080fd5b6142b4888389016141e0565b95506020915081870135818111156142cb57600080fd5b87019050601f810188136142de57600080fd5b80356142ec614201826141bd565b8181529084028201830190838101908a83111561430857600080fd5b928401925b828410156143625785848c0312156143255760008081fd5b61432d614143565b843581528585013561433e8161424b565b81870152604061434f868201614269565b908201528252928501929084019061430d565b80975050505050505061437760408501614259565b90509250925092565b60006020828403121561439257600080fd5b5035919050565b6001600160a01b038116811461327e57600080fd5b803561426481614399565b6000602082840312156143cb57600080fd5b81356116b481614399565b600082601f8301126143e757600080fd5b81356001600160401b038111156144005761440061412d565b614413601f8201601f191660200161418d565b81815284602083860101111561442857600080fd5b816020850160208301376000918101602001919091529392505050565b803563ffffffff8116811461426457600080fd5b600080600080600060a0868803121561447157600080fd5b8535945060208601356001600160401b038082111561448f57600080fd5b61449b89838a016143d6565b955060408801359150808211156144b157600080fd5b506144be888289016143d6565b935050606086013591506144d460808701614445565b90509295509295909350565b600080604083850312156144f357600080fd5b82359150602083013561450581614399565b809150509250929050565b60008060006060848603121561452557600080fd5b8335925060208401356145378161424b565b915060408401356145478161424b565b809150509250925092565b60ff8116811461327e57600080fd5b803561426481614552565b60006020828403121561457e57600080fd5b81356116b481614552565b6000806040838503121561459c57600080fd5b82356145a781614552565b9150602083013561450581614399565b600080600080608085870312156145cd57600080fd5b84359350602085013592506145e460408601614269565b9396929550929360600135925050565b60008060006060848603121561460957600080fd5b8335925060208401356001600160401b038082111561462757600080fd5b614633878388016143d6565b9350604086013591508082111561464957600080fd5b50614656868287016143d6565b9150509250925092565b600060a0828403121561467257600080fd5b60405160a081016001600160401b0382821081831117156146955761469561412d565b816040528293508435835260208501356020840152604085013591506146ba82614399565b81604084015260608501359150808211156146d457600080fd5b6146e0868387016143d6565b606084015260808501359150808211156146f957600080fd5b50614706858286016143d6565b6080830152505092915050565b600080600080600080600080610100898b03121561473057600080fd5b883597506020890135965060408901359550606089013561475081614399565b94506080890135935060a08901356001600160401b0381111561477257600080fd5b61477e8b828c01614660565b93505060c089013561478f8161424b565b915060e089013561479f81614399565b809150509295985092959890939650565b6000806000606084860312156147c557600080fd5b8335925060208401356001600160401b03808211156147e357600080fd5b6147ef878388016141e0565b9350604086013591508082111561480557600080fd5b50614656868287016141e0565b6000806040838503121561482557600080fd5b82356001600160401b0381111561483b57600080fd5b8301601f8101851361484c57600080fd5b8035602061485c614201836141bd565b82815260059290921b8301810191818101908884111561487b57600080fd5b938201935b8385101561489957843582529382019390820190614880565b95506148a89050868201614259565b93505050509250929050565b6000806000606084860312156148c957600080fd5b83356148d481614399565b92506148e260208501614269565b915061437760408501614269565b60008060008060008060c0878903121561490957600080fd5b86356001600160401b038082111561492057600080fd5b61492c8a838b016143d6565b975060208901359650604089013591508082111561494957600080fd5b6149558a838b016143d6565b9550606089013591508082111561496b57600080fd5b6149778a838b016143d6565b945061498560808a01614561565b935060a089013591508082111561499b57600080fd5b506149a889828a016143d6565b9150509295509295509295565b60008083601f8401126149c757600080fd5b5081356001600160401b038111156149de57600080fd5b6020830191508360208285010111156149f657600080fd5b9250929050565b60008060008060008060008060006101008a8c031215614a1c57600080fd5b614a258a6143ae565b985060208a0135975060408a0135965060608a01356001600160401b0380821115614a4f57600080fd5b614a5b8d838e016143d6565b975060808c0135915080821115614a7157600080fd5b614a7d8d838e016143d6565b9650614a8b60a08d01614259565b9550614a9960c08d01614445565b945060e08c0135915080821115614aaf57600080fd5b50614abc8c828d016149b5565b915080935050809150509295985092959850929598565b600080600080600080600080600060e08a8c031215614af157600080fd5b8935985060208a0135975060408a0135965060608a0135614b1181614399565b955060808a0135945060a08a01356001600160401b0380821115614b3457600080fd5b614b408d838e016149b5565b909650945060c08c0135915080821115614aaf57600080fd5b60008060408385031215614b6c57600080fd5b82359150614b7c60208401614269565b90509250929050565b60008060408385031215614b9857600080fd5b50508035926020909101359150565b60008060008060808587031215614bbd57600080fd5b8435935060208501356001600160401b0380821115614bdb57600080fd5b614be7888389016143d6565b94506040870135915080821115614bfd57600080fd5b50614c0a878288016143d6565b9250506060850135614c1b81614552565b939692955090935050565b60005b83811015614c41578181015183820152602001614c29565b50506000910152565b60008151808452614c62816020860160208601614c26565b601f01601f19169290920160200192915050565b828152604060208201526000613f9a6040830184614c4a565b60008060408385031215614ca257600080fd5b8235915060208301356001600160401b03811115614cbf57600080fd5b614ccb858286016143d6565b9150509250929050565b634e487b7160e01b600052603260045260246000fd5b634e487b7160e01b600052601160045260246000fd5b600060018201614d1357614d13614ceb565b5060010190565b6020808252601f908201527f5265656e7472616e637947756172643a207265656e7472616e742063616c6c00604082015260600190565b60208082526010908201526f14185d5cd8589b194e881c185d5cd95960821b604082015260600190565b81810381811115610dee57610dee614ceb565b80820180821115610dee57610dee614ceb565b6020808252602e908201527f496e697469616c697a61626c653a20636f6e747261637420697320616c72656160408201526d191e481a5b9a5d1a585b1a5e995960921b606082015260800190565b60008751614e01818460208c01614c26565b80830190508781528660208201528560408201528451614e28816060840160208901614c26565b016060810193909352505060800195945050505050565b838152606060208201526000614e586060830185614c4a565b905060ff83166040830152949350505050565b848152608060208201526000614e846080830186614c4a565b8281036040840152614e968186614c4a565b91505060ff8316606083015295945050505050565b600060208284031215614ebd57600080fd5b81516116b481614399565b600060208284031215614eda57600080fd5b81356001600160401b0380821115614ef157600080fd5b9083019060808286031215614f0557600080fd5b614f0d61416b565b8235815260208301356020820152604083013582811115614f2d57600080fd5b614f39878286016143d6565b604083015250606083013582811115614f5157600080fd5b614f5d878286016143d6565b60608301525095945050505050565b600060208284031215614f7e57600080fd5b81356001600160401b03811115614f9457600080fd5b613f9a84828501614660565b81835281816020850137506000828201602090810191909152601f909101601f19169091010190565b86815285602082015284604082015260a060608201526000614fef60a083018587614fa0565b90508215156080830152979650505050505050565b60008251615016818460208701614c26565b9190910192915050565b600181811c9082168061503457607f821691505b60208210810361505457634e487b7160e01b600052602260045260246000fd5b50919050565b82815260008251615072816020850160208701614c26565b919091016020019392505050565b60006020828403121561509257600080fd5b5051919050565b8082028115828204841417610dee57610dee614ceb565b6000826150cd57634e487b7160e01b600052601260045260246000fd5b500490565b6000602082840312156150e457600080fd5b81516116b481614552565b600181815b8085111561512a57816000190482111561511057615110614ceb565b8085161561511d57918102915b93841c93908002906150f4565b509250929050565b60008261514157506001610dee565b8161514e57506000610dee565b8160018114615164576002811461516e5761518a565b6001915050610dee565b60ff84111561517f5761517f614ceb565b50506001821b610dee565b5060208310610133831016604e8410600b84101617156151ad575081810a610dee565b6151b783836150ef565b80600019048211156151cb576151cb614ceb565b029392505050565b60006116b48383615132565b8781528660208201528560408201528460608201528360808201526000835161520f8160a0850160208801614c26565b60a092019182019290925260c001979650505050505050565b602081528151602082015260208201516040820152600060408301516080606084015261525860a0840182614c4a565b90506060840151601f198483030160808501526152758282614c4a565b95945050505050565b60006101808a835289602084015280604084015261529e8184018a614c4a565b905087606084015263ffffffff87166080840152855160a0840152602086015160c0840152604086015160e084015260608601511515610100840152608086015115156101208401528281036101408401526152fa8186614c4a565b9150506153136101608301846001600160a01b03169052565b9998505050505050505050565b7f416363657373436f6e74726f6c3a206163636f756e7420000000000000000000815260008351615358816017850160208801614c26565b7001034b99036b4b9b9b4b733903937b6329607d1b6017918401918201528351615389816028840160208801614c26565b01602801949350505050565b6020815260006116b46020830184614c4a565b601f82111561136157600081815260208120601f850160051c810160208610156153cf5750805b601f850160051c820191505b81811015613f83578281556001016153db565b81516001600160401b038111156154075761540761412d565b61541b816154158454615020565b846153a8565b602080601f83116001811461545057600084156154385750858301515b600019600386901b1c1916600185901b178555613f83565b600085815260208120601f198616915b8281101561547f57888601518255948401946001909101908401615460565b508582101561549d5787850151600019600388901b60f8161c191681555b5050505050600190811b01905550565b8581526001600160a01b038516602082015260a0604082018190526000906154d790830186614c4a565b905083606083015261ffff831660808301529695505050505050565b84815260606020820152600061550d606083018587614fa0565b905060ff8316604083015295945050505050565b6001600160a01b0387811682528616602082015260c06040820181905260009061554d90830187614c4a565b85606084015282810360808401526155658186614c4a565b9150508260a0830152979650505050505050565b60006020828403121561558b57600080fd5b81516116b48161424b565b6001600160a01b03888116825287811660208301528616604082015260e0606082018190526000906155ca90830187614c4a565b85608084015282810360a08401526155e28186614c4a565b9150508260c083015298975050505050505050565b60ff8181168382160190811115610dee57610dee614ceb565b60008161561f5761561f614ceb565b50600019019056fea26469706673582212206fb417e4461c5dba9da47f57a3fae3564841ab38239b337968113b8969a4014164736f6c63430008110033",
  "devdoc": {
    "details": "Contract for assets transfers. The user can transfer the asset to any of the approved chains. The admin manages the assets, fees and other important protocol parameters.",
    "kind": "dev",
    "methods": {
      "autoUpdateFixedNativeFee(uint256)": {
        "details": "Update native fix fee. Called by our fee update contract",
        "params": {
          "_globalFixedNativeFee": "new value"
        }
      },
      "blockSubmission(bytes32[],bool)": {
        "details": "Block or unblock a list of submissions",
        "params": {
          "_submissionIds": "Ids of submissions to block/unblock",
          "isBlocked": "True to block, false to unblock"
        }
      },
      "claim(bytes32,uint256,uint256,address,uint256,bytes,bytes)": {
        "details": "Is used for transfers [into the native chain](https://docs.debridge.finance/the-core-protocol/transfers#transfer-from-secondary-chain-to-native-chain) to unlock the designated amount of asset from collateral and transfer it to the receiver.",
        "params": {
          "_amount": "Amount of the transferred asset (note: the fee can be applied).",
          "_autoParams": "Auto params for external call",
          "_chainIdFrom": "Chain where submission was sent",
          "_debridgeId": "Asset identifier.",
          "_nonce": "Submission id.",
          "_receiver": "Receiver address.",
          "_signatures": "Validators signatures to confirm"
        }
      },
      "constructor": {
        "custom:oz-upgrades-unsafe-allow": "constructor"
      },
      "deployNewAsset(bytes,uint256,string,string,uint8,bytes)": {
        "details": "Deploy a deToken(DeBridgeTokenProxy) for an asset",
        "params": {
          "_decimals": "The token's decimals",
          "_name": "The token's name",
          "_nativeChainId": "The token native chain's id",
          "_nativeTokenAddress": "A token address on a native chain",
          "_signatures": "Validators' signatures",
          "_symbol": "The token's symbol"
        }
      },
      "getChainId()": {
        "details": "Get current chain id"
      },
      "getDebridgeChainAssetFixedFee(bytes32,uint256)": {
        "details": "Returns asset fixed fee value for specified debridge and chainId.",
        "params": {
          "_chainId": "Chain id.",
          "_debridgeId": "Asset identifier."
        }
      },
      "getDebridgeId(uint256,address)": {
        "details": "Calculates asset identifier.",
        "params": {
          "_chainId": "Current chain id.",
          "_tokenAddress": "Address of the asset on the other chain."
        }
      },
      "getDeployId(bytes32,string,string,uint8)": {
        "details": "Calculates asset identifier for deployment.",
        "params": {
          "_debridgeId": "Id of an asset, see getDebridgeId.",
          "_decimals": "Asset's decimals.",
          "_name": "Asset's name.",
          "_symbol": "Asset's symbol."
        }
      },
      "getRoleAdmin(bytes32)": {
        "details": "Returns the admin role that controls `role`. See {grantRole} and {revokeRole}. To change a role's admin, use {_setRoleAdmin}."
      },
      "getSubmissionIdFrom(bytes32,uint256,uint256,address,uint256,(uint256,uint256,address,bytes,bytes),bool,address)": {
        "details": "Calculate submission id for auto claimable transfer.",
        "params": {
          "_amount": "Amount of the transferred asset (note: the fee can be applied).",
          "_autoParams": "Auto params for external call",
          "_chainIdFrom": "Chain identifier of the chain where tokens are sent from.",
          "_debridgeId": "Asset identifier.",
          "_hasAutoParams": "True if auto params are provided",
          "_nonce": "Submission id.",
          "_receiver": "Receiver address.",
          "_sender": "Address that will call claim"
        }
      },
      "getbDebridgeId(uint256,bytes)": {
        "details": "Calculates asset identifier.",
        "params": {
          "_chainId": "Current chain id.",
          "_tokenAddress": "Address of the asset on the other chain."
        }
      },
      "grantRole(bytes32,address)": {
        "details": "Grants `role` to `account`. If `account` had not been already granted `role`, emits a {RoleGranted} event. Requirements: - the caller must have ``role``'s admin role."
      },
      "hasRole(bytes32,address)": {
        "details": "Returns `true` if `account` has been granted `role`."
      },
      "initialize(uint8,address)": {
        "details": "Constructor that initializes the most important configurations.",
        "params": {
          "_excessConfirmations": "minimal required confirmations in case of too many confirmations",
          "_weth": "wrapped native token contract"
        }
      },
      "pause()": {
        "details": "Stop all transfers."
      },
      "paused()": {
        "details": "Returns true if the contract is paused, and false otherwise."
      },
      "renounceRole(bytes32,address)": {
        "details": "Revokes `role` from the calling account. Roles are often managed via {grantRole} and {revokeRole}: this function's purpose is to provide a mechanism for accounts to lose their privileges if they are compromised (such as when a trusted device is misplaced). If the calling account had been revoked `role`, emits a {RoleRevoked} event. Requirements: - the caller must be `account`."
      },
      "revokeRole(bytes32,address)": {
        "details": "Revokes `role` from `account`. If `account` had been granted `role`, emits a {RoleRevoked} event. Requirements: - the caller must have ``role``'s admin role."
      },
      "send(address,uint256,uint256,bytes,bytes,bool,uint32,bytes)": {
        "details": "This method is used for the transfer of assets [from the native chain](https://docs.debridge.finance/the-core-protocol/transfers#transfer-from-native-chain). It locks an asset in the smart contract in the native chain and enables minting of deAsset on the secondary chain.",
        "params": {
          "_amount": "Amount to be transferred (note: the fee can be applied).",
          "_autoParams": "Auto params for external call in target network",
          "_chainIdTo": "Chain id of the target chain.",
          "_permitEnvelope": "Permit for approving the spender by signature. bytes (amount + deadline + signature)",
          "_receiver": "Receiver address.",
          "_referralCode": "Referral code",
          "_tokenAddress": "Asset identifier.",
          "_useAssetFee": "use assets fee for pay protocol fix (work only for specials token)"
        }
      },
      "sendMessage(uint256,bytes,bytes)": {
        "details": "Submits the message to the deBridge infrastructure to be broadcasted to another supported blockchain (identified by _dstChainId)      with the instructions to call the _targetContractAddress contract using the given _targetContractCalldata",
        "params": {
          "_dstChainId": "ID of the destination chain.",
          "_targetContractAddress": "A contract address to be called on the destination chain",
          "_targetContractCalldata": "Calldata to execute against the target contract on the destination chain"
        }
      },
      "sendMessage(uint256,bytes,bytes,uint256,uint32)": {
        "details": "Submits the message to the deBridge infrastructure to be broadcasted to another supported blockchain (identified by _dstChainId)      with the instructions to call the _targetContractAddress contract using the given _targetContractCalldata",
        "params": {
          "_dstChainId": "ID of the destination chain.",
          "_flags": "A bitmask of toggles listed in the Flags library",
          "_referralCode": "Referral code to identify this submission",
          "_targetContractAddress": "A contract address to be called on the destination chain",
          "_targetContractCalldata": "Calldata to execute against the target contract on the destination chain"
        }
      },
      "setCallProxy(address)": {
        "details": "Set address of the call proxy.",
        "params": {
          "_callProxy": "Address of the proxy that executes external calls."
        }
      },
      "setChainSupport(uint256,bool,bool)": {
        "details": "Set support for the chains where the token can be transferred.",
        "params": {
          "_chainId": "Chain id where tokens are sent.",
          "_isChainFrom": "is true for editing getChainFromConfig.",
          "_isSupported": "Whether the token is transferable to the other chain."
        }
      },
      "setDeBridgeTokenDeployer(address)": {
        "details": "Set asset deployer address.",
        "params": {
          "_deBridgeTokenDeployer": "Asset deployer address."
        }
      },
      "setFeeContractUpdater(address)": {
        "details": "Set fee contract updater, that can update fix native fee",
        "params": {
          "_value": "new contract address."
        }
      },
      "setFeeProxy(address)": {
        "details": "Set fee converter proxy.",
        "params": {
          "_feeProxy": "Fee proxy address."
        }
      },
      "setSignatureVerifier(address)": {
        "details": "Set signature verifier address.",
        "params": {
          "_verifier": "Signature verifier address."
        }
      },
      "setWethGate(address)": {
        "details": "Set wethGate contract, that uses for weth withdraws affected by EIP1884",
        "params": {
          "_wethGate": "address of new wethGate contract."
        }
      },
      "supportsInterface(bytes4)": {
        "details": "See {IERC165-supportsInterface}."
      },
      "unpause()": {
        "details": "Allow transfers."
      },
      "updateAsset(bytes32,uint256,uint16,uint256)": {
        "details": "Update specific asset's bridge parameters.",
        "params": {
          "_amountThreshold": "Threshold amount after which Math.max(excessConfirmations,SignatureVerifier.minConfirmations) is used instead of SignatureVerifier.minConfirmations",
          "_debridgeId": "Asset identifier.",
          "_maxAmount": "Maximum amount of current chain token to be wrapped.",
          "_minReservesBps": "Minimal reserve ration in BPS."
        }
      },
      "updateAssetFixedFees(bytes32,uint256[],uint256[])": {
        "details": "Update asset's fees.",
        "params": {
          "_assetFeesInfo": "Chain support info.",
          "_debridgeId": "Asset identifier.",
          "_supportedChainIds": "Chain identifiers."
        }
      },
      "updateChainSupport(uint256[],(uint256,bool,uint16)[],bool)": {
        "details": "Update asset's fees.",
        "params": {
          "_chainIds": "Chain identifiers.",
          "_chainSupportInfo": "Chain support info.",
          "_isChainFrom": "is true for editing getChainFromConfig."
        }
      },
      "updateExcessConfirmations(uint8)": {
        "details": "Update minimal amount of required signatures, must be > SignatureVerifier.minConfirmations to have an effect",
        "params": {
          "_excessConfirmations": "Minimal amount of required signatures"
        }
      },
      "updateFeeDiscount(address,uint16,uint16)": {
        "details": "Update discount.",
        "params": {
          "_address": "customer address",
          "_discountFixBps": "fix discount in BPS",
          "_discountTransferBps": "transfer % discount in BPS"
        }
      },
      "updateGlobalFee(uint256,uint16)": {
        "details": "Update fallbacks for fixed fee in native asset and transfer fee",
        "params": {
          "_globalFixedNativeFee": "Fallback fixed fee in native asset, used if a chain fixed fee is set to 0",
          "_globalTransferFeeBps": "Fallback transfer fee in BPS, used if a chain transfer fee is set to 0"
        }
      },
      "version()": {
        "details": "Get this contract's version"
      },
      "withdrawFee(bytes32)": {
        "details": "Withdraw collected fees to feeProxy",
        "params": {
          "_debridgeId": "Asset identifier."
        }
      }
    },
    "stateVariables": {
      "BPS_DENOMINATOR": {
        "details": "Basis points or bps, set to 10 000 (equal to 1/10000). Used to express relative values (fees)"
      },
      "DEPLOY_PREFIX": {
        "details": "prefix to calculation deployId"
      },
      "GOVMONITORING_ROLE": {
        "details": "Role allowed to stop transfers"
      },
      "SUBMISSION_PREFIX": {
        "details": "prefix to calculation submissionId"
      },
      "callProxy": {
        "details": "Returns address of the proxy to execute user's calls."
      },
      "deBridgeTokenDeployer": {
        "details": "Address of IDeBridgeTokenDeployer contract"
      },
      "excessConfirmations": {
        "details": "Minimal required confirmations in case sent amount is big, have no effect if less than SignatureVerifier.minConfirmations"
      },
      "feeContractUpdater": {
        "details": "Contract address that can override globalFixedNativeFee"
      },
      "feeDiscount": {
        "details": "Fee discount for address"
      },
      "feeProxy": {
        "details": "Returns proxy to convert the collected fees and transfer to Ethereum network to treasury"
      },
      "gap0": {
        "details": "*obsolete flashFeeBps"
      },
      "gap1": {
        "details": "*obsolete defiController"
      },
      "getAmountThreshold": {
        "details": "Maps debridgeId (see getDebridgeId) to threshold amount after which Math.max(excessConfirmations,SignatureVerifier.minConfirmations) is used instead of SignatureVerifier.minConfirmations"
      },
      "getChainFromConfig": {
        "details": "Whether the chain for the asset is supported to claim"
      },
      "getChainToConfig": {
        "details": "Whether the chain for the asset is supported to send"
      },
      "getDebridge": {
        "details": "Maps debridgeId (see getDebridgeId) => bridge-specific information."
      },
      "getDebridgeFeeInfo": {
        "details": "Maps debridgeId (see getDebridgeId) => fee information"
      },
      "getNativeInfo": {
        "details": "Returns native token info by wrapped token address"
      },
      "globalFixedNativeFee": {
        "details": "Fallback fixed fee in native asset, used if a chain fixed fee is set to 0"
      },
      "globalTransferFeeBps": {
        "details": "Fallback transfer fee in BPS, used if a chain transfer fee is set to 0"
      },
      "isBlockedSubmission": {
        "details": "Returns whether the transfer with the submissionId is blocked."
      },
      "isSubmissionUsed": {
        "details": "Returns whether the transfer with the submissionId was claimed. submissionId is generated in getSubmissionIdFrom"
      },
      "lockedClaim": {
        "details": "Locker for claim method"
      },
      "nonce": {
        "details": "outgoing submissions count"
      },
      "signatureVerifier": {
        "details": "Current signature verifier address to verify signatures."
      },
      "weth": {
        "details": "Returns contract for wrapped native token."
      },
      "wethGate": {
        "details": "WethGate contract, that is used for weth withdraws affected by EIP1884"
      }
    },
    "version": 1
  },
  "userdoc": {
    "kind": "user",
    "methods": {
      "sendMessage(uint256,bytes,bytes)": {
        "notice": "NO ASSETS ARE BROADCASTED ALONG WITH THIS MESSAGEDeBridgeGate only accepts submissions with msg.value (native ether) covering a small protocol fee         (defined in the globalFixedNativeFee property). Any excess amount of ether passed to this function is         included in the message as the execution fee - the amount deBridgeGate would give as an incentive to         a third party in return for successful claim transaction execution on the destination chain.DeBridgeGate accepts a set of flags that control the behaviour of the execution. This simple method         sets the default set of flags: REVERT_IF_EXTERNAL_FAIL, PROXY_WITH_SENDER"
      },
      "sendMessage(uint256,bytes,bytes,uint256,uint32)": {
        "notice": "NO ASSETS ARE BROADCASTED ALONG WITH THIS MESSAGEDeBridgeGate only accepts submissions with msg.value (native ether) covering a small protocol fee         (defined in the globalFixedNativeFee property). Any excess amount of ether passed to this function is         included in the message as the execution fee - the amount deBridgeGate would give as an incentive to         a third party in return for successful claim transaction execution on the destination chain.DeBridgeGate accepts a set of flags that control the behaviour of the execution. This simple method         sets the default set of flags: REVERT_IF_EXTERNAL_FAIL, PROXY_WITH_SENDER"
      }
    },
    "version": 1
  },
  "storageLayout": {
    "storage": [
      {
        "astId": 418,
        "contract": "contracts/transfers/DeBridgeGate.sol:DeBridgeGate",
        "label": "_initialized",
        "offset": 0,
        "slot": "0",
        "type": "t_bool"
      },
      {
        "astId": 421,
        "contract": "contracts/transfers/DeBridgeGate.sol:DeBridgeGate",
        "label": "_initializing",
        "offset": 1,
        "slot": "0",
        "type": "t_bool"
      },
      {
        "astId": 1882,
        "contract": "contracts/transfers/DeBridgeGate.sol:DeBridgeGate",
        "label": "__gap",
        "offset": 0,
        "slot": "1",
        "type": "t_array(t_uint256)50_storage"
      },
      {
        "astId": 2131,
        "contract": "contracts/transfers/DeBridgeGate.sol:DeBridgeGate",
        "label": "__gap",
        "offset": 0,
        "slot": "51",
        "type": "t_array(t_uint256)50_storage"
      },
      {
        "astId": 48,
        "contract": "contracts/transfers/DeBridgeGate.sol:DeBridgeGate",
        "label": "_roles",
        "offset": 0,
        "slot": "101",
        "type": "t_mapping(t_bytes32,t_struct(RoleData)43_storage)"
      },
      {
        "astId": 335,
        "contract": "contracts/transfers/DeBridgeGate.sol:DeBridgeGate",
        "label": "__gap",
        "offset": 0,
        "slot": "102",
        "type": "t_array(t_uint256)49_storage"
      },
      {
        "astId": 479,
        "contract": "contracts/transfers/DeBridgeGate.sol:DeBridgeGate",
        "label": "_paused",
        "offset": 0,
        "slot": "151",
        "type": "t_bool"
      },
      {
        "astId": 570,
        "contract": "contracts/transfers/DeBridgeGate.sol:DeBridgeGate",
        "label": "__gap",
        "offset": 0,
        "slot": "152",
        "type": "t_array(t_uint256)49_storage"
      },
      {
        "astId": 585,
        "contract": "contracts/transfers/DeBridgeGate.sol:DeBridgeGate",
        "label": "_status",
        "offset": 0,
        "slot": "201",
        "type": "t_uint256"
      },
      {
        "astId": 628,
        "contract": "contracts/transfers/DeBridgeGate.sol:DeBridgeGate",
        "label": "__gap",
        "offset": 0,
        "slot": "202",
        "type": "t_array(t_uint256)49_storage"
      },
      {
        "astId": 10456,
        "contract": "contracts/transfers/DeBridgeGate.sol:DeBridgeGate",
        "label": "deBridgeTokenDeployer",
        "offset": 0,
        "slot": "251",
        "type": "t_address"
      },
      {
        "astId": 10459,
        "contract": "contracts/transfers/DeBridgeGate.sol:DeBridgeGate",
        "label": "signatureVerifier",
        "offset": 0,
        "slot": "252",
        "type": "t_address"
      },
      {
        "astId": 10462,
        "contract": "contracts/transfers/DeBridgeGate.sol:DeBridgeGate",
        "label": "excessConfirmations",
        "offset": 20,
        "slot": "252",
        "type": "t_uint8"
      },
      {
        "astId": 10465,
        "contract": "contracts/transfers/DeBridgeGate.sol:DeBridgeGate",
        "label": "gap0",
        "offset": 0,
        "slot": "253",
        "type": "t_uint256"
      },
      {
        "astId": 10468,
        "contract": "contracts/transfers/DeBridgeGate.sol:DeBridgeGate",
        "label": "nonce",
        "offset": 0,
        "slot": "254",
        "type": "t_uint256"
      },
      {
        "astId": 10474,
        "contract": "contracts/transfers/DeBridgeGate.sol:DeBridgeGate",
        "label": "getDebridge",
        "offset": 0,
        "slot": "255",
        "type": "t_mapping(t_bytes32,t_struct(DebridgeInfo)5408_storage)"
      },
      {
        "astId": 10480,
        "contract": "contracts/transfers/DeBridgeGate.sol:DeBridgeGate",
        "label": "getDebridgeFeeInfo",
        "offset": 0,
        "slot": "256",
        "type": "t_mapping(t_bytes32,t_struct(DebridgeFeeInfo)5417_storage)"
      },
      {
        "astId": 10486,
        "contract": "contracts/transfers/DeBridgeGate.sol:DeBridgeGate",
        "label": "isSubmissionUsed",
        "offset": 0,
        "slot": "257",
        "type": "t_mapping(t_bytes32,t_bool)"
      },
      {
        "astId": 10491,
        "contract": "contracts/transfers/DeBridgeGate.sol:DeBridgeGate",
        "label": "isBlockedSubmission",
        "offset": 0,
        "slot": "258",
        "type": "t_mapping(t_bytes32,t_bool)"
      },
      {
        "astId": 10496,
        "contract": "contracts/transfers/DeBridgeGate.sol:DeBridgeGate",
        "label": "getAmountThreshold",
        "offset": 0,
        "slot": "259",
        "type": "t_mapping(t_bytes32,t_uint256)"
      },
      {
        "astId": 10502,
        "contract": "contracts/transfers/DeBridgeGate.sol:DeBridgeGate",
        "label": "getChainToConfig",
        "offset": 0,
        "slot": "260",
        "type": "t_mapping(t_uint256,t_struct(ChainSupportInfo)5424_storage)"
      },
      {
        "astId": 10508,
        "contract": "contracts/transfers/DeBridgeGate.sol:DeBridgeGate",
        "label": "getChainFromConfig",
        "offset": 0,
        "slot": "261",
        "type": "t_mapping(t_uint256,t_struct(ChainSupportInfo)5424_storage)"
      },
      {
        "astId": 10514,
        "contract": "contracts/transfers/DeBridgeGate.sol:DeBridgeGate",
        "label": "feeDiscount",
        "offset": 0,
        "slot": "262",
        "type": "t_mapping(t_address,t_struct(DiscountInfo)5429_storage)"
      },
      {
        "astId": 10521,
        "contract": "contracts/transfers/DeBridgeGate.sol:DeBridgeGate",
        "label": "getNativeInfo",
        "offset": 0,
        "slot": "263",
        "type": "t_mapping(t_address,t_struct(TokenInfo)5393_storage)"
      },
      {
        "astId": 10524,
        "contract": "contracts/transfers/DeBridgeGate.sol:DeBridgeGate",
        "label": "gap1",
        "offset": 0,
        "slot": "264",
        "type": "t_address"
      },
      {
        "astId": 10527,
        "contract": "contracts/transfers/DeBridgeGate.sol:DeBridgeGate",
        "label": "feeProxy",
        "offset": 0,
        "slot": "265",
        "type": "t_address"
      },
      {
        "astId": 10531,
        "contract": "contracts/transfers/DeBridgeGate.sol:DeBridgeGate",
        "label": "callProxy",
        "offset": 0,
        "slot": "266",
        "type": "t_address"
      },
      {
        "astId": 10535,
        "contract": "contracts/transfers/DeBridgeGate.sol:DeBridgeGate",
        "label": "weth",
        "offset": 0,
        "slot": "267",
        "type": "t_contract(IWETH)6265"
      },
      {
        "astId": 10538,
        "contract": "contracts/transfers/DeBridgeGate.sol:DeBridgeGate",
        "label": "feeContractUpdater",
        "offset": 0,
        "slot": "268",
        "type": "t_address"
      },
      {
        "astId": 10542,
        "contract": "contracts/transfers/DeBridgeGate.sol:DeBridgeGate",
        "label": "globalFixedNativeFee",
        "offset": 0,
        "slot": "269",
        "type": "t_uint256"
      },
      {
        "astId": 10546,
        "contract": "contracts/transfers/DeBridgeGate.sol:DeBridgeGate",
        "label": "globalTransferFeeBps",
        "offset": 0,
        "slot": "270",
        "type": "t_uint16"
      },
      {
        "astId": 10550,
        "contract": "contracts/transfers/DeBridgeGate.sol:DeBridgeGate",
        "label": "wethGate",
        "offset": 2,
        "slot": "270",
        "type": "t_contract(IWethGate)6276"
      },
      {
        "astId": 10553,
        "contract": "contracts/transfers/DeBridgeGate.sol:DeBridgeGate",
        "label": "lockedClaim",
        "offset": 0,
        "slot": "271",
        "type": "t_uint256"
      }
    ],
    "types": {
      "t_address": {
        "encoding": "inplace",
        "label": "address",
        "numberOfBytes": "20"
      },
      "t_array(t_uint256)49_storage": {
        "base": "t_uint256",
        "encoding": "inplace",
        "label": "uint256[49]",
        "numberOfBytes": "1568"
      },
      "t_array(t_uint256)50_storage": {
        "base": "t_uint256",
        "encoding": "inplace",
        "label": "uint256[50]",
        "numberOfBytes": "1600"
      },
      "t_bool": {
        "encoding": "inplace",
        "label": "bool",
        "numberOfBytes": "1"
      },
      "t_bytes32": {
        "encoding": "inplace",
        "label": "bytes32",
        "numberOfBytes": "32"
      },
      "t_bytes_storage": {
        "encoding": "bytes",
        "label": "bytes",
        "numberOfBytes": "32"
      },
      "t_contract(IWETH)6265": {
        "encoding": "inplace",
        "label": "contract IWETH",
        "numberOfBytes": "20"
      },
      "t_contract(IWethGate)6276": {
        "encoding": "inplace",
        "label": "contract IWethGate",
        "numberOfBytes": "20"
      },
      "t_mapping(t_address,t_bool)": {
        "encoding": "mapping",
        "key": "t_address",
        "label": "mapping(address => bool)",
        "numberOfBytes": "32",
        "value": "t_bool"
      },
      "t_mapping(t_address,t_struct(DiscountInfo)5429_storage)": {
        "encoding": "mapping",
        "key": "t_address",
        "label": "mapping(address => struct IDeBridgeGate.DiscountInfo)",
        "numberOfBytes": "32",
        "value": "t_struct(DiscountInfo)5429_storage"
      },
      "t_mapping(t_address,t_struct(TokenInfo)5393_storage)": {
        "encoding": "mapping",
        "key": "t_address",
        "label": "mapping(address => struct IDeBridgeGate.TokenInfo)",
        "numberOfBytes": "32",
        "value": "t_struct(TokenInfo)5393_storage"
      },
      "t_mapping(t_bytes32,t_bool)": {
        "encoding": "mapping",
        "key": "t_bytes32",
        "label": "mapping(bytes32 => bool)",
        "numberOfBytes": "32",
        "value": "t_bool"
      },
      "t_mapping(t_bytes32,t_struct(DebridgeFeeInfo)5417_storage)": {
        "encoding": "mapping",
        "key": "t_bytes32",
        "label": "mapping(bytes32 => struct IDeBridgeGate.DebridgeFeeInfo)",
        "numberOfBytes": "32",
        "value": "t_struct(DebridgeFeeInfo)5417_storage"
      },
      "t_mapping(t_bytes32,t_struct(DebridgeInfo)5408_storage)": {
        "encoding": "mapping",
        "key": "t_bytes32",
        "label": "mapping(bytes32 => struct IDeBridgeGate.DebridgeInfo)",
        "numberOfBytes": "32",
        "value": "t_struct(DebridgeInfo)5408_storage"
      },
      "t_mapping(t_bytes32,t_struct(RoleData)43_storage)": {
        "encoding": "mapping",
        "key": "t_bytes32",
        "label": "mapping(bytes32 => struct AccessControlUpgradeable.RoleData)",
        "numberOfBytes": "32",
        "value": "t_struct(RoleData)43_storage"
      },
      "t_mapping(t_bytes32,t_uint256)": {
        "encoding": "mapping",
        "key": "t_bytes32",
        "label": "mapping(bytes32 => uint256)",
        "numberOfBytes": "32",
        "value": "t_uint256"
      },
      "t_mapping(t_uint256,t_struct(ChainSupportInfo)5424_storage)": {
        "encoding": "mapping",
        "key": "t_uint256",
        "label": "mapping(uint256 => struct IDeBridgeGate.ChainSupportInfo)",
        "numberOfBytes": "32",
        "value": "t_struct(ChainSupportInfo)5424_storage"
      },
      "t_mapping(t_uint256,t_uint256)": {
        "encoding": "mapping",
        "key": "t_uint256",
        "label": "mapping(uint256 => uint256)",
        "numberOfBytes": "32",
        "value": "t_uint256"
      },
      "t_struct(ChainSupportInfo)5424_storage": {
        "encoding": "inplace",
        "label": "struct IDeBridgeGate.ChainSupportInfo",
        "members": [
          {
            "astId": 5419,
            "contract": "contracts/transfers/DeBridgeGate.sol:DeBridgeGate",
            "label": "fixedNativeFee",
            "offset": 0,
            "slot": "0",
            "type": "t_uint256"
          },
          {
            "astId": 5421,
            "contract": "contracts/transfers/DeBridgeGate.sol:DeBridgeGate",
            "label": "isSupported",
            "offset": 0,
            "slot": "1",
            "type": "t_bool"
          },
          {
            "astId": 5423,
            "contract": "contracts/transfers/DeBridgeGate.sol:DeBridgeGate",
            "label": "transferFeeBps",
            "offset": 1,
            "slot": "1",
            "type": "t_uint16"
          }
        ],
        "numberOfBytes": "64"
      },
      "t_struct(DebridgeFeeInfo)5417_storage": {
        "encoding": "inplace",
        "label": "struct IDeBridgeGate.DebridgeFeeInfo",
        "members": [
          {
            "astId": 5410,
            "contract": "contracts/transfers/DeBridgeGate.sol:DeBridgeGate",
            "label": "collectedFees",
            "offset": 0,
            "slot": "0",
            "type": "t_uint256"
          },
          {
            "astId": 5412,
            "contract": "contracts/transfers/DeBridgeGate.sol:DeBridgeGate",
            "label": "withdrawnFees",
            "offset": 0,
            "slot": "1",
            "type": "t_uint256"
          },
          {
            "astId": 5416,
            "contract": "contracts/transfers/DeBridgeGate.sol:DeBridgeGate",
            "label": "getChainFee",
            "offset": 0,
            "slot": "2",
            "type": "t_mapping(t_uint256,t_uint256)"
          }
        ],
        "numberOfBytes": "96"
      },
      "t_struct(DebridgeInfo)5408_storage": {
        "encoding": "inplace",
        "label": "struct IDeBridgeGate.DebridgeInfo",
        "members": [
          {
            "astId": 5395,
            "contract": "contracts/transfers/DeBridgeGate.sol:DeBridgeGate",
            "label": "chainId",
            "offset": 0,
            "slot": "0",
            "type": "t_uint256"
          },
          {
            "astId": 5397,
            "contract": "contracts/transfers/DeBridgeGate.sol:DeBridgeGate",
            "label": "maxAmount",
            "offset": 0,
            "slot": "1",
            "type": "t_uint256"
          },
          {
            "astId": 5399,
            "contract": "contracts/transfers/DeBridgeGate.sol:DeBridgeGate",
            "label": "balance",
            "offset": 0,
            "slot": "2",
            "type": "t_uint256"
          },
          {
            "astId": 5401,
            "contract": "contracts/transfers/DeBridgeGate.sol:DeBridgeGate",
            "label": "lockedInStrategies",
            "offset": 0,
            "slot": "3",
            "type": "t_uint256"
          },
          {
            "astId": 5403,
            "contract": "contracts/transfers/DeBridgeGate.sol:DeBridgeGate",
            "label": "tokenAddress",
            "offset": 0,
            "slot": "4",
            "type": "t_address"
          },
          {
            "astId": 5405,
            "contract": "contracts/transfers/DeBridgeGate.sol:DeBridgeGate",
            "label": "minReservesBps",
            "offset": 20,
            "slot": "4",
            "type": "t_uint16"
          },
          {
            "astId": 5407,
            "contract": "contracts/transfers/DeBridgeGate.sol:DeBridgeGate",
            "label": "exist",
            "offset": 22,
            "slot": "4",
            "type": "t_bool"
          }
        ],
        "numberOfBytes": "160"
      },
      "t_struct(DiscountInfo)5429_storage": {
        "encoding": "inplace",
        "label": "struct IDeBridgeGate.DiscountInfo",
        "members": [
          {
            "astId": 5426,
            "contract": "contracts/transfers/DeBridgeGate.sol:DeBridgeGate",
            "label": "discountFixBps",
            "offset": 0,
            "slot": "0",
            "type": "t_uint16"
          },
          {
            "astId": 5428,
            "contract": "contracts/transfers/DeBridgeGate.sol:DeBridgeGate",
            "label": "discountTransferBps",
            "offset": 2,
            "slot": "0",
            "type": "t_uint16"
          }
        ],
        "numberOfBytes": "32"
      },
      "t_struct(RoleData)43_storage": {
        "encoding": "inplace",
        "label": "struct AccessControlUpgradeable.RoleData",
        "members": [
          {
            "astId": 40,
            "contract": "contracts/transfers/DeBridgeGate.sol:DeBridgeGate",
            "label": "members",
            "offset": 0,
            "slot": "0",
            "type": "t_mapping(t_address,t_bool)"
          },
          {
            "astId": 42,
            "contract": "contracts/transfers/DeBridgeGate.sol:DeBridgeGate",
            "label": "adminRole",
            "offset": 0,
            "slot": "1",
            "type": "t_bytes32"
          }
        ],
        "numberOfBytes": "64"
      },
      "t_struct(TokenInfo)5393_storage": {
        "encoding": "inplace",
        "label": "struct IDeBridgeGate.TokenInfo",
        "members": [
          {
            "astId": 5390,
            "contract": "contracts/transfers/DeBridgeGate.sol:DeBridgeGate",
            "label": "nativeChainId",
            "offset": 0,
            "slot": "0",
            "type": "t_uint256"
          },
          {
            "astId": 5392,
            "contract": "contracts/transfers/DeBridgeGate.sol:DeBridgeGate",
            "label": "nativeAddress",
            "offset": 0,
            "slot": "1",
            "type": "t_bytes_storage"
          }
        ],
        "numberOfBytes": "64"
      },
      "t_uint16": {
        "encoding": "inplace",
        "label": "uint16",
        "numberOfBytes": "2"
      },
      "t_uint256": {
        "encoding": "inplace",
        "label": "uint256",
        "numberOfBytes": "32"
      },
      "t_uint8": {
        "encoding": "inplace",
        "label": "uint8",
        "numberOfBytes": "1"
      }
    }
  }
}