{
  "address": "0xf8A2902c0a5f817F5e22C82f453538d3f0734C2b",
  "abi": [
    {
      "inputs": [],
      "name": "MinterBadRole",
      "type": "error"
    },
    {
      "inputs": [],
      "name": "PauserBadRole",
      "type": "error"
    },
    {
      "anonymous": false,
      "inputs": [
        {
          "indexed": true,
          "internalType": "address",
          "name": "owner",
          "type": "address"
        },
        {
          "indexed": true,
          "internalType": "address",
          "name": "spender",
          "type": "address"
        },
        {
          "indexed": false,
          "internalType": "uint256",
          "name": "value",
          "type": "uint256"
        }
      ],
      "name": "Approval",
      "type": "event"
    },
    {
      "anonymous": false,
      "inputs": [
        {
          "indexed": false,
          "internalType": "address",
          "name": "account",
          "type": "address"
        }
      ],
      "name": "Paused",
      "type": "event"
    },
    {
      "anonymous": false,
      "inputs": [
        {
          "indexed": true,
          "internalType": "bytes32",
          "name": "role",
          "type": "bytes32"
        },
        {
          "indexed": true,
          "internalType": "bytes32",
          "name": "previousAdminRole",
          "type": "bytes32"
        },
        {
          "indexed": true,
          "internalType": "bytes32",
          "name": "newAdminRole",
          "type": "bytes32"
        }
      ],
      "name": "RoleAdminChanged",
      "type": "event"
    },
    {
      "anonymous": false,
      "inputs": [
        {
          "indexed": true,
          "internalType": "bytes32",
          "name": "role",
          "type": "bytes32"
        },
        {
          "indexed": true,
          "internalType": "address",
          "name": "account",
          "type": "address"
        },
        {
          "indexed": true,
          "internalType": "address",
          "name": "sender",
          "type": "address"
        }
      ],
      "name": "RoleGranted",
      "type": "event"
    },
    {
      "anonymous": false,
      "inputs": [
        {
          "indexed": true,
          "internalType": "bytes32",
          "name": "role",
          "type": "bytes32"
        },
        {
          "indexed": true,
          "internalType": "address",
          "name": "account",
          "type": "address"
        },
        {
          "indexed": true,
          "internalType": "address",
          "name": "sender",
          "type": "address"
        }
      ],
      "name": "RoleRevoked",
      "type": "event"
    },
    {
      "anonymous": false,
      "inputs": [
        {
          "indexed": true,
          "internalType": "address",
          "name": "from",
          "type": "address"
        },
        {
          "indexed": true,
          "internalType": "address",
          "name": "to",
          "type": "address"
        },
        {
          "indexed": false,
          "internalType": "uint256",
          "name": "value",
          "type": "uint256"
        }
      ],
      "name": "Transfer",
      "type": "event"
    },
    {
      "anonymous": false,
      "inputs": [
        {
          "indexed": false,
          "internalType": "address",
          "name": "account",
          "type": "address"
        }
      ],
      "name": "Unpaused",
      "type": "event"
    },
    {
      "inputs": [],
      "name": "DEFAULT_ADMIN_ROLE",
      "outputs": [
        {
          "internalType": "bytes32",
          "name": "",
          "type": "bytes32"
        }
      ],
      "stateMutability": "view",
      "type": "function"
    },
    {
      "inputs": [],
      "name": "DOMAIN_SEPARATOR",
      "outputs": [
        {
          "internalType": "bytes32",
          "name": "",
          "type": "bytes32"
        }
      ],
      "stateMutability": "view",
      "type": "function"
    },
    {
      "inputs": [],
      "name": "MINTER_ROLE",
      "outputs": [
        {
          "internalType": "bytes32",
          "name": "",
          "type": "bytes32"
        }
      ],
      "stateMutability": "view",
      "type": "function"
    },
    {
      "inputs": [],
      "name": "PAUSER_ROLE",
      "outputs": [
        {
          "internalType": "bytes32",
          "name": "",
          "type": "bytes32"
        }
      ],
      "stateMutability": "view",
      "type": "function"
    },
    {
      "inputs": [],
      "name": "PERMIT_TYPEHASH",
      "outputs": [
        {
          "internalType": "bytes32",
          "name": "",
          "type": "bytes32"
        }
      ],
      "stateMutability": "view",
      "type": "function"
    },
    {
      "inputs": [
        {
          "internalType": "address",
          "name": "owner",
          "type": "address"
        },
        {
          "internalType": "address",
          "name": "spender",
          "type": "address"
        }
      ],
      "name": "allowance",
      "outputs": [
        {
          "internalType": "uint256",
          "name": "",
          "type": "uint256"
        }
      ],
      "stateMutability": "view",
      "type": "function"
    },
    {
      "inputs": [
        {
          "internalType": "address",
          "name": "spender",
          "type": "address"
        },
        {
          "internalType": "uint256",
          "name": "amount",
          "type": "uint256"
        }
      ],
      "name": "approve",
      "outputs": [
        {
          "internalType": "bool",
          "name": "",
          "type": "bool"
        }
      ],
      "stateMutability": "nonpayable",
      "type": "function"
    },
    {
      "inputs": [
        {
          "internalType": "address",
          "name": "account",
          "type": "address"
        }
      ],
      "name": "balanceOf",
      "outputs": [
        {
          "internalType": "uint256",
          "name": "",
          "type": "uint256"
        }
      ],
      "stateMutability": "view",
      "type": "function"
    },
    {
      "inputs": [
        {
          "internalType": "uint256",
          "name": "_amount",
          "type": "uint256"
        }
      ],
      "name": "burn",
      "outputs": [],
      "stateMutability": "nonpayable",
      "type": "function"
    },
    {
      "inputs": [],
      "name": "decimals",
      "outputs": [
        {
          "internalType": "uint8",
          "name": "",
          "type": "uint8"
        }
      ],
      "stateMutability": "view",
      "type": "function"
    },
    {
      "inputs": [
        {
          "internalType": "address",
          "name": "spender",
          "type": "address"
        },
        {
          "internalType": "uint256",
          "name": "subtractedValue",
          "type": "uint256"
        }
      ],
      "name": "decreaseAllowance",
      "outputs": [
        {
          "internalType": "bool",
          "name": "",
          "type": "bool"
        }
      ],
      "stateMutability": "nonpayable",
      "type": "function"
    },
    {
      "inputs": [
        {
          "internalType": "bytes32",
          "name": "role",
          "type": "bytes32"
        }
      ],
      "name": "getRoleAdmin",
      "outputs": [
        {
          "internalType": "bytes32",
          "name": "",
          "type": "bytes32"
        }
      ],
      "stateMutability": "view",
      "type": "function"
    },
    {
      "inputs": [
        {
          "internalType": "bytes32",
          "name": "role",
          "type": "bytes32"
        },
        {
          "internalType": "address",
          "name": "account",
          "type": "address"
        }
      ],
      "name": "grantRole",
      "outputs": [],
      "stateMutability": "nonpayable",
      "type": "function"
    },
    {
      "inputs": [
        {
          "internalType": "bytes32",
          "name": "role",
          "type": "bytes32"
        },
        {
          "internalType": "address",
          "name": "account",
          "type": "address"
        }
      ],
      "name": "hasRole",
      "outputs": [
        {
          "internalType": "bool",
          "name": "",
          "type": "bool"
        }
      ],
      "stateMutability": "view",
      "type": "function"
    },
    {
      "inputs": [
        {
          "internalType": "address",
          "name": "spender",
          "type": "address"
        },
        {
          "internalType": "uint256",
          "name": "addedValue",
          "type": "uint256"
        }
      ],
      "name": "increaseAllowance",
      "outputs": [
        {
          "internalType": "bool",
          "name": "",
          "type": "bool"
        }
      ],
      "stateMutability": "nonpayable",
      "type": "function"
    },
    {
      "inputs": [
        {
          "internalType": "string",
          "name": "name_",
          "type": "string"
        },
        {
          "internalType": "string",
          "name": "symbol_",
          "type": "string"
        },
        {
          "internalType": "uint8",
          "name": "decimals_",
          "type": "uint8"
        },
        {
          "internalType": "address",
          "name": "admin",
          "type": "address"
        },
        {
          "internalType": "address[]",
          "name": "minters",
          "type": "address[]"
        }
      ],
      "name": "initialize",
      "outputs": [],
      "stateMutability": "nonpayable",
      "type": "function"
    },
    {
      "inputs": [
        {
          "internalType": "address",
          "name": "_receiver",
          "type": "address"
        },
        {
          "internalType": "uint256",
          "name": "_amount",
          "type": "uint256"
        }
      ],
      "name": "mint",
      "outputs": [],
      "stateMutability": "nonpayable",
      "type": "function"
    },
    {
      "inputs": [],
      "name": "name",
      "outputs": [
        {
          "internalType": "string",
          "name": "",
          "type": "string"
        }
      ],
      "stateMutability": "view",
      "type": "function"
    },
    {
      "inputs": [
        {
          "internalType": "address",
          "name": "",
          "type": "address"
        }
      ],
      "name": "nonces",
      "outputs": [
        {
          "internalType": "uint256",
          "name": "",
          "type": "uint256"
        }
      ],
      "stateMutability": "view",
      "type": "function"
    },
    {
      "inputs": [],
      "name": "pause",
      "outputs": [],
      "stateMutability": "nonpayable",
      "type": "function"
    },
    {
      "inputs": [],
      "name": "paused",
      "outputs": [
        {
          "internalType": "bool",
          "name": "",
          "type": "bool"
        }
      ],
      "stateMutability": "view",
      "type": "function"
    },
    {
      "inputs": [
        {
          "internalType": "address",
          "name": "_owner",
          "type": "address"
        },
        {
          "internalType": "address",
          "name": "_spender",
          "type": "address"
        },
        {
          "internalType": "uint256",
          "name": "_value",
          "type": "uint256"
        },
        {
          "internalType": "uint256",
          "name": "_deadline",
          "type": "uint256"
        },
        {
          "internalType": "uint8",
          "name": "_v",
          "type": "uint8"
        },
        {
          "internalType": "bytes32",
          "name": "_r",
          "type": "bytes32"
        },
        {
          "internalType": "bytes32",
          "name": "_s",
          "type": "bytes32"
        }
      ],
      "name": "permit",
      "outputs": [],
      "stateMutability": "nonpayable",
      "type": "function"
    },
    {
      "inputs": [
        {
          "internalType": "bytes32",
          "name": "role",
          "type": "bytes32"
        },
        {
          "internalType": "address",
          "name": "account",
          "type": "address"
        }
      ],
      "name": "renounceRole",
      "outputs": [],
      "stateMutability": "nonpayable",
      "type": "function"
    },
    {
      "inputs": [
        {
          "internalType": "bytes32",
          "name": "role",
          "type": "bytes32"
        },
        {
          "internalType": "address",
          "name": "account",
          "type": "address"
        }
      ],
      "name": "revokeRole",
      "outputs": [],
      "stateMutability": "nonpayable",
      "type": "function"
    },
    {
      "inputs": [
        {
          "internalType": "bytes4",
          "name": "interfaceId",
          "type": "bytes4"
        }
      ],
      "name": "supportsInterface",
      "outputs": [
        {
          "internalType": "bool",
          "name": "",
          "type": "bool"
        }
      ],
      "stateMutability": "view",
      "type": "function"
    },
    {
      "inputs": [],
      "name": "symbol",
      "outputs": [
        {
          "internalType": "string",
          "name": "",
          "type": "string"
        }
      ],
      "stateMutability": "view",
      "type": "function"
    },
    {
      "inputs": [],
      "name": "totalSupply",
      "outputs": [
        {
          "internalType": "uint256",
          "name": "",
          "type": "uint256"
        }
      ],
      "stateMutability": "view",
      "type": "function"
    },
    {
      "inputs": [
        {
          "internalType": "address",
          "name": "recipient",
          "type": "address"
        },
        {
          "internalType": "uint256",
          "name": "amount",
          "type": "uint256"
        }
      ],
      "name": "transfer",
      "outputs": [
        {
          "internalType": "bool",
          "name": "",
          "type": "bool"
        }
      ],
      "stateMutability": "nonpayable",
      "type": "function"
    },
    {
      "inputs": [
        {
          "internalType": "address",
          "name": "sender",
          "type": "address"
        },
        {
          "internalType": "address",
          "name": "recipient",
          "type": "address"
        },
        {
          "internalType": "uint256",
          "name": "amount",
          "type": "uint256"
        }
      ],
      "name": "transferFrom",
      "outputs": [
        {
          "internalType": "bool",
          "name": "",
          "type": "bool"
        }
      ],
      "stateMutability": "nonpayable",
      "type": "function"
    },
    {
      "inputs": [],
      "name": "unpause",
      "outputs": [],
      "stateMutability": "nonpayable",
      "type": "function"
    }
  ],
  "transactionHash": "0x9f637339d9b3197eeb3f9cf89a05ae0345177d85251e6a036845ca4891a0a7cb",
  "args": [],
  "solcInputHash": "5daaa94c5a3f861d5ac6220ad0f503f9",
  "bytecode": "0x608060405234801561001057600080fd5b50611e35806100206000396000f3fe608060405234801561001057600080fd5b50600436106101da5760003560e01c80635471a50411610104578063a217fddf116100a2578063d539139311610071578063d5391393146103f3578063d547741f14610408578063dd62ed3e1461041b578063e63ab1e91461045457600080fd5b8063a217fddf146103b2578063a457c2d7146103ba578063a9059cbb146103cd578063d505accf146103e057600080fd5b80637ecebe00116100de5780637ecebe001461036e5780638456cb591461038f57806391d148541461039757806395d89b41146103aa57600080fd5b80635471a504146103275780635c975abb1461033a57806370a082311461034557600080fd5b806330adf81f1161017c578063395093511161014b57806339509351146102e65780633f4ba83a146102f957806340c10f191461030157806342966c681461031457600080fd5b806330adf81f1461028c578063313ce567146102b35780633644e515146102c957806336568abe146102d357600080fd5b806318160ddd116101b857806318160ddd1461022f57806323b872dd14610241578063248a9ca3146102545780632f2ff15d1461027757600080fd5b806301ffc9a7146101df57806306fdde0314610207578063095ea7b31461021c575b600080fd5b6101f26101ed3660046119cd565b610469565b60405190151581526020015b60405180910390f35b61020f6104a0565b6040516101fe9190611be4565b6101f261022a366004611967565b610532565b6099545b6040519081526020016101fe565b6101f261024f3660046118c1565b610548565b610233610262366004611991565b60009081526065602052604090206001015490565b61028a6102853660046119aa565b6105f7565b005b6102337f6e71edae12b1b97f4d1f60370fef10105fa2faae0126114a169c64845d6126c981565b61012f5460405160ff90911681526020016101fe565b61023361012d5481565b61028a6102e13660046119aa565b610622565b6101f26102f4366004611967565b6106a0565b61028a6106dc565b61028a61030f366004611967565b61071b565b61028a610322366004611991565b61075a565b61028a6103353660046119f7565b61079c565b60c95460ff166101f2565b610233610353366004611873565b6001600160a01b031660009081526097602052604090205490565b61023361037c366004611873565b61012e6020526000908152604090205481565b61028a610991565b6101f26103a53660046119aa565b6109ce565b61020f6109f9565b610233600081565b6101f26103c8366004611967565b610a08565b6101f26103db366004611967565b610aa1565b61028a6103ee3660046118fd565b610aae565b610233600080516020611de083398151915281565b61028a6104163660046119aa565b610cc1565b61023361042936600461188e565b6001600160a01b03918216600090815260986020908152604080832093909416825291909152205490565b610233600080516020611dc083398151915281565b60006001600160e01b03198216637965db0b60e01b148061049a57506301ffc9a760e01b6001600160e01b03198316145b92915050565b6060609a80546104af90611d27565b80601f01602080910402602001604051908101604052809291908181526020018280546104db90611d27565b80156105285780601f106104fd57610100808354040283529160200191610528565b820191906000526020600020905b81548152906001019060200180831161050b57829003601f168201915b5050505050905090565b600061053f338484610ce7565b50600192915050565b6000610555848484610e0b565b6001600160a01b0384166000908152609860209081526040808320338452909152902054828110156105df5760405162461bcd60e51b815260206004820152602860248201527f45524332303a207472616e7366657220616d6f756e74206578636565647320616044820152676c6c6f77616e636560c01b60648201526084015b60405180910390fd5b6105ec8533858403610ce7565b506001949350505050565b6000828152606560205260409020600101546106138133610fe6565b61061d838361104a565b505050565b6001600160a01b03811633146106925760405162461bcd60e51b815260206004820152602f60248201527f416363657373436f6e74726f6c3a2063616e206f6e6c792072656e6f756e636560448201526e103937b632b9903337b91039b2b63360891b60648201526084016105d6565b61069c82826110d0565b5050565b3360008181526098602090815260408083206001600160a01b0387168452909152812054909161053f9185906106d7908690611c96565b610ce7565b6106f4600080516020611dc0833981519152336109ce565b61071157604051634794afc360e11b815260040160405180910390fd5b610719611137565b565b610733600080516020611de0833981519152336109ce565b61075057604051630b21270760e21b815260040160405180910390fd5b61069c82826111ca565b610772600080516020611de0833981519152336109ce565b61078f57604051630b21270760e21b815260040160405180910390fd5b61079933826112b5565b50565b600054610100900460ff16806107b5575060005460ff16155b6107d15760405162461bcd60e51b81526004016105d690611c17565b600054610100900460ff161580156107f3576000805461ffff19166101011790555b61012f805460ff191660ff86161790558551156108105785610812565b845b6040516020016108229190611b14565b6040516020818303038152906040529550846040516020016108449190611b45565b604051602081830303815290604052945061085f868661140f565b61086a6000846114a4565b610882600080516020611dc0833981519152846114a4565b815160005b818110156108d2576108c0600080516020611de08339815191528583815181106108b3576108b3611d93565b60200260200101516114a4565b806108ca81611d62565b915050610887565b50865160208089019190912060408051808201825260018152603160f81b9084015280517f8b73c3c69bb8fe3d512ecc4cf759cc79239f7b179b0ffacaa9a75d522b39400f938101939093528201527fc89efdaa54c0f20c7adf612882df0950f5a951637e0307cdcb4c672f298b8bc6606082015246608082018190523060a08301529060c00160408051601f19818403018152919052805160209091012061012d5550508015610989576000805461ff00191690555b505050505050565b6109a9600080516020611dc0833981519152336109ce565b6109c657604051634794afc360e11b815260040160405180910390fd5b6107196114ae565b60009182526065602090815260408084206001600160a01b0393909316845291905290205460ff1690565b6060609b80546104af90611d27565b3360009081526098602090815260408083206001600160a01b038616845290915281205482811015610a8a5760405162461bcd60e51b815260206004820152602560248201527f45524332303a2064656372656173656420616c6c6f77616e63652062656c6f77604482015264207a65726f60d81b60648201526084016105d6565b610a973385858403610ce7565b5060019392505050565b600061053f338484610e0b565b42841015610af05760405162461bcd60e51b815260206004820152600f60248201526e1c195c9b5a5d0e8811561412549151608a1b60448201526064016105d6565b61012d546001600160a01b038816600090815261012e6020526040812080549192917f6e71edae12b1b97f4d1f60370fef10105fa2faae0126114a169c64845d6126c9918b918b918b919087610b4583611d62565b909155506040805160208101969096526001600160a01b0394851690860152929091166060840152608083015260a082015260c0810187905260e00160405160208183030381529060405280519060200120604051602001610bbe92919061190160f01b81526002810192909252602282015260420190565b60408051601f198184030181528282528051602091820120600080855291840180845281905260ff88169284019290925260608301869052608083018590529092509060019060a0016020604051602081039080840390855afa158015610c29573d6000803e3d6000fd5b5050604051601f1901519150506001600160a01b03811615801590610c5f5750886001600160a01b0316816001600160a01b0316145b610cab5760405162461bcd60e51b815260206004820152601960248201527f7065726d69743a20696e76616c6964207369676e61747572650000000000000060448201526064016105d6565b610cb6898989610ce7565b505050505050505050565b600082815260656020526040902060010154610cdd8133610fe6565b61061d83836110d0565b6001600160a01b038316610d495760405162461bcd60e51b8152602060048201526024808201527f45524332303a20617070726f76652066726f6d20746865207a65726f206164646044820152637265737360e01b60648201526084016105d6565b6001600160a01b038216610daa5760405162461bcd60e51b815260206004820152602260248201527f45524332303a20617070726f766520746f20746865207a65726f206164647265604482015261737360f01b60648201526084016105d6565b6001600160a01b0383811660008181526098602090815260408083209487168084529482529182902085905590518481527f8c5be1e5ebec7d5bd14f71427d1e84f3dd0314c0f7b2291e5b200ac8c7c3b925910160405180910390a3505050565b6001600160a01b038316610e6f5760405162461bcd60e51b815260206004820152602560248201527f45524332303a207472616e736665722066726f6d20746865207a65726f206164604482015264647265737360d81b60648201526084016105d6565b6001600160a01b038216610ed15760405162461bcd60e51b815260206004820152602360248201527f45524332303a207472616e7366657220746f20746865207a65726f206164647260448201526265737360e81b60648201526084016105d6565b610edc838383611529565b6001600160a01b03831660009081526097602052604090205481811015610f545760405162461bcd60e51b815260206004820152602660248201527f45524332303a207472616e7366657220616d6f756e7420657863656564732062604482015265616c616e636560d01b60648201526084016105d6565b6001600160a01b03808516600090815260976020526040808220858503905591851681529081208054849290610f8b908490611c96565b92505081905550826001600160a01b0316846001600160a01b03167fddf252ad1be2c89b69c2b068fc378daa952ba7f163c4a11628f55a4df523b3ef84604051610fd791815260200190565b60405180910390a35b50505050565b610ff082826109ce565b61069c57611008816001600160a01b03166014611534565b611013836020611534565b604051602001611024929190611b6f565b60408051601f198184030181529082905262461bcd60e51b82526105d691600401611be4565b61105482826109ce565b61069c5760008281526065602090815260408083206001600160a01b03851684529091529020805460ff1916600117905561108c3390565b6001600160a01b0316816001600160a01b0316837f2f8788117e7eff1d82e926ec794901d17c78024a50270940304540a733656f0d60405160405180910390a45050565b6110da82826109ce565b1561069c5760008281526065602090815260408083206001600160a01b0385168085529252808320805460ff1916905551339285917ff6391f5c32d9c69d2a47ea670b442974b53935d1edc7fd64eb21e047a839171b9190a45050565b60c95460ff166111805760405162461bcd60e51b815260206004820152601460248201527314185d5cd8589b194e881b9bdd081c185d5cd95960621b60448201526064016105d6565b60c9805460ff191690557f5db9ee0a495bf2e6ff9c91a7834c1ba4fdd244a5e8aa4e537bd38aeae4b073aa335b6040516001600160a01b03909116815260200160405180910390a1565b6001600160a01b0382166112205760405162461bcd60e51b815260206004820152601f60248201527f45524332303a206d696e7420746f20746865207a65726f20616464726573730060448201526064016105d6565b61122c60008383611529565b806099600082825461123e9190611c96565b90915550506001600160a01b0382166000908152609760205260408120805483929061126b908490611c96565b90915550506040518181526001600160a01b038316906000907fddf252ad1be2c89b69c2b068fc378daa952ba7f163c4a11628f55a4df523b3ef9060200160405180910390a35050565b6001600160a01b0382166113155760405162461bcd60e51b815260206004820152602160248201527f45524332303a206275726e2066726f6d20746865207a65726f206164647265736044820152607360f81b60648201526084016105d6565b61132182600083611529565b6001600160a01b038216600090815260976020526040902054818110156113955760405162461bcd60e51b815260206004820152602260248201527f45524332303a206275726e20616d6f756e7420657863656564732062616c616e604482015261636560f01b60648201526084016105d6565b6001600160a01b03831660009081526097602052604081208383039055609980548492906113c4908490611ccd565b90915550506040518281526000906001600160a01b038516907fddf252ad1be2c89b69c2b068fc378daa952ba7f163c4a11628f55a4df523b3ef9060200160405180910390a3505050565b600054610100900460ff1680611428575060005460ff16155b6114445760405162461bcd60e51b81526004016105d690611c17565b600054610100900460ff16158015611466576000805461ffff19166101011790555b825161147990609a90602086019061173d565b50815161148d90609b90602085019061173d565b50801561061d576000805461ff0019169055505050565b61069c828261104a565b60c95460ff16156114f45760405162461bcd60e51b815260206004820152601060248201526f14185d5cd8589b194e881c185d5cd95960821b60448201526064016105d6565b60c9805460ff191660011790557f62e78cea01bee320cd4e420270b5ea74000d11b0c9f74754ebdbfc544b05a2586111ad3390565b61061d8383836116d7565b60606000611543836002611cae565b61154e906002611c96565b67ffffffffffffffff81111561156657611566611da9565b6040519080825280601f01601f191660200182016040528015611590576020820181803683370190505b509050600360fc1b816000815181106115ab576115ab611d93565b60200101906001600160f81b031916908160001a905350600f60fb1b816001815181106115da576115da611d93565b60200101906001600160f81b031916908160001a90535060006115fe846002611cae565b611609906001611c96565b90505b6001811115611681576f181899199a1a9b1b9c1cb0b131b232b360811b85600f166010811061163d5761163d611d93565b1a60f81b82828151811061165357611653611d93565b60200101906001600160f81b031916908160001a90535060049490941c9361167a81611d10565b905061160c565b5083156116d05760405162461bcd60e51b815260206004820181905260248201527f537472696e67733a20686578206c656e67746820696e73756666696369656e7460448201526064016105d6565b9392505050565b60c95460ff161561061d5760405162461bcd60e51b815260206004820152602a60248201527f45524332305061757361626c653a20746f6b656e207472616e736665722077686044820152691a5b19481c185d5cd95960b21b60648201526084016105d6565b82805461174990611d27565b90600052602060002090601f01602090048101928261176b57600085556117b1565b82601f1061178457805160ff19168380011785556117b1565b828001600101855582156117b1579182015b828111156117b1578251825591602001919060010190611796565b506117bd9291506117c1565b5090565b5b808211156117bd57600081556001016117c2565b80356001600160a01b03811681146117ed57600080fd5b919050565b600082601f83011261180357600080fd5b813567ffffffffffffffff81111561181d5761181d611da9565b611830601f8201601f1916602001611c65565b81815284602083860101111561184557600080fd5b816020850160208301376000918101602001919091529392505050565b803560ff811681146117ed57600080fd5b60006020828403121561188557600080fd5b6116d0826117d6565b600080604083850312156118a157600080fd5b6118aa836117d6565b91506118b8602084016117d6565b90509250929050565b6000806000606084860312156118d657600080fd5b6118df846117d6565b92506118ed602085016117d6565b9150604084013590509250925092565b600080600080600080600060e0888a03121561191857600080fd5b611921886117d6565b965061192f602089016117d6565b9550604088013594506060880135935061194b60808901611862565b925060a0880135915060c0880135905092959891949750929550565b6000806040838503121561197a57600080fd5b611983836117d6565b946020939093013593505050565b6000602082840312156119a357600080fd5b5035919050565b600080604083850312156119bd57600080fd5b823591506118b8602084016117d6565b6000602082840312156119df57600080fd5b81356001600160e01b0319811681146116d057600080fd5b600080600080600060a08688031215611a0f57600080fd5b853567ffffffffffffffff80821115611a2757600080fd5b611a3389838a016117f2565b9650602091508188013581811115611a4a57600080fd5b611a568a828b016117f2565b965050611a6560408901611862565b9450611a73606089016117d6565b9350608088013581811115611a8757600080fd5b8801601f81018a13611a9857600080fd5b803582811115611aaa57611aaa611da9565b8060051b9250611abb848401611c65565b8181528481019083860185850187018e1015611ad657600080fd5b600095505b83861015611b0057611aec816117d6565b835260019590950194918601918601611adb565b508096505050505050509295509295909350565b6803232a13934b233b2960bd1b815260008251611b38816009850160208701611ce4565b9190910160090192915050565b61646560f01b815260008251611b62816002850160208701611ce4565b9190910160020192915050565b7f416363657373436f6e74726f6c3a206163636f756e7420000000000000000000815260008351611ba7816017850160208801611ce4565b7001034b99036b4b9b9b4b733903937b6329607d1b6017918401918201528351611bd8816028840160208801611ce4565b01602801949350505050565b6020815260008251806020840152611c03816040850160208701611ce4565b601f01601f19169190910160400192915050565b6020808252602e908201527f496e697469616c697a61626c653a20636f6e747261637420697320616c72656160408201526d191e481a5b9a5d1a585b1a5e995960921b606082015260800190565b604051601f8201601f1916810167ffffffffffffffff81118282101715611c8e57611c8e611da9565b604052919050565b60008219821115611ca957611ca9611d7d565b500190565b6000816000190483118215151615611cc857611cc8611d7d565b500290565b600082821015611cdf57611cdf611d7d565b500390565b60005b83811015611cff578181015183820152602001611ce7565b83811115610fe05750506000910152565b600081611d1f57611d1f611d7d565b506000190190565b600181811c90821680611d3b57607f821691505b60208210811415611d5c57634e487b7160e01b600052602260045260246000fd5b50919050565b6000600019821415611d7657611d76611d7d565b5060010190565b634e487b7160e01b600052601160045260246000fd5b634e487b7160e01b600052603260045260246000fd5b634e487b7160e01b600052604160045260246000fdfe65d7a28e3265b37a6474929f336521b332c1681b933f6cb9f3376673440d862a9f2df0fed2c77648de5860a4cc508cd0818c85b8b8a1ab4ceeef8d981c8956a6a2646970667358221220e5a1cf7838617267e1d90556787f376d050201898523817d5a53f113684d392b64736f6c63430008070033",
  "devdoc": {
    "details": "ERC20 token that is used as wrapped asset to represent the native token value on the other chains.",
    "kind": "dev",
    "methods": {
      "allowance(address,address)": {
        "details": "See {IERC20-allowance}."
      },
      "approve(address,uint256)": {
        "details": "See {IERC20-approve}. Requirements: - `spender` cannot be the zero address."
      },
      "balanceOf(address)": {
        "details": "See {IERC20-balanceOf}."
      },
      "burn(uint256)": {
        "details": "Destroys existing tokens.",
        "params": {
          "_amount": "Amount to be burnt."
        }
      },
      "decimals()": {
        "details": "Asset's decimals"
      },
      "decreaseAllowance(address,uint256)": {
        "details": "Atomically decreases the allowance granted to `spender` by the caller. This is an alternative to {approve} that can be used as a mitigation for problems described in {IERC20-approve}. Emits an {Approval} event indicating the updated allowance. Requirements: - `spender` cannot be the zero address. - `spender` must have allowance for the caller of at least `subtractedValue`."
      },
      "getRoleAdmin(bytes32)": {
        "details": "Returns the admin role that controls `role`. See {grantRole} and {revokeRole}. To change a role's admin, use {_setRoleAdmin}."
      },
      "grantRole(bytes32,address)": {
        "details": "Grants `role` to `account`. If `account` had not been already granted `role`, emits a {RoleGranted} event. Requirements: - the caller must have ``role``'s admin role."
      },
      "hasRole(bytes32,address)": {
        "details": "Returns `true` if `account` has been granted `role`."
      },
      "increaseAllowance(address,uint256)": {
        "details": "Atomically increases the allowance granted to `spender` by the caller. This is an alternative to {approve} that can be used as a mitigation for problems described in {IERC20-approve}. Emits an {Approval} event indicating the updated allowance. Requirements: - `spender` cannot be the zero address."
      },
      "initialize(string,string,uint8,address,address[])": {
        "details": "Constructor that initializes the most important configurations.",
        "params": {
          "admin": "Address to set as asset's admin.",
          "decimals_": "Asset's decimals.",
          "minters": "The accounts allowed to int new tokens.",
          "name_": "Asset's name.",
          "symbol_": "Asset's symbol."
        }
      },
      "mint(address,uint256)": {
        "details": "Issues new tokens.",
        "params": {
          "_amount": "Amount to be minted.",
          "_receiver": "Token's receiver."
        }
      },
      "name()": {
        "details": "Returns the name of the token."
      },
      "pause()": {
        "details": "Pauses all token transfers. The caller must have the `PAUSER_ROLE`."
      },
      "paused()": {
        "details": "Returns true if the contract is paused, and false otherwise."
      },
      "permit(address,address,uint256,uint256,uint8,bytes32,bytes32)": {
        "details": "Approves the spender by signature.",
        "params": {
          "_deadline": "The permit valid until.",
          "_owner": "Token's owner.",
          "_r": "Signature part.",
          "_s": "Signature part.",
          "_spender": "Account to be approved.",
          "_v": "Signature part.",
          "_value": "Amount to be approved."
        }
      },
      "renounceRole(bytes32,address)": {
        "details": "Revokes `role` from the calling account. Roles are often managed via {grantRole} and {revokeRole}: this function's purpose is to provide a mechanism for accounts to lose their privileges if they are compromised (such as when a trusted device is misplaced). If the calling account had been revoked `role`, emits a {RoleRevoked} event. Requirements: - the caller must be `account`."
      },
      "revokeRole(bytes32,address)": {
        "details": "Revokes `role` from `account`. If `account` had been granted `role`, emits a {RoleRevoked} event. Requirements: - the caller must have ``role``'s admin role."
      },
      "supportsInterface(bytes4)": {
        "details": "See {IERC165-supportsInterface}."
      },
      "symbol()": {
        "details": "Returns the symbol of the token, usually a shorter version of the name."
      },
      "totalSupply()": {
        "details": "See {IERC20-totalSupply}."
      },
      "transfer(address,uint256)": {
        "details": "See {IERC20-transfer}. Requirements: - `recipient` cannot be the zero address. - the caller must have a balance of at least `amount`."
      },
      "transferFrom(address,address,uint256)": {
        "details": "See {IERC20-transferFrom}. Emits an {Approval} event indicating the updated allowance. This is not required by the EIP. See the note at the beginning of {ERC20}. Requirements: - `sender` and `recipient` cannot be the zero address. - `sender` must have a balance of at least `amount`. - the caller must have allowance for ``sender``'s tokens of at least `amount`."
      },
      "unpause()": {
        "details": "Unpauses all token transfers. The caller must have the `PAUSER_ROLE`."
      }
    },
    "stateVariables": {
      "DOMAIN_SEPARATOR": {
        "details": "Domain separator as described in [EIP-712](https://github.com/ethereum/EIPs/blob/master/EIPS/eip-712.md#rationale)"
      },
      "MINTER_ROLE": {
        "details": "Minter role identifier"
      },
      "PAUSER_ROLE": {
        "details": "Pauser role identifier"
      },
      "PERMIT_TYPEHASH": {
        "details": "Typehash as described in [EIP-712](https://github.com/ethereum/EIPs/blob/master/EIPS/eip-712.md#rationale). =keccak256(\"Permit(address owner,address spender,uint256 value,uint256 nonce,uint256 deadline)\");"
      },
      "_decimals": {
        "details": "Asset's decimals"
      },
      "nonces": {
        "details": "Transfers counter"
      }
    },
    "version": 1
  },
  "userdoc": {
    "kind": "user",
    "methods": {},
    "version": 1
  },
  "storageLayout": {
    "storage": [
      {
        "astId": 418,
        "contract": "contracts/periphery/DeBridgeToken.sol:DeBridgeToken",
        "label": "_initialized",
        "offset": 0,
        "slot": "0",
        "type": "t_bool"
      },
      {
        "astId": 421,
        "contract": "contracts/periphery/DeBridgeToken.sol:DeBridgeToken",
        "label": "_initializing",
        "offset": 1,
        "slot": "0",
        "type": "t_bool"
      },
      {
        "astId": 1882,
        "contract": "contracts/periphery/DeBridgeToken.sol:DeBridgeToken",
        "label": "__gap",
        "offset": 0,
        "slot": "1",
        "type": "t_array(t_uint256)50_storage"
      },
      {
        "astId": 2131,
        "contract": "contracts/periphery/DeBridgeToken.sol:DeBridgeToken",
        "label": "__gap",
        "offset": 0,
        "slot": "51",
        "type": "t_array(t_uint256)50_storage"
      },
      {
        "astId": 48,
        "contract": "contracts/periphery/DeBridgeToken.sol:DeBridgeToken",
        "label": "_roles",
        "offset": 0,
        "slot": "101",
        "type": "t_mapping(t_bytes32,t_struct(RoleData)43_storage)"
      },
      {
        "astId": 335,
        "contract": "contracts/periphery/DeBridgeToken.sol:DeBridgeToken",
        "label": "__gap",
        "offset": 0,
        "slot": "102",
        "type": "t_array(t_uint256)49_storage"
      },
      {
        "astId": 648,
        "contract": "contracts/periphery/DeBridgeToken.sol:DeBridgeToken",
        "label": "_balances",
        "offset": 0,
        "slot": "151",
        "type": "t_mapping(t_address,t_uint256)"
      },
      {
        "astId": 654,
        "contract": "contracts/periphery/DeBridgeToken.sol:DeBridgeToken",
        "label": "_allowances",
        "offset": 0,
        "slot": "152",
        "type": "t_mapping(t_address,t_mapping(t_address,t_uint256))"
      },
      {
        "astId": 656,
        "contract": "contracts/periphery/DeBridgeToken.sol:DeBridgeToken",
        "label": "_totalSupply",
        "offset": 0,
        "slot": "153",
        "type": "t_uint256"
      },
      {
        "astId": 658,
        "contract": "contracts/periphery/DeBridgeToken.sol:DeBridgeToken",
        "label": "_name",
        "offset": 0,
        "slot": "154",
        "type": "t_string_storage"
      },
      {
        "astId": 660,
        "contract": "contracts/periphery/DeBridgeToken.sol:DeBridgeToken",
        "label": "_symbol",
        "offset": 0,
        "slot": "155",
        "type": "t_string_storage"
      },
      {
        "astId": 1201,
        "contract": "contracts/periphery/DeBridgeToken.sol:DeBridgeToken",
        "label": "__gap",
        "offset": 0,
        "slot": "156",
        "type": "t_array(t_uint256)45_storage"
      },
      {
        "astId": 479,
        "contract": "contracts/periphery/DeBridgeToken.sol:DeBridgeToken",
        "label": "_paused",
        "offset": 0,
        "slot": "201",
        "type": "t_bool"
      },
      {
        "astId": 570,
        "contract": "contracts/periphery/DeBridgeToken.sol:DeBridgeToken",
        "label": "__gap",
        "offset": 0,
        "slot": "202",
        "type": "t_array(t_uint256)49_storage"
      },
      {
        "astId": 1344,
        "contract": "contracts/periphery/DeBridgeToken.sol:DeBridgeToken",
        "label": "__gap",
        "offset": 0,
        "slot": "251",
        "type": "t_array(t_uint256)50_storage"
      },
      {
        "astId": 17498,
        "contract": "contracts/periphery/DeBridgeToken.sol:DeBridgeToken",
        "label": "DOMAIN_SEPARATOR",
        "offset": 0,
        "slot": "301",
        "type": "t_bytes32"
      },
      {
        "astId": 17507,
        "contract": "contracts/periphery/DeBridgeToken.sol:DeBridgeToken",
        "label": "nonces",
        "offset": 0,
        "slot": "302",
        "type": "t_mapping(t_address,t_uint256)"
      },
      {
        "astId": 17510,
        "contract": "contracts/periphery/DeBridgeToken.sol:DeBridgeToken",
        "label": "_decimals",
        "offset": 0,
        "slot": "303",
        "type": "t_uint8"
      }
    ],
    "types": {
      "t_address": {
        "encoding": "inplace",
        "label": "address",
        "numberOfBytes": "20"
      },
      "t_array(t_uint256)45_storage": {
        "base": "t_uint256",
        "encoding": "inplace",
        "label": "uint256[45]",
        "numberOfBytes": "1440"
      },
      "t_array(t_uint256)49_storage": {
        "base": "t_uint256",
        "encoding": "inplace",
        "label": "uint256[49]",
        "numberOfBytes": "1568"
      },
      "t_array(t_uint256)50_storage": {
        "base": "t_uint256",
        "encoding": "inplace",
        "label": "uint256[50]",
        "numberOfBytes": "1600"
      },
      "t_bool": {
        "encoding": "inplace",
        "label": "bool",
        "numberOfBytes": "1"
      },
      "t_bytes32": {
        "encoding": "inplace",
        "label": "bytes32",
        "numberOfBytes": "32"
      },
      "t_mapping(t_address,t_bool)": {
        "encoding": "mapping",
        "key": "t_address",
        "label": "mapping(address => bool)",
        "numberOfBytes": "32",
        "value": "t_bool"
      },
      "t_mapping(t_address,t_mapping(t_address,t_uint256))": {
        "encoding": "mapping",
        "key": "t_address",
        "label": "mapping(address => mapping(address => uint256))",
        "numberOfBytes": "32",
        "value": "t_mapping(t_address,t_uint256)"
      },
      "t_mapping(t_address,t_uint256)": {
        "encoding": "mapping",
        "key": "t_address",
        "label": "mapping(address => uint256)",
        "numberOfBytes": "32",
        "value": "t_uint256"
      },
      "t_mapping(t_bytes32,t_struct(RoleData)43_storage)": {
        "encoding": "mapping",
        "key": "t_bytes32",
        "label": "mapping(bytes32 => struct AccessControlUpgradeable.RoleData)",
        "numberOfBytes": "32",
        "value": "t_struct(RoleData)43_storage"
      },
      "t_string_storage": {
        "encoding": "bytes",
        "label": "string",
        "numberOfBytes": "32"
      },
      "t_struct(RoleData)43_storage": {
        "encoding": "inplace",
        "label": "struct AccessControlUpgradeable.RoleData",
        "members": [
          {
            "astId": 40,
            "contract": "contracts/periphery/DeBridgeToken.sol:DeBridgeToken",
            "label": "members",
            "offset": 0,
            "slot": "0",
            "type": "t_mapping(t_address,t_bool)"
          },
          {
            "astId": 42,
            "contract": "contracts/periphery/DeBridgeToken.sol:DeBridgeToken",
            "label": "adminRole",
            "offset": 0,
            "slot": "1",
            "type": "t_bytes32"
          }
        ],
        "numberOfBytes": "64"
      },
      "t_uint256": {
        "encoding": "inplace",
        "label": "uint256",
        "numberOfBytes": "32"
      },
      "t_uint8": {
        "encoding": "inplace",
        "label": "uint8",
        "numberOfBytes": "1"
      }
    }
  }
}