{
    "contractName": "CallProxy",
    "abi": [
        {
            "inputs": [],
            "name": "DeBridgeGateBadRole",
            "type": "error"
        },
        {
            "anonymous": false,
            "inputs": [
                {
                    "indexed": true,
                    "internalType": "bytes32",
                    "name": "role",
                    "type": "bytes32"
                },
                {
                    "indexed": true,
                    "internalType": "bytes32",
                    "name": "previousAdminRole",
                    "type": "bytes32"
                },
                {
                    "indexed": true,
                    "internalType": "bytes32",
                    "name": "newAdminRole",
                    "type": "bytes32"
                }
            ],
            "name": "RoleAdminChanged",
            "type": "event"
        },
        {
            "anonymous": false,
            "inputs": [
                {
                    "indexed": true,
                    "internalType": "bytes32",
                    "name": "role",
                    "type": "bytes32"
                },
                {
                    "indexed": true,
                    "internalType": "address",
                    "name": "account",
                    "type": "address"
                },
                {
                    "indexed": true,
                    "internalType": "address",
                    "name": "sender",
                    "type": "address"
                }
            ],
            "name": "RoleGranted",
            "type": "event"
        },
        {
            "anonymous": false,
            "inputs": [
                {
                    "indexed": true,
                    "internalType": "bytes32",
                    "name": "role",
                    "type": "bytes32"
                },
                {
                    "indexed": true,
                    "internalType": "address",
                    "name": "account",
                    "type": "address"
                },
                {
                    "indexed": true,
                    "internalType": "address",
                    "name": "sender",
                    "type": "address"
                }
            ],
            "name": "RoleRevoked",
            "type": "event"
        },
        {
            "inputs": [],
            "name": "DEBRIDGE_GATE_ROLE",
            "outputs": [
                {
                    "internalType": "bytes32",
                    "name": "",
                    "type": "bytes32"
                }
            ],
            "stateMutability": "view",
            "type": "function"
        },
        {
            "inputs": [],
            "name": "DEFAULT_ADMIN_ROLE",
            "outputs": [
                {
                    "internalType": "bytes32",
                    "name": "",
                    "type": "bytes32"
                }
            ],
            "stateMutability": "view",
            "type": "function"
        },
        {
            "inputs": [],
            "name": "PROXY_WITH_SENDER_FLAG",
            "outputs": [
                {
                    "internalType": "uint256",
                    "name": "",
                    "type": "uint256"
                }
            ],
            "stateMutability": "view",
            "type": "function"
        },
        {
            "inputs": [
                {
                    "internalType": "address",
                    "name": "_reserveAddress",
                    "type": "address"
                },
                {
                    "internalType": "address",
                    "name": "_receiver",
                    "type": "address"
                },
                {
                    "internalType": "bytes",
                    "name": "_data",
                    "type": "bytes"
                },
                {
                    "internalType": "uint8",
                    "name": "_reservedFlag",
                    "type": "uint8"
                },
                {
                    "internalType": "bytes",
                    "name": "_nativeSender",
                    "type": "bytes"
                }
            ],
            "name": "call",
            "outputs": [
                {
                    "internalType": "bool",
                    "name": "_result",
                    "type": "bool"
                }
            ],
            "stateMutability": "payable",
            "type": "function"
        },
        {
            "inputs": [
                {
                    "internalType": "address",
                    "name": "_token",
                    "type": "address"
                },
                {
                    "internalType": "address",
                    "name": "_reserveAddress",
                    "type": "address"
                },
                {
                    "internalType": "address",
                    "name": "_receiver",
                    "type": "address"
                },
                {
                    "internalType": "bytes",
                    "name": "_data",
                    "type": "bytes"
                },
                {
                    "internalType": "uint8",
                    "name": "_reservedFlag",
                    "type": "uint8"
                },
                {
                    "internalType": "bytes",
                    "name": "_nativeSender",
                    "type": "bytes"
                }
            ],
            "name": "callERC20",
            "outputs": [
                {
                    "internalType": "bool",
                    "name": "_result",
                    "type": "bool"
                }
            ],
            "stateMutability": "nonpayable",
            "type": "function"
        },
        {
            "inputs": [
                {
                    "internalType": "bytes32",
                    "name": "role",
                    "type": "bytes32"
                }
            ],
            "name": "getRoleAdmin",
            "outputs": [
                {
                    "internalType": "bytes32",
                    "name": "",
                    "type": "bytes32"
                }
            ],
            "stateMutability": "view",
            "type": "function"
        },
        {
            "inputs": [
                {
                    "internalType": "bytes32",
                    "name": "role",
                    "type": "bytes32"
                },
                {
                    "internalType": "address",
                    "name": "account",
                    "type": "address"
                }
            ],
            "name": "grantRole",
            "outputs": [],
            "stateMutability": "nonpayable",
            "type": "function"
        },
        {
            "inputs": [
                {
                    "internalType": "bytes32",
                    "name": "role",
                    "type": "bytes32"
                },
                {
                    "internalType": "address",
                    "name": "account",
                    "type": "address"
                }
            ],
            "name": "grantRoleNonAdmin",
            "outputs": [],
            "stateMutability": "nonpayable",
            "type": "function"
        },
        {
            "inputs": [
                {
                    "internalType": "bytes32",
                    "name": "role",
                    "type": "bytes32"
                },
                {
                    "internalType": "address",
                    "name": "account",
                    "type": "address"
                }
            ],
            "name": "hasRole",
            "outputs": [
                {
                    "internalType": "bool",
                    "name": "",
                    "type": "bool"
                }
            ],
            "stateMutability": "view",
            "type": "function"
        },
        {
            "inputs": [],
            "name": "initialize",
            "outputs": [],
            "stateMutability": "nonpayable",
            "type": "function"
        },
        {
            "inputs": [
                {
                    "internalType": "bytes32",
                    "name": "role",
                    "type": "bytes32"
                },
                {
                    "internalType": "address",
                    "name": "account",
                    "type": "address"
                }
            ],
            "name": "renounceRole",
            "outputs": [],
            "stateMutability": "nonpayable",
            "type": "function"
        },
        {
            "inputs": [
                {
                    "internalType": "bytes32",
                    "name": "role",
                    "type": "bytes32"
                },
                {
                    "internalType": "address",
                    "name": "account",
                    "type": "address"
                }
            ],
            "name": "revokeRole",
            "outputs": [],
            "stateMutability": "nonpayable",
            "type": "function"
        },
        {
            "inputs": [
                {
                    "internalType": "bytes4",
                    "name": "interfaceId",
                    "type": "bytes4"
                }
            ],
            "name": "supportsInterface",
            "outputs": [
                {
                    "internalType": "bool",
                    "name": "",
                    "type": "bool"
                }
            ],
            "stateMutability": "view",
            "type": "function"
        }
    ],
    "bytecode": "608060405234801561001057600080fd5b50611315806100206000396000f3fe6080604052600436106100c25760003560e01c80636515e2571161007f578063a217fddf11610059578063a217fddf1461021a578063bb02ebf91461022f578063be2a41671461024f578063d547741f1461026257600080fd5b80636515e257146101b15780638129fc1c146101e557806391d14854146101fa57600080fd5b806301ffc9a7146100c75780631e9767d1146100fc578063248a9ca31461011c57806327ffd16f1461015a5780632f2ff15d1461016f57806336568abe14610191575b600080fd5b3480156100d357600080fd5b506100e76100e23660046110ed565b610282565b60405190151581526020015b60405180910390f35b34801561010857600080fd5b506100e7610117366004610f4b565b6102b9565b34801561012857600080fd5b5061014c6101373660046110a8565b60009081526065602052604090206001015490565b6040519081526020016100f3565b34801561016657600080fd5b5061014c606481565b34801561017b57600080fd5b5061018f61018a3660046110c1565b610493565b005b34801561019d57600080fd5b5061018f6101ac3660046110c1565b6104be565b3480156101bd57600080fd5b5061014c7fd5a6101e940ba33e226d2395b16238ab3063d7ee83d7b3ff59cb92988b39543781565b3480156101f157600080fd5b5061018f610541565b34801561020657600080fd5b506100e76102153660046110c1565b6105ff565b34801561022657600080fd5b5061014c600081565b34801561023b57600080fd5b5061018f61024a3660046110c1565b61062a565b6100e761025d366004610ff0565b6106ab565b34801561026e57600080fd5b5061018f61027d3660046110c1565b610779565b60006001600160e01b03198216637965db0b60e01b14806102b357506301ffc9a760e01b6001600160e01b03198316145b92915050565b60006102e57fd5a6101e940ba33e226d2395b16238ab3063d7ee83d7b3ff59cb92988b395437336105ff565b610302576040516388a38fa160e01b815260040160405180910390fd5b6040516370a0823160e01b81523060048201526000906001600160a01b038916906370a082319060240160206040518083038186803b15801561034457600080fd5b505afa158015610358573d6000803e3d6000fd5b505050506040513d601f19601f8201168201806040525081019061037c9190611117565b90506103936001600160a01b03891687600061079f565b6103a76001600160a01b038916878361079f565b60648460ff1614156103d85784836040516020016103c692919061114c565b60405160208183030381529060405294505b6103e68660008751886108f6565b6040516370a0823160e01b81523060048201529092506001600160a01b038916906370a082319060240160206040518083038186803b15801561042857600080fd5b505afa15801561043c573d6000803e3d6000fd5b505050506040513d601f19601f820116820180604052508101906104609190611117565b905081158061046f5750600081115b15610488576104886001600160a01b0389168883610919565b509695505050505050565b6000828152606560205260409020600101546104af8133610949565b6104b983836109ad565b505050565b6001600160a01b03811633146105335760405162461bcd60e51b815260206004820152602f60248201527f416363657373436f6e74726f6c3a2063616e206f6e6c792072656e6f756e636560448201526e103937b632b9903337b91039b2b63360891b60648201526084015b60405180910390fd5b61053d8282610a33565b5050565b600054610100900460ff168061055a575060005460ff16155b6105bd5760405162461bcd60e51b815260206004820152602e60248201527f496e697469616c697a61626c653a20636f6e747261637420697320616c72656160448201526d191e481a5b9a5d1a585b1a5e995960921b606482015260840161052a565b600054610100900460ff161580156105df576000805461ffff19166101011790555b6105ea600033610a9a565b80156105fc576000805461ff00191690555b50565b60009182526065602090815260408084206001600160a01b0393909316845291905290205460ff1690565b818161064e6106488360009081526065602052604090206001015490565b826105ff565b1561069b5760405162461bcd60e51b815260206004820152601860248201527f43616e6e6f74207365742061646d696e20616464726573730000000000000000604482015260640161052a565b6106a58484610493565b50505050565b60006106d77fd5a6101e940ba33e226d2395b16238ab3063d7ee83d7b3ff59cb92988b395437336105ff565b6106f4576040516388a38fa160e01b815260040160405180910390fd5b60648360ff16141561072557838260405160200161071392919061114c565b60405160208183030381529060405293505b61073285348651876108f6565b905080610770576040516001600160a01b038716903480156108fc02916000818181858888f1935050505015801561076e573d6000803e3d6000fd5b505b95945050505050565b6000828152606560205260409020600101546107958133610949565b6104b98383610a33565b8015806108285750604051636eb1769f60e11b81523060048201526001600160a01b03838116602483015284169063dd62ed3e9060440160206040518083038186803b1580156107ee57600080fd5b505afa158015610802573d6000803e3d6000fd5b505050506040513d601f19601f820116820180604052508101906108269190611117565b155b6108935760405162461bcd60e51b815260206004820152603660248201527f5361666545524332303a20617070726f76652066726f6d206e6f6e2d7a65726f60448201527520746f206e6f6e2d7a65726f20616c6c6f77616e636560501b606482015260840161052a565b6040516001600160a01b0383166024820152604481018290526104b990849063095ea7b360e01b906064015b60408051601f198184030181529190526020810180516001600160e01b03166001600160e01b031990931692909217909152610aa4565b6000806040516020840160008287838a8c6187965a03f198975050505050505050565b6040516001600160a01b0383166024820152604481018290526104b990849063a9059cbb60e01b906064016108bf565b61095382826105ff565b61053d5761096b816001600160a01b03166014610b76565b610976836020610b76565b60405160200161098792919061117b565b60408051601f198184030181529082905262461bcd60e51b825261052a916004016111f0565b6109b782826105ff565b61053d5760008281526065602090815260408083206001600160a01b03851684529091529020805460ff191660011790556109ef3390565b6001600160a01b0316816001600160a01b0316837f2f8788117e7eff1d82e926ec794901d17c78024a50270940304540a733656f0d60405160405180910390a45050565b610a3d82826105ff565b1561053d5760008281526065602090815260408083206001600160a01b0385168085529252808320805460ff1916905551339285917ff6391f5c32d9c69d2a47ea670b442974b53935d1edc7fd64eb21e047a839171b9190a45050565b61053d82826109ad565b6000610af9826040518060400160405280602081526020017f5361666545524332303a206c6f772d6c6576656c2063616c6c206661696c6564815250856001600160a01b0316610d199092919063ffffffff16565b8051909150156104b95780806020019051810190610b179190611086565b6104b95760405162461bcd60e51b815260206004820152602a60248201527f5361666545524332303a204552433230206f7065726174696f6e20646964206e6044820152691bdd081cdd58d8d9595960b21b606482015260840161052a565b60606000610b8583600261123b565b610b90906002611223565b67ffffffffffffffff811115610ba857610ba86112c9565b6040519080825280601f01601f191660200182016040528015610bd2576020820181803683370190505b509050600360fc1b81600081518110610bed57610bed6112b3565b60200101906001600160f81b031916908160001a905350600f60fb1b81600181518110610c1c57610c1c6112b3565b60200101906001600160f81b031916908160001a9053506000610c4084600261123b565b610c4b906001611223565b90505b6001811115610cc3576f181899199a1a9b1b9c1cb0b131b232b360811b85600f1660108110610c7f57610c7f6112b3565b1a60f81b828281518110610c9557610c956112b3565b60200101906001600160f81b031916908160001a90535060049490941c93610cbc81611286565b9050610c4e565b508315610d125760405162461bcd60e51b815260206004820181905260248201527f537472696e67733a20686578206c656e67746820696e73756666696369656e74604482015260640161052a565b9392505050565b6060610d288484600085610d30565b949350505050565b606082471015610d915760405162461bcd60e51b815260206004820152602660248201527f416464726573733a20696e73756666696369656e742062616c616e636520666f6044820152651c8818d85b1b60d21b606482015260840161052a565b843b610ddf5760405162461bcd60e51b815260206004820152601d60248201527f416464726573733a2063616c6c20746f206e6f6e2d636f6e7472616374000000604482015260640161052a565b600080866001600160a01b03168587604051610dfb9190611130565b60006040518083038185875af1925050503d8060008114610e38576040519150601f19603f3d011682016040523d82523d6000602084013e610e3d565b606091505b5091509150610e4d828286610e58565b979650505050505050565b60608315610e67575081610d12565b825115610e775782518084602001fd5b8160405162461bcd60e51b815260040161052a91906111f0565b80356001600160a01b0381168114610ea857600080fd5b919050565b600082601f830112610ebe57600080fd5b813567ffffffffffffffff80821115610ed957610ed96112c9565b604051601f8301601f19908116603f01168101908282118183101715610f0157610f016112c9565b81604052838152866020858801011115610f1a57600080fd5b836020870160208301376000602085830101528094505050505092915050565b803560ff81168114610ea857600080fd5b60008060008060008060c08789031215610f6457600080fd5b610f6d87610e91565b9550610f7b60208801610e91565b9450610f8960408801610e91565b9350606087013567ffffffffffffffff80821115610fa657600080fd5b610fb28a838b01610ead565b9450610fc060808a01610f3a565b935060a0890135915080821115610fd657600080fd5b50610fe389828a01610ead565b9150509295509295509295565b600080600080600060a0868803121561100857600080fd5b61101186610e91565b945061101f60208701610e91565b9350604086013567ffffffffffffffff8082111561103c57600080fd5b61104889838a01610ead565b945061105660608901610f3a565b9350608088013591508082111561106c57600080fd5b5061107988828901610ead565b9150509295509295909350565b60006020828403121561109857600080fd5b81518015158114610d1257600080fd5b6000602082840312156110ba57600080fd5b5035919050565b600080604083850312156110d457600080fd5b823591506110e460208401610e91565b90509250929050565b6000602082840312156110ff57600080fd5b81356001600160e01b031981168114610d1257600080fd5b60006020828403121561112957600080fd5b5051919050565b6000825161114281846020870161125a565b9190910192915050565b6000835161115e81846020880161125a565b83519083019061117281836020880161125a565b01949350505050565b7f416363657373436f6e74726f6c3a206163636f756e74200000000000000000008152600083516111b381601785016020880161125a565b7001034b99036b4b9b9b4b733903937b6329607d1b60179184019182015283516111e481602884016020880161125a565b01602801949350505050565b602081526000825180602084015261120f81604085016020870161125a565b601f01601f19169190910160400192915050565b600082198211156112365761123661129d565b500190565b60008160001904831182151516156112555761125561129d565b500290565b60005b8381101561127557818101518382015260200161125d565b838111156106a55750506000910152565b6000816112955761129561129d565b506000190190565b634e487b7160e01b600052601160045260246000fd5b634e487b7160e01b600052603260045260246000fd5b634e487b7160e01b600052604160045260246000fdfea2646970667358221220d9fef9b494a24f524edaa394f0de726a78182d74acc95f9b6447d0f56f3fba4864736f6c63430008070033",
    "sourcePath": "/Users/pk/repo/oxorio/debridge-contracts-v1/contracts/periphery/CallProxy.sol",
    "compiler": {
        "name": "solc",
        "version": "0.8.7+commit.e28d00a7"
    },
    "functionHashes": {
        "DEBRIDGE_GATE_ROLE()": "6515e257",
        "DEFAULT_ADMIN_ROLE()": "a217fddf",
        "PROXY_WITH_SENDER_FLAG()": "27ffd16f",
        "call(address,address,bytes,uint8,bytes)": "be2a4167",
        "callERC20(address,address,address,bytes,uint8,bytes)": "1e9767d1",
        "getRoleAdmin(bytes32)": "248a9ca3",
        "grantRole(bytes32,address)": "2f2ff15d",
        "grantRoleNonAdmin(bytes32,address)": "bb02ebf9",
        "hasRole(bytes32,address)": "91d14854",
        "initialize()": "8129fc1c",
        "renounceRole(bytes32,address)": "36568abe",
        "revokeRole(bytes32,address)": "d547741f",
        "supportsInterface(bytes4)": "01ffc9a7"
    },
    "gasEstimates": {
        "creation": {
            "codeDepositCost": "977000",
            "executionCost": "1014",
            "totalCost": "978014"
        },
        "external": {
            "DEBRIDGE_GATE_ROLE()": "218",
            "DEFAULT_ADMIN_ROLE()": "217",
            "PROXY_WITH_SENDER_FLAG()": "262",
            "call(address,address,bytes,uint8,bytes)": "infinite",
            "callERC20(address,address,address,bytes,uint8,bytes)": "infinite",
            "getRoleAdmin(bytes32)": "2489",
            "grantRole(bytes32,address)": "infinite",
            "grantRoleNonAdmin(bytes32,address)": "infinite",
            "hasRole(bytes32,address)": "2721",
            "initialize()": "83786",
            "renounceRole(bytes32,address)": "29112",
            "revokeRole(bytes32,address)": "infinite",
            "supportsInterface(bytes4)": "427"
        },
        "internal": {
            "externalCall(address,uint256,uint256,bytes memory)": "infinite"
        }
    }
}