{
    "contractName": "DefiController",
    "abi": [
        {
            "inputs": [],
            "name": "AdminAddressDenied",
            "type": "error"
        },
        {
            "inputs": [],
            "name": "AdminBadRole",
            "type": "error"
        },
        {
            "inputs": [],
            "name": "ExceedMaxStrategyReserves",
            "type": "error"
        },
        {
            "inputs": [],
            "name": "InvalidMaxReservesBps",
            "type": "error"
        },
        {
            "inputs": [],
            "name": "InvalidTotalMaxReservesBps",
            "type": "error"
        },
        {
            "inputs": [],
            "name": "StrategyAlreadyExists",
            "type": "error"
        },
        {
            "inputs": [],
            "name": "StrategyNotFound",
            "type": "error"
        },
        {
            "inputs": [],
            "name": "WorkerBadRole",
            "type": "error"
        },
        {
            "anonymous": false,
            "inputs": [
                {
                    "indexed": false,
                    "internalType": "address",
                    "name": "strategy",
                    "type": "address"
                },
                {
                    "indexed": false,
                    "internalType": "bool",
                    "name": "isEnabled",
                    "type": "bool"
                },
                {
                    "indexed": false,
                    "internalType": "uint16",
                    "name": "maxReservesBps",
                    "type": "uint16"
                },
                {
                    "indexed": false,
                    "internalType": "address",
                    "name": "stakeToken",
                    "type": "address"
                },
                {
                    "indexed": false,
                    "internalType": "address",
                    "name": "strategyToken",
                    "type": "address"
                }
            ],
            "name": "AddStrategy",
            "type": "event"
        },
        {
            "anonymous": false,
            "inputs": [
                {
                    "indexed": true,
                    "internalType": "address",
                    "name": "strategy",
                    "type": "address"
                },
                {
                    "indexed": true,
                    "internalType": "uint256",
                    "name": "amount",
                    "type": "uint256"
                }
            ],
            "name": "DepositToStrategy",
            "type": "event"
        },
        {
            "anonymous": false,
            "inputs": [
                {
                    "indexed": false,
                    "internalType": "address",
                    "name": "account",
                    "type": "address"
                }
            ],
            "name": "Paused",
            "type": "event"
        },
        {
            "anonymous": false,
            "inputs": [
                {
                    "indexed": true,
                    "internalType": "bytes32",
                    "name": "role",
                    "type": "bytes32"
                },
                {
                    "indexed": true,
                    "internalType": "bytes32",
                    "name": "previousAdminRole",
                    "type": "bytes32"
                },
                {
                    "indexed": true,
                    "internalType": "bytes32",
                    "name": "newAdminRole",
                    "type": "bytes32"
                }
            ],
            "name": "RoleAdminChanged",
            "type": "event"
        },
        {
            "anonymous": false,
            "inputs": [
                {
                    "indexed": true,
                    "internalType": "bytes32",
                    "name": "role",
                    "type": "bytes32"
                },
                {
                    "indexed": true,
                    "internalType": "address",
                    "name": "account",
                    "type": "address"
                },
                {
                    "indexed": true,
                    "internalType": "address",
                    "name": "sender",
                    "type": "address"
                }
            ],
            "name": "RoleGranted",
            "type": "event"
        },
        {
            "anonymous": false,
            "inputs": [
                {
                    "indexed": true,
                    "internalType": "bytes32",
                    "name": "role",
                    "type": "bytes32"
                },
                {
                    "indexed": true,
                    "internalType": "address",
                    "name": "account",
                    "type": "address"
                },
                {
                    "indexed": true,
                    "internalType": "address",
                    "name": "sender",
                    "type": "address"
                }
            ],
            "name": "RoleRevoked",
            "type": "event"
        },
        {
            "anonymous": false,
            "inputs": [
                {
                    "indexed": false,
                    "internalType": "address",
                    "name": "account",
                    "type": "address"
                }
            ],
            "name": "Unpaused",
            "type": "event"
        },
        {
            "anonymous": false,
            "inputs": [
                {
                    "indexed": true,
                    "internalType": "address",
                    "name": "strategy",
                    "type": "address"
                },
                {
                    "indexed": false,
                    "internalType": "bool",
                    "name": "isEnabled",
                    "type": "bool"
                },
                {
                    "indexed": false,
                    "internalType": "uint16",
                    "name": "maxReservesBps",
                    "type": "uint16"
                }
            ],
            "name": "UpdateStrategy",
            "type": "event"
        },
        {
            "anonymous": false,
            "inputs": [
                {
                    "indexed": true,
                    "internalType": "address",
                    "name": "strategy",
                    "type": "address"
                },
                {
                    "indexed": true,
                    "internalType": "uint256",
                    "name": "amount",
                    "type": "uint256"
                }
            ],
            "name": "WithdrawFromStrategy",
            "type": "event"
        },
        {
            "inputs": [],
            "name": "BPS_DENOMINATOR",
            "outputs": [
                {
                    "internalType": "uint256",
                    "name": "",
                    "type": "uint256"
                }
            ],
            "stateMutability": "view",
            "type": "function"
        },
        {
            "inputs": [],
            "name": "DEFAULT_ADMIN_ROLE",
            "outputs": [
                {
                    "internalType": "bytes32",
                    "name": "",
                    "type": "bytes32"
                }
            ],
            "stateMutability": "view",
            "type": "function"
        },
        {
            "inputs": [],
            "name": "STRATEGY_RESERVES_DELTA_BPS",
            "outputs": [
                {
                    "internalType": "uint256",
                    "name": "",
                    "type": "uint256"
                }
            ],
            "stateMutability": "view",
            "type": "function"
        },
        {
            "inputs": [],
            "name": "WORKER_ROLE",
            "outputs": [
                {
                    "internalType": "bytes32",
                    "name": "",
                    "type": "bytes32"
                }
            ],
            "stateMutability": "view",
            "type": "function"
        },
        {
            "inputs": [
                {
                    "internalType": "address",
                    "name": "_strategy",
                    "type": "address"
                },
                {
                    "internalType": "bool",
                    "name": "_isEnabled",
                    "type": "bool"
                },
                {
                    "internalType": "uint16",
                    "name": "_maxReservesBps",
                    "type": "uint16"
                },
                {
                    "internalType": "address",
                    "name": "_stakeToken",
                    "type": "address"
                },
                {
                    "internalType": "address",
                    "name": "_strategyToken",
                    "type": "address"
                }
            ],
            "name": "addStrategy",
            "outputs": [],
            "stateMutability": "nonpayable",
            "type": "function"
        },
        {
            "inputs": [
                {
                    "internalType": "address",
                    "name": "_worker",
                    "type": "address"
                }
            ],
            "name": "addWorker",
            "outputs": [],
            "stateMutability": "nonpayable",
            "type": "function"
        },
        {
            "inputs": [],
            "name": "deBridgeGate",
            "outputs": [
                {
                    "internalType": "contract IDeBridgeGate",
                    "name": "",
                    "type": "address"
                }
            ],
            "stateMutability": "view",
            "type": "function"
        },
        {
            "inputs": [
                {
                    "internalType": "bytes32",
                    "name": "role",
                    "type": "bytes32"
                }
            ],
            "name": "getRoleAdmin",
            "outputs": [
                {
                    "internalType": "bytes32",
                    "name": "",
                    "type": "bytes32"
                }
            ],
            "stateMutability": "view",
            "type": "function"
        },
        {
            "inputs": [
                {
                    "internalType": "bytes32",
                    "name": "role",
                    "type": "bytes32"
                },
                {
                    "internalType": "address",
                    "name": "account",
                    "type": "address"
                }
            ],
            "name": "grantRole",
            "outputs": [],
            "stateMutability": "nonpayable",
            "type": "function"
        },
        {
            "inputs": [
                {
                    "internalType": "bytes32",
                    "name": "role",
                    "type": "bytes32"
                },
                {
                    "internalType": "address",
                    "name": "account",
                    "type": "address"
                }
            ],
            "name": "grantRoleNonAdmin",
            "outputs": [],
            "stateMutability": "nonpayable",
            "type": "function"
        },
        {
            "inputs": [
                {
                    "internalType": "bytes32",
                    "name": "role",
                    "type": "bytes32"
                },
                {
                    "internalType": "address",
                    "name": "account",
                    "type": "address"
                }
            ],
            "name": "hasRole",
            "outputs": [
                {
                    "internalType": "bool",
                    "name": "",
                    "type": "bool"
                }
            ],
            "stateMutability": "view",
            "type": "function"
        },
        {
            "inputs": [],
            "name": "initialize",
            "outputs": [],
            "stateMutability": "nonpayable",
            "type": "function"
        },
        {
            "inputs": [
                {
                    "internalType": "address",
                    "name": "_strategy",
                    "type": "address"
                }
            ],
            "name": "isStrategyUnbalanced",
            "outputs": [
                {
                    "internalType": "uint256",
                    "name": "_deltaAmount",
                    "type": "uint256"
                },
                {
                    "internalType": "bool",
                    "name": "_toDeposit",
                    "type": "bool"
                }
            ],
            "stateMutability": "view",
            "type": "function"
        },
        {
            "inputs": [],
            "name": "pause",
            "outputs": [],
            "stateMutability": "nonpayable",
            "type": "function"
        },
        {
            "inputs": [],
            "name": "paused",
            "outputs": [
                {
                    "internalType": "bool",
                    "name": "",
                    "type": "bool"
                }
            ],
            "stateMutability": "view",
            "type": "function"
        },
        {
            "inputs": [
                {
                    "internalType": "address",
                    "name": "_strategy",
                    "type": "address"
                }
            ],
            "name": "rebalanceStrategy",
            "outputs": [],
            "stateMutability": "nonpayable",
            "type": "function"
        },
        {
            "inputs": [
                {
                    "internalType": "address",
                    "name": "_worker",
                    "type": "address"
                }
            ],
            "name": "removeWorker",
            "outputs": [],
            "stateMutability": "nonpayable",
            "type": "function"
        },
        {
            "inputs": [
                {
                    "internalType": "bytes32",
                    "name": "role",
                    "type": "bytes32"
                },
                {
                    "internalType": "address",
                    "name": "account",
                    "type": "address"
                }
            ],
            "name": "renounceRole",
            "outputs": [],
            "stateMutability": "nonpayable",
            "type": "function"
        },
        {
            "inputs": [
                {
                    "internalType": "bytes32",
                    "name": "role",
                    "type": "bytes32"
                },
                {
                    "internalType": "address",
                    "name": "account",
                    "type": "address"
                }
            ],
            "name": "revokeRole",
            "outputs": [],
            "stateMutability": "nonpayable",
            "type": "function"
        },
        {
            "inputs": [
                {
                    "internalType": "contract IDeBridgeGate",
                    "name": "_deBridgeGate",
                    "type": "address"
                }
            ],
            "name": "setDeBridgeGate",
            "outputs": [],
            "stateMutability": "nonpayable",
            "type": "function"
        },
        {
            "inputs": [
                {
                    "internalType": "address",
                    "name": "",
                    "type": "address"
                }
            ],
            "name": "strategies",
            "outputs": [
                {
                    "internalType": "bool",
                    "name": "exists",
                    "type": "bool"
                },
                {
                    "internalType": "bool",
                    "name": "isEnabled",
                    "type": "bool"
                },
                {
                    "internalType": "uint16",
                    "name": "maxReservesBps",
                    "type": "uint16"
                },
                {
                    "internalType": "address",
                    "name": "stakeToken",
                    "type": "address"
                },
                {
                    "internalType": "address",
                    "name": "strategyToken",
                    "type": "address"
                }
            ],
            "stateMutability": "view",
            "type": "function"
        },
        {
            "inputs": [
                {
                    "internalType": "bytes4",
                    "name": "interfaceId",
                    "type": "bytes4"
                }
            ],
            "name": "supportsInterface",
            "outputs": [
                {
                    "internalType": "bool",
                    "name": "",
                    "type": "bool"
                }
            ],
            "stateMutability": "view",
            "type": "function"
        },
        {
            "inputs": [
                {
                    "internalType": "address",
                    "name": "",
                    "type": "address"
                }
            ],
            "name": "tokenTotalReservesBps",
            "outputs": [
                {
                    "internalType": "uint256",
                    "name": "",
                    "type": "uint256"
                }
            ],
            "stateMutability": "view",
            "type": "function"
        },
        {
            "inputs": [],
            "name": "unpause",
            "outputs": [],
            "stateMutability": "nonpayable",
            "type": "function"
        },
        {
            "inputs": [
                {
                    "internalType": "address",
                    "name": "_strategy",
                    "type": "address"
                },
                {
                    "internalType": "bool",
                    "name": "_isEnabled",
                    "type": "bool"
                },
                {
                    "internalType": "uint16",
                    "name": "_maxReservesBps",
                    "type": "uint16"
                }
            ],
            "name": "updateStrategy",
            "outputs": [],
            "stateMutability": "nonpayable",
            "type": "function"
        }
    ],
    "bytecode": "608060405234801561001057600080fd5b50611eef806100206000396000f3fe608060405234801561001057600080fd5b50600436106101735760003560e01c80638129fc1c116100de578063c4f987a511610097578063cbd6acf511610071578063cbd6acf5146103a2578063d547741f146103b5578063e1a45218146103c8578063f0ff6c90146103d157600080fd5b8063c4f987a514610351578063c912517d14610364578063ca777fbf1461037757600080fd5b80638129fc1c146103005780638456cb5914610308578063887a95971461031057806391d1485414610323578063a217fddf14610336578063bb02ebf91461033e57600080fd5b80633f4ba83a116101305780633f4ba83a146102aa5780635c975abb146102b25780635dcdfb79146102bd578063634252dc146102d0578063759158e2146102e5578063806ad57e146102ed57600080fd5b806301ffc9a714610178578063147382ab146101a0578063248a9ca3146101ce5780632f2ff15d146101f157806336568abe1461020657806339ebf82314610219575b600080fd5b61018b610186366004611c50565b6103f9565b60405190151581526020015b60405180910390f35b6101c06101ae366004611b17565b60ca6020526000908152604090205481565b604051908152602001610197565b6101c06101dc366004611c07565b60009081526065602052604090206001015490565b6102046101ff366004611c20565b610430565b005b610204610214366004611c20565b61045b565b61026e610227366004611b17565b60c9602052600090815260409020805460019091015460ff8083169261010081049091169161ffff62010000830416916001600160a01b03600160201b9091048116911685565b604080519515158652931515602086015261ffff909216928401929092526001600160a01b03918216606084015216608082015260a001610197565b6102046104de565b60975460ff1661018b565b6102046102cb366004611b7b565b610559565b6101c0600080516020611e9a83398151915281565b6101c060c881565b6102046102fb366004611b17565b610753565b610204610796565b610204610853565b61020461031e366004611b17565b6108a6565b61018b610331366004611c20565b61092f565b6101c0600081565b61020461034c366004611c20565b61095a565b61020461035f366004611b17565b6109db565b610204610372366004611b34565b610a1b565b60cb5461038a906001600160a01b031681565b6040516001600160a01b039091168152602001610197565b6102046103b0366004611b17565b610bdb565b6102046103c3366004611c20565b610c25565b6101c061271081565b6103e46103df366004611b17565b610c4b565b60408051928352901515602083015201610197565b60006001600160e01b03198216637965db0b60e01b148061042a57506301ffc9a760e01b6001600160e01b03198316145b92915050565b60008281526065602052604090206001015461044c8133610ef4565b6104568383610f58565b505050565b6001600160a01b03811633146104d05760405162461bcd60e51b815260206004820152602f60248201527f416363657373436f6e74726f6c3a2063616e206f6e6c792072656e6f756e636560448201526e103937b632b9903337b91039b2b63360891b60648201526084015b60405180910390fd5b6104da8282610fde565b5050565b6104e960003361092f565b61050657604051636f4720fd60e11b815260040160405180910390fd5b60975460ff1661054f5760405162461bcd60e51b815260206004820152601460248201527314185d5cd8589b194e881b9bdd081c185d5cd95960621b60448201526064016104c7565b610557611045565b565b61056460003361092f565b61058157604051636f4720fd60e11b815260040160405180910390fd5b61ffff8316158015906105a8575060c88361ffff161115806105a857508261ffff16612710105b156105c65760405163667baad960e11b815260040160405180910390fd5b6001600160a01b038516600090815260c960205260409020805460ff16156106015760405163c45546f760e01b815260040160405180910390fd5b8415610684576001600160a01b038316600090815260ca6020526040902054612710906106339061ffff871690611d81565b1115610652576040516350c648b560e11b815260040160405180910390fd5b6001600160a01b038316600090815260ca60205260408120805461ffff8716929061067e908490611d81565b90915550505b8054600161ffff1990911661010087151590810291909117821762010000600160c01b0319166201000061ffff8816908102640100000000600160c01b03191691909117600160201b6001600160a01b0388811691820292909217865593850180546001600160a01b03191687831690811790915560408051928c168352602083019490945292810191909152606081019290925260808201527fdae998c67c2071ea72cfd8fbe41472b91986319160019c3720dfccf50eb1b69a9060a00160405180910390a1505050505050565b61075e60003361092f565b61077b57604051636f4720fd60e11b815260040160405180910390fd5b610793600080516020611e9a83398151915282610430565b50565b600054610100900460ff16806107af575060005460ff16155b6108125760405162461bcd60e51b815260206004820152602e60248201527f496e697469616c697a61626c653a20636f6e747261637420697320616c72656160448201526d191e481a5b9a5d1a585b1a5e995960921b60648201526084016104c7565b600054610100900460ff16158015610834576000805461ffff19166101011790555b61083f6000336110d8565b8015610793576000805461ff001916905550565b61085e60003361092f565b61087b57604051636f4720fd60e11b815260040160405180910390fd5b60975460ff161561089e5760405162461bcd60e51b81526004016104c790611d57565b6105576110e2565b6108be600080516020611e9a8339815191523361092f565b6108db5760405163578ac93b60e11b815260040160405180910390fd5b60975460ff16156108fe5760405162461bcd60e51b81526004016104c790611d57565b60008061090a83610c4b565b9092509050811561045657801561092557610456828461113a565b610456828461143c565b60009182526065602090815260408084206001600160a01b0393909316845291905290205460ff1690565b818161097e6109788360009081526065602052604090206001015490565b8261092f565b156109cb5760405162461bcd60e51b815260206004820152601860248201527f43616e6e6f74207365742061646d696e2061646472657373000000000000000060448201526064016104c7565b6109d58484610430565b50505050565b6109e660003361092f565b610a0357604051636f4720fd60e11b815260040160405180910390fd5b610793600080516020611e9a83398151915282610c25565b610a2660003361092f565b610a4357604051636f4720fd60e11b815260040160405180910390fd5b6001600160a01b038316600090815260c960205260409020805460ff16610a7d57604051632df15a4160e11b815260040160405180910390fd5b8054610100900460ff1615610ace578054600160201b81046001600160a01b0316600090815260ca6020526040812080546201000090930461ffff1692909190610ac8908490611dda565b90915550505b8215610b61578054600160201b90046001600160a01b0316600090815260ca602052604090205461271090610b089061ffff851690611d81565b1115610b27576040516350c648b560e11b815260040160405180910390fd5b8054600160201b90046001600160a01b0316600090815260ca60205260408120805461ffff85169290610b5b908490611d81565b90915550505b805463ffffff00191661010084151590810263ffff00001916919091176201000061ffff85169081029190911783556040805192835260208301919091526001600160a01b038616917f43bd0b99e1b1cb872c9c7ea50f49d76cec0227961417001528fd686a4db2dbad910160405180910390a250505050565b610be660003361092f565b610c0357604051636f4720fd60e11b815260040160405180910390fd5b60cb80546001600160a01b0319166001600160a01b0392909216919091179055565b600082815260656020526040902060010154610c418133610ef4565b6104568383610fde565b6001600160a01b03808216600090815260c960209081526040808320815160a081018352815460ff8082161515808452610100830490911615159583019590955261ffff6201000082041693820193909352600160201b9092048516606083015260010154909316608084015290918291610cd957604051632df15a4160e11b815260040160405180910390fd5b60cb546060820151604051638ffcc54f60e01b81526001600160a01b03918216600482015286926000921690638ffcc54f9060240160206040518083038186803b158015610d2657600080fd5b505afa158015610d3a573d6000803e3d6000fd5b505050506040513d601f19601f82011682018060405250810190610d5e9190611c7a565b608084015160405163913fd1b560e01b81523060048201526001600160a01b0391821660248201529192506000919084169063913fd1b59060440160206040518083038186803b158015610db157600080fd5b505afa158015610dc5573d6000803e3d6000fd5b505050506040513d601f19601f82011682018060405250810190610de99190611c7a565b905083602001511580610dfa575081155b80610e0b5750604084015161ffff16155b15610e1d579660009650945050505050565b600082610e2c61271084611dbb565b610e369190611d99565b90506000610e46600260c8611d99565b866040015161ffff16610e599190611dda565b9050856040015161ffff16821115610e9d5761271084610e798385611dda565b610e839190611dbb565b610e8d9190611d99565b9960009950975050505050505050565b604086015161ffff16610eb160c884611d81565b1015610ee95761271084610ec58484611dda565b610ecf9190611dbb565b610ed99190611d99565b9960019950975050505050505050565b505050505050915091565b610efe828261092f565b6104da57610f16816001600160a01b031660146115e4565b610f218360206115e4565b604051602001610f32929190611caf565b60408051601f198184030181529082905262461bcd60e51b82526104c791600401611d24565b610f62828261092f565b6104da5760008281526065602090815260408083206001600160a01b03851684529091529020805460ff19166001179055610f9a3390565b6001600160a01b0316816001600160a01b0316837f2f8788117e7eff1d82e926ec794901d17c78024a50270940304540a733656f0d60405160405180910390a45050565b610fe8828261092f565b156104da5760008281526065602090815260408083206001600160a01b0385168085529252808320805460ff1916905551339285917ff6391f5c32d9c69d2a47ea670b442974b53935d1edc7fd64eb21e047a839171b9190a45050565b60975460ff1661108e5760405162461bcd60e51b815260206004820152601460248201527314185d5cd8589b194e881b9bdd081c185d5cd95960621b60448201526064016104c7565b6097805460ff191690557f5db9ee0a495bf2e6ff9c91a7834c1ba4fdd244a5e8aa4e537bd38aeae4b073aa335b6040516001600160a01b03909116815260200160405180910390a1565b6104da8282610f58565b60975460ff16156111055760405162461bcd60e51b81526004016104c790611d57565b6097805460ff191660011790557f62e78cea01bee320cd4e420270b5ea74000d11b0c9f74754ebdbfc544b05a2586110bb3390565b6001600160a01b03818116600090815260c960209081526040808320815160a081018352815460ff8082161515835261010082041615159482019490945262010000840461ffff1681840152600160201b9093048516606084018190526001909101548516608084015260cb549151638ffcc54f60e01b815260048101919091529193859392911690638ffcc54f9060240160206040518083038186803b1580156111e457600080fd5b505afa1580156111f8573d6000803e3d6000fd5b505050506040513d601f19601f8201168201806040525081019061121c9190611c7a565b90506000612710846040015161ffff16836112379190611dbb565b6112419190611d99565b608085015160405163913fd1b560e01b81523060048201526001600160a01b0391821660248201529192506000919085169063913fd1b59060440160206040518083038186803b15801561129457600080fd5b505afa1580156112a8573d6000803e3d6000fd5b505050506040513d601f19601f820116820180604052508101906112cc9190611c7a565b9050816112d98883611d81565b11156112f857604051630f0620b160e11b815260040160405180910390fd5b60cb546060860151604051632f9fc86160e21b81526001600160a01b039182166004820152602481018a905291169063be7f218490604401600060405180830381600087803b15801561134a57600080fd5b505af115801561135e573d6000803e3d6000fd5b505050606086015161137c91506001600160a01b0316856000611787565b6060850151611395906001600160a01b03168589611787565b60608501516040516311f9fbc960e21b81526001600160a01b03918216600482015260248101899052908516906347e7ef2490604401600060405180830381600087803b1580156113e557600080fd5b505af11580156113f9573d6000803e3d6000fd5b50506040518992506001600160a01b03891691507f8125d05f0839eec6c1f6b1674833e01f11ab362bd9c60eb2e3b274fa3b47e4f490600090a350505050505050565b6001600160a01b03818116600081815260c96020908152604091829020825160a081018452815460ff8082161515835261010082041615159382019390935262010000830461ffff1681850152600160201b909204851660608301526001015490931660808401819052905163f3fef3a360e01b815260048101919091526024810185905283919063f3fef3a390604401600060405180830381600087803b1580156114e757600080fd5b505af11580156114fb573d6000803e3d6000fd5b505060cb54606085015161151f93506001600160a01b039081169250166000611787565b60cb54606083015161153e916001600160a01b03918216911686611787565b60cb546060830151604051636b063d6560e01b81526001600160a01b03918216600482015260248101879052911690636b063d6590604401600060405180830381600087803b15801561159057600080fd5b505af11580156115a4573d6000803e3d6000fd5b50506040518692506001600160a01b03861691507fb28e99afed98b3607aeea074f84c346dc4135d86f35b1c28bc35ab6782e7ce3090600090a350505050565b606060006115f3836002611dbb565b6115fe906002611d81565b67ffffffffffffffff81111561161657611616611e60565b6040519080825280601f01601f191660200182016040528015611640576020820181803683370190505b509050600360fc1b8160008151811061165b5761165b611e4a565b60200101906001600160f81b031916908160001a905350600f60fb1b8160018151811061168a5761168a611e4a565b60200101906001600160f81b031916908160001a90535060006116ae846002611dbb565b6116b9906001611d81565b90505b6001811115611731576f181899199a1a9b1b9c1cb0b131b232b360811b85600f16601081106116ed576116ed611e4a565b1a60f81b82828151811061170357611703611e4a565b60200101906001600160f81b031916908160001a90535060049490941c9361172a81611e1d565b90506116bc565b5083156117805760405162461bcd60e51b815260206004820181905260248201527f537472696e67733a20686578206c656e67746820696e73756666696369656e7460448201526064016104c7565b9392505050565b8015806118105750604051636eb1769f60e11b81523060048201526001600160a01b03838116602483015284169063dd62ed3e9060440160206040518083038186803b1580156117d657600080fd5b505afa1580156117ea573d6000803e3d6000fd5b505050506040513d601f19601f8201168201806040525081019061180e9190611c7a565b155b61187b5760405162461bcd60e51b815260206004820152603660248201527f5361666545524332303a20617070726f76652066726f6d206e6f6e2d7a65726f60448201527520746f206e6f6e2d7a65726f20616c6c6f77616e636560501b60648201526084016104c7565b604080516001600160a01b03848116602483015260448083018590528351808403909101815260649092018352602080830180516001600160e01b031663095ea7b360e01b17905283518085019094528084527f5361666545524332303a206c6f772d6c6576656c2063616c6c206661696c6564908401526104569286929160009161190b918516908490611988565b80519091501561045657808060200190518101906119299190611bea565b6104565760405162461bcd60e51b815260206004820152602a60248201527f5361666545524332303a204552433230206f7065726174696f6e20646964206e6044820152691bdd081cdd58d8d9595960b21b60648201526084016104c7565b6060611997848460008561199f565b949350505050565b606082471015611a005760405162461bcd60e51b815260206004820152602660248201527f416464726573733a20696e73756666696369656e742062616c616e636520666f6044820152651c8818d85b1b60d21b60648201526084016104c7565b843b611a4e5760405162461bcd60e51b815260206004820152601d60248201527f416464726573733a2063616c6c20746f206e6f6e2d636f6e747261637400000060448201526064016104c7565b600080866001600160a01b03168587604051611a6a9190611c93565b60006040518083038185875af1925050503d8060008114611aa7576040519150601f19603f3d011682016040523d82523d6000602084013e611aac565b606091505b5091509150611abc828286611ac7565b979650505050505050565b60608315611ad6575081611780565b825115611ae65782518084602001fd5b8160405162461bcd60e51b81526004016104c79190611d24565b803561ffff81168114611b1257600080fd5b919050565b600060208284031215611b2957600080fd5b813561178081611e76565b600080600060608486031215611b4957600080fd5b8335611b5481611e76565b92506020840135611b6481611e8b565b9150611b7260408501611b00565b90509250925092565b600080600080600060a08688031215611b9357600080fd5b8535611b9e81611e76565b94506020860135611bae81611e8b565b9350611bbc60408701611b00565b92506060860135611bcc81611e76565b91506080860135611bdc81611e76565b809150509295509295909350565b600060208284031215611bfc57600080fd5b815161178081611e8b565b600060208284031215611c1957600080fd5b5035919050565b60008060408385031215611c3357600080fd5b823591506020830135611c4581611e76565b809150509250929050565b600060208284031215611c6257600080fd5b81356001600160e01b03198116811461178057600080fd5b600060208284031215611c8c57600080fd5b5051919050565b60008251611ca5818460208701611df1565b9190910192915050565b7f416363657373436f6e74726f6c3a206163636f756e7420000000000000000000815260008351611ce7816017850160208801611df1565b7001034b99036b4b9b9b4b733903937b6329607d1b6017918401918201528351611d18816028840160208801611df1565b01602801949350505050565b6020815260008251806020840152611d43816040850160208701611df1565b601f01601f19169190910160400192915050565b60208082526010908201526f14185d5cd8589b194e881c185d5cd95960821b604082015260600190565b60008219821115611d9457611d94611e34565b500190565b600082611db657634e487b7160e01b600052601260045260246000fd5b500490565b6000816000190483118215151615611dd557611dd5611e34565b500290565b600082821015611dec57611dec611e34565b500390565b60005b83811015611e0c578181015183820152602001611df4565b838111156109d55750506000910152565b600081611e2c57611e2c611e34565b506000190190565b634e487b7160e01b600052601160045260246000fd5b634e487b7160e01b600052603260045260246000fd5b634e487b7160e01b600052604160045260246000fd5b6001600160a01b038116811461079357600080fd5b801515811461079357600080fdfef1b411d6abb365480ac902cc153c45e9ded5847a2265ce6d01945d253edb6bc7a2646970667358221220dac483565f05e101be2f6f175244a7e8b117c614d22dd1c708e9f1995e7b9c0c64736f6c63430008070033",
    "sourcePath": "/Users/pk/repo/oxorio/debridge-contracts-v1/contracts/periphery/DefiController.sol",
    "compiler": {
        "name": "solc",
        "version": "0.8.7+commit.e28d00a7"
    },
    "functionHashes": {
        "BPS_DENOMINATOR()": "e1a45218",
        "DEFAULT_ADMIN_ROLE()": "a217fddf",
        "STRATEGY_RESERVES_DELTA_BPS()": "759158e2",
        "WORKER_ROLE()": "634252dc",
        "addStrategy(address,bool,uint16,address,address)": "5dcdfb79",
        "addWorker(address)": "806ad57e",
        "deBridgeGate()": "ca777fbf",
        "getRoleAdmin(bytes32)": "248a9ca3",
        "grantRole(bytes32,address)": "2f2ff15d",
        "grantRoleNonAdmin(bytes32,address)": "bb02ebf9",
        "hasRole(bytes32,address)": "91d14854",
        "initialize()": "8129fc1c",
        "isStrategyUnbalanced(address)": "f0ff6c90",
        "pause()": "8456cb59",
        "paused()": "5c975abb",
        "rebalanceStrategy(address)": "887a9597",
        "removeWorker(address)": "c4f987a5",
        "renounceRole(bytes32,address)": "36568abe",
        "revokeRole(bytes32,address)": "d547741f",
        "setDeBridgeGate(address)": "cbd6acf5",
        "strategies(address)": "39ebf823",
        "supportsInterface(bytes4)": "01ffc9a7",
        "tokenTotalReservesBps(address)": "147382ab",
        "unpause()": "3f4ba83a",
        "updateStrategy(address,bool,uint16)": "c912517d"
    },
    "gasEstimates": {
        "creation": {
            "codeDepositCost": "1583800",
            "executionCost": "1659",
            "totalCost": "1585459"
        },
        "external": {
            "BPS_DENOMINATOR()": "283",
            "DEFAULT_ADMIN_ROLE()": "306",
            "STRATEGY_RESERVES_DELTA_BPS()": "306",
            "WORKER_ROLE()": "infinite",
            "addStrategy(address,bool,uint16,address,address)": "infinite",
            "addWorker(address)": "infinite",
            "deBridgeGate()": "2426",
            "getRoleAdmin(bytes32)": "2512",
            "grantRole(bytes32,address)": "infinite",
            "grantRoleNonAdmin(bytes32,address)": "infinite",
            "hasRole(bytes32,address)": "2742",
            "initialize()": "83763",
            "isStrategyUnbalanced(address)": "infinite",
            "pause()": "32098",
            "paused()": "2338",
            "rebalanceStrategy(address)": "infinite",
            "removeWorker(address)": "infinite",
            "renounceRole(bytes32,address)": "29112",
            "revokeRole(bytes32,address)": "infinite",
            "setDeBridgeGate(address)": "26926",
            "strategies(address)": "4993",
            "supportsInterface(bytes4)": "450",
            "tokenTotalReservesBps(address)": "2559",
            "unpause()": "32050",
            "updateStrategy(address,bool,uint16)": "infinite"
        },
        "internal": {
            "depositToStrategy(uint256,address)": "infinite",
            "withdrawFromStrategy(uint256,address)": "infinite"
        }
    }
}