{
  "address": "0x50188692d5549386D102642036BaB916b998c814",
  "abi": [
    {
      "inputs": [
        {
          "internalType": "address[]",
          "name": "_tokens",
          "type": "address[]"
        },
        {
          "internalType": "address",
          "name": "_account",
          "type": "address"
        }
      ],
      "name": "balanceFor",
      "outputs": [
        {
          "internalType": "uint256[]",
          "name": "balances",
          "type": "uint256[]"
        },
        {
          "internalType": "uint256[]",
          "name": "decimals",
          "type": "uint256[]"
        }
      ],
      "stateMutability": "view",
      "type": "function"
    }
  ],
  "transactionHash": "0x030244f4f6417da825508a920bc957057fa03289d8fb7d1f402db437f61cbae3",
  "args": [],
  "solcInputHash": "d5a1539c745033ad7cb023a897b06ec5",
  "bytecode": "0x608060405234801561001057600080fd5b5061049f806100206000396000f3fe608060405234801561001057600080fd5b506004361061002b5760003560e01c8063b9aab90014610030575b600080fd5b61004361003e36600461028a565b61005a565b6040516100519291906103e6565b60405180910390f35b606080835167ffffffffffffffff81111561007757610077610453565b6040519080825280602002602001820160405280156100a0578160200160208202803683370190505b509150835167ffffffffffffffff8111156100bd576100bd610453565b6040519080825280602002602001820160405280156100e6578160200160208202803683370190505b50905060005b8451811015610266578481815181106101075761010761043d565b60209081029190910101516040516370a0823160e01b81526001600160a01b038681166004830152909116906370a082319060240160206040518083038186803b15801561015457600080fd5b505afa158015610168573d6000803e3d6000fd5b505050506040513d601f19601f8201168201806040525081019061018c9190610368565b83828151811061019e5761019e61043d565b6020026020010181815250508481815181106101bc576101bc61043d565b60200260200101516001600160a01b031663313ce5676040518163ffffffff1660e01b815260040160206040518083038186803b1580156101fc57600080fd5b505afa158015610210573d6000803e3d6000fd5b505050506040513d601f19601f820116820180604052508101906102349190610381565b60ff168282815181106102495761024961043d565b60209081029190910101528061025e81610414565b9150506100ec565b509250929050565b80356001600160a01b038116811461028557600080fd5b919050565b6000806040838503121561029d57600080fd5b823567ffffffffffffffff808211156102b557600080fd5b818501915085601f8301126102c957600080fd5b81356020828211156102dd576102dd610453565b8160051b604051601f19603f8301168101818110868211171561030257610302610453565b604052838152828101945085830182870184018b101561032157600080fd5b600096505b8487101561034b576103378161026e565b865260019690960195948301948301610326565b50965061035b905087820161026e565b9450505050509250929050565b60006020828403121561037a57600080fd5b5051919050565b60006020828403121561039357600080fd5b815160ff811681146103a457600080fd5b9392505050565b600081518084526020808501945080840160005b838110156103db578151875295820195908201906001016103bf565b509495945050505050565b6040815260006103f960408301856103ab565b828103602084015261040b81856103ab565b95945050505050565b600060001982141561043657634e487b7160e01b600052601160045260246000fd5b5060010190565b634e487b7160e01b600052603260045260246000fd5b634e487b7160e01b600052604160045260246000fdfea264697066735822122084db658dbd96eb04cd4ec4b3c2d2187cf9e4a86414d059d18bf7bf2e17ef477d64736f6c63430008070033",
  "devdoc": {
    "kind": "dev",
    "methods": {},
    "version": 1
  },
  "userdoc": {
    "kind": "user",
    "methods": {},
    "version": 1
  },
  "storageLayout": {
    "storage": [],
    "types": null
  }
}