{
  "address": "0x202eF28cA6D4d2B94C4Ea0534a8E6261581c70a4",
  "abi": [
    {
      "inputs": [
        {
          "internalType": "address[]",
          "name": "_tokens",
          "type": "address[]"
        },
        {
          "internalType": "address",
          "name": "_account",
          "type": "address"
        }
      ],
      "name": "balanceFor",
      "outputs": [
        {
          "internalType": "uint256[]",
          "name": "balances",
          "type": "uint256[]"
        },
        {
          "internalType": "uint256[]",
          "name": "decimals",
          "type": "uint256[]"
        }
      ],
      "stateMutability": "view",
      "type": "function"
    }
  ],
  "transactionHash": "0x3e0cd297169b2ea967db0c04689f1a08397f5b290c9df7fefd2a91c4a1e552af",
  "args": [],
  "solcInputHash": "f94a59f103ba8795e778bb1f2a0ddd36",
  "bytecode": "0x608060405234801561001057600080fd5b50610478806100206000396000f3fe608060405234801561001057600080fd5b506004361061002b5760003560e01c8063b9aab90014610030575b600080fd5b61004361003e366004610282565b61005a565b604051610051929190610394565b60405180910390f35b606080835167ffffffffffffffff81111561007757610077610250565b6040519080825280602002602001820160405280156100a0578160200160208202803683370190505b509150835167ffffffffffffffff8111156100bd576100bd610250565b6040519080825280602002602001820160405280156100e6578160200160208202803683370190505b50905060005b845181101561024857848181518110610107576101076103c2565b60209081029190910101516040516370a0823160e01b81526001600160a01b038681166004830152909116906370a0823190602401602060405180830381865afa158015610159573d6000803e3d6000fd5b505050506040513d601f19601f8201168201806040525081019061017d91906103d8565b83828151811061018f5761018f6103c2565b6020026020010181815250508481815181106101ad576101ad6103c2565b60200260200101516001600160a01b031663313ce5676040518163ffffffff1660e01b8152600401602060405180830381865afa1580156101f2573d6000803e3d6000fd5b505050506040513d601f19601f8201168201806040525081019061021691906103f1565b60ff1682828151811061022b5761022b6103c2565b6020908102919091010152806102408161041b565b9150506100ec565b509250929050565b634e487b7160e01b600052604160045260246000fd5b80356001600160a01b038116811461027d57600080fd5b919050565b6000806040838503121561029557600080fd5b823567ffffffffffffffff808211156102ad57600080fd5b818501915085601f8301126102c157600080fd5b81356020828211156102d5576102d5610250565b8160051b604051601f19603f830116810181811086821117156102fa576102fa610250565b60405292835281830193508481018201928984111561031857600080fd5b948201945b8386101561033d5761032e86610266565b8552948201949382019361031d565b965061034c9050878201610266565b9450505050509250929050565b600081518084526020808501945080840160005b838110156103895781518752958201959082019060010161036d565b509495945050505050565b6040815260006103a76040830185610359565b82810360208401526103b98185610359565b95945050505050565b634e487b7160e01b600052603260045260246000fd5b6000602082840312156103ea57600080fd5b5051919050565b60006020828403121561040357600080fd5b815160ff8116811461041457600080fd5b9392505050565b60006001820161043b57634e487b7160e01b600052601160045260246000fd5b506001019056fea264697066735822122032fecb245d9d9fe1ed7070f86d473479699eb03c2c3efc292888a8d7168275b564736f6c63430008110033",
  "devdoc": {
    "kind": "dev",
    "methods": {},
    "version": 1
  },
  "userdoc": {
    "kind": "user",
    "methods": {},
    "version": 1
  },
  "storageLayout": {
    "storage": [],
    "types": null
  }
}