{
  "address": "0xf8c459c81Ae0e7b94C04bD251A664909Ae8Df0fC",
  "abi": [
    {
      "inputs": [
        {
          "internalType": "contract IWETH",
          "name": "_weth",
          "type": "address"
        }
      ],
      "stateMutability": "nonpayable",
      "type": "constructor"
    },
    {
      "inputs": [],
      "name": "EthTransferFailed",
      "type": "error"
    },
    {
      "anonymous": false,
      "inputs": [
        {
          "indexed": true,
          "internalType": "address",
          "name": "receiver",
          "type": "address"
        },
        {
          "indexed": false,
          "internalType": "uint256",
          "name": "wad",
          "type": "uint256"
        }
      ],
      "name": "Withdrawal",
      "type": "event"
    },
    {
      "inputs": [],
      "name": "version",
      "outputs": [
        {
          "internalType": "uint256",
          "name": "",
          "type": "uint256"
        }
      ],
      "stateMutability": "pure",
      "type": "function"
    },
    {
      "inputs": [],
      "name": "weth",
      "outputs": [
        {
          "internalType": "contract IWETH",
          "name": "",
          "type": "address"
        }
      ],
      "stateMutability": "view",
      "type": "function"
    },
    {
      "inputs": [
        {
          "internalType": "address",
          "name": "_receiver",
          "type": "address"
        },
        {
          "internalType": "uint256",
          "name": "_wad",
          "type": "uint256"
        }
      ],
      "name": "withdraw",
      "outputs": [],
      "stateMutability": "nonpayable",
      "type": "function"
    },
    {
      "stateMutability": "payable",
      "type": "receive"
    }
  ],
  "transactionHash": "0xa984d14b55e06bfa04f3c53163ef8e62921efd21bee8625754b15ee68b32df2a",
  "args": [
    "0x21D03141aCfc7A53252c513F25C361485082Cc82"
  ],
  "solcInputHash": "ef9c2c0522506d1ad1ca240de7de0aef",
  "bytecode": "0x608060405234801561001057600080fd5b5060405161033d38038061033d83398101604081905261002f91610054565b600080546001600160a01b0319166001600160a01b0392909216919091179055610084565b60006020828403121561006657600080fd5b81516001600160a01b038116811461007d57600080fd5b9392505050565b6102aa806100936000396000f3fe6080604052600436106100385760003560e01c80633fc8cef31461004457806354fd4d5014610081578063f3fef3a31461009d57600080fd5b3661003f57005b600080fd5b34801561005057600080fd5b50600054610064906001600160a01b031681565b6040516001600160a01b0390911681526020015b60405180910390f35b34801561008d57600080fd5b5060405160658152602001610078565b3480156100a957600080fd5b506100bd6100b8366004610201565b6100bf565b005b600054604051632e1a7d4d60e01b8152600481018390526001600160a01b0390911690632e1a7d4d90602401600060405180830381600087803b15801561010557600080fd5b505af1158015610119573d6000803e3d6000fd5b50505050610127828261016e565b816001600160a01b03167f7fcf532c15f0a6db0bd6d0e038bea71d30d808c7d98cb3bf7268a95bf5081b658260405161016291815260200190565b60405180910390a25050565b604080516000808252602082019092526001600160a01b0384169083906040516101989190610239565b60006040518083038185875af1925050503d80600081146101d5576040519150601f19603f3d011682016040523d82523d6000602084013e6101da565b606091505b50509050806101fc57604051630db2c7f160e31b815260040160405180910390fd5b505050565b6000806040838503121561021457600080fd5b82356001600160a01b038116811461022b57600080fd5b946020939093013593505050565b6000825160005b8181101561025a5760208186018101518583015201610240565b81811115610269576000828501525b50919091019291505056fea26469706673582212206ab57b3bc19ca4e86b9d32cf905e3c8538d8b47bcafe20346054abc9703ddb0464736f6c63430008070033",
  "devdoc": {
    "kind": "dev",
    "methods": {},
    "version": 1
  },
  "userdoc": {
    "kind": "user",
    "methods": {},
    "version": 1
  },
  "storageLayout": {
    "storage": [
      {
        "astId": 24607,
        "contract": "contracts/transfers/WethGate.sol:WethGate",
        "label": "weth",
        "offset": 0,
        "slot": "0",
        "type": "t_contract(IWETH)6097"
      }
    ],
    "types": {
      "t_contract(IWETH)6097": {
        "encoding": "inplace",
        "label": "contract IWETH",
        "numberOfBytes": "20"
      }
    }
  }
}