{
  "contractName": "AaveInteractor",
  "abi": [
    {
      "inputs": [
        {
          "internalType": "address",
          "name": "_lendingPoolProvider",
          "type": "address"
        },
        {
          "internalType": "address",
          "name": "_protocolDataProvider",
          "type": "address"
        }
      ],
      "stateMutability": "nonpayable",
      "type": "constructor"
    },
    {
      "inputs": [],
      "name": "lendingPoolProvider",
      "outputs": [
        {
          "internalType": "address",
          "name": "",
          "type": "address"
        }
      ],
      "stateMutability": "view",
      "type": "function"
    },
    {
      "inputs": [],
      "name": "protocolDataProvider",
      "outputs": [
        {
          "internalType": "address",
          "name": "",
          "type": "address"
        }
      ],
      "stateMutability": "view",
      "type": "function"
    },
    {
      "inputs": [],
      "name": "lendingPool",
      "outputs": [
        {
          "internalType": "address",
          "name": "",
          "type": "address"
        }
      ],
      "stateMutability": "view",
      "type": "function"
    },
    {
      "inputs": [
        {
          "internalType": "address",
          "name": "_token",
          "type": "address"
        }
      ],
      "name": "aToken",
      "outputs": [
        {
          "internalType": "address",
          "name": "",
          "type": "address"
        }
      ],
      "stateMutability": "view",
      "type": "function"
    },
    {
      "inputs": [
        {
          "internalType": "address",
          "name": "_account",
          "type": "address"
        },
        {
          "internalType": "address",
          "name": "_token",
          "type": "address"
        }
      ],
      "name": "updateReserves",
      "outputs": [
        {
          "internalType": "uint256",
          "name": "",
          "type": "uint256"
        }
      ],
      "stateMutability": "view",
      "type": "function"
    },
    {
      "inputs": [
        {
          "internalType": "address",
          "name": "_token",
          "type": "address"
        },
        {
          "internalType": "uint256",
          "name": "_amount",
          "type": "uint256"
        }
      ],
      "name": "deposit",
      "outputs": [],
      "stateMutability": "nonpayable",
      "type": "function"
    },
    {
      "inputs": [
        {
          "internalType": "address",
          "name": "_token",
          "type": "address"
        }
      ],
      "name": "withdrawAll",
      "outputs": [],
      "stateMutability": "nonpayable",
      "type": "function"
    },
    {
      "inputs": [
        {
          "internalType": "address",
          "name": "_token",
          "type": "address"
        },
        {
          "internalType": "uint256",
          "name": "_amount",
          "type": "uint256"
        }
      ],
      "name": "withdraw",
      "outputs": [],
      "stateMutability": "nonpayable",
      "type": "function"
    }
  ],
  "bytecode": "0x608060405234801561001057600080fd5b50604051610d00380380610d0083398101604081905261002f9161007c565b600080546001600160a01b039384166001600160a01b031991821617909155600180549290931691161790556100ae565b80516001600160a01b038116811461007757600080fd5b919050565b6000806040838503121561008e578182fd5b61009783610060565b91506100a560208401610060565b90509250929050565b610c43806100bd6000396000f3fe608060405234801561001057600080fd5b50600436106100885760003560e01c8063913fd1b51161005b578063913fd1b5146100f8578063a59a997314610119578063f3fef3a314610121578063fa09e6301461013457610088565b80633615fe4e1461008d5780633f843bce146100bd57806347e7ef24146100d057806382f84336146100e5575b600080fd5b6100a061009b366004610a5a565b610147565b6040516001600160a01b0390911681526020015b60405180910390f35b6001546100a0906001600160a01b031681565b6100e36100de366004610b16565b6101d2565b005b6000546100a0906001600160a01b031681565b61010b610106366004610a92565b610355565b6040519081526020016100b4565b6100a06103db565b6100e361012f366004610b16565b610467565b6100e3610142366004610a5a565b6106b4565b6001546040516334924edb60e21b81526001600160a01b038381166004830152600092839291169063d2493b6c9060240160606040518083038186803b15801561019057600080fd5b505afa1580156101a4573d6000803e3d6000fd5b505050506040513d601f19601f820116820180604052508101906101c89190610aca565b5090949350505050565b81600260006101e085610147565b6001600160a01b03166001600160a01b0316815260200190815260200160002060006101000a8154816001600160a01b0302191690836001600160a01b03160217905550600061022e6103db565b6040516323b872dd60e01b8152336004820152306024820152604481018490529091506001600160a01b038416906323b872dd90606401602060405180830381600087803b15801561027f57600080fd5b505af1158015610293573d6000803e3d6000fd5b505050506040513d601f19601f820116820180604052508101906102b79190610b41565b506102cd6001600160a01b0384168260006106c3565b6102e16001600160a01b03841682846106c3565b60405163e8eda9df60e01b81526001600160a01b038481166004830152602482018490523360448301526000606483015282169063e8eda9df90608401600060405180830381600087803b15801561033857600080fd5b505af115801561034c573d6000803e3d6000fd5b50505050505050565b6040516370a0823160e01b81526001600160a01b03838116600483015260009182918416906370a082319060240160206040518083038186803b15801561039b57600080fd5b505afa1580156103af573d6000803e3d6000fd5b505050506040513d601f19601f820116820180604052508101906103d39190610b61565b949350505050565b60008060009054906101000a90046001600160a01b03166001600160a01b0316630261bf8b6040518163ffffffff1660e01b815260040160206040518083038186803b15801561042a57600080fd5b505afa15801561043e573d6000803e3d6000fd5b505050506040513d601f19601f820116820180604052508101906104629190610a76565b905090565b6001600160a01b038083166000908152600260205260408120549091169061048d6103db565b90506104a46001600160a01b0385168260006106c3565b6104b86001600160a01b03851682856106c3565b6040516370a0823160e01b81523060048201526000906001600160a01b038616906370a082319060240160206040518083038186803b1580156104fa57600080fd5b505afa15801561050e573d6000803e3d6000fd5b505050506040513d601f19601f820116820180604052508101906105329190610b61565b604051631a4ca37b60e21b81526001600160a01b038581166004830152602482018790523360448301529192506000918416906369328dec90606401602060405180830381600087803b15801561058857600080fd5b505af115801561059c573d6000803e3d6000fd5b505050506040513d601f19601f820116820180604052508101906105c09190610b61565b90508481148061065157506000198514801561065157506040516370a0823160e01b81523060048201526001600160a01b038516906370a082319060240160206040518083038186803b15801561061657600080fd5b505afa15801561062a573d6000803e3d6000fd5b505050506040513d601f19601f8201168201806040525081019061064e9190610b61565b82145b6106ac5760405162461bcd60e51b815260206004820152602160248201527f446964206e6f742077697468647261772072657175657374656420616d6f756e6044820152601d60fa1b60648201526084015b60405180910390fd5b505050505050565b6106c081600019610467565b50565b80158061074c5750604051636eb1769f60e11b81523060048201526001600160a01b03838116602483015284169063dd62ed3e9060440160206040518083038186803b15801561071257600080fd5b505afa158015610726573d6000803e3d6000fd5b505050506040513d601f19601f8201168201806040525081019061074a9190610b61565b155b6107b75760405162461bcd60e51b815260206004820152603660248201527f5361666545524332303a20617070726f76652066726f6d206e6f6e2d7a65726f60448201527520746f206e6f6e2d7a65726f20616c6c6f77616e636560501b60648201526084016106a3565b604080516001600160a01b038416602482015260448082018490528251808303909101815260649091019091526020810180516001600160e01b031663095ea7b360e01b17905261080990849061080e565b505050565b6000610863826040518060400160405280602081526020017f5361666545524332303a206c6f772d6c6576656c2063616c6c206661696c6564815250856001600160a01b03166108e09092919063ffffffff16565b80519091501561080957808060200190518101906108819190610b41565b6108095760405162461bcd60e51b815260206004820152602a60248201527f5361666545524332303a204552433230206f7065726174696f6e20646964206e6044820152691bdd081cdd58d8d9595960b21b60648201526084016106a3565b60606108ef84846000856108f9565b90505b9392505050565b60608247101561095a5760405162461bcd60e51b815260206004820152602660248201527f416464726573733a20696e73756666696369656e742062616c616e636520666f6044820152651c8818d85b1b60d21b60648201526084016106a3565b843b6109a85760405162461bcd60e51b815260206004820152601d60248201527f416464726573733a2063616c6c20746f206e6f6e2d636f6e747261637400000060448201526064016106a3565b600080866001600160a01b031685876040516109c49190610b79565b60006040518083038185875af1925050503d8060008114610a01576040519150601f19603f3d011682016040523d82523d6000602084013e610a06565b606091505b5091509150610a16828286610a21565b979650505050505050565b60608315610a305750816108f2565b825115610a405782518084602001fd5b8160405162461bcd60e51b81526004016106a39190610b95565b600060208284031215610a6b578081fd5b81356108f281610bf8565b600060208284031215610a87578081fd5b81516108f281610bf8565b60008060408385031215610aa4578081fd5b8235610aaf81610bf8565b91506020830135610abf81610bf8565b809150509250929050565b600080600060608486031215610ade578081fd5b8351610ae981610bf8565b6020850151909350610afa81610bf8565b6040850151909250610b0b81610bf8565b809150509250925092565b60008060408385031215610b28578182fd5b8235610b3381610bf8565b946020939093013593505050565b600060208284031215610b52578081fd5b815180151581146108f2578182fd5b600060208284031215610b72578081fd5b5051919050565b60008251610b8b818460208701610bc8565b9190910192915050565b6000602082528251806020840152610bb4816040850160208701610bc8565b601f01601f19169190910160400192915050565b60005b83811015610be3578181015183820152602001610bcb565b83811115610bf2576000848401525b50505050565b6001600160a01b03811681146106c057600080fdfea2646970667358221220fa6061680420e0a37cffdd1475b04074fb8c2d61b3002869622ab558ab21540864736f6c63430008020033",
  "immutableReferences": {},
  "source": "// SPDX-License-Identifier: MIT\r\npragma solidity ^0.8.2;\r\n\r\nimport \"@openzeppelin/contracts/token/ERC20/utils/SafeERC20.sol\";\r\nimport \"@openzeppelin/contracts/token/ERC20/IERC20.sol\";\r\nimport \"../interfaces/ILendingPool.sol\";\r\nimport \"../interfaces/ILendingPoolAddressesProvider.sol\";\r\nimport \"../interfaces/IAaveProtocolDataProvider.sol\";\r\nimport \"../interfaces/IStrategy.sol\";\r\n\r\ncontract AaveInteractor is IStrategy {\r\n    \r\n  using SafeERC20 for IERC20;\r\n\r\n  address public lendingPoolProvider;\r\n  address public protocolDataProvider;\r\n  mapping(address => address) aTokenToUnderlying;\r\n\r\n  constructor(\r\n    address _lendingPoolProvider,\r\n    address _protocolDataProvider\r\n  ) {\r\n    lendingPoolProvider = _lendingPoolProvider;\r\n    protocolDataProvider = _protocolDataProvider;\r\n  }\r\n\r\n  function lendingPool() public view returns (address) {\r\n    return ILendingPoolAddressesProvider(lendingPoolProvider).getLendingPool();\r\n  }\r\n\r\n  function aToken(address _token) public view returns (address) {\r\n    (address newATokenAddress,,) =\r\n      IAaveProtocolDataProvider(protocolDataProvider).getReserveTokensAddresses(_token);\r\n    return newATokenAddress;\r\n  }\r\n\r\n  function updateReserves(address _account, address _token) \r\n    external \r\n    view \r\n    override \r\n    returns (uint256) \r\n  {\r\n    uint256 reserves = IERC20(_token).balanceOf(_account);\r\n    // address incentivesController = IAToken(_token).getIncentivesController();\r\n    // uint256 reserves = IAaveIncentivesController(incentivesController).getUserAssetData(_account, _token);\r\n    return reserves;\r\n  }\r\n\r\n  function deposit(address _token, uint256 _amount) external override {\r\n    aTokenToUnderlying[aToken(_token)] = _token;\r\n    address lendPool = lendingPool();\r\n    IERC20(_token).transferFrom(msg.sender, address(this), _amount);\r\n    IERC20(_token).safeApprove(lendPool, 0);\r\n    IERC20(_token).safeApprove(lendPool, _amount);\r\n\r\n    ILendingPool(lendPool).deposit(\r\n      _token,\r\n      _amount,\r\n      msg.sender,\r\n      0 // referral code\r\n    );\r\n  }\r\n\r\n  function withdrawAll(address _token) external override {\r\n    withdraw(_token, type(uint256).max);\r\n  }\r\n\r\n  function withdraw(address _token, uint256 _amount) public override {\r\n    address underlying = aTokenToUnderlying[_token];\r\n    address lendPool = lendingPool();\r\n    IERC20(_token).safeApprove(lendPool, 0);\r\n    IERC20(_token).safeApprove(lendPool, _amount);\r\n    uint256 maxAmount = IERC20(_token).balanceOf(address(this));\r\n\r\n    uint256 amountWithdrawn = ILendingPool(lendPool).withdraw(\r\n      underlying,\r\n      _amount,\r\n      msg.sender\r\n    );\r\n\r\n    require(\r\n      amountWithdrawn == _amount ||\r\n      (_amount == type(uint256).max && maxAmount == IERC20(underlying).balanceOf(address(this))),\r\n      \"Did not withdraw requested amount\"\r\n    );\r\n  }\r\n}\r\n",
  "sourcePath": "D:/Projects/Debridge/debridge-contracts-v1/contracts/periphery/AaveController.sol",
  "compiler": {
    "name": "solc",
    "version": "0.8.2+commit.661d1103.Emscripten.clang"
  },
  "schemaVersion": "3.3.4",
  "updatedAt": "2021-07-18T12:47:19.696Z",
  "devdoc": {
    "kind": "dev",
    "methods": {},
    "version": 1
  },
  "userdoc": {
    "kind": "user",
    "methods": {},
    "version": 1
  }
}