{
  "contractName": "Aggregator",
  "abi": [
    {
      "inputs": [
        {
          "internalType": "uint256",
          "name": "_minConfirmations",
          "type": "uint256"
        },
        {
          "internalType": "uint128",
          "name": "_payment",
          "type": "uint128"
        },
        {
          "internalType": "contract IERC20",
          "name": "_link",
          "type": "address"
        }
      ],
      "stateMutability": "nonpayable",
      "type": "constructor"
    },
    {
      "anonymous": false,
      "inputs": [
        {
          "indexed": true,
          "internalType": "bytes32",
          "name": "role",
          "type": "bytes32"
        },
        {
          "indexed": true,
          "internalType": "bytes32",
          "name": "previousAdminRole",
          "type": "bytes32"
        },
        {
          "indexed": true,
          "internalType": "bytes32",
          "name": "newAdminRole",
          "type": "bytes32"
        }
      ],
      "name": "RoleAdminChanged",
      "type": "event"
    },
    {
      "anonymous": false,
      "inputs": [
        {
          "indexed": true,
          "internalType": "bytes32",
          "name": "role",
          "type": "bytes32"
        },
        {
          "indexed": true,
          "internalType": "address",
          "name": "account",
          "type": "address"
        },
        {
          "indexed": true,
          "internalType": "address",
          "name": "sender",
          "type": "address"
        }
      ],
      "name": "RoleGranted",
      "type": "event"
    },
    {
      "anonymous": false,
      "inputs": [
        {
          "indexed": true,
          "internalType": "bytes32",
          "name": "role",
          "type": "bytes32"
        },
        {
          "indexed": true,
          "internalType": "address",
          "name": "account",
          "type": "address"
        },
        {
          "indexed": true,
          "internalType": "address",
          "name": "sender",
          "type": "address"
        }
      ],
      "name": "RoleRevoked",
      "type": "event"
    },
    {
      "inputs": [],
      "name": "DEFAULT_ADMIN_ROLE",
      "outputs": [
        {
          "internalType": "bytes32",
          "name": "",
          "type": "bytes32"
        }
      ],
      "stateMutability": "view",
      "type": "function"
    },
    {
      "inputs": [],
      "name": "ORACLE_ROLE",
      "outputs": [
        {
          "internalType": "bytes32",
          "name": "",
          "type": "bytes32"
        }
      ],
      "stateMutability": "view",
      "type": "function"
    },
    {
      "inputs": [],
      "name": "allocatedFunds",
      "outputs": [
        {
          "internalType": "uint256",
          "name": "",
          "type": "uint256"
        }
      ],
      "stateMutability": "view",
      "type": "function"
    },
    {
      "inputs": [],
      "name": "availableFunds",
      "outputs": [
        {
          "internalType": "uint256",
          "name": "",
          "type": "uint256"
        }
      ],
      "stateMutability": "view",
      "type": "function"
    },
    {
      "inputs": [
        {
          "internalType": "bytes32",
          "name": "role",
          "type": "bytes32"
        }
      ],
      "name": "getRoleAdmin",
      "outputs": [
        {
          "internalType": "bytes32",
          "name": "",
          "type": "bytes32"
        }
      ],
      "stateMutability": "view",
      "type": "function"
    },
    {
      "inputs": [
        {
          "internalType": "address",
          "name": "",
          "type": "address"
        }
      ],
      "name": "getRracleInfo",
      "outputs": [
        {
          "internalType": "uint128",
          "name": "withdrawable",
          "type": "uint128"
        },
        {
          "internalType": "address",
          "name": "admin",
          "type": "address"
        },
        {
          "internalType": "address",
          "name": "pendingAdmin",
          "type": "address"
        }
      ],
      "stateMutability": "view",
      "type": "function"
    },
    {
      "inputs": [
        {
          "internalType": "bytes32",
          "name": "role",
          "type": "bytes32"
        },
        {
          "internalType": "address",
          "name": "account",
          "type": "address"
        }
      ],
      "name": "grantRole",
      "outputs": [],
      "stateMutability": "nonpayable",
      "type": "function"
    },
    {
      "inputs": [
        {
          "internalType": "bytes32",
          "name": "role",
          "type": "bytes32"
        },
        {
          "internalType": "address",
          "name": "account",
          "type": "address"
        }
      ],
      "name": "hasRole",
      "outputs": [
        {
          "internalType": "bool",
          "name": "",
          "type": "bool"
        }
      ],
      "stateMutability": "view",
      "type": "function"
    },
    {
      "inputs": [],
      "name": "link",
      "outputs": [
        {
          "internalType": "contract IERC20",
          "name": "",
          "type": "address"
        }
      ],
      "stateMutability": "view",
      "type": "function"
    },
    {
      "inputs": [],
      "name": "minConfirmations",
      "outputs": [
        {
          "internalType": "uint256",
          "name": "",
          "type": "uint256"
        }
      ],
      "stateMutability": "view",
      "type": "function"
    },
    {
      "inputs": [],
      "name": "payment",
      "outputs": [
        {
          "internalType": "uint128",
          "name": "",
          "type": "uint128"
        }
      ],
      "stateMutability": "view",
      "type": "function"
    },
    {
      "inputs": [
        {
          "internalType": "bytes32",
          "name": "role",
          "type": "bytes32"
        },
        {
          "internalType": "address",
          "name": "account",
          "type": "address"
        }
      ],
      "name": "renounceRole",
      "outputs": [],
      "stateMutability": "nonpayable",
      "type": "function"
    },
    {
      "inputs": [
        {
          "internalType": "bytes32",
          "name": "role",
          "type": "bytes32"
        },
        {
          "internalType": "address",
          "name": "account",
          "type": "address"
        }
      ],
      "name": "revokeRole",
      "outputs": [],
      "stateMutability": "nonpayable",
      "type": "function"
    },
    {
      "inputs": [
        {
          "internalType": "bytes4",
          "name": "interfaceId",
          "type": "bytes4"
        }
      ],
      "name": "supportsInterface",
      "outputs": [
        {
          "internalType": "bool",
          "name": "",
          "type": "bool"
        }
      ],
      "stateMutability": "view",
      "type": "function"
    },
    {
      "inputs": [
        {
          "internalType": "uint256",
          "name": "_minConfirmations",
          "type": "uint256"
        }
      ],
      "name": "setMinConfirmations",
      "outputs": [],
      "stateMutability": "nonpayable",
      "type": "function"
    },
    {
      "inputs": [
        {
          "internalType": "uint128",
          "name": "_payment",
          "type": "uint128"
        }
      ],
      "name": "setPayment",
      "outputs": [],
      "stateMutability": "nonpayable",
      "type": "function"
    },
    {
      "inputs": [
        {
          "internalType": "address",
          "name": "_oracle",
          "type": "address"
        }
      ],
      "name": "withdrawablePayment",
      "outputs": [
        {
          "internalType": "uint256",
          "name": "",
          "type": "uint256"
        }
      ],
      "stateMutability": "view",
      "type": "function"
    },
    {
      "inputs": [
        {
          "internalType": "address",
          "name": "_oracle",
          "type": "address"
        },
        {
          "internalType": "address",
          "name": "_recipient",
          "type": "address"
        },
        {
          "internalType": "uint256",
          "name": "_amount",
          "type": "uint256"
        }
      ],
      "name": "withdrawPayment",
      "outputs": [],
      "stateMutability": "nonpayable",
      "type": "function"
    },
    {
      "inputs": [
        {
          "internalType": "address",
          "name": "_recipient",
          "type": "address"
        },
        {
          "internalType": "uint256",
          "name": "_amount",
          "type": "uint256"
        }
      ],
      "name": "withdrawFunds",
      "outputs": [],
      "stateMutability": "nonpayable",
      "type": "function"
    },
    {
      "inputs": [],
      "name": "updateAvailableFunds",
      "outputs": [],
      "stateMutability": "nonpayable",
      "type": "function"
    },
    {
      "inputs": [
        {
          "internalType": "address",
          "name": "",
          "type": "address"
        },
        {
          "internalType": "uint256",
          "name": "",
          "type": "uint256"
        },
        {
          "internalType": "bytes",
          "name": "_data",
          "type": "bytes"
        }
      ],
      "name": "onTokenTransfer",
      "outputs": [],
      "stateMutability": "nonpayable",
      "type": "function"
    },
    {
      "inputs": [
        {
          "internalType": "address",
          "name": "_aggregator",
          "type": "address"
        }
      ],
      "name": "addOracle",
      "outputs": [],
      "stateMutability": "nonpayable",
      "type": "function"
    },
    {
      "inputs": [
        {
          "internalType": "address",
          "name": "_aggregator",
          "type": "address"
        }
      ],
      "name": "removeOracle",
      "outputs": [],
      "stateMutability": "nonpayable",
      "type": "function"
    }
  ],
  "bytecode": "0x60806040523480156200001157600080fd5b5060405162002135380380620021358339818101604052810190620000379190620002c6565b8260018190555081600460006101000a8154816fffffffffffffffffffffffffffffffff02191690836fffffffffffffffffffffffffffffffff16021790555080600560006101000a81548173ffffffffffffffffffffffffffffffffffffffff021916908373ffffffffffffffffffffffffffffffffffffffff160217905550620000cd6000801b336200010860201b60201c565b620000ff7f68e79a7bf1e0bc45d0a330c573bc367f9cf464fd326078812f301165fbda4ef1336200010860201b60201c565b505050620003d8565b6200011a82826200011e60201b60201c565b5050565b6200013082826200020f60201b60201c565b6200020b57600160008084815260200190815260200160002060000160008373ffffffffffffffffffffffffffffffffffffffff1673ffffffffffffffffffffffffffffffffffffffff16815260200190815260200160002060006101000a81548160ff021916908315150217905550620001b06200027960201b60201c565b73ffffffffffffffffffffffffffffffffffffffff168173ffffffffffffffffffffffffffffffffffffffff16837f2f8788117e7eff1d82e926ec794901d17c78024a50270940304540a733656f0d60405160405180910390a45b5050565b600080600084815260200190815260200160002060000160008373ffffffffffffffffffffffffffffffffffffffff1673ffffffffffffffffffffffffffffffffffffffff16815260200190815260200160002060009054906101000a900460ff16905092915050565b600033905090565b60008151905062000292816200038a565b92915050565b600081519050620002a981620003a4565b92915050565b600081519050620002c081620003be565b92915050565b600080600060608486031215620002dc57600080fd5b6000620002ec86828701620002af565b9350506020620002ff8682870162000298565b9250506040620003128682870162000281565b9150509250925092565b6000620003298262000360565b9050919050565b60006200033d826200031c565b9050919050565b60006fffffffffffffffffffffffffffffffff82169050919050565b600073ffffffffffffffffffffffffffffffffffffffff82169050919050565b6000819050919050565b620003958162000330565b8114620003a157600080fd5b50565b620003af8162000344565b8114620003bb57600080fd5b50565b620003c98162000380565b8114620003d557600080fd5b50565b611d4d80620003e86000396000f3fe608060405234801561001057600080fd5b506004361061014d5760003560e01c806382313e50116100c3578063d4cc54e41161007c578063d4cc54e414610378578063d547741f14610396578063df5dd1a5146103b2578063e2e40317146103ce578063e7c4393e146103fe578063fdc85fc41461041c5761014d565b806382313e50146102ba57806391d14854146102d6578063a217fddf14610306578063a4c0ed3614610324578063c107532914610340578063d28216551461035c5761014d565b80632f2ff15d116101155780632f2ff15d1461022057806336568abe1461023c5780633d3d77141461025857806342f6487a1461027457806346fcff4c146102925780634f8fc3b5146102b05761014d565b806301ffc9a71461015257806307e2cea5146101825780631c4695f4146101a0578063248a9ca3146101be5780632dd6b35c146101ee575b600080fd5b61016c6004803603810190610167919061147d565b610438565b604051610179919061171d565b60405180910390f35b61018a6104b2565b6040516101979190611738565b60405180910390f35b6101a86104d6565b6040516101b59190611753565b60405180910390f35b6101d860048036038101906101d39190611418565b6104fc565b6040516101e59190611738565b60405180910390f35b610208600480360381019061020391906112cf565b61051b565b604051610217939291906118c9565b60405180910390f35b61023a60048036038101906102359190611441565b6105a1565b005b61025660048036038101906102519190611441565b610607565b005b610272600480360381019061026d91906112f8565b61068a565b005b61027c6109d3565b60405161028991906118ae565b60405180910390f35b61029a6109f5565b6040516102a79190611900565b60405180910390f35b6102b86109fb565b005b6102d460048036038101906102cf91906114a6565b610abb565b005b6102f060048036038101906102eb9190611441565b610b43565b6040516102fd919061171d565b60405180910390f35b61030e610bad565b60405161031b9190611738565b60405180910390f35b61033e60048036038101906103399190611383565b610bb4565b005b61035a60048036038101906103559190611347565b610c98565b005b610376600480360381019061037191906114cf565b610e23565b005b610380610e79565b60405161038d9190611900565b60405180910390f35b6103b060048036038101906103ab9190611441565b610e7f565b005b6103cc60048036038101906103c791906112cf565b610ee5565b005b6103e860048036038101906103e391906112cf565b610f12565b6040516103f59190611900565b60405180910390f35b610406610f8c565b6040516104139190611900565b60405180910390f35b610436600480360381019061043191906112cf565b610f92565b005b60007f7965db0b000000000000000000000000000000000000000000000000000000007bffffffffffffffffffffffffffffffffffffffffffffffffffffffff1916827bffffffffffffffffffffffffffffffffffffffffffffffffffffffff191614806104ab57506104aa82610fbf565b5b9050919050565b7f68e79a7bf1e0bc45d0a330c573bc367f9cf464fd326078812f301165fbda4ef181565b600560009054906101000a900473ffffffffffffffffffffffffffffffffffffffff1681565b6000806000838152602001908152602001600020600101549050919050565b60066020528060005260406000206000915090508060000160009054906101000a90046fffffffffffffffffffffffffffffffff16908060010160009054906101000a900473ffffffffffffffffffffffffffffffffffffffff16908060020160009054906101000a900473ffffffffffffffffffffffffffffffffffffffff16905083565b6105ba6105ad836104fc565b6105b5611029565b610b43565b6105f9576040517f08c379a00000000000000000000000000000000000000000000000000000000081526004016105f09061176e565b60405180910390fd5b6106038282611031565b5050565b61060f611029565b73ffffffffffffffffffffffffffffffffffffffff168173ffffffffffffffffffffffffffffffffffffffff161461067c576040517f08c379a00000000000000000000000000000000000000000000000000000000081526004016106739061188e565b60405180910390fd5b6106868282611111565b5050565b3373ffffffffffffffffffffffffffffffffffffffff16600660008573ffffffffffffffffffffffffffffffffffffffff1673ffffffffffffffffffffffffffffffffffffffff16815260200190815260200160002060010160009054906101000a900473ffffffffffffffffffffffffffffffffffffffff1673ffffffffffffffffffffffffffffffffffffffff161461075a576040517f08c379a00000000000000000000000000000000000000000000000000000000081526004016107519061184e565b60405180910390fd5b60008190506000600660008673ffffffffffffffffffffffffffffffffffffffff1673ffffffffffffffffffffffffffffffffffffffff16815260200190815260200160002060000160009054906101000a90046fffffffffffffffffffffffffffffffff169050816fffffffffffffffffffffffffffffffff16816fffffffffffffffffffffffffffffffff161015610829576040517f08c379a00000000000000000000000000000000000000000000000000000000081526004016108209061178e565b60405180910390fd5b8181610835919061192c565b600660008773ffffffffffffffffffffffffffffffffffffffff1673ffffffffffffffffffffffffffffffffffffffff16815260200190815260200160002060000160006101000a8154816fffffffffffffffffffffffffffffffff02191690836fffffffffffffffffffffffffffffffff160217905550816fffffffffffffffffffffffffffffffff16600260008282546108d19190611960565b92505081905550600560009054906101000a900473ffffffffffffffffffffffffffffffffffffffff1673ffffffffffffffffffffffffffffffffffffffff1663a9059cbb85846fffffffffffffffffffffffffffffffff166040518363ffffffff1660e01b81526004016109479291906116f4565b602060405180830381600087803b15801561096157600080fd5b505af1158015610975573d6000803e3d6000fd5b505050506040513d601f19601f8201168201806040525081019061099991906113ef565b6109cc577f4e487b7100000000000000000000000000000000000000000000000000000000600052600160045260246000fd5b5050505050565b600460009054906101000a90046fffffffffffffffffffffffffffffffff1681565b60035481565b600254600560009054906101000a900473ffffffffffffffffffffffffffffffffffffffff1673ffffffffffffffffffffffffffffffffffffffff166370a08231306040518263ffffffff1660e01b8152600401610a5991906116d9565b60206040518083038186803b158015610a7157600080fd5b505afa158015610a85573d6000803e3d6000fd5b505050506040513d601f19601f82011682018060405250810190610aa991906114f8565b610ab39190611960565b600381905550565b610ac86000801b33610b43565b610b07576040517f08c379a0000000000000000000000000000000000000000000000000000000008152600401610afe9061186e565b60405180910390fd5b80600460006101000a8154816fffffffffffffffffffffffffffffffff02191690836fffffffffffffffffffffffffffffffff16021790555050565b600080600084815260200190815260200160002060000160008373ffffffffffffffffffffffffffffffffffffffff1673ffffffffffffffffffffffffffffffffffffffff16815260200190815260200160002060009054906101000a900460ff16905092915050565b6000801b81565b600560009054906101000a900473ffffffffffffffffffffffffffffffffffffffff1673ffffffffffffffffffffffffffffffffffffffff163373ffffffffffffffffffffffffffffffffffffffff1614610c44576040517f08c379a0000000000000000000000000000000000000000000000000000000008152600401610c3b9061182e565b60405180910390fd5b60008282905014610c8a576040517f08c379a0000000000000000000000000000000000000000000000000000000008152600401610c81906117ce565b60405180910390fd5b610c926109fb565b50505050565b610ca56000801b33610b43565b610ce4576040517f08c379a0000000000000000000000000000000000000000000000000000000008152600401610cdb9061186e565b60405180910390fd5b806003541015610d29576040517f08c379a0000000000000000000000000000000000000000000000000000000008152600401610d209061180e565b60405180910390fd5b600560009054906101000a900473ffffffffffffffffffffffffffffffffffffffff1673ffffffffffffffffffffffffffffffffffffffff1663a9059cbb83836040518363ffffffff1660e01b8152600401610d869291906116f4565b602060405180830381600087803b158015610da057600080fd5b505af1158015610db4573d6000803e3d6000fd5b505050506040513d601f19601f82011682018060405250810190610dd891906113ef565b610e17576040517f08c379a0000000000000000000000000000000000000000000000000000000008152600401610e0e906117ae565b60405180910390fd5b610e1f6109fb565b5050565b610e306000801b33610b43565b610e6f576040517f08c379a0000000000000000000000000000000000000000000000000000000008152600401610e669061186e565b60405180910390fd5b8060018190555050565b60025481565b610e98610e8b836104fc565b610e93611029565b610b43565b610ed7576040517f08c379a0000000000000000000000000000000000000000000000000000000008152600401610ece906117ee565b60405180910390fd5b610ee18282611111565b5050565b610f0f7f68e79a7bf1e0bc45d0a330c573bc367f9cf464fd326078812f301165fbda4ef1826105a1565b50565b6000600660008373ffffffffffffffffffffffffffffffffffffffff1673ffffffffffffffffffffffffffffffffffffffff16815260200190815260200160002060000160009054906101000a90046fffffffffffffffffffffffffffffffff166fffffffffffffffffffffffffffffffff169050919050565b60015481565b610fbc7f68e79a7bf1e0bc45d0a330c573bc367f9cf464fd326078812f301165fbda4ef182610e7f565b50565b60007f01ffc9a7000000000000000000000000000000000000000000000000000000007bffffffffffffffffffffffffffffffffffffffffffffffffffffffff1916827bffffffffffffffffffffffffffffffffffffffffffffffffffffffff1916149050919050565b600033905090565b61103b8282610b43565b61110d57600160008084815260200190815260200160002060000160008373ffffffffffffffffffffffffffffffffffffffff1673ffffffffffffffffffffffffffffffffffffffff16815260200190815260200160002060006101000a81548160ff0219169083151502179055506110b2611029565b73ffffffffffffffffffffffffffffffffffffffff168173ffffffffffffffffffffffffffffffffffffffff16837f2f8788117e7eff1d82e926ec794901d17c78024a50270940304540a733656f0d60405160405180910390a45b5050565b61111b8282610b43565b156111ee57600080600084815260200190815260200160002060000160008373ffffffffffffffffffffffffffffffffffffffff1673ffffffffffffffffffffffffffffffffffffffff16815260200190815260200160002060006101000a81548160ff021916908315150217905550611193611029565b73ffffffffffffffffffffffffffffffffffffffff168173ffffffffffffffffffffffffffffffffffffffff16837ff6391f5c32d9c69d2a47ea670b442974b53935d1edc7fd64eb21e047a839171b60405160405180910390a45b5050565b60008135905061120181611c8d565b92915050565b60008151905061121681611ca4565b92915050565b60008135905061122b81611cbb565b92915050565b60008135905061124081611cd2565b92915050565b60008083601f84011261125857600080fd5b8235905067ffffffffffffffff81111561127157600080fd5b60208301915083600182028301111561128957600080fd5b9250929050565b60008135905061129f81611ce9565b92915050565b6000813590506112b481611d00565b92915050565b6000815190506112c981611d00565b92915050565b6000602082840312156112e157600080fd5b60006112ef848285016111f2565b91505092915050565b60008060006060848603121561130d57600080fd5b600061131b868287016111f2565b935050602061132c868287016111f2565b925050604061133d868287016112a5565b9150509250925092565b6000806040838503121561135a57600080fd5b6000611368858286016111f2565b9250506020611379858286016112a5565b9150509250929050565b6000806000806060858703121561139957600080fd5b60006113a7878288016111f2565b94505060206113b8878288016112a5565b935050604085013567ffffffffffffffff8111156113d557600080fd5b6113e187828801611246565b925092505092959194509250565b60006020828403121561140157600080fd5b600061140f84828501611207565b91505092915050565b60006020828403121561142a57600080fd5b60006114388482850161121c565b91505092915050565b6000806040838503121561145457600080fd5b60006114628582860161121c565b9250506020611473858286016111f2565b9150509250929050565b60006020828403121561148f57600080fd5b600061149d84828501611231565b91505092915050565b6000602082840312156114b857600080fd5b60006114c684828501611290565b91505092915050565b6000602082840312156114e157600080fd5b60006114ef848285016112a5565b91505092915050565b60006020828403121561150a57600080fd5b6000611518848285016112ba565b91505092915050565b61152a81611994565b82525050565b611539816119a6565b82525050565b611548816119b2565b82525050565b61155781611a2e565b82525050565b600061156a602f8361191b565b915061157582611a81565b604082019050919050565b600061158d601f8361191b565b915061159882611ad0565b602082019050919050565b60006115b0601e8361191b565b91506115bb82611af9565b602082019050919050565b60006115d360208361191b565b91506115de82611b22565b602082019050919050565b60006115f660308361191b565b915061160182611b4b565b604082019050919050565b6000611619601a8361191b565b915061162482611b9a565b602082019050919050565b600061163c601d8361191b565b915061164782611bc3565b602082019050919050565b600061165f60168361191b565b915061166a82611bec565b602082019050919050565b600061168260138361191b565b915061168d82611c15565b602082019050919050565b60006116a5602f8361191b565b91506116b082611c3e565b604082019050919050565b6116c4816119e8565b82525050565b6116d381611a24565b82525050565b60006020820190506116ee6000830184611521565b92915050565b60006040820190506117096000830185611521565b61171660208301846116ca565b9392505050565b60006020820190506117326000830184611530565b92915050565b600060208201905061174d600083018461153f565b92915050565b6000602082019050611768600083018461154e565b92915050565b600060208201905081810360008301526117878161155d565b9050919050565b600060208201905081810360008301526117a781611580565b9050919050565b600060208201905081810360008301526117c7816115a3565b9050919050565b600060208201905081810360008301526117e7816115c6565b9050919050565b60006020820190508181036000830152611807816115e9565b9050919050565b600060208201905081810360008301526118278161160c565b9050919050565b600060208201905081810360008301526118478161162f565b9050919050565b6000602082019050818103600083015261186781611652565b9050919050565b6000602082019050818103600083015261188781611675565b9050919050565b600060208201905081810360008301526118a781611698565b9050919050565b60006020820190506118c360008301846116bb565b92915050565b60006060820190506118de60008301866116bb565b6118eb6020830185611521565b6118f86040830184611521565b949350505050565b600060208201905061191560008301846116ca565b92915050565b600082825260208201905092915050565b6000611937826119e8565b9150611942836119e8565b92508282101561195557611954611a52565b5b828203905092915050565b600061196b82611a24565b915061197683611a24565b92508282101561198957611988611a52565b5b828203905092915050565b600061199f82611a04565b9050919050565b60008115159050919050565b6000819050919050565b60007fffffffff0000000000000000000000000000000000000000000000000000000082169050919050565b60006fffffffffffffffffffffffffffffffff82169050919050565b600073ffffffffffffffffffffffffffffffffffffffff82169050919050565b6000819050919050565b6000611a3982611a40565b9050919050565b6000611a4b82611a04565b9050919050565b7f4e487b7100000000000000000000000000000000000000000000000000000000600052601160045260246000fd5b7f416363657373436f6e74726f6c3a2073656e646572206d75737420626520616e60008201527f2061646d696e20746f206772616e740000000000000000000000000000000000602082015250565b7f696e73756666696369656e7420776974686472617761626c652066756e647300600082015250565b7f776974686472617746756e64733a207472616e73666572206661696c65640000600082015250565b7f7472616e7366657220646f65736e2774206163636570742063616c6c64617461600082015250565b7f416363657373436f6e74726f6c3a2073656e646572206d75737420626520616e60008201527f2061646d696e20746f207265766f6b6500000000000000000000000000000000602082015250565b7f696e73756666696369656e7420726573657276652066756e6473000000000000600082015250565b7f6f6e546f6b656e5472616e736665723a206e6f7420746865204c696e6b000000600082015250565b7f6f6e6c792063616c6c61626c652062792061646d696e00000000000000000000600082015250565b7f6f6e6c7941646d696e3a2062616420726f6c6500000000000000000000000000600082015250565b7f416363657373436f6e74726f6c3a2063616e206f6e6c792072656e6f756e636560008201527f20726f6c657320666f722073656c660000000000000000000000000000000000602082015250565b611c9681611994565b8114611ca157600080fd5b50565b611cad816119a6565b8114611cb857600080fd5b50565b611cc4816119b2565b8114611ccf57600080fd5b50565b611cdb816119bc565b8114611ce657600080fd5b50565b611cf2816119e8565b8114611cfd57600080fd5b50565b611d0981611a24565b8114611d1457600080fd5b5056fea264697066735822122072f2012f44d848ce7775bd3a70aeb90f490dacc1024bd15eb0f80aa6e6d744f064736f6c63430008020033",
  "immutableReferences": {},
  "source": "// SPDX-License-Identifier: MIT\npragma solidity ^0.8.2;\n\nimport \"@openzeppelin/contracts/access/AccessControl.sol\";\nimport \"@openzeppelin/contracts/token/ERC20/IERC20.sol\";\n\ncontract Aggregator is AccessControl {\n    struct OracleInfo {\n        uint128 withdrawable;\n        address admin;\n        address pendingAdmin;\n    }\n\n    bytes32 public constant ORACLE_ROLE = keccak256(\"ORACLE_ROLE\");\n    uint256 public minConfirmations;\n    uint256 public allocatedFunds;\n    uint256 public availableFunds;\n    uint128 public payment;\n    IERC20 public link;\n    mapping(address => OracleInfo) public getRracleInfo;\n\n    modifier onlyAdmin {\n        require(hasRole(DEFAULT_ADMIN_ROLE, msg.sender), \"onlyAdmin: bad role\");\n        _;\n    }\n    modifier onlyOracle {\n        require(hasRole(ORACLE_ROLE, msg.sender), \"onlyOracle: bad role\");\n        _;\n    }\n\n    constructor(\n        uint256 _minConfirmations,\n        uint128 _payment,\n        IERC20 _link\n    ) {\n        minConfirmations = _minConfirmations;\n        payment = _payment;\n        link = _link;\n        _setupRole(DEFAULT_ADMIN_ROLE, msg.sender);\n        _setupRole(ORACLE_ROLE, msg.sender);\n    }\n\n    function setMinConfirmations(uint256 _minConfirmations) external onlyAdmin {\n        minConfirmations = _minConfirmations;\n    }\n\n    function setPayment(uint128 _payment) external onlyAdmin {\n        payment = _payment;\n    }\n\n    function withdrawablePayment(address _oracle)\n        external\n        view\n        returns (uint256)\n    {\n        return getRracleInfo[_oracle].withdrawable;\n    }\n\n    function withdrawPayment(\n        address _oracle,\n        address _recipient,\n        uint256 _amount\n    ) external {\n        require(\n            getRracleInfo[_oracle].admin == msg.sender,\n            \"only callable by admin\"\n        );\n\n        uint128 amount = uint128(_amount);\n        uint128 available = getRracleInfo[_oracle].withdrawable;\n        require(available >= amount, \"insufficient withdrawable funds\");\n\n        getRracleInfo[_oracle].withdrawable = available - amount;\n        allocatedFunds -= amount;\n\n        assert(link.transfer(_recipient, uint256(amount)));\n    }\n\n    function withdrawFunds(address _recipient, uint256 _amount)\n        external\n        onlyAdmin()\n    {\n        require(\n            uint256(availableFunds) >= _amount,\n            \"insufficient reserve funds\"\n        );\n        require(\n            link.transfer(_recipient, _amount),\n            \"withdrawFunds: transfer failed\"\n        );\n        updateAvailableFunds();\n    }\n\n    function updateAvailableFunds() public {\n        availableFunds = link.balanceOf(address(this)) - allocatedFunds;\n    }\n\n    function onTokenTransfer(\n        address,\n        uint256,\n        bytes calldata _data\n    ) external {\n        require(msg.sender == address(link), \"onTokenTransfer: not the Link\");\n        require(_data.length == 0, \"transfer doesn't accept calldata\");\n        updateAvailableFunds();\n    }\n\n    function addOracle(address _aggregator) external {\n        grantRole(ORACLE_ROLE, _aggregator);\n    }\n\n    function removeOracle(address _aggregator) external {\n        revokeRole(ORACLE_ROLE, _aggregator);\n    }\n\n    function _payOracle(address _oracle) internal {\n        availableFunds -= payment;\n        allocatedFunds += payment;\n        getRracleInfo[_oracle].withdrawable += payment;\n    }\n}\n",
  "sourcePath": "/Users/kstasi/Documents/work/debridge-contracts/contracts/chainlink/Aggregator.sol",
  "compiler": {
    "name": "solc",
    "version": "0.8.2+commit.661d1103.Emscripten.clang"
  },
  "schemaVersion": "3.3.4",
  "updatedAt": "2021-03-18T15:15:20.170Z",
  "devdoc": {
    "kind": "dev",
    "methods": {
      "getRoleAdmin(bytes32)": {
        "details": "Returns the admin role that controls `role`. See {grantRole} and {revokeRole}. To change a role's admin, use {_setRoleAdmin}."
      },
      "grantRole(bytes32,address)": {
        "details": "Grants `role` to `account`. If `account` had not been already granted `role`, emits a {RoleGranted} event. Requirements: - the caller must have ``role``'s admin role."
      },
      "hasRole(bytes32,address)": {
        "details": "Returns `true` if `account` has been granted `role`."
      },
      "renounceRole(bytes32,address)": {
        "details": "Revokes `role` from the calling account. Roles are often managed via {grantRole} and {revokeRole}: this function's purpose is to provide a mechanism for accounts to lose their privileges if they are compromised (such as when a trusted device is misplaced). If the calling account had been granted `role`, emits a {RoleRevoked} event. Requirements: - the caller must be `account`."
      },
      "revokeRole(bytes32,address)": {
        "details": "Revokes `role` from `account`. If `account` had been granted `role`, emits a {RoleRevoked} event. Requirements: - the caller must have ``role``'s admin role."
      },
      "supportsInterface(bytes4)": {
        "details": "See {IERC165-supportsInterface}."
      }
    },
    "version": 1
  },
  "userdoc": {
    "kind": "user",
    "methods": {},
    "version": 1
  }
}