{
  "contractName": "Aggregator",
  "abi": [
    {
      "inputs": [
        {
          "internalType": "uint256",
          "name": "_minConfirmations",
          "type": "uint256"
        }
      ],
      "stateMutability": "nonpayable",
      "type": "constructor"
    },
    {
      "anonymous": false,
      "inputs": [
        {
          "indexed": false,
          "internalType": "bytes32",
          "name": "deployId",
          "type": "bytes32"
        }
      ],
      "name": "DeployApproved",
      "type": "event"
    },
    {
      "anonymous": false,
      "inputs": [
        {
          "indexed": false,
          "internalType": "bytes32",
          "name": "deployId",
          "type": "bytes32"
        },
        {
          "indexed": false,
          "internalType": "address",
          "name": "operator",
          "type": "address"
        }
      ],
      "name": "DeployConfirmed",
      "type": "event"
    },
    {
      "anonymous": false,
      "inputs": [
        {
          "indexed": true,
          "internalType": "bytes32",
          "name": "role",
          "type": "bytes32"
        },
        {
          "indexed": true,
          "internalType": "bytes32",
          "name": "previousAdminRole",
          "type": "bytes32"
        },
        {
          "indexed": true,
          "internalType": "bytes32",
          "name": "newAdminRole",
          "type": "bytes32"
        }
      ],
      "name": "RoleAdminChanged",
      "type": "event"
    },
    {
      "anonymous": false,
      "inputs": [
        {
          "indexed": true,
          "internalType": "bytes32",
          "name": "role",
          "type": "bytes32"
        },
        {
          "indexed": true,
          "internalType": "address",
          "name": "account",
          "type": "address"
        },
        {
          "indexed": true,
          "internalType": "address",
          "name": "sender",
          "type": "address"
        }
      ],
      "name": "RoleGranted",
      "type": "event"
    },
    {
      "anonymous": false,
      "inputs": [
        {
          "indexed": true,
          "internalType": "bytes32",
          "name": "role",
          "type": "bytes32"
        },
        {
          "indexed": true,
          "internalType": "address",
          "name": "account",
          "type": "address"
        },
        {
          "indexed": true,
          "internalType": "address",
          "name": "sender",
          "type": "address"
        }
      ],
      "name": "RoleRevoked",
      "type": "event"
    },
    {
      "inputs": [],
      "name": "DEFAULT_ADMIN_ROLE",
      "outputs": [
        {
          "internalType": "bytes32",
          "name": "",
          "type": "bytes32"
        }
      ],
      "stateMutability": "view",
      "type": "function"
    },
    {
      "inputs": [],
      "name": "ORACLE_ROLE",
      "outputs": [
        {
          "internalType": "bytes32",
          "name": "",
          "type": "bytes32"
        }
      ],
      "stateMutability": "view",
      "type": "function"
    },
    {
      "inputs": [
        {
          "internalType": "address",
          "name": "",
          "type": "address"
        }
      ],
      "name": "getOracleInfo",
      "outputs": [
        {
          "internalType": "address",
          "name": "admin",
          "type": "address"
        }
      ],
      "stateMutability": "view",
      "type": "function"
    },
    {
      "inputs": [
        {
          "internalType": "bytes32",
          "name": "role",
          "type": "bytes32"
        }
      ],
      "name": "getRoleAdmin",
      "outputs": [
        {
          "internalType": "bytes32",
          "name": "",
          "type": "bytes32"
        }
      ],
      "stateMutability": "view",
      "type": "function"
    },
    {
      "inputs": [
        {
          "internalType": "bytes32",
          "name": "role",
          "type": "bytes32"
        },
        {
          "internalType": "address",
          "name": "account",
          "type": "address"
        }
      ],
      "name": "grantRole",
      "outputs": [],
      "stateMutability": "nonpayable",
      "type": "function"
    },
    {
      "inputs": [
        {
          "internalType": "bytes32",
          "name": "role",
          "type": "bytes32"
        },
        {
          "internalType": "address",
          "name": "account",
          "type": "address"
        }
      ],
      "name": "hasRole",
      "outputs": [
        {
          "internalType": "bool",
          "name": "",
          "type": "bool"
        }
      ],
      "stateMutability": "view",
      "type": "function"
    },
    {
      "inputs": [],
      "name": "minConfirmations",
      "outputs": [
        {
          "internalType": "uint256",
          "name": "",
          "type": "uint256"
        }
      ],
      "stateMutability": "view",
      "type": "function"
    },
    {
      "inputs": [
        {
          "internalType": "bytes32",
          "name": "role",
          "type": "bytes32"
        },
        {
          "internalType": "address",
          "name": "account",
          "type": "address"
        }
      ],
      "name": "renounceRole",
      "outputs": [],
      "stateMutability": "nonpayable",
      "type": "function"
    },
    {
      "inputs": [
        {
          "internalType": "bytes32",
          "name": "role",
          "type": "bytes32"
        },
        {
          "internalType": "address",
          "name": "account",
          "type": "address"
        }
      ],
      "name": "revokeRole",
      "outputs": [],
      "stateMutability": "nonpayable",
      "type": "function"
    },
    {
      "inputs": [
        {
          "internalType": "bytes4",
          "name": "interfaceId",
          "type": "bytes4"
        }
      ],
      "name": "supportsInterface",
      "outputs": [
        {
          "internalType": "bool",
          "name": "",
          "type": "bool"
        }
      ],
      "stateMutability": "view",
      "type": "function"
    },
    {
      "inputs": [
        {
          "internalType": "address",
          "name": "_oracle",
          "type": "address"
        },
        {
          "internalType": "address",
          "name": "_newOracleAdmin",
          "type": "address"
        }
      ],
      "name": "updateOracleAdmin",
      "outputs": [],
      "stateMutability": "nonpayable",
      "type": "function"
    },
    {
      "inputs": [
        {
          "internalType": "uint256",
          "name": "_minConfirmations",
          "type": "uint256"
        }
      ],
      "name": "setMinConfirmations",
      "outputs": [],
      "stateMutability": "nonpayable",
      "type": "function"
    },
    {
      "inputs": [
        {
          "internalType": "address",
          "name": "_oracle",
          "type": "address"
        },
        {
          "internalType": "address",
          "name": "_admin",
          "type": "address"
        }
      ],
      "name": "addOracle",
      "outputs": [],
      "stateMutability": "nonpayable",
      "type": "function"
    },
    {
      "inputs": [
        {
          "internalType": "address",
          "name": "_oracle",
          "type": "address"
        }
      ],
      "name": "removeOracle",
      "outputs": [],
      "stateMutability": "nonpayable",
      "type": "function"
    },
    {
      "inputs": [
        {
          "internalType": "bytes32",
          "name": "_debridgeId",
          "type": "bytes32"
        },
        {
          "internalType": "string",
          "name": "_name",
          "type": "string"
        },
        {
          "internalType": "string",
          "name": "_symbol",
          "type": "string"
        },
        {
          "internalType": "uint8",
          "name": "_decimals",
          "type": "uint8"
        }
      ],
      "name": "getDeployId",
      "outputs": [
        {
          "internalType": "bytes32",
          "name": "",
          "type": "bytes32"
        }
      ],
      "stateMutability": "pure",
      "type": "function"
    },
    {
      "inputs": [
        {
          "internalType": "uint256",
          "name": "_chainId",
          "type": "uint256"
        },
        {
          "internalType": "address",
          "name": "_tokenAddress",
          "type": "address"
        }
      ],
      "name": "getDebridgeId",
      "outputs": [
        {
          "internalType": "bytes32",
          "name": "",
          "type": "bytes32"
        }
      ],
      "stateMutability": "pure",
      "type": "function"
    }
  ],
  "bytecode": "0x608060405234801561001057600080fd5b50604051610b73380380610b7383398101604081905261002f9161011b565b600181905561003f60003361006f565b6100697f68e79a7bf1e0bc45d0a330c573bc367f9cf464fd326078812f301165fbda4ef13361006f565b50610133565b610079828261007d565b5050565b6000828152602081815260408083206001600160a01b038516845290915290205460ff16610079576000828152602081815260408083206001600160a01b03851684529091529020805460ff191660011790556100d73390565b6001600160a01b0316816001600160a01b0316837f2f8788117e7eff1d82e926ec794901d17c78024a50270940304540a733656f0d60405160405180910390a45050565b60006020828403121561012c578081fd5b5051919050565b610a31806101426000396000f3fe608060405234801561001057600080fd5b50600436106101005760003560e01c8063bfdb6b0411610097578063e75a592611610066578063e75a592614610255578063e7c4393e14610268578063f0ca4adb14610271578063fdc85fc41461028457610100565b8063bfdb6b04146101db578063d19c3dd81461021c578063d28216551461022f578063d547741f1461024257610100565b806336568abe116100d357806336568abe1461019a57806391d14854146101ad5780639682b909146101c0578063a217fddf146101d357610100565b806301ffc9a71461010557806307e2cea51461012d578063248a9ca3146101625780632f2ff15d14610185575b600080fd5b61011861011336600461091e565b610297565b60405190151581526020015b60405180910390f35b6101547f68e79a7bf1e0bc45d0a330c573bc367f9cf464fd326078812f301165fbda4ef181565b604051908152602001610124565b610154610170366004610862565b60009081526020819052604090206001015490565b61019861019336600461087a565b6102d0565b005b6101986101a836600461087a565b610364565b6101186101bb36600461087a565b6103de565b6101546101ce36600461087a565b610407565b610154600081565b6102046101e936600461080f565b6002602052600090815260409020546001600160a01b031681565b6040516001600160a01b039091168152602001610124565b61015461022a36600461089c565b610455565b61019861023d366004610862565b61048e565b61019861025036600461087a565b6104ba565b610198610263366004610830565b61053a565b61015460015481565b61019861027f366004610830565b6105e3565b61019861029236600461080f565b610634565b60006001600160e01b03198216637965db0b60e01b14806102c857506301ffc9a760e01b6001600160e01b03198316145b90505b919050565b6000828152602081905260409020600101546102ed905b336101bb565b6103565760405162461bcd60e51b815260206004820152602f60248201527f416363657373436f6e74726f6c3a2073656e646572206d75737420626520616e60448201526e0818591b5a5b881d1bc819dc985b9d608a1b60648201526084015b60405180910390fd5b6103608282610688565b5050565b6001600160a01b03811633146103d45760405162461bcd60e51b815260206004820152602f60248201527f416363657373436f6e74726f6c3a2063616e206f6e6c792072656e6f756e636560448201526e103937b632b9903337b91039b2b63360891b606482015260840161034d565b610360828261070c565b6000918252602082815260408084206001600160a01b0393909316845291905290205460ff1690565b6000828260405160200161043792919091825260601b6bffffffffffffffffffffffff1916602082015260340190565b60405160208183030381529060405280519060200120905092915050565b60008484848460405160200161046e949392919061097f565b604051602081830303815290604052805190602001209050949350505050565b6104996000336103de565b6104b55760405162461bcd60e51b815260040161034d906109b8565b600155565b6000828152602081905260409020600101546104d5906102e7565b6103d45760405162461bcd60e51b815260206004820152603060248201527f416363657373436f6e74726f6c3a2073656e646572206d75737420626520616e60448201526f2061646d696e20746f207265766f6b6560801b606482015260840161034d565b6001600160a01b038281166000908152600260205260409020541633146105b55760405162461bcd60e51b815260206004820152602960248201527f7570646174654f7261636c6541646d696e3a206f6e6c792063616c6c61626c6560448201526810313c9030b236b4b760b91b606482015260840161034d565b6001600160a01b03918216600090815260026020526040902080546001600160a01b03191691909216179055565b6105ee6000336103de565b61060a5760405162461bcd60e51b815260040161034d906109b8565b6105b57f68e79a7bf1e0bc45d0a330c573bc367f9cf464fd326078812f301165fbda4ef1836102d0565b61063f6000336103de565b61065b5760405162461bcd60e51b815260040161034d906109b8565b6106857f68e79a7bf1e0bc45d0a330c573bc367f9cf464fd326078812f301165fbda4ef1826104ba565b50565b61069282826103de565b610360576000828152602081815260408083206001600160a01b03851684529091529020805460ff191660011790556106c83390565b6001600160a01b0316816001600160a01b0316837f2f8788117e7eff1d82e926ec794901d17c78024a50270940304540a733656f0d60405160405180910390a45050565b61071682826103de565b15610360576000828152602081815260408083206001600160a01b0385168085529252808320805460ff1916905551339285917ff6391f5c32d9c69d2a47ea670b442974b53935d1edc7fd64eb21e047a839171b9190a45050565b80356001600160a01b03811681146102cb57600080fd5b600082601f830112610798578081fd5b813567ffffffffffffffff808211156107b3576107b36109e5565b604051601f8301601f19908116603f011681019082821181831017156107db576107db6109e5565b816040528381528660208588010111156107f3578485fd5b8360208701602083013792830160200193909352509392505050565b600060208284031215610820578081fd5b61082982610771565b9392505050565b60008060408385031215610842578081fd5b61084b83610771565b915061085960208401610771565b90509250929050565b600060208284031215610873578081fd5b5035919050565b6000806040838503121561088c578182fd5b8235915061085960208401610771565b600080600080608085870312156108b1578182fd5b84359350602085013567ffffffffffffffff808211156108cf578384fd5b6108db88838901610788565b945060408701359150808211156108f0578384fd5b506108fd87828801610788565b925050606085013560ff81168114610913578182fd5b939692955090935050565b60006020828403121561092f578081fd5b81356001600160e01b031981168114610829578182fd5b60008151815b81811015610966576020818501810151868301520161094c565b818111156109745782828601525b509290920192915050565b600085825261099a6109946020840187610946565b85610946565b60f89390931b6001600160f81b031916835250506001019392505050565b6020808252601390820152726f6e6c7941646d696e3a2062616420726f6c6560681b604082015260600190565b634e487b7160e01b600052604160045260246000fdfea264697066735822122087a1686a5a808c3204cb6262eec470c5efbd216fee07c90ea05ffb28e687485664736f6c63430008020033",
  "immutableReferences": {},
  "source": "// SPDX-License-Identifier: MIT\r\npragma solidity ^0.8.2;\r\n\r\nimport \"@openzeppelin/contracts/access/AccessControl.sol\";\r\nimport \"@openzeppelin/contracts/token/ERC20/IERC20.sol\";\r\n\r\ncontract Aggregator is AccessControl {\r\n    struct OracleInfo {\r\n        address admin; // current oracle admin\r\n    }\r\n    struct BlockConfirmationsInfo {\r\n        uint256 count; // current oracle admin\r\n        bool requireExtraCheck; // current oracle admin\r\n        mapping(bytes32 => bool) isConfirmed; // submission => was confirmed\r\n    }\r\n    struct PaymentInfo {\r\n        uint256 allocatedFunds; // asset's amount payed to oracles\r\n        uint256 availableFunds; // asset's amount available to be payed to oracles\r\n    }\r\n\r\n    bytes32 public constant ORACLE_ROLE = keccak256(\"ORACLE_ROLE\"); // role allowed to submit the data\r\n    uint256 public minConfirmations; // minimal required confirmations\r\n\r\n    mapping(address => OracleInfo) public getOracleInfo; // oracle address => oracle details\r\n\r\n    event DeployConfirmed(bytes32 deployId, address operator); // emitted once the submission is confirmed by one oracle\r\n    event DeployApproved(bytes32 deployId); // emitted once the submission is confirmed by min required aount of oracles\r\n\r\n    modifier onlyAdmin {\r\n        require(hasRole(DEFAULT_ADMIN_ROLE, msg.sender), \"onlyAdmin: bad role\");\r\n        _;\r\n    }\r\n    modifier onlyOracle {\r\n        require(hasRole(ORACLE_ROLE, msg.sender), \"onlyOracle: bad role\");\r\n        _;\r\n    }\r\n\r\n    /* PUBLIC */\r\n\r\n    /// @dev Constructor that initializes the most important configurations.\r\n    /// @param _minConfirmations Common confirmations count.\r\n    constructor(\r\n        uint256 _minConfirmations\r\n    ) {\r\n        minConfirmations = _minConfirmations;\r\n        _setupRole(DEFAULT_ADMIN_ROLE, msg.sender);\r\n        _setupRole(ORACLE_ROLE, msg.sender);\r\n    }\r\n\r\n    /// @dev Updates oracle's admin address.\r\n    /// @param _oracle Oracle address.\r\n    /// @param _newOracleAdmin New oracle address.\r\n    function updateOracleAdmin(address _oracle, address _newOracleAdmin)\r\n        external\r\n    {\r\n        require(\r\n            getOracleInfo[_oracle].admin == msg.sender,\r\n            \"updateOracleAdmin: only callable by admin\"\r\n        );\r\n        getOracleInfo[_oracle].admin = _newOracleAdmin;\r\n    }\r\n\r\n    /* ADMIN */\r\n\r\n\r\n    /// @dev Sets minimal required confirmations.\r\n    /// @param _minConfirmations Confirmation info.\r\n    function setMinConfirmations(uint256 _minConfirmations) public onlyAdmin {\r\n        minConfirmations = _minConfirmations;\r\n    }\r\n\r\n    /// @dev Add new oracle.\r\n    /// @param _oracle Oracle address.\r\n    /// @param _admin Admin address.\r\n    function addOracle(address _oracle, address _admin) external onlyAdmin {\r\n        grantRole(ORACLE_ROLE, _oracle);\r\n        getOracleInfo[_oracle].admin = _admin;\r\n    }\r\n\r\n    /// @dev Remove oracle.\r\n    /// @param _oracle Oracle address.\r\n    function removeOracle(address _oracle) external onlyAdmin {\r\n        revokeRole(ORACLE_ROLE, _oracle);\r\n    }\r\n\r\n    /* VIEW */\r\n\r\n    /// @dev Calculates asset identifier.\r\n    function getDeployId(\r\n        bytes32 _debridgeId,\r\n        string memory _name,\r\n        string memory _symbol,\r\n        uint8 _decimals\r\n    ) public pure returns (bytes32) {\r\n        return\r\n            keccak256(abi.encodePacked(_debridgeId, _name, _symbol, _decimals));\r\n    }\r\n\r\n    /// @dev Calculates asset identifier.\r\n    /// @param _chainId Current chain id.\r\n    /// @param _tokenAddress Address of the asset on the other chain.\r\n    function getDebridgeId(uint256 _chainId, address _tokenAddress)\r\n        public\r\n        pure\r\n        returns (bytes32)\r\n    {\r\n        return keccak256(abi.encodePacked(_chainId, _tokenAddress));\r\n    }\r\n}\r\n",
  "sourcePath": "D:\\Projects\\Debridge\\debridge-contracts-v1\\contracts\\chainlink\\Aggregator.sol",
  "compiler": {
    "name": "solc",
    "version": "0.8.2+commit.661d1103.Emscripten.clang"
  },
  "schemaVersion": "3.3.4",
  "updatedAt": "2021-07-18T21:07:26.018Z",
  "devdoc": {
    "kind": "dev",
    "methods": {
      "addOracle(address,address)": {
        "details": "Add new oracle.",
        "params": {
          "_admin": "Admin address.",
          "_oracle": "Oracle address."
        }
      },
      "constructor": {
        "details": "Constructor that initializes the most important configurations.",
        "params": {
          "_minConfirmations": "Common confirmations count."
        }
      },
      "getDebridgeId(uint256,address)": {
        "details": "Calculates asset identifier.",
        "params": {
          "_chainId": "Current chain id.",
          "_tokenAddress": "Address of the asset on the other chain."
        }
      },
      "getDeployId(bytes32,string,string,uint8)": {
        "details": "Calculates asset identifier."
      },
      "getRoleAdmin(bytes32)": {
        "details": "Returns the admin role that controls `role`. See {grantRole} and {revokeRole}. To change a role's admin, use {_setRoleAdmin}."
      },
      "grantRole(bytes32,address)": {
        "details": "Grants `role` to `account`. If `account` had not been already granted `role`, emits a {RoleGranted} event. Requirements: - the caller must have ``role``'s admin role."
      },
      "hasRole(bytes32,address)": {
        "details": "Returns `true` if `account` has been granted `role`."
      },
      "removeOracle(address)": {
        "details": "Remove oracle.",
        "params": {
          "_oracle": "Oracle address."
        }
      },
      "renounceRole(bytes32,address)": {
        "details": "Revokes `role` from the calling account. Roles are often managed via {grantRole} and {revokeRole}: this function's purpose is to provide a mechanism for accounts to lose their privileges if they are compromised (such as when a trusted device is misplaced). If the calling account had been granted `role`, emits a {RoleRevoked} event. Requirements: - the caller must be `account`."
      },
      "revokeRole(bytes32,address)": {
        "details": "Revokes `role` from `account`. If `account` had been granted `role`, emits a {RoleRevoked} event. Requirements: - the caller must have ``role``'s admin role."
      },
      "setMinConfirmations(uint256)": {
        "details": "Sets minimal required confirmations.",
        "params": {
          "_minConfirmations": "Confirmation info."
        }
      },
      "supportsInterface(bytes4)": {
        "details": "See {IERC165-supportsInterface}."
      },
      "updateOracleAdmin(address,address)": {
        "details": "Updates oracle's admin address.",
        "params": {
          "_newOracleAdmin": "New oracle address.",
          "_oracle": "Oracle address."
        }
      }
    },
    "version": 1
  },
  "userdoc": {
    "kind": "user",
    "methods": {},
    "version": 1
  }
}