{
  "contractName": "Aggregator",
  "abi": [
    {
      "inputs": [
        {
          "internalType": "uint256",
          "name": "_minConfirmations",
          "type": "uint256"
        },
        {
          "internalType": "uint256",
          "name": "_corePayment",
          "type": "uint256"
        },
        {
          "internalType": "uint256",
          "name": "_bonusPayment",
          "type": "uint256"
        },
        {
          "internalType": "contract IERC20",
          "name": "_coreToken",
          "type": "address"
        },
        {
          "internalType": "contract IERC20",
          "name": "_bonusToken",
          "type": "address"
        }
      ],
      "stateMutability": "nonpayable",
      "type": "constructor"
    },
    {
      "anonymous": false,
      "inputs": [
        {
          "indexed": true,
          "internalType": "bytes32",
          "name": "role",
          "type": "bytes32"
        },
        {
          "indexed": true,
          "internalType": "bytes32",
          "name": "previousAdminRole",
          "type": "bytes32"
        },
        {
          "indexed": true,
          "internalType": "bytes32",
          "name": "newAdminRole",
          "type": "bytes32"
        }
      ],
      "name": "RoleAdminChanged",
      "type": "event"
    },
    {
      "anonymous": false,
      "inputs": [
        {
          "indexed": true,
          "internalType": "bytes32",
          "name": "role",
          "type": "bytes32"
        },
        {
          "indexed": true,
          "internalType": "address",
          "name": "account",
          "type": "address"
        },
        {
          "indexed": true,
          "internalType": "address",
          "name": "sender",
          "type": "address"
        }
      ],
      "name": "RoleGranted",
      "type": "event"
    },
    {
      "anonymous": false,
      "inputs": [
        {
          "indexed": true,
          "internalType": "bytes32",
          "name": "role",
          "type": "bytes32"
        },
        {
          "indexed": true,
          "internalType": "address",
          "name": "account",
          "type": "address"
        },
        {
          "indexed": true,
          "internalType": "address",
          "name": "sender",
          "type": "address"
        }
      ],
      "name": "RoleRevoked",
      "type": "event"
    },
    {
      "inputs": [],
      "name": "DEFAULT_ADMIN_ROLE",
      "outputs": [
        {
          "internalType": "bytes32",
          "name": "",
          "type": "bytes32"
        }
      ],
      "stateMutability": "view",
      "type": "function"
    },
    {
      "inputs": [],
      "name": "ORACLE_ROLE",
      "outputs": [
        {
          "internalType": "bytes32",
          "name": "",
          "type": "bytes32"
        }
      ],
      "stateMutability": "view",
      "type": "function"
    },
    {
      "inputs": [],
      "name": "bonusPayment",
      "outputs": [
        {
          "internalType": "uint256",
          "name": "",
          "type": "uint256"
        }
      ],
      "stateMutability": "view",
      "type": "function"
    },
    {
      "inputs": [],
      "name": "bonusToken",
      "outputs": [
        {
          "internalType": "contract IERC20",
          "name": "",
          "type": "address"
        }
      ],
      "stateMutability": "view",
      "type": "function"
    },
    {
      "inputs": [],
      "name": "corePayment",
      "outputs": [
        {
          "internalType": "uint256",
          "name": "",
          "type": "uint256"
        }
      ],
      "stateMutability": "view",
      "type": "function"
    },
    {
      "inputs": [],
      "name": "coreToken",
      "outputs": [
        {
          "internalType": "contract IERC20",
          "name": "",
          "type": "address"
        }
      ],
      "stateMutability": "view",
      "type": "function"
    },
    {
      "inputs": [
        {
          "internalType": "address",
          "name": "",
          "type": "address"
        }
      ],
      "name": "getOracleInfo",
      "outputs": [
        {
          "internalType": "address",
          "name": "admin",
          "type": "address"
        }
      ],
      "stateMutability": "view",
      "type": "function"
    },
    {
      "inputs": [
        {
          "internalType": "contract IERC20",
          "name": "",
          "type": "address"
        }
      ],
      "name": "getPaymentInfo",
      "outputs": [
        {
          "internalType": "uint256",
          "name": "allocatedFunds",
          "type": "uint256"
        },
        {
          "internalType": "uint256",
          "name": "availableFunds",
          "type": "uint256"
        }
      ],
      "stateMutability": "view",
      "type": "function"
    },
    {
      "inputs": [
        {
          "internalType": "bytes32",
          "name": "role",
          "type": "bytes32"
        }
      ],
      "name": "getRoleAdmin",
      "outputs": [
        {
          "internalType": "bytes32",
          "name": "",
          "type": "bytes32"
        }
      ],
      "stateMutability": "view",
      "type": "function"
    },
    {
      "inputs": [
        {
          "internalType": "bytes32",
          "name": "role",
          "type": "bytes32"
        },
        {
          "internalType": "address",
          "name": "account",
          "type": "address"
        }
      ],
      "name": "grantRole",
      "outputs": [],
      "stateMutability": "nonpayable",
      "type": "function"
    },
    {
      "inputs": [
        {
          "internalType": "bytes32",
          "name": "role",
          "type": "bytes32"
        },
        {
          "internalType": "address",
          "name": "account",
          "type": "address"
        }
      ],
      "name": "hasRole",
      "outputs": [
        {
          "internalType": "bool",
          "name": "",
          "type": "bool"
        }
      ],
      "stateMutability": "view",
      "type": "function"
    },
    {
      "inputs": [],
      "name": "minConfirmations",
      "outputs": [
        {
          "internalType": "uint256",
          "name": "",
          "type": "uint256"
        }
      ],
      "stateMutability": "view",
      "type": "function"
    },
    {
      "inputs": [
        {
          "internalType": "bytes32",
          "name": "role",
          "type": "bytes32"
        },
        {
          "internalType": "address",
          "name": "account",
          "type": "address"
        }
      ],
      "name": "renounceRole",
      "outputs": [],
      "stateMutability": "nonpayable",
      "type": "function"
    },
    {
      "inputs": [
        {
          "internalType": "bytes32",
          "name": "role",
          "type": "bytes32"
        },
        {
          "internalType": "address",
          "name": "account",
          "type": "address"
        }
      ],
      "name": "revokeRole",
      "outputs": [],
      "stateMutability": "nonpayable",
      "type": "function"
    },
    {
      "inputs": [
        {
          "internalType": "bytes4",
          "name": "interfaceId",
          "type": "bytes4"
        }
      ],
      "name": "supportsInterface",
      "outputs": [
        {
          "internalType": "bool",
          "name": "",
          "type": "bool"
        }
      ],
      "stateMutability": "view",
      "type": "function"
    },
    {
      "inputs": [
        {
          "internalType": "address",
          "name": "_oracle",
          "type": "address"
        },
        {
          "internalType": "address",
          "name": "_recipient",
          "type": "address"
        },
        {
          "internalType": "contract IERC20",
          "name": "_asset",
          "type": "address"
        },
        {
          "internalType": "uint256",
          "name": "_amount",
          "type": "uint256"
        }
      ],
      "name": "withdrawPayment",
      "outputs": [],
      "stateMutability": "nonpayable",
      "type": "function"
    },
    {
      "inputs": [
        {
          "internalType": "address",
          "name": "_oracle",
          "type": "address"
        },
        {
          "internalType": "address",
          "name": "_newOracleAdmin",
          "type": "address"
        }
      ],
      "name": "updateOracleAdmin",
      "outputs": [],
      "stateMutability": "nonpayable",
      "type": "function"
    },
    {
      "inputs": [
        {
          "internalType": "contract IERC20",
          "name": "_asset",
          "type": "address"
        }
      ],
      "name": "updateAvailableFunds",
      "outputs": [],
      "stateMutability": "nonpayable",
      "type": "function"
    },
    {
      "inputs": [
        {
          "internalType": "address",
          "name": "",
          "type": "address"
        },
        {
          "internalType": "uint256",
          "name": "",
          "type": "uint256"
        },
        {
          "internalType": "bytes",
          "name": "_data",
          "type": "bytes"
        }
      ],
      "name": "onTokenTransfer",
      "outputs": [],
      "stateMutability": "nonpayable",
      "type": "function"
    },
    {
      "inputs": [
        {
          "internalType": "contract IERC20",
          "name": "_asset",
          "type": "address"
        },
        {
          "internalType": "address",
          "name": "_recipient",
          "type": "address"
        },
        {
          "internalType": "uint256",
          "name": "_amount",
          "type": "uint256"
        }
      ],
      "name": "withdrawFunds",
      "outputs": [],
      "stateMutability": "nonpayable",
      "type": "function"
    },
    {
      "inputs": [
        {
          "internalType": "uint256",
          "name": "_minConfirmations",
          "type": "uint256"
        }
      ],
      "name": "setMinConfirmations",
      "outputs": [],
      "stateMutability": "nonpayable",
      "type": "function"
    },
    {
      "inputs": [
        {
          "internalType": "uint256",
          "name": "_corePayment",
          "type": "uint256"
        },
        {
          "internalType": "uint256",
          "name": "_bonusPayment",
          "type": "uint256"
        }
      ],
      "name": "setPayment",
      "outputs": [],
      "stateMutability": "nonpayable",
      "type": "function"
    },
    {
      "inputs": [
        {
          "internalType": "address",
          "name": "_oracle",
          "type": "address"
        },
        {
          "internalType": "address",
          "name": "_admin",
          "type": "address"
        }
      ],
      "name": "addOracle",
      "outputs": [],
      "stateMutability": "nonpayable",
      "type": "function"
    },
    {
      "inputs": [
        {
          "internalType": "address",
          "name": "_oracle",
          "type": "address"
        }
      ],
      "name": "removeOracle",
      "outputs": [],
      "stateMutability": "nonpayable",
      "type": "function"
    },
    {
      "inputs": [
        {
          "internalType": "contract IERC20",
          "name": "_asset",
          "type": "address"
        },
        {
          "internalType": "address",
          "name": "_oracle",
          "type": "address"
        }
      ],
      "name": "getWithdrawable",
      "outputs": [
        {
          "internalType": "uint256",
          "name": "",
          "type": "uint256"
        }
      ],
      "stateMutability": "view",
      "type": "function"
    }
  ],
  "bytecode": "0x60806040523480156200001157600080fd5b50604051620011d0380380620011d0833981016040819052620000349162000184565b6003859055600480546001600160a01b038085166001600160a01b03199283161790925560058054928416929091169190911790556001849055600283905562000080600033620000b7565b620000ac7f68e79a7bf1e0bc45d0a330c573bc367f9cf464fd326078812f301165fbda4ef133620000b7565b5050505050620001d8565b620000c38282620000c7565b5050565b6000828152602081815260408083206001600160a01b038516845290915290205460ff16620000c3576000828152602081815260408083206001600160a01b03851684529091529020805460ff19166001179055620001233390565b6001600160a01b0316816001600160a01b0316837f2f8788117e7eff1d82e926ec794901d17c78024a50270940304540a733656f0d60405160405180910390a45050565b80516001600160a01b03811681146200017f57600080fd5b919050565b600080600080600060a086880312156200019c578081fd5b855194506020860151935060408601519250620001bc6060870162000167565b9150620001cc6080870162000167565b90509295509295909350565b610fe880620001e86000396000f3fe608060405234801561001057600080fd5b50600436106101735760003560e01c80637885f23b116100de578063cd28311811610097578063e75a592611610071578063e75a5926146103b3578063e7c4393e146103c6578063f0ca4adb146103cf578063fdc85fc4146103e257610173565b8063cd28311814610384578063d28216551461038d578063d547741f146103a057610173565b80637885f23b146102dc57806391d14854146102ef578063a217fddf14610302578063a490c5ac1461030a578063a4c0ed3614610348578063bfdb6b041461035b57610173565b8063248a9ca311610130578063248a9ca31461025a5780632f2ff15d1461027d57806333e207561461029057806336568abe146102a357806341d4a1ab146102b65780634c083773146102c957610173565b806301ffc9a71461017857806307e2cea5146101a057806308b8304b146101d55780630c2b72e9146101de57806312c65b8c146102095780631c20fadd14610245575b600080fd5b61018b610186366004610e9a565b6103f5565b60405190151581526020015b60405180910390f35b6101c77f68e79a7bf1e0bc45d0a330c573bc367f9cf464fd326078812f301165fbda4ef181565b604051908152602001610197565b6101c760015481565b6004546101f1906001600160a01b031681565b6040516001600160a01b039091168152602001610197565b610230610217366004610d0f565b6007602052600090815260409020805460019091015482565b60408051928352602083019190915201610197565b610258610253366004610ed4565b61042c565b005b6101c7610268366004610e5e565b60009081526020819052604090206001015490565b61025861028b366004610e76565b6105b5565b61025861029e366004610f2c565b610644565b6102586102b1366004610e76565b610676565b6005546101f1906001600160a01b031681565b6102586102d7366004610d6a565b6106f0565b6102586102ea366004610d0f565b6108f4565b61018b6102fd366004610e76565b6109a6565b6101c7600081565b6101c7610318366004610ec2565b6001600160a01b038082166000908152600660209081526040808320938616835260019093019052205492915050565b610258610356366004610dba565b6109cf565b6101f1610369366004610d0f565b6006602052600090815260409020546001600160a01b031681565b6101c760025481565b61025861039b366004610e5e565b610a2c565b6102586103ae366004610e76565b610a58565b6102586103c1366004610d32565b610ad8565b6101c760035481565b6102586103dd366004610d32565b610b81565b6102586103f0366004610d0f565b610bd2565b60006001600160e01b03198216637965db0b60e01b148061042657506301ffc9a760e01b6001600160e01b03198316145b92915050565b6104376000336109a6565b61045c5760405162461bcd60e51b815260040161045390610f4d565b60405180910390fd5b6001600160a01b0383166000908152600760205260409020600101548111156104d95760405162461bcd60e51b815260206004820152602960248201527f776974686472617746756e64733a20696e73756666696369656e7420726573656044820152687276652066756e647360b81b6064820152608401610453565b60405163a9059cbb60e01b81526001600160a01b0383811660048301526024820183905284169063a9059cbb90604401602060405180830381600087803b15801561052357600080fd5b505af1158015610537573d6000803e3d6000fd5b505050506040513d601f19601f8201168201806040525081019061055b9190610e3e565b6105a75760405162461bcd60e51b815260206004820152601e60248201527f776974686472617746756e64733a207472616e73666572206661696c656400006044820152606401610453565b6105b0836108f4565b505050565b6000828152602081905260409020600101546105d2905b336102fd565b6106365760405162461bcd60e51b815260206004820152602f60248201527f416363657373436f6e74726f6c3a2073656e646572206d75737420626520616e60448201526e0818591b5a5b881d1bc819dc985b9d608a1b6064820152608401610453565b6106408282610c26565b5050565b61064f6000336109a6565b61066b5760405162461bcd60e51b815260040161045390610f4d565b600191909155600255565b6001600160a01b03811633146106e65760405162461bcd60e51b815260206004820152602f60248201527f416363657373436f6e74726f6c3a2063616e206f6e6c792072656e6f756e636560448201526e103937b632b9903337b91039b2b63360891b6064820152608401610453565b6106408282610caa565b6001600160a01b038481166000908152600660205260409020541633146107695760405162461bcd60e51b815260206004820152602760248201527f77697468647261775061796d656e743a206f6e6c792063616c6c61626c6520626044820152663c9030b236b4b760c91b6064820152608401610453565b6001600160a01b0380851660009081526006602090815260408083209386168352600190930190522054818110156107fc5760405162461bcd60e51b815260206004820152603060248201527f77697468647261775061796d656e743a20696e73756666696369656e7420776960448201526f74686472617761626c652066756e647360801b6064820152608401610453565b6108068282610f7a565b6001600160a01b0380871660009081526006602090815260408083209388168352600190930181528282209390935560079092528120805484929061084c908490610f7a565b909155505060405163a9059cbb60e01b81526001600160a01b0385811660048301526024820184905284169063a9059cbb90604401602060405180830381600087803b15801561089b57600080fd5b505af11580156108af573d6000803e3d6000fd5b505050506040513d601f19601f820116820180604052508101906108d39190610e3e565b6108ed57634e487b7160e01b600052600160045260246000fd5b5050505050565b6001600160a01b038116600081815260076020526040908190205490516370a0823160e01b81523060048201529091906370a082319060240160206040518083038186803b15801561094557600080fd5b505afa158015610959573d6000803e3d6000fd5b505050506040513d601f19601f8201168201806040525081019061097d9190610f14565b6109879190610f7a565b6001600160a01b03909116600090815260076020526040902060010155565b6000918252602082815260408084206001600160a01b0393909316845291905290205460ff1690565b8015610a1d5760405162461bcd60e51b815260206004820181905260248201527f7472616e7366657220646f65736e2774206163636570742063616c6c646174616044820152606401610453565b610a26336108f4565b50505050565b610a376000336109a6565b610a535760405162461bcd60e51b815260040161045390610f4d565b600355565b600082815260208190526040902060010154610a73906105cc565b6106e65760405162461bcd60e51b815260206004820152603060248201527f416363657373436f6e74726f6c3a2073656e646572206d75737420626520616e60448201526f2061646d696e20746f207265766f6b6560801b6064820152608401610453565b6001600160a01b03828116600090815260066020526040902054163314610b535760405162461bcd60e51b815260206004820152602960248201527f7570646174654f7261636c6541646d696e3a206f6e6c792063616c6c61626c6560448201526810313c9030b236b4b760b91b6064820152608401610453565b6001600160a01b03918216600090815260066020526040902080546001600160a01b03191691909216179055565b610b8c6000336109a6565b610ba85760405162461bcd60e51b815260040161045390610f4d565b610b537f68e79a7bf1e0bc45d0a330c573bc367f9cf464fd326078812f301165fbda4ef1836105b5565b610bdd6000336109a6565b610bf95760405162461bcd60e51b815260040161045390610f4d565b610c237f68e79a7bf1e0bc45d0a330c573bc367f9cf464fd326078812f301165fbda4ef182610a58565b50565b610c3082826109a6565b610640576000828152602081815260408083206001600160a01b03851684529091529020805460ff19166001179055610c663390565b6001600160a01b0316816001600160a01b0316837f2f8788117e7eff1d82e926ec794901d17c78024a50270940304540a733656f0d60405160405180910390a45050565b610cb482826109a6565b15610640576000828152602081815260408083206001600160a01b0385168085529252808320805460ff1916905551339285917ff6391f5c32d9c69d2a47ea670b442974b53935d1edc7fd64eb21e047a839171b9190a45050565b600060208284031215610d20578081fd5b8135610d2b81610f9d565b9392505050565b60008060408385031215610d44578081fd5b8235610d4f81610f9d565b91506020830135610d5f81610f9d565b809150509250929050565b60008060008060808587031215610d7f578182fd5b8435610d8a81610f9d565b93506020850135610d9a81610f9d565b92506040850135610daa81610f9d565b9396929550929360600135925050565b60008060008060608587031215610dcf578384fd5b8435610dda81610f9d565b935060208501359250604085013567ffffffffffffffff80821115610dfd578384fd5b818701915087601f830112610e10578384fd5b813581811115610e1e578485fd5b886020828501011115610e2f578485fd5b95989497505060200194505050565b600060208284031215610e4f578081fd5b81518015158114610d2b578182fd5b600060208284031215610e6f578081fd5b5035919050565b60008060408385031215610e88578182fd5b823591506020830135610d5f81610f9d565b600060208284031215610eab578081fd5b81356001600160e01b031981168114610d2b578182fd5b60008060408385031215610d44578182fd5b600080600060608486031215610ee8578283fd5b8335610ef381610f9d565b92506020840135610f0381610f9d565b929592945050506040919091013590565b600060208284031215610f25578081fd5b5051919050565b60008060408385031215610f3e578182fd5b50508035926020909101359150565b6020808252601390820152726f6e6c7941646d696e3a2062616420726f6c6560681b604082015260600190565b600082821015610f9857634e487b7160e01b81526011600452602481fd5b500390565b6001600160a01b0381168114610c2357600080fdfea26469706673582212204f7e27dde7103dc433940e354f2f11991d85c6e6e387b19c04386190b588eb7a64736f6c63430008020033",
  "immutableReferences": {},
  "source": "// SPDX-License-Identifier: MIT\npragma solidity ^0.8.2;\n\nimport \"@openzeppelin/contracts/access/AccessControl.sol\";\nimport \"@openzeppelin/contracts/token/ERC20/IERC20.sol\";\n\ncontract Aggregator is AccessControl {\n    struct OracleInfo {\n        address admin; // current oracle admin\n        mapping(IERC20 => uint256) balances; // balances\n    }\n    struct BlockConfirmationsInfo {\n        uint256 count; // current oracle admin\n        bool requireExtraCheck; // current oracle admin\n        mapping(bytes32 => bool) isConfirmed; // submission => was confirmed\n    }\n    struct PaymentInfo {\n        uint256 allocatedFunds; // asset's amount payed to oracles\n        uint256 availableFunds; // asset's amount available to be payed to oracles\n    }\n\n    bytes32 public constant ORACLE_ROLE = keccak256(\"ORACLE_ROLE\"); // role allowed to submit the data\n    uint256 public corePayment; // payment for one submission\n    uint256 public bonusPayment; // bonus reward for one submission\n    uint256 public minConfirmations; // minimal required confirmations\n    IERC20 public coreToken; // LINK's token address\n    IERC20 public bonusToken; // DBR's token address\n    mapping(address => OracleInfo) public getOracleInfo; // oracle address => oracle details\n    mapping(IERC20 => PaymentInfo) public getPaymentInfo; // asset address => funds details\n\n    modifier onlyAdmin {\n        require(hasRole(DEFAULT_ADMIN_ROLE, msg.sender), \"onlyAdmin: bad role\");\n        _;\n    }\n    modifier onlyOracle {\n        require(hasRole(ORACLE_ROLE, msg.sender), \"onlyOracle: bad role\");\n        _;\n    }\n\n    /* PUBLIC */\n\n    /// @dev Constructor that initializes the most important configurations.\n    /// @param _minConfirmations Common confirmations count.\n    /// @param _corePayment Oracle reward.\n    /// @param _bonusPayment Oracle reward.\n    /// @param _coreToken Link token to pay to oracles.\n    /// @param _bonusToken DBR token to pay to oracles.\n    constructor(\n        uint256 _minConfirmations,\n        uint256 _corePayment,\n        uint256 _bonusPayment,\n        IERC20 _coreToken,\n        IERC20 _bonusToken\n    ) {\n        minConfirmations = _minConfirmations;\n        coreToken = _coreToken;\n        bonusToken = _bonusToken;\n        corePayment = _corePayment;\n        bonusPayment = _bonusPayment;\n        _setupRole(DEFAULT_ADMIN_ROLE, msg.sender);\n        _setupRole(ORACLE_ROLE, msg.sender);\n    }\n\n    /// @dev Withdraws oracle reward.\n    /// @param _oracle Oracle address.\n    /// @param _recipient Recepient reward.\n    /// @param _amount Amount to withdraw.\n    function withdrawPayment(\n        address _oracle,\n        address _recipient,\n        IERC20 _asset,\n        uint256 _amount\n    ) external {\n        require(\n            getOracleInfo[_oracle].admin == msg.sender,\n            \"withdrawPayment: only callable by admin\"\n        );\n        uint256 available = getOracleInfo[_oracle].balances[_asset];\n        require(\n            available >= _amount,\n            \"withdrawPayment: insufficient withdrawable funds\"\n        );\n        getOracleInfo[_oracle].balances[_asset] = available - _amount;\n        getPaymentInfo[_asset].allocatedFunds -= _amount;\n        assert(_asset.transfer(_recipient, _amount));\n    }\n\n    /// @dev Updates oracle's admin address.\n    /// @param _oracle Oracle address.\n    /// @param _newOracleAdmin New oracle address.\n    function updateOracleAdmin(address _oracle, address _newOracleAdmin)\n        external\n    {\n        require(\n            getOracleInfo[_oracle].admin == msg.sender,\n            \"updateOracleAdmin: only callable by admin\"\n        );\n        getOracleInfo[_oracle].admin = _newOracleAdmin;\n    }\n\n    /// @dev Updates available rewards to be distributed.\n    function updateAvailableFunds(IERC20 _asset) public {\n        getPaymentInfo[_asset].availableFunds =\n            _asset.balanceOf(address(this)) -\n            getPaymentInfo[_asset].allocatedFunds;\n    }\n\n    /// @dev Updates link balance.\n    /// @param _data Call data.\n    function onTokenTransfer(\n        address,\n        uint256,\n        bytes calldata _data\n    ) external {\n        require(_data.length == 0, \"transfer doesn't accept calldata\");\n        updateAvailableFunds(IERC20(msg.sender));\n    }\n\n    /* ADMIN */\n\n    /// @dev Withdraws earned LINK's.\n    /// @param _recipient Reward's recepient.\n    /// @param _amount Amount to withdraw.\n    function withdrawFunds(\n        IERC20 _asset,\n        address _recipient,\n        uint256 _amount\n    ) external onlyAdmin() {\n        require(\n            uint256(getPaymentInfo[_asset].availableFunds) >= _amount,\n            \"withdrawFunds: insufficient reserve funds\"\n        );\n        require(\n            _asset.transfer(_recipient, _amount),\n            \"withdrawFunds: transfer failed\"\n        );\n        updateAvailableFunds(_asset);\n    }\n\n    /// @dev Sets minimal required confirmations.\n    /// @param _minConfirmations Confirmation info.\n    function setMinConfirmations(uint256 _minConfirmations) public onlyAdmin {\n        minConfirmations = _minConfirmations;\n    }\n\n    /// @dev Sets new oracle reward.\n    /// @param _corePayment Oracle reward.\n    /// @param _bonusPayment Oracle reward.\n    function setPayment(uint256 _corePayment, uint256 _bonusPayment)\n        external\n        onlyAdmin\n    {\n        corePayment = _corePayment;\n        bonusPayment = _bonusPayment;\n    }\n\n    /// @dev Add new oracle.\n    /// @param _oracle Oracle address.\n    /// @param _admin Admin address.\n    function addOracle(address _oracle, address _admin) external onlyAdmin {\n        grantRole(ORACLE_ROLE, _oracle);\n        getOracleInfo[_oracle].admin = _admin;\n    }\n\n    /// @dev Remove oracle.\n    /// @param _oracle Oracle address.\n    function removeOracle(address _oracle) external onlyAdmin {\n        revokeRole(ORACLE_ROLE, _oracle);\n    }\n\n    /* INTERNAL */\n\n    /// @dev Assess teh oracle rewards.\n    /// @param _oracle Oracle address.\n    function _payOracle(address _oracle) internal {\n        getPaymentInfo[coreToken].availableFunds -= corePayment;\n        getPaymentInfo[coreToken].allocatedFunds += corePayment;\n        getOracleInfo[_oracle].balances[coreToken] += corePayment;\n        getPaymentInfo[bonusToken].availableFunds -= bonusPayment;\n        getPaymentInfo[bonusToken].allocatedFunds += bonusPayment;\n        getOracleInfo[_oracle].balances[bonusToken] += bonusPayment;\n    }\n\n    /* VIEW */\n\n    /// @dev Return's oracle reward.\n    /// @param _oracle Oracle address.\n    /// @return Oracle rewards.\n    function getWithdrawable(IERC20 _asset, address _oracle)\n        external\n        view\n        returns (uint256)\n    {\n        return getOracleInfo[_oracle].balances[_asset];\n    }\n}\n",
  "sourcePath": "/root/debridge-contracts/contracts/chainlink/Aggregator.sol",
  "compiler": {
    "name": "solc",
    "version": "0.8.2+commit.661d1103.Emscripten.clang"
  },
  "schemaVersion": "3.3.4",
  "updatedAt": "2021-06-20T15:43:29.251Z",
  "devdoc": {
    "kind": "dev",
    "methods": {
      "addOracle(address,address)": {
        "details": "Add new oracle.",
        "params": {
          "_admin": "Admin address.",
          "_oracle": "Oracle address."
        }
      },
      "constructor": {
        "details": "Constructor that initializes the most important configurations.",
        "params": {
          "_bonusPayment": "Oracle reward.",
          "_bonusToken": "DBR token to pay to oracles.",
          "_corePayment": "Oracle reward.",
          "_coreToken": "Link token to pay to oracles.",
          "_minConfirmations": "Common confirmations count."
        }
      },
      "getRoleAdmin(bytes32)": {
        "details": "Returns the admin role that controls `role`. See {grantRole} and {revokeRole}. To change a role's admin, use {_setRoleAdmin}."
      },
      "getWithdrawable(address,address)": {
        "details": "Return's oracle reward.",
        "params": {
          "_oracle": "Oracle address."
        },
        "returns": {
          "_0": "Oracle rewards."
        }
      },
      "grantRole(bytes32,address)": {
        "details": "Grants `role` to `account`. If `account` had not been already granted `role`, emits a {RoleGranted} event. Requirements: - the caller must have ``role``'s admin role."
      },
      "hasRole(bytes32,address)": {
        "details": "Returns `true` if `account` has been granted `role`."
      },
      "onTokenTransfer(address,uint256,bytes)": {
        "details": "Updates link balance.",
        "params": {
          "_data": "Call data."
        }
      },
      "removeOracle(address)": {
        "details": "Remove oracle.",
        "params": {
          "_oracle": "Oracle address."
        }
      },
      "renounceRole(bytes32,address)": {
        "details": "Revokes `role` from the calling account. Roles are often managed via {grantRole} and {revokeRole}: this function's purpose is to provide a mechanism for accounts to lose their privileges if they are compromised (such as when a trusted device is misplaced). If the calling account had been granted `role`, emits a {RoleRevoked} event. Requirements: - the caller must be `account`."
      },
      "revokeRole(bytes32,address)": {
        "details": "Revokes `role` from `account`. If `account` had been granted `role`, emits a {RoleRevoked} event. Requirements: - the caller must have ``role``'s admin role."
      },
      "setMinConfirmations(uint256)": {
        "details": "Sets minimal required confirmations.",
        "params": {
          "_minConfirmations": "Confirmation info."
        }
      },
      "setPayment(uint256,uint256)": {
        "details": "Sets new oracle reward.",
        "params": {
          "_bonusPayment": "Oracle reward.",
          "_corePayment": "Oracle reward."
        }
      },
      "supportsInterface(bytes4)": {
        "details": "See {IERC165-supportsInterface}."
      },
      "updateAvailableFunds(address)": {
        "details": "Updates available rewards to be distributed."
      },
      "updateOracleAdmin(address,address)": {
        "details": "Updates oracle's admin address.",
        "params": {
          "_newOracleAdmin": "New oracle address.",
          "_oracle": "Oracle address."
        }
      },
      "withdrawFunds(address,address,uint256)": {
        "details": "Withdraws earned LINK's.",
        "params": {
          "_amount": "Amount to withdraw.",
          "_recipient": "Reward's recepient."
        }
      },
      "withdrawPayment(address,address,address,uint256)": {
        "details": "Withdraws oracle reward.",
        "params": {
          "_amount": "Amount to withdraw.",
          "_oracle": "Oracle address.",
          "_recipient": "Recepient reward."
        }
      }
    },
    "version": 1
  },
  "userdoc": {
    "kind": "user",
    "methods": {},
    "version": 1
  }
}