{
  "contractName": "Aggregator",
  "abi": [
    {
      "inputs": [
        {
          "internalType": "uint256",
          "name": "_minConfirmations",
          "type": "uint256"
        },
        {
          "internalType": "uint128",
          "name": "_payment",
          "type": "uint128"
        },
        {
          "internalType": "contract IERC20",
          "name": "_link",
          "type": "address"
        }
      ],
      "stateMutability": "nonpayable",
      "type": "constructor"
    },
    {
      "anonymous": false,
      "inputs": [
        {
          "indexed": true,
          "internalType": "bytes32",
          "name": "role",
          "type": "bytes32"
        },
        {
          "indexed": true,
          "internalType": "bytes32",
          "name": "previousAdminRole",
          "type": "bytes32"
        },
        {
          "indexed": true,
          "internalType": "bytes32",
          "name": "newAdminRole",
          "type": "bytes32"
        }
      ],
      "name": "RoleAdminChanged",
      "type": "event"
    },
    {
      "anonymous": false,
      "inputs": [
        {
          "indexed": true,
          "internalType": "bytes32",
          "name": "role",
          "type": "bytes32"
        },
        {
          "indexed": true,
          "internalType": "address",
          "name": "account",
          "type": "address"
        },
        {
          "indexed": true,
          "internalType": "address",
          "name": "sender",
          "type": "address"
        }
      ],
      "name": "RoleGranted",
      "type": "event"
    },
    {
      "anonymous": false,
      "inputs": [
        {
          "indexed": true,
          "internalType": "bytes32",
          "name": "role",
          "type": "bytes32"
        },
        {
          "indexed": true,
          "internalType": "address",
          "name": "account",
          "type": "address"
        },
        {
          "indexed": true,
          "internalType": "address",
          "name": "sender",
          "type": "address"
        }
      ],
      "name": "RoleRevoked",
      "type": "event"
    },
    {
      "inputs": [],
      "name": "DEFAULT_ADMIN_ROLE",
      "outputs": [
        {
          "internalType": "bytes32",
          "name": "",
          "type": "bytes32"
        }
      ],
      "stateMutability": "view",
      "type": "function"
    },
    {
      "inputs": [],
      "name": "ORACLE_ROLE",
      "outputs": [
        {
          "internalType": "bytes32",
          "name": "",
          "type": "bytes32"
        }
      ],
      "stateMutability": "view",
      "type": "function"
    },
    {
      "inputs": [],
      "name": "allocatedFunds",
      "outputs": [
        {
          "internalType": "uint256",
          "name": "",
          "type": "uint256"
        }
      ],
      "stateMutability": "view",
      "type": "function"
    },
    {
      "inputs": [],
      "name": "availableFunds",
      "outputs": [
        {
          "internalType": "uint256",
          "name": "",
          "type": "uint256"
        }
      ],
      "stateMutability": "view",
      "type": "function"
    },
    {
      "inputs": [
        {
          "internalType": "address",
          "name": "",
          "type": "address"
        }
      ],
      "name": "getOracleInfo",
      "outputs": [
        {
          "internalType": "uint256",
          "name": "withdrawable",
          "type": "uint256"
        },
        {
          "internalType": "address",
          "name": "admin",
          "type": "address"
        }
      ],
      "stateMutability": "view",
      "type": "function"
    },
    {
      "inputs": [
        {
          "internalType": "bytes32",
          "name": "role",
          "type": "bytes32"
        }
      ],
      "name": "getRoleAdmin",
      "outputs": [
        {
          "internalType": "bytes32",
          "name": "",
          "type": "bytes32"
        }
      ],
      "stateMutability": "view",
      "type": "function"
    },
    {
      "inputs": [
        {
          "internalType": "bytes32",
          "name": "role",
          "type": "bytes32"
        },
        {
          "internalType": "address",
          "name": "account",
          "type": "address"
        }
      ],
      "name": "grantRole",
      "outputs": [],
      "stateMutability": "nonpayable",
      "type": "function"
    },
    {
      "inputs": [
        {
          "internalType": "bytes32",
          "name": "role",
          "type": "bytes32"
        },
        {
          "internalType": "address",
          "name": "account",
          "type": "address"
        }
      ],
      "name": "hasRole",
      "outputs": [
        {
          "internalType": "bool",
          "name": "",
          "type": "bool"
        }
      ],
      "stateMutability": "view",
      "type": "function"
    },
    {
      "inputs": [],
      "name": "link",
      "outputs": [
        {
          "internalType": "contract IERC20",
          "name": "",
          "type": "address"
        }
      ],
      "stateMutability": "view",
      "type": "function"
    },
    {
      "inputs": [],
      "name": "minConfirmations",
      "outputs": [
        {
          "internalType": "uint256",
          "name": "",
          "type": "uint256"
        }
      ],
      "stateMutability": "view",
      "type": "function"
    },
    {
      "inputs": [],
      "name": "payment",
      "outputs": [
        {
          "internalType": "uint256",
          "name": "",
          "type": "uint256"
        }
      ],
      "stateMutability": "view",
      "type": "function"
    },
    {
      "inputs": [
        {
          "internalType": "bytes32",
          "name": "role",
          "type": "bytes32"
        },
        {
          "internalType": "address",
          "name": "account",
          "type": "address"
        }
      ],
      "name": "renounceRole",
      "outputs": [],
      "stateMutability": "nonpayable",
      "type": "function"
    },
    {
      "inputs": [
        {
          "internalType": "bytes32",
          "name": "role",
          "type": "bytes32"
        },
        {
          "internalType": "address",
          "name": "account",
          "type": "address"
        }
      ],
      "name": "revokeRole",
      "outputs": [],
      "stateMutability": "nonpayable",
      "type": "function"
    },
    {
      "inputs": [
        {
          "internalType": "bytes4",
          "name": "interfaceId",
          "type": "bytes4"
        }
      ],
      "name": "supportsInterface",
      "outputs": [
        {
          "internalType": "bool",
          "name": "",
          "type": "bool"
        }
      ],
      "stateMutability": "view",
      "type": "function"
    },
    {
      "inputs": [
        {
          "internalType": "address",
          "name": "_oracle",
          "type": "address"
        },
        {
          "internalType": "address",
          "name": "_recipient",
          "type": "address"
        },
        {
          "internalType": "uint256",
          "name": "_amount",
          "type": "uint256"
        }
      ],
      "name": "withdrawPayment",
      "outputs": [],
      "stateMutability": "nonpayable",
      "type": "function"
    },
    {
      "inputs": [],
      "name": "updateAvailableFunds",
      "outputs": [],
      "stateMutability": "nonpayable",
      "type": "function"
    },
    {
      "inputs": [
        {
          "internalType": "address",
          "name": "",
          "type": "address"
        },
        {
          "internalType": "uint256",
          "name": "",
          "type": "uint256"
        },
        {
          "internalType": "bytes",
          "name": "_data",
          "type": "bytes"
        }
      ],
      "name": "onTokenTransfer",
      "outputs": [],
      "stateMutability": "nonpayable",
      "type": "function"
    },
    {
      "inputs": [
        {
          "internalType": "address",
          "name": "_recipient",
          "type": "address"
        },
        {
          "internalType": "uint256",
          "name": "_amount",
          "type": "uint256"
        }
      ],
      "name": "withdrawFunds",
      "outputs": [],
      "stateMutability": "nonpayable",
      "type": "function"
    },
    {
      "inputs": [
        {
          "internalType": "uint256",
          "name": "_minConfirmations",
          "type": "uint256"
        }
      ],
      "name": "setMinConfirmations",
      "outputs": [],
      "stateMutability": "nonpayable",
      "type": "function"
    },
    {
      "inputs": [
        {
          "internalType": "uint128",
          "name": "_payment",
          "type": "uint128"
        }
      ],
      "name": "setPayment",
      "outputs": [],
      "stateMutability": "nonpayable",
      "type": "function"
    },
    {
      "inputs": [
        {
          "internalType": "address",
          "name": "_oracle",
          "type": "address"
        },
        {
          "internalType": "address",
          "name": "_admin",
          "type": "address"
        }
      ],
      "name": "addOracle",
      "outputs": [],
      "stateMutability": "nonpayable",
      "type": "function"
    },
    {
      "inputs": [
        {
          "internalType": "address",
          "name": "_oracle",
          "type": "address"
        }
      ],
      "name": "removeOracle",
      "outputs": [],
      "stateMutability": "nonpayable",
      "type": "function"
    },
    {
      "inputs": [
        {
          "internalType": "address",
          "name": "_oracle",
          "type": "address"
        }
      ],
      "name": "withdrawablePayment",
      "outputs": [
        {
          "internalType": "uint256",
          "name": "",
          "type": "uint256"
        }
      ],
      "stateMutability": "view",
      "type": "function"
    }
  ],
  "bytecode": "0x608060405234801561001057600080fd5b5060405161103f38038061103f83398101604081905261002f91610145565b60018390556001600160801b038216600455600580546001600160a01b0319166001600160a01b038316179055610067600033610099565b6100917f68e79a7bf1e0bc45d0a330c573bc367f9cf464fd326078812f301165fbda4ef133610099565b50505061019e565b6100a382826100a7565b5050565b6000828152602081815260408083206001600160a01b038516845290915290205460ff166100a3576000828152602081815260408083206001600160a01b03851684529091529020805460ff191660011790556101013390565b6001600160a01b0316816001600160a01b0316837f2f8788117e7eff1d82e926ec794901d17c78024a50270940304540a733656f0d60405160405180910390a45050565b600080600060608486031215610159578283fd5b835160208501519093506001600160801b0381168114610177578283fd5b60408501519092506001600160a01b0381168114610193578182fd5b809150509250925092565b610e92806101ad6000396000f3fe608060405234801561001057600080fd5b506004361061014d5760003560e01c806391d14854116100c3578063d4cc54e41161007c578063d4cc54e414610306578063d547741f1461030f578063e2e4031714610322578063e7c4393e1461034b578063f0ca4adb14610354578063fdc85fc4146103675761014d565b806391d1485414610265578063a217fddf14610278578063a4c0ed3614610280578063bfdb6b0414610293578063c1075329146102e0578063d2821655146102f35761014d565b806336568abe1161011557806336568abe146102125780633d3d77141461022557806342f6487a1461023857806346fcff4c146102415780634f8fc3b51461024a57806382313e50146102525761014d565b806301ffc9a71461015257806307e2cea51461017a5780631c4695f4146101af578063248a9ca3146101da5780632f2ff15d146101fd575b600080fd5b610165610160366004610da5565b61037a565b60405190151581526020015b60405180910390f35b6101a17f68e79a7bf1e0bc45d0a330c573bc367f9cf464fd326078812f301165fbda4ef181565b604051908152602001610171565b6005546101c2906001600160a01b031681565b6040516001600160a01b039091168152602001610171565b6101a16101e8366004610d6b565b60009081526020819052604090206001015490565b61021061020b366004610d83565b6103b3565b005b610210610220366004610d83565b610447565b610210610233366004610c65565b6104c1565b6101a160045481565b6101a160035481565b6102106106a2565b610210610260366004610dcd565b61072f565b610165610273366004610d83565b610764565b6101a1600081565b61021061028e366004610cc9565b61078d565b6102c36102a1366004610c12565b600660205260009081526040902080546001909101546001600160a01b031682565b604080519283526001600160a01b03909116602083015201610171565b6102106102ee366004610ca0565b61083d565b610210610301366004610d6b565b610990565b6101a160025481565b61021061031d366004610d83565b6109bc565b6101a1610330366004610c12565b6001600160a01b031660009081526006602052604090205490565b6101a160015481565b610210610362366004610c33565b610a3c565b610210610375366004610c12565b610abe565b60006001600160e01b03198216637965db0b60e01b14806103ab57506301ffc9a760e01b6001600160e01b03198316145b90505b919050565b6000828152602081905260409020600101546103d0905b33610273565b6104395760405162461bcd60e51b815260206004820152602f60248201527f416363657373436f6e74726f6c3a2073656e646572206d75737420626520616e60448201526e0818591b5a5b881d1bc819dc985b9d608a1b60648201526084015b60405180910390fd5b6104438282610b12565b5050565b6001600160a01b03811633146104b75760405162461bcd60e51b815260206004820152602f60248201527f416363657373436f6e74726f6c3a2063616e206f6e6c792072656e6f756e636560448201526e103937b632b9903337b91039b2b63360891b6064820152608401610430565b6104438282610b96565b6001600160a01b0383811660009081526006602052604090206001015416331461053d5760405162461bcd60e51b815260206004820152602760248201527f77697468647261775061796d656e743a206f6e6c792063616c6c61626c6520626044820152663c9030b236b4b760c91b6064820152608401610430565b6001600160a01b038316600090815260066020526040902054818110156105bf5760405162461bcd60e51b815260206004820152603060248201527f77697468647261775061796d656e743a20696e73756666696369656e7420776960448201526f74686472617761626c652066756e647360801b6064820152608401610430565b6105c98282610e39565b6001600160a01b038516600090815260066020526040812091909155600280548492906105f7908490610e39565b909155505060055460405163a9059cbb60e01b81526001600160a01b038581166004830152602482018590529091169063a9059cbb90604401602060405180830381600087803b15801561064a57600080fd5b505af115801561065e573d6000803e3d6000fd5b505050506040513d601f19601f820116820180604052508101906106829190610d4b565b61069c57634e487b7160e01b600052600160045260246000fd5b50505050565b6002546005546040516370a0823160e01b81523060048201526001600160a01b03909116906370a082319060240160206040518083038186803b1580156106e857600080fd5b505afa1580156106fc573d6000803e3d6000fd5b505050506040513d601f19601f820116820180604052508101906107209190610df4565b61072a9190610e39565b600355565b61073a600033610764565b6107565760405162461bcd60e51b815260040161043090610e0c565b6001600160801b0316600455565b6000918252602082815260408084206001600160a01b0393909316845291905290205460ff1690565b6005546001600160a01b031633146107e75760405162461bcd60e51b815260206004820152601d60248201527f6f6e546f6b656e5472616e736665723a206e6f7420746865204c696e6b0000006044820152606401610430565b80156108355760405162461bcd60e51b815260206004820181905260248201527f7472616e7366657220646f65736e2774206163636570742063616c6c646174616044820152606401610430565b61069c6106a2565b610848600033610764565b6108645760405162461bcd60e51b815260040161043090610e0c565b8060035410156108b65760405162461bcd60e51b815260206004820152601a60248201527f696e73756666696369656e7420726573657276652066756e64730000000000006044820152606401610430565b60055460405163a9059cbb60e01b81526001600160a01b038481166004830152602482018490529091169063a9059cbb90604401602060405180830381600087803b15801561090457600080fd5b505af1158015610918573d6000803e3d6000fd5b505050506040513d601f19601f8201168201806040525081019061093c9190610d4b565b6109885760405162461bcd60e51b815260206004820152601e60248201527f776974686472617746756e64733a207472616e73666572206661696c656400006044820152606401610430565b6104436106a2565b61099b600033610764565b6109b75760405162461bcd60e51b815260040161043090610e0c565b600155565b6000828152602081905260409020600101546109d7906103ca565b6104b75760405162461bcd60e51b815260206004820152603060248201527f416363657373436f6e74726f6c3a2073656e646572206d75737420626520616e60448201526f2061646d696e20746f207265766f6b6560801b6064820152608401610430565b610a47600033610764565b610a635760405162461bcd60e51b815260040161043090610e0c565b610a8d7f68e79a7bf1e0bc45d0a330c573bc367f9cf464fd326078812f301165fbda4ef1836103b3565b6001600160a01b03918216600090815260066020526040902060010180546001600160a01b03191691909216179055565b610ac9600033610764565b610ae55760405162461bcd60e51b815260040161043090610e0c565b610b0f7f68e79a7bf1e0bc45d0a330c573bc367f9cf464fd326078812f301165fbda4ef1826109bc565b50565b610b1c8282610764565b610443576000828152602081815260408083206001600160a01b03851684529091529020805460ff19166001179055610b523390565b6001600160a01b0316816001600160a01b0316837f2f8788117e7eff1d82e926ec794901d17c78024a50270940304540a733656f0d60405160405180910390a45050565b610ba08282610764565b15610443576000828152602081815260408083206001600160a01b0385168085529252808320805460ff1916905551339285917ff6391f5c32d9c69d2a47ea670b442974b53935d1edc7fd64eb21e047a839171b9190a45050565b80356001600160a01b03811681146103ae57600080fd5b600060208284031215610c23578081fd5b610c2c82610bfb565b9392505050565b60008060408385031215610c45578081fd5b610c4e83610bfb565b9150610c5c60208401610bfb565b90509250929050565b600080600060608486031215610c79578081fd5b610c8284610bfb565b9250610c9060208501610bfb565b9150604084013590509250925092565b60008060408385031215610cb2578182fd5b610cbb83610bfb565b946020939093013593505050565b60008060008060608587031215610cde578081fd5b610ce785610bfb565b935060208501359250604085013567ffffffffffffffff80821115610d0a578283fd5b818701915087601f830112610d1d578283fd5b813581811115610d2b578384fd5b886020828501011115610d3c578384fd5b95989497505060200194505050565b600060208284031215610d5c578081fd5b81518015158114610c2c578182fd5b600060208284031215610d7c578081fd5b5035919050565b60008060408385031215610d95578182fd5b82359150610c5c60208401610bfb565b600060208284031215610db6578081fd5b81356001600160e01b031981168114610c2c578182fd5b600060208284031215610dde578081fd5b81356001600160801b0381168114610c2c578182fd5b600060208284031215610e05578081fd5b5051919050565b6020808252601390820152726f6e6c7941646d696e3a2062616420726f6c6560681b604082015260600190565b600082821015610e5757634e487b7160e01b81526011600452602481fd5b50039056fea26469706673582212202e0ea0a23c66b032b9b78bcb49f6d68fe81e3f44e7f8b065c7519e731b68155a64736f6c63430008020033",
  "immutableReferences": {},
  "source": "// SPDX-License-Identifier: MIT\npragma solidity ^0.8.2;\n\nimport \"@openzeppelin/contracts/access/AccessControl.sol\";\nimport \"@openzeppelin/contracts/token/ERC20/IERC20.sol\";\n\ncontract Aggregator is AccessControl {\n    struct OracleInfo {\n        uint256 withdrawable; // amount of withdrawable LINKs\n        address admin; // current oracle admin\n    }\n\n    bytes32 public constant ORACLE_ROLE = keccak256(\"ORACLE_ROLE\"); // role allowed to submit the data\n    uint256 public minConfirmations; // minimal required confimations\n    uint256 public allocatedFunds; // LINK's amount payed to oracles\n    uint256 public availableFunds; // LINK's amount available to be payed to oracles\n    uint256 public payment; // payment for one submission\n    IERC20 public link; // LINK's token address\n    mapping(address => OracleInfo) public getOracleInfo; // oracle address => oracle details\n\n    modifier onlyAdmin {\n        require(hasRole(DEFAULT_ADMIN_ROLE, msg.sender), \"onlyAdmin: bad role\");\n        _;\n    }\n    modifier onlyOracle {\n        require(hasRole(ORACLE_ROLE, msg.sender), \"onlyOracle: bad role\");\n        _;\n    }\n\n    /* PUBLIC */\n\n    /// @dev Constructor that initializes the most important configurations.\n    /// @param _minConfirmations Minimal required confirmations.\n    /// @param _payment Oracle reward.\n    /// @param _link Link token to pay to oracles.\n    constructor(\n        uint256 _minConfirmations,\n        uint128 _payment,\n        IERC20 _link\n    ) {\n        minConfirmations = _minConfirmations;\n        payment = _payment;\n        link = _link;\n        _setupRole(DEFAULT_ADMIN_ROLE, msg.sender);\n        _setupRole(ORACLE_ROLE, msg.sender);\n    }\n\n    /// @dev Withdraws oracle reward.\n    /// @param _oracle Oracle address.\n    /// @param _recipient Recepient reward.\n    /// @param _amount Amount to withdraw.\n    function withdrawPayment(\n        address _oracle,\n        address _recipient,\n        uint256 _amount\n    ) external {\n        require(\n            getOracleInfo[_oracle].admin == msg.sender,\n            \"withdrawPayment: only callable by admin\"\n        );\n        uint256 available = getOracleInfo[_oracle].withdrawable;\n        require(\n            available >= _amount,\n            \"withdrawPayment: insufficient withdrawable funds\"\n        );\n        getOracleInfo[_oracle].withdrawable = available - _amount;\n        allocatedFunds -= _amount;\n        assert(link.transfer(_recipient, _amount));\n    }\n\n    /// @dev Updates available rewards to be distributed.\n    function updateAvailableFunds() public {\n        availableFunds = link.balanceOf(address(this)) - allocatedFunds;\n    }\n\n    function onTokenTransfer(\n        address,\n        uint256,\n        bytes calldata _data\n    ) external {\n        require(msg.sender == address(link), \"onTokenTransfer: not the Link\");\n        require(_data.length == 0, \"transfer doesn't accept calldata\");\n        updateAvailableFunds();\n    }\n\n    /* ADMIN */\n\n    /// @dev Withdraws available LINK's.\n    /// @param _recipient Recepient reward.\n    /// @param _amount Amount to withdraw.\n    function withdrawFunds(address _recipient, uint256 _amount)\n        external\n        onlyAdmin()\n    {\n        require(\n            uint256(availableFunds) >= _amount,\n            \"insufficient reserve funds\"\n        );\n        require(\n            link.transfer(_recipient, _amount),\n            \"withdrawFunds: transfer failed\"\n        );\n        updateAvailableFunds();\n    }\n\n    /// @dev Sets minimal required confirmations.\n    /// @param _minConfirmations Minimal required confirmations.\n    function setMinConfirmations(uint256 _minConfirmations) external onlyAdmin {\n        minConfirmations = _minConfirmations;\n    }\n\n    /// @dev Sets new oracle reward.\n    /// @param _payment Oracle reward.\n    function setPayment(uint128 _payment) external onlyAdmin {\n        payment = _payment;\n    }\n\n    /// @dev Add new oracle.\n    /// @param _oracle Oracle address.\n    /// @param _admin Admin address.\n    function addOracle(address _oracle, address _admin) external onlyAdmin {\n        grantRole(ORACLE_ROLE, _oracle);\n        getOracleInfo[_oracle].admin = _admin;\n    }\n\n    /// @dev Remove oracle.\n    /// @param _oracle Oracle address.\n    function removeOracle(address _oracle) external onlyAdmin {\n        revokeRole(ORACLE_ROLE, _oracle);\n    }\n\n    /* INTERNAL */\n\n    /// @dev Assess teh oracle rewards.\n    /// @param _oracle Oracle address.\n    function _payOracle(address _oracle) internal {\n        availableFunds -= payment;\n        allocatedFunds += payment;\n        getOracleInfo[_oracle].withdrawable += payment;\n    }\n\n    /* VIEW */\n\n    /// @dev Withdraws oracle reward.\n    /// @param _oracle Oracle address.\n    /// @return Oracle rewards.\n    function withdrawablePayment(address _oracle)\n        external\n        view\n        returns (uint256)\n    {\n        return getOracleInfo[_oracle].withdrawable;\n    }\n}\n",
  "sourcePath": "/Users/kstasi/Documents/side/debridge-contracts/contracts/chainlink/Aggregator.sol",
  "compiler": {
    "name": "solc",
    "version": "0.8.2+commit.661d1103.Emscripten.clang"
  },
  "schemaVersion": "3.3.4",
  "updatedAt": "2021-04-19T11:07:05.889Z",
  "devdoc": {
    "kind": "dev",
    "methods": {
      "addOracle(address,address)": {
        "details": "Add new oracle.",
        "params": {
          "_admin": "Admin address.",
          "_oracle": "Oracle address."
        }
      },
      "constructor": {
        "details": "Constructor that initializes the most important configurations.",
        "params": {
          "_link": "Link token to pay to oracles.",
          "_minConfirmations": "Minimal required confirmations.",
          "_payment": "Oracle reward."
        }
      },
      "getRoleAdmin(bytes32)": {
        "details": "Returns the admin role that controls `role`. See {grantRole} and {revokeRole}. To change a role's admin, use {_setRoleAdmin}."
      },
      "grantRole(bytes32,address)": {
        "details": "Grants `role` to `account`. If `account` had not been already granted `role`, emits a {RoleGranted} event. Requirements: - the caller must have ``role``'s admin role."
      },
      "hasRole(bytes32,address)": {
        "details": "Returns `true` if `account` has been granted `role`."
      },
      "removeOracle(address)": {
        "details": "Remove oracle.",
        "params": {
          "_oracle": "Oracle address."
        }
      },
      "renounceRole(bytes32,address)": {
        "details": "Revokes `role` from the calling account. Roles are often managed via {grantRole} and {revokeRole}: this function's purpose is to provide a mechanism for accounts to lose their privileges if they are compromised (such as when a trusted device is misplaced). If the calling account had been granted `role`, emits a {RoleRevoked} event. Requirements: - the caller must be `account`."
      },
      "revokeRole(bytes32,address)": {
        "details": "Revokes `role` from `account`. If `account` had been granted `role`, emits a {RoleRevoked} event. Requirements: - the caller must have ``role``'s admin role."
      },
      "setMinConfirmations(uint256)": {
        "details": "Sets minimal required confirmations.",
        "params": {
          "_minConfirmations": "Minimal required confirmations."
        }
      },
      "setPayment(uint128)": {
        "details": "Sets new oracle reward.",
        "params": {
          "_payment": "Oracle reward."
        }
      },
      "supportsInterface(bytes4)": {
        "details": "See {IERC165-supportsInterface}."
      },
      "updateAvailableFunds()": {
        "details": "Updates available rewards to be distributed."
      },
      "withdrawFunds(address,uint256)": {
        "details": "Withdraws available LINK's.",
        "params": {
          "_amount": "Amount to withdraw.",
          "_recipient": "Recepient reward."
        }
      },
      "withdrawPayment(address,address,uint256)": {
        "details": "Withdraws oracle reward.",
        "params": {
          "_amount": "Amount to withdraw.",
          "_oracle": "Oracle address.",
          "_recipient": "Recepient reward."
        }
      },
      "withdrawablePayment(address)": {
        "details": "Withdraws oracle reward.",
        "params": {
          "_oracle": "Oracle address."
        },
        "returns": {
          "_0": "Oracle rewards."
        }
      }
    },
    "version": 1
  },
  "userdoc": {
    "kind": "user",
    "methods": {},
    "version": 1
  }
}