{
  "contractName": "Aggregator",
  "abi": [
    {
      "inputs": [
        {
          "internalType": "uint256",
          "name": "_minConfirmations",
          "type": "uint256"
        },
        {
          "internalType": "uint128",
          "name": "_payment",
          "type": "uint128"
        },
        {
          "internalType": "contract IERC20",
          "name": "_link",
          "type": "address"
        }
      ],
      "stateMutability": "nonpayable",
      "type": "constructor"
    },
    {
      "anonymous": false,
      "inputs": [
        {
          "indexed": true,
          "internalType": "bytes32",
          "name": "role",
          "type": "bytes32"
        },
        {
          "indexed": true,
          "internalType": "bytes32",
          "name": "previousAdminRole",
          "type": "bytes32"
        },
        {
          "indexed": true,
          "internalType": "bytes32",
          "name": "newAdminRole",
          "type": "bytes32"
        }
      ],
      "name": "RoleAdminChanged",
      "type": "event"
    },
    {
      "anonymous": false,
      "inputs": [
        {
          "indexed": true,
          "internalType": "bytes32",
          "name": "role",
          "type": "bytes32"
        },
        {
          "indexed": true,
          "internalType": "address",
          "name": "account",
          "type": "address"
        },
        {
          "indexed": true,
          "internalType": "address",
          "name": "sender",
          "type": "address"
        }
      ],
      "name": "RoleGranted",
      "type": "event"
    },
    {
      "anonymous": false,
      "inputs": [
        {
          "indexed": true,
          "internalType": "bytes32",
          "name": "role",
          "type": "bytes32"
        },
        {
          "indexed": true,
          "internalType": "address",
          "name": "account",
          "type": "address"
        },
        {
          "indexed": true,
          "internalType": "address",
          "name": "sender",
          "type": "address"
        }
      ],
      "name": "RoleRevoked",
      "type": "event"
    },
    {
      "inputs": [],
      "name": "DEFAULT_ADMIN_ROLE",
      "outputs": [
        {
          "internalType": "bytes32",
          "name": "",
          "type": "bytes32"
        }
      ],
      "stateMutability": "view",
      "type": "function"
    },
    {
      "inputs": [],
      "name": "ORACLE_ROLE",
      "outputs": [
        {
          "internalType": "bytes32",
          "name": "",
          "type": "bytes32"
        }
      ],
      "stateMutability": "view",
      "type": "function"
    },
    {
      "inputs": [],
      "name": "allocatedFunds",
      "outputs": [
        {
          "internalType": "uint256",
          "name": "",
          "type": "uint256"
        }
      ],
      "stateMutability": "view",
      "type": "function"
    },
    {
      "inputs": [],
      "name": "availableFunds",
      "outputs": [
        {
          "internalType": "uint256",
          "name": "",
          "type": "uint256"
        }
      ],
      "stateMutability": "view",
      "type": "function"
    },
    {
      "inputs": [
        {
          "internalType": "address",
          "name": "",
          "type": "address"
        }
      ],
      "name": "getOracleInfo",
      "outputs": [
        {
          "internalType": "uint256",
          "name": "withdrawable",
          "type": "uint256"
        },
        {
          "internalType": "address",
          "name": "admin",
          "type": "address"
        }
      ],
      "stateMutability": "view",
      "type": "function"
    },
    {
      "inputs": [
        {
          "internalType": "bytes32",
          "name": "role",
          "type": "bytes32"
        }
      ],
      "name": "getRoleAdmin",
      "outputs": [
        {
          "internalType": "bytes32",
          "name": "",
          "type": "bytes32"
        }
      ],
      "stateMutability": "view",
      "type": "function"
    },
    {
      "inputs": [
        {
          "internalType": "bytes32",
          "name": "role",
          "type": "bytes32"
        },
        {
          "internalType": "address",
          "name": "account",
          "type": "address"
        }
      ],
      "name": "grantRole",
      "outputs": [],
      "stateMutability": "nonpayable",
      "type": "function"
    },
    {
      "inputs": [
        {
          "internalType": "bytes32",
          "name": "role",
          "type": "bytes32"
        },
        {
          "internalType": "address",
          "name": "account",
          "type": "address"
        }
      ],
      "name": "hasRole",
      "outputs": [
        {
          "internalType": "bool",
          "name": "",
          "type": "bool"
        }
      ],
      "stateMutability": "view",
      "type": "function"
    },
    {
      "inputs": [],
      "name": "link",
      "outputs": [
        {
          "internalType": "contract IERC20",
          "name": "",
          "type": "address"
        }
      ],
      "stateMutability": "view",
      "type": "function"
    },
    {
      "inputs": [],
      "name": "minConfirmations",
      "outputs": [
        {
          "internalType": "uint256",
          "name": "",
          "type": "uint256"
        }
      ],
      "stateMutability": "view",
      "type": "function"
    },
    {
      "inputs": [],
      "name": "payment",
      "outputs": [
        {
          "internalType": "uint256",
          "name": "",
          "type": "uint256"
        }
      ],
      "stateMutability": "view",
      "type": "function"
    },
    {
      "inputs": [
        {
          "internalType": "bytes32",
          "name": "role",
          "type": "bytes32"
        },
        {
          "internalType": "address",
          "name": "account",
          "type": "address"
        }
      ],
      "name": "renounceRole",
      "outputs": [],
      "stateMutability": "nonpayable",
      "type": "function"
    },
    {
      "inputs": [
        {
          "internalType": "bytes32",
          "name": "role",
          "type": "bytes32"
        },
        {
          "internalType": "address",
          "name": "account",
          "type": "address"
        }
      ],
      "name": "revokeRole",
      "outputs": [],
      "stateMutability": "nonpayable",
      "type": "function"
    },
    {
      "inputs": [
        {
          "internalType": "bytes4",
          "name": "interfaceId",
          "type": "bytes4"
        }
      ],
      "name": "supportsInterface",
      "outputs": [
        {
          "internalType": "bool",
          "name": "",
          "type": "bool"
        }
      ],
      "stateMutability": "view",
      "type": "function"
    },
    {
      "inputs": [
        {
          "internalType": "address",
          "name": "_oracle",
          "type": "address"
        },
        {
          "internalType": "address",
          "name": "_recipient",
          "type": "address"
        },
        {
          "internalType": "uint256",
          "name": "_amount",
          "type": "uint256"
        }
      ],
      "name": "withdrawPayment",
      "outputs": [],
      "stateMutability": "nonpayable",
      "type": "function"
    },
    {
      "inputs": [],
      "name": "updateAvailableFunds",
      "outputs": [],
      "stateMutability": "nonpayable",
      "type": "function"
    },
    {
      "inputs": [
        {
          "internalType": "address",
          "name": "",
          "type": "address"
        },
        {
          "internalType": "uint256",
          "name": "",
          "type": "uint256"
        },
        {
          "internalType": "bytes",
          "name": "_data",
          "type": "bytes"
        }
      ],
      "name": "onTokenTransfer",
      "outputs": [],
      "stateMutability": "nonpayable",
      "type": "function"
    },
    {
      "inputs": [
        {
          "internalType": "address",
          "name": "_recipient",
          "type": "address"
        },
        {
          "internalType": "uint256",
          "name": "_amount",
          "type": "uint256"
        }
      ],
      "name": "withdrawFunds",
      "outputs": [],
      "stateMutability": "nonpayable",
      "type": "function"
    },
    {
      "inputs": [
        {
          "internalType": "uint256",
          "name": "_minConfirmations",
          "type": "uint256"
        }
      ],
      "name": "setMinConfirmations",
      "outputs": [],
      "stateMutability": "nonpayable",
      "type": "function"
    },
    {
      "inputs": [
        {
          "internalType": "uint128",
          "name": "_payment",
          "type": "uint128"
        }
      ],
      "name": "setPayment",
      "outputs": [],
      "stateMutability": "nonpayable",
      "type": "function"
    },
    {
      "inputs": [
        {
          "internalType": "address",
          "name": "_oracle",
          "type": "address"
        },
        {
          "internalType": "address",
          "name": "_admin",
          "type": "address"
        }
      ],
      "name": "addOracle",
      "outputs": [],
      "stateMutability": "nonpayable",
      "type": "function"
    },
    {
      "inputs": [
        {
          "internalType": "address",
          "name": "_oracle",
          "type": "address"
        }
      ],
      "name": "removeOracle",
      "outputs": [],
      "stateMutability": "nonpayable",
      "type": "function"
    },
    {
      "inputs": [
        {
          "internalType": "address",
          "name": "_oracle",
          "type": "address"
        }
      ],
      "name": "withdrawablePayment",
      "outputs": [
        {
          "internalType": "uint256",
          "name": "",
          "type": "uint256"
        }
      ],
      "stateMutability": "view",
      "type": "function"
    }
  ],
  "bytecode": "0x60806040523480156200001157600080fd5b506040516200131d3803806200131d833981016040819052620000349162000153565b60018390556001600160801b038216600455600580546001600160a01b0319166001600160a01b0383161790556200006e600033620000a3565b6200009a7f68e79a7bf1e0bc45d0a330c573bc367f9cf464fd326078812f301165fbda4ef133620000a3565b505050620001af565b620000af8282620000b3565b5050565b6000828152602081815260408083206001600160a01b038516845290915290205460ff16620000af576000828152602081815260408083206001600160a01b03851684529091529020805460ff191660011790556200010f3390565b6001600160a01b0316816001600160a01b0316837f2f8788117e7eff1d82e926ec794901d17c78024a50270940304540a733656f0d60405160405180910390a45050565b60008060006060848603121562000168578283fd5b835160208501519093506001600160801b038116811462000187578283fd5b60408501519092506001600160a01b0381168114620001a4578182fd5b809150509250925092565b61115e80620001bf6000396000f3fe608060405234801561001057600080fd5b506004361061018d5760003560e01c806391d14854116100e3578063d4cc54e41161008c578063e7c4393e11610066578063e7c4393e146103af578063f0ca4adb146103b8578063fdc85fc4146103cb5761018d565b8063d4cc54e41461036a578063d547741f14610373578063e2e40317146103865761018d565b8063bfdb6b04116100bd578063bfdb6b04146102f7578063c107532914610344578063d2821655146103575761018d565b806391d14854146102a5578063a217fddf146102dc578063a4c0ed36146102e45761018d565b806336568abe1161014557806346fcff4c1161011f57806346fcff4c146102815780634f8fc3b51461028a57806382313e50146102925761018d565b806336568abe146102525780633d3d77141461026557806342f6487a146102785761018d565b80631c4695f4116101765780631c4695f4146101ef578063248a9ca31461021a5780632f2ff15d1461023d5761018d565b806301ffc9a71461019257806307e2cea5146101ba575b600080fd5b6101a56101a036600461107d565b6103de565b60405190151581526020015b60405180910390f35b6101e17f68e79a7bf1e0bc45d0a330c573bc367f9cf464fd326078812f301165fbda4ef181565b6040519081526020016101b1565b600554610202906001600160a01b031681565b6040516001600160a01b0390911681526020016101b1565b6101e1610228366004611043565b60009081526020819052604090206001015490565b61025061024b36600461105b565b610479565b005b61025061026036600461105b565b61051b565b610250610273366004610f3d565b6105a3565b6101e160045481565b6101e160035481565b6102506107a7565b6102506102a03660046110bd565b61084d565b6101a56102b336600461105b565b6000918252602082815260408084206001600160a01b0393909316845291905290205460ff1690565b6101e1600081565b6102506102f2366004610fa1565b6108d8565b610327610305366004610eea565b600660205260009081526040902080546001909101546001600160a01b031682565b604080519283526001600160a01b039091166020830152016101b1565b610250610352366004610f78565b610988565b610250610365366004611043565b610b28565b6101e160025481565b61025061038136600461105b565b610ba1565b6101e1610394366004610eea565b6001600160a01b031660009081526006602052604090205490565b6101e160015481565b6102506103c6366004610f0b565b610c2e565b6102506103d9366004610eea565b610d15565b60007fffffffff0000000000000000000000000000000000000000000000000000000082167f7965db0b00000000000000000000000000000000000000000000000000000000148061047157507f01ffc9a7000000000000000000000000000000000000000000000000000000007fffffffff000000000000000000000000000000000000000000000000000000008316145b90505b919050565b600082815260208190526040902060010154610496905b336102b3565b61050d5760405162461bcd60e51b815260206004820152602f60248201527f416363657373436f6e74726f6c3a2073656e646572206d75737420626520616e60448201527f2061646d696e20746f206772616e74000000000000000000000000000000000060648201526084015b60405180910390fd5b6105178282610db6565b5050565b6001600160a01b03811633146105995760405162461bcd60e51b815260206004820152602f60248201527f416363657373436f6e74726f6c3a2063616e206f6e6c792072656e6f756e636560448201527f20726f6c657320666f722073656c6600000000000000000000000000000000006064820152608401610504565b6105178282610e54565b6001600160a01b038381166000908152600660205260409020600101541633146106355760405162461bcd60e51b815260206004820152602760248201527f77697468647261775061796d656e743a206f6e6c792063616c6c61626c65206260448201527f792061646d696e000000000000000000000000000000000000000000000000006064820152608401610504565b6001600160a01b038316600090815260066020526040902054818110156106c45760405162461bcd60e51b815260206004820152603060248201527f77697468647261775061796d656e743a20696e73756666696369656e7420776960448201527f74686472617761626c652066756e6473000000000000000000000000000000006064820152608401610504565b6106ce8282611105565b6001600160a01b038516600090815260066020526040812091909155600280548492906106fc908490611105565b909155505060055460405163a9059cbb60e01b81526001600160a01b038581166004830152602482018590529091169063a9059cbb90604401602060405180830381600087803b15801561074f57600080fd5b505af1158015610763573d6000803e3d6000fd5b505050506040513d601f19601f820116820180604052508101906107879190611023565b6107a157634e487b7160e01b600052600160045260246000fd5b50505050565b6002546005546040517f70a082310000000000000000000000000000000000000000000000000000000081523060048201526001600160a01b03909116906370a082319060240160206040518083038186803b15801561080657600080fd5b505afa15801561081a573d6000803e3d6000fd5b505050506040513d601f19601f8201168201806040525081019061083e91906110ed565b6108489190611105565b600355565b3360009081527fad3228b676f7d3cd4284a5443f17f1962b36e491b30a40b2405849e597ba5fb5602052604090205460ff166108c15760405162461bcd60e51b81526020600482015260136024820152726f6e6c7941646d696e3a2062616420726f6c6560681b6044820152606401610504565b6fffffffffffffffffffffffffffffffff16600455565b6005546001600160a01b031633146109325760405162461bcd60e51b815260206004820152601d60248201527f6f6e546f6b656e5472616e736665723a206e6f7420746865204c696e6b0000006044820152606401610504565b80156109805760405162461bcd60e51b815260206004820181905260248201527f7472616e7366657220646f65736e2774206163636570742063616c6c646174616044820152606401610504565b6107a16107a7565b3360009081527fad3228b676f7d3cd4284a5443f17f1962b36e491b30a40b2405849e597ba5fb5602052604090205460ff166109fc5760405162461bcd60e51b81526020600482015260136024820152726f6e6c7941646d696e3a2062616420726f6c6560681b6044820152606401610504565b806003541015610a4e5760405162461bcd60e51b815260206004820152601a60248201527f696e73756666696369656e7420726573657276652066756e64730000000000006044820152606401610504565b60055460405163a9059cbb60e01b81526001600160a01b038481166004830152602482018490529091169063a9059cbb90604401602060405180830381600087803b158015610a9c57600080fd5b505af1158015610ab0573d6000803e3d6000fd5b505050506040513d601f19601f82011682018060405250810190610ad49190611023565b610b205760405162461bcd60e51b815260206004820152601e60248201527f776974686472617746756e64733a207472616e73666572206661696c656400006044820152606401610504565b6105176107a7565b3360009081527fad3228b676f7d3cd4284a5443f17f1962b36e491b30a40b2405849e597ba5fb5602052604090205460ff16610b9c5760405162461bcd60e51b81526020600482015260136024820152726f6e6c7941646d696e3a2062616420726f6c6560681b6044820152606401610504565b600155565b600082815260208190526040902060010154610bbc90610490565b6105995760405162461bcd60e51b815260206004820152603060248201527f416363657373436f6e74726f6c3a2073656e646572206d75737420626520616e60448201527f2061646d696e20746f207265766f6b65000000000000000000000000000000006064820152608401610504565b3360009081527fad3228b676f7d3cd4284a5443f17f1962b36e491b30a40b2405849e597ba5fb5602052604090205460ff16610ca25760405162461bcd60e51b81526020600482015260136024820152726f6e6c7941646d696e3a2062616420726f6c6560681b6044820152606401610504565b610ccc7f68e79a7bf1e0bc45d0a330c573bc367f9cf464fd326078812f301165fbda4ef183610479565b6001600160a01b03918216600090815260066020526040902060010180547fffffffffffffffffffffffff00000000000000000000000000000000000000001691909216179055565b3360009081527fad3228b676f7d3cd4284a5443f17f1962b36e491b30a40b2405849e597ba5fb5602052604090205460ff16610d895760405162461bcd60e51b81526020600482015260136024820152726f6e6c7941646d696e3a2062616420726f6c6560681b6044820152606401610504565b610db37f68e79a7bf1e0bc45d0a330c573bc367f9cf464fd326078812f301165fbda4ef182610ba1565b50565b6000828152602081815260408083206001600160a01b038516845290915290205460ff16610517576000828152602081815260408083206001600160a01b03851684529091529020805460ff19166001179055610e103390565b6001600160a01b0316816001600160a01b0316837f2f8788117e7eff1d82e926ec794901d17c78024a50270940304540a733656f0d60405160405180910390a45050565b6000828152602081815260408083206001600160a01b038516845290915290205460ff1615610517576000828152602081815260408083206001600160a01b0385168085529252808320805460ff1916905551339285917ff6391f5c32d9c69d2a47ea670b442974b53935d1edc7fd64eb21e047a839171b9190a45050565b80356001600160a01b038116811461047457600080fd5b600060208284031215610efb578081fd5b610f0482610ed3565b9392505050565b60008060408385031215610f1d578081fd5b610f2683610ed3565b9150610f3460208401610ed3565b90509250929050565b600080600060608486031215610f51578081fd5b610f5a84610ed3565b9250610f6860208501610ed3565b9150604084013590509250925092565b60008060408385031215610f8a578182fd5b610f9383610ed3565b946020939093013593505050565b60008060008060608587031215610fb6578081fd5b610fbf85610ed3565b935060208501359250604085013567ffffffffffffffff80821115610fe2578283fd5b818701915087601f830112610ff5578283fd5b813581811115611003578384fd5b886020828501011115611014578384fd5b95989497505060200194505050565b600060208284031215611034578081fd5b81518015158114610f04578182fd5b600060208284031215611054578081fd5b5035919050565b6000806040838503121561106d578182fd5b82359150610f3460208401610ed3565b60006020828403121561108e578081fd5b81357fffffffff0000000000000000000000000000000000000000000000000000000081168114610f04578182fd5b6000602082840312156110ce578081fd5b81356fffffffffffffffffffffffffffffffff81168114610f04578182fd5b6000602082840312156110fe578081fd5b5051919050565b60008282101561112357634e487b7160e01b81526011600452602481fd5b50039056fea2646970667358221220a1b9ba0a9d24eec9f27eda15475ad88a04e578b5f6af2d0ae599f4474149fdd664736f6c63430008020033",
  "immutableReferences": {},
  "source": "// SPDX-License-Identifier: MIT\npragma solidity ^0.8.2;\n\nimport \"@openzeppelin/contracts/access/AccessControl.sol\";\nimport \"@openzeppelin/contracts/token/ERC20/IERC20.sol\";\n\ncontract Aggregator is AccessControl {\n    struct OracleInfo {\n        uint256 withdrawable; // amount of withdrawable LINKs\n        address admin; // current oracle admin\n    }\n\n    bytes32 public constant ORACLE_ROLE = keccak256(\"ORACLE_ROLE\"); // role allowed to submit the data\n    uint256 public minConfirmations; // minimal required confimations\n    uint256 public allocatedFunds; // LINK's amount payed to oracles\n    uint256 public availableFunds; // LINK's amount available to be payed to oracles\n    uint256 public payment; // payment for one submission\n    IERC20 public link; // LINK's token address\n    mapping(address => OracleInfo) public getOracleInfo; // oracle address => oracle details\n\n    modifier onlyAdmin {\n        require(hasRole(DEFAULT_ADMIN_ROLE, msg.sender), \"onlyAdmin: bad role\");\n        _;\n    }\n    modifier onlyOracle {\n        require(hasRole(ORACLE_ROLE, msg.sender), \"onlyOracle: bad role\");\n        _;\n    }\n\n    /* PUBLIC */\n\n    /// @dev Constructor that initializes the most important configurations.\n    /// @param _minConfirmations Minimal required confirmations.\n    /// @param _payment Oracle reward.\n    /// @param _link Link token to pay to oracles.\n    constructor(\n        uint256 _minConfirmations,\n        uint128 _payment,\n        IERC20 _link\n    ) {\n        minConfirmations = _minConfirmations;\n        payment = _payment;\n        link = _link;\n        _setupRole(DEFAULT_ADMIN_ROLE, msg.sender);\n        _setupRole(ORACLE_ROLE, msg.sender);\n    }\n\n    /// @dev Withdraws oracle reward.\n    /// @param _oracle Oracle address.\n    /// @param _recipient Recepient reward.\n    /// @param _amount Amount to withdraw.\n    function withdrawPayment(\n        address _oracle,\n        address _recipient,\n        uint256 _amount\n    ) external {\n        require(\n            getOracleInfo[_oracle].admin == msg.sender,\n            \"withdrawPayment: only callable by admin\"\n        );\n        uint256 available = getOracleInfo[_oracle].withdrawable;\n        require(\n            available >= _amount,\n            \"withdrawPayment: insufficient withdrawable funds\"\n        );\n        getOracleInfo[_oracle].withdrawable = available - _amount;\n        allocatedFunds -= _amount;\n        assert(link.transfer(_recipient, _amount));\n    }\n\n    /// @dev Updates available rewards to be distributed.\n    function updateAvailableFunds() public {\n        availableFunds = link.balanceOf(address(this)) - allocatedFunds;\n    }\n\n    function onTokenTransfer(\n        address,\n        uint256,\n        bytes calldata _data\n    ) external {\n        require(msg.sender == address(link), \"onTokenTransfer: not the Link\");\n        require(_data.length == 0, \"transfer doesn't accept calldata\");\n        updateAvailableFunds();\n    }\n\n    /* ADMIN */\n\n    /// @dev Withdraws available LINK's.\n    /// @param _recipient Recepient reward.\n    /// @param _amount Amount to withdraw.\n    function withdrawFunds(address _recipient, uint256 _amount)\n        external\n        onlyAdmin()\n    {\n        require(\n            uint256(availableFunds) >= _amount,\n            \"insufficient reserve funds\"\n        );\n        require(\n            link.transfer(_recipient, _amount),\n            \"withdrawFunds: transfer failed\"\n        );\n        updateAvailableFunds();\n    }\n\n    /// @dev Sets minimal required confirmations.\n    /// @param _minConfirmations Minimal required confirmations.\n    function setMinConfirmations(uint256 _minConfirmations) external onlyAdmin {\n        minConfirmations = _minConfirmations;\n    }\n\n    /// @dev Sets new oracle reward.\n    /// @param _payment Oracle reward.\n    function setPayment(uint128 _payment) external onlyAdmin {\n        payment = _payment;\n    }\n\n    /// @dev Add new oracle.\n    /// @param _oracle Oracle address.\n    /// @param _admin Admin address.\n    function addOracle(address _oracle, address _admin) external onlyAdmin {\n        grantRole(ORACLE_ROLE, _oracle);\n        getOracleInfo[_oracle].admin = _admin;\n    }\n\n    /// @dev Remove oracle.\n    /// @param _oracle Oracle address.\n    function removeOracle(address _oracle) external onlyAdmin {\n        revokeRole(ORACLE_ROLE, _oracle);\n    }\n\n    /* INTERNAL */\n\n    /// @dev Assess teh oracle rewards.\n    /// @param _oracle Oracle address.\n    function _payOracle(address _oracle) internal {\n        availableFunds -= payment;\n        allocatedFunds += payment;\n        getOracleInfo[_oracle].withdrawable += payment;\n    }\n\n    /* VIEW */\n\n    /// @dev Withdraws oracle reward.\n    /// @param _oracle Oracle address.\n    /// @return Oracle rewards.\n    function withdrawablePayment(address _oracle)\n        external\n        view\n        returns (uint256)\n    {\n        return getOracleInfo[_oracle].withdrawable;\n    }\n}\n",
  "sourcePath": "/Users/kstasi/Documents/side/debridge-contracts/contracts/chainlink/Aggregator.sol",
  "compiler": {
    "name": "solc",
    "version": "0.8.2+commit.661d1103.Emscripten.clang"
  },
  "schemaVersion": "3.3.4",
  "updatedAt": "2021-03-25T02:55:38.790Z",
  "devdoc": {
    "kind": "dev",
    "methods": {
      "addOracle(address,address)": {
        "details": "Add new oracle.",
        "params": {
          "_admin": "Admin address.",
          "_oracle": "Oracle address."
        }
      },
      "constructor": {
        "details": "Constructor that initializes the most important configurations.",
        "params": {
          "_link": "Link token to pay to oracles.",
          "_minConfirmations": "Minimal required confirmations.",
          "_payment": "Oracle reward."
        }
      },
      "getRoleAdmin(bytes32)": {
        "details": "Returns the admin role that controls `role`. See {grantRole} and {revokeRole}. To change a role's admin, use {_setRoleAdmin}."
      },
      "grantRole(bytes32,address)": {
        "details": "Grants `role` to `account`. If `account` had not been already granted `role`, emits a {RoleGranted} event. Requirements: - the caller must have ``role``'s admin role."
      },
      "hasRole(bytes32,address)": {
        "details": "Returns `true` if `account` has been granted `role`."
      },
      "removeOracle(address)": {
        "details": "Remove oracle.",
        "params": {
          "_oracle": "Oracle address."
        }
      },
      "renounceRole(bytes32,address)": {
        "details": "Revokes `role` from the calling account. Roles are often managed via {grantRole} and {revokeRole}: this function's purpose is to provide a mechanism for accounts to lose their privileges if they are compromised (such as when a trusted device is misplaced). If the calling account had been granted `role`, emits a {RoleRevoked} event. Requirements: - the caller must be `account`."
      },
      "revokeRole(bytes32,address)": {
        "details": "Revokes `role` from `account`. If `account` had been granted `role`, emits a {RoleRevoked} event. Requirements: - the caller must have ``role``'s admin role."
      },
      "setMinConfirmations(uint256)": {
        "details": "Sets minimal required confirmations.",
        "params": {
          "_minConfirmations": "Minimal required confirmations."
        }
      },
      "setPayment(uint128)": {
        "details": "Sets new oracle reward.",
        "params": {
          "_payment": "Oracle reward."
        }
      },
      "supportsInterface(bytes4)": {
        "details": "See {IERC165-supportsInterface}."
      },
      "updateAvailableFunds()": {
        "details": "Updates available rewards to be distributed."
      },
      "withdrawFunds(address,uint256)": {
        "details": "Withdraws available LINK's.",
        "params": {
          "_amount": "Amount to withdraw.",
          "_recipient": "Recepient reward."
        }
      },
      "withdrawPayment(address,address,uint256)": {
        "details": "Withdraws oracle reward.",
        "params": {
          "_amount": "Amount to withdraw.",
          "_oracle": "Oracle address.",
          "_recipient": "Recepient reward."
        }
      },
      "withdrawablePayment(address)": {
        "details": "Withdraws oracle reward.",
        "params": {
          "_oracle": "Oracle address."
        },
        "returns": {
          "_0": "Oracle rewards."
        }
      }
    },
    "version": 1
  },
  "userdoc": {
    "kind": "user",
    "methods": {},
    "version": 1
  }
}