{
  "contractName": "Aggregator",
  "abi": [
    {
      "inputs": [
        {
          "internalType": "uint256",
          "name": "_minConfirmations",
          "type": "uint256"
        },
        {
          "internalType": "uint128",
          "name": "_payment",
          "type": "uint128"
        },
        {
          "internalType": "contract IERC20",
          "name": "_link",
          "type": "address"
        }
      ],
      "stateMutability": "nonpayable",
      "type": "constructor"
    },
    {
      "anonymous": false,
      "inputs": [
        {
          "indexed": true,
          "internalType": "bytes32",
          "name": "role",
          "type": "bytes32"
        },
        {
          "indexed": true,
          "internalType": "bytes32",
          "name": "previousAdminRole",
          "type": "bytes32"
        },
        {
          "indexed": true,
          "internalType": "bytes32",
          "name": "newAdminRole",
          "type": "bytes32"
        }
      ],
      "name": "RoleAdminChanged",
      "type": "event"
    },
    {
      "anonymous": false,
      "inputs": [
        {
          "indexed": true,
          "internalType": "bytes32",
          "name": "role",
          "type": "bytes32"
        },
        {
          "indexed": true,
          "internalType": "address",
          "name": "account",
          "type": "address"
        },
        {
          "indexed": true,
          "internalType": "address",
          "name": "sender",
          "type": "address"
        }
      ],
      "name": "RoleGranted",
      "type": "event"
    },
    {
      "anonymous": false,
      "inputs": [
        {
          "indexed": true,
          "internalType": "bytes32",
          "name": "role",
          "type": "bytes32"
        },
        {
          "indexed": true,
          "internalType": "address",
          "name": "account",
          "type": "address"
        },
        {
          "indexed": true,
          "internalType": "address",
          "name": "sender",
          "type": "address"
        }
      ],
      "name": "RoleRevoked",
      "type": "event"
    },
    {
      "inputs": [],
      "name": "DEFAULT_ADMIN_ROLE",
      "outputs": [
        {
          "internalType": "bytes32",
          "name": "",
          "type": "bytes32"
        }
      ],
      "stateMutability": "view",
      "type": "function"
    },
    {
      "inputs": [],
      "name": "ORACLE_ROLE",
      "outputs": [
        {
          "internalType": "bytes32",
          "name": "",
          "type": "bytes32"
        }
      ],
      "stateMutability": "view",
      "type": "function"
    },
    {
      "inputs": [],
      "name": "allocatedFunds",
      "outputs": [
        {
          "internalType": "uint256",
          "name": "",
          "type": "uint256"
        }
      ],
      "stateMutability": "view",
      "type": "function"
    },
    {
      "inputs": [],
      "name": "availableFunds",
      "outputs": [
        {
          "internalType": "uint256",
          "name": "",
          "type": "uint256"
        }
      ],
      "stateMutability": "view",
      "type": "function"
    },
    {
      "inputs": [
        {
          "internalType": "address",
          "name": "",
          "type": "address"
        }
      ],
      "name": "getOracleInfo",
      "outputs": [
        {
          "internalType": "uint256",
          "name": "withdrawable",
          "type": "uint256"
        },
        {
          "internalType": "address",
          "name": "admin",
          "type": "address"
        }
      ],
      "stateMutability": "view",
      "type": "function"
    },
    {
      "inputs": [
        {
          "internalType": "bytes32",
          "name": "role",
          "type": "bytes32"
        }
      ],
      "name": "getRoleAdmin",
      "outputs": [
        {
          "internalType": "bytes32",
          "name": "",
          "type": "bytes32"
        }
      ],
      "stateMutability": "view",
      "type": "function"
    },
    {
      "inputs": [
        {
          "internalType": "bytes32",
          "name": "role",
          "type": "bytes32"
        },
        {
          "internalType": "address",
          "name": "account",
          "type": "address"
        }
      ],
      "name": "grantRole",
      "outputs": [],
      "stateMutability": "nonpayable",
      "type": "function"
    },
    {
      "inputs": [
        {
          "internalType": "bytes32",
          "name": "role",
          "type": "bytes32"
        },
        {
          "internalType": "address",
          "name": "account",
          "type": "address"
        }
      ],
      "name": "hasRole",
      "outputs": [
        {
          "internalType": "bool",
          "name": "",
          "type": "bool"
        }
      ],
      "stateMutability": "view",
      "type": "function"
    },
    {
      "inputs": [],
      "name": "link",
      "outputs": [
        {
          "internalType": "contract IERC20",
          "name": "",
          "type": "address"
        }
      ],
      "stateMutability": "view",
      "type": "function"
    },
    {
      "inputs": [],
      "name": "minConfirmations",
      "outputs": [
        {
          "internalType": "uint256",
          "name": "",
          "type": "uint256"
        }
      ],
      "stateMutability": "view",
      "type": "function"
    },
    {
      "inputs": [],
      "name": "payment",
      "outputs": [
        {
          "internalType": "uint256",
          "name": "",
          "type": "uint256"
        }
      ],
      "stateMutability": "view",
      "type": "function"
    },
    {
      "inputs": [
        {
          "internalType": "bytes32",
          "name": "role",
          "type": "bytes32"
        },
        {
          "internalType": "address",
          "name": "account",
          "type": "address"
        }
      ],
      "name": "renounceRole",
      "outputs": [],
      "stateMutability": "nonpayable",
      "type": "function"
    },
    {
      "inputs": [
        {
          "internalType": "bytes32",
          "name": "role",
          "type": "bytes32"
        },
        {
          "internalType": "address",
          "name": "account",
          "type": "address"
        }
      ],
      "name": "revokeRole",
      "outputs": [],
      "stateMutability": "nonpayable",
      "type": "function"
    },
    {
      "inputs": [
        {
          "internalType": "bytes4",
          "name": "interfaceId",
          "type": "bytes4"
        }
      ],
      "name": "supportsInterface",
      "outputs": [
        {
          "internalType": "bool",
          "name": "",
          "type": "bool"
        }
      ],
      "stateMutability": "view",
      "type": "function"
    },
    {
      "inputs": [
        {
          "internalType": "address",
          "name": "_oracle",
          "type": "address"
        },
        {
          "internalType": "address",
          "name": "_recipient",
          "type": "address"
        },
        {
          "internalType": "uint256",
          "name": "_amount",
          "type": "uint256"
        }
      ],
      "name": "withdrawPayment",
      "outputs": [],
      "stateMutability": "nonpayable",
      "type": "function"
    },
    {
      "inputs": [
        {
          "internalType": "address",
          "name": "_oracle",
          "type": "address"
        },
        {
          "internalType": "address",
          "name": "_newOracle",
          "type": "address"
        }
      ],
      "name": "updateOracleAddress",
      "outputs": [],
      "stateMutability": "nonpayable",
      "type": "function"
    },
    {
      "inputs": [
        {
          "internalType": "address",
          "name": "_oracle",
          "type": "address"
        },
        {
          "internalType": "address",
          "name": "_newOracleAdmin",
          "type": "address"
        }
      ],
      "name": "updateOracleAddminAddress",
      "outputs": [],
      "stateMutability": "nonpayable",
      "type": "function"
    },
    {
      "inputs": [],
      "name": "updateAvailableFunds",
      "outputs": [],
      "stateMutability": "nonpayable",
      "type": "function"
    },
    {
      "inputs": [
        {
          "internalType": "address",
          "name": "",
          "type": "address"
        },
        {
          "internalType": "uint256",
          "name": "",
          "type": "uint256"
        },
        {
          "internalType": "bytes",
          "name": "_data",
          "type": "bytes"
        }
      ],
      "name": "onTokenTransfer",
      "outputs": [],
      "stateMutability": "nonpayable",
      "type": "function"
    },
    {
      "inputs": [
        {
          "internalType": "address",
          "name": "_recipient",
          "type": "address"
        },
        {
          "internalType": "uint256",
          "name": "_amount",
          "type": "uint256"
        }
      ],
      "name": "withdrawFunds",
      "outputs": [],
      "stateMutability": "nonpayable",
      "type": "function"
    },
    {
      "inputs": [
        {
          "internalType": "uint256",
          "name": "_minConfirmations",
          "type": "uint256"
        }
      ],
      "name": "setMinConfirmations",
      "outputs": [],
      "stateMutability": "nonpayable",
      "type": "function"
    },
    {
      "inputs": [
        {
          "internalType": "uint128",
          "name": "_payment",
          "type": "uint128"
        }
      ],
      "name": "setPayment",
      "outputs": [],
      "stateMutability": "nonpayable",
      "type": "function"
    },
    {
      "inputs": [
        {
          "internalType": "address",
          "name": "_oracle",
          "type": "address"
        },
        {
          "internalType": "address",
          "name": "_admin",
          "type": "address"
        }
      ],
      "name": "addOracle",
      "outputs": [],
      "stateMutability": "nonpayable",
      "type": "function"
    },
    {
      "inputs": [
        {
          "internalType": "address",
          "name": "_oracle",
          "type": "address"
        }
      ],
      "name": "removeOracle",
      "outputs": [],
      "stateMutability": "nonpayable",
      "type": "function"
    },
    {
      "inputs": [
        {
          "internalType": "address",
          "name": "_oracle",
          "type": "address"
        }
      ],
      "name": "withdrawablePayment",
      "outputs": [
        {
          "internalType": "uint256",
          "name": "",
          "type": "uint256"
        }
      ],
      "stateMutability": "view",
      "type": "function"
    }
  ],
  "bytecode": "0x60806040523480156200001157600080fd5b50604051620011f0380380620011f0833981016040819052620000349162000153565b60018390556001600160801b038216600455600580546001600160a01b0319166001600160a01b0383161790556200006e600033620000a3565b6200009a7f68e79a7bf1e0bc45d0a330c573bc367f9cf464fd326078812f301165fbda4ef133620000a3565b505050620001af565b620000af8282620000b3565b5050565b6000828152602081815260408083206001600160a01b038516845290915290205460ff16620000af576000828152602081815260408083206001600160a01b03851684529091529020805460ff191660011790556200010f3390565b6001600160a01b0316816001600160a01b0316837f2f8788117e7eff1d82e926ec794901d17c78024a50270940304540a733656f0d60405160405180910390a45050565b60008060006060848603121562000168578283fd5b835160208501519093506001600160801b038116811462000187578283fd5b60408501519092506001600160a01b0381168114620001a4578182fd5b809150509250925092565b61103180620001bf6000396000f3fe608060405234801561001057600080fd5b50600436106101735760003560e01c806391d14854116100de578063d282165511610097578063e2e4031711610071578063e2e403171461036e578063e7c4393e14610397578063f0ca4adb146103a0578063fdc85fc4146103b357610173565b8063d28216551461033f578063d4cc54e414610352578063d547741f1461035b57610173565b806391d148541461029e5780639e4bea10146102b1578063a217fddf146102c4578063a4c0ed36146102cc578063bfdb6b04146102df578063c10753291461032c57610173565b80633d3d7714116101305780633d3d77141461024b57806342f6487a1461025e57806346fcff4c1461026757806348f6179c146102705780634f8fc3b51461028357806382313e501461028b57610173565b806301ffc9a71461017857806307e2cea5146101a05780631c4695f4146101d5578063248a9ca3146102005780632f2ff15d1461022357806336568abe14610238575b600080fd5b61018b610186366004610f44565b6103c6565b60405190151581526020015b60405180910390f35b6101c77f68e79a7bf1e0bc45d0a330c573bc367f9cf464fd326078812f301165fbda4ef181565b604051908152602001610197565b6005546101e8906001600160a01b031681565b6040516001600160a01b039091168152602001610197565b6101c761020e366004610f0a565b60009081526020819052604090206001015490565b610236610231366004610f22565b6103ff565b005b610236610246366004610f22565b610493565b610236610259366004610e04565b61050d565b6101c760045481565b6101c760035481565b61023661027e366004610dd2565b6106ee565b6102366107bb565b610236610299366004610f6c565b610848565b61018b6102ac366004610f22565b61087d565b6102366102bf366004610dd2565b6108a6565b6101c7600081565b6102366102da366004610e68565b61095d565b61030f6102ed366004610db1565b600660205260009081526040902080546001909101546001600160a01b031682565b604080519283526001600160a01b03909116602083015201610197565b61023661033a366004610e3f565b610a0d565b61023661034d366004610f0a565b610b60565b6101c760025481565b610236610369366004610f22565b610b8c565b6101c761037c366004610db1565b6001600160a01b031660009081526006602052604090205490565b6101c760015481565b6102366103ae366004610dd2565b610c0c565b6102366103c1366004610db1565b610c5d565b60006001600160e01b03198216637965db0b60e01b14806103f757506301ffc9a760e01b6001600160e01b03198316145b90505b919050565b60008281526020819052604090206001015461041c905b336102ac565b6104855760405162461bcd60e51b815260206004820152602f60248201527f416363657373436f6e74726f6c3a2073656e646572206d75737420626520616e60448201526e0818591b5a5b881d1bc819dc985b9d608a1b60648201526084015b60405180910390fd5b61048f8282610cb1565b5050565b6001600160a01b03811633146105035760405162461bcd60e51b815260206004820152602f60248201527f416363657373436f6e74726f6c3a2063616e206f6e6c792072656e6f756e636560448201526e103937b632b9903337b91039b2b63360891b606482015260840161047c565b61048f8282610d35565b6001600160a01b038381166000908152600660205260409020600101541633146105895760405162461bcd60e51b815260206004820152602760248201527f77697468647261775061796d656e743a206f6e6c792063616c6c61626c6520626044820152663c9030b236b4b760c91b606482015260840161047c565b6001600160a01b0383166000908152600660205260409020548181101561060b5760405162461bcd60e51b815260206004820152603060248201527f77697468647261775061796d656e743a20696e73756666696369656e7420776960448201526f74686472617761626c652066756e647360801b606482015260840161047c565b6106158282610fd8565b6001600160a01b03851660009081526006602052604081209190915560028054849290610643908490610fd8565b909155505060055460405163a9059cbb60e01b81526001600160a01b038581166004830152602482018590529091169063a9059cbb90604401602060405180830381600087803b15801561069657600080fd5b505af11580156106aa573d6000803e3d6000fd5b505050506040513d601f19601f820116820180604052508101906106ce9190610eea565b6106e857634e487b7160e01b600052600160045260246000fd5b50505050565b6001600160a01b0382811660009081526006602052604090206001015416331461076e5760405162461bcd60e51b815260206004820152602b60248201527f7570646174654f7261636c65416464726573733a206f6e6c792063616c6c616260448201526a363290313c9030b236b4b760a91b606482015260840161047c565b6001600160a01b0390811660009081526006602052604080822060018082018054336001600160a01b03199182161790915595909416835290822080549091559081550180549091169055565b6002546005546040516370a0823160e01b81523060048201526001600160a01b03909116906370a082319060240160206040518083038186803b15801561080157600080fd5b505afa158015610815573d6000803e3d6000fd5b505050506040513d601f19601f820116820180604052508101906108399190610f93565b6108439190610fd8565b600355565b61085360003361087d565b61086f5760405162461bcd60e51b815260040161047c90610fab565b6001600160801b0316600455565b6000918252602082815260408084206001600160a01b0393909316845291905290205460ff1690565b6001600160a01b0382811660009081526006602052604090206001015416331461092c5760405162461bcd60e51b815260206004820152603160248201527f7570646174654f7261636c654164646d696e416464726573733a206f6e6c792060448201527031b0b63630b1363290313c9030b236b4b760791b606482015260840161047c565b6001600160a01b03918216600090815260066020526040902060010180546001600160a01b03191691909216179055565b6005546001600160a01b031633146109b75760405162461bcd60e51b815260206004820152601d60248201527f6f6e546f6b656e5472616e736665723a206e6f7420746865204c696e6b000000604482015260640161047c565b8015610a055760405162461bcd60e51b815260206004820181905260248201527f7472616e7366657220646f65736e2774206163636570742063616c6c64617461604482015260640161047c565b6106e86107bb565b610a1860003361087d565b610a345760405162461bcd60e51b815260040161047c90610fab565b806003541015610a865760405162461bcd60e51b815260206004820152601a60248201527f696e73756666696369656e7420726573657276652066756e6473000000000000604482015260640161047c565b60055460405163a9059cbb60e01b81526001600160a01b038481166004830152602482018490529091169063a9059cbb90604401602060405180830381600087803b158015610ad457600080fd5b505af1158015610ae8573d6000803e3d6000fd5b505050506040513d601f19601f82011682018060405250810190610b0c9190610eea565b610b585760405162461bcd60e51b815260206004820152601e60248201527f776974686472617746756e64733a207472616e73666572206661696c65640000604482015260640161047c565b61048f6107bb565b610b6b60003361087d565b610b875760405162461bcd60e51b815260040161047c90610fab565b600155565b600082815260208190526040902060010154610ba790610416565b6105035760405162461bcd60e51b815260206004820152603060248201527f416363657373436f6e74726f6c3a2073656e646572206d75737420626520616e60448201526f2061646d696e20746f207265766f6b6560801b606482015260840161047c565b610c1760003361087d565b610c335760405162461bcd60e51b815260040161047c90610fab565b61092c7f68e79a7bf1e0bc45d0a330c573bc367f9cf464fd326078812f301165fbda4ef1836103ff565b610c6860003361087d565b610c845760405162461bcd60e51b815260040161047c90610fab565b610cae7f68e79a7bf1e0bc45d0a330c573bc367f9cf464fd326078812f301165fbda4ef182610b8c565b50565b610cbb828261087d565b61048f576000828152602081815260408083206001600160a01b03851684529091529020805460ff19166001179055610cf13390565b6001600160a01b0316816001600160a01b0316837f2f8788117e7eff1d82e926ec794901d17c78024a50270940304540a733656f0d60405160405180910390a45050565b610d3f828261087d565b1561048f576000828152602081815260408083206001600160a01b0385168085529252808320805460ff1916905551339285917ff6391f5c32d9c69d2a47ea670b442974b53935d1edc7fd64eb21e047a839171b9190a45050565b80356001600160a01b03811681146103fa57600080fd5b600060208284031215610dc2578081fd5b610dcb82610d9a565b9392505050565b60008060408385031215610de4578081fd5b610ded83610d9a565b9150610dfb60208401610d9a565b90509250929050565b600080600060608486031215610e18578081fd5b610e2184610d9a565b9250610e2f60208501610d9a565b9150604084013590509250925092565b60008060408385031215610e51578182fd5b610e5a83610d9a565b946020939093013593505050565b60008060008060608587031215610e7d578081fd5b610e8685610d9a565b935060208501359250604085013567ffffffffffffffff80821115610ea9578283fd5b818701915087601f830112610ebc578283fd5b813581811115610eca578384fd5b886020828501011115610edb578384fd5b95989497505060200194505050565b600060208284031215610efb578081fd5b81518015158114610dcb578182fd5b600060208284031215610f1b578081fd5b5035919050565b60008060408385031215610f34578182fd5b82359150610dfb60208401610d9a565b600060208284031215610f55578081fd5b81356001600160e01b031981168114610dcb578182fd5b600060208284031215610f7d578081fd5b81356001600160801b0381168114610dcb578182fd5b600060208284031215610fa4578081fd5b5051919050565b6020808252601390820152726f6e6c7941646d696e3a2062616420726f6c6560681b604082015260600190565b600082821015610ff657634e487b7160e01b81526011600452602481fd5b50039056fea264697066735822122091ff009d822bbe591aad80b002486353a67cec579f95260672813eb5ddfb37f764736f6c63430008020033",
  "immutableReferences": {},
  "source": "// SPDX-License-Identifier: MIT\npragma solidity ^0.8.2;\n\nimport \"@openzeppelin/contracts/access/AccessControl.sol\";\nimport \"@openzeppelin/contracts/token/ERC20/IERC20.sol\";\n\ncontract Aggregator is AccessControl {\n    struct OracleInfo {\n        uint256 withdrawable; // amount of withdrawable LINKs\n        address admin; // current oracle admin\n    }\n\n    bytes32 public constant ORACLE_ROLE = keccak256(\"ORACLE_ROLE\"); // role allowed to submit the data\n    uint256 public minConfirmations; // minimal required confimations\n    uint256 public allocatedFunds; // LINK's amount payed to oracles\n    uint256 public availableFunds; // LINK's amount available to be payed to oracles\n    uint256 public payment; // payment for one submission\n    IERC20 public link; // LINK's token address\n    mapping(address => OracleInfo) public getOracleInfo; // oracle address => oracle details\n\n    modifier onlyAdmin {\n        require(hasRole(DEFAULT_ADMIN_ROLE, msg.sender), \"onlyAdmin: bad role\");\n        _;\n    }\n    modifier onlyOracle {\n        require(hasRole(ORACLE_ROLE, msg.sender), \"onlyOracle: bad role\");\n        _;\n    }\n\n    /* PUBLIC */\n\n    /// @dev Constructor that initializes the most important configurations.\n    /// @param _minConfirmations Minimal required confirmations.\n    /// @param _payment Oracle reward.\n    /// @param _link Link token to pay to oracles.\n    constructor(\n        uint256 _minConfirmations,\n        uint128 _payment,\n        IERC20 _link\n    ) {\n        minConfirmations = _minConfirmations;\n        payment = _payment;\n        link = _link;\n        _setupRole(DEFAULT_ADMIN_ROLE, msg.sender);\n        _setupRole(ORACLE_ROLE, msg.sender);\n    }\n\n    /// @dev Withdraws oracle reward.\n    /// @param _oracle Oracle address.\n    /// @param _recipient Recepient reward.\n    /// @param _amount Amount to withdraw.\n    function withdrawPayment(\n        address _oracle,\n        address _recipient,\n        uint256 _amount\n    ) external {\n        require(\n            getOracleInfo[_oracle].admin == msg.sender,\n            \"withdrawPayment: only callable by admin\"\n        );\n        uint256 available = getOracleInfo[_oracle].withdrawable;\n        require(\n            available >= _amount,\n            \"withdrawPayment: insufficient withdrawable funds\"\n        );\n        getOracleInfo[_oracle].withdrawable = available - _amount;\n        allocatedFunds -= _amount;\n        assert(link.transfer(_recipient, _amount));\n    }\n\n    /// @dev Updates oracle's address.\n    /// @param _oracle Oracle address.\n    /// @param _newOracle Oracle address.\n    function updateOracleAddress(address _oracle, address _newOracle) external {\n        require(\n            getOracleInfo[_oracle].admin == msg.sender,\n            \"updateOracleAddress: only callable by admin\"\n        );\n        getOracleInfo[_newOracle].admin = msg.sender;\n        getOracleInfo[_newOracle].withdrawable = getOracleInfo[_oracle]\n            .withdrawable;\n        delete getOracleInfo[_oracle];\n    }\n\n    /// @dev Updates oracle's admin address.\n    /// @param _oracle Oracle address.\n    /// @param _newOracleAdmin Oracle address.\n    function updateOracleAddminAddress(address _oracle, address _newOracleAdmin)\n        external\n    {\n        require(\n            getOracleInfo[_oracle].admin == msg.sender,\n            \"updateOracleAddminAddress: only callable by admin\"\n        );\n        getOracleInfo[_oracle].admin = _newOracleAdmin;\n    }\n\n    /// @dev Updates available rewards to be distributed.\n    function updateAvailableFunds() public {\n        availableFunds = link.balanceOf(address(this)) - allocatedFunds;\n    }\n\n    function onTokenTransfer(\n        address,\n        uint256,\n        bytes calldata _data\n    ) external {\n        require(msg.sender == address(link), \"onTokenTransfer: not the Link\");\n        require(_data.length == 0, \"transfer doesn't accept calldata\");\n        updateAvailableFunds();\n    }\n\n    /* ADMIN */\n\n    /// @dev Withdraws available LINK's.\n    /// @param _recipient Recepient reward.\n    /// @param _amount Amount to withdraw.\n    function withdrawFunds(address _recipient, uint256 _amount)\n        external\n        onlyAdmin()\n    {\n        require(\n            uint256(availableFunds) >= _amount,\n            \"insufficient reserve funds\"\n        );\n        require(\n            link.transfer(_recipient, _amount),\n            \"withdrawFunds: transfer failed\"\n        );\n        updateAvailableFunds();\n    }\n\n    /// @dev Sets minimal required confirmations.\n    /// @param _minConfirmations Minimal required confirmations.\n    function setMinConfirmations(uint256 _minConfirmations) external onlyAdmin {\n        minConfirmations = _minConfirmations;\n    }\n\n    /// @dev Sets new oracle reward.\n    /// @param _payment Oracle reward.\n    function setPayment(uint128 _payment) external onlyAdmin {\n        payment = _payment;\n    }\n\n    /// @dev Add new oracle.\n    /// @param _oracle Oracle address.\n    /// @param _admin Admin address.\n    function addOracle(address _oracle, address _admin) external onlyAdmin {\n        grantRole(ORACLE_ROLE, _oracle);\n        getOracleInfo[_oracle].admin = _admin;\n    }\n\n    /// @dev Remove oracle.\n    /// @param _oracle Oracle address.\n    function removeOracle(address _oracle) external onlyAdmin {\n        revokeRole(ORACLE_ROLE, _oracle);\n    }\n\n    /* INTERNAL */\n\n    /// @dev Assess teh oracle rewards.\n    /// @param _oracle Oracle address.\n    function _payOracle(address _oracle) internal {\n        availableFunds -= payment;\n        allocatedFunds += payment;\n        getOracleInfo[_oracle].withdrawable += payment;\n    }\n\n    /* VIEW */\n\n    /// @dev Withdraws oracle reward.\n    /// @param _oracle Oracle address.\n    /// @return Oracle rewards.\n    function withdrawablePayment(address _oracle)\n        external\n        view\n        returns (uint256)\n    {\n        return getOracleInfo[_oracle].withdrawable;\n    }\n}\n",
  "sourcePath": "/Users/kstasi/Documents/side/debridge-contracts/contracts/chainlink/Aggregator.sol",
  "compiler": {
    "name": "solc",
    "version": "0.8.2+commit.661d1103.Emscripten.clang"
  },
  "schemaVersion": "3.3.4",
  "updatedAt": "2021-04-20T19:27:19.211Z",
  "devdoc": {
    "kind": "dev",
    "methods": {
      "addOracle(address,address)": {
        "details": "Add new oracle.",
        "params": {
          "_admin": "Admin address.",
          "_oracle": "Oracle address."
        }
      },
      "constructor": {
        "details": "Constructor that initializes the most important configurations.",
        "params": {
          "_link": "Link token to pay to oracles.",
          "_minConfirmations": "Minimal required confirmations.",
          "_payment": "Oracle reward."
        }
      },
      "getRoleAdmin(bytes32)": {
        "details": "Returns the admin role that controls `role`. See {grantRole} and {revokeRole}. To change a role's admin, use {_setRoleAdmin}."
      },
      "grantRole(bytes32,address)": {
        "details": "Grants `role` to `account`. If `account` had not been already granted `role`, emits a {RoleGranted} event. Requirements: - the caller must have ``role``'s admin role."
      },
      "hasRole(bytes32,address)": {
        "details": "Returns `true` if `account` has been granted `role`."
      },
      "removeOracle(address)": {
        "details": "Remove oracle.",
        "params": {
          "_oracle": "Oracle address."
        }
      },
      "renounceRole(bytes32,address)": {
        "details": "Revokes `role` from the calling account. Roles are often managed via {grantRole} and {revokeRole}: this function's purpose is to provide a mechanism for accounts to lose their privileges if they are compromised (such as when a trusted device is misplaced). If the calling account had been granted `role`, emits a {RoleRevoked} event. Requirements: - the caller must be `account`."
      },
      "revokeRole(bytes32,address)": {
        "details": "Revokes `role` from `account`. If `account` had been granted `role`, emits a {RoleRevoked} event. Requirements: - the caller must have ``role``'s admin role."
      },
      "setMinConfirmations(uint256)": {
        "details": "Sets minimal required confirmations.",
        "params": {
          "_minConfirmations": "Minimal required confirmations."
        }
      },
      "setPayment(uint128)": {
        "details": "Sets new oracle reward.",
        "params": {
          "_payment": "Oracle reward."
        }
      },
      "supportsInterface(bytes4)": {
        "details": "See {IERC165-supportsInterface}."
      },
      "updateAvailableFunds()": {
        "details": "Updates available rewards to be distributed."
      },
      "updateOracleAddminAddress(address,address)": {
        "details": "Updates oracle's admin address.",
        "params": {
          "_newOracleAdmin": "Oracle address.",
          "_oracle": "Oracle address."
        }
      },
      "updateOracleAddress(address,address)": {
        "details": "Updates oracle's address.",
        "params": {
          "_newOracle": "Oracle address.",
          "_oracle": "Oracle address."
        }
      },
      "withdrawFunds(address,uint256)": {
        "details": "Withdraws available LINK's.",
        "params": {
          "_amount": "Amount to withdraw.",
          "_recipient": "Recepient reward."
        }
      },
      "withdrawPayment(address,address,uint256)": {
        "details": "Withdraws oracle reward.",
        "params": {
          "_amount": "Amount to withdraw.",
          "_oracle": "Oracle address.",
          "_recipient": "Recepient reward."
        }
      },
      "withdrawablePayment(address)": {
        "details": "Withdraws oracle reward.",
        "params": {
          "_oracle": "Oracle address."
        },
        "returns": {
          "_0": "Oracle rewards."
        }
      }
    },
    "version": 1
  },
  "userdoc": {
    "kind": "user",
    "methods": {},
    "version": 1
  }
}