{
  "contractName": "Aggregator",
  "abi": [
    {
      "inputs": [
        {
          "internalType": "uint256",
          "name": "_minConfirmations",
          "type": "uint256"
        },
        {
          "internalType": "uint128",
          "name": "_payment",
          "type": "uint128"
        },
        {
          "internalType": "contract IERC20",
          "name": "_link",
          "type": "address"
        }
      ],
      "stateMutability": "nonpayable",
      "type": "constructor"
    },
    {
      "anonymous": false,
      "inputs": [
        {
          "indexed": true,
          "internalType": "bytes32",
          "name": "role",
          "type": "bytes32"
        },
        {
          "indexed": true,
          "internalType": "bytes32",
          "name": "previousAdminRole",
          "type": "bytes32"
        },
        {
          "indexed": true,
          "internalType": "bytes32",
          "name": "newAdminRole",
          "type": "bytes32"
        }
      ],
      "name": "RoleAdminChanged",
      "type": "event"
    },
    {
      "anonymous": false,
      "inputs": [
        {
          "indexed": true,
          "internalType": "bytes32",
          "name": "role",
          "type": "bytes32"
        },
        {
          "indexed": true,
          "internalType": "address",
          "name": "account",
          "type": "address"
        },
        {
          "indexed": true,
          "internalType": "address",
          "name": "sender",
          "type": "address"
        }
      ],
      "name": "RoleGranted",
      "type": "event"
    },
    {
      "anonymous": false,
      "inputs": [
        {
          "indexed": true,
          "internalType": "bytes32",
          "name": "role",
          "type": "bytes32"
        },
        {
          "indexed": true,
          "internalType": "address",
          "name": "account",
          "type": "address"
        },
        {
          "indexed": true,
          "internalType": "address",
          "name": "sender",
          "type": "address"
        }
      ],
      "name": "RoleRevoked",
      "type": "event"
    },
    {
      "inputs": [],
      "name": "DEFAULT_ADMIN_ROLE",
      "outputs": [
        {
          "internalType": "bytes32",
          "name": "",
          "type": "bytes32"
        }
      ],
      "stateMutability": "view",
      "type": "function"
    },
    {
      "inputs": [],
      "name": "ORACLE_ROLE",
      "outputs": [
        {
          "internalType": "bytes32",
          "name": "",
          "type": "bytes32"
        }
      ],
      "stateMutability": "view",
      "type": "function"
    },
    {
      "inputs": [],
      "name": "allocatedFunds",
      "outputs": [
        {
          "internalType": "uint256",
          "name": "",
          "type": "uint256"
        }
      ],
      "stateMutability": "view",
      "type": "function"
    },
    {
      "inputs": [],
      "name": "availableFunds",
      "outputs": [
        {
          "internalType": "uint256",
          "name": "",
          "type": "uint256"
        }
      ],
      "stateMutability": "view",
      "type": "function"
    },
    {
      "inputs": [
        {
          "internalType": "bytes32",
          "name": "role",
          "type": "bytes32"
        }
      ],
      "name": "getRoleAdmin",
      "outputs": [
        {
          "internalType": "bytes32",
          "name": "",
          "type": "bytes32"
        }
      ],
      "stateMutability": "view",
      "type": "function"
    },
    {
      "inputs": [
        {
          "internalType": "address",
          "name": "",
          "type": "address"
        }
      ],
      "name": "getRracleInfo",
      "outputs": [
        {
          "internalType": "uint128",
          "name": "withdrawable",
          "type": "uint128"
        },
        {
          "internalType": "address",
          "name": "admin",
          "type": "address"
        },
        {
          "internalType": "address",
          "name": "pendingAdmin",
          "type": "address"
        }
      ],
      "stateMutability": "view",
      "type": "function"
    },
    {
      "inputs": [
        {
          "internalType": "bytes32",
          "name": "role",
          "type": "bytes32"
        },
        {
          "internalType": "address",
          "name": "account",
          "type": "address"
        }
      ],
      "name": "grantRole",
      "outputs": [],
      "stateMutability": "nonpayable",
      "type": "function"
    },
    {
      "inputs": [
        {
          "internalType": "bytes32",
          "name": "role",
          "type": "bytes32"
        },
        {
          "internalType": "address",
          "name": "account",
          "type": "address"
        }
      ],
      "name": "hasRole",
      "outputs": [
        {
          "internalType": "bool",
          "name": "",
          "type": "bool"
        }
      ],
      "stateMutability": "view",
      "type": "function"
    },
    {
      "inputs": [],
      "name": "link",
      "outputs": [
        {
          "internalType": "contract IERC20",
          "name": "",
          "type": "address"
        }
      ],
      "stateMutability": "view",
      "type": "function"
    },
    {
      "inputs": [],
      "name": "minConfirmations",
      "outputs": [
        {
          "internalType": "uint256",
          "name": "",
          "type": "uint256"
        }
      ],
      "stateMutability": "view",
      "type": "function"
    },
    {
      "inputs": [],
      "name": "payment",
      "outputs": [
        {
          "internalType": "uint128",
          "name": "",
          "type": "uint128"
        }
      ],
      "stateMutability": "view",
      "type": "function"
    },
    {
      "inputs": [
        {
          "internalType": "bytes32",
          "name": "role",
          "type": "bytes32"
        },
        {
          "internalType": "address",
          "name": "account",
          "type": "address"
        }
      ],
      "name": "renounceRole",
      "outputs": [],
      "stateMutability": "nonpayable",
      "type": "function"
    },
    {
      "inputs": [
        {
          "internalType": "bytes32",
          "name": "role",
          "type": "bytes32"
        },
        {
          "internalType": "address",
          "name": "account",
          "type": "address"
        }
      ],
      "name": "revokeRole",
      "outputs": [],
      "stateMutability": "nonpayable",
      "type": "function"
    },
    {
      "inputs": [
        {
          "internalType": "bytes4",
          "name": "interfaceId",
          "type": "bytes4"
        }
      ],
      "name": "supportsInterface",
      "outputs": [
        {
          "internalType": "bool",
          "name": "",
          "type": "bool"
        }
      ],
      "stateMutability": "view",
      "type": "function"
    },
    {
      "inputs": [
        {
          "internalType": "uint256",
          "name": "_minConfirmations",
          "type": "uint256"
        }
      ],
      "name": "setMinConfirmations",
      "outputs": [],
      "stateMutability": "nonpayable",
      "type": "function"
    },
    {
      "inputs": [
        {
          "internalType": "uint128",
          "name": "_payment",
          "type": "uint128"
        }
      ],
      "name": "setPayment",
      "outputs": [],
      "stateMutability": "nonpayable",
      "type": "function"
    },
    {
      "inputs": [
        {
          "internalType": "address",
          "name": "_oracle",
          "type": "address"
        }
      ],
      "name": "withdrawablePayment",
      "outputs": [
        {
          "internalType": "uint256",
          "name": "",
          "type": "uint256"
        }
      ],
      "stateMutability": "view",
      "type": "function"
    },
    {
      "inputs": [
        {
          "internalType": "address",
          "name": "_oracle",
          "type": "address"
        },
        {
          "internalType": "address",
          "name": "_recipient",
          "type": "address"
        },
        {
          "internalType": "uint256",
          "name": "_amount",
          "type": "uint256"
        }
      ],
      "name": "withdrawPayment",
      "outputs": [],
      "stateMutability": "nonpayable",
      "type": "function"
    },
    {
      "inputs": [
        {
          "internalType": "address",
          "name": "_recipient",
          "type": "address"
        },
        {
          "internalType": "uint256",
          "name": "_amount",
          "type": "uint256"
        }
      ],
      "name": "withdrawFunds",
      "outputs": [],
      "stateMutability": "nonpayable",
      "type": "function"
    },
    {
      "inputs": [],
      "name": "updateAvailableFunds",
      "outputs": [],
      "stateMutability": "nonpayable",
      "type": "function"
    },
    {
      "inputs": [
        {
          "internalType": "address",
          "name": "",
          "type": "address"
        },
        {
          "internalType": "uint256",
          "name": "",
          "type": "uint256"
        },
        {
          "internalType": "bytes",
          "name": "_data",
          "type": "bytes"
        }
      ],
      "name": "onTokenTransfer",
      "outputs": [],
      "stateMutability": "nonpayable",
      "type": "function"
    }
  ],
  "bytecode": "0x60806040523480156200001157600080fd5b5060405162001f5f38038062001f5f833981810160405281019062000037919062000294565b8260018190555081600460006101000a8154816fffffffffffffffffffffffffffffffff02191690836fffffffffffffffffffffffffffffffff16021790555080600560006101000a81548173ffffffffffffffffffffffffffffffffffffffff021916908373ffffffffffffffffffffffffffffffffffffffff160217905550620000cd6000801b33620000d660201b60201c565b505050620003a6565b620000e88282620000ec60201b60201c565b5050565b620000fe8282620001dd60201b60201c565b620001d957600160008084815260200190815260200160002060000160008373ffffffffffffffffffffffffffffffffffffffff1673ffffffffffffffffffffffffffffffffffffffff16815260200190815260200160002060006101000a81548160ff0219169083151502179055506200017e6200024760201b60201c565b73ffffffffffffffffffffffffffffffffffffffff168173ffffffffffffffffffffffffffffffffffffffff16837f2f8788117e7eff1d82e926ec794901d17c78024a50270940304540a733656f0d60405160405180910390a45b5050565b600080600084815260200190815260200160002060000160008373ffffffffffffffffffffffffffffffffffffffff1673ffffffffffffffffffffffffffffffffffffffff16815260200190815260200160002060009054906101000a900460ff16905092915050565b600033905090565b600081519050620002608162000358565b92915050565b600081519050620002778162000372565b92915050565b6000815190506200028e816200038c565b92915050565b600080600060608486031215620002aa57600080fd5b6000620002ba868287016200027d565b9350506020620002cd8682870162000266565b9250506040620002e0868287016200024f565b9150509250925092565b6000620002f7826200032e565b9050919050565b60006200030b82620002ea565b9050919050565b60006fffffffffffffffffffffffffffffffff82169050919050565b600073ffffffffffffffffffffffffffffffffffffffff82169050919050565b6000819050919050565b6200036381620002fe565b81146200036f57600080fd5b50565b6200037d8162000312565b81146200038957600080fd5b50565b62000397816200034e565b8114620003a357600080fd5b50565b611ba980620003b66000396000f3fe608060405234801561001057600080fd5b50600436106101375760003560e01c80634f8fc3b5116100b8578063c10753291161007c578063c10753291461032a578063d282165514610346578063d4cc54e414610362578063d547741f14610380578063e2e403171461039c578063e7c4393e146103cc57610137565b80634f8fc3b51461029a57806382313e50146102a457806391d14854146102c0578063a217fddf146102f0578063a4c0ed361461030e57610137565b80632f2ff15d116100ff5780632f2ff15d1461020a57806336568abe146102265780633d3d77141461024257806342f6487a1461025e57806346fcff4c1461027c57610137565b806301ffc9a71461013c57806307e2cea51461016c5780631c4695f41461018a578063248a9ca3146101a85780632dd6b35c146101d8575b600080fd5b61015660048036038101906101519190611345565b6103ea565b60405161016391906115c2565b60405180910390f35b610174610464565b60405161018191906115dd565b60405180910390f35b610192610488565b60405161019f91906115f8565b60405180910390f35b6101c260048036038101906101bd91906112e0565b6104ae565b6040516101cf91906115dd565b60405180910390f35b6101f260048036038101906101ed9190611197565b6104cd565b6040516102019392919061174e565b60405180910390f35b610224600480360381019061021f9190611309565b610553565b005b610240600480360381019061023b9190611309565b6105b9565b005b61025c600480360381019061025791906111c0565b61063c565b005b610266610985565b6040516102739190611733565b60405180910390f35b6102846109a7565b6040516102919190611785565b60405180910390f35b6102a26109ad565b005b6102be60048036038101906102b9919061136e565b610a6d565b005b6102da60048036038101906102d59190611309565b610af5565b6040516102e791906115c2565b60405180910390f35b6102f8610b5f565b60405161030591906115dd565b60405180910390f35b6103286004803603810190610323919061124b565b610b66565b005b610344600480360381019061033f919061120f565b610bba565b005b610360600480360381019061035b9190611397565b610d45565b005b61036a610d9b565b6040516103779190611785565b60405180910390f35b61039a60048036038101906103959190611309565b610da1565b005b6103b660048036038101906103b19190611197565b610e07565b6040516103c39190611785565b60405180910390f35b6103d4610e81565b6040516103e19190611785565b60405180910390f35b60007f7965db0b000000000000000000000000000000000000000000000000000000007bffffffffffffffffffffffffffffffffffffffffffffffffffffffff1916827bffffffffffffffffffffffffffffffffffffffffffffffffffffffff1916148061045d575061045c82610e87565b5b9050919050565b7f68e79a7bf1e0bc45d0a330c573bc367f9cf464fd326078812f301165fbda4ef181565b600560009054906101000a900473ffffffffffffffffffffffffffffffffffffffff1681565b6000806000838152602001908152602001600020600101549050919050565b60066020528060005260406000206000915090508060000160009054906101000a90046fffffffffffffffffffffffffffffffff16908060010160009054906101000a900473ffffffffffffffffffffffffffffffffffffffff16908060020160009054906101000a900473ffffffffffffffffffffffffffffffffffffffff16905083565b61056c61055f836104ae565b610567610ef1565b610af5565b6105ab576040517f08c379a00000000000000000000000000000000000000000000000000000000081526004016105a290611613565b60405180910390fd5b6105b58282610ef9565b5050565b6105c1610ef1565b73ffffffffffffffffffffffffffffffffffffffff168173ffffffffffffffffffffffffffffffffffffffff161461062e576040517f08c379a000000000000000000000000000000000000000000000000000000000815260040161062590611713565b60405180910390fd5b6106388282610fd9565b5050565b3373ffffffffffffffffffffffffffffffffffffffff16600660008573ffffffffffffffffffffffffffffffffffffffff1673ffffffffffffffffffffffffffffffffffffffff16815260200190815260200160002060010160009054906101000a900473ffffffffffffffffffffffffffffffffffffffff1673ffffffffffffffffffffffffffffffffffffffff161461070c576040517f08c379a0000000000000000000000000000000000000000000000000000000008152600401610703906116d3565b60405180910390fd5b60008190506000600660008673ffffffffffffffffffffffffffffffffffffffff1673ffffffffffffffffffffffffffffffffffffffff16815260200190815260200160002060000160009054906101000a90046fffffffffffffffffffffffffffffffff169050816fffffffffffffffffffffffffffffffff16816fffffffffffffffffffffffffffffffff1610156107db576040517f08c379a00000000000000000000000000000000000000000000000000000000081526004016107d290611633565b60405180910390fd5b81816107e791906117b1565b600660008773ffffffffffffffffffffffffffffffffffffffff1673ffffffffffffffffffffffffffffffffffffffff16815260200190815260200160002060000160006101000a8154816fffffffffffffffffffffffffffffffff02191690836fffffffffffffffffffffffffffffffff160217905550816fffffffffffffffffffffffffffffffff166002600082825461088391906117e5565b92505081905550600560009054906101000a900473ffffffffffffffffffffffffffffffffffffffff1673ffffffffffffffffffffffffffffffffffffffff1663a9059cbb85846fffffffffffffffffffffffffffffffff166040518363ffffffff1660e01b81526004016108f9929190611599565b602060405180830381600087803b15801561091357600080fd5b505af1158015610927573d6000803e3d6000fd5b505050506040513d601f19601f8201168201806040525081019061094b91906112b7565b61097e577f4e487b7100000000000000000000000000000000000000000000000000000000600052600160045260246000fd5b5050505050565b600460009054906101000a90046fffffffffffffffffffffffffffffffff1681565b60035481565b600254600560009054906101000a900473ffffffffffffffffffffffffffffffffffffffff1673ffffffffffffffffffffffffffffffffffffffff166370a08231306040518263ffffffff1660e01b8152600401610a0b919061157e565b60206040518083038186803b158015610a2357600080fd5b505afa158015610a37573d6000803e3d6000fd5b505050506040513d601f19601f82011682018060405250810190610a5b91906113c0565b610a6591906117e5565b600381905550565b610a7a6000801b33610af5565b610ab9576040517f08c379a0000000000000000000000000000000000000000000000000000000008152600401610ab0906116f3565b60405180910390fd5b80600460006101000a8154816fffffffffffffffffffffffffffffffff02191690836fffffffffffffffffffffffffffffffff16021790555050565b600080600084815260200190815260200160002060000160008373ffffffffffffffffffffffffffffffffffffffff1673ffffffffffffffffffffffffffffffffffffffff16815260200190815260200160002060009054906101000a900460ff16905092915050565b6000801b81565b60008282905014610bac576040517f08c379a0000000000000000000000000000000000000000000000000000000008152600401610ba390611673565b60405180910390fd5b610bb46109ad565b50505050565b610bc76000801b33610af5565b610c06576040517f08c379a0000000000000000000000000000000000000000000000000000000008152600401610bfd906116f3565b60405180910390fd5b806003541015610c4b576040517f08c379a0000000000000000000000000000000000000000000000000000000008152600401610c42906116b3565b60405180910390fd5b600560009054906101000a900473ffffffffffffffffffffffffffffffffffffffff1673ffffffffffffffffffffffffffffffffffffffff1663a9059cbb83836040518363ffffffff1660e01b8152600401610ca8929190611599565b602060405180830381600087803b158015610cc257600080fd5b505af1158015610cd6573d6000803e3d6000fd5b505050506040513d601f19601f82011682018060405250810190610cfa91906112b7565b610d39576040517f08c379a0000000000000000000000000000000000000000000000000000000008152600401610d3090611653565b60405180910390fd5b610d416109ad565b5050565b610d526000801b33610af5565b610d91576040517f08c379a0000000000000000000000000000000000000000000000000000000008152600401610d88906116f3565b60405180910390fd5b8060018190555050565b60025481565b610dba610dad836104ae565b610db5610ef1565b610af5565b610df9576040517f08c379a0000000000000000000000000000000000000000000000000000000008152600401610df090611693565b60405180910390fd5b610e038282610fd9565b5050565b6000600660008373ffffffffffffffffffffffffffffffffffffffff1673ffffffffffffffffffffffffffffffffffffffff16815260200190815260200160002060000160009054906101000a90046fffffffffffffffffffffffffffffffff166fffffffffffffffffffffffffffffffff169050919050565b60015481565b60007f01ffc9a7000000000000000000000000000000000000000000000000000000007bffffffffffffffffffffffffffffffffffffffffffffffffffffffff1916827bffffffffffffffffffffffffffffffffffffffffffffffffffffffff1916149050919050565b600033905090565b610f038282610af5565b610fd557600160008084815260200190815260200160002060000160008373ffffffffffffffffffffffffffffffffffffffff1673ffffffffffffffffffffffffffffffffffffffff16815260200190815260200160002060006101000a81548160ff021916908315150217905550610f7a610ef1565b73ffffffffffffffffffffffffffffffffffffffff168173ffffffffffffffffffffffffffffffffffffffff16837f2f8788117e7eff1d82e926ec794901d17c78024a50270940304540a733656f0d60405160405180910390a45b5050565b610fe38282610af5565b156110b657600080600084815260200190815260200160002060000160008373ffffffffffffffffffffffffffffffffffffffff1673ffffffffffffffffffffffffffffffffffffffff16815260200190815260200160002060006101000a81548160ff02191690831515021790555061105b610ef1565b73ffffffffffffffffffffffffffffffffffffffff168173ffffffffffffffffffffffffffffffffffffffff16837ff6391f5c32d9c69d2a47ea670b442974b53935d1edc7fd64eb21e047a839171b60405160405180910390a45b5050565b6000813590506110c981611ae9565b92915050565b6000815190506110de81611b00565b92915050565b6000813590506110f381611b17565b92915050565b60008135905061110881611b2e565b92915050565b60008083601f84011261112057600080fd5b8235905067ffffffffffffffff81111561113957600080fd5b60208301915083600182028301111561115157600080fd5b9250929050565b60008135905061116781611b45565b92915050565b60008135905061117c81611b5c565b92915050565b60008151905061119181611b5c565b92915050565b6000602082840312156111a957600080fd5b60006111b7848285016110ba565b91505092915050565b6000806000606084860312156111d557600080fd5b60006111e3868287016110ba565b93505060206111f4868287016110ba565b92505060406112058682870161116d565b9150509250925092565b6000806040838503121561122257600080fd5b6000611230858286016110ba565b92505060206112418582860161116d565b9150509250929050565b6000806000806060858703121561126157600080fd5b600061126f878288016110ba565b94505060206112808782880161116d565b935050604085013567ffffffffffffffff81111561129d57600080fd5b6112a98782880161110e565b925092505092959194509250565b6000602082840312156112c957600080fd5b60006112d7848285016110cf565b91505092915050565b6000602082840312156112f257600080fd5b6000611300848285016110e4565b91505092915050565b6000806040838503121561131c57600080fd5b600061132a858286016110e4565b925050602061133b858286016110ba565b9150509250929050565b60006020828403121561135757600080fd5b6000611365848285016110f9565b91505092915050565b60006020828403121561138057600080fd5b600061138e84828501611158565b91505092915050565b6000602082840312156113a957600080fd5b60006113b78482850161116d565b91505092915050565b6000602082840312156113d257600080fd5b60006113e084828501611182565b91505092915050565b6113f281611819565b82525050565b6114018161182b565b82525050565b61141081611837565b82525050565b61141f816118b3565b82525050565b6000611432602f836117a0565b915061143d82611906565b604082019050919050565b6000611455601f836117a0565b915061146082611955565b602082019050919050565b6000611478601e836117a0565b91506114838261197e565b602082019050919050565b600061149b6020836117a0565b91506114a6826119a7565b602082019050919050565b60006114be6030836117a0565b91506114c9826119d0565b604082019050919050565b60006114e1601a836117a0565b91506114ec82611a1f565b602082019050919050565b60006115046016836117a0565b915061150f82611a48565b602082019050919050565b60006115276013836117a0565b915061153282611a71565b602082019050919050565b600061154a602f836117a0565b915061155582611a9a565b604082019050919050565b6115698161186d565b82525050565b611578816118a9565b82525050565b600060208201905061159360008301846113e9565b92915050565b60006040820190506115ae60008301856113e9565b6115bb602083018461156f565b9392505050565b60006020820190506115d760008301846113f8565b92915050565b60006020820190506115f26000830184611407565b92915050565b600060208201905061160d6000830184611416565b92915050565b6000602082019050818103600083015261162c81611425565b9050919050565b6000602082019050818103600083015261164c81611448565b9050919050565b6000602082019050818103600083015261166c8161146b565b9050919050565b6000602082019050818103600083015261168c8161148e565b9050919050565b600060208201905081810360008301526116ac816114b1565b9050919050565b600060208201905081810360008301526116cc816114d4565b9050919050565b600060208201905081810360008301526116ec816114f7565b9050919050565b6000602082019050818103600083015261170c8161151a565b9050919050565b6000602082019050818103600083015261172c8161153d565b9050919050565b60006020820190506117486000830184611560565b92915050565b60006060820190506117636000830186611560565b61177060208301856113e9565b61177d60408301846113e9565b949350505050565b600060208201905061179a600083018461156f565b92915050565b600082825260208201905092915050565b60006117bc8261186d565b91506117c78361186d565b9250828210156117da576117d96118d7565b5b828203905092915050565b60006117f0826118a9565b91506117fb836118a9565b92508282101561180e5761180d6118d7565b5b828203905092915050565b600061182482611889565b9050919050565b60008115159050919050565b6000819050919050565b60007fffffffff0000000000000000000000000000000000000000000000000000000082169050919050565b60006fffffffffffffffffffffffffffffffff82169050919050565b600073ffffffffffffffffffffffffffffffffffffffff82169050919050565b6000819050919050565b60006118be826118c5565b9050919050565b60006118d082611889565b9050919050565b7f4e487b7100000000000000000000000000000000000000000000000000000000600052601160045260246000fd5b7f416363657373436f6e74726f6c3a2073656e646572206d75737420626520616e60008201527f2061646d696e20746f206772616e740000000000000000000000000000000000602082015250565b7f696e73756666696369656e7420776974686472617761626c652066756e647300600082015250565b7f776974686472617746756e64733a207472616e73666572206661696c65640000600082015250565b7f7472616e7366657220646f65736e2774206163636570742063616c6c64617461600082015250565b7f416363657373436f6e74726f6c3a2073656e646572206d75737420626520616e60008201527f2061646d696e20746f207265766f6b6500000000000000000000000000000000602082015250565b7f696e73756666696369656e7420726573657276652066756e6473000000000000600082015250565b7f6f6e6c792063616c6c61626c652062792061646d696e00000000000000000000600082015250565b7f6f6e6c7941646d696e3a2062616420726f6c6500000000000000000000000000600082015250565b7f416363657373436f6e74726f6c3a2063616e206f6e6c792072656e6f756e636560008201527f20726f6c657320666f722073656c660000000000000000000000000000000000602082015250565b611af281611819565b8114611afd57600080fd5b50565b611b098161182b565b8114611b1457600080fd5b50565b611b2081611837565b8114611b2b57600080fd5b50565b611b3781611841565b8114611b4257600080fd5b50565b611b4e8161186d565b8114611b5957600080fd5b50565b611b65816118a9565b8114611b7057600080fd5b5056fea26469706673582212208a046878382263cceadaaa4e2c51a9b58aa84c6f71ed20c33f9a9acd8c94922864736f6c63430008020033",
  "immutableReferences": {},
  "source": "// SPDX-License-Identifier: MIT\npragma solidity ^0.8.2;\n\nimport \"@openzeppelin/contracts/access/AccessControl.sol\";\nimport \"@openzeppelin/contracts/token/ERC20/IERC20.sol\";\n\ncontract Aggregator is AccessControl {\n    struct OracleInfo {\n        uint128 withdrawable;\n        address admin;\n        address pendingAdmin;\n    }\n\n    bytes32 public constant ORACLE_ROLE = keccak256(\"ORACLE_ROLE\");\n    uint256 public minConfirmations;\n    uint256 public allocatedFunds;\n    uint256 public availableFunds;\n    uint128 public payment;\n    IERC20 public link;\n    mapping(address => OracleInfo) public getRracleInfo;\n\n    modifier onlyAdmin {\n        require(hasRole(DEFAULT_ADMIN_ROLE, msg.sender), \"onlyAdmin: bad role\");\n        _;\n    }\n    modifier onlyOracle {\n        require(hasRole(ORACLE_ROLE, msg.sender), \"onlyOracle: bad role\");\n        _;\n    }\n\n    constructor(\n        uint256 _minConfirmations,\n        uint128 _payment,\n        IERC20 _link\n    ) {\n        minConfirmations = _minConfirmations;\n        payment = _payment;\n        link = _link;\n        _setupRole(DEFAULT_ADMIN_ROLE, msg.sender);\n    }\n\n    function setMinConfirmations(uint256 _minConfirmations) external onlyAdmin {\n        minConfirmations = _minConfirmations;\n    }\n\n    function setPayment(uint128 _payment) external onlyAdmin {\n        payment = _payment;\n    }\n\n    function withdrawablePayment(address _oracle)\n        external\n        view\n        returns (uint256)\n    {\n        return getRracleInfo[_oracle].withdrawable;\n    }\n\n    function withdrawPayment(\n        address _oracle,\n        address _recipient,\n        uint256 _amount\n    ) external {\n        require(\n            getRracleInfo[_oracle].admin == msg.sender,\n            \"only callable by admin\"\n        );\n\n        uint128 amount = uint128(_amount);\n        uint128 available = getRracleInfo[_oracle].withdrawable;\n        require(available >= amount, \"insufficient withdrawable funds\");\n\n        getRracleInfo[_oracle].withdrawable = available - amount;\n        allocatedFunds -= amount;\n\n        assert(link.transfer(_recipient, uint256(amount)));\n    }\n\n    function withdrawFunds(address _recipient, uint256 _amount)\n        external\n        onlyAdmin()\n    {\n        require(\n            uint256(availableFunds) >= _amount,\n            \"insufficient reserve funds\"\n        );\n        require(\n            link.transfer(_recipient, _amount),\n            \"withdrawFunds: transfer failed\"\n        );\n        updateAvailableFunds();\n    }\n\n    function updateAvailableFunds() public {\n        availableFunds = link.balanceOf(address(this)) - allocatedFunds;\n    }\n\n    function onTokenTransfer(\n        address,\n        uint256,\n        bytes calldata _data\n    ) external {\n        require(_data.length == 0, \"transfer doesn't accept calldata\");\n        updateAvailableFunds();\n    }\n\n    function _payOracle(address _oracle) internal {\n        availableFunds -= payment;\n        allocatedFunds += payment;\n        getRracleInfo[_oracle].withdrawable += payment;\n    }\n}\n",
  "sourcePath": "/Users/kstasi/Documents/work/debridge-contracts/contracts/chainlink/Aggregator.sol",
  "compiler": {
    "name": "solc",
    "version": "0.8.2+commit.661d1103.Emscripten.clang"
  },
  "schemaVersion": "3.3.4",
  "updatedAt": "2021-03-16T21:18:10.029Z",
  "devdoc": {
    "kind": "dev",
    "methods": {
      "getRoleAdmin(bytes32)": {
        "details": "Returns the admin role that controls `role`. See {grantRole} and {revokeRole}. To change a role's admin, use {_setRoleAdmin}."
      },
      "grantRole(bytes32,address)": {
        "details": "Grants `role` to `account`. If `account` had not been already granted `role`, emits a {RoleGranted} event. Requirements: - the caller must have ``role``'s admin role."
      },
      "hasRole(bytes32,address)": {
        "details": "Returns `true` if `account` has been granted `role`."
      },
      "renounceRole(bytes32,address)": {
        "details": "Revokes `role` from the calling account. Roles are often managed via {grantRole} and {revokeRole}: this function's purpose is to provide a mechanism for accounts to lose their privileges if they are compromised (such as when a trusted device is misplaced). If the calling account had been granted `role`, emits a {RoleRevoked} event. Requirements: - the caller must be `account`."
      },
      "revokeRole(bytes32,address)": {
        "details": "Revokes `role` from `account`. If `account` had been granted `role`, emits a {RoleRevoked} event. Requirements: - the caller must have ``role``'s admin role."
      },
      "supportsInterface(bytes4)": {
        "details": "See {IERC165-supportsInterface}."
      }
    },
    "version": 1
  },
  "userdoc": {
    "kind": "user",
    "methods": {},
    "version": 1
  }
}