{
  "contractName": "Aggregator",
  "abi": [
    {
      "inputs": [
        {
          "internalType": "uint256",
          "name": "_minConfirmations",
          "type": "uint256"
        },
        {
          "internalType": "uint128",
          "name": "_payment",
          "type": "uint128"
        },
        {
          "internalType": "contract IERC20",
          "name": "_link",
          "type": "address"
        }
      ],
      "stateMutability": "nonpayable",
      "type": "constructor"
    },
    {
      "anonymous": false,
      "inputs": [
        {
          "indexed": true,
          "internalType": "bytes32",
          "name": "role",
          "type": "bytes32"
        },
        {
          "indexed": true,
          "internalType": "bytes32",
          "name": "previousAdminRole",
          "type": "bytes32"
        },
        {
          "indexed": true,
          "internalType": "bytes32",
          "name": "newAdminRole",
          "type": "bytes32"
        }
      ],
      "name": "RoleAdminChanged",
      "type": "event"
    },
    {
      "anonymous": false,
      "inputs": [
        {
          "indexed": true,
          "internalType": "bytes32",
          "name": "role",
          "type": "bytes32"
        },
        {
          "indexed": true,
          "internalType": "address",
          "name": "account",
          "type": "address"
        },
        {
          "indexed": true,
          "internalType": "address",
          "name": "sender",
          "type": "address"
        }
      ],
      "name": "RoleGranted",
      "type": "event"
    },
    {
      "anonymous": false,
      "inputs": [
        {
          "indexed": true,
          "internalType": "bytes32",
          "name": "role",
          "type": "bytes32"
        },
        {
          "indexed": true,
          "internalType": "address",
          "name": "account",
          "type": "address"
        },
        {
          "indexed": true,
          "internalType": "address",
          "name": "sender",
          "type": "address"
        }
      ],
      "name": "RoleRevoked",
      "type": "event"
    },
    {
      "inputs": [],
      "name": "DEFAULT_ADMIN_ROLE",
      "outputs": [
        {
          "internalType": "bytes32",
          "name": "",
          "type": "bytes32"
        }
      ],
      "stateMutability": "view",
      "type": "function"
    },
    {
      "inputs": [],
      "name": "ORACLE_ROLE",
      "outputs": [
        {
          "internalType": "bytes32",
          "name": "",
          "type": "bytes32"
        }
      ],
      "stateMutability": "view",
      "type": "function"
    },
    {
      "inputs": [],
      "name": "allocatedFunds",
      "outputs": [
        {
          "internalType": "uint256",
          "name": "",
          "type": "uint256"
        }
      ],
      "stateMutability": "view",
      "type": "function"
    },
    {
      "inputs": [],
      "name": "availableFunds",
      "outputs": [
        {
          "internalType": "uint256",
          "name": "",
          "type": "uint256"
        }
      ],
      "stateMutability": "view",
      "type": "function"
    },
    {
      "inputs": [
        {
          "internalType": "bytes32",
          "name": "role",
          "type": "bytes32"
        }
      ],
      "name": "getRoleAdmin",
      "outputs": [
        {
          "internalType": "bytes32",
          "name": "",
          "type": "bytes32"
        }
      ],
      "stateMutability": "view",
      "type": "function"
    },
    {
      "inputs": [
        {
          "internalType": "address",
          "name": "",
          "type": "address"
        }
      ],
      "name": "getRracleInfo",
      "outputs": [
        {
          "internalType": "uint128",
          "name": "withdrawable",
          "type": "uint128"
        },
        {
          "internalType": "address",
          "name": "admin",
          "type": "address"
        },
        {
          "internalType": "address",
          "name": "pendingAdmin",
          "type": "address"
        }
      ],
      "stateMutability": "view",
      "type": "function"
    },
    {
      "inputs": [
        {
          "internalType": "bytes32",
          "name": "role",
          "type": "bytes32"
        },
        {
          "internalType": "address",
          "name": "account",
          "type": "address"
        }
      ],
      "name": "grantRole",
      "outputs": [],
      "stateMutability": "nonpayable",
      "type": "function"
    },
    {
      "inputs": [
        {
          "internalType": "bytes32",
          "name": "role",
          "type": "bytes32"
        },
        {
          "internalType": "address",
          "name": "account",
          "type": "address"
        }
      ],
      "name": "hasRole",
      "outputs": [
        {
          "internalType": "bool",
          "name": "",
          "type": "bool"
        }
      ],
      "stateMutability": "view",
      "type": "function"
    },
    {
      "inputs": [],
      "name": "link",
      "outputs": [
        {
          "internalType": "contract IERC20",
          "name": "",
          "type": "address"
        }
      ],
      "stateMutability": "view",
      "type": "function"
    },
    {
      "inputs": [],
      "name": "minConfirmations",
      "outputs": [
        {
          "internalType": "uint256",
          "name": "",
          "type": "uint256"
        }
      ],
      "stateMutability": "view",
      "type": "function"
    },
    {
      "inputs": [],
      "name": "payment",
      "outputs": [
        {
          "internalType": "uint128",
          "name": "",
          "type": "uint128"
        }
      ],
      "stateMutability": "view",
      "type": "function"
    },
    {
      "inputs": [
        {
          "internalType": "bytes32",
          "name": "role",
          "type": "bytes32"
        },
        {
          "internalType": "address",
          "name": "account",
          "type": "address"
        }
      ],
      "name": "renounceRole",
      "outputs": [],
      "stateMutability": "nonpayable",
      "type": "function"
    },
    {
      "inputs": [
        {
          "internalType": "bytes32",
          "name": "role",
          "type": "bytes32"
        },
        {
          "internalType": "address",
          "name": "account",
          "type": "address"
        }
      ],
      "name": "revokeRole",
      "outputs": [],
      "stateMutability": "nonpayable",
      "type": "function"
    },
    {
      "inputs": [
        {
          "internalType": "bytes4",
          "name": "interfaceId",
          "type": "bytes4"
        }
      ],
      "name": "supportsInterface",
      "outputs": [
        {
          "internalType": "bool",
          "name": "",
          "type": "bool"
        }
      ],
      "stateMutability": "view",
      "type": "function"
    },
    {
      "inputs": [
        {
          "internalType": "address",
          "name": "_oracle",
          "type": "address"
        },
        {
          "internalType": "address",
          "name": "_recipient",
          "type": "address"
        },
        {
          "internalType": "uint256",
          "name": "_amount",
          "type": "uint256"
        }
      ],
      "name": "withdrawPayment",
      "outputs": [],
      "stateMutability": "nonpayable",
      "type": "function"
    },
    {
      "inputs": [],
      "name": "updateAvailableFunds",
      "outputs": [],
      "stateMutability": "nonpayable",
      "type": "function"
    },
    {
      "inputs": [
        {
          "internalType": "address",
          "name": "",
          "type": "address"
        },
        {
          "internalType": "uint256",
          "name": "",
          "type": "uint256"
        },
        {
          "internalType": "bytes",
          "name": "_data",
          "type": "bytes"
        }
      ],
      "name": "onTokenTransfer",
      "outputs": [],
      "stateMutability": "nonpayable",
      "type": "function"
    },
    {
      "inputs": [
        {
          "internalType": "address",
          "name": "_recipient",
          "type": "address"
        },
        {
          "internalType": "uint256",
          "name": "_amount",
          "type": "uint256"
        }
      ],
      "name": "withdrawFunds",
      "outputs": [],
      "stateMutability": "nonpayable",
      "type": "function"
    },
    {
      "inputs": [
        {
          "internalType": "uint256",
          "name": "_minConfirmations",
          "type": "uint256"
        }
      ],
      "name": "setMinConfirmations",
      "outputs": [],
      "stateMutability": "nonpayable",
      "type": "function"
    },
    {
      "inputs": [
        {
          "internalType": "uint128",
          "name": "_payment",
          "type": "uint128"
        }
      ],
      "name": "setPayment",
      "outputs": [],
      "stateMutability": "nonpayable",
      "type": "function"
    },
    {
      "inputs": [
        {
          "internalType": "address",
          "name": "_oracle",
          "type": "address"
        }
      ],
      "name": "addOracle",
      "outputs": [],
      "stateMutability": "nonpayable",
      "type": "function"
    },
    {
      "inputs": [
        {
          "internalType": "address",
          "name": "_oracle",
          "type": "address"
        }
      ],
      "name": "removeOracle",
      "outputs": [],
      "stateMutability": "nonpayable",
      "type": "function"
    },
    {
      "inputs": [
        {
          "internalType": "address",
          "name": "_oracle",
          "type": "address"
        }
      ],
      "name": "withdrawablePayment",
      "outputs": [
        {
          "internalType": "uint256",
          "name": "",
          "type": "uint256"
        }
      ],
      "stateMutability": "view",
      "type": "function"
    }
  ],
  "bytecode": "0x60806040523480156200001157600080fd5b506040516200127338038062001273833981016040819052620000349162000161565b6001839055600480546001600160801b0319166001600160801b038416179055600580546001600160a01b0319166001600160a01b0383161790556200007c600033620000b1565b620000a87f68e79a7bf1e0bc45d0a330c573bc367f9cf464fd326078812f301165fbda4ef133620000b1565b505050620001bd565b620000bd8282620000c1565b5050565b6000828152602081815260408083206001600160a01b038516845290915290205460ff16620000bd576000828152602081815260408083206001600160a01b03851684529091529020805460ff191660011790556200011d3390565b6001600160a01b0316816001600160a01b0316837f2f8788117e7eff1d82e926ec794901d17c78024a50270940304540a733656f0d60405160405180910390a45050565b60008060006060848603121562000176578283fd5b835160208501519093506001600160801b038116811462000195578283fd5b60408501519092506001600160a01b0381168114620001b2578182fd5b809150509250925092565b6110a680620001cd6000396000f3fe608060405234801561001057600080fd5b506004361061018d5760003560e01c806382313e50116100e3578063d4cc54e41161008c578063e2e4031711610066578063e2e40317146103e2578063e7c4393e14610414578063fdc85fc41461041d5761018d565b8063d4cc54e4146103b3578063d547741f146103bc578063df5dd1a5146103cf5761018d565b8063a4c0ed36116100bd578063a4c0ed361461037a578063c10753291461038d578063d2821655146103a05761018d565b806382313e501461032857806391d148541461033b578063a217fddf146103725761018d565b80632f2ff15d1161014557806342f6487a1161011f57806342f6487a146102ec57806346fcff4c146103175780634f8fc3b5146103205761018d565b80632f2ff15d146102b157806336568abe146102c65780633d3d7714146102d95761018d565b80631c4695f4116101765780631c4695f4146101ef578063248a9ca31461021a5780632dd6b35c1461023d5761018d565b806301ffc9a71461019257806307e2cea5146101ba575b600080fd5b6101a56101a0366004610f9c565b610430565b60405190151581526020015b60405180910390f35b6101e17f68e79a7bf1e0bc45d0a330c573bc367f9cf464fd326078812f301165fbda4ef181565b6040519081526020016101b1565b600554610202906001600160a01b031681565b6040516001600160a01b0390911681526020016101b1565b6101e1610228366004610f59565b60009081526020819052604090206001015490565b61028261024b366004610e32565b6006602052600090815260409020805460018201546002909201546001600160801b03909116916001600160a01b03908116911683565b604080516001600160801b0390941684526001600160a01b0392831660208501529116908201526060016101b1565b6102c46102bf366004610f71565b6104cb565b005b6102c46102d4366004610f71565b61056d565b6102c46102e7366004610e53565b6105f5565b6004546102ff906001600160801b031681565b6040516001600160801b0390911681526020016101b1565b6101e160035481565b6102c46107e8565b6102c4610336366004610fdc565b61088e565b6101a5610349366004610f71565b6000918252602082815260408084206001600160a01b0393909316845291905290205460ff1690565b6101e1600081565b6102c4610388366004610eb7565b610937565b6102c461039b366004610e8e565b6109ed565b6102c46103ae366004610f59565b610b97565b6101e160025481565b6102c46103ca366004610f71565b610c1a565b6102c46103dd366004610e32565b610ca7565b6101e16103f0366004610e32565b6001600160a01b03166000908152600660205260409020546001600160801b031690565b6101e160015481565b6102c461042b366004610e32565b610cd4565b60007fffffffff0000000000000000000000000000000000000000000000000000000082167f7965db0b0000000000000000000000000000000000000000000000000000000014806104c357507f01ffc9a7000000000000000000000000000000000000000000000000000000007fffffffff000000000000000000000000000000000000000000000000000000008316145b90505b919050565b6000828152602081905260409020600101546104e8905b33610349565b61055f5760405162461bcd60e51b815260206004820152602f60248201527f416363657373436f6e74726f6c3a2073656e646572206d75737420626520616e60448201527f2061646d696e20746f206772616e74000000000000000000000000000000000060648201526084015b60405180910390fd5b6105698282610cfe565b5050565b6001600160a01b03811633146105eb5760405162461bcd60e51b815260206004820152602f60248201527f416363657373436f6e74726f6c3a2063616e206f6e6c792072656e6f756e636560448201527f20726f6c657320666f722073656c6600000000000000000000000000000000006064820152608401610556565b6105698282610d9c565b6001600160a01b038381166000908152600660205260409020600101541633146106615760405162461bcd60e51b815260206004820152601660248201527f6f6e6c792063616c6c61626c652062792061646d696e000000000000000000006044820152606401610556565b6001600160a01b03831660009081526006602052604090205481906001600160801b039081169082168110156106d95760405162461bcd60e51b815260206004820152601f60248201527f696e73756666696369656e7420776974686472617761626c652066756e6473006044820152606401610556565b6106e3828261101b565b6001600160a01b038616600090815260066020526040812080546fffffffffffffffffffffffffffffffff19166001600160801b039384161790556002805492851692909190610734908490611043565b909155505060055460405163a9059cbb60e01b81526001600160a01b0386811660048301526001600160801b03851660248301529091169063a9059cbb90604401602060405180830381600087803b15801561078f57600080fd5b505af11580156107a3573d6000803e3d6000fd5b505050506040513d601f19601f820116820180604052508101906107c79190610f39565b6107e157634e487b7160e01b600052600160045260246000fd5b5050505050565b6002546005546040517f70a082310000000000000000000000000000000000000000000000000000000081523060048201526001600160a01b03909116906370a082319060240160206040518083038186803b15801561084757600080fd5b505afa15801561085b573d6000803e3d6000fd5b505050506040513d601f19601f8201168201806040525081019061087f9190611003565b6108899190611043565b600355565b3360009081527fad3228b676f7d3cd4284a5443f17f1962b36e491b30a40b2405849e597ba5fb5602052604090205460ff1661090c5760405162461bcd60e51b815260206004820152601360248201527f6f6e6c7941646d696e3a2062616420726f6c65000000000000000000000000006044820152606401610556565b600480546fffffffffffffffffffffffffffffffff19166001600160801b0392909216919091179055565b6005546001600160a01b031633146109915760405162461bcd60e51b815260206004820152601d60248201527f6f6e546f6b656e5472616e736665723a206e6f7420746865204c696e6b0000006044820152606401610556565b80156109df5760405162461bcd60e51b815260206004820181905260248201527f7472616e7366657220646f65736e2774206163636570742063616c6c646174616044820152606401610556565b6109e76107e8565b50505050565b3360009081527fad3228b676f7d3cd4284a5443f17f1962b36e491b30a40b2405849e597ba5fb5602052604090205460ff16610a6b5760405162461bcd60e51b815260206004820152601360248201527f6f6e6c7941646d696e3a2062616420726f6c65000000000000000000000000006044820152606401610556565b806003541015610abd5760405162461bcd60e51b815260206004820152601a60248201527f696e73756666696369656e7420726573657276652066756e64730000000000006044820152606401610556565b60055460405163a9059cbb60e01b81526001600160a01b038481166004830152602482018490529091169063a9059cbb90604401602060405180830381600087803b158015610b0b57600080fd5b505af1158015610b1f573d6000803e3d6000fd5b505050506040513d601f19601f82011682018060405250810190610b439190610f39565b610b8f5760405162461bcd60e51b815260206004820152601e60248201527f776974686472617746756e64733a207472616e73666572206661696c656400006044820152606401610556565b6105696107e8565b3360009081527fad3228b676f7d3cd4284a5443f17f1962b36e491b30a40b2405849e597ba5fb5602052604090205460ff16610c155760405162461bcd60e51b815260206004820152601360248201527f6f6e6c7941646d696e3a2062616420726f6c65000000000000000000000000006044820152606401610556565b600155565b600082815260208190526040902060010154610c35906104e2565b6105eb5760405162461bcd60e51b815260206004820152603060248201527f416363657373436f6e74726f6c3a2073656e646572206d75737420626520616e60448201527f2061646d696e20746f207265766f6b65000000000000000000000000000000006064820152608401610556565b610cd17f68e79a7bf1e0bc45d0a330c573bc367f9cf464fd326078812f301165fbda4ef1826104cb565b50565b610cd17f68e79a7bf1e0bc45d0a330c573bc367f9cf464fd326078812f301165fbda4ef182610c1a565b6000828152602081815260408083206001600160a01b038516845290915290205460ff16610569576000828152602081815260408083206001600160a01b03851684529091529020805460ff19166001179055610d583390565b6001600160a01b0316816001600160a01b0316837f2f8788117e7eff1d82e926ec794901d17c78024a50270940304540a733656f0d60405160405180910390a45050565b6000828152602081815260408083206001600160a01b038516845290915290205460ff1615610569576000828152602081815260408083206001600160a01b0385168085529252808320805460ff1916905551339285917ff6391f5c32d9c69d2a47ea670b442974b53935d1edc7fd64eb21e047a839171b9190a45050565b80356001600160a01b03811681146104c657600080fd5b600060208284031215610e43578081fd5b610e4c82610e1b565b9392505050565b600080600060608486031215610e67578182fd5b610e7084610e1b565b9250610e7e60208501610e1b565b9150604084013590509250925092565b60008060408385031215610ea0578182fd5b610ea983610e1b565b946020939093013593505050565b60008060008060608587031215610ecc578081fd5b610ed585610e1b565b935060208501359250604085013567ffffffffffffffff80821115610ef8578283fd5b818701915087601f830112610f0b578283fd5b813581811115610f19578384fd5b886020828501011115610f2a578384fd5b95989497505060200194505050565b600060208284031215610f4a578081fd5b81518015158114610e4c578182fd5b600060208284031215610f6a578081fd5b5035919050565b60008060408385031215610f83578182fd5b82359150610f9360208401610e1b565b90509250929050565b600060208284031215610fad578081fd5b81357fffffffff0000000000000000000000000000000000000000000000000000000081168114610e4c578182fd5b600060208284031215610fed578081fd5b81356001600160801b0381168114610e4c578182fd5b600060208284031215611014578081fd5b5051919050565b60006001600160801b038381169083168181101561103b5761103b61105a565b039392505050565b6000828210156110555761105561105a565b500390565b634e487b7160e01b600052601160045260246000fdfea2646970667358221220322da84f024a4f09e881e68a356bef9cdfd932ec8d23bf0d46622589349280c164736f6c63430008020033",
  "immutableReferences": {},
  "source": "// SPDX-License-Identifier: MIT\npragma solidity ^0.8.2;\n\nimport \"@openzeppelin/contracts/access/AccessControl.sol\";\nimport \"@openzeppelin/contracts/token/ERC20/IERC20.sol\";\n\ncontract Aggregator is AccessControl {\n    struct OracleInfo {\n        uint128 withdrawable; // amount of withdrawable LINKs\n        address admin; // current oracle admin\n        address pendingAdmin; // new admin\n    }\n\n    bytes32 public constant ORACLE_ROLE = keccak256(\"ORACLE_ROLE\"); // role allowed to submit the data\n    uint256 public minConfirmations; // minimal required confimations\n    uint256 public allocatedFunds; // LINK's amount payed to oracles\n    uint256 public availableFunds; // LINK's amount available to be payed to oracles\n    uint128 public payment; // payment for one submission\n    IERC20 public link; // LINK's token address\n    mapping(address => OracleInfo) public getRracleInfo; // oracle address => oracle details\n\n    modifier onlyAdmin {\n        require(hasRole(DEFAULT_ADMIN_ROLE, msg.sender), \"onlyAdmin: bad role\");\n        _;\n    }\n    modifier onlyOracle {\n        require(hasRole(ORACLE_ROLE, msg.sender), \"onlyOracle: bad role\");\n        _;\n    }\n\n    /* PUBLIC */\n\n    /// @dev Constructor that initializes the most important configurations.\n    /// @param _minConfirmations Minimal required confirmations.\n    /// @param _payment Oracle reward.\n    /// @param _link Link token to pay to oracles.\n    constructor(\n        uint256 _minConfirmations,\n        uint128 _payment,\n        IERC20 _link\n    ) {\n        minConfirmations = _minConfirmations;\n        payment = _payment;\n        link = _link;\n        _setupRole(DEFAULT_ADMIN_ROLE, msg.sender);\n        _setupRole(ORACLE_ROLE, msg.sender);\n    }\n\n    /// @dev Withdraws oracle reward.\n    /// @param _oracle Oracle address.\n    /// @param _recipient Recepient reward.\n    /// @param _amount Amount to withdraw.\n    function withdrawPayment(\n        address _oracle,\n        address _recipient,\n        uint256 _amount\n    ) external {\n        require(\n            getRracleInfo[_oracle].admin == msg.sender,\n            \"only callable by admin\"\n        );\n\n        uint128 amount = uint128(_amount);\n        uint128 available = getRracleInfo[_oracle].withdrawable;\n        require(available >= amount, \"insufficient withdrawable funds\");\n\n        getRracleInfo[_oracle].withdrawable = available - amount;\n        allocatedFunds -= amount;\n\n        assert(link.transfer(_recipient, uint256(amount)));\n    }\n\n    /// @dev Updates available rewards to be distributed.\n    function updateAvailableFunds() public {\n        availableFunds = link.balanceOf(address(this)) - allocatedFunds;\n    }\n\n    function onTokenTransfer(\n        address,\n        uint256,\n        bytes calldata _data\n    ) external {\n        require(msg.sender == address(link), \"onTokenTransfer: not the Link\");\n        require(_data.length == 0, \"transfer doesn't accept calldata\");\n        updateAvailableFunds();\n    }\n\n    /* ADMIN */\n\n    /// @dev Withdraws available LINK's.\n    /// @param _recipient Recepient reward.\n    /// @param _amount Amount to withdraw.\n    function withdrawFunds(address _recipient, uint256 _amount)\n        external\n        onlyAdmin()\n    {\n        require(\n            uint256(availableFunds) >= _amount,\n            \"insufficient reserve funds\"\n        );\n        require(\n            link.transfer(_recipient, _amount),\n            \"withdrawFunds: transfer failed\"\n        );\n        updateAvailableFunds();\n    }\n\n    /// @dev Sets minimal required confirmations.\n    /// @param _minConfirmations Minimal required confirmations.\n    function setMinConfirmations(uint256 _minConfirmations) external onlyAdmin {\n        minConfirmations = _minConfirmations;\n    }\n\n    /// @dev Sets new oracle reward.\n    /// @param _payment Oracle reward.\n    function setPayment(uint128 _payment) external onlyAdmin {\n        payment = _payment;\n    }\n\n    /// @dev Add new oracle.\n    /// @param _oracle Oracle address.\n    function addOracle(address _oracle) external {\n        grantRole(ORACLE_ROLE, _oracle);\n    }\n\n    /// @dev Remove oracle.\n    /// @param _oracle Oracle address.\n    function removeOracle(address _oracle) external {\n        revokeRole(ORACLE_ROLE, _oracle);\n    }\n\n    /* INTERNAL */\n\n    /// @dev Assess teh oracle rewards.\n    /// @param _oracle Oracle address.\n    function _payOracle(address _oracle) internal {\n        availableFunds -= payment;\n        allocatedFunds += payment;\n        getRracleInfo[_oracle].withdrawable += payment;\n    }\n\n    /* VIEW */\n\n    /// @dev Withdraws oracle reward.\n    /// @param _oracle Oracle address.\n    /// @return Oracle rewards.\n    function withdrawablePayment(address _oracle)\n        external\n        view\n        returns (uint256)\n    {\n        return getRracleInfo[_oracle].withdrawable;\n    }\n}\n",
  "sourcePath": "/Users/kstasi/Documents/work/debridge-contracts/contracts/chainlink/Aggregator.sol",
  "compiler": {
    "name": "solc",
    "version": "0.8.2+commit.661d1103.Emscripten.clang"
  },
  "schemaVersion": "3.3.4",
  "updatedAt": "2021-03-20T14:42:58.898Z",
  "devdoc": {
    "kind": "dev",
    "methods": {
      "addOracle(address)": {
        "details": "Add new oracle.",
        "params": {
          "_oracle": "Oracle address."
        }
      },
      "constructor": {
        "details": "Constructor that initializes the most important configurations.",
        "params": {
          "_link": "Link token to pay to oracles.",
          "_minConfirmations": "Minimal required confirmations.",
          "_payment": "Oracle reward."
        }
      },
      "getRoleAdmin(bytes32)": {
        "details": "Returns the admin role that controls `role`. See {grantRole} and {revokeRole}. To change a role's admin, use {_setRoleAdmin}."
      },
      "grantRole(bytes32,address)": {
        "details": "Grants `role` to `account`. If `account` had not been already granted `role`, emits a {RoleGranted} event. Requirements: - the caller must have ``role``'s admin role."
      },
      "hasRole(bytes32,address)": {
        "details": "Returns `true` if `account` has been granted `role`."
      },
      "removeOracle(address)": {
        "details": "Remove oracle.",
        "params": {
          "_oracle": "Oracle address."
        }
      },
      "renounceRole(bytes32,address)": {
        "details": "Revokes `role` from the calling account. Roles are often managed via {grantRole} and {revokeRole}: this function's purpose is to provide a mechanism for accounts to lose their privileges if they are compromised (such as when a trusted device is misplaced). If the calling account had been granted `role`, emits a {RoleRevoked} event. Requirements: - the caller must be `account`."
      },
      "revokeRole(bytes32,address)": {
        "details": "Revokes `role` from `account`. If `account` had been granted `role`, emits a {RoleRevoked} event. Requirements: - the caller must have ``role``'s admin role."
      },
      "setMinConfirmations(uint256)": {
        "details": "Sets minimal required confirmations.",
        "params": {
          "_minConfirmations": "Minimal required confirmations."
        }
      },
      "setPayment(uint128)": {
        "details": "Sets new oracle reward.",
        "params": {
          "_payment": "Oracle reward."
        }
      },
      "supportsInterface(bytes4)": {
        "details": "See {IERC165-supportsInterface}."
      },
      "updateAvailableFunds()": {
        "details": "Updates available rewards to be distributed."
      },
      "withdrawFunds(address,uint256)": {
        "details": "Withdraws available LINK's.",
        "params": {
          "_amount": "Amount to withdraw.",
          "_recipient": "Recepient reward."
        }
      },
      "withdrawPayment(address,address,uint256)": {
        "details": "Withdraws oracle reward.",
        "params": {
          "_amount": "Amount to withdraw.",
          "_oracle": "Oracle address.",
          "_recipient": "Recepient reward."
        }
      },
      "withdrawablePayment(address)": {
        "details": "Withdraws oracle reward.",
        "params": {
          "_oracle": "Oracle address."
        },
        "returns": {
          "_0": "Oracle rewards."
        }
      }
    },
    "version": 1
  },
  "userdoc": {
    "kind": "user",
    "methods": {},
    "version": 1
  }
}