{
  "contractName": "ApproveProxy",
  "abi": [
    {
      "inputs": [
        {
          "internalType": "address",
          "name": "_token",
          "type": "address"
        },
        {
          "internalType": "address",
          "name": "_reserveAddress",
          "type": "address"
        },
        {
          "internalType": "address",
          "name": "_receiver",
          "type": "address"
        },
        {
          "internalType": "bytes",
          "name": "_data",
          "type": "bytes"
        }
      ],
      "name": "callERC20",
      "outputs": [
        {
          "internalType": "bool",
          "name": "_result",
          "type": "bool"
        }
      ],
      "stateMutability": "nonpayable",
      "type": "function"
    }
  ],
  "bytecode": "0x608060405234801561001057600080fd5b5061065e806100206000396000f3fe608060405234801561001057600080fd5b506004361061002b5760003560e01c80633bab642f14610030575b600080fd5b61004361003e36600461047f565b610057565b604051901515815260200160405180910390f35b6040516370a0823160e01b815230600482015260009081906001600160a01b038716906370a082319060240160206040518083038186803b15801561009b57600080fd5b505afa1580156100af573d6000803e3d6000fd5b505050506040513d601f19601f820116820180604052508101906100d3919061057b565b60405163095ea7b360e01b81526001600160a01b038681166004830152602482018390529192509087169063095ea7b390604401602060405180830381600087803b15801561012157600080fd5b505af1158015610135573d6000803e3d6000fd5b505050506040513d601f19601f82011682018060405250810190610159919061055b565b5061016884600085518661018c565b915081610183576101836001600160a01b03871686836101af565b50949350505050565b6000806040516020840160008287838a8c6187965a03f198975050505050505050565b604080516001600160a01b038416602482015260448082018490528251808303909101815260649091019091526020810180516001600160e01b031663a9059cbb60e01b179052610201908490610206565b505050565b600061025b826040518060400160405280602081526020017f5361666545524332303a206c6f772d6c6576656c2063616c6c206661696c6564815250856001600160a01b03166102dd9092919063ffffffff16565b8051909150156102015780806020019051810190610279919061055b565b6102015760405162461bcd60e51b815260206004820152602a60248201527f5361666545524332303a204552433230206f7065726174696f6e20646964206e6044820152691bdd081cdd58d8d9595960b21b60648201526084015b60405180910390fd5b60606102ec84846000856102f6565b90505b9392505050565b6060824710156103575760405162461bcd60e51b815260206004820152602660248201527f416464726573733a20696e73756666696369656e742062616c616e636520666f6044820152651c8818d85b1b60d21b60648201526084016102d4565b61036085610425565b6103ac5760405162461bcd60e51b815260206004820152601d60248201527f416464726573733a2063616c6c20746f206e6f6e2d636f6e747261637400000060448201526064016102d4565b600080866001600160a01b031685876040516103c89190610593565b60006040518083038185875af1925050503d8060008114610405576040519150601f19603f3d011682016040523d82523d6000602084013e61040a565b606091505b509150915061041a82828661042f565b979650505050505050565b803b15155b919050565b6060831561043e5750816102ef565b82511561044e5782518084602001fd5b8160405162461bcd60e51b81526004016102d491906105af565b80356001600160a01b038116811461042a57600080fd5b60008060008060808587031215610494578384fd5b61049d85610468565b93506104ab60208601610468565b92506104b960408601610468565b9150606085013567ffffffffffffffff808211156104d5578283fd5b818701915087601f8301126104e8578283fd5b8135818111156104fa576104fa610612565b604051601f8201601f19908116603f0116810190838211818310171561052257610522610612565b816040528281528a602084870101111561053a578586fd5b82602086016020830137918201602001949094529598949750929550505050565b60006020828403121561056c578081fd5b815180151581146102ef578182fd5b60006020828403121561058c578081fd5b5051919050565b600082516105a58184602087016105e2565b9190910192915050565b60006020825282518060208401526105ce8160408501602087016105e2565b601f01601f19169190910160400192915050565b60005b838110156105fd5781810151838201526020016105e5565b8381111561060c576000848401525b50505050565b634e487b7160e01b600052604160045260246000fdfea264697066735822122007bf28f1900e2d9ff9988beb15bc6c4b466fbe175d47979927ddc11650983c9e64736f6c63430008020033",
  "immutableReferences": {},
  "source": "// SPDX-License-Identifier: MIT\r\npragma solidity ^0.8.2;\r\n\r\nimport \"@openzeppelin/contracts/token/ERC20/IERC20.sol\";\r\nimport \"../interfaces/IApproveProxy.sol\";\r\nimport \"@openzeppelin/contracts/token/ERC20/utils/SafeERC20.sol\";\r\n\r\ncontract ApproveProxy is IApproveProxy {\r\n    using SafeERC20 for IERC20;\r\n\r\n    function callERC20(\r\n        address _token,\r\n        address _reserveAddress,\r\n        address _receiver,\r\n        bytes memory _data\r\n    ) external override returns (bool _result) {\r\n        uint256 amount = IERC20(_token).balanceOf(address(this));\r\n        IERC20(_token).approve(_receiver, amount);\r\n        _result = externalCall(_receiver, 0, _data.length, _data);\r\n        if (!_result) {\r\n            IERC20(_token).safeTransfer(_reserveAddress, amount);\r\n        }\r\n    }\r\n\r\n    function externalCall(\r\n        address destination,\r\n        uint256 value,\r\n        uint256 dataLength,\r\n        bytes memory data\r\n    ) internal returns (bool) {\r\n        bool result;\r\n        assembly {\r\n            let x := mload(0x40) // \"Allocate\" memory for output (0x40 is where \"free memory\" pointer is stored by convention)\r\n            let d := add(data, 32) // First 32 bytes are the padded length of data, so exclude that\r\n            result := call(\r\n                sub(gas(), 34710), // 34710 is the value that solidity is currently emitting\r\n                // It includes callGas (700) + callVeryLow (3, to pay for SUB) + callValueTransferGas (9000) +\r\n                // callNewAccountGas (25000, in case the destination address does not exist and needs creating)\r\n                destination,\r\n                value,\r\n                d,\r\n                dataLength, // Size of the input (in bytes) - this is what fixes the padding problem\r\n                x,\r\n                0 // Output is ignored, therefore the output size is zero\r\n            )\r\n        }\r\n        return result;\r\n    }\r\n}\r\n",
  "sourcePath": "D:/Projects/Debridge/debridge-contracts-v1/contracts/periphery/ApproveProxy.sol",
  "compiler": {
    "name": "solc",
    "version": "0.8.2+commit.661d1103.Emscripten.clang"
  },
  "schemaVersion": "3.3.4",
  "updatedAt": "2021-07-18T12:47:19.700Z",
  "devdoc": {
    "kind": "dev",
    "methods": {},
    "version": 1
  },
  "userdoc": {
    "kind": "user",
    "methods": {},
    "version": 1
  }
}