{
  "contractName": "CallProxy",
  "abi": [
    {
      "inputs": [
        {
          "internalType": "address",
          "name": "_reserveAddress",
          "type": "address"
        },
        {
          "internalType": "address",
          "name": "_receiver",
          "type": "address"
        },
        {
          "internalType": "bytes",
          "name": "_data",
          "type": "bytes"
        }
      ],
      "name": "call",
      "outputs": [
        {
          "internalType": "bool",
          "name": "_result",
          "type": "bool"
        }
      ],
      "stateMutability": "payable",
      "type": "function",
      "payable": true
    },
    {
      "inputs": [
        {
          "internalType": "address",
          "name": "_token",
          "type": "address"
        },
        {
          "internalType": "address",
          "name": "_reserveAddress",
          "type": "address"
        },
        {
          "internalType": "address",
          "name": "_receiver",
          "type": "address"
        },
        {
          "internalType": "bytes",
          "name": "_data",
          "type": "bytes"
        }
      ],
      "name": "callERC20",
      "outputs": [
        {
          "internalType": "bool",
          "name": "_result",
          "type": "bool"
        }
      ],
      "stateMutability": "nonpayable",
      "type": "function"
    }
  ],
  "bytecode": "0x608060405234801561001057600080fd5b506106d1806100206000396000f3fe6080604052600436106100295760003560e01c80633bab642f1461002e578063c435b14b14610062575b600080fd5b34801561003a57600080fd5b5061004e610049366004610505565b610075565b604051901515815260200160405180910390f35b61004e610070366004610572565b610139565b6040516370a0823160e01b815230600482015260009081906001600160a01b038716906370a082319060240160206040518083038186803b1580156100b957600080fd5b505afa1580156100cd573d6000803e3d6000fd5b505050506040513d601f19601f820116820180604052508101906100f191906105ee565b90506101076001600160a01b038716858361018d565b6101158460008551866101e4565b915081610130576101306001600160a01b038716868361018d565b50949350505050565b600061014883348451856101e4565b905080610186576040516001600160a01b038516903480156108fc02916000818181858888f19350505050158015610184573d6000803e3d6000fd5b505b9392505050565b604080516001600160a01b038416602482015260448082018490528251808303909101815260649091019091526020810180516001600160e01b031663a9059cbb60e01b1790526101df908490610207565b505050565b6000806040516020840160008287838a8c6187965a03f198975050505050505050565b600061025c826040518060400160405280602081526020017f5361666545524332303a206c6f772d6c6576656c2063616c6c206661696c6564815250856001600160a01b03166102de9092919063ffffffff16565b8051909150156101df578080602001905181019061027a91906105ce565b6101df5760405162461bcd60e51b815260206004820152602a60248201527f5361666545524332303a204552433230206f7065726174696f6e20646964206e6044820152691bdd081cdd58d8d9595960b21b60648201526084015b60405180910390fd5b60606102ed84846000856102f5565b949350505050565b6060824710156103565760405162461bcd60e51b815260206004820152602660248201527f416464726573733a20696e73756666696369656e742062616c616e636520666f6044820152651c8818d85b1b60d21b60648201526084016102d5565b61035f85610424565b6103ab5760405162461bcd60e51b815260206004820152601d60248201527f416464726573733a2063616c6c20746f206e6f6e2d636f6e747261637400000060448201526064016102d5565b600080866001600160a01b031685876040516103c79190610606565b60006040518083038185875af1925050503d8060008114610404576040519150601f19603f3d011682016040523d82523d6000602084013e610409565b606091505b509150915061041982828661042e565b979650505050505050565b803b15155b919050565b6060831561043d575081610186565b82511561044d5782518084602001fd5b8160405162461bcd60e51b81526004016102d59190610622565b80356001600160a01b038116811461042957600080fd5b600082601f83011261048e578081fd5b813567ffffffffffffffff808211156104a9576104a9610685565b604051601f8301601f19908116603f011681019082821181831017156104d1576104d1610685565b816040528381528660208588010111156104e9578485fd5b8360208701602083013792830160200193909352509392505050565b6000806000806080858703121561051a578384fd5b61052385610467565b935061053160208601610467565b925061053f60408601610467565b9150606085013567ffffffffffffffff81111561055a578182fd5b6105668782880161047e565b91505092959194509250565b600080600060608486031215610586578283fd5b61058f84610467565b925061059d60208501610467565b9150604084013567ffffffffffffffff8111156105b8578182fd5b6105c48682870161047e565b9150509250925092565b6000602082840312156105df578081fd5b81518015158114610186578182fd5b6000602082840312156105ff578081fd5b5051919050565b60008251610618818460208701610655565b9190910192915050565b6000602082528251806020840152610641816040850160208701610655565b601f01601f19169190910160400192915050565b60005b83811015610670578181015183820152602001610658565b8381111561067f576000848401525b50505050565b634e487b7160e01b600052604160045260246000fdfea26469706673582212202c6819c7a3804db9b08b021a1c20c4d862244d6034900913ff3a74acda45f38e64736f6c63430008020033",
  "immutableReferences": {},
  "source": "// SPDX-License-Identifier: MIT\npragma solidity ^0.8.2;\n\nimport \"@openzeppelin/contracts/token/ERC20/IERC20.sol\";\nimport \"../interfaces/IUniswapV2Pair.sol\";\nimport \"../interfaces/ICallProxy.sol\";\nimport \"@openzeppelin/contracts/token/ERC20/utils/SafeERC20.sol\";\n\ncontract CallProxy is ICallProxy {\n    using SafeERC20 for IERC20;\n\n    function call(\n        address _reserveAddress,\n        address _receiver,\n        bytes memory _data\n    ) external payable override returns (bool _result) {\n        _result = externalCall(_receiver, msg.value, _data.length, _data);\n        if (!_result) {\n            payable(_reserveAddress).transfer(msg.value);\n        }\n    }\n\n    function callERC20(\n        address _token,\n        address _reserveAddress,\n        address _receiver,\n        bytes memory _data\n    ) external override returns (bool _result) {\n        uint256 amount = IERC20(_token).balanceOf(address(this));\n        IERC20(_token).safeTransfer(_receiver, amount);\n        _result = externalCall(_receiver, 0, _data.length, _data);\n        if (!_result) {\n            IERC20(_token).safeTransfer(_reserveAddress, amount);\n        }\n    }\n\n    function externalCall(\n        address destination,\n        uint256 value,\n        uint256 dataLength,\n        bytes memory data\n    ) internal returns (bool) {\n        bool result;\n        assembly {\n            let x := mload(0x40) // \"Allocate\" memory for output (0x40 is where \"free memory\" pointer is stored by convention)\n            let d := add(data, 32) // First 32 bytes are the padded length of data, so exclude that\n            result := call(\n                sub(gas(), 34710), // 34710 is the value that solidity is currently emitting\n                // It includes callGas (700) + callVeryLow (3, to pay for SUB) + callValueTransferGas (9000) +\n                // callNewAccountGas (25000, in case the destination address does not exist and needs creating)\n                destination,\n                value,\n                d,\n                dataLength, // Size of the input (in bytes) - this is what fixes the padding problem\n                x,\n                0 // Output is ignored, therefore the output size is zero\n            )\n        }\n        return result;\n    }\n}\n",
  "sourcePath": "/Users/kstasi/Documents/side/debridge-contracts/contracts/periphery/CallProxy.sol",
  "compiler": {
    "name": "solc",
    "version": "0.8.2+commit.661d1103.Emscripten.clang"
  },
  "schemaVersion": "3.3.4",
  "updatedAt": "2021-05-09T06:55:57.513Z",
  "networkType": "ethereum",
  "devdoc": {
    "kind": "dev",
    "methods": {},
    "version": 1
  },
  "userdoc": {
    "kind": "user",
    "methods": {},
    "version": 1
  }
}