{
  "contractName": "CallProxy",
  "abi": [
    {
      "inputs": [
        {
          "internalType": "address",
          "name": "_reserveAddress",
          "type": "address"
        },
        {
          "internalType": "address",
          "name": "_receiver",
          "type": "address"
        },
        {
          "internalType": "bytes",
          "name": "_data",
          "type": "bytes"
        }
      ],
      "name": "call",
      "outputs": [
        {
          "internalType": "bool",
          "name": "_result",
          "type": "bool"
        }
      ],
      "stateMutability": "payable",
      "type": "function"
    },
    {
      "inputs": [
        {
          "internalType": "address",
          "name": "_token",
          "type": "address"
        },
        {
          "internalType": "address",
          "name": "_reserveAddress",
          "type": "address"
        },
        {
          "internalType": "address",
          "name": "_receiver",
          "type": "address"
        },
        {
          "internalType": "bytes",
          "name": "_data",
          "type": "bytes"
        }
      ],
      "name": "callERC20",
      "outputs": [
        {
          "internalType": "bool",
          "name": "_result",
          "type": "bool"
        }
      ],
      "stateMutability": "nonpayable",
      "type": "function"
    }
  ],
  "bytecode": "0x608060405234801561001057600080fd5b5061081b806100206000396000f3fe6080604052600436106100295760003560e01c80633bab642f1461002e578063c435b14b14610062575b600080fd5b34801561003a57600080fd5b5061004e61004936600461064f565b610075565b604051901515815260200160405180910390f35b61004e6100703660046106bc565b61014e565b6040516370a0823160e01b815230600482015260009081906001600160a01b038716906370a082319060240160206040518083038186803b1580156100b957600080fd5b505afa1580156100cd573d6000803e3d6000fd5b505050506040513d601f19601f820116820180604052508101906100f19190610738565b90506101086001600160a01b0387168560006101a2565b61011c6001600160a01b03871685836101a2565b61012a846000855186610303565b915081610145576101456001600160a01b0387168683610326565b50949350505050565b600061015d8334845185610303565b90508061019b576040516001600160a01b038516903480156108fc02916000818181858888f19350505050158015610199573d6000803e3d6000fd5b505b9392505050565b80158061022b5750604051636eb1769f60e11b81523060048201526001600160a01b03838116602483015284169063dd62ed3e9060440160206040518083038186803b1580156101f157600080fd5b505afa158015610205573d6000803e3d6000fd5b505050506040513d601f19601f820116820180604052508101906102299190610738565b155b61029b5760405162461bcd60e51b815260206004820152603660248201527f5361666545524332303a20617070726f76652066726f6d206e6f6e2d7a65726f60448201527520746f206e6f6e2d7a65726f20616c6c6f77616e636560501b60648201526084015b60405180910390fd5b6040516001600160a01b0383166024820152604481018290526102fe90849063095ea7b360e01b906064015b60408051601f198184030181529190526020810180516001600160e01b03166001600160e01b031990931692909217909152610356565b505050565b6000806040516020840160008287838a8c6187965a03f198975050505050505050565b6040516001600160a01b0383166024820152604481018290526102fe90849063a9059cbb60e01b906064016102c7565b60006103ab826040518060400160405280602081526020017f5361666545524332303a206c6f772d6c6576656c2063616c6c206661696c6564815250856001600160a01b03166104289092919063ffffffff16565b8051909150156102fe57808060200190518101906103c99190610718565b6102fe5760405162461bcd60e51b815260206004820152602a60248201527f5361666545524332303a204552433230206f7065726174696f6e20646964206e6044820152691bdd081cdd58d8d9595960b21b6064820152608401610292565b6060610437848460008561043f565b949350505050565b6060824710156104a05760405162461bcd60e51b815260206004820152602660248201527f416464726573733a20696e73756666696369656e742062616c616e636520666f6044820152651c8818d85b1b60d21b6064820152608401610292565b6104a98561056e565b6104f55760405162461bcd60e51b815260206004820152601d60248201527f416464726573733a2063616c6c20746f206e6f6e2d636f6e74726163740000006044820152606401610292565b600080866001600160a01b031685876040516105119190610750565b60006040518083038185875af1925050503d806000811461054e576040519150601f19603f3d011682016040523d82523d6000602084013e610553565b606091505b5091509150610563828286610578565b979650505050505050565b803b15155b919050565b6060831561058757508161019b565b8251156105975782518084602001fd5b8160405162461bcd60e51b8152600401610292919061076c565b80356001600160a01b038116811461057357600080fd5b600082601f8301126105d8578081fd5b813567ffffffffffffffff808211156105f3576105f36107cf565b604051601f8301601f19908116603f0116810190828211818310171561061b5761061b6107cf565b81604052838152866020858801011115610633578485fd5b8360208701602083013792830160200193909352509392505050565b60008060008060808587031215610664578384fd5b61066d856105b1565b935061067b602086016105b1565b9250610689604086016105b1565b9150606085013567ffffffffffffffff8111156106a4578182fd5b6106b0878288016105c8565b91505092959194509250565b6000806000606084860312156106d0578283fd5b6106d9846105b1565b92506106e7602085016105b1565b9150604084013567ffffffffffffffff811115610702578182fd5b61070e868287016105c8565b9150509250925092565b600060208284031215610729578081fd5b8151801515811461019b578182fd5b600060208284031215610749578081fd5b5051919050565b6000825161076281846020870161079f565b9190910192915050565b600060208252825180602084015261078b81604085016020870161079f565b601f01601f19169190910160400192915050565b60005b838110156107ba5781810151838201526020016107a2565b838111156107c9576000848401525b50505050565b634e487b7160e01b600052604160045260246000fdfea2646970667358221220ab62674ebbfd075ccc93eb2f9f02c68bb126a3f3ab6b5ccb8308ac177d0686d064736f6c63430008020033",
  "immutableReferences": {},
  "source": "// SPDX-License-Identifier: MIT\r\npragma solidity ^0.8.2;\r\n\r\nimport \"@openzeppelin/contracts/token/ERC20/IERC20.sol\";\r\nimport \"../interfaces/IUniswapV2Pair.sol\";\r\nimport \"../interfaces/ICallProxy.sol\";\r\nimport \"@openzeppelin/contracts/token/ERC20/utils/SafeERC20.sol\";\r\n\r\ncontract CallProxy is ICallProxy {\r\n    using SafeERC20 for IERC20;\r\n\r\n    function call(\r\n        address _reserveAddress,\r\n        address _receiver,\r\n        bytes memory _data\r\n    ) external payable override returns (bool _result) {\r\n        _result = externalCall(_receiver, msg.value, _data.length, _data);\r\n        if (!_result) {\r\n            payable(_reserveAddress).transfer(msg.value);\r\n        }\r\n    }\r\n\r\n    function callERC20(\r\n        address _token,\r\n        address _reserveAddress,\r\n        address _receiver,\r\n        bytes memory _data\r\n    ) external override returns (bool _result) {\r\n        uint256 amount = IERC20(_token).balanceOf(address(this));\r\n        IERC20(_token).safeApprove(_receiver, 0);\r\n        IERC20(_token).safeApprove(_receiver, amount);\r\n        _result = externalCall(_receiver, 0, _data.length, _data);\r\n        if (!_result) {\r\n            IERC20(_token).safeTransfer(_reserveAddress, amount);\r\n        }\r\n    }\r\n\r\n    function externalCall(\r\n        address destination,\r\n        uint256 value,\r\n        uint256 dataLength,\r\n        bytes memory data\r\n    ) internal returns (bool) {\r\n        bool result;\r\n        assembly {\r\n            let x := mload(0x40) // \"Allocate\" memory for output (0x40 is where \"free memory\" pointer is stored by convention)\r\n            let d := add(data, 32) // First 32 bytes are the padded length of data, so exclude that\r\n            result := call(\r\n                sub(gas(), 34710), // 34710 is the value that solidity is currently emitting\r\n                // It includes callGas (700) + callVeryLow (3, to pay for SUB) + callValueTransferGas (9000) +\r\n                // callNewAccountGas (25000, in case the destination address does not exist and needs creating)\r\n                destination,\r\n                value,\r\n                d,\r\n                dataLength, // Size of the input (in bytes) - this is what fixes the padding problem\r\n                x,\r\n                0 // Output is ignored, therefore the output size is zero\r\n            )\r\n        }\r\n        return result;\r\n    }\r\n}\r\n",
  "sourcePath": "D:/Projects/Debridge/debridge-contracts-v1/contracts/periphery/CallProxy.sol",
  "compiler": {
    "name": "solc",
    "version": "0.8.2+commit.661d1103.Emscripten.clang"
  },
  "schemaVersion": "3.3.4",
  "updatedAt": "2021-07-18T21:07:26.194Z",
  "devdoc": {
    "kind": "dev",
    "methods": {},
    "version": 1
  },
  "userdoc": {
    "kind": "user",
    "methods": {},
    "version": 1
  }
}