{
  "contractName": "CommitmentAggregator",
  "abi": [
    {
      "inputs": [
        {
          "internalType": "uint256",
          "name": "_minConfirmations",
          "type": "uint256"
        },
        {
          "internalType": "uint128",
          "name": "_payment",
          "type": "uint128"
        },
        {
          "internalType": "contract IERC20",
          "name": "_link",
          "type": "address"
        }
      ],
      "stateMutability": "nonpayable",
      "type": "constructor"
    },
    {
      "anonymous": false,
      "inputs": [
        {
          "indexed": false,
          "internalType": "bytes32",
          "name": "debridgeId",
          "type": "bytes32"
        },
        {
          "indexed": false,
          "internalType": "bytes32",
          "name": "commitment",
          "type": "bytes32"
        }
      ],
      "name": "Broadcasted",
      "type": "event"
    },
    {
      "anonymous": false,
      "inputs": [
        {
          "indexed": false,
          "internalType": "bytes32",
          "name": "commitment",
          "type": "bytes32"
        },
        {
          "indexed": false,
          "internalType": "bytes32",
          "name": "debridgeId",
          "type": "bytes32"
        },
        {
          "indexed": false,
          "internalType": "address",
          "name": "operator",
          "type": "address"
        }
      ],
      "name": "Confirmed",
      "type": "event"
    },
    {
      "anonymous": false,
      "inputs": [
        {
          "indexed": true,
          "internalType": "bytes32",
          "name": "role",
          "type": "bytes32"
        },
        {
          "indexed": true,
          "internalType": "bytes32",
          "name": "previousAdminRole",
          "type": "bytes32"
        },
        {
          "indexed": true,
          "internalType": "bytes32",
          "name": "newAdminRole",
          "type": "bytes32"
        }
      ],
      "name": "RoleAdminChanged",
      "type": "event"
    },
    {
      "anonymous": false,
      "inputs": [
        {
          "indexed": true,
          "internalType": "bytes32",
          "name": "role",
          "type": "bytes32"
        },
        {
          "indexed": true,
          "internalType": "address",
          "name": "account",
          "type": "address"
        },
        {
          "indexed": true,
          "internalType": "address",
          "name": "sender",
          "type": "address"
        }
      ],
      "name": "RoleGranted",
      "type": "event"
    },
    {
      "anonymous": false,
      "inputs": [
        {
          "indexed": true,
          "internalType": "bytes32",
          "name": "role",
          "type": "bytes32"
        },
        {
          "indexed": true,
          "internalType": "address",
          "name": "account",
          "type": "address"
        },
        {
          "indexed": true,
          "internalType": "address",
          "name": "sender",
          "type": "address"
        }
      ],
      "name": "RoleRevoked",
      "type": "event"
    },
    {
      "inputs": [],
      "name": "DEFAULT_ADMIN_ROLE",
      "outputs": [
        {
          "internalType": "bytes32",
          "name": "",
          "type": "bytes32"
        }
      ],
      "stateMutability": "view",
      "type": "function"
    },
    {
      "inputs": [],
      "name": "ORACLE_ROLE",
      "outputs": [
        {
          "internalType": "bytes32",
          "name": "",
          "type": "bytes32"
        }
      ],
      "stateMutability": "view",
      "type": "function"
    },
    {
      "inputs": [
        {
          "internalType": "address",
          "name": "_aggregator",
          "type": "address"
        }
      ],
      "name": "addOracle",
      "outputs": [],
      "stateMutability": "nonpayable",
      "type": "function"
    },
    {
      "inputs": [],
      "name": "allocatedFunds",
      "outputs": [
        {
          "internalType": "uint256",
          "name": "",
          "type": "uint256"
        }
      ],
      "stateMutability": "view",
      "type": "function"
    },
    {
      "inputs": [],
      "name": "availableFunds",
      "outputs": [
        {
          "internalType": "uint256",
          "name": "",
          "type": "uint256"
        }
      ],
      "stateMutability": "view",
      "type": "function"
    },
    {
      "inputs": [
        {
          "internalType": "bytes32",
          "name": "",
          "type": "bytes32"
        }
      ],
      "name": "getCommitmentInfo",
      "outputs": [
        {
          "internalType": "bool",
          "name": "broadcasted",
          "type": "bool"
        },
        {
          "internalType": "uint256",
          "name": "confirmations",
          "type": "uint256"
        },
        {
          "internalType": "bytes32",
          "name": "debridgeId",
          "type": "bytes32"
        },
        {
          "internalType": "bytes32",
          "name": "commitment",
          "type": "bytes32"
        }
      ],
      "stateMutability": "view",
      "type": "function"
    },
    {
      "inputs": [
        {
          "internalType": "bytes32",
          "name": "",
          "type": "bytes32"
        }
      ],
      "name": "getDebridge",
      "outputs": [
        {
          "internalType": "contract IDarkDebridge",
          "name": "",
          "type": "address"
        }
      ],
      "stateMutability": "view",
      "type": "function"
    },
    {
      "inputs": [
        {
          "internalType": "bytes32",
          "name": "role",
          "type": "bytes32"
        }
      ],
      "name": "getRoleAdmin",
      "outputs": [
        {
          "internalType": "bytes32",
          "name": "",
          "type": "bytes32"
        }
      ],
      "stateMutability": "view",
      "type": "function"
    },
    {
      "inputs": [
        {
          "internalType": "address",
          "name": "",
          "type": "address"
        }
      ],
      "name": "getRracleInfo",
      "outputs": [
        {
          "internalType": "uint128",
          "name": "withdrawable",
          "type": "uint128"
        },
        {
          "internalType": "address",
          "name": "admin",
          "type": "address"
        },
        {
          "internalType": "address",
          "name": "pendingAdmin",
          "type": "address"
        }
      ],
      "stateMutability": "view",
      "type": "function"
    },
    {
      "inputs": [
        {
          "internalType": "bytes32",
          "name": "role",
          "type": "bytes32"
        },
        {
          "internalType": "address",
          "name": "account",
          "type": "address"
        }
      ],
      "name": "grantRole",
      "outputs": [],
      "stateMutability": "nonpayable",
      "type": "function"
    },
    {
      "inputs": [
        {
          "internalType": "bytes32",
          "name": "role",
          "type": "bytes32"
        },
        {
          "internalType": "address",
          "name": "account",
          "type": "address"
        }
      ],
      "name": "hasRole",
      "outputs": [
        {
          "internalType": "bool",
          "name": "",
          "type": "bool"
        }
      ],
      "stateMutability": "view",
      "type": "function"
    },
    {
      "inputs": [],
      "name": "link",
      "outputs": [
        {
          "internalType": "contract IERC20",
          "name": "",
          "type": "address"
        }
      ],
      "stateMutability": "view",
      "type": "function"
    },
    {
      "inputs": [],
      "name": "minConfirmations",
      "outputs": [
        {
          "internalType": "uint256",
          "name": "",
          "type": "uint256"
        }
      ],
      "stateMutability": "view",
      "type": "function"
    },
    {
      "inputs": [
        {
          "internalType": "address",
          "name": "",
          "type": "address"
        },
        {
          "internalType": "uint256",
          "name": "",
          "type": "uint256"
        },
        {
          "internalType": "bytes",
          "name": "_data",
          "type": "bytes"
        }
      ],
      "name": "onTokenTransfer",
      "outputs": [],
      "stateMutability": "nonpayable",
      "type": "function"
    },
    {
      "inputs": [],
      "name": "payment",
      "outputs": [
        {
          "internalType": "uint128",
          "name": "",
          "type": "uint128"
        }
      ],
      "stateMutability": "view",
      "type": "function"
    },
    {
      "inputs": [
        {
          "internalType": "address",
          "name": "_aggregator",
          "type": "address"
        }
      ],
      "name": "removeOracle",
      "outputs": [],
      "stateMutability": "nonpayable",
      "type": "function"
    },
    {
      "inputs": [
        {
          "internalType": "bytes32",
          "name": "role",
          "type": "bytes32"
        },
        {
          "internalType": "address",
          "name": "account",
          "type": "address"
        }
      ],
      "name": "renounceRole",
      "outputs": [],
      "stateMutability": "nonpayable",
      "type": "function"
    },
    {
      "inputs": [
        {
          "internalType": "bytes32",
          "name": "role",
          "type": "bytes32"
        },
        {
          "internalType": "address",
          "name": "account",
          "type": "address"
        }
      ],
      "name": "revokeRole",
      "outputs": [],
      "stateMutability": "nonpayable",
      "type": "function"
    },
    {
      "inputs": [
        {
          "internalType": "uint256",
          "name": "_minConfirmations",
          "type": "uint256"
        }
      ],
      "name": "setMinConfirmations",
      "outputs": [],
      "stateMutability": "nonpayable",
      "type": "function"
    },
    {
      "inputs": [
        {
          "internalType": "uint128",
          "name": "_payment",
          "type": "uint128"
        }
      ],
      "name": "setPayment",
      "outputs": [],
      "stateMutability": "nonpayable",
      "type": "function"
    },
    {
      "inputs": [
        {
          "internalType": "bytes4",
          "name": "interfaceId",
          "type": "bytes4"
        }
      ],
      "name": "supportsInterface",
      "outputs": [
        {
          "internalType": "bool",
          "name": "",
          "type": "bool"
        }
      ],
      "stateMutability": "view",
      "type": "function"
    },
    {
      "inputs": [],
      "name": "updateAvailableFunds",
      "outputs": [],
      "stateMutability": "nonpayable",
      "type": "function"
    },
    {
      "inputs": [
        {
          "internalType": "address",
          "name": "_recipient",
          "type": "address"
        },
        {
          "internalType": "uint256",
          "name": "_amount",
          "type": "uint256"
        }
      ],
      "name": "withdrawFunds",
      "outputs": [],
      "stateMutability": "nonpayable",
      "type": "function"
    },
    {
      "inputs": [
        {
          "internalType": "address",
          "name": "_oracle",
          "type": "address"
        },
        {
          "internalType": "address",
          "name": "_recipient",
          "type": "address"
        },
        {
          "internalType": "uint256",
          "name": "_amount",
          "type": "uint256"
        }
      ],
      "name": "withdrawPayment",
      "outputs": [],
      "stateMutability": "nonpayable",
      "type": "function"
    },
    {
      "inputs": [
        {
          "internalType": "address",
          "name": "_oracle",
          "type": "address"
        }
      ],
      "name": "withdrawablePayment",
      "outputs": [
        {
          "internalType": "uint256",
          "name": "",
          "type": "uint256"
        }
      ],
      "stateMutability": "view",
      "type": "function"
    },
    {
      "inputs": [
        {
          "internalType": "bytes32",
          "name": "_commitment",
          "type": "bytes32"
        },
        {
          "internalType": "bytes32",
          "name": "_debridgeId",
          "type": "bytes32"
        }
      ],
      "name": "submit",
      "outputs": [],
      "stateMutability": "nonpayable",
      "type": "function"
    },
    {
      "inputs": [
        {
          "internalType": "bytes32",
          "name": "_debridgeId",
          "type": "bytes32"
        },
        {
          "internalType": "contract IDarkDebridge",
          "name": "_debridge",
          "type": "address"
        }
      ],
      "name": "setDebridge",
      "outputs": [],
      "stateMutability": "nonpayable",
      "type": "function"
    }
  ],
  "bytecode": "0x60806040523480156200001157600080fd5b5060405162002a4f38038062002a4f8339818101604052810190620000379190620002cc565b8282828260018190555081600460006101000a8154816fffffffffffffffffffffffffffffffff02191690836fffffffffffffffffffffffffffffffff16021790555080600560006101000a81548173ffffffffffffffffffffffffffffffffffffffff021916908373ffffffffffffffffffffffffffffffffffffffff160217905550620000d06000801b336200010e60201b60201c565b620001027f68e79a7bf1e0bc45d0a330c573bc367f9cf464fd326078812f301165fbda4ef1336200010e60201b60201c565b505050505050620003de565b6200012082826200012460201b60201c565b5050565b6200013682826200021560201b60201c565b6200021157600160008084815260200190815260200160002060000160008373ffffffffffffffffffffffffffffffffffffffff1673ffffffffffffffffffffffffffffffffffffffff16815260200190815260200160002060006101000a81548160ff021916908315150217905550620001b66200027f60201b60201c565b73ffffffffffffffffffffffffffffffffffffffff168173ffffffffffffffffffffffffffffffffffffffff16837f2f8788117e7eff1d82e926ec794901d17c78024a50270940304540a733656f0d60405160405180910390a45b5050565b600080600084815260200190815260200160002060000160008373ffffffffffffffffffffffffffffffffffffffff1673ffffffffffffffffffffffffffffffffffffffff16815260200190815260200160002060009054906101000a900460ff16905092915050565b600033905090565b600081519050620002988162000390565b92915050565b600081519050620002af81620003aa565b92915050565b600081519050620002c681620003c4565b92915050565b600080600060608486031215620002e257600080fd5b6000620002f286828701620002b5565b935050602062000305868287016200029e565b9250506040620003188682870162000287565b9150509250925092565b60006200032f8262000366565b9050919050565b6000620003438262000322565b9050919050565b60006fffffffffffffffffffffffffffffffff82169050919050565b600073ffffffffffffffffffffffffffffffffffffffff82169050919050565b6000819050919050565b6200039b8162000336565b8114620003a757600080fd5b50565b620003b5816200034a565b8114620003c157600080fd5b50565b620003cf8162000386565b8114620003db57600080fd5b50565b61266180620003ee6000396000f3fe608060405234801561001057600080fd5b50600436106101a95760003560e01c806382313e50116100f9578063d282165511610097578063df5dd1a511610071578063df5dd1a5146104a9578063e2e40317146104c5578063e7c4393e146104f5578063fdc85fc414610513576101a9565b8063d282165514610453578063d4cc54e41461046f578063d547741f1461048d576101a9565b8063a217fddf116100d3578063a217fddf146103e1578063a4c0ed36146103ff578063c10753291461041b578063d26ff86e14610437576101a9565b806382313e501461036257806391d148541461037e578063a08bd437146103ae576101a9565b806336568abe1161016657806346fcff4c1161014057806346fcff4c146102ee5780634f8fc3b51461030c57806351be6ad71461031657806357cf07ca14610332576101a9565b806336568abe146102985780633d3d7714146102b457806342f6487a146102d0576101a9565b806301ffc9a7146101ae57806307e2cea5146101de5780631c4695f4146101fc578063248a9ca31461021a5780632dd6b35c1461024a5780632f2ff15d1461027c575b600080fd5b6101c860048036038101906101c39190611b14565b61052f565b6040516101d59190611e4c565b60405180910390f35b6101e66105a9565b6040516101f39190611eac565b60405180910390f35b6102046105cd565b6040516102119190611ee2565b60405180910390f35b610234600480360381019061022f9190611a37565b6105f3565b6040516102419190611eac565b60405180910390f35b610264600480360381019061025f91906118ee565b610612565b60405161027393929190612098565b60405180910390f35b61029660048036038101906102919190611a60565b610698565b005b6102b260048036038101906102ad9190611a60565b6106fe565b005b6102ce60048036038101906102c99190611917565b610781565b005b6102d8610aca565b6040516102e5919061207d565b60405180910390f35b6102f6610aec565b60405161030391906120cf565b60405180910390f35b610314610af2565b005b610330600480360381019061032b9190611ad8565b610bb2565b005b61034c60048036038101906103479190611a37565b610c54565b6040516103599190611ec7565b60405180910390f35b61037c60048036038101906103779190611b3d565b610c87565b005b61039860048036038101906103939190611a60565b610d0f565b6040516103a59190611e4c565b60405180910390f35b6103c860048036038101906103c39190611a37565b610d79565b6040516103d89493929190611e67565b60405180910390f35b6103e9610db6565b6040516103f69190611eac565b60405180910390f35b610419600480360381019061041491906119a2565b610dbd565b005b61043560048036038101906104309190611966565b610ea1565b005b610451600480360381019061044c9190611a9c565b61102c565b005b61046d60048036038101906104689190611b66565b6112d7565b005b61047761132d565b60405161048491906120cf565b60405180910390f35b6104a760048036038101906104a29190611a60565b611333565b005b6104c360048036038101906104be91906118ee565b611399565b005b6104df60048036038101906104da91906118ee565b6113c6565b6040516104ec91906120cf565b60405180910390f35b6104fd611440565b60405161050a91906120cf565b60405180910390f35b61052d600480360381019061052891906118ee565b611446565b005b60007f7965db0b000000000000000000000000000000000000000000000000000000007bffffffffffffffffffffffffffffffffffffffffffffffffffffffff1916827bffffffffffffffffffffffffffffffffffffffffffffffffffffffff191614806105a257506105a182611473565b5b9050919050565b7f68e79a7bf1e0bc45d0a330c573bc367f9cf464fd326078812f301165fbda4ef181565b600560009054906101000a900473ffffffffffffffffffffffffffffffffffffffff1681565b6000806000838152602001908152602001600020600101549050919050565b60066020528060005260406000206000915090508060000160009054906101000a90046fffffffffffffffffffffffffffffffff16908060010160009054906101000a900473ffffffffffffffffffffffffffffffffffffffff16908060020160009054906101000a900473ffffffffffffffffffffffffffffffffffffffff16905083565b6106b16106a4836105f3565b6106ac6114dd565b610d0f565b6106f0576040517f08c379a00000000000000000000000000000000000000000000000000000000081526004016106e790611efd565b60405180910390fd5b6106fa82826114e5565b5050565b6107066114dd565b73ffffffffffffffffffffffffffffffffffffffff168173ffffffffffffffffffffffffffffffffffffffff1614610773576040517f08c379a000000000000000000000000000000000000000000000000000000000815260040161076a9061205d565b60405180910390fd5b61077d82826115c5565b5050565b3373ffffffffffffffffffffffffffffffffffffffff16600660008573ffffffffffffffffffffffffffffffffffffffff1673ffffffffffffffffffffffffffffffffffffffff16815260200190815260200160002060010160009054906101000a900473ffffffffffffffffffffffffffffffffffffffff1673ffffffffffffffffffffffffffffffffffffffff1614610851576040517f08c379a000000000000000000000000000000000000000000000000000000000815260040161084890611ffd565b60405180910390fd5b60008190506000600660008673ffffffffffffffffffffffffffffffffffffffff1673ffffffffffffffffffffffffffffffffffffffff16815260200190815260200160002060000160009054906101000a90046fffffffffffffffffffffffffffffffff169050816fffffffffffffffffffffffffffffffff16816fffffffffffffffffffffffffffffffff161015610920576040517f08c379a000000000000000000000000000000000000000000000000000000000815260040161091790611f1d565b60405180910390fd5b818161092c9190612197565b600660008773ffffffffffffffffffffffffffffffffffffffff1673ffffffffffffffffffffffffffffffffffffffff16815260200190815260200160002060000160006101000a8154816fffffffffffffffffffffffffffffffff02191690836fffffffffffffffffffffffffffffffff160217905550816fffffffffffffffffffffffffffffffff16600260008282546109c891906121cb565b92505081905550600560009054906101000a900473ffffffffffffffffffffffffffffffffffffffff1673ffffffffffffffffffffffffffffffffffffffff1663a9059cbb85846fffffffffffffffffffffffffffffffff166040518363ffffffff1660e01b8152600401610a3e929190611e23565b602060405180830381600087803b158015610a5857600080fd5b505af1158015610a6c573d6000803e3d6000fd5b505050506040513d601f19601f82011682018060405250810190610a909190611a0e565b610ac3577f4e487b7100000000000000000000000000000000000000000000000000000000600052600160045260246000fd5b5050505050565b600460009054906101000a90046fffffffffffffffffffffffffffffffff1681565b60035481565b600254600560009054906101000a900473ffffffffffffffffffffffffffffffffffffffff1673ffffffffffffffffffffffffffffffffffffffff166370a08231306040518263ffffffff1660e01b8152600401610b509190611e08565b60206040518083038186803b158015610b6857600080fd5b505afa158015610b7c573d6000803e3d6000fd5b505050506040513d601f19601f82011682018060405250810190610ba09190611b8f565b610baa91906121cb565b600381905550565b610bbf6000801b33610d0f565b610bfe576040517f08c379a0000000000000000000000000000000000000000000000000000000008152600401610bf59061201d565b60405180910390fd5b806008600084815260200190815260200160002060006101000a81548173ffffffffffffffffffffffffffffffffffffffff021916908373ffffffffffffffffffffffffffffffffffffffff1602179055505050565b60086020528060005260406000206000915054906101000a900473ffffffffffffffffffffffffffffffffffffffff1681565b610c946000801b33610d0f565b610cd3576040517f08c379a0000000000000000000000000000000000000000000000000000000008152600401610cca9061201d565b60405180910390fd5b80600460006101000a8154816fffffffffffffffffffffffffffffffff02191690836fffffffffffffffffffffffffffffffff16021790555050565b600080600084815260200190815260200160002060000160008373ffffffffffffffffffffffffffffffffffffffff1673ffffffffffffffffffffffffffffffffffffffff16815260200190815260200160002060009054906101000a900460ff16905092915050565b60076020528060005260406000206000915090508060000160009054906101000a900460ff16908060010154908060020154908060030154905084565b6000801b81565b600560009054906101000a900473ffffffffffffffffffffffffffffffffffffffff1673ffffffffffffffffffffffffffffffffffffffff163373ffffffffffffffffffffffffffffffffffffffff1614610e4d576040517f08c379a0000000000000000000000000000000000000000000000000000000008152600401610e4490611fdd565b60405180910390fd5b60008282905014610e93576040517f08c379a0000000000000000000000000000000000000000000000000000000008152600401610e8a90611f7d565b60405180910390fd5b610e9b610af2565b50505050565b610eae6000801b33610d0f565b610eed576040517f08c379a0000000000000000000000000000000000000000000000000000000008152600401610ee49061201d565b60405180910390fd5b806003541015610f32576040517f08c379a0000000000000000000000000000000000000000000000000000000008152600401610f2990611fbd565b60405180910390fd5b600560009054906101000a900473ffffffffffffffffffffffffffffffffffffffff1673ffffffffffffffffffffffffffffffffffffffff1663a9059cbb83836040518363ffffffff1660e01b8152600401610f8f929190611e23565b602060405180830381600087803b158015610fa957600080fd5b505af1158015610fbd573d6000803e3d6000fd5b505050506040513d601f19601f82011682018060405250810190610fe19190611a0e565b611020576040517f08c379a000000000000000000000000000000000000000000000000000000000815260040161101790611f5d565b60405180910390fd5b611028610af2565b5050565b6110567f68e79a7bf1e0bc45d0a330c573bc367f9cf464fd326078812f301165fbda4ef133610d0f565b611095576040517f08c379a000000000000000000000000000000000000000000000000000000000815260040161108c9061203d565b60405180910390fd5b600082826040516020016110aa929190611ddc565b60405160208183030381529060405280519060200120905060006007600083815260200190815260200160002090508060040160003373ffffffffffffffffffffffffffffffffffffffff1673ffffffffffffffffffffffffffffffffffffffff16815260200190815260200160002060009054906101000a900460ff1615611168576040517f08c379a000000000000000000000000000000000000000000000000000000000815260040161115f90611f3d565b60405180910390fd5b600081600101541415611188578381600301819055508281600201819055505b600181600101600082825461119d9190612141565b9250508190555060018160040160003373ffffffffffffffffffffffffffffffffffffffff1673ffffffffffffffffffffffffffffffffffffffff16815260200190815260200160002060006101000a81548160ff021916908315150217905550600154816001015414156112c8576008600084815260200190815260200160002060009054906101000a900473ffffffffffffffffffffffffffffffffffffffff1673ffffffffffffffffffffffffffffffffffffffff1663b83e06b4856040518263ffffffff1660e01b81526004016112789190611eac565b600060405180830381600087803b15801561129257600080fd5b505af11580156112a6573d6000803e3d6000fd5b5050505060018160000160006101000a81548160ff0219169083151502179055505b6112d1336116a6565b50505050565b6112e46000801b33610d0f565b611323576040517f08c379a000000000000000000000000000000000000000000000000000000000815260040161131a9061201d565b60405180910390fd5b8060018190555050565b60025481565b61134c61133f836105f3565b6113476114dd565b610d0f565b61138b576040517f08c379a000000000000000000000000000000000000000000000000000000000815260040161138290611f9d565b60405180910390fd5b61139582826115c5565b5050565b6113c37f68e79a7bf1e0bc45d0a330c573bc367f9cf464fd326078812f301165fbda4ef182610698565b50565b6000600660008373ffffffffffffffffffffffffffffffffffffffff1673ffffffffffffffffffffffffffffffffffffffff16815260200190815260200160002060000160009054906101000a90046fffffffffffffffffffffffffffffffff166fffffffffffffffffffffffffffffffff169050919050565b60015481565b6114707f68e79a7bf1e0bc45d0a330c573bc367f9cf464fd326078812f301165fbda4ef182611333565b50565b60007f01ffc9a7000000000000000000000000000000000000000000000000000000007bffffffffffffffffffffffffffffffffffffffffffffffffffffffff1916827bffffffffffffffffffffffffffffffffffffffffffffffffffffffff1916149050919050565b600033905090565b6114ef8282610d0f565b6115c157600160008084815260200190815260200160002060000160008373ffffffffffffffffffffffffffffffffffffffff1673ffffffffffffffffffffffffffffffffffffffff16815260200190815260200160002060006101000a81548160ff0219169083151502179055506115666114dd565b73ffffffffffffffffffffffffffffffffffffffff168173ffffffffffffffffffffffffffffffffffffffff16837f2f8788117e7eff1d82e926ec794901d17c78024a50270940304540a733656f0d60405160405180910390a45b5050565b6115cf8282610d0f565b156116a257600080600084815260200190815260200160002060000160008373ffffffffffffffffffffffffffffffffffffffff1673ffffffffffffffffffffffffffffffffffffffff16815260200190815260200160002060006101000a81548160ff0219169083151502179055506116476114dd565b73ffffffffffffffffffffffffffffffffffffffff168173ffffffffffffffffffffffffffffffffffffffff16837ff6391f5c32d9c69d2a47ea670b442974b53935d1edc7fd64eb21e047a839171b60405160405180910390a45b5050565b600460009054906101000a90046fffffffffffffffffffffffffffffffff166fffffffffffffffffffffffffffffffff16600360008282546116e891906121cb565b92505081905550600460009054906101000a90046fffffffffffffffffffffffffffffffff166fffffffffffffffffffffffffffffffff16600260008282546117319190612141565b92505081905550600460009054906101000a90046fffffffffffffffffffffffffffffffff16600660008373ffffffffffffffffffffffffffffffffffffffff1673ffffffffffffffffffffffffffffffffffffffff16815260200190815260200160002060000160008282829054906101000a90046fffffffffffffffffffffffffffffffff166117c391906120fb565b92506101000a8154816fffffffffffffffffffffffffffffffff02191690836fffffffffffffffffffffffffffffffff16021790555050565b60008135905061180b8161258a565b92915050565b600081519050611820816125a1565b92915050565b600081359050611835816125b8565b92915050565b60008135905061184a816125cf565b92915050565b60008083601f84011261186257600080fd5b8235905067ffffffffffffffff81111561187b57600080fd5b60208301915083600182028301111561189357600080fd5b9250929050565b6000813590506118a9816125e6565b92915050565b6000813590506118be816125fd565b92915050565b6000813590506118d381612614565b92915050565b6000815190506118e881612614565b92915050565b60006020828403121561190057600080fd5b600061190e848285016117fc565b91505092915050565b60008060006060848603121561192c57600080fd5b600061193a868287016117fc565b935050602061194b868287016117fc565b925050604061195c868287016118c4565b9150509250925092565b6000806040838503121561197957600080fd5b6000611987858286016117fc565b9250506020611998858286016118c4565b9150509250929050565b600080600080606085870312156119b857600080fd5b60006119c6878288016117fc565b94505060206119d7878288016118c4565b935050604085013567ffffffffffffffff8111156119f457600080fd5b611a0087828801611850565b925092505092959194509250565b600060208284031215611a2057600080fd5b6000611a2e84828501611811565b91505092915050565b600060208284031215611a4957600080fd5b6000611a5784828501611826565b91505092915050565b60008060408385031215611a7357600080fd5b6000611a8185828601611826565b9250506020611a92858286016117fc565b9150509250929050565b60008060408385031215611aaf57600080fd5b6000611abd85828601611826565b9250506020611ace85828601611826565b9150509250929050565b60008060408385031215611aeb57600080fd5b6000611af985828601611826565b9250506020611b0a8582860161189a565b9150509250929050565b600060208284031215611b2657600080fd5b6000611b348482850161183b565b91505092915050565b600060208284031215611b4f57600080fd5b6000611b5d848285016118af565b91505092915050565b600060208284031215611b7857600080fd5b6000611b86848285016118c4565b91505092915050565b600060208284031215611ba157600080fd5b6000611baf848285016118d9565b91505092915050565b611bc1816121ff565b82525050565b611bd081612211565b82525050565b611bdf8161221d565b82525050565b611bf6611bf18261221d565b6122f3565b82525050565b611c05816122ab565b82525050565b611c14816122cf565b82525050565b6000611c27602f836120ea565b9150611c328261232c565b604082019050919050565b6000611c4a601f836120ea565b9150611c558261237b565b602082019050919050565b6000611c6d6019836120ea565b9150611c78826123a4565b602082019050919050565b6000611c90601e836120ea565b9150611c9b826123cd565b602082019050919050565b6000611cb36020836120ea565b9150611cbe826123f6565b602082019050919050565b6000611cd66030836120ea565b9150611ce18261241f565b604082019050919050565b6000611cf9601a836120ea565b9150611d048261246e565b602082019050919050565b6000611d1c601d836120ea565b9150611d2782612497565b602082019050919050565b6000611d3f6016836120ea565b9150611d4a826124c0565b602082019050919050565b6000611d626013836120ea565b9150611d6d826124e9565b602082019050919050565b6000611d856014836120ea565b9150611d9082612512565b602082019050919050565b6000611da8602f836120ea565b9150611db38261253b565b604082019050919050565b611dc781612265565b82525050565b611dd6816122a1565b82525050565b6000611de88285611be5565b602082019150611df88284611be5565b6020820191508190509392505050565b6000602082019050611e1d6000830184611bb8565b92915050565b6000604082019050611e386000830185611bb8565b611e456020830184611dcd565b9392505050565b6000602082019050611e616000830184611bc7565b92915050565b6000608082019050611e7c6000830187611bc7565b611e896020830186611dcd565b611e966040830185611bd6565b611ea36060830184611bd6565b95945050505050565b6000602082019050611ec16000830184611bd6565b92915050565b6000602082019050611edc6000830184611bfc565b92915050565b6000602082019050611ef76000830184611c0b565b92915050565b60006020820190508181036000830152611f1681611c1a565b9050919050565b60006020820190508181036000830152611f3681611c3d565b9050919050565b60006020820190508181036000830152611f5681611c60565b9050919050565b60006020820190508181036000830152611f7681611c83565b9050919050565b60006020820190508181036000830152611f9681611ca6565b9050919050565b60006020820190508181036000830152611fb681611cc9565b9050919050565b60006020820190508181036000830152611fd681611cec565b9050919050565b60006020820190508181036000830152611ff681611d0f565b9050919050565b6000602082019050818103600083015261201681611d32565b9050919050565b6000602082019050818103600083015261203681611d55565b9050919050565b6000602082019050818103600083015261205681611d78565b9050919050565b6000602082019050818103600083015261207681611d9b565b9050919050565b60006020820190506120926000830184611dbe565b92915050565b60006060820190506120ad6000830186611dbe565b6120ba6020830185611bb8565b6120c76040830184611bb8565b949350505050565b60006020820190506120e46000830184611dcd565b92915050565b600082825260208201905092915050565b600061210682612265565b915061211183612265565b9250826fffffffffffffffffffffffffffffffff03821115612136576121356122fd565b5b828201905092915050565b600061214c826122a1565b9150612157836122a1565b9250827fffffffffffffffffffffffffffffffffffffffffffffffffffffffffffffffff0382111561218c5761218b6122fd565b5b828201905092915050565b60006121a282612265565b91506121ad83612265565b9250828210156121c0576121bf6122fd565b5b828203905092915050565b60006121d6826122a1565b91506121e1836122a1565b9250828210156121f4576121f36122fd565b5b828203905092915050565b600061220a82612281565b9050919050565b60008115159050919050565b6000819050919050565b60007fffffffff0000000000000000000000000000000000000000000000000000000082169050919050565b600061225e826121ff565b9050919050565b60006fffffffffffffffffffffffffffffffff82169050919050565b600073ffffffffffffffffffffffffffffffffffffffff82169050919050565b6000819050919050565b60006122b6826122bd565b9050919050565b60006122c882612281565b9050919050565b60006122da826122e1565b9050919050565b60006122ec82612281565b9050919050565b6000819050919050565b7f4e487b7100000000000000000000000000000000000000000000000000000000600052601160045260246000fd5b7f416363657373436f6e74726f6c3a2073656e646572206d75737420626520616e60008201527f2061646d696e20746f206772616e740000000000000000000000000000000000602082015250565b7f696e73756666696369656e7420776974686472617761626c652066756e647300600082015250565b7f7375626d69743a207375626d697474656420616c726561647900000000000000600082015250565b7f776974686472617746756e64733a207472616e73666572206661696c65640000600082015250565b7f7472616e7366657220646f65736e2774206163636570742063616c6c64617461600082015250565b7f416363657373436f6e74726f6c3a2073656e646572206d75737420626520616e60008201527f2061646d696e20746f207265766f6b6500000000000000000000000000000000602082015250565b7f696e73756666696369656e7420726573657276652066756e6473000000000000600082015250565b7f6f6e546f6b656e5472616e736665723a206e6f7420746865204c696e6b000000600082015250565b7f6f6e6c792063616c6c61626c652062792061646d696e00000000000000000000600082015250565b7f6f6e6c7941646d696e3a2062616420726f6c6500000000000000000000000000600082015250565b7f6f6e6c794f7261636c653a2062616420726f6c65000000000000000000000000600082015250565b7f416363657373436f6e74726f6c3a2063616e206f6e6c792072656e6f756e636560008201527f20726f6c657320666f722073656c660000000000000000000000000000000000602082015250565b612593816121ff565b811461259e57600080fd5b50565b6125aa81612211565b81146125b557600080fd5b50565b6125c18161221d565b81146125cc57600080fd5b50565b6125d881612227565b81146125e357600080fd5b50565b6125ef81612253565b81146125fa57600080fd5b50565b61260681612265565b811461261157600080fd5b50565b61261d816122a1565b811461262857600080fd5b5056fea2646970667358221220b4c014445a206dfd4378bb36849c8f2c62b11098eb15ad071b8d8bbbf5452acb64736f6c63430008020033",
  "immutableReferences": {},
  "source": "// SPDX-License-Identifier: MIT\npragma solidity ^0.8.2;\n\nimport \"@openzeppelin/contracts/access/AccessControl.sol\";\nimport \"@openzeppelin/contracts/token/ERC20/IERC20.sol\";\nimport \"../interfaces/IDarkDebridge.sol\";\nimport \"./Aggregator.sol\";\n\ncontract CommitmentAggregator is Aggregator {\n    struct CommitmentInfo {\n        bool broadcasted;\n        uint256 confirmations;\n        bytes32 debridgeId; // hash(chainId, tokenAddress, amount)\n        bytes32 commitment;\n        mapping(address => bool) hasVerified;\n    }\n\n    mapping(bytes32 => CommitmentInfo) public getCommitmentInfo;\n    mapping(bytes32 => IDarkDebridge) public getDebridge;\n\n    event Confirmed(bytes32 commitment, bytes32 debridgeId, address operator);\n    event Broadcasted(bytes32 debridgeId, bytes32 commitment);\n\n    constructor(\n        uint256 _minConfirmations,\n        uint128 _payment,\n        IERC20 _link\n    ) Aggregator(_minConfirmations, _payment, _link) {}\n\n    function submit(bytes32 _commitment, bytes32 _debridgeId)\n        external\n        onlyOracle\n    {\n        bytes32 depositId =\n            keccak256(abi.encodePacked(_commitment, _debridgeId));\n        CommitmentInfo storage commitmentInfo = getCommitmentInfo[depositId];\n        require(\n            !commitmentInfo.hasVerified[msg.sender],\n            \"submit: submitted already\"\n        );\n        if (commitmentInfo.confirmations == 0) {\n            commitmentInfo.commitment = _commitment;\n            commitmentInfo.debridgeId = _debridgeId;\n        }\n        commitmentInfo.confirmations += 1;\n        commitmentInfo.hasVerified[msg.sender] = true;\n        if (commitmentInfo.confirmations == minConfirmations) {\n            getDebridge[_debridgeId].externalDeposit(_commitment);\n            commitmentInfo.broadcasted = true;\n        }\n        _payOracle(msg.sender);\n    }\n\n    function setDebridge(bytes32 _debridgeId, IDarkDebridge _debridge)\n        external\n        onlyAdmin\n    {\n        getDebridge[_debridgeId] = _debridge;\n    }\n}\n",
  "sourcePath": "/Users/kstasi/Documents/work/debridge-contracts/contracts/chainlink/CommitmentAggregator.sol",
  "compiler": {
    "name": "solc",
    "version": "0.8.2+commit.661d1103.Emscripten.clang"
  },
  "schemaVersion": "3.3.4",
  "updatedAt": "2021-03-18T15:15:20.185Z",
  "devdoc": {
    "kind": "dev",
    "methods": {
      "getRoleAdmin(bytes32)": {
        "details": "Returns the admin role that controls `role`. See {grantRole} and {revokeRole}. To change a role's admin, use {_setRoleAdmin}."
      },
      "grantRole(bytes32,address)": {
        "details": "Grants `role` to `account`. If `account` had not been already granted `role`, emits a {RoleGranted} event. Requirements: - the caller must have ``role``'s admin role."
      },
      "hasRole(bytes32,address)": {
        "details": "Returns `true` if `account` has been granted `role`."
      },
      "renounceRole(bytes32,address)": {
        "details": "Revokes `role` from the calling account. Roles are often managed via {grantRole} and {revokeRole}: this function's purpose is to provide a mechanism for accounts to lose their privileges if they are compromised (such as when a trusted device is misplaced). If the calling account had been granted `role`, emits a {RoleRevoked} event. Requirements: - the caller must be `account`."
      },
      "revokeRole(bytes32,address)": {
        "details": "Revokes `role` from `account`. If `account` had been granted `role`, emits a {RoleRevoked} event. Requirements: - the caller must have ``role``'s admin role."
      },
      "supportsInterface(bytes4)": {
        "details": "See {IERC165-supportsInterface}."
      }
    },
    "version": 1
  },
  "userdoc": {
    "kind": "user",
    "methods": {},
    "version": 1
  }
}