{
  "contractName": "CommitmentAggregator",
  "abi": [
    {
      "inputs": [
        {
          "internalType": "uint256",
          "name": "_minConfirmations",
          "type": "uint256"
        },
        {
          "internalType": "uint128",
          "name": "_payment",
          "type": "uint128"
        },
        {
          "internalType": "contract IERC20",
          "name": "_link",
          "type": "address"
        }
      ],
      "stateMutability": "nonpayable",
      "type": "constructor"
    },
    {
      "anonymous": false,
      "inputs": [
        {
          "indexed": false,
          "internalType": "bytes32",
          "name": "debridgeId",
          "type": "bytes32"
        },
        {
          "indexed": false,
          "internalType": "bytes32",
          "name": "commitment",
          "type": "bytes32"
        }
      ],
      "name": "Broadcasted",
      "type": "event"
    },
    {
      "anonymous": false,
      "inputs": [
        {
          "indexed": false,
          "internalType": "bytes32",
          "name": "commitment",
          "type": "bytes32"
        },
        {
          "indexed": false,
          "internalType": "bytes32",
          "name": "debridgeId",
          "type": "bytes32"
        },
        {
          "indexed": false,
          "internalType": "address",
          "name": "operator",
          "type": "address"
        }
      ],
      "name": "Confirmed",
      "type": "event"
    },
    {
      "anonymous": false,
      "inputs": [
        {
          "indexed": true,
          "internalType": "bytes32",
          "name": "role",
          "type": "bytes32"
        },
        {
          "indexed": true,
          "internalType": "bytes32",
          "name": "previousAdminRole",
          "type": "bytes32"
        },
        {
          "indexed": true,
          "internalType": "bytes32",
          "name": "newAdminRole",
          "type": "bytes32"
        }
      ],
      "name": "RoleAdminChanged",
      "type": "event"
    },
    {
      "anonymous": false,
      "inputs": [
        {
          "indexed": true,
          "internalType": "bytes32",
          "name": "role",
          "type": "bytes32"
        },
        {
          "indexed": true,
          "internalType": "address",
          "name": "account",
          "type": "address"
        },
        {
          "indexed": true,
          "internalType": "address",
          "name": "sender",
          "type": "address"
        }
      ],
      "name": "RoleGranted",
      "type": "event"
    },
    {
      "anonymous": false,
      "inputs": [
        {
          "indexed": true,
          "internalType": "bytes32",
          "name": "role",
          "type": "bytes32"
        },
        {
          "indexed": true,
          "internalType": "address",
          "name": "account",
          "type": "address"
        },
        {
          "indexed": true,
          "internalType": "address",
          "name": "sender",
          "type": "address"
        }
      ],
      "name": "RoleRevoked",
      "type": "event"
    },
    {
      "inputs": [],
      "name": "DEFAULT_ADMIN_ROLE",
      "outputs": [
        {
          "internalType": "bytes32",
          "name": "",
          "type": "bytes32"
        }
      ],
      "stateMutability": "view",
      "type": "function"
    },
    {
      "inputs": [],
      "name": "ORACLE_ROLE",
      "outputs": [
        {
          "internalType": "bytes32",
          "name": "",
          "type": "bytes32"
        }
      ],
      "stateMutability": "view",
      "type": "function"
    },
    {
      "inputs": [
        {
          "internalType": "address",
          "name": "_oracle",
          "type": "address"
        }
      ],
      "name": "addOracle",
      "outputs": [],
      "stateMutability": "nonpayable",
      "type": "function"
    },
    {
      "inputs": [],
      "name": "allocatedFunds",
      "outputs": [
        {
          "internalType": "uint256",
          "name": "",
          "type": "uint256"
        }
      ],
      "stateMutability": "view",
      "type": "function"
    },
    {
      "inputs": [],
      "name": "availableFunds",
      "outputs": [
        {
          "internalType": "uint256",
          "name": "",
          "type": "uint256"
        }
      ],
      "stateMutability": "view",
      "type": "function"
    },
    {
      "inputs": [
        {
          "internalType": "bytes32",
          "name": "",
          "type": "bytes32"
        }
      ],
      "name": "getCommitmentInfo",
      "outputs": [
        {
          "internalType": "bool",
          "name": "broadcasted",
          "type": "bool"
        },
        {
          "internalType": "uint256",
          "name": "confirmations",
          "type": "uint256"
        },
        {
          "internalType": "bytes32",
          "name": "debridgeId",
          "type": "bytes32"
        },
        {
          "internalType": "bytes32",
          "name": "commitment",
          "type": "bytes32"
        }
      ],
      "stateMutability": "view",
      "type": "function"
    },
    {
      "inputs": [
        {
          "internalType": "bytes32",
          "name": "",
          "type": "bytes32"
        }
      ],
      "name": "getDebridge",
      "outputs": [
        {
          "internalType": "contract IDarkDebridge",
          "name": "",
          "type": "address"
        }
      ],
      "stateMutability": "view",
      "type": "function"
    },
    {
      "inputs": [
        {
          "internalType": "bytes32",
          "name": "role",
          "type": "bytes32"
        }
      ],
      "name": "getRoleAdmin",
      "outputs": [
        {
          "internalType": "bytes32",
          "name": "",
          "type": "bytes32"
        }
      ],
      "stateMutability": "view",
      "type": "function"
    },
    {
      "inputs": [
        {
          "internalType": "address",
          "name": "",
          "type": "address"
        }
      ],
      "name": "getRracleInfo",
      "outputs": [
        {
          "internalType": "uint128",
          "name": "withdrawable",
          "type": "uint128"
        },
        {
          "internalType": "address",
          "name": "admin",
          "type": "address"
        },
        {
          "internalType": "address",
          "name": "pendingAdmin",
          "type": "address"
        }
      ],
      "stateMutability": "view",
      "type": "function"
    },
    {
      "inputs": [
        {
          "internalType": "bytes32",
          "name": "role",
          "type": "bytes32"
        },
        {
          "internalType": "address",
          "name": "account",
          "type": "address"
        }
      ],
      "name": "grantRole",
      "outputs": [],
      "stateMutability": "nonpayable",
      "type": "function"
    },
    {
      "inputs": [
        {
          "internalType": "bytes32",
          "name": "role",
          "type": "bytes32"
        },
        {
          "internalType": "address",
          "name": "account",
          "type": "address"
        }
      ],
      "name": "hasRole",
      "outputs": [
        {
          "internalType": "bool",
          "name": "",
          "type": "bool"
        }
      ],
      "stateMutability": "view",
      "type": "function"
    },
    {
      "inputs": [],
      "name": "link",
      "outputs": [
        {
          "internalType": "contract IERC20",
          "name": "",
          "type": "address"
        }
      ],
      "stateMutability": "view",
      "type": "function"
    },
    {
      "inputs": [],
      "name": "minConfirmations",
      "outputs": [
        {
          "internalType": "uint256",
          "name": "",
          "type": "uint256"
        }
      ],
      "stateMutability": "view",
      "type": "function"
    },
    {
      "inputs": [
        {
          "internalType": "address",
          "name": "",
          "type": "address"
        },
        {
          "internalType": "uint256",
          "name": "",
          "type": "uint256"
        },
        {
          "internalType": "bytes",
          "name": "_data",
          "type": "bytes"
        }
      ],
      "name": "onTokenTransfer",
      "outputs": [],
      "stateMutability": "nonpayable",
      "type": "function"
    },
    {
      "inputs": [],
      "name": "payment",
      "outputs": [
        {
          "internalType": "uint128",
          "name": "",
          "type": "uint128"
        }
      ],
      "stateMutability": "view",
      "type": "function"
    },
    {
      "inputs": [
        {
          "internalType": "address",
          "name": "_oracle",
          "type": "address"
        }
      ],
      "name": "removeOracle",
      "outputs": [],
      "stateMutability": "nonpayable",
      "type": "function"
    },
    {
      "inputs": [
        {
          "internalType": "bytes32",
          "name": "role",
          "type": "bytes32"
        },
        {
          "internalType": "address",
          "name": "account",
          "type": "address"
        }
      ],
      "name": "renounceRole",
      "outputs": [],
      "stateMutability": "nonpayable",
      "type": "function"
    },
    {
      "inputs": [
        {
          "internalType": "bytes32",
          "name": "role",
          "type": "bytes32"
        },
        {
          "internalType": "address",
          "name": "account",
          "type": "address"
        }
      ],
      "name": "revokeRole",
      "outputs": [],
      "stateMutability": "nonpayable",
      "type": "function"
    },
    {
      "inputs": [
        {
          "internalType": "uint256",
          "name": "_minConfirmations",
          "type": "uint256"
        }
      ],
      "name": "setMinConfirmations",
      "outputs": [],
      "stateMutability": "nonpayable",
      "type": "function"
    },
    {
      "inputs": [
        {
          "internalType": "uint128",
          "name": "_payment",
          "type": "uint128"
        }
      ],
      "name": "setPayment",
      "outputs": [],
      "stateMutability": "nonpayable",
      "type": "function"
    },
    {
      "inputs": [
        {
          "internalType": "bytes4",
          "name": "interfaceId",
          "type": "bytes4"
        }
      ],
      "name": "supportsInterface",
      "outputs": [
        {
          "internalType": "bool",
          "name": "",
          "type": "bool"
        }
      ],
      "stateMutability": "view",
      "type": "function"
    },
    {
      "inputs": [],
      "name": "updateAvailableFunds",
      "outputs": [],
      "stateMutability": "nonpayable",
      "type": "function"
    },
    {
      "inputs": [
        {
          "internalType": "address",
          "name": "_recipient",
          "type": "address"
        },
        {
          "internalType": "uint256",
          "name": "_amount",
          "type": "uint256"
        }
      ],
      "name": "withdrawFunds",
      "outputs": [],
      "stateMutability": "nonpayable",
      "type": "function"
    },
    {
      "inputs": [
        {
          "internalType": "address",
          "name": "_oracle",
          "type": "address"
        },
        {
          "internalType": "address",
          "name": "_recipient",
          "type": "address"
        },
        {
          "internalType": "uint256",
          "name": "_amount",
          "type": "uint256"
        }
      ],
      "name": "withdrawPayment",
      "outputs": [],
      "stateMutability": "nonpayable",
      "type": "function"
    },
    {
      "inputs": [
        {
          "internalType": "address",
          "name": "_oracle",
          "type": "address"
        }
      ],
      "name": "withdrawablePayment",
      "outputs": [
        {
          "internalType": "uint256",
          "name": "",
          "type": "uint256"
        }
      ],
      "stateMutability": "view",
      "type": "function"
    },
    {
      "inputs": [
        {
          "internalType": "bytes32",
          "name": "_commitment",
          "type": "bytes32"
        },
        {
          "internalType": "bytes32",
          "name": "_debridgeId",
          "type": "bytes32"
        }
      ],
      "name": "submit",
      "outputs": [],
      "stateMutability": "nonpayable",
      "type": "function"
    },
    {
      "inputs": [
        {
          "internalType": "bytes32",
          "name": "_debridgeId",
          "type": "bytes32"
        },
        {
          "internalType": "contract IDarkDebridge",
          "name": "_debridge",
          "type": "address"
        }
      ],
      "name": "setDebridge",
      "outputs": [],
      "stateMutability": "nonpayable",
      "type": "function"
    }
  ],
  "bytecode": "0x60806040523480156200001157600080fd5b506040516200170f3803806200170f833981016040819052620000349162000167565b6001839055600480546001600160801b0319166001600160801b038416179055600580546001600160a01b0319166001600160a01b0383161790558282826200007f600033620000b7565b620000ab7f68e79a7bf1e0bc45d0a330c573bc367f9cf464fd326078812f301165fbda4ef133620000b7565b505050505050620001c3565b620000c38282620000c7565b5050565b6000828152602081815260408083206001600160a01b038516845290915290205460ff16620000c3576000828152602081815260408083206001600160a01b03851684529091529020805460ff19166001179055620001233390565b6001600160a01b0316816001600160a01b0316837f2f8788117e7eff1d82e926ec794901d17c78024a50270940304540a733656f0d60405160405180910390a45050565b6000806000606084860312156200017c578283fd5b835160208501519093506001600160801b03811681146200019b578283fd5b60408501519092506001600160a01b0381168114620001b8578182fd5b809150509250925092565b61153c80620001d36000396000f3fe608060405234801561001057600080fd5b50600436106101b95760003560e01c806382313e50116100f9578063d282165511610097578063df5dd1a511610071578063df5dd1a5146104a5578063e2e40317146104b8578063e7c4393e146104ea578063fdc85fc4146104f3576101b9565b8063d282165514610476578063d4cc54e414610489578063d547741f14610492576101b9565b8063a217fddf116100d3578063a217fddf14610435578063a4c0ed361461043d578063c107532914610450578063d26ff86e14610463576101b9565b806382313e501461039057806391d14854146103a3578063a08bd437146103da576101b9565b806336568abe1161016657806346fcff4c1161014057806346fcff4c146103435780634f8fc3b51461034c57806351be6ad71461035457806357cf07ca14610367576101b9565b806336568abe146102f25780633d3d77141461030557806342f6487a14610318576101b9565b8063248a9ca311610197578063248a9ca3146102465780632dd6b35c146102695780632f2ff15d146102dd576101b9565b806301ffc9a7146101be57806307e2cea5146101e65780631c4695f41461021b575b600080fd5b6101d16101cc3660046113da565b610506565b60405190151581526020015b60405180910390f35b61020d7f68e79a7bf1e0bc45d0a330c573bc367f9cf464fd326078812f301165fbda4ef181565b6040519081526020016101dd565b60055461022e906001600160a01b031681565b6040516001600160a01b0390911681526020016101dd565b61020d610254366004611372565b60009081526020819052604090206001015490565b6102ae610277366004611240565b6006602052600090815260409020805460018201546002909201546001600160801b03909116916001600160a01b03908116911683565b604080516001600160801b0390941684526001600160a01b0392831660208501529116908201526060016101dd565b6102f06102eb36600461138a565b61059f565b005b6102f061030036600461138a565b610641565b6102f0610313366004611263565b6106c9565b60045461032b906001600160801b031681565b6040516001600160801b0390911681526020016101dd565b61020d60035481565b6102f06108bc565b6102f061036236600461138a565b610962565b61022e610375366004611372565b6008602052600090815260409020546001600160a01b031681565b6102f061039e36600461141a565b610a1c565b6101d16103b136600461138a565b6000918252602082815260408084206001600160a01b0393909316845291905290205460ff1690565b6104136103e8366004611372565b600760205260009081526040902080546001820154600283015460039093015460ff90921692909184565b60408051941515855260208501939093529183015260608201526080016101dd565b61020d600081565b6102f061044b3660046112ce565b610abb565b6102f061045e3660046112a3565b610b71565b6102f06104713660046113b9565b610d11565b6102f0610484366004611372565b610f1b565b61020d60025481565b6102f06104a036600461138a565b610f94565b6102f06104b3366004611240565b611021565b61020d6104c6366004611240565b6001600160a01b03166000908152600660205260409020546001600160801b031690565b61020d60015481565b6102f0610501366004611240565b61104e565b60007fffffffff0000000000000000000000000000000000000000000000000000000082167f7965db0b00000000000000000000000000000000000000000000000000000000148061059957507f01ffc9a7000000000000000000000000000000000000000000000000000000007fffffffff000000000000000000000000000000000000000000000000000000008316145b92915050565b6000828152602081905260409020600101546105bc905b336103b1565b6106335760405162461bcd60e51b815260206004820152602f60248201527f416363657373436f6e74726f6c3a2073656e646572206d75737420626520616e60448201527f2061646d696e20746f206772616e74000000000000000000000000000000000060648201526084015b60405180910390fd5b61063d8282611078565b5050565b6001600160a01b03811633146106bf5760405162461bcd60e51b815260206004820152602f60248201527f416363657373436f6e74726f6c3a2063616e206f6e6c792072656e6f756e636560448201527f20726f6c657320666f722073656c660000000000000000000000000000000000606482015260840161062a565b61063d8282611116565b6001600160a01b038381166000908152600660205260409020600101541633146107355760405162461bcd60e51b815260206004820152601660248201527f6f6e6c792063616c6c61626c652062792061646d696e00000000000000000000604482015260640161062a565b6001600160a01b03831660009081526006602052604090205481906001600160801b039081169082168110156107ad5760405162461bcd60e51b815260206004820152601f60248201527f696e73756666696369656e7420776974686472617761626c652066756e647300604482015260640161062a565b6107b7828261149c565b6001600160a01b038616600090815260066020526040812080546fffffffffffffffffffffffffffffffff19166001600160801b0393841617905560028054928516929091906108089084906114c4565b909155505060055460405163a9059cbb60e01b81526001600160a01b0386811660048301526001600160801b03851660248301529091169063a9059cbb90604401602060405180830381600087803b15801561086357600080fd5b505af1158015610877573d6000803e3d6000fd5b505050506040513d601f19601f8201168201806040525081019061089b9190611352565b6108b557634e487b7160e01b600052600160045260246000fd5b5050505050565b6002546005546040517f70a082310000000000000000000000000000000000000000000000000000000081523060048201526001600160a01b03909116906370a082319060240160206040518083038186803b15801561091b57600080fd5b505afa15801561092f573d6000803e3d6000fd5b505050506040513d601f19601f820116820180604052508101906109539190611441565b61095d91906114c4565b600355565b3360009081527fad3228b676f7d3cd4284a5443f17f1962b36e491b30a40b2405849e597ba5fb5602052604090205460ff166109d65760405162461bcd60e51b81526020600482015260136024820152726f6e6c7941646d696e3a2062616420726f6c6560681b604482015260640161062a565b60009182526008602052604090912080547fffffffffffffffffffffffff0000000000000000000000000000000000000000166001600160a01b03909216919091179055565b3360009081527fad3228b676f7d3cd4284a5443f17f1962b36e491b30a40b2405849e597ba5fb5602052604090205460ff16610a905760405162461bcd60e51b81526020600482015260136024820152726f6e6c7941646d696e3a2062616420726f6c6560681b604482015260640161062a565b600480546fffffffffffffffffffffffffffffffff19166001600160801b0392909216919091179055565b6005546001600160a01b03163314610b155760405162461bcd60e51b815260206004820152601d60248201527f6f6e546f6b656e5472616e736665723a206e6f7420746865204c696e6b000000604482015260640161062a565b8015610b635760405162461bcd60e51b815260206004820181905260248201527f7472616e7366657220646f65736e2774206163636570742063616c6c64617461604482015260640161062a565b610b6b6108bc565b50505050565b3360009081527fad3228b676f7d3cd4284a5443f17f1962b36e491b30a40b2405849e597ba5fb5602052604090205460ff16610be55760405162461bcd60e51b81526020600482015260136024820152726f6e6c7941646d696e3a2062616420726f6c6560681b604482015260640161062a565b806003541015610c375760405162461bcd60e51b815260206004820152601a60248201527f696e73756666696369656e7420726573657276652066756e6473000000000000604482015260640161062a565b60055460405163a9059cbb60e01b81526001600160a01b038481166004830152602482018490529091169063a9059cbb90604401602060405180830381600087803b158015610c8557600080fd5b505af1158015610c99573d6000803e3d6000fd5b505050506040513d601f19601f82011682018060405250810190610cbd9190611352565b610d095760405162461bcd60e51b815260206004820152601e60248201527f776974686472617746756e64733a207472616e73666572206661696c65640000604482015260640161062a565b61063d6108bc565b3360009081527fa629f6981c2f6895a67dc766e8e03ff72d04a413d0d8773a3ca56e9e474032c1602052604090205460ff16610d8f5760405162461bcd60e51b815260206004820152601460248201527f6f6e6c794f7261636c653a2062616420726f6c65000000000000000000000000604482015260640161062a565b6040805160208082018590528183018490528251808303840181526060909201835281519181019190912060008181526007835283812033825260048101909352929092205460ff1615610e255760405162461bcd60e51b815260206004820152601960248201527f7375626d69743a207375626d697474656420616c726561647900000000000000604482015260640161062a565b6001810154610e3d5760038101849055600281018390555b6001816001016000828254610e529190611484565b90915550503360009081526004820160205260409020805460ff191660019081179091558054908201541415610f1257600083815260086020526040908190205490517fb83e06b4000000000000000000000000000000000000000000000000000000008152600481018690526001600160a01b039091169063b83e06b490602401600060405180830381600087803b158015610eee57600080fd5b505af1158015610f02573d6000803e3d6000fd5b5050825460ff1916600117835550505b610b6b33611195565b3360009081527fad3228b676f7d3cd4284a5443f17f1962b36e491b30a40b2405849e597ba5fb5602052604090205460ff16610f8f5760405162461bcd60e51b81526020600482015260136024820152726f6e6c7941646d696e3a2062616420726f6c6560681b604482015260640161062a565b600155565b600082815260208190526040902060010154610faf906105b6565b6106bf5760405162461bcd60e51b815260206004820152603060248201527f416363657373436f6e74726f6c3a2073656e646572206d75737420626520616e60448201527f2061646d696e20746f207265766f6b6500000000000000000000000000000000606482015260840161062a565b61104b7f68e79a7bf1e0bc45d0a330c573bc367f9cf464fd326078812f301165fbda4ef18261059f565b50565b61104b7f68e79a7bf1e0bc45d0a330c573bc367f9cf464fd326078812f301165fbda4ef182610f94565b6000828152602081815260408083206001600160a01b038516845290915290205460ff1661063d576000828152602081815260408083206001600160a01b03851684529091529020805460ff191660011790556110d23390565b6001600160a01b0316816001600160a01b0316837f2f8788117e7eff1d82e926ec794901d17c78024a50270940304540a733656f0d60405160405180910390a45050565b6000828152602081815260408083206001600160a01b038516845290915290205460ff161561063d576000828152602081815260408083206001600160a01b0385168085529252808320805460ff1916905551339285917ff6391f5c32d9c69d2a47ea670b442974b53935d1edc7fd64eb21e047a839171b9190a45050565b600454600380546001600160801b03909216916000906111b69084906114c4565b9091555050600454600280546001600160801b03909216916000906111dc908490611484565b90915550506004546001600160a01b038216600090815260066020526040812080546001600160801b039384169391929161121991859116611459565b92506101000a8154816001600160801b0302191690836001600160801b0316021790555050565b600060208284031215611251578081fd5b813561125c816114f1565b9392505050565b600080600060608486031215611277578182fd5b8335611282816114f1565b92506020840135611292816114f1565b929592945050506040919091013590565b600080604083850312156112b5578182fd5b82356112c0816114f1565b946020939093013593505050565b600080600080606085870312156112e3578081fd5b84356112ee816114f1565b935060208501359250604085013567ffffffffffffffff80821115611311578283fd5b818701915087601f830112611324578283fd5b813581811115611332578384fd5b886020828501011115611343578384fd5b95989497505060200194505050565b600060208284031215611363578081fd5b8151801515811461125c578182fd5b600060208284031215611383578081fd5b5035919050565b6000806040838503121561139c578182fd5b8235915060208301356113ae816114f1565b809150509250929050565b600080604083850312156113cb578182fd5b50508035926020909101359150565b6000602082840312156113eb578081fd5b81357fffffffff000000000000000000000000000000000000000000000000000000008116811461125c578182fd5b60006020828403121561142b578081fd5b81356001600160801b038116811461125c578182fd5b600060208284031215611452578081fd5b5051919050565b60006001600160801b0380831681851680830382111561147b5761147b6114db565b01949350505050565b60008219821115611497576114976114db565b500190565b60006001600160801b03838116908316818110156114bc576114bc6114db565b039392505050565b6000828210156114d6576114d66114db565b500390565b634e487b7160e01b600052601160045260246000fd5b6001600160a01b038116811461104b57600080fdfea26469706673582212206dc17d059375d35f363894d28d2c203980332416ec5bc24d0d615304cb78521764736f6c63430008020033",
  "immutableReferences": {},
  "source": "// SPDX-License-Identifier: MIT\npragma solidity ^0.8.2;\n\nimport \"@openzeppelin/contracts/access/AccessControl.sol\";\nimport \"@openzeppelin/contracts/token/ERC20/IERC20.sol\";\nimport \"../interfaces/IDarkDebridge.sol\";\nimport \"./Aggregator.sol\";\n\ncontract CommitmentAggregator is Aggregator {\n    struct CommitmentInfo {\n        bool broadcasted;\n        uint256 confirmations;\n        bytes32 debridgeId; // hash(chainId, tokenAddress, amount)\n        bytes32 commitment;\n        mapping(address => bool) hasVerified;\n    }\n\n    mapping(bytes32 => CommitmentInfo) public getCommitmentInfo;\n    mapping(bytes32 => IDarkDebridge) public getDebridge;\n\n    event Confirmed(bytes32 commitment, bytes32 debridgeId, address operator);\n    event Broadcasted(bytes32 debridgeId, bytes32 commitment);\n\n    constructor(\n        uint256 _minConfirmations,\n        uint128 _payment,\n        IERC20 _link\n    ) Aggregator(_minConfirmations, _payment, _link) {}\n\n    function submit(bytes32 _commitment, bytes32 _debridgeId)\n        external\n        onlyOracle\n    {\n        bytes32 depositId =\n            keccak256(abi.encodePacked(_commitment, _debridgeId));\n        CommitmentInfo storage commitmentInfo = getCommitmentInfo[depositId];\n        require(\n            !commitmentInfo.hasVerified[msg.sender],\n            \"submit: submitted already\"\n        );\n        if (commitmentInfo.confirmations == 0) {\n            commitmentInfo.commitment = _commitment;\n            commitmentInfo.debridgeId = _debridgeId;\n        }\n        commitmentInfo.confirmations += 1;\n        commitmentInfo.hasVerified[msg.sender] = true;\n        if (commitmentInfo.confirmations == minConfirmations) {\n            getDebridge[_debridgeId].externalDeposit(_commitment);\n            commitmentInfo.broadcasted = true;\n        }\n        _payOracle(msg.sender);\n    }\n\n    function setDebridge(bytes32 _debridgeId, IDarkDebridge _debridge)\n        external\n        onlyAdmin\n    {\n        getDebridge[_debridgeId] = _debridge;\n    }\n}\n",
  "sourcePath": "/Users/kstasi/Documents/work/debridge-contracts/contracts/chainlink/CommitmentAggregator.sol",
  "compiler": {
    "name": "solc",
    "version": "0.8.2+commit.661d1103.Emscripten.clang"
  },
  "schemaVersion": "3.3.4",
  "updatedAt": "2021-03-21T15:57:52.082Z",
  "devdoc": {
    "kind": "dev",
    "methods": {
      "addOracle(address)": {
        "details": "Add new oracle.",
        "params": {
          "_oracle": "Oracle address."
        }
      },
      "getRoleAdmin(bytes32)": {
        "details": "Returns the admin role that controls `role`. See {grantRole} and {revokeRole}. To change a role's admin, use {_setRoleAdmin}."
      },
      "grantRole(bytes32,address)": {
        "details": "Grants `role` to `account`. If `account` had not been already granted `role`, emits a {RoleGranted} event. Requirements: - the caller must have ``role``'s admin role."
      },
      "hasRole(bytes32,address)": {
        "details": "Returns `true` if `account` has been granted `role`."
      },
      "removeOracle(address)": {
        "details": "Remove oracle.",
        "params": {
          "_oracle": "Oracle address."
        }
      },
      "renounceRole(bytes32,address)": {
        "details": "Revokes `role` from the calling account. Roles are often managed via {grantRole} and {revokeRole}: this function's purpose is to provide a mechanism for accounts to lose their privileges if they are compromised (such as when a trusted device is misplaced). If the calling account had been granted `role`, emits a {RoleRevoked} event. Requirements: - the caller must be `account`."
      },
      "revokeRole(bytes32,address)": {
        "details": "Revokes `role` from `account`. If `account` had been granted `role`, emits a {RoleRevoked} event. Requirements: - the caller must have ``role``'s admin role."
      },
      "setMinConfirmations(uint256)": {
        "details": "Sets minimal required confirmations.",
        "params": {
          "_minConfirmations": "Minimal required confirmations."
        }
      },
      "setPayment(uint128)": {
        "details": "Sets new oracle reward.",
        "params": {
          "_payment": "Oracle reward."
        }
      },
      "supportsInterface(bytes4)": {
        "details": "See {IERC165-supportsInterface}."
      },
      "updateAvailableFunds()": {
        "details": "Updates available rewards to be distributed."
      },
      "withdrawFunds(address,uint256)": {
        "details": "Withdraws available LINK's.",
        "params": {
          "_amount": "Amount to withdraw.",
          "_recipient": "Recepient reward."
        }
      },
      "withdrawPayment(address,address,uint256)": {
        "details": "Withdraws oracle reward.",
        "params": {
          "_amount": "Amount to withdraw.",
          "_oracle": "Oracle address.",
          "_recipient": "Recepient reward."
        }
      },
      "withdrawablePayment(address)": {
        "details": "Withdraws oracle reward.",
        "params": {
          "_oracle": "Oracle address."
        },
        "returns": {
          "_0": "Oracle rewards."
        }
      }
    },
    "version": 1
  },
  "userdoc": {
    "kind": "user",
    "methods": {},
    "version": 1
  }
}