{
  "contractName": "CommitmentAggregator",
  "abi": [
    {
      "inputs": [
        {
          "internalType": "uint256",
          "name": "_minConfirmations",
          "type": "uint256"
        },
        {
          "internalType": "uint128",
          "name": "_payment",
          "type": "uint128"
        },
        {
          "internalType": "contract IERC20",
          "name": "_link",
          "type": "address"
        }
      ],
      "stateMutability": "nonpayable",
      "type": "constructor"
    },
    {
      "anonymous": false,
      "inputs": [
        {
          "indexed": false,
          "internalType": "bytes32",
          "name": "debridgeId",
          "type": "bytes32"
        },
        {
          "indexed": false,
          "internalType": "bytes32",
          "name": "commitment",
          "type": "bytes32"
        }
      ],
      "name": "Broadcasted",
      "type": "event"
    },
    {
      "anonymous": false,
      "inputs": [
        {
          "indexed": false,
          "internalType": "bytes32",
          "name": "commitment",
          "type": "bytes32"
        },
        {
          "indexed": false,
          "internalType": "bytes32",
          "name": "debridgeId",
          "type": "bytes32"
        },
        {
          "indexed": false,
          "internalType": "address",
          "name": "operator",
          "type": "address"
        }
      ],
      "name": "Confirmed",
      "type": "event"
    },
    {
      "anonymous": false,
      "inputs": [
        {
          "indexed": true,
          "internalType": "bytes32",
          "name": "role",
          "type": "bytes32"
        },
        {
          "indexed": true,
          "internalType": "bytes32",
          "name": "previousAdminRole",
          "type": "bytes32"
        },
        {
          "indexed": true,
          "internalType": "bytes32",
          "name": "newAdminRole",
          "type": "bytes32"
        }
      ],
      "name": "RoleAdminChanged",
      "type": "event"
    },
    {
      "anonymous": false,
      "inputs": [
        {
          "indexed": true,
          "internalType": "bytes32",
          "name": "role",
          "type": "bytes32"
        },
        {
          "indexed": true,
          "internalType": "address",
          "name": "account",
          "type": "address"
        },
        {
          "indexed": true,
          "internalType": "address",
          "name": "sender",
          "type": "address"
        }
      ],
      "name": "RoleGranted",
      "type": "event"
    },
    {
      "anonymous": false,
      "inputs": [
        {
          "indexed": true,
          "internalType": "bytes32",
          "name": "role",
          "type": "bytes32"
        },
        {
          "indexed": true,
          "internalType": "address",
          "name": "account",
          "type": "address"
        },
        {
          "indexed": true,
          "internalType": "address",
          "name": "sender",
          "type": "address"
        }
      ],
      "name": "RoleRevoked",
      "type": "event"
    },
    {
      "inputs": [],
      "name": "DEFAULT_ADMIN_ROLE",
      "outputs": [
        {
          "internalType": "bytes32",
          "name": "",
          "type": "bytes32"
        }
      ],
      "stateMutability": "view",
      "type": "function"
    },
    {
      "inputs": [],
      "name": "ORACLE_ROLE",
      "outputs": [
        {
          "internalType": "bytes32",
          "name": "",
          "type": "bytes32"
        }
      ],
      "stateMutability": "view",
      "type": "function"
    },
    {
      "inputs": [],
      "name": "allocatedFunds",
      "outputs": [
        {
          "internalType": "uint256",
          "name": "",
          "type": "uint256"
        }
      ],
      "stateMutability": "view",
      "type": "function"
    },
    {
      "inputs": [],
      "name": "availableFunds",
      "outputs": [
        {
          "internalType": "uint256",
          "name": "",
          "type": "uint256"
        }
      ],
      "stateMutability": "view",
      "type": "function"
    },
    {
      "inputs": [
        {
          "internalType": "bytes32",
          "name": "",
          "type": "bytes32"
        }
      ],
      "name": "getCommitmentInfo",
      "outputs": [
        {
          "internalType": "bool",
          "name": "broadcasted",
          "type": "bool"
        },
        {
          "internalType": "uint256",
          "name": "confirmations",
          "type": "uint256"
        },
        {
          "internalType": "bytes32",
          "name": "debridgeId",
          "type": "bytes32"
        },
        {
          "internalType": "bytes32",
          "name": "commitment",
          "type": "bytes32"
        }
      ],
      "stateMutability": "view",
      "type": "function"
    },
    {
      "inputs": [
        {
          "internalType": "bytes32",
          "name": "",
          "type": "bytes32"
        }
      ],
      "name": "getDebridge",
      "outputs": [
        {
          "internalType": "contract IDarkDebridge",
          "name": "",
          "type": "address"
        }
      ],
      "stateMutability": "view",
      "type": "function"
    },
    {
      "inputs": [
        {
          "internalType": "bytes32",
          "name": "role",
          "type": "bytes32"
        }
      ],
      "name": "getRoleAdmin",
      "outputs": [
        {
          "internalType": "bytes32",
          "name": "",
          "type": "bytes32"
        }
      ],
      "stateMutability": "view",
      "type": "function"
    },
    {
      "inputs": [
        {
          "internalType": "address",
          "name": "",
          "type": "address"
        }
      ],
      "name": "getRracleInfo",
      "outputs": [
        {
          "internalType": "uint128",
          "name": "withdrawable",
          "type": "uint128"
        },
        {
          "internalType": "address",
          "name": "admin",
          "type": "address"
        },
        {
          "internalType": "address",
          "name": "pendingAdmin",
          "type": "address"
        }
      ],
      "stateMutability": "view",
      "type": "function"
    },
    {
      "inputs": [
        {
          "internalType": "bytes32",
          "name": "role",
          "type": "bytes32"
        },
        {
          "internalType": "address",
          "name": "account",
          "type": "address"
        }
      ],
      "name": "grantRole",
      "outputs": [],
      "stateMutability": "nonpayable",
      "type": "function"
    },
    {
      "inputs": [
        {
          "internalType": "bytes32",
          "name": "role",
          "type": "bytes32"
        },
        {
          "internalType": "address",
          "name": "account",
          "type": "address"
        }
      ],
      "name": "hasRole",
      "outputs": [
        {
          "internalType": "bool",
          "name": "",
          "type": "bool"
        }
      ],
      "stateMutability": "view",
      "type": "function"
    },
    {
      "inputs": [],
      "name": "link",
      "outputs": [
        {
          "internalType": "contract IERC20",
          "name": "",
          "type": "address"
        }
      ],
      "stateMutability": "view",
      "type": "function"
    },
    {
      "inputs": [],
      "name": "minConfirmations",
      "outputs": [
        {
          "internalType": "uint256",
          "name": "",
          "type": "uint256"
        }
      ],
      "stateMutability": "view",
      "type": "function"
    },
    {
      "inputs": [
        {
          "internalType": "address",
          "name": "",
          "type": "address"
        },
        {
          "internalType": "uint256",
          "name": "",
          "type": "uint256"
        },
        {
          "internalType": "bytes",
          "name": "_data",
          "type": "bytes"
        }
      ],
      "name": "onTokenTransfer",
      "outputs": [],
      "stateMutability": "nonpayable",
      "type": "function"
    },
    {
      "inputs": [],
      "name": "payment",
      "outputs": [
        {
          "internalType": "uint128",
          "name": "",
          "type": "uint128"
        }
      ],
      "stateMutability": "view",
      "type": "function"
    },
    {
      "inputs": [
        {
          "internalType": "bytes32",
          "name": "role",
          "type": "bytes32"
        },
        {
          "internalType": "address",
          "name": "account",
          "type": "address"
        }
      ],
      "name": "renounceRole",
      "outputs": [],
      "stateMutability": "nonpayable",
      "type": "function"
    },
    {
      "inputs": [
        {
          "internalType": "bytes32",
          "name": "role",
          "type": "bytes32"
        },
        {
          "internalType": "address",
          "name": "account",
          "type": "address"
        }
      ],
      "name": "revokeRole",
      "outputs": [],
      "stateMutability": "nonpayable",
      "type": "function"
    },
    {
      "inputs": [
        {
          "internalType": "uint256",
          "name": "_minConfirmations",
          "type": "uint256"
        }
      ],
      "name": "setMinConfirmations",
      "outputs": [],
      "stateMutability": "nonpayable",
      "type": "function"
    },
    {
      "inputs": [
        {
          "internalType": "uint128",
          "name": "_payment",
          "type": "uint128"
        }
      ],
      "name": "setPayment",
      "outputs": [],
      "stateMutability": "nonpayable",
      "type": "function"
    },
    {
      "inputs": [
        {
          "internalType": "bytes4",
          "name": "interfaceId",
          "type": "bytes4"
        }
      ],
      "name": "supportsInterface",
      "outputs": [
        {
          "internalType": "bool",
          "name": "",
          "type": "bool"
        }
      ],
      "stateMutability": "view",
      "type": "function"
    },
    {
      "inputs": [],
      "name": "updateAvailableFunds",
      "outputs": [],
      "stateMutability": "nonpayable",
      "type": "function"
    },
    {
      "inputs": [
        {
          "internalType": "address",
          "name": "_recipient",
          "type": "address"
        },
        {
          "internalType": "uint256",
          "name": "_amount",
          "type": "uint256"
        }
      ],
      "name": "withdrawFunds",
      "outputs": [],
      "stateMutability": "nonpayable",
      "type": "function"
    },
    {
      "inputs": [
        {
          "internalType": "address",
          "name": "_oracle",
          "type": "address"
        },
        {
          "internalType": "address",
          "name": "_recipient",
          "type": "address"
        },
        {
          "internalType": "uint256",
          "name": "_amount",
          "type": "uint256"
        }
      ],
      "name": "withdrawPayment",
      "outputs": [],
      "stateMutability": "nonpayable",
      "type": "function"
    },
    {
      "inputs": [
        {
          "internalType": "address",
          "name": "_oracle",
          "type": "address"
        }
      ],
      "name": "withdrawablePayment",
      "outputs": [
        {
          "internalType": "uint256",
          "name": "",
          "type": "uint256"
        }
      ],
      "stateMutability": "view",
      "type": "function"
    },
    {
      "inputs": [
        {
          "internalType": "bytes32",
          "name": "_commitment",
          "type": "bytes32"
        },
        {
          "internalType": "bytes32",
          "name": "_debridgeId",
          "type": "bytes32"
        }
      ],
      "name": "submit",
      "outputs": [],
      "stateMutability": "nonpayable",
      "type": "function"
    },
    {
      "inputs": [
        {
          "internalType": "bytes32",
          "name": "_debridgeId",
          "type": "bytes32"
        },
        {
          "internalType": "contract IDarkDebridge",
          "name": "_debridge",
          "type": "address"
        }
      ],
      "name": "setDebridge",
      "outputs": [],
      "stateMutability": "nonpayable",
      "type": "function"
    }
  ],
  "bytecode": "0x60806040523480156200001157600080fd5b50604051620028593803806200285983398181016040528101906200003791906200029a565b8282828260018190555081600460006101000a8154816fffffffffffffffffffffffffffffffff02191690836fffffffffffffffffffffffffffffffff16021790555080600560006101000a81548173ffffffffffffffffffffffffffffffffffffffff021916908373ffffffffffffffffffffffffffffffffffffffff160217905550620000d06000801b33620000dc60201b60201c565b505050505050620003ac565b620000ee8282620000f260201b60201c565b5050565b620001048282620001e360201b60201c565b620001df57600160008084815260200190815260200160002060000160008373ffffffffffffffffffffffffffffffffffffffff1673ffffffffffffffffffffffffffffffffffffffff16815260200190815260200160002060006101000a81548160ff021916908315150217905550620001846200024d60201b60201c565b73ffffffffffffffffffffffffffffffffffffffff168173ffffffffffffffffffffffffffffffffffffffff16837f2f8788117e7eff1d82e926ec794901d17c78024a50270940304540a733656f0d60405160405180910390a45b5050565b600080600084815260200190815260200160002060000160008373ffffffffffffffffffffffffffffffffffffffff1673ffffffffffffffffffffffffffffffffffffffff16815260200190815260200160002060009054906101000a900460ff16905092915050565b600033905090565b60008151905062000266816200035e565b92915050565b6000815190506200027d8162000378565b92915050565b600081519050620002948162000392565b92915050565b600080600060608486031215620002b057600080fd5b6000620002c08682870162000283565b9350506020620002d3868287016200026c565b9250506040620002e68682870162000255565b9150509250925092565b6000620002fd8262000334565b9050919050565b60006200031182620002f0565b9050919050565b60006fffffffffffffffffffffffffffffffff82169050919050565b600073ffffffffffffffffffffffffffffffffffffffff82169050919050565b6000819050919050565b620003698162000304565b81146200037557600080fd5b50565b620003838162000318565b81146200038f57600080fd5b50565b6200039d8162000354565b8114620003a957600080fd5b50565b61249d80620003bc6000396000f3fe608060405234801561001057600080fd5b50600436106101735760003560e01c806357cf07ca116100de578063c107532911610097578063d4cc54e411610071578063d4cc54e414610439578063d547741f14610457578063e2e4031714610473578063e7c4393e146104a357610173565b8063c1075329146103e5578063d26ff86e14610401578063d28216551461041d57610173565b806357cf07ca146102fc57806382313e501461032c57806391d1485414610348578063a08bd43714610378578063a217fddf146103ab578063a4c0ed36146103c957610173565b806336568abe1161013057806336568abe146102625780633d3d77141461027e57806342f6487a1461029a57806346fcff4c146102b85780634f8fc3b5146102d657806351be6ad7146102e057610173565b806301ffc9a71461017857806307e2cea5146101a85780631c4695f4146101c6578063248a9ca3146101e45780632dd6b35c146102145780632f2ff15d14610246575b600080fd5b610192600480360381019061018d91906119bc565b6104c1565b60405161019f9190611cd1565b60405180910390f35b6101b061053b565b6040516101bd9190611d31565b60405180910390f35b6101ce61055f565b6040516101db9190611d67565b60405180910390f35b6101fe60048036038101906101f991906118df565b610585565b60405161020b9190611d31565b60405180910390f35b61022e60048036038101906102299190611796565b6105a4565b60405161023d93929190611efd565b60405180910390f35b610260600480360381019061025b9190611908565b61062a565b005b61027c60048036038101906102779190611908565b610690565b005b610298600480360381019061029391906117bf565b610713565b005b6102a2610a5c565b6040516102af9190611ee2565b60405180910390f35b6102c0610a7e565b6040516102cd9190611f34565b60405180910390f35b6102de610a84565b005b6102fa60048036038101906102f59190611980565b610b44565b005b610316600480360381019061031191906118df565b610be6565b6040516103239190611d4c565b60405180910390f35b610346600480360381019061034191906119e5565b610c19565b005b610362600480360381019061035d9190611908565b610ca1565b60405161036f9190611cd1565b60405180910390f35b610392600480360381019061038d91906118df565b610d0b565b6040516103a29493929190611cec565b60405180910390f35b6103b3610d48565b6040516103c09190611d31565b60405180910390f35b6103e360048036038101906103de919061184a565b610d4f565b005b6103ff60048036038101906103fa919061180e565b610da3565b005b61041b60048036038101906104169190611944565b610f2e565b005b61043760048036038101906104329190611a0e565b6111d9565b005b61044161122f565b60405161044e9190611f34565b60405180910390f35b610471600480360381019061046c9190611908565b611235565b005b61048d60048036038101906104889190611796565b61129b565b60405161049a9190611f34565b60405180910390f35b6104ab611315565b6040516104b89190611f34565b60405180910390f35b60007f7965db0b000000000000000000000000000000000000000000000000000000007bffffffffffffffffffffffffffffffffffffffffffffffffffffffff1916827bffffffffffffffffffffffffffffffffffffffffffffffffffffffff1916148061053457506105338261131b565b5b9050919050565b7f68e79a7bf1e0bc45d0a330c573bc367f9cf464fd326078812f301165fbda4ef181565b600560009054906101000a900473ffffffffffffffffffffffffffffffffffffffff1681565b6000806000838152602001908152602001600020600101549050919050565b60066020528060005260406000206000915090508060000160009054906101000a90046fffffffffffffffffffffffffffffffff16908060010160009054906101000a900473ffffffffffffffffffffffffffffffffffffffff16908060020160009054906101000a900473ffffffffffffffffffffffffffffffffffffffff16905083565b61064361063683610585565b61063e611385565b610ca1565b610682576040517f08c379a000000000000000000000000000000000000000000000000000000000815260040161067990611d82565b60405180910390fd5b61068c828261138d565b5050565b610698611385565b73ffffffffffffffffffffffffffffffffffffffff168173ffffffffffffffffffffffffffffffffffffffff1614610705576040517f08c379a00000000000000000000000000000000000000000000000000000000081526004016106fc90611ec2565b60405180910390fd5b61070f828261146d565b5050565b3373ffffffffffffffffffffffffffffffffffffffff16600660008573ffffffffffffffffffffffffffffffffffffffff1673ffffffffffffffffffffffffffffffffffffffff16815260200190815260200160002060010160009054906101000a900473ffffffffffffffffffffffffffffffffffffffff1673ffffffffffffffffffffffffffffffffffffffff16146107e3576040517f08c379a00000000000000000000000000000000000000000000000000000000081526004016107da90611e62565b60405180910390fd5b60008190506000600660008673ffffffffffffffffffffffffffffffffffffffff1673ffffffffffffffffffffffffffffffffffffffff16815260200190815260200160002060000160009054906101000a90046fffffffffffffffffffffffffffffffff169050816fffffffffffffffffffffffffffffffff16816fffffffffffffffffffffffffffffffff1610156108b2576040517f08c379a00000000000000000000000000000000000000000000000000000000081526004016108a990611da2565b60405180910390fd5b81816108be9190611ffc565b600660008773ffffffffffffffffffffffffffffffffffffffff1673ffffffffffffffffffffffffffffffffffffffff16815260200190815260200160002060000160006101000a8154816fffffffffffffffffffffffffffffffff02191690836fffffffffffffffffffffffffffffffff160217905550816fffffffffffffffffffffffffffffffff166002600082825461095a9190612030565b92505081905550600560009054906101000a900473ffffffffffffffffffffffffffffffffffffffff1673ffffffffffffffffffffffffffffffffffffffff1663a9059cbb85846fffffffffffffffffffffffffffffffff166040518363ffffffff1660e01b81526004016109d0929190611ca8565b602060405180830381600087803b1580156109ea57600080fd5b505af11580156109fe573d6000803e3d6000fd5b505050506040513d601f19601f82011682018060405250810190610a2291906118b6565b610a55577f4e487b7100000000000000000000000000000000000000000000000000000000600052600160045260246000fd5b5050505050565b600460009054906101000a90046fffffffffffffffffffffffffffffffff1681565b60035481565b600254600560009054906101000a900473ffffffffffffffffffffffffffffffffffffffff1673ffffffffffffffffffffffffffffffffffffffff166370a08231306040518263ffffffff1660e01b8152600401610ae29190611c8d565b60206040518083038186803b158015610afa57600080fd5b505afa158015610b0e573d6000803e3d6000fd5b505050506040513d601f19601f82011682018060405250810190610b329190611a37565b610b3c9190612030565b600381905550565b610b516000801b33610ca1565b610b90576040517f08c379a0000000000000000000000000000000000000000000000000000000008152600401610b8790611e82565b60405180910390fd5b806008600084815260200190815260200160002060006101000a81548173ffffffffffffffffffffffffffffffffffffffff021916908373ffffffffffffffffffffffffffffffffffffffff1602179055505050565b60086020528060005260406000206000915054906101000a900473ffffffffffffffffffffffffffffffffffffffff1681565b610c266000801b33610ca1565b610c65576040517f08c379a0000000000000000000000000000000000000000000000000000000008152600401610c5c90611e82565b60405180910390fd5b80600460006101000a8154816fffffffffffffffffffffffffffffffff02191690836fffffffffffffffffffffffffffffffff16021790555050565b600080600084815260200190815260200160002060000160008373ffffffffffffffffffffffffffffffffffffffff1673ffffffffffffffffffffffffffffffffffffffff16815260200190815260200160002060009054906101000a900460ff16905092915050565b60076020528060005260406000206000915090508060000160009054906101000a900460ff16908060010154908060020154908060030154905084565b6000801b81565b60008282905014610d95576040517f08c379a0000000000000000000000000000000000000000000000000000000008152600401610d8c90611e02565b60405180910390fd5b610d9d610a84565b50505050565b610db06000801b33610ca1565b610def576040517f08c379a0000000000000000000000000000000000000000000000000000000008152600401610de690611e82565b60405180910390fd5b806003541015610e34576040517f08c379a0000000000000000000000000000000000000000000000000000000008152600401610e2b90611e42565b60405180910390fd5b600560009054906101000a900473ffffffffffffffffffffffffffffffffffffffff1673ffffffffffffffffffffffffffffffffffffffff1663a9059cbb83836040518363ffffffff1660e01b8152600401610e91929190611ca8565b602060405180830381600087803b158015610eab57600080fd5b505af1158015610ebf573d6000803e3d6000fd5b505050506040513d601f19601f82011682018060405250810190610ee391906118b6565b610f22576040517f08c379a0000000000000000000000000000000000000000000000000000000008152600401610f1990611de2565b60405180910390fd5b610f2a610a84565b5050565b610f587f68e79a7bf1e0bc45d0a330c573bc367f9cf464fd326078812f301165fbda4ef133610ca1565b610f97576040517f08c379a0000000000000000000000000000000000000000000000000000000008152600401610f8e90611ea2565b60405180910390fd5b60008282604051602001610fac929190611c61565b60405160208183030381529060405280519060200120905060006007600083815260200190815260200160002090508060040160003373ffffffffffffffffffffffffffffffffffffffff1673ffffffffffffffffffffffffffffffffffffffff16815260200190815260200160002060009054906101000a900460ff161561106a576040517f08c379a000000000000000000000000000000000000000000000000000000000815260040161106190611dc2565b60405180910390fd5b60008160010154141561108a578381600301819055508281600201819055505b600181600101600082825461109f9190611fa6565b9250508190555060018160040160003373ffffffffffffffffffffffffffffffffffffffff1673ffffffffffffffffffffffffffffffffffffffff16815260200190815260200160002060006101000a81548160ff021916908315150217905550600154816001015414156111ca576008600084815260200190815260200160002060009054906101000a900473ffffffffffffffffffffffffffffffffffffffff1673ffffffffffffffffffffffffffffffffffffffff1663b83e06b4856040518263ffffffff1660e01b815260040161117a9190611d31565b600060405180830381600087803b15801561119457600080fd5b505af11580156111a8573d6000803e3d6000fd5b5050505060018160000160006101000a81548160ff0219169083151502179055505b6111d33361154e565b50505050565b6111e66000801b33610ca1565b611225576040517f08c379a000000000000000000000000000000000000000000000000000000000815260040161121c90611e82565b60405180910390fd5b8060018190555050565b60025481565b61124e61124183610585565b611249611385565b610ca1565b61128d576040517f08c379a000000000000000000000000000000000000000000000000000000000815260040161128490611e22565b60405180910390fd5b611297828261146d565b5050565b6000600660008373ffffffffffffffffffffffffffffffffffffffff1673ffffffffffffffffffffffffffffffffffffffff16815260200190815260200160002060000160009054906101000a90046fffffffffffffffffffffffffffffffff166fffffffffffffffffffffffffffffffff169050919050565b60015481565b60007f01ffc9a7000000000000000000000000000000000000000000000000000000007bffffffffffffffffffffffffffffffffffffffffffffffffffffffff1916827bffffffffffffffffffffffffffffffffffffffffffffffffffffffff1916149050919050565b600033905090565b6113978282610ca1565b61146957600160008084815260200190815260200160002060000160008373ffffffffffffffffffffffffffffffffffffffff1673ffffffffffffffffffffffffffffffffffffffff16815260200190815260200160002060006101000a81548160ff02191690831515021790555061140e611385565b73ffffffffffffffffffffffffffffffffffffffff168173ffffffffffffffffffffffffffffffffffffffff16837f2f8788117e7eff1d82e926ec794901d17c78024a50270940304540a733656f0d60405160405180910390a45b5050565b6114778282610ca1565b1561154a57600080600084815260200190815260200160002060000160008373ffffffffffffffffffffffffffffffffffffffff1673ffffffffffffffffffffffffffffffffffffffff16815260200190815260200160002060006101000a81548160ff0219169083151502179055506114ef611385565b73ffffffffffffffffffffffffffffffffffffffff168173ffffffffffffffffffffffffffffffffffffffff16837ff6391f5c32d9c69d2a47ea670b442974b53935d1edc7fd64eb21e047a839171b60405160405180910390a45b5050565b600460009054906101000a90046fffffffffffffffffffffffffffffffff166fffffffffffffffffffffffffffffffff16600360008282546115909190612030565b92505081905550600460009054906101000a90046fffffffffffffffffffffffffffffffff166fffffffffffffffffffffffffffffffff16600260008282546115d99190611fa6565b92505081905550600460009054906101000a90046fffffffffffffffffffffffffffffffff16600660008373ffffffffffffffffffffffffffffffffffffffff1673ffffffffffffffffffffffffffffffffffffffff16815260200190815260200160002060000160008282829054906101000a90046fffffffffffffffffffffffffffffffff1661166b9190611f60565b92506101000a8154816fffffffffffffffffffffffffffffffff02191690836fffffffffffffffffffffffffffffffff16021790555050565b6000813590506116b3816123c6565b92915050565b6000815190506116c8816123dd565b92915050565b6000813590506116dd816123f4565b92915050565b6000813590506116f28161240b565b92915050565b60008083601f84011261170a57600080fd5b8235905067ffffffffffffffff81111561172357600080fd5b60208301915083600182028301111561173b57600080fd5b9250929050565b60008135905061175181612422565b92915050565b60008135905061176681612439565b92915050565b60008135905061177b81612450565b92915050565b60008151905061179081612450565b92915050565b6000602082840312156117a857600080fd5b60006117b6848285016116a4565b91505092915050565b6000806000606084860312156117d457600080fd5b60006117e2868287016116a4565b93505060206117f3868287016116a4565b92505060406118048682870161176c565b9150509250925092565b6000806040838503121561182157600080fd5b600061182f858286016116a4565b92505060206118408582860161176c565b9150509250929050565b6000806000806060858703121561186057600080fd5b600061186e878288016116a4565b945050602061187f8782880161176c565b935050604085013567ffffffffffffffff81111561189c57600080fd5b6118a8878288016116f8565b925092505092959194509250565b6000602082840312156118c857600080fd5b60006118d6848285016116b9565b91505092915050565b6000602082840312156118f157600080fd5b60006118ff848285016116ce565b91505092915050565b6000806040838503121561191b57600080fd5b6000611929858286016116ce565b925050602061193a858286016116a4565b9150509250929050565b6000806040838503121561195757600080fd5b6000611965858286016116ce565b9250506020611976858286016116ce565b9150509250929050565b6000806040838503121561199357600080fd5b60006119a1858286016116ce565b92505060206119b285828601611742565b9150509250929050565b6000602082840312156119ce57600080fd5b60006119dc848285016116e3565b91505092915050565b6000602082840312156119f757600080fd5b6000611a0584828501611757565b91505092915050565b600060208284031215611a2057600080fd5b6000611a2e8482850161176c565b91505092915050565b600060208284031215611a4957600080fd5b6000611a5784828501611781565b91505092915050565b611a6981612064565b82525050565b611a7881612076565b82525050565b611a8781612082565b82525050565b611a9e611a9982612082565b612158565b82525050565b611aad81612110565b82525050565b611abc81612134565b82525050565b6000611acf602f83611f4f565b9150611ada82612191565b604082019050919050565b6000611af2601f83611f4f565b9150611afd826121e0565b602082019050919050565b6000611b15601983611f4f565b9150611b2082612209565b602082019050919050565b6000611b38601e83611f4f565b9150611b4382612232565b602082019050919050565b6000611b5b602083611f4f565b9150611b668261225b565b602082019050919050565b6000611b7e603083611f4f565b9150611b8982612284565b604082019050919050565b6000611ba1601a83611f4f565b9150611bac826122d3565b602082019050919050565b6000611bc4601683611f4f565b9150611bcf826122fc565b602082019050919050565b6000611be7601383611f4f565b9150611bf282612325565b602082019050919050565b6000611c0a601483611f4f565b9150611c158261234e565b602082019050919050565b6000611c2d602f83611f4f565b9150611c3882612377565b604082019050919050565b611c4c816120ca565b82525050565b611c5b81612106565b82525050565b6000611c6d8285611a8d565b602082019150611c7d8284611a8d565b6020820191508190509392505050565b6000602082019050611ca26000830184611a60565b92915050565b6000604082019050611cbd6000830185611a60565b611cca6020830184611c52565b9392505050565b6000602082019050611ce66000830184611a6f565b92915050565b6000608082019050611d016000830187611a6f565b611d0e6020830186611c52565b611d1b6040830185611a7e565b611d286060830184611a7e565b95945050505050565b6000602082019050611d466000830184611a7e565b92915050565b6000602082019050611d616000830184611aa4565b92915050565b6000602082019050611d7c6000830184611ab3565b92915050565b60006020820190508181036000830152611d9b81611ac2565b9050919050565b60006020820190508181036000830152611dbb81611ae5565b9050919050565b60006020820190508181036000830152611ddb81611b08565b9050919050565b60006020820190508181036000830152611dfb81611b2b565b9050919050565b60006020820190508181036000830152611e1b81611b4e565b9050919050565b60006020820190508181036000830152611e3b81611b71565b9050919050565b60006020820190508181036000830152611e5b81611b94565b9050919050565b60006020820190508181036000830152611e7b81611bb7565b9050919050565b60006020820190508181036000830152611e9b81611bda565b9050919050565b60006020820190508181036000830152611ebb81611bfd565b9050919050565b60006020820190508181036000830152611edb81611c20565b9050919050565b6000602082019050611ef76000830184611c43565b92915050565b6000606082019050611f126000830186611c43565b611f1f6020830185611a60565b611f2c6040830184611a60565b949350505050565b6000602082019050611f496000830184611c52565b92915050565b600082825260208201905092915050565b6000611f6b826120ca565b9150611f76836120ca565b9250826fffffffffffffffffffffffffffffffff03821115611f9b57611f9a612162565b5b828201905092915050565b6000611fb182612106565b9150611fbc83612106565b9250827fffffffffffffffffffffffffffffffffffffffffffffffffffffffffffffffff03821115611ff157611ff0612162565b5b828201905092915050565b6000612007826120ca565b9150612012836120ca565b92508282101561202557612024612162565b5b828203905092915050565b600061203b82612106565b915061204683612106565b92508282101561205957612058612162565b5b828203905092915050565b600061206f826120e6565b9050919050565b60008115159050919050565b6000819050919050565b60007fffffffff0000000000000000000000000000000000000000000000000000000082169050919050565b60006120c382612064565b9050919050565b60006fffffffffffffffffffffffffffffffff82169050919050565b600073ffffffffffffffffffffffffffffffffffffffff82169050919050565b6000819050919050565b600061211b82612122565b9050919050565b600061212d826120e6565b9050919050565b600061213f82612146565b9050919050565b6000612151826120e6565b9050919050565b6000819050919050565b7f4e487b7100000000000000000000000000000000000000000000000000000000600052601160045260246000fd5b7f416363657373436f6e74726f6c3a2073656e646572206d75737420626520616e60008201527f2061646d696e20746f206772616e740000000000000000000000000000000000602082015250565b7f696e73756666696369656e7420776974686472617761626c652066756e647300600082015250565b7f7375626d69743a207375626d697474656420616c726561647900000000000000600082015250565b7f776974686472617746756e64733a207472616e73666572206661696c65640000600082015250565b7f7472616e7366657220646f65736e2774206163636570742063616c6c64617461600082015250565b7f416363657373436f6e74726f6c3a2073656e646572206d75737420626520616e60008201527f2061646d696e20746f207265766f6b6500000000000000000000000000000000602082015250565b7f696e73756666696369656e7420726573657276652066756e6473000000000000600082015250565b7f6f6e6c792063616c6c61626c652062792061646d696e00000000000000000000600082015250565b7f6f6e6c7941646d696e3a2062616420726f6c6500000000000000000000000000600082015250565b7f6f6e6c794f7261636c653a2062616420726f6c65000000000000000000000000600082015250565b7f416363657373436f6e74726f6c3a2063616e206f6e6c792072656e6f756e636560008201527f20726f6c657320666f722073656c660000000000000000000000000000000000602082015250565b6123cf81612064565b81146123da57600080fd5b50565b6123e681612076565b81146123f157600080fd5b50565b6123fd81612082565b811461240857600080fd5b50565b6124148161208c565b811461241f57600080fd5b50565b61242b816120b8565b811461243657600080fd5b50565b612442816120ca565b811461244d57600080fd5b50565b61245981612106565b811461246457600080fd5b5056fea26469706673582212207002b444696c2eac0906b89c967cacd47698d952169a4a0866d889d2746a47d764736f6c63430008020033",
  "immutableReferences": {},
  "source": "// SPDX-License-Identifier: MIT\npragma solidity ^0.8.2;\n\nimport \"@openzeppelin/contracts/access/AccessControl.sol\";\nimport \"@openzeppelin/contracts/token/ERC20/IERC20.sol\";\nimport \"../interfaces/IDarkDebridge.sol\";\nimport \"./Aggregator.sol\";\n\ncontract CommitmentAggregator is Aggregator {\n    struct CommitmentInfo {\n        bool broadcasted;\n        uint256 confirmations;\n        bytes32 debridgeId; // hash(chainId, tokenAddress, amount)\n        bytes32 commitment;\n        mapping(address => bool) hasVerified;\n    }\n\n    mapping(bytes32 => CommitmentInfo) public getCommitmentInfo;\n    mapping(bytes32 => IDarkDebridge) public getDebridge;\n\n    event Confirmed(bytes32 commitment, bytes32 debridgeId, address operator);\n    event Broadcasted(bytes32 debridgeId, bytes32 commitment);\n\n    constructor(\n        uint256 _minConfirmations,\n        uint128 _payment,\n        IERC20 _link\n    ) Aggregator(_minConfirmations, _payment, _link) {}\n\n    function submit(bytes32 _commitment, bytes32 _debridgeId)\n        external\n        onlyOracle\n    {\n        bytes32 depositId =\n            keccak256(abi.encodePacked(_commitment, _debridgeId));\n        CommitmentInfo storage commitmentInfo = getCommitmentInfo[depositId];\n        require(\n            !commitmentInfo.hasVerified[msg.sender],\n            \"submit: submitted already\"\n        );\n        if (commitmentInfo.confirmations == 0) {\n            commitmentInfo.commitment = _commitment;\n            commitmentInfo.debridgeId = _debridgeId;\n        }\n        commitmentInfo.confirmations += 1;\n        commitmentInfo.hasVerified[msg.sender] = true;\n        if (commitmentInfo.confirmations == minConfirmations) {\n            getDebridge[_debridgeId].externalDeposit(_commitment);\n            commitmentInfo.broadcasted = true;\n        }\n        _payOracle(msg.sender);\n    }\n\n    function setDebridge(bytes32 _debridgeId, IDarkDebridge _debridge)\n        external\n        onlyAdmin\n    {\n        getDebridge[_debridgeId] = _debridge;\n    }\n}\n",
  "sourcePath": "/Users/kstasi/Documents/work/debridge-contracts/contracts/chainlink/CommitmentAggregator.sol",
  "compiler": {
    "name": "solc",
    "version": "0.8.2+commit.661d1103.Emscripten.clang"
  },
  "schemaVersion": "3.3.4",
  "updatedAt": "2021-03-16T21:18:10.040Z",
  "devdoc": {
    "kind": "dev",
    "methods": {
      "getRoleAdmin(bytes32)": {
        "details": "Returns the admin role that controls `role`. See {grantRole} and {revokeRole}. To change a role's admin, use {_setRoleAdmin}."
      },
      "grantRole(bytes32,address)": {
        "details": "Grants `role` to `account`. If `account` had not been already granted `role`, emits a {RoleGranted} event. Requirements: - the caller must have ``role``'s admin role."
      },
      "hasRole(bytes32,address)": {
        "details": "Returns `true` if `account` has been granted `role`."
      },
      "renounceRole(bytes32,address)": {
        "details": "Revokes `role` from the calling account. Roles are often managed via {grantRole} and {revokeRole}: this function's purpose is to provide a mechanism for accounts to lose their privileges if they are compromised (such as when a trusted device is misplaced). If the calling account had been granted `role`, emits a {RoleRevoked} event. Requirements: - the caller must be `account`."
      },
      "revokeRole(bytes32,address)": {
        "details": "Revokes `role` from `account`. If `account` had been granted `role`, emits a {RoleRevoked} event. Requirements: - the caller must have ``role``'s admin role."
      },
      "supportsInterface(bytes4)": {
        "details": "See {IERC165-supportsInterface}."
      }
    },
    "version": 1
  },
  "userdoc": {
    "kind": "user",
    "methods": {},
    "version": 1
  }
}