{
  "contractName": "CommitmentAggregator",
  "abi": [
    {
      "inputs": [
        {
          "internalType": "uint256",
          "name": "_minConfirmations",
          "type": "uint256"
        },
        {
          "internalType": "uint128",
          "name": "_payment",
          "type": "uint128"
        },
        {
          "internalType": "contract IERC20",
          "name": "_link",
          "type": "address"
        }
      ],
      "stateMutability": "nonpayable",
      "type": "constructor"
    },
    {
      "anonymous": false,
      "inputs": [
        {
          "indexed": false,
          "internalType": "bytes32",
          "name": "debridgeId",
          "type": "bytes32"
        },
        {
          "indexed": false,
          "internalType": "bytes32",
          "name": "commitment",
          "type": "bytes32"
        }
      ],
      "name": "Broadcasted",
      "type": "event"
    },
    {
      "anonymous": false,
      "inputs": [
        {
          "indexed": false,
          "internalType": "bytes32",
          "name": "commitment",
          "type": "bytes32"
        },
        {
          "indexed": false,
          "internalType": "bytes32",
          "name": "debridgeId",
          "type": "bytes32"
        },
        {
          "indexed": false,
          "internalType": "address",
          "name": "operator",
          "type": "address"
        }
      ],
      "name": "Confirmed",
      "type": "event"
    },
    {
      "anonymous": false,
      "inputs": [
        {
          "indexed": true,
          "internalType": "bytes32",
          "name": "role",
          "type": "bytes32"
        },
        {
          "indexed": true,
          "internalType": "bytes32",
          "name": "previousAdminRole",
          "type": "bytes32"
        },
        {
          "indexed": true,
          "internalType": "bytes32",
          "name": "newAdminRole",
          "type": "bytes32"
        }
      ],
      "name": "RoleAdminChanged",
      "type": "event"
    },
    {
      "anonymous": false,
      "inputs": [
        {
          "indexed": true,
          "internalType": "bytes32",
          "name": "role",
          "type": "bytes32"
        },
        {
          "indexed": true,
          "internalType": "address",
          "name": "account",
          "type": "address"
        },
        {
          "indexed": true,
          "internalType": "address",
          "name": "sender",
          "type": "address"
        }
      ],
      "name": "RoleGranted",
      "type": "event"
    },
    {
      "anonymous": false,
      "inputs": [
        {
          "indexed": true,
          "internalType": "bytes32",
          "name": "role",
          "type": "bytes32"
        },
        {
          "indexed": true,
          "internalType": "address",
          "name": "account",
          "type": "address"
        },
        {
          "indexed": true,
          "internalType": "address",
          "name": "sender",
          "type": "address"
        }
      ],
      "name": "RoleRevoked",
      "type": "event"
    },
    {
      "inputs": [],
      "name": "DEFAULT_ADMIN_ROLE",
      "outputs": [
        {
          "internalType": "bytes32",
          "name": "",
          "type": "bytes32"
        }
      ],
      "stateMutability": "view",
      "type": "function"
    },
    {
      "inputs": [],
      "name": "ORACLE_ROLE",
      "outputs": [
        {
          "internalType": "bytes32",
          "name": "",
          "type": "bytes32"
        }
      ],
      "stateMutability": "view",
      "type": "function"
    },
    {
      "inputs": [
        {
          "internalType": "address",
          "name": "_oracle",
          "type": "address"
        },
        {
          "internalType": "address",
          "name": "_admin",
          "type": "address"
        }
      ],
      "name": "addOracle",
      "outputs": [],
      "stateMutability": "nonpayable",
      "type": "function"
    },
    {
      "inputs": [],
      "name": "allocatedFunds",
      "outputs": [
        {
          "internalType": "uint256",
          "name": "",
          "type": "uint256"
        }
      ],
      "stateMutability": "view",
      "type": "function"
    },
    {
      "inputs": [],
      "name": "availableFunds",
      "outputs": [
        {
          "internalType": "uint256",
          "name": "",
          "type": "uint256"
        }
      ],
      "stateMutability": "view",
      "type": "function"
    },
    {
      "inputs": [
        {
          "internalType": "bytes32",
          "name": "",
          "type": "bytes32"
        }
      ],
      "name": "getCommitmentInfo",
      "outputs": [
        {
          "internalType": "bool",
          "name": "broadcasted",
          "type": "bool"
        },
        {
          "internalType": "uint256",
          "name": "confirmations",
          "type": "uint256"
        },
        {
          "internalType": "bytes32",
          "name": "debridgeId",
          "type": "bytes32"
        },
        {
          "internalType": "bytes32",
          "name": "commitment",
          "type": "bytes32"
        }
      ],
      "stateMutability": "view",
      "type": "function"
    },
    {
      "inputs": [
        {
          "internalType": "bytes32",
          "name": "",
          "type": "bytes32"
        }
      ],
      "name": "getDebridge",
      "outputs": [
        {
          "internalType": "contract IDarkDebridge",
          "name": "",
          "type": "address"
        }
      ],
      "stateMutability": "view",
      "type": "function"
    },
    {
      "inputs": [
        {
          "internalType": "address",
          "name": "",
          "type": "address"
        }
      ],
      "name": "getOracleInfo",
      "outputs": [
        {
          "internalType": "uint256",
          "name": "withdrawable",
          "type": "uint256"
        },
        {
          "internalType": "address",
          "name": "admin",
          "type": "address"
        }
      ],
      "stateMutability": "view",
      "type": "function"
    },
    {
      "inputs": [
        {
          "internalType": "bytes32",
          "name": "role",
          "type": "bytes32"
        }
      ],
      "name": "getRoleAdmin",
      "outputs": [
        {
          "internalType": "bytes32",
          "name": "",
          "type": "bytes32"
        }
      ],
      "stateMutability": "view",
      "type": "function"
    },
    {
      "inputs": [
        {
          "internalType": "bytes32",
          "name": "role",
          "type": "bytes32"
        },
        {
          "internalType": "address",
          "name": "account",
          "type": "address"
        }
      ],
      "name": "grantRole",
      "outputs": [],
      "stateMutability": "nonpayable",
      "type": "function"
    },
    {
      "inputs": [
        {
          "internalType": "bytes32",
          "name": "role",
          "type": "bytes32"
        },
        {
          "internalType": "address",
          "name": "account",
          "type": "address"
        }
      ],
      "name": "hasRole",
      "outputs": [
        {
          "internalType": "bool",
          "name": "",
          "type": "bool"
        }
      ],
      "stateMutability": "view",
      "type": "function"
    },
    {
      "inputs": [],
      "name": "link",
      "outputs": [
        {
          "internalType": "contract IERC20",
          "name": "",
          "type": "address"
        }
      ],
      "stateMutability": "view",
      "type": "function"
    },
    {
      "inputs": [],
      "name": "minConfirmations",
      "outputs": [
        {
          "internalType": "uint256",
          "name": "",
          "type": "uint256"
        }
      ],
      "stateMutability": "view",
      "type": "function"
    },
    {
      "inputs": [
        {
          "internalType": "address",
          "name": "",
          "type": "address"
        },
        {
          "internalType": "uint256",
          "name": "",
          "type": "uint256"
        },
        {
          "internalType": "bytes",
          "name": "_data",
          "type": "bytes"
        }
      ],
      "name": "onTokenTransfer",
      "outputs": [],
      "stateMutability": "nonpayable",
      "type": "function"
    },
    {
      "inputs": [],
      "name": "payment",
      "outputs": [
        {
          "internalType": "uint256",
          "name": "",
          "type": "uint256"
        }
      ],
      "stateMutability": "view",
      "type": "function"
    },
    {
      "inputs": [
        {
          "internalType": "address",
          "name": "_oracle",
          "type": "address"
        }
      ],
      "name": "removeOracle",
      "outputs": [],
      "stateMutability": "nonpayable",
      "type": "function"
    },
    {
      "inputs": [
        {
          "internalType": "bytes32",
          "name": "role",
          "type": "bytes32"
        },
        {
          "internalType": "address",
          "name": "account",
          "type": "address"
        }
      ],
      "name": "renounceRole",
      "outputs": [],
      "stateMutability": "nonpayable",
      "type": "function"
    },
    {
      "inputs": [
        {
          "internalType": "bytes32",
          "name": "role",
          "type": "bytes32"
        },
        {
          "internalType": "address",
          "name": "account",
          "type": "address"
        }
      ],
      "name": "revokeRole",
      "outputs": [],
      "stateMutability": "nonpayable",
      "type": "function"
    },
    {
      "inputs": [
        {
          "internalType": "uint256",
          "name": "_minConfirmations",
          "type": "uint256"
        }
      ],
      "name": "setMinConfirmations",
      "outputs": [],
      "stateMutability": "nonpayable",
      "type": "function"
    },
    {
      "inputs": [
        {
          "internalType": "uint128",
          "name": "_payment",
          "type": "uint128"
        }
      ],
      "name": "setPayment",
      "outputs": [],
      "stateMutability": "nonpayable",
      "type": "function"
    },
    {
      "inputs": [
        {
          "internalType": "bytes4",
          "name": "interfaceId",
          "type": "bytes4"
        }
      ],
      "name": "supportsInterface",
      "outputs": [
        {
          "internalType": "bool",
          "name": "",
          "type": "bool"
        }
      ],
      "stateMutability": "view",
      "type": "function"
    },
    {
      "inputs": [],
      "name": "updateAvailableFunds",
      "outputs": [],
      "stateMutability": "nonpayable",
      "type": "function"
    },
    {
      "inputs": [
        {
          "internalType": "address",
          "name": "_recipient",
          "type": "address"
        },
        {
          "internalType": "uint256",
          "name": "_amount",
          "type": "uint256"
        }
      ],
      "name": "withdrawFunds",
      "outputs": [],
      "stateMutability": "nonpayable",
      "type": "function"
    },
    {
      "inputs": [
        {
          "internalType": "address",
          "name": "_oracle",
          "type": "address"
        },
        {
          "internalType": "address",
          "name": "_recipient",
          "type": "address"
        },
        {
          "internalType": "uint256",
          "name": "_amount",
          "type": "uint256"
        }
      ],
      "name": "withdrawPayment",
      "outputs": [],
      "stateMutability": "nonpayable",
      "type": "function"
    },
    {
      "inputs": [
        {
          "internalType": "address",
          "name": "_oracle",
          "type": "address"
        }
      ],
      "name": "withdrawablePayment",
      "outputs": [
        {
          "internalType": "uint256",
          "name": "",
          "type": "uint256"
        }
      ],
      "stateMutability": "view",
      "type": "function"
    },
    {
      "inputs": [
        {
          "internalType": "bytes32",
          "name": "_commitment",
          "type": "bytes32"
        },
        {
          "internalType": "bytes32",
          "name": "_debridgeId",
          "type": "bytes32"
        }
      ],
      "name": "submit",
      "outputs": [],
      "stateMutability": "nonpayable",
      "type": "function"
    },
    {
      "inputs": [
        {
          "internalType": "bytes32",
          "name": "_debridgeId",
          "type": "bytes32"
        },
        {
          "internalType": "contract IDarkDebridge",
          "name": "_debridge",
          "type": "address"
        }
      ],
      "name": "setDebridge",
      "outputs": [],
      "stateMutability": "nonpayable",
      "type": "function"
    }
  ],
  "bytecode": "0x60806040523480156200001157600080fd5b506040516200175f3803806200175f833981016040819052620000349162000159565b60018390556001600160801b038216600455600580546001600160a01b0319166001600160a01b03831617905582828262000071600033620000a9565b6200009d7f68e79a7bf1e0bc45d0a330c573bc367f9cf464fd326078812f301165fbda4ef133620000a9565b505050505050620001b5565b620000b58282620000b9565b5050565b6000828152602081815260408083206001600160a01b038516845290915290205460ff16620000b5576000828152602081815260408083206001600160a01b03851684529091529020805460ff19166001179055620001153390565b6001600160a01b0316816001600160a01b0316837f2f8788117e7eff1d82e926ec794901d17c78024a50270940304540a733656f0d60405160405180910390a45050565b6000806000606084860312156200016e578283fd5b835160208501519093506001600160801b03811681146200018d578283fd5b60408501519092506001600160a01b0381168114620001aa578182fd5b809150509250925092565b61159a80620001c56000396000f3fe608060405234801561001057600080fd5b50600436106101b95760003560e01c806391d14854116100f9578063d282165511610097578063e2e4031711610071578063e2e403171461045c578063e7c4393e14610485578063f0ca4adb1461048e578063fdc85fc4146104a1576101b9565b8063d28216551461042d578063d4cc54e414610440578063d547741f14610449576101b9565b8063a4c0ed36116100d3578063a4c0ed36146103a7578063bfdb6b04146103ba578063c107532914610407578063d26ff86e1461041a576101b9565b806391d148541461030d578063a08bd43714610344578063a217fddf1461039f576101b9565b80633d3d7714116101665780634f8fc3b5116101405780634f8fc3b5146102b657806351be6ad7146102be57806357cf07ca146102d157806382313e50146102fa576101b9565b80633d3d77141461029157806342f6487a146102a457806346fcff4c146102ad576101b9565b8063248a9ca311610197578063248a9ca3146102465780632f2ff15d1461026957806336568abe1461027e576101b9565b806301ffc9a7146101be57806307e2cea5146101e65780631c4695f41461021b575b600080fd5b6101d16101cc366004611482565b6104b4565b60405190151581526020015b60405180910390f35b61020d7f68e79a7bf1e0bc45d0a330c573bc367f9cf464fd326078812f301165fbda4ef181565b6040519081526020016101dd565b60055461022e906001600160a01b031681565b6040516001600160a01b0390911681526020016101dd565b61020d610254366004611425565b60009081526020819052604090206001015490565b61027c61027736600461143d565b61054d565b005b61027c61028c36600461143d565b6105ef565b61027c61029f366004611316565b610677565b61020d60045481565b61020d60035481565b61027c61087b565b61027c6102cc36600461143d565b610921565b61022e6102df366004611425565b6008602052600090815260409020546001600160a01b031681565b61027c6103083660046114c2565b6109d0565b6101d161031b36600461143d565b6000918252602082815260408084206001600160a01b0393909316845291905290205460ff1690565b61037d610352366004611425565b600760205260009081526040902080546001820154600283015460039093015460ff90921692909184565b60408051941515855260208501939093529183015260608201526080016101dd565b61020d600081565b61027c6103b5366004611381565b610a5b565b6103ea6103c83660046112bb565b600660205260009081526040902080546001909101546001600160a01b031682565b604080519283526001600160a01b039091166020830152016101dd565b61027c610415366004611356565b610b0b565b61027c610428366004611461565b610cab565b61027c61043b366004611425565b610eb5565b61020d60025481565b61027c61045736600461143d565b610f2e565b61020d61046a3660046112bb565b6001600160a01b031660009081526006602052604090205490565b61020d60015481565b61027c61049c3660046112de565b610fbb565b61027c6104af3660046112bb565b611097565b60007fffffffff0000000000000000000000000000000000000000000000000000000082167f7965db0b00000000000000000000000000000000000000000000000000000000148061054757507f01ffc9a7000000000000000000000000000000000000000000000000000000007fffffffff000000000000000000000000000000000000000000000000000000008316145b92915050565b60008281526020819052604090206001015461056a905b3361031b565b6105e15760405162461bcd60e51b815260206004820152602f60248201527f416363657373436f6e74726f6c3a2073656e646572206d75737420626520616e60448201527f2061646d696e20746f206772616e74000000000000000000000000000000000060648201526084015b60405180910390fd5b6105eb8282611138565b5050565b6001600160a01b038116331461066d5760405162461bcd60e51b815260206004820152602f60248201527f416363657373436f6e74726f6c3a2063616e206f6e6c792072656e6f756e636560448201527f20726f6c657320666f722073656c66000000000000000000000000000000000060648201526084016105d8565b6105eb82826111d6565b6001600160a01b038381166000908152600660205260409020600101541633146107095760405162461bcd60e51b815260206004820152602760248201527f77697468647261775061796d656e743a206f6e6c792063616c6c61626c65206260448201527f792061646d696e0000000000000000000000000000000000000000000000000060648201526084016105d8565b6001600160a01b038316600090815260066020526040902054818110156107985760405162461bcd60e51b815260206004820152603060248201527f77697468647261775061796d656e743a20696e73756666696369656e7420776960448201527f74686472617761626c652066756e64730000000000000000000000000000000060648201526084016105d8565b6107a28282611522565b6001600160a01b038516600090815260066020526040812091909155600280548492906107d0908490611522565b909155505060055460405163a9059cbb60e01b81526001600160a01b038581166004830152602482018590529091169063a9059cbb90604401602060405180830381600087803b15801561082357600080fd5b505af1158015610837573d6000803e3d6000fd5b505050506040513d601f19601f8201168201806040525081019061085b9190611405565b61087557634e487b7160e01b600052600160045260246000fd5b50505050565b6002546005546040517f70a082310000000000000000000000000000000000000000000000000000000081523060048201526001600160a01b03909116906370a082319060240160206040518083038186803b1580156108da57600080fd5b505afa1580156108ee573d6000803e3d6000fd5b505050506040513d601f19601f8201168201806040525081019061091291906114f2565b61091c9190611522565b600355565b3360009081527fad3228b676f7d3cd4284a5443f17f1962b36e491b30a40b2405849e597ba5fb5602052604090205460ff166109955760405162461bcd60e51b81526020600482015260136024820152726f6e6c7941646d696e3a2062616420726f6c6560681b60448201526064016105d8565b600091825260086020526040909120805473ffffffffffffffffffffffffffffffffffffffff19166001600160a01b03909216919091179055565b3360009081527fad3228b676f7d3cd4284a5443f17f1962b36e491b30a40b2405849e597ba5fb5602052604090205460ff16610a445760405162461bcd60e51b81526020600482015260136024820152726f6e6c7941646d696e3a2062616420726f6c6560681b60448201526064016105d8565b6fffffffffffffffffffffffffffffffff16600455565b6005546001600160a01b03163314610ab55760405162461bcd60e51b815260206004820152601d60248201527f6f6e546f6b656e5472616e736665723a206e6f7420746865204c696e6b00000060448201526064016105d8565b8015610b035760405162461bcd60e51b815260206004820181905260248201527f7472616e7366657220646f65736e2774206163636570742063616c6c6461746160448201526064016105d8565b61087561087b565b3360009081527fad3228b676f7d3cd4284a5443f17f1962b36e491b30a40b2405849e597ba5fb5602052604090205460ff16610b7f5760405162461bcd60e51b81526020600482015260136024820152726f6e6c7941646d696e3a2062616420726f6c6560681b60448201526064016105d8565b806003541015610bd15760405162461bcd60e51b815260206004820152601a60248201527f696e73756666696369656e7420726573657276652066756e647300000000000060448201526064016105d8565b60055460405163a9059cbb60e01b81526001600160a01b038481166004830152602482018490529091169063a9059cbb90604401602060405180830381600087803b158015610c1f57600080fd5b505af1158015610c33573d6000803e3d6000fd5b505050506040513d601f19601f82011682018060405250810190610c579190611405565b610ca35760405162461bcd60e51b815260206004820152601e60248201527f776974686472617746756e64733a207472616e73666572206661696c6564000060448201526064016105d8565b6105eb61087b565b3360009081527fa629f6981c2f6895a67dc766e8e03ff72d04a413d0d8773a3ca56e9e474032c1602052604090205460ff16610d295760405162461bcd60e51b815260206004820152601460248201527f6f6e6c794f7261636c653a2062616420726f6c6500000000000000000000000060448201526064016105d8565b6040805160208082018590528183018490528251808303840181526060909201835281519181019190912060008181526007835283812033825260048101909352929092205460ff1615610dbf5760405162461bcd60e51b815260206004820152601960248201527f7375626d69743a207375626d697474656420616c72656164790000000000000060448201526064016105d8565b6001810154610dd75760038101849055600281018390555b6001816001016000828254610dec919061150a565b90915550503360009081526004820160205260409020805460ff191660019081179091558054908201541415610eac57600083815260086020526040908190205490517fb83e06b4000000000000000000000000000000000000000000000000000000008152600481018690526001600160a01b039091169063b83e06b490602401600060405180830381600087803b158015610e8857600080fd5b505af1158015610e9c573d6000803e3d6000fd5b5050825460ff1916600117835550505b61087533611255565b3360009081527fad3228b676f7d3cd4284a5443f17f1962b36e491b30a40b2405849e597ba5fb5602052604090205460ff16610f295760405162461bcd60e51b81526020600482015260136024820152726f6e6c7941646d696e3a2062616420726f6c6560681b60448201526064016105d8565b600155565b600082815260208190526040902060010154610f4990610564565b61066d5760405162461bcd60e51b815260206004820152603060248201527f416363657373436f6e74726f6c3a2073656e646572206d75737420626520616e60448201527f2061646d696e20746f207265766f6b650000000000000000000000000000000060648201526084016105d8565b3360009081527fad3228b676f7d3cd4284a5443f17f1962b36e491b30a40b2405849e597ba5fb5602052604090205460ff1661102f5760405162461bcd60e51b81526020600482015260136024820152726f6e6c7941646d696e3a2062616420726f6c6560681b60448201526064016105d8565b6110597f68e79a7bf1e0bc45d0a330c573bc367f9cf464fd326078812f301165fbda4ef18361054d565b6001600160a01b039182166000908152600660205260409020600101805473ffffffffffffffffffffffffffffffffffffffff191691909216179055565b3360009081527fad3228b676f7d3cd4284a5443f17f1962b36e491b30a40b2405849e597ba5fb5602052604090205460ff1661110b5760405162461bcd60e51b81526020600482015260136024820152726f6e6c7941646d696e3a2062616420726f6c6560681b60448201526064016105d8565b6111357f68e79a7bf1e0bc45d0a330c573bc367f9cf464fd326078812f301165fbda4ef182610f2e565b50565b6000828152602081815260408083206001600160a01b038516845290915290205460ff166105eb576000828152602081815260408083206001600160a01b03851684529091529020805460ff191660011790556111923390565b6001600160a01b0316816001600160a01b0316837f2f8788117e7eff1d82e926ec794901d17c78024a50270940304540a733656f0d60405160405180910390a45050565b6000828152602081815260408083206001600160a01b038516845290915290205460ff16156105eb576000828152602081815260408083206001600160a01b0385168085529252808320805460ff1916905551339285917ff6391f5c32d9c69d2a47ea670b442974b53935d1edc7fd64eb21e047a839171b9190a45050565b600454600360008282546112699190611522565b90915550506004546002805460009061128390849061150a565b90915550506004546001600160a01b038216600090815260066020526040812080549091906112b390849061150a565b909155505050565b6000602082840312156112cc578081fd5b81356112d78161154f565b9392505050565b600080604083850312156112f0578081fd5b82356112fb8161154f565b9150602083013561130b8161154f565b809150509250929050565b60008060006060848603121561132a578081fd5b83356113358161154f565b925060208401356113458161154f565b929592945050506040919091013590565b60008060408385031215611368578182fd5b82356113738161154f565b946020939093013593505050565b60008060008060608587031215611396578081fd5b84356113a18161154f565b935060208501359250604085013567ffffffffffffffff808211156113c4578283fd5b818701915087601f8301126113d7578283fd5b8135818111156113e5578384fd5b8860208285010111156113f6578384fd5b95989497505060200194505050565b600060208284031215611416578081fd5b815180151581146112d7578182fd5b600060208284031215611436578081fd5b5035919050565b6000806040838503121561144f578182fd5b82359150602083013561130b8161154f565b60008060408385031215611473578182fd5b50508035926020909101359150565b600060208284031215611493578081fd5b81357fffffffff00000000000000000000000000000000000000000000000000000000811681146112d7578182fd5b6000602082840312156114d3578081fd5b81356fffffffffffffffffffffffffffffffff811681146112d7578182fd5b600060208284031215611503578081fd5b5051919050565b6000821982111561151d5761151d611539565b500190565b60008282101561153457611534611539565b500390565b634e487b7160e01b600052601160045260246000fd5b6001600160a01b038116811461113557600080fdfea2646970667358221220baf0a26db2f05d2f3dbdbf0baa292be142d1724cfc5e5e5a376fefdbe365bc0764736f6c63430008020033",
  "immutableReferences": {},
  "source": "// SPDX-License-Identifier: MIT\npragma solidity ^0.8.2;\n\nimport \"@openzeppelin/contracts/access/AccessControl.sol\";\nimport \"@openzeppelin/contracts/token/ERC20/IERC20.sol\";\nimport \"../interfaces/IDarkDebridge.sol\";\nimport \"./Aggregator.sol\";\n\ncontract CommitmentAggregator is Aggregator {\n    struct CommitmentInfo {\n        bool broadcasted;\n        uint256 confirmations;\n        bytes32 debridgeId; // hash(chainId, tokenAddress, amount)\n        bytes32 commitment;\n        mapping(address => bool) hasVerified;\n    }\n\n    mapping(bytes32 => CommitmentInfo) public getCommitmentInfo;\n    mapping(bytes32 => IDarkDebridge) public getDebridge;\n\n    event Confirmed(bytes32 commitment, bytes32 debridgeId, address operator);\n    event Broadcasted(bytes32 debridgeId, bytes32 commitment);\n\n    constructor(\n        uint256 _minConfirmations,\n        uint128 _payment,\n        IERC20 _link\n    ) Aggregator(_minConfirmations, _payment, _link) {}\n\n    function submit(bytes32 _commitment, bytes32 _debridgeId)\n        external\n        onlyOracle\n    {\n        bytes32 depositId =\n            keccak256(abi.encodePacked(_commitment, _debridgeId));\n        CommitmentInfo storage commitmentInfo = getCommitmentInfo[depositId];\n        require(\n            !commitmentInfo.hasVerified[msg.sender],\n            \"submit: submitted already\"\n        );\n        if (commitmentInfo.confirmations == 0) {\n            commitmentInfo.commitment = _commitment;\n            commitmentInfo.debridgeId = _debridgeId;\n        }\n        commitmentInfo.confirmations += 1;\n        commitmentInfo.hasVerified[msg.sender] = true;\n        if (commitmentInfo.confirmations == minConfirmations) {\n            getDebridge[_debridgeId].externalDeposit(_commitment);\n            commitmentInfo.broadcasted = true;\n        }\n        _payOracle(msg.sender);\n    }\n\n    function setDebridge(bytes32 _debridgeId, IDarkDebridge _debridge)\n        external\n        onlyAdmin\n    {\n        getDebridge[_debridgeId] = _debridge;\n    }\n}\n",
  "sourcePath": "/Users/kstasi/Documents/side/debridge-contracts/contracts/chainlink/CommitmentAggregator.sol",
  "compiler": {
    "name": "solc",
    "version": "0.8.2+commit.661d1103.Emscripten.clang"
  },
  "schemaVersion": "3.3.4",
  "updatedAt": "2021-03-25T02:55:38.796Z",
  "devdoc": {
    "kind": "dev",
    "methods": {
      "addOracle(address,address)": {
        "details": "Add new oracle.",
        "params": {
          "_admin": "Admin address.",
          "_oracle": "Oracle address."
        }
      },
      "getRoleAdmin(bytes32)": {
        "details": "Returns the admin role that controls `role`. See {grantRole} and {revokeRole}. To change a role's admin, use {_setRoleAdmin}."
      },
      "grantRole(bytes32,address)": {
        "details": "Grants `role` to `account`. If `account` had not been already granted `role`, emits a {RoleGranted} event. Requirements: - the caller must have ``role``'s admin role."
      },
      "hasRole(bytes32,address)": {
        "details": "Returns `true` if `account` has been granted `role`."
      },
      "removeOracle(address)": {
        "details": "Remove oracle.",
        "params": {
          "_oracle": "Oracle address."
        }
      },
      "renounceRole(bytes32,address)": {
        "details": "Revokes `role` from the calling account. Roles are often managed via {grantRole} and {revokeRole}: this function's purpose is to provide a mechanism for accounts to lose their privileges if they are compromised (such as when a trusted device is misplaced). If the calling account had been granted `role`, emits a {RoleRevoked} event. Requirements: - the caller must be `account`."
      },
      "revokeRole(bytes32,address)": {
        "details": "Revokes `role` from `account`. If `account` had been granted `role`, emits a {RoleRevoked} event. Requirements: - the caller must have ``role``'s admin role."
      },
      "setMinConfirmations(uint256)": {
        "details": "Sets minimal required confirmations.",
        "params": {
          "_minConfirmations": "Minimal required confirmations."
        }
      },
      "setPayment(uint128)": {
        "details": "Sets new oracle reward.",
        "params": {
          "_payment": "Oracle reward."
        }
      },
      "supportsInterface(bytes4)": {
        "details": "See {IERC165-supportsInterface}."
      },
      "updateAvailableFunds()": {
        "details": "Updates available rewards to be distributed."
      },
      "withdrawFunds(address,uint256)": {
        "details": "Withdraws available LINK's.",
        "params": {
          "_amount": "Amount to withdraw.",
          "_recipient": "Recepient reward."
        }
      },
      "withdrawPayment(address,address,uint256)": {
        "details": "Withdraws oracle reward.",
        "params": {
          "_amount": "Amount to withdraw.",
          "_oracle": "Oracle address.",
          "_recipient": "Recepient reward."
        }
      },
      "withdrawablePayment(address)": {
        "details": "Withdraws oracle reward.",
        "params": {
          "_oracle": "Oracle address."
        },
        "returns": {
          "_0": "Oracle rewards."
        }
      }
    },
    "version": 1
  },
  "userdoc": {
    "kind": "user",
    "methods": {},
    "version": 1
  }
}