{
  "contractName": "CommitmentAggregator",
  "abi": [
    {
      "inputs": [
        {
          "internalType": "uint256",
          "name": "_minConfirmations",
          "type": "uint256"
        },
        {
          "internalType": "uint128",
          "name": "_payment",
          "type": "uint128"
        },
        {
          "internalType": "contract IERC20",
          "name": "_link",
          "type": "address"
        }
      ],
      "stateMutability": "nonpayable",
      "type": "constructor"
    },
    {
      "anonymous": false,
      "inputs": [
        {
          "indexed": false,
          "internalType": "bytes32",
          "name": "debridgeId",
          "type": "bytes32"
        },
        {
          "indexed": false,
          "internalType": "bytes32",
          "name": "commitment",
          "type": "bytes32"
        }
      ],
      "name": "Broadcasted",
      "type": "event"
    },
    {
      "anonymous": false,
      "inputs": [
        {
          "indexed": false,
          "internalType": "bytes32",
          "name": "commitment",
          "type": "bytes32"
        },
        {
          "indexed": false,
          "internalType": "bytes32",
          "name": "debridgeId",
          "type": "bytes32"
        },
        {
          "indexed": false,
          "internalType": "address",
          "name": "operator",
          "type": "address"
        }
      ],
      "name": "Confirmed",
      "type": "event"
    },
    {
      "anonymous": false,
      "inputs": [
        {
          "indexed": true,
          "internalType": "bytes32",
          "name": "role",
          "type": "bytes32"
        },
        {
          "indexed": true,
          "internalType": "bytes32",
          "name": "previousAdminRole",
          "type": "bytes32"
        },
        {
          "indexed": true,
          "internalType": "bytes32",
          "name": "newAdminRole",
          "type": "bytes32"
        }
      ],
      "name": "RoleAdminChanged",
      "type": "event"
    },
    {
      "anonymous": false,
      "inputs": [
        {
          "indexed": true,
          "internalType": "bytes32",
          "name": "role",
          "type": "bytes32"
        },
        {
          "indexed": true,
          "internalType": "address",
          "name": "account",
          "type": "address"
        },
        {
          "indexed": true,
          "internalType": "address",
          "name": "sender",
          "type": "address"
        }
      ],
      "name": "RoleGranted",
      "type": "event"
    },
    {
      "anonymous": false,
      "inputs": [
        {
          "indexed": true,
          "internalType": "bytes32",
          "name": "role",
          "type": "bytes32"
        },
        {
          "indexed": true,
          "internalType": "address",
          "name": "account",
          "type": "address"
        },
        {
          "indexed": true,
          "internalType": "address",
          "name": "sender",
          "type": "address"
        }
      ],
      "name": "RoleRevoked",
      "type": "event"
    },
    {
      "inputs": [],
      "name": "DEFAULT_ADMIN_ROLE",
      "outputs": [
        {
          "internalType": "bytes32",
          "name": "",
          "type": "bytes32"
        }
      ],
      "stateMutability": "view",
      "type": "function"
    },
    {
      "inputs": [],
      "name": "ORACLE_ROLE",
      "outputs": [
        {
          "internalType": "bytes32",
          "name": "",
          "type": "bytes32"
        }
      ],
      "stateMutability": "view",
      "type": "function"
    },
    {
      "inputs": [
        {
          "internalType": "address",
          "name": "_oracle",
          "type": "address"
        },
        {
          "internalType": "address",
          "name": "_admin",
          "type": "address"
        }
      ],
      "name": "addOracle",
      "outputs": [],
      "stateMutability": "nonpayable",
      "type": "function"
    },
    {
      "inputs": [],
      "name": "allocatedFunds",
      "outputs": [
        {
          "internalType": "uint256",
          "name": "",
          "type": "uint256"
        }
      ],
      "stateMutability": "view",
      "type": "function"
    },
    {
      "inputs": [],
      "name": "availableFunds",
      "outputs": [
        {
          "internalType": "uint256",
          "name": "",
          "type": "uint256"
        }
      ],
      "stateMutability": "view",
      "type": "function"
    },
    {
      "inputs": [
        {
          "internalType": "bytes32",
          "name": "",
          "type": "bytes32"
        }
      ],
      "name": "getCommitmentInfo",
      "outputs": [
        {
          "internalType": "bool",
          "name": "broadcasted",
          "type": "bool"
        },
        {
          "internalType": "uint256",
          "name": "confirmations",
          "type": "uint256"
        },
        {
          "internalType": "bytes32",
          "name": "debridgeId",
          "type": "bytes32"
        },
        {
          "internalType": "bytes32",
          "name": "commitment",
          "type": "bytes32"
        }
      ],
      "stateMutability": "view",
      "type": "function"
    },
    {
      "inputs": [
        {
          "internalType": "bytes32",
          "name": "",
          "type": "bytes32"
        }
      ],
      "name": "getDebridge",
      "outputs": [
        {
          "internalType": "contract IDarkDebridge",
          "name": "",
          "type": "address"
        }
      ],
      "stateMutability": "view",
      "type": "function"
    },
    {
      "inputs": [
        {
          "internalType": "bytes32",
          "name": "role",
          "type": "bytes32"
        }
      ],
      "name": "getRoleAdmin",
      "outputs": [
        {
          "internalType": "bytes32",
          "name": "",
          "type": "bytes32"
        }
      ],
      "stateMutability": "view",
      "type": "function"
    },
    {
      "inputs": [
        {
          "internalType": "address",
          "name": "",
          "type": "address"
        }
      ],
      "name": "getRracleInfo",
      "outputs": [
        {
          "internalType": "uint128",
          "name": "withdrawable",
          "type": "uint128"
        },
        {
          "internalType": "address",
          "name": "admin",
          "type": "address"
        }
      ],
      "stateMutability": "view",
      "type": "function"
    },
    {
      "inputs": [
        {
          "internalType": "bytes32",
          "name": "role",
          "type": "bytes32"
        },
        {
          "internalType": "address",
          "name": "account",
          "type": "address"
        }
      ],
      "name": "grantRole",
      "outputs": [],
      "stateMutability": "nonpayable",
      "type": "function"
    },
    {
      "inputs": [
        {
          "internalType": "bytes32",
          "name": "role",
          "type": "bytes32"
        },
        {
          "internalType": "address",
          "name": "account",
          "type": "address"
        }
      ],
      "name": "hasRole",
      "outputs": [
        {
          "internalType": "bool",
          "name": "",
          "type": "bool"
        }
      ],
      "stateMutability": "view",
      "type": "function"
    },
    {
      "inputs": [],
      "name": "link",
      "outputs": [
        {
          "internalType": "contract IERC20",
          "name": "",
          "type": "address"
        }
      ],
      "stateMutability": "view",
      "type": "function"
    },
    {
      "inputs": [],
      "name": "minConfirmations",
      "outputs": [
        {
          "internalType": "uint256",
          "name": "",
          "type": "uint256"
        }
      ],
      "stateMutability": "view",
      "type": "function"
    },
    {
      "inputs": [
        {
          "internalType": "address",
          "name": "",
          "type": "address"
        },
        {
          "internalType": "uint256",
          "name": "",
          "type": "uint256"
        },
        {
          "internalType": "bytes",
          "name": "_data",
          "type": "bytes"
        }
      ],
      "name": "onTokenTransfer",
      "outputs": [],
      "stateMutability": "nonpayable",
      "type": "function"
    },
    {
      "inputs": [],
      "name": "payment",
      "outputs": [
        {
          "internalType": "uint128",
          "name": "",
          "type": "uint128"
        }
      ],
      "stateMutability": "view",
      "type": "function"
    },
    {
      "inputs": [
        {
          "internalType": "address",
          "name": "_oracle",
          "type": "address"
        }
      ],
      "name": "removeOracle",
      "outputs": [],
      "stateMutability": "nonpayable",
      "type": "function"
    },
    {
      "inputs": [
        {
          "internalType": "bytes32",
          "name": "role",
          "type": "bytes32"
        },
        {
          "internalType": "address",
          "name": "account",
          "type": "address"
        }
      ],
      "name": "renounceRole",
      "outputs": [],
      "stateMutability": "nonpayable",
      "type": "function"
    },
    {
      "inputs": [
        {
          "internalType": "bytes32",
          "name": "role",
          "type": "bytes32"
        },
        {
          "internalType": "address",
          "name": "account",
          "type": "address"
        }
      ],
      "name": "revokeRole",
      "outputs": [],
      "stateMutability": "nonpayable",
      "type": "function"
    },
    {
      "inputs": [
        {
          "internalType": "uint256",
          "name": "_minConfirmations",
          "type": "uint256"
        }
      ],
      "name": "setMinConfirmations",
      "outputs": [],
      "stateMutability": "nonpayable",
      "type": "function"
    },
    {
      "inputs": [
        {
          "internalType": "uint128",
          "name": "_payment",
          "type": "uint128"
        }
      ],
      "name": "setPayment",
      "outputs": [],
      "stateMutability": "nonpayable",
      "type": "function"
    },
    {
      "inputs": [
        {
          "internalType": "bytes4",
          "name": "interfaceId",
          "type": "bytes4"
        }
      ],
      "name": "supportsInterface",
      "outputs": [
        {
          "internalType": "bool",
          "name": "",
          "type": "bool"
        }
      ],
      "stateMutability": "view",
      "type": "function"
    },
    {
      "inputs": [],
      "name": "updateAvailableFunds",
      "outputs": [],
      "stateMutability": "nonpayable",
      "type": "function"
    },
    {
      "inputs": [
        {
          "internalType": "address",
          "name": "_recipient",
          "type": "address"
        },
        {
          "internalType": "uint256",
          "name": "_amount",
          "type": "uint256"
        }
      ],
      "name": "withdrawFunds",
      "outputs": [],
      "stateMutability": "nonpayable",
      "type": "function"
    },
    {
      "inputs": [
        {
          "internalType": "address",
          "name": "_oracle",
          "type": "address"
        },
        {
          "internalType": "address",
          "name": "_recipient",
          "type": "address"
        },
        {
          "internalType": "uint256",
          "name": "_amount",
          "type": "uint256"
        }
      ],
      "name": "withdrawPayment",
      "outputs": [],
      "stateMutability": "nonpayable",
      "type": "function"
    },
    {
      "inputs": [
        {
          "internalType": "address",
          "name": "_oracle",
          "type": "address"
        }
      ],
      "name": "withdrawablePayment",
      "outputs": [
        {
          "internalType": "uint256",
          "name": "",
          "type": "uint256"
        }
      ],
      "stateMutability": "view",
      "type": "function"
    },
    {
      "inputs": [
        {
          "internalType": "bytes32",
          "name": "_commitment",
          "type": "bytes32"
        },
        {
          "internalType": "bytes32",
          "name": "_debridgeId",
          "type": "bytes32"
        }
      ],
      "name": "submit",
      "outputs": [],
      "stateMutability": "nonpayable",
      "type": "function"
    },
    {
      "inputs": [
        {
          "internalType": "bytes32",
          "name": "_debridgeId",
          "type": "bytes32"
        },
        {
          "internalType": "contract IDarkDebridge",
          "name": "_debridge",
          "type": "address"
        }
      ],
      "name": "setDebridge",
      "outputs": [],
      "stateMutability": "nonpayable",
      "type": "function"
    }
  ],
  "bytecode": "0x60806040523480156200001157600080fd5b506040516200175e3803806200175e833981016040819052620000349162000167565b6001839055600480546001600160801b0319166001600160801b038416179055600580546001600160a01b0319166001600160a01b0383161790558282826200007f600033620000b7565b620000ab7f68e79a7bf1e0bc45d0a330c573bc367f9cf464fd326078812f301165fbda4ef133620000b7565b505050505050620001c3565b620000c38282620000c7565b5050565b6000828152602081815260408083206001600160a01b038516845290915290205460ff16620000c3576000828152602081815260408083206001600160a01b03851684529091529020805460ff19166001179055620001233390565b6001600160a01b0316816001600160a01b0316837f2f8788117e7eff1d82e926ec794901d17c78024a50270940304540a733656f0d60405160405180910390a45050565b6000806000606084860312156200017c578283fd5b835160208501519093506001600160801b03811681146200019b578283fd5b60408501519092506001600160a01b0381168114620001b8578182fd5b809150509250925092565b61158b80620001d36000396000f3fe608060405234801561001057600080fd5b50600436106101b95760003560e01c806382313e50116100f9578063d282165511610097578063e2e4031711610071578063e2e4031714610494578063e7c4393e146104c6578063f0ca4adb146104cf578063fdc85fc4146104e2576101b9565b8063d282165514610465578063d4cc54e414610478578063d547741f14610481576101b9565b8063a217fddf116100d3578063a217fddf14610424578063a4c0ed361461042c578063c10753291461043f578063d26ff86e14610452576101b9565b806382313e501461037f57806391d1485414610392578063a08bd437146103c9576101b9565b806336568abe1161016657806346fcff4c1161014057806346fcff4c146103325780634f8fc3b51461033b57806351be6ad71461034357806357cf07ca14610356576101b9565b806336568abe146102e15780633d3d7714146102f457806342f6487a14610307576101b9565b8063248a9ca311610197578063248a9ca3146102465780632dd6b35c146102695780632f2ff15d146102cc576101b9565b806301ffc9a7146101be57806307e2cea5146101e65780631c4695f41461021b575b600080fd5b6101d16101cc366004611429565b6104f5565b60405190151581526020015b60405180910390f35b61020d7f68e79a7bf1e0bc45d0a330c573bc367f9cf464fd326078812f301165fbda4ef181565b6040519081526020016101dd565b60055461022e906001600160a01b031681565b6040516001600160a01b0390911681526020016101dd565b61020d6102543660046113cc565b60009081526020819052604090206001015490565b6102a5610277366004611262565b600660205260009081526040902080546001909101546001600160801b03909116906001600160a01b031682565b604080516001600160801b0390931683526001600160a01b039091166020830152016101dd565b6102df6102da3660046113e4565b61058e565b005b6102df6102ef3660046113e4565b610630565b6102df6103023660046112bd565b6106b8565b60045461031a906001600160801b031681565b6040516001600160801b0390911681526020016101dd565b61020d60035481565b6102df6108ab565b6102df6103513660046113e4565b610951565b61022e6103643660046113cc565b6008602052600090815260409020546001600160a01b031681565b6102df61038d366004611469565b610a00565b6101d16103a03660046113e4565b6000918252602082815260408084206001600160a01b0393909316845291905290205460ff1690565b6104026103d73660046113cc565b600760205260009081526040902080546001820154600283015460039093015460ff90921692909184565b60408051941515855260208501939093529183015260608201526080016101dd565b61020d600081565b6102df61043a366004611328565b610a9f565b6102df61044d3660046112fd565b610b55565b6102df610460366004611408565b610cf5565b6102df6104733660046113cc565b610eff565b61020d60025481565b6102df61048f3660046113e4565b610f78565b61020d6104a2366004611262565b6001600160a01b03166000908152600660205260409020546001600160801b031690565b61020d60015481565b6102df6104dd366004611285565b611005565b6102df6104f0366004611262565b61106d565b60007fffffffff0000000000000000000000000000000000000000000000000000000082167f7965db0b00000000000000000000000000000000000000000000000000000000148061058857507f01ffc9a7000000000000000000000000000000000000000000000000000000007fffffffff000000000000000000000000000000000000000000000000000000008316145b92915050565b6000828152602081905260409020600101546105ab905b336103a0565b6106225760405162461bcd60e51b815260206004820152602f60248201527f416363657373436f6e74726f6c3a2073656e646572206d75737420626520616e60448201527f2061646d696e20746f206772616e74000000000000000000000000000000000060648201526084015b60405180910390fd5b61062c828261109a565b5050565b6001600160a01b03811633146106ae5760405162461bcd60e51b815260206004820152602f60248201527f416363657373436f6e74726f6c3a2063616e206f6e6c792072656e6f756e636560448201527f20726f6c657320666f722073656c6600000000000000000000000000000000006064820152608401610619565b61062c8282611138565b6001600160a01b038381166000908152600660205260409020600101541633146107245760405162461bcd60e51b815260206004820152601660248201527f6f6e6c792063616c6c61626c652062792061646d696e000000000000000000006044820152606401610619565b6001600160a01b03831660009081526006602052604090205481906001600160801b0390811690821681101561079c5760405162461bcd60e51b815260206004820152601f60248201527f696e73756666696369656e7420776974686472617761626c652066756e6473006044820152606401610619565b6107a682826114eb565b6001600160a01b038616600090815260066020526040812080546fffffffffffffffffffffffffffffffff19166001600160801b0393841617905560028054928516929091906107f7908490611513565b909155505060055460405163a9059cbb60e01b81526001600160a01b0386811660048301526001600160801b03851660248301529091169063a9059cbb90604401602060405180830381600087803b15801561085257600080fd5b505af1158015610866573d6000803e3d6000fd5b505050506040513d601f19601f8201168201806040525081019061088a91906113ac565b6108a457634e487b7160e01b600052600160045260246000fd5b5050505050565b6002546005546040517f70a082310000000000000000000000000000000000000000000000000000000081523060048201526001600160a01b03909116906370a082319060240160206040518083038186803b15801561090a57600080fd5b505afa15801561091e573d6000803e3d6000fd5b505050506040513d601f19601f820116820180604052508101906109429190611490565b61094c9190611513565b600355565b3360009081527fad3228b676f7d3cd4284a5443f17f1962b36e491b30a40b2405849e597ba5fb5602052604090205460ff166109c55760405162461bcd60e51b81526020600482015260136024820152726f6e6c7941646d696e3a2062616420726f6c6560681b6044820152606401610619565b600091825260086020526040909120805473ffffffffffffffffffffffffffffffffffffffff19166001600160a01b03909216919091179055565b3360009081527fad3228b676f7d3cd4284a5443f17f1962b36e491b30a40b2405849e597ba5fb5602052604090205460ff16610a745760405162461bcd60e51b81526020600482015260136024820152726f6e6c7941646d696e3a2062616420726f6c6560681b6044820152606401610619565b600480546fffffffffffffffffffffffffffffffff19166001600160801b0392909216919091179055565b6005546001600160a01b03163314610af95760405162461bcd60e51b815260206004820152601d60248201527f6f6e546f6b656e5472616e736665723a206e6f7420746865204c696e6b0000006044820152606401610619565b8015610b475760405162461bcd60e51b815260206004820181905260248201527f7472616e7366657220646f65736e2774206163636570742063616c6c646174616044820152606401610619565b610b4f6108ab565b50505050565b3360009081527fad3228b676f7d3cd4284a5443f17f1962b36e491b30a40b2405849e597ba5fb5602052604090205460ff16610bc95760405162461bcd60e51b81526020600482015260136024820152726f6e6c7941646d696e3a2062616420726f6c6560681b6044820152606401610619565b806003541015610c1b5760405162461bcd60e51b815260206004820152601a60248201527f696e73756666696369656e7420726573657276652066756e64730000000000006044820152606401610619565b60055460405163a9059cbb60e01b81526001600160a01b038481166004830152602482018490529091169063a9059cbb90604401602060405180830381600087803b158015610c6957600080fd5b505af1158015610c7d573d6000803e3d6000fd5b505050506040513d601f19601f82011682018060405250810190610ca191906113ac565b610ced5760405162461bcd60e51b815260206004820152601e60248201527f776974686472617746756e64733a207472616e73666572206661696c656400006044820152606401610619565b61062c6108ab565b3360009081527fa629f6981c2f6895a67dc766e8e03ff72d04a413d0d8773a3ca56e9e474032c1602052604090205460ff16610d735760405162461bcd60e51b815260206004820152601460248201527f6f6e6c794f7261636c653a2062616420726f6c650000000000000000000000006044820152606401610619565b6040805160208082018590528183018490528251808303840181526060909201835281519181019190912060008181526007835283812033825260048101909352929092205460ff1615610e095760405162461bcd60e51b815260206004820152601960248201527f7375626d69743a207375626d697474656420616c7265616479000000000000006044820152606401610619565b6001810154610e215760038101849055600281018390555b6001816001016000828254610e3691906114d3565b90915550503360009081526004820160205260409020805460ff191660019081179091558054908201541415610ef657600083815260086020526040908190205490517fb83e06b4000000000000000000000000000000000000000000000000000000008152600481018690526001600160a01b039091169063b83e06b490602401600060405180830381600087803b158015610ed257600080fd5b505af1158015610ee6573d6000803e3d6000fd5b5050825460ff1916600117835550505b610b4f336111b7565b3360009081527fad3228b676f7d3cd4284a5443f17f1962b36e491b30a40b2405849e597ba5fb5602052604090205460ff16610f735760405162461bcd60e51b81526020600482015260136024820152726f6e6c7941646d696e3a2062616420726f6c6560681b6044820152606401610619565b600155565b600082815260208190526040902060010154610f93906105a5565b6106ae5760405162461bcd60e51b815260206004820152603060248201527f416363657373436f6e74726f6c3a2073656e646572206d75737420626520616e60448201527f2061646d696e20746f207265766f6b65000000000000000000000000000000006064820152608401610619565b61102f7f68e79a7bf1e0bc45d0a330c573bc367f9cf464fd326078812f301165fbda4ef18361058e565b6001600160a01b039182166000908152600660205260409020600101805473ffffffffffffffffffffffffffffffffffffffff191691909216179055565b6110977f68e79a7bf1e0bc45d0a330c573bc367f9cf464fd326078812f301165fbda4ef182610f78565b50565b6000828152602081815260408083206001600160a01b038516845290915290205460ff1661062c576000828152602081815260408083206001600160a01b03851684529091529020805460ff191660011790556110f43390565b6001600160a01b0316816001600160a01b0316837f2f8788117e7eff1d82e926ec794901d17c78024a50270940304540a733656f0d60405160405180910390a45050565b6000828152602081815260408083206001600160a01b038516845290915290205460ff161561062c576000828152602081815260408083206001600160a01b0385168085529252808320805460ff1916905551339285917ff6391f5c32d9c69d2a47ea670b442974b53935d1edc7fd64eb21e047a839171b9190a45050565b600454600380546001600160801b03909216916000906111d8908490611513565b9091555050600454600280546001600160801b03909216916000906111fe9084906114d3565b90915550506004546001600160a01b038216600090815260066020526040812080546001600160801b039384169391929161123b918591166114a8565b92506101000a8154816001600160801b0302191690836001600160801b0316021790555050565b600060208284031215611273578081fd5b813561127e81611540565b9392505050565b60008060408385031215611297578081fd5b82356112a281611540565b915060208301356112b281611540565b809150509250929050565b6000806000606084860312156112d1578081fd5b83356112dc81611540565b925060208401356112ec81611540565b929592945050506040919091013590565b6000806040838503121561130f578182fd5b823561131a81611540565b946020939093013593505050565b6000806000806060858703121561133d578081fd5b843561134881611540565b935060208501359250604085013567ffffffffffffffff8082111561136b578283fd5b818701915087601f83011261137e578283fd5b81358181111561138c578384fd5b88602082850101111561139d578384fd5b95989497505060200194505050565b6000602082840312156113bd578081fd5b8151801515811461127e578182fd5b6000602082840312156113dd578081fd5b5035919050565b600080604083850312156113f6578182fd5b8235915060208301356112b281611540565b6000806040838503121561141a578182fd5b50508035926020909101359150565b60006020828403121561143a578081fd5b81357fffffffff000000000000000000000000000000000000000000000000000000008116811461127e578182fd5b60006020828403121561147a578081fd5b81356001600160801b038116811461127e578182fd5b6000602082840312156114a1578081fd5b5051919050565b60006001600160801b038083168185168083038211156114ca576114ca61152a565b01949350505050565b600082198211156114e6576114e661152a565b500190565b60006001600160801b038381169083168181101561150b5761150b61152a565b039392505050565b6000828210156115255761152561152a565b500390565b634e487b7160e01b600052601160045260246000fd5b6001600160a01b038116811461109757600080fdfea26469706673582212200dac02b23e7e6f3d5369d82b16e2375abfe9ed08096ca0b473d15c889a155f8264736f6c63430008020033",
  "immutableReferences": {},
  "source": "// SPDX-License-Identifier: MIT\npragma solidity ^0.8.2;\n\nimport \"@openzeppelin/contracts/access/AccessControl.sol\";\nimport \"@openzeppelin/contracts/token/ERC20/IERC20.sol\";\nimport \"../interfaces/IDarkDebridge.sol\";\nimport \"./Aggregator.sol\";\n\ncontract CommitmentAggregator is Aggregator {\n    struct CommitmentInfo {\n        bool broadcasted;\n        uint256 confirmations;\n        bytes32 debridgeId; // hash(chainId, tokenAddress, amount)\n        bytes32 commitment;\n        mapping(address => bool) hasVerified;\n    }\n\n    mapping(bytes32 => CommitmentInfo) public getCommitmentInfo;\n    mapping(bytes32 => IDarkDebridge) public getDebridge;\n\n    event Confirmed(bytes32 commitment, bytes32 debridgeId, address operator);\n    event Broadcasted(bytes32 debridgeId, bytes32 commitment);\n\n    constructor(\n        uint256 _minConfirmations,\n        uint128 _payment,\n        IERC20 _link\n    ) Aggregator(_minConfirmations, _payment, _link) {}\n\n    function submit(bytes32 _commitment, bytes32 _debridgeId)\n        external\n        onlyOracle\n    {\n        bytes32 depositId =\n            keccak256(abi.encodePacked(_commitment, _debridgeId));\n        CommitmentInfo storage commitmentInfo = getCommitmentInfo[depositId];\n        require(\n            !commitmentInfo.hasVerified[msg.sender],\n            \"submit: submitted already\"\n        );\n        if (commitmentInfo.confirmations == 0) {\n            commitmentInfo.commitment = _commitment;\n            commitmentInfo.debridgeId = _debridgeId;\n        }\n        commitmentInfo.confirmations += 1;\n        commitmentInfo.hasVerified[msg.sender] = true;\n        if (commitmentInfo.confirmations == minConfirmations) {\n            getDebridge[_debridgeId].externalDeposit(_commitment);\n            commitmentInfo.broadcasted = true;\n        }\n        _payOracle(msg.sender);\n    }\n\n    function setDebridge(bytes32 _debridgeId, IDarkDebridge _debridge)\n        external\n        onlyAdmin\n    {\n        getDebridge[_debridgeId] = _debridge;\n    }\n}\n",
  "sourcePath": "/Users/kstasi/Documents/side/debridge-contracts/contracts/chainlink/CommitmentAggregator.sol",
  "compiler": {
    "name": "solc",
    "version": "0.8.2+commit.661d1103.Emscripten.clang"
  },
  "schemaVersion": "3.3.4",
  "updatedAt": "2021-03-22T18:55:05.301Z",
  "devdoc": {
    "kind": "dev",
    "methods": {
      "addOracle(address,address)": {
        "details": "Add new oracle.",
        "params": {
          "_admin": "Admin address.",
          "_oracle": "Oracle address."
        }
      },
      "getRoleAdmin(bytes32)": {
        "details": "Returns the admin role that controls `role`. See {grantRole} and {revokeRole}. To change a role's admin, use {_setRoleAdmin}."
      },
      "grantRole(bytes32,address)": {
        "details": "Grants `role` to `account`. If `account` had not been already granted `role`, emits a {RoleGranted} event. Requirements: - the caller must have ``role``'s admin role."
      },
      "hasRole(bytes32,address)": {
        "details": "Returns `true` if `account` has been granted `role`."
      },
      "removeOracle(address)": {
        "details": "Remove oracle.",
        "params": {
          "_oracle": "Oracle address."
        }
      },
      "renounceRole(bytes32,address)": {
        "details": "Revokes `role` from the calling account. Roles are often managed via {grantRole} and {revokeRole}: this function's purpose is to provide a mechanism for accounts to lose their privileges if they are compromised (such as when a trusted device is misplaced). If the calling account had been granted `role`, emits a {RoleRevoked} event. Requirements: - the caller must be `account`."
      },
      "revokeRole(bytes32,address)": {
        "details": "Revokes `role` from `account`. If `account` had been granted `role`, emits a {RoleRevoked} event. Requirements: - the caller must have ``role``'s admin role."
      },
      "setMinConfirmations(uint256)": {
        "details": "Sets minimal required confirmations.",
        "params": {
          "_minConfirmations": "Minimal required confirmations."
        }
      },
      "setPayment(uint128)": {
        "details": "Sets new oracle reward.",
        "params": {
          "_payment": "Oracle reward."
        }
      },
      "supportsInterface(bytes4)": {
        "details": "See {IERC165-supportsInterface}."
      },
      "updateAvailableFunds()": {
        "details": "Updates available rewards to be distributed."
      },
      "withdrawFunds(address,uint256)": {
        "details": "Withdraws available LINK's.",
        "params": {
          "_amount": "Amount to withdraw.",
          "_recipient": "Recepient reward."
        }
      },
      "withdrawPayment(address,address,uint256)": {
        "details": "Withdraws oracle reward.",
        "params": {
          "_amount": "Amount to withdraw.",
          "_oracle": "Oracle address.",
          "_recipient": "Recepient reward."
        }
      },
      "withdrawablePayment(address)": {
        "details": "Withdraws oracle reward.",
        "params": {
          "_oracle": "Oracle address."
        },
        "returns": {
          "_0": "Oracle rewards."
        }
      }
    },
    "version": 1
  },
  "userdoc": {
    "kind": "user",
    "methods": {},
    "version": 1
  }
}