{
  "contractName": "DefiController",
  "abi": [
    {
      "inputs": [
        {
          "internalType": "address",
          "name": "_linkToken",
          "type": "address"
        },
        {
          "internalType": "contract IUniswapV2Factory",
          "name": "_uniswapFactory",
          "type": "address"
        }
      ],
      "stateMutability": "nonpayable",
      "type": "constructor"
    },
    {
      "anonymous": false,
      "inputs": [
        {
          "indexed": true,
          "internalType": "bytes32",
          "name": "role",
          "type": "bytes32"
        },
        {
          "indexed": true,
          "internalType": "bytes32",
          "name": "previousAdminRole",
          "type": "bytes32"
        },
        {
          "indexed": true,
          "internalType": "bytes32",
          "name": "newAdminRole",
          "type": "bytes32"
        }
      ],
      "name": "RoleAdminChanged",
      "type": "event"
    },
    {
      "anonymous": false,
      "inputs": [
        {
          "indexed": true,
          "internalType": "bytes32",
          "name": "role",
          "type": "bytes32"
        },
        {
          "indexed": true,
          "internalType": "address",
          "name": "account",
          "type": "address"
        },
        {
          "indexed": true,
          "internalType": "address",
          "name": "sender",
          "type": "address"
        }
      ],
      "name": "RoleGranted",
      "type": "event"
    },
    {
      "anonymous": false,
      "inputs": [
        {
          "indexed": true,
          "internalType": "bytes32",
          "name": "role",
          "type": "bytes32"
        },
        {
          "indexed": true,
          "internalType": "address",
          "name": "account",
          "type": "address"
        },
        {
          "indexed": true,
          "internalType": "address",
          "name": "sender",
          "type": "address"
        }
      ],
      "name": "RoleRevoked",
      "type": "event"
    },
    {
      "inputs": [],
      "name": "DEFAULT_ADMIN_ROLE",
      "outputs": [
        {
          "internalType": "bytes32",
          "name": "",
          "type": "bytes32"
        }
      ],
      "stateMutability": "view",
      "type": "function"
    },
    {
      "inputs": [
        {
          "internalType": "bytes32",
          "name": "role",
          "type": "bytes32"
        }
      ],
      "name": "getRoleAdmin",
      "outputs": [
        {
          "internalType": "bytes32",
          "name": "",
          "type": "bytes32"
        }
      ],
      "stateMutability": "view",
      "type": "function"
    },
    {
      "inputs": [
        {
          "internalType": "bytes32",
          "name": "role",
          "type": "bytes32"
        },
        {
          "internalType": "address",
          "name": "account",
          "type": "address"
        }
      ],
      "name": "grantRole",
      "outputs": [],
      "stateMutability": "nonpayable",
      "type": "function"
    },
    {
      "inputs": [
        {
          "internalType": "bytes32",
          "name": "role",
          "type": "bytes32"
        },
        {
          "internalType": "address",
          "name": "account",
          "type": "address"
        }
      ],
      "name": "hasRole",
      "outputs": [
        {
          "internalType": "bool",
          "name": "",
          "type": "bool"
        }
      ],
      "stateMutability": "view",
      "type": "function"
    },
    {
      "inputs": [],
      "name": "linkToken",
      "outputs": [
        {
          "internalType": "address",
          "name": "",
          "type": "address"
        }
      ],
      "stateMutability": "view",
      "type": "function"
    },
    {
      "inputs": [
        {
          "internalType": "bytes32",
          "name": "role",
          "type": "bytes32"
        },
        {
          "internalType": "address",
          "name": "account",
          "type": "address"
        }
      ],
      "name": "renounceRole",
      "outputs": [],
      "stateMutability": "nonpayable",
      "type": "function"
    },
    {
      "inputs": [
        {
          "internalType": "bytes32",
          "name": "role",
          "type": "bytes32"
        },
        {
          "internalType": "address",
          "name": "account",
          "type": "address"
        }
      ],
      "name": "revokeRole",
      "outputs": [],
      "stateMutability": "nonpayable",
      "type": "function"
    },
    {
      "inputs": [
        {
          "internalType": "bytes4",
          "name": "interfaceId",
          "type": "bytes4"
        }
      ],
      "name": "supportsInterface",
      "outputs": [
        {
          "internalType": "bool",
          "name": "",
          "type": "bool"
        }
      ],
      "stateMutability": "view",
      "type": "function"
    },
    {
      "inputs": [],
      "name": "uniswapFactory",
      "outputs": [
        {
          "internalType": "contract IUniswapV2Factory",
          "name": "",
          "type": "address"
        }
      ],
      "stateMutability": "view",
      "type": "function"
    },
    {
      "inputs": [
        {
          "internalType": "address",
          "name": "_erc20Token",
          "type": "address"
        },
        {
          "internalType": "uint256",
          "name": "_amount",
          "type": "uint256"
        },
        {
          "internalType": "address",
          "name": "_receiver",
          "type": "address"
        }
      ],
      "name": "swapToLink",
      "outputs": [],
      "stateMutability": "nonpayable",
      "type": "function"
    }
  ],
  "bytecode": "0x608060405234801561001057600080fd5b50604051610a76380380610a7683398101604081905261002f91610060565b600180546001600160a01b039384166001600160a01b031991821617909155600280549290931691161790556100b1565b60008060408385031215610072578182fd5b825161007d81610099565b602084015190925061008e81610099565b809150509250929050565b6001600160a01b03811681146100ae57600080fd5b50565b6109b6806100c06000396000f3fe608060405234801561001057600080fd5b50600436106100be5760003560e01c80638bdb2afa11610076578063a217fddf1161005b578063a217fddf146101b9578063d547741f146101c1578063d66a30a8146101d4576100be565b80638bdb2afa1461016f57806391d1485414610182576100be565b80632f2ff15d116100a75780632f2ff15d1461011c57806336568abe1461013157806357970e9314610144576100be565b806301ffc9a7146100c3578063248a9ca3146100eb575b600080fd5b6100d66100d1366004610910565b6101e7565b60405190151581526020015b60405180910390f35b61010e6100f93660046108c9565b60009081526020819052604090206001015490565b6040519081526020016100e2565b61012f61012a3660046108e1565b610280565b005b61012f61013f3660046108e1565b610322565b600154610157906001600160a01b031681565b6040516001600160a01b0390911681526020016100e2565b600254610157906001600160a01b031681565b6100d66101903660046108e1565b6000918252602082815260408084206001600160a01b0393909316845291905290205460ff1690565b61010e600081565b61012f6101cf3660046108e1565b6103aa565b61012f6101e2366004610868565b610437565b60007fffffffff0000000000000000000000000000000000000000000000000000000082167f7965db0b00000000000000000000000000000000000000000000000000000000148061027a57507f01ffc9a7000000000000000000000000000000000000000000000000000000007fffffffff000000000000000000000000000000000000000000000000000000008316145b92915050565b60008281526020819052604090206001015461029d905b33610190565b6103145760405162461bcd60e51b815260206004820152602f60248201527f416363657373436f6e74726f6c3a2073656e646572206d75737420626520616e60448201527f2061646d696e20746f206772616e74000000000000000000000000000000000060648201526084015b60405180910390fd5b61031e8282610728565b5050565b6001600160a01b03811633146103a05760405162461bcd60e51b815260206004820152602f60248201527f416363657373436f6e74726f6c3a2063616e206f6e6c792072656e6f756e636560448201527f20726f6c657320666f722073656c660000000000000000000000000000000000606482015260840161030b565b61031e82826107c6565b6000828152602081905260409020600101546103c590610297565b6103a05760405162461bcd60e51b815260206004820152603060248201527f416363657373436f6e74726f6c3a2073656e646572206d75737420626520616e60448201527f2061646d696e20746f207265766f6b6500000000000000000000000000000000606482015260840161030b565b6040517f70a0823100000000000000000000000000000000000000000000000000000000815230600482015283906001600160a01b038216906370a082319060240160206040518083038186803b15801561049157600080fd5b505afa1580156104a5573d6000803e3d6000fd5b505050506040513d601f19601f820116820180604052508101906104c99190610950565b6002546001546040517fe6a439050000000000000000000000000000000000000000000000000000000081526001600160a01b039182166004820152878216602482015292955060009291169063e6a439059060440160206040518083038186803b15801561053757600080fd5b505afa15801561054b573d6000803e3d6000fd5b505050506040513d601f19601f8201168201806040525081019061056f9190610845565b6040517fa9059cbb0000000000000000000000000000000000000000000000000000000081526001600160a01b038083166004830152602482018790529192509083169063a9059cbb90604401602060405180830381600087803b1580156105d657600080fd5b505af11580156105ea573d6000803e3d6000fd5b505050506040513d601f19601f8201168201806040525081019061060e91906108a9565b506001546001600160a01b0380871691161080156106a55760405163022c0d9f60e01b8152600060048201819052602482018790526001600160a01b03868116604484015260806064840152608483019190915283169063022c0d9f9060a401600060405180830381600087803b15801561068857600080fd5b505af115801561069c573d6000803e3d6000fd5b50505050610720565b60405163022c0d9f60e01b8152600481018690526000602482018190526001600160a01b03868116604484015260806064840152608483019190915283169063022c0d9f9060a401600060405180830381600087803b15801561070757600080fd5b505af115801561071b573d6000803e3d6000fd5b505050505b505050505050565b6000828152602081815260408083206001600160a01b038516845290915290205460ff1661031e576000828152602081815260408083206001600160a01b03851684529091529020805460ff191660011790556107823390565b6001600160a01b0316816001600160a01b0316837f2f8788117e7eff1d82e926ec794901d17c78024a50270940304540a733656f0d60405160405180910390a45050565b6000828152602081815260408083206001600160a01b038516845290915290205460ff161561031e576000828152602081815260408083206001600160a01b0385168085529252808320805460ff1916905551339285917ff6391f5c32d9c69d2a47ea670b442974b53935d1edc7fd64eb21e047a839171b9190a45050565b600060208284031215610856578081fd5b815161086181610968565b9392505050565b60008060006060848603121561087c578182fd5b833561088781610968565b925060208401359150604084013561089e81610968565b809150509250925092565b6000602082840312156108ba578081fd5b81518015158114610861578182fd5b6000602082840312156108da578081fd5b5035919050565b600080604083850312156108f3578182fd5b82359150602083013561090581610968565b809150509250929050565b600060208284031215610921578081fd5b81357fffffffff0000000000000000000000000000000000000000000000000000000081168114610861578182fd5b600060208284031215610961578081fd5b5051919050565b6001600160a01b038116811461097d57600080fd5b5056fea2646970667358221220dd0c5eed9c51141839597eea7b070986e607e0f1a18eb68caddd531faa9927c264736f6c63430008020033",
  "immutableReferences": {},
  "source": "// SPDX-License-Identifier: MIT\npragma solidity ^0.8.2;\n\nimport \"@openzeppelin/contracts/token/ERC20/ERC20.sol\";\nimport \"@openzeppelin/contracts/token/ERC20/IERC20.sol\";\nimport \"@openzeppelin/contracts/access/AccessControl.sol\";\nimport \"../interfaces/IUniswapV2Pair.sol\";\nimport \"../interfaces/IUniswapV2Factory.sol\";\n\ncontract DefiController is AccessControl {\n    address public linkToken;\n    IUniswapV2Factory public uniswapFactory;\n\n    constructor(address _linkToken, IUniswapV2Factory _uniswapFactory) {\n        linkToken = _linkToken;\n        uniswapFactory = _uniswapFactory;\n    }\n\n    function swapToLink(\n        address _erc20Token,\n        uint256 _amount,\n        address _receiver\n    ) external {\n        IERC20 erc20 = IERC20(_erc20Token);\n        _amount = erc20.balanceOf(address(this));\n        IUniswapV2Pair uniswapPair =\n            IUniswapV2Pair(uniswapFactory.getPair(linkToken, _erc20Token));\n        erc20.transfer(address(uniswapPair), _amount);\n        bool linkFirst = linkToken < _erc20Token;\n        if (linkFirst) {\n            uniswapPair.swap(0, _amount, _receiver, \"\");\n        } else {\n            uniswapPair.swap(_amount, 0, _receiver, \"\");\n        }\n    }\n}\n",
  "sourcePath": "/Users/kstasi/Documents/work/debridge-contracts/contracts/periphery/DefiController.sol",
  "compiler": {
    "name": "solc",
    "version": "0.8.2+commit.661d1103.Emscripten.clang"
  },
  "schemaVersion": "3.3.4",
  "updatedAt": "2021-03-21T15:57:52.189Z",
  "devdoc": {
    "kind": "dev",
    "methods": {
      "getRoleAdmin(bytes32)": {
        "details": "Returns the admin role that controls `role`. See {grantRole} and {revokeRole}. To change a role's admin, use {_setRoleAdmin}."
      },
      "grantRole(bytes32,address)": {
        "details": "Grants `role` to `account`. If `account` had not been already granted `role`, emits a {RoleGranted} event. Requirements: - the caller must have ``role``'s admin role."
      },
      "hasRole(bytes32,address)": {
        "details": "Returns `true` if `account` has been granted `role`."
      },
      "renounceRole(bytes32,address)": {
        "details": "Revokes `role` from the calling account. Roles are often managed via {grantRole} and {revokeRole}: this function's purpose is to provide a mechanism for accounts to lose their privileges if they are compromised (such as when a trusted device is misplaced). If the calling account had been granted `role`, emits a {RoleRevoked} event. Requirements: - the caller must be `account`."
      },
      "revokeRole(bytes32,address)": {
        "details": "Revokes `role` from `account`. If `account` had been granted `role`, emits a {RoleRevoked} event. Requirements: - the caller must have ``role``'s admin role."
      },
      "supportsInterface(bytes4)": {
        "details": "See {IERC165-supportsInterface}."
      }
    },
    "version": 1
  },
  "userdoc": {
    "kind": "user",
    "methods": {},
    "version": 1
  }
}