{
  "contractName": "FeeProxy",
  "abi": [
    {
      "inputs": [
        {
          "internalType": "address",
          "name": "_linkToken",
          "type": "address"
        },
        {
          "internalType": "contract IUniswapV2Factory",
          "name": "_uniswapFactory",
          "type": "address"
        }
      ],
      "stateMutability": "nonpayable",
      "type": "constructor"
    },
    {
      "inputs": [],
      "name": "linkToken",
      "outputs": [
        {
          "internalType": "address",
          "name": "",
          "type": "address"
        }
      ],
      "stateMutability": "view",
      "type": "function",
      "constant": true
    },
    {
      "inputs": [],
      "name": "uniswapFactory",
      "outputs": [
        {
          "internalType": "contract IUniswapV2Factory",
          "name": "",
          "type": "address"
        }
      ],
      "stateMutability": "view",
      "type": "function",
      "constant": true
    },
    {
      "inputs": [
        {
          "internalType": "address",
          "name": "_erc20Token",
          "type": "address"
        },
        {
          "internalType": "uint256",
          "name": "_amount",
          "type": "uint256"
        },
        {
          "internalType": "address",
          "name": "_receiver",
          "type": "address"
        }
      ],
      "name": "swapToLink",
      "outputs": [],
      "stateMutability": "nonpayable",
      "type": "function"
    }
  ],
  "bytecode": "0x608060405234801561001057600080fd5b5060405161053838038061053883398101604081905261002f91610060565b600080546001600160a01b039384166001600160a01b031991821617909155600180549290931691161790556100b1565b60008060408385031215610072578182fd5b825161007d81610099565b602084015190925061008e81610099565b809150509250929050565b6001600160a01b03811681146100ae57600080fd5b50565b610478806100c06000396000f3fe608060405234801561001057600080fd5b50600436106100415760003560e01c806357970e93146100465780638bdb2afa14610075578063d66a30a814610088575b600080fd5b600054610059906001600160a01b031681565b6040516001600160a01b03909116815260200160405180910390f35b600154610059906001600160a01b031681565b61009b6100963660046103b1565b61009d565b005b6040517f70a0823100000000000000000000000000000000000000000000000000000000815230600482015283906001600160a01b038216906370a082319060240160206040518083038186803b1580156100f757600080fd5b505afa15801561010b573d6000803e3d6000fd5b505050506040513d601f19601f8201168201806040525081019061012f9190610412565b600154600080546040517fe6a439050000000000000000000000000000000000000000000000000000000081526001600160a01b0391821660048201528882166024820152939650909291169063e6a439059060440160206040518083038186803b15801561019d57600080fd5b505afa1580156101b1573d6000803e3d6000fd5b505050506040513d601f19601f820116820180604052508101906101d5919061038e565b6040517fa9059cbb0000000000000000000000000000000000000000000000000000000081526001600160a01b038083166004830152602482018790529192509083169063a9059cbb90604401602060405180830381600087803b15801561023c57600080fd5b505af1158015610250573d6000803e3d6000fd5b505050506040513d601f19601f8201168201806040525081019061027491906103f2565b506000546001600160a01b03808716911610801561030b5760405163022c0d9f60e01b8152600060048201819052602482018790526001600160a01b03868116604484015260806064840152608483019190915283169063022c0d9f9060a401600060405180830381600087803b1580156102ee57600080fd5b505af1158015610302573d6000803e3d6000fd5b50505050610386565b60405163022c0d9f60e01b8152600481018690526000602482018190526001600160a01b03868116604484015260806064840152608483019190915283169063022c0d9f9060a401600060405180830381600087803b15801561036d57600080fd5b505af1158015610381573d6000803e3d6000fd5b505050505b505050505050565b60006020828403121561039f578081fd5b81516103aa8161042a565b9392505050565b6000806000606084860312156103c5578182fd5b83356103d08161042a565b92506020840135915060408401356103e78161042a565b809150509250925092565b600060208284031215610403578081fd5b815180151581146103aa578182fd5b600060208284031215610423578081fd5b5051919050565b6001600160a01b038116811461043f57600080fd5b5056fea2646970667358221220d08535a4b5ddaba8d82caee3a63bafedbecb8b3598f3d697bb29971cc9c258dc64736f6c63430008020033",
  "immutableReferences": {},
  "source": "// SPDX-License-Identifier: MIT\npragma solidity ^0.8.2;\n\nimport \"@openzeppelin/contracts/token/ERC20/IERC20.sol\";\nimport \"../interfaces/IUniswapV2Pair.sol\";\nimport \"../interfaces/IUniswapV2Factory.sol\";\n\ncontract FeeProxy {\n    address public linkToken;\n    IUniswapV2Factory public uniswapFactory;\n\n    constructor(address _linkToken, IUniswapV2Factory _uniswapFactory) {\n        linkToken = _linkToken;\n        uniswapFactory = _uniswapFactory;\n    }\n\n    function swapToLink(\n        address _erc20Token,\n        uint256 _amount,\n        address _receiver\n    ) external {\n        IERC20 erc20 = IERC20(_erc20Token);\n        _amount = erc20.balanceOf(address(this));\n        IUniswapV2Pair uniswapPair =\n            IUniswapV2Pair(uniswapFactory.getPair(linkToken, _erc20Token));\n        erc20.transfer(address(uniswapPair), _amount);\n        bool linkFirst = linkToken < _erc20Token;\n        if (linkFirst) {\n            uniswapPair.swap(0, _amount, _receiver, \"\");\n        } else {\n            uniswapPair.swap(_amount, 0, _receiver, \"\");\n        }\n    }\n}\n",
  "sourcePath": "/Users/kstasi/Documents/side/debridge-contracts/contracts/periphery/FeeProxy.sol",
  "compiler": {
    "name": "solc",
    "version": "0.8.2+commit.661d1103.Emscripten.clang"
  },
  "schemaVersion": "3.3.4",
  "updatedAt": "2021-03-23T01:58:04.617Z",
  "networkType": "ethereum",
  "devdoc": {
    "kind": "dev",
    "methods": {},
    "version": 1
  },
  "userdoc": {
    "kind": "user",
    "methods": {},
    "version": 1
  }
}