{
  "contractName": "FeeProxy",
  "abi": [
    {
      "inputs": [
        {
          "internalType": "address",
          "name": "_linkToken",
          "type": "address"
        },
        {
          "internalType": "contract IUniswapV2Factory",
          "name": "_uniswapFactory",
          "type": "address"
        }
      ],
      "stateMutability": "nonpayable",
      "type": "constructor"
    },
    {
      "inputs": [],
      "name": "linkToken",
      "outputs": [
        {
          "internalType": "address",
          "name": "",
          "type": "address"
        }
      ],
      "stateMutability": "view",
      "type": "function"
    },
    {
      "inputs": [],
      "name": "uniswapFactory",
      "outputs": [
        {
          "internalType": "contract IUniswapV2Factory",
          "name": "",
          "type": "address"
        }
      ],
      "stateMutability": "view",
      "type": "function"
    },
    {
      "inputs": [
        {
          "internalType": "address",
          "name": "_erc20Token",
          "type": "address"
        },
        {
          "internalType": "address",
          "name": "_receiver",
          "type": "address"
        }
      ],
      "name": "swapToLink",
      "outputs": [],
      "stateMutability": "nonpayable",
      "type": "function"
    }
  ],
  "bytecode": "0x608060405234801561001057600080fd5b5060405161079538038061079583398101604081905261002f91610060565b600080546001600160a01b039384166001600160a01b031991821617909155600180549290931691161790556100b1565b60008060408385031215610072578182fd5b825161007d81610099565b602084015190925061008e81610099565b809150509250929050565b6001600160a01b03811681146100ae57600080fd5b50565b6106d5806100c06000396000f3fe608060405234801561001057600080fd5b50600436106100415760003560e01c806357970e931461004657806362785b65146100755780638bdb2afa1461008a575b600080fd5b600054610059906001600160a01b031681565b6040516001600160a01b03909116815260200160405180910390f35b61008861008336600461055c565b61009d565b005b600154610059906001600160a01b031681565b6040516370a0823160e01b815230600482015282906000906001600160a01b038316906370a082319060240160206040518083038186803b1580156100e157600080fd5b505afa1580156100f5573d6000803e3d6000fd5b505050506040513d601f19601f820116820180604052508101906101199190610602565b6001546000805460405163e6a4390560e01b81526001600160a01b0391821660048201528882166024820152939450909291169063e6a439059060440160206040518083038186803b15801561016e57600080fd5b505afa158015610182573d6000803e3d6000fd5b505050506040513d601f19601f820116820180604052508101906101a69190610539565b60405163a9059cbb60e01b81526001600160a01b038083166004830152602482018590529192509084169063a9059cbb90604401602060405180830381600087803b1580156101f457600080fd5b505af1158015610208573d6000803e3d6000fd5b505050506040513d601f19601f8201168201806040525081019061022c9190610594565b506000856001600160a01b031660008054906101000a90046001600160a01b03166001600160a01b0316109050600080836001600160a01b0316630902f1ac6040518163ffffffff1660e01b815260040160606040518083038186803b15801561029557600080fd5b505afa1580156102a9573d6000803e3d6000fd5b505050506040513d601f19601f820116820180604052508101906102cd91906105b4565b506001600160701b031691506001600160701b03169150821561037b5760006102f7868385610412565b60405163022c0d9f60e01b8152600481018290526000602482018190526001600160a01b038b811660448401526080606484015260848301919091529192509086169063022c0d9f9060a401600060405180830381600087803b15801561035d57600080fd5b505af1158015610371573d6000803e3d6000fd5b5050505050610408565b6000610388868484610412565b60405163022c0d9f60e01b8152600060048201819052602482018390526001600160a01b038b811660448401526080606484015260848301919091529192509086169063022c0d9f9060a401600060405180830381600087803b1580156103ee57600080fd5b505af1158015610402573d6000803e3d6000fd5b50505050505b5050505050505050565b60008084116104685760405162461bcd60e51b815260206004820152601f60248201527f676574416d6f756e744f75743a20696e7375666669656e7420616d6f756e740060448201526064015b60405180910390fd5b6000831180156104785750600082115b6104cf5760405162461bcd60e51b815260206004820152602260248201527f676574416d6f756e744f75743a20696e7375666669656e74206c697175696469604482015261747960f01b606482015260840161045f565b60006104dd856103e5610652565b905060006104eb8483610652565b90506000826104fc876103e8610652565b610506919061061a565b90506105128183610632565b979650505050505050565b80516001600160701b038116811461053457600080fd5b919050565b60006020828403121561054a578081fd5b815161055581610687565b9392505050565b6000806040838503121561056e578081fd5b823561057981610687565b9150602083013561058981610687565b809150509250929050565b6000602082840312156105a5578081fd5b81518015158114610555578182fd5b6000806000606084860312156105c8578081fd5b6105d18461051d565b92506105df6020850161051d565b9150604084015163ffffffff811681146105f7578182fd5b809150509250925092565b600060208284031215610613578081fd5b5051919050565b6000821982111561062d5761062d610671565b500190565b60008261064d57634e487b7160e01b81526012600452602481fd5b500490565b600081600019048311821515161561066c5761066c610671565b500290565b634e487b7160e01b600052601160045260246000fd5b6001600160a01b038116811461069c57600080fd5b5056fea264697066735822122044a304f7e5191a651c8019a7ecd86f6a67a308e2eef39532e40fe026af29888764736f6c63430008020033",
  "immutableReferences": {},
  "source": "// SPDX-License-Identifier: MIT\r\npragma solidity ^0.8.2;\r\n\r\nimport \"@openzeppelin/contracts/token/ERC20/IERC20.sol\";\r\nimport \"../interfaces/IUniswapV2Pair.sol\";\r\nimport \"../interfaces/IUniswapV2Factory.sol\";\r\nimport \"../interfaces/IFeeProxy.sol\";\r\n\r\ncontract FeeProxy is IFeeProxy{\r\n    address public linkToken;\r\n    IUniswapV2Factory public uniswapFactory;\r\n\r\n    constructor(address _linkToken, IUniswapV2Factory _uniswapFactory) {\r\n        linkToken = _linkToken;\r\n        uniswapFactory = _uniswapFactory;\r\n    }\r\n\r\n    function getAmountOut(\r\n        uint256 amountIn,\r\n        uint256 reserveIn,\r\n        uint256 reserveOut\r\n    ) internal pure returns (uint256 amountOut) {\r\n        require(amountIn > 0, \"getAmountOut: insuffient amount\");\r\n        require(\r\n            reserveIn > 0 && reserveOut > 0,\r\n            \"getAmountOut: insuffient liquidity\"\r\n        );\r\n        uint256 amountInWithFee = amountIn * 997;\r\n        uint256 numerator = amountInWithFee * reserveOut;\r\n        uint256 denominator = reserveIn * 1000 + amountInWithFee;\r\n        amountOut = numerator / denominator;\r\n    }\r\n\r\n    function swapToLink(\r\n        address _erc20Token,\r\n        address _receiver\r\n    ) external override{\r\n        IERC20 erc20 = IERC20(_erc20Token);\r\n        uint256 _amount = erc20.balanceOf(address(this));\r\n        IUniswapV2Pair uniswapPair =\r\n            IUniswapV2Pair(uniswapFactory.getPair(linkToken, _erc20Token));\r\n        erc20.transfer(address(uniswapPair), _amount);\r\n        bool linkFirst = linkToken < _erc20Token;\r\n        (uint256 reserve0, uint256 reserve1, ) = uniswapPair.getReserves();\r\n        if (linkFirst) {\r\n            uint256 amountOut = getAmountOut(_amount, reserve1, reserve0);\r\n            uniswapPair.swap(amountOut, 0, _receiver, \"\");\r\n        } else {\r\n            uint256 amountOut = getAmountOut(_amount, reserve0, reserve1);\r\n            uniswapPair.swap(0, amountOut, _receiver, \"\");\r\n        }\r\n    }\r\n}\r\n",
  "sourcePath": "D:/Projects/Debridge/debridge-contracts-v1/contracts/periphery/FeeProxy.sol",
  "compiler": {
    "name": "solc",
    "version": "0.8.2+commit.661d1103.Emscripten.clang"
  },
  "schemaVersion": "3.3.4",
  "updatedAt": "2021-07-18T21:07:26.200Z",
  "devdoc": {
    "kind": "dev",
    "methods": {},
    "version": 1
  },
  "userdoc": {
    "kind": "user",
    "methods": {},
    "version": 1
  }
}