{
  "contractName": "FeeProxy",
  "abi": [
    {
      "inputs": [
        {
          "internalType": "address",
          "name": "_linkToken",
          "type": "address"
        },
        {
          "internalType": "contract IUniswapV2Factory",
          "name": "_uniswapFactory",
          "type": "address"
        }
      ],
      "stateMutability": "nonpayable",
      "type": "constructor"
    },
    {
      "inputs": [],
      "name": "linkToken",
      "outputs": [
        {
          "internalType": "address",
          "name": "",
          "type": "address"
        }
      ],
      "stateMutability": "view",
      "type": "function"
    },
    {
      "inputs": [],
      "name": "uniswapFactory",
      "outputs": [
        {
          "internalType": "contract IUniswapV2Factory",
          "name": "",
          "type": "address"
        }
      ],
      "stateMutability": "view",
      "type": "function"
    },
    {
      "inputs": [
        {
          "internalType": "address",
          "name": "_erc20Token",
          "type": "address"
        },
        {
          "internalType": "uint256",
          "name": "_amount",
          "type": "uint256"
        },
        {
          "internalType": "address",
          "name": "_receiver",
          "type": "address"
        }
      ],
      "name": "swapToLink",
      "outputs": [],
      "stateMutability": "nonpayable",
      "type": "function"
    }
  ],
  "bytecode": "0x608060405234801561001057600080fd5b5060405161079038038061079083398101604081905261002f91610060565b600080546001600160a01b039384166001600160a01b031991821617909155600180549290931691161790556100b1565b60008060408385031215610072578182fd5b825161007d81610099565b602084015190925061008e81610099565b809150509250929050565b6001600160a01b03811681146100ae57600080fd5b50565b6106d0806100c06000396000f3fe608060405234801561001057600080fd5b50600436106100415760003560e01c806357970e93146100465780638bdb2afa14610075578063d66a30a814610088575b600080fd5b600054610059906001600160a01b031681565b6040516001600160a01b03909116815260200160405180910390f35b600154610059906001600160a01b031681565b61009b610096366004610559565b61009d565b005b6040516370a0823160e01b815230600482015283906001600160a01b038216906370a082319060240160206040518083038186803b1580156100de57600080fd5b505afa1580156100f2573d6000803e3d6000fd5b505050506040513d601f19601f8201168201806040525081019061011691906105fd565b6001546000805460405163e6a4390560e01b81526001600160a01b0391821660048201528882166024820152939650909291169063e6a439059060440160206040518083038186803b15801561016b57600080fd5b505afa15801561017f573d6000803e3d6000fd5b505050506040513d601f19601f820116820180604052508101906101a39190610536565b60405163a9059cbb60e01b81526001600160a01b038083166004830152602482018790529192509083169063a9059cbb90604401602060405180830381600087803b1580156101f157600080fd5b505af1158015610205573d6000803e3d6000fd5b505050506040513d601f19601f82011682018060405250810190610229919061059a565b506000856001600160a01b031660008054906101000a90046001600160a01b03166001600160a01b0316109050600080836001600160a01b0316630902f1ac6040518163ffffffff1660e01b815260040160606040518083038186803b15801561029257600080fd5b505afa1580156102a6573d6000803e3d6000fd5b505050506040513d601f19601f820116820180604052508101906102ca91906105ba565b506001600160701b031691506001600160701b0316915082156103785760006102f488838561040f565b60405163022c0d9f60e01b8152600481018290526000602482018190526001600160a01b038a811660448401526080606484015260848301919091529192509086169063022c0d9f9060a401600060405180830381600087803b15801561035a57600080fd5b505af115801561036e573d6000803e3d6000fd5b5050505050610405565b600061038588848461040f565b60405163022c0d9f60e01b8152600060048201819052602482018390526001600160a01b038a811660448401526080606484015260848301919091529192509086169063022c0d9f9060a401600060405180830381600087803b1580156103eb57600080fd5b505af11580156103ff573d6000803e3d6000fd5b50505050505b5050505050505050565b60008084116104655760405162461bcd60e51b815260206004820152601f60248201527f676574416d6f756e744f75743a20696e7375666669656e7420616d6f756e740060448201526064015b60405180910390fd5b6000831180156104755750600082115b6104cc5760405162461bcd60e51b815260206004820152602260248201527f676574416d6f756e744f75743a20696e7375666669656e74206c697175696469604482015261747960f01b606482015260840161045c565b60006104da856103e561064d565b905060006104e8848361064d565b90506000826104f9876103e861064d565b6105039190610615565b905061050f818361062d565b979650505050505050565b80516001600160701b038116811461053157600080fd5b919050565b600060208284031215610547578081fd5b815161055281610682565b9392505050565b60008060006060848603121561056d578182fd5b833561057881610682565b925060208401359150604084013561058f81610682565b809150509250925092565b6000602082840312156105ab578081fd5b81518015158114610552578182fd5b6000806000606084860312156105ce578283fd5b6105d78461051a565b92506105e56020850161051a565b9150604084015163ffffffff8116811461058f578182fd5b60006020828403121561060e578081fd5b5051919050565b600082198211156106285761062861066c565b500190565b60008261064857634e487b7160e01b81526012600452602481fd5b500490565b60008160001904831182151516156106675761066761066c565b500290565b634e487b7160e01b600052601160045260246000fd5b6001600160a01b038116811461069757600080fd5b5056fea264697066735822122006d48928f999ea2c5c8779a0f57bb75d1da54febb3a32cf0ab7dce568ef99ef064736f6c63430008020033",
  "immutableReferences": {},
  "source": "// SPDX-License-Identifier: MIT\npragma solidity ^0.8.2;\n\nimport \"@openzeppelin/contracts/token/ERC20/IERC20.sol\";\nimport \"../interfaces/IUniswapV2Pair.sol\";\nimport \"../interfaces/IUniswapV2Factory.sol\";\n\ncontract FeeProxy {\n    address public linkToken;\n    IUniswapV2Factory public uniswapFactory;\n\n    constructor(address _linkToken, IUniswapV2Factory _uniswapFactory) {\n        linkToken = _linkToken;\n        uniswapFactory = _uniswapFactory;\n    }\n\n    function getAmountOut(\n        uint256 amountIn,\n        uint256 reserveIn,\n        uint256 reserveOut\n    ) internal pure returns (uint256 amountOut) {\n        require(amountIn > 0, \"getAmountOut: insuffient amount\");\n        require(\n            reserveIn > 0 && reserveOut > 0,\n            \"getAmountOut: insuffient liquidity\"\n        );\n        uint256 amountInWithFee = amountIn * 997;\n        uint256 numerator = amountInWithFee * reserveOut;\n        uint256 denominator = reserveIn * 1000 + amountInWithFee;\n        amountOut = numerator / denominator;\n    }\n\n    function swapToLink(\n        address _erc20Token,\n        uint256 _amount,\n        address _receiver\n    ) external {\n        IERC20 erc20 = IERC20(_erc20Token);\n        _amount = erc20.balanceOf(address(this));\n        IUniswapV2Pair uniswapPair =\n            IUniswapV2Pair(uniswapFactory.getPair(linkToken, _erc20Token));\n        erc20.transfer(address(uniswapPair), _amount);\n        bool linkFirst = linkToken < _erc20Token;\n        (uint256 reserve0, uint256 reserve1, ) = uniswapPair.getReserves();\n        if (linkFirst) {\n            uint256 amountOut = getAmountOut(_amount, reserve1, reserve0);\n            uniswapPair.swap(amountOut, 0, _receiver, \"\");\n        } else {\n            uint256 amountOut = getAmountOut(_amount, reserve0, reserve1);\n            uniswapPair.swap(0, amountOut, _receiver, \"\");\n        }\n    }\n}\n",
  "sourcePath": "/Users/kstasi/Documents/side/debridge-contracts/contracts/periphery/FeeProxy.sol",
  "compiler": {
    "name": "solc",
    "version": "0.8.2+commit.661d1103.Emscripten.clang"
  },
  "schemaVersion": "3.3.4",
  "updatedAt": "2021-04-20T19:27:19.668Z",
  "devdoc": {
    "kind": "dev",
    "methods": {},
    "version": 1
  },
  "userdoc": {
    "kind": "user",
    "methods": {},
    "version": 1
  }
}