{
  "contractName": "FullAggregator",
  "abi": [
    {
      "inputs": [
        {
          "internalType": "uint256",
          "name": "_minConfirmations",
          "type": "uint256"
        },
        {
          "internalType": "uint256",
          "name": "_confirmationThreshold",
          "type": "uint256"
        },
        {
          "internalType": "uint256",
          "name": "_excessConfirmations",
          "type": "uint256"
        },
        {
          "internalType": "address",
          "name": "_wrappedAssetAdmin",
          "type": "address"
        },
        {
          "internalType": "address",
          "name": "_debridgeAddress",
          "type": "address"
        }
      ],
      "stateMutability": "nonpayable",
      "type": "constructor"
    },
    {
      "anonymous": false,
      "inputs": [
        {
          "indexed": false,
          "internalType": "bytes32",
          "name": "submissionId",
          "type": "bytes32"
        },
        {
          "indexed": false,
          "internalType": "address",
          "name": "operator",
          "type": "address"
        }
      ],
      "name": "Confirmed",
      "type": "event"
    },
    {
      "anonymous": false,
      "inputs": [
        {
          "indexed": false,
          "internalType": "bytes32",
          "name": "deployId",
          "type": "bytes32"
        }
      ],
      "name": "DeployApproved",
      "type": "event"
    },
    {
      "anonymous": false,
      "inputs": [
        {
          "indexed": false,
          "internalType": "bytes32",
          "name": "deployId",
          "type": "bytes32"
        },
        {
          "indexed": false,
          "internalType": "address",
          "name": "operator",
          "type": "address"
        }
      ],
      "name": "DeployConfirmed",
      "type": "event"
    },
    {
      "anonymous": false,
      "inputs": [
        {
          "indexed": true,
          "internalType": "bytes32",
          "name": "role",
          "type": "bytes32"
        },
        {
          "indexed": true,
          "internalType": "bytes32",
          "name": "previousAdminRole",
          "type": "bytes32"
        },
        {
          "indexed": true,
          "internalType": "bytes32",
          "name": "newAdminRole",
          "type": "bytes32"
        }
      ],
      "name": "RoleAdminChanged",
      "type": "event"
    },
    {
      "anonymous": false,
      "inputs": [
        {
          "indexed": true,
          "internalType": "bytes32",
          "name": "role",
          "type": "bytes32"
        },
        {
          "indexed": true,
          "internalType": "address",
          "name": "account",
          "type": "address"
        },
        {
          "indexed": true,
          "internalType": "address",
          "name": "sender",
          "type": "address"
        }
      ],
      "name": "RoleGranted",
      "type": "event"
    },
    {
      "anonymous": false,
      "inputs": [
        {
          "indexed": true,
          "internalType": "bytes32",
          "name": "role",
          "type": "bytes32"
        },
        {
          "indexed": true,
          "internalType": "address",
          "name": "account",
          "type": "address"
        },
        {
          "indexed": true,
          "internalType": "address",
          "name": "sender",
          "type": "address"
        }
      ],
      "name": "RoleRevoked",
      "type": "event"
    },
    {
      "anonymous": false,
      "inputs": [
        {
          "indexed": false,
          "internalType": "bytes32",
          "name": "submissionId",
          "type": "bytes32"
        }
      ],
      "name": "SubmissionApproved",
      "type": "event"
    },
    {
      "inputs": [],
      "name": "DEFAULT_ADMIN_ROLE",
      "outputs": [
        {
          "internalType": "bytes32",
          "name": "",
          "type": "bytes32"
        }
      ],
      "stateMutability": "view",
      "type": "function"
    },
    {
      "inputs": [],
      "name": "ORACLE_ROLE",
      "outputs": [
        {
          "internalType": "bytes32",
          "name": "",
          "type": "bytes32"
        }
      ],
      "stateMutability": "view",
      "type": "function"
    },
    {
      "inputs": [
        {
          "internalType": "address",
          "name": "_oracle",
          "type": "address"
        },
        {
          "internalType": "address",
          "name": "_admin",
          "type": "address"
        }
      ],
      "name": "addOracle",
      "outputs": [],
      "stateMutability": "nonpayable",
      "type": "function"
    },
    {
      "inputs": [],
      "name": "confirmationThreshold",
      "outputs": [
        {
          "internalType": "uint256",
          "name": "",
          "type": "uint256"
        }
      ],
      "stateMutability": "view",
      "type": "function"
    },
    {
      "inputs": [
        {
          "internalType": "bytes32",
          "name": "",
          "type": "bytes32"
        }
      ],
      "name": "confirmedDeployInfo",
      "outputs": [
        {
          "internalType": "bytes32",
          "name": "",
          "type": "bytes32"
        }
      ],
      "stateMutability": "view",
      "type": "function"
    },
    {
      "inputs": [],
      "name": "debridgeAddress",
      "outputs": [
        {
          "internalType": "address",
          "name": "",
          "type": "address"
        }
      ],
      "stateMutability": "view",
      "type": "function"
    },
    {
      "inputs": [],
      "name": "excessConfirmations",
      "outputs": [
        {
          "internalType": "uint256",
          "name": "",
          "type": "uint256"
        }
      ],
      "stateMutability": "view",
      "type": "function"
    },
    {
      "inputs": [
        {
          "internalType": "uint256",
          "name": "",
          "type": "uint256"
        }
      ],
      "name": "getConfirmationsPerBlock",
      "outputs": [
        {
          "internalType": "uint256",
          "name": "count",
          "type": "uint256"
        },
        {
          "internalType": "bool",
          "name": "requireExtraCheck",
          "type": "bool"
        }
      ],
      "stateMutability": "view",
      "type": "function"
    },
    {
      "inputs": [
        {
          "internalType": "uint256",
          "name": "_chainId",
          "type": "uint256"
        },
        {
          "internalType": "address",
          "name": "_tokenAddress",
          "type": "address"
        }
      ],
      "name": "getDebridgeId",
      "outputs": [
        {
          "internalType": "bytes32",
          "name": "",
          "type": "bytes32"
        }
      ],
      "stateMutability": "pure",
      "type": "function"
    },
    {
      "inputs": [
        {
          "internalType": "bytes32",
          "name": "_debridgeId",
          "type": "bytes32"
        },
        {
          "internalType": "string",
          "name": "_name",
          "type": "string"
        },
        {
          "internalType": "string",
          "name": "_symbol",
          "type": "string"
        },
        {
          "internalType": "uint8",
          "name": "_decimals",
          "type": "uint8"
        }
      ],
      "name": "getDeployId",
      "outputs": [
        {
          "internalType": "bytes32",
          "name": "",
          "type": "bytes32"
        }
      ],
      "stateMutability": "pure",
      "type": "function"
    },
    {
      "inputs": [
        {
          "internalType": "bytes32",
          "name": "",
          "type": "bytes32"
        }
      ],
      "name": "getDeployInfo",
      "outputs": [
        {
          "internalType": "address",
          "name": "tokenAddress",
          "type": "address"
        },
        {
          "internalType": "uint256",
          "name": "chainId",
          "type": "uint256"
        },
        {
          "internalType": "string",
          "name": "name",
          "type": "string"
        },
        {
          "internalType": "string",
          "name": "symbol",
          "type": "string"
        },
        {
          "internalType": "uint8",
          "name": "decimals",
          "type": "uint8"
        },
        {
          "internalType": "uint256",
          "name": "confirmations",
          "type": "uint256"
        }
      ],
      "stateMutability": "view",
      "type": "function"
    },
    {
      "inputs": [
        {
          "internalType": "address",
          "name": "",
          "type": "address"
        }
      ],
      "name": "getOracleInfo",
      "outputs": [
        {
          "internalType": "address",
          "name": "admin",
          "type": "address"
        }
      ],
      "stateMutability": "view",
      "type": "function"
    },
    {
      "inputs": [
        {
          "internalType": "bytes32",
          "name": "role",
          "type": "bytes32"
        }
      ],
      "name": "getRoleAdmin",
      "outputs": [
        {
          "internalType": "bytes32",
          "name": "",
          "type": "bytes32"
        }
      ],
      "stateMutability": "view",
      "type": "function"
    },
    {
      "inputs": [
        {
          "internalType": "bytes32",
          "name": "",
          "type": "bytes32"
        }
      ],
      "name": "getSubmissionInfo",
      "outputs": [
        {
          "internalType": "uint256",
          "name": "block",
          "type": "uint256"
        },
        {
          "internalType": "uint256",
          "name": "confirmations",
          "type": "uint256"
        }
      ],
      "stateMutability": "view",
      "type": "function"
    },
    {
      "inputs": [
        {
          "internalType": "bytes32",
          "name": "",
          "type": "bytes32"
        }
      ],
      "name": "getWrappedAssetAddress",
      "outputs": [
        {
          "internalType": "address",
          "name": "",
          "type": "address"
        }
      ],
      "stateMutability": "view",
      "type": "function"
    },
    {
      "inputs": [
        {
          "internalType": "bytes32",
          "name": "role",
          "type": "bytes32"
        },
        {
          "internalType": "address",
          "name": "account",
          "type": "address"
        }
      ],
      "name": "grantRole",
      "outputs": [],
      "stateMutability": "nonpayable",
      "type": "function"
    },
    {
      "inputs": [
        {
          "internalType": "bytes32",
          "name": "role",
          "type": "bytes32"
        },
        {
          "internalType": "address",
          "name": "account",
          "type": "address"
        }
      ],
      "name": "hasRole",
      "outputs": [
        {
          "internalType": "bool",
          "name": "",
          "type": "bool"
        }
      ],
      "stateMutability": "view",
      "type": "function"
    },
    {
      "inputs": [],
      "name": "minConfirmations",
      "outputs": [
        {
          "internalType": "uint256",
          "name": "",
          "type": "uint256"
        }
      ],
      "stateMutability": "view",
      "type": "function"
    },
    {
      "inputs": [
        {
          "internalType": "address",
          "name": "_oracle",
          "type": "address"
        }
      ],
      "name": "removeOracle",
      "outputs": [],
      "stateMutability": "nonpayable",
      "type": "function"
    },
    {
      "inputs": [
        {
          "internalType": "bytes32",
          "name": "role",
          "type": "bytes32"
        },
        {
          "internalType": "address",
          "name": "account",
          "type": "address"
        }
      ],
      "name": "renounceRole",
      "outputs": [],
      "stateMutability": "nonpayable",
      "type": "function"
    },
    {
      "inputs": [
        {
          "internalType": "bytes32",
          "name": "role",
          "type": "bytes32"
        },
        {
          "internalType": "address",
          "name": "account",
          "type": "address"
        }
      ],
      "name": "revokeRole",
      "outputs": [],
      "stateMutability": "nonpayable",
      "type": "function"
    },
    {
      "inputs": [
        {
          "internalType": "uint256",
          "name": "_minConfirmations",
          "type": "uint256"
        }
      ],
      "name": "setMinConfirmations",
      "outputs": [],
      "stateMutability": "nonpayable",
      "type": "function"
    },
    {
      "inputs": [
        {
          "internalType": "bytes4",
          "name": "interfaceId",
          "type": "bytes4"
        }
      ],
      "name": "supportsInterface",
      "outputs": [
        {
          "internalType": "bool",
          "name": "",
          "type": "bool"
        }
      ],
      "stateMutability": "view",
      "type": "function"
    },
    {
      "inputs": [
        {
          "internalType": "address",
          "name": "_oracle",
          "type": "address"
        },
        {
          "internalType": "address",
          "name": "_newOracleAdmin",
          "type": "address"
        }
      ],
      "name": "updateOracleAdmin",
      "outputs": [],
      "stateMutability": "nonpayable",
      "type": "function"
    },
    {
      "inputs": [],
      "name": "wrappedAssetAdmin",
      "outputs": [
        {
          "internalType": "address",
          "name": "",
          "type": "address"
        }
      ],
      "stateMutability": "view",
      "type": "function"
    },
    {
      "inputs": [
        {
          "internalType": "bytes32[]",
          "name": "_submissionIds",
          "type": "bytes32[]"
        }
      ],
      "name": "submitMany",
      "outputs": [],
      "stateMutability": "nonpayable",
      "type": "function"
    },
    {
      "inputs": [
        {
          "internalType": "address",
          "name": "_tokenAddress",
          "type": "address"
        },
        {
          "internalType": "uint256",
          "name": "_chainId",
          "type": "uint256"
        },
        {
          "internalType": "string",
          "name": "_name",
          "type": "string"
        },
        {
          "internalType": "string",
          "name": "_symbol",
          "type": "string"
        },
        {
          "internalType": "uint8",
          "name": "_decimals",
          "type": "uint8"
        }
      ],
      "name": "confirmNewAsset",
      "outputs": [],
      "stateMutability": "nonpayable",
      "type": "function"
    },
    {
      "inputs": [
        {
          "internalType": "bytes32",
          "name": "_debridgeId",
          "type": "bytes32"
        }
      ],
      "name": "deployAsset",
      "outputs": [
        {
          "internalType": "address",
          "name": "wrappedAssetAddress",
          "type": "address"
        },
        {
          "internalType": "uint256",
          "name": "nativeChainId",
          "type": "uint256"
        }
      ],
      "stateMutability": "nonpayable",
      "type": "function"
    },
    {
      "inputs": [
        {
          "internalType": "bytes32",
          "name": "_submissionId",
          "type": "bytes32"
        }
      ],
      "name": "submit",
      "outputs": [],
      "stateMutability": "nonpayable",
      "type": "function"
    },
    {
      "inputs": [
        {
          "internalType": "uint256",
          "name": "_excessConfirmations",
          "type": "uint256"
        }
      ],
      "name": "setExcessConfirmations",
      "outputs": [],
      "stateMutability": "nonpayable",
      "type": "function"
    },
    {
      "inputs": [
        {
          "internalType": "uint256",
          "name": "_confirmationThreshold",
          "type": "uint256"
        }
      ],
      "name": "setThreshold",
      "outputs": [],
      "stateMutability": "nonpayable",
      "type": "function"
    },
    {
      "inputs": [
        {
          "internalType": "address",
          "name": "_wrappedAssetAdmin",
          "type": "address"
        }
      ],
      "name": "setWrappedAssetAdmin",
      "outputs": [],
      "stateMutability": "nonpayable",
      "type": "function"
    },
    {
      "inputs": [
        {
          "internalType": "address",
          "name": "_debridgeAddress",
          "type": "address"
        }
      ],
      "name": "setDebridgeAddress",
      "outputs": [],
      "stateMutability": "nonpayable",
      "type": "function"
    },
    {
      "inputs": [
        {
          "internalType": "bytes32",
          "name": "_submissionId",
          "type": "bytes32"
        }
      ],
      "name": "getSubmissionConfirmations",
      "outputs": [
        {
          "internalType": "uint256",
          "name": "_confirmations",
          "type": "uint256"
        },
        {
          "internalType": "bool",
          "name": "_blockConfirmationPassed",
          "type": "bool"
        }
      ],
      "stateMutability": "view",
      "type": "function"
    }
  ],
  "bytecode": "0x60806040523480156200001157600080fd5b506040516200383138038062003831833981016040819052620000349162000180565b60018590558462000047600033620000b3565b620000737f68e79a7bf1e0bc45d0a330c573bc367f9cf464fd326078812f301165fbda4ef133620000b3565b50600393909355600491909155600580546001600160a01b039283166001600160a01b0319918216179091556006805492909316911617905550620001d4565b620000bf8282620000c3565b5050565b6000828152602081815260408083206001600160a01b038516845290915290205460ff16620000bf576000828152602081815260408083206001600160a01b03851684529091529020805460ff191660011790556200011f3390565b6001600160a01b0316816001600160a01b0316837f2f8788117e7eff1d82e926ec794901d17c78024a50270940304540a733656f0d60405160405180910390a45050565b80516001600160a01b03811681146200017b57600080fd5b919050565b600080600080600060a0868803121562000198578081fd5b855194506020860151935060408601519250620001b86060870162000163565b9150620001c86080870162000163565b90509295509295909350565b61364d80620001e46000396000f3fe60806040523480156200001157600080fd5b5060043610620002385760003560e01c8063a217fddf1162000135578063d282165511620000bd578063e7c4393e1162000087578063e7c4393e14620005c4578063f0ca4adb14620005ce578063f122267414620005e5578063fceb17eb14620005fc578063fdc85fc414620006065762000238565b8063d28216551462000568578063d547741f146200057f578063d9caa3d21462000596578063e75a592614620005ad5762000238565b8063bfdb6b0411620000ff578063bfdb6b0414620004fa578063c1eef5831462000526578063c4e73377146200053d578063d19c3dd814620005515762000238565b8063a217fddf14620004a3578063addd6f5a14620004ac578063b504922614620004d9578063b9b5565214620004f05762000238565b80632f2ff15d11620001c557806362d45bbd116200018f57806362d45bbd146200042457806391d148541462000447578063960bfe04146200045e5780639682b909146200047557806397daa4f7146200048c5762000238565b80632f2ff15d146200039457806336568abe14620003ab5780633be98a1b14620003c25780635db7c67314620003ed5762000238565b80630e3b90a911620002075780630e3b90a914620002e857806321c277311462000328578063248a9ca314620003555780632c1827ba146200037b5762000238565b806301ffc9a7146200023d57806307e2cea51462000269578063097694d1146200028f5780630da79b9314620002bc575b600080fd5b620002546200024e366004620018da565b6200061d565b60405190151581526020015b60405180910390f35b62000280600080516020620035f883398151915281565b60405190815260200162000260565b600554620002a3906001600160a01b031681565b6040516001600160a01b03909116815260200162000260565b620002a3620002cd36600462001818565b6009602052600090815260409020546001600160a01b031681565b62000312620002f936600462001818565b600a602052600090815260409020805460019091015482565b6040805192835260208301919091520162000260565b6200033f6200033936600462001818565b62000657565b6040805192835290151560208301520162000260565b620002806200036636600462001818565b60009081526020819052604090206001015490565b620003926200038c36600462001818565b620006a5565b005b62000392620003a536600462001831565b620006df565b62000392620003bc36600462001831565b62000774565b620003d9620003d336600462001818565b620007f2565b604051620002609695949392919062001a35565b62000404620003fe36600462001818565b62000955565b604080516001600160a01b03909316835260208301919091520162000260565b620002806200043536600462001818565b60076020526000908152604090205481565b620002546200045836600462001831565b62000c15565b620003926200046f36600462001818565b62000c3e565b620002806200048636600462001831565b62000c6f565b620003926200049d36600462001766565b62000cbe565b62000280600081565b6200033f620004bd36600462001818565b600b602052600090815260409020805460019091015460ff1682565b62000392620004ea36600462001674565b62000d4d565b6200028060045481565b620002a36200050b36600462001674565b6002602052600090815260409020546001600160a01b031681565b620003926200053736600462001674565b62000d9b565b600654620002a3906001600160a01b031681565b620002806200056236600462001856565b62000de9565b620003926200057936600462001818565b62000e24565b620003926200059036600462001831565b62000e55565b62000392620005a736600462001818565b62000ed9565b62000392620005be36600462001698565b62000f21565b6200028060015481565b62000392620005df36600462001698565b62000fcc565b62000392620005f6366004620016cf565b62001013565b6200028060035481565b620003926200061736600462001674565b62001246565b60006001600160e01b03198216637965db0b60e01b14806200064f57506301ffc9a760e01b6001600160e01b03198316145b90505b919050565b6000818152600a6020908152604080832080548452600b9092528220600180830154908201549093929190849060ff16620006955760015462000699565b6004545b90969410159450505050565b620006b260003362000c15565b620006da5760405162461bcd60e51b8152600401620006d19062001b18565b60405180910390fd5b600455565b600082815260208190526040902060010154620006fe905b3362000458565b620007645760405162461bcd60e51b815260206004820152602f60248201527f416363657373436f6e74726f6c3a2073656e646572206d75737420626520616e60448201526e0818591b5a5b881d1bc819dc985b9d608a1b6064820152608401620006d1565b6200077082826200128d565b5050565b6001600160a01b0381163314620007e65760405162461bcd60e51b815260206004820152602f60248201527f416363657373436f6e74726f6c3a2063616e206f6e6c792072656e6f756e636560448201526e103937b632b9903337b91039b2b63360891b6064820152608401620006d1565b62000770828262001315565b6008602052600090815260409020805460018201546002830180546001600160a01b03909316939192620008269062001bf5565b80601f0160208091040260200160405190810160405280929190818152602001828054620008549062001bf5565b8015620008a55780601f106200087957610100808354040283529160200191620008a5565b820191906000526020600020905b8154815290600101906020018083116200088757829003601f168201915b505050505090806003018054620008bc9062001bf5565b80601f0160208091040260200160405190810160405280929190818152602001828054620008ea9062001bf5565b80156200093b5780601f106200090f576101008083540402835291602001916200093b565b820191906000526020600020905b8154815290600101906020018083116200091d57829003601f168201915b505050506004830154600590930154919260ff1691905086565b60065460009081906001600160a01b03163314620009ae5760405162461bcd60e51b81526020600482015260156024820152746465706c6f7941737365743a2062616420726f6c6560581b6044820152606401620006d1565b60008381526007602052604090205461060f60f31b81141562000a145760405162461bcd60e51b815260206004820152601f60248201527f6465706c6f7941737365743a206e6f7420666f756e64206465706c6f794964006044820152606401620006d1565b60008181526008602090815260408083208784526009909252909120546001600160a01b03161562000a895760405162461bcd60e51b815260206004820152601d60248201527f6465706c6f7941737365743a206465706c6f79656420616c72656164790000006044820152606401620006d1565b6001548160050154101562000ae15760405162461bcd60e51b815260206004820152601a60248201527f6465706c6f7941737365743a206e6f7420636f6e6669726d65640000000000006044820152606401620006d1565b60408051600180825281830190925260009160208083019080368337505060065482519293506001600160a01b03169183915060009062000b3257634e487b7160e01b600052603260045260246000fd5b6001600160a01b03928316602091820292909201015260048301546005546040516000936002870193600388019360ff90911692911690869062000b769062001524565b62000b8695949392919062001a8b565b604051809103906000f08015801562000ba3573d6000803e3d6000fd5b5060008881526009602090815260409182902080546001600160a01b0319166001600160a01b03851617905590518681529192507fbdf72852f61d06eac6e0737d0b63d015cfb4009ef471d1641bba38f7ea91877f910160405180910390a18083600101549550955050505050915091565b6000918252602082815260408084206001600160a01b0393909316845291905290205460ff1690565b62000c4b60003362000c15565b62000c6a5760405162461bcd60e51b8152600401620006d19062001b18565b600355565b6000828260405160200162000ca092919091825260601b6bffffffffffffffffffffffff1916602082015260340190565b60405160208183030381529060405280519060200120905092915050565b62000cd9600080516020620035f88339815191523362000c15565b62000cf85760405162461bcd60e51b8152600401620006d19062001b45565b60005b8151811015620007705762000d3882828151811062000d2a57634e487b7160e01b600052603260045260246000fd5b60200260200101516200137d565b8062000d448162001c32565b91505062000cfb565b62000d5a60003362000c15565b62000d795760405162461bcd60e51b8152600401620006d19062001b18565b600680546001600160a01b0319166001600160a01b0392909216919091179055565b62000da860003362000c15565b62000dc75760405162461bcd60e51b8152600401620006d19062001b18565b600580546001600160a01b0319166001600160a01b0392909216919091179055565b60008484848460405160200162000e049493929190620019d8565b604051602081830303815290604052805190602001209050949350505050565b62000e3160003362000c15565b62000e505760405162461bcd60e51b8152600401620006d19062001b18565b600155565b60008281526020819052604090206001015462000e7290620006f7565b620007e65760405162461bcd60e51b815260206004820152603060248201527f416363657373436f6e74726f6c3a2073656e646572206d75737420626520616e60448201526f2061646d696e20746f207265766f6b6560801b6064820152608401620006d1565b62000ef4600080516020620035f88339815191523362000c15565b62000f135760405162461bcd60e51b8152600401620006d19062001b45565b62000f1e816200137d565b50565b6001600160a01b0382811660009081526002602052604090205416331462000f9e5760405162461bcd60e51b815260206004820152602960248201527f7570646174654f7261636c6541646d696e3a206f6e6c792063616c6c61626c6560448201526810313c9030b236b4b760b91b6064820152608401620006d1565b6001600160a01b03918216600090815260026020526040902080546001600160a01b03191691909216179055565b62000fd960003362000c15565b62000ff85760405162461bcd60e51b8152600401620006d19062001b18565b62000f9e600080516020620035f883398151915283620006df565b6200102e600080516020620035f88339815191523362000c15565b6200104d5760405162461bcd60e51b8152600401620006d19062001b45565b60006200105b858762000c6f565b905060006200106d8286868662000de9565b6000818152600860209081526040808320868452600990925290912054919250906001600160a01b031615620010e65760405162461bcd60e51b815260206004820152601d60248201527f6465706c6f7941737365743a206465706c6f79656420616c72656164790000006044820152606401620006d1565b33600090815260068201602052604090205460ff16156200114a5760405162461bcd60e51b815260206004820152601e60248201527f6465706c6f7941737365743a207375626d697474656420616c726561647900006044820152606401620006d1565b855162001161906002830190602089019062001532565b50845162001179906003830190602088019062001532565b5080546001600160a01b0319166001600160a01b038916178155600180820188905560048201805460ff191660ff8716179055600582018054600090620011c290849062001ba7565b90915550503360009081526006820160205260409020805460ff1916600190811790915554600582015410620012045760008381526007602052604090208290555b604080518381523360208201527f17004f09fe70c485ba6464e7469a9daab03f82e51f76f12e62f846e26dbf22e9910160405180910390a15050505050505050565b6200125360003362000c15565b620012725760405162461bcd60e51b8152600401620006d19062001b18565b62000f1e600080516020620035f88339815191528262000e55565b62001299828262000c15565b62000770576000828152602081815260408083206001600160a01b03851684529091529020805460ff19166001179055620012d13390565b6001600160a01b0316816001600160a01b0316837f2f8788117e7eff1d82e926ec794901d17c78024a50270940304540a733656f0d60405160405180910390a45050565b62001321828262000c15565b1562000770576000828152602081815260408083206001600160a01b0385168085529252808320805460ff1916905551339285917ff6391f5c32d9c69d2a47ea670b442974b53935d1edc7fd64eb21e047a839171b9190a45050565b6000818152600a60209081526040808320338452600281019092529091205460ff1615620013ee5760405162461bcd60e51b815260206004820152601960248201527f7375626d69743a207375626d697474656420616c7265616479000000000000006044820152606401620006d1565b600181600101600082825462001405919062001ba7565b90915550503360009081526002820160205260409020805460ff1916600190811790915580549082015410620014e857436000908152600b60209081526040808320858452600281019092529091205460ff16620014b057600181600001600082825462001474919062001ba7565b909155505060008381526002820160205260409020805460ff19166001179055600354815410620014b0576001818101805460ff191690911790555b4382556040518381527f2a6b4960c287d4d53a338f9c9a9f830f37e7b66e67a0a958f68be89a4eeb939d9060200160405180910390a1505b604080518381523360208201527fd4964a7cd99f5c1fa8f2420fb5e1d3bd26eadf16e2658cf2e29a67dfda38601e910160405180910390a15050565b61197b8062001c7d83390190565b828054620015409062001bf5565b90600052602060002090601f016020900481019282620015645760008555620015af565b82601f106200157f57805160ff1916838001178555620015af565b82800160010185558215620015af579182015b82811115620015af57825182559160200191906001019062001592565b50620015bd929150620015c1565b5090565b5b80821115620015bd5760008155600101620015c2565b80356001600160a01b03811681146200065257600080fd5b600082601f83011262001601578081fd5b813567ffffffffffffffff8111156200161e576200161e62001c66565b62001633601f8201601f191660200162001b73565b81815284602083860101111562001648578283fd5b816020850160208301379081016020019190915292915050565b803560ff811681146200065257600080fd5b60006020828403121562001686578081fd5b6200169182620015d8565b9392505050565b60008060408385031215620016ab578081fd5b620016b683620015d8565b9150620016c660208401620015d8565b90509250929050565b600080600080600060a08688031215620016e7578081fd5b620016f286620015d8565b945060208601359350604086013567ffffffffffffffff8082111562001716578283fd5b6200172489838a01620015f0565b945060608801359150808211156200173a578283fd5b506200174988828901620015f0565b9250506200175a6080870162001662565b90509295509295909350565b6000602080838503121562001779578182fd5b823567ffffffffffffffff8082111562001791578384fd5b818501915085601f830112620017a5578384fd5b813581811115620017ba57620017ba62001c66565b8381029150620017cc84830162001b73565b8181528481019084860184860187018a1015620017e7578788fd5b8795505b838610156200180b578035835260019590950194918601918601620017eb565b5098975050505050505050565b6000602082840312156200182a578081fd5b5035919050565b6000806040838503121562001844578182fd5b82359150620016c660208401620015d8565b600080600080608085870312156200186c578384fd5b84359350602085013567ffffffffffffffff808211156200188b578485fd5b6200189988838901620015f0565b94506040870135915080821115620018af578384fd5b50620018be87828801620015f0565b925050620018cf6060860162001662565b905092959194509250565b600060208284031215620018ec578081fd5b81356001600160e01b03198116811462001691578182fd5b600081518084526200191e81602086016020860162001bc2565b601f01601f19169290920160200192915050565b8054600090600281046001808316806200194d57607f831692505b60208084108214156200196e57634e487b7160e01b86526022600452602486fd5b838852602088018280156200198c57600181146200199e57620019cb565b60ff19871682528282019750620019cb565b60008981526020902060005b87811015620019c557815484820152908601908401620019aa565b83019850505b5050505050505092915050565b60008582528451620019f281602085016020890162001bc2565b8083019050845162001a0c81602084016020890162001bc2565b60f89490941b6001600160f81b0319166020919094019081019390935250506021019392505050565b600060018060a01b038816825286602083015260c0604083015262001a5e60c083018762001904565b828103606084015262001a72818762001904565b60ff959095166080840152505060a00152949350505050565b600060a0825262001aa060a083018862001932565b60208382038185015262001ab5828962001932565b60ff881660408601526001600160a01b0387811660608701528582036080870152865180835283880194509091830190855b8181101562001b0757855184168352948401949184019160010162001ae7565b50909b9a5050505050505050505050565b6020808252601390820152726f6e6c7941646d696e3a2062616420726f6c6560681b604082015260600190565b6020808252601490820152736f6e6c794f7261636c653a2062616420726f6c6560601b604082015260600190565b604051601f8201601f1916810167ffffffffffffffff8111828210171562001b9f5762001b9f62001c66565b604052919050565b6000821982111562001bbd5762001bbd62001c50565b500190565b60005b8381101562001bdf57818101518382015260200162001bc5565b8381111562001bef576000848401525b50505050565b60028104600182168062001c0a57607f821691505b6020821081141562001c2c57634e487b7160e01b600052602260045260246000fd5b50919050565b600060001982141562001c495762001c4962001c50565b5060010190565b634e487b7160e01b600052601160045260246000fd5b634e487b7160e01b600052604160045260246000fdfe60806040523480156200001157600080fd5b506040516200197b3803806200197b8339810160408190526200003491620003ac565b8451859085906200004d90600490602085019062000258565b5080516200006390600590602084019062000258565b50506008805460ff191660ff86161790555062000082600083620001a8565b60005b8151811015620000fe57620000e97f9f2df0fed2c77648de5860a4cc508cd0818c85b8b8a1ab4ceeef8d981c8956a6838381518110620000d557634e487b7160e01b600052603260045260246000fd5b6020026020010151620001a860201b60201c565b80620000f5816200054d565b91505062000085565b5050835160209485012060408051808201825260018152603160f81b9087015280517f8b73c3c69bb8fe3d512ecc4cf759cc79239f7b179b0ffacaa9a75d522b39400f81880152808201929092527fc89efdaa54c0f20c7adf612882df0950f5a951637e0307cdcb4c672f298b8bc660608301524660808301523060a0808401919091528151808403909101815260c090920190528051940193909320600655506200058b915050565b620001b48282620001b8565b5050565b6000828152602081815260408083206001600160a01b038516845290915290205460ff16620001b4576000828152602081815260408083206001600160a01b03851684529091529020805460ff19166001179055620002143390565b6001600160a01b0316816001600160a01b0316837f2f8788117e7eff1d82e926ec794901d17c78024a50270940304540a733656f0d60405160405180910390a45050565b828054620002669062000510565b90600052602060002090601f0160209004810192826200028a5760008555620002d5565b82601f10620002a557805160ff1916838001178555620002d5565b82800160010185558215620002d5579182015b82811115620002d5578251825591602001919060010190620002b8565b50620002e3929150620002e7565b5090565b5b80821115620002e35760008155600101620002e8565b80516001600160a01b03811681146200031657600080fd5b919050565b600082601f8301126200032c578081fd5b81516001600160401b0381111562000348576200034862000575565b60206200035e601f8301601f19168201620004dd565b828152858284870101111562000372578384fd5b835b838110156200039157858101830151828201840152820162000374565b83811115620003a257848385840101525b5095945050505050565b600080600080600060a08688031215620003c4578081fd5b85516001600160401b0380821115620003db578283fd5b620003e989838a016200031b565b965060209150818801518181111562000400578384fd5b6200040e8a828b016200031b565b965050604088015160ff8116811462000425578384fd5b94506200043560608901620002fe565b935060808801518181111562000449578384fd5b8801601f81018a136200045a578384fd5b8051828111156200046f576200046f62000575565b838102925062000481848401620004dd565b8181528481019083860185850187018e10156200049c578788fd5b8795505b83861015620004c957620004b481620002fe565b835260019590950194918601918601620004a0565b508096505050505050509295509295909350565b604051601f8201601f191681016001600160401b038111828210171562000508576200050862000575565b604052919050565b6002810460018216806200052557607f821691505b602082108114156200054757634e487b7160e01b600052602260045260246000fd5b50919050565b60006000198214156200056e57634e487b7160e01b81526011600452602481fd5b5060010190565b634e487b7160e01b600052604160045260246000fd5b6113e0806200059b6000396000f3fe608060405234801561001057600080fd5b50600436106101735760003560e01c806340c10f19116100de578063a217fddf11610097578063d505accf11610071578063d505accf14610348578063d53913931461035b578063d547741f14610382578063dd62ed3e1461039557610173565b8063a217fddf1461031a578063a457c2d714610322578063a9059cbb1461033557610173565b806340c10f191461029057806342966c68146102a357806370a08231146102b65780637ecebe00146102df57806391d14854146102ff57806395d89b411461031257610173565b80632f2ff15d116101305780632f2ff15d1461021057806330adf81f14610225578063313ce5671461024c5780633644e5151461026157806336568abe1461026a578063395093511461027d57610173565b806301ffc9a71461017857806306fdde03146101a0578063095ea7b3146101b557806318160ddd146101c857806323b872dd146101da578063248a9ca3146101ed575b600080fd5b61018b610186366004611294565b6103ce565b60405190151581526020015b60405180910390f35b6101a8610407565b60405161019791906112bc565b61018b6101c3366004611231565b610499565b6003545b604051908152602001610197565b61018b6101e8366004611185565b6104af565b6101cc6101fb36600461125a565b60009081526020819052604090206001015490565b61022361021e366004611272565b610565565b005b6101cc7f6e71edae12b1b97f4d1f60370fef10105fa2faae0126114a169c64845d6126c981565b60085460405160ff9091168152602001610197565b6101cc60065481565b610223610278366004611272565b6105f4565b61018b61028b366004611231565b61066e565b61022361029e366004611231565b6106a5565b6102236102b136600461125a565b61071c565b6101cc6102c4366004611132565b6001600160a01b031660009081526001602052604090205490565b6101cc6102ed366004611132565b60076020526000908152604090205481565b61018b61030d366004611272565b610796565b6101a86107bf565b6101cc600081565b61018b610330366004611231565b6107ce565b61018b610343366004611231565b610869565b6102236103563660046111c0565b610876565b6101cc7f9f2df0fed2c77648de5860a4cc508cd0818c85b8b8a1ab4ceeef8d981c8956a681565b610223610390366004611272565b610a87565b6101cc6103a3366004611153565b6001600160a01b03918216600090815260026020908152604080832093909416825291909152205490565b60006001600160e01b03198216637965db0b60e01b14806103ff57506301ffc9a760e01b6001600160e01b03198316145b90505b919050565b6060600480546104169061133e565b80601f01602080910402602001604051908101604052809291908181526020018280546104429061133e565b801561048f5780601f106104645761010080835404028352916020019161048f565b820191906000526020600020905b81548152906001019060200180831161047257829003601f168201915b5050505050905090565b60006104a6338484610b07565b50600192915050565b60006104bc848484610c2c565b6001600160a01b0384166000908152600260209081526040808320338452909152902054828110156105465760405162461bcd60e51b815260206004820152602860248201527f45524332303a207472616e7366657220616d6f756e74206578636565647320616044820152676c6c6f77616e636560c01b60648201526084015b60405180910390fd5b61055a85336105558685611327565b610b07565b506001949350505050565b600082815260208190526040902060010154610582905b3361030d565b6105e65760405162461bcd60e51b815260206004820152602f60248201527f416363657373436f6e74726f6c3a2073656e646572206d75737420626520616e60448201526e0818591b5a5b881d1bc819dc985b9d608a1b606482015260840161053d565b6105f08282610e04565b5050565b6001600160a01b03811633146106645760405162461bcd60e51b815260206004820152602f60248201527f416363657373436f6e74726f6c3a2063616e206f6e6c792072656e6f756e636560448201526e103937b632b9903337b91039b2b63360891b606482015260840161053d565b6105f08282610e88565b3360008181526002602090815260408083206001600160a01b038716845290915281205490916104a691859061055590869061130f565b6106cf7f9f2df0fed2c77648de5860a4cc508cd0818c85b8b8a1ab4ceeef8d981c8956a633610796565b6107125760405162461bcd60e51b81526020600482015260146024820152736f6e6c794d696e7465723a2062616420726f6c6560601b604482015260640161053d565b6105f08282610eed565b6107467f9f2df0fed2c77648de5860a4cc508cd0818c85b8b8a1ab4ceeef8d981c8956a633610796565b6107895760405162461bcd60e51b81526020600482015260146024820152736f6e6c794d696e7465723a2062616420726f6c6560601b604482015260640161053d565b6107933382610fcc565b50565b6000918252602082815260408084206001600160a01b0393909316845291905290205460ff1690565b6060600580546104169061133e565b3360009081526002602090815260408083206001600160a01b0386168452909152812054828110156108505760405162461bcd60e51b815260206004820152602560248201527f45524332303a2064656372656173656420616c6c6f77616e63652062656c6f77604482015264207a65726f60d81b606482015260840161053d565b61085f33856105558685611327565b5060019392505050565b60006104a6338484610c2c565b428410156108b85760405162461bcd60e51b815260206004820152600f60248201526e1c195c9b5a5d0e8811561412549151608a1b604482015260640161053d565b6006546001600160a01b038816600090815260076020526040812080549192917f6e71edae12b1b97f4d1f60370fef10105fa2faae0126114a169c64845d6126c9918b918b918b91908761090b83611379565b909155506040805160208101969096526001600160a01b0394851690860152929091166060840152608083015260a082015260c0810187905260e0016040516020818303038152906040528051906020012060405160200161098492919061190160f01b81526002810192909252602282015260420190565b60408051601f198184030181528282528051602091820120600080855291840180845281905260ff88169284019290925260608301869052608083018590529092509060019060a0016020604051602081039080840390855afa1580156109ef573d6000803e3d6000fd5b5050604051601f1901519150506001600160a01b03811615801590610a255750886001600160a01b0316816001600160a01b0316145b610a715760405162461bcd60e51b815260206004820152601960248201527f7065726d69743a20696e76616c6964207369676e617475726500000000000000604482015260640161053d565b610a7c898989610b07565b505050505050505050565b600082815260208190526040902060010154610aa29061057c565b6106645760405162461bcd60e51b815260206004820152603060248201527f416363657373436f6e74726f6c3a2073656e646572206d75737420626520616e60448201526f2061646d696e20746f207265766f6b6560801b606482015260840161053d565b6001600160a01b038316610b695760405162461bcd60e51b8152602060048201526024808201527f45524332303a20617070726f76652066726f6d20746865207a65726f206164646044820152637265737360e01b606482015260840161053d565b6001600160a01b038216610bca5760405162461bcd60e51b815260206004820152602260248201527f45524332303a20617070726f766520746f20746865207a65726f206164647265604482015261737360f01b606482015260840161053d565b6001600160a01b0383811660008181526002602090815260408083209487168084529482529182902085905590518481527f8c5be1e5ebec7d5bd14f71427d1e84f3dd0314c0f7b2291e5b200ac8c7c3b92591015b60405180910390a3505050565b6001600160a01b038316610c905760405162461bcd60e51b815260206004820152602560248201527f45524332303a207472616e736665722066726f6d20746865207a65726f206164604482015264647265737360d81b606482015260840161053d565b6001600160a01b038216610cf25760405162461bcd60e51b815260206004820152602360248201527f45524332303a207472616e7366657220746f20746865207a65726f206164647260448201526265737360e81b606482015260840161053d565b6001600160a01b03831660009081526001602052604090205481811015610d6a5760405162461bcd60e51b815260206004820152602660248201527f45524332303a207472616e7366657220616d6f756e7420657863656564732062604482015265616c616e636560d01b606482015260840161053d565b610d748282611327565b6001600160a01b038086166000908152600160205260408082209390935590851681529081208054849290610daa90849061130f565b92505081905550826001600160a01b0316846001600160a01b03167fddf252ad1be2c89b69c2b068fc378daa952ba7f163c4a11628f55a4df523b3ef84604051610df691815260200190565b60405180910390a350505050565b610e0e8282610796565b6105f0576000828152602081815260408083206001600160a01b03851684529091529020805460ff19166001179055610e443390565b6001600160a01b0316816001600160a01b0316837f2f8788117e7eff1d82e926ec794901d17c78024a50270940304540a733656f0d60405160405180910390a45050565b610e928282610796565b156105f0576000828152602081815260408083206001600160a01b0385168085529252808320805460ff1916905551339285917ff6391f5c32d9c69d2a47ea670b442974b53935d1edc7fd64eb21e047a839171b9190a45050565b6001600160a01b038216610f435760405162461bcd60e51b815260206004820152601f60248201527f45524332303a206d696e7420746f20746865207a65726f206164647265737300604482015260640161053d565b8060036000828254610f55919061130f565b90915550506001600160a01b03821660009081526001602052604081208054839290610f8290849061130f565b90915550506040518181526001600160a01b038316906000907fddf252ad1be2c89b69c2b068fc378daa952ba7f163c4a11628f55a4df523b3ef9060200160405180910390a35050565b6001600160a01b03821661102c5760405162461bcd60e51b815260206004820152602160248201527f45524332303a206275726e2066726f6d20746865207a65726f206164647265736044820152607360f81b606482015260840161053d565b6001600160a01b038216600090815260016020526040902054818110156110a05760405162461bcd60e51b815260206004820152602260248201527f45524332303a206275726e20616d6f756e7420657863656564732062616c616e604482015261636560f01b606482015260840161053d565b6110aa8282611327565b6001600160a01b038416600090815260016020526040812091909155600380548492906110d8908490611327565b90915550506040518281526000906001600160a01b038516907fddf252ad1be2c89b69c2b068fc378daa952ba7f163c4a11628f55a4df523b3ef90602001610c1f565b80356001600160a01b038116811461040257600080fd5b600060208284031215611143578081fd5b61114c8261111b565b9392505050565b60008060408385031215611165578081fd5b61116e8361111b565b915061117c6020840161111b565b90509250929050565b600080600060608486031215611199578081fd5b6111a28461111b565b92506111b06020850161111b565b9150604084013590509250925092565b600080600080600080600060e0888a0312156111da578283fd5b6111e38861111b565b96506111f16020890161111b565b95506040880135945060608801359350608088013560ff81168114611214578384fd5b9699959850939692959460a0840135945060c09093013592915050565b60008060408385031215611243578182fd5b61124c8361111b565b946020939093013593505050565b60006020828403121561126b578081fd5b5035919050565b60008060408385031215611284578182fd5b8235915061117c6020840161111b565b6000602082840312156112a5578081fd5b81356001600160e01b03198116811461114c578182fd5b6000602080835283518082850152825b818110156112e8578581018301518582016040015282016112cc565b818111156112f95783604083870101525b50601f01601f1916929092016040019392505050565b6000821982111561132257611322611394565b500190565b60008282101561133957611339611394565b500390565b60028104600182168061135257607f821691505b6020821081141561137357634e487b7160e01b600052602260045260246000fd5b50919050565b600060001982141561138d5761138d611394565b5060010190565b634e487b7160e01b600052601160045260246000fdfea2646970667358221220c8acf0b99aea0dd04365bd8d8e23dc4f19536980e5cc769804bd38201ef9275264736f6c6343000802003368e79a7bf1e0bc45d0a330c573bc367f9cf464fd326078812f301165fbda4ef1a2646970667358221220ac7019c06c23e14c147132ec09e8565ce3a917da36944f0b1cead0db6813203b64736f6c63430008020033",
  "immutableReferences": {},
  "source": "// SPDX-License-Identifier: MIT\r\npragma solidity ^0.8.2;\r\n\r\nimport \"@openzeppelin/contracts/access/AccessControl.sol\";\r\nimport \"@openzeppelin/contracts/token/ERC20/IERC20.sol\";\r\nimport \"./Aggregator.sol\";\r\nimport \"../interfaces/IFullAggregator.sol\";\r\nimport \"../periphery/WrappedAsset.sol\";\r\n\r\ncontract FullAggregator is Aggregator, IFullAggregator {\r\n    struct SubmissionInfo {\r\n        uint256 block; // confirmation block\r\n        uint256 confirmations; // received confirmations count\r\n        mapping(address => bool) hasVerified; // verifier => has already voted\r\n    }\r\n    struct DebridgeDeployInfo {\r\n        address tokenAddress;\r\n        uint256 chainId;\r\n        string name;\r\n        string symbol;\r\n        uint8 decimals;\r\n        uint256 confirmations; // received confirmations count\r\n        mapping(address => bool) hasVerified; // verifier => has already voted\r\n    }\r\n    uint256 public confirmationThreshold; // bonus reward for one submission\r\n    uint256 public excessConfirmations; // minimal required confirmations in case of too many confirmations\r\n    address public wrappedAssetAdmin;\r\n    address public debridgeAddress;\r\n\r\n    mapping(bytes32 => bytes32) public confirmedDeployInfo; // debridge Id => deploy Id\r\n    mapping(bytes32 => DebridgeDeployInfo) public getDeployInfo; // mint id => debridge info\r\n    mapping(bytes32 => address) public override getWrappedAssetAddress; // debridge id => wrapped asset address\r\n    mapping(bytes32 => SubmissionInfo) public getSubmissionInfo; // mint id => submission info\r\n    mapping(uint256 => BlockConfirmationsInfo) public getConfirmationsPerBlock; // block => confirmations\r\n\r\n    event Confirmed(bytes32 submissionId, address operator); // emitted once the submission is confirmed by one oracle\r\n    event SubmissionApproved(bytes32 submissionId); // emitted once the submission is confirmed by min required aount of oracles\r\n\r\n    /// @dev Constructor that initializes the most important configurations.\r\n    /// @param _minConfirmations Common confirmations count.\r\n    /// @param _confirmationThreshold Confirmations per block before extra check enabled.\r\n    /// @param _excessConfirmations Confirmations count in case of excess activity.\r\n    constructor(\r\n        uint256 _minConfirmations,\r\n        uint256 _confirmationThreshold,\r\n        uint256 _excessConfirmations,\r\n        address _wrappedAssetAdmin,\r\n        address _debridgeAddress\r\n    )\r\n        Aggregator(\r\n            _minConfirmations\r\n        )\r\n    {\r\n        confirmationThreshold = _confirmationThreshold;\r\n        excessConfirmations = _excessConfirmations;\r\n        wrappedAssetAdmin = _wrappedAssetAdmin;\r\n        debridgeAddress = _debridgeAddress;\r\n    }\r\n\r\n    /// @dev Confirms few transfer requests.\r\n    /// @param _submissionIds Submission identifiers.\r\n    function submitMany(bytes32[] memory _submissionIds)\r\n        external\r\n        override\r\n        onlyOracle\r\n    {\r\n        for (uint256 i; i < _submissionIds.length; i++) {\r\n            _submit(_submissionIds[i]);\r\n        }\r\n    }\r\n\r\n    /// @dev Confirms the transfer request.\r\n    function confirmNewAsset(\r\n        address _tokenAddress,\r\n        uint256 _chainId,\r\n        string memory _name,\r\n        string memory _symbol,\r\n        uint8 _decimals\r\n    ) external onlyOracle {\r\n        bytes32 debridgeId = getDebridgeId(_chainId, _tokenAddress);\r\n        bytes32 deployId = getDeployId(debridgeId, _name, _symbol, _decimals);\r\n        DebridgeDeployInfo storage debridgeInfo = getDeployInfo[deployId];\r\n        require(\r\n            getWrappedAssetAddress[debridgeId] == address(0),\r\n            \"deployAsset: deployed already\"\r\n        );\r\n        require(\r\n            !debridgeInfo.hasVerified[msg.sender],\r\n            \"deployAsset: submitted already\"\r\n        );\r\n        debridgeInfo.name = _name;\r\n        debridgeInfo.symbol = _symbol;\r\n        debridgeInfo.tokenAddress = _tokenAddress;\r\n        debridgeInfo.chainId = _chainId;\r\n        debridgeInfo.decimals = _decimals;\r\n        debridgeInfo.confirmations += 1;\r\n        debridgeInfo.hasVerified[msg.sender] = true;\r\n        //TODO: will be a problem if we will reduce minConfirmations and old deployInfo will not be in confirmedDeployInfo\r\n        if( debridgeInfo.confirmations >= minConfirmations){\r\n            confirmedDeployInfo[debridgeId] = deployId;\r\n        }\r\n\r\n        emit DeployConfirmed(deployId, msg.sender);\r\n    }\r\n\r\n    /// @dev Confirms the transfer request.\r\n    function deployAsset(bytes32 _debridgeId) \r\n            external override\r\n            returns (address wrappedAssetAddress, uint256 nativeChainId){\r\n        require(debridgeAddress == msg.sender, \"deployAsset: bad role\");\r\n\r\n        bytes32 deployId = confirmedDeployInfo[_debridgeId];\r\n        //TODO: check 0x\r\n        require(\r\n            deployId != \"0x\",\r\n            \"deployAsset: not found deployId\"\r\n        );\r\n\r\n        DebridgeDeployInfo storage debridgeInfo = getDeployInfo[deployId];\r\n        require(\r\n            getWrappedAssetAddress[_debridgeId] == address(0),\r\n            \"deployAsset: deployed already\"\r\n        );\r\n        //TODO: can be removed, we already checked in confirmedDeployInfo\r\n        require(\r\n            debridgeInfo.confirmations >= minConfirmations,\r\n            \"deployAsset: not confirmed\"\r\n        );\r\n        address[] memory minters = new address[](1);\r\n        minters[0] = debridgeAddress;\r\n        WrappedAsset wrappedAsset = new WrappedAsset(\r\n            debridgeInfo.name,\r\n            debridgeInfo.symbol,\r\n            debridgeInfo.decimals,\r\n            wrappedAssetAdmin,\r\n            minters\r\n        );\r\n        getWrappedAssetAddress[_debridgeId] = address(wrappedAsset);\r\n        emit DeployApproved(deployId);\r\n        return (address(wrappedAsset), debridgeInfo.chainId);\r\n    }\r\n\r\n    /// @dev Confirms the transfer request.\r\n    /// @param _submissionId Submission identifier.\r\n    function submit(bytes32 _submissionId) external override onlyOracle {\r\n        _submit(_submissionId);\r\n    }\r\n\r\n    /// @dev Confirms single transfer request.\r\n    /// @param _submissionId Submission identifier.\r\n    function _submit(bytes32 _submissionId) internal {\r\n        SubmissionInfo storage submissionInfo = getSubmissionInfo[\r\n            _submissionId\r\n        ];\r\n        require(\r\n            !submissionInfo.hasVerified[msg.sender],\r\n            \"submit: submitted already\"\r\n        );\r\n        submissionInfo.confirmations += 1;\r\n        submissionInfo.hasVerified[msg.sender] = true;\r\n        if (submissionInfo.confirmations >= minConfirmations) {\r\n\r\n                BlockConfirmationsInfo storage _blockConfirmationsInfo\r\n             = getConfirmationsPerBlock[block.number];\r\n            if (!_blockConfirmationsInfo.isConfirmed[_submissionId]) {\r\n                _blockConfirmationsInfo.count += 1;\r\n                _blockConfirmationsInfo.isConfirmed[_submissionId] = true;\r\n                if (_blockConfirmationsInfo.count >= confirmationThreshold) {\r\n                    _blockConfirmationsInfo.requireExtraCheck = true;\r\n                }\r\n            }\r\n            submissionInfo.block = block.number;\r\n            emit SubmissionApproved(_submissionId);\r\n        }\r\n        emit Confirmed(_submissionId, msg.sender);\r\n    }\r\n\r\n    /// @dev Sets minimal required confirmations.\r\n    /// @param _excessConfirmations Confirmation info.\r\n    function setExcessConfirmations(uint256 _excessConfirmations)\r\n        public\r\n        onlyAdmin\r\n    {\r\n        excessConfirmations = _excessConfirmations;\r\n    }\r\n\r\n    /// @dev Sets minimal required confirmations.\r\n    /// @param _confirmationThreshold Confirmation info.\r\n    function setThreshold(uint256 _confirmationThreshold) public onlyAdmin {\r\n        confirmationThreshold = _confirmationThreshold;\r\n    }\r\n\r\n    /// @dev Set admin for any deployed wrapped asset.\r\n    /// @param _wrappedAssetAdmin Admin address.\r\n    function setWrappedAssetAdmin(address _wrappedAssetAdmin) public onlyAdmin {\r\n        wrappedAssetAdmin = _wrappedAssetAdmin;\r\n    }\r\n\r\n    /// @dev Sets core debridge conrtact address.\r\n    /// @param _debridgeAddress Debridge address.\r\n    function setDebridgeAddress(address _debridgeAddress) public onlyAdmin {\r\n        debridgeAddress = _debridgeAddress;\r\n    }\r\n\r\n    /// @dev Returns whether transfer request is confirmed.\r\n    /// @param _submissionId Submission identifier.\r\n    /// @return _confirmations number of confirmation.\r\n    /// @return _blockConfirmationPassed Whether transfer request is confirmed.\r\n    function getSubmissionConfirmations(bytes32 _submissionId)\r\n        external\r\n        view\r\n        override\r\n        returns (uint256 _confirmations, bool _blockConfirmationPassed)\r\n    {\r\n        SubmissionInfo storage submissionInfo = getSubmissionInfo[\r\n            _submissionId\r\n        ];\r\n\r\n\r\n            BlockConfirmationsInfo storage _blockConfirmationsInfo\r\n         = getConfirmationsPerBlock[submissionInfo.block];\r\n        _confirmations = submissionInfo.confirmations;\r\n        return (\r\n            _confirmations,\r\n            _confirmations >=\r\n                (\r\n                    (_blockConfirmationsInfo.requireExtraCheck)\r\n                        ? excessConfirmations\r\n                        : minConfirmations\r\n                )\r\n        );\r\n    }\r\n}\r\n",
  "sourcePath": "D:/Projects/Debridge/debridge-contracts-v1/contracts/chainlink/FullAggregator.sol",
  "compiler": {
    "name": "solc",
    "version": "0.8.2+commit.661d1103.Emscripten.clang"
  },
  "schemaVersion": "3.3.4",
  "updatedAt": "2021-07-18T21:07:26.024Z",
  "devdoc": {
    "kind": "dev",
    "methods": {
      "addOracle(address,address)": {
        "details": "Add new oracle.",
        "params": {
          "_admin": "Admin address.",
          "_oracle": "Oracle address."
        }
      },
      "confirmNewAsset(address,uint256,string,string,uint8)": {
        "details": "Confirms the transfer request."
      },
      "constructor": {
        "details": "Constructor that initializes the most important configurations.",
        "params": {
          "_confirmationThreshold": "Confirmations per block before extra check enabled.",
          "_excessConfirmations": "Confirmations count in case of excess activity.",
          "_minConfirmations": "Common confirmations count."
        }
      },
      "deployAsset(bytes32)": {
        "details": "Confirms the transfer request."
      },
      "getDebridgeId(uint256,address)": {
        "details": "Calculates asset identifier.",
        "params": {
          "_chainId": "Current chain id.",
          "_tokenAddress": "Address of the asset on the other chain."
        }
      },
      "getDeployId(bytes32,string,string,uint8)": {
        "details": "Calculates asset identifier."
      },
      "getRoleAdmin(bytes32)": {
        "details": "Returns the admin role that controls `role`. See {grantRole} and {revokeRole}. To change a role's admin, use {_setRoleAdmin}."
      },
      "getSubmissionConfirmations(bytes32)": {
        "details": "Returns whether transfer request is confirmed.",
        "params": {
          "_submissionId": "Submission identifier."
        },
        "returns": {
          "_blockConfirmationPassed": "Whether transfer request is confirmed.",
          "_confirmations": "number of confirmation."
        }
      },
      "grantRole(bytes32,address)": {
        "details": "Grants `role` to `account`. If `account` had not been already granted `role`, emits a {RoleGranted} event. Requirements: - the caller must have ``role``'s admin role."
      },
      "hasRole(bytes32,address)": {
        "details": "Returns `true` if `account` has been granted `role`."
      },
      "removeOracle(address)": {
        "details": "Remove oracle.",
        "params": {
          "_oracle": "Oracle address."
        }
      },
      "renounceRole(bytes32,address)": {
        "details": "Revokes `role` from the calling account. Roles are often managed via {grantRole} and {revokeRole}: this function's purpose is to provide a mechanism for accounts to lose their privileges if they are compromised (such as when a trusted device is misplaced). If the calling account had been granted `role`, emits a {RoleRevoked} event. Requirements: - the caller must be `account`."
      },
      "revokeRole(bytes32,address)": {
        "details": "Revokes `role` from `account`. If `account` had been granted `role`, emits a {RoleRevoked} event. Requirements: - the caller must have ``role``'s admin role."
      },
      "setDebridgeAddress(address)": {
        "details": "Sets core debridge conrtact address.",
        "params": {
          "_debridgeAddress": "Debridge address."
        }
      },
      "setExcessConfirmations(uint256)": {
        "details": "Sets minimal required confirmations.",
        "params": {
          "_excessConfirmations": "Confirmation info."
        }
      },
      "setMinConfirmations(uint256)": {
        "details": "Sets minimal required confirmations.",
        "params": {
          "_minConfirmations": "Confirmation info."
        }
      },
      "setThreshold(uint256)": {
        "details": "Sets minimal required confirmations.",
        "params": {
          "_confirmationThreshold": "Confirmation info."
        }
      },
      "setWrappedAssetAdmin(address)": {
        "details": "Set admin for any deployed wrapped asset.",
        "params": {
          "_wrappedAssetAdmin": "Admin address."
        }
      },
      "submit(bytes32)": {
        "details": "Confirms the transfer request.",
        "params": {
          "_submissionId": "Submission identifier."
        }
      },
      "submitMany(bytes32[])": {
        "details": "Confirms few transfer requests.",
        "params": {
          "_submissionIds": "Submission identifiers."
        }
      },
      "supportsInterface(bytes4)": {
        "details": "See {IERC165-supportsInterface}."
      },
      "updateOracleAdmin(address,address)": {
        "details": "Updates oracle's admin address.",
        "params": {
          "_newOracleAdmin": "New oracle address.",
          "_oracle": "Oracle address."
        }
      }
    },
    "version": 1
  },
  "userdoc": {
    "kind": "user",
    "methods": {},
    "version": 1
  }
}