{
  "contractName": "FullDebridge",
  "abi": [
    {
      "anonymous": false,
      "inputs": [
        {
          "indexed": false,
          "internalType": "bytes32",
          "name": "submissionId",
          "type": "bytes32"
        },
        {
          "indexed": false,
          "internalType": "bytes32",
          "name": "debridgeId",
          "type": "bytes32"
        },
        {
          "indexed": false,
          "internalType": "uint256",
          "name": "amount",
          "type": "uint256"
        },
        {
          "indexed": false,
          "internalType": "address",
          "name": "receiver",
          "type": "address"
        },
        {
          "indexed": false,
          "internalType": "uint256",
          "name": "nonce",
          "type": "uint256"
        },
        {
          "indexed": false,
          "internalType": "uint256",
          "name": "chainIdTo",
          "type": "uint256"
        },
        {
          "indexed": false,
          "internalType": "uint256",
          "name": "claimFee",
          "type": "uint256"
        },
        {
          "indexed": false,
          "internalType": "address",
          "name": "fallbackAddress",
          "type": "address"
        },
        {
          "indexed": false,
          "internalType": "bytes",
          "name": "data",
          "type": "bytes"
        }
      ],
      "name": "AutoBurnt",
      "type": "event"
    },
    {
      "anonymous": false,
      "inputs": [
        {
          "indexed": false,
          "internalType": "bytes32",
          "name": "submissionId",
          "type": "bytes32"
        },
        {
          "indexed": false,
          "internalType": "bool",
          "name": "success",
          "type": "bool"
        }
      ],
      "name": "AutoRequestExecuted",
      "type": "event"
    },
    {
      "anonymous": false,
      "inputs": [
        {
          "indexed": false,
          "internalType": "bytes32",
          "name": "submissionId",
          "type": "bytes32"
        },
        {
          "indexed": false,
          "internalType": "bytes32",
          "name": "debridgeId",
          "type": "bytes32"
        },
        {
          "indexed": false,
          "internalType": "uint256",
          "name": "amount",
          "type": "uint256"
        },
        {
          "indexed": false,
          "internalType": "address",
          "name": "receiver",
          "type": "address"
        },
        {
          "indexed": false,
          "internalType": "uint256",
          "name": "nonce",
          "type": "uint256"
        },
        {
          "indexed": false,
          "internalType": "uint256",
          "name": "chainIdTo",
          "type": "uint256"
        },
        {
          "indexed": false,
          "internalType": "uint256",
          "name": "claimFee",
          "type": "uint256"
        },
        {
          "indexed": false,
          "internalType": "address",
          "name": "fallbackAddress",
          "type": "address"
        },
        {
          "indexed": false,
          "internalType": "bytes",
          "name": "data",
          "type": "bytes"
        }
      ],
      "name": "AutoSent",
      "type": "event"
    },
    {
      "anonymous": false,
      "inputs": [
        {
          "indexed": false,
          "internalType": "bytes32",
          "name": "submissionId",
          "type": "bytes32"
        }
      ],
      "name": "Blocked",
      "type": "event"
    },
    {
      "anonymous": false,
      "inputs": [
        {
          "indexed": false,
          "internalType": "bytes32",
          "name": "submissionId",
          "type": "bytes32"
        },
        {
          "indexed": false,
          "internalType": "bytes32",
          "name": "debridgeId",
          "type": "bytes32"
        },
        {
          "indexed": false,
          "internalType": "uint256",
          "name": "amount",
          "type": "uint256"
        },
        {
          "indexed": false,
          "internalType": "address",
          "name": "receiver",
          "type": "address"
        },
        {
          "indexed": false,
          "internalType": "uint256",
          "name": "nonce",
          "type": "uint256"
        },
        {
          "indexed": false,
          "internalType": "uint256",
          "name": "chainIdTo",
          "type": "uint256"
        }
      ],
      "name": "Burnt",
      "type": "event"
    },
    {
      "anonymous": false,
      "inputs": [
        {
          "indexed": false,
          "internalType": "address",
          "name": "callProxy",
          "type": "address"
        }
      ],
      "name": "CallProxyUpdated",
      "type": "event"
    },
    {
      "anonymous": false,
      "inputs": [
        {
          "indexed": true,
          "internalType": "bytes32",
          "name": "debridgeId",
          "type": "bytes32"
        },
        {
          "indexed": true,
          "internalType": "uint256",
          "name": "chainId",
          "type": "uint256"
        }
      ],
      "name": "ChainSupportAdded",
      "type": "event"
    },
    {
      "anonymous": false,
      "inputs": [
        {
          "indexed": true,
          "internalType": "bytes32",
          "name": "debridgeId",
          "type": "bytes32"
        },
        {
          "indexed": true,
          "internalType": "uint256",
          "name": "chainId",
          "type": "uint256"
        }
      ],
      "name": "ChainSupportRemoved",
      "type": "event"
    },
    {
      "anonymous": false,
      "inputs": [
        {
          "indexed": false,
          "internalType": "uint256[]",
          "name": "chainIds",
          "type": "uint256[]"
        }
      ],
      "name": "ChainsSupportUpdated",
      "type": "event"
    },
    {
      "anonymous": false,
      "inputs": [
        {
          "indexed": false,
          "internalType": "bytes32",
          "name": "submissionId",
          "type": "bytes32"
        },
        {
          "indexed": false,
          "internalType": "uint256",
          "name": "amount",
          "type": "uint256"
        },
        {
          "indexed": false,
          "internalType": "address",
          "name": "receiver",
          "type": "address"
        },
        {
          "indexed": false,
          "internalType": "bytes32",
          "name": "debridgeId",
          "type": "bytes32"
        }
      ],
      "name": "Claimed",
      "type": "event"
    },
    {
      "anonymous": false,
      "inputs": [
        {
          "indexed": false,
          "internalType": "bytes32",
          "name": "submissionId",
          "type": "bytes32"
        },
        {
          "indexed": false,
          "internalType": "uint256",
          "name": "amount",
          "type": "uint256"
        },
        {
          "indexed": false,
          "internalType": "address",
          "name": "receiver",
          "type": "address"
        },
        {
          "indexed": false,
          "internalType": "bytes32",
          "name": "debridgeId",
          "type": "bytes32"
        }
      ],
      "name": "Minted",
      "type": "event"
    },
    {
      "anonymous": false,
      "inputs": [
        {
          "indexed": true,
          "internalType": "bytes32",
          "name": "debridgeId",
          "type": "bytes32"
        },
        {
          "indexed": true,
          "internalType": "address",
          "name": "tokenAddress",
          "type": "address"
        },
        {
          "indexed": true,
          "internalType": "uint256",
          "name": "chainId",
          "type": "uint256"
        },
        {
          "indexed": false,
          "internalType": "uint256",
          "name": "maxAmount",
          "type": "uint256"
        },
        {
          "indexed": false,
          "internalType": "uint256",
          "name": "minReserves",
          "type": "uint256"
        }
      ],
      "name": "PairAdded",
      "type": "event"
    },
    {
      "anonymous": false,
      "inputs": [
        {
          "indexed": false,
          "internalType": "address",
          "name": "account",
          "type": "address"
        }
      ],
      "name": "Paused",
      "type": "event"
    },
    {
      "anonymous": false,
      "inputs": [
        {
          "indexed": true,
          "internalType": "bytes32",
          "name": "role",
          "type": "bytes32"
        },
        {
          "indexed": true,
          "internalType": "bytes32",
          "name": "previousAdminRole",
          "type": "bytes32"
        },
        {
          "indexed": true,
          "internalType": "bytes32",
          "name": "newAdminRole",
          "type": "bytes32"
        }
      ],
      "name": "RoleAdminChanged",
      "type": "event"
    },
    {
      "anonymous": false,
      "inputs": [
        {
          "indexed": true,
          "internalType": "bytes32",
          "name": "role",
          "type": "bytes32"
        },
        {
          "indexed": true,
          "internalType": "address",
          "name": "account",
          "type": "address"
        },
        {
          "indexed": true,
          "internalType": "address",
          "name": "sender",
          "type": "address"
        }
      ],
      "name": "RoleGranted",
      "type": "event"
    },
    {
      "anonymous": false,
      "inputs": [
        {
          "indexed": true,
          "internalType": "bytes32",
          "name": "role",
          "type": "bytes32"
        },
        {
          "indexed": true,
          "internalType": "address",
          "name": "account",
          "type": "address"
        },
        {
          "indexed": true,
          "internalType": "address",
          "name": "sender",
          "type": "address"
        }
      ],
      "name": "RoleRevoked",
      "type": "event"
    },
    {
      "anonymous": false,
      "inputs": [
        {
          "indexed": false,
          "internalType": "bytes32",
          "name": "submissionId",
          "type": "bytes32"
        },
        {
          "indexed": false,
          "internalType": "bytes32",
          "name": "debridgeId",
          "type": "bytes32"
        },
        {
          "indexed": false,
          "internalType": "uint256",
          "name": "amount",
          "type": "uint256"
        },
        {
          "indexed": false,
          "internalType": "address",
          "name": "receiver",
          "type": "address"
        },
        {
          "indexed": false,
          "internalType": "uint256",
          "name": "nonce",
          "type": "uint256"
        },
        {
          "indexed": false,
          "internalType": "uint256",
          "name": "chainIdTo",
          "type": "uint256"
        }
      ],
      "name": "Sent",
      "type": "event"
    },
    {
      "anonymous": false,
      "inputs": [
        {
          "indexed": false,
          "internalType": "bytes32",
          "name": "submissionId",
          "type": "bytes32"
        }
      ],
      "name": "Unblocked",
      "type": "event"
    },
    {
      "anonymous": false,
      "inputs": [
        {
          "indexed": false,
          "internalType": "address",
          "name": "account",
          "type": "address"
        }
      ],
      "name": "Unpaused",
      "type": "event"
    },
    {
      "inputs": [],
      "name": "AGGREGATOR_ROLE",
      "outputs": [
        {
          "internalType": "bytes32",
          "name": "",
          "type": "bytes32"
        }
      ],
      "stateMutability": "view",
      "type": "function"
    },
    {
      "inputs": [],
      "name": "DEFAULT_ADMIN_ROLE",
      "outputs": [
        {
          "internalType": "bytes32",
          "name": "",
          "type": "bytes32"
        }
      ],
      "stateMutability": "view",
      "type": "function"
    },
    {
      "inputs": [],
      "name": "DENOMINATOR",
      "outputs": [
        {
          "internalType": "uint256",
          "name": "",
          "type": "uint256"
        }
      ],
      "stateMutability": "view",
      "type": "function"
    },
    {
      "inputs": [],
      "name": "aggregatorFullVersion",
      "outputs": [
        {
          "internalType": "uint8",
          "name": "",
          "type": "uint8"
        }
      ],
      "stateMutability": "view",
      "type": "function"
    },
    {
      "inputs": [],
      "name": "aggregatorLightVersion",
      "outputs": [
        {
          "internalType": "uint8",
          "name": "",
          "type": "uint8"
        }
      ],
      "stateMutability": "view",
      "type": "function"
    },
    {
      "inputs": [
        {
          "internalType": "bytes32",
          "name": "_debridgeId",
          "type": "bytes32"
        },
        {
          "internalType": "address",
          "name": "_receiver",
          "type": "address"
        },
        {
          "internalType": "uint256",
          "name": "_amount",
          "type": "uint256"
        },
        {
          "internalType": "uint256",
          "name": "_chainIdTo",
          "type": "uint256"
        },
        {
          "internalType": "address",
          "name": "_fallbackAddress",
          "type": "address"
        },
        {
          "internalType": "uint256",
          "name": "_executionFee",
          "type": "uint256"
        },
        {
          "internalType": "bytes",
          "name": "_data",
          "type": "bytes"
        },
        {
          "internalType": "uint256",
          "name": "_deadline",
          "type": "uint256"
        },
        {
          "internalType": "bytes",
          "name": "_signature",
          "type": "bytes"
        },
        {
          "internalType": "bool",
          "name": "_useAssetFee",
          "type": "bool"
        }
      ],
      "name": "autoBurn",
      "outputs": [],
      "stateMutability": "payable",
      "type": "function"
    },
    {
      "inputs": [
        {
          "internalType": "address",
          "name": "_tokenAddress",
          "type": "address"
        },
        {
          "internalType": "address",
          "name": "_receiver",
          "type": "address"
        },
        {
          "internalType": "uint256",
          "name": "_amount",
          "type": "uint256"
        },
        {
          "internalType": "uint256",
          "name": "_chainIdTo",
          "type": "uint256"
        },
        {
          "internalType": "address",
          "name": "_fallbackAddress",
          "type": "address"
        },
        {
          "internalType": "uint256",
          "name": "_executionFee",
          "type": "uint256"
        },
        {
          "internalType": "bytes",
          "name": "_data",
          "type": "bytes"
        },
        {
          "internalType": "bool",
          "name": "_useAssetFee",
          "type": "bool"
        }
      ],
      "name": "autoSend",
      "outputs": [],
      "stateMutability": "payable",
      "type": "function"
    },
    {
      "inputs": [
        {
          "internalType": "bytes32",
          "name": "_debridgeId",
          "type": "bytes32"
        },
        {
          "internalType": "address",
          "name": "_receiver",
          "type": "address"
        },
        {
          "internalType": "uint256",
          "name": "_amount",
          "type": "uint256"
        },
        {
          "internalType": "uint256",
          "name": "_chainIdTo",
          "type": "uint256"
        },
        {
          "internalType": "uint256",
          "name": "_deadline",
          "type": "uint256"
        },
        {
          "internalType": "bytes",
          "name": "_signature",
          "type": "bytes"
        },
        {
          "internalType": "bool",
          "name": "_useAssetFee",
          "type": "bool"
        }
      ],
      "name": "burn",
      "outputs": [],
      "stateMutability": "payable",
      "type": "function"
    },
    {
      "inputs": [],
      "name": "callProxy",
      "outputs": [
        {
          "internalType": "address",
          "name": "",
          "type": "address"
        }
      ],
      "stateMutability": "view",
      "type": "function"
    },
    {
      "inputs": [],
      "name": "chainId",
      "outputs": [
        {
          "internalType": "uint256",
          "name": "",
          "type": "uint256"
        }
      ],
      "stateMutability": "view",
      "type": "function"
    },
    {
      "inputs": [
        {
          "internalType": "uint256",
          "name": "",
          "type": "uint256"
        }
      ],
      "name": "chainIds",
      "outputs": [
        {
          "internalType": "uint256",
          "name": "",
          "type": "uint256"
        }
      ],
      "stateMutability": "view",
      "type": "function"
    },
    {
      "inputs": [],
      "name": "collectedFees",
      "outputs": [
        {
          "internalType": "uint256",
          "name": "",
          "type": "uint256"
        }
      ],
      "stateMutability": "view",
      "type": "function"
    },
    {
      "inputs": [],
      "name": "defiController",
      "outputs": [
        {
          "internalType": "contract IDefiController",
          "name": "",
          "type": "address"
        }
      ],
      "stateMutability": "view",
      "type": "function"
    },
    {
      "inputs": [],
      "name": "excessConfirmations",
      "outputs": [
        {
          "internalType": "uint256",
          "name": "",
          "type": "uint256"
        }
      ],
      "stateMutability": "view",
      "type": "function"
    },
    {
      "inputs": [],
      "name": "feeProxy",
      "outputs": [
        {
          "internalType": "contract IFeeProxy",
          "name": "",
          "type": "address"
        }
      ],
      "stateMutability": "view",
      "type": "function"
    },
    {
      "inputs": [],
      "name": "fullAggregator",
      "outputs": [
        {
          "internalType": "address",
          "name": "",
          "type": "address"
        }
      ],
      "stateMutability": "view",
      "type": "function"
    },
    {
      "inputs": [
        {
          "internalType": "bytes32",
          "name": "",
          "type": "bytes32"
        }
      ],
      "name": "getAmountThreshold",
      "outputs": [
        {
          "internalType": "uint256",
          "name": "",
          "type": "uint256"
        }
      ],
      "stateMutability": "view",
      "type": "function"
    },
    {
      "inputs": [
        {
          "internalType": "bytes32",
          "name": "_debridgeId",
          "type": "bytes32"
        },
        {
          "internalType": "uint256",
          "name": "_chainIdFrom",
          "type": "uint256"
        },
        {
          "internalType": "uint256",
          "name": "_chainIdTo",
          "type": "uint256"
        },
        {
          "internalType": "uint256",
          "name": "_amount",
          "type": "uint256"
        },
        {
          "internalType": "address",
          "name": "_receiver",
          "type": "address"
        },
        {
          "internalType": "uint256",
          "name": "_nonce",
          "type": "uint256"
        },
        {
          "internalType": "address",
          "name": "_fallbackAddress",
          "type": "address"
        },
        {
          "internalType": "uint256",
          "name": "_executionFee",
          "type": "uint256"
        },
        {
          "internalType": "bytes",
          "name": "_data",
          "type": "bytes"
        }
      ],
      "name": "getAutoSubmisionId",
      "outputs": [
        {
          "internalType": "bytes32",
          "name": "",
          "type": "bytes32"
        }
      ],
      "stateMutability": "pure",
      "type": "function"
    },
    {
      "inputs": [
        {
          "internalType": "address",
          "name": "_tokenAddress",
          "type": "address"
        }
      ],
      "name": "getBalance",
      "outputs": [
        {
          "internalType": "uint256",
          "name": "",
          "type": "uint256"
        }
      ],
      "stateMutability": "view",
      "type": "function"
    },
    {
      "inputs": [
        {
          "internalType": "uint256",
          "name": "",
          "type": "uint256"
        }
      ],
      "name": "getChainSupport",
      "outputs": [
        {
          "internalType": "bool",
          "name": "isSupported",
          "type": "bool"
        },
        {
          "internalType": "uint256",
          "name": "fixedNativeFee",
          "type": "uint256"
        },
        {
          "internalType": "uint256",
          "name": "transferFee",
          "type": "uint256"
        }
      ],
      "stateMutability": "view",
      "type": "function"
    },
    {
      "inputs": [
        {
          "internalType": "bytes32",
          "name": "",
          "type": "bytes32"
        }
      ],
      "name": "getDebridge",
      "outputs": [
        {
          "internalType": "address",
          "name": "tokenAddress",
          "type": "address"
        },
        {
          "internalType": "uint256",
          "name": "chainId",
          "type": "uint256"
        },
        {
          "internalType": "uint256",
          "name": "maxAmount",
          "type": "uint256"
        },
        {
          "internalType": "uint256",
          "name": "collectedFees",
          "type": "uint256"
        },
        {
          "internalType": "uint256",
          "name": "balance",
          "type": "uint256"
        },
        {
          "internalType": "uint256",
          "name": "minReserves",
          "type": "uint256"
        },
        {
          "internalType": "bool",
          "name": "exist",
          "type": "bool"
        }
      ],
      "stateMutability": "view",
      "type": "function"
    },
    {
      "inputs": [
        {
          "internalType": "uint256",
          "name": "_chainId",
          "type": "uint256"
        },
        {
          "internalType": "address",
          "name": "_tokenAddress",
          "type": "address"
        }
      ],
      "name": "getDebridgeId",
      "outputs": [
        {
          "internalType": "bytes32",
          "name": "",
          "type": "bytes32"
        }
      ],
      "stateMutability": "pure",
      "type": "function"
    },
    {
      "inputs": [
        {
          "internalType": "uint8",
          "name": "",
          "type": "uint8"
        }
      ],
      "name": "getOldFullAggregator",
      "outputs": [
        {
          "internalType": "address",
          "name": "aggregator",
          "type": "address"
        },
        {
          "internalType": "bool",
          "name": "isValid",
          "type": "bool"
        }
      ],
      "stateMutability": "view",
      "type": "function"
    },
    {
      "inputs": [
        {
          "internalType": "uint8",
          "name": "",
          "type": "uint8"
        }
      ],
      "name": "getOldLightAggregator",
      "outputs": [
        {
          "internalType": "address",
          "name": "aggregator",
          "type": "address"
        },
        {
          "internalType": "bool",
          "name": "isValid",
          "type": "bool"
        }
      ],
      "stateMutability": "view",
      "type": "function"
    },
    {
      "inputs": [
        {
          "internalType": "bytes32",
          "name": "role",
          "type": "bytes32"
        }
      ],
      "name": "getRoleAdmin",
      "outputs": [
        {
          "internalType": "bytes32",
          "name": "",
          "type": "bytes32"
        }
      ],
      "stateMutability": "view",
      "type": "function"
    },
    {
      "inputs": [
        {
          "internalType": "bytes32",
          "name": "_debridgeId",
          "type": "bytes32"
        },
        {
          "internalType": "uint256",
          "name": "_chainIdFrom",
          "type": "uint256"
        },
        {
          "internalType": "uint256",
          "name": "_chainIdTo",
          "type": "uint256"
        },
        {
          "internalType": "uint256",
          "name": "_amount",
          "type": "uint256"
        },
        {
          "internalType": "address",
          "name": "_receiver",
          "type": "address"
        },
        {
          "internalType": "uint256",
          "name": "_nonce",
          "type": "uint256"
        }
      ],
      "name": "getSubmisionId",
      "outputs": [
        {
          "internalType": "bytes32",
          "name": "",
          "type": "bytes32"
        }
      ],
      "stateMutability": "pure",
      "type": "function"
    },
    {
      "inputs": [
        {
          "internalType": "address",
          "name": "",
          "type": "address"
        }
      ],
      "name": "getUserNonce",
      "outputs": [
        {
          "internalType": "uint256",
          "name": "",
          "type": "uint256"
        }
      ],
      "stateMutability": "view",
      "type": "function"
    },
    {
      "inputs": [
        {
          "internalType": "bytes32",
          "name": "role",
          "type": "bytes32"
        },
        {
          "internalType": "address",
          "name": "account",
          "type": "address"
        }
      ],
      "name": "grantRole",
      "outputs": [],
      "stateMutability": "nonpayable",
      "type": "function"
    },
    {
      "inputs": [
        {
          "internalType": "bytes32",
          "name": "role",
          "type": "bytes32"
        },
        {
          "internalType": "address",
          "name": "account",
          "type": "address"
        }
      ],
      "name": "hasRole",
      "outputs": [
        {
          "internalType": "bool",
          "name": "",
          "type": "bool"
        }
      ],
      "stateMutability": "view",
      "type": "function"
    },
    {
      "inputs": [
        {
          "internalType": "bytes32",
          "name": "",
          "type": "bytes32"
        }
      ],
      "name": "isBlockedSubmission",
      "outputs": [
        {
          "internalType": "bool",
          "name": "",
          "type": "bool"
        }
      ],
      "stateMutability": "view",
      "type": "function"
    },
    {
      "inputs": [
        {
          "internalType": "bytes32",
          "name": "",
          "type": "bytes32"
        }
      ],
      "name": "isSubmissionUsed",
      "outputs": [
        {
          "internalType": "bool",
          "name": "",
          "type": "bool"
        }
      ],
      "stateMutability": "view",
      "type": "function"
    },
    {
      "inputs": [],
      "name": "ligthAggregator",
      "outputs": [
        {
          "internalType": "address",
          "name": "",
          "type": "address"
        }
      ],
      "stateMutability": "view",
      "type": "function"
    },
    {
      "inputs": [
        {
          "internalType": "uint8",
          "name": "_aggregatorVersion",
          "type": "uint8"
        },
        {
          "internalType": "bool",
          "name": "_isLight",
          "type": "bool"
        },
        {
          "internalType": "bool",
          "name": "_isValid",
          "type": "bool"
        }
      ],
      "name": "manageOldAggregator",
      "outputs": [],
      "stateMutability": "nonpayable",
      "type": "function"
    },
    {
      "inputs": [],
      "name": "pause",
      "outputs": [],
      "stateMutability": "nonpayable",
      "type": "function"
    },
    {
      "inputs": [],
      "name": "paused",
      "outputs": [
        {
          "internalType": "bool",
          "name": "",
          "type": "bool"
        }
      ],
      "stateMutability": "view",
      "type": "function"
    },
    {
      "inputs": [
        {
          "internalType": "bytes32",
          "name": "role",
          "type": "bytes32"
        },
        {
          "internalType": "address",
          "name": "account",
          "type": "address"
        }
      ],
      "name": "renounceRole",
      "outputs": [],
      "stateMutability": "nonpayable",
      "type": "function"
    },
    {
      "inputs": [
        {
          "internalType": "address",
          "name": "_tokenAddress",
          "type": "address"
        },
        {
          "internalType": "uint256",
          "name": "_amount",
          "type": "uint256"
        }
      ],
      "name": "requestReserves",
      "outputs": [],
      "stateMutability": "nonpayable",
      "type": "function"
    },
    {
      "inputs": [
        {
          "internalType": "address",
          "name": "_tokenAddress",
          "type": "address"
        },
        {
          "internalType": "uint256",
          "name": "_amount",
          "type": "uint256"
        }
      ],
      "name": "returnReserves",
      "outputs": [],
      "stateMutability": "payable",
      "type": "function"
    },
    {
      "inputs": [
        {
          "internalType": "bytes32",
          "name": "role",
          "type": "bytes32"
        },
        {
          "internalType": "address",
          "name": "account",
          "type": "address"
        }
      ],
      "name": "revokeRole",
      "outputs": [],
      "stateMutability": "nonpayable",
      "type": "function"
    },
    {
      "inputs": [
        {
          "internalType": "address",
          "name": "_tokenAddress",
          "type": "address"
        },
        {
          "internalType": "address",
          "name": "_receiver",
          "type": "address"
        },
        {
          "internalType": "uint256",
          "name": "_amount",
          "type": "uint256"
        },
        {
          "internalType": "uint256",
          "name": "_chainIdTo",
          "type": "uint256"
        },
        {
          "internalType": "bool",
          "name": "_useAssetFee",
          "type": "bool"
        }
      ],
      "name": "send",
      "outputs": [],
      "stateMutability": "payable",
      "type": "function"
    },
    {
      "inputs": [
        {
          "internalType": "address",
          "name": "_aggregator",
          "type": "address"
        },
        {
          "internalType": "bool",
          "name": "_isLight",
          "type": "bool"
        }
      ],
      "name": "setAggregator",
      "outputs": [],
      "stateMutability": "nonpayable",
      "type": "function"
    },
    {
      "inputs": [
        {
          "internalType": "address",
          "name": "_callProxy",
          "type": "address"
        }
      ],
      "name": "setCallProxy",
      "outputs": [],
      "stateMutability": "nonpayable",
      "type": "function"
    },
    {
      "inputs": [
        {
          "internalType": "bytes32",
          "name": "_debridgeId",
          "type": "bytes32"
        },
        {
          "internalType": "uint256",
          "name": "_chainId",
          "type": "uint256"
        },
        {
          "internalType": "bool",
          "name": "_isSupported",
          "type": "bool"
        }
      ],
      "name": "setChainIdSupport",
      "outputs": [],
      "stateMutability": "nonpayable",
      "type": "function"
    },
    {
      "inputs": [
        {
          "internalType": "contract IDefiController",
          "name": "_defiController",
          "type": "address"
        }
      ],
      "name": "setDefiController",
      "outputs": [],
      "stateMutability": "nonpayable",
      "type": "function"
    },
    {
      "inputs": [
        {
          "internalType": "bytes",
          "name": "_signature",
          "type": "bytes"
        }
      ],
      "name": "splitSignature",
      "outputs": [
        {
          "internalType": "bytes32",
          "name": "r",
          "type": "bytes32"
        },
        {
          "internalType": "bytes32",
          "name": "s",
          "type": "bytes32"
        },
        {
          "internalType": "uint8",
          "name": "v",
          "type": "uint8"
        }
      ],
      "stateMutability": "pure",
      "type": "function"
    },
    {
      "inputs": [
        {
          "internalType": "bytes4",
          "name": "interfaceId",
          "type": "bytes4"
        }
      ],
      "name": "supportsInterface",
      "outputs": [
        {
          "internalType": "bool",
          "name": "",
          "type": "bool"
        }
      ],
      "stateMutability": "view",
      "type": "function"
    },
    {
      "inputs": [],
      "name": "unpause",
      "outputs": [],
      "stateMutability": "nonpayable",
      "type": "function"
    },
    {
      "inputs": [
        {
          "internalType": "bytes32",
          "name": "_debridgeId",
          "type": "bytes32"
        },
        {
          "internalType": "uint256",
          "name": "_maxAmount",
          "type": "uint256"
        },
        {
          "internalType": "uint256",
          "name": "_minReserves",
          "type": "uint256"
        },
        {
          "internalType": "uint256",
          "name": "_amountThreshold",
          "type": "uint256"
        }
      ],
      "name": "updateAsset",
      "outputs": [],
      "stateMutability": "nonpayable",
      "type": "function"
    },
    {
      "inputs": [
        {
          "internalType": "bytes32",
          "name": "_debridgeId",
          "type": "bytes32"
        },
        {
          "internalType": "uint256[]",
          "name": "_supportedChainIds",
          "type": "uint256[]"
        },
        {
          "internalType": "uint256[]",
          "name": "_assetFeesInfo",
          "type": "uint256[]"
        }
      ],
      "name": "updateAssetFixedFees",
      "outputs": [],
      "stateMutability": "nonpayable",
      "type": "function"
    },
    {
      "inputs": [
        {
          "internalType": "uint256[]",
          "name": "_supportedChainIds",
          "type": "uint256[]"
        },
        {
          "components": [
            {
              "internalType": "bool",
              "name": "isSupported",
              "type": "bool"
            },
            {
              "internalType": "uint256",
              "name": "fixedNativeFee",
              "type": "uint256"
            },
            {
              "internalType": "uint256",
              "name": "transferFee",
              "type": "uint256"
            }
          ],
          "internalType": "struct IDebridge.ChainSupportInfo[]",
          "name": "_chainSupportInfo",
          "type": "tuple[]"
        }
      ],
      "name": "updateChainSupport",
      "outputs": [],
      "stateMutability": "nonpayable",
      "type": "function"
    },
    {
      "inputs": [],
      "name": "weth",
      "outputs": [
        {
          "internalType": "contract IWETH",
          "name": "",
          "type": "address"
        }
      ],
      "stateMutability": "view",
      "type": "function"
    },
    {
      "inputs": [
        {
          "internalType": "bytes32",
          "name": "_debridgeId",
          "type": "bytes32"
        },
        {
          "internalType": "address",
          "name": "_receiver",
          "type": "address"
        },
        {
          "internalType": "uint256",
          "name": "_amount",
          "type": "uint256"
        }
      ],
      "name": "withdrawFee",
      "outputs": [],
      "stateMutability": "nonpayable",
      "type": "function"
    },
    {
      "inputs": [
        {
          "internalType": "address",
          "name": "_receiver",
          "type": "address"
        },
        {
          "internalType": "uint256",
          "name": "_amount",
          "type": "uint256"
        }
      ],
      "name": "withdrawNativeFee",
      "outputs": [],
      "stateMutability": "nonpayable",
      "type": "function"
    },
    {
      "inputs": [
        {
          "internalType": "uint256",
          "name": "_excessConfirmations",
          "type": "uint256"
        },
        {
          "internalType": "address",
          "name": "_ligthAggregator",
          "type": "address"
        },
        {
          "internalType": "address",
          "name": "_fullAggregator",
          "type": "address"
        },
        {
          "internalType": "address",
          "name": "_callProxy",
          "type": "address"
        },
        {
          "internalType": "uint256[]",
          "name": "_supportedChainIds",
          "type": "uint256[]"
        },
        {
          "components": [
            {
              "internalType": "bool",
              "name": "isSupported",
              "type": "bool"
            },
            {
              "internalType": "uint256",
              "name": "fixedNativeFee",
              "type": "uint256"
            },
            {
              "internalType": "uint256",
              "name": "transferFee",
              "type": "uint256"
            }
          ],
          "internalType": "struct IDebridge.ChainSupportInfo[]",
          "name": "_chainSupportInfo",
          "type": "tuple[]"
        },
        {
          "internalType": "contract IWETH",
          "name": "_weth",
          "type": "address"
        },
        {
          "internalType": "contract IFeeProxy",
          "name": "_feeProxy",
          "type": "address"
        },
        {
          "internalType": "contract IDefiController",
          "name": "_defiController",
          "type": "address"
        },
        {
          "internalType": "address",
          "name": "_treasury",
          "type": "address"
        }
      ],
      "name": "initialize",
      "outputs": [],
      "stateMutability": "payable",
      "type": "function"
    },
    {
      "inputs": [
        {
          "internalType": "bytes32",
          "name": "_debridgeId",
          "type": "bytes32"
        },
        {
          "internalType": "uint256",
          "name": "_chainIdFrom",
          "type": "uint256"
        },
        {
          "internalType": "address",
          "name": "_receiver",
          "type": "address"
        },
        {
          "internalType": "uint256",
          "name": "_amount",
          "type": "uint256"
        },
        {
          "internalType": "uint256",
          "name": "_nonce",
          "type": "uint256"
        },
        {
          "internalType": "bytes[]",
          "name": "_signatures",
          "type": "bytes[]"
        },
        {
          "internalType": "address",
          "name": "_fallbackAddress",
          "type": "address"
        },
        {
          "internalType": "uint256",
          "name": "_executionFee",
          "type": "uint256"
        },
        {
          "internalType": "bytes",
          "name": "_data",
          "type": "bytes"
        }
      ],
      "name": "autoMint",
      "outputs": [],
      "stateMutability": "nonpayable",
      "type": "function"
    },
    {
      "inputs": [
        {
          "internalType": "bytes32",
          "name": "_debridgeId",
          "type": "bytes32"
        },
        {
          "internalType": "uint256",
          "name": "_chainIdFrom",
          "type": "uint256"
        },
        {
          "internalType": "address",
          "name": "_receiver",
          "type": "address"
        },
        {
          "internalType": "uint256",
          "name": "_amount",
          "type": "uint256"
        },
        {
          "internalType": "uint256",
          "name": "_nonce",
          "type": "uint256"
        },
        {
          "internalType": "bytes[]",
          "name": "_signatures",
          "type": "bytes[]"
        },
        {
          "internalType": "address",
          "name": "_fallbackAddress",
          "type": "address"
        },
        {
          "internalType": "uint256",
          "name": "_executionFee",
          "type": "uint256"
        },
        {
          "internalType": "bytes",
          "name": "_data",
          "type": "bytes"
        },
        {
          "internalType": "uint8",
          "name": "_aggregatorVersion",
          "type": "uint8"
        }
      ],
      "name": "autoMintWithOldAggregator",
      "outputs": [],
      "stateMutability": "nonpayable",
      "type": "function"
    },
    {
      "inputs": [
        {
          "internalType": "bytes32",
          "name": "_debridgeId",
          "type": "bytes32"
        },
        {
          "internalType": "uint256",
          "name": "_chainIdFrom",
          "type": "uint256"
        },
        {
          "internalType": "address",
          "name": "_receiver",
          "type": "address"
        },
        {
          "internalType": "uint256",
          "name": "_amount",
          "type": "uint256"
        },
        {
          "internalType": "uint256",
          "name": "_nonce",
          "type": "uint256"
        },
        {
          "internalType": "bytes[]",
          "name": "_signatures",
          "type": "bytes[]"
        }
      ],
      "name": "mint",
      "outputs": [],
      "stateMutability": "nonpayable",
      "type": "function"
    },
    {
      "inputs": [
        {
          "internalType": "bytes32",
          "name": "_debridgeId",
          "type": "bytes32"
        },
        {
          "internalType": "uint256",
          "name": "_chainIdFrom",
          "type": "uint256"
        },
        {
          "internalType": "address",
          "name": "_receiver",
          "type": "address"
        },
        {
          "internalType": "uint256",
          "name": "_amount",
          "type": "uint256"
        },
        {
          "internalType": "uint256",
          "name": "_nonce",
          "type": "uint256"
        },
        {
          "internalType": "bytes[]",
          "name": "_signatures",
          "type": "bytes[]"
        },
        {
          "internalType": "uint8",
          "name": "_aggregatorVersion",
          "type": "uint8"
        }
      ],
      "name": "mintWithOldAggregator",
      "outputs": [],
      "stateMutability": "nonpayable",
      "type": "function"
    },
    {
      "inputs": [
        {
          "internalType": "bytes32",
          "name": "_debridgeId",
          "type": "bytes32"
        },
        {
          "internalType": "uint256",
          "name": "_chainIdFrom",
          "type": "uint256"
        },
        {
          "internalType": "address",
          "name": "_receiver",
          "type": "address"
        },
        {
          "internalType": "uint256",
          "name": "_amount",
          "type": "uint256"
        },
        {
          "internalType": "uint256",
          "name": "_nonce",
          "type": "uint256"
        },
        {
          "internalType": "bytes[]",
          "name": "_signatures",
          "type": "bytes[]"
        },
        {
          "internalType": "address",
          "name": "_fallbackAddress",
          "type": "address"
        },
        {
          "internalType": "uint256",
          "name": "_executionFee",
          "type": "uint256"
        },
        {
          "internalType": "bytes",
          "name": "_data",
          "type": "bytes"
        }
      ],
      "name": "autoClaim",
      "outputs": [],
      "stateMutability": "nonpayable",
      "type": "function"
    },
    {
      "inputs": [
        {
          "internalType": "bytes32",
          "name": "_debridgeId",
          "type": "bytes32"
        },
        {
          "internalType": "uint256",
          "name": "_chainIdFrom",
          "type": "uint256"
        },
        {
          "internalType": "address",
          "name": "_receiver",
          "type": "address"
        },
        {
          "internalType": "uint256",
          "name": "_amount",
          "type": "uint256"
        },
        {
          "internalType": "uint256",
          "name": "_nonce",
          "type": "uint256"
        },
        {
          "internalType": "bytes[]",
          "name": "_signatures",
          "type": "bytes[]"
        },
        {
          "internalType": "address",
          "name": "_fallbackAddress",
          "type": "address"
        },
        {
          "internalType": "uint256",
          "name": "_executionFee",
          "type": "uint256"
        },
        {
          "internalType": "bytes",
          "name": "_data",
          "type": "bytes"
        },
        {
          "internalType": "uint8",
          "name": "_aggregatorVersion",
          "type": "uint8"
        }
      ],
      "name": "autoClaimWithOldAggregator",
      "outputs": [],
      "stateMutability": "nonpayable",
      "type": "function"
    },
    {
      "inputs": [
        {
          "internalType": "bytes32",
          "name": "_debridgeId",
          "type": "bytes32"
        },
        {
          "internalType": "uint256",
          "name": "_chainIdFrom",
          "type": "uint256"
        },
        {
          "internalType": "address",
          "name": "_receiver",
          "type": "address"
        },
        {
          "internalType": "uint256",
          "name": "_amount",
          "type": "uint256"
        },
        {
          "internalType": "uint256",
          "name": "_nonce",
          "type": "uint256"
        },
        {
          "internalType": "bytes[]",
          "name": "_signatures",
          "type": "bytes[]"
        }
      ],
      "name": "claim",
      "outputs": [],
      "stateMutability": "nonpayable",
      "type": "function"
    },
    {
      "inputs": [
        {
          "internalType": "bytes32",
          "name": "_debridgeId",
          "type": "bytes32"
        },
        {
          "internalType": "uint256",
          "name": "_chainIdFrom",
          "type": "uint256"
        },
        {
          "internalType": "address",
          "name": "_receiver",
          "type": "address"
        },
        {
          "internalType": "uint256",
          "name": "_amount",
          "type": "uint256"
        },
        {
          "internalType": "uint256",
          "name": "_nonce",
          "type": "uint256"
        },
        {
          "internalType": "bytes[]",
          "name": "_signatures",
          "type": "bytes[]"
        },
        {
          "internalType": "uint8",
          "name": "_aggregatorVersion",
          "type": "uint8"
        }
      ],
      "name": "claimWithOldAggregator",
      "outputs": [],
      "stateMutability": "nonpayable",
      "type": "function"
    },
    {
      "inputs": [
        {
          "internalType": "bytes32",
          "name": "_debridgeId",
          "type": "bytes32"
        },
        {
          "internalType": "uint256",
          "name": "_amount",
          "type": "uint256"
        }
      ],
      "name": "fundTreasury",
      "outputs": [],
      "stateMutability": "nonpayable",
      "type": "function"
    },
    {
      "inputs": [
        {
          "internalType": "contract IFeeProxy",
          "name": "_feeProxy",
          "type": "address"
        }
      ],
      "name": "setFeeProxy",
      "outputs": [],
      "stateMutability": "nonpayable",
      "type": "function"
    },
    {
      "inputs": [
        {
          "internalType": "contract IWETH",
          "name": "_weth",
          "type": "address"
        }
      ],
      "name": "setWeth",
      "outputs": [],
      "stateMutability": "nonpayable",
      "type": "function"
    },
    {
      "inputs": [
        {
          "internalType": "bytes32[]",
          "name": "_submissionIds",
          "type": "bytes32[]"
        }
      ],
      "name": "blockSubmission",
      "outputs": [],
      "stateMutability": "nonpayable",
      "type": "function"
    },
    {
      "inputs": [
        {
          "internalType": "bytes32[]",
          "name": "_submissionIds",
          "type": "bytes32[]"
        }
      ],
      "name": "unBlockSubmission",
      "outputs": [],
      "stateMutability": "nonpayable",
      "type": "function"
    }
  ],
  "bytecode": "0x608060405234801561001057600080fd5b50615a8c80620000216000396000f3fe6080604052600436106103e35760003560e01c806383d3f95d11610208578063b8d1452f11610118578063e43de20b116100ab578063f00966ec1161007a578063f00966ec14610d09578063f30d9ea414610d29578063f8b2cb4f14610d49578063f9e032c414610d69578063fa07838c14610d89576103e3565b8063e43de20b14610c95578063e7e28dff14610ca8578063e836a7a914610cbb578063eee70b3814610ce8576103e3565b8063bf3d7341116100e7578063bf3d734114610c15578063c148806914610c35578063d547741f14610c55578063d9deec4d14610c75576103e3565b8063b8d1452f14610b9f578063b9b5565214610bbf578063ba9f777614610bd5578063be7f218414610bf5576103e3565b8063932fb34b1161019b578063a217fddf1161016a578063a217fddf14610aec578063a7bb580314610b01578063a838b8df14610b3f578063a867566c14610b5f578063b01ac56d14610b7f576103e3565b8063932fb34b14610a665780639682b90914610a965780639a8a059214610ab65780639b23fa8614610acc576103e3565b80638c92115d116101d75780638c92115d146109f45780639003adfe14610a14578063918f867414610a2a57806391d1485414610a46576103e3565b806383d3f95d1461095d5780638456cb591461097d578063888674a614610992578063895f0c6a146109d4576103e3565b80633bd4772111610303578063598a2a4f116102965780636834e3a8116102655780636834e3a81461086d5780636b063d651461089a578063726b3918146108ad5780637df16271146108e0578063827bc1c71461093d576103e3565b8063598a2a4f146107eb5780635c975abb1461080b5780635e8259d21461082a57806365ac9f781461083d576103e3565b806340768e1f116102d257806340768e1f146106e557806341d8f82b1461070557806346144c8f1461072557806357cf07ca14610745576103e3565b80633bd477211461067d5780633d117cfb1461069d5780633f4ba83a146106b05780633fc8cef3146106c5576103e3565b8063248a9ca31161037b5780632f2ff15d1161034a5780632f2ff15d146105e95780633225b10b1461060957806334497b091461063d57806336568abe1461065d576103e3565b8063248a9ca31461054157806325be0be1146105715780632b0d0a8b146105915780632da688ac146105b1576103e3565b8063106f432f116103b7578063106f432f146104c057806316d19fa7146104e05780631be2d196146104f357806321d9309014610513576103e3565b8062dbc01c146103e857806301ffc9a71461044e5780630a0e5e9a1461047e5780630c71531d146104a0575b600080fd5b3480156103f457600080fd5b5061042a6104033660046154cf565b600f602052600090815260409020546001600160a01b03811690600160a01b900460ff1682565b604080516001600160a01b0390931683529015156020830152015b60405180910390f35b34801561045a57600080fd5b5061046e610469366004615362565b610da9565b6040519015158152602001610445565b34801561048a57600080fd5b5061049e61049936600461520b565b610de2565b005b3480156104ac57600080fd5b5061049e6104bb366004614f7b565b610e9a565b3480156104cc57600080fd5b5061049e6104db366004614a79565b610f1b565b61049e6104ee366004614da5565b610f64565b3480156104ff57600080fd5b5061049e61050e366004614cb6565b6110af565b34801561051f57600080fd5b5061053361052e366004614d32565b6111cf565b604051908152602001610445565b34801561054d57600080fd5b5061053361055c366004614d32565b60009081526020819052604090206001015490565b34801561057d57600080fd5b5061049e61058c366004614a79565b6111f0565b34801561059d57600080fd5b5061049e6105ac366004614a79565b611239565b3480156105bd57600080fd5b506007546105d1906001600160a01b031681565b6040516001600160a01b039091168152602001610445565b3480156105f557600080fd5b5061049e610604366004614d4a565b6112b4565b34801561061557600080fd5b506105337fb3c3f8258c2780bffb0b444bbeed42fe51cc1a89779df0a97a43a56e08602e1981565b34801561064957600080fd5b5061049e610658366004614f7b565b611343565b34801561066957600080fd5b5061049e610678366004614d4a565b6113e1565b34801561068957600080fd5b5061049e610698366004615243565b61145b565b61049e6106ab366004614e69565b6114ae565b3480156106bc57600080fd5b5061049e6115af565b3480156106d157600080fd5b506013546105d1906001600160a01b031681565b3480156106f157600080fd5b5061049e610700366004615181565b611635565b34801561071157600080fd5b5061049e610720366004614f5a565b6116b8565b34801561073157600080fd5b506009546105d1906001600160a01b031681565b34801561075157600080fd5b506107aa610760366004614d32565b600a6020526000908152604090208054600182015460028301546003840154600485015460058601546007909601546001600160a01b039095169593949293919290919060ff1687565b604080516001600160a01b0390981688526020880196909652948601939093526060850191909152608084015260a0830152151560c082015260e001610445565b3480156107f757600080fd5b5061049e6108063660046150b3565b611932565b34801561081757600080fd5b5061046e60015462010000900460ff1690565b61049e610838366004614a95565b6119f0565b34801561084957600080fd5b5061046e610858366004614d32565b600b6020526000908152604090205460ff1681565b34801561087957600080fd5b50610533610888366004614a79565b600d6020526000908152604090205481565b61049e6108a8366004614bcf565b611b49565b3480156108b957600080fd5b506007546108ce90600160a81b900460ff1681565b60405160ff9091168152602001610445565b3480156108ec57600080fd5b506109206108fb366004614d32565b60116020526000908152604090208054600182015460029092015460ff909116919083565b604080519315158452602084019290925290820152606001610445565b34801561094957600080fd5b5061049e6109583660046154e9565b611bf1565b34801561096957600080fd5b5061049e610978366004614d6e565b611cd6565b34801561098957600080fd5b5061049e611dec565b34801561099e57600080fd5b5061042a6109ad3660046154cf565b600e602052600090815260409020546001600160a01b03811690600160a01b900460ff1682565b3480156109e057600080fd5b5061049e6109ef366004614ef1565b611e4a565b348015610a0057600080fd5b506006546105d1906001600160a01b031681565b348015610a2057600080fd5b5061053360035481565b348015610a3657600080fd5b50610533670de0b6b3a764000081565b348015610a5257600080fd5b5061046e610a61366004614d4a565b611f0c565b348015610a7257600080fd5b5061046e610a81366004614d32565b600c6020526000908152604090205460ff1681565b348015610aa257600080fd5b50610533610ab1366004614d4a565b611f35565b348015610ac257600080fd5b5061053360025481565b348015610ad857600080fd5b5061049e610ae7366004614bcf565b611f83565b348015610af857600080fd5b50610533600081565b348015610b0d57600080fd5b50610b21610b1c36600461538a565b612053565b60408051938452602084019290925260ff1690820152606001610445565b348015610b4b57600080fd5b506005546105d1906001600160a01b031681565b348015610b6b57600080fd5b5061049e610b7a366004614ff5565b6120d8565b348015610b8b57600080fd5b5061049e610b9a366004614c27565b61214a565b348015610bab57600080fd5b5061049e610bba366004614a79565b612242565b348015610bcb57600080fd5b5061053360045481565b348015610be157600080fd5b506012546105d1906001600160a01b031681565b348015610c0157600080fd5b5061049e610c10366004614bcf565b61228b565b348015610c2157600080fd5b50610533610c30366004615274565b61241b565b348015610c4157600080fd5b5061049e610c50366004614b97565b612479565b348015610c6157600080fd5b5061049e610c70366004614d4a565b6125f9565b348015610c8157600080fd5b5061049e610c90366004614ff5565b612679565b61049e610ca33660046153dc565b6126f8565b61049e610cb6366004614b39565b612808565b348015610cc757600080fd5b50610533610cd6366004614d32565b60106020526000908152604090205481565b348015610cf457600080fd5b506007546108ce90600160a01b900460ff1681565b348015610d1557600080fd5b5061049e610d243660046150b3565b612917565b348015610d3557600080fd5b5061049e610d44366004615181565b61297c565b348015610d5557600080fd5b50610533610d64366004614a79565b612a18565b348015610d7557600080fd5b50610533610d843660046152c8565b612aad565b348015610d9557600080fd5b5061049e610da4366004614c27565b612af5565b60006001600160e01b03198216637965db0b60e01b1480610dda57506301ffc9a760e01b6001600160e01b03198316145b90505b919050565b610ded600033611f0c565b610e125760405162461bcd60e51b8152600401610e0990615817565b60405180910390fd5b6000828152601160205260409020805460ff19168215801591909117909155610e6757604051829084907fdd4dbf80f57aa5115a1e07abb36e4de565879d4de5bd15b3803d666fe1d8486390600090a3610e95565b604051829084907f86c512831f7a2aad3f56b4169c161be1028776ab950c72e26237a0310ded560690600090a35b505050565b610eac60015462010000900460ff1690565b15610ec95760405162461bcd60e51b8152600401610e0990615771565b6000610edb8888600254888a8961241b565b9050610ef2818987610eed868861594f565b612bed565b610f118189888860008060405180602001604052806000815250612d9c565b5050505050505050565b610f26600033611f0c565b610f425760405162461bcd60e51b8152600401610e0990615817565b600980546001600160a01b0319166001600160a01b0392909216919091179055565b610f7660015462010000900460ff1690565b15610f935760405162461bcd60e51b8152600401610e0990615771565b610fa18a89898686866131c9565b975084881015610ff35760405162461bcd60e51b815260206004820152601f60248201527f6175746f4275726e3a2070726f706f7365642066656520746f6f2068696768006044820152606401610e09565b610ffd8589615938565b6001600160a01b038a166000908152600d6020526040812054600254929a509161102f908d908b8d8f878e8e8e612aad565b90507f162d1eb996f3c086a0e61e84fd83d43819c49672c1f91d948c6b5df1fad617a3818d8c8e868e8d8f8e604051611070999897969594939291906156fd565b60405180910390a16001600160a01b038b166000908152600d6020526040812080549161109c836159c9565b9190505550505050505050505050505050565b6110ba600033611f0c565b6110d65760405162461bcd60e51b8152600401610e0990615817565b81516110e9906008906020850190614836565b5060005b82518110156111935781818151811061111657634e487b7160e01b600052603260045260246000fd5b60200260200101516011600085848151811061114257634e487b7160e01b600052603260045260246000fd5b60209081029190910181015182528181019290925260409081016000208351815460ff191690151517815591830151600183015591909101516002909101558061118b816159c9565b9150506110ed565b507fc96689ced54dda42d1f32f295881474112291c08120448bec2f7b10f5297e88f826040516111c39190615651565b60405180910390a15050565b600881815481106111df57600080fd5b600091825260209091200154905081565b6111fb600033611f0c565b6112175760405162461bcd60e51b8152600401610e0990615817565b601280546001600160a01b0319166001600160a01b0392909216919091179055565b611244600033611f0c565b6112605760405162461bcd60e51b8152600401610e0990615817565b600780546001600160a01b0319166001600160a01b0383169081179091556040519081527fa9543b36462a5e2c2259a14d72a8bd4e2342eaf9d7c828e9fb86921b3aa3eb5f9060200160405180910390a150565b6000828152602081905260409020600101546112d1905b33610a61565b6113355760405162461bcd60e51b815260206004820152602f60248201527f416363657373436f6e74726f6c3a2073656e646572206d75737420626520616e60448201526e0818591b5a5b881d1bc819dc985b9d608a1b6064820152608401610e09565b61133f8282613611565b5050565b61135560015462010000900460ff1690565b156113725760405162461bcd60e51b8152600401610e0990615771565b60006113848888600254888a8961241b565b90506113b288836113a0576006546001600160a01b03166113ad565b6005546001600160a01b03165b613695565b6113c2818987610eed868861594f565b610f118189888860008060405180602001604052806000815250613792565b6001600160a01b03811633146114515760405162461bcd60e51b815260206004820152602f60248201527f416363657373436f6e74726f6c3a2063616e206f6e6c792072656e6f756e636560448201526e103937b632b9903337b91039b2b63360891b6064820152608401610e09565b61133f8282613b6e565b611466600033611f0c565b6114825760405162461bcd60e51b8152600401610e0990615817565b6000938452600a6020908152604080862060028101959095556005909401929092556010909152912055565b6114c060015462010000900460ff1690565b156114dd5760405162461bcd60e51b8152600401610e0990615771565b6114eb8786868686866131c9565b6001600160a01b0387166000908152600d60205260408120546002549297509161151a908a90888a8c8761241b565b60408051828152602081018c90529081018990526001600160a01b038a1660608201526080810184905260a081018890529091507fb8cc5195d548dc2781227c496b92d3736cd56d7f32b28971c9ae1e9eb0badf959060c00160405180910390a16001600160a01b0388166000908152600d6020526040812080549161159f836159c9565b9190505550505050505050505050565b6115ba600033611f0c565b6115d65760405162461bcd60e51b8152600401610e0990615817565b6115e860015462010000900460ff1690565b61162b5760405162461bcd60e51b815260206004820152601460248201527314185d5cd8589b194e881b9bdd081c185d5cd95960621b6044820152606401610e09565b611633613bd3565b565b61164760015462010000900460ff1690565b156116645760405162461bcd60e51b8152600401610e0990615771565b60006116768989600254898b8a61241b565b905061168e818a88611688878961594f565b86613c6a565b6116ad818a898960008060405180602001604052806000815250612d9c565b505050505050505050565b6000828152600a60205260409020600381015482111561171a5760405162461bcd60e51b815260206004820152601c60248201527f66756e6454726561737572793a206e6f7420656e6f75676820666565000000006044820152606401610e09565b8181600301600082825461172e9190615938565b909155505080546001600160a01b03166118a657601360009054906101000a90046001600160a01b03166001600160a01b031663d0e30db0836040518263ffffffff1660e01b81526004016000604051808303818588803b15801561179257600080fd5b505af11580156117a6573d6000803e3d6000fd5b505060135460125460405163a9059cbb60e01b81526001600160a01b039182166004820152602481018890529116935063a9059cbb92506044019050602060405180830381600087803b1580156117fc57600080fd5b505af1158015611810573d6000803e3d6000fd5b505050506040513d601f19601f820116820180604052508101906118349190614d16565b506012546013546014546040516362785b6560e01b81526001600160a01b03928316600482015290821660248201529116906362785b6590604401600060405180830381600087803b15801561188957600080fd5b505af115801561189d573d6000803e3d6000fd5b50505050610e95565b60125481546118c2916001600160a01b03918216911684613eb8565b60125481546014546040516362785b6560e01b81526001600160a01b03928316600482015290821660248201529116906362785b6590604401600060405180830381600087803b15801561191557600080fd5b505af1158015611929573d6000803e3d6000fd5b50505050505050565b61194460015462010000900460ff1690565b156119615760405162461bcd60e51b8152600401610e0990615771565b60006119768c8c6002548c8e8d8b8b8b612aad565b90506119c38c876119a25760ff84166000908152600f60205260409020546001600160a01b03166113ad565b60ff84166000908152600e60205260409020546001600160a01b0316613695565b6119d3818d8b6116888a8c61594f565b6119e2818d8c8c898989613792565b505050505050505050505050565b611a0260015462010000900460ff1690565b15611a1f5760405162461bcd60e51b8152600401610e0990615771565b6000611a2d6002548a611f35565b9050611a3c8982898986613f1b565b965083871015611a8e5760405162461bcd60e51b815260206004820152601f60248201527f6175746f53656e643a2070726f706f7365642066656520746f6f2068696768006044820152606401610e09565b611a988488615938565b6001600160a01b0389166000908152600d602052604081205460025492995091611aca9084908a8c8e878d8d8d612aad565b90507f29694ef96c3937a1b484e431876ef7ec8a4a9733d71f07880a741507422f2dbe81848b8d868d8c8e8d604051611b0b999897969594939291906156fd565b60405180910390a16001600160a01b038a166000908152600d60205260408120805491611b37836159c9565b91905055505050505050505050505050565b6009546001600160a01b03163314611b9e5760405162461bcd60e51b815260206004820152601860248201527764656669436f6e74726f6c6c65723a2062616420726f6c6560401b6044820152606401610e09565b6000611bac60025484611f35565b6000818152600a602052604090208054919250906001600160a01b031615611beb576009548154611beb916001600160a01b039182169116308661428a565b50505050565b611bfc600033611f0c565b611c185760405162461bcd60e51b8152600401610e0990615817565b8115611c795760075460ff600160a01b909104811690841610611c4d5760405162461bcd60e51b8152600401610e09906157d2565b60ff83166000908152600e60205260409020805460ff60a01b1916600160a01b83151502179055610e95565b60075460ff600160a81b909104811690841610611ca85760405162461bcd60e51b8152600401610e09906157d2565b60ff83166000908152600f602052604090208054821515600160a01b0260ff60a01b19909116179055505050565b611ce1600033611f0c565b611cfd5760405162461bcd60e51b8152600401610e0990615817565b6000838152600a602052604090206003810154821115611d5f5760405162461bcd60e51b815260206004820152601b60248201527f77697468647261774665653a206e6f7420656e6f7567682066656500000000006044820152606401610e09565b81816003016000828254611d739190615938565b90915550506002546001820154148015611d95575080546001600160a01b0316155b15611dd6576040516001600160a01b0384169083156108fc029084906000818181858888f19350505050158015611dd0573d6000803e3d6000fd5b50611beb565b8054611beb906001600160a01b03168484613eb8565b611df7600033611f0c565b611e135760405162461bcd60e51b8152600401610e0990615817565b611e2560015462010000900460ff1690565b15611e425760405162461bcd60e51b8152600401610e0990615771565b6116336142c2565b611e55600033611f0c565b611e715760405162461bcd60e51b8152600401610e0990615817565b6000838152600a60205260408120905b8351811015611f0557828181518110611eaa57634e487b7160e01b600052603260045260246000fd5b6020026020010151826006016000868481518110611ed857634e487b7160e01b600052603260045260246000fd5b60200260200101518152602001908152602001600020819055508080611efd906159c9565b915050611e81565b5050505050565b6000918252602082815260408084206001600160a01b0393909316845291905290205460ff1690565b60008282604051602001611f6592919091825260601b6bffffffffffffffffffffffff1916602082015260340190565b60405160208183030381529060405280519060200120905092915050565b611f8e600033611f0c565b611faa5760405162461bcd60e51b8152600401610e0990615817565b8060035410156120065760405162461bcd60e51b815260206004820152602160248201527f77697468647261774e61746976654665653a206e6f7420656e6f7567682066656044820152606560f81b6064820152608401610e09565b80600360008282546120189190615938565b90915550506040516001600160a01b0383169082156108fc029083906000818181858888f19350505050158015610e95573d6000803e3d6000fd5b600080600083516041146120ba5760405162461bcd60e51b815260206004820152602860248201527f73706c69745369676e61747572653a20696e76616c6964207369676e617475726044820152670ca40d8cadccee8d60c31b6064820152608401610e09565b50505060208101516040820151606090920151909260009190911a90565b6120ea60015462010000900460ff1690565b156121075760405162461bcd60e51b8152600401610e0990615771565b600061211c8b8b6002548b8d8c8a8a8a612aad565b905061212e818c8a610eed898b61594f565b61213d818c8b8b888888612d9c565b5050505050505050505050565b612155600033611f0c565b6121715760405162461bcd60e51b8152600401610e0990615817565b60005b815181101561133f576000600c60008484815181106121a357634e487b7160e01b600052603260045260246000fd5b6020026020010151815260200190815260200160002060006101000a81548160ff0219169083151502179055507f598eac83c515ef525efc37796beda3b069e752328e8325fb446f84e6cc7d224282828151811061221157634e487b7160e01b600052603260045260246000fd5b602002602001015160405161222891815260200190565b60405180910390a18061223a816159c9565b915050612174565b61224d600033611f0c565b6122695760405162461bcd60e51b8152600401610e0990615817565b601380546001600160a01b0319166001600160a01b0392909216919091179055565b6009546001600160a01b031633146122e05760405162461bcd60e51b815260206004820152601860248201527764656669436f6e74726f6c6c65723a2062616420726f6c6560401b6044820152606401610e09565b60006122ee60025484611f35565b6000818152600a60205260408120600581015460048201549394509092670de0b6b3a76400009161231e91615919565b61232891906158f9565b8254909150600090612342906001600160a01b0316612a18565b90508061234f86846158e1565b116123a85760405162461bcd60e51b8152602060048201526024808201527f7265717565737452657365727665733a206e6f7420656e6f75676820726573656044820152637276657360e01b6064820152608401610e09565b82546001600160a01b03166123f7576009546040516001600160a01b039091169086156108fc029087906000818181858888f193505050501580156123f1573d6000803e3d6000fd5b50612413565b6009548354612413916001600160a01b03918216911687613eb8565b505050505050565b60408051602080820198909852808201969096526060808701959095526080860193909352921b6bffffffffffffffffffffffff191660a084015260b4808401929092528051808403909201825260d4909201909152805191012090565b612484600033611f0c565b6124a05760405162461bcd60e51b8152600401610e0990615817565b801561254e576040805180820182526001600160a01b03808516808352600160208085019182526007805460ff600160a01b9182900481166000908152600e909452979092209551865493511515830260ff60a01b19919096166001600160a01b0319948516171694909417909455600580549091169091179055805491909104909116906014612530836159e4565b91906101000a81548160ff021916908360ff1602179055505061133f565b6040805180820182526001600160a01b03808516808352600160208085019182526007805460ff600160a81b9182900481166000908152600f909452979092209551865493511515600160a01b0260ff60a01b19919096166001600160a01b03199485161716949094179094556006805490911690911790558054919091049091169060156125dc836159e4565b91906101000a81548160ff021916908360ff160217905550505050565b600082815260208190526040902060010154612614906112cb565b6114515760405162461bcd60e51b815260206004820152603060248201527f416363657373436f6e74726f6c3a2073656e646572206d75737420626520616e60448201526f2061646d696e20746f207265766f6b6560801b6064820152608401610e09565b61268b60015462010000900460ff1690565b156126a85760405162461bcd60e51b8152600401610e0990615771565b60006126bd8b8b6002548b8d8c8a8a8a612aad565b90506126d98b866113a0576006546001600160a01b03166113ad565b6126e9818c8a610eed898b61594f565b61213d818c8b8b888888613792565b600154610100900460ff1680612711575060015460ff16155b6127745760405162461bcd60e51b815260206004820152602e60248201527f496e697469616c697a61626c653a20636f6e747261637420697320616c72656160448201526d191e481a5b9a5d1a585b1a5e995960921b6064820152608401610e09565b600154610100900460ff1615801561279e576001805460ff1961ff00199091166101001716811790555b6127ad8b8b8b8b8b8b89614332565b601380546001600160a01b038088166001600160a01b031992831617909255601280548784169083161790556014805492851692909116919091179055801561213d576001805461ff00191690555050505050505050505050565b61281a60015462010000900460ff1690565b156128375760405162461bcd60e51b8152600401610e0990615771565b600061284560025487611f35565b90506128548682868686613f1b565b6001600160a01b0386166000908152600d60205260408120546002549296509161288390849087898b8761241b565b60408051828152602081018690529081018890526001600160a01b03891660608201526080810184905260a081018790529091507f17c61cb89b62a3f29f5b150e3489c7a796ac4dc95fd73af14faa2c8086a324b49060c00160405180910390a16001600160a01b0387166000908152600d60205260408120805491612908836159c9565b91905055505050505050505050565b61292960015462010000900460ff1690565b156129465760405162461bcd60e51b8152600401610e0990615771565b600061295b8c8c6002548c8e8d8b8b8b612aad565b905061296d818d8b6116888a8c61594f565b6119e2818d8c8c898989612d9c565b61298e60015462010000900460ff1690565b156129ab5760405162461bcd60e51b8152600401610e0990615771565b60006129bd8989600254898b8a61241b565b90506129e989846119a25760ff84166000908152600f60205260409020546001600160a01b03166113ad565b6129f9818a88611688878961594f565b6116ad818a898960008060405180602001604052806000815250613792565b60006001600160a01b038216612a2f575047610ddd565b6040516370a0823160e01b81523060048201526001600160a01b038316906370a082319060240160206040518083038186803b158015612a6e57600080fd5b505afa158015612a82573d6000803e3d6000fd5b505050506040513d601f19601f82011682018060405250810190612aa691906153c4565b9050610ddd565b6000898989898989898989604051602001612ad099989796959493929190615552565b6040516020818303038152906040528051906020012090509998505050505050505050565b612b00600033611f0c565b612b1c5760405162461bcd60e51b8152600401610e0990615817565b60005b815181101561133f576001600c6000848481518110612b4e57634e487b7160e01b600052603260045260246000fd5b6020026020010151815260200190815260200160002060006101000a81548160ff0219169083151502179055507f7f2b4c099f4c970e6d3b8677f8c32755ce38018a03dad58ed015c68a7e9bc791828281518110612bbc57634e487b7160e01b600052603260045260246000fd5b6020026020010151604051612bd391815260200190565b60405180910390a180612be5816159c9565b915050612b1f565b6000806000835111612c79576006546040516321c2773160e01b8152600481018890526001600160a01b03909116906321c2773190602401604080518083038186803b158015612c3c57600080fd5b505afa158015612c50573d6000803e3d6000fd5b505050506040513d601f19601f82011682018060405250810190612c7491906154ab565b612cfc565b60055460405163f91aa31760e01b81526001600160a01b039091169063f91aa31790612cab9089908790600401615695565b6040805180830381600087803b158015612cc457600080fd5b505af1158015612cd8573d6000803e3d6000fd5b505050506040513d601f19601f82011682018060405250810190612cfc91906154ab565b9150915080612d3e5760405162461bcd60e51b815260206004820152600e60248201526d03737ba1031b7b73334b936b2b2160951b6044820152606401610e09565b6000858152601060205260409020548410612413576004548210156124135760405162461bcd60e51b8152602060048201526014602482015273185b5bdd5b9d081b9bdd0818dbdb999a5c9b595960621b6044820152606401610e09565b6000868152600a60205260409020600254600182015414612dff5760405162461bcd60e51b815260206004820152601960248201527f636c61696d3a2077726f6e672074617267657420636861696e000000000000006044820152606401610e09565b6000888152600b602052604090205460ff1615612e545760405162461bcd60e51b815260206004820152601360248201527218db185a5b4e88185b1c9958591e481d5cd959606a1b6044820152606401610e09565b6000888152600c602052604090205460ff1615612eb35760405162461bcd60e51b815260206004820152601960248201527f636c61696d3a20626c6f636b6564207375626d697373696f6e000000000000006044820152606401610e09565b6000888152600b60205260408120805460ff19166001179055600482018054879290612ee0908490615938565b90915550612ef09050818661446c565b80546001600160a01b0316613044578215612f3457604051339084156108fc029085906000818181858888f19350505050158015612f32573d6000803e3d6000fd5b505b8151156130075760075460405163c435b14b60e01b81526000916001600160a01b03169063c435b14b908890612f729089908c90899060040161561c565b6020604051808303818588803b158015612f8b57600080fd5b505af1158015612f9f573d6000803e3d6000fd5b50505050506040513d601f19601f82011682018060405250810190612fc49190614d16565b604080518b815282151560208201529192507f36c8142a7dcbbfde02c55b345b75761d6761eb241d6c504a0df77c0730b52fe9910160405180910390a15061303f565b6040516001600160a01b0387169086156108fc029087906000818181858888f1935050505015801561303d573d6000803e3d6000fd5b505b61316b565b8215613060578054613060906001600160a01b03163385613eb8565b815115613155576007548154613083916001600160a01b03918216911687613eb8565b6007548154604051633bab642f60e01b81526000926001600160a01b0390811692633bab642f926130c0929091169089908c9089906004016155de565b602060405180830381600087803b1580156130da57600080fd5b505af11580156130ee573d6000803e3d6000fd5b505050506040513d601f19601f820116820180604052508101906131129190614d16565b604080518b815282151560208201529192507f36c8142a7dcbbfde02c55b345b75761d6761eb241d6c504a0df77c0730b52fe9910160405180910390a15061316b565b805461316b906001600160a01b03168787613eb8565b60408051898152602081018790526001600160a01b03881691810191909152606081018890527fabe3bed2a8590dd123c1a018888bce6142d526741bed65dfe570fb223525c6a4906080015b60405180910390a15050505050505050565b6000868152600a60209081526040808320878452601183528184208251606081018452815460ff161515815260018083015495820195909552600291820154938101939093525492810154909214156132595760405162461bcd60e51b8152602060048201526012602482015271189d5c9b8e881b985d1a5d9948185cdcd95d60721b6044820152606401610e09565b80516132a75760405162461bcd60e51b815260206004820152601860248201527f6275726e3a2077726f6e672074617267656420636861696e00000000000000006044820152606401610e09565b81600201548811156132f35760405162461bcd60e51b81526020600482015260156024820152740c4eae4dc7440c2dadeeadce840e8dede40d0d2ced605b1b6044820152606401610e09565b815485516001600160a01b0390911690156133c657600080600061331689612053565b925092509250836001600160a01b031663d505accf33308f8e8689896040518863ffffffff1660e01b815260040161339097969594939291906001600160a01b0397881681529590961660208601526040850193909352606084019190915260ff16608083015260a082015260c081019190915260e00190565b600060405180830381600087803b1580156133aa57600080fd5b505af11580156133be573d6000803e3d6000fd5b505050505050505b6040516323b872dd60e01b8152336004820152306024820152604481018a90526001600160a01b038216906323b872dd90606401602060405180830381600087803b15801561341457600080fd5b505af1158015613428573d6000803e3d6000fd5b505050506040513d601f19601f8201168201806040525081019061344c9190614d16565b5084156134ff576000888152600684016020526040902054806134815760405162461bcd60e51b8152600401610e0990615844565b6000670de0b6b3a764000084604001518c61349c9190615919565b6134a691906158f9565b6134b090836158e1565b9050808b10156134d25760405162461bcd60e51b8152600401610e099061579b565b808560030160008282546134e691906158e1565b909155506134f69050818c615938565b9a5050506135a9565b6000670de0b6b3a764000083604001518b61351a9190615919565b61352491906158f9565b9050808a10156135465760405162461bcd60e51b8152600401610e099061579b565b8084600301600082825461355a91906158e1565b9091555061356a9050818b615938565b99505081602001513410156135915760405162461bcd60e51b8152600401610e099061579b565b34600360008282546135a391906158e1565b90915550505b604051630852cd8d60e31b8152600481018a90526001600160a01b038216906342966c6890602401600060405180830381600087803b1580156135eb57600080fd5b505af11580156135ff573d6000803e3d6000fd5b509a9c9b505050505050505050505050565b61361b8282611f0c565b61133f576000828152602081815260408083206001600160a01b03851684529091529020805460ff191660011790556136513390565b6001600160a01b0316816001600160a01b0316837f2f8788117e7eff1d82e926ec794901d17c78024a50270940304540a733656f0d60405160405180910390a45050565b6000828152600a602052604090206007015460ff1661133f57604051635db7c67360e01b81526004810183905260009081906001600160a01b03841690635db7c673906024016040805180830381600087803b1580156136f457600080fd5b505af1158015613708573d6000803e3d6000fd5b505050506040513d601f19601f8201168201806040525081019061372c9190614bfa565b90925090506001600160a01b0382166137875760405162461bcd60e51b815260206004820152601d60248201527f6d696e743a2077726170706564206173736574206e6f742065786973740000006044820152606401610e09565b611beb84838361453b565b6000878152600b602052604090205460ff16156137e65760405162461bcd60e51b81526020600482015260126024820152711b5a5b9d0e88185b1c9958591e481d5cd95960721b6044820152606401610e09565b6000878152600c602052604090205460ff16156138455760405162461bcd60e51b815260206004820152601860248201527f6d696e743a20626c6f636b6564207375626d697373696f6e00000000000000006044820152606401610e09565b6000868152600a60205260409020600781015460ff166138a75760405162461bcd60e51b815260206004820152601860248201527f6d696e743a206465627269646765206e6f7420657869737400000000000000006044820152606401610e09565b6000888152600b60205260409020805460ff191660019081179091556002549082015414156139105760405162461bcd60e51b815260206004820152601560248201527436b4b73a1d1034b9903730ba34bb329031b430b4b760591b6044820152606401610e09565b821561397a5780546040516340c10f1960e01b8152336004820152602481018590526001600160a01b03909116906340c10f1990604401600060405180830381600087803b15801561396157600080fd5b505af1158015613975573d6000803e3d6000fd5b505050505b815115613ab85780546007546040516340c10f1960e01b81526001600160a01b039182166004820152602481018890529116906340c10f1990604401600060405180830381600087803b1580156139d057600080fd5b505af11580156139e4573d6000803e3d6000fd5b50506007548354604051633bab642f60e01b8152600094506001600160a01b039283169350633bab642f92613a2392169089908c9089906004016155de565b602060405180830381600087803b158015613a3d57600080fd5b505af1158015613a51573d6000803e3d6000fd5b505050506040513d601f19601f82011682018060405250810190613a759190614d16565b604080518b815282151560208201529192507f36c8142a7dcbbfde02c55b345b75761d6761eb241d6c504a0df77c0730b52fe9910160405180910390a150613b1e565b80546040516340c10f1960e01b81526001600160a01b03888116600483015260248201889052909116906340c10f1990604401600060405180830381600087803b158015613b0557600080fd5b505af1158015613b19573d6000803e3d6000fd5b505050505b60408051898152602081018790526001600160a01b03881691810191909152606081018890527f5918a95fd00afb5898499bd5beade1619e98655d2b4ff6e0f6a4347f0a69c127906080016131b7565b613b788282611f0c565b1561133f576000828152602081815260408083206001600160a01b0385168085529252808320805460ff1916905551339285917ff6391f5c32d9c69d2a47ea670b442974b53935d1edc7fd64eb21e047a839171b9190a45050565b613be560015462010000900460ff1690565b613c285760405162461bcd60e51b815260206004820152601460248201527314185d5cd8589b194e881b9bdd081c185d5cd95960621b6044820152606401610e09565b6001805462ff0000191690556040513381527f5db9ee0a495bf2e6ff9c91a7834c1ba4fdd244a5e8aa4e537bd38aeae4b073aa906020015b60405180910390a1565b600080835111613c8b5760ff82166000908152600f60205260409020613c9e565b60ff82166000908152600e602052604090205b6040805180820190915290546001600160a01b0381168252600160a01b900460ff16151560208201819052909150613d0c5760405162461bcd60e51b815260206004820152601160248201527034b73b30b634b220b3b3b932b3b0ba37b960791b6044820152606401610e09565b6000806000855111613d975782516040516321c2773160e01b8152600481018a90526001600160a01b03909116906321c2773190602401604080518083038186803b158015613d5a57600080fd5b505afa158015613d6e573d6000803e3d6000fd5b505050506040513d601f19601f82011682018060405250810190613d9291906154ab565b613e19565b825160405163f91aa31760e01b81526001600160a01b039091169063f91aa31790613dc8908b908990600401615695565b6040805180830381600087803b158015613de157600080fd5b505af1158015613df5573d6000803e3d6000fd5b505050506040513d601f19601f82011682018060405250810190613e1991906154ab565b9150915080613e5a5760405162461bcd60e51b815260206004820152600d60248201526c1b9bdd0818dbdb999a5c9b5959609a1b6044820152606401610e09565b6000878152601060205260409020548610610f1157600454821015610f115760405162461bcd60e51b8152602060048201526014602482015273185b5bdd5b9d081b9bdd0818dbdb999a5c9b595960621b6044820152606401610e09565b6040516001600160a01b038316602482015260448101829052610e9590849063a9059cbb60e01b906064015b60408051601f198184030181529190526020810180516001600160e01b03166001600160e01b0319909316929092179091526145ea565b6000848152600a60205260408120600781015460ff16613f4257613f42868860025461453b565b6000848152601160209081526040918290208251606081018452815460ff16151581526001808301549382019390935260029182015493810193909352549083015414613fca5760405162461bcd60e51b815260206004820152601660248201527539b2b7321d103737ba103730ba34bb329031b430b4b760511b6044820152606401610e09565b80516140185760405162461bcd60e51b815260206004820152601860248201527f73656e643a2077726f6e672074617267656420636861696e00000000000000006044820152606401610e09565b81600201548611156140645760405162461bcd60e51b81526020600482015260156024820152740e6cadcc87440c2dadeeadce840e8dede40d0d2ced605b1b6044820152606401610e09565b81546001600160a01b03166140bf573486146140ba5760405162461bcd60e51b81526020600482015260156024820152740e6cadcc87440c2dadeeadce840dad2e6dac2e8c6d605b1b6044820152606401610e09565b6140d6565b81546140d6906001600160a01b031633308961428a565b83806140ea575081546001600160a01b0316155b156141bb5781546000906001600160a01b03161561411857600086815260068401602052604090205461411e565b81602001515b90508061413d5760405162461bcd60e51b8152600401610e0990615844565b6000670de0b6b3a76400008360400151896141589190615919565b61416291906158f9565b61416c90836158e1565b90508088101561418e5760405162461bcd60e51b8152600401610e099061579b565b808460030160008282546141a291906158e1565b909155506141b290508189615938565b97505050614265565b6000670de0b6b3a76400008260400151886141d69190615919565b6141e091906158f9565b9050808710156142025760405162461bcd60e51b8152600401610e099061579b565b8083600301600082825461421691906158e1565b9091555061422690508188615938565b965050806020015134101561424d5760405162461bcd60e51b8152600401610e099061579b565b346003600082825461425f91906158e1565b90915550505b8582600401600082825461427991906158e1565b909155509598975050505050505050565b6040516001600160a01b0380851660248301528316604482015260648101829052611beb9085906323b872dd60e01b90608401613ee4565b6142d460015462010000900460ff1690565b156142f15760405162461bcd60e51b8152600401610e0990615771565b6001805462ff00001916620100001790556040513381527f62e78cea01bee320cd4e420270b5ea74000d11b0c9f74754ebdbfc544b05a25890602001613c60565b46600281905560006143448282611f35565b905061435481600060025461453b565b8451614367906008906020880190614836565b5060005b85518110156144115784818151811061439457634e487b7160e01b600052603260045260246000fd5b6020026020010151601160008884815181106143c057634e487b7160e01b600052603260045260246000fd5b60209081029190910181015182528181019290925260409081016000208351815460ff1916901515178155918301516001830155919091015160029091015580614409816159c9565b91505061436b565b50600580546001600160a01b03808b166001600160a01b031992831617909255600680548a841690831617905560078054898416908316179055600980549286169290911691909117905560048990556116ad600033611335565b6000670de0b6b3a76400008360050154846004015461448b9190615919565b61449591906158f9565b83549091506000906144af906001600160a01b0316612a18565b905060008383116144c057836144c2565b825b905081811115611f05576144d68282615938565b60095486546040516309e62b9160e01b81526001600160a01b0391821660048201526024810184905292935016906309e62b9190604401600060405180830381600087803b15801561452757600080fd5b505af11580156116ad573d6000803e3d6000fd5b6000838152600a60209081526040808320600781018054600160ff19909116811790915581546001600160a01b0319166001600160a01b038816908117835590820186905560001960028301819055670de0b6b3a764000060058401908155601086529584902081905594548351958652938501939093529284929187917f7c33f0d8ed76eeed3663e9bc2346d5d0d43847e247f615a54ac02b2074172496910160405180910390a450505050565b600061463f826040518060400160405280602081526020017f5361666545524332303a206c6f772d6c6576656c2063616c6c206661696c6564815250856001600160a01b03166146bc9092919063ffffffff16565b805190915015610e95578080602001905181019061465d9190614d16565b610e955760405162461bcd60e51b815260206004820152602a60248201527f5361666545524332303a204552433230206f7065726174696f6e20646964206e6044820152691bdd081cdd58d8d9595960b21b6064820152608401610e09565b60606146cb84846000856146d5565b90505b9392505050565b6060824710156147365760405162461bcd60e51b815260206004820152602660248201527f416464726573733a20696e73756666696369656e742062616c616e636520666f6044820152651c8818d85b1b60d21b6064820152608401610e09565b843b6147845760405162461bcd60e51b815260206004820152601d60248201527f416464726573733a2063616c6c20746f206e6f6e2d636f6e74726163740000006044820152606401610e09565b600080866001600160a01b031685876040516147a091906155c2565b60006040518083038185875af1925050503d80600081146147dd576040519150601f19603f3d011682016040523d82523d6000602084013e6147e2565b606091505b50915091506147f28282866147fd565b979650505050505050565b6060831561480c5750816146ce565b82511561481c5782518084602001fd5b8160405162461bcd60e51b8152600401610e09919061575e565b828054828255906000526020600020908101928215614871579160200282015b82811115614871578251825591602001919060010190614856565b5061487d929150614881565b5090565b5b8082111561487d5760008155600101614882565b8035610ddd81615a30565b60008083601f8401126148b2578182fd5b5081356001600160401b038111156148c8578182fd5b60208301915083602080830285010111156148e257600080fd5b9250929050565b600082601f8301126148f9578081fd5b8135602061490e614909836158be565b61588e565b8281528181019085830160608086028801850189101561492c578687fd5b865b8681101561497e5781838b031215614944578788fd5b61494d8261588e565b833561495881615a48565b81528387013587820152604080850135908201528552938501939181019160010161492e565b509198975050505050505050565b600082601f83011261499c578081fd5b813560206149ac614909836158be565b82815281810190858301838502870184018810156149c8578586fd5b855b858110156149e6578135845292840192908401906001016149ca565b5090979650505050505050565b8035610ddd81615a48565b600082601f830112614a0e578081fd5b81356001600160401b03811115614a2757614a27615a1a565b614a3a601f8201601f191660200161588e565b818152846020838601011115614a4e578283fd5b816020850160208301379081016020019190915292915050565b803560ff81168114610ddd57600080fd5b600060208284031215614a8a578081fd5b81356146ce81615a30565b600080600080600080600080610100898b031215614ab1578384fd5b8835614abc81615a30565b97506020890135614acc81615a30565b965060408901359550606089013594506080890135614aea81615a30565b935060a0890135925060c08901356001600160401b03811115614b0b578283fd5b614b178b828c016149fe565b92505060e0890135614b2881615a48565b809150509295985092959890939650565b600080600080600060a08688031215614b50578283fd5b8535614b5b81615a30565b94506020860135614b6b81615a30565b935060408601359250606086013591506080860135614b8981615a48565b809150509295509295909350565b60008060408385031215614ba9578182fd5b8235614bb481615a30565b91506020830135614bc481615a48565b809150509250929050565b60008060408385031215614be1578182fd5b8235614bec81615a30565b946020939093013593505050565b60008060408385031215614c0c578182fd5b8251614c1781615a30565b6020939093015192949293505050565b60006020808385031215614c39578182fd5b82356001600160401b03811115614c4e578283fd5b8301601f81018513614c5e578283fd5b8035614c6c614909826158be565b8181528381019083850185840285018601891015614c88578687fd5b8694505b83851015614caa578035835260019490940193918501918501614c8c565b50979650505050505050565b60008060408385031215614cc8578182fd5b82356001600160401b0380821115614cde578384fd5b614cea8683870161498c565b93506020850135915080821115614cff578283fd5b50614d0c858286016148e9565b9150509250929050565b600060208284031215614d27578081fd5b81516146ce81615a48565b600060208284031215614d43578081fd5b5035919050565b60008060408385031215614d5c578182fd5b823591506020830135614bc481615a30565b600080600060608486031215614d82578081fd5b833592506020840135614d9481615a30565b929592945050506040919091013590565b6000806000806000806000806000806101408b8d031215614dc4578384fd5b8a359950614dd460208c01614896565b985060408b0135975060608b01359650614df060808c01614896565b955060a08b0135945060c08b01356001600160401b0380821115614e12578586fd5b614e1e8e838f016149fe565b955060e08d013594506101008d0135915080821115614e3b578384fd5b50614e488d828e016149fe565b925050614e586101208c016149f3565b90509295989b9194979a5092959850565b600080600080600080600060e0888a031215614e83578081fd5b873596506020880135614e9581615a30565b955060408801359450606088013593506080880135925060a08801356001600160401b03811115614ec4578182fd5b614ed08a828b016149fe565b92505060c0880135614ee181615a48565b8091505092959891949750929550565b600080600060608486031215614f05578081fd5b8335925060208401356001600160401b0380821115614f22578283fd5b614f2e8783880161498c565b93506040860135915080821115614f43578283fd5b50614f508682870161498c565b9150509250925092565b60008060408385031215614f6c578182fd5b50508035926020909101359150565b600080600080600080600060c0888a031215614f95578081fd5b87359650602088013595506040880135614fae81615a30565b9450606088013593506080880135925060a08801356001600160401b03811115614fd6578182fd5b614fe28a828b016148a1565b989b979a50959850939692959293505050565b6000806000806000806000806000806101208b8d031215615014578384fd5b8a35995060208b0135985060408b013561502d81615a30565b975060608b0135965060808b0135955060a08b01356001600160401b0380821115615056578586fd5b6150628e838f016148a1565b909750955060c08d0135915061507782615a30565b90935060e08c013592506101008c01359080821115615094578283fd5b506150a18d828e016149fe565b9150509295989b9194979a5092959850565b60008060008060008060008060008060006101408c8e0312156150d4578485fd5b8b359a5060208c013599506150eb60408d01614896565b985060608c0135975060808c013596506001600160401b038060a08e01351115615113578586fd5b6151238e60a08f01358f016148a1565b909750955061513460c08e01614896565b945060e08d01359350806101008e0135111561514e578182fd5b506151608d6101008e01358e016149fe565b915061516f6101208d01614a68565b90509295989b509295989b9093969950565b60008060008060008060008060e0898b03121561519c578182fd5b883597506020890135965060408901356151b581615a30565b9550606089013594506080890135935060a08901356001600160401b038111156151dd578283fd5b6151e98b828c016148a1565b90945092506151fc905060c08a01614a68565b90509295985092959890939650565b60008060006060848603121561521f578081fd5b8335925060208401359150604084013561523881615a48565b809150509250925092565b60008060008060808587031215615258578182fd5b5050823594602084013594506040840135936060013592509050565b60008060008060008060c0878903121561528c578384fd5b8635955060208701359450604087013593506060870135925060808701356152b381615a30565b8092505060a087013590509295509295509295565b60008060008060008060008060006101208a8c0312156152e6578283fd5b8935985060208a0135975060408a0135965060608a0135955060808a013561530d81615a30565b945060a08a0135935060c08a013561532481615a30565b925060e08a013591506101008a01356001600160401b03811115615346578182fd5b6153528c828d016149fe565b9150509295985092959850929598565b600060208284031215615373578081fd5b81356001600160e01b0319811681146146ce578182fd5b60006020828403121561539b578081fd5b81356001600160401b038111156153b0578182fd5b6153bc848285016149fe565b949350505050565b6000602082840312156153d5578081fd5b5051919050565b6000806000806000806000806000806101408b8d0312156153fb578384fd5b8a35995061540b60208c01614896565b985061541960408c01614896565b975061542760608c01614896565b965060808b01356001600160401b0380821115615442578586fd5b61544e8e838f0161498c565b975060a08d0135915080821115615463578586fd5b506154708d828e016148e9565b95505061547f60c08c01614896565b935061548d60e08c01614896565b925061549c6101008c01614896565b9150614e586101208c01614896565b600080604083850312156154bd578182fd5b825191506020830151614bc481615a48565b6000602082840312156154e0578081fd5b6146ce82614a68565b6000806000606084860312156154fd578081fd5b61550684614a68565b9250602084013561551681615a48565b9150604084013561523881615a48565b6000815180845261553e81602086016020860161599d565b601f01601f19169290920160200192915050565b60008a82528960208301528860408301528760608301526bffffffffffffffffffffffff19808860601b166080840152866094840152808660601b1660b4840152508360c883015282516155ad8160e885016020870161599d565b9190910160e8019a9950505050505050505050565b600082516155d481846020870161599d565b9190910192915050565b6001600160a01b03858116825284811660208301528316604082015260806060820181905260009061561290830184615526565b9695505050505050565b6001600160a01b0384811682528316602082015260606040820181905260009061564890830184615526565b95945050505050565b6020808252825182820181905260009190848201906040850190845b818110156156895783518352928401929184019160010161566d565b50909695505050505050565b600060408201848352602060408185015281855180845260608601915060608382028701019350828701855b828110156156ef57605f198887030184526156dd868351615526565b955092840192908401906001016156c1565b509398975050505050505050565b60006101208b83528a602084015289604084015260018060a01b03808a1660608501528860808501528760a08501528660c085015280861660e0850152508061010084015261574e81840185615526565b9c9b505050505050505050505050565b6000602082526146ce6020830184615526565b60208082526010908201526f14185d5cd8589b194e881c185d5cd95960821b604082015260600190565b6020808252601b908201527f73656e643a20616d6f756e74206e6f7420636f76657220666565730000000000604082015260600190565b60208082526025908201527f6d616e6167654f6c6441676772656761746f723a2076657273696f6e20746f6f604082015264040d0d2ced60db1b606082015260800190565b6020808252601390820152726f6e6c7941646d696e3a2062616420726f6c6560681b604082015260600190565b6020808252602a908201527f73656e643a2066697865642066656520666f72206173736574206973206e6f74604082015269081cdd5c1c1bdc9d195960b21b606082015260800190565b604051601f8201601f191681016001600160401b03811182821017156158b6576158b6615a1a565b604052919050565b60006001600160401b038211156158d7576158d7615a1a565b5060209081020190565b600082198211156158f4576158f4615a04565b500190565b60008261591457634e487b7160e01b81526012600452602481fd5b500490565b600081600019048311821515161561593357615933615a04565b500290565b60008282101561594a5761594a615a04565b500390565b600061595d614909846158be565b8381526020808201919084845b878110156159915761597f36833589016149fe565b8552938201939082019060010161596a565b50919695505050505050565b60005b838110156159b85781810151838201526020016159a0565b83811115611beb5750506000910152565b60006000198214156159dd576159dd615a04565b5060010190565b600060ff821660ff8114156159fb576159fb615a04565b60010192915050565b634e487b7160e01b600052601160045260246000fd5b634e487b7160e01b600052604160045260246000fd5b6001600160a01b0381168114615a4557600080fd5b50565b8015158114615a4557600080fdfea2646970667358221220eb04ff1fedbcd77421b91256649d125a5b9c69396cd2ffade33f49724cf96fb164736f6c63430008020033",
  "immutableReferences": {},
  "source": "// SPDX-License-Identifier: MIT\r\npragma solidity ^0.8.2;\r\n\r\nimport \"@openzeppelin/contracts/token/ERC20/ERC20.sol\";\r\nimport \"@openzeppelin/contracts/token/ERC20/IERC20.sol\";\r\nimport \"@openzeppelin/contracts/token/ERC20/utils/SafeERC20.sol\";\r\nimport \"@openzeppelin/contracts/access/AccessControl.sol\";\r\nimport \"../interfaces/ILightVerifier.sol\";\r\nimport \"../interfaces/IDebridge.sol\";\r\nimport \"../interfaces/IFeeProxy.sol\";\r\nimport \"../interfaces/IWETH.sol\";\r\nimport \"../interfaces/IFullDebridge.sol\";\r\nimport \"../interfaces/IDefiController.sol\";\r\nimport \"../interfaces/IFullAggregator.sol\";\r\nimport \"../periphery/WrappedAsset.sol\";\r\nimport \"./Debridge.sol\";\r\n\r\ncontract FullDebridge is Debridge, IFullDebridge {\r\n    using SafeERC20 for IERC20;\r\n\r\n    IFeeProxy public feeProxy; // proxy to convert the collected fees into Link's\r\n    IWETH public weth; // wrapped native token contract\r\n    address treasury;\r\n\r\n    event Blocked(\r\n        bytes32 submissionId\r\n    );\r\n\r\n    event Unblocked(\r\n        bytes32 submissionId\r\n    );\r\n\r\n    /// @dev Constructor that initializes the most important configurations.\r\n    /// @param _ligthAggregator Aggregator address to verify signatures\r\n    /// @param _fullAggregator Aggregator address to verify by oracles confirmations\r\n    /// @param _supportedChainIds Chain ids where native token of the current chain can be wrapped.\r\n    /// @param _treasury Address to collect a fee\r\n    function initialize(\r\n        uint256 _excessConfirmations,\r\n        address _ligthAggregator,\r\n        address _fullAggregator,\r\n        address _callProxy,\r\n        uint256[] memory _supportedChainIds,\r\n        ChainSupportInfo[] memory _chainSupportInfo,\r\n        IWETH _weth,\r\n        IFeeProxy _feeProxy,\r\n        IDefiController _defiController,\r\n        address _treasury\r\n    ) public payable initializer {\r\n        super._initialize(\r\n            _excessConfirmations,\r\n            _ligthAggregator,\r\n            _fullAggregator,\r\n            _callProxy,\r\n            _supportedChainIds,\r\n            _chainSupportInfo,\r\n            _defiController\r\n        );\r\n        weth = _weth;\r\n        feeProxy = _feeProxy;\r\n        treasury = _treasury;\r\n    }\r\n\r\n    /// @dev Mints wrapped asset on the current chain.\r\n    /// @param _receiver Receiver address.\r\n    /// @param _amount Amount of the transfered asset (note: without applyed fee).\r\n    /// @param _nonce Submission id.\r\n    /// @param _signatures Array of oracles signatures.\r\n    /// @param _fallbackAddress Receiver of the tokens if the call fails.\r\n    /// @param _executionFee Fee paid to the transaction executor.\r\n    /// @param _data Chain id of the target chain.\r\n    function autoMint(\r\n        bytes32 _debridgeId,\r\n        uint256 _chainIdFrom,\r\n        address _receiver,\r\n        uint256 _amount,\r\n        uint256 _nonce,\r\n        bytes[] calldata _signatures,\r\n        address _fallbackAddress,\r\n        uint256 _executionFee,\r\n        bytes memory _data\r\n    ) external whenNotPaused() {\r\n        bytes32 submissionId = getAutoSubmisionId(\r\n            _debridgeId,\r\n            _chainIdFrom,\r\n            chainId,\r\n            _amount,\r\n            _receiver,\r\n            _nonce,\r\n            _fallbackAddress,\r\n            _executionFee,\r\n            _data\r\n        );\r\n\r\n        _checkAndDeployAsset(_debridgeId, _signatures.length > 0 \r\n                                           ? ligthAggregator \r\n                                           : fullAggregator);\r\n\r\n        _checkConfirmations(\r\n            submissionId, \r\n            _debridgeId, \r\n            _amount, \r\n            _signatures);\r\n\r\n        _mint(\r\n            submissionId,\r\n            _debridgeId,\r\n            _receiver,\r\n            _amount,\r\n            _fallbackAddress,\r\n            _executionFee,\r\n            _data\r\n        );\r\n    }\r\n\r\n    /// @dev Mints wrapped asset on the current chain.\r\n    /// @param _receiver Receiver address.\r\n    /// @param _amount Amount of the transfered asset (note: without applyed fee).\r\n    /// @param _nonce Submission id.\r\n    /// @param _signatures Array of oracles signatures.\r\n    /// @param _fallbackAddress Receiver of the tokens if the call fails.\r\n    /// @param _executionFee Fee paid to the transaction executor.\r\n    /// @param _data Chain id of the target chain.\r\n    function autoMintWithOldAggregator(\r\n        bytes32 _debridgeId,\r\n        uint256 _chainIdFrom,\r\n        address _receiver,\r\n        uint256 _amount,\r\n        uint256 _nonce,\r\n        bytes[] calldata _signatures,\r\n        address _fallbackAddress,\r\n        uint256 _executionFee,\r\n        bytes memory _data,\r\n        uint8 _aggregatorVersion\r\n    ) external whenNotPaused() {\r\n        bytes32 submissionId = getAutoSubmisionId(\r\n            _debridgeId,\r\n            _chainIdFrom,\r\n            chainId,\r\n            _amount,\r\n            _receiver,\r\n            _nonce,\r\n            _fallbackAddress,\r\n            _executionFee,\r\n            _data\r\n        );\r\n\r\n        _checkAndDeployAsset(_debridgeId, _signatures.length > 0 \r\n                                        ? getOldLightAggregator[_aggregatorVersion].aggregator\r\n                                        : getOldFullAggregator[_aggregatorVersion].aggregator);\r\n\r\n        _checkConfirmationsOldAggregator(\r\n            submissionId, \r\n            _debridgeId, \r\n            _amount, \r\n            _signatures, \r\n            _aggregatorVersion);\r\n\r\n        _mint(\r\n            submissionId,\r\n            _debridgeId,\r\n            _receiver,\r\n            _amount,\r\n            _fallbackAddress,\r\n            _executionFee,\r\n            _data\r\n        );\r\n    }\r\n\r\n    /// @dev Mints wrapped asset on the current chain.\r\n    /// @param _receiver Receiver address.\r\n    /// @param _amount Amount of the transfered asset (note: without applyed fee).\r\n    /// @param _nonce Submission id.\r\n    /// @param _signatures Array of oracles signatures.\r\n    function mint(\r\n        bytes32 _debridgeId,\r\n        uint256 _chainIdFrom,\r\n        address _receiver,\r\n        uint256 _amount,\r\n        uint256 _nonce,\r\n        bytes[] calldata _signatures\r\n    ) external override whenNotPaused() {\r\n        bytes32 submissionId = getSubmisionId(\r\n            _debridgeId,\r\n            _chainIdFrom,\r\n            chainId,\r\n            _amount,\r\n            _receiver,\r\n            _nonce\r\n        );\r\n        \r\n        _checkAndDeployAsset(_debridgeId, _signatures.length > 0 \r\n                                         ? ligthAggregator \r\n                                         : fullAggregator);\r\n\r\n        _checkConfirmations(\r\n            submissionId, \r\n            _debridgeId, \r\n            _amount, \r\n            _signatures);\r\n\r\n        _mint(\r\n            submissionId,\r\n            _debridgeId,\r\n            _receiver,\r\n            _amount,\r\n            address(0),\r\n            0,\r\n            \"\"\r\n        );\r\n    }\r\n\r\n    /// @dev Mints wrapped asset on the current chain.\r\n    /// @param _receiver Receiver address.\r\n    /// @param _amount Amount of the transfered asset (note: without applyed fee).\r\n    /// @param _nonce Submission id.\r\n    /// @param _signatures Array of oracles signatures.\r\n    /// @param _aggregatorVersion Aggregator version.\r\n    function mintWithOldAggregator(\r\n        bytes32 _debridgeId,\r\n        uint256 _chainIdFrom,\r\n        address _receiver,\r\n        uint256 _amount,\r\n        uint256 _nonce,\r\n        bytes[] calldata _signatures,\r\n        uint8 _aggregatorVersion\r\n    ) external override whenNotPaused(){\r\n        bytes32 submissionId = getSubmisionId(\r\n            _debridgeId,\r\n            _chainIdFrom,\r\n            chainId,\r\n            _amount,\r\n            _receiver,\r\n            _nonce\r\n        );\r\n        \r\n        _checkAndDeployAsset(_debridgeId, _signatures.length > 0 \r\n                                        ? getOldLightAggregator[_aggregatorVersion].aggregator\r\n                                        : getOldFullAggregator[_aggregatorVersion].aggregator);\r\n            \r\n\r\n        _checkConfirmationsOldAggregator(\r\n            submissionId, \r\n            _debridgeId, \r\n            _amount, \r\n            _signatures,\r\n            _aggregatorVersion);\r\n\r\n        _mint(\r\n            submissionId,\r\n            _debridgeId,\r\n            _receiver,\r\n            _amount,\r\n            address(0),\r\n            0,\r\n            \"\"\r\n        );\r\n    }\r\n\r\n    /// @dev Unlock the asset on the current chain and transfer to receiver.\r\n    /// @param _debridgeId Asset identifier.\r\n    /// @param _receiver Receiver address.\r\n    /// @param _amount Amount of the transfered asset (note: the fee can be applyed).\r\n    /// @param _nonce Submission id.\r\n    function autoClaim(\r\n        bytes32 _debridgeId,\r\n        uint256 _chainIdFrom,\r\n        address _receiver,\r\n        uint256 _amount,\r\n        uint256 _nonce,\r\n        bytes[] calldata _signatures,\r\n        address _fallbackAddress,\r\n        uint256 _executionFee,\r\n        bytes memory _data\r\n    ) external whenNotPaused() {\r\n        bytes32 submissionId = getAutoSubmisionId(\r\n            _debridgeId,\r\n            _chainIdFrom,\r\n            chainId,\r\n            _amount,\r\n            _receiver,\r\n            _nonce,\r\n            _fallbackAddress,\r\n            _executionFee,\r\n            _data\r\n        );\r\n\r\n        _checkConfirmations(\r\n            submissionId, \r\n            _debridgeId, \r\n            _amount, \r\n            _signatures);\r\n\r\n        _claim(\r\n            submissionId,\r\n            _debridgeId,\r\n            _receiver,\r\n            _amount,\r\n            _fallbackAddress,\r\n            _executionFee,\r\n            _data\r\n        );\r\n    }\r\n\r\n    /// @dev Unlock the asset on the current chain and transfer to receiver.\r\n    /// @param _debridgeId Asset identifier.\r\n    /// @param _receiver Receiver address.\r\n    /// @param _amount Amount of the transfered asset (note: the fee can be applyed).\r\n    /// @param _nonce Submission id.\r\n    /// @param _fallbackAddress Receiver of the tokens if the call fails.\r\n    /// @param _executionFee Fee paid to the transaction executor.\r\n    /// @param _data Chain id of the target chain.\r\n    function autoClaimWithOldAggregator(\r\n        bytes32 _debridgeId,\r\n        uint256 _chainIdFrom,\r\n        address _receiver,\r\n        uint256 _amount,\r\n        uint256 _nonce,\r\n        bytes[] calldata _signatures,\r\n        address _fallbackAddress,\r\n        uint256 _executionFee,\r\n        bytes memory _data,\r\n        uint8 _aggregatorVersion\r\n    ) external whenNotPaused() {\r\n        bytes32 submissionId = getAutoSubmisionId(\r\n            _debridgeId,\r\n            _chainIdFrom,\r\n            chainId,\r\n            _amount,\r\n            _receiver,\r\n            _nonce,\r\n            _fallbackAddress,\r\n            _executionFee,\r\n            _data\r\n        );\r\n        \r\n        _checkConfirmationsOldAggregator(\r\n            submissionId, \r\n            _debridgeId, \r\n            _amount, \r\n            _signatures, \r\n            _aggregatorVersion);\r\n\r\n        _claim(\r\n            submissionId,\r\n            _debridgeId,\r\n            _receiver,\r\n            _amount,\r\n            _fallbackAddress,\r\n            _executionFee,\r\n            _data\r\n        );\r\n    }\r\n\r\n    /// @dev Unlock the asset on the current chain and transfer to receiver.\r\n    /// @param _debridgeId Asset identifier.\r\n    /// @param _receiver Receiver address.\r\n    /// @param _amount Amount of the transfered asset (note: the fee can be applyed).\r\n    /// @param _nonce Submission id.\r\n\r\n    function claim(\r\n        bytes32 _debridgeId,\r\n        uint256 _chainIdFrom,\r\n        address _receiver,\r\n        uint256 _amount,\r\n        uint256 _nonce,\r\n        bytes[] calldata _signatures\r\n    ) external override whenNotPaused() {\r\n        bytes32 submissionId = getSubmisionId(\r\n            _debridgeId,\r\n            _chainIdFrom,\r\n            chainId,\r\n            _amount,\r\n            _receiver,\r\n            _nonce\r\n        );\r\n        \r\n        _checkConfirmations(\r\n            submissionId, \r\n            _debridgeId, \r\n            _amount, \r\n            _signatures);\r\n\r\n        _claim(\r\n            submissionId,\r\n            _debridgeId,\r\n            _receiver,\r\n            _amount,\r\n            address(0),\r\n            0,\r\n            \"\"\r\n        );\r\n    }\r\n\r\n    /// @dev Unlock the asset on the current chain and transfer to receiver.\r\n    /// @param _debridgeId Asset identifier.\r\n    /// @param _receiver Receiver address.\r\n    /// @param _amount Amount of the transfered asset (note: the fee can be applyed).\r\n    /// @param _nonce Submission id.\r\n    /// @param _aggregatorVersion Aggregator version.\r\n    function claimWithOldAggregator(\r\n        bytes32 _debridgeId,\r\n        uint256 _chainIdFrom,\r\n        address _receiver,\r\n        uint256 _amount,\r\n        uint256 _nonce,\r\n        bytes[] calldata _signatures,\r\n        uint8 _aggregatorVersion\r\n    ) external override whenNotPaused(){\r\n        bytes32 submissionId = getSubmisionId(\r\n            _debridgeId,\r\n            _chainIdFrom,\r\n            chainId,\r\n            _amount,\r\n            _receiver,\r\n            _nonce\r\n        );\r\n        \r\n        _checkConfirmationsOldAggregator(\r\n            submissionId, \r\n            _debridgeId, \r\n            _amount, \r\n            _signatures, \r\n            _aggregatorVersion);\r\n\r\n        _claim(\r\n            submissionId,\r\n            _debridgeId,\r\n            _receiver,\r\n            _amount,\r\n            address(0),\r\n            0,\r\n            \"\"\r\n        );\r\n    }\r\n\r\n\r\n    /* ADMIN */\r\n\r\n    /// @dev Fund treasury.\r\n    /// @param _debridgeId Asset identifier.\r\n    /// @param _amount Submission aggregator address.\r\n    function fundTreasury(bytes32 _debridgeId, uint256 _amount)\r\n        external\r\n    {\r\n        DebridgeInfo storage debridge = getDebridge[_debridgeId];\r\n        require(\r\n            debridge.collectedFees >= _amount,\r\n            \"fundTreasury: not enough fee\"\r\n        );\r\n        debridge.collectedFees -= _amount;\r\n        if (debridge.tokenAddress == address(0)) {\r\n            weth.deposit{value: _amount}();\r\n            weth.transfer(address(feeProxy), _amount);\r\n            feeProxy.swapToLink(address(weth), treasury);\r\n        } else {\r\n            IERC20(debridge.tokenAddress).safeTransfer(\r\n                address(feeProxy),\r\n                _amount\r\n            );\r\n            feeProxy.swapToLink(debridge.tokenAddress, treasury);\r\n        }\r\n    }\r\n\r\n    /// @dev Set fee converter proxy.\r\n    /// @param _feeProxy Fee proxy address.\r\n    function setFeeProxy(IFeeProxy _feeProxy) external onlyAdmin() {\r\n        feeProxy = _feeProxy;\r\n    }\r\n\r\n    /// @dev Set wrapped native asset address.\r\n    /// @param _weth Weth address.\r\n    function setWeth(IWETH _weth) external onlyAdmin() {\r\n        weth = _weth;\r\n    }\r\n\r\n\r\n    function blockSubmission(\r\n        bytes32[] memory _submissionIds\r\n    ) external onlyAdmin() {\r\n        for (uint256 i = 0; i < _submissionIds.length; i++) {\r\n           isBlockedSubmission[_submissionIds[i]] = true;\r\n           emit Blocked(_submissionIds[i]);\r\n        }\r\n    }\r\n\r\n    function unBlockSubmission(\r\n        bytes32[] memory _submissionIds\r\n    ) external onlyAdmin() {\r\n        for (uint256 i = 0; i < _submissionIds.length; i++) {\r\n           isBlockedSubmission[_submissionIds[i]] = false;\r\n           emit Unblocked(_submissionIds[i]);\r\n        }\r\n    }\r\n\r\n     /* internal */\r\n\r\n     \r\n    function _checkAndDeployAsset(bytes32 debridgeId, address aggregatorAddress) internal \r\n    {\r\n        if(!getDebridge[debridgeId].exist)\r\n        {\r\n            (address wrappedAssetAddress, uint256 nativeChainId) = IFullAggregator(aggregatorAddress).deployAsset(debridgeId);\r\n            require(\r\n                wrappedAssetAddress != address(0),\r\n                \"mint: wrapped asset not exist\"\r\n            );\r\n            _addAsset(debridgeId, wrappedAssetAddress, nativeChainId);\r\n        }\r\n    }\r\n\r\n     function _checkConfirmations(bytes32 _submissionId, bytes32 _debridgeId, \r\n                                 uint256 _amount, bytes[] memory _signatures) \r\n        internal{\r\n        (uint256 confirmations, bool confirmed) = \r\n                _signatures.length > 0 \r\n                ? ILightVerifier(ligthAggregator).submit(_submissionId, _signatures)\r\n                : IFullAggregator(fullAggregator).getSubmissionConfirmations(_submissionId);\r\n        require(confirmed, \"not confirmed \");\r\n        if (_amount >= getAmountThreshold[_debridgeId]) {\r\n            require(\r\n                confirmations >= excessConfirmations,\r\n                \"amount not confirmed\"\r\n            );\r\n        }\r\n    }\r\n\r\n    function _checkConfirmationsOldAggregator(bytes32 _submissionId, bytes32 _debridgeId, \r\n                                              uint256 _amount, bytes[] memory _signatures,\r\n                                              uint8 _aggregatorVersion) \r\n        internal{\r\n\r\n        AggregatorInfo memory aggregatorInfo \r\n                = _signatures.length > 0 \r\n                ? getOldLightAggregator[_aggregatorVersion]\r\n                : getOldFullAggregator[_aggregatorVersion];\r\n        require(\r\n            aggregatorInfo.isValid,\r\n            \"invalidAggregator\"\r\n        );\r\n        (uint256 confirmations, bool confirmed) = \r\n                _signatures.length > 0 \r\n                ? ILightVerifier(aggregatorInfo.aggregator).submit(_submissionId, _signatures)\r\n                : IFullAggregator(aggregatorInfo.aggregator).getSubmissionConfirmations(_submissionId);\r\n        require(confirmed, \"not confirmed\");\r\n        if (_amount >= getAmountThreshold[_debridgeId]) {\r\n            require(\r\n                confirmations >= excessConfirmations,\r\n                \"amount not confirmed\"\r\n            );\r\n        }\r\n    }\r\n}\r\n",
  "sourcePath": "D:/Projects/Debridge/debridge-contracts-v1/contracts/transfers/FullDebridge.sol",
  "compiler": {
    "name": "solc",
    "version": "0.8.2+commit.661d1103.Emscripten.clang"
  },
  "schemaVersion": "3.3.4",
  "updatedAt": "2021-07-18T12:47:19.752Z",
  "devdoc": {
    "kind": "dev",
    "methods": {
      "autoBurn(bytes32,address,uint256,uint256,address,uint256,bytes,uint256,bytes,bool)": {
        "details": "Burns wrapped asset and allowss to claim it on the other chain.",
        "params": {
          "_amount": "Amount of the transfered asset (note: the fee can be applyed).",
          "_chainIdTo": "Chain id of the target chain.",
          "_data": "Chain id of the target chain.",
          "_debridgeId": "Asset identifier.",
          "_executionFee": "Fee paid to the transaction executor.",
          "_fallbackAddress": "Receiver of the tokens if the call fails.",
          "_receiver": "Receiver address."
        }
      },
      "autoClaim(bytes32,uint256,address,uint256,uint256,bytes[],address,uint256,bytes)": {
        "details": "Unlock the asset on the current chain and transfer to receiver.",
        "params": {
          "_amount": "Amount of the transfered asset (note: the fee can be applyed).",
          "_debridgeId": "Asset identifier.",
          "_nonce": "Submission id.",
          "_receiver": "Receiver address."
        }
      },
      "autoClaimWithOldAggregator(bytes32,uint256,address,uint256,uint256,bytes[],address,uint256,bytes,uint8)": {
        "details": "Unlock the asset on the current chain and transfer to receiver.",
        "params": {
          "_amount": "Amount of the transfered asset (note: the fee can be applyed).",
          "_data": "Chain id of the target chain.",
          "_debridgeId": "Asset identifier.",
          "_executionFee": "Fee paid to the transaction executor.",
          "_fallbackAddress": "Receiver of the tokens if the call fails.",
          "_nonce": "Submission id.",
          "_receiver": "Receiver address."
        }
      },
      "autoMint(bytes32,uint256,address,uint256,uint256,bytes[],address,uint256,bytes)": {
        "details": "Mints wrapped asset on the current chain.",
        "params": {
          "_amount": "Amount of the transfered asset (note: without applyed fee).",
          "_data": "Chain id of the target chain.",
          "_executionFee": "Fee paid to the transaction executor.",
          "_fallbackAddress": "Receiver of the tokens if the call fails.",
          "_nonce": "Submission id.",
          "_receiver": "Receiver address.",
          "_signatures": "Array of oracles signatures."
        }
      },
      "autoMintWithOldAggregator(bytes32,uint256,address,uint256,uint256,bytes[],address,uint256,bytes,uint8)": {
        "details": "Mints wrapped asset on the current chain.",
        "params": {
          "_amount": "Amount of the transfered asset (note: without applyed fee).",
          "_data": "Chain id of the target chain.",
          "_executionFee": "Fee paid to the transaction executor.",
          "_fallbackAddress": "Receiver of the tokens if the call fails.",
          "_nonce": "Submission id.",
          "_receiver": "Receiver address.",
          "_signatures": "Array of oracles signatures."
        }
      },
      "autoSend(address,address,uint256,uint256,address,uint256,bytes,bool)": {
        "details": "Locks asset on the chain and enables minting on the other chain.",
        "params": {
          "_amount": "Amount to be transfered (note: the fee can be applyed).",
          "_chainIdTo": "Chain id of the target chain.",
          "_data": "Chain id of the target chain.",
          "_executionFee": "Fee paid to the transaction executor.",
          "_fallbackAddress": "Receiver of the tokens if the call fails.",
          "_receiver": "Receiver address.",
          "_tokenAddress": "Asset identifier."
        }
      },
      "burn(bytes32,address,uint256,uint256,uint256,bytes,bool)": {
        "details": "Burns wrapped asset and allowss to claim it on the other chain.",
        "params": {
          "_amount": "Amount of the transfered asset (note: the fee can be applyed).",
          "_chainIdTo": "Chain id of the target chain.",
          "_debridgeId": "Asset identifier.",
          "_receiver": "Receiver address."
        }
      },
      "claim(bytes32,uint256,address,uint256,uint256,bytes[])": {
        "details": "Unlock the asset on the current chain and transfer to receiver.",
        "params": {
          "_amount": "Amount of the transfered asset (note: the fee can be applyed).",
          "_debridgeId": "Asset identifier.",
          "_nonce": "Submission id.",
          "_receiver": "Receiver address."
        }
      },
      "claimWithOldAggregator(bytes32,uint256,address,uint256,uint256,bytes[],uint8)": {
        "details": "Unlock the asset on the current chain and transfer to receiver.",
        "params": {
          "_aggregatorVersion": "Aggregator version.",
          "_amount": "Amount of the transfered asset (note: the fee can be applyed).",
          "_debridgeId": "Asset identifier.",
          "_nonce": "Submission id.",
          "_receiver": "Receiver address."
        }
      },
      "fundTreasury(bytes32,uint256)": {
        "details": "Fund treasury.",
        "params": {
          "_amount": "Submission aggregator address.",
          "_debridgeId": "Asset identifier."
        }
      },
      "getAutoSubmisionId(bytes32,uint256,uint256,uint256,address,uint256,address,uint256,bytes)": {
        "details": "Calculate submission id for auto claimable transfer.",
        "params": {
          "_amount": "Amount of the transfered asset (note: the fee can be applyed).",
          "_chainIdFrom": "Chain identifier of the chain where tokens are sent from.",
          "_chainIdTo": "Chain identifier of the chain where tokens are sent to.",
          "_data": "Chain id of the target chain.",
          "_debridgeId": "Asset identifier.",
          "_executionFee": "Fee paid to the transaction executor.",
          "_fallbackAddress": "Receiver of the tokens if the call fails.",
          "_nonce": "Submission id.",
          "_receiver": "Receiver address."
        }
      },
      "getBalance(address)": {
        "details": "Get the balance.",
        "params": {
          "_tokenAddress": "Address of the asset on the other chain."
        }
      },
      "getDebridgeId(uint256,address)": {
        "details": "Calculates asset identifier.",
        "params": {
          "_chainId": "Current chain id.",
          "_tokenAddress": "Address of the asset on the other chain."
        }
      },
      "getRoleAdmin(bytes32)": {
        "details": "Returns the admin role that controls `role`. See {grantRole} and {revokeRole}. To change a role's admin, use {_setRoleAdmin}."
      },
      "getSubmisionId(bytes32,uint256,uint256,uint256,address,uint256)": {
        "details": "Calculate submission id.",
        "params": {
          "_amount": "Amount of the transfered asset (note: the fee can be applyed).",
          "_chainIdFrom": "Chain identifier of the chain where tokens are sent from.",
          "_chainIdTo": "Chain identifier of the chain where tokens are sent to.",
          "_debridgeId": "Asset identifier.",
          "_nonce": "Submission id.",
          "_receiver": "Receiver address."
        }
      },
      "grantRole(bytes32,address)": {
        "details": "Grants `role` to `account`. If `account` had not been already granted `role`, emits a {RoleGranted} event. Requirements: - the caller must have ``role``'s admin role."
      },
      "hasRole(bytes32,address)": {
        "details": "Returns `true` if `account` has been granted `role`."
      },
      "initialize(uint256,address,address,address,uint256[],(bool,uint256,uint256)[],address,address,address,address)": {
        "details": "Constructor that initializes the most important configurations.",
        "params": {
          "_fullAggregator": "Aggregator address to verify by oracles confirmations",
          "_ligthAggregator": "Aggregator address to verify signatures",
          "_supportedChainIds": "Chain ids where native token of the current chain can be wrapped.",
          "_treasury": "Address to collect a fee"
        }
      },
      "manageOldAggregator(uint8,bool,bool)": {
        "details": "Set aggregator address.",
        "params": {
          "_aggregatorVersion": "Submission aggregator address.",
          "_isValid": "Is valid."
        }
      },
      "mint(bytes32,uint256,address,uint256,uint256,bytes[])": {
        "details": "Mints wrapped asset on the current chain.",
        "params": {
          "_amount": "Amount of the transfered asset (note: without applyed fee).",
          "_nonce": "Submission id.",
          "_receiver": "Receiver address.",
          "_signatures": "Array of oracles signatures."
        }
      },
      "mintWithOldAggregator(bytes32,uint256,address,uint256,uint256,bytes[],uint8)": {
        "details": "Mints wrapped asset on the current chain.",
        "params": {
          "_aggregatorVersion": "Aggregator version.",
          "_amount": "Amount of the transfered asset (note: without applyed fee).",
          "_nonce": "Submission id.",
          "_receiver": "Receiver address.",
          "_signatures": "Array of oracles signatures."
        }
      },
      "pause()": {
        "details": "Stop all transfers."
      },
      "paused()": {
        "details": "Returns true if the contract is paused, and false otherwise."
      },
      "renounceRole(bytes32,address)": {
        "details": "Revokes `role` from the calling account. Roles are often managed via {grantRole} and {revokeRole}: this function's purpose is to provide a mechanism for accounts to lose their privileges if they are compromised (such as when a trusted device is misplaced). If the calling account had been granted `role`, emits a {RoleRevoked} event. Requirements: - the caller must be `account`."
      },
      "requestReserves(address,uint256)": {
        "details": "Request the assets to be used in defi protocol.",
        "params": {
          "_amount": "Amount of tokens to request.",
          "_tokenAddress": "Asset address."
        }
      },
      "returnReserves(address,uint256)": {
        "details": "Return the assets that were used in defi protocol.",
        "params": {
          "_amount": "Amount of tokens to claim.",
          "_tokenAddress": "Asset address."
        }
      },
      "revokeRole(bytes32,address)": {
        "details": "Revokes `role` from `account`. If `account` had been granted `role`, emits a {RoleRevoked} event. Requirements: - the caller must have ``role``'s admin role."
      },
      "send(address,address,uint256,uint256,bool)": {
        "details": "Locks asset on the chain and enables minting on the other chain.",
        "params": {
          "_amount": "Amount to be transfered (note: the fee can be applyed).",
          "_chainIdTo": "Chain id of the target chain.",
          "_receiver": "Receiver address.",
          "_tokenAddress": "Asset identifier."
        }
      },
      "setAggregator(address,bool)": {
        "details": "Set aggregator address.",
        "params": {
          "_aggregator": "Submission aggregator address."
        }
      },
      "setCallProxy(address)": {
        "details": "Set proxy address.",
        "params": {
          "_callProxy": "Address of the proxy that executes external calls."
        }
      },
      "setChainIdSupport(bytes32,uint256,bool)": {
        "details": "Set support for the chains where the token can be transfered.",
        "params": {
          "_chainId": "Current chain id.",
          "_debridgeId": "Asset identifier.",
          "_isSupported": "Whether the token is transferable to the other chain."
        }
      },
      "setDefiController(address)": {
        "details": "Set defi controoler.",
        "params": {
          "_defiController": "Defi controller address address."
        }
      },
      "setFeeProxy(address)": {
        "details": "Set fee converter proxy.",
        "params": {
          "_feeProxy": "Fee proxy address."
        }
      },
      "setWeth(address)": {
        "details": "Set wrapped native asset address.",
        "params": {
          "_weth": "Weth address."
        }
      },
      "splitSignature(bytes)": {
        "details": "Splits signature bytes to r,s,v components.",
        "params": {
          "_signature": "Signature bytes in format r+s+v."
        }
      },
      "supportsInterface(bytes4)": {
        "details": "See {IERC165-supportsInterface}."
      },
      "unpause()": {
        "details": "Allow transfers."
      },
      "updateAsset(bytes32,uint256,uint256,uint256)": {
        "details": "Add support for the asset.",
        "params": {
          "_debridgeId": "Asset identifier.",
          "_maxAmount": "Maximum amount of current chain token to be wrapped.",
          "_minReserves": "Minimal reserve ration."
        }
      },
      "updateAssetFixedFees(bytes32,uint256[],uint256[])": {
        "details": "Update asset's fees.",
        "params": {
          "_assetFeesInfo": "Cahin support info.",
          "_debridgeId": "Asset identifier.",
          "_supportedChainIds": "Chain identifiers."
        }
      },
      "updateChainSupport(uint256[],(bool,uint256,uint256)[])": {
        "details": "Update asset's fees.",
        "params": {
          "_chainSupportInfo": "Cahin support info.",
          "_supportedChainIds": "Chain identifiers."
        }
      },
      "withdrawFee(bytes32,address,uint256)": {
        "details": "Withdraw fees.",
        "params": {
          "_amount": "Amount of tokens to withdraw.",
          "_debridgeId": "Asset identifier.",
          "_receiver": "Receiver address."
        }
      },
      "withdrawNativeFee(address,uint256)": {
        "details": "Withdraw fees.",
        "params": {
          "_amount": "Amount of tokens to withdraw.",
          "_receiver": "Receiver address."
        }
      }
    },
    "version": 1
  },
  "userdoc": {
    "kind": "user",
    "methods": {},
    "version": 1
  }
}