{
  "contractName": "FullDebridge",
  "abi": [
    {
      "anonymous": false,
      "inputs": [
        {
          "indexed": false,
          "internalType": "bytes32",
          "name": "submissionId",
          "type": "bytes32"
        },
        {
          "indexed": false,
          "internalType": "bytes32",
          "name": "debridgeId",
          "type": "bytes32"
        },
        {
          "indexed": false,
          "internalType": "uint256",
          "name": "amount",
          "type": "uint256"
        },
        {
          "indexed": false,
          "internalType": "address",
          "name": "receiver",
          "type": "address"
        },
        {
          "indexed": false,
          "internalType": "uint256",
          "name": "nonce",
          "type": "uint256"
        },
        {
          "indexed": false,
          "internalType": "uint256",
          "name": "chainIdTo",
          "type": "uint256"
        },
        {
          "indexed": false,
          "internalType": "uint256",
          "name": "claimFee",
          "type": "uint256"
        },
        {
          "indexed": false,
          "internalType": "address",
          "name": "fallbackAddress",
          "type": "address"
        },
        {
          "indexed": false,
          "internalType": "bytes",
          "name": "data",
          "type": "bytes"
        }
      ],
      "name": "AutoBurnt",
      "type": "event"
    },
    {
      "anonymous": false,
      "inputs": [
        {
          "indexed": false,
          "internalType": "bytes32",
          "name": "submissionId",
          "type": "bytes32"
        },
        {
          "indexed": false,
          "internalType": "bool",
          "name": "success",
          "type": "bool"
        }
      ],
      "name": "AutoRequestExecuted",
      "type": "event"
    },
    {
      "anonymous": false,
      "inputs": [
        {
          "indexed": false,
          "internalType": "bytes32",
          "name": "submissionId",
          "type": "bytes32"
        },
        {
          "indexed": false,
          "internalType": "bytes32",
          "name": "debridgeId",
          "type": "bytes32"
        },
        {
          "indexed": false,
          "internalType": "uint256",
          "name": "amount",
          "type": "uint256"
        },
        {
          "indexed": false,
          "internalType": "address",
          "name": "receiver",
          "type": "address"
        },
        {
          "indexed": false,
          "internalType": "uint256",
          "name": "nonce",
          "type": "uint256"
        },
        {
          "indexed": false,
          "internalType": "uint256",
          "name": "chainIdTo",
          "type": "uint256"
        },
        {
          "indexed": false,
          "internalType": "uint256",
          "name": "claimFee",
          "type": "uint256"
        },
        {
          "indexed": false,
          "internalType": "address",
          "name": "fallbackAddress",
          "type": "address"
        },
        {
          "indexed": false,
          "internalType": "bytes",
          "name": "data",
          "type": "bytes"
        }
      ],
      "name": "AutoSent",
      "type": "event"
    },
    {
      "anonymous": false,
      "inputs": [
        {
          "indexed": false,
          "internalType": "bytes32",
          "name": "submissionId",
          "type": "bytes32"
        },
        {
          "indexed": false,
          "internalType": "bytes32",
          "name": "debridgeId",
          "type": "bytes32"
        },
        {
          "indexed": false,
          "internalType": "uint256",
          "name": "amount",
          "type": "uint256"
        },
        {
          "indexed": false,
          "internalType": "address",
          "name": "receiver",
          "type": "address"
        },
        {
          "indexed": false,
          "internalType": "uint256",
          "name": "nonce",
          "type": "uint256"
        },
        {
          "indexed": false,
          "internalType": "uint256",
          "name": "chainIdTo",
          "type": "uint256"
        }
      ],
      "name": "Burnt",
      "type": "event"
    },
    {
      "anonymous": false,
      "inputs": [
        {
          "indexed": false,
          "internalType": "address",
          "name": "callProxy",
          "type": "address"
        }
      ],
      "name": "CallProxyUpdated",
      "type": "event"
    },
    {
      "anonymous": false,
      "inputs": [
        {
          "indexed": true,
          "internalType": "bytes32",
          "name": "debridgeId",
          "type": "bytes32"
        },
        {
          "indexed": true,
          "internalType": "uint256",
          "name": "chainId",
          "type": "uint256"
        }
      ],
      "name": "ChainSupportAdded",
      "type": "event"
    },
    {
      "anonymous": false,
      "inputs": [
        {
          "indexed": true,
          "internalType": "bytes32",
          "name": "debridgeId",
          "type": "bytes32"
        },
        {
          "indexed": true,
          "internalType": "uint256",
          "name": "chainId",
          "type": "uint256"
        }
      ],
      "name": "ChainSupportRemoved",
      "type": "event"
    },
    {
      "anonymous": false,
      "inputs": [
        {
          "indexed": false,
          "internalType": "uint256[]",
          "name": "chainIds",
          "type": "uint256[]"
        }
      ],
      "name": "ChainsSupportUpdated",
      "type": "event"
    },
    {
      "anonymous": false,
      "inputs": [
        {
          "indexed": false,
          "internalType": "bytes32",
          "name": "submissionId",
          "type": "bytes32"
        },
        {
          "indexed": false,
          "internalType": "uint256",
          "name": "amount",
          "type": "uint256"
        },
        {
          "indexed": false,
          "internalType": "address",
          "name": "receiver",
          "type": "address"
        },
        {
          "indexed": false,
          "internalType": "bytes32",
          "name": "debridgeId",
          "type": "bytes32"
        }
      ],
      "name": "Claimed",
      "type": "event"
    },
    {
      "anonymous": false,
      "inputs": [
        {
          "indexed": false,
          "internalType": "bytes32",
          "name": "submissionId",
          "type": "bytes32"
        },
        {
          "indexed": false,
          "internalType": "uint256",
          "name": "amount",
          "type": "uint256"
        },
        {
          "indexed": false,
          "internalType": "address",
          "name": "receiver",
          "type": "address"
        },
        {
          "indexed": false,
          "internalType": "bytes32",
          "name": "debridgeId",
          "type": "bytes32"
        }
      ],
      "name": "Minted",
      "type": "event"
    },
    {
      "anonymous": false,
      "inputs": [
        {
          "indexed": true,
          "internalType": "bytes32",
          "name": "debridgeId",
          "type": "bytes32"
        },
        {
          "indexed": true,
          "internalType": "address",
          "name": "tokenAddress",
          "type": "address"
        },
        {
          "indexed": true,
          "internalType": "uint256",
          "name": "chainId",
          "type": "uint256"
        },
        {
          "indexed": false,
          "internalType": "uint256",
          "name": "minAmount",
          "type": "uint256"
        },
        {
          "indexed": false,
          "internalType": "uint256",
          "name": "minReserves",
          "type": "uint256"
        }
      ],
      "name": "PairAdded",
      "type": "event"
    },
    {
      "anonymous": false,
      "inputs": [
        {
          "indexed": false,
          "internalType": "address",
          "name": "account",
          "type": "address"
        }
      ],
      "name": "Paused",
      "type": "event"
    },
    {
      "anonymous": false,
      "inputs": [
        {
          "indexed": true,
          "internalType": "bytes32",
          "name": "role",
          "type": "bytes32"
        },
        {
          "indexed": true,
          "internalType": "bytes32",
          "name": "previousAdminRole",
          "type": "bytes32"
        },
        {
          "indexed": true,
          "internalType": "bytes32",
          "name": "newAdminRole",
          "type": "bytes32"
        }
      ],
      "name": "RoleAdminChanged",
      "type": "event"
    },
    {
      "anonymous": false,
      "inputs": [
        {
          "indexed": true,
          "internalType": "bytes32",
          "name": "role",
          "type": "bytes32"
        },
        {
          "indexed": true,
          "internalType": "address",
          "name": "account",
          "type": "address"
        },
        {
          "indexed": true,
          "internalType": "address",
          "name": "sender",
          "type": "address"
        }
      ],
      "name": "RoleGranted",
      "type": "event"
    },
    {
      "anonymous": false,
      "inputs": [
        {
          "indexed": true,
          "internalType": "bytes32",
          "name": "role",
          "type": "bytes32"
        },
        {
          "indexed": true,
          "internalType": "address",
          "name": "account",
          "type": "address"
        },
        {
          "indexed": true,
          "internalType": "address",
          "name": "sender",
          "type": "address"
        }
      ],
      "name": "RoleRevoked",
      "type": "event"
    },
    {
      "anonymous": false,
      "inputs": [
        {
          "indexed": false,
          "internalType": "bytes32",
          "name": "submissionId",
          "type": "bytes32"
        },
        {
          "indexed": false,
          "internalType": "bytes32",
          "name": "debridgeId",
          "type": "bytes32"
        },
        {
          "indexed": false,
          "internalType": "uint256",
          "name": "amount",
          "type": "uint256"
        },
        {
          "indexed": false,
          "internalType": "address",
          "name": "receiver",
          "type": "address"
        },
        {
          "indexed": false,
          "internalType": "uint256",
          "name": "nonce",
          "type": "uint256"
        },
        {
          "indexed": false,
          "internalType": "uint256",
          "name": "chainIdTo",
          "type": "uint256"
        }
      ],
      "name": "Sent",
      "type": "event"
    },
    {
      "anonymous": false,
      "inputs": [
        {
          "indexed": false,
          "internalType": "address",
          "name": "account",
          "type": "address"
        }
      ],
      "name": "Unpaused",
      "type": "event"
    },
    {
      "inputs": [],
      "name": "DEFAULT_ADMIN_ROLE",
      "outputs": [
        {
          "internalType": "bytes32",
          "name": "",
          "type": "bytes32"
        }
      ],
      "stateMutability": "view",
      "type": "function"
    },
    {
      "inputs": [],
      "name": "DENOMINATOR",
      "outputs": [
        {
          "internalType": "uint256",
          "name": "",
          "type": "uint256"
        }
      ],
      "stateMutability": "view",
      "type": "function"
    },
    {
      "inputs": [
        {
          "internalType": "address",
          "name": "_tokenAddress",
          "type": "address"
        },
        {
          "internalType": "address",
          "name": "_wrappedAssetAddress",
          "type": "address"
        },
        {
          "internalType": "uint256",
          "name": "_chainId",
          "type": "uint256"
        },
        {
          "internalType": "uint256",
          "name": "_minAmount",
          "type": "uint256"
        },
        {
          "internalType": "uint256",
          "name": "_maxAmount",
          "type": "uint256"
        },
        {
          "internalType": "uint256",
          "name": "_minReserves",
          "type": "uint256"
        },
        {
          "internalType": "uint256",
          "name": "_amountThreshold",
          "type": "uint256"
        },
        {
          "internalType": "uint256[]",
          "name": "_supportedChainIds",
          "type": "uint256[]"
        },
        {
          "components": [
            {
              "internalType": "bool",
              "name": "isSupported",
              "type": "bool"
            },
            {
              "internalType": "uint256",
              "name": "fixedFee",
              "type": "uint256"
            },
            {
              "internalType": "uint256",
              "name": "transferFee",
              "type": "uint256"
            }
          ],
          "internalType": "struct IDebridge.ChainSupportInfo[]",
          "name": "_chainSupportInfo",
          "type": "tuple[]"
        }
      ],
      "name": "addExternalAsset",
      "outputs": [],
      "stateMutability": "nonpayable",
      "type": "function"
    },
    {
      "inputs": [
        {
          "internalType": "address",
          "name": "_tokenAddress",
          "type": "address"
        },
        {
          "internalType": "uint256",
          "name": "_minAmount",
          "type": "uint256"
        },
        {
          "internalType": "uint256",
          "name": "_maxAmount",
          "type": "uint256"
        },
        {
          "internalType": "uint256",
          "name": "_minReserves",
          "type": "uint256"
        },
        {
          "internalType": "uint256",
          "name": "_amountThreshold",
          "type": "uint256"
        },
        {
          "internalType": "uint256[]",
          "name": "_supportedChainIds",
          "type": "uint256[]"
        },
        {
          "components": [
            {
              "internalType": "bool",
              "name": "isSupported",
              "type": "bool"
            },
            {
              "internalType": "uint256",
              "name": "fixedFee",
              "type": "uint256"
            },
            {
              "internalType": "uint256",
              "name": "transferFee",
              "type": "uint256"
            }
          ],
          "internalType": "struct IDebridge.ChainSupportInfo[]",
          "name": "_chainSupportInfo",
          "type": "tuple[]"
        }
      ],
      "name": "addNativeAsset",
      "outputs": [],
      "stateMutability": "nonpayable",
      "type": "function"
    },
    {
      "inputs": [],
      "name": "aggregator",
      "outputs": [
        {
          "internalType": "address",
          "name": "",
          "type": "address"
        }
      ],
      "stateMutability": "view",
      "type": "function"
    },
    {
      "inputs": [],
      "name": "aggregatorVersion",
      "outputs": [
        {
          "internalType": "uint8",
          "name": "",
          "type": "uint8"
        }
      ],
      "stateMutability": "view",
      "type": "function"
    },
    {
      "inputs": [
        {
          "internalType": "bytes32",
          "name": "_debridgeId",
          "type": "bytes32"
        },
        {
          "internalType": "address",
          "name": "_receiver",
          "type": "address"
        },
        {
          "internalType": "uint256",
          "name": "_amount",
          "type": "uint256"
        },
        {
          "internalType": "uint256",
          "name": "_chainIdTo",
          "type": "uint256"
        },
        {
          "internalType": "address",
          "name": "_fallbackAddress",
          "type": "address"
        },
        {
          "internalType": "uint256",
          "name": "_executionFee",
          "type": "uint256"
        },
        {
          "internalType": "bytes",
          "name": "_data",
          "type": "bytes"
        },
        {
          "internalType": "uint256",
          "name": "_deadline",
          "type": "uint256"
        },
        {
          "internalType": "bytes",
          "name": "_signature",
          "type": "bytes"
        }
      ],
      "name": "autoBurn",
      "outputs": [],
      "stateMutability": "nonpayable",
      "type": "function"
    },
    {
      "inputs": [
        {
          "internalType": "bytes32",
          "name": "_debridgeId",
          "type": "bytes32"
        },
        {
          "internalType": "address",
          "name": "_receiver",
          "type": "address"
        },
        {
          "internalType": "uint256",
          "name": "_amount",
          "type": "uint256"
        },
        {
          "internalType": "uint256",
          "name": "_chainIdTo",
          "type": "uint256"
        },
        {
          "internalType": "address",
          "name": "_fallbackAddress",
          "type": "address"
        },
        {
          "internalType": "uint256",
          "name": "_executionFee",
          "type": "uint256"
        },
        {
          "internalType": "bytes",
          "name": "_data",
          "type": "bytes"
        }
      ],
      "name": "autoSend",
      "outputs": [],
      "stateMutability": "payable",
      "type": "function"
    },
    {
      "inputs": [
        {
          "internalType": "bytes32",
          "name": "_debridgeId",
          "type": "bytes32"
        },
        {
          "internalType": "address",
          "name": "_receiver",
          "type": "address"
        },
        {
          "internalType": "uint256",
          "name": "_amount",
          "type": "uint256"
        },
        {
          "internalType": "uint256",
          "name": "_chainIdTo",
          "type": "uint256"
        },
        {
          "internalType": "uint256",
          "name": "_deadline",
          "type": "uint256"
        },
        {
          "internalType": "bytes",
          "name": "_signature",
          "type": "bytes"
        }
      ],
      "name": "burn",
      "outputs": [],
      "stateMutability": "nonpayable",
      "type": "function"
    },
    {
      "inputs": [],
      "name": "callProxy",
      "outputs": [
        {
          "internalType": "address",
          "name": "",
          "type": "address"
        }
      ],
      "stateMutability": "view",
      "type": "function"
    },
    {
      "inputs": [],
      "name": "chainId",
      "outputs": [
        {
          "internalType": "uint256",
          "name": "",
          "type": "uint256"
        }
      ],
      "stateMutability": "view",
      "type": "function"
    },
    {
      "inputs": [
        {
          "internalType": "uint256",
          "name": "",
          "type": "uint256"
        }
      ],
      "name": "chainIds",
      "outputs": [
        {
          "internalType": "uint256",
          "name": "",
          "type": "uint256"
        }
      ],
      "stateMutability": "view",
      "type": "function"
    },
    {
      "inputs": [],
      "name": "defiController",
      "outputs": [
        {
          "internalType": "contract IDefiController",
          "name": "",
          "type": "address"
        }
      ],
      "stateMutability": "view",
      "type": "function"
    },
    {
      "inputs": [],
      "name": "excessConfirmations",
      "outputs": [
        {
          "internalType": "uint256",
          "name": "",
          "type": "uint256"
        }
      ],
      "stateMutability": "view",
      "type": "function"
    },
    {
      "inputs": [],
      "name": "feeProxy",
      "outputs": [
        {
          "internalType": "contract IFeeProxy",
          "name": "",
          "type": "address"
        }
      ],
      "stateMutability": "view",
      "type": "function"
    },
    {
      "inputs": [
        {
          "internalType": "bytes32",
          "name": "",
          "type": "bytes32"
        }
      ],
      "name": "getAmountThreshold",
      "outputs": [
        {
          "internalType": "uint256",
          "name": "",
          "type": "uint256"
        }
      ],
      "stateMutability": "view",
      "type": "function"
    },
    {
      "inputs": [
        {
          "internalType": "bytes32",
          "name": "_debridgeId",
          "type": "bytes32"
        },
        {
          "internalType": "uint256",
          "name": "_chainIdFrom",
          "type": "uint256"
        },
        {
          "internalType": "uint256",
          "name": "_chainIdTo",
          "type": "uint256"
        },
        {
          "internalType": "uint256",
          "name": "_amount",
          "type": "uint256"
        },
        {
          "internalType": "address",
          "name": "_receiver",
          "type": "address"
        },
        {
          "internalType": "uint256",
          "name": "_nonce",
          "type": "uint256"
        },
        {
          "internalType": "address",
          "name": "_fallbackAddress",
          "type": "address"
        },
        {
          "internalType": "uint256",
          "name": "_executionFee",
          "type": "uint256"
        },
        {
          "internalType": "bytes",
          "name": "_data",
          "type": "bytes"
        }
      ],
      "name": "getAutoSubmisionId",
      "outputs": [
        {
          "internalType": "bytes32",
          "name": "",
          "type": "bytes32"
        }
      ],
      "stateMutability": "pure",
      "type": "function"
    },
    {
      "inputs": [
        {
          "internalType": "address",
          "name": "_tokenAddress",
          "type": "address"
        }
      ],
      "name": "getBalance",
      "outputs": [
        {
          "internalType": "uint256",
          "name": "",
          "type": "uint256"
        }
      ],
      "stateMutability": "view",
      "type": "function"
    },
    {
      "inputs": [
        {
          "internalType": "bytes32",
          "name": "_debridgeId",
          "type": "bytes32"
        },
        {
          "internalType": "uint256",
          "name": "_chainId",
          "type": "uint256"
        }
      ],
      "name": "getChainIdSupport",
      "outputs": [
        {
          "components": [
            {
              "internalType": "bool",
              "name": "isSupported",
              "type": "bool"
            },
            {
              "internalType": "uint256",
              "name": "fixedFee",
              "type": "uint256"
            },
            {
              "internalType": "uint256",
              "name": "transferFee",
              "type": "uint256"
            }
          ],
          "internalType": "struct IDebridge.ChainSupportInfo",
          "name": "",
          "type": "tuple"
        }
      ],
      "stateMutability": "view",
      "type": "function"
    },
    {
      "inputs": [
        {
          "internalType": "bytes32",
          "name": "",
          "type": "bytes32"
        }
      ],
      "name": "getDebridge",
      "outputs": [
        {
          "internalType": "address",
          "name": "tokenAddress",
          "type": "address"
        },
        {
          "internalType": "uint256",
          "name": "chainId",
          "type": "uint256"
        },
        {
          "internalType": "uint256",
          "name": "minAmount",
          "type": "uint256"
        },
        {
          "internalType": "uint256",
          "name": "maxAmount",
          "type": "uint256"
        },
        {
          "internalType": "uint256",
          "name": "collectedFees",
          "type": "uint256"
        },
        {
          "internalType": "uint256",
          "name": "balance",
          "type": "uint256"
        },
        {
          "internalType": "uint256",
          "name": "minReserves",
          "type": "uint256"
        }
      ],
      "stateMutability": "view",
      "type": "function"
    },
    {
      "inputs": [
        {
          "internalType": "uint256",
          "name": "_chainId",
          "type": "uint256"
        },
        {
          "internalType": "address",
          "name": "_tokenAddress",
          "type": "address"
        }
      ],
      "name": "getDebridgeId",
      "outputs": [
        {
          "internalType": "bytes32",
          "name": "",
          "type": "bytes32"
        }
      ],
      "stateMutability": "pure",
      "type": "function"
    },
    {
      "inputs": [
        {
          "internalType": "uint8",
          "name": "",
          "type": "uint8"
        }
      ],
      "name": "getOldAggregator",
      "outputs": [
        {
          "internalType": "address",
          "name": "aggregator",
          "type": "address"
        },
        {
          "internalType": "bool",
          "name": "isValid",
          "type": "bool"
        }
      ],
      "stateMutability": "view",
      "type": "function"
    },
    {
      "inputs": [
        {
          "internalType": "bytes32",
          "name": "role",
          "type": "bytes32"
        }
      ],
      "name": "getRoleAdmin",
      "outputs": [
        {
          "internalType": "bytes32",
          "name": "",
          "type": "bytes32"
        }
      ],
      "stateMutability": "view",
      "type": "function"
    },
    {
      "inputs": [
        {
          "internalType": "bytes32",
          "name": "_debridgeId",
          "type": "bytes32"
        },
        {
          "internalType": "uint256",
          "name": "_chainIdFrom",
          "type": "uint256"
        },
        {
          "internalType": "uint256",
          "name": "_chainIdTo",
          "type": "uint256"
        },
        {
          "internalType": "uint256",
          "name": "_amount",
          "type": "uint256"
        },
        {
          "internalType": "address",
          "name": "_receiver",
          "type": "address"
        },
        {
          "internalType": "uint256",
          "name": "_nonce",
          "type": "uint256"
        }
      ],
      "name": "getSubmisionId",
      "outputs": [
        {
          "internalType": "bytes32",
          "name": "",
          "type": "bytes32"
        }
      ],
      "stateMutability": "pure",
      "type": "function"
    },
    {
      "inputs": [
        {
          "internalType": "address",
          "name": "",
          "type": "address"
        }
      ],
      "name": "getUserNonce",
      "outputs": [
        {
          "internalType": "uint256",
          "name": "",
          "type": "uint256"
        }
      ],
      "stateMutability": "view",
      "type": "function"
    },
    {
      "inputs": [
        {
          "internalType": "bytes32",
          "name": "role",
          "type": "bytes32"
        },
        {
          "internalType": "address",
          "name": "account",
          "type": "address"
        }
      ],
      "name": "grantRole",
      "outputs": [],
      "stateMutability": "nonpayable",
      "type": "function"
    },
    {
      "inputs": [
        {
          "internalType": "bytes32",
          "name": "role",
          "type": "bytes32"
        },
        {
          "internalType": "address",
          "name": "account",
          "type": "address"
        }
      ],
      "name": "hasRole",
      "outputs": [
        {
          "internalType": "bool",
          "name": "",
          "type": "bool"
        }
      ],
      "stateMutability": "view",
      "type": "function"
    },
    {
      "inputs": [
        {
          "internalType": "bytes32",
          "name": "",
          "type": "bytes32"
        }
      ],
      "name": "isSubmissionUsed",
      "outputs": [
        {
          "internalType": "bool",
          "name": "",
          "type": "bool"
        }
      ],
      "stateMutability": "view",
      "type": "function"
    },
    {
      "inputs": [
        {
          "internalType": "uint8",
          "name": "_aggregatorVersion",
          "type": "uint8"
        },
        {
          "internalType": "bool",
          "name": "_isValid",
          "type": "bool"
        }
      ],
      "name": "manageOldAggregator",
      "outputs": [],
      "stateMutability": "nonpayable",
      "type": "function"
    },
    {
      "inputs": [],
      "name": "pause",
      "outputs": [],
      "stateMutability": "nonpayable",
      "type": "function"
    },
    {
      "inputs": [],
      "name": "paused",
      "outputs": [
        {
          "internalType": "bool",
          "name": "",
          "type": "bool"
        }
      ],
      "stateMutability": "view",
      "type": "function"
    },
    {
      "inputs": [
        {
          "internalType": "bytes32",
          "name": "role",
          "type": "bytes32"
        },
        {
          "internalType": "address",
          "name": "account",
          "type": "address"
        }
      ],
      "name": "renounceRole",
      "outputs": [],
      "stateMutability": "nonpayable",
      "type": "function"
    },
    {
      "inputs": [
        {
          "internalType": "address",
          "name": "_tokenAddress",
          "type": "address"
        },
        {
          "internalType": "uint256",
          "name": "_amount",
          "type": "uint256"
        }
      ],
      "name": "requestReserves",
      "outputs": [],
      "stateMutability": "nonpayable",
      "type": "function"
    },
    {
      "inputs": [
        {
          "internalType": "address",
          "name": "_tokenAddress",
          "type": "address"
        },
        {
          "internalType": "uint256",
          "name": "_amount",
          "type": "uint256"
        }
      ],
      "name": "returnReserves",
      "outputs": [],
      "stateMutability": "payable",
      "type": "function"
    },
    {
      "inputs": [
        {
          "internalType": "bytes32",
          "name": "role",
          "type": "bytes32"
        },
        {
          "internalType": "address",
          "name": "account",
          "type": "address"
        }
      ],
      "name": "revokeRole",
      "outputs": [],
      "stateMutability": "nonpayable",
      "type": "function"
    },
    {
      "inputs": [
        {
          "internalType": "bytes32",
          "name": "_debridgeId",
          "type": "bytes32"
        },
        {
          "internalType": "address",
          "name": "_receiver",
          "type": "address"
        },
        {
          "internalType": "uint256",
          "name": "_amount",
          "type": "uint256"
        },
        {
          "internalType": "uint256",
          "name": "_chainIdTo",
          "type": "uint256"
        }
      ],
      "name": "send",
      "outputs": [],
      "stateMutability": "payable",
      "type": "function"
    },
    {
      "inputs": [
        {
          "internalType": "address",
          "name": "_aggregator",
          "type": "address"
        }
      ],
      "name": "setAggregator",
      "outputs": [],
      "stateMutability": "nonpayable",
      "type": "function"
    },
    {
      "inputs": [
        {
          "internalType": "address",
          "name": "_callProxy",
          "type": "address"
        }
      ],
      "name": "setCallProxy",
      "outputs": [],
      "stateMutability": "nonpayable",
      "type": "function"
    },
    {
      "inputs": [
        {
          "internalType": "bytes32",
          "name": "_debridgeId",
          "type": "bytes32"
        },
        {
          "internalType": "uint256",
          "name": "_chainId",
          "type": "uint256"
        },
        {
          "internalType": "bool",
          "name": "_isSupported",
          "type": "bool"
        }
      ],
      "name": "setChainIdSupport",
      "outputs": [],
      "stateMutability": "nonpayable",
      "type": "function"
    },
    {
      "inputs": [
        {
          "internalType": "uint256[]",
          "name": "_chainIds",
          "type": "uint256[]"
        }
      ],
      "name": "setChainIds",
      "outputs": [],
      "stateMutability": "nonpayable",
      "type": "function"
    },
    {
      "inputs": [
        {
          "internalType": "contract IDefiController",
          "name": "_defiController",
          "type": "address"
        }
      ],
      "name": "setDefiController",
      "outputs": [],
      "stateMutability": "nonpayable",
      "type": "function"
    },
    {
      "inputs": [
        {
          "internalType": "bytes",
          "name": "_signature",
          "type": "bytes"
        }
      ],
      "name": "splitSignature",
      "outputs": [
        {
          "internalType": "bytes32",
          "name": "r",
          "type": "bytes32"
        },
        {
          "internalType": "bytes32",
          "name": "s",
          "type": "bytes32"
        },
        {
          "internalType": "uint8",
          "name": "v",
          "type": "uint8"
        }
      ],
      "stateMutability": "pure",
      "type": "function"
    },
    {
      "inputs": [
        {
          "internalType": "bytes4",
          "name": "interfaceId",
          "type": "bytes4"
        }
      ],
      "name": "supportsInterface",
      "outputs": [
        {
          "internalType": "bool",
          "name": "",
          "type": "bool"
        }
      ],
      "stateMutability": "view",
      "type": "function"
    },
    {
      "inputs": [],
      "name": "unpause",
      "outputs": [],
      "stateMutability": "nonpayable",
      "type": "function"
    },
    {
      "inputs": [
        {
          "internalType": "bytes32",
          "name": "_debridgeId",
          "type": "bytes32"
        },
        {
          "internalType": "uint256",
          "name": "_minAmount",
          "type": "uint256"
        },
        {
          "internalType": "uint256",
          "name": "_maxAmount",
          "type": "uint256"
        },
        {
          "internalType": "uint256",
          "name": "_minReserves",
          "type": "uint256"
        },
        {
          "internalType": "uint256",
          "name": "_amountThreshold",
          "type": "uint256"
        }
      ],
      "name": "updateAsset",
      "outputs": [],
      "stateMutability": "nonpayable",
      "type": "function"
    },
    {
      "inputs": [
        {
          "internalType": "bytes32",
          "name": "_debridgeId",
          "type": "bytes32"
        },
        {
          "internalType": "uint256[]",
          "name": "_supportedChainIds",
          "type": "uint256[]"
        },
        {
          "components": [
            {
              "internalType": "bool",
              "name": "isSupported",
              "type": "bool"
            },
            {
              "internalType": "uint256",
              "name": "fixedFee",
              "type": "uint256"
            },
            {
              "internalType": "uint256",
              "name": "transferFee",
              "type": "uint256"
            }
          ],
          "internalType": "struct IDebridge.ChainSupportInfo[]",
          "name": "_chainSupportInfo",
          "type": "tuple[]"
        }
      ],
      "name": "updateAsset",
      "outputs": [],
      "stateMutability": "nonpayable",
      "type": "function"
    },
    {
      "inputs": [],
      "name": "weth",
      "outputs": [
        {
          "internalType": "contract IWETH",
          "name": "",
          "type": "address"
        }
      ],
      "stateMutability": "view",
      "type": "function"
    },
    {
      "inputs": [
        {
          "internalType": "bytes32",
          "name": "_debridgeId",
          "type": "bytes32"
        },
        {
          "internalType": "address",
          "name": "_receiver",
          "type": "address"
        },
        {
          "internalType": "uint256",
          "name": "_amount",
          "type": "uint256"
        }
      ],
      "name": "withdrawFee",
      "outputs": [],
      "stateMutability": "nonpayable",
      "type": "function"
    },
    {
      "inputs": [
        {
          "internalType": "uint256",
          "name": "_excessConfirmations",
          "type": "uint256"
        },
        {
          "internalType": "uint256",
          "name": "_minAmount",
          "type": "uint256"
        },
        {
          "internalType": "uint256",
          "name": "_maxAmount",
          "type": "uint256"
        },
        {
          "internalType": "uint256",
          "name": "_minReserves",
          "type": "uint256"
        },
        {
          "internalType": "uint256",
          "name": "_amountThreshold",
          "type": "uint256"
        },
        {
          "internalType": "address",
          "name": "_aggregator",
          "type": "address"
        },
        {
          "internalType": "address",
          "name": "_callProxy",
          "type": "address"
        },
        {
          "internalType": "uint256[]",
          "name": "_supportedChainIds",
          "type": "uint256[]"
        },
        {
          "components": [
            {
              "internalType": "bool",
              "name": "isSupported",
              "type": "bool"
            },
            {
              "internalType": "uint256",
              "name": "fixedFee",
              "type": "uint256"
            },
            {
              "internalType": "uint256",
              "name": "transferFee",
              "type": "uint256"
            }
          ],
          "internalType": "struct IDebridge.ChainSupportInfo[]",
          "name": "_chainSupportInfo",
          "type": "tuple[]"
        },
        {
          "internalType": "contract IWETH",
          "name": "_weth",
          "type": "address"
        },
        {
          "internalType": "contract IFeeProxy",
          "name": "_feeProxy",
          "type": "address"
        },
        {
          "internalType": "contract IDefiController",
          "name": "_defiController",
          "type": "address"
        }
      ],
      "name": "initialize",
      "outputs": [],
      "stateMutability": "payable",
      "type": "function"
    },
    {
      "inputs": [
        {
          "internalType": "bytes32",
          "name": "_debridgeId",
          "type": "bytes32"
        },
        {
          "internalType": "uint256",
          "name": "_chainIdFrom",
          "type": "uint256"
        },
        {
          "internalType": "address",
          "name": "_receiver",
          "type": "address"
        },
        {
          "internalType": "uint256",
          "name": "_amount",
          "type": "uint256"
        },
        {
          "internalType": "uint256",
          "name": "_nonce",
          "type": "uint256"
        },
        {
          "internalType": "address",
          "name": "_fallbackAddress",
          "type": "address"
        },
        {
          "internalType": "uint256",
          "name": "_executionFee",
          "type": "uint256"
        },
        {
          "internalType": "bytes",
          "name": "_data",
          "type": "bytes"
        }
      ],
      "name": "autoMint",
      "outputs": [],
      "stateMutability": "nonpayable",
      "type": "function"
    },
    {
      "inputs": [
        {
          "internalType": "bytes32",
          "name": "_debridgeId",
          "type": "bytes32"
        },
        {
          "internalType": "uint256",
          "name": "_chainIdFrom",
          "type": "uint256"
        },
        {
          "internalType": "address",
          "name": "_receiver",
          "type": "address"
        },
        {
          "internalType": "uint256",
          "name": "_amount",
          "type": "uint256"
        },
        {
          "internalType": "uint256",
          "name": "_nonce",
          "type": "uint256"
        },
        {
          "internalType": "address",
          "name": "_fallbackAddress",
          "type": "address"
        },
        {
          "internalType": "uint256",
          "name": "_executionFee",
          "type": "uint256"
        },
        {
          "internalType": "bytes",
          "name": "_data",
          "type": "bytes"
        },
        {
          "internalType": "uint8",
          "name": "_aggregatorVersion",
          "type": "uint8"
        }
      ],
      "name": "autoMintWithOldAggregator",
      "outputs": [],
      "stateMutability": "nonpayable",
      "type": "function"
    },
    {
      "inputs": [
        {
          "internalType": "bytes32",
          "name": "_debridgeId",
          "type": "bytes32"
        },
        {
          "internalType": "uint256",
          "name": "_chainIdFrom",
          "type": "uint256"
        },
        {
          "internalType": "address",
          "name": "_receiver",
          "type": "address"
        },
        {
          "internalType": "uint256",
          "name": "_amount",
          "type": "uint256"
        },
        {
          "internalType": "uint256",
          "name": "_nonce",
          "type": "uint256"
        }
      ],
      "name": "mint",
      "outputs": [],
      "stateMutability": "nonpayable",
      "type": "function"
    },
    {
      "inputs": [
        {
          "internalType": "bytes32",
          "name": "_debridgeId",
          "type": "bytes32"
        },
        {
          "internalType": "uint256",
          "name": "_chainIdFrom",
          "type": "uint256"
        },
        {
          "internalType": "address",
          "name": "_receiver",
          "type": "address"
        },
        {
          "internalType": "uint256",
          "name": "_amount",
          "type": "uint256"
        },
        {
          "internalType": "uint256",
          "name": "_nonce",
          "type": "uint256"
        },
        {
          "internalType": "uint8",
          "name": "_aggregatorVersion",
          "type": "uint8"
        }
      ],
      "name": "mintWithOldAggregator",
      "outputs": [],
      "stateMutability": "nonpayable",
      "type": "function"
    },
    {
      "inputs": [
        {
          "internalType": "bytes32",
          "name": "_debridgeId",
          "type": "bytes32"
        },
        {
          "internalType": "uint256",
          "name": "_chainIdFrom",
          "type": "uint256"
        },
        {
          "internalType": "address",
          "name": "_receiver",
          "type": "address"
        },
        {
          "internalType": "uint256",
          "name": "_amount",
          "type": "uint256"
        },
        {
          "internalType": "uint256",
          "name": "_nonce",
          "type": "uint256"
        },
        {
          "internalType": "address",
          "name": "_fallbackAddress",
          "type": "address"
        },
        {
          "internalType": "uint256",
          "name": "_executionFee",
          "type": "uint256"
        },
        {
          "internalType": "bytes",
          "name": "_data",
          "type": "bytes"
        }
      ],
      "name": "autoClaim",
      "outputs": [],
      "stateMutability": "nonpayable",
      "type": "function"
    },
    {
      "inputs": [
        {
          "internalType": "bytes32",
          "name": "_debridgeId",
          "type": "bytes32"
        },
        {
          "internalType": "uint256",
          "name": "_chainIdFrom",
          "type": "uint256"
        },
        {
          "internalType": "address",
          "name": "_receiver",
          "type": "address"
        },
        {
          "internalType": "uint256",
          "name": "_amount",
          "type": "uint256"
        },
        {
          "internalType": "uint256",
          "name": "_nonce",
          "type": "uint256"
        },
        {
          "internalType": "address",
          "name": "_fallbackAddress",
          "type": "address"
        },
        {
          "internalType": "uint256",
          "name": "_executionFee",
          "type": "uint256"
        },
        {
          "internalType": "bytes",
          "name": "_data",
          "type": "bytes"
        },
        {
          "internalType": "uint8",
          "name": "_aggregatorVersion",
          "type": "uint8"
        }
      ],
      "name": "autoClaimWithOldAggregator",
      "outputs": [],
      "stateMutability": "nonpayable",
      "type": "function"
    },
    {
      "inputs": [
        {
          "internalType": "bytes32",
          "name": "_debridgeId",
          "type": "bytes32"
        },
        {
          "internalType": "uint256",
          "name": "_chainIdFrom",
          "type": "uint256"
        },
        {
          "internalType": "address",
          "name": "_receiver",
          "type": "address"
        },
        {
          "internalType": "uint256",
          "name": "_amount",
          "type": "uint256"
        },
        {
          "internalType": "uint256",
          "name": "_nonce",
          "type": "uint256"
        }
      ],
      "name": "claim",
      "outputs": [],
      "stateMutability": "nonpayable",
      "type": "function"
    },
    {
      "inputs": [
        {
          "internalType": "bytes32",
          "name": "_debridgeId",
          "type": "bytes32"
        },
        {
          "internalType": "uint256",
          "name": "_chainIdFrom",
          "type": "uint256"
        },
        {
          "internalType": "address",
          "name": "_receiver",
          "type": "address"
        },
        {
          "internalType": "uint256",
          "name": "_amount",
          "type": "uint256"
        },
        {
          "internalType": "uint256",
          "name": "_nonce",
          "type": "uint256"
        },
        {
          "internalType": "uint8",
          "name": "_aggregatorVersion",
          "type": "uint8"
        }
      ],
      "name": "claimWithOldAggregator",
      "outputs": [],
      "stateMutability": "nonpayable",
      "type": "function"
    },
    {
      "inputs": [
        {
          "internalType": "bytes32",
          "name": "_debridgeId",
          "type": "bytes32"
        },
        {
          "internalType": "uint256",
          "name": "_amount",
          "type": "uint256"
        }
      ],
      "name": "fundAggregator",
      "outputs": [],
      "stateMutability": "nonpayable",
      "type": "function"
    },
    {
      "inputs": [
        {
          "internalType": "contract IFeeProxy",
          "name": "_feeProxy",
          "type": "address"
        }
      ],
      "name": "setFeeProxy",
      "outputs": [],
      "stateMutability": "nonpayable",
      "type": "function"
    },
    {
      "inputs": [
        {
          "internalType": "contract IWETH",
          "name": "_weth",
          "type": "address"
        }
      ],
      "name": "setWeth",
      "outputs": [],
      "stateMutability": "nonpayable",
      "type": "function"
    }
  ],
  "bytecode": "0x608060405234801561001057600080fd5b506156fc80620000216000396000f3fe6080604052600436106103975760003560e01c806374987155116101dc578063b8d1452f11610102578063d547741f116100a0578063ec857bb71161006f578063ec857bb714610bbc578063f8b2cb4f14610bdc578063f9120af614610bfc578063f9e032c414610c1c57610397565b8063d547741f14610b2f578063df05f8f514610b4f578063e562904d14610b6f578063e836a7a914610b8f57610397565b8063be7f2184116100dc578063be7f218414610a78578063bf3d734114610a98578063d1e3951314610ab8578063d311f65614610afc57610397565b8063b8d1452f14610a22578063b9b5565214610a42578063ba9f777614610a5857610397565b806395f03b601161017a578063a7bb580311610149578063a7bb580314610984578063ae0d21ff146109c2578063b4ccbfd3146109e2578063b4ebd56014610a0257610397565b806395f03b60146109195780639682b909146109395780639a8a059214610959578063a217fddf1461096f57610397565b8063841b162b116101b6578063841b162b146108675780638456cb59146108c8578063918f8674146108dd57806391d14854146108f957610397565b8063749871551461081457806376d8e49d1461083457806383d3f95d1461084757610397565b806340b515af116102c15780635bd5a95e1161025f57806365f3b0c71161022e57806365f3b0c7146107945780636834e3a8146107b45780636b063d65146107e15780636b7cbb69146107f457610397565b80635bd5a95e146107125780635c975abb1461073257806364e54edc1461075157806365ac9f781461076457610397565b80634adc479c1161029b5780634adc479c1461061157806353f3be851461063157806354c547361461065157806357cf07ca1461067157610397565b806340b515af146105b15780634146bd53146105d157806346144c8f146105f157610397565b806325be0be1116103395780632f2ff15d116103085780632f2ff15d1461053c57806336568abe1461055c5780633f4ba83a1461057c5780633fc8cef31461059157610397565b806325be0be1146104bc5780632a489cbe146104dc5780632b0d0a8b146104fc5780632da688ac1461051c57610397565b8063106f432f11610375578063106f432f1461040657806321d9309014610426578063245a7bfc14610454578063248a9ca31461048c57610397565b806301ffc9a71461039c578063031ac613146103d15780630a0e5e9a146103e6575b600080fd5b3480156103a857600080fd5b506103bc6103b7366004615071565b610c3c565b60405190151581526020015b60405180910390f35b6103e46103df366004614afc565b610c75565b005b3480156103f257600080fd5b506103e4610401366004614f21565b610d79565b34801561041257600080fd5b506103e461042136600461489a565b610e39565b34801561043257600080fd5b50610446610441366004614a7e565b610e82565b6040519081526020016103c8565b34801561046057600080fd5b50600454610474906001600160a01b031681565b6040516001600160a01b0390911681526020016103c8565b34801561049857600080fd5b506104466104a7366004614a7e565b60009081526020819052604090206001015490565b3480156104c857600080fd5b506103e46104d736600461489a565b610ea3565b3480156104e857600080fd5b506103e46104f7366004614baf565b610eec565b34801561050857600080fd5b506103e461051736600461489a565b61107a565b34801561052857600080fd5b50600554610474906001600160a01b031681565b34801561054857600080fd5b506103e4610557366004614a96565b6110f6565b34801561056857600080fd5b506103e4610577366004614a96565b611185565b34801561058857600080fd5b506103e46111ff565b34801561059d57600080fd5b50600e54610474906001600160a01b031681565b3480156105bd57600080fd5b506103e46105cc3660046148b6565b611285565b3480156105dd57600080fd5b506103e46105ec366004614e27565b6112d7565b3480156105fd57600080fd5b50600754610474906001600160a01b031681565b34801561061d57600080fd5b506103e461062c366004614d4f565b61146d565b34801561063d57600080fd5b506103e461064c366004614d4f565b611613565b34801561065d57600080fd5b506103e461066c366004614997565b6117b1565b34801561067d57600080fd5b506106d361068c366004614a7e565b60086020526000908152604090208054600182015460028301546003840154600485015460058601546006909601546001600160a01b039095169593949293919290919087565b604080516001600160a01b0390981688526020880196909652948601939093526060850191909152608084015260a083015260c082015260e0016103c8565b34801561071e57600080fd5b506103e461072d366004614d2e565b6117fb565b34801561073e57600080fd5b506103bc60015462010000900460ff1690565b6103e461075f366004615107565b611aaf565b34801561077057600080fd5b506103bc61077f366004614a7e565b60096020526000908152604090205460ff1681565b3480156107a057600080fd5b506103e46107af366004615037565b611bb7565b3480156107c057600080fd5b506104466107cf36600461489a565b600a6020526000908152604090205481565b6103e46107ef36600461496c565b611c13565b34801561080057600080fd5b506103e461080f366004615210565b611cb5565b34801561082057600080fd5b506103e461082f366004614ec8565b611d78565b6103e4610842366004614b38565b611f6b565b34801561085357600080fd5b506103e4610862366004614ac5565b6120f5565b34801561087357600080fd5b506108a96108823660046151f6565b600b602052600090815260409020546001600160a01b03811690600160a01b900460ff1682565b604080516001600160a01b0390931683529015156020830152016103c8565b3480156108d457600080fd5b506103e461220b565b3480156108e957600080fd5b50610446670de0b6b3a764000081565b34801561090557600080fd5b506103bc610914366004614a96565b612269565b34801561092557600080fd5b506103e4610934366004614e27565b612292565b34801561094557600080fd5b50610446610954366004614a96565b61247a565b34801561096557600080fd5b5061044660025481565b34801561097b57600080fd5b50610446600081565b34801561099057600080fd5b506109a461099f366004615099565b6124c8565b60408051938452602084019290925260ff16908201526060016103c8565b3480156109ce57600080fd5b506103e46109dd366004614d97565b61254d565b3480156109ee57600080fd5b506103e46109fd366004614cc5565b6126e8565b348015610a0e57600080fd5b506103e4610a1d366004614c53565b6127ce565b348015610a2e57600080fd5b506103e4610a3d36600461489a565b6128cd565b348015610a4e57600080fd5b5061044660035481565b348015610a6457600080fd5b50600d54610474906001600160a01b031681565b348015610a8457600080fd5b506103e4610a9336600461496c565b612916565b348015610aa457600080fd5b50610446610ab3366004614f59565b612aa6565b348015610ac457600080fd5b50610ad8610ad3366004614d2e565b612b04565b604080518251151581526020808401519082015291810151908201526060016103c8565b348015610b0857600080fd5b50600554610b1d90600160a01b900460ff1681565b60405160ff90911681526020016103c8565b348015610b3b57600080fd5b506103e4610b4a366004614a96565b612b72565b348015610b5b57600080fd5b506103e4610b6a366004614ec8565b612bf2565b348015610b7b57600080fd5b506103e4610b8a366004614a30565b612d62565b348015610b9b57600080fd5b50610446610baa366004614a7e565b600c6020526000908152604090205481565b348015610bc857600080fd5b506103e4610bd7366004614d97565b612dcc565b348015610be857600080fd5b50610446610bf736600461489a565b612f5a565b348015610c0857600080fd5b506103e4610c1736600461489a565b612fef565b348015610c2857600080fd5b50610446610c37366004614fad565b6130bf565b60006001600160e01b03198216637965db0b60e01b1480610c6d57506301ffc9a760e01b6001600160e01b03198316145b90505b919050565b610c8760015462010000900460ff1690565b15610cad5760405162461bcd60e51b8152600401610ca4906154f5565b60405180910390fd5b610cb8848383613107565b6001600160a01b0384166000908152600a602052604081205460025492945091610ce790879085878987612aa6565b60408051828152602081018990529081018690526001600160a01b03871660608201526080810184905260a081018590529091507f17c61cb89b62a3f29f5b150e3489c7a796ac4dc95fd73af14faa2c8086a324b49060c00160405180910390a16001600160a01b0385166000908152600a60205260408120805491610d6c83615639565b9190505550505050505050565b610d84600033612269565b610da05760405162461bcd60e51b8152600401610ca49061551f565b600083815260086020908152604080832085845260078101909252909120805460ff19168315801591909117909155610e0557604051839085907fdd4dbf80f57aa5115a1e07abb36e4de565879d4de5bd15b3803d666fe1d8486390600090a3610e33565b604051839085907f86c512831f7a2aad3f56b4169c161be1028776ab950c72e26237a0310ded560690600090a35b50505050565b610e44600033612269565b610e605760405162461bcd60e51b8152600401610ca49061551f565b600780546001600160a01b0319166001600160a01b0392909216919091179055565b60068181548110610e9257600080fd5b600091825260209091200154905081565b610eae600033612269565b610eca5760405162461bcd60e51b8152600401610ca49061551f565b600d80546001600160a01b0319166001600160a01b0392909216919091179055565b610efe60015462010000900460ff1690565b15610f1b5760405162461bcd60e51b8152600401610ca4906154f5565b83610f605760405162461bcd60e51b81526020600482015260156024820152746175746f4275726e3a2066656520746f6f206c6f7760581b6044820152606401610ca4565b610f6d89888885856133cd565b965083871015610fbf5760405162461bcd60e51b815260206004820152601f60248201527f6175746f4275726e3a2070726f706f7365642066656520746f6f2068696768006044820152606401610ca4565b610fc984886155f6565b6001600160a01b0389166000908152600a602052604081205460025492995091610ffb908c908a8c8e878d8d8d6130bf565b90507f162d1eb996f3c086a0e61e84fd83d43819c49672c1f91d948c6b5df1fad617a3818c8b8d868d8c8e8d60405161103c999897969594939291906153aa565b60405180910390a16001600160a01b038a166000908152600a6020526040812080549161106883615639565b91905055505050505050505050505050565b611085600033612269565b6110a15760405162461bcd60e51b8152600401610ca49061551f565b600580546001600160a01b0319166001600160a01b0383169081179091556040519081527fa9543b36462a5e2c2259a14d72a8bd4e2342eaf9d7c828e9fb86921b3aa3eb5f906020015b60405180910390a150565b600082815260208190526040902060010154611113905b33610914565b6111775760405162461bcd60e51b815260206004820152602f60248201527f416363657373436f6e74726f6c3a2073656e646572206d75737420626520616e60448201526e0818591b5a5b881d1bc819dc985b9d608a1b6064820152608401610ca4565b6111818282613799565b5050565b6001600160a01b03811633146111f55760405162461bcd60e51b815260206004820152602f60248201527f416363657373436f6e74726f6c3a2063616e206f6e6c792072656e6f756e636560448201526e103937b632b9903337b91039b2b63360891b6064820152608401610ca4565b611181828261381d565b61120a600033612269565b6112265760405162461bcd60e51b8152600401610ca49061551f565b61123860015462010000900460ff1690565b61127b5760405162461bcd60e51b815260206004820152601460248201527314185d5cd8589b194e881b9bdd081c185d5cd95960621b6044820152606401610ca4565b611283613882565b565b611290600033612269565b6112ac5760405162461bcd60e51b8152600401610ca49061551f565b60006112b8888b61247a565b90506112cb818a8a8a8a8a8a8a8a613919565b50505050505050505050565b6112e960015462010000900460ff1690565b156113065760405162461bcd60e51b8152600401610ca4906154f5565b600061131b8a8a6002548a8c8b8b8b8b6130bf565b60ff8084166000908152600b60209081526040918290208251808401909352546001600160a01b0381168352600160a01b900490921615159181018290529192506113785760405162461bcd60e51b8152600401610ca49061541e565b80516040516321c2773160e01b81526004810184905260009182916001600160a01b03909116906321c2773190602401604080518083038186803b1580156113bf57600080fd5b505afa1580156113d3573d6000803e3d6000fd5b505050506040513d601f19601f820116820180604052508101906113f791906150e3565b91509150806114185760405162461bcd60e51b8152600401610ca4906154b1565b60008d8152600c60205260409020548a1061144f5760035482101561144f5760405162461bcd60e51b8152600401610ca490615466565b61145e848e8d8d8c8c8c613af6565b50505050505050505050505050565b61147f60015462010000900460ff1690565b1561149c5760405162461bcd60e51b8152600401610ca4906154f5565b60006114ae8686600254868887612aa6565b600480546040516321c2773160e01b815291820183905291925060009182916001600160a01b03909116906321c2773190602401604080518083038186803b1580156114f957600080fd5b505afa15801561150d573d6000803e3d6000fd5b505050506040513d601f19601f8201168201806040525081019061153191906150e3565b91509150806115785760405162461bcd60e51b81526020600482015260136024820152721b5a5b9d0e881b9bdd0818dbdb999a5c9b5959606a1b6044820152606401610ca4565b6000888152600c602052604090205485106115df576003548210156115df5760405162461bcd60e51b815260206004820152601a60248201527f6d696e743a20616d6f756e74206e6f7420636f6e6669726d65640000000000006044820152606401610ca4565b6116098389888860008060405180604001604052806002815260200161060f60f31b815250613af6565b5050505050505050565b61162560015462010000900460ff1690565b156116425760405162461bcd60e51b8152600401610ca4906154f5565b60006116548686600254868887612aa6565b600480546040516321c2773160e01b815291820183905291925060009182916001600160a01b03909116906321c2773190602401604080518083038186803b15801561169f57600080fd5b505afa1580156116b3573d6000803e3d6000fd5b505050506040513d601f19601f820116820180604052508101906116d791906150e3565b60008a8152600c602052604090205491935091508510611743576003548210156117435760405162461bcd60e51b815260206004820152601b60248201527f636c61696d3a20616d6f756e74206e6f7420636f6e6669726d656400000000006044820152606401610ca4565b806117875760405162461bcd60e51b815260206004820152601460248201527318db185a5b4e881b9bdd0818dbdb999a5c9b595960621b6044820152606401610ca4565b6116098389888860008060405180604001604052806002815260200161060f60f31b815250613e25565b6117bc600033612269565b6117d85760405162461bcd60e51b8152600401610ca49061551f565b60006117e66002548961247a565b905061160981896002548a8a8a8a8a8a613919565b611806600033612269565b6118225760405162461bcd60e51b8152600401610ca49061551f565b600082815260086020526040902060048101548211156118845760405162461bcd60e51b815260206004820152601e60248201527f66756e6441676772656761746f723a206e6f7420656e6f7567682066656500006044820152606401610ca4565b8181600401600082825461189891906155f6565b909155505080546001600160a01b0316611a1957600e60009054906101000a90046001600160a01b03166001600160a01b031663d0e30db0836040518263ffffffff1660e01b81526004016000604051808303818588803b1580156118fc57600080fd5b505af1158015611910573d6000803e3d6000fd5b5050600e54600d5460405163a9059cbb60e01b81526001600160a01b039182166004820152602481018890529116935063a9059cbb92506044019050602060405180830381600087803b15801561196657600080fd5b505af115801561197a573d6000803e3d6000fd5b505050506040513d601f19601f8201168201806040525081019061199e9190614a62565b50600d54600e5460048054604051631acd461560e31b81526001600160a01b0393841692810192909252602482018690528216604482015291169063d66a30a890606401600060405180830381600087803b1580156119fc57600080fd5b505af1158015611a10573d6000803e3d6000fd5b50505050611aaa565b600d548154611a35916001600160a01b039182169116846141d6565b600d54815460048054604051631acd461560e31b81526001600160a01b0393841692810192909252602482018690528216604482015291169063d66a30a890606401600060405180830381600087803b158015611a9157600080fd5b505af1158015611aa5573d6000803e3d6000fd5b505050505b505050565b600154610100900460ff1680611ac8575060015460ff16155b611b2b5760405162461bcd60e51b815260206004820152602e60248201527f496e697469616c697a61626c653a20636f6e747261637420697320616c72656160448201526d191e481a5b9a5d1a585b1a5e995960921b6064820152608401610ca4565b600154610100900460ff16158015611b55576001805460ff1961ff00199091166101001716811790555b611b678d8d8d8d8d8d8d8d8d8b614239565b600e80546001600160a01b038087166001600160a01b031992831617909255600d805492861692909116919091179055801561145e576001805461ff001916905550505050505050505050505050565b611bc2600033612269565b611bde5760405162461bcd60e51b8152600401610ca49061551f565b600094855260086020908152604080872060028101969096556003860194909455600690940191909155600c90925290912055565b6007546001600160a01b03163314611c685760405162461bcd60e51b815260206004820152601860248201527764656669436f6e74726f6c6c65723a2062616420726f6c6560401b6044820152606401610ca4565b6000611c766002548461247a565b60008181526008602052604090208054919250906001600160a01b031615610e33576007548154610e33916001600160a01b03918216911630866142de565b611cc0600033612269565b611cdc5760405162461bcd60e51b8152600401610ca49061551f565b60055460ff600160a01b909104811690831610611d495760405162461bcd60e51b815260206004820152602560248201527f6d616e6167654f6c6441676772656761746f723a2076657273696f6e20746f6f604482015264040d0d2ced60db1b6064820152608401610ca4565b60ff9091166000908152600b602052604090208054911515600160a01b0260ff60a01b19909216919091179055565b6000611d8a8787600254878988612aa6565b60ff8084166000908152600b60209081526040918290208251808401909352546001600160a01b0381168352600160a01b90049092161515918101829052919250611de75760405162461bcd60e51b8152600401610ca49061541e565b80516040516321c2773160e01b81526004810184905260009182916001600160a01b03909116906321c2773190602401604080518083038186803b158015611e2e57600080fd5b505afa158015611e42573d6000803e3d6000fd5b505050506040513d601f19601f82011682018060405250810190611e6691906150e3565b9150915080611ec55760405162461bcd60e51b815260206004820152602560248201527f636c61696d576974684f6c6441676772656761746f723a206e6f7420636f6e666044820152641a5c9b595960da1b6064820152608401610ca4565b60008a8152600c60205260409020548710611f4157600354821015611f415760405162461bcd60e51b815260206004820152602c60248201527f636c61696d576974684f6c6441676772656761746f723a20616d6f756e74206e60448201526b1bdd0818dbdb999a5c9b595960a21b6064820152608401610ca4565b6112cb848b8a8a60008060405180604001604052806002815260200161060f60f31b815250613e25565b611f7d60015462010000900460ff1690565b15611f9a5760405162461bcd60e51b8152600401610ca4906154f5565b81611fdf5760405162461bcd60e51b81526020600482015260156024820152746175746f53656e643a2066656520746f6f206c6f7760581b6044820152606401610ca4565b611fea878686613107565b94508185101561203c5760405162461bcd60e51b815260206004820152601f60248201527f6175746f53656e643a2070726f706f7365642066656520746f6f2068696768006044820152606401610ca4565b61204682866155f6565b6001600160a01b0387166000908152600a602052604081205460025492975091612078908a90888a8c878b8b8b6130bf565b90507f29694ef96c3937a1b484e431876ef7ec8a4a9733d71f07880a741507422f2dbe818a898b868b8a8c8b6040516120b9999897969594939291906153aa565b60405180910390a16001600160a01b0388166000908152600a602052604081208054916120e583615639565b9190505550505050505050505050565b612100600033612269565b61211c5760405162461bcd60e51b8152600401610ca49061551f565b6000838152600860205260409020600481015482111561217e5760405162461bcd60e51b815260206004820152601b60248201527f77697468647261774665653a206e6f7420656e6f7567682066656500000000006044820152606401610ca4565b8181600401600082825461219291906155f6565b909155505060025460018201541480156121b4575080546001600160a01b0316155b156121f5576040516001600160a01b0384169083156108fc029084906000818181858888f193505050501580156121ef573d6000803e3d6000fd5b50610e33565b8054610e33906001600160a01b031684846141d6565b612216600033612269565b6122325760405162461bcd60e51b8152600401610ca49061551f565b61224460015462010000900460ff1690565b156122615760405162461bcd60e51b8152600401610ca4906154f5565b611283614316565b6000918252602082815260408084206001600160a01b0393909316845291905290205460ff1690565b6122a460015462010000900460ff1690565b156122c15760405162461bcd60e51b8152600401610ca4906154f5565b60006122d68a8a6002548a8c8b8b8b8b6130bf565b60ff8381166000908152600b602090815260408083208151808301835290546001600160a01b038116808352600160a01b909104909516151592810192909252516321c2773160e01b81526004810185905293945092909182916321c2773190602401604080518083038186803b15801561235057600080fd5b505afa158015612364573d6000803e3d6000fd5b505050506040513d601f19601f8201168201806040525081019061238891906150e3565b91509150806123eb5760405162461bcd60e51b815260206004820152602960248201527f6175746f436c61696d576974684f6c6441676772656761746f723a206e6f742060448201526818dbdb999a5c9b595960ba1b6064820152608401610ca4565b60008d8152600c60205260409020548a1061246b5760035482101561246b5760405162461bcd60e51b815260206004820152603060248201527f6175746f436c61696d576974684f6c6441676772656761746f723a20616d6f7560448201526f1b9d081b9bdd0818dbdb999a5c9b595960821b6064820152608401610ca4565b61145e848e8d8d8c8c8c613e25565b600082826040516020016124aa92919091825260601b6bffffffffffffffffffffffff1916602082015260340190565b60405160208183030381529060405280519060200120905092915050565b6000806000835160411461252f5760405162461bcd60e51b815260206004820152602860248201527f73706c69745369676e61747572653a20696e76616c6964207369676e617475726044820152670ca40d8cadccee8d60c31b6064820152608401610ca4565b50505060208101516040820151606090920151909260009190911a90565b61255f60015462010000900460ff1690565b1561257c5760405162461bcd60e51b8152600401610ca4906154f5565b60006125918989600254898b8a8a8a8a6130bf565b600480546040516321c2773160e01b815291820183905291925060009182916001600160a01b03909116906321c2773190602401604080518083038186803b1580156125dc57600080fd5b505afa1580156125f0573d6000803e3d6000fd5b505050506040513d601f19601f8201168201806040525081019061261491906150e3565b91509150806126655760405162461bcd60e51b815260206004820152601860248201527f6175746f436c61696d3a206e6f7420636f6e6669726d656400000000000000006044820152606401610ca4565b60008b8152600c602052604090205488106126cc576003548210156126cc5760405162461bcd60e51b815260206004820152601f60248201527f6175746f436c61696d3a20616d6f756e74206e6f7420636f6e6669726d6564006044820152606401610ca4565b6126db838c8b8b8a8a8a613e25565b5050505050505050505050565b6126f3600033612269565b61270f5760405162461bcd60e51b8152600401610ca49061551f565b6000838152600860205260408120905b83518110156127c75782818151811061274857634e487b7160e01b600052603260045260246000fd5b602002602001015182600701600086848151811061277657634e487b7160e01b600052603260045260246000fd5b60209081029190910181015182528181019290925260409081016000208351815460ff19169015151781559183015160018301559190910151600290910155806127bf81615639565b91505061271f565b5050505050565b6127e060015462010000900460ff1690565b156127fd5760405162461bcd60e51b8152600401610ca4906154f5565b61280a86858585856133cd565b6001600160a01b0386166000908152600a60205260408120546002549296509161283990899087898b87612aa6565b60408051828152602081018b90529081018890526001600160a01b03891660608201526080810184905260a081018790529091507fb8cc5195d548dc2781227c496b92d3736cd56d7f32b28971c9ae1e9eb0badf959060c00160405180910390a16001600160a01b0387166000908152600a602052604081208054916128be83615639565b91905055505050505050505050565b6128d8600033612269565b6128f45760405162461bcd60e51b8152600401610ca49061551f565b600e80546001600160a01b0319166001600160a01b0392909216919091179055565b6007546001600160a01b0316331461296b5760405162461bcd60e51b815260206004820152601860248201527764656669436f6e74726f6c6c65723a2062616420726f6c6560401b6044820152606401610ca4565b60006129796002548461247a565b6000818152600860205260408120600681015460058201549394509092670de0b6b3a7640000916129a9916155d7565b6129b391906155b7565b82549091506000906129cd906001600160a01b0316612f5a565b9050806129da868461559f565b11612a335760405162461bcd60e51b8152602060048201526024808201527f7265717565737452657365727665733a206e6f7420656e6f75676820726573656044820152637276657360e01b6064820152608401610ca4565b82546001600160a01b0316612a82576007546040516001600160a01b039091169086156108fc029087906000818181858888f19350505050158015612a7c573d6000803e3d6000fd5b50612a9e565b6007548354612a9e916001600160a01b039182169116876141d6565b505050505050565b60408051602080820198909852808201969096526060808701959095526080860193909352921b6bffffffffffffffffffffffff191660a084015260b4808401929092528051808403909201825260d4909201909152805191012090565b612b2a604051806060016040528060001515815260200160008152602001600081525090565b50600091825260086020908152604080842092845260079092018152918190208151606081018352815460ff1615158152600182015493810193909352600201549082015290565b600082815260208190526040902060010154612b8d9061110d565b6111f55760405162461bcd60e51b815260206004820152603060248201527f416363657373436f6e74726f6c3a2073656e646572206d75737420626520616e60448201526f2061646d696e20746f207265766f6b6560801b6064820152608401610ca4565b6000612c048787600254878988612aa6565b60ff8084166000908152600b60209081526040918290208251808401909352546001600160a01b0381168352600160a01b90049092161515918101829052919250612c615760405162461bcd60e51b8152600401610ca49061541e565b80516040516321c2773160e01b81526004810184905260009182916001600160a01b03909116906321c2773190602401604080518083038186803b158015612ca857600080fd5b505afa158015612cbc573d6000803e3d6000fd5b505050506040513d601f19601f82011682018060405250810190612ce091906150e3565b9150915080612d015760405162461bcd60e51b8152600401610ca4906154b1565b60008a8152600c60205260409020548710612d3857600354821015612d385760405162461bcd60e51b8152600401610ca490615466565b6112cb848b8a8a60008060405180604001604052806002815260200161060f60f31b815250613af6565b612d6d600033612269565b612d895760405162461bcd60e51b8152600401610ca49061551f565b8051612d9c9060069060208401906146aa565b507fc96689ced54dda42d1f32f295881474112291c08120448bec2f7b10f5297e88f816040516110eb9190615366565b612dde60015462010000900460ff1690565b15612dfb5760405162461bcd60e51b8152600401610ca4906154f5565b6000612e108989600254898b8a8a8a8a6130bf565b600480546040516321c2773160e01b815291820183905291925060009182916001600160a01b03909116906321c2773190602401604080518083038186803b158015612e5b57600080fd5b505afa158015612e6f573d6000803e3d6000fd5b505050506040513d601f19601f82011682018060405250810190612e9391906150e3565b9150915080612ee45760405162461bcd60e51b815260206004820152601760248201527f6175746f4d696e743a206e6f7420636f6e6669726d65640000000000000000006044820152606401610ca4565b60008b8152600c60205260409020548810612f4b57600354821015612f4b5760405162461bcd60e51b815260206004820152601e60248201527f6175746f4d696e743a20616d6f756e74206e6f7420636f6e6669726d656400006044820152606401610ca4565b6126db838c8b8b8a8a8a613af6565b60006001600160a01b038216612f71575047610c70565b6040516370a0823160e01b81523060048201526001600160a01b038316906370a082319060240160206040518083038186803b158015612fb057600080fd5b505afa158015612fc4573d6000803e3d6000fd5b505050506040513d601f19601f82011682018060405250810190612fe891906150cb565b9050610c70565b612ffa600033612269565b6130165760405162461bcd60e51b8152600401610ca49061551f565b604080518082018252600480546001600160a01b039081168352600160208085019182526005805460ff600160a01b9182900481166000908152600b909452979092209551865493511515830260ff60a01b199186166001600160a01b0319958616179190911617909555835492871692909116919091179091558154049091169060146130a383615654565b91906101000a81548160ff021916908360ff1602179055505050565b60008989898989898989896040516020016130e299989796959493929190615267565b6040516020818303038152906040528051906020012090509998505050505050505050565b60008381526008602090815260408083208484526007810183528184208251606081018452815460ff16151581526001808301549582019590955260029182015493810193909352549281015490921461319c5760405162461bcd60e51b815260206004820152601660248201527539b2b7321d103737ba103730ba34bb329031b430b4b760511b6044820152606401610ca4565b80516131ea5760405162461bcd60e51b815260206004820152601860248201527f73656e643a2077726f6e672074617267656420636861696e00000000000000006044820152606401610ca4565b81600201548510156132355760405162461bcd60e51b815260206004820152601460248201527373656e643a20616d6f756e7420746f6f206c6f7760601b6044820152606401610ca4565b81600301548511156132815760405162461bcd60e51b81526020600482015260156024820152740e6cadcc87440c2dadeeadce840e8dede40d0d2ced605b1b6044820152606401610ca4565b81546001600160a01b03166132dc573485146132d75760405162461bcd60e51b81526020600482015260156024820152740e6cadcc87440c2dadeeadce840dad2e6dac2e8c6d605b1b6044820152606401610ca4565b6132f3565b81546132f3906001600160a01b03163330886142de565b6000670de0b6b3a764000082604001518761330e91906155d7565b61331891906155b7565b8260200151613327919061559f565b905080156133a6578086101561337f5760405162461bcd60e51b815260206004820152601b60248201527f73656e643a20616d6f756e74206e6f7420636f766572206665657300000000006044820152606401610ca4565b80836004016000828254613393919061559f565b909155506133a3905081876155f6565b95505b858360050160008282546133ba919061559f565b90915550869450505050505b9392505050565b60008581526008602090815260408083208684526007810183528184208251606081018452815460ff1615158152600180830154958201959095526002918201549381019390935254928101549092141561345f5760405162461bcd60e51b8152602060048201526012602482015271189d5c9b8e881b985d1a5d9948185cdcd95d60721b6044820152606401610ca4565b80516134ad5760405162461bcd60e51b815260206004820152601860248201527f6275726e3a2077726f6e672074617267656420636861696e00000000000000006044820152606401610ca4565b81600201548710156134f85760405162461bcd60e51b81526020600482015260146024820152736275726e3a20616d6f756e7420746f6f206c6f7760601b6044820152606401610ca4565b81600301548711156135445760405162461bcd60e51b81526020600482015260156024820152740c4eae4dc7440c2dadeeadce840e8dede40d0d2ced605b1b6044820152606401610ca4565b815484516001600160a01b0390911690156135f7576000806000613567886124c8565b60405163d505accf60e01b8152336004820152306024820152604481018f9052606481018d905260ff8216608482015260a4810184905260c4810183905292955090935091506001600160a01b0385169063d505accf9060e401600060405180830381600087803b1580156135db57600080fd5b505af11580156135ef573d6000803e3d6000fd5b505050505050505b6040516323b872dd60e01b8152336004820152306024820152604481018990526001600160a01b038216906323b872dd90606401602060405180830381600087803b15801561364557600080fd5b505af1158015613659573d6000803e3d6000fd5b505050506040513d601f19601f8201168201806040525081019061367d9190614a62565b506000670de0b6b3a764000083604001518a61369991906155d7565b6136a391906155b7565b83602001516136b2919061559f565b90508015613731578089101561370a5760405162461bcd60e51b815260206004820152601b60248201527f6275726e3a20616d6f756e74206e6f7420636f766572206665657300000000006044820152606401610ca4565b8084600401600082825461371e919061559f565b9091555061372e9050818a6155f6565b98505b604051630852cd8d60e31b8152600481018a90526001600160a01b038316906342966c6890602401600060405180830381600087803b15801561377357600080fd5b505af1158015613787573d6000803e3d6000fd5b509a9c9b505050505050505050505050565b6137a38282612269565b611181576000828152602081815260408083206001600160a01b03851684529091529020805460ff191660011790556137d93390565b6001600160a01b0316816001600160a01b0316837f2f8788117e7eff1d82e926ec794901d17c78024a50270940304540a733656f0d60405160405180910390a45050565b6138278282612269565b15611181576000828152602081815260408083206001600160a01b0385168085529252808320805460ff1916905551339285917ff6391f5c32d9c69d2a47ea670b442974b53935d1edc7fd64eb21e047a839171b9190a45050565b61389460015462010000900460ff1690565b6138d75760405162461bcd60e51b815260206004820152601460248201527314185d5cd8589b194e881b9bdd081c185d5cd95960621b6044820152606401610ca4565b6001805462ff0000191690556040513381527f5db9ee0a495bf2e6ff9c91a7834c1ba4fdd244a5e8aa4e537bd38aeae4b073aa906020015b60405180910390a1565b80518251146139795760405162461bcd60e51b815260206004820152602660248201527f5f61646441737365743a2077726f6e6720636861696e20737570706f7274206c604482015265656e6774687360d01b6064820152608401610ca4565b600089815260086020908152604080832080546001600160a01b0319166001600160a01b038d16178155600181018b9055600281018a90556003810189905560068101889055600c909252822085905590805b8451811015613a9a578481815181106139f557634e487b7160e01b600052603260045260246000fd5b60200260200101519150838181518110613a1f57634e487b7160e01b600052603260045260246000fd5b602090810291909101810151600084815260078601835260408082208351815460ff1916901515178155938301516001850155918201516002909301929092555183918e917fdd4dbf80f57aa5115a1e07abb36e4de565879d4de5bd15b3803d666fe1d848639190a380613a9281615639565b9150506139cc565b50888a6001600160a01b03168c7f7c33f0d8ed76eeed3663e9bc2346d5d0d43847e247f615a54ac02b20741724968b8a604051613ae1929190918252602082015260400190565b60405180910390a45050505050505050505050565b60008781526009602052604090205460ff1615613b4a5760405162461bcd60e51b81526020600482015260126024820152711b5a5b9d0e88185b1c9958591e481d5cd95960721b6044820152606401610ca4565b60008681526008602090815260408083208a84526009909252909120805460ff19166001908117909155600254908201541415613bc15760405162461bcd60e51b815260206004820152601560248201527436b4b73a1d1034b9903730ba34bb329031b430b4b760591b6044820152606401610ca4565b8215613d615780546040516340c10f1960e01b8152336004820152602481018590526001600160a01b03909116906340c10f1990604401600060405180830381600087803b158015613c1257600080fd5b505af1158015613c26573d6000803e3d6000fd5b505082546005546040516340c10f1960e01b81526001600160a01b039182166004820152602481018a9052911692506340c10f199150604401600060405180830381600087803b158015613c7957600080fd5b505af1158015613c8d573d6000803e3d6000fd5b50506005548354604051633bab642f60e01b8152600094506001600160a01b039283169350633bab642f92613ccc92169089908c9089906004016152f3565b602060405180830381600087803b158015613ce657600080fd5b505af1158015613cfa573d6000803e3d6000fd5b505050506040513d601f19601f82011682018060405250810190613d1e9190614a62565b604080518b815282151560208201529192507f36c8142a7dcbbfde02c55b345b75761d6761eb241d6c504a0df77c0730b52fe9910160405180910390a150613dc7565b80546040516340c10f1960e01b81526001600160a01b03888116600483015260248201889052909116906340c10f1990604401600060405180830381600087803b158015613dae57600080fd5b505af1158015613dc2573d6000803e3d6000fd5b505050505b60408051898152602081018790526001600160a01b03881691810191909152606081018890527f5918a95fd00afb5898499bd5beade1619e98655d2b4ff6e0f6a4347f0a69c127906080015b60405180910390a15050505050505050565b6000868152600860205260409020600254600182015414613e885760405162461bcd60e51b815260206004820152601960248201527f636c61696d3a2077726f6e672074617267657420636861696e000000000000006044820152606401610ca4565b60008881526009602052604090205460ff1615613edd5760405162461bcd60e51b815260206004820152601360248201527218db185a5b4e88185b1c9958591e481d5cd959606a1b6044820152606401610ca4565b6000888152600960205260408120805460ff19166001179055600582018054879290613f0a9084906155f6565b90915550613f1a90508186614386565b80546001600160a01b031661406657821561402957604051339084156108fc029085906000818181858888f19350505050158015613f5c573d6000803e3d6000fd5b5060055460405163c435b14b60e01b81526000916001600160a01b03169063c435b14b908890613f949089908c908990600401615331565b6020604051808303818588803b158015613fad57600080fd5b505af1158015613fc1573d6000803e3d6000fd5b50505050506040513d601f19601f82011682018060405250810190613fe69190614a62565b604080518b815282151560208201529192507f36c8142a7dcbbfde02c55b345b75761d6761eb241d6c504a0df77c0730b52fe9910160405180910390a150614061565b6040516001600160a01b0387169086156108fc029087906000818181858888f1935050505015801561405f573d6000803e3d6000fd5b505b614186565b8215614170578054614082906001600160a01b031633856141d6565b600554815461409e916001600160a01b039182169116876141d6565b6005548154604051633bab642f60e01b81526000926001600160a01b0390811692633bab642f926140db929091169089908c9089906004016152f3565b602060405180830381600087803b1580156140f557600080fd5b505af1158015614109573d6000803e3d6000fd5b505050506040513d601f19601f8201168201806040525081019061412d9190614a62565b604080518b815282151560208201529192507f36c8142a7dcbbfde02c55b345b75761d6761eb241d6c504a0df77c0730b52fe9910160405180910390a150614186565b8054614186906001600160a01b031687876141d6565b60408051898152602081018790526001600160a01b03881691810191909152606081018890527fabe3bed2a8590dd123c1a018888bce6142d526741bed65dfe570fb223525c6a490608001613e13565b6040516001600160a01b038316602482015260448101829052611aaa90849063a9059cbb60e01b906064015b60408051601f198184030181529190526020810180516001600160e01b03166001600160e01b031990931692909217909152614460565b466002819055600061424b828261247a565b90506142618160006002548e8e8e8e8c8c613919565b600480546001600160a01b03808a166001600160a01b031992831617909255600580549289169290911691909117905584516142a49060069060208801906146aa565b50600780546001600160a01b0319166001600160a01b03851617905560038c90556142d0600033611177565b505050505050505050505050565b6040516001600160a01b0380851660248301528316604482015260648101829052610e339085906323b872dd60e01b90608401614202565b61432860015462010000900460ff1690565b156143455760405162461bcd60e51b8152600401610ca4906154f5565b6001805462ff00001916620100001790556040513381527f62e78cea01bee320cd4e420270b5ea74000d11b0c9f74754ebdbfc544b05a2589060200161390f565b6000670de0b6b3a7640000836006015484600501546143a591906155d7565b6143af91906155b7565b83549091506000906143c9906001600160a01b0316612f5a565b905060008383116143da57836143dc565b825b9050818111156127c7576143f082826155f6565b60075486546040516309e62b9160e01b81526001600160a01b0391821660048201526024810184905292935016906309e62b9190604401600060405180830381600087803b15801561444157600080fd5b505af1158015614455573d6000803e3d6000fd5b505050505050505050565b60006144b5826040518060400160405280602081526020017f5361666545524332303a206c6f772d6c6576656c2063616c6c206661696c6564815250856001600160a01b03166145329092919063ffffffff16565b805190915015611aaa57808060200190518101906144d39190614a62565b611aaa5760405162461bcd60e51b815260206004820152602a60248201527f5361666545524332303a204552433230206f7065726174696f6e20646964206e6044820152691bdd081cdd58d8d9595960b21b6064820152608401610ca4565b60606145418484600085614549565b949350505050565b6060824710156145aa5760405162461bcd60e51b815260206004820152602660248201527f416464726573733a20696e73756666696369656e742062616c616e636520666f6044820152651c8818d85b1b60d21b6064820152608401610ca4565b843b6145f85760405162461bcd60e51b815260206004820152601d60248201527f416464726573733a2063616c6c20746f206e6f6e2d636f6e74726163740000006044820152606401610ca4565b600080866001600160a01b0316858760405161461491906152d7565b60006040518083038185875af1925050503d8060008114614651576040519150601f19603f3d011682016040523d82523d6000602084013e614656565b606091505b5091509150614666828286614671565b979650505050505050565b606083156146805750816133c6565b8251156146905782518084602001fd5b8160405162461bcd60e51b8152600401610ca4919061540b565b8280548282559060005260206000209081019282156146e5579160200282015b828111156146e55782518255916020019190600101906146ca565b506146f19291506146f5565b5090565b5b808211156146f157600081556001016146f6565b8035610c70816156a0565b600082601f830112614725578081fd5b8135602061473a6147358361557c565b61554c565b82815281810190858301606080860288018501891015614758578687fd5b865b868110156147aa5781838b031215614770578788fd5b6147798261554c565b8335614784816156b8565b81528387013587820152604080850135908201528552938501939181019160010161475a565b509198975050505050505050565b600082601f8301126147c8578081fd5b813560206147d86147358361557c565b82815281810190858301838502870184018810156147f4578586fd5b855b85811015614812578135845292840192908401906001016147f6565b5090979650505050505050565b600082601f83011261482f578081fd5b81356001600160401b038111156148485761484861568a565b61485b601f8201601f191660200161554c565b81815284602083860101111561486f578283fd5b816020850160208301379081016020019190915292915050565b803560ff81168114610c7057600080fd5b6000602082840312156148ab578081fd5b81356133c6816156a0565b60008060008060008060008060006101208a8c0312156148d4578485fd5b89356148df816156a0565b985060208a01356148ef816156a0565b975060408a0135965060608a0135955060808a0135945060a08a0135935060c08a0135925060e08a01356001600160401b038082111561492d578384fd5b6149398d838e016147b8565b93506101008c013591508082111561494f578283fd5b5061495c8c828d01614715565b9150509295985092959850929598565b6000806040838503121561497e578182fd5b8235614989816156a0565b946020939093013593505050565b600080600080600080600060e0888a0312156149b1578283fd5b87356149bc816156a0565b96506020880135955060408801359450606088013593506080880135925060a08801356001600160401b03808211156149f3578384fd5b6149ff8b838c016147b8565b935060c08a0135915080821115614a14578283fd5b50614a218a828b01614715565b91505092959891949750929550565b600060208284031215614a41578081fd5b81356001600160401b03811115614a56578182fd5b614541848285016147b8565b600060208284031215614a73578081fd5b81516133c6816156b8565b600060208284031215614a8f578081fd5b5035919050565b60008060408385031215614aa8578182fd5b823591506020830135614aba816156a0565b809150509250929050565b600080600060608486031215614ad9578081fd5b833592506020840135614aeb816156a0565b929592945050506040919091013590565b60008060008060808587031215614b11578182fd5b843593506020850135614b23816156a0565b93969395505050506040820135916060013590565b600080600080600080600060e0888a031215614b52578081fd5b873596506020880135614b64816156a0565b955060408801359450606088013593506080880135614b82816156a0565b925060a0880135915060c08801356001600160401b03811115614ba3578182fd5b614a218a828b0161481f565b60008060008060008060008060006101208a8c031215614bcd578283fd5b8935985060208a0135614bdf816156a0565b975060408a0135965060608a01359550614bfb60808b0161470a565b945060a08a0135935060c08a01356001600160401b0380821115614c1d578485fd5b614c298d838e0161481f565b945060e08c013593506101008c0135915080821115614c46578283fd5b5061495c8c828d0161481f565b60008060008060008060c08789031215614c6b578384fd5b863595506020870135614c7d816156a0565b945060408701359350606087013592506080870135915060a08701356001600160401b03811115614cac578182fd5b614cb889828a0161481f565b9150509295509295509295565b600080600060608486031215614cd9578081fd5b8335925060208401356001600160401b0380821115614cf6578283fd5b614d02878388016147b8565b93506040860135915080821115614d17578283fd5b50614d2486828701614715565b9150509250925092565b60008060408385031215614d40578182fd5b50508035926020909101359150565b600080600080600060a08688031215614d66578283fd5b85359450602086013593506040860135614d7f816156a0565b94979396509394606081013594506080013592915050565b600080600080600080600080610100898b031215614db3578182fd5b88359750602089013596506040890135614dcc816156a0565b9550606089013594506080890135935060a0890135614dea816156a0565b925060c0890135915060e08901356001600160401b03811115614e0b578182fd5b614e178b828c0161481f565b9150509295985092959890939650565b60008060008060008060008060006101208a8c031215614e45578283fd5b8935985060208a0135975060408a0135614e5e816156a0565b965060608a0135955060808a0135945060a08a0135614e7c816156a0565b935060c08a0135925060e08a01356001600160401b03811115614e9d578283fd5b614ea98c828d0161481f565b925050614eb96101008b01614889565b90509295985092959850929598565b60008060008060008060c08789031215614ee0578384fd5b86359550602087013594506040870135614ef9816156a0565b93506060870135925060808701359150614f1560a08801614889565b90509295509295509295565b600080600060608486031215614f35578081fd5b83359250602084013591506040840135614f4e816156b8565b809150509250925092565b60008060008060008060c08789031215614f71578384fd5b863595506020870135945060408701359350606087013592506080870135614f98816156a0565b8092505060a087013590509295509295509295565b60008060008060008060008060006101208a8c031215614fcb578283fd5b8935985060208a0135975060408a0135965060608a0135955060808a0135614ff2816156a0565b945060a08a0135935060c08a0135615009816156a0565b925060e08a013591506101008a01356001600160401b0381111561502b578182fd5b61495c8c828d0161481f565b600080600080600060a0868803121561504e578283fd5b505083359560208501359550604085013594606081013594506080013592509050565b600060208284031215615082578081fd5b81356001600160e01b0319811681146133c6578182fd5b6000602082840312156150aa578081fd5b81356001600160401b038111156150bf578182fd5b6145418482850161481f565b6000602082840312156150dc578081fd5b5051919050565b600080604083850312156150f5578182fd5b825191506020830151614aba816156b8565b6000806000806000806000806000806000806101808d8f031215615129578586fd5b8c359b5060208d01359a5060408d0135995060608d0135985060808d0135975061515560a08e0161470a565b965061516360c08e0161470a565b95506001600160401b0360e08e0135111561517c578283fd5b61518c8e60e08f01358f016147b8565b94506001600160401b036101008e013511156151a6578283fd5b6151b78e6101008f01358f01614715565b93506151c66101208e0161470a565b92506151d56101408e0161470a565b91506151e46101608e0161470a565b90509295989b509295989b509295989b565b600060208284031215615207578081fd5b6133c682614889565b60008060408385031215615222578182fd5b61522b83614889565b91506020830135614aba816156b8565b6000815180845261525381602086016020860161560d565b601f01601f19169290920160200192915050565b60008a82528960208301528860408301528760608301526bffffffffffffffffffffffff19808860601b166080840152866094840152808660601b1660b4840152508360c883015282516152c28160e885016020870161560d565b9190910160e8019a9950505050505050505050565b600082516152e981846020870161560d565b9190910192915050565b6001600160a01b0385811682528481166020830152831660408201526080606082018190526000906153279083018461523b565b9695505050505050565b6001600160a01b0384811682528316602082015260606040820181905260009061535d9083018461523b565b95945050505050565b6020808252825182820181905260009190848201906040850190845b8181101561539e57835183529284019291840191600101615382565b50909695505050505050565b60006101208b83528a602084015289604084015260018060a01b03808a1660608501528860808501528760a08501528660c085015280861660e085015250806101008401526153fb8184018561523b565b9c9b505050505050505050505050565b6000602082526133c6602083018461523b565b60208082526028908201527f6d696e74576974684f6c6441676772656761746f723a20696e76616c6964416760408201526733b932b3b0ba37b960c11b606082015260800190565b6020808252602b908201527f6d696e74576974684f6c6441676772656761746f723a20616d6f756e74206e6f60408201526a1d0818dbdb999a5c9b595960aa1b606082015260800190565b60208082526024908201527f6d696e74576974684f6c6441676772656761746f723a206e6f7420636f6e66696040820152631c9b595960e21b606082015260800190565b60208082526010908201526f14185d5cd8589b194e881c185d5cd95960821b604082015260600190565b6020808252601390820152726f6e6c7941646d696e3a2062616420726f6c6560681b604082015260600190565b604051601f8201601f191681016001600160401b03811182821017156155745761557461568a565b604052919050565b60006001600160401b038211156155955761559561568a565b5060209081020190565b600082198211156155b2576155b2615674565b500190565b6000826155d257634e487b7160e01b81526012600452602481fd5b500490565b60008160001904831182151516156155f1576155f1615674565b500290565b60008282101561560857615608615674565b500390565b60005b83811015615628578181015183820152602001615610565b83811115610e335750506000910152565b600060001982141561564d5761564d615674565b5060010190565b600060ff821660ff81141561566b5761566b615674565b60010192915050565b634e487b7160e01b600052601160045260246000fd5b634e487b7160e01b600052604160045260246000fd5b6001600160a01b03811681146156b557600080fd5b50565b80151581146156b557600080fdfea2646970667358221220e8a05396386cd4187cf5662084cb8a7f9a460ebf4163e38c3cd0163f43eb872564736f6c63430008020033",
  "immutableReferences": {},
  "source": "// SPDX-License-Identifier: MIT\npragma solidity ^0.8.2;\n\nimport \"@openzeppelin/contracts/token/ERC20/ERC20.sol\";\nimport \"@openzeppelin/contracts/token/ERC20/IERC20.sol\";\nimport \"@openzeppelin/contracts/token/ERC20/utils/SafeERC20.sol\";\nimport \"@openzeppelin/contracts/access/AccessControl.sol\";\nimport \"../interfaces/IDebridge.sol\";\nimport \"../interfaces/IFeeProxy.sol\";\nimport \"../interfaces/IWETH.sol\";\nimport \"../interfaces/IFullDebridge.sol\";\nimport \"../interfaces/IDefiController.sol\";\nimport \"../interfaces/IFullAggregator.sol\";\nimport \"../periphery/WrappedAsset.sol\";\nimport \"./Debridge.sol\";\n\ncontract FullDebridge is Debridge, IFullDebridge {\n    using SafeERC20 for IERC20;\n\n    IFeeProxy public feeProxy; // proxy to convert the collected fees into Link's\n    IWETH public weth; // wrapped native token contract\n\n    /// @dev Constructor that initializes the most important configurations.\n    /// @param _minAmount Minimal amount of current chain token to be wrapped.\n    /// @param _maxAmount Maximum amount of current chain token to be wrapped.\n    /// @param _minReserves Minimal reserve ratio.\n    /// @param _aggregator Submission aggregator address.\n    /// @param _supportedChainIds Chain ids where native token of the current chain can be wrapped.\n    function initialize(\n        uint256 _excessConfirmations,\n        uint256 _minAmount,\n        uint256 _maxAmount,\n        uint256 _minReserves,\n        uint256 _amountThreshold,\n        address _aggregator,\n        address _callProxy,\n        uint256[] memory _supportedChainIds,\n        ChainSupportInfo[] memory _chainSupportInfo,\n        IWETH _weth,\n        IFeeProxy _feeProxy,\n        IDefiController _defiController\n    ) public payable initializer {\n        super._initialize(\n            _excessConfirmations,\n            _minAmount,\n            _maxAmount,\n            _minReserves,\n            _amountThreshold,\n            _aggregator,\n            _callProxy,\n            _supportedChainIds,\n            _chainSupportInfo,\n            _defiController\n        );\n        weth = _weth;\n        feeProxy = _feeProxy;\n    }\n\n    /// @dev Mints wrapped asset on the current chain.\n    /// @param _debridgeId Asset identifier.\n    /// @param _receiver Receiver address.\n    /// @param _amount Amount of the transfered asset (note: without applyed fee).\n    /// @param _nonce Submission id.\n    /// @param _fallbackAddress Receiver of the tokens if the call fails.\n    /// @param _executionFee Fee paid to the transaction executor.\n    /// @param _data Chain id of the target chain.\n    function autoMint(\n        bytes32 _debridgeId,\n        uint256 _chainIdFrom,\n        address _receiver,\n        uint256 _amount,\n        uint256 _nonce,\n        address _fallbackAddress,\n        uint256 _executionFee,\n        bytes memory _data\n    ) external whenNotPaused() {\n        bytes32 submissionId =\n            getAutoSubmisionId(\n                _debridgeId,\n                _chainIdFrom,\n                chainId,\n                _amount,\n                _receiver,\n                _nonce,\n                _fallbackAddress,\n                _executionFee,\n                _data\n            );\n        (uint256 confirmations, bool confirmed) =\n            IFullAggregator(aggregator).getSubmissionConfirmations(\n                submissionId\n            );\n        require(confirmed, \"autoMint: not confirmed\");\n        if (_amount >= getAmountThreshold[_debridgeId]) {\n            require(\n                confirmations >= excessConfirmations,\n                \"autoMint: amount not confirmed\"\n            );\n        }\n        _mint(\n            submissionId,\n            _debridgeId,\n            _receiver,\n            _amount,\n            _fallbackAddress,\n            _executionFee,\n            _data\n        );\n    }\n\n    /// @dev Mints wrapped asset on the current chain.\n    /// @param _debridgeId Asset identifier.\n    /// @param _receiver Receiver address.\n    /// @param _amount Amount of the transfered asset (note: without applyed fee).\n    /// @param _nonce Submission id.\n    /// @param _fallbackAddress Receiver of the tokens if the call fails.\n    /// @param _executionFee Fee paid to the transaction executor.\n    /// @param _data Chain id of the target chain.\n    function autoMintWithOldAggregator(\n        bytes32 _debridgeId,\n        uint256 _chainIdFrom,\n        address _receiver,\n        uint256 _amount,\n        uint256 _nonce,\n        address _fallbackAddress,\n        uint256 _executionFee,\n        bytes memory _data,\n        uint8 _aggregatorVersion\n    ) external whenNotPaused() {\n        bytes32 submissionId =\n            getAutoSubmisionId(\n                _debridgeId,\n                _chainIdFrom,\n                chainId,\n                _amount,\n                _receiver,\n                _nonce,\n                _fallbackAddress,\n                _executionFee,\n                _data\n            );\n        AggregatorInfo memory aggregatorInfo =\n            getOldAggregator[_aggregatorVersion];\n        require(\n            aggregatorInfo.isValid,\n            \"mintWithOldAggregator: invalidAggregator\"\n        );\n        (uint256 confirmations, bool confirmed) =\n            IFullAggregator(aggregatorInfo.aggregator)\n                .getSubmissionConfirmations(submissionId);\n        require(confirmed, \"mintWithOldAggregator: not confirmed\");\n        if (_amount >= getAmountThreshold[_debridgeId]) {\n            require(\n                confirmations >= excessConfirmations,\n                \"mintWithOldAggregator: amount not confirmed\"\n            );\n        }\n        _mint(\n            submissionId,\n            _debridgeId,\n            _receiver,\n            _amount,\n            _fallbackAddress,\n            _executionFee,\n            _data\n        );\n    }\n\n    /// @dev Mints wrapped asset on the current chain.\n    /// @param _debridgeId Asset identifier.\n    /// @param _receiver Receiver address.\n    /// @param _amount Amount of the transfered asset (note: without applyed fee).\n    /// @param _nonce Submission id.\n    function mint(\n        bytes32 _debridgeId,\n        uint256 _chainIdFrom,\n        address _receiver,\n        uint256 _amount,\n        uint256 _nonce\n    ) external override whenNotPaused() {\n        bytes32 submissionId =\n            getSubmisionId(\n                _debridgeId,\n                _chainIdFrom,\n                chainId,\n                _amount,\n                _receiver,\n                _nonce\n            );\n        (uint256 confirmations, bool confirmed) =\n            IFullAggregator(aggregator).getSubmissionConfirmations(\n                submissionId\n            );\n        require(confirmed, \"mint: not confirmed\");\n        if (_amount >= getAmountThreshold[_debridgeId]) {\n            require(\n                confirmations >= excessConfirmations,\n                \"mint: amount not confirmed\"\n            );\n        }\n        _mint(\n            submissionId,\n            _debridgeId,\n            _receiver,\n            _amount,\n            address(0),\n            0,\n            \"0x\"\n        );\n    }\n\n    /// @dev Mints wrapped asset on the current chain.\n    /// @param _debridgeId Asset identifier.\n    /// @param _receiver Receiver address.\n    /// @param _amount Amount of the transfered asset (note: without applyed fee).\n    /// @param _nonce Submission id.\n    /// @param _aggregatorVersion Aggregator version.\n    function mintWithOldAggregator(\n        bytes32 _debridgeId,\n        uint256 _chainIdFrom,\n        address _receiver,\n        uint256 _amount,\n        uint256 _nonce,\n        uint8 _aggregatorVersion\n    ) external override {\n        bytes32 submissionId =\n            getSubmisionId(\n                _debridgeId,\n                _chainIdFrom,\n                chainId,\n                _amount,\n                _receiver,\n                _nonce\n            );\n        AggregatorInfo memory aggregatorInfo =\n            getOldAggregator[_aggregatorVersion];\n        require(\n            aggregatorInfo.isValid,\n            \"mintWithOldAggregator: invalidAggregator\"\n        );\n        (uint256 confirmations, bool confirmed) =\n            IFullAggregator(aggregatorInfo.aggregator)\n                .getSubmissionConfirmations(submissionId);\n        require(confirmed, \"mintWithOldAggregator: not confirmed\");\n        if (_amount >= getAmountThreshold[_debridgeId]) {\n            require(\n                confirmations >= excessConfirmations,\n                \"mintWithOldAggregator: amount not confirmed\"\n            );\n        }\n        _mint(\n            submissionId,\n            _debridgeId,\n            _receiver,\n            _amount,\n            address(0),\n            0,\n            \"0x\"\n        );\n    }\n\n    /// @dev Unlock the asset on the current chain and transfer to receiver.\n    /// @param _debridgeId Asset identifier.\n    /// @param _receiver Receiver address.\n    /// @param _amount Amount of the transfered asset (note: the fee can be applyed).\n    /// @param _nonce Submission id.\n    function autoClaim(\n        bytes32 _debridgeId,\n        uint256 _chainIdFrom,\n        address _receiver,\n        uint256 _amount,\n        uint256 _nonce,\n        address _fallbackAddress,\n        uint256 _executionFee,\n        bytes memory _data\n    ) external whenNotPaused() {\n        bytes32 submissionId =\n            getAutoSubmisionId(\n                _debridgeId,\n                _chainIdFrom,\n                chainId,\n                _amount,\n                _receiver,\n                _nonce,\n                _fallbackAddress,\n                _executionFee,\n                _data\n            );\n        (uint256 confirmations, bool confirmed) =\n            IFullAggregator(aggregator).getSubmissionConfirmations(\n                submissionId\n            );\n        require(confirmed, \"autoClaim: not confirmed\");\n        if (_amount >= getAmountThreshold[_debridgeId]) {\n            require(\n                confirmations >= excessConfirmations,\n                \"autoClaim: amount not confirmed\"\n            );\n        }\n        _claim(\n            submissionId,\n            _debridgeId,\n            _receiver,\n            _amount,\n            _fallbackAddress,\n            _executionFee,\n            _data\n        );\n    }\n\n    /// @dev Unlock the asset on the current chain and transfer to receiver.\n    /// @param _debridgeId Asset identifier.\n    /// @param _receiver Receiver address.\n    /// @param _amount Amount of the transfered asset (note: the fee can be applyed).\n    /// @param _nonce Submission id.\n    /// @param _fallbackAddress Receiver of the tokens if the call fails.\n    /// @param _executionFee Fee paid to the transaction executor.\n    /// @param _data Chain id of the target chain.\n    function autoClaimWithOldAggregator(\n        bytes32 _debridgeId,\n        uint256 _chainIdFrom,\n        address _receiver,\n        uint256 _amount,\n        uint256 _nonce,\n        address _fallbackAddress,\n        uint256 _executionFee,\n        bytes memory _data,\n        uint8 _aggregatorVersion\n    ) external whenNotPaused() {\n        bytes32 submissionId =\n            getAutoSubmisionId(\n                _debridgeId,\n                _chainIdFrom,\n                chainId,\n                _amount,\n                _receiver,\n                _nonce,\n                _fallbackAddress,\n                _executionFee,\n                _data\n            );\n        AggregatorInfo memory aggregatorInfo =\n            getOldAggregator[_aggregatorVersion];\n        (uint256 confirmations, bool confirmed) =\n            IFullAggregator(aggregatorInfo.aggregator)\n                .getSubmissionConfirmations(submissionId);\n        require(confirmed, \"autoClaimWithOldAggregator: not confirmed\");\n        if (_amount >= getAmountThreshold[_debridgeId]) {\n            require(\n                confirmations >= excessConfirmations,\n                \"autoClaimWithOldAggregator: amount not confirmed\"\n            );\n        }\n        _claim(\n            submissionId,\n            _debridgeId,\n            _receiver,\n            _amount,\n            _fallbackAddress,\n            _executionFee,\n            _data\n        );\n    }\n\n    /// @dev Unlock the asset on the current chain and transfer to receiver.\n    /// @param _debridgeId Asset identifier.\n    /// @param _receiver Receiver address.\n    /// @param _amount Amount of the transfered asset (note: the fee can be applyed).\n    /// @param _nonce Submission id.\n\n    function claim(\n        bytes32 _debridgeId,\n        uint256 _chainIdFrom,\n        address _receiver,\n        uint256 _amount,\n        uint256 _nonce\n    ) external override whenNotPaused() {\n        bytes32 submissionId =\n            getSubmisionId(\n                _debridgeId,\n                _chainIdFrom,\n                chainId,\n                _amount,\n                _receiver,\n                _nonce\n            );\n        (uint256 confirmations, bool confirmed) =\n            IFullAggregator(aggregator).getSubmissionConfirmations(\n                submissionId\n            );\n        if (_amount >= getAmountThreshold[_debridgeId]) {\n            require(\n                confirmations >= excessConfirmations,\n                \"claim: amount not confirmed\"\n            );\n        }\n        require(confirmed, \"claim: not confirmed\");\n        _claim(\n            submissionId,\n            _debridgeId,\n            _receiver,\n            _amount,\n            address(0),\n            0,\n            \"0x\"\n        );\n    }\n\n    /// @dev Unlock the asset on the current chain and transfer to receiver.\n    /// @param _debridgeId Asset identifier.\n    /// @param _receiver Receiver address.\n    /// @param _amount Amount of the transfered asset (note: the fee can be applyed).\n    /// @param _nonce Submission id.\n    /// @param _aggregatorVersion Aggregator version.\n    function claimWithOldAggregator(\n        bytes32 _debridgeId,\n        uint256 _chainIdFrom,\n        address _receiver,\n        uint256 _amount,\n        uint256 _nonce,\n        uint8 _aggregatorVersion\n    ) external override {\n        bytes32 submissionId =\n            getSubmisionId(\n                _debridgeId,\n                _chainIdFrom,\n                chainId,\n                _amount,\n                _receiver,\n                _nonce\n            );\n        AggregatorInfo memory aggregatorInfo =\n            getOldAggregator[_aggregatorVersion];\n        require(\n            aggregatorInfo.isValid,\n            \"mintWithOldAggregator: invalidAggregator\"\n        );\n        (uint256 confirmations, bool confirmed) =\n            IFullAggregator(aggregatorInfo.aggregator)\n                .getSubmissionConfirmations(submissionId);\n        require(confirmed, \"claimWithOldAggregator: not confirmed\");\n        if (_amount >= getAmountThreshold[_debridgeId]) {\n            require(\n                confirmations >= excessConfirmations,\n                \"claimWithOldAggregator: amount not confirmed\"\n            );\n        }\n        _claim(\n            submissionId,\n            _debridgeId,\n            _receiver,\n            _amount,\n            address(0),\n            0,\n            \"0x\"\n        );\n    }\n\n    /* ADMIN */\n\n    /// @dev Fund aggregator.\n    /// @param _debridgeId Asset identifier.\n    /// @param _amount Submission aggregator address.\n    function fundAggregator(bytes32 _debridgeId, uint256 _amount)\n        external\n        onlyAdmin()\n    {\n        DebridgeInfo storage debridge = getDebridge[_debridgeId];\n        require(\n            debridge.collectedFees >= _amount,\n            \"fundAggregator: not enough fee\"\n        );\n        debridge.collectedFees -= _amount;\n        if (debridge.tokenAddress == address(0)) {\n            weth.deposit{value: _amount}();\n            weth.transfer(address(feeProxy), _amount);\n            feeProxy.swapToLink(address(weth), _amount, aggregator);\n        } else {\n            IERC20(debridge.tokenAddress).safeTransfer(\n                address(feeProxy),\n                _amount\n            );\n            feeProxy.swapToLink(debridge.tokenAddress, _amount, aggregator);\n        }\n    }\n\n    /// @dev Set fee converter proxy.\n    /// @param _feeProxy Fee proxy address.\n    function setFeeProxy(IFeeProxy _feeProxy) external onlyAdmin() {\n        feeProxy = _feeProxy;\n    }\n\n    /// @dev Set wrapped native asset address.\n    /// @param _weth Weth address.\n    function setWeth(IWETH _weth) external onlyAdmin() {\n        weth = _weth;\n    }\n}\n",
  "sourcePath": "/Users/kstasi/Documents/side/debridge-contracts/contracts/transfers/FullDebridge.sol",
  "compiler": {
    "name": "solc",
    "version": "0.8.2+commit.661d1103.Emscripten.clang"
  },
  "schemaVersion": "3.3.4",
  "updatedAt": "2021-06-14T05:33:42.463Z",
  "networkType": "ethereum",
  "devdoc": {
    "kind": "dev",
    "methods": {
      "addExternalAsset(address,address,uint256,uint256,uint256,uint256,uint256,uint256[],(bool,uint256,uint256)[])": {
        "details": "Add support for the asset from the other chain, deploy new wrapped asset.",
        "params": {
          "_chainId": "Current chain id.",
          "_maxAmount": "Maximum amount of current chain token to be wrapped.",
          "_minAmount": "Minimal amount of the asset to be wrapped.",
          "_minReserves": "Minimal reserve ration.",
          "_supportedChainIds": "Chain ids where the token of the current chain can be transfered.",
          "_tokenAddress": "Address of the asset on the other chain.",
          "_wrappedAssetAddress": "Wrapped asset address."
        }
      },
      "addNativeAsset(address,uint256,uint256,uint256,uint256,uint256[],(bool,uint256,uint256)[])": {
        "details": "Add support for the asset on the current chain.",
        "params": {
          "_maxAmount": "Maximum amount of current chain token to be wrapped.",
          "_minAmount": "Minimal amount of current chain token to be wrapped.",
          "_minReserves": "Minimal reserve ration.",
          "_supportedChainIds": "Chain ids where native token of the current chain can be wrapped.",
          "_tokenAddress": "Address of the asset on the current chain."
        }
      },
      "autoBurn(bytes32,address,uint256,uint256,address,uint256,bytes,uint256,bytes)": {
        "details": "Burns wrapped asset and allowss to claim it on the other chain.",
        "params": {
          "_amount": "Amount of the transfered asset (note: the fee can be applyed).",
          "_chainIdTo": "Chain id of the target chain.",
          "_data": "Chain id of the target chain.",
          "_debridgeId": "Asset identifier.",
          "_executionFee": "Fee paid to the transaction executor.",
          "_fallbackAddress": "Receiver of the tokens if the call fails.",
          "_receiver": "Receiver address."
        }
      },
      "autoClaim(bytes32,uint256,address,uint256,uint256,address,uint256,bytes)": {
        "details": "Unlock the asset on the current chain and transfer to receiver.",
        "params": {
          "_amount": "Amount of the transfered asset (note: the fee can be applyed).",
          "_debridgeId": "Asset identifier.",
          "_nonce": "Submission id.",
          "_receiver": "Receiver address."
        }
      },
      "autoClaimWithOldAggregator(bytes32,uint256,address,uint256,uint256,address,uint256,bytes,uint8)": {
        "details": "Unlock the asset on the current chain and transfer to receiver.",
        "params": {
          "_amount": "Amount of the transfered asset (note: the fee can be applyed).",
          "_data": "Chain id of the target chain.",
          "_debridgeId": "Asset identifier.",
          "_executionFee": "Fee paid to the transaction executor.",
          "_fallbackAddress": "Receiver of the tokens if the call fails.",
          "_nonce": "Submission id.",
          "_receiver": "Receiver address."
        }
      },
      "autoMint(bytes32,uint256,address,uint256,uint256,address,uint256,bytes)": {
        "details": "Mints wrapped asset on the current chain.",
        "params": {
          "_amount": "Amount of the transfered asset (note: without applyed fee).",
          "_data": "Chain id of the target chain.",
          "_debridgeId": "Asset identifier.",
          "_executionFee": "Fee paid to the transaction executor.",
          "_fallbackAddress": "Receiver of the tokens if the call fails.",
          "_nonce": "Submission id.",
          "_receiver": "Receiver address."
        }
      },
      "autoMintWithOldAggregator(bytes32,uint256,address,uint256,uint256,address,uint256,bytes,uint8)": {
        "details": "Mints wrapped asset on the current chain.",
        "params": {
          "_amount": "Amount of the transfered asset (note: without applyed fee).",
          "_data": "Chain id of the target chain.",
          "_debridgeId": "Asset identifier.",
          "_executionFee": "Fee paid to the transaction executor.",
          "_fallbackAddress": "Receiver of the tokens if the call fails.",
          "_nonce": "Submission id.",
          "_receiver": "Receiver address."
        }
      },
      "autoSend(bytes32,address,uint256,uint256,address,uint256,bytes)": {
        "details": "Locks asset on the chain and enables minting on the other chain.",
        "params": {
          "_amount": "Amount to be transfered (note: the fee can be applyed).",
          "_chainIdTo": "Chain id of the target chain.",
          "_data": "Chain id of the target chain.",
          "_debridgeId": "Asset identifier.",
          "_executionFee": "Fee paid to the transaction executor.",
          "_fallbackAddress": "Receiver of the tokens if the call fails.",
          "_receiver": "Receiver address."
        }
      },
      "burn(bytes32,address,uint256,uint256,uint256,bytes)": {
        "details": "Burns wrapped asset and allowss to claim it on the other chain.",
        "params": {
          "_amount": "Amount of the transfered asset (note: the fee can be applyed).",
          "_chainIdTo": "Chain id of the target chain.",
          "_debridgeId": "Asset identifier.",
          "_receiver": "Receiver address."
        }
      },
      "claim(bytes32,uint256,address,uint256,uint256)": {
        "details": "Unlock the asset on the current chain and transfer to receiver.",
        "params": {
          "_amount": "Amount of the transfered asset (note: the fee can be applyed).",
          "_debridgeId": "Asset identifier.",
          "_nonce": "Submission id.",
          "_receiver": "Receiver address."
        }
      },
      "claimWithOldAggregator(bytes32,uint256,address,uint256,uint256,uint8)": {
        "details": "Unlock the asset on the current chain and transfer to receiver.",
        "params": {
          "_aggregatorVersion": "Aggregator version.",
          "_amount": "Amount of the transfered asset (note: the fee can be applyed).",
          "_debridgeId": "Asset identifier.",
          "_nonce": "Submission id.",
          "_receiver": "Receiver address."
        }
      },
      "fundAggregator(bytes32,uint256)": {
        "details": "Fund aggregator.",
        "params": {
          "_amount": "Submission aggregator address.",
          "_debridgeId": "Asset identifier."
        }
      },
      "getAutoSubmisionId(bytes32,uint256,uint256,uint256,address,uint256,address,uint256,bytes)": {
        "details": "Calculate submission id for auto claimable transfer.",
        "params": {
          "_amount": "Amount of the transfered asset (note: the fee can be applyed).",
          "_chainIdFrom": "Chain identifier of the chain where tokens are sent from.",
          "_chainIdTo": "Chain identifier of the chain where tokens are sent to.",
          "_data": "Chain id of the target chain.",
          "_debridgeId": "Asset identifier.",
          "_executionFee": "Fee paid to the transaction executor.",
          "_fallbackAddress": "Receiver of the tokens if the call fails.",
          "_nonce": "Submission id.",
          "_receiver": "Receiver address."
        }
      },
      "getBalance(address)": {
        "details": "Get the balance.",
        "params": {
          "_tokenAddress": "Address of the asset on the other chain."
        }
      },
      "getChainIdSupport(bytes32,uint256)": {
        "details": "Check if transfer to chain is supported.",
        "params": {
          "_chainId": "Chain identifier.",
          "_debridgeId": "Asset identifier."
        }
      },
      "getDebridgeId(uint256,address)": {
        "details": "Calculates asset identifier.",
        "params": {
          "_chainId": "Current chain id.",
          "_tokenAddress": "Address of the asset on the other chain."
        }
      },
      "getRoleAdmin(bytes32)": {
        "details": "Returns the admin role that controls `role`. See {grantRole} and {revokeRole}. To change a role's admin, use {_setRoleAdmin}."
      },
      "getSubmisionId(bytes32,uint256,uint256,uint256,address,uint256)": {
        "details": "Calculate submission id.",
        "params": {
          "_amount": "Amount of the transfered asset (note: the fee can be applyed).",
          "_chainIdFrom": "Chain identifier of the chain where tokens are sent from.",
          "_chainIdTo": "Chain identifier of the chain where tokens are sent to.",
          "_debridgeId": "Asset identifier.",
          "_nonce": "Submission id.",
          "_receiver": "Receiver address."
        }
      },
      "grantRole(bytes32,address)": {
        "details": "Grants `role` to `account`. If `account` had not been already granted `role`, emits a {RoleGranted} event. Requirements: - the caller must have ``role``'s admin role."
      },
      "hasRole(bytes32,address)": {
        "details": "Returns `true` if `account` has been granted `role`."
      },
      "initialize(uint256,uint256,uint256,uint256,uint256,address,address,uint256[],(bool,uint256,uint256)[],address,address,address)": {
        "details": "Constructor that initializes the most important configurations.",
        "params": {
          "_aggregator": "Submission aggregator address.",
          "_maxAmount": "Maximum amount of current chain token to be wrapped.",
          "_minAmount": "Minimal amount of current chain token to be wrapped.",
          "_minReserves": "Minimal reserve ratio.",
          "_supportedChainIds": "Chain ids where native token of the current chain can be wrapped."
        }
      },
      "manageOldAggregator(uint8,bool)": {
        "details": "Set aggregator address.",
        "params": {
          "_aggregatorVersion": "Submission aggregator address.",
          "_isValid": "Is valid."
        }
      },
      "mint(bytes32,uint256,address,uint256,uint256)": {
        "details": "Mints wrapped asset on the current chain.",
        "params": {
          "_amount": "Amount of the transfered asset (note: without applyed fee).",
          "_debridgeId": "Asset identifier.",
          "_nonce": "Submission id.",
          "_receiver": "Receiver address."
        }
      },
      "mintWithOldAggregator(bytes32,uint256,address,uint256,uint256,uint8)": {
        "details": "Mints wrapped asset on the current chain.",
        "params": {
          "_aggregatorVersion": "Aggregator version.",
          "_amount": "Amount of the transfered asset (note: without applyed fee).",
          "_debridgeId": "Asset identifier.",
          "_nonce": "Submission id.",
          "_receiver": "Receiver address."
        }
      },
      "pause()": {
        "details": "Stop all transfers."
      },
      "paused()": {
        "details": "Returns true if the contract is paused, and false otherwise."
      },
      "renounceRole(bytes32,address)": {
        "details": "Revokes `role` from the calling account. Roles are often managed via {grantRole} and {revokeRole}: this function's purpose is to provide a mechanism for accounts to lose their privileges if they are compromised (such as when a trusted device is misplaced). If the calling account had been granted `role`, emits a {RoleRevoked} event. Requirements: - the caller must be `account`."
      },
      "requestReserves(address,uint256)": {
        "details": "Request the assets to be used in defi protocol.",
        "params": {
          "_amount": "Amount of tokens to request.",
          "_tokenAddress": "Asset address."
        }
      },
      "returnReserves(address,uint256)": {
        "details": "Return the assets that were used in defi protocol.",
        "params": {
          "_amount": "Amount of tokens to claim.",
          "_tokenAddress": "Asset address."
        }
      },
      "revokeRole(bytes32,address)": {
        "details": "Revokes `role` from `account`. If `account` had been granted `role`, emits a {RoleRevoked} event. Requirements: - the caller must have ``role``'s admin role."
      },
      "send(bytes32,address,uint256,uint256)": {
        "details": "Locks asset on the chain and enables minting on the other chain.",
        "params": {
          "_amount": "Amount to be transfered (note: the fee can be applyed).",
          "_chainIdTo": "Chain id of the target chain.",
          "_debridgeId": "Asset identifier.",
          "_receiver": "Receiver address."
        }
      },
      "setAggregator(address)": {
        "details": "Set aggregator address.",
        "params": {
          "_aggregator": "Submission aggregator address."
        }
      },
      "setCallProxy(address)": {
        "details": "Set proxy address.",
        "params": {
          "_callProxy": "Address of the proxy that executes external calls."
        }
      },
      "setChainIdSupport(bytes32,uint256,bool)": {
        "details": "Set support for the chains where the token can be transfered.",
        "params": {
          "_chainId": "Current chain id.",
          "_debridgeId": "Asset identifier.",
          "_isSupported": "Whether the token is transferable to the other chain."
        }
      },
      "setChainIds(uint256[])": {
        "details": "Set support for the chains.",
        "params": {
          "_chainIds": "All supported chain ids."
        }
      },
      "setDefiController(address)": {
        "details": "Set defi controoler.",
        "params": {
          "_defiController": "Defi controller address address."
        }
      },
      "setFeeProxy(address)": {
        "details": "Set fee converter proxy.",
        "params": {
          "_feeProxy": "Fee proxy address."
        }
      },
      "setWeth(address)": {
        "details": "Set wrapped native asset address.",
        "params": {
          "_weth": "Weth address."
        }
      },
      "splitSignature(bytes)": {
        "details": "Splits signature bytes to r,s,v components.",
        "params": {
          "_signature": "Signature bytes in format r+s+v."
        }
      },
      "supportsInterface(bytes4)": {
        "details": "See {IERC165-supportsInterface}."
      },
      "unpause()": {
        "details": "Allow transfers."
      },
      "updateAsset(bytes32,uint256,uint256,uint256,uint256)": {
        "details": "Add support for the asset.",
        "params": {
          "_debridgeId": "Asset identifier.",
          "_maxAmount": "Maximum amount of current chain token to be wrapped.",
          "_minAmount": "Minimal amount of the asset to be wrapped.",
          "_minReserves": "Minimal reserve ration."
        }
      },
      "updateAsset(bytes32,uint256[],(bool,uint256,uint256)[])": {
        "details": "Update asset's fees.",
        "params": {
          "_chainSupportInfo": "Cahin support info.",
          "_debridgeId": "Asset identifier.",
          "_supportedChainIds": "Chain identifiers."
        }
      },
      "withdrawFee(bytes32,address,uint256)": {
        "details": "Withdraw fees.",
        "params": {
          "_amount": "Amount of tokens to withdraw.",
          "_debridgeId": "Asset identifier.",
          "_receiver": "Receiver address."
        }
      }
    },
    "version": 1
  },
  "userdoc": {
    "kind": "user",
    "methods": {},
    "version": 1
  }
}