{
  "contractName": "FullAggregator",
  "abi": [
    {
      "inputs": [
        {
          "internalType": "uint256",
          "name": "_minConfirmations",
          "type": "uint256"
        },
        {
          "internalType": "uint256",
          "name": "_corePayment",
          "type": "uint256"
        },
        {
          "internalType": "uint256",
          "name": "_bonusPayment",
          "type": "uint256"
        },
        {
          "internalType": "contract IERC20",
          "name": "_coreToken",
          "type": "address"
        },
        {
          "internalType": "contract IERC20",
          "name": "_bonusToken",
          "type": "address"
        },
        {
          "internalType": "uint256",
          "name": "_confirmationThreshold",
          "type": "uint256"
        },
        {
          "internalType": "uint256",
          "name": "_excessConfirmations",
          "type": "uint256"
        }
      ],
      "stateMutability": "nonpayable",
      "type": "constructor"
    },
    {
      "anonymous": false,
      "inputs": [
        {
          "indexed": false,
          "internalType": "bytes32",
          "name": "submissionId",
          "type": "bytes32"
        },
        {
          "indexed": false,
          "internalType": "address",
          "name": "operator",
          "type": "address"
        }
      ],
      "name": "Confirmed",
      "type": "event"
    },
    {
      "anonymous": false,
      "inputs": [
        {
          "indexed": true,
          "internalType": "bytes32",
          "name": "role",
          "type": "bytes32"
        },
        {
          "indexed": true,
          "internalType": "bytes32",
          "name": "previousAdminRole",
          "type": "bytes32"
        },
        {
          "indexed": true,
          "internalType": "bytes32",
          "name": "newAdminRole",
          "type": "bytes32"
        }
      ],
      "name": "RoleAdminChanged",
      "type": "event"
    },
    {
      "anonymous": false,
      "inputs": [
        {
          "indexed": true,
          "internalType": "bytes32",
          "name": "role",
          "type": "bytes32"
        },
        {
          "indexed": true,
          "internalType": "address",
          "name": "account",
          "type": "address"
        },
        {
          "indexed": true,
          "internalType": "address",
          "name": "sender",
          "type": "address"
        }
      ],
      "name": "RoleGranted",
      "type": "event"
    },
    {
      "anonymous": false,
      "inputs": [
        {
          "indexed": true,
          "internalType": "bytes32",
          "name": "role",
          "type": "bytes32"
        },
        {
          "indexed": true,
          "internalType": "address",
          "name": "account",
          "type": "address"
        },
        {
          "indexed": true,
          "internalType": "address",
          "name": "sender",
          "type": "address"
        }
      ],
      "name": "RoleRevoked",
      "type": "event"
    },
    {
      "anonymous": false,
      "inputs": [
        {
          "indexed": false,
          "internalType": "bytes32",
          "name": "submissionId",
          "type": "bytes32"
        }
      ],
      "name": "SubmissionApproved",
      "type": "event"
    },
    {
      "inputs": [],
      "name": "DEFAULT_ADMIN_ROLE",
      "outputs": [
        {
          "internalType": "bytes32",
          "name": "",
          "type": "bytes32"
        }
      ],
      "stateMutability": "view",
      "type": "function"
    },
    {
      "inputs": [],
      "name": "ORACLE_ROLE",
      "outputs": [
        {
          "internalType": "bytes32",
          "name": "",
          "type": "bytes32"
        }
      ],
      "stateMutability": "view",
      "type": "function"
    },
    {
      "inputs": [
        {
          "internalType": "address",
          "name": "_oracle",
          "type": "address"
        },
        {
          "internalType": "address",
          "name": "_admin",
          "type": "address"
        }
      ],
      "name": "addOracle",
      "outputs": [],
      "stateMutability": "nonpayable",
      "type": "function"
    },
    {
      "inputs": [],
      "name": "bonusPayment",
      "outputs": [
        {
          "internalType": "uint256",
          "name": "",
          "type": "uint256"
        }
      ],
      "stateMutability": "view",
      "type": "function"
    },
    {
      "inputs": [],
      "name": "bonusToken",
      "outputs": [
        {
          "internalType": "contract IERC20",
          "name": "",
          "type": "address"
        }
      ],
      "stateMutability": "view",
      "type": "function"
    },
    {
      "inputs": [],
      "name": "confirmationThreshold",
      "outputs": [
        {
          "internalType": "uint256",
          "name": "",
          "type": "uint256"
        }
      ],
      "stateMutability": "view",
      "type": "function"
    },
    {
      "inputs": [],
      "name": "corePayment",
      "outputs": [
        {
          "internalType": "uint256",
          "name": "",
          "type": "uint256"
        }
      ],
      "stateMutability": "view",
      "type": "function"
    },
    {
      "inputs": [],
      "name": "coreToken",
      "outputs": [
        {
          "internalType": "contract IERC20",
          "name": "",
          "type": "address"
        }
      ],
      "stateMutability": "view",
      "type": "function"
    },
    {
      "inputs": [],
      "name": "excessConfirmations",
      "outputs": [
        {
          "internalType": "uint256",
          "name": "",
          "type": "uint256"
        }
      ],
      "stateMutability": "view",
      "type": "function"
    },
    {
      "inputs": [
        {
          "internalType": "uint256",
          "name": "",
          "type": "uint256"
        }
      ],
      "name": "getConfirmationsPerBlock",
      "outputs": [
        {
          "internalType": "uint256",
          "name": "count",
          "type": "uint256"
        },
        {
          "internalType": "bool",
          "name": "requireExtraCheck",
          "type": "bool"
        }
      ],
      "stateMutability": "view",
      "type": "function"
    },
    {
      "inputs": [
        {
          "internalType": "address",
          "name": "",
          "type": "address"
        }
      ],
      "name": "getOracleInfo",
      "outputs": [
        {
          "internalType": "address",
          "name": "admin",
          "type": "address"
        }
      ],
      "stateMutability": "view",
      "type": "function"
    },
    {
      "inputs": [
        {
          "internalType": "contract IERC20",
          "name": "",
          "type": "address"
        }
      ],
      "name": "getPaymentInfo",
      "outputs": [
        {
          "internalType": "uint256",
          "name": "allocatedFunds",
          "type": "uint256"
        },
        {
          "internalType": "uint256",
          "name": "availableFunds",
          "type": "uint256"
        }
      ],
      "stateMutability": "view",
      "type": "function"
    },
    {
      "inputs": [
        {
          "internalType": "bytes32",
          "name": "role",
          "type": "bytes32"
        }
      ],
      "name": "getRoleAdmin",
      "outputs": [
        {
          "internalType": "bytes32",
          "name": "",
          "type": "bytes32"
        }
      ],
      "stateMutability": "view",
      "type": "function"
    },
    {
      "inputs": [
        {
          "internalType": "bytes32",
          "name": "",
          "type": "bytes32"
        }
      ],
      "name": "getSubmissionInfo",
      "outputs": [
        {
          "internalType": "uint256",
          "name": "block",
          "type": "uint256"
        },
        {
          "internalType": "uint256",
          "name": "confirmations",
          "type": "uint256"
        }
      ],
      "stateMutability": "view",
      "type": "function"
    },
    {
      "inputs": [
        {
          "internalType": "contract IERC20",
          "name": "_asset",
          "type": "address"
        },
        {
          "internalType": "address",
          "name": "_oracle",
          "type": "address"
        }
      ],
      "name": "getWithdrawable",
      "outputs": [
        {
          "internalType": "uint256",
          "name": "",
          "type": "uint256"
        }
      ],
      "stateMutability": "view",
      "type": "function"
    },
    {
      "inputs": [
        {
          "internalType": "bytes32",
          "name": "role",
          "type": "bytes32"
        },
        {
          "internalType": "address",
          "name": "account",
          "type": "address"
        }
      ],
      "name": "grantRole",
      "outputs": [],
      "stateMutability": "nonpayable",
      "type": "function"
    },
    {
      "inputs": [
        {
          "internalType": "bytes32",
          "name": "role",
          "type": "bytes32"
        },
        {
          "internalType": "address",
          "name": "account",
          "type": "address"
        }
      ],
      "name": "hasRole",
      "outputs": [
        {
          "internalType": "bool",
          "name": "",
          "type": "bool"
        }
      ],
      "stateMutability": "view",
      "type": "function"
    },
    {
      "inputs": [],
      "name": "minConfirmations",
      "outputs": [
        {
          "internalType": "uint256",
          "name": "",
          "type": "uint256"
        }
      ],
      "stateMutability": "view",
      "type": "function"
    },
    {
      "inputs": [
        {
          "internalType": "address",
          "name": "",
          "type": "address"
        },
        {
          "internalType": "uint256",
          "name": "",
          "type": "uint256"
        },
        {
          "internalType": "bytes",
          "name": "_data",
          "type": "bytes"
        }
      ],
      "name": "onTokenTransfer",
      "outputs": [],
      "stateMutability": "nonpayable",
      "type": "function"
    },
    {
      "inputs": [
        {
          "internalType": "address",
          "name": "_oracle",
          "type": "address"
        }
      ],
      "name": "removeOracle",
      "outputs": [],
      "stateMutability": "nonpayable",
      "type": "function"
    },
    {
      "inputs": [
        {
          "internalType": "bytes32",
          "name": "role",
          "type": "bytes32"
        },
        {
          "internalType": "address",
          "name": "account",
          "type": "address"
        }
      ],
      "name": "renounceRole",
      "outputs": [],
      "stateMutability": "nonpayable",
      "type": "function"
    },
    {
      "inputs": [
        {
          "internalType": "bytes32",
          "name": "role",
          "type": "bytes32"
        },
        {
          "internalType": "address",
          "name": "account",
          "type": "address"
        }
      ],
      "name": "revokeRole",
      "outputs": [],
      "stateMutability": "nonpayable",
      "type": "function"
    },
    {
      "inputs": [
        {
          "internalType": "uint256",
          "name": "_minConfirmations",
          "type": "uint256"
        }
      ],
      "name": "setMinConfirmations",
      "outputs": [],
      "stateMutability": "nonpayable",
      "type": "function"
    },
    {
      "inputs": [
        {
          "internalType": "uint256",
          "name": "_corePayment",
          "type": "uint256"
        },
        {
          "internalType": "uint256",
          "name": "_bonusPayment",
          "type": "uint256"
        }
      ],
      "name": "setPayment",
      "outputs": [],
      "stateMutability": "nonpayable",
      "type": "function"
    },
    {
      "inputs": [
        {
          "internalType": "bytes4",
          "name": "interfaceId",
          "type": "bytes4"
        }
      ],
      "name": "supportsInterface",
      "outputs": [
        {
          "internalType": "bool",
          "name": "",
          "type": "bool"
        }
      ],
      "stateMutability": "view",
      "type": "function"
    },
    {
      "inputs": [
        {
          "internalType": "contract IERC20",
          "name": "_asset",
          "type": "address"
        }
      ],
      "name": "updateAvailableFunds",
      "outputs": [],
      "stateMutability": "nonpayable",
      "type": "function"
    },
    {
      "inputs": [
        {
          "internalType": "address",
          "name": "_oracle",
          "type": "address"
        },
        {
          "internalType": "address",
          "name": "_newOracleAdmin",
          "type": "address"
        }
      ],
      "name": "updateOracleAdmin",
      "outputs": [],
      "stateMutability": "nonpayable",
      "type": "function"
    },
    {
      "inputs": [
        {
          "internalType": "contract IERC20",
          "name": "_asset",
          "type": "address"
        },
        {
          "internalType": "address",
          "name": "_recipient",
          "type": "address"
        },
        {
          "internalType": "uint256",
          "name": "_amount",
          "type": "uint256"
        }
      ],
      "name": "withdrawFunds",
      "outputs": [],
      "stateMutability": "nonpayable",
      "type": "function"
    },
    {
      "inputs": [
        {
          "internalType": "address",
          "name": "_oracle",
          "type": "address"
        },
        {
          "internalType": "address",
          "name": "_recipient",
          "type": "address"
        },
        {
          "internalType": "contract IERC20",
          "name": "_asset",
          "type": "address"
        },
        {
          "internalType": "uint256",
          "name": "_amount",
          "type": "uint256"
        }
      ],
      "name": "withdrawPayment",
      "outputs": [],
      "stateMutability": "nonpayable",
      "type": "function"
    },
    {
      "inputs": [
        {
          "internalType": "bytes32[]",
          "name": "_submissionIds",
          "type": "bytes32[]"
        }
      ],
      "name": "submitMany",
      "outputs": [],
      "stateMutability": "nonpayable",
      "type": "function"
    },
    {
      "inputs": [
        {
          "internalType": "bytes32",
          "name": "_submissionId",
          "type": "bytes32"
        }
      ],
      "name": "submit",
      "outputs": [],
      "stateMutability": "nonpayable",
      "type": "function"
    },
    {
      "inputs": [
        {
          "internalType": "uint256",
          "name": "_excessConfirmations",
          "type": "uint256"
        }
      ],
      "name": "setExcessConfirmations",
      "outputs": [],
      "stateMutability": "nonpayable",
      "type": "function"
    },
    {
      "inputs": [
        {
          "internalType": "uint256",
          "name": "_confirmationThreshold",
          "type": "uint256"
        }
      ],
      "name": "setThreshold",
      "outputs": [],
      "stateMutability": "nonpayable",
      "type": "function"
    },
    {
      "inputs": [
        {
          "internalType": "bytes32",
          "name": "_submissionId",
          "type": "bytes32"
        }
      ],
      "name": "getSubmissionConfirmations",
      "outputs": [
        {
          "internalType": "uint256",
          "name": "_confirmations",
          "type": "uint256"
        },
        {
          "internalType": "bool",
          "name": "_blockConfirmationPassed",
          "type": "bool"
        }
      ],
      "stateMutability": "view",
      "type": "function"
    }
  ],
  "bytecode": "0x60806040523480156200001157600080fd5b506040516200191638038062001916833981016040819052620000349162000198565b6003879055600480546001600160a01b038087166001600160a01b031992831617909255600580549286169290911691909117905560018690556002859055868686868662000085600033620000cb565b620000b17f68e79a7bf1e0bc45d0a330c573bc367f9cf464fd326078812f301165fbda4ef133620000cb565b5050506008939093555060095550620001ff945050505050565b620000d78282620000db565b5050565b6000828152602081815260408083206001600160a01b038516845290915290205460ff16620000d7576000828152602081815260408083206001600160a01b03851684529091529020805460ff19166001179055620001373390565b6001600160a01b0316816001600160a01b0316837f2f8788117e7eff1d82e926ec794901d17c78024a50270940304540a733656f0d60405160405180910390a45050565b80516001600160a01b03811681146200019357600080fd5b919050565b600080600080600080600060e0888a031215620001b3578283fd5b875196506020880151955060408801519450620001d3606089016200017b565b9350620001e3608089016200017b565b925060a0880151915060c0880151905092959891949750929550565b611707806200020f6000396000f3fe608060405234801561001057600080fd5b50600436106102065760003560e01c8063960bfe041161011a578063cd283118116100ad578063e75a59261161007c578063e75a592614610502578063e7c4393e14610515578063f0ca4adb1461051e578063fceb17eb14610531578063fdc85fc41461053a57610206565b8063cd283118146104c0578063d2821655146104c9578063d547741f146104dc578063d9caa3d2146104ef57610206565b8063a4c0ed36116100e9578063a4c0ed3614610451578063addd6f5a14610464578063b9b556521461048e578063bfdb6b041461049757610206565b8063960bfe04146103e557806397daa4f7146103f8578063a217fddf1461040b578063a490c5ac1461041357610206565b8063248a9ca31161019d57806336568abe1161016c57806336568abe1461038657806341d4a1ab146103995780634c083773146103ac5780637885f23b146103bf57806391d14854146103d257610206565b8063248a9ca31461032a5780632c1827ba1461034d5780632f2ff15d1461036057806333e207561461037357610206565b80630e3b90a9116101d95780630e3b90a91461028a57806312c65b8c146102c65780631c20fadd146102ed57806321c277311461030257610206565b806301ffc9a71461020b57806307e2cea51461023357806308b8304b146102565780630c2b72e91461025f575b600080fd5b61021e610219366004611546565b61054d565b60405190151581526020015b60405180910390f35b6102486000805160206116b283398151915281565b60405190815260200161022a565b61024860015481565b600454610272906001600160a01b031681565b6040516001600160a01b03909116815260200161022a565b6102b161029836600461150a565b600a602052600090815260409020805460019091015482565b6040805192835260208301919091520161022a565b6102b16102d43660046112fc565b6007602052600090815260409020805460019091015482565b6103006102fb366004611580565b610584565b005b61031561031036600461150a565b61070d565b6040805192835290151560208301520161022a565b61024861033836600461150a565b60009081526020819052604090206001015490565b61030061035b36600461150a565b610759565b61030061036e366004611522565b610785565b6103006103813660046115d8565b610814565b610300610394366004611522565b610846565b600554610272906001600160a01b031681565b6103006103ba366004611357565b6108c0565b6103006103cd3660046112fc565b610ac4565b61021e6103e0366004611522565b610b76565b6103006103f336600461150a565b610b9f565b61030061040636600461142b565b610bcb565b610248600081565b61024861042136600461156e565b6001600160a01b038082166000908152600660209081526040808320938616835260019093019052205492915050565b61030061045f3660046113a7565b610c74565b61031561047236600461150a565b600b602052600090815260409020805460019091015460ff1682565b61024860095481565b6102726104a53660046112fc565b6006602052600090815260409020546001600160a01b031681565b61024860025481565b6103006104d736600461150a565b610cd1565b6103006104ea366004611522565b610cfd565b6103006104fd36600461150a565b610d7d565b61030061051036600461131f565b610de4565b61024860035481565b61030061052c36600461131f565b610e8d565b61024860085481565b6103006105483660046112fc565b610ecc565b60006001600160e01b03198216637965db0b60e01b148061057e57506301ffc9a760e01b6001600160e01b03198316145b92915050565b61058f600033610b76565b6105b45760405162461bcd60e51b81526004016105ab906115f9565b60405180910390fd5b6001600160a01b0383166000908152600760205260409020600101548111156106315760405162461bcd60e51b815260206004820152602960248201527f776974686472617746756e64733a20696e73756666696369656e7420726573656044820152687276652066756e647360b81b60648201526084016105ab565b60405163a9059cbb60e01b81526001600160a01b0383811660048301526024820183905284169063a9059cbb90604401602060405180830381600087803b15801561067b57600080fd5b505af115801561068f573d6000803e3d6000fd5b505050506040513d601f19601f820116820180604052508101906106b391906114ea565b6106ff5760405162461bcd60e51b815260206004820152601e60248201527f776974686472617746756e64733a207472616e73666572206661696c6564000060448201526064016105ab565b61070883610ac4565b505050565b6000818152600a6020908152604080832080548452600b9092528220600180830154908201549093929190849060ff166107495760035461074d565b6009545b90969410159450505050565b610764600033610b76565b6107805760405162461bcd60e51b81526004016105ab906115f9565b600955565b6000828152602081905260409020600101546107a2905b336103e0565b6108065760405162461bcd60e51b815260206004820152602f60248201527f416363657373436f6e74726f6c3a2073656e646572206d75737420626520616e60448201526e0818591b5a5b881d1bc819dc985b9d608a1b60648201526084016105ab565b6108108282610f0b565b5050565b61081f600033610b76565b61083b5760405162461bcd60e51b81526004016105ab906115f9565b600191909155600255565b6001600160a01b03811633146108b65760405162461bcd60e51b815260206004820152602f60248201527f416363657373436f6e74726f6c3a2063616e206f6e6c792072656e6f756e636560448201526e103937b632b9903337b91039b2b63360891b60648201526084016105ab565b6108108282610f8f565b6001600160a01b038481166000908152600660205260409020541633146109395760405162461bcd60e51b815260206004820152602760248201527f77697468647261775061796d656e743a206f6e6c792063616c6c61626c6520626044820152663c9030b236b4b760c91b60648201526084016105ab565b6001600160a01b0380851660009081526006602090815260408083209386168352600190930190522054818110156109cc5760405162461bcd60e51b815260206004820152603060248201527f77697468647261775061796d656e743a20696e73756666696369656e7420776960448201526f74686472617761626c652066756e647360801b60648201526084016105ab565b6109d6828261163e565b6001600160a01b03808716600090815260066020908152604080832093881683526001909301815282822093909355600790925281208054849290610a1c90849061163e565b909155505060405163a9059cbb60e01b81526001600160a01b0385811660048301526024820184905284169063a9059cbb90604401602060405180830381600087803b158015610a6b57600080fd5b505af1158015610a7f573d6000803e3d6000fd5b505050506040513d601f19601f82011682018060405250810190610aa391906114ea565b610abd57634e487b7160e01b600052600160045260246000fd5b5050505050565b6001600160a01b038116600081815260076020526040908190205490516370a0823160e01b81523060048201529091906370a082319060240160206040518083038186803b158015610b1557600080fd5b505afa158015610b29573d6000803e3d6000fd5b505050506040513d601f19601f82011682018060405250810190610b4d91906115c0565b610b57919061163e565b6001600160a01b03909116600090815260076020526040902060010155565b6000918252602082815260408084206001600160a01b0393909316845291905290205460ff1690565b610baa600033610b76565b610bc65760405162461bcd60e51b81526004016105ab906115f9565b600855565b610be36000805160206116b283398151915233610b76565b610c265760405162461bcd60e51b81526020600482015260146024820152736f6e6c794f7261636c653a2062616420726f6c6560601b60448201526064016105ab565b60005b815181101561081057610c62828281518110610c5557634e487b7160e01b600052603260045260246000fd5b6020026020010151610ff4565b80610c6c81611655565b915050610c29565b8015610cc25760405162461bcd60e51b815260206004820181905260248201527f7472616e7366657220646f65736e2774206163636570742063616c6c6461746160448201526064016105ab565b610ccb33610ac4565b50505050565b610cdc600033610b76565b610cf85760405162461bcd60e51b81526004016105ab906115f9565b600355565b600082815260208190526040902060010154610d189061079c565b6108b65760405162461bcd60e51b815260206004820152603060248201527f416363657373436f6e74726f6c3a2073656e646572206d75737420626520616e60448201526f2061646d696e20746f207265766f6b6560801b60648201526084016105ab565b610d956000805160206116b283398151915233610b76565b610dd85760405162461bcd60e51b81526020600482015260146024820152736f6e6c794f7261636c653a2062616420726f6c6560601b60448201526064016105ab565b610de181610ff4565b50565b6001600160a01b03828116600090815260066020526040902054163314610e5f5760405162461bcd60e51b815260206004820152602960248201527f7570646174654f7261636c6541646d696e3a206f6e6c792063616c6c61626c6560448201526810313c9030b236b4b760b91b60648201526084016105ab565b6001600160a01b03918216600090815260066020526040902080546001600160a01b03191691909216179055565b610e98600033610b76565b610eb45760405162461bcd60e51b81526004016105ab906115f9565b610e5f6000805160206116b283398151915283610785565b610ed7600033610b76565b610ef35760405162461bcd60e51b81526004016105ab906115f9565b610de16000805160206116b283398151915282610cfd565b610f158282610b76565b610810576000828152602081815260408083206001600160a01b03851684529091529020805460ff19166001179055610f4b3390565b6001600160a01b0316816001600160a01b0316837f2f8788117e7eff1d82e926ec794901d17c78024a50270940304540a733656f0d60405160405180910390a45050565b610f998282610b76565b15610810576000828152602081815260408083206001600160a01b0385168085529252808320805460ff1916905551339285917ff6391f5c32d9c69d2a47ea670b442974b53935d1edc7fd64eb21e047a839171b9190a45050565b6000818152600a60209081526040808320338452600281019092529091205460ff16156110635760405162461bcd60e51b815260206004820152601960248201527f7375626d69743a207375626d697474656420616c72656164790000000000000060448201526064016105ab565b60018160010160008282546110789190611626565b90915550503360009081526002820160205260409020805460ff19166001908117909155600354908201541061115757436000908152600b60209081526040808320858452600281019092529091205460ff1661111f5760018160000160008282546110e49190611626565b909155505060008381526002820160205260409020805460ff1916600117905560085481541061111f576001818101805460ff191690911790555b4382556040518381527f2a6b4960c287d4d53a338f9c9a9f830f37e7b66e67a0a958f68be89a4eeb939d9060200160405180910390a1505b6111603361119c565b604080518381523360208201527fd4964a7cd99f5c1fa8f2420fb5e1d3bd26eadf16e2658cf2e29a67dfda38601e910160405180910390a15050565b600180546004546001600160a01b031660009081526007602052604081209092018054919290916111ce90849061163e565b90915550506001546004546001600160a01b031660009081526007602052604081208054909190611200908490611626565b9091555050600180546001600160a01b0380841660009081526006602090815260408083206004549094168352929094019093528220805491929091611247908490611626565b90915550506002546005546001600160a01b03166000908152600760205260408120600101805490919061127c90849061163e565b90915550506002546005546001600160a01b0316600090815260076020526040812080549091906112ae908490611626565b90915550506002546001600160a01b03808316600090815260066020908152604080832060055490941683526001909301905290812080549091906112f4908490611626565b909155505050565b60006020828403121561130d578081fd5b81356113188161169c565b9392505050565b60008060408385031215611331578081fd5b823561133c8161169c565b9150602083013561134c8161169c565b809150509250929050565b6000806000806080858703121561136c578182fd5b84356113778161169c565b935060208501356113878161169c565b925060408501356113978161169c565b9396929550929360600135925050565b600080600080606085870312156113bc578384fd5b84356113c78161169c565b935060208501359250604085013567ffffffffffffffff808211156113ea578384fd5b818701915087601f8301126113fd578384fd5b81358181111561140b578485fd5b88602082850101111561141c578485fd5b95989497505060200194505050565b6000602080838503121561143d578182fd5b823567ffffffffffffffff80821115611454578384fd5b818501915085601f830112611467578384fd5b81358181111561147957611479611686565b838102604051601f19603f8301168101818110858211171561149d5761149d611686565b604052828152858101935084860182860187018a10156114bb578788fd5b8795505b838610156114dd5780358552600195909501949386019386016114bf565b5098975050505050505050565b6000602082840312156114fb578081fd5b81518015158114611318578182fd5b60006020828403121561151b578081fd5b5035919050565b60008060408385031215611534578182fd5b82359150602083013561134c8161169c565b600060208284031215611557578081fd5b81356001600160e01b031981168114611318578182fd5b60008060408385031215611331578182fd5b600080600060608486031215611594578283fd5b833561159f8161169c565b925060208401356115af8161169c565b929592945050506040919091013590565b6000602082840312156115d1578081fd5b5051919050565b600080604083850312156115ea578182fd5b50508035926020909101359150565b6020808252601390820152726f6e6c7941646d696e3a2062616420726f6c6560681b604082015260600190565b6000821982111561163957611639611670565b500190565b60008282101561165057611650611670565b500390565b600060001982141561166957611669611670565b5060010190565b634e487b7160e01b600052601160045260246000fd5b634e487b7160e01b600052604160045260246000fd5b6001600160a01b0381168114610de157600080fdfe68e79a7bf1e0bc45d0a330c573bc367f9cf464fd326078812f301165fbda4ef1a26469706673582212209e8ffbacf9735ddfc0fa14536af297aab29c6f1c32d6c6028af75f2aa55a7c1264736f6c63430008020033",
  "immutableReferences": {},
  "source": "// SPDX-License-Identifier: MIT\npragma solidity ^0.8.2;\n\nimport \"@openzeppelin/contracts/access/AccessControl.sol\";\nimport \"@openzeppelin/contracts/token/ERC20/IERC20.sol\";\nimport \"./Aggregator.sol\";\nimport \"../interfaces/IFullAggregator.sol\";\n\ncontract FullAggregator is Aggregator, IFullAggregator {\n    struct SubmissionInfo {\n        uint256 block; // confirmation block\n        uint256 confirmations; // received confirmations count\n        mapping(address => bool) hasVerified; // verifier => has already voted\n    }\n    uint256 public confirmationThreshold; // bonus reward for one submission\n    uint256 public excessConfirmations; // minimal required confirmations in case of too many confirmations\n\n    mapping(bytes32 => SubmissionInfo) public getSubmissionInfo; // mint id => submission info\n    mapping(uint256 => BlockConfirmationsInfo) public getConfirmationsPerBlock; // block => confirmations\n\n    event Confirmed(bytes32 submissionId, address operator); // emitted once the submission is confirmed by one oracle\n    event SubmissionApproved(bytes32 submissionId); // emitted once the submission is confirmed by min required aount of oracles\n\n    /// @dev Constructor that initializes the most important configurations.\n    /// @param _minConfirmations Common confirmations count.\n    /// @param _corePayment Oracle reward.\n    /// @param _bonusPayment Oracle reward.\n    /// @param _coreToken Link token to pay to oracles.\n    /// @param _bonusToken DBR token to pay to oracles.\n    /// @param _confirmationThreshold Confirmations per block before extra check enabled.\n    /// @param _excessConfirmations Confirmations count in case of excess activity.\n    constructor(\n        uint256 _minConfirmations,\n        uint256 _corePayment,\n        uint256 _bonusPayment,\n        IERC20 _coreToken,\n        IERC20 _bonusToken,\n        uint256 _confirmationThreshold,\n        uint256 _excessConfirmations\n    )\n        Aggregator(\n            _minConfirmations,\n            _corePayment,\n            _bonusPayment,\n            _coreToken,\n            _bonusToken\n        )\n    {\n        confirmationThreshold = _confirmationThreshold;\n        excessConfirmations = _excessConfirmations;\n    }\n\n    /// @dev Confirms few transfer requests.\n    /// @param _submissionIds Submission identifiers.\n    function submitMany(bytes32[] memory _submissionIds)\n        external\n        override\n        onlyOracle\n    {\n        for (uint256 i; i < _submissionIds.length; i++) {\n            _submit(_submissionIds[i]);\n        }\n    }\n\n    /// @dev Confirms the transfer request.\n    /// @param _submissionId Submission identifier.\n    function submit(bytes32 _submissionId) external override onlyOracle {\n        _submit(_submissionId);\n    }\n\n    /// @dev Confirms single transfer request.\n    /// @param _submissionId Submission identifier.\n    function _submit(bytes32 _submissionId) internal {\n        SubmissionInfo storage submissionInfo =\n            getSubmissionInfo[_submissionId];\n        require(\n            !submissionInfo.hasVerified[msg.sender],\n            \"submit: submitted already\"\n        );\n        submissionInfo.confirmations += 1;\n        submissionInfo.hasVerified[msg.sender] = true;\n        if (submissionInfo.confirmations >= minConfirmations) {\n            BlockConfirmationsInfo storage _blockConfirmationsInfo =\n                getConfirmationsPerBlock[block.number];\n            if (!_blockConfirmationsInfo.isConfirmed[_submissionId]) {\n                _blockConfirmationsInfo.count += 1;\n                _blockConfirmationsInfo.isConfirmed[_submissionId] = true;\n                if (_blockConfirmationsInfo.count >= confirmationThreshold) {\n                    _blockConfirmationsInfo.requireExtraCheck = true;\n                }\n            }\n            submissionInfo.block = block.number;\n            emit SubmissionApproved(_submissionId);\n        }\n        _payOracle(msg.sender);\n        emit Confirmed(_submissionId, msg.sender);\n    }\n\n    /// @dev Sets minimal required confirmations.\n    /// @param _excessConfirmations Confirmation info.\n    function setExcessConfirmations(uint256 _excessConfirmations)\n        public\n        onlyAdmin\n    {\n        excessConfirmations = _excessConfirmations;\n    }\n\n    /// @dev Sets minimal required confirmations.\n    /// @param _confirmationThreshold Confirmation info.\n    function setThreshold(uint256 _confirmationThreshold) public onlyAdmin {\n        confirmationThreshold = _confirmationThreshold;\n    }\n\n    /// @dev Returns whether transfer request is confirmed.\n    /// @param _submissionId Submission identifier.\n    /// @return _confirmations number of confirmation.\n    /// @return _blockConfirmationPassed Whether transfer request is confirmed.\n    function getSubmissionConfirmations(bytes32 _submissionId)\n        external\n        view\n        override\n        returns (uint256 _confirmations, bool _blockConfirmationPassed)\n    {\n        SubmissionInfo storage submissionInfo =\n            getSubmissionInfo[_submissionId];\n        BlockConfirmationsInfo storage _blockConfirmationsInfo =\n            getConfirmationsPerBlock[submissionInfo.block];\n        _confirmations = submissionInfo.confirmations;\n        return (\n            _confirmations,\n            _confirmations >=\n                (\n                    (_blockConfirmationsInfo.requireExtraCheck)\n                        ? excessConfirmations\n                        : minConfirmations\n                )\n        );\n    }\n}\n",
  "sourcePath": "/root/debridge-contracts/contracts/chainlink/FullAggregator.sol",
  "compiler": {
    "name": "solc",
    "version": "0.8.2+commit.661d1103.Emscripten.clang"
  },
  "schemaVersion": "3.3.4",
  "updatedAt": "2021-06-20T15:43:29.260Z",
  "devdoc": {
    "kind": "dev",
    "methods": {
      "addOracle(address,address)": {
        "details": "Add new oracle.",
        "params": {
          "_admin": "Admin address.",
          "_oracle": "Oracle address."
        }
      },
      "constructor": {
        "details": "Constructor that initializes the most important configurations.",
        "params": {
          "_bonusPayment": "Oracle reward.",
          "_bonusToken": "DBR token to pay to oracles.",
          "_confirmationThreshold": "Confirmations per block before extra check enabled.",
          "_corePayment": "Oracle reward.",
          "_coreToken": "Link token to pay to oracles.",
          "_excessConfirmations": "Confirmations count in case of excess activity.",
          "_minConfirmations": "Common confirmations count."
        }
      },
      "getRoleAdmin(bytes32)": {
        "details": "Returns the admin role that controls `role`. See {grantRole} and {revokeRole}. To change a role's admin, use {_setRoleAdmin}."
      },
      "getSubmissionConfirmations(bytes32)": {
        "details": "Returns whether transfer request is confirmed.",
        "params": {
          "_submissionId": "Submission identifier."
        },
        "returns": {
          "_blockConfirmationPassed": "Whether transfer request is confirmed.",
          "_confirmations": "number of confirmation."
        }
      },
      "getWithdrawable(address,address)": {
        "details": "Return's oracle reward.",
        "params": {
          "_oracle": "Oracle address."
        },
        "returns": {
          "_0": "Oracle rewards."
        }
      },
      "grantRole(bytes32,address)": {
        "details": "Grants `role` to `account`. If `account` had not been already granted `role`, emits a {RoleGranted} event. Requirements: - the caller must have ``role``'s admin role."
      },
      "hasRole(bytes32,address)": {
        "details": "Returns `true` if `account` has been granted `role`."
      },
      "onTokenTransfer(address,uint256,bytes)": {
        "details": "Updates link balance.",
        "params": {
          "_data": "Call data."
        }
      },
      "removeOracle(address)": {
        "details": "Remove oracle.",
        "params": {
          "_oracle": "Oracle address."
        }
      },
      "renounceRole(bytes32,address)": {
        "details": "Revokes `role` from the calling account. Roles are often managed via {grantRole} and {revokeRole}: this function's purpose is to provide a mechanism for accounts to lose their privileges if they are compromised (such as when a trusted device is misplaced). If the calling account had been granted `role`, emits a {RoleRevoked} event. Requirements: - the caller must be `account`."
      },
      "revokeRole(bytes32,address)": {
        "details": "Revokes `role` from `account`. If `account` had been granted `role`, emits a {RoleRevoked} event. Requirements: - the caller must have ``role``'s admin role."
      },
      "setExcessConfirmations(uint256)": {
        "details": "Sets minimal required confirmations.",
        "params": {
          "_excessConfirmations": "Confirmation info."
        }
      },
      "setMinConfirmations(uint256)": {
        "details": "Sets minimal required confirmations.",
        "params": {
          "_minConfirmations": "Confirmation info."
        }
      },
      "setPayment(uint256,uint256)": {
        "details": "Sets new oracle reward.",
        "params": {
          "_bonusPayment": "Oracle reward.",
          "_corePayment": "Oracle reward."
        }
      },
      "setThreshold(uint256)": {
        "details": "Sets minimal required confirmations.",
        "params": {
          "_confirmationThreshold": "Confirmation info."
        }
      },
      "submit(bytes32)": {
        "details": "Confirms the transfer request.",
        "params": {
          "_submissionId": "Submission identifier."
        }
      },
      "submitMany(bytes32[])": {
        "details": "Confirms few transfer requests.",
        "params": {
          "_submissionIds": "Submission identifiers."
        }
      },
      "supportsInterface(bytes4)": {
        "details": "See {IERC165-supportsInterface}."
      },
      "updateAvailableFunds(address)": {
        "details": "Updates available rewards to be distributed."
      },
      "updateOracleAdmin(address,address)": {
        "details": "Updates oracle's admin address.",
        "params": {
          "_newOracleAdmin": "New oracle address.",
          "_oracle": "Oracle address."
        }
      },
      "withdrawFunds(address,address,uint256)": {
        "details": "Withdraws earned LINK's.",
        "params": {
          "_amount": "Amount to withdraw.",
          "_recipient": "Reward's recepient."
        }
      },
      "withdrawPayment(address,address,address,uint256)": {
        "details": "Withdraws oracle reward.",
        "params": {
          "_amount": "Amount to withdraw.",
          "_oracle": "Oracle address.",
          "_recipient": "Recepient reward."
        }
      }
    },
    "version": 1
  },
  "userdoc": {
    "kind": "user",
    "methods": {},
    "version": 1
  }
}