{
  "contractName": "LightVerifier",
  "abi": [
    {
      "inputs": [
        {
          "internalType": "uint256",
          "name": "_minConfirmations",
          "type": "uint256"
        },
        {
          "internalType": "uint256",
          "name": "_confirmationThreshold",
          "type": "uint256"
        },
        {
          "internalType": "uint256",
          "name": "_excessConfirmations",
          "type": "uint256"
        }
      ],
      "stateMutability": "nonpayable",
      "type": "constructor"
    },
    {
      "anonymous": false,
      "inputs": [
        {
          "indexed": false,
          "internalType": "bytes32",
          "name": "submissionId",
          "type": "bytes32"
        },
        {
          "indexed": false,
          "internalType": "address",
          "name": "operator",
          "type": "address"
        }
      ],
      "name": "Confirmed",
      "type": "event"
    },
    {
      "anonymous": false,
      "inputs": [
        {
          "indexed": true,
          "internalType": "bytes32",
          "name": "role",
          "type": "bytes32"
        },
        {
          "indexed": true,
          "internalType": "bytes32",
          "name": "previousAdminRole",
          "type": "bytes32"
        },
        {
          "indexed": true,
          "internalType": "bytes32",
          "name": "newAdminRole",
          "type": "bytes32"
        }
      ],
      "name": "RoleAdminChanged",
      "type": "event"
    },
    {
      "anonymous": false,
      "inputs": [
        {
          "indexed": true,
          "internalType": "bytes32",
          "name": "role",
          "type": "bytes32"
        },
        {
          "indexed": true,
          "internalType": "address",
          "name": "account",
          "type": "address"
        },
        {
          "indexed": true,
          "internalType": "address",
          "name": "sender",
          "type": "address"
        }
      ],
      "name": "RoleGranted",
      "type": "event"
    },
    {
      "anonymous": false,
      "inputs": [
        {
          "indexed": true,
          "internalType": "bytes32",
          "name": "role",
          "type": "bytes32"
        },
        {
          "indexed": true,
          "internalType": "address",
          "name": "account",
          "type": "address"
        },
        {
          "indexed": true,
          "internalType": "address",
          "name": "sender",
          "type": "address"
        }
      ],
      "name": "RoleRevoked",
      "type": "event"
    },
    {
      "anonymous": false,
      "inputs": [
        {
          "indexed": false,
          "internalType": "bytes32",
          "name": "submissionId",
          "type": "bytes32"
        }
      ],
      "name": "SubmissionApproved",
      "type": "event"
    },
    {
      "inputs": [],
      "name": "DEFAULT_ADMIN_ROLE",
      "outputs": [
        {
          "internalType": "bytes32",
          "name": "",
          "type": "bytes32"
        }
      ],
      "stateMutability": "view",
      "type": "function",
      "constant": true
    },
    {
      "inputs": [],
      "name": "ORACLE_ROLE",
      "outputs": [
        {
          "internalType": "bytes32",
          "name": "",
          "type": "bytes32"
        }
      ],
      "stateMutability": "view",
      "type": "function",
      "constant": true
    },
    {
      "inputs": [],
      "name": "confirmationThreshold",
      "outputs": [
        {
          "internalType": "uint256",
          "name": "",
          "type": "uint256"
        }
      ],
      "stateMutability": "view",
      "type": "function",
      "constant": true
    },
    {
      "inputs": [],
      "name": "excessConfirmations",
      "outputs": [
        {
          "internalType": "uint256",
          "name": "",
          "type": "uint256"
        }
      ],
      "stateMutability": "view",
      "type": "function",
      "constant": true
    },
    {
      "inputs": [
        {
          "internalType": "uint256",
          "name": "",
          "type": "uint256"
        }
      ],
      "name": "getConfirmationsPerBlock",
      "outputs": [
        {
          "internalType": "uint256",
          "name": "count",
          "type": "uint256"
        },
        {
          "internalType": "bool",
          "name": "requireExtraCheck",
          "type": "bool"
        }
      ],
      "stateMutability": "view",
      "type": "function",
      "constant": true
    },
    {
      "inputs": [
        {
          "internalType": "bytes32",
          "name": "role",
          "type": "bytes32"
        }
      ],
      "name": "getRoleAdmin",
      "outputs": [
        {
          "internalType": "bytes32",
          "name": "",
          "type": "bytes32"
        }
      ],
      "stateMutability": "view",
      "type": "function",
      "constant": true
    },
    {
      "inputs": [
        {
          "internalType": "bytes32",
          "name": "",
          "type": "bytes32"
        }
      ],
      "name": "getSubmissionInfo",
      "outputs": [
        {
          "internalType": "uint256",
          "name": "block",
          "type": "uint256"
        },
        {
          "internalType": "uint256",
          "name": "confirmations",
          "type": "uint256"
        }
      ],
      "stateMutability": "view",
      "type": "function",
      "constant": true
    },
    {
      "inputs": [
        {
          "internalType": "bytes32",
          "name": "role",
          "type": "bytes32"
        },
        {
          "internalType": "address",
          "name": "account",
          "type": "address"
        }
      ],
      "name": "grantRole",
      "outputs": [],
      "stateMutability": "nonpayable",
      "type": "function"
    },
    {
      "inputs": [
        {
          "internalType": "bytes32",
          "name": "role",
          "type": "bytes32"
        },
        {
          "internalType": "address",
          "name": "account",
          "type": "address"
        }
      ],
      "name": "hasRole",
      "outputs": [
        {
          "internalType": "bool",
          "name": "",
          "type": "bool"
        }
      ],
      "stateMutability": "view",
      "type": "function",
      "constant": true
    },
    {
      "inputs": [],
      "name": "minConfirmations",
      "outputs": [
        {
          "internalType": "uint256",
          "name": "",
          "type": "uint256"
        }
      ],
      "stateMutability": "view",
      "type": "function",
      "constant": true
    },
    {
      "inputs": [
        {
          "internalType": "bytes32",
          "name": "role",
          "type": "bytes32"
        },
        {
          "internalType": "address",
          "name": "account",
          "type": "address"
        }
      ],
      "name": "renounceRole",
      "outputs": [],
      "stateMutability": "nonpayable",
      "type": "function"
    },
    {
      "inputs": [
        {
          "internalType": "bytes32",
          "name": "role",
          "type": "bytes32"
        },
        {
          "internalType": "address",
          "name": "account",
          "type": "address"
        }
      ],
      "name": "revokeRole",
      "outputs": [],
      "stateMutability": "nonpayable",
      "type": "function"
    },
    {
      "inputs": [
        {
          "internalType": "bytes4",
          "name": "interfaceId",
          "type": "bytes4"
        }
      ],
      "name": "supportsInterface",
      "outputs": [
        {
          "internalType": "bool",
          "name": "",
          "type": "bool"
        }
      ],
      "stateMutability": "view",
      "type": "function",
      "constant": true
    },
    {
      "inputs": [
        {
          "internalType": "bytes32",
          "name": "_submissionId",
          "type": "bytes32"
        },
        {
          "internalType": "bytes[]",
          "name": "_signatures",
          "type": "bytes[]"
        }
      ],
      "name": "submit",
      "outputs": [
        {
          "internalType": "uint256",
          "name": "_confirmations",
          "type": "uint256"
        },
        {
          "internalType": "bool",
          "name": "_blockConfirmationPassed",
          "type": "bool"
        }
      ],
      "stateMutability": "nonpayable",
      "type": "function"
    },
    {
      "inputs": [
        {
          "internalType": "uint256",
          "name": "_minConfirmations",
          "type": "uint256"
        }
      ],
      "name": "setMinConfirmations",
      "outputs": [],
      "stateMutability": "nonpayable",
      "type": "function"
    },
    {
      "inputs": [
        {
          "internalType": "address",
          "name": "_oracle",
          "type": "address"
        }
      ],
      "name": "addOracle",
      "outputs": [],
      "stateMutability": "nonpayable",
      "type": "function"
    },
    {
      "inputs": [
        {
          "internalType": "address",
          "name": "_oracle",
          "type": "address"
        }
      ],
      "name": "removeOracle",
      "outputs": [],
      "stateMutability": "nonpayable",
      "type": "function"
    },
    {
      "inputs": [
        {
          "internalType": "bytes32",
          "name": "_submissionId",
          "type": "bytes32"
        }
      ],
      "name": "getSubmissionConfirmations",
      "outputs": [
        {
          "internalType": "uint256",
          "name": "_confirmations",
          "type": "uint256"
        },
        {
          "internalType": "bool",
          "name": "_blockConfirmationPassed",
          "type": "bool"
        }
      ],
      "stateMutability": "view",
      "type": "function",
      "constant": true
    },
    {
      "inputs": [
        {
          "internalType": "bytes32",
          "name": "_submissionId",
          "type": "bytes32"
        }
      ],
      "name": "getUnsignedMsg",
      "outputs": [
        {
          "internalType": "bytes32",
          "name": "",
          "type": "bytes32"
        }
      ],
      "stateMutability": "pure",
      "type": "function",
      "constant": true
    },
    {
      "inputs": [
        {
          "internalType": "bytes",
          "name": "_signature",
          "type": "bytes"
        }
      ],
      "name": "splitSignature",
      "outputs": [
        {
          "internalType": "bytes32",
          "name": "r",
          "type": "bytes32"
        },
        {
          "internalType": "bytes32",
          "name": "s",
          "type": "bytes32"
        },
        {
          "internalType": "uint8",
          "name": "v",
          "type": "uint8"
        }
      ],
      "stateMutability": "pure",
      "type": "function",
      "constant": true
    }
  ],
  "bytecode": "0x608060405234801561001057600080fd5b50604051610f30380380610f3083398101604081905261002f916100fd565b600182905560028390556003819055610049600033610051565b50505061012a565b61005b828261005f565b5050565b6000828152602081815260408083206001600160a01b038516845290915290205460ff1661005b576000828152602081815260408083206001600160a01b03851684529091529020805460ff191660011790556100b93390565b6001600160a01b0316816001600160a01b0316837f2f8788117e7eff1d82e926ec794901d17c78024a50270940304540a733656f0d60405160405180910390a45050565b600080600060608486031215610111578283fd5b8351925060208401519150604084015190509250925092565b610df7806101396000396000f3fe608060405234801561001057600080fd5b506004361061012c5760003560e01c8063addd6f5a116100ad578063df5dd1a511610071578063df5dd1a5146102e3578063e7c4393e146102f6578063f91aa317146102ff578063fceb17eb14610312578063fdc85fc41461031b5761012c565b8063addd6f5a14610277578063b9b55652146102a1578063c3d990ee146102aa578063d2821655146102bd578063d547741f146102d05761012c565b80632f2ff15d116100f45780632f2ff15d1461020357806336568abe1461021857806391d148541461022b578063a217fddf1461023e578063a7bb5803146102465761012c565b806301ffc9a71461013157806307e2cea5146101595780630e3b90a91461017c57806321c27731146101b8578063248a9ca3146101e0575b600080fd5b61014461013f366004610c81565b61032e565b60405190151581526020015b60405180910390f35b61016e600080516020610da283398151915281565b604051908152602001610150565b6101a361018a366004610b95565b6005602052600090815260409020805460019091015482565b60408051928352602083019190915201610150565b6101cb6101c6366004610b95565b610367565b60408051928352901515602083015201610150565b61016e6101ee366004610b95565b60009081526020819052604090206001015490565b610216610211366004610bad565b6103b3565b005b610216610226366004610bad565b610447565b610144610239366004610bad565b6104c1565b61016e600081565b610259610254366004610ca9565b6104ea565b60408051938452602084019290925260ff1690820152606001610150565b6101cb610285366004610b95565b6004602052600090815260409020805460019091015460ff1682565b61016e60035481565b61016e6102b8366004610b95565b61056f565b6102166102cb366004610b95565b6105c2565b6102166102de366004610bad565b6105ee565b6102166102f1366004610b74565b61066e565b61016e60025481565b6101cb61030d366004610bd8565b6106b0565b61016e60015481565b610216610329366004610b74565b6109ca565b60006001600160e01b03198216637965db0b60e01b148061035f57506301ffc9a760e01b6001600160e01b03198316145b90505b919050565b60008181526005602090815260408083208054845260049092528220600180830154908201549093929190849060ff166103a3576002546103a7565b6003545b90969410159450505050565b6000828152602081905260409020600101546103d0905b33610239565b6104395760405162461bcd60e51b815260206004820152602f60248201527f416363657373436f6e74726f6c3a2073656e646572206d75737420626520616e60448201526e0818591b5a5b881d1bc819dc985b9d608a1b60648201526084015b60405180910390fd5b6104438282610a09565b5050565b6001600160a01b03811633146104b75760405162461bcd60e51b815260206004820152602f60248201527f416363657373436f6e74726f6c3a2063616e206f6e6c792072656e6f756e636560448201526e103937b632b9903337b91039b2b63360891b6064820152608401610430565b6104438282610a8d565b6000918252602082815260408084206001600160a01b0393909316845291905290205460ff1690565b600080600083516041146105515760405162461bcd60e51b815260206004820152602860248201527f73706c69745369676e61747572653a20696e76616c6964207369676e617475726044820152670ca40d8cadccee8d60c31b6064820152608401610430565b50505060208101516040820151606090920151909260009190911a90565b6040517f19457468657265756d205369676e6564204d6573736167653a0a3332000000006020820152603c8101829052600090605c01604051602081830303815290604052805190602001209050919050565b6105cd6000336104c1565b6105e95760405162461bcd60e51b815260040161043090610ce4565b600255565b600082815260208190526040902060010154610609906103ca565b6104b75760405162461bcd60e51b815260206004820152603060248201527f416363657373436f6e74726f6c3a2073656e646572206d75737420626520616e60448201526f2061646d696e20746f207265766f6b6560801b6064820152608401610430565b6106796000336104c1565b6106955760405162461bcd60e51b815260040161043090610ce4565b6106ad600080516020610da2833981519152826103b3565b50565b60008281526005602052604081208190815b845181101561098a5760008060006107008885815181106106f357634e487b7160e01b600052603260045260246000fd5b60200260200101516104ea565b92509250925060006107118a61056f565b6040805160008082526020820180845284905260ff86169282019290925260608101879052608081018690529192509060019060a0016020604051602081039080840390855afa158015610769573d6000803e3d6000fd5b50505060206040510351905061078d600080516020610da2833981519152826104c1565b6107d05760405162461bcd60e51b81526020600482015260146024820152736f6e6c794f7261636c653a2062616420726f6c6560601b6044820152606401610430565b6001600160a01b038116600090815260028801602052604090205460ff161561083b5760405162461bcd60e51b815260206004820152601960248201527f7375626d69743a207375626d697474656420616c7265616479000000000000006044820152606401610430565b60018760010160008282546108509190610d42565b90915550506001600160a01b0381166000818152600289016020908152604091829020805460ff1916600117905581518e8152908101929092527fd4964a7cd99f5c1fa8f2420fb5e1d3bd26eadf16e2658cf2e29a67dfda38601e910160405180910390a1600254876001015410610972574360009081526004602090815260408083208e8452600281019092529091205460ff1661093a5760018160000160008282546108fe9190610d42565b909155505060008c81526002820160205260409020805460ff191660019081179091555481541061093a576001818101805460ff191690911790555b4388556040518c81527f2a6b4960c287d4d53a338f9c9a9f830f37e7b66e67a0a958f68be89a4eeb939d9060200160405180910390a1505b5050505050808061098290610d5a565b9150506106c2565b506001808201544360009081526004602052604090209091015460ff166109b3576002546109b7565b6003545b8260010154101592509250509250929050565b6109d56000336104c1565b6109f15760405162461bcd60e51b815260040161043090610ce4565b6106ad600080516020610da2833981519152826105ee565b610a1382826104c1565b610443576000828152602081815260408083206001600160a01b03851684529091529020805460ff19166001179055610a493390565b6001600160a01b0316816001600160a01b0316837f2f8788117e7eff1d82e926ec794901d17c78024a50270940304540a733656f0d60405160405180910390a45050565b610a9782826104c1565b15610443576000828152602081815260408083206001600160a01b0385168085529252808320805460ff1916905551339285917ff6391f5c32d9c69d2a47ea670b442974b53935d1edc7fd64eb21e047a839171b9190a45050565b80356001600160a01b038116811461036257600080fd5b600082601f830112610b19578081fd5b813567ffffffffffffffff811115610b3357610b33610d8b565b610b46601f8201601f1916602001610d11565b818152846020838601011115610b5a578283fd5b816020850160208301379081016020019190915292915050565b600060208284031215610b85578081fd5b610b8e82610af2565b9392505050565b600060208284031215610ba6578081fd5b5035919050565b60008060408385031215610bbf578081fd5b82359150610bcf60208401610af2565b90509250929050565b60008060408385031215610bea578182fd5b8235915060208084013567ffffffffffffffff80821115610c09578384fd5b818601915086601f830112610c1c578384fd5b813581811115610c2e57610c2e610d8b565b610c3b8485830201610d11565b8181528481019250838501865b83811015610c7157610c5f8b888435890101610b09565b85529386019390860190600101610c48565b5096999098509650505050505050565b600060208284031215610c92578081fd5b81356001600160e01b031981168114610b8e578182fd5b600060208284031215610cba578081fd5b813567ffffffffffffffff811115610cd0578182fd5b610cdc84828501610b09565b949350505050565b6020808252601390820152726f6e6c7941646d696e3a2062616420726f6c6560681b604082015260600190565b604051601f8201601f1916810167ffffffffffffffff81118282101715610d3a57610d3a610d8b565b604052919050565b60008219821115610d5557610d55610d75565b500190565b6000600019821415610d6e57610d6e610d75565b5060010190565b634e487b7160e01b600052601160045260246000fd5b634e487b7160e01b600052604160045260246000fdfe68e79a7bf1e0bc45d0a330c573bc367f9cf464fd326078812f301165fbda4ef1a26469706673582212202e6c32d22374bf33bc80d4d95ac13c78b921752d0928ba38b66dd7f1047bb45b64736f6c63430008020033",
  "immutableReferences": {},
  "source": "// SPDX-License-Identifier: MIT\npragma solidity ^0.8.2;\n\nimport \"@openzeppelin/contracts/access/AccessControl.sol\";\nimport \"@openzeppelin/contracts/token/ERC20/IERC20.sol\";\nimport \"../interfaces/ILightVerifier.sol\";\n\ncontract LightVerifier is AccessControl, ILightVerifier {\n    struct BlockConfirmationsInfo {\n        uint256 count; // current oracle admin\n        bool requireExtraCheck; // current oracle admin\n        mapping(bytes32 => bool) isConfirmed; // submission => was confirmed\n    }\n\n    bytes32 public constant ORACLE_ROLE = keccak256(\"ORACLE_ROLE\"); // role allowed to submit the data\n    uint256 public confirmationThreshold; // bonus reward for one submission\n    uint256 public minConfirmations; // minimal required confirmations\n    uint256 public excessConfirmations; // minimal required confirmations in case of too many confirmations\n    mapping(uint256 => BlockConfirmationsInfo) public getConfirmationsPerBlock; // block => confirmations\n\n    modifier onlyAdmin {\n        require(hasRole(DEFAULT_ADMIN_ROLE, msg.sender), \"onlyAdmin: bad role\");\n        _;\n    }\n\n    struct SubmissionInfo {\n        uint256 block; // confirmation block\n        uint256 confirmations; // received confirmations count\n        mapping(address => bool) hasVerified; // verifier => has already voted\n    }\n\n    mapping(bytes32 => SubmissionInfo) public getSubmissionInfo; // submission id => submission info\n\n    event Confirmed(bytes32 submissionId, address operator); // emitted once the submission is confirmed by the only oracle\n    event SubmissionApproved(bytes32 submissionId); // emitted once the submission is confirmed by all the required oracles\n\n    /// @dev Constructor that initializes the most important configurations.\n    /// @param _confirmationThreshold Confirmations per block before extra check enabled.\n    /// @param _minConfirmations Common confirmations count.\n    /// @param _excessConfirmations Confirmations count in case of excess activity.\n    constructor(\n        uint256 _minConfirmations,\n        uint256 _confirmationThreshold,\n        uint256 _excessConfirmations\n    ) {\n        confirmationThreshold = _confirmationThreshold;\n        minConfirmations = _minConfirmations;\n        excessConfirmations = _excessConfirmations;\n        _setupRole(DEFAULT_ADMIN_ROLE, msg.sender);\n    }\n\n    /// @dev Confirms the mint request.\n    /// @param _submissionId Submission identifier.\n    /// @param _signatures Array of signatures by oracles.\n    function submit(bytes32 _submissionId, bytes[] memory _signatures)\n        external\n        override\n        returns (uint256 _confirmations, bool _blockConfirmationPassed)\n    {\n        SubmissionInfo storage submissionInfo =\n            getSubmissionInfo[_submissionId];\n        for (uint256 i = 0; i < _signatures.length; i++) {\n            (bytes32 r, bytes32 s, uint8 v) = splitSignature(_signatures[i]);\n            bytes32 unsignedMsg = getUnsignedMsg(_submissionId);\n            address oracle = ecrecover(unsignedMsg, v, r, s);\n            require(hasRole(ORACLE_ROLE, oracle), \"onlyOracle: bad role\");\n            require(\n                !submissionInfo.hasVerified[oracle],\n                \"submit: submitted already\"\n            );\n            submissionInfo.confirmations += 1;\n            submissionInfo.hasVerified[oracle] = true;\n            emit Confirmed(_submissionId, oracle);\n            if (submissionInfo.confirmations >= minConfirmations) {\n                BlockConfirmationsInfo storage _blockConfirmationsInfo =\n                    getConfirmationsPerBlock[block.number];\n                if (!_blockConfirmationsInfo.isConfirmed[_submissionId]) {\n                    _blockConfirmationsInfo.count += 1;\n                    _blockConfirmationsInfo.isConfirmed[_submissionId] = true;\n                    if (\n                        _blockConfirmationsInfo.count >= confirmationThreshold\n                    ) {\n                        _blockConfirmationsInfo.requireExtraCheck = true;\n                    }\n                }\n                submissionInfo.block = block.number;\n                emit SubmissionApproved(_submissionId);\n            }\n        }\n        return (\n            submissionInfo.confirmations,\n            submissionInfo.confirmations >=\n                (\n                    (getConfirmationsPerBlock[block.number].requireExtraCheck)\n                        ? excessConfirmations\n                        : minConfirmations\n                )\n        );\n    }\n\n    /* ADMIN */\n\n    /// @dev Sets minimal required confirmations.\n    /// @param _minConfirmations Minimal required confirmations.\n    function setMinConfirmations(uint256 _minConfirmations) external onlyAdmin {\n        minConfirmations = _minConfirmations;\n    }\n\n    /// @dev Adds new oracle.\n    /// @param _oracle Oracle address.\n    function addOracle(address _oracle) external onlyAdmin {\n        grantRole(ORACLE_ROLE, _oracle);\n    }\n\n    /// @dev Removes oracle.\n    /// @param _oracle Oracle address.\n    function removeOracle(address _oracle) external onlyAdmin {\n        revokeRole(ORACLE_ROLE, _oracle);\n    }\n\n    /* VIEW */\n\n    /// @dev Returns whether transfer request is confirmed.\n    /// @param _submissionId Submission identifier.\n    /// @return _confirmations number of confirmation.\n    /// @return _blockConfirmationPassed Whether transfer request is confirmed.\n    function getSubmissionConfirmations(bytes32 _submissionId)\n        external\n        view\n        override\n        returns (uint256 _confirmations, bool _blockConfirmationPassed)\n    {\n        SubmissionInfo storage submissionInfo =\n            getSubmissionInfo[_submissionId];\n        BlockConfirmationsInfo storage _blockConfirmationsInfo =\n            getConfirmationsPerBlock[submissionInfo.block];\n        _confirmations = submissionInfo.confirmations;\n        return (\n            _confirmations,\n            _confirmations >=\n                (\n                    (_blockConfirmationsInfo.requireExtraCheck)\n                        ? excessConfirmations\n                        : minConfirmations\n                )\n        );\n    }\n\n    /// @dev Prepares raw msg that was signed by the oracle.\n    /// @param _submissionId Submission identifier.\n    function getUnsignedMsg(bytes32 _submissionId)\n        public\n        pure\n        returns (bytes32)\n    {\n        return\n            keccak256(\n                abi.encodePacked(\n                    \"\\x19Ethereum Signed Message:\\n32\",\n                    _submissionId\n                )\n            );\n    }\n\n    /// @dev Splits signature bytes to r,s,v components.\n    /// @param _signature Signature bytes in format r+s+v.\n    function splitSignature(bytes memory _signature)\n        public\n        pure\n        returns (\n            bytes32 r,\n            bytes32 s,\n            uint8 v\n        )\n    {\n        require(\n            _signature.length == 65,\n            \"splitSignature: invalid signature length\"\n        );\n        assembly {\n            r := mload(add(_signature, 32))\n            s := mload(add(_signature, 64))\n            v := byte(0, mload(add(_signature, 96)))\n        }\n    }\n}\n",
  "sourcePath": "/Users/kstasi/Documents/side/debridge-contracts/contracts/chainlink/LightVerifier.sol",
  "compiler": {
    "name": "solc",
    "version": "0.8.2+commit.661d1103.Emscripten.clang"
  },
  "schemaVersion": "3.3.4",
  "updatedAt": "2021-06-14T05:33:43.687Z",
  "networkType": "ethereum",
  "devdoc": {
    "kind": "dev",
    "methods": {
      "addOracle(address)": {
        "details": "Adds new oracle.",
        "params": {
          "_oracle": "Oracle address."
        }
      },
      "constructor": {
        "details": "Constructor that initializes the most important configurations.",
        "params": {
          "_confirmationThreshold": "Confirmations per block before extra check enabled.",
          "_excessConfirmations": "Confirmations count in case of excess activity.",
          "_minConfirmations": "Common confirmations count."
        }
      },
      "getRoleAdmin(bytes32)": {
        "details": "Returns the admin role that controls `role`. See {grantRole} and {revokeRole}. To change a role's admin, use {_setRoleAdmin}."
      },
      "getSubmissionConfirmations(bytes32)": {
        "details": "Returns whether transfer request is confirmed.",
        "params": {
          "_submissionId": "Submission identifier."
        },
        "returns": {
          "_blockConfirmationPassed": "Whether transfer request is confirmed.",
          "_confirmations": "number of confirmation."
        }
      },
      "getUnsignedMsg(bytes32)": {
        "details": "Prepares raw msg that was signed by the oracle.",
        "params": {
          "_submissionId": "Submission identifier."
        }
      },
      "grantRole(bytes32,address)": {
        "details": "Grants `role` to `account`. If `account` had not been already granted `role`, emits a {RoleGranted} event. Requirements: - the caller must have ``role``'s admin role."
      },
      "hasRole(bytes32,address)": {
        "details": "Returns `true` if `account` has been granted `role`."
      },
      "removeOracle(address)": {
        "details": "Removes oracle.",
        "params": {
          "_oracle": "Oracle address."
        }
      },
      "renounceRole(bytes32,address)": {
        "details": "Revokes `role` from the calling account. Roles are often managed via {grantRole} and {revokeRole}: this function's purpose is to provide a mechanism for accounts to lose their privileges if they are compromised (such as when a trusted device is misplaced). If the calling account had been granted `role`, emits a {RoleRevoked} event. Requirements: - the caller must be `account`."
      },
      "revokeRole(bytes32,address)": {
        "details": "Revokes `role` from `account`. If `account` had been granted `role`, emits a {RoleRevoked} event. Requirements: - the caller must have ``role``'s admin role."
      },
      "setMinConfirmations(uint256)": {
        "details": "Sets minimal required confirmations.",
        "params": {
          "_minConfirmations": "Minimal required confirmations."
        }
      },
      "splitSignature(bytes)": {
        "details": "Splits signature bytes to r,s,v components.",
        "params": {
          "_signature": "Signature bytes in format r+s+v."
        }
      },
      "submit(bytes32,bytes[])": {
        "details": "Confirms the mint request.",
        "params": {
          "_signatures": "Array of signatures by oracles.",
          "_submissionId": "Submission identifier."
        }
      },
      "supportsInterface(bytes4)": {
        "details": "See {IERC165-supportsInterface}."
      }
    },
    "version": 1
  },
  "userdoc": {
    "kind": "user",
    "methods": {},
    "version": 1
  }
}