{
  "contractName": "LightDebridge",
  "abi": [
    {
      "anonymous": false,
      "inputs": [
        {
          "indexed": false,
          "internalType": "bytes32",
          "name": "submissionId",
          "type": "bytes32"
        },
        {
          "indexed": false,
          "internalType": "bytes32",
          "name": "debridgeId",
          "type": "bytes32"
        },
        {
          "indexed": false,
          "internalType": "uint256",
          "name": "amount",
          "type": "uint256"
        },
        {
          "indexed": false,
          "internalType": "address",
          "name": "receiver",
          "type": "address"
        },
        {
          "indexed": false,
          "internalType": "uint256",
          "name": "nonce",
          "type": "uint256"
        },
        {
          "indexed": false,
          "internalType": "uint256",
          "name": "chainIdTo",
          "type": "uint256"
        },
        {
          "indexed": false,
          "internalType": "uint256",
          "name": "claimFee",
          "type": "uint256"
        },
        {
          "indexed": false,
          "internalType": "address",
          "name": "fallbackAddress",
          "type": "address"
        },
        {
          "indexed": false,
          "internalType": "bytes",
          "name": "data",
          "type": "bytes"
        }
      ],
      "name": "AutoBurnt",
      "type": "event"
    },
    {
      "anonymous": false,
      "inputs": [
        {
          "indexed": false,
          "internalType": "bytes32",
          "name": "submissionId",
          "type": "bytes32"
        },
        {
          "indexed": false,
          "internalType": "bool",
          "name": "success",
          "type": "bool"
        }
      ],
      "name": "AutoRequestExecuted",
      "type": "event"
    },
    {
      "anonymous": false,
      "inputs": [
        {
          "indexed": false,
          "internalType": "bytes32",
          "name": "submissionId",
          "type": "bytes32"
        },
        {
          "indexed": false,
          "internalType": "bytes32",
          "name": "debridgeId",
          "type": "bytes32"
        },
        {
          "indexed": false,
          "internalType": "uint256",
          "name": "amount",
          "type": "uint256"
        },
        {
          "indexed": false,
          "internalType": "address",
          "name": "receiver",
          "type": "address"
        },
        {
          "indexed": false,
          "internalType": "uint256",
          "name": "nonce",
          "type": "uint256"
        },
        {
          "indexed": false,
          "internalType": "uint256",
          "name": "chainIdTo",
          "type": "uint256"
        },
        {
          "indexed": false,
          "internalType": "uint256",
          "name": "claimFee",
          "type": "uint256"
        },
        {
          "indexed": false,
          "internalType": "address",
          "name": "fallbackAddress",
          "type": "address"
        },
        {
          "indexed": false,
          "internalType": "bytes",
          "name": "data",
          "type": "bytes"
        }
      ],
      "name": "AutoSent",
      "type": "event"
    },
    {
      "anonymous": false,
      "inputs": [
        {
          "indexed": false,
          "internalType": "bytes32",
          "name": "submissionId",
          "type": "bytes32"
        },
        {
          "indexed": false,
          "internalType": "bytes32",
          "name": "debridgeId",
          "type": "bytes32"
        },
        {
          "indexed": false,
          "internalType": "uint256",
          "name": "amount",
          "type": "uint256"
        },
        {
          "indexed": false,
          "internalType": "address",
          "name": "receiver",
          "type": "address"
        },
        {
          "indexed": false,
          "internalType": "uint256",
          "name": "nonce",
          "type": "uint256"
        },
        {
          "indexed": false,
          "internalType": "uint256",
          "name": "chainIdTo",
          "type": "uint256"
        }
      ],
      "name": "Burnt",
      "type": "event"
    },
    {
      "anonymous": false,
      "inputs": [
        {
          "indexed": false,
          "internalType": "address",
          "name": "callProxy",
          "type": "address"
        }
      ],
      "name": "CallProxyUpdated",
      "type": "event"
    },
    {
      "anonymous": false,
      "inputs": [
        {
          "indexed": true,
          "internalType": "bytes32",
          "name": "debridgeId",
          "type": "bytes32"
        },
        {
          "indexed": true,
          "internalType": "uint256",
          "name": "chainId",
          "type": "uint256"
        }
      ],
      "name": "ChainSupportAdded",
      "type": "event"
    },
    {
      "anonymous": false,
      "inputs": [
        {
          "indexed": true,
          "internalType": "bytes32",
          "name": "debridgeId",
          "type": "bytes32"
        },
        {
          "indexed": true,
          "internalType": "uint256",
          "name": "chainId",
          "type": "uint256"
        }
      ],
      "name": "ChainSupportRemoved",
      "type": "event"
    },
    {
      "anonymous": false,
      "inputs": [
        {
          "indexed": false,
          "internalType": "uint256[]",
          "name": "chainIds",
          "type": "uint256[]"
        }
      ],
      "name": "ChainsSupportUpdated",
      "type": "event"
    },
    {
      "anonymous": false,
      "inputs": [
        {
          "indexed": false,
          "internalType": "bytes32",
          "name": "submissionId",
          "type": "bytes32"
        },
        {
          "indexed": false,
          "internalType": "uint256",
          "name": "amount",
          "type": "uint256"
        },
        {
          "indexed": false,
          "internalType": "address",
          "name": "receiver",
          "type": "address"
        },
        {
          "indexed": false,
          "internalType": "bytes32",
          "name": "debridgeId",
          "type": "bytes32"
        }
      ],
      "name": "Claimed",
      "type": "event"
    },
    {
      "anonymous": false,
      "inputs": [
        {
          "indexed": false,
          "internalType": "bytes32",
          "name": "submissionId",
          "type": "bytes32"
        },
        {
          "indexed": false,
          "internalType": "uint256",
          "name": "amount",
          "type": "uint256"
        },
        {
          "indexed": false,
          "internalType": "address",
          "name": "receiver",
          "type": "address"
        },
        {
          "indexed": false,
          "internalType": "bytes32",
          "name": "debridgeId",
          "type": "bytes32"
        }
      ],
      "name": "Minted",
      "type": "event"
    },
    {
      "anonymous": false,
      "inputs": [
        {
          "indexed": true,
          "internalType": "bytes32",
          "name": "debridgeId",
          "type": "bytes32"
        },
        {
          "indexed": true,
          "internalType": "address",
          "name": "tokenAddress",
          "type": "address"
        },
        {
          "indexed": true,
          "internalType": "uint256",
          "name": "chainId",
          "type": "uint256"
        },
        {
          "indexed": false,
          "internalType": "uint256",
          "name": "minAmount",
          "type": "uint256"
        },
        {
          "indexed": false,
          "internalType": "uint256",
          "name": "maxAmount",
          "type": "uint256"
        },
        {
          "indexed": false,
          "internalType": "uint256",
          "name": "minReserves",
          "type": "uint256"
        }
      ],
      "name": "PairAdded",
      "type": "event"
    },
    {
      "anonymous": false,
      "inputs": [
        {
          "indexed": false,
          "internalType": "address",
          "name": "account",
          "type": "address"
        }
      ],
      "name": "Paused",
      "type": "event"
    },
    {
      "anonymous": false,
      "inputs": [
        {
          "indexed": true,
          "internalType": "bytes32",
          "name": "role",
          "type": "bytes32"
        },
        {
          "indexed": true,
          "internalType": "bytes32",
          "name": "previousAdminRole",
          "type": "bytes32"
        },
        {
          "indexed": true,
          "internalType": "bytes32",
          "name": "newAdminRole",
          "type": "bytes32"
        }
      ],
      "name": "RoleAdminChanged",
      "type": "event"
    },
    {
      "anonymous": false,
      "inputs": [
        {
          "indexed": true,
          "internalType": "bytes32",
          "name": "role",
          "type": "bytes32"
        },
        {
          "indexed": true,
          "internalType": "address",
          "name": "account",
          "type": "address"
        },
        {
          "indexed": true,
          "internalType": "address",
          "name": "sender",
          "type": "address"
        }
      ],
      "name": "RoleGranted",
      "type": "event"
    },
    {
      "anonymous": false,
      "inputs": [
        {
          "indexed": true,
          "internalType": "bytes32",
          "name": "role",
          "type": "bytes32"
        },
        {
          "indexed": true,
          "internalType": "address",
          "name": "account",
          "type": "address"
        },
        {
          "indexed": true,
          "internalType": "address",
          "name": "sender",
          "type": "address"
        }
      ],
      "name": "RoleRevoked",
      "type": "event"
    },
    {
      "anonymous": false,
      "inputs": [
        {
          "indexed": false,
          "internalType": "bytes32",
          "name": "submissionId",
          "type": "bytes32"
        },
        {
          "indexed": false,
          "internalType": "bytes32",
          "name": "debridgeId",
          "type": "bytes32"
        },
        {
          "indexed": false,
          "internalType": "uint256",
          "name": "amount",
          "type": "uint256"
        },
        {
          "indexed": false,
          "internalType": "address",
          "name": "receiver",
          "type": "address"
        },
        {
          "indexed": false,
          "internalType": "uint256",
          "name": "nonce",
          "type": "uint256"
        },
        {
          "indexed": false,
          "internalType": "uint256",
          "name": "chainIdTo",
          "type": "uint256"
        }
      ],
      "name": "Sent",
      "type": "event"
    },
    {
      "anonymous": false,
      "inputs": [
        {
          "indexed": false,
          "internalType": "address",
          "name": "account",
          "type": "address"
        }
      ],
      "name": "Unpaused",
      "type": "event"
    },
    {
      "inputs": [],
      "name": "DEFAULT_ADMIN_ROLE",
      "outputs": [
        {
          "internalType": "bytes32",
          "name": "",
          "type": "bytes32"
        }
      ],
      "stateMutability": "view",
      "type": "function"
    },
    {
      "inputs": [],
      "name": "DENOMINATOR",
      "outputs": [
        {
          "internalType": "uint256",
          "name": "",
          "type": "uint256"
        }
      ],
      "stateMutability": "view",
      "type": "function"
    },
    {
      "inputs": [
        {
          "internalType": "address",
          "name": "_tokenAddress",
          "type": "address"
        },
        {
          "internalType": "address",
          "name": "_wrappedAssetAddress",
          "type": "address"
        },
        {
          "internalType": "uint256",
          "name": "_chainId",
          "type": "uint256"
        },
        {
          "internalType": "uint256",
          "name": "_minAmount",
          "type": "uint256"
        },
        {
          "internalType": "uint256",
          "name": "_maxAmount",
          "type": "uint256"
        },
        {
          "internalType": "uint256",
          "name": "_minReserves",
          "type": "uint256"
        },
        {
          "internalType": "uint256",
          "name": "_amountThreshold",
          "type": "uint256"
        },
        {
          "internalType": "uint256[]",
          "name": "_supportedChainIds",
          "type": "uint256[]"
        },
        {
          "components": [
            {
              "internalType": "bool",
              "name": "isSupported",
              "type": "bool"
            },
            {
              "internalType": "uint256",
              "name": "fixedFee",
              "type": "uint256"
            },
            {
              "internalType": "uint256",
              "name": "transferFee",
              "type": "uint256"
            }
          ],
          "internalType": "struct IDebridge.ChainSupportInfo[]",
          "name": "_chainSupportInfo",
          "type": "tuple[]"
        }
      ],
      "name": "addExternalAsset",
      "outputs": [],
      "stateMutability": "nonpayable",
      "type": "function"
    },
    {
      "inputs": [
        {
          "internalType": "address",
          "name": "_tokenAddress",
          "type": "address"
        },
        {
          "internalType": "uint256",
          "name": "_minAmount",
          "type": "uint256"
        },
        {
          "internalType": "uint256",
          "name": "_maxAmount",
          "type": "uint256"
        },
        {
          "internalType": "uint256",
          "name": "_minReserves",
          "type": "uint256"
        },
        {
          "internalType": "uint256",
          "name": "_amountThreshold",
          "type": "uint256"
        },
        {
          "internalType": "uint256[]",
          "name": "_supportedChainIds",
          "type": "uint256[]"
        },
        {
          "components": [
            {
              "internalType": "bool",
              "name": "isSupported",
              "type": "bool"
            },
            {
              "internalType": "uint256",
              "name": "fixedFee",
              "type": "uint256"
            },
            {
              "internalType": "uint256",
              "name": "transferFee",
              "type": "uint256"
            }
          ],
          "internalType": "struct IDebridge.ChainSupportInfo[]",
          "name": "_chainSupportInfo",
          "type": "tuple[]"
        }
      ],
      "name": "addNativeAsset",
      "outputs": [],
      "stateMutability": "nonpayable",
      "type": "function"
    },
    {
      "inputs": [],
      "name": "aggregator",
      "outputs": [
        {
          "internalType": "address",
          "name": "",
          "type": "address"
        }
      ],
      "stateMutability": "view",
      "type": "function"
    },
    {
      "inputs": [],
      "name": "aggregatorVersion",
      "outputs": [
        {
          "internalType": "uint8",
          "name": "",
          "type": "uint8"
        }
      ],
      "stateMutability": "view",
      "type": "function"
    },
    {
      "inputs": [
        {
          "internalType": "bytes32",
          "name": "_debridgeId",
          "type": "bytes32"
        },
        {
          "internalType": "address",
          "name": "_receiver",
          "type": "address"
        },
        {
          "internalType": "uint256",
          "name": "_amount",
          "type": "uint256"
        },
        {
          "internalType": "uint256",
          "name": "_chainIdTo",
          "type": "uint256"
        },
        {
          "internalType": "address",
          "name": "_fallbackAddress",
          "type": "address"
        },
        {
          "internalType": "uint256",
          "name": "_executionFee",
          "type": "uint256"
        },
        {
          "internalType": "bytes",
          "name": "_data",
          "type": "bytes"
        },
        {
          "internalType": "uint256",
          "name": "_deadline",
          "type": "uint256"
        },
        {
          "internalType": "bytes",
          "name": "_signature",
          "type": "bytes"
        }
      ],
      "name": "autoBurn",
      "outputs": [],
      "stateMutability": "nonpayable",
      "type": "function"
    },
    {
      "inputs": [
        {
          "internalType": "bytes32",
          "name": "_debridgeId",
          "type": "bytes32"
        },
        {
          "internalType": "address",
          "name": "_receiver",
          "type": "address"
        },
        {
          "internalType": "uint256",
          "name": "_amount",
          "type": "uint256"
        },
        {
          "internalType": "uint256",
          "name": "_chainIdTo",
          "type": "uint256"
        },
        {
          "internalType": "address",
          "name": "_fallbackAddress",
          "type": "address"
        },
        {
          "internalType": "uint256",
          "name": "_executionFee",
          "type": "uint256"
        },
        {
          "internalType": "bytes",
          "name": "_data",
          "type": "bytes"
        }
      ],
      "name": "autoSend",
      "outputs": [],
      "stateMutability": "payable",
      "type": "function"
    },
    {
      "inputs": [
        {
          "internalType": "bytes32",
          "name": "_debridgeId",
          "type": "bytes32"
        },
        {
          "internalType": "address",
          "name": "_receiver",
          "type": "address"
        },
        {
          "internalType": "uint256",
          "name": "_amount",
          "type": "uint256"
        },
        {
          "internalType": "uint256",
          "name": "_chainIdTo",
          "type": "uint256"
        },
        {
          "internalType": "uint256",
          "name": "_deadline",
          "type": "uint256"
        },
        {
          "internalType": "bytes",
          "name": "_signature",
          "type": "bytes"
        }
      ],
      "name": "burn",
      "outputs": [],
      "stateMutability": "nonpayable",
      "type": "function"
    },
    {
      "inputs": [],
      "name": "callProxy",
      "outputs": [
        {
          "internalType": "address",
          "name": "",
          "type": "address"
        }
      ],
      "stateMutability": "view",
      "type": "function"
    },
    {
      "inputs": [],
      "name": "chainId",
      "outputs": [
        {
          "internalType": "uint256",
          "name": "",
          "type": "uint256"
        }
      ],
      "stateMutability": "view",
      "type": "function"
    },
    {
      "inputs": [
        {
          "internalType": "uint256",
          "name": "",
          "type": "uint256"
        }
      ],
      "name": "chainIds",
      "outputs": [
        {
          "internalType": "uint256",
          "name": "",
          "type": "uint256"
        }
      ],
      "stateMutability": "view",
      "type": "function"
    },
    {
      "inputs": [],
      "name": "defiController",
      "outputs": [
        {
          "internalType": "contract IDefiController",
          "name": "",
          "type": "address"
        }
      ],
      "stateMutability": "view",
      "type": "function"
    },
    {
      "inputs": [],
      "name": "excessConfirmations",
      "outputs": [
        {
          "internalType": "uint256",
          "name": "",
          "type": "uint256"
        }
      ],
      "stateMutability": "view",
      "type": "function"
    },
    {
      "inputs": [
        {
          "internalType": "bytes32",
          "name": "",
          "type": "bytes32"
        }
      ],
      "name": "getAmountThreshold",
      "outputs": [
        {
          "internalType": "uint256",
          "name": "",
          "type": "uint256"
        }
      ],
      "stateMutability": "view",
      "type": "function"
    },
    {
      "inputs": [
        {
          "internalType": "bytes32",
          "name": "_debridgeId",
          "type": "bytes32"
        },
        {
          "internalType": "uint256",
          "name": "_chainIdFrom",
          "type": "uint256"
        },
        {
          "internalType": "uint256",
          "name": "_chainIdTo",
          "type": "uint256"
        },
        {
          "internalType": "uint256",
          "name": "_amount",
          "type": "uint256"
        },
        {
          "internalType": "address",
          "name": "_receiver",
          "type": "address"
        },
        {
          "internalType": "uint256",
          "name": "_nonce",
          "type": "uint256"
        },
        {
          "internalType": "address",
          "name": "_fallbackAddress",
          "type": "address"
        },
        {
          "internalType": "uint256",
          "name": "_executionFee",
          "type": "uint256"
        },
        {
          "internalType": "bytes",
          "name": "_data",
          "type": "bytes"
        }
      ],
      "name": "getAutoSubmisionId",
      "outputs": [
        {
          "internalType": "bytes32",
          "name": "",
          "type": "bytes32"
        }
      ],
      "stateMutability": "pure",
      "type": "function"
    },
    {
      "inputs": [
        {
          "internalType": "address",
          "name": "_tokenAddress",
          "type": "address"
        }
      ],
      "name": "getBalance",
      "outputs": [
        {
          "internalType": "uint256",
          "name": "",
          "type": "uint256"
        }
      ],
      "stateMutability": "view",
      "type": "function"
    },
    {
      "inputs": [
        {
          "internalType": "bytes32",
          "name": "_debridgeId",
          "type": "bytes32"
        },
        {
          "internalType": "uint256",
          "name": "_chainId",
          "type": "uint256"
        }
      ],
      "name": "getChainIdSupport",
      "outputs": [
        {
          "components": [
            {
              "internalType": "bool",
              "name": "isSupported",
              "type": "bool"
            },
            {
              "internalType": "uint256",
              "name": "fixedFee",
              "type": "uint256"
            },
            {
              "internalType": "uint256",
              "name": "transferFee",
              "type": "uint256"
            }
          ],
          "internalType": "struct IDebridge.ChainSupportInfo",
          "name": "",
          "type": "tuple"
        }
      ],
      "stateMutability": "view",
      "type": "function"
    },
    {
      "inputs": [
        {
          "internalType": "bytes32",
          "name": "",
          "type": "bytes32"
        }
      ],
      "name": "getDebridge",
      "outputs": [
        {
          "internalType": "address",
          "name": "tokenAddress",
          "type": "address"
        },
        {
          "internalType": "uint256",
          "name": "chainId",
          "type": "uint256"
        },
        {
          "internalType": "uint256",
          "name": "minAmount",
          "type": "uint256"
        },
        {
          "internalType": "uint256",
          "name": "maxAmount",
          "type": "uint256"
        },
        {
          "internalType": "uint256",
          "name": "collectedFees",
          "type": "uint256"
        },
        {
          "internalType": "uint256",
          "name": "balance",
          "type": "uint256"
        },
        {
          "internalType": "uint256",
          "name": "minReserves",
          "type": "uint256"
        }
      ],
      "stateMutability": "view",
      "type": "function"
    },
    {
      "inputs": [
        {
          "internalType": "uint256",
          "name": "_chainId",
          "type": "uint256"
        },
        {
          "internalType": "address",
          "name": "_tokenAddress",
          "type": "address"
        }
      ],
      "name": "getDebridgeId",
      "outputs": [
        {
          "internalType": "bytes32",
          "name": "",
          "type": "bytes32"
        }
      ],
      "stateMutability": "pure",
      "type": "function"
    },
    {
      "inputs": [
        {
          "internalType": "uint8",
          "name": "",
          "type": "uint8"
        }
      ],
      "name": "getOldAggregator",
      "outputs": [
        {
          "internalType": "address",
          "name": "aggregator",
          "type": "address"
        },
        {
          "internalType": "bool",
          "name": "isValid",
          "type": "bool"
        }
      ],
      "stateMutability": "view",
      "type": "function"
    },
    {
      "inputs": [
        {
          "internalType": "bytes32",
          "name": "role",
          "type": "bytes32"
        }
      ],
      "name": "getRoleAdmin",
      "outputs": [
        {
          "internalType": "bytes32",
          "name": "",
          "type": "bytes32"
        }
      ],
      "stateMutability": "view",
      "type": "function"
    },
    {
      "inputs": [
        {
          "internalType": "bytes32",
          "name": "_debridgeId",
          "type": "bytes32"
        },
        {
          "internalType": "uint256",
          "name": "_chainIdFrom",
          "type": "uint256"
        },
        {
          "internalType": "uint256",
          "name": "_chainIdTo",
          "type": "uint256"
        },
        {
          "internalType": "uint256",
          "name": "_amount",
          "type": "uint256"
        },
        {
          "internalType": "address",
          "name": "_receiver",
          "type": "address"
        },
        {
          "internalType": "uint256",
          "name": "_nonce",
          "type": "uint256"
        }
      ],
      "name": "getSubmisionId",
      "outputs": [
        {
          "internalType": "bytes32",
          "name": "",
          "type": "bytes32"
        }
      ],
      "stateMutability": "pure",
      "type": "function"
    },
    {
      "inputs": [
        {
          "internalType": "address",
          "name": "",
          "type": "address"
        }
      ],
      "name": "getUserNonce",
      "outputs": [
        {
          "internalType": "uint256",
          "name": "",
          "type": "uint256"
        }
      ],
      "stateMutability": "view",
      "type": "function"
    },
    {
      "inputs": [
        {
          "internalType": "bytes32",
          "name": "role",
          "type": "bytes32"
        },
        {
          "internalType": "address",
          "name": "account",
          "type": "address"
        }
      ],
      "name": "grantRole",
      "outputs": [],
      "stateMutability": "nonpayable",
      "type": "function"
    },
    {
      "inputs": [
        {
          "internalType": "bytes32",
          "name": "role",
          "type": "bytes32"
        },
        {
          "internalType": "address",
          "name": "account",
          "type": "address"
        }
      ],
      "name": "hasRole",
      "outputs": [
        {
          "internalType": "bool",
          "name": "",
          "type": "bool"
        }
      ],
      "stateMutability": "view",
      "type": "function"
    },
    {
      "inputs": [
        {
          "internalType": "bytes32",
          "name": "",
          "type": "bytes32"
        }
      ],
      "name": "isSubmissionUsed",
      "outputs": [
        {
          "internalType": "bool",
          "name": "",
          "type": "bool"
        }
      ],
      "stateMutability": "view",
      "type": "function"
    },
    {
      "inputs": [
        {
          "internalType": "uint8",
          "name": "_aggregatorVersion",
          "type": "uint8"
        },
        {
          "internalType": "bool",
          "name": "_isValid",
          "type": "bool"
        }
      ],
      "name": "manageOldAggregator",
      "outputs": [],
      "stateMutability": "nonpayable",
      "type": "function"
    },
    {
      "inputs": [],
      "name": "pause",
      "outputs": [],
      "stateMutability": "nonpayable",
      "type": "function"
    },
    {
      "inputs": [],
      "name": "paused",
      "outputs": [
        {
          "internalType": "bool",
          "name": "",
          "type": "bool"
        }
      ],
      "stateMutability": "view",
      "type": "function"
    },
    {
      "inputs": [
        {
          "internalType": "bytes32",
          "name": "role",
          "type": "bytes32"
        },
        {
          "internalType": "address",
          "name": "account",
          "type": "address"
        }
      ],
      "name": "renounceRole",
      "outputs": [],
      "stateMutability": "nonpayable",
      "type": "function"
    },
    {
      "inputs": [
        {
          "internalType": "address",
          "name": "_tokenAddress",
          "type": "address"
        },
        {
          "internalType": "uint256",
          "name": "_amount",
          "type": "uint256"
        }
      ],
      "name": "requestReserves",
      "outputs": [],
      "stateMutability": "nonpayable",
      "type": "function"
    },
    {
      "inputs": [
        {
          "internalType": "address",
          "name": "_tokenAddress",
          "type": "address"
        },
        {
          "internalType": "uint256",
          "name": "_amount",
          "type": "uint256"
        }
      ],
      "name": "returnReserves",
      "outputs": [],
      "stateMutability": "payable",
      "type": "function"
    },
    {
      "inputs": [
        {
          "internalType": "bytes32",
          "name": "role",
          "type": "bytes32"
        },
        {
          "internalType": "address",
          "name": "account",
          "type": "address"
        }
      ],
      "name": "revokeRole",
      "outputs": [],
      "stateMutability": "nonpayable",
      "type": "function"
    },
    {
      "inputs": [
        {
          "internalType": "bytes32",
          "name": "_debridgeId",
          "type": "bytes32"
        },
        {
          "internalType": "address",
          "name": "_receiver",
          "type": "address"
        },
        {
          "internalType": "uint256",
          "name": "_amount",
          "type": "uint256"
        },
        {
          "internalType": "uint256",
          "name": "_chainIdTo",
          "type": "uint256"
        }
      ],
      "name": "send",
      "outputs": [],
      "stateMutability": "payable",
      "type": "function"
    },
    {
      "inputs": [
        {
          "internalType": "address",
          "name": "_aggregator",
          "type": "address"
        }
      ],
      "name": "setAggregator",
      "outputs": [],
      "stateMutability": "nonpayable",
      "type": "function"
    },
    {
      "inputs": [
        {
          "internalType": "address",
          "name": "_callProxy",
          "type": "address"
        }
      ],
      "name": "setCallProxy",
      "outputs": [],
      "stateMutability": "nonpayable",
      "type": "function"
    },
    {
      "inputs": [
        {
          "internalType": "bytes32",
          "name": "_debridgeId",
          "type": "bytes32"
        },
        {
          "internalType": "uint256",
          "name": "_chainId",
          "type": "uint256"
        },
        {
          "internalType": "bool",
          "name": "_isSupported",
          "type": "bool"
        }
      ],
      "name": "setChainIdSupport",
      "outputs": [],
      "stateMutability": "nonpayable",
      "type": "function"
    },
    {
      "inputs": [
        {
          "internalType": "uint256[]",
          "name": "_chainIds",
          "type": "uint256[]"
        }
      ],
      "name": "setChainIds",
      "outputs": [],
      "stateMutability": "nonpayable",
      "type": "function"
    },
    {
      "inputs": [
        {
          "internalType": "contract IDefiController",
          "name": "_defiController",
          "type": "address"
        }
      ],
      "name": "setDefiController",
      "outputs": [],
      "stateMutability": "nonpayable",
      "type": "function"
    },
    {
      "inputs": [
        {
          "internalType": "bytes",
          "name": "_signature",
          "type": "bytes"
        }
      ],
      "name": "splitSignature",
      "outputs": [
        {
          "internalType": "bytes32",
          "name": "r",
          "type": "bytes32"
        },
        {
          "internalType": "bytes32",
          "name": "s",
          "type": "bytes32"
        },
        {
          "internalType": "uint8",
          "name": "v",
          "type": "uint8"
        }
      ],
      "stateMutability": "pure",
      "type": "function"
    },
    {
      "inputs": [
        {
          "internalType": "bytes4",
          "name": "interfaceId",
          "type": "bytes4"
        }
      ],
      "name": "supportsInterface",
      "outputs": [
        {
          "internalType": "bool",
          "name": "",
          "type": "bool"
        }
      ],
      "stateMutability": "view",
      "type": "function"
    },
    {
      "inputs": [],
      "name": "unpause",
      "outputs": [],
      "stateMutability": "nonpayable",
      "type": "function"
    },
    {
      "inputs": [
        {
          "internalType": "bytes32",
          "name": "_debridgeId",
          "type": "bytes32"
        },
        {
          "internalType": "uint256",
          "name": "_minAmount",
          "type": "uint256"
        },
        {
          "internalType": "uint256",
          "name": "_maxAmount",
          "type": "uint256"
        },
        {
          "internalType": "uint256",
          "name": "_minReserves",
          "type": "uint256"
        },
        {
          "internalType": "uint256",
          "name": "_amountThreshold",
          "type": "uint256"
        }
      ],
      "name": "updateAsset",
      "outputs": [],
      "stateMutability": "nonpayable",
      "type": "function"
    },
    {
      "inputs": [
        {
          "internalType": "bytes32",
          "name": "_debridgeId",
          "type": "bytes32"
        },
        {
          "internalType": "uint256[]",
          "name": "_supportedChainIds",
          "type": "uint256[]"
        },
        {
          "components": [
            {
              "internalType": "bool",
              "name": "isSupported",
              "type": "bool"
            },
            {
              "internalType": "uint256",
              "name": "fixedFee",
              "type": "uint256"
            },
            {
              "internalType": "uint256",
              "name": "transferFee",
              "type": "uint256"
            }
          ],
          "internalType": "struct IDebridge.ChainSupportInfo[]",
          "name": "_chainSupportInfo",
          "type": "tuple[]"
        }
      ],
      "name": "updateAsset",
      "outputs": [],
      "stateMutability": "nonpayable",
      "type": "function"
    },
    {
      "inputs": [
        {
          "internalType": "bytes32",
          "name": "_debridgeId",
          "type": "bytes32"
        },
        {
          "internalType": "address",
          "name": "_receiver",
          "type": "address"
        },
        {
          "internalType": "uint256",
          "name": "_amount",
          "type": "uint256"
        }
      ],
      "name": "withdrawFee",
      "outputs": [],
      "stateMutability": "nonpayable",
      "type": "function"
    },
    {
      "inputs": [
        {
          "internalType": "uint256",
          "name": "_excessConfirmations",
          "type": "uint256"
        },
        {
          "internalType": "uint256",
          "name": "_minAmount",
          "type": "uint256"
        },
        {
          "internalType": "uint256",
          "name": "_maxAmount",
          "type": "uint256"
        },
        {
          "internalType": "uint256",
          "name": "_minReserves",
          "type": "uint256"
        },
        {
          "internalType": "uint256",
          "name": "_amountThreshold",
          "type": "uint256"
        },
        {
          "internalType": "address",
          "name": "_aggregator",
          "type": "address"
        },
        {
          "internalType": "address",
          "name": "_callProxy",
          "type": "address"
        },
        {
          "internalType": "uint256[]",
          "name": "_supportedChainIds",
          "type": "uint256[]"
        },
        {
          "components": [
            {
              "internalType": "bool",
              "name": "isSupported",
              "type": "bool"
            },
            {
              "internalType": "uint256",
              "name": "fixedFee",
              "type": "uint256"
            },
            {
              "internalType": "uint256",
              "name": "transferFee",
              "type": "uint256"
            }
          ],
          "internalType": "struct IDebridge.ChainSupportInfo[]",
          "name": "_chainSupportInfo",
          "type": "tuple[]"
        },
        {
          "internalType": "contract IDefiController",
          "name": "_defiController",
          "type": "address"
        }
      ],
      "name": "initialize",
      "outputs": [],
      "stateMutability": "payable",
      "type": "function"
    },
    {
      "inputs": [
        {
          "internalType": "bytes32",
          "name": "_debridgeId",
          "type": "bytes32"
        },
        {
          "internalType": "uint256",
          "name": "_chainIdFrom",
          "type": "uint256"
        },
        {
          "internalType": "address",
          "name": "_receiver",
          "type": "address"
        },
        {
          "internalType": "uint256",
          "name": "_amount",
          "type": "uint256"
        },
        {
          "internalType": "uint256",
          "name": "_nonce",
          "type": "uint256"
        },
        {
          "internalType": "bytes[]",
          "name": "_signatures",
          "type": "bytes[]"
        },
        {
          "internalType": "address",
          "name": "_fallbackAddress",
          "type": "address"
        },
        {
          "internalType": "uint256",
          "name": "_executionFee",
          "type": "uint256"
        },
        {
          "internalType": "bytes",
          "name": "_data",
          "type": "bytes"
        }
      ],
      "name": "autoMint",
      "outputs": [],
      "stateMutability": "nonpayable",
      "type": "function"
    },
    {
      "inputs": [
        {
          "internalType": "bytes32",
          "name": "_debridgeId",
          "type": "bytes32"
        },
        {
          "internalType": "uint256",
          "name": "_chainIdFrom",
          "type": "uint256"
        },
        {
          "internalType": "address",
          "name": "_receiver",
          "type": "address"
        },
        {
          "internalType": "uint256",
          "name": "_amount",
          "type": "uint256"
        },
        {
          "internalType": "uint256",
          "name": "_nonce",
          "type": "uint256"
        },
        {
          "internalType": "bytes[]",
          "name": "_signatures",
          "type": "bytes[]"
        },
        {
          "internalType": "address",
          "name": "_fallbackAddress",
          "type": "address"
        },
        {
          "internalType": "uint256",
          "name": "_executionFee",
          "type": "uint256"
        },
        {
          "internalType": "bytes",
          "name": "_data",
          "type": "bytes"
        },
        {
          "internalType": "uint8",
          "name": "_aggregatorVersion",
          "type": "uint8"
        }
      ],
      "name": "autoMintWithOldAggregator",
      "outputs": [],
      "stateMutability": "nonpayable",
      "type": "function"
    },
    {
      "inputs": [
        {
          "internalType": "bytes32",
          "name": "_debridgeId",
          "type": "bytes32"
        },
        {
          "internalType": "uint256",
          "name": "_chainIdFrom",
          "type": "uint256"
        },
        {
          "internalType": "address",
          "name": "_receiver",
          "type": "address"
        },
        {
          "internalType": "uint256",
          "name": "_amount",
          "type": "uint256"
        },
        {
          "internalType": "uint256",
          "name": "_nonce",
          "type": "uint256"
        },
        {
          "internalType": "bytes[]",
          "name": "_signatures",
          "type": "bytes[]"
        }
      ],
      "name": "mint",
      "outputs": [],
      "stateMutability": "nonpayable",
      "type": "function"
    },
    {
      "inputs": [
        {
          "internalType": "bytes32",
          "name": "_debridgeId",
          "type": "bytes32"
        },
        {
          "internalType": "uint256",
          "name": "_chainIdFrom",
          "type": "uint256"
        },
        {
          "internalType": "address",
          "name": "_receiver",
          "type": "address"
        },
        {
          "internalType": "uint256",
          "name": "_amount",
          "type": "uint256"
        },
        {
          "internalType": "uint256",
          "name": "_nonce",
          "type": "uint256"
        },
        {
          "internalType": "bytes[]",
          "name": "_signatures",
          "type": "bytes[]"
        },
        {
          "internalType": "uint8",
          "name": "_aggregatorVersion",
          "type": "uint8"
        }
      ],
      "name": "mintWithOldAggregator",
      "outputs": [],
      "stateMutability": "nonpayable",
      "type": "function"
    },
    {
      "inputs": [
        {
          "internalType": "bytes32",
          "name": "_debridgeId",
          "type": "bytes32"
        },
        {
          "internalType": "uint256",
          "name": "_chainIdFrom",
          "type": "uint256"
        },
        {
          "internalType": "address",
          "name": "_receiver",
          "type": "address"
        },
        {
          "internalType": "uint256",
          "name": "_amount",
          "type": "uint256"
        },
        {
          "internalType": "uint256",
          "name": "_nonce",
          "type": "uint256"
        },
        {
          "internalType": "bytes[]",
          "name": "_signatures",
          "type": "bytes[]"
        }
      ],
      "name": "claim",
      "outputs": [],
      "stateMutability": "nonpayable",
      "type": "function"
    },
    {
      "inputs": [
        {
          "internalType": "bytes32",
          "name": "_debridgeId",
          "type": "bytes32"
        },
        {
          "internalType": "uint256",
          "name": "_chainIdFrom",
          "type": "uint256"
        },
        {
          "internalType": "address",
          "name": "_receiver",
          "type": "address"
        },
        {
          "internalType": "uint256",
          "name": "_amount",
          "type": "uint256"
        },
        {
          "internalType": "uint256",
          "name": "_nonce",
          "type": "uint256"
        },
        {
          "internalType": "bytes[]",
          "name": "_signatures",
          "type": "bytes[]"
        },
        {
          "internalType": "address",
          "name": "_fallbackAddress",
          "type": "address"
        },
        {
          "internalType": "uint256",
          "name": "_executionFee",
          "type": "uint256"
        },
        {
          "internalType": "bytes",
          "name": "_data",
          "type": "bytes"
        }
      ],
      "name": "autoClaim",
      "outputs": [],
      "stateMutability": "nonpayable",
      "type": "function"
    },
    {
      "inputs": [
        {
          "internalType": "bytes32",
          "name": "_debridgeId",
          "type": "bytes32"
        },
        {
          "internalType": "uint256",
          "name": "_chainIdFrom",
          "type": "uint256"
        },
        {
          "internalType": "address",
          "name": "_receiver",
          "type": "address"
        },
        {
          "internalType": "uint256",
          "name": "_amount",
          "type": "uint256"
        },
        {
          "internalType": "uint256",
          "name": "_nonce",
          "type": "uint256"
        },
        {
          "internalType": "bytes[]",
          "name": "_signatures",
          "type": "bytes[]"
        },
        {
          "internalType": "address",
          "name": "_fallbackAddress",
          "type": "address"
        },
        {
          "internalType": "uint256",
          "name": "_executionFee",
          "type": "uint256"
        },
        {
          "internalType": "bytes",
          "name": "_data",
          "type": "bytes"
        },
        {
          "internalType": "uint8",
          "name": "_aggregatorVersion",
          "type": "uint8"
        }
      ],
      "name": "autoClaimWithOldAggregator",
      "outputs": [],
      "stateMutability": "nonpayable",
      "type": "function"
    },
    {
      "inputs": [
        {
          "internalType": "bytes32",
          "name": "_debridgeId",
          "type": "bytes32"
        },
        {
          "internalType": "uint256",
          "name": "_chainIdFrom",
          "type": "uint256"
        },
        {
          "internalType": "address",
          "name": "_receiver",
          "type": "address"
        },
        {
          "internalType": "uint256",
          "name": "_amount",
          "type": "uint256"
        },
        {
          "internalType": "uint256",
          "name": "_nonce",
          "type": "uint256"
        },
        {
          "internalType": "bytes[]",
          "name": "_signatures",
          "type": "bytes[]"
        },
        {
          "internalType": "uint8",
          "name": "_aggregatorVersion",
          "type": "uint8"
        }
      ],
      "name": "claimWithOldAggregator",
      "outputs": [],
      "stateMutability": "nonpayable",
      "type": "function"
    }
  ],
  "bytecode": "0x608060405234801561001057600080fd5b506153df806100206000396000f3fe6080604052600436106103505760003560e01c80636b7cbb69116101c6578063b9b55652116100f7578063e562904d11610095578063f30d9ea41161006f578063f30d9ea414610ad5578063f8b2cb4f14610af5578063f9120af614610b15578063f9e032c414610b3557610350565b8063e562904d14610a68578063e836a7a914610a88578063f00966ec14610ab557610350565b8063d1e39513116100d1578063d1e39513146109b1578063d311f656146109f5578063d547741f14610a28578063d9deec4d14610a4857610350565b8063b9b556521461095b578063be7f218414610971578063bf3d73411461099157610350565b80639682b90911610164578063a7bb58031161013e578063a7bb5803146108bd578063a867566c146108fb578063b4ccbfd31461091b578063b4ebd5601461093b57610350565b80639682b909146108725780639a8a059214610892578063a217fddf146108a857610350565b8063841b162b116101a0578063841b162b146107c05780638456cb5914610821578063918f86741461083657806391d148541461085257610350565b80636b7cbb691461076d57806376d8e49d1461078d57806383d3f95d146107a057610350565b806334497b09116102a057806357cf07ca1161023e57806365ac9f781161021857806365ac9f78146106dd57806365f3b0c71461070d5780636834e3a81461072d5780636b063d651461075a57610350565b806357cf07ca146105fd578063598a2a4f1461069e5780635c975abb146106be57610350565b806340768e1f1161027a57806340768e1f1461057d57806340b515af1461059d57806346144c8f146105bd57806354c54736146105dd57610350565b806334497b091461052857806336568abe146105485780633f4ba83a1461056857610350565b806321d930901161030d5780632a489cbe116102e75780632a489cbe146104a85780632b0d0a8b146104c85780632da688ac146104e85780632f2ff15d1461050857610350565b806321d9309014610412578063245a7bfc14610440578063248a9ca31461047857610350565b806301ffc9a714610355578063031ac6131461038a5780630a0e5e9a1461039f5780630c71531d146103bf578063106f432f146103df5780631d01daae146103ff575b600080fd5b34801561036157600080fd5b50610375610370366004614cb4565b610b55565b60405190151581526020015b60405180910390f35b61039d61039836600461467f565b610b8e565b005b3480156103ab57600080fd5b5061039d6103ba366004614b64565b610c92565b3480156103cb57600080fd5b5061039d6103da3660046148d4565b610d52565b3480156103eb57600080fd5b5061039d6103fa36600461441d565b610ed5565b61039d61040d366004614d4a565b610f1e565b34801561041e57600080fd5b5061043261042d366004614601565b610ff5565b604051908152602001610381565b34801561044c57600080fd5b50600454610460906001600160a01b031681565b6040516001600160a01b039091168152602001610381565b34801561048457600080fd5b50610432610493366004614601565b60009081526020819052604090206001015490565b3480156104b457600080fd5b5061039d6104c3366004614732565b611016565b3480156104d457600080fd5b5061039d6104e336600461441d565b6111a4565b3480156104f457600080fd5b50600554610460906001600160a01b031681565b34801561051457600080fd5b5061039d610523366004614619565b611220565b34801561053457600080fd5b5061039d6105433660046148d4565b6112af565b34801561055457600080fd5b5061039d610563366004614619565b611427565b34801561057457600080fd5b5061039d6114a1565b34801561058957600080fd5b5061039d610598366004614ada565b611527565b3480156105a957600080fd5b5061039d6105b8366004614439565b61175f565b3480156105c957600080fd5b50600754610460906001600160a01b031681565b3480156105e957600080fd5b5061039d6105f836600461451a565b6117b1565b34801561060957600080fd5b5061065f610618366004614601565b60086020526000908152604090208054600182015460028301546003840154600485015460058601546006909601546001600160a01b039095169593949293919290919087565b604080516001600160a01b0390981688526020880196909652948601939093526060850191909152608084015260a083015260c082015260e001610381565b3480156106aa57600080fd5b5061039d6106b9366004614a0c565b6117fb565b3480156106ca57600080fd5b5061037560015462010000900460ff1690565b3480156106e957600080fd5b506103756106f8366004614601565b60096020526000908152604090205460ff1681565b34801561071957600080fd5b5061039d610728366004614c7a565b6119e1565b34801561073957600080fd5b5061043261074836600461441d565b600a6020526000908152604090205481565b61039d6107683660046144ef565b611a3d565b34801561077957600080fd5b5061039d610788366004614e28565b611adf565b61039d61079b3660046146bb565b611ba2565b3480156107ac57600080fd5b5061039d6107bb366004614648565b611d2c565b3480156107cc57600080fd5b506108026107db366004614e0e565b600b602052600090815260409020546001600160a01b03811690600160a01b900460ff1682565b604080516001600160a01b039093168352901515602083015201610381565b34801561082d57600080fd5b5061039d611e42565b34801561084257600080fd5b50610432670de0b6b3a764000081565b34801561085e57600080fd5b5061037561086d366004614619565b611ea0565b34801561087e57600080fd5b5061043261088d366004614619565b611ec9565b34801561089e57600080fd5b5061043260025481565b3480156108b457600080fd5b50610432600081565b3480156108c957600080fd5b506108dd6108d8366004614cdc565b611f17565b60408051938452602084019290925260ff1690820152606001610381565b34801561090757600080fd5b5061039d61091636600461494e565b611f9c565b34801561092757600080fd5b5061039d61093636600461484a565b612106565b34801561094757600080fd5b5061039d6109563660046147d8565b6121ec565b34801561096757600080fd5b5061043260035481565b34801561097d57600080fd5b5061039d61098c3660046144ef565b6122eb565b34801561099d57600080fd5b506104326109ac366004614b9c565b61247b565b3480156109bd57600080fd5b506109d16109cc3660046148b3565b6124d9565b60408051825115158152602080840151908201529181015190820152606001610381565b348015610a0157600080fd5b50600554610a1690600160a01b900460ff1681565b60405160ff9091168152602001610381565b348015610a3457600080fd5b5061039d610a43366004614619565b612547565b348015610a5457600080fd5b5061039d610a6336600461494e565b6125c7565b348015610a7457600080fd5b5061039d610a833660046145b3565b612731565b348015610a9457600080fd5b50610432610aa3366004614601565b600c6020526000908152604090205481565b348015610ac157600080fd5b5061039d610ad0366004614a0c565b61279b565b348015610ae157600080fd5b5061039d610af0366004614ada565b61292c565b348015610b0157600080fd5b50610432610b1036600461441d565b612aa7565b348015610b2157600080fd5b5061039d610b3036600461441d565b612b3c565b348015610b4157600080fd5b50610432610b50366004614bf0565b612c0c565b60006001600160e01b03198216637965db0b60e01b1480610b8657506301ffc9a760e01b6001600160e01b03198316145b90505b919050565b610ba060015462010000900460ff1690565b15610bc65760405162461bcd60e51b8152600401610bbd906151d8565b60405180910390fd5b610bd1848383612c54565b6001600160a01b0384166000908152600a602052604081205460025492945091610c009087908587898761247b565b60408051828152602081018990529081018690526001600160a01b03871660608201526080810184905260a081018590529091507f17c61cb89b62a3f29f5b150e3489c7a796ac4dc95fd73af14faa2c8086a324b49060c00160405180910390a16001600160a01b0385166000908152600a60205260408120805491610c858361531c565b9190505550505050505050565b610c9d600033611ea0565b610cb95760405162461bcd60e51b8152600401610bbd90615202565b600083815260086020908152604080832085845260078101909252909120805460ff19168315801591909117909155610d1e57604051839085907fdd4dbf80f57aa5115a1e07abb36e4de565879d4de5bd15b3803d666fe1d8486390600090a3610d4c565b604051839085907f86c512831f7a2aad3f56b4169c161be1028776ab950c72e26237a0310ded560690600090a35b50505050565b6000610d648888600254888a8961247b565b6004805460405163f91aa31760e01b815292935060009283926001600160a01b039092169163f91aa31791610d9f9187918a918a9101614fec565b6040805180830381600087803b158015610db857600080fd5b505af1158015610dcc573d6000803e3d6000fd5b505050506040513d601f19601f82011682018060405250810190610df09190614d26565b9150915080610e385760405162461bcd60e51b815260206004820152601460248201527318db185a5b4e881b9bdd0818dbdb999a5c9b595960621b6044820152606401610bbd565b60008a8152600c60205260409020548710610e9f57600354821015610e9f5760405162461bcd60e51b815260206004820152601b60248201527f636c61696d3a20616d6f756e74206e6f7420636f6e6669726d656400000000006044820152606401610bbd565b5050610ecb8189888860008060405180604001604052806002815260200161060f60f31b815250612f1a565b5050505050505050565b610ee0600033611ea0565b610efc5760405162461bcd60e51b8152600401610bbd90615202565b600780546001600160a01b0319166001600160a01b0392909216919091179055565b600154610100900460ff1680610f37575060015460ff16155b610f9a5760405162461bcd60e51b815260206004820152602e60248201527f496e697469616c697a61626c653a20636f6e747261637420697320616c72656160448201526d191e481a5b9a5d1a585b1a5e995960921b6064820152608401610bbd565b600154610100900460ff16158015610fc4576001805460ff1961ff00199091166101001716811790555b610fd68b8b8b8b8b8b8b8b8b8b6132d9565b8015610fe8576001805461ff00191690555b5050505050505050505050565b6006818154811061100557600080fd5b600091825260209091200154905081565b61102860015462010000900460ff1690565b156110455760405162461bcd60e51b8152600401610bbd906151d8565b8361108a5760405162461bcd60e51b81526020600482015260156024820152746175746f4275726e3a2066656520746f6f206c6f7760581b6044820152606401610bbd565b6110978988888585613370565b9650838710156110e95760405162461bcd60e51b815260206004820152601f60248201527f6175746f4275726e3a2070726f706f7365642066656520746f6f2068696768006044820152606401610bbd565b6110f384886152d9565b6001600160a01b0389166000908152600a602052604081205460025492995091611125908c908a8c8e878d8d8d612c0c565b90507f162d1eb996f3c086a0e61e84fd83d43819c49672c1f91d948c6b5df1fad617a3818c8b8d868d8c8e8d6040516111669998979695949392919061508d565b60405180910390a16001600160a01b038a166000908152600a602052604081208054916111928361531c565b91905055505050505050505050505050565b6111af600033611ea0565b6111cb5760405162461bcd60e51b8152600401610bbd90615202565b600580546001600160a01b0319166001600160a01b0383169081179091556040519081527fa9543b36462a5e2c2259a14d72a8bd4e2342eaf9d7c828e9fb86921b3aa3eb5f906020015b60405180910390a150565b60008281526020819052604090206001015461123d905b3361086d565b6112a15760405162461bcd60e51b815260206004820152602f60248201527f416363657373436f6e74726f6c3a2073656e646572206d75737420626520616e60448201526e0818591b5a5b881d1bc819dc985b9d608a1b6064820152608401610bbd565b6112ab828261373c565b5050565b60006112c18888600254888a8961247b565b6004805460405163f91aa31760e01b815292935060009283926001600160a01b039092169163f91aa317916112fc9187918a918a9101614fec565b6040805180830381600087803b15801561131557600080fd5b505af1158015611329573d6000803e3d6000fd5b505050506040513d601f19601f8201168201806040525081019061134d9190614d26565b91509150806113945760405162461bcd60e51b81526020600482015260136024820152721b5a5b9d0e881b9bdd0818dbdb999a5c9b5959606a1b6044820152606401610bbd565b60008a8152600c602052604090205487106113fb576003548210156113fb5760405162461bcd60e51b815260206004820152601a60248201527f6d696e743a20616d6f756e74206e6f7420636f6e6669726d65640000000000006044820152606401610bbd565b5050610ecb8189888860008060405180604001604052806002815260200161060f60f31b8152506137c0565b6001600160a01b03811633146114975760405162461bcd60e51b815260206004820152602f60248201527f416363657373436f6e74726f6c3a2063616e206f6e6c792072656e6f756e636560448201526e103937b632b9903337b91039b2b63360891b6064820152608401610bbd565b6112ab8282613ae1565b6114ac600033611ea0565b6114c85760405162461bcd60e51b8152600401610bbd90615202565b6114da60015462010000900460ff1690565b61151d5760405162461bcd60e51b815260206004820152601460248201527314185d5cd8589b194e881b9bdd081c185d5cd95960621b6044820152606401610bbd565b611525613b46565b565b60006115398989600254898b8a61247b565b60ff8084166000908152600b6020526040902054919250600160a01b909104166115b85760405162461bcd60e51b815260206004820152602a60248201527f636c61696d576974684f6c6441676772656761746f723a20696e76616c69642060448201526930b3b3b932b3b0ba37b960b11b6064820152608401610bbd565b60ff82166000908152600b602052604080822054905163f91aa31760e01b815282916001600160a01b03169063f91aa317906115fc9086908a908a90600401614fec565b6040805180830381600087803b15801561161557600080fd5b505af1158015611629573d6000803e3d6000fd5b505050506040513d601f19601f8201168201806040525081019061164d9190614d26565b91509150806116ac5760405162461bcd60e51b815260206004820152602560248201527f636c61696d576974684f6c6441676772656761746f723a206e6f7420636f6e666044820152641a5c9b595960da1b6064820152608401610bbd565b60008b8152600c60205260409020548810611728576003548210156117285760405162461bcd60e51b815260206004820152602c60248201527f636c61696d576974684f6c6441676772656761746f723a20616d6f756e74206e60448201526b1bdd0818dbdb999a5c9b595960a21b6064820152608401610bbd565b5050611754818a898960008060405180604001604052806002815260200161060f60f31b815250612f1a565b505050505050505050565b61176a600033611ea0565b6117865760405162461bcd60e51b8152600401610bbd90615202565b6000611792888b611ec9565b90506117a5818a8a8a8a8a8a8a8a613bdd565b50505050505050505050565b6117bc600033611ea0565b6117d85760405162461bcd60e51b8152600401610bbd90615202565b60006117e660025489611ec9565b9050610ecb81896002548a8a8a8a8a8a613bdd565b60006118108c8c6002548c8e8d8b8b8b612c0c565b60ff8084166000908152600b6020526040902054919250600160a01b9091041661184c5760405162461bcd60e51b8152600401610bbd90615101565b60ff82166000908152600b602052604080822054905163f91aa31760e01b815282916001600160a01b03169063f91aa317906118909086908d908d90600401614fec565b6040805180830381600087803b1580156118a957600080fd5b505af11580156118bd573d6000803e3d6000fd5b505050506040513d601f19601f820116820180604052508101906118e19190614d26565b91509150806119435760405162461bcd60e51b815260206004820152602860248201527f6175746f4d696e74576974684f6c6441676772656761746f723a206e6f7420636044820152671bdb999a5c9b595960c21b6064820152608401610bbd565b60008e8152600c60205260409020548b106119c2576003548210156119c25760405162461bcd60e51b815260206004820152602f60248201527f6175746f4d696e74576974684f6c6441676772656761746f723a20616d6f756e60448201526e1d081b9bdd0818dbdb999a5c9b5959608a1b6064820152608401610bbd565b50506119d3818d8c8c8989896137c0565b505050505050505050505050565b6119ec600033611ea0565b611a085760405162461bcd60e51b8152600401610bbd90615202565b600094855260086020908152604080872060028101969096556003860194909455600690940191909155600c90925290912055565b6007546001600160a01b03163314611a925760405162461bcd60e51b815260206004820152601860248201527764656669436f6e74726f6c6c65723a2062616420726f6c6560401b6044820152606401610bbd565b6000611aa060025484611ec9565b60008181526008602052604090208054919250906001600160a01b031615610d4c576007548154610d4c916001600160a01b0391821691163086613dbc565b611aea600033611ea0565b611b065760405162461bcd60e51b8152600401610bbd90615202565b60055460ff600160a01b909104811690831610611b735760405162461bcd60e51b815260206004820152602560248201527f6d616e6167654f6c6441676772656761746f723a2076657273696f6e20746f6f604482015264040d0d2ced60db1b6064820152608401610bbd565b60ff9091166000908152600b602052604090208054911515600160a01b0260ff60a01b19909216919091179055565b611bb460015462010000900460ff1690565b15611bd15760405162461bcd60e51b8152600401610bbd906151d8565b81611c165760405162461bcd60e51b81526020600482015260156024820152746175746f53656e643a2066656520746f6f206c6f7760581b6044820152606401610bbd565b611c21878686612c54565b945081851015611c735760405162461bcd60e51b815260206004820152601f60248201527f6175746f53656e643a2070726f706f7365642066656520746f6f2068696768006044820152606401610bbd565b611c7d82866152d9565b6001600160a01b0387166000908152600a602052604081205460025492975091611caf908a90888a8c878b8b8b612c0c565b90507f29694ef96c3937a1b484e431876ef7ec8a4a9733d71f07880a741507422f2dbe818a898b868b8a8c8b604051611cf09998979695949392919061508d565b60405180910390a16001600160a01b0388166000908152600a60205260408120805491611d1c8361531c565b9190505550505050505050505050565b611d37600033611ea0565b611d535760405162461bcd60e51b8152600401610bbd90615202565b60008381526008602052604090206004810154821115611db55760405162461bcd60e51b815260206004820152601b60248201527f77697468647261774665653a206e6f7420656e6f7567682066656500000000006044820152606401610bbd565b81816004016000828254611dc991906152d9565b90915550506002546001820154148015611deb575080546001600160a01b0316155b15611e2c576040516001600160a01b0384169083156108fc029084906000818181858888f19350505050158015611e26573d6000803e3d6000fd5b50610d4c565b8054610d4c906001600160a01b03168484613e27565b611e4d600033611ea0565b611e695760405162461bcd60e51b8152600401610bbd90615202565b611e7b60015462010000900460ff1690565b15611e985760405162461bcd60e51b8152600401610bbd906151d8565b611525613e5c565b6000918252602082815260408084206001600160a01b0393909316845291905290205460ff1690565b60008282604051602001611ef992919091825260601b6bffffffffffffffffffffffff1916602082015260340190565b60405160208183030381529060405280519060200120905092915050565b60008060008351604114611f7e5760405162461bcd60e51b815260206004820152602860248201527f73706c69745369676e61747572653a20696e76616c6964207369676e617475726044820152670ca40d8cadccee8d60c31b6064820152608401610bbd565b50505060208101516040820151606090920151909260009190911a90565b6000611fb18b8b6002548b8d8c8a8a8a612c0c565b6004805460405163f91aa31760e01b815292935060009283926001600160a01b039092169163f91aa31791611fec9187918d918d9101614fec565b6040805180830381600087803b15801561200557600080fd5b505af1158015612019573d6000803e3d6000fd5b505050506040513d601f19601f8201168201806040525081019061203d9190614d26565b915091508061208e5760405162461bcd60e51b815260206004820152601860248201527f6175746f436c61696d3a206e6f7420636f6e6669726d656400000000000000006044820152606401610bbd565b60008d8152600c60205260409020548a106120f5576003548210156120f55760405162461bcd60e51b815260206004820152601f60248201527f6175746f436c61696d3a20616d6f756e74206e6f7420636f6e6669726d6564006044820152606401610bbd565b5050610fe8818c8b8b888888612f1a565b612111600033611ea0565b61212d5760405162461bcd60e51b8152600401610bbd90615202565b6000838152600860205260408120905b83518110156121e55782818151811061216657634e487b7160e01b600052603260045260246000fd5b602002602001015182600701600086848151811061219457634e487b7160e01b600052603260045260246000fd5b60209081029190910181015182528181019290925260409081016000208351815460ff19169015151781559183015160018301559190910151600290910155806121dd8161531c565b91505061213d565b5050505050565b6121fe60015462010000900460ff1690565b1561221b5760405162461bcd60e51b8152600401610bbd906151d8565b6122288685858585613370565b6001600160a01b0386166000908152600a60205260408120546002549296509161225790899087898b8761247b565b60408051828152602081018b90529081018890526001600160a01b03891660608201526080810184905260a081018790529091507fb8cc5195d548dc2781227c496b92d3736cd56d7f32b28971c9ae1e9eb0badf959060c00160405180910390a16001600160a01b0387166000908152600a602052604081208054916122dc8361531c565b91905055505050505050505050565b6007546001600160a01b031633146123405760405162461bcd60e51b815260206004820152601860248201527764656669436f6e74726f6c6c65723a2062616420726f6c6560401b6044820152606401610bbd565b600061234e60025484611ec9565b6000818152600860205260408120600681015460058201549394509092670de0b6b3a76400009161237e916152ba565b612388919061529a565b82549091506000906123a2906001600160a01b0316612aa7565b9050806123af8684615282565b116124085760405162461bcd60e51b8152602060048201526024808201527f7265717565737452657365727665733a206e6f7420656e6f75676820726573656044820152637276657360e01b6064820152608401610bbd565b82546001600160a01b0316612457576007546040516001600160a01b039091169086156108fc029087906000818181858888f19350505050158015612451573d6000803e3d6000fd5b50612473565b6007548354612473916001600160a01b03918216911687613e27565b505050505050565b60408051602080820198909852808201969096526060808701959095526080860193909352921b6bffffffffffffffffffffffff191660a084015260b4808401929092528051808403909201825260d4909201909152805191012090565b6124ff604051806060016040528060001515815260200160008152602001600081525090565b50600091825260086020908152604080842092845260079092018152918190208151606081018352815460ff1615158152600182015493810193909352600201549082015290565b60008281526020819052604090206001015461256290611237565b6114975760405162461bcd60e51b815260206004820152603060248201527f416363657373436f6e74726f6c3a2073656e646572206d75737420626520616e60448201526f2061646d696e20746f207265766f6b6560801b6064820152608401610bbd565b60006125dc8b8b6002548b8d8c8a8a8a612c0c565b6004805460405163f91aa31760e01b815292935060009283926001600160a01b039092169163f91aa317916126179187918d918d9101614fec565b6040805180830381600087803b15801561263057600080fd5b505af1158015612644573d6000803e3d6000fd5b505050506040513d601f19601f820116820180604052508101906126689190614d26565b91509150806126b95760405162461bcd60e51b815260206004820152601760248201527f6175746f4d696e743a206e6f7420636f6e6669726d65640000000000000000006044820152606401610bbd565b60008d8152600c60205260409020548a10612720576003548210156127205760405162461bcd60e51b815260206004820152601e60248201527f6175746f4d696e743a20616d6f756e74206e6f7420636f6e6669726d656400006044820152606401610bbd565b5050610fe8818c8b8b8888886137c0565b61273c600033611ea0565b6127585760405162461bcd60e51b8152600401610bbd90615202565b805161276b9060069060208401906141e5565b507fc96689ced54dda42d1f32f295881474112291c08120448bec2f7b10f5297e88f816040516112159190614fa8565b60006127b08c8c6002548c8e8d8b8b8b612c0c565b60ff8084166000908152600b6020526040902054919250600160a01b9091041661282e5760405162461bcd60e51b815260206004820152602960248201527f6d696e74576974684f6c6441676772656761746f723a20696e76616c6964206160448201526833b3b932b3b0ba37b960b91b6064820152608401610bbd565b60ff82166000908152600b602052604080822054905163f91aa31760e01b815282916001600160a01b03169063f91aa317906128729086908d908d90600401614fec565b6040805180830381600087803b15801561288b57600080fd5b505af115801561289f573d6000803e3d6000fd5b505050506040513d601f19601f820116820180604052508101906128c39190614d26565b91509150806128e45760405162461bcd60e51b8152600401610bbd90615194565b60008e8152600c60205260409020548b1061291b5760035482101561291b5760405162461bcd60e51b8152600401610bbd90615149565b50506119d3818d8c8c898989612f1a565b600061293e8989600254898b8a61247b565b60ff8084166000908152600b60209081526040918290208251808401909352546001600160a01b0381168352600160a01b9004909216151591810182905291925061299b5760405162461bcd60e51b8152600401610bbd90615101565b60008082600001516001600160a01b031663f91aa3178589896040518463ffffffff1660e01b81526004016129d293929190614fec565b6040805180830381600087803b1580156129eb57600080fd5b505af11580156129ff573d6000803e3d6000fd5b505050506040513d601f19601f82011682018060405250810190612a239190614d26565b9150915080612a445760405162461bcd60e51b8152600401610bbd90615194565b60008c8152600c60205260409020548910612a7b57600354821015612a7b5760405162461bcd60e51b8152600401610bbd90615149565b50506117a5828b8a8a60008060405180604001604052806002815260200161060f60f31b8152506137c0565b60006001600160a01b038216612abe575047610b89565b6040516370a0823160e01b81523060048201526001600160a01b038316906370a082319060240160206040518083038186803b158015612afd57600080fd5b505afa158015612b11573d6000803e3d6000fd5b505050506040513d601f19601f82011682018060405250810190612b359190614d0e565b9050610b89565b612b47600033611ea0565b612b635760405162461bcd60e51b8152600401610bbd90615202565b604080518082018252600480546001600160a01b039081168352600160208085019182526005805460ff600160a01b9182900481166000908152600b909452979092209551865493511515830260ff60a01b199186166001600160a01b031995861617919091161790955583549287169290911691909117909155815404909116906014612bf083615337565b91906101000a81548160ff021916908360ff1602179055505050565b6000898989898989898989604051602001612c2f99989796959493929190614ea9565b6040516020818303038152906040528051906020012090509998505050505050505050565b60008381526008602090815260408083208484526007810183528184208251606081018452815460ff161515815260018083015495820195909552600291820154938101939093525492810154909214612ce95760405162461bcd60e51b815260206004820152601660248201527539b2b7321d103737ba103730ba34bb329031b430b4b760511b6044820152606401610bbd565b8051612d375760405162461bcd60e51b815260206004820152601860248201527f73656e643a2077726f6e672074617267656420636861696e00000000000000006044820152606401610bbd565b8160020154851015612d825760405162461bcd60e51b815260206004820152601460248201527373656e643a20616d6f756e7420746f6f206c6f7760601b6044820152606401610bbd565b8160030154851115612dce5760405162461bcd60e51b81526020600482015260156024820152740e6cadcc87440c2dadeeadce840e8dede40d0d2ced605b1b6044820152606401610bbd565b81546001600160a01b0316612e2957348514612e245760405162461bcd60e51b81526020600482015260156024820152740e6cadcc87440c2dadeeadce840dad2e6dac2e8c6d605b1b6044820152606401610bbd565b612e40565b8154612e40906001600160a01b0316333088613dbc565b6000670de0b6b3a7640000826040015187612e5b91906152ba565b612e65919061529a565b8260200151612e749190615282565b90508015612ef35780861015612ecc5760405162461bcd60e51b815260206004820152601b60248201527f73656e643a20616d6f756e74206e6f7420636f766572206665657300000000006044820152606401610bbd565b80836004016000828254612ee09190615282565b90915550612ef0905081876152d9565b95505b85836005016000828254612f079190615282565b90915550869450505050505b9392505050565b6000868152600860205260409020600254600182015414612f7d5760405162461bcd60e51b815260206004820152601960248201527f636c61696d3a2077726f6e672074617267657420636861696e000000000000006044820152606401610bbd565b60008881526009602052604090205460ff1615612fd25760405162461bcd60e51b815260206004820152601360248201527218db185a5b4e88185b1c9958591e481d5cd959606a1b6044820152606401610bbd565b6000888152600960205260408120805460ff19166001179055600582018054879290612fff9084906152d9565b9091555061300f90508186613ecc565b80546001600160a01b031661315b57821561311e57604051339084156108fc029085906000818181858888f19350505050158015613051573d6000803e3d6000fd5b5060055460405163c435b14b60e01b81526000916001600160a01b03169063c435b14b9088906130899089908c908990600401614f73565b6020604051808303818588803b1580156130a257600080fd5b505af11580156130b6573d6000803e3d6000fd5b50505050506040513d601f19601f820116820180604052508101906130db91906145e5565b604080518b815282151560208201529192507f36c8142a7dcbbfde02c55b345b75761d6761eb241d6c504a0df77c0730b52fe9910160405180910390a150613156565b6040516001600160a01b0387169086156108fc029087906000818181858888f19350505050158015613154573d6000803e3d6000fd5b505b61327b565b8215613265578054613177906001600160a01b03163385613e27565b6005548154613193916001600160a01b03918216911687613e27565b6005548154604051633bab642f60e01b81526000926001600160a01b0390811692633bab642f926131d0929091169089908c908990600401614f35565b602060405180830381600087803b1580156131ea57600080fd5b505af11580156131fe573d6000803e3d6000fd5b505050506040513d601f19601f8201168201806040525081019061322291906145e5565b604080518b815282151560208201529192507f36c8142a7dcbbfde02c55b345b75761d6761eb241d6c504a0df77c0730b52fe9910160405180910390a15061327b565b805461327b906001600160a01b03168787613e27565b60408051898152602081018790526001600160a01b03881691810191909152606081018890527fabe3bed2a8590dd123c1a018888bce6142d526741bed65dfe570fb223525c6a4906080015b60405180910390a15050505050505050565b46600281905560006132eb8282611ec9565b90506133018160006002548e8e8e8e8c8c613bdd565b600480546001600160a01b03808a166001600160a01b031992831617909255600580549289169290911691909117905584516133449060069060208801906141e5565b50600780546001600160a01b0319166001600160a01b03851617905560038c90556119d36000336112a1565b60008581526008602090815260408083208684526007810183528184208251606081018452815460ff161515815260018083015495820195909552600291820154938101939093525492810154909214156134025760405162461bcd60e51b8152602060048201526012602482015271189d5c9b8e881b985d1a5d9948185cdcd95d60721b6044820152606401610bbd565b80516134505760405162461bcd60e51b815260206004820152601860248201527f6275726e3a2077726f6e672074617267656420636861696e00000000000000006044820152606401610bbd565b816002015487101561349b5760405162461bcd60e51b81526020600482015260146024820152736275726e3a20616d6f756e7420746f6f206c6f7760601b6044820152606401610bbd565b81600301548711156134e75760405162461bcd60e51b81526020600482015260156024820152740c4eae4dc7440c2dadeeadce840e8dede40d0d2ced605b1b6044820152606401610bbd565b815484516001600160a01b03909116901561359a57600080600061350a88611f17565b60405163d505accf60e01b8152336004820152306024820152604481018f9052606481018d905260ff8216608482015260a4810184905260c4810183905292955090935091506001600160a01b0385169063d505accf9060e401600060405180830381600087803b15801561357e57600080fd5b505af1158015613592573d6000803e3d6000fd5b505050505050505b6040516323b872dd60e01b8152336004820152306024820152604481018990526001600160a01b038216906323b872dd90606401602060405180830381600087803b1580156135e857600080fd5b505af11580156135fc573d6000803e3d6000fd5b505050506040513d601f19601f8201168201806040525081019061362091906145e5565b506000670de0b6b3a764000083604001518a61363c91906152ba565b613646919061529a565b83602001516136559190615282565b905080156136d457808910156136ad5760405162461bcd60e51b815260206004820152601b60248201527f6275726e3a20616d6f756e74206e6f7420636f766572206665657300000000006044820152606401610bbd565b808460040160008282546136c19190615282565b909155506136d19050818a6152d9565b98505b604051630852cd8d60e31b8152600481018a90526001600160a01b038316906342966c6890602401600060405180830381600087803b15801561371657600080fd5b505af115801561372a573d6000803e3d6000fd5b509a9c9b505050505050505050505050565b6137468282611ea0565b6112ab576000828152602081815260408083206001600160a01b03851684529091529020805460ff1916600117905561377c3390565b6001600160a01b0316816001600160a01b0316837f2f8788117e7eff1d82e926ec794901d17c78024a50270940304540a733656f0d60405160405180910390a45050565b60008781526009602052604090205460ff16156138145760405162461bcd60e51b81526020600482015260126024820152711b5a5b9d0e88185b1c9958591e481d5cd95960721b6044820152606401610bbd565b60008681526008602090815260408083208a84526009909252909120805460ff1916600190811790915560025490820154141561388b5760405162461bcd60e51b815260206004820152601560248201527436b4b73a1d1034b9903730ba34bb329031b430b4b760591b6044820152606401610bbd565b8215613a2b5780546040516340c10f1960e01b8152336004820152602481018590526001600160a01b03909116906340c10f1990604401600060405180830381600087803b1580156138dc57600080fd5b505af11580156138f0573d6000803e3d6000fd5b505082546005546040516340c10f1960e01b81526001600160a01b039182166004820152602481018a9052911692506340c10f199150604401600060405180830381600087803b15801561394357600080fd5b505af1158015613957573d6000803e3d6000fd5b50506005548354604051633bab642f60e01b8152600094506001600160a01b039283169350633bab642f9261399692169089908c908990600401614f35565b602060405180830381600087803b1580156139b057600080fd5b505af11580156139c4573d6000803e3d6000fd5b505050506040513d601f19601f820116820180604052508101906139e891906145e5565b604080518b815282151560208201529192507f36c8142a7dcbbfde02c55b345b75761d6761eb241d6c504a0df77c0730b52fe9910160405180910390a150613a91565b80546040516340c10f1960e01b81526001600160a01b03888116600483015260248201889052909116906340c10f1990604401600060405180830381600087803b158015613a7857600080fd5b505af1158015613a8c573d6000803e3d6000fd5b505050505b60408051898152602081018790526001600160a01b03881691810191909152606081018890527f5918a95fd00afb5898499bd5beade1619e98655d2b4ff6e0f6a4347f0a69c127906080016132c7565b613aeb8282611ea0565b156112ab576000828152602081815260408083206001600160a01b0385168085529252808320805460ff1916905551339285917ff6391f5c32d9c69d2a47ea670b442974b53935d1edc7fd64eb21e047a839171b9190a45050565b613b5860015462010000900460ff1690565b613b9b5760405162461bcd60e51b815260206004820152601460248201527314185d5cd8589b194e881b9bdd081c185d5cd95960621b6044820152606401610bbd565b6001805462ff0000191690556040513381527f5db9ee0a495bf2e6ff9c91a7834c1ba4fdd244a5e8aa4e537bd38aeae4b073aa906020015b60405180910390a1565b8051825114613c3d5760405162461bcd60e51b815260206004820152602660248201527f5f61646441737365743a2077726f6e6720636861696e20737570706f7274206c604482015265656e6774687360d01b6064820152608401610bbd565b600089815260086020908152604080832080546001600160a01b0319166001600160a01b038d16178155600181018b9055600281018a90556003810189905560068101889055600c909252822085905590805b8451811015613d5e57848181518110613cb957634e487b7160e01b600052603260045260246000fd5b60200260200101519150838181518110613ce357634e487b7160e01b600052603260045260246000fd5b602090810291909101810151600084815260078601835260408082208351815460ff1916901515178155938301516001850155918201516002909301929092555183918e917fdd4dbf80f57aa5115a1e07abb36e4de565879d4de5bd15b3803d666fe1d848639190a380613d568161531c565b915050613c90565b50604080518981526020810189905290810187905289906001600160a01b038c16908d907ff6f4e2b9c6425dc5e0ebbec27bfdc06bece97c248400c189c656fe08259cd4659060600160405180910390a45050505050505050505050565b6040516001600160a01b0380851660248301528316604482015260648101829052610d4c9085906323b872dd60e01b906084015b60408051601f198184030181529190526020810180516001600160e01b03166001600160e01b031990931692909217909152613f9b565b6040516001600160a01b038316602482015260448101829052613e5790849063a9059cbb60e01b90606401613df0565b505050565b613e6e60015462010000900460ff1690565b15613e8b5760405162461bcd60e51b8152600401610bbd906151d8565b6001805462ff00001916620100001790556040513381527f62e78cea01bee320cd4e420270b5ea74000d11b0c9f74754ebdbfc544b05a25890602001613bd3565b6000670de0b6b3a764000083600601548460050154613eeb91906152ba565b613ef5919061529a565b8354909150600090613f0f906001600160a01b0316612aa7565b90506000838311613f205783613f22565b825b9050818111156121e557613f3682826152d9565b60075486546040516309e62b9160e01b81526001600160a01b0391821660048201526024810184905292935016906309e62b9190604401600060405180830381600087803b158015613f8757600080fd5b505af1158015611754573d6000803e3d6000fd5b6000613ff0826040518060400160405280602081526020017f5361666545524332303a206c6f772d6c6576656c2063616c6c206661696c6564815250856001600160a01b031661406d9092919063ffffffff16565b805190915015613e57578080602001905181019061400e91906145e5565b613e575760405162461bcd60e51b815260206004820152602a60248201527f5361666545524332303a204552433230206f7065726174696f6e20646964206e6044820152691bdd081cdd58d8d9595960b21b6064820152608401610bbd565b606061407c8484600085614084565b949350505050565b6060824710156140e55760405162461bcd60e51b815260206004820152602660248201527f416464726573733a20696e73756666696369656e742062616c616e636520666f6044820152651c8818d85b1b60d21b6064820152608401610bbd565b843b6141335760405162461bcd60e51b815260206004820152601d60248201527f416464726573733a2063616c6c20746f206e6f6e2d636f6e74726163740000006044820152606401610bbd565b600080866001600160a01b0316858760405161414f9190614f19565b60006040518083038185875af1925050503d806000811461418c576040519150601f19603f3d011682016040523d82523d6000602084013e614191565b606091505b50915091506141a18282866141ac565b979650505050505050565b606083156141bb575081612f13565b8251156141cb5782518084602001fd5b8160405162461bcd60e51b8152600401610bbd91906150ee565b828054828255906000526020600020908101928215614220579160200282015b82811115614220578251825591602001919060010190614205565b5061422c929150614230565b5090565b5b8082111561422c5760008155600101614231565b8035610b8981615383565b60008083601f840112614261578182fd5b5081356001600160401b03811115614277578182fd5b602083019150836020808302850101111561429157600080fd5b9250929050565b600082601f8301126142a8578081fd5b813560206142bd6142b88361525f565b61522f565b828152818101908583016060808602880185018910156142db578687fd5b865b8681101561432d5781838b0312156142f3578788fd5b6142fc8261522f565b83356143078161539b565b8152838701358782015260408085013590820152855293850193918101916001016142dd565b509198975050505050505050565b600082601f83011261434b578081fd5b8135602061435b6142b88361525f565b8281528181019085830183850287018401881015614377578586fd5b855b8581101561439557813584529284019290840190600101614379565b5090979650505050505050565b600082601f8301126143b2578081fd5b81356001600160401b038111156143cb576143cb61536d565b6143de601f8201601f191660200161522f565b8181528460208386010111156143f2578283fd5b816020850160208301379081016020019190915292915050565b803560ff81168114610b8957600080fd5b60006020828403121561442e578081fd5b8135612f1381615383565b60008060008060008060008060006101208a8c031215614457578485fd5b893561446281615383565b985060208a013561447281615383565b975060408a0135965060608a0135955060808a0135945060a08a0135935060c08a0135925060e08a01356001600160401b03808211156144b0578384fd5b6144bc8d838e0161433b565b93506101008c01359150808211156144d2578283fd5b506144df8c828d01614298565b9150509295985092959850929598565b60008060408385031215614501578182fd5b823561450c81615383565b946020939093013593505050565b600080600080600080600060e0888a031215614534578283fd5b873561453f81615383565b96506020880135955060408801359450606088013593506080880135925060a08801356001600160401b0380821115614576578384fd5b6145828b838c0161433b565b935060c08a0135915080821115614597578283fd5b506145a48a828b01614298565b91505092959891949750929550565b6000602082840312156145c4578081fd5b81356001600160401b038111156145d9578182fd5b61407c8482850161433b565b6000602082840312156145f6578081fd5b8151612f138161539b565b600060208284031215614612578081fd5b5035919050565b6000806040838503121561462b578182fd5b82359150602083013561463d81615383565b809150509250929050565b60008060006060848603121561465c578081fd5b83359250602084013561466e81615383565b929592945050506040919091013590565b60008060008060808587031215614694578182fd5b8435935060208501356146a681615383565b93969395505050506040820135916060013590565b600080600080600080600060e0888a0312156146d5578081fd5b8735965060208801356146e781615383565b95506040880135945060608801359350608088013561470581615383565b925060a0880135915060c08801356001600160401b03811115614726578182fd5b6145a48a828b016143a2565b60008060008060008060008060006101208a8c031215614750578283fd5b8935985060208a013561476281615383565b975060408a0135965060608a0135955060808a013561478081615383565b945060a08a0135935060c08a01356001600160401b03808211156147a2578485fd5b6147ae8d838e016143a2565b945060e08c013593506101008c01359150808211156147cb578283fd5b506144df8c828d016143a2565b60008060008060008060c087890312156147f0578384fd5b86359550602087013561480281615383565b945060408701359350606087013592506080870135915060a08701356001600160401b03811115614831578182fd5b61483d89828a016143a2565b9150509295509295509295565b60008060006060848603121561485e578081fd5b8335925060208401356001600160401b038082111561487b578283fd5b6148878783880161433b565b9350604086013591508082111561489c578283fd5b506148a986828701614298565b9150509250925092565b600080604083850312156148c5578182fd5b50508035926020909101359150565b600080600080600080600060c0888a0312156148ee578081fd5b8735965060208801359550604088013561490781615383565b9450606088013593506080880135925060a08801356001600160401b0381111561492f578182fd5b61493b8a828b01614250565b989b979a50959850939692959293505050565b6000806000806000806000806000806101208b8d03121561496d578384fd5b8a35995060208b0135985060408b013561498681615383565b975060608b0135965060808b0135955060a08b01356001600160401b03808211156149af578586fd5b6149bb8e838f01614250565b909750955060c08d013591506149d082615383565b90935060e08c013592506101008c013590808211156149ed578283fd5b506149fa8d828e016143a2565b9150509295989b9194979a5092959850565b60008060008060008060008060008060006101408c8e031215614a2d578485fd5b8b359a5060208c01359950614a4460408d01614245565b985060608c0135975060808c013596506001600160401b038060a08e01351115614a6c578586fd5b614a7c8e60a08f01358f01614250565b9097509550614a8d60c08e01614245565b945060e08d01359350806101008e01351115614aa7578182fd5b50614ab98d6101008e01358e016143a2565b9150614ac86101208d0161440c565b90509295989b509295989b9093969950565b60008060008060008060008060e0898b031215614af5578182fd5b88359750602089013596506040890135614b0e81615383565b9550606089013594506080890135935060a08901356001600160401b03811115614b36578283fd5b614b428b828c01614250565b9094509250614b55905060c08a0161440c565b90509295985092959890939650565b600080600060608486031215614b78578081fd5b83359250602084013591506040840135614b918161539b565b809150509250925092565b60008060008060008060c08789031215614bb4578384fd5b863595506020870135945060408701359350606087013592506080870135614bdb81615383565b8092505060a087013590509295509295509295565b60008060008060008060008060006101208a8c031215614c0e578283fd5b8935985060208a0135975060408a0135965060608a0135955060808a0135614c3581615383565b945060a08a0135935060c08a0135614c4c81615383565b925060e08a013591506101008a01356001600160401b03811115614c6e578182fd5b6144df8c828d016143a2565b600080600080600060a08688031215614c91578283fd5b505083359560208501359550604085013594606081013594506080013592509050565b600060208284031215614cc5578081fd5b81356001600160e01b031981168114612f13578182fd5b600060208284031215614ced578081fd5b81356001600160401b03811115614d02578182fd5b61407c848285016143a2565b600060208284031215614d1f578081fd5b5051919050565b60008060408385031215614d38578182fd5b82519150602083015161463d8161539b565b6000806000806000806000806000806101408b8d031215614d69578384fd5b8a35995060208b0135985060408b0135975060608b0135965060808b01359550614d9560a08c01614245565b9450614da360c08c01614245565b935060e08b01356001600160401b0380821115614dbe578485fd5b614dca8e838f0161433b565b94506101008d0135915080821115614de0578384fd5b50614ded8d828e01614298565b925050614dfd6101208c01614245565b90509295989b9194979a5092959850565b600060208284031215614e1f578081fd5b612f138261440c565b60008060408385031215614e3a578182fd5b614e438361440c565b9150602083013561463d8161539b565b60008284528282602086013780602084860101526020601f19601f85011685010190509392505050565b60008151808452614e958160208601602086016152f0565b601f01601f19169290920160200192915050565b60008a82528960208301528860408301528760608301526bffffffffffffffffffffffff19808860601b166080840152866094840152808660601b1660b4840152508360c88301528251614f048160e88501602087016152f0565b9190910160e8019a9950505050505050505050565b60008251614f2b8184602087016152f0565b9190910192915050565b6001600160a01b038581168252848116602083015283166040820152608060608201819052600090614f6990830184614e7d565b9695505050505050565b6001600160a01b03848116825283166020820152606060408201819052600090614f9f90830184614e7d565b95945050505050565b6020808252825182820181905260009190848201906040850190845b81811015614fe057835183529284019291840191600101614fc4565b50909695505050505050565b6000604082018583526020604081850152818583526060850190506060828702860101925086845b8781101561507f57868503605f190183528135368a9003601e19018112615039578687fd5b890180356001600160401b03811115615050578788fd5b8036038b131561505e578788fd5b61506b8782888501614e53565b965050509183019190830190600101615014565b509298975050505050505050565b60006101208b83528a602084015289604084015260018060a01b03808a1660608501528860808501528760a08501528660c085015280861660e085015250806101008401526150de81840185614e7d565b9c9b505050505050505050505050565b600060208252612f136020830184614e7d565b60208082526028908201527f6d696e74576974684f6c6441676772656761746f723a20696e76616c6964416760408201526733b932b3b0ba37b960c11b606082015260800190565b6020808252602b908201527f6d696e74576974684f6c6441676772656761746f723a20616d6f756e74206e6f60408201526a1d0818dbdb999a5c9b595960aa1b606082015260800190565b60208082526024908201527f6d696e74576974684f6c6441676772656761746f723a206e6f7420636f6e66696040820152631c9b595960e21b606082015260800190565b60208082526010908201526f14185d5cd8589b194e881c185d5cd95960821b604082015260600190565b6020808252601390820152726f6e6c7941646d696e3a2062616420726f6c6560681b604082015260600190565b604051601f8201601f191681016001600160401b03811182821017156152575761525761536d565b604052919050565b60006001600160401b038211156152785761527861536d565b5060209081020190565b6000821982111561529557615295615357565b500190565b6000826152b557634e487b7160e01b81526012600452602481fd5b500490565b60008160001904831182151516156152d4576152d4615357565b500290565b6000828210156152eb576152eb615357565b500390565b60005b8381101561530b5781810151838201526020016152f3565b83811115610d4c5750506000910152565b600060001982141561533057615330615357565b5060010190565b600060ff821660ff81141561534e5761534e615357565b60010192915050565b634e487b7160e01b600052601160045260246000fd5b634e487b7160e01b600052604160045260246000fd5b6001600160a01b038116811461539857600080fd5b50565b801515811461539857600080fdfea26469706673582212201fa37b51d30c986651812736ad2ddb7e08f5ece1492ea8efd58e80e31f71987064736f6c63430008020033",
  "immutableReferences": {},
  "source": "// SPDX-License-Identifier: MIT\npragma solidity ^0.8.2;\n\nimport \"@openzeppelin/contracts/token/ERC20/IERC20.sol\";\nimport \"@openzeppelin/contracts/token/ERC20/utils/SafeERC20.sol\";\nimport \"../interfaces/ILightVerifier.sol\";\nimport \"../interfaces/ILightDebridge.sol\";\nimport \"./Debridge.sol\";\n\ncontract LightDebridge is Debridge, ILightDebridge {\n    using SafeERC20 for IERC20;\n\n    /// @dev Constructor that initializes the most important configurations.\n    /// @param _minAmount Minimal amount of current chain token to be wrapped.\n    /// @param _maxAmount Maximum amount of current chain token to be wrapped.\n    /// @param _minReserves Minimal reserve ratio.\n    /// @param _aggregator Submission aggregator address.\n    /// @param _supportedChainIds Chain ids where native token of the current chain can be wrapped.\n    function initialize(\n        uint256 _excessConfirmations,\n        uint256 _minAmount,\n        uint256 _maxAmount,\n        uint256 _minReserves,\n        uint256 _amountThreshold,\n        address _aggregator,\n        address _callProxy,\n        uint256[] memory _supportedChainIds,\n        ChainSupportInfo[] memory _chainSupportInfo,\n        IDefiController _defiController\n    ) public payable initializer {\n        super._initialize(\n            _excessConfirmations,\n            _minAmount,\n            _maxAmount,\n            _minReserves,\n            _amountThreshold,\n            _aggregator,\n            _callProxy,\n            _supportedChainIds,\n            _chainSupportInfo,\n            _defiController\n        );\n    }\n\n    /// @dev Mints wrapped asset on the current chain.\n    /// @param _debridgeId Asset identifier.\n    /// @param _receiver Receiver address.\n    /// @param _amount Amount of the transfered asset (note: without applyed fee).\n    /// @param _nonce Submission id.\n    /// @param _signatures Array of oracles signatures.\n    /// @param _fallbackAddress Receiver of the tokens if the call fails.\n    /// @param _executionFee Fee paid to the transaction executor.\n    /// @param _data Chain id of the target chain.\n    function autoMint(\n        bytes32 _debridgeId,\n        uint256 _chainIdFrom,\n        address _receiver,\n        uint256 _amount,\n        uint256 _nonce,\n        bytes[] calldata _signatures,\n        address _fallbackAddress,\n        uint256 _executionFee,\n        bytes memory _data\n    ) external {\n        bytes32 submissionId =\n            getAutoSubmisionId(\n                _debridgeId,\n                _chainIdFrom,\n                chainId,\n                _amount,\n                _receiver,\n                _nonce,\n                _fallbackAddress,\n                _executionFee,\n                _data\n            );\n        {\n            (uint256 confirmations, bool confirmed) =\n                ILightVerifier(aggregator).submit(submissionId, _signatures);\n            require(confirmed, \"autoMint: not confirmed\");\n            if (_amount >= getAmountThreshold[_debridgeId]) {\n                require(\n                    confirmations >= excessConfirmations,\n                    \"autoMint: amount not confirmed\"\n                );\n            }\n        }\n        _mint(\n            submissionId,\n            _debridgeId,\n            _receiver,\n            _amount,\n            _fallbackAddress,\n            _executionFee,\n            _data\n        );\n    }\n\n    /// @dev Mints wrapped asset on the current chain.\n    /// @param _debridgeId Asset identifier.\n    /// @param _receiver Receiver address.\n    /// @param _amount Amount of the transfered asset (note: without applyed fee).\n    /// @param _nonce Submission id.\n    /// @param _signatures Array of oracles signatures.\n    /// @param _fallbackAddress Receiver of the tokens if the call fails.\n    /// @param _executionFee Fee paid to the transaction executor.\n    /// @param _data Chain id of the target chain.\n    function autoMintWithOldAggregator(\n        bytes32 _debridgeId,\n        uint256 _chainIdFrom,\n        address _receiver,\n        uint256 _amount,\n        uint256 _nonce,\n        bytes[] calldata _signatures,\n        address _fallbackAddress,\n        uint256 _executionFee,\n        bytes memory _data,\n        uint8 _aggregatorVersion\n    ) external {\n        bytes32 submissionId =\n            getAutoSubmisionId(\n                _debridgeId,\n                _chainIdFrom,\n                chainId,\n                _amount,\n                _receiver,\n                _nonce,\n                _fallbackAddress,\n                _executionFee,\n                _data\n            );\n        require(\n            getOldAggregator[_aggregatorVersion].isValid,\n            \"mintWithOldAggregator: invalidAggregator\"\n        );\n        {\n            (uint256 confirmations, bool confirmed) =\n                ILightVerifier(getOldAggregator[_aggregatorVersion].aggregator)\n                    .submit(submissionId, _signatures);\n            require(confirmed, \"autoMintWithOldAggregator: not confirmed\");\n            if (_amount >= getAmountThreshold[_debridgeId]) {\n                require(\n                    confirmations >= excessConfirmations,\n                    \"autoMintWithOldAggregator: amount not confirmed\"\n                );\n            }\n        }\n        _mint(\n            submissionId,\n            _debridgeId,\n            _receiver,\n            _amount,\n            _fallbackAddress,\n            _executionFee,\n            _data\n        );\n    }\n\n    /// @dev Mints wrapped asset on the current chain.\n    /// @param _debridgeId Asset identifier.\n    /// @param _receiver Receiver address.\n    /// @param _amount Amount of the transfered asset (note: without applyed fee).\n    /// @param _nonce Submission id.\n    /// @param _signatures Array of oracles signatures.\n    function mint(\n        bytes32 _debridgeId,\n        uint256 _chainIdFrom,\n        address _receiver,\n        uint256 _amount,\n        uint256 _nonce,\n        bytes[] calldata _signatures\n    ) external override {\n        bytes32 submissionId =\n            getSubmisionId(\n                _debridgeId,\n                _chainIdFrom,\n                chainId,\n                _amount,\n                _receiver,\n                _nonce\n            );\n        {\n            (uint256 confirmations, bool confirmed) =\n                ILightVerifier(aggregator).submit(submissionId, _signatures);\n            require(confirmed, \"mint: not confirmed\");\n            if (_amount >= getAmountThreshold[_debridgeId]) {\n                require(\n                    confirmations >= excessConfirmations,\n                    \"mint: amount not confirmed\"\n                );\n            }\n        }\n        _mint(\n            submissionId,\n            _debridgeId,\n            _receiver,\n            _amount,\n            address(0),\n            0,\n            \"0x\"\n        );\n    }\n\n    /// @dev Mints wrapped asset on the current chain.\n    /// @param _debridgeId Asset identifier.\n    /// @param _receiver Receiver address.\n    /// @param _amount Amount of the transfered asset (note: without applyed fee).\n    /// @param _nonce Submission id.\n    /// @param _signatures Array of oracles signatures.\n    /// @param _aggregatorVersion Aggregator version.\n    function mintWithOldAggregator(\n        bytes32 _debridgeId,\n        uint256 _chainIdFrom,\n        address _receiver,\n        uint256 _amount,\n        uint256 _nonce,\n        bytes[] calldata _signatures,\n        uint8 _aggregatorVersion\n    ) external override {\n        bytes32 submissionId =\n            getSubmisionId(\n                _debridgeId,\n                _chainIdFrom,\n                chainId,\n                _amount,\n                _receiver,\n                _nonce\n            );\n        AggregatorInfo memory aggregatorInfo =\n            getOldAggregator[_aggregatorVersion];\n        require(\n            aggregatorInfo.isValid,\n            \"mintWithOldAggregator: invalidAggregator\"\n        );\n        {\n            (uint256 confirmations, bool confirmed) =\n                ILightVerifier(aggregatorInfo.aggregator).submit(\n                    submissionId,\n                    _signatures\n                );\n            require(confirmed, \"mintWithOldAggregator: not confirmed\");\n            if (_amount >= getAmountThreshold[_debridgeId]) {\n                require(\n                    confirmations >= excessConfirmations,\n                    \"mintWithOldAggregator: amount not confirmed\"\n                );\n            }\n        }\n        _mint(\n            submissionId,\n            _debridgeId,\n            _receiver,\n            _amount,\n            address(0),\n            0,\n            \"0x\"\n        );\n    }\n\n    /// @dev Unlock the asset on the current chain and transfer to receiver.\n    /// @param _debridgeId Asset identifier.\n    /// @param _receiver Receiver address.\n    /// @param _amount Amount of the transfered asset (note: the fee can be applyed).\n    /// @param _nonce Submission id.\n    /// @param _signatures Array of oracles signatures.\n    function claim(\n        bytes32 _debridgeId,\n        uint256 _chainIdFrom,\n        address _receiver,\n        uint256 _amount,\n        uint256 _nonce,\n        bytes[] calldata _signatures\n    ) external override {\n        bytes32 submissionId =\n            getSubmisionId(\n                _debridgeId,\n                _chainIdFrom,\n                chainId,\n                _amount,\n                _receiver,\n                _nonce\n            );\n        {\n            (uint256 confirmations, bool confirmed) =\n                ILightVerifier(aggregator).submit(submissionId, _signatures);\n            require(confirmed, \"claim: not confirmed\");\n            if (_amount >= getAmountThreshold[_debridgeId]) {\n                require(\n                    confirmations >= excessConfirmations,\n                    \"claim: amount not confirmed\"\n                );\n            }\n        }\n        _claim(\n            submissionId,\n            _debridgeId,\n            _receiver,\n            _amount,\n            address(0),\n            0,\n            \"0x\"\n        );\n    }\n\n    /// @dev Unlock the asset on the current chain and transfer to receiver.\n    /// @param _debridgeId Asset identifier.\n    /// @param _receiver Receiver address.\n    /// @param _amount Amount of the transfered asset (note: the fee can be applyed).\n    /// @param _nonce Submission id.\n    /// @param _signatures Array of oracles signatures.\n    /// @param _fallbackAddress Receiver of the tokens if the call fails.\n    /// @param _executionFee Fee paid to the transaction executor.\n    /// @param _data Chain id of the target chain.\n    function autoClaim(\n        bytes32 _debridgeId,\n        uint256 _chainIdFrom,\n        address _receiver,\n        uint256 _amount,\n        uint256 _nonce,\n        bytes[] calldata _signatures,\n        address _fallbackAddress,\n        uint256 _executionFee,\n        bytes memory _data\n    ) external {\n        bytes32 submissionId =\n            getAutoSubmisionId(\n                _debridgeId,\n                _chainIdFrom,\n                chainId,\n                _amount,\n                _receiver,\n                _nonce,\n                _fallbackAddress,\n                _executionFee,\n                _data\n            );\n        {\n            (uint256 confirmations, bool confirmed) =\n                ILightVerifier(aggregator).submit(submissionId, _signatures);\n            require(confirmed, \"autoClaim: not confirmed\");\n            if (_amount >= getAmountThreshold[_debridgeId]) {\n                require(\n                    confirmations >= excessConfirmations,\n                    \"autoClaim: amount not confirmed\"\n                );\n            }\n        }\n        _claim(\n            submissionId,\n            _debridgeId,\n            _receiver,\n            _amount,\n            _fallbackAddress,\n            _executionFee,\n            _data\n        );\n    }\n\n    /// @dev Unlock the asset on the current chain and transfer to receiver.\n    /// @param _debridgeId Asset identifier.\n    /// @param _receiver Receiver address.\n    /// @param _amount Amount of the transfered asset (note: the fee can be applyed).\n    /// @param _nonce Submission id.\n    /// @param _signatures Array of oracles signatures.\n    /// @param _fallbackAddress Receiver of the tokens if the call fails.\n    /// @param _executionFee Fee paid to the transaction executor.\n    /// @param _data Chain id of the target chain.\n    function autoClaimWithOldAggregator(\n        bytes32 _debridgeId,\n        uint256 _chainIdFrom,\n        address _receiver,\n        uint256 _amount,\n        uint256 _nonce,\n        bytes[] calldata _signatures,\n        address _fallbackAddress,\n        uint256 _executionFee,\n        bytes memory _data,\n        uint8 _aggregatorVersion\n    ) external {\n        bytes32 submissionId =\n            getAutoSubmisionId(\n                _debridgeId,\n                _chainIdFrom,\n                chainId,\n                _amount,\n                _receiver,\n                _nonce,\n                _fallbackAddress,\n                _executionFee,\n                _data\n            );\n        require(\n            getOldAggregator[_aggregatorVersion].isValid,\n            \"mintWithOldAggregator: invalid aggregator\"\n        );\n        {\n            (uint256 confirmations, bool confirmed) =\n                ILightVerifier(getOldAggregator[_aggregatorVersion].aggregator)\n                    .submit(submissionId, _signatures);\n            require(confirmed, \"mintWithOldAggregator: not confirmed\");\n            if (_amount >= getAmountThreshold[_debridgeId]) {\n                require(\n                    confirmations >= excessConfirmations,\n                    \"mintWithOldAggregator: amount not confirmed\"\n                );\n            }\n        }\n        _claim(\n            submissionId,\n            _debridgeId,\n            _receiver,\n            _amount,\n            _fallbackAddress,\n            _executionFee,\n            _data\n        );\n    }\n\n    /// @dev Unlock the asset on the current chain and transfer to receiver.\n    /// @param _debridgeId Asset identifier.\n    /// @param _receiver Receiver address.\n    /// @param _amount Amount of the transfered asset (note: the fee can be applyed).\n    /// @param _nonce Submission id.\n    /// @param _signatures Array of oracles signatures.\n    /// @param _aggregatorVersion Aggregator version.\n    function claimWithOldAggregator(\n        bytes32 _debridgeId,\n        uint256 _chainIdFrom,\n        address _receiver,\n        uint256 _amount,\n        uint256 _nonce,\n        bytes[] calldata _signatures,\n        uint8 _aggregatorVersion\n    ) external override {\n        bytes32 submissionId =\n            getSubmisionId(\n                _debridgeId,\n                _chainIdFrom,\n                chainId,\n                _amount,\n                _receiver,\n                _nonce\n            );\n        require(\n            getOldAggregator[_aggregatorVersion].isValid,\n            \"claimWithOldAggregator: invalid aggregator\"\n        );\n        {\n            (uint256 confirmations, bool confirmed) =\n                ILightVerifier(getOldAggregator[_aggregatorVersion].aggregator)\n                    .submit(submissionId, _signatures);\n            require(confirmed, \"claimWithOldAggregator: not confirmed\");\n            if (_amount >= getAmountThreshold[_debridgeId]) {\n                require(\n                    confirmations >= excessConfirmations,\n                    \"claimWithOldAggregator: amount not confirmed\"\n                );\n            }\n        }\n        _claim(\n            submissionId,\n            _debridgeId,\n            _receiver,\n            _amount,\n            address(0),\n            0,\n            \"0x\"\n        );\n    }\n}\n",
  "sourcePath": "/root/debridge-contracts/contracts/transfers/LightDebridge.sol",
  "compiler": {
    "name": "solc",
    "version": "0.8.2+commit.661d1103.Emscripten.clang"
  },
  "schemaVersion": "3.3.4",
  "updatedAt": "2021-06-20T15:43:29.360Z",
  "devdoc": {
    "kind": "dev",
    "methods": {
      "addExternalAsset(address,address,uint256,uint256,uint256,uint256,uint256,uint256[],(bool,uint256,uint256)[])": {
        "details": "Add support for the asset from the other chain, deploy new wrapped asset.",
        "params": {
          "_chainId": "Current chain id.",
          "_maxAmount": "Maximum amount of current chain token to be wrapped.",
          "_minAmount": "Minimal amount of the asset to be wrapped.",
          "_minReserves": "Minimal reserve ration.",
          "_supportedChainIds": "Chain ids where the token of the current chain can be transfered.",
          "_tokenAddress": "Address of the asset on the other chain.",
          "_wrappedAssetAddress": "Wrapped asset address."
        }
      },
      "addNativeAsset(address,uint256,uint256,uint256,uint256,uint256[],(bool,uint256,uint256)[])": {
        "details": "Add support for the asset on the current chain.",
        "params": {
          "_maxAmount": "Maximum amount of current chain token to be wrapped.",
          "_minAmount": "Minimal amount of current chain token to be wrapped.",
          "_minReserves": "Minimal reserve ration.",
          "_supportedChainIds": "Chain ids where native token of the current chain can be wrapped.",
          "_tokenAddress": "Address of the asset on the current chain."
        }
      },
      "autoBurn(bytes32,address,uint256,uint256,address,uint256,bytes,uint256,bytes)": {
        "details": "Burns wrapped asset and allowss to claim it on the other chain.",
        "params": {
          "_amount": "Amount of the transfered asset (note: the fee can be applyed).",
          "_chainIdTo": "Chain id of the target chain.",
          "_data": "Chain id of the target chain.",
          "_debridgeId": "Asset identifier.",
          "_executionFee": "Fee paid to the transaction executor.",
          "_fallbackAddress": "Receiver of the tokens if the call fails.",
          "_receiver": "Receiver address."
        }
      },
      "autoClaim(bytes32,uint256,address,uint256,uint256,bytes[],address,uint256,bytes)": {
        "details": "Unlock the asset on the current chain and transfer to receiver.",
        "params": {
          "_amount": "Amount of the transfered asset (note: the fee can be applyed).",
          "_data": "Chain id of the target chain.",
          "_debridgeId": "Asset identifier.",
          "_executionFee": "Fee paid to the transaction executor.",
          "_fallbackAddress": "Receiver of the tokens if the call fails.",
          "_nonce": "Submission id.",
          "_receiver": "Receiver address.",
          "_signatures": "Array of oracles signatures."
        }
      },
      "autoClaimWithOldAggregator(bytes32,uint256,address,uint256,uint256,bytes[],address,uint256,bytes,uint8)": {
        "details": "Unlock the asset on the current chain and transfer to receiver.",
        "params": {
          "_amount": "Amount of the transfered asset (note: the fee can be applyed).",
          "_data": "Chain id of the target chain.",
          "_debridgeId": "Asset identifier.",
          "_executionFee": "Fee paid to the transaction executor.",
          "_fallbackAddress": "Receiver of the tokens if the call fails.",
          "_nonce": "Submission id.",
          "_receiver": "Receiver address.",
          "_signatures": "Array of oracles signatures."
        }
      },
      "autoMint(bytes32,uint256,address,uint256,uint256,bytes[],address,uint256,bytes)": {
        "details": "Mints wrapped asset on the current chain.",
        "params": {
          "_amount": "Amount of the transfered asset (note: without applyed fee).",
          "_data": "Chain id of the target chain.",
          "_debridgeId": "Asset identifier.",
          "_executionFee": "Fee paid to the transaction executor.",
          "_fallbackAddress": "Receiver of the tokens if the call fails.",
          "_nonce": "Submission id.",
          "_receiver": "Receiver address.",
          "_signatures": "Array of oracles signatures."
        }
      },
      "autoMintWithOldAggregator(bytes32,uint256,address,uint256,uint256,bytes[],address,uint256,bytes,uint8)": {
        "details": "Mints wrapped asset on the current chain.",
        "params": {
          "_amount": "Amount of the transfered asset (note: without applyed fee).",
          "_data": "Chain id of the target chain.",
          "_debridgeId": "Asset identifier.",
          "_executionFee": "Fee paid to the transaction executor.",
          "_fallbackAddress": "Receiver of the tokens if the call fails.",
          "_nonce": "Submission id.",
          "_receiver": "Receiver address.",
          "_signatures": "Array of oracles signatures."
        }
      },
      "autoSend(bytes32,address,uint256,uint256,address,uint256,bytes)": {
        "details": "Locks asset on the chain and enables minting on the other chain.",
        "params": {
          "_amount": "Amount to be transfered (note: the fee can be applyed).",
          "_chainIdTo": "Chain id of the target chain.",
          "_data": "Chain id of the target chain.",
          "_debridgeId": "Asset identifier.",
          "_executionFee": "Fee paid to the transaction executor.",
          "_fallbackAddress": "Receiver of the tokens if the call fails.",
          "_receiver": "Receiver address."
        }
      },
      "burn(bytes32,address,uint256,uint256,uint256,bytes)": {
        "details": "Burns wrapped asset and allowss to claim it on the other chain.",
        "params": {
          "_amount": "Amount of the transfered asset (note: the fee can be applyed).",
          "_chainIdTo": "Chain id of the target chain.",
          "_debridgeId": "Asset identifier.",
          "_receiver": "Receiver address."
        }
      },
      "claim(bytes32,uint256,address,uint256,uint256,bytes[])": {
        "details": "Unlock the asset on the current chain and transfer to receiver.",
        "params": {
          "_amount": "Amount of the transfered asset (note: the fee can be applyed).",
          "_debridgeId": "Asset identifier.",
          "_nonce": "Submission id.",
          "_receiver": "Receiver address.",
          "_signatures": "Array of oracles signatures."
        }
      },
      "claimWithOldAggregator(bytes32,uint256,address,uint256,uint256,bytes[],uint8)": {
        "details": "Unlock the asset on the current chain and transfer to receiver.",
        "params": {
          "_aggregatorVersion": "Aggregator version.",
          "_amount": "Amount of the transfered asset (note: the fee can be applyed).",
          "_debridgeId": "Asset identifier.",
          "_nonce": "Submission id.",
          "_receiver": "Receiver address.",
          "_signatures": "Array of oracles signatures."
        }
      },
      "getAutoSubmisionId(bytes32,uint256,uint256,uint256,address,uint256,address,uint256,bytes)": {
        "details": "Calculate submission id for auto claimable transfer.",
        "params": {
          "_amount": "Amount of the transfered asset (note: the fee can be applyed).",
          "_chainIdFrom": "Chain identifier of the chain where tokens are sent from.",
          "_chainIdTo": "Chain identifier of the chain where tokens are sent to.",
          "_data": "Chain id of the target chain.",
          "_debridgeId": "Asset identifier.",
          "_executionFee": "Fee paid to the transaction executor.",
          "_fallbackAddress": "Receiver of the tokens if the call fails.",
          "_nonce": "Submission id.",
          "_receiver": "Receiver address."
        }
      },
      "getBalance(address)": {
        "details": "Get the balance.",
        "params": {
          "_tokenAddress": "Address of the asset on the other chain."
        }
      },
      "getChainIdSupport(bytes32,uint256)": {
        "details": "Check if transfer to chain is supported.",
        "params": {
          "_chainId": "Chain identifier.",
          "_debridgeId": "Asset identifier."
        }
      },
      "getDebridgeId(uint256,address)": {
        "details": "Calculates asset identifier.",
        "params": {
          "_chainId": "Current chain id.",
          "_tokenAddress": "Address of the asset on the other chain."
        }
      },
      "getRoleAdmin(bytes32)": {
        "details": "Returns the admin role that controls `role`. See {grantRole} and {revokeRole}. To change a role's admin, use {_setRoleAdmin}."
      },
      "getSubmisionId(bytes32,uint256,uint256,uint256,address,uint256)": {
        "details": "Calculate submission id.",
        "params": {
          "_amount": "Amount of the transfered asset (note: the fee can be applyed).",
          "_chainIdFrom": "Chain identifier of the chain where tokens are sent from.",
          "_chainIdTo": "Chain identifier of the chain where tokens are sent to.",
          "_debridgeId": "Asset identifier.",
          "_nonce": "Submission id.",
          "_receiver": "Receiver address."
        }
      },
      "grantRole(bytes32,address)": {
        "details": "Grants `role` to `account`. If `account` had not been already granted `role`, emits a {RoleGranted} event. Requirements: - the caller must have ``role``'s admin role."
      },
      "hasRole(bytes32,address)": {
        "details": "Returns `true` if `account` has been granted `role`."
      },
      "initialize(uint256,uint256,uint256,uint256,uint256,address,address,uint256[],(bool,uint256,uint256)[],address)": {
        "details": "Constructor that initializes the most important configurations.",
        "params": {
          "_aggregator": "Submission aggregator address.",
          "_maxAmount": "Maximum amount of current chain token to be wrapped.",
          "_minAmount": "Minimal amount of current chain token to be wrapped.",
          "_minReserves": "Minimal reserve ratio.",
          "_supportedChainIds": "Chain ids where native token of the current chain can be wrapped."
        }
      },
      "manageOldAggregator(uint8,bool)": {
        "details": "Set aggregator address.",
        "params": {
          "_aggregatorVersion": "Submission aggregator address.",
          "_isValid": "Is valid."
        }
      },
      "mint(bytes32,uint256,address,uint256,uint256,bytes[])": {
        "details": "Mints wrapped asset on the current chain.",
        "params": {
          "_amount": "Amount of the transfered asset (note: without applyed fee).",
          "_debridgeId": "Asset identifier.",
          "_nonce": "Submission id.",
          "_receiver": "Receiver address.",
          "_signatures": "Array of oracles signatures."
        }
      },
      "mintWithOldAggregator(bytes32,uint256,address,uint256,uint256,bytes[],uint8)": {
        "details": "Mints wrapped asset on the current chain.",
        "params": {
          "_aggregatorVersion": "Aggregator version.",
          "_amount": "Amount of the transfered asset (note: without applyed fee).",
          "_debridgeId": "Asset identifier.",
          "_nonce": "Submission id.",
          "_receiver": "Receiver address.",
          "_signatures": "Array of oracles signatures."
        }
      },
      "pause()": {
        "details": "Stop all transfers."
      },
      "paused()": {
        "details": "Returns true if the contract is paused, and false otherwise."
      },
      "renounceRole(bytes32,address)": {
        "details": "Revokes `role` from the calling account. Roles are often managed via {grantRole} and {revokeRole}: this function's purpose is to provide a mechanism for accounts to lose their privileges if they are compromised (such as when a trusted device is misplaced). If the calling account had been granted `role`, emits a {RoleRevoked} event. Requirements: - the caller must be `account`."
      },
      "requestReserves(address,uint256)": {
        "details": "Request the assets to be used in defi protocol.",
        "params": {
          "_amount": "Amount of tokens to request.",
          "_tokenAddress": "Asset address."
        }
      },
      "returnReserves(address,uint256)": {
        "details": "Return the assets that were used in defi protocol.",
        "params": {
          "_amount": "Amount of tokens to claim.",
          "_tokenAddress": "Asset address."
        }
      },
      "revokeRole(bytes32,address)": {
        "details": "Revokes `role` from `account`. If `account` had been granted `role`, emits a {RoleRevoked} event. Requirements: - the caller must have ``role``'s admin role."
      },
      "send(bytes32,address,uint256,uint256)": {
        "details": "Locks asset on the chain and enables minting on the other chain.",
        "params": {
          "_amount": "Amount to be transfered (note: the fee can be applyed).",
          "_chainIdTo": "Chain id of the target chain.",
          "_debridgeId": "Asset identifier.",
          "_receiver": "Receiver address."
        }
      },
      "setAggregator(address)": {
        "details": "Set aggregator address.",
        "params": {
          "_aggregator": "Submission aggregator address."
        }
      },
      "setCallProxy(address)": {
        "details": "Set proxy address.",
        "params": {
          "_callProxy": "Address of the proxy that executes external calls."
        }
      },
      "setChainIdSupport(bytes32,uint256,bool)": {
        "details": "Set support for the chains where the token can be transfered.",
        "params": {
          "_chainId": "Current chain id.",
          "_debridgeId": "Asset identifier.",
          "_isSupported": "Whether the token is transferable to the other chain."
        }
      },
      "setChainIds(uint256[])": {
        "details": "Set support for the chains.",
        "params": {
          "_chainIds": "All supported chain ids."
        }
      },
      "setDefiController(address)": {
        "details": "Set defi controoler.",
        "params": {
          "_defiController": "Defi controller address address."
        }
      },
      "splitSignature(bytes)": {
        "details": "Splits signature bytes to r,s,v components.",
        "params": {
          "_signature": "Signature bytes in format r+s+v."
        }
      },
      "supportsInterface(bytes4)": {
        "details": "See {IERC165-supportsInterface}."
      },
      "unpause()": {
        "details": "Allow transfers."
      },
      "updateAsset(bytes32,uint256,uint256,uint256,uint256)": {
        "details": "Add support for the asset.",
        "params": {
          "_debridgeId": "Asset identifier.",
          "_maxAmount": "Maximum amount of current chain token to be wrapped.",
          "_minAmount": "Minimal amount of the asset to be wrapped.",
          "_minReserves": "Minimal reserve ration."
        }
      },
      "updateAsset(bytes32,uint256[],(bool,uint256,uint256)[])": {
        "details": "Update asset's fees.",
        "params": {
          "_chainSupportInfo": "Cahin support info.",
          "_debridgeId": "Asset identifier.",
          "_supportedChainIds": "Chain identifiers."
        }
      },
      "withdrawFee(bytes32,address,uint256)": {
        "details": "Withdraw fees.",
        "params": {
          "_amount": "Amount of tokens to withdraw.",
          "_debridgeId": "Asset identifier.",
          "_receiver": "Receiver address."
        }
      }
    },
    "version": 1
  },
  "userdoc": {
    "kind": "user",
    "methods": {},
    "version": 1
  }
}