{
  "contractName": "LightVerifier",
  "abi": [
    {
      "inputs": [
        {
          "internalType": "uint256",
          "name": "_minConfirmations",
          "type": "uint256"
        },
        {
          "internalType": "uint256",
          "name": "_confirmationThreshold",
          "type": "uint256"
        },
        {
          "internalType": "uint256",
          "name": "_excessConfirmations",
          "type": "uint256"
        },
        {
          "internalType": "address",
          "name": "_wrappedAssetAdmin",
          "type": "address"
        },
        {
          "internalType": "address",
          "name": "_debridgeAddress",
          "type": "address"
        }
      ],
      "stateMutability": "nonpayable",
      "type": "constructor"
    },
    {
      "anonymous": false,
      "inputs": [
        {
          "indexed": false,
          "internalType": "bytes32",
          "name": "submissionId",
          "type": "bytes32"
        },
        {
          "indexed": false,
          "internalType": "address",
          "name": "operator",
          "type": "address"
        }
      ],
      "name": "Confirmed",
      "type": "event"
    },
    {
      "anonymous": false,
      "inputs": [
        {
          "indexed": false,
          "internalType": "bytes32",
          "name": "deployId",
          "type": "bytes32"
        }
      ],
      "name": "DeployApproved",
      "type": "event"
    },
    {
      "anonymous": false,
      "inputs": [
        {
          "indexed": false,
          "internalType": "bytes32",
          "name": "deployId",
          "type": "bytes32"
        },
        {
          "indexed": false,
          "internalType": "address",
          "name": "operator",
          "type": "address"
        }
      ],
      "name": "DeployConfirmed",
      "type": "event"
    },
    {
      "anonymous": false,
      "inputs": [
        {
          "indexed": true,
          "internalType": "bytes32",
          "name": "role",
          "type": "bytes32"
        },
        {
          "indexed": true,
          "internalType": "bytes32",
          "name": "previousAdminRole",
          "type": "bytes32"
        },
        {
          "indexed": true,
          "internalType": "bytes32",
          "name": "newAdminRole",
          "type": "bytes32"
        }
      ],
      "name": "RoleAdminChanged",
      "type": "event"
    },
    {
      "anonymous": false,
      "inputs": [
        {
          "indexed": true,
          "internalType": "bytes32",
          "name": "role",
          "type": "bytes32"
        },
        {
          "indexed": true,
          "internalType": "address",
          "name": "account",
          "type": "address"
        },
        {
          "indexed": true,
          "internalType": "address",
          "name": "sender",
          "type": "address"
        }
      ],
      "name": "RoleGranted",
      "type": "event"
    },
    {
      "anonymous": false,
      "inputs": [
        {
          "indexed": true,
          "internalType": "bytes32",
          "name": "role",
          "type": "bytes32"
        },
        {
          "indexed": true,
          "internalType": "address",
          "name": "account",
          "type": "address"
        },
        {
          "indexed": true,
          "internalType": "address",
          "name": "sender",
          "type": "address"
        }
      ],
      "name": "RoleRevoked",
      "type": "event"
    },
    {
      "anonymous": false,
      "inputs": [
        {
          "indexed": false,
          "internalType": "bytes32",
          "name": "submissionId",
          "type": "bytes32"
        }
      ],
      "name": "SubmissionApproved",
      "type": "event"
    },
    {
      "inputs": [],
      "name": "DEFAULT_ADMIN_ROLE",
      "outputs": [
        {
          "internalType": "bytes32",
          "name": "",
          "type": "bytes32"
        }
      ],
      "stateMutability": "view",
      "type": "function"
    },
    {
      "inputs": [],
      "name": "ORACLE_ROLE",
      "outputs": [
        {
          "internalType": "bytes32",
          "name": "",
          "type": "bytes32"
        }
      ],
      "stateMutability": "view",
      "type": "function"
    },
    {
      "inputs": [],
      "name": "confirmationThreshold",
      "outputs": [
        {
          "internalType": "uint256",
          "name": "",
          "type": "uint256"
        }
      ],
      "stateMutability": "view",
      "type": "function"
    },
    {
      "inputs": [
        {
          "internalType": "bytes32",
          "name": "",
          "type": "bytes32"
        }
      ],
      "name": "confirmedDeployInfo",
      "outputs": [
        {
          "internalType": "bytes32",
          "name": "",
          "type": "bytes32"
        }
      ],
      "stateMutability": "view",
      "type": "function"
    },
    {
      "inputs": [],
      "name": "debridgeAddress",
      "outputs": [
        {
          "internalType": "address",
          "name": "",
          "type": "address"
        }
      ],
      "stateMutability": "view",
      "type": "function"
    },
    {
      "inputs": [],
      "name": "excessConfirmations",
      "outputs": [
        {
          "internalType": "uint256",
          "name": "",
          "type": "uint256"
        }
      ],
      "stateMutability": "view",
      "type": "function"
    },
    {
      "inputs": [
        {
          "internalType": "uint256",
          "name": "",
          "type": "uint256"
        }
      ],
      "name": "getConfirmationsPerBlock",
      "outputs": [
        {
          "internalType": "uint256",
          "name": "count",
          "type": "uint256"
        },
        {
          "internalType": "bool",
          "name": "requireExtraCheck",
          "type": "bool"
        }
      ],
      "stateMutability": "view",
      "type": "function"
    },
    {
      "inputs": [
        {
          "internalType": "bytes32",
          "name": "",
          "type": "bytes32"
        }
      ],
      "name": "getDeployInfo",
      "outputs": [
        {
          "internalType": "address",
          "name": "tokenAddress",
          "type": "address"
        },
        {
          "internalType": "uint256",
          "name": "chainId",
          "type": "uint256"
        },
        {
          "internalType": "string",
          "name": "name",
          "type": "string"
        },
        {
          "internalType": "string",
          "name": "symbol",
          "type": "string"
        },
        {
          "internalType": "uint8",
          "name": "decimals",
          "type": "uint8"
        },
        {
          "internalType": "uint256",
          "name": "confirmations",
          "type": "uint256"
        }
      ],
      "stateMutability": "view",
      "type": "function"
    },
    {
      "inputs": [
        {
          "internalType": "bytes32",
          "name": "role",
          "type": "bytes32"
        }
      ],
      "name": "getRoleAdmin",
      "outputs": [
        {
          "internalType": "bytes32",
          "name": "",
          "type": "bytes32"
        }
      ],
      "stateMutability": "view",
      "type": "function"
    },
    {
      "inputs": [
        {
          "internalType": "bytes32",
          "name": "",
          "type": "bytes32"
        }
      ],
      "name": "getSubmissionInfo",
      "outputs": [
        {
          "internalType": "uint256",
          "name": "block",
          "type": "uint256"
        },
        {
          "internalType": "uint256",
          "name": "confirmations",
          "type": "uint256"
        }
      ],
      "stateMutability": "view",
      "type": "function"
    },
    {
      "inputs": [
        {
          "internalType": "bytes32",
          "name": "",
          "type": "bytes32"
        }
      ],
      "name": "getWrappedAssetAddress",
      "outputs": [
        {
          "internalType": "address",
          "name": "",
          "type": "address"
        }
      ],
      "stateMutability": "view",
      "type": "function"
    },
    {
      "inputs": [
        {
          "internalType": "bytes32",
          "name": "role",
          "type": "bytes32"
        },
        {
          "internalType": "address",
          "name": "account",
          "type": "address"
        }
      ],
      "name": "grantRole",
      "outputs": [],
      "stateMutability": "nonpayable",
      "type": "function"
    },
    {
      "inputs": [
        {
          "internalType": "bytes32",
          "name": "role",
          "type": "bytes32"
        },
        {
          "internalType": "address",
          "name": "account",
          "type": "address"
        }
      ],
      "name": "hasRole",
      "outputs": [
        {
          "internalType": "bool",
          "name": "",
          "type": "bool"
        }
      ],
      "stateMutability": "view",
      "type": "function"
    },
    {
      "inputs": [],
      "name": "minConfirmations",
      "outputs": [
        {
          "internalType": "uint256",
          "name": "",
          "type": "uint256"
        }
      ],
      "stateMutability": "view",
      "type": "function"
    },
    {
      "inputs": [
        {
          "internalType": "bytes32",
          "name": "role",
          "type": "bytes32"
        },
        {
          "internalType": "address",
          "name": "account",
          "type": "address"
        }
      ],
      "name": "renounceRole",
      "outputs": [],
      "stateMutability": "nonpayable",
      "type": "function"
    },
    {
      "inputs": [
        {
          "internalType": "bytes32",
          "name": "role",
          "type": "bytes32"
        },
        {
          "internalType": "address",
          "name": "account",
          "type": "address"
        }
      ],
      "name": "revokeRole",
      "outputs": [],
      "stateMutability": "nonpayable",
      "type": "function"
    },
    {
      "inputs": [
        {
          "internalType": "bytes4",
          "name": "interfaceId",
          "type": "bytes4"
        }
      ],
      "name": "supportsInterface",
      "outputs": [
        {
          "internalType": "bool",
          "name": "",
          "type": "bool"
        }
      ],
      "stateMutability": "view",
      "type": "function"
    },
    {
      "inputs": [],
      "name": "wrappedAssetAdmin",
      "outputs": [
        {
          "internalType": "address",
          "name": "",
          "type": "address"
        }
      ],
      "stateMutability": "view",
      "type": "function"
    },
    {
      "inputs": [
        {
          "internalType": "address",
          "name": "_tokenAddress",
          "type": "address"
        },
        {
          "internalType": "uint256",
          "name": "_chainId",
          "type": "uint256"
        },
        {
          "internalType": "string",
          "name": "_name",
          "type": "string"
        },
        {
          "internalType": "string",
          "name": "_symbol",
          "type": "string"
        },
        {
          "internalType": "uint8",
          "name": "_decimals",
          "type": "uint8"
        },
        {
          "internalType": "bytes[]",
          "name": "_signatures",
          "type": "bytes[]"
        }
      ],
      "name": "confirmNewAsset",
      "outputs": [],
      "stateMutability": "nonpayable",
      "type": "function"
    },
    {
      "inputs": [
        {
          "internalType": "bytes32",
          "name": "_debridgeId",
          "type": "bytes32"
        }
      ],
      "name": "deployAsset",
      "outputs": [
        {
          "internalType": "address",
          "name": "wrappedAssetAddress",
          "type": "address"
        },
        {
          "internalType": "uint256",
          "name": "nativeChainId",
          "type": "uint256"
        }
      ],
      "stateMutability": "nonpayable",
      "type": "function"
    },
    {
      "inputs": [
        {
          "internalType": "bytes32",
          "name": "_submissionId",
          "type": "bytes32"
        },
        {
          "internalType": "bytes[]",
          "name": "_signatures",
          "type": "bytes[]"
        }
      ],
      "name": "submit",
      "outputs": [
        {
          "internalType": "uint256",
          "name": "_confirmations",
          "type": "uint256"
        },
        {
          "internalType": "bool",
          "name": "_blockConfirmationPassed",
          "type": "bool"
        }
      ],
      "stateMutability": "nonpayable",
      "type": "function"
    },
    {
      "inputs": [
        {
          "internalType": "address",
          "name": "_wrappedAssetAdmin",
          "type": "address"
        }
      ],
      "name": "setWrappedAssetAdmin",
      "outputs": [],
      "stateMutability": "nonpayable",
      "type": "function"
    },
    {
      "inputs": [
        {
          "internalType": "address",
          "name": "_debridgeAddress",
          "type": "address"
        }
      ],
      "name": "setDebridgeAddress",
      "outputs": [],
      "stateMutability": "nonpayable",
      "type": "function"
    },
    {
      "inputs": [
        {
          "internalType": "uint256",
          "name": "_minConfirmations",
          "type": "uint256"
        }
      ],
      "name": "setMinConfirmations",
      "outputs": [],
      "stateMutability": "nonpayable",
      "type": "function"
    },
    {
      "inputs": [
        {
          "internalType": "address",
          "name": "_oracle",
          "type": "address"
        }
      ],
      "name": "addOracle",
      "outputs": [],
      "stateMutability": "nonpayable",
      "type": "function"
    },
    {
      "inputs": [
        {
          "internalType": "address",
          "name": "_oracle",
          "type": "address"
        }
      ],
      "name": "removeOracle",
      "outputs": [],
      "stateMutability": "nonpayable",
      "type": "function"
    },
    {
      "inputs": [
        {
          "internalType": "bytes32",
          "name": "_submissionId",
          "type": "bytes32"
        }
      ],
      "name": "getSubmissionConfirmations",
      "outputs": [
        {
          "internalType": "uint256",
          "name": "_confirmations",
          "type": "uint256"
        },
        {
          "internalType": "bool",
          "name": "_blockConfirmationPassed",
          "type": "bool"
        }
      ],
      "stateMutability": "view",
      "type": "function"
    },
    {
      "inputs": [
        {
          "internalType": "bytes32",
          "name": "_submissionId",
          "type": "bytes32"
        }
      ],
      "name": "getUnsignedMsg",
      "outputs": [
        {
          "internalType": "bytes32",
          "name": "",
          "type": "bytes32"
        }
      ],
      "stateMutability": "pure",
      "type": "function"
    },
    {
      "inputs": [
        {
          "internalType": "bytes",
          "name": "_signature",
          "type": "bytes"
        }
      ],
      "name": "splitSignature",
      "outputs": [
        {
          "internalType": "bytes32",
          "name": "r",
          "type": "bytes32"
        },
        {
          "internalType": "bytes32",
          "name": "s",
          "type": "bytes32"
        },
        {
          "internalType": "uint8",
          "name": "v",
          "type": "uint8"
        }
      ],
      "stateMutability": "pure",
      "type": "function"
    },
    {
      "inputs": [
        {
          "internalType": "uint256",
          "name": "_chainId",
          "type": "uint256"
        },
        {
          "internalType": "address",
          "name": "_tokenAddress",
          "type": "address"
        }
      ],
      "name": "getDebridgeId",
      "outputs": [
        {
          "internalType": "bytes32",
          "name": "",
          "type": "bytes32"
        }
      ],
      "stateMutability": "pure",
      "type": "function"
    },
    {
      "inputs": [
        {
          "internalType": "bytes32",
          "name": "_debridgeId",
          "type": "bytes32"
        },
        {
          "internalType": "string",
          "name": "_name",
          "type": "string"
        },
        {
          "internalType": "string",
          "name": "_symbol",
          "type": "string"
        },
        {
          "internalType": "uint8",
          "name": "_decimals",
          "type": "uint8"
        }
      ],
      "name": "getDeployId",
      "outputs": [
        {
          "internalType": "bytes32",
          "name": "",
          "type": "bytes32"
        }
      ],
      "stateMutability": "pure",
      "type": "function"
    }
  ],
  "bytecode": "0x60806040523480156200001157600080fd5b506040516200395738038062003957833981016040819052620000349162000158565b600184905560028590556003839055600580546001600160a01b038085166001600160a01b0319928316179092556006805492841692909116919091179055620000806000336200008b565b5050505050620001ac565b6200009782826200009b565b5050565b6000828152602081815260408083206001600160a01b038516845290915290205460ff1662000097576000828152602081815260408083206001600160a01b03851684529091529020805460ff19166001179055620000f73390565b6001600160a01b0316816001600160a01b0316837f2f8788117e7eff1d82e926ec794901d17c78024a50270940304540a733656f0d60405160405180910390a45050565b80516001600160a01b03811681146200015357600080fd5b919050565b600080600080600060a0868803121562000170578081fd5b85519450602086015193506040860151925062000190606087016200013b565b9150620001a0608087016200013b565b90509295509295909350565b61379b80620001bc6000396000f3fe60806040523480156200001157600080fd5b5060043610620002145760003560e01c8063a217fddf1162000129578063d19c3dd811620000b1578063e7c4393e116200007b578063e7c4393e146200057c578063f91aa3171462000586578063fceb17eb146200059d578063fdc85fc414620005a75762000214565b8063d19c3dd81462000520578063d28216551462000537578063d547741f146200054e578063df5dd1a514620005655762000214565b8063b9b5565211620000f3578063b9b5565214620004d4578063c1eef58314620004de578063c3d990ee14620004f5578063c4e73377146200050c5762000214565b8063a217fddf1462000451578063a7bb5803146200045a578063addd6f5a1462000490578063b504922614620004bd5762000214565b80632f2ff15d11620001ad57806362d45bbd116200017757806362d45bbd14620003e95780636acdde55146200040c57806391d1485414620004235780639682b909146200043a5762000214565b80632f2ff15d146200035757806336568abe14620003705780633be98a1b14620003875780635db7c67314620003b25762000214565b80630da79b9311620001ef5780630da79b9314620002985780630e3b90a914620002c457806321c277311462000304578063248a9ca314620003315762000214565b806301ffc9a7146200021957806307e2cea51462000245578063097694d1146200026b575b600080fd5b620002306200022a36600462001a17565b620005be565b60405190151581526020015b60405180910390f35b6200025c6000805160206200374683398151915281565b6040519081526020016200023c565b6005546200027f906001600160a01b031681565b6040516001600160a01b0390911681526020016200023c565b6200027f620002a936600462001903565b6009602052600090815260409020546001600160a01b031681565b620002ee620002d536600462001903565b600a602052600090815260409020805460019091015482565b604080519283526020830191909152016200023c565b6200031b6200031536600462001903565b620005f8565b604080519283529015156020830152016200023c565b6200025c6200034236600462001903565b60009081526020819052604090206001015490565b6200036e620003683660046200191c565b62000646565b005b6200036e620003813660046200191c565b620006df565b6200039e6200039836600462001903565b6200075d565b6040516200023c9695949392919062001bb1565b620003c9620003c336600462001903565b620008c0565b604080516001600160a01b0390931683526020830191909152016200023c565b6200025c620003fa36600462001903565b60076020526000908152604090205481565b6200036e6200041d36600462001847565b62000b80565b62000230620004343660046200191c565b62000ec9565b6200025c6200044b3660046200191c565b62000ef2565b6200025c600081565b620004716200046b36600462001a41565b62000f41565b60408051938452602084019290925260ff16908201526060016200023c565b6200031b620004a136600462001903565b6004602052600090815260409020805460019091015460ff1682565b6200036e620004ce36600462001823565b62000fc8565b6200025c60035481565b6200036e620004ef36600462001823565b62001016565b6200025c6200050636600462001903565b62001064565b6006546200027f906001600160a01b031681565b6200025c6200053136600462001993565b620010b7565b6200036e6200054836600462001903565b620010f2565b6200036e6200055f3660046200191c565b62001123565b6200036e6200057636600462001823565b620011a7565b6200025c60025481565b6200031b620005973660046200194a565b620011f1565b6200025c60015481565b6200036e620005b836600462001823565b62001517565b60006001600160e01b03198216637965db0b60e01b1480620005f057506301ffc9a760e01b6001600160e01b03198316145b90505b919050565b6000818152600a602090815260408083208054845260049092528220600180830154908201549093929190849060ff1662000636576002546200063a565b6003545b90969410159450505050565b60008281526020819052604090206001015462000665905b3362000434565b620006cf5760405162461bcd60e51b815260206004820152602f60248201527f416363657373436f6e74726f6c3a2073656e646572206d75737420626520616e60448201526e0818591b5a5b881d1bc819dc985b9d608a1b60648201526084015b60405180910390fd5b620006db82826200155e565b5050565b6001600160a01b0381163314620007515760405162461bcd60e51b815260206004820152602f60248201527f416363657373436f6e74726f6c3a2063616e206f6e6c792072656e6f756e636560448201526e103937b632b9903337b91039b2b63360891b6064820152608401620006c6565b620006db8282620015e6565b6008602052600090815260409020805460018201546002830180546001600160a01b03909316939192620007919062001d43565b80601f0160208091040260200160405190810160405280929190818152602001828054620007bf9062001d43565b8015620008105780601f10620007e45761010080835404028352916020019162000810565b820191906000526020600020905b815481529060010190602001808311620007f257829003601f168201915b505050505090806003018054620008279062001d43565b80601f0160208091040260200160405190810160405280929190818152602001828054620008559062001d43565b8015620008a65780601f106200087a57610100808354040283529160200191620008a6565b820191906000526020600020905b8154815290600101906020018083116200088857829003601f168201915b505050506004830154600590930154919260ff1691905086565b60065460009081906001600160a01b03163314620009195760405162461bcd60e51b81526020600482015260156024820152746465706c6f7941737365743a2062616420726f6c6560581b6044820152606401620006c6565b60008381526007602052604090205461060f60f31b8114156200097f5760405162461bcd60e51b815260206004820152601f60248201527f6465706c6f7941737365743a206e6f7420666f756e64206465706c6f794964006044820152606401620006c6565b60008181526008602090815260408083208784526009909252909120546001600160a01b031615620009f45760405162461bcd60e51b815260206004820152601d60248201527f6465706c6f7941737365743a206465706c6f79656420616c72656164790000006044820152606401620006c6565b6002548160050154101562000a4c5760405162461bcd60e51b815260206004820152601a60248201527f6465706c6f7941737365743a206e6f7420636f6e6669726d65640000000000006044820152606401620006c6565b60408051600180825281830190925260009160208083019080368337505060065482519293506001600160a01b03169183915060009062000a9d57634e487b7160e01b600052603260045260246000fd5b6001600160a01b03928316602091820292909201015260048301546005546040516000936002870193600388019360ff90911692911690869062000ae1906200164e565b62000af195949392919062001c07565b604051809103906000f08015801562000b0e573d6000803e3d6000fd5b5060008881526009602090815260409182902080546001600160a01b0319166001600160a01b03851617905590518681529192507fbdf72852f61d06eac6e0737d0b63d015cfb4009ef471d1641bba38f7ea91877f910160405180910390a18083600101549550955050505050915091565b600062000b8e868862000ef2565b9050600062000ba082878787620010b7565b6000818152600860209081526040808320868452600990925290912054919250906001600160a01b03161562000c195760405162461bcd60e51b815260206004820152601d60248201527f6465706c6f7941737365743a206465706c6f79656420616c72656164790000006044820152606401620006c6565b865162000c3090600283019060208a01906200165c565b50855162000c4890600383019060208901906200165c565b5080546001600160a01b0319166001600160a01b038a161781556001810188905560048101805460ff191660ff871617905560005b845181101562000e9d57600080600062000cbf88858151811062000cb157634e487b7160e01b600052603260045260246000fd5b602002602001015162000f41565b925092509250600062000cd28762001064565b6040805160008082526020820180845284905260ff86169282019290925260608101879052608081018690529192509060019060a0016020604051602081039080840390855afa15801562000d2b573d6000803e3d6000fd5b50505060206040510351905062000d52600080516020620037468339815191528262000ec9565b62000d975760405162461bcd60e51b81526020600482015260146024820152736f6e6c794f7261636c653a2062616420726f6c6560601b6044820152606401620006c6565b6001600160a01b038116600090815260068801602052604090205460ff161562000e045760405162461bcd60e51b815260206004820152601e60248201527f6465706c6f7941737365743a207375626d697474656420616c726561647900006044820152606401620006c6565b6001600160a01b0381166000818152600689016020908152604091829020805460ff1916600117905581518b8152908101929092527f17004f09fe70c485ba6464e7469a9daab03f82e51f76f12e62f846e26dbf22e9910160405180910390a1600187600501600082825462000e7b919062001cf5565b925050819055505050505050808062000e949062001d80565b91505062000c7d565b5060025481600501541062000ebe5760008381526007602052604090208290555b505050505050505050565b6000918252602082815260408084206001600160a01b0393909316845291905290205460ff1690565b6000828260405160200162000f2392919091825260601b6bffffffffffffffffffffffff1916602082015260340190565b60405160208183030381529060405280519060200120905092915050565b6000806000835160411462000faa5760405162461bcd60e51b815260206004820152602860248201527f73706c69745369676e61747572653a20696e76616c6964207369676e617475726044820152670ca40d8cadccee8d60c31b6064820152608401620006c6565b50505060208101516040820151606090920151909260009190911a90565b62000fd560003362000ec9565b62000ff45760405162461bcd60e51b8152600401620006c69062001c94565b600680546001600160a01b0319166001600160a01b0392909216919091179055565b6200102360003362000ec9565b620010425760405162461bcd60e51b8152600401620006c69062001c94565b600580546001600160a01b0319166001600160a01b0392909216919091179055565b6040517f19457468657265756d205369676e6564204d6573736167653a0a3332000000006020820152603c8101829052600090605c01604051602081830303815290604052805190602001209050919050565b600084848484604051602001620010d2949392919062001b54565b604051602081830303815290604052805190602001209050949350505050565b620010ff60003362000ec9565b6200111e5760405162461bcd60e51b8152600401620006c69062001c94565b600255565b60008281526020819052604090206001015462001140906200065e565b620007515760405162461bcd60e51b815260206004820152603060248201527f416363657373436f6e74726f6c3a2073656e646572206d75737420626520616e60448201526f2061646d696e20746f207265766f6b6560801b6064820152608401620006c6565b620011b460003362000ec9565b620011d35760405162461bcd60e51b8152600401620006c69062001c94565b620011ee600080516020620037468339815191528262000646565b50565b6000828152600a602052604081208190815b8451811015620014d55760008060006200123788858151811062000cb157634e487b7160e01b600052603260045260246000fd5b92509250925060006200124a8a62001064565b6040805160008082526020820180845284905260ff86169282019290925260608101879052608081018690529192509060019060a0016020604051602081039080840390855afa158015620012a3573d6000803e3d6000fd5b505050602060405103519050620012ca600080516020620037468339815191528262000ec9565b6200130f5760405162461bcd60e51b81526020600482015260146024820152736f6e6c794f7261636c653a2062616420726f6c6560601b6044820152606401620006c6565b6001600160a01b038116600090815260028801602052604090205460ff16156200137c5760405162461bcd60e51b815260206004820152601960248201527f7375626d69743a207375626d697474656420616c7265616479000000000000006044820152606401620006c6565b600187600101600082825462001393919062001cf5565b90915550506001600160a01b0381166000818152600289016020908152604091829020805460ff1916600117905581518e8152908101929092527fd4964a7cd99f5c1fa8f2420fb5e1d3bd26eadf16e2658cf2e29a67dfda38601e910160405180910390a1600254876001015410620014ba574360009081526004602090815260408083208e8452600281019092529091205460ff166200148257600181600001600082825462001445919062001cf5565b909155505060008c81526002820160205260409020805460ff191660019081179091555481541062001482576001818101805460ff191690911790555b4388556040518c81527f2a6b4960c287d4d53a338f9c9a9f830f37e7b66e67a0a958f68be89a4eeb939d9060200160405180910390a1505b50505050508080620014cc9062001d80565b91505062001203565b506001808201544360009081526004602052604090209091015460ff16620015005760025462001504565b6003545b8260010154101592509250509250929050565b6200152460003362000ec9565b620015435760405162461bcd60e51b8152600401620006c69062001c94565b620011ee600080516020620037468339815191528262001123565b6200156a828262000ec9565b620006db576000828152602081815260408083206001600160a01b03851684529091529020805460ff19166001179055620015a23390565b6001600160a01b0316816001600160a01b0316837f2f8788117e7eff1d82e926ec794901d17c78024a50270940304540a733656f0d60405160405180910390a45050565b620015f2828262000ec9565b15620006db576000828152602081815260408083206001600160a01b0385168085529252808320805460ff1916905551339285917ff6391f5c32d9c69d2a47ea670b442974b53935d1edc7fd64eb21e047a839171b9190a45050565b61197b8062001dcb83390190565b8280546200166a9062001d43565b90600052602060002090601f0160209004810192826200168e5760008555620016d9565b82601f10620016a957805160ff1916838001178555620016d9565b82800160010185558215620016d9579182015b82811115620016d9578251825591602001919060010190620016bc565b50620016e7929150620016eb565b5090565b5b80821115620016e75760008155600101620016ec565b80356001600160a01b0381168114620005f357600080fd5b600082601f8301126200172b578081fd5b8135602067ffffffffffffffff8211156200174a576200174a62001db4565b62001759818284020162001cc1565b82815281810190858301855b8581101562001792576200177f898684358b01016200179f565b8452928401929084019060010162001765565b5090979650505050505050565b600082601f830112620017b0578081fd5b813567ffffffffffffffff811115620017cd57620017cd62001db4565b620017e2601f8201601f191660200162001cc1565b818152846020838601011115620017f7578283fd5b816020850160208301379081016020019190915292915050565b803560ff81168114620005f357600080fd5b60006020828403121562001835578081fd5b620018408262001702565b9392505050565b60008060008060008060c0878903121562001860578182fd5b6200186b8762001702565b955060208701359450604087013567ffffffffffffffff808211156200188f578384fd5b6200189d8a838b016200179f565b95506060890135915080821115620018b3578384fd5b620018c18a838b016200179f565b9450620018d160808a0162001811565b935060a0890135915080821115620018e7578283fd5b50620018f689828a016200171a565b9150509295509295509295565b60006020828403121562001915578081fd5b5035919050565b600080604083850312156200192f578182fd5b82359150620019416020840162001702565b90509250929050565b600080604083850312156200195d578182fd5b82359150602083013567ffffffffffffffff8111156200197b578182fd5b62001989858286016200171a565b9150509250929050565b60008060008060808587031215620019a9578384fd5b84359350602085013567ffffffffffffffff80821115620019c8578485fd5b620019d6888389016200179f565b94506040870135915080821115620019ec578384fd5b50620019fb878288016200179f565b92505062001a0c6060860162001811565b905092959194509250565b60006020828403121562001a29578081fd5b81356001600160e01b03198116811462001840578182fd5b60006020828403121562001a53578081fd5b813567ffffffffffffffff81111562001a6a578182fd5b62001a78848285016200179f565b949350505050565b6000815180845262001a9a81602086016020860162001d10565b601f01601f19169290920160200192915050565b80546000906002810460018083168062001ac957607f831692505b602080841082141562001aea57634e487b7160e01b86526022600452602486fd5b8388526020880182801562001b08576001811462001b1a5762001b47565b60ff1987168252828201975062001b47565b60008981526020902060005b8781101562001b415781548482015290860190840162001b26565b83019850505b5050505050505092915050565b6000858252845162001b6e81602085016020890162001d10565b8083019050845162001b8881602084016020890162001d10565b60f89490941b6001600160f81b0319166020919094019081019390935250506021019392505050565b600060018060a01b038816825286602083015260c0604083015262001bda60c083018762001a80565b828103606084015262001bee818762001a80565b60ff959095166080840152505060a00152949350505050565b600060a0825262001c1c60a083018862001aae565b60208382038185015262001c31828962001aae565b60ff881660408601526001600160a01b0387811660608701528582036080870152865180835283880194509091830190855b8181101562001c8357855184168352948401949184019160010162001c63565b50909b9a5050505050505050505050565b6020808252601390820152726f6e6c7941646d696e3a2062616420726f6c6560681b604082015260600190565b604051601f8201601f1916810167ffffffffffffffff8111828210171562001ced5762001ced62001db4565b604052919050565b6000821982111562001d0b5762001d0b62001d9e565b500190565b60005b8381101562001d2d57818101518382015260200162001d13565b8381111562001d3d576000848401525b50505050565b60028104600182168062001d5857607f821691505b6020821081141562001d7a57634e487b7160e01b600052602260045260246000fd5b50919050565b600060001982141562001d975762001d9762001d9e565b5060010190565b634e487b7160e01b600052601160045260246000fd5b634e487b7160e01b600052604160045260246000fdfe60806040523480156200001157600080fd5b506040516200197b3803806200197b8339810160408190526200003491620003ac565b8451859085906200004d90600490602085019062000258565b5080516200006390600590602084019062000258565b50506008805460ff191660ff86161790555062000082600083620001a8565b60005b8151811015620000fe57620000e97f9f2df0fed2c77648de5860a4cc508cd0818c85b8b8a1ab4ceeef8d981c8956a6838381518110620000d557634e487b7160e01b600052603260045260246000fd5b6020026020010151620001a860201b60201c565b80620000f5816200054d565b91505062000085565b5050835160209485012060408051808201825260018152603160f81b9087015280517f8b73c3c69bb8fe3d512ecc4cf759cc79239f7b179b0ffacaa9a75d522b39400f81880152808201929092527fc89efdaa54c0f20c7adf612882df0950f5a951637e0307cdcb4c672f298b8bc660608301524660808301523060a0808401919091528151808403909101815260c090920190528051940193909320600655506200058b915050565b620001b48282620001b8565b5050565b6000828152602081815260408083206001600160a01b038516845290915290205460ff16620001b4576000828152602081815260408083206001600160a01b03851684529091529020805460ff19166001179055620002143390565b6001600160a01b0316816001600160a01b0316837f2f8788117e7eff1d82e926ec794901d17c78024a50270940304540a733656f0d60405160405180910390a45050565b828054620002669062000510565b90600052602060002090601f0160209004810192826200028a5760008555620002d5565b82601f10620002a557805160ff1916838001178555620002d5565b82800160010185558215620002d5579182015b82811115620002d5578251825591602001919060010190620002b8565b50620002e3929150620002e7565b5090565b5b80821115620002e35760008155600101620002e8565b80516001600160a01b03811681146200031657600080fd5b919050565b600082601f8301126200032c578081fd5b81516001600160401b0381111562000348576200034862000575565b60206200035e601f8301601f19168201620004dd565b828152858284870101111562000372578384fd5b835b838110156200039157858101830151828201840152820162000374565b83811115620003a257848385840101525b5095945050505050565b600080600080600060a08688031215620003c4578081fd5b85516001600160401b0380821115620003db578283fd5b620003e989838a016200031b565b965060209150818801518181111562000400578384fd5b6200040e8a828b016200031b565b965050604088015160ff8116811462000425578384fd5b94506200043560608901620002fe565b935060808801518181111562000449578384fd5b8801601f81018a136200045a578384fd5b8051828111156200046f576200046f62000575565b838102925062000481848401620004dd565b8181528481019083860185850187018e10156200049c578788fd5b8795505b83861015620004c957620004b481620002fe565b835260019590950194918601918601620004a0565b508096505050505050509295509295909350565b604051601f8201601f191681016001600160401b038111828210171562000508576200050862000575565b604052919050565b6002810460018216806200052557607f821691505b602082108114156200054757634e487b7160e01b600052602260045260246000fd5b50919050565b60006000198214156200056e57634e487b7160e01b81526011600452602481fd5b5060010190565b634e487b7160e01b600052604160045260246000fd5b6113e0806200059b6000396000f3fe608060405234801561001057600080fd5b50600436106101735760003560e01c806340c10f19116100de578063a217fddf11610097578063d505accf11610071578063d505accf14610348578063d53913931461035b578063d547741f14610382578063dd62ed3e1461039557610173565b8063a217fddf1461031a578063a457c2d714610322578063a9059cbb1461033557610173565b806340c10f191461029057806342966c68146102a357806370a08231146102b65780637ecebe00146102df57806391d14854146102ff57806395d89b411461031257610173565b80632f2ff15d116101305780632f2ff15d1461021057806330adf81f14610225578063313ce5671461024c5780633644e5151461026157806336568abe1461026a578063395093511461027d57610173565b806301ffc9a71461017857806306fdde03146101a0578063095ea7b3146101b557806318160ddd146101c857806323b872dd146101da578063248a9ca3146101ed575b600080fd5b61018b610186366004611294565b6103ce565b60405190151581526020015b60405180910390f35b6101a8610407565b60405161019791906112bc565b61018b6101c3366004611231565b610499565b6003545b604051908152602001610197565b61018b6101e8366004611185565b6104af565b6101cc6101fb36600461125a565b60009081526020819052604090206001015490565b61022361021e366004611272565b610565565b005b6101cc7f6e71edae12b1b97f4d1f60370fef10105fa2faae0126114a169c64845d6126c981565b60085460405160ff9091168152602001610197565b6101cc60065481565b610223610278366004611272565b6105f4565b61018b61028b366004611231565b61066e565b61022361029e366004611231565b6106a5565b6102236102b136600461125a565b61071c565b6101cc6102c4366004611132565b6001600160a01b031660009081526001602052604090205490565b6101cc6102ed366004611132565b60076020526000908152604090205481565b61018b61030d366004611272565b610796565b6101a86107bf565b6101cc600081565b61018b610330366004611231565b6107ce565b61018b610343366004611231565b610869565b6102236103563660046111c0565b610876565b6101cc7f9f2df0fed2c77648de5860a4cc508cd0818c85b8b8a1ab4ceeef8d981c8956a681565b610223610390366004611272565b610a87565b6101cc6103a3366004611153565b6001600160a01b03918216600090815260026020908152604080832093909416825291909152205490565b60006001600160e01b03198216637965db0b60e01b14806103ff57506301ffc9a760e01b6001600160e01b03198316145b90505b919050565b6060600480546104169061133e565b80601f01602080910402602001604051908101604052809291908181526020018280546104429061133e565b801561048f5780601f106104645761010080835404028352916020019161048f565b820191906000526020600020905b81548152906001019060200180831161047257829003601f168201915b5050505050905090565b60006104a6338484610b07565b50600192915050565b60006104bc848484610c2c565b6001600160a01b0384166000908152600260209081526040808320338452909152902054828110156105465760405162461bcd60e51b815260206004820152602860248201527f45524332303a207472616e7366657220616d6f756e74206578636565647320616044820152676c6c6f77616e636560c01b60648201526084015b60405180910390fd5b61055a85336105558685611327565b610b07565b506001949350505050565b600082815260208190526040902060010154610582905b3361030d565b6105e65760405162461bcd60e51b815260206004820152602f60248201527f416363657373436f6e74726f6c3a2073656e646572206d75737420626520616e60448201526e0818591b5a5b881d1bc819dc985b9d608a1b606482015260840161053d565b6105f08282610e04565b5050565b6001600160a01b03811633146106645760405162461bcd60e51b815260206004820152602f60248201527f416363657373436f6e74726f6c3a2063616e206f6e6c792072656e6f756e636560448201526e103937b632b9903337b91039b2b63360891b606482015260840161053d565b6105f08282610e88565b3360008181526002602090815260408083206001600160a01b038716845290915281205490916104a691859061055590869061130f565b6106cf7f9f2df0fed2c77648de5860a4cc508cd0818c85b8b8a1ab4ceeef8d981c8956a633610796565b6107125760405162461bcd60e51b81526020600482015260146024820152736f6e6c794d696e7465723a2062616420726f6c6560601b604482015260640161053d565b6105f08282610eed565b6107467f9f2df0fed2c77648de5860a4cc508cd0818c85b8b8a1ab4ceeef8d981c8956a633610796565b6107895760405162461bcd60e51b81526020600482015260146024820152736f6e6c794d696e7465723a2062616420726f6c6560601b604482015260640161053d565b6107933382610fcc565b50565b6000918252602082815260408084206001600160a01b0393909316845291905290205460ff1690565b6060600580546104169061133e565b3360009081526002602090815260408083206001600160a01b0386168452909152812054828110156108505760405162461bcd60e51b815260206004820152602560248201527f45524332303a2064656372656173656420616c6c6f77616e63652062656c6f77604482015264207a65726f60d81b606482015260840161053d565b61085f33856105558685611327565b5060019392505050565b60006104a6338484610c2c565b428410156108b85760405162461bcd60e51b815260206004820152600f60248201526e1c195c9b5a5d0e8811561412549151608a1b604482015260640161053d565b6006546001600160a01b038816600090815260076020526040812080549192917f6e71edae12b1b97f4d1f60370fef10105fa2faae0126114a169c64845d6126c9918b918b918b91908761090b83611379565b909155506040805160208101969096526001600160a01b0394851690860152929091166060840152608083015260a082015260c0810187905260e0016040516020818303038152906040528051906020012060405160200161098492919061190160f01b81526002810192909252602282015260420190565b60408051601f198184030181528282528051602091820120600080855291840180845281905260ff88169284019290925260608301869052608083018590529092509060019060a0016020604051602081039080840390855afa1580156109ef573d6000803e3d6000fd5b5050604051601f1901519150506001600160a01b03811615801590610a255750886001600160a01b0316816001600160a01b0316145b610a715760405162461bcd60e51b815260206004820152601960248201527f7065726d69743a20696e76616c6964207369676e617475726500000000000000604482015260640161053d565b610a7c898989610b07565b505050505050505050565b600082815260208190526040902060010154610aa29061057c565b6106645760405162461bcd60e51b815260206004820152603060248201527f416363657373436f6e74726f6c3a2073656e646572206d75737420626520616e60448201526f2061646d696e20746f207265766f6b6560801b606482015260840161053d565b6001600160a01b038316610b695760405162461bcd60e51b8152602060048201526024808201527f45524332303a20617070726f76652066726f6d20746865207a65726f206164646044820152637265737360e01b606482015260840161053d565b6001600160a01b038216610bca5760405162461bcd60e51b815260206004820152602260248201527f45524332303a20617070726f766520746f20746865207a65726f206164647265604482015261737360f01b606482015260840161053d565b6001600160a01b0383811660008181526002602090815260408083209487168084529482529182902085905590518481527f8c5be1e5ebec7d5bd14f71427d1e84f3dd0314c0f7b2291e5b200ac8c7c3b92591015b60405180910390a3505050565b6001600160a01b038316610c905760405162461bcd60e51b815260206004820152602560248201527f45524332303a207472616e736665722066726f6d20746865207a65726f206164604482015264647265737360d81b606482015260840161053d565b6001600160a01b038216610cf25760405162461bcd60e51b815260206004820152602360248201527f45524332303a207472616e7366657220746f20746865207a65726f206164647260448201526265737360e81b606482015260840161053d565b6001600160a01b03831660009081526001602052604090205481811015610d6a5760405162461bcd60e51b815260206004820152602660248201527f45524332303a207472616e7366657220616d6f756e7420657863656564732062604482015265616c616e636560d01b606482015260840161053d565b610d748282611327565b6001600160a01b038086166000908152600160205260408082209390935590851681529081208054849290610daa90849061130f565b92505081905550826001600160a01b0316846001600160a01b03167fddf252ad1be2c89b69c2b068fc378daa952ba7f163c4a11628f55a4df523b3ef84604051610df691815260200190565b60405180910390a350505050565b610e0e8282610796565b6105f0576000828152602081815260408083206001600160a01b03851684529091529020805460ff19166001179055610e443390565b6001600160a01b0316816001600160a01b0316837f2f8788117e7eff1d82e926ec794901d17c78024a50270940304540a733656f0d60405160405180910390a45050565b610e928282610796565b156105f0576000828152602081815260408083206001600160a01b0385168085529252808320805460ff1916905551339285917ff6391f5c32d9c69d2a47ea670b442974b53935d1edc7fd64eb21e047a839171b9190a45050565b6001600160a01b038216610f435760405162461bcd60e51b815260206004820152601f60248201527f45524332303a206d696e7420746f20746865207a65726f206164647265737300604482015260640161053d565b8060036000828254610f55919061130f565b90915550506001600160a01b03821660009081526001602052604081208054839290610f8290849061130f565b90915550506040518181526001600160a01b038316906000907fddf252ad1be2c89b69c2b068fc378daa952ba7f163c4a11628f55a4df523b3ef9060200160405180910390a35050565b6001600160a01b03821661102c5760405162461bcd60e51b815260206004820152602160248201527f45524332303a206275726e2066726f6d20746865207a65726f206164647265736044820152607360f81b606482015260840161053d565b6001600160a01b038216600090815260016020526040902054818110156110a05760405162461bcd60e51b815260206004820152602260248201527f45524332303a206275726e20616d6f756e7420657863656564732062616c616e604482015261636560f01b606482015260840161053d565b6110aa8282611327565b6001600160a01b038416600090815260016020526040812091909155600380548492906110d8908490611327565b90915550506040518281526000906001600160a01b038516907fddf252ad1be2c89b69c2b068fc378daa952ba7f163c4a11628f55a4df523b3ef90602001610c1f565b80356001600160a01b038116811461040257600080fd5b600060208284031215611143578081fd5b61114c8261111b565b9392505050565b60008060408385031215611165578081fd5b61116e8361111b565b915061117c6020840161111b565b90509250929050565b600080600060608486031215611199578081fd5b6111a28461111b565b92506111b06020850161111b565b9150604084013590509250925092565b600080600080600080600060e0888a0312156111da578283fd5b6111e38861111b565b96506111f16020890161111b565b95506040880135945060608801359350608088013560ff81168114611214578384fd5b9699959850939692959460a0840135945060c09093013592915050565b60008060408385031215611243578182fd5b61124c8361111b565b946020939093013593505050565b60006020828403121561126b578081fd5b5035919050565b60008060408385031215611284578182fd5b8235915061117c6020840161111b565b6000602082840312156112a5578081fd5b81356001600160e01b03198116811461114c578182fd5b6000602080835283518082850152825b818110156112e8578581018301518582016040015282016112cc565b818111156112f95783604083870101525b50601f01601f1916929092016040019392505050565b6000821982111561132257611322611394565b500190565b60008282101561133957611339611394565b500390565b60028104600182168061135257607f821691505b6020821081141561137357634e487b7160e01b600052602260045260246000fd5b50919050565b600060001982141561138d5761138d611394565b5060010190565b634e487b7160e01b600052601160045260246000fdfea2646970667358221220c8acf0b99aea0dd04365bd8d8e23dc4f19536980e5cc769804bd38201ef9275264736f6c6343000802003368e79a7bf1e0bc45d0a330c573bc367f9cf464fd326078812f301165fbda4ef1a2646970667358221220ae03aa9f5e51a161b56a87a76a9b407170f5f652bdb3eda5280e39baecc075c264736f6c63430008020033",
  "immutableReferences": {},
  "source": "// SPDX-License-Identifier: MIT\r\npragma solidity ^0.8.2;\r\n\r\nimport \"@openzeppelin/contracts/access/AccessControl.sol\";\r\nimport \"@openzeppelin/contracts/token/ERC20/IERC20.sol\";\r\nimport \"../interfaces/ILightVerifier.sol\";\r\nimport \"../periphery/WrappedAsset.sol\";\r\n\r\ncontract LightVerifier is AccessControl, ILightVerifier {\r\n    struct BlockConfirmationsInfo {\r\n        uint256 count; // current oracle admin\r\n        bool requireExtraCheck; // current oracle admin\r\n        mapping(bytes32 => bool) isConfirmed; // submission => was confirmed\r\n    }\r\n\r\n    bytes32 public constant ORACLE_ROLE = keccak256(\"ORACLE_ROLE\"); // role allowed to submit the data\r\n    uint256 public confirmationThreshold; // bonus reward for one submission\r\n    uint256 public minConfirmations; // minimal required confirmations\r\n    uint256 public excessConfirmations; // minimal required confirmations in case of too many confirmations\r\n    mapping(uint256 => BlockConfirmationsInfo) public getConfirmationsPerBlock; // block => confirmations\r\n\r\n    modifier onlyAdmin {\r\n        require(hasRole(DEFAULT_ADMIN_ROLE, msg.sender), \"onlyAdmin: bad role\");\r\n        _;\r\n    }\r\n\r\n    struct SubmissionInfo {\r\n        uint256 block; // confirmation block\r\n        uint256 confirmations; // received confirmations count\r\n        mapping(address => bool) hasVerified; // verifier => has already voted\r\n    }\r\n    struct DebridgeDeployInfo {\r\n        address tokenAddress;\r\n        uint256 chainId;\r\n        string name;\r\n        string symbol;\r\n        uint8 decimals;\r\n        uint256 confirmations; // received confirmations count\r\n        mapping(address => bool) hasVerified; // verifier => has already voted\r\n    }\r\n    address public wrappedAssetAdmin;\r\n    address public debridgeAddress;\r\n\r\n    mapping(bytes32 => bytes32) public confirmedDeployInfo; // debridge Id => deploy Id\r\n    mapping(bytes32 => DebridgeDeployInfo) public getDeployInfo; // mint id => debridge info\r\n    mapping(bytes32 => address) public override getWrappedAssetAddress; // debridge id => wrapped asset address\r\n    mapping(bytes32 => SubmissionInfo) public getSubmissionInfo; // submission id => submission info\r\n\r\n    event Confirmed(bytes32 submissionId, address operator); // emitted once the submission is confirmed by the only oracle\r\n    event SubmissionApproved(bytes32 submissionId); // emitted once the submission is confirmed by all the required oracles\r\n    event DeployConfirmed(bytes32 deployId, address operator); // emitted once the submission is confirmed by one oracle\r\n    event DeployApproved(bytes32 deployId); // emitted once the submission is confirmed by min required aount of oracles\r\n\r\n    /// @dev Constructor that initializes the most important configurations.\r\n    /// @param _minConfirmations Common confirmations count.\r\n    /// @param _confirmationThreshold Confirmations per block before extra check enabled.\r\n    /// @param _excessConfirmations Confirmations count in case of excess activity.\r\n    constructor(\r\n        uint256 _minConfirmations,\r\n        uint256 _confirmationThreshold,\r\n        uint256 _excessConfirmations,\r\n        address _wrappedAssetAdmin,\r\n        address _debridgeAddress\r\n    ) {\r\n        confirmationThreshold = _confirmationThreshold;\r\n        minConfirmations = _minConfirmations;\r\n        excessConfirmations = _excessConfirmations;\r\n        wrappedAssetAdmin = _wrappedAssetAdmin;\r\n        debridgeAddress = _debridgeAddress;\r\n        _setupRole(DEFAULT_ADMIN_ROLE, msg.sender);\r\n    }\r\n\r\n    /// @dev Confirms the transfer request.\r\n    function confirmNewAsset(\r\n        address _tokenAddress,\r\n        uint256 _chainId,\r\n        string memory _name,\r\n        string memory _symbol,\r\n        uint8 _decimals,\r\n        bytes[] memory _signatures\r\n    ) external {\r\n        bytes32 debridgeId = getDebridgeId(_chainId, _tokenAddress);\r\n        bytes32 deployId = getDeployId(debridgeId, _name, _symbol, _decimals);\r\n        DebridgeDeployInfo storage debridgeInfo = getDeployInfo[deployId];\r\n        require(\r\n            getWrappedAssetAddress[debridgeId] == address(0),\r\n            \"deployAsset: deployed already\"\r\n        );\r\n        debridgeInfo.name = _name;\r\n        debridgeInfo.symbol = _symbol;\r\n        debridgeInfo.tokenAddress = _tokenAddress;\r\n        debridgeInfo.chainId = _chainId;\r\n        debridgeInfo.decimals = _decimals;\r\n        for (uint256 i = 0; i < _signatures.length; i++) {\r\n            (bytes32 r, bytes32 s, uint8 v) = splitSignature(_signatures[i]);\r\n            bytes32 unsignedMsg = getUnsignedMsg(deployId);\r\n            address oracle = ecrecover(unsignedMsg, v, r, s);\r\n            require(hasRole(ORACLE_ROLE, oracle), \"onlyOracle: bad role\");\r\n            require(\r\n                !debridgeInfo.hasVerified[oracle],\r\n                \"deployAsset: submitted already\"\r\n            );\r\n            debridgeInfo.hasVerified[oracle] = true;\r\n            emit DeployConfirmed(deployId, oracle);\r\n            debridgeInfo.confirmations += 1;\r\n        }\r\n        if( debridgeInfo.confirmations >= minConfirmations){\r\n            confirmedDeployInfo[debridgeId] = deployId;\r\n        }\r\n        //TODO: add deployAsset\r\n    }\r\n\r\n    /// @dev Confirms the transfer request.\r\n    function deployAsset(bytes32 _debridgeId) \r\n            external override\r\n            returns (address wrappedAssetAddress, uint256 nativeChainId){\r\n        require(debridgeAddress == msg.sender, \"deployAsset: bad role\");\r\n        bytes32 deployId = confirmedDeployInfo[_debridgeId];\r\n        //TODO: check 0x\r\n        require(\r\n            deployId != \"0x\",\r\n            \"deployAsset: not found deployId\"\r\n        );\r\n\r\n        DebridgeDeployInfo storage debridgeInfo = getDeployInfo[deployId];\r\n        require(\r\n            getWrappedAssetAddress[_debridgeId] == address(0),\r\n            \"deployAsset: deployed already\"\r\n        );\r\n        //TODO: can be removed, we already checked in confirmedDeployInfo\r\n        require(\r\n            debridgeInfo.confirmations >= minConfirmations,\r\n            \"deployAsset: not confirmed\"\r\n        );\r\n        address[] memory minters = new address[](1);\r\n        minters[0] = debridgeAddress;\r\n        WrappedAsset wrappedAsset = new WrappedAsset(\r\n            debridgeInfo.name,\r\n            debridgeInfo.symbol,\r\n            debridgeInfo.decimals,\r\n            wrappedAssetAdmin,\r\n            minters\r\n        );\r\n        getWrappedAssetAddress[_debridgeId] = address(wrappedAsset);\r\n        emit DeployApproved(deployId);\r\n        return (address(wrappedAsset), debridgeInfo.chainId);\r\n    }\r\n\r\n    /// @dev Confirms the mint request.\r\n    /// @param _submissionId Submission identifier.\r\n    /// @param _signatures Array of signatures by oracles.\r\n    function submit(bytes32 _submissionId, bytes[] memory _signatures)\r\n        external\r\n        override\r\n        returns (uint256 _confirmations, bool _blockConfirmationPassed)\r\n    {\r\n        SubmissionInfo storage submissionInfo = getSubmissionInfo[\r\n            _submissionId\r\n        ];\r\n        for (uint256 i = 0; i < _signatures.length; i++) {\r\n            (bytes32 r, bytes32 s, uint8 v) = splitSignature(_signatures[i]);\r\n            bytes32 unsignedMsg = getUnsignedMsg(_submissionId);\r\n            address oracle = ecrecover(unsignedMsg, v, r, s);\r\n            require(hasRole(ORACLE_ROLE, oracle), \"onlyOracle: bad role\");\r\n            require(\r\n                !submissionInfo.hasVerified[oracle],\r\n                \"submit: submitted already\"\r\n            );\r\n            submissionInfo.confirmations += 1;\r\n            submissionInfo.hasVerified[oracle] = true;\r\n            emit Confirmed(_submissionId, oracle);\r\n            if (submissionInfo.confirmations >= minConfirmations) {\r\n\r\n                    BlockConfirmationsInfo storage _blockConfirmationsInfo\r\n                 = getConfirmationsPerBlock[block.number];\r\n                if (!_blockConfirmationsInfo.isConfirmed[_submissionId]) {\r\n                    _blockConfirmationsInfo.count += 1;\r\n                    _blockConfirmationsInfo.isConfirmed[_submissionId] = true;\r\n                    if (\r\n                        _blockConfirmationsInfo.count >= confirmationThreshold\r\n                    ) {\r\n                        _blockConfirmationsInfo.requireExtraCheck = true;\r\n                    }\r\n                }\r\n                submissionInfo.block = block.number;\r\n                emit SubmissionApproved(_submissionId);\r\n            }\r\n        }\r\n        return (\r\n            submissionInfo.confirmations,\r\n            submissionInfo.confirmations >=\r\n                (\r\n                    (getConfirmationsPerBlock[block.number].requireExtraCheck)\r\n                        ? excessConfirmations\r\n                        : minConfirmations\r\n                )\r\n        );\r\n    }\r\n\r\n    /* ADMIN */\r\n\r\n    /// @dev Set admin for any deployed wrapped asset.\r\n    /// @param _wrappedAssetAdmin Admin address.\r\n    function setWrappedAssetAdmin(address _wrappedAssetAdmin) public onlyAdmin {\r\n        wrappedAssetAdmin = _wrappedAssetAdmin;\r\n    }\r\n\r\n    /// @dev Sets core debridge conrtact address.\r\n    /// @param _debridgeAddress Debridge address.\r\n    function setDebridgeAddress(address _debridgeAddress) public onlyAdmin {\r\n        debridgeAddress = _debridgeAddress;\r\n    }\r\n\r\n    /// @dev Sets minimal required confirmations.\r\n    /// @param _minConfirmations Minimal required confirmations.\r\n    function setMinConfirmations(uint256 _minConfirmations) external onlyAdmin {\r\n        minConfirmations = _minConfirmations;\r\n    }\r\n\r\n    /// @dev Adds new oracle.\r\n    /// @param _oracle Oracle address.\r\n    function addOracle(address _oracle) external onlyAdmin {\r\n        grantRole(ORACLE_ROLE, _oracle);\r\n    }\r\n\r\n    /// @dev Removes oracle.\r\n    /// @param _oracle Oracle address.\r\n    function removeOracle(address _oracle) external onlyAdmin {\r\n        revokeRole(ORACLE_ROLE, _oracle);\r\n    }\r\n\r\n    /* VIEW */\r\n\r\n    /// @dev Returns whether transfer request is confirmed.\r\n    /// @param _submissionId Submission identifier.\r\n    /// @return _confirmations number of confirmation.\r\n    /// @return _blockConfirmationPassed Whether transfer request is confirmed.\r\n    function getSubmissionConfirmations(bytes32 _submissionId)\r\n        external\r\n        view\r\n        override\r\n        returns (uint256 _confirmations, bool _blockConfirmationPassed)\r\n    {\r\n        SubmissionInfo storage submissionInfo = getSubmissionInfo[\r\n            _submissionId\r\n        ];\r\n\r\n\r\n            BlockConfirmationsInfo storage _blockConfirmationsInfo\r\n         = getConfirmationsPerBlock[submissionInfo.block];\r\n        _confirmations = submissionInfo.confirmations;\r\n        return (\r\n            _confirmations,\r\n            _confirmations >=\r\n                (\r\n                    (_blockConfirmationsInfo.requireExtraCheck)\r\n                        ? excessConfirmations\r\n                        : minConfirmations\r\n                )\r\n        );\r\n    }\r\n\r\n    /// @dev Prepares raw msg that was signed by the oracle.\r\n    /// @param _submissionId Submission identifier.\r\n    function getUnsignedMsg(bytes32 _submissionId)\r\n        public\r\n        pure\r\n        returns (bytes32)\r\n    {\r\n        return\r\n            keccak256(\r\n                abi.encodePacked(\r\n                    \"\\x19Ethereum Signed Message:\\n32\",\r\n                    _submissionId\r\n                )\r\n            );\r\n    }\r\n\r\n    /// @dev Splits signature bytes to r,s,v components.\r\n    /// @param _signature Signature bytes in format r+s+v.\r\n    function splitSignature(bytes memory _signature)\r\n        public\r\n        pure\r\n        returns (\r\n            bytes32 r,\r\n            bytes32 s,\r\n            uint8 v\r\n        )\r\n    {\r\n        require(\r\n            _signature.length == 65,\r\n            \"splitSignature: invalid signature length\"\r\n        );\r\n        assembly {\r\n            r := mload(add(_signature, 32))\r\n            s := mload(add(_signature, 64))\r\n            v := byte(0, mload(add(_signature, 96)))\r\n        }\r\n    }\r\n\r\n    /// @dev Calculates asset identifier.\r\n    /// @param _chainId Current chain id.\r\n    /// @param _tokenAddress Address of the asset on the other chain.\r\n    function getDebridgeId(uint256 _chainId, address _tokenAddress)\r\n        public\r\n        pure\r\n        returns (bytes32)\r\n    {\r\n        return keccak256(abi.encodePacked(_chainId, _tokenAddress));\r\n    }\r\n\r\n    /// @dev Calculates asset identifier.\r\n    function getDeployId(\r\n        bytes32 _debridgeId,\r\n        string memory _name,\r\n        string memory _symbol,\r\n        uint8 _decimals\r\n    ) public pure returns (bytes32) {\r\n        return\r\n            keccak256(abi.encodePacked(_debridgeId, _name, _symbol, _decimals));\r\n    }\r\n}\r\n",
  "sourcePath": "D:/Projects/Debridge/debridge-contracts-v1/contracts/chainlink/LightVerifier.sol",
  "compiler": {
    "name": "solc",
    "version": "0.8.2+commit.661d1103.Emscripten.clang"
  },
  "schemaVersion": "3.3.4",
  "updatedAt": "2021-07-18T21:07:26.050Z",
  "devdoc": {
    "kind": "dev",
    "methods": {
      "addOracle(address)": {
        "details": "Adds new oracle.",
        "params": {
          "_oracle": "Oracle address."
        }
      },
      "confirmNewAsset(address,uint256,string,string,uint8,bytes[])": {
        "details": "Confirms the transfer request."
      },
      "constructor": {
        "details": "Constructor that initializes the most important configurations.",
        "params": {
          "_confirmationThreshold": "Confirmations per block before extra check enabled.",
          "_excessConfirmations": "Confirmations count in case of excess activity.",
          "_minConfirmations": "Common confirmations count."
        }
      },
      "deployAsset(bytes32)": {
        "details": "Confirms the transfer request."
      },
      "getDebridgeId(uint256,address)": {
        "details": "Calculates asset identifier.",
        "params": {
          "_chainId": "Current chain id.",
          "_tokenAddress": "Address of the asset on the other chain."
        }
      },
      "getDeployId(bytes32,string,string,uint8)": {
        "details": "Calculates asset identifier."
      },
      "getRoleAdmin(bytes32)": {
        "details": "Returns the admin role that controls `role`. See {grantRole} and {revokeRole}. To change a role's admin, use {_setRoleAdmin}."
      },
      "getSubmissionConfirmations(bytes32)": {
        "details": "Returns whether transfer request is confirmed.",
        "params": {
          "_submissionId": "Submission identifier."
        },
        "returns": {
          "_blockConfirmationPassed": "Whether transfer request is confirmed.",
          "_confirmations": "number of confirmation."
        }
      },
      "getUnsignedMsg(bytes32)": {
        "details": "Prepares raw msg that was signed by the oracle.",
        "params": {
          "_submissionId": "Submission identifier."
        }
      },
      "grantRole(bytes32,address)": {
        "details": "Grants `role` to `account`. If `account` had not been already granted `role`, emits a {RoleGranted} event. Requirements: - the caller must have ``role``'s admin role."
      },
      "hasRole(bytes32,address)": {
        "details": "Returns `true` if `account` has been granted `role`."
      },
      "removeOracle(address)": {
        "details": "Removes oracle.",
        "params": {
          "_oracle": "Oracle address."
        }
      },
      "renounceRole(bytes32,address)": {
        "details": "Revokes `role` from the calling account. Roles are often managed via {grantRole} and {revokeRole}: this function's purpose is to provide a mechanism for accounts to lose their privileges if they are compromised (such as when a trusted device is misplaced). If the calling account had been granted `role`, emits a {RoleRevoked} event. Requirements: - the caller must be `account`."
      },
      "revokeRole(bytes32,address)": {
        "details": "Revokes `role` from `account`. If `account` had been granted `role`, emits a {RoleRevoked} event. Requirements: - the caller must have ``role``'s admin role."
      },
      "setDebridgeAddress(address)": {
        "details": "Sets core debridge conrtact address.",
        "params": {
          "_debridgeAddress": "Debridge address."
        }
      },
      "setMinConfirmations(uint256)": {
        "details": "Sets minimal required confirmations.",
        "params": {
          "_minConfirmations": "Minimal required confirmations."
        }
      },
      "setWrappedAssetAdmin(address)": {
        "details": "Set admin for any deployed wrapped asset.",
        "params": {
          "_wrappedAssetAdmin": "Admin address."
        }
      },
      "splitSignature(bytes)": {
        "details": "Splits signature bytes to r,s,v components.",
        "params": {
          "_signature": "Signature bytes in format r+s+v."
        }
      },
      "submit(bytes32,bytes[])": {
        "details": "Confirms the mint request.",
        "params": {
          "_signatures": "Array of signatures by oracles.",
          "_submissionId": "Submission identifier."
        }
      },
      "supportsInterface(bytes4)": {
        "details": "See {IERC165-supportsInterface}."
      }
    },
    "version": 1
  },
  "userdoc": {
    "kind": "user",
    "methods": {},
    "version": 1
  }
}