{
  "contractName": "LightAggregator",
  "abi": [
    {
      "inputs": [
        {
          "internalType": "uint256",
          "name": "_minConfirmations",
          "type": "uint256"
        }
      ],
      "stateMutability": "nonpayable",
      "type": "constructor"
    },
    {
      "anonymous": false,
      "inputs": [
        {
          "indexed": false,
          "internalType": "bytes32",
          "name": "submissionId",
          "type": "bytes32"
        },
        {
          "indexed": false,
          "internalType": "address",
          "name": "operator",
          "type": "address"
        }
      ],
      "name": "Confirmed",
      "type": "event"
    },
    {
      "anonymous": false,
      "inputs": [
        {
          "indexed": false,
          "internalType": "bytes32",
          "name": "deployId",
          "type": "bytes32"
        }
      ],
      "name": "DeployApproved",
      "type": "event"
    },
    {
      "anonymous": false,
      "inputs": [
        {
          "indexed": false,
          "internalType": "bytes32",
          "name": "deployId",
          "type": "bytes32"
        },
        {
          "indexed": false,
          "internalType": "address",
          "name": "operator",
          "type": "address"
        }
      ],
      "name": "DeployConfirmed",
      "type": "event"
    },
    {
      "anonymous": false,
      "inputs": [
        {
          "indexed": true,
          "internalType": "bytes32",
          "name": "role",
          "type": "bytes32"
        },
        {
          "indexed": true,
          "internalType": "bytes32",
          "name": "previousAdminRole",
          "type": "bytes32"
        },
        {
          "indexed": true,
          "internalType": "bytes32",
          "name": "newAdminRole",
          "type": "bytes32"
        }
      ],
      "name": "RoleAdminChanged",
      "type": "event"
    },
    {
      "anonymous": false,
      "inputs": [
        {
          "indexed": true,
          "internalType": "bytes32",
          "name": "role",
          "type": "bytes32"
        },
        {
          "indexed": true,
          "internalType": "address",
          "name": "account",
          "type": "address"
        },
        {
          "indexed": true,
          "internalType": "address",
          "name": "sender",
          "type": "address"
        }
      ],
      "name": "RoleGranted",
      "type": "event"
    },
    {
      "anonymous": false,
      "inputs": [
        {
          "indexed": true,
          "internalType": "bytes32",
          "name": "role",
          "type": "bytes32"
        },
        {
          "indexed": true,
          "internalType": "address",
          "name": "account",
          "type": "address"
        },
        {
          "indexed": true,
          "internalType": "address",
          "name": "sender",
          "type": "address"
        }
      ],
      "name": "RoleRevoked",
      "type": "event"
    },
    {
      "anonymous": false,
      "inputs": [
        {
          "indexed": false,
          "internalType": "bytes32",
          "name": "submissionId",
          "type": "bytes32"
        }
      ],
      "name": "SubmissionApproved",
      "type": "event"
    },
    {
      "inputs": [],
      "name": "DEFAULT_ADMIN_ROLE",
      "outputs": [
        {
          "internalType": "bytes32",
          "name": "",
          "type": "bytes32"
        }
      ],
      "stateMutability": "view",
      "type": "function"
    },
    {
      "inputs": [],
      "name": "ORACLE_ROLE",
      "outputs": [
        {
          "internalType": "bytes32",
          "name": "",
          "type": "bytes32"
        }
      ],
      "stateMutability": "view",
      "type": "function"
    },
    {
      "inputs": [
        {
          "internalType": "address",
          "name": "_oracle",
          "type": "address"
        },
        {
          "internalType": "address",
          "name": "_admin",
          "type": "address"
        }
      ],
      "name": "addOracle",
      "outputs": [],
      "stateMutability": "nonpayable",
      "type": "function"
    },
    {
      "inputs": [
        {
          "internalType": "uint256",
          "name": "_chainId",
          "type": "uint256"
        },
        {
          "internalType": "address",
          "name": "_tokenAddress",
          "type": "address"
        }
      ],
      "name": "getDebridgeId",
      "outputs": [
        {
          "internalType": "bytes32",
          "name": "",
          "type": "bytes32"
        }
      ],
      "stateMutability": "pure",
      "type": "function"
    },
    {
      "inputs": [
        {
          "internalType": "bytes32",
          "name": "_debridgeId",
          "type": "bytes32"
        },
        {
          "internalType": "string",
          "name": "_name",
          "type": "string"
        },
        {
          "internalType": "string",
          "name": "_symbol",
          "type": "string"
        },
        {
          "internalType": "uint8",
          "name": "_decimals",
          "type": "uint8"
        }
      ],
      "name": "getDeployId",
      "outputs": [
        {
          "internalType": "bytes32",
          "name": "",
          "type": "bytes32"
        }
      ],
      "stateMutability": "pure",
      "type": "function"
    },
    {
      "inputs": [
        {
          "internalType": "bytes32",
          "name": "",
          "type": "bytes32"
        }
      ],
      "name": "getDeployInfo",
      "outputs": [
        {
          "internalType": "address",
          "name": "tokenAddress",
          "type": "address"
        },
        {
          "internalType": "uint256",
          "name": "chainId",
          "type": "uint256"
        },
        {
          "internalType": "string",
          "name": "name",
          "type": "string"
        },
        {
          "internalType": "string",
          "name": "symbol",
          "type": "string"
        },
        {
          "internalType": "uint8",
          "name": "decimals",
          "type": "uint8"
        },
        {
          "internalType": "bool",
          "name": "approved",
          "type": "bool"
        },
        {
          "internalType": "uint256",
          "name": "confirmations",
          "type": "uint256"
        }
      ],
      "stateMutability": "view",
      "type": "function"
    },
    {
      "inputs": [
        {
          "internalType": "address",
          "name": "",
          "type": "address"
        }
      ],
      "name": "getOracleInfo",
      "outputs": [
        {
          "internalType": "address",
          "name": "admin",
          "type": "address"
        }
      ],
      "stateMutability": "view",
      "type": "function"
    },
    {
      "inputs": [
        {
          "internalType": "bytes32",
          "name": "role",
          "type": "bytes32"
        }
      ],
      "name": "getRoleAdmin",
      "outputs": [
        {
          "internalType": "bytes32",
          "name": "",
          "type": "bytes32"
        }
      ],
      "stateMutability": "view",
      "type": "function"
    },
    {
      "inputs": [
        {
          "internalType": "bytes32",
          "name": "",
          "type": "bytes32"
        }
      ],
      "name": "getSubmissionInfo",
      "outputs": [
        {
          "internalType": "uint256",
          "name": "block",
          "type": "uint256"
        },
        {
          "internalType": "uint256",
          "name": "confirmations",
          "type": "uint256"
        }
      ],
      "stateMutability": "view",
      "type": "function"
    },
    {
      "inputs": [
        {
          "internalType": "bytes32",
          "name": "role",
          "type": "bytes32"
        },
        {
          "internalType": "address",
          "name": "account",
          "type": "address"
        }
      ],
      "name": "grantRole",
      "outputs": [],
      "stateMutability": "nonpayable",
      "type": "function"
    },
    {
      "inputs": [
        {
          "internalType": "bytes32",
          "name": "role",
          "type": "bytes32"
        },
        {
          "internalType": "address",
          "name": "account",
          "type": "address"
        }
      ],
      "name": "hasRole",
      "outputs": [
        {
          "internalType": "bool",
          "name": "",
          "type": "bool"
        }
      ],
      "stateMutability": "view",
      "type": "function"
    },
    {
      "inputs": [],
      "name": "minConfirmations",
      "outputs": [
        {
          "internalType": "uint256",
          "name": "",
          "type": "uint256"
        }
      ],
      "stateMutability": "view",
      "type": "function"
    },
    {
      "inputs": [
        {
          "internalType": "address",
          "name": "_oracle",
          "type": "address"
        }
      ],
      "name": "removeOracle",
      "outputs": [],
      "stateMutability": "nonpayable",
      "type": "function"
    },
    {
      "inputs": [
        {
          "internalType": "bytes32",
          "name": "role",
          "type": "bytes32"
        },
        {
          "internalType": "address",
          "name": "account",
          "type": "address"
        }
      ],
      "name": "renounceRole",
      "outputs": [],
      "stateMutability": "nonpayable",
      "type": "function"
    },
    {
      "inputs": [
        {
          "internalType": "bytes32",
          "name": "role",
          "type": "bytes32"
        },
        {
          "internalType": "address",
          "name": "account",
          "type": "address"
        }
      ],
      "name": "revokeRole",
      "outputs": [],
      "stateMutability": "nonpayable",
      "type": "function"
    },
    {
      "inputs": [
        {
          "internalType": "uint256",
          "name": "_minConfirmations",
          "type": "uint256"
        }
      ],
      "name": "setMinConfirmations",
      "outputs": [],
      "stateMutability": "nonpayable",
      "type": "function"
    },
    {
      "inputs": [
        {
          "internalType": "bytes4",
          "name": "interfaceId",
          "type": "bytes4"
        }
      ],
      "name": "supportsInterface",
      "outputs": [
        {
          "internalType": "bool",
          "name": "",
          "type": "bool"
        }
      ],
      "stateMutability": "view",
      "type": "function"
    },
    {
      "inputs": [
        {
          "internalType": "address",
          "name": "_oracle",
          "type": "address"
        },
        {
          "internalType": "address",
          "name": "_newOracleAdmin",
          "type": "address"
        }
      ],
      "name": "updateOracleAdmin",
      "outputs": [],
      "stateMutability": "nonpayable",
      "type": "function"
    },
    {
      "inputs": [
        {
          "internalType": "address",
          "name": "_tokenAddress",
          "type": "address"
        },
        {
          "internalType": "uint256",
          "name": "_chainId",
          "type": "uint256"
        },
        {
          "internalType": "string",
          "name": "_name",
          "type": "string"
        },
        {
          "internalType": "string",
          "name": "_symbol",
          "type": "string"
        },
        {
          "internalType": "uint8",
          "name": "_decimals",
          "type": "uint8"
        },
        {
          "internalType": "bytes",
          "name": "_signature",
          "type": "bytes"
        }
      ],
      "name": "confirmNewAsset",
      "outputs": [],
      "stateMutability": "nonpayable",
      "type": "function"
    },
    {
      "inputs": [
        {
          "internalType": "bytes32[]",
          "name": "_submissionIds",
          "type": "bytes32[]"
        },
        {
          "internalType": "bytes[]",
          "name": "_signatures",
          "type": "bytes[]"
        }
      ],
      "name": "submitMany",
      "outputs": [],
      "stateMutability": "nonpayable",
      "type": "function"
    },
    {
      "inputs": [
        {
          "internalType": "bytes32",
          "name": "_submissionId",
          "type": "bytes32"
        },
        {
          "internalType": "bytes",
          "name": "_signature",
          "type": "bytes"
        }
      ],
      "name": "submit",
      "outputs": [],
      "stateMutability": "nonpayable",
      "type": "function"
    },
    {
      "inputs": [
        {
          "internalType": "bytes32",
          "name": "_submissionId",
          "type": "bytes32"
        }
      ],
      "name": "getSubmissionConfirmations",
      "outputs": [
        {
          "internalType": "uint256",
          "name": "_confirmations",
          "type": "uint256"
        },
        {
          "internalType": "bool",
          "name": "_confirmed",
          "type": "bool"
        }
      ],
      "stateMutability": "view",
      "type": "function"
    },
    {
      "inputs": [
        {
          "internalType": "bytes32",
          "name": "_submissionId",
          "type": "bytes32"
        }
      ],
      "name": "getSubmissionSignatures",
      "outputs": [
        {
          "internalType": "bytes[]",
          "name": "",
          "type": "bytes[]"
        }
      ],
      "stateMutability": "view",
      "type": "function"
    },
    {
      "inputs": [
        {
          "internalType": "bytes32",
          "name": "_submissionId",
          "type": "bytes32"
        }
      ],
      "name": "getUnsignedMsg",
      "outputs": [
        {
          "internalType": "bytes32",
          "name": "",
          "type": "bytes32"
        }
      ],
      "stateMutability": "pure",
      "type": "function"
    },
    {
      "inputs": [
        {
          "internalType": "bytes",
          "name": "_signature",
          "type": "bytes"
        }
      ],
      "name": "splitSignature",
      "outputs": [
        {
          "internalType": "bytes32",
          "name": "r",
          "type": "bytes32"
        },
        {
          "internalType": "bytes32",
          "name": "s",
          "type": "bytes32"
        },
        {
          "internalType": "uint8",
          "name": "v",
          "type": "uint8"
        }
      ],
      "stateMutability": "pure",
      "type": "function"
    }
  ],
  "bytecode": "0x60806040523480156200001157600080fd5b5060405162001b4c38038062001b4c83398101604081905262000034916200012b565b600181905580620000476000336200007b565b620000737f68e79a7bf1e0bc45d0a330c573bc367f9cf464fd326078812f301165fbda4ef1336200007b565b505062000144565b6200008782826200008b565b5050565b6000828152602081815260408083206001600160a01b038516845290915290205460ff1662000087576000828152602081815260408083206001600160a01b03851684529091529020805460ff19166001179055620000e73390565b6001600160a01b0316816001600160a01b0316837f2f8788117e7eff1d82e926ec794901d17c78024a50270940304540a733656f0d60405160405180910390a45050565b6000602082840312156200013d578081fd5b5051919050565b6119f880620001546000396000f3fe608060405234801561001057600080fd5b50600436106101735760003560e01c80639682b909116100de578063d282165511610097578063e75a592611610071578063e75a5926146103f6578063e7c4393e14610409578063f0ca4adb14610412578063fdc85fc41461042557610173565b8063d2821655146103b0578063d547741f146103c3578063d8a31674146103d657610173565b80639682b909146102fd578063a217fddf14610310578063a7bb580314610318578063bfdb6b0414610349578063c3d990ee1461038a578063d19c3dd81461039d57610173565b806336568abe1161013057806336568abe146102785780633be98a1b1461028b5780633d5376fa146102b15780634fbca33e146102c457806356a13146146102d757806391d14854146102ea57610173565b806301ffc9a71461017857806307e2cea5146101a05780630e3b90a9146101c357806321c27731146101ff578063248a9ca3146102405780632f2ff15d14610263575b600080fd5b61018b610186366004611684565b610438565b60405190151581526020015b60405180910390f35b6101b56000805160206119a383398151915281565b604051908152602001610197565b6101ea6101d1366004611594565b6004602052600090815260409020805460019091015482565b60408051928352602083019190915201610197565b61022b61020d366004611594565b60008181526004602052604090206001908101549054811015915091565b60408051928352901515602083015201610197565b6101b561024e366004611594565b60009081526020819052604090206001015490565b6102766102713660046115ac565b610471565b005b6102766102863660046115ac565b610505565b61029e610299366004611594565b61057f565b604051610197979695949392919061176c565b6102766102bf3660046115ce565b6106db565b6102766102d23660046114dd565b610719565b6102766102e536600461142f565b610836565b61018b6102f83660046115ac565b610b41565b6101b561030b3660046115ac565b610b6a565b6101b5600081565b61032b6103263660046116ac565b610bb8565b60408051938452602084019290925260ff1690820152606001610197565b6103726103573660046113dc565b6002602052600090815260409020546001600160a01b031681565b6040516001600160a01b039091168152602001610197565b6101b5610398366004611594565b610c3d565b6101b56103ab366004611609565b610c90565b6102766103be366004611594565b610cc9565b6102766103d13660046115ac565b610cf5565b6103e96103e4366004611594565b610d75565b60405161019791906117c8565b6102766104043660046113fd565b610e64565b6101b560015481565b6102766104203660046113fd565b610f0d565b6102766104333660046113dc565b610f4c565b60006001600160e01b03198216637965db0b60e01b148061046957506301ffc9a760e01b6001600160e01b03198316145b90505b919050565b60008281526020819052604090206001015461048e905b336102f8565b6104f75760405162461bcd60e51b815260206004820152602f60248201527f416363657373436f6e74726f6c3a2073656e646572206d75737420626520616e60448201526e0818591b5a5b881d1bc819dc985b9d608a1b60648201526084015b60405180910390fd5b6105018282610f8e565b5050565b6001600160a01b03811633146105755760405162461bcd60e51b815260206004820152602f60248201527f416363657373436f6e74726f6c3a2063616e206f6e6c792072656e6f756e636560448201526e103937b632b9903337b91039b2b63360891b60648201526084016104ee565b6105018282611012565b6003602052600090815260409020805460018201546002830180546001600160a01b039093169391926105b190611920565b80601f01602080910402602001604051908101604052809291908181526020018280546105dd90611920565b801561062a5780601f106105ff5761010080835404028352916020019161062a565b820191906000526020600020905b81548152906001019060200180831161060d57829003601f168201915b50505050509080600301805461063f90611920565b80601f016020809104026020016040519081016040528092919081815260200182805461066b90611920565b80156106b85780601f1061068d576101008083540402835291602001916106b8565b820191906000526020600020905b81548152906001019060200180831161069b57829003601f168201915b505050506004830154600590930154919260ff8082169361010090920416915087565b6106f36000805160206119a383398151915233610b41565b61070f5760405162461bcd60e51b81526004016104ee90611855565b6105018282611077565b6107316000805160206119a383398151915233610b41565b61074d5760405162461bcd60e51b81526004016104ee90611855565b80518251146107bb5760405162461bcd60e51b815260206004820152603460248201527f7375626d69744d616e793a207369676e61747572657320616e64207375626d696044820152730e6e6d2dedc40c6deeadce840dad2e6dac2e8c6d60631b60648201526084016104ee565b60005b82518110156108315761081f8382815181106107ea57634e487b7160e01b600052603260045260246000fd5b602002602001015183838151811061081257634e487b7160e01b600052603260045260246000fd5b6020026020010151611077565b806108298161195b565b9150506107be565b505050565b61084e6000805160206119a383398151915233610b41565b61086a5760405162461bcd60e51b81526004016104ee90611855565b60006108768688610b6a565b9050600061088682878787610c90565b6000818152600360205260409020600481015491925090610100900460ff16156108f25760405162461bcd60e51b815260206004820152601e60248201527f6465706c6f7941737365743a207375626d697474656420616c7265616479000060448201526064016104ee565b33600090815260078201602052604090205460ff16156109545760405162461bcd60e51b815260206004820152601e60248201527f6465706c6f7941737365743a207375626d697474656420616c7265616479000060448201526064016104ee565b600080600061096287610bb8565b925092509250600061097386610c3d565b6040805160008082526020820180845284905260ff86169282019290925260608101879052608081018690529192509060019060a0016020604051602081039080840390855afa1580156109cb573d6000803e3d6000fd5b5050604051601f190151915050336001600160a01b03821614610a005760405162461bcd60e51b81526004016104ee90611855565b6001866005016000828254610a1591906118d8565b90915550508b51610a2f90600288019060208f0190611249565b508a51610a4590600388019060208e0190611249565b5060048601805460ff191660ff8c1617905560068601805460018101825560009182526020918290208b51610a82939190920191908c0190611249565b503360009081526007870160205260409020805460ff1916600190811790915554600587015410610af95760048601805461ff0019166101001790556040517fbdf72852f61d06eac6e0737d0b63d015cfb4009ef471d1641bba38f7ea91877f90610af09089815260200190565b60405180910390a15b604080518881523360208201527f17004f09fe70c485ba6464e7469a9daab03f82e51f76f12e62f846e26dbf22e9910160405180910390a15050505050505050505050505050565b6000918252602082815260408084206001600160a01b0393909316845291905290205460ff1690565b60008282604051602001610b9a92919091825260601b6bffffffffffffffffffffffff1916602082015260340190565b60405160208183030381529060405280519060200120905092915050565b60008060008351604114610c1f5760405162461bcd60e51b815260206004820152602860248201527f73706c69745369676e61747572653a20696e76616c6964207369676e617475726044820152670ca40d8cadccee8d60c31b60648201526084016104ee565b50505060208101516040820151606090920151909260009190911a90565b6040517f19457468657265756d205369676e6564204d6573736167653a0a3332000000006020820152603c8101829052600090605c01604051602081830303815290604052805190602001209050919050565b600084848484604051602001610ca99493929190611713565b604051602081830303815290604052805190602001209050949350505050565b610cd4600033610b41565b610cf05760405162461bcd60e51b81526004016104ee90611828565b600155565b600082815260208190526040902060010154610d1090610488565b6105755760405162461bcd60e51b815260206004820152603060248201527f416363657373436f6e74726f6c3a2073656e646572206d75737420626520616e60448201526f2061646d696e20746f207265766f6b6560801b60648201526084016104ee565b606060046000838152602001908152602001600020600201805480602002602001604051908101604052809291908181526020016000905b82821015610e59578382906000526020600020018054610dcc90611920565b80601f0160208091040260200160405190810160405280929190818152602001828054610df890611920565b8015610e455780601f10610e1a57610100808354040283529160200191610e45565b820191906000526020600020905b815481529060010190602001808311610e2857829003601f168201915b505050505081526020019060010190610dad565b505050509050919050565b6001600160a01b03828116600090815260026020526040902054163314610edf5760405162461bcd60e51b815260206004820152602960248201527f7570646174654f7261636c6541646d696e3a206f6e6c792063616c6c61626c6560448201526810313c9030b236b4b760b91b60648201526084016104ee565b6001600160a01b03918216600090815260026020526040902080546001600160a01b03191691909216179055565b610f18600033610b41565b610f345760405162461bcd60e51b81526004016104ee90611828565b610edf6000805160206119a383398151915283610471565b610f57600033610b41565b610f735760405162461bcd60e51b81526004016104ee90611828565b610f8b6000805160206119a383398151915282610cf5565b50565b610f988282610b41565b610501576000828152602081815260408083206001600160a01b03851684529091529020805460ff19166001179055610fce3390565b6001600160a01b0316816001600160a01b0316837f2f8788117e7eff1d82e926ec794901d17c78024a50270940304540a733656f0d60405160405180910390a45050565b61101c8282610b41565b15610501576000828152602081815260408083206001600160a01b0385168085529252808320805460ff1916905551339285917ff6391f5c32d9c69d2a47ea670b442974b53935d1edc7fd64eb21e047a839171b9190a45050565b6000828152600460209081526040808320338452600381019092529091205460ff16156110e65760405162461bcd60e51b815260206004820152601960248201527f7375626d69743a207375626d697474656420616c72656164790000000000000060448201526064016104ee565b60008060006110f485610bb8565b925092509250600061110587610c3d565b6040805160008082526020820180845284905260ff86169282019290925260608101879052608081018690529192509060019060a0016020604051602081039080840390855afa15801561115d573d6000803e3d6000fd5b5050604051601f190151915050336001600160a01b038216146111925760405162461bcd60e51b81526004016104ee90611855565b60018660010160008282546111a791906118d8565b9091555050600286018054600181018255600091825260209182902089516111d7939190920191908a0190611249565b5033600081815260038801602052604090819020805460ff19166001179055517fd4964a7cd99f5c1fa8f2420fb5e1d3bd26eadf16e2658cf2e29a67dfda38601e91611237918b91909182526001600160a01b0316602082015260400190565b60405180910390a15050505050505050565b82805461125590611920565b90600052602060002090601f01602090048101928261127757600085556112bd565b82601f1061129057805160ff19168380011785556112bd565b828001600101855582156112bd579182015b828111156112bd5782518255916020019190600101906112a2565b506112c99291506112cd565b5090565b5b808211156112c957600081556001016112ce565b80356001600160a01b038116811461046c57600080fd5b600082601f830112611309578081fd5b8135602061131e611319836118b4565b611883565b82815281810190858301855b8581101561135357611341898684358b0101611360565b8452928401929084019060010161132a565b5090979650505050505050565b600082601f830112611370578081fd5b813567ffffffffffffffff81111561138a5761138a61198c565b61139d601f8201601f1916602001611883565b8181528460208386010111156113b1578283fd5b816020850160208301379081016020019190915292915050565b803560ff8116811461046c57600080fd5b6000602082840312156113ed578081fd5b6113f6826112e2565b9392505050565b6000806040838503121561140f578081fd5b611418836112e2565b9150611426602084016112e2565b90509250929050565b60008060008060008060c08789031215611447578182fd5b611450876112e2565b955060208701359450604087013567ffffffffffffffff80821115611473578384fd5b61147f8a838b01611360565b95506060890135915080821115611494578384fd5b6114a08a838b01611360565b94506114ae60808a016113cb565b935060a08901359150808211156114c3578283fd5b506114d089828a01611360565b9150509295509295509295565b600080604083850312156114ef578182fd5b823567ffffffffffffffff80821115611506578384fd5b818501915085601f830112611519578384fd5b81356020611529611319836118b4565b82815281810190858301838502870184018b1015611545578889fd5b8896505b84871015611567578035835260019690960195918301918301611549565b509650508601359250508082111561157d578283fd5b5061158a858286016112f9565b9150509250929050565b6000602082840312156115a5578081fd5b5035919050565b600080604083850312156115be578182fd5b82359150611426602084016112e2565b600080604083850312156115e0578182fd5b82359150602083013567ffffffffffffffff8111156115fd578182fd5b61158a85828601611360565b6000806000806080858703121561161e578384fd5b84359350602085013567ffffffffffffffff8082111561163c578485fd5b61164888838901611360565b9450604087013591508082111561165d578384fd5b5061166a87828801611360565b925050611679606086016113cb565b905092959194509250565b600060208284031215611695578081fd5b81356001600160e01b0319811681146113f6578182fd5b6000602082840312156116bd578081fd5b813567ffffffffffffffff8111156116d3578182fd5b6116df84828501611360565b949350505050565b600081518084526116ff8160208601602086016118f0565b601f01601f19169290920160200192915050565b6000858252845161172b8160208501602089016118f0565b808301905084516117438160208401602089016118f0565b60f89490941b6001600160f81b0319166020919094019081019390935250506021019392505050565b600060018060a01b038916825287602083015260e0604083015261179360e08301886116e7565b82810360608401526117a581886116e7565b60ff969096166080840152505091151560a083015260c090910152949350505050565b6000602080830181845280855180835260408601915060408482028701019250838701855b8281101561181b57603f198886030184526118098583516116e7565b945092850192908501906001016117ed565b5092979650505050505050565b6020808252601390820152726f6e6c7941646d696e3a2062616420726f6c6560681b604082015260600190565b6020808252601490820152736f6e6c794f7261636c653a2062616420726f6c6560601b604082015260600190565b604051601f8201601f1916810167ffffffffffffffff811182821017156118ac576118ac61198c565b604052919050565b600067ffffffffffffffff8211156118ce576118ce61198c565b5060209081020190565b600082198211156118eb576118eb611976565b500190565b60005b8381101561190b5781810151838201526020016118f3565b8381111561191a576000848401525b50505050565b60028104600182168061193457607f821691505b6020821081141561195557634e487b7160e01b600052602260045260246000fd5b50919050565b600060001982141561196f5761196f611976565b5060010190565b634e487b7160e01b600052601160045260246000fd5b634e487b7160e01b600052604160045260246000fdfe68e79a7bf1e0bc45d0a330c573bc367f9cf464fd326078812f301165fbda4ef1a264697066735822122049dfa8b8fcb93f9bbba15dc4ba378871187c41db89820de4833446bb7a65227f64736f6c63430008020033",
  "immutableReferences": {},
  "source": "// SPDX-License-Identifier: MIT\r\npragma solidity ^0.8.2;\r\n\r\nimport \"@openzeppelin/contracts/access/AccessControl.sol\";\r\nimport \"@openzeppelin/contracts/token/ERC20/IERC20.sol\";\r\nimport \"./Aggregator.sol\";\r\nimport \"../interfaces/ILightAggregator.sol\";\r\nimport \"../periphery/WrappedAsset.sol\";\r\n\r\ncontract LightAggregator is Aggregator, ILightAggregator {\r\n    struct SubmissionInfo {\r\n        uint256 block; // confirmation block\r\n        uint256 confirmations; // received confirmations count\r\n        bytes[] signatures;\r\n        mapping(address => bool) hasVerified; // verifier => has already voted\r\n    }\r\n    struct DebridgeDeployInfo {\r\n        address tokenAddress;\r\n        uint256 chainId;\r\n        string name;\r\n        string symbol;\r\n        uint8 decimals;\r\n        bool approved;\r\n        uint256 confirmations; // received confirmations count\r\n        bytes[] signatures;\r\n        mapping(address => bool) hasVerified; // verifier => has already voted\r\n    }\r\n\r\n    mapping(bytes32 => DebridgeDeployInfo) public getDeployInfo; // mint id => debridge info\r\n    mapping(bytes32 => SubmissionInfo) public getSubmissionInfo; // mint id => submission info\r\n\r\n    event Confirmed(bytes32 submissionId, address operator); // emitted once the submission is confirmed by one oracle\r\n    event SubmissionApproved(bytes32 submissionId); // emitted once the submission is confirmed by min required aount of oracles\r\n\r\n    /// @dev Constructor that initializes the most important configurations.\r\n    /// @param _minConfirmations Common confirmations count.\r\n    constructor(uint256 _minConfirmations) \r\n        Aggregator(_minConfirmations)\r\n    {}\r\n\r\n    /// @dev Confirms the transfer request.\r\n    function confirmNewAsset(\r\n        address _tokenAddress,\r\n        uint256 _chainId,\r\n        string memory _name,\r\n        string memory _symbol,\r\n        uint8 _decimals,\r\n        bytes memory _signature\r\n    ) external onlyOracle {\r\n        bytes32 debridgeId = getDebridgeId(_chainId, _tokenAddress);\r\n        bytes32 deployId = getDeployId(debridgeId, _name, _symbol, _decimals);\r\n        DebridgeDeployInfo storage debridgeInfo = getDeployInfo[deployId];\r\n        require(!debridgeInfo.approved, \"deployAsset: submitted already\");\r\n        require(\r\n            !debridgeInfo.hasVerified[msg.sender],\r\n            \"deployAsset: submitted already\"\r\n        );\r\n        (bytes32 r, bytes32 s, uint8 v) = splitSignature(_signature);\r\n        bytes32 unsignedMsg = getUnsignedMsg(deployId);\r\n        address oracle = ecrecover(unsignedMsg, v, r, s);\r\n        require(msg.sender == oracle, \"onlyOracle: bad role\");\r\n        debridgeInfo.confirmations += 1;\r\n        debridgeInfo.name = _name;\r\n        debridgeInfo.symbol = _symbol;\r\n        debridgeInfo.decimals = _decimals;\r\n        debridgeInfo.signatures.push(_signature);\r\n        debridgeInfo.hasVerified[msg.sender] = true;\r\n        if (debridgeInfo.confirmations >= minConfirmations) {\r\n            debridgeInfo.approved = true;\r\n            emit DeployApproved(deployId);\r\n        }\r\n        emit DeployConfirmed(deployId, msg.sender);\r\n    }\r\n\r\n    /// @dev Confirms few transfer requests.\r\n    /// @param _submissionIds Submission identifiers.\r\n    /// @param _signatures Oracles signature.\r\n    function submitMany(\r\n        bytes32[] memory _submissionIds,\r\n        bytes[] memory _signatures\r\n    ) external override onlyOracle {\r\n        require(\r\n            _submissionIds.length == _signatures.length,\r\n            \"submitMany: signatures and submission count mismatch\"\r\n        );\r\n        for (uint256 i; i < _submissionIds.length; i++) {\r\n            _submit(_submissionIds[i], _signatures[i]);\r\n        }\r\n    }\r\n\r\n    /// @dev Confirms the transfer request.\r\n    /// @param _submissionId Submission identifier.\r\n    /// @param _signature Oracle's signature.\r\n    function submit(bytes32 _submissionId, bytes memory _signature)\r\n        external\r\n        override\r\n        onlyOracle\r\n    {\r\n        _submit(_submissionId, _signature);\r\n    }\r\n\r\n    /// @dev Confirms single transfer request.\r\n    /// @param _submissionId Submission identifier.\r\n    /// @param _signature Oracle's signature.\r\n    function _submit(bytes32 _submissionId, bytes memory _signature) internal {\r\n        SubmissionInfo storage submissionInfo = getSubmissionInfo[\r\n            _submissionId\r\n        ];\r\n        require(\r\n            !submissionInfo.hasVerified[msg.sender],\r\n            \"submit: submitted already\"\r\n        );\r\n        (bytes32 r, bytes32 s, uint8 v) = splitSignature(_signature);\r\n        bytes32 unsignedMsg = getUnsignedMsg(_submissionId);\r\n        address oracle = ecrecover(unsignedMsg, v, r, s);\r\n        require(msg.sender == oracle, \"onlyOracle: bad role\");\r\n        submissionInfo.confirmations += 1;\r\n        submissionInfo.signatures.push(_signature);\r\n        submissionInfo.hasVerified[msg.sender] = true;\r\n        emit Confirmed(_submissionId, msg.sender);\r\n    }\r\n\r\n    /// @dev Returns whether transfer request is confirmed.\r\n    /// @param _submissionId Submission identifier.\r\n    /// @return _confirmations number of confirmation.\r\n    /// @return _confirmed Whether transfer request is confirmed.\r\n    function getSubmissionConfirmations(bytes32 _submissionId)\r\n        external\r\n        view\r\n        override\r\n        returns (uint256 _confirmations, bool _confirmed)\r\n    {\r\n        SubmissionInfo storage submissionInfo = getSubmissionInfo[\r\n            _submissionId\r\n        ];\r\n        _confirmations = submissionInfo.confirmations;\r\n        return (_confirmations, _confirmations >= minConfirmations);\r\n    }\r\n\r\n    /// @dev Returns whether transfer request is confirmed.\r\n    /// @param _submissionId Submission identifier.\r\n    /// @return Oracles signatures.\r\n    function getSubmissionSignatures(bytes32 _submissionId)\r\n        external\r\n        view\r\n        returns (bytes[] memory)\r\n    {\r\n        return getSubmissionInfo[_submissionId].signatures;\r\n    }\r\n\r\n    /// @dev Prepares raw msg that was signed by the oracle.\r\n    /// @param _submissionId Submission identifier.\r\n    function getUnsignedMsg(bytes32 _submissionId)\r\n        public\r\n        pure\r\n        returns (bytes32)\r\n    {\r\n        return\r\n            keccak256(\r\n                abi.encodePacked(\r\n                    \"\\x19Ethereum Signed Message:\\n32\",\r\n                    _submissionId\r\n                )\r\n            );\r\n    }\r\n\r\n    /// @dev Splits signature bytes to r,s,v components.\r\n    /// @param _signature Signature bytes in format r+s+v.\r\n    function splitSignature(bytes memory _signature)\r\n        public\r\n        pure\r\n        returns (\r\n            bytes32 r,\r\n            bytes32 s,\r\n            uint8 v\r\n        )\r\n    {\r\n        require(\r\n            _signature.length == 65,\r\n            \"splitSignature: invalid signature length\"\r\n        );\r\n        assembly {\r\n            r := mload(add(_signature, 32))\r\n            s := mload(add(_signature, 64))\r\n            v := byte(0, mload(add(_signature, 96)))\r\n        }\r\n    }\r\n}\r\n",
  "sourcePath": "D:/Projects/Debridge/debridge-contracts-v1/contracts/chainlink/LightAggregator.sol",
  "compiler": {
    "name": "solc",
    "version": "0.8.2+commit.661d1103.Emscripten.clang"
  },
  "schemaVersion": "3.3.4",
  "updatedAt": "2021-07-18T21:07:26.040Z",
  "devdoc": {
    "kind": "dev",
    "methods": {
      "addOracle(address,address)": {
        "details": "Add new oracle.",
        "params": {
          "_admin": "Admin address.",
          "_oracle": "Oracle address."
        }
      },
      "confirmNewAsset(address,uint256,string,string,uint8,bytes)": {
        "details": "Confirms the transfer request."
      },
      "constructor": {
        "details": "Constructor that initializes the most important configurations.",
        "params": {
          "_minConfirmations": "Common confirmations count."
        }
      },
      "getDebridgeId(uint256,address)": {
        "details": "Calculates asset identifier.",
        "params": {
          "_chainId": "Current chain id.",
          "_tokenAddress": "Address of the asset on the other chain."
        }
      },
      "getDeployId(bytes32,string,string,uint8)": {
        "details": "Calculates asset identifier."
      },
      "getRoleAdmin(bytes32)": {
        "details": "Returns the admin role that controls `role`. See {grantRole} and {revokeRole}. To change a role's admin, use {_setRoleAdmin}."
      },
      "getSubmissionConfirmations(bytes32)": {
        "details": "Returns whether transfer request is confirmed.",
        "params": {
          "_submissionId": "Submission identifier."
        },
        "returns": {
          "_confirmations": "number of confirmation.",
          "_confirmed": "Whether transfer request is confirmed."
        }
      },
      "getSubmissionSignatures(bytes32)": {
        "details": "Returns whether transfer request is confirmed.",
        "params": {
          "_submissionId": "Submission identifier."
        },
        "returns": {
          "_0": "Oracles signatures."
        }
      },
      "getUnsignedMsg(bytes32)": {
        "details": "Prepares raw msg that was signed by the oracle.",
        "params": {
          "_submissionId": "Submission identifier."
        }
      },
      "grantRole(bytes32,address)": {
        "details": "Grants `role` to `account`. If `account` had not been already granted `role`, emits a {RoleGranted} event. Requirements: - the caller must have ``role``'s admin role."
      },
      "hasRole(bytes32,address)": {
        "details": "Returns `true` if `account` has been granted `role`."
      },
      "removeOracle(address)": {
        "details": "Remove oracle.",
        "params": {
          "_oracle": "Oracle address."
        }
      },
      "renounceRole(bytes32,address)": {
        "details": "Revokes `role` from the calling account. Roles are often managed via {grantRole} and {revokeRole}: this function's purpose is to provide a mechanism for accounts to lose their privileges if they are compromised (such as when a trusted device is misplaced). If the calling account had been granted `role`, emits a {RoleRevoked} event. Requirements: - the caller must be `account`."
      },
      "revokeRole(bytes32,address)": {
        "details": "Revokes `role` from `account`. If `account` had been granted `role`, emits a {RoleRevoked} event. Requirements: - the caller must have ``role``'s admin role."
      },
      "setMinConfirmations(uint256)": {
        "details": "Sets minimal required confirmations.",
        "params": {
          "_minConfirmations": "Confirmation info."
        }
      },
      "splitSignature(bytes)": {
        "details": "Splits signature bytes to r,s,v components.",
        "params": {
          "_signature": "Signature bytes in format r+s+v."
        }
      },
      "submit(bytes32,bytes)": {
        "details": "Confirms the transfer request.",
        "params": {
          "_signature": "Oracle's signature.",
          "_submissionId": "Submission identifier."
        }
      },
      "submitMany(bytes32[],bytes[])": {
        "details": "Confirms few transfer requests.",
        "params": {
          "_signatures": "Oracles signature.",
          "_submissionIds": "Submission identifiers."
        }
      },
      "supportsInterface(bytes4)": {
        "details": "See {IERC165-supportsInterface}."
      },
      "updateOracleAdmin(address,address)": {
        "details": "Updates oracle's admin address.",
        "params": {
          "_newOracleAdmin": "New oracle address.",
          "_oracle": "Oracle address."
        }
      }
    },
    "version": 1
  },
  "userdoc": {
    "kind": "user",
    "methods": {},
    "version": 1
  }
}