{
  "contractName": "LightAggregator",
  "abi": [
    {
      "inputs": [
        {
          "internalType": "uint256",
          "name": "_minConfirmations",
          "type": "uint256"
        },
        {
          "internalType": "uint256",
          "name": "_corePayment",
          "type": "uint256"
        },
        {
          "internalType": "uint256",
          "name": "_bonusPayment",
          "type": "uint256"
        },
        {
          "internalType": "contract IERC20",
          "name": "_coreToken",
          "type": "address"
        },
        {
          "internalType": "contract IERC20",
          "name": "_bonusToken",
          "type": "address"
        }
      ],
      "stateMutability": "nonpayable",
      "type": "constructor"
    },
    {
      "anonymous": false,
      "inputs": [
        {
          "indexed": false,
          "internalType": "bytes32",
          "name": "submissionId",
          "type": "bytes32"
        },
        {
          "indexed": false,
          "internalType": "address",
          "name": "operator",
          "type": "address"
        }
      ],
      "name": "Confirmed",
      "type": "event"
    },
    {
      "anonymous": false,
      "inputs": [
        {
          "indexed": true,
          "internalType": "bytes32",
          "name": "role",
          "type": "bytes32"
        },
        {
          "indexed": true,
          "internalType": "bytes32",
          "name": "previousAdminRole",
          "type": "bytes32"
        },
        {
          "indexed": true,
          "internalType": "bytes32",
          "name": "newAdminRole",
          "type": "bytes32"
        }
      ],
      "name": "RoleAdminChanged",
      "type": "event"
    },
    {
      "anonymous": false,
      "inputs": [
        {
          "indexed": true,
          "internalType": "bytes32",
          "name": "role",
          "type": "bytes32"
        },
        {
          "indexed": true,
          "internalType": "address",
          "name": "account",
          "type": "address"
        },
        {
          "indexed": true,
          "internalType": "address",
          "name": "sender",
          "type": "address"
        }
      ],
      "name": "RoleGranted",
      "type": "event"
    },
    {
      "anonymous": false,
      "inputs": [
        {
          "indexed": true,
          "internalType": "bytes32",
          "name": "role",
          "type": "bytes32"
        },
        {
          "indexed": true,
          "internalType": "address",
          "name": "account",
          "type": "address"
        },
        {
          "indexed": true,
          "internalType": "address",
          "name": "sender",
          "type": "address"
        }
      ],
      "name": "RoleRevoked",
      "type": "event"
    },
    {
      "anonymous": false,
      "inputs": [
        {
          "indexed": false,
          "internalType": "bytes32",
          "name": "submissionId",
          "type": "bytes32"
        }
      ],
      "name": "SubmissionApproved",
      "type": "event"
    },
    {
      "inputs": [],
      "name": "DEFAULT_ADMIN_ROLE",
      "outputs": [
        {
          "internalType": "bytes32",
          "name": "",
          "type": "bytes32"
        }
      ],
      "stateMutability": "view",
      "type": "function"
    },
    {
      "inputs": [],
      "name": "ORACLE_ROLE",
      "outputs": [
        {
          "internalType": "bytes32",
          "name": "",
          "type": "bytes32"
        }
      ],
      "stateMutability": "view",
      "type": "function"
    },
    {
      "inputs": [
        {
          "internalType": "address",
          "name": "_oracle",
          "type": "address"
        },
        {
          "internalType": "address",
          "name": "_admin",
          "type": "address"
        }
      ],
      "name": "addOracle",
      "outputs": [],
      "stateMutability": "nonpayable",
      "type": "function"
    },
    {
      "inputs": [],
      "name": "bonusPayment",
      "outputs": [
        {
          "internalType": "uint256",
          "name": "",
          "type": "uint256"
        }
      ],
      "stateMutability": "view",
      "type": "function"
    },
    {
      "inputs": [],
      "name": "bonusToken",
      "outputs": [
        {
          "internalType": "contract IERC20",
          "name": "",
          "type": "address"
        }
      ],
      "stateMutability": "view",
      "type": "function"
    },
    {
      "inputs": [],
      "name": "corePayment",
      "outputs": [
        {
          "internalType": "uint256",
          "name": "",
          "type": "uint256"
        }
      ],
      "stateMutability": "view",
      "type": "function"
    },
    {
      "inputs": [],
      "name": "coreToken",
      "outputs": [
        {
          "internalType": "contract IERC20",
          "name": "",
          "type": "address"
        }
      ],
      "stateMutability": "view",
      "type": "function"
    },
    {
      "inputs": [
        {
          "internalType": "address",
          "name": "",
          "type": "address"
        }
      ],
      "name": "getOracleInfo",
      "outputs": [
        {
          "internalType": "address",
          "name": "admin",
          "type": "address"
        }
      ],
      "stateMutability": "view",
      "type": "function"
    },
    {
      "inputs": [
        {
          "internalType": "contract IERC20",
          "name": "",
          "type": "address"
        }
      ],
      "name": "getPaymentInfo",
      "outputs": [
        {
          "internalType": "uint256",
          "name": "allocatedFunds",
          "type": "uint256"
        },
        {
          "internalType": "uint256",
          "name": "availableFunds",
          "type": "uint256"
        }
      ],
      "stateMutability": "view",
      "type": "function"
    },
    {
      "inputs": [
        {
          "internalType": "bytes32",
          "name": "role",
          "type": "bytes32"
        }
      ],
      "name": "getRoleAdmin",
      "outputs": [
        {
          "internalType": "bytes32",
          "name": "",
          "type": "bytes32"
        }
      ],
      "stateMutability": "view",
      "type": "function"
    },
    {
      "inputs": [
        {
          "internalType": "bytes32",
          "name": "",
          "type": "bytes32"
        }
      ],
      "name": "getSubmissionInfo",
      "outputs": [
        {
          "internalType": "uint256",
          "name": "block",
          "type": "uint256"
        },
        {
          "internalType": "uint256",
          "name": "confirmations",
          "type": "uint256"
        }
      ],
      "stateMutability": "view",
      "type": "function"
    },
    {
      "inputs": [
        {
          "internalType": "contract IERC20",
          "name": "_asset",
          "type": "address"
        },
        {
          "internalType": "address",
          "name": "_oracle",
          "type": "address"
        }
      ],
      "name": "getWithdrawable",
      "outputs": [
        {
          "internalType": "uint256",
          "name": "",
          "type": "uint256"
        }
      ],
      "stateMutability": "view",
      "type": "function"
    },
    {
      "inputs": [
        {
          "internalType": "bytes32",
          "name": "role",
          "type": "bytes32"
        },
        {
          "internalType": "address",
          "name": "account",
          "type": "address"
        }
      ],
      "name": "grantRole",
      "outputs": [],
      "stateMutability": "nonpayable",
      "type": "function"
    },
    {
      "inputs": [
        {
          "internalType": "bytes32",
          "name": "role",
          "type": "bytes32"
        },
        {
          "internalType": "address",
          "name": "account",
          "type": "address"
        }
      ],
      "name": "hasRole",
      "outputs": [
        {
          "internalType": "bool",
          "name": "",
          "type": "bool"
        }
      ],
      "stateMutability": "view",
      "type": "function"
    },
    {
      "inputs": [],
      "name": "minConfirmations",
      "outputs": [
        {
          "internalType": "uint256",
          "name": "",
          "type": "uint256"
        }
      ],
      "stateMutability": "view",
      "type": "function"
    },
    {
      "inputs": [
        {
          "internalType": "address",
          "name": "",
          "type": "address"
        },
        {
          "internalType": "uint256",
          "name": "",
          "type": "uint256"
        },
        {
          "internalType": "bytes",
          "name": "_data",
          "type": "bytes"
        }
      ],
      "name": "onTokenTransfer",
      "outputs": [],
      "stateMutability": "nonpayable",
      "type": "function"
    },
    {
      "inputs": [
        {
          "internalType": "address",
          "name": "_oracle",
          "type": "address"
        }
      ],
      "name": "removeOracle",
      "outputs": [],
      "stateMutability": "nonpayable",
      "type": "function"
    },
    {
      "inputs": [
        {
          "internalType": "bytes32",
          "name": "role",
          "type": "bytes32"
        },
        {
          "internalType": "address",
          "name": "account",
          "type": "address"
        }
      ],
      "name": "renounceRole",
      "outputs": [],
      "stateMutability": "nonpayable",
      "type": "function"
    },
    {
      "inputs": [
        {
          "internalType": "bytes32",
          "name": "role",
          "type": "bytes32"
        },
        {
          "internalType": "address",
          "name": "account",
          "type": "address"
        }
      ],
      "name": "revokeRole",
      "outputs": [],
      "stateMutability": "nonpayable",
      "type": "function"
    },
    {
      "inputs": [
        {
          "internalType": "uint256",
          "name": "_minConfirmations",
          "type": "uint256"
        }
      ],
      "name": "setMinConfirmations",
      "outputs": [],
      "stateMutability": "nonpayable",
      "type": "function"
    },
    {
      "inputs": [
        {
          "internalType": "uint256",
          "name": "_corePayment",
          "type": "uint256"
        },
        {
          "internalType": "uint256",
          "name": "_bonusPayment",
          "type": "uint256"
        }
      ],
      "name": "setPayment",
      "outputs": [],
      "stateMutability": "nonpayable",
      "type": "function"
    },
    {
      "inputs": [
        {
          "internalType": "bytes4",
          "name": "interfaceId",
          "type": "bytes4"
        }
      ],
      "name": "supportsInterface",
      "outputs": [
        {
          "internalType": "bool",
          "name": "",
          "type": "bool"
        }
      ],
      "stateMutability": "view",
      "type": "function"
    },
    {
      "inputs": [
        {
          "internalType": "contract IERC20",
          "name": "_asset",
          "type": "address"
        }
      ],
      "name": "updateAvailableFunds",
      "outputs": [],
      "stateMutability": "nonpayable",
      "type": "function"
    },
    {
      "inputs": [
        {
          "internalType": "address",
          "name": "_oracle",
          "type": "address"
        },
        {
          "internalType": "address",
          "name": "_newOracleAdmin",
          "type": "address"
        }
      ],
      "name": "updateOracleAdmin",
      "outputs": [],
      "stateMutability": "nonpayable",
      "type": "function"
    },
    {
      "inputs": [
        {
          "internalType": "contract IERC20",
          "name": "_asset",
          "type": "address"
        },
        {
          "internalType": "address",
          "name": "_recipient",
          "type": "address"
        },
        {
          "internalType": "uint256",
          "name": "_amount",
          "type": "uint256"
        }
      ],
      "name": "withdrawFunds",
      "outputs": [],
      "stateMutability": "nonpayable",
      "type": "function"
    },
    {
      "inputs": [
        {
          "internalType": "address",
          "name": "_oracle",
          "type": "address"
        },
        {
          "internalType": "address",
          "name": "_recipient",
          "type": "address"
        },
        {
          "internalType": "contract IERC20",
          "name": "_asset",
          "type": "address"
        },
        {
          "internalType": "uint256",
          "name": "_amount",
          "type": "uint256"
        }
      ],
      "name": "withdrawPayment",
      "outputs": [],
      "stateMutability": "nonpayable",
      "type": "function"
    },
    {
      "inputs": [
        {
          "internalType": "bytes32[]",
          "name": "_submissionIds",
          "type": "bytes32[]"
        },
        {
          "internalType": "bytes[]",
          "name": "_signatures",
          "type": "bytes[]"
        }
      ],
      "name": "submitMany",
      "outputs": [],
      "stateMutability": "nonpayable",
      "type": "function"
    },
    {
      "inputs": [
        {
          "internalType": "bytes32",
          "name": "_submissionId",
          "type": "bytes32"
        },
        {
          "internalType": "bytes",
          "name": "_signature",
          "type": "bytes"
        }
      ],
      "name": "submit",
      "outputs": [],
      "stateMutability": "nonpayable",
      "type": "function"
    },
    {
      "inputs": [
        {
          "internalType": "bytes32",
          "name": "_submissionId",
          "type": "bytes32"
        }
      ],
      "name": "getSubmissionConfirmations",
      "outputs": [
        {
          "internalType": "uint256",
          "name": "_confirmations",
          "type": "uint256"
        },
        {
          "internalType": "bool",
          "name": "_confirmed",
          "type": "bool"
        }
      ],
      "stateMutability": "view",
      "type": "function"
    },
    {
      "inputs": [
        {
          "internalType": "bytes32",
          "name": "_submissionId",
          "type": "bytes32"
        }
      ],
      "name": "getSubmissionSignatures",
      "outputs": [
        {
          "internalType": "bytes[]",
          "name": "",
          "type": "bytes[]"
        }
      ],
      "stateMutability": "view",
      "type": "function"
    },
    {
      "inputs": [
        {
          "internalType": "bytes32",
          "name": "_submissionId",
          "type": "bytes32"
        }
      ],
      "name": "getUnsignedMsg",
      "outputs": [
        {
          "internalType": "bytes32",
          "name": "",
          "type": "bytes32"
        }
      ],
      "stateMutability": "pure",
      "type": "function"
    },
    {
      "inputs": [
        {
          "internalType": "bytes",
          "name": "_signature",
          "type": "bytes"
        }
      ],
      "name": "splitSignature",
      "outputs": [
        {
          "internalType": "bytes32",
          "name": "r",
          "type": "bytes32"
        },
        {
          "internalType": "bytes32",
          "name": "s",
          "type": "bytes32"
        },
        {
          "internalType": "uint8",
          "name": "v",
          "type": "uint8"
        }
      ],
      "stateMutability": "pure",
      "type": "function"
    }
  ],
  "bytecode": "0x60806040523480156200001157600080fd5b5060405162001db738038062001db783398101604081905262000034916200018e565b6003859055600480546001600160a01b038085166001600160a01b031992831617909255600580549284169290911691909117905560018490556002839055848484848462000085600033620000c1565b620000b17f68e79a7bf1e0bc45d0a330c573bc367f9cf464fd326078812f301165fbda4ef133620000c1565b50505050505050505050620001e2565b620000cd8282620000d1565b5050565b6000828152602081815260408083206001600160a01b038516845290915290205460ff16620000cd576000828152602081815260408083206001600160a01b03851684529091529020805460ff191660011790556200012d3390565b6001600160a01b0316816001600160a01b0316837f2f8788117e7eff1d82e926ec794901d17c78024a50270940304540a733656f0d60405160405180910390a45050565b80516001600160a01b03811681146200018957600080fd5b919050565b600080600080600060a08688031215620001a6578081fd5b855194506020860151935060408601519250620001c66060870162000171565b9150620001d66080870162000171565b90509295509295909350565b611bc580620001f26000396000f3fe608060405234801561001057600080fd5b50600436106101f05760003560e01c80637885f23b1161010f578063cd283118116100a2578063e75a592611610071578063e75a59261461050f578063e7c4393e14610522578063f0ca4adb1461052b578063fdc85fc41461053e576101f0565b8063cd283118146104c0578063d2821655146104c9578063d547741f146104dc578063d8a31674146104ef576101f0565b8063a4c0ed36116100de578063a4c0ed3614610440578063a7bb580314610453578063bfdb6b0414610484578063c3d990ee146104ad576101f0565b80637885f23b146103d457806391d14854146103e7578063a217fddf146103fa578063a490c5ac14610402576101f0565b8063248a9ca3116101875780633d5376fa116101565780633d5376fa1461038857806341d4a1ab1461039b5780634c083773146103ae5780634fbca33e146103c1576101f0565b8063248a9ca31461032c5780632f2ff15d1461034f57806333e207561461036257806336568abe14610375576101f0565b80630e3b90a9116101c35780630e3b90a91461027457806312c65b8c146102b05780631c20fadd146102d757806321c27731146102ec576101f0565b806301ffc9a7146101f557806307e2cea51461021d57806308b8304b146102405780630c2b72e914610249575b600080fd5b610208610203366004611874565b610551565b60405190151581526020015b60405180910390f35b610232600080516020611b7083398151915281565b604051908152602001610214565b61023260015481565b60045461025c906001600160a01b031681565b6040516001600160a01b039091168152602001610214565b61029b6102823660046117fd565b6008602052600090815260409020805460019091015482565b60408051928352602083019190915201610214565b61029b6102be3660046115f7565b6007602052600090815260409020805460019091015482565b6102ea6102e53660046118e9565b610588565b005b6103176102fa3660046117fd565b600081815260086020526040902060010154600354811015915091565b60408051928352901515602083015201610214565b61023261033a3660046117fd565b60009081526020819052604090206001015490565b6102ea61035d366004611815565b610711565b6102ea610370366004611941565b6107a0565b6102ea610383366004611815565b6107d2565b6102ea610396366004611839565b61084c565b60055461025c906001600160a01b031681565b6102ea6103bc366004611652565b61088a565b6102ea6103cf366004611726565b610a8e565b6102ea6103e23660046115f7565b610ba6565b6102086103f5366004611815565b610c58565b610232600081565b6102326104103660046118d7565b6001600160a01b038082166000908152600660209081526040808320938616835260019093019052205492915050565b6102ea61044e3660046116a2565b610c81565b61046661046136600461189c565b610cde565b60408051938452602084019290925260ff1690820152606001610214565b61025c6104923660046115f7565b6006602052600090815260409020546001600160a01b031681565b6102326104bb3660046117fd565b610d63565b61023260025481565b6102ea6104d73660046117fd565b610db6565b6102ea6104ea366004611815565b610de2565b6105026104fd3660046117fd565b610e62565b6040516102149190611962565b6102ea61051d36600461161a565b610f51565b61023260035481565b6102ea61053936600461161a565b610ffa565b6102ea61054c3660046115f7565b611039565b60006001600160e01b03198216637965db0b60e01b148061058257506301ffc9a760e01b6001600160e01b03198316145b92915050565b610593600033610c58565b6105b85760405162461bcd60e51b81526004016105af906119f9565b60405180910390fd5b6001600160a01b0383166000908152600760205260409020600101548111156106355760405162461bcd60e51b815260206004820152602960248201527f776974686472617746756e64733a20696e73756666696369656e7420726573656044820152687276652066756e647360b81b60648201526084016105af565b60405163a9059cbb60e01b81526001600160a01b0383811660048301526024820183905284169063a9059cbb90604401602060405180830381600087803b15801561067f57600080fd5b505af1158015610693573d6000803e3d6000fd5b505050506040513d601f19601f820116820180604052508101906106b791906117dd565b6107035760405162461bcd60e51b815260206004820152601e60248201527f776974686472617746756e64733a207472616e73666572206661696c6564000060448201526064016105af565b61070c83610ba6565b505050565b60008281526020819052604090206001015461072e905b336103f5565b6107925760405162461bcd60e51b815260206004820152602f60248201527f416363657373436f6e74726f6c3a2073656e646572206d75737420626520616e60448201526e0818591b5a5b881d1bc819dc985b9d608a1b60648201526084016105af565b61079c828261107b565b5050565b6107ab600033610c58565b6107c75760405162461bcd60e51b81526004016105af906119f9565b600191909155600255565b6001600160a01b03811633146108425760405162461bcd60e51b815260206004820152602f60248201527f416363657373436f6e74726f6c3a2063616e206f6e6c792072656e6f756e636560448201526e103937b632b9903337b91039b2b63360891b60648201526084016105af565b61079c82826110ff565b610864600080516020611b7083398151915233610c58565b6108805760405162461bcd60e51b81526004016105af90611a26565b61079c8282611164565b6001600160a01b038481166000908152600660205260409020541633146109035760405162461bcd60e51b815260206004820152602760248201527f77697468647261775061796d656e743a206f6e6c792063616c6c61626c6520626044820152663c9030b236b4b760c91b60648201526084016105af565b6001600160a01b0380851660009081526006602090815260408083209386168352600190930190522054818110156109965760405162461bcd60e51b815260206004820152603060248201527f77697468647261775061796d656e743a20696e73756666696369656e7420776960448201526f74686472617761626c652066756e647360801b60648201526084016105af565b6109a08282611ac1565b6001600160a01b038087166000908152600660209081526040808320938816835260019093018152828220939093556007909252812080548492906109e6908490611ac1565b909155505060405163a9059cbb60e01b81526001600160a01b0385811660048301526024820184905284169063a9059cbb90604401602060405180830381600087803b158015610a3557600080fd5b505af1158015610a49573d6000803e3d6000fd5b505050506040513d601f19601f82011682018060405250810190610a6d91906117dd565b610a8757634e487b7160e01b600052600160045260246000fd5b5050505050565b610aa6600080516020611b7083398151915233610c58565b610ac25760405162461bcd60e51b81526004016105af90611a26565b8051825114610b305760405162461bcd60e51b815260206004820152603460248201527f7375626d69744d616e793a207369676e61747572657320616e64207375626d696044820152730e6e6d2dedc40c6deeadce840dad2e6dac2e8c6d60631b60648201526084016105af565b60005b825181101561070c57610b94838281518110610b5f57634e487b7160e01b600052603260045260246000fd5b6020026020010151838381518110610b8757634e487b7160e01b600052603260045260246000fd5b6020026020010151611164565b80610b9e81611b13565b915050610b33565b6001600160a01b038116600081815260076020526040908190205490516370a0823160e01b81523060048201529091906370a082319060240160206040518083038186803b158015610bf757600080fd5b505afa158015610c0b573d6000803e3d6000fd5b505050506040513d601f19601f82011682018060405250810190610c2f9190611929565b610c399190611ac1565b6001600160a01b03909116600090815260076020526040902060010155565b6000918252602082815260408084206001600160a01b0393909316845291905290205460ff1690565b8015610ccf5760405162461bcd60e51b815260206004820181905260248201527f7472616e7366657220646f65736e2774206163636570742063616c6c6461746160448201526064016105af565b610cd833610ba6565b50505050565b60008060008351604114610d455760405162461bcd60e51b815260206004820152602860248201527f73706c69745369676e61747572653a20696e76616c6964207369676e617475726044820152670ca40d8cadccee8d60c31b60648201526084016105af565b50505060208101516040820151606090920151909260009190911a90565b6040517f19457468657265756d205369676e6564204d6573736167653a0a3332000000006020820152603c8101829052600090605c01604051602081830303815290604052805190602001209050919050565b610dc1600033610c58565b610ddd5760405162461bcd60e51b81526004016105af906119f9565b600355565b600082815260208190526040902060010154610dfd90610728565b6108425760405162461bcd60e51b815260206004820152603060248201527f416363657373436f6e74726f6c3a2073656e646572206d75737420626520616e60448201526f2061646d696e20746f207265766f6b6560801b60648201526084016105af565b606060086000838152602001908152602001600020600201805480602002602001604051908101604052809291908181526020016000905b82821015610f46578382906000526020600020018054610eb990611ad8565b80601f0160208091040260200160405190810160405280929190818152602001828054610ee590611ad8565b8015610f325780601f10610f0757610100808354040283529160200191610f32565b820191906000526020600020905b815481529060010190602001808311610f1557829003601f168201915b505050505081526020019060010190610e9a565b505050509050919050565b6001600160a01b03828116600090815260066020526040902054163314610fcc5760405162461bcd60e51b815260206004820152602960248201527f7570646174654f7261636c6541646d696e3a206f6e6c792063616c6c61626c6560448201526810313c9030b236b4b760b91b60648201526084016105af565b6001600160a01b03918216600090815260066020526040902080546001600160a01b03191691909216179055565b611005600033610c58565b6110215760405162461bcd60e51b81526004016105af906119f9565b610fcc600080516020611b7083398151915283610711565b611044600033610c58565b6110605760405162461bcd60e51b81526004016105af906119f9565b611078600080516020611b7083398151915282610de2565b50565b6110858282610c58565b61079c576000828152602081815260408083206001600160a01b03851684529091529020805460ff191660011790556110bb3390565b6001600160a01b0316816001600160a01b0316837f2f8788117e7eff1d82e926ec794901d17c78024a50270940304540a733656f0d60405160405180910390a45050565b6111098282610c58565b1561079c576000828152602081815260408083206001600160a01b0385168085529252808320805460ff1916905551339285917ff6391f5c32d9c69d2a47ea670b442974b53935d1edc7fd64eb21e047a839171b9190a45050565b6000828152600860209081526040808320338452600381019092529091205460ff16156111d35760405162461bcd60e51b815260206004820152601960248201527f7375626d69743a207375626d697474656420616c72656164790000000000000060448201526064016105af565b60008060006111e185610cde565b92509250925060006111f287610d63565b6040805160008082526020820180845284905260ff86169282019290925260608101879052608081018690529192509060019060a0016020604051602081039080840390855afa15801561124a573d6000803e3d6000fd5b5050604051601f190151915050336001600160a01b0382161461127f5760405162461bcd60e51b81526004016105af90611a26565b60018660010160008282546112949190611aa9565b9091555050600286018054600181018255600091825260209182902089516112c4939190920191908a019061148c565b503360008181526003880160205260409020805460ff191660011790556112ea9061132c565b604080518981523360208201527fd4964a7cd99f5c1fa8f2420fb5e1d3bd26eadf16e2658cf2e29a67dfda38601e910160405180910390a15050505050505050565b600180546004546001600160a01b0316600090815260076020526040812090920180549192909161135e908490611ac1565b90915550506001546004546001600160a01b031660009081526007602052604081208054909190611390908490611aa9565b9091555050600180546001600160a01b03808416600090815260066020908152604080832060045490941683529290940190935282208054919290916113d7908490611aa9565b90915550506002546005546001600160a01b03166000908152600760205260408120600101805490919061140c908490611ac1565b90915550506002546005546001600160a01b03166000908152600760205260408120805490919061143e908490611aa9565b90915550506002546001600160a01b0380831660009081526006602090815260408083206005549094168352600190930190529081208054909190611484908490611aa9565b909155505050565b82805461149890611ad8565b90600052602060002090601f0160209004810192826114ba5760008555611500565b82601f106114d357805160ff1916838001178555611500565b82800160010185558215611500579182015b828111156115005782518255916020019190600101906114e5565b5061150c929150611510565b5090565b5b8082111561150c5760008155600101611511565b600082601f830112611535578081fd5b8135602061154a61154583611a85565b611a54565b82815281810190858301855b8581101561157f5761156d898684358b010161158c565b84529284019290840190600101611556565b5090979650505050505050565b600082601f83011261159c578081fd5b813567ffffffffffffffff8111156115b6576115b6611b44565b6115c9601f8201601f1916602001611a54565b8181528460208386010111156115dd578283fd5b816020850160208301379081016020019190915292915050565b600060208284031215611608578081fd5b813561161381611b5a565b9392505050565b6000806040838503121561162c578081fd5b823561163781611b5a565b9150602083013561164781611b5a565b809150509250929050565b60008060008060808587031215611667578182fd5b843561167281611b5a565b9350602085013561168281611b5a565b9250604085013561169281611b5a565b9396929550929360600135925050565b600080600080606085870312156116b7578384fd5b84356116c281611b5a565b935060208501359250604085013567ffffffffffffffff808211156116e5578384fd5b818701915087601f8301126116f8578384fd5b813581811115611706578485fd5b886020828501011115611717578485fd5b95989497505060200194505050565b60008060408385031215611738578182fd5b823567ffffffffffffffff8082111561174f578384fd5b818501915085601f830112611762578384fd5b8135602061177261154583611a85565b82815281810190858301838502870184018b101561178e578889fd5b8896505b848710156117b0578035835260019690960195918301918301611792565b50965050860135925050808211156117c6578283fd5b506117d385828601611525565b9150509250929050565b6000602082840312156117ee578081fd5b81518015158114611613578182fd5b60006020828403121561180e578081fd5b5035919050565b60008060408385031215611827578182fd5b82359150602083013561164781611b5a565b6000806040838503121561184b578182fd5b82359150602083013567ffffffffffffffff811115611868578182fd5b6117d38582860161158c565b600060208284031215611885578081fd5b81356001600160e01b031981168114611613578182fd5b6000602082840312156118ad578081fd5b813567ffffffffffffffff8111156118c3578182fd5b6118cf8482850161158c565b949350505050565b6000806040838503121561162c578182fd5b6000806000606084860312156118fd578081fd5b833561190881611b5a565b9250602084013561191881611b5a565b929592945050506040919091013590565b60006020828403121561193a578081fd5b5051919050565b60008060408385031215611953578182fd5b50508035926020909101359150565b6000602080830181845280855180835260408601915060408482028701019250838701855b828110156119ec57878503603f1901845281518051808752885b818110156119bc578281018901518882018a015288016119a1565b818111156119cc578989838a0101525b50601f01601f191695909501860194509285019290850190600101611987565b5092979650505050505050565b6020808252601390820152726f6e6c7941646d696e3a2062616420726f6c6560681b604082015260600190565b6020808252601490820152736f6e6c794f7261636c653a2062616420726f6c6560601b604082015260600190565b604051601f8201601f1916810167ffffffffffffffff81118282101715611a7d57611a7d611b44565b604052919050565b600067ffffffffffffffff821115611a9f57611a9f611b44565b5060209081020190565b60008219821115611abc57611abc611b2e565b500190565b600082821015611ad357611ad3611b2e565b500390565b600281046001821680611aec57607f821691505b60208210811415611b0d57634e487b7160e01b600052602260045260246000fd5b50919050565b6000600019821415611b2757611b27611b2e565b5060010190565b634e487b7160e01b600052601160045260246000fd5b634e487b7160e01b600052604160045260246000fd5b6001600160a01b038116811461107857600080fdfe68e79a7bf1e0bc45d0a330c573bc367f9cf464fd326078812f301165fbda4ef1a2646970667358221220f44f97009f851d04c0ce25876f74f34e70d4907d718a3297783e8aeeca5f640164736f6c63430008020033",
  "immutableReferences": {},
  "source": "// SPDX-License-Identifier: MIT\npragma solidity ^0.8.2;\n\nimport \"@openzeppelin/contracts/access/AccessControl.sol\";\nimport \"@openzeppelin/contracts/token/ERC20/IERC20.sol\";\nimport \"./Aggregator.sol\";\nimport \"../interfaces/ILightAggregator.sol\";\n\ncontract LightAggregator is Aggregator, ILightAggregator {\n    struct SubmissionInfo {\n        uint256 block; // confirmation block\n        uint256 confirmations; // received confirmations count\n        bytes[] signatures;\n        mapping(address => bool) hasVerified; // verifier => has already voted\n    }\n\n    mapping(bytes32 => SubmissionInfo) public getSubmissionInfo; // mint id => submission info\n\n    event Confirmed(bytes32 submissionId, address operator); // emitted once the submission is confirmed by one oracle\n    event SubmissionApproved(bytes32 submissionId); // emitted once the submission is confirmed by min required aount of oracles\n\n    /// @dev Constructor that initializes the most important configurations.\n    /// @param _minConfirmations Common confirmations count.\n    /// @param _corePayment Oracle reward.\n    /// @param _bonusPayment Oracle reward.\n    /// @param _coreToken Link token to pay to oracles.\n    /// @param _bonusToken DBR token to pay to oracles.\n    constructor(\n        uint256 _minConfirmations,\n        uint256 _corePayment,\n        uint256 _bonusPayment,\n        IERC20 _coreToken,\n        IERC20 _bonusToken\n    )\n        Aggregator(\n            _minConfirmations,\n            _corePayment,\n            _bonusPayment,\n            _coreToken,\n            _bonusToken\n        )\n    {}\n\n    /// @dev Confirms few transfer requests.\n    /// @param _submissionIds Submission identifiers.\n    /// @param _signatures Oracles signature.\n    function submitMany(\n        bytes32[] memory _submissionIds,\n        bytes[] memory _signatures\n    ) external override onlyOracle {\n        require(\n            _submissionIds.length == _signatures.length,\n            \"submitMany: signatures and submission count mismatch\"\n        );\n        for (uint256 i; i < _submissionIds.length; i++) {\n            _submit(_submissionIds[i], _signatures[i]);\n        }\n    }\n\n    /// @dev Confirms the transfer request.\n    /// @param _submissionId Submission identifier.\n    /// @param _signature Oracle's signature.\n    function submit(bytes32 _submissionId, bytes memory _signature)\n        external\n        override\n        onlyOracle\n    {\n        _submit(_submissionId, _signature);\n    }\n\n    /// @dev Confirms single transfer request.\n    /// @param _submissionId Submission identifier.\n    /// @param _signature Oracle's signature.\n    function _submit(bytes32 _submissionId, bytes memory _signature) internal {\n        SubmissionInfo storage submissionInfo =\n            getSubmissionInfo[_submissionId];\n        require(\n            !submissionInfo.hasVerified[msg.sender],\n            \"submit: submitted already\"\n        );\n        (bytes32 r, bytes32 s, uint8 v) = splitSignature(_signature);\n        bytes32 unsignedMsg = getUnsignedMsg(_submissionId);\n        address oracle = ecrecover(unsignedMsg, v, r, s);\n        require(msg.sender == oracle, \"onlyOracle: bad role\");\n        submissionInfo.confirmations += 1;\n        submissionInfo.signatures.push(_signature);\n        submissionInfo.hasVerified[msg.sender] = true;\n        _payOracle(msg.sender);\n        emit Confirmed(_submissionId, msg.sender);\n    }\n\n    /// @dev Returns whether transfer request is confirmed.\n    /// @param _submissionId Submission identifier.\n    /// @return _confirmations number of confirmation.\n    /// @return _confirmed Whether transfer request is confirmed.\n    function getSubmissionConfirmations(bytes32 _submissionId)\n        external\n        view\n        override\n        returns (uint256 _confirmations, bool _confirmed)\n    {\n        SubmissionInfo storage submissionInfo =\n            getSubmissionInfo[_submissionId];\n        _confirmations = submissionInfo.confirmations;\n        return (_confirmations, _confirmations >= minConfirmations);\n    }\n\n    /// @dev Returns whether transfer request is confirmed.\n    /// @param _submissionId Submission identifier.\n    /// @return Oracles signatures.\n    function getSubmissionSignatures(bytes32 _submissionId)\n        external\n        view\n        returns (bytes[] memory)\n    {\n        return getSubmissionInfo[_submissionId].signatures;\n    }\n\n    /// @dev Prepares raw msg that was signed by the oracle.\n    /// @param _submissionId Submission identifier.\n    function getUnsignedMsg(bytes32 _submissionId)\n        public\n        pure\n        returns (bytes32)\n    {\n        return\n            keccak256(\n                abi.encodePacked(\n                    \"\\x19Ethereum Signed Message:\\n32\",\n                    _submissionId\n                )\n            );\n    }\n\n    /// @dev Splits signature bytes to r,s,v components.\n    /// @param _signature Signature bytes in format r+s+v.\n    function splitSignature(bytes memory _signature)\n        public\n        pure\n        returns (\n            bytes32 r,\n            bytes32 s,\n            uint8 v\n        )\n    {\n        require(\n            _signature.length == 65,\n            \"splitSignature: invalid signature length\"\n        );\n        assembly {\n            r := mload(add(_signature, 32))\n            s := mload(add(_signature, 64))\n            v := byte(0, mload(add(_signature, 96)))\n        }\n    }\n}\n",
  "sourcePath": "/Users/kstasi/Documents/side/debridge-contracts/contracts/chainlink/LightAggregator.sol",
  "compiler": {
    "name": "solc",
    "version": "0.8.2+commit.661d1103.Emscripten.clang"
  },
  "schemaVersion": "3.3.4",
  "updatedAt": "2021-06-14T05:33:43.624Z",
  "networkType": "ethereum",
  "devdoc": {
    "kind": "dev",
    "methods": {
      "addOracle(address,address)": {
        "details": "Add new oracle.",
        "params": {
          "_admin": "Admin address.",
          "_oracle": "Oracle address."
        }
      },
      "constructor": {
        "details": "Constructor that initializes the most important configurations.",
        "params": {
          "_bonusPayment": "Oracle reward.",
          "_bonusToken": "DBR token to pay to oracles.",
          "_corePayment": "Oracle reward.",
          "_coreToken": "Link token to pay to oracles.",
          "_minConfirmations": "Common confirmations count."
        }
      },
      "getRoleAdmin(bytes32)": {
        "details": "Returns the admin role that controls `role`. See {grantRole} and {revokeRole}. To change a role's admin, use {_setRoleAdmin}."
      },
      "getSubmissionConfirmations(bytes32)": {
        "details": "Returns whether transfer request is confirmed.",
        "params": {
          "_submissionId": "Submission identifier."
        },
        "returns": {
          "_confirmations": "number of confirmation.",
          "_confirmed": "Whether transfer request is confirmed."
        }
      },
      "getSubmissionSignatures(bytes32)": {
        "details": "Returns whether transfer request is confirmed.",
        "params": {
          "_submissionId": "Submission identifier."
        },
        "returns": {
          "_0": "Oracles signatures."
        }
      },
      "getUnsignedMsg(bytes32)": {
        "details": "Prepares raw msg that was signed by the oracle.",
        "params": {
          "_submissionId": "Submission identifier."
        }
      },
      "getWithdrawable(address,address)": {
        "details": "Return's oracle reward.",
        "params": {
          "_oracle": "Oracle address."
        },
        "returns": {
          "_0": "Oracle rewards."
        }
      },
      "grantRole(bytes32,address)": {
        "details": "Grants `role` to `account`. If `account` had not been already granted `role`, emits a {RoleGranted} event. Requirements: - the caller must have ``role``'s admin role."
      },
      "hasRole(bytes32,address)": {
        "details": "Returns `true` if `account` has been granted `role`."
      },
      "onTokenTransfer(address,uint256,bytes)": {
        "details": "Updates link balance.",
        "params": {
          "_data": "Call data."
        }
      },
      "removeOracle(address)": {
        "details": "Remove oracle.",
        "params": {
          "_oracle": "Oracle address."
        }
      },
      "renounceRole(bytes32,address)": {
        "details": "Revokes `role` from the calling account. Roles are often managed via {grantRole} and {revokeRole}: this function's purpose is to provide a mechanism for accounts to lose their privileges if they are compromised (such as when a trusted device is misplaced). If the calling account had been granted `role`, emits a {RoleRevoked} event. Requirements: - the caller must be `account`."
      },
      "revokeRole(bytes32,address)": {
        "details": "Revokes `role` from `account`. If `account` had been granted `role`, emits a {RoleRevoked} event. Requirements: - the caller must have ``role``'s admin role."
      },
      "setMinConfirmations(uint256)": {
        "details": "Sets minimal required confirmations.",
        "params": {
          "_minConfirmations": "Confirmation info."
        }
      },
      "setPayment(uint256,uint256)": {
        "details": "Sets new oracle reward.",
        "params": {
          "_bonusPayment": "Oracle reward.",
          "_corePayment": "Oracle reward."
        }
      },
      "splitSignature(bytes)": {
        "details": "Splits signature bytes to r,s,v components.",
        "params": {
          "_signature": "Signature bytes in format r+s+v."
        }
      },
      "submit(bytes32,bytes)": {
        "details": "Confirms the transfer request.",
        "params": {
          "_signature": "Oracle's signature.",
          "_submissionId": "Submission identifier."
        }
      },
      "submitMany(bytes32[],bytes[])": {
        "details": "Confirms few transfer requests.",
        "params": {
          "_signatures": "Oracles signature.",
          "_submissionIds": "Submission identifiers."
        }
      },
      "supportsInterface(bytes4)": {
        "details": "See {IERC165-supportsInterface}."
      },
      "updateAvailableFunds(address)": {
        "details": "Updates available rewards to be distributed."
      },
      "updateOracleAdmin(address,address)": {
        "details": "Updates oracle's admin address.",
        "params": {
          "_newOracleAdmin": "New oracle address.",
          "_oracle": "Oracle address."
        }
      },
      "withdrawFunds(address,address,uint256)": {
        "details": "Withdraws earned LINK's.",
        "params": {
          "_amount": "Amount to withdraw.",
          "_recipient": "Reward's recepient."
        }
      },
      "withdrawPayment(address,address,address,uint256)": {
        "details": "Withdraws oracle reward.",
        "params": {
          "_amount": "Amount to withdraw.",
          "_oracle": "Oracle address.",
          "_recipient": "Recepient reward."
        }
      }
    },
    "version": 1
  },
  "userdoc": {
    "kind": "user",
    "methods": {},
    "version": 1
  }
}