{
  "contractName": "MockPriceConsumer",
  "abi": [
    {
      "anonymous": false,
      "inputs": [
        {
          "indexed": true,
          "internalType": "address",
          "name": "previousOwner",
          "type": "address"
        },
        {
          "indexed": true,
          "internalType": "address",
          "name": "newOwner",
          "type": "address"
        }
      ],
      "name": "OwnershipTransferred",
      "type": "event"
    },
    {
      "inputs": [],
      "name": "owner",
      "outputs": [
        {
          "internalType": "address",
          "name": "",
          "type": "address"
        }
      ],
      "stateMutability": "view",
      "type": "function"
    },
    {
      "inputs": [],
      "name": "renounceOwnership",
      "outputs": [],
      "stateMutability": "nonpayable",
      "type": "function"
    },
    {
      "inputs": [
        {
          "internalType": "address",
          "name": "newOwner",
          "type": "address"
        }
      ],
      "name": "transferOwnership",
      "outputs": [],
      "stateMutability": "nonpayable",
      "type": "function"
    },
    {
      "inputs": [
        {
          "internalType": "address",
          "name": "_token",
          "type": "address"
        }
      ],
      "name": "getPriceOfToken",
      "outputs": [
        {
          "internalType": "uint256",
          "name": "",
          "type": "uint256"
        }
      ],
      "stateMutability": "view",
      "type": "function"
    },
    {
      "inputs": [
        {
          "internalType": "address",
          "name": "_token",
          "type": "address"
        },
        {
          "internalType": "uint256",
          "name": "_price",
          "type": "uint256"
        }
      ],
      "name": "addPriceFeed",
      "outputs": [],
      "stateMutability": "nonpayable",
      "type": "function"
    }
  ],
  "bytecode": "0x608060405234801561001057600080fd5b50600080546001600160a01b031916339081178255604051909182917f8be0079c531659141344cd1fd0a4f28419497f9722a3daafe3b4186f6b6457e0908290a350610365806100616000396000f3fe608060405234801561001057600080fd5b50600436106100575760003560e01c8063715018a61461005c5780638da5cb5b146100665780638da8447814610086578063e3b6457c146100a7578063f2fde38b146100ba575b600080fd5b6100646100cd565b005b6000546040516001600160a01b0390911681526020015b60405180910390f35b6100996100943660046102b0565b61014a565b60405190815260200161007d565b6100646100b53660046102d1565b610169565b6100646100c83660046102b0565b6101af565b6000546001600160a01b031633146101005760405162461bcd60e51b81526004016100f7906102fa565b60405180910390fd5b600080546040516001600160a01b03909116907f8be0079c531659141344cd1fd0a4f28419497f9722a3daafe3b4186f6b6457e0908390a3600080546001600160a01b0319169055565b6001600160a01b0381166000908152600160205260409020545b919050565b6000546001600160a01b031633146101935760405162461bcd60e51b81526004016100f7906102fa565b6001600160a01b03909116600090815260016020526040902055565b6000546001600160a01b031633146101d95760405162461bcd60e51b81526004016100f7906102fa565b6001600160a01b03811661023e5760405162461bcd60e51b815260206004820152602660248201527f4f776e61626c653a206e6577206f776e657220697320746865207a65726f206160448201526564647265737360d01b60648201526084016100f7565b600080546040516001600160a01b03808516939216917f8be0079c531659141344cd1fd0a4f28419497f9722a3daafe3b4186f6b6457e091a3600080546001600160a01b0319166001600160a01b0392909216919091179055565b80356001600160a01b038116811461016457600080fd5b6000602082840312156102c1578081fd5b6102ca82610299565b9392505050565b600080604083850312156102e3578081fd5b6102ec83610299565b946020939093013593505050565b6020808252818101527f4f776e61626c653a2063616c6c6572206973206e6f7420746865206f776e657260408201526060019056fea2646970667358221220053eb931d5b32e51557caed0bb6dced8853b35b3004bc43e7e9f545215e5299f64736f6c63430008020033",
  "immutableReferences": {},
  "source": "// SPDX-License-Identifier: MIT\r\npragma solidity ^0.8.2;\r\n\r\nimport \"../interfaces/IPriceConsumer.sol\";\r\nimport \"@openzeppelin/contracts/access/Ownable.sol\";\r\n\r\ncontract MockPriceConsumer is IPriceConsumer, Ownable {\r\n    mapping(address => uint256) priceFeeds;\r\n\r\n    /**\r\n     * @dev get Price of Token\r\n     * @param _token address of token\r\n     */\r\n    function getPriceOfToken(address _token) external override view returns(uint256){\r\n        return priceFeeds[_token];\r\n    }\r\n\r\n    /**\r\n     * @dev set Price feed\r\n     * @param _token address of token\r\n     * @param _price constant price of token\r\n     */\r\n    function addPriceFeed(address _token, uint256 _price) external onlyOwner(){\r\n        priceFeeds[_token] = _price;\r\n    }\r\n}",
  "sourcePath": "D:/Ethereum/Debridge/debridge-contracts-v1/contracts/mock/MockPriceConsumer.sol",
  "compiler": {
    "name": "solc",
    "version": "0.8.2+commit.661d1103.Emscripten.clang"
  },
  "schemaVersion": "3.3.4",
  "updatedAt": "2021-06-22T03:20:28.164Z",
  "devdoc": {
    "kind": "dev",
    "methods": {
      "addPriceFeed(address,uint256)": {
        "details": "set Price feed",
        "params": {
          "_price": "constant price of token",
          "_token": "address of token"
        }
      },
      "getPriceOfToken(address)": {
        "details": "get Price of Token",
        "params": {
          "_token": "address of token"
        }
      },
      "owner()": {
        "details": "Returns the address of the current owner."
      },
      "renounceOwnership()": {
        "details": "Leaves the contract without owner. It will not be possible to call `onlyOwner` functions anymore. Can only be called by the current owner. NOTE: Renouncing ownership will leave the contract without an owner, thereby removing any functionality that is only available to the owner."
      },
      "transferOwnership(address)": {
        "details": "Transfers ownership of the contract to a new account (`newOwner`). Can only be called by the current owner."
      }
    },
    "version": 1
  },
  "userdoc": {
    "kind": "user",
    "methods": {},
    "version": 1
  }
}