{
  "contractName": "MockLinkToken",
  "abi": [
    {
      "inputs": [
        {
          "internalType": "string",
          "name": "_name",
          "type": "string"
        },
        {
          "internalType": "string",
          "name": "_symbol",
          "type": "string"
        },
        {
          "internalType": "uint8",
          "name": "_decimal",
          "type": "uint8"
        }
      ],
      "stateMutability": "nonpayable",
      "type": "constructor"
    },
    {
      "anonymous": false,
      "inputs": [
        {
          "indexed": true,
          "internalType": "address",
          "name": "owner",
          "type": "address"
        },
        {
          "indexed": true,
          "internalType": "address",
          "name": "spender",
          "type": "address"
        },
        {
          "indexed": false,
          "internalType": "uint256",
          "name": "value",
          "type": "uint256"
        }
      ],
      "name": "Approval",
      "type": "event"
    },
    {
      "anonymous": false,
      "inputs": [
        {
          "indexed": true,
          "internalType": "address",
          "name": "from",
          "type": "address"
        },
        {
          "indexed": true,
          "internalType": "address",
          "name": "to",
          "type": "address"
        },
        {
          "indexed": false,
          "internalType": "uint256",
          "name": "value",
          "type": "uint256"
        }
      ],
      "name": "Transfer",
      "type": "event"
    },
    {
      "inputs": [
        {
          "internalType": "address",
          "name": "owner",
          "type": "address"
        },
        {
          "internalType": "address",
          "name": "spender",
          "type": "address"
        }
      ],
      "name": "allowance",
      "outputs": [
        {
          "internalType": "uint256",
          "name": "",
          "type": "uint256"
        }
      ],
      "stateMutability": "view",
      "type": "function"
    },
    {
      "inputs": [
        {
          "internalType": "address",
          "name": "spender",
          "type": "address"
        },
        {
          "internalType": "uint256",
          "name": "amount",
          "type": "uint256"
        }
      ],
      "name": "approve",
      "outputs": [
        {
          "internalType": "bool",
          "name": "",
          "type": "bool"
        }
      ],
      "stateMutability": "nonpayable",
      "type": "function"
    },
    {
      "inputs": [
        {
          "internalType": "address",
          "name": "account",
          "type": "address"
        }
      ],
      "name": "balanceOf",
      "outputs": [
        {
          "internalType": "uint256",
          "name": "",
          "type": "uint256"
        }
      ],
      "stateMutability": "view",
      "type": "function"
    },
    {
      "inputs": [
        {
          "internalType": "address",
          "name": "spender",
          "type": "address"
        },
        {
          "internalType": "uint256",
          "name": "subtractedValue",
          "type": "uint256"
        }
      ],
      "name": "decreaseAllowance",
      "outputs": [
        {
          "internalType": "bool",
          "name": "",
          "type": "bool"
        }
      ],
      "stateMutability": "nonpayable",
      "type": "function"
    },
    {
      "inputs": [
        {
          "internalType": "address",
          "name": "spender",
          "type": "address"
        },
        {
          "internalType": "uint256",
          "name": "addedValue",
          "type": "uint256"
        }
      ],
      "name": "increaseAllowance",
      "outputs": [
        {
          "internalType": "bool",
          "name": "",
          "type": "bool"
        }
      ],
      "stateMutability": "nonpayable",
      "type": "function"
    },
    {
      "inputs": [],
      "name": "name",
      "outputs": [
        {
          "internalType": "string",
          "name": "",
          "type": "string"
        }
      ],
      "stateMutability": "view",
      "type": "function"
    },
    {
      "inputs": [],
      "name": "symbol",
      "outputs": [
        {
          "internalType": "string",
          "name": "",
          "type": "string"
        }
      ],
      "stateMutability": "view",
      "type": "function"
    },
    {
      "inputs": [],
      "name": "totalSupply",
      "outputs": [
        {
          "internalType": "uint256",
          "name": "",
          "type": "uint256"
        }
      ],
      "stateMutability": "view",
      "type": "function"
    },
    {
      "inputs": [
        {
          "internalType": "address",
          "name": "recipient",
          "type": "address"
        },
        {
          "internalType": "uint256",
          "name": "amount",
          "type": "uint256"
        }
      ],
      "name": "transfer",
      "outputs": [
        {
          "internalType": "bool",
          "name": "",
          "type": "bool"
        }
      ],
      "stateMutability": "nonpayable",
      "type": "function"
    },
    {
      "inputs": [
        {
          "internalType": "address",
          "name": "sender",
          "type": "address"
        },
        {
          "internalType": "address",
          "name": "recipient",
          "type": "address"
        },
        {
          "internalType": "uint256",
          "name": "amount",
          "type": "uint256"
        }
      ],
      "name": "transferFrom",
      "outputs": [
        {
          "internalType": "bool",
          "name": "",
          "type": "bool"
        }
      ],
      "stateMutability": "nonpayable",
      "type": "function"
    },
    {
      "inputs": [
        {
          "internalType": "address",
          "name": "_receiver",
          "type": "address"
        },
        {
          "internalType": "uint256",
          "name": "_amount",
          "type": "uint256"
        }
      ],
      "name": "mint",
      "outputs": [],
      "stateMutability": "nonpayable",
      "type": "function"
    },
    {
      "inputs": [
        {
          "internalType": "uint256",
          "name": "_amount",
          "type": "uint256"
        }
      ],
      "name": "burn",
      "outputs": [],
      "stateMutability": "nonpayable",
      "type": "function"
    },
    {
      "inputs": [],
      "name": "decimals",
      "outputs": [
        {
          "internalType": "uint8",
          "name": "",
          "type": "uint8"
        }
      ],
      "stateMutability": "view",
      "type": "function"
    },
    {
      "inputs": [
        {
          "internalType": "address",
          "name": "_to",
          "type": "address"
        },
        {
          "internalType": "uint256",
          "name": "_value",
          "type": "uint256"
        },
        {
          "internalType": "bytes",
          "name": "_data",
          "type": "bytes"
        }
      ],
      "name": "transferAndCall",
      "outputs": [
        {
          "internalType": "bool",
          "name": "success",
          "type": "bool"
        }
      ],
      "stateMutability": "nonpayable",
      "type": "function"
    }
  ],
  "bytecode": "0x60806040523480156200001157600080fd5b506040516200104b3803806200104b8339810160408190526200003491620001dd565b8251839083906200004d90600390602085019062000084565b5080516200006390600490602084019062000084565b50506005805460ff191660ff939093169290921790915550620002b1915050565b82805462000092906200025e565b90600052602060002090601f016020900481019282620000b6576000855562000101565b82601f10620000d157805160ff191683800117855562000101565b8280016001018555821562000101579182015b8281111562000101578251825591602001919060010190620000e4565b506200010f92915062000113565b5090565b5b808211156200010f576000815560010162000114565b600082601f8301126200013b578081fd5b81516001600160401b03808211156200015857620001586200029b565b604051601f8301601f19908116603f011681019082821181831017156200018357620001836200029b565b816040528381526020925086838588010111156200019f578485fd5b8491505b83821015620001c25785820183015181830184015290820190620001a3565b83821115620001d357848385830101525b9695505050505050565b600080600060608486031215620001f2578283fd5b83516001600160401b038082111562000209578485fd5b62000217878388016200012a565b945060208601519150808211156200022d578384fd5b506200023c868287016200012a565b925050604084015160ff8116811462000253578182fd5b809150509250925092565b6002810460018216806200027357607f821691505b602082108114156200029557634e487b7160e01b600052602260045260246000fd5b50919050565b634e487b7160e01b600052604160045260246000fd5b610d8a80620002c16000396000f3fe608060405234801561001057600080fd5b50600436106100ea5760003560e01c806340c10f191161008c57806395d89b411161006657806395d89b41146101cb578063a457c2d7146101d3578063a9059cbb146101e6578063dd62ed3e146101f9576100ea565b806340c10f191461019057806342966c68146101a557806370a08231146101b8576100ea565b806323b872dd116100c857806323b872dd14610142578063313ce56714610155578063395093511461016a5780634000aea01461017d576100ea565b806306fdde03146100ef578063095ea7b31461010d57806318160ddd14610130575b600080fd5b6100f7610232565b6040516101049190610c8b565b60405180910390f35b61012061011b366004610b09565b6102c4565b6040519015158152602001610104565b6002545b604051908152602001610104565b610120610150366004610ace565b6102da565b60055460405160ff9091168152602001610104565b610120610178366004610b09565b610390565b61012061018b366004610b32565b6103c7565b6101a361019e366004610b09565b61041e565b005b6101a36101b3366004610bf8565b61042c565b6101346101c6366004610a7b565b610439565b6100f7610458565b6101206101e1366004610b09565b610467565b6101206101f4366004610b09565b6104f8565b610134610207366004610a9c565b6001600160a01b03918216600090815260016020908152604080832093909416825291909152205490565b60606003805461024190610ccd565b80601f016020809104026020016040519081016040528092919081815260200182805461026d90610ccd565b80156102ba5780601f1061028f576101008083540402835291602001916102ba565b820191906000526020600020905b81548152906001019060200180831161029d57829003601f168201915b5050505050905090565b60006102d1338484610505565b50600192915050565b60006102e784848461062a565b6001600160a01b0384166000908152600160209081526040808320338452909152902054828110156103715760405162461bcd60e51b815260206004820152602860248201527f45524332303a207472616e7366657220616d6f756e74206578636565647320616044820152676c6c6f77616e636560c01b60648201526084015b60405180910390fd5b61038585336103808685610cb6565b610505565b506001949350505050565b3360008181526001602090815260408083206001600160a01b038716845290915281205490916102d1918590610380908690610c9e565b60006103d384846104f8565b506040518381526001600160a01b038516903390600080516020610d358339815191529060200160405180910390a3833b15610414576104148484846107f0565b5060019392505050565b610428828261085a565b5050565b6104363382610927565b50565b6001600160a01b0381166000908152602081905260409020545b919050565b60606004805461024190610ccd565b3360009081526001602090815260408083206001600160a01b0386168452909152812054828110156104e95760405162461bcd60e51b815260206004820152602560248201527f45524332303a2064656372656173656420616c6c6f77616e63652062656c6f77604482015264207a65726f60d81b6064820152608401610368565b61041433856103808685610cb6565b60006102d133848461062a565b6001600160a01b0383166105675760405162461bcd60e51b8152602060048201526024808201527f45524332303a20617070726f76652066726f6d20746865207a65726f206164646044820152637265737360e01b6064820152608401610368565b6001600160a01b0382166105c85760405162461bcd60e51b815260206004820152602260248201527f45524332303a20617070726f766520746f20746865207a65726f206164647265604482015261737360f01b6064820152608401610368565b6001600160a01b0383811660008181526001602090815260408083209487168084529482529182902085905590518481527f8c5be1e5ebec7d5bd14f71427d1e84f3dd0314c0f7b2291e5b200ac8c7c3b92591015b60405180910390a3505050565b6001600160a01b03831661068e5760405162461bcd60e51b815260206004820152602560248201527f45524332303a207472616e736665722066726f6d20746865207a65726f206164604482015264647265737360d81b6064820152608401610368565b6001600160a01b0382166106f05760405162461bcd60e51b815260206004820152602360248201527f45524332303a207472616e7366657220746f20746865207a65726f206164647260448201526265737360e81b6064820152608401610368565b6001600160a01b038316600090815260208190526040902054818110156107685760405162461bcd60e51b815260206004820152602660248201527f45524332303a207472616e7366657220616d6f756e7420657863656564732062604482015265616c616e636560d01b6064820152608401610368565b6107728282610cb6565b6001600160a01b0380861660009081526020819052604080822093909355908516815290812080548492906107a8908490610c9e565b92505081905550826001600160a01b0316846001600160a01b0316600080516020610d35833981519152846040516107e291815260200190565b60405180910390a350505050565b604051635260769b60e11b815283906001600160a01b0382169063a4c0ed369061082290339087908790600401610c5b565b600060405180830381600087803b15801561083c57600080fd5b505af1158015610850573d6000803e3d6000fd5b5050505050505050565b6001600160a01b0382166108b05760405162461bcd60e51b815260206004820152601f60248201527f45524332303a206d696e7420746f20746865207a65726f2061646472657373006044820152606401610368565b80600260008282546108c29190610c9e565b90915550506001600160a01b038216600090815260208190526040812080548392906108ef908490610c9e565b90915550506040518181526001600160a01b03831690600090600080516020610d358339815191529060200160405180910390a35050565b6001600160a01b0382166109875760405162461bcd60e51b815260206004820152602160248201527f45524332303a206275726e2066726f6d20746865207a65726f206164647265736044820152607360f81b6064820152608401610368565b6001600160a01b038216600090815260208190526040902054818110156109fb5760405162461bcd60e51b815260206004820152602260248201527f45524332303a206275726e20616d6f756e7420657863656564732062616c616e604482015261636560f01b6064820152608401610368565b610a058282610cb6565b6001600160a01b03841660009081526020819052604081209190915560028054849290610a33908490610cb6565b90915550506040518281526000906001600160a01b03851690600080516020610d358339815191529060200161061d565b80356001600160a01b038116811461045357600080fd5b600060208284031215610a8c578081fd5b610a9582610a64565b9392505050565b60008060408385031215610aae578081fd5b610ab783610a64565b9150610ac560208401610a64565b90509250929050565b600080600060608486031215610ae2578081fd5b610aeb84610a64565b9250610af960208501610a64565b9150604084013590509250925092565b60008060408385031215610b1b578182fd5b610b2483610a64565b946020939093013593505050565b600080600060608486031215610b46578283fd5b610b4f84610a64565b925060208401359150604084013567ffffffffffffffff80821115610b72578283fd5b818601915086601f830112610b85578283fd5b813581811115610b9757610b97610d1e565b604051601f8201601f19908116603f01168101908382118183101715610bbf57610bbf610d1e565b81604052828152896020848701011115610bd7578586fd5b82602086016020830137856020848301015280955050505050509250925092565b600060208284031215610c09578081fd5b5035919050565b60008151808452815b81811015610c3557602081850181015186830182015201610c19565b81811115610c465782602083870101525b50601f01601f19169290920160200192915050565b600060018060a01b038516825283602083015260606040830152610c826060830184610c10565b95945050505050565b600060208252610a956020830184610c10565b60008219821115610cb157610cb1610d08565b500190565b600082821015610cc857610cc8610d08565b500390565b600281046001821680610ce157607f821691505b60208210811415610d0257634e487b7160e01b600052602260045260246000fd5b50919050565b634e487b7160e01b600052601160045260246000fd5b634e487b7160e01b600052604160045260246000fdfeddf252ad1be2c89b69c2b068fc378daa952ba7f163c4a11628f55a4df523b3efa2646970667358221220ac586a1f4761268390223f1a80736e7df6b1aefbfe68fc9afb94b277d551aeb264736f6c63430008020033",
  "immutableReferences": {},
  "source": "// SPDX-License-Identifier: MIT\npragma solidity ^0.8.2;\n\nimport \"@openzeppelin/contracts/token/ERC20/ERC20.sol\";\nimport \"@openzeppelin/contracts/token/ERC20/IERC20.sol\";\nimport \"@openzeppelin/contracts/access/AccessControl.sol\";\nimport \"../interfaces/IERC677Receiver.sol\";\n\ncontract MockLinkToken is ERC20 {\n    uint8 private _decimals;\n\n    constructor(\n        string memory _name,\n        string memory _symbol,\n        uint8 _decimal\n    ) ERC20(_name, _symbol) {\n        _decimals = _decimal;\n    }\n\n    function mint(address _receiver, uint256 _amount) external {\n        _mint(_receiver, _amount);\n    }\n\n    function burn(uint256 _amount) external {\n        _burn(msg.sender, _amount);\n    }\n\n    function decimals() public view override returns (uint8) {\n        return _decimals;\n    }\n\n    function transferAndCall(\n        address _to,\n        uint256 _value,\n        bytes memory _data\n    ) public returns (bool success) {\n        super.transfer(_to, _value);\n        emit Transfer(msg.sender, _to, _value);\n        if (isContract(_to)) {\n            contractFallback(_to, _value, _data);\n        }\n        return true;\n    }\n\n    function contractFallback(\n        address _to,\n        uint256 _value,\n        bytes memory _data\n    ) private {\n        IERC677Receiver receiver = IERC677Receiver(_to);\n        receiver.onTokenTransfer(msg.sender, _value, _data);\n    }\n\n    function isContract(address _addr) private view returns (bool hasCode) {\n        uint256 length;\n        assembly {\n            length := extcodesize(_addr)\n        }\n        return length > 0;\n    }\n}\n",
  "sourcePath": "/Users/kstasi/Documents/side/debridge-contracts/contracts/mock/MockLinkToken.sol",
  "compiler": {
    "name": "solc",
    "version": "0.8.2+commit.661d1103.Emscripten.clang"
  },
  "schemaVersion": "3.3.4",
  "updatedAt": "2021-05-15T03:53:18.756Z",
  "devdoc": {
    "kind": "dev",
    "methods": {
      "allowance(address,address)": {
        "details": "See {IERC20-allowance}."
      },
      "approve(address,uint256)": {
        "details": "See {IERC20-approve}. Requirements: - `spender` cannot be the zero address."
      },
      "balanceOf(address)": {
        "details": "See {IERC20-balanceOf}."
      },
      "decimals()": {
        "details": "Returns the number of decimals used to get its user representation. For example, if `decimals` equals `2`, a balance of `505` tokens should be displayed to a user as `5,05` (`505 / 10 ** 2`). Tokens usually opt for a value of 18, imitating the relationship between Ether and Wei. This is the value {ERC20} uses, unless this function is overloaded; NOTE: This information is only used for _display_ purposes: it in no way affects any of the arithmetic of the contract, including {IERC20-balanceOf} and {IERC20-transfer}."
      },
      "decreaseAllowance(address,uint256)": {
        "details": "Atomically decreases the allowance granted to `spender` by the caller. This is an alternative to {approve} that can be used as a mitigation for problems described in {IERC20-approve}. Emits an {Approval} event indicating the updated allowance. Requirements: - `spender` cannot be the zero address. - `spender` must have allowance for the caller of at least `subtractedValue`."
      },
      "increaseAllowance(address,uint256)": {
        "details": "Atomically increases the allowance granted to `spender` by the caller. This is an alternative to {approve} that can be used as a mitigation for problems described in {IERC20-approve}. Emits an {Approval} event indicating the updated allowance. Requirements: - `spender` cannot be the zero address."
      },
      "name()": {
        "details": "Returns the name of the token."
      },
      "symbol()": {
        "details": "Returns the symbol of the token, usually a shorter version of the name."
      },
      "totalSupply()": {
        "details": "See {IERC20-totalSupply}."
      },
      "transfer(address,uint256)": {
        "details": "See {IERC20-transfer}. Requirements: - `recipient` cannot be the zero address. - the caller must have a balance of at least `amount`."
      },
      "transferFrom(address,address,uint256)": {
        "details": "See {IERC20-transferFrom}. Emits an {Approval} event indicating the updated allowance. This is not required by the EIP. See the note at the beginning of {ERC20}. Requirements: - `sender` and `recipient` cannot be the zero address. - `sender` must have a balance of at least `amount`. - the caller must have allowance for ``sender``'s tokens of at least `amount`."
      }
    },
    "version": 1
  },
  "userdoc": {
    "kind": "user",
    "methods": {},
    "version": 1
  }
}