{
  "contractName": "MockStrategy",
  "abi": [
    {
      "inputs": [
        {
          "internalType": "address",
          "name": "_token",
          "type": "address"
        },
        {
          "internalType": "uint256",
          "name": "_amount",
          "type": "uint256"
        }
      ],
      "name": "deposit",
      "outputs": [],
      "stateMutability": "nonpayable",
      "type": "function"
    },
    {
      "inputs": [
        {
          "internalType": "address",
          "name": "_token",
          "type": "address"
        },
        {
          "internalType": "uint256",
          "name": "_amount",
          "type": "uint256"
        }
      ],
      "name": "withdraw",
      "outputs": [],
      "stateMutability": "nonpayable",
      "type": "function"
    }
  ],
  "bytecode": "0x6080604052348015600f57600080fd5b5060b28061001e6000396000f3fe6080604052348015600f57600080fd5b506004361060325760003560e01c806347e7ef24146037578063f3fef3a3146037575b600080fd5b604660423660046048565b5050565b005b600080604083850312156059578182fd5b82356001600160a01b0381168114606e578283fd5b94602093909301359350505056fea26469706673582212209e385e85c2146f64eeaa1ea42d87a0dbcde25cefc40f95e3541a6ba2ed035d2664736f6c63430008020033",
  "immutableReferences": {},
  "source": "// SPDX-License-Identifier: MIT\r\npragma solidity ^0.8.2;\r\n\r\nimport \"../interfaces/IStrategy.sol\";\r\n\r\ncontract MockStrategy is IStrategy{\r\n    function deposit(address _token, uint256 _amount) external override {\r\n        \r\n    }\r\n\r\n    function withdraw(address _token, uint256 _amount) external override {\r\n        \r\n    }\r\n}",
  "sourcePath": "D:/Ethereum/Debridge/debridge-contracts-v1/contracts/mock/MockStrategy.sol",
  "compiler": {
    "name": "solc",
    "version": "0.8.2+commit.661d1103.Emscripten.clang"
  },
  "schemaVersion": "3.3.4",
  "updatedAt": "2021-06-15T14:59:25.473Z",
  "devdoc": {
    "kind": "dev",
    "methods": {},
    "version": 1
  },
  "userdoc": {
    "kind": "user",
    "methods": {},
    "version": 1
  }
}