{
  "contractName": "MockStrategy",
  "abi": [
    {
      "inputs": [
        {
          "internalType": "address",
          "name": "_token",
          "type": "address"
        },
        {
          "internalType": "uint256",
          "name": "_amount",
          "type": "uint256"
        }
      ],
      "name": "deposit",
      "outputs": [],
      "stateMutability": "nonpayable",
      "type": "function"
    },
    {
      "inputs": [
        {
          "internalType": "address",
          "name": "_token",
          "type": "address"
        },
        {
          "internalType": "uint256",
          "name": "_amount",
          "type": "uint256"
        }
      ],
      "name": "withdraw",
      "outputs": [],
      "stateMutability": "nonpayable",
      "type": "function"
    },
    {
      "inputs": [
        {
          "internalType": "address",
          "name": "token",
          "type": "address"
        }
      ],
      "name": "withdrawAll",
      "outputs": [],
      "stateMutability": "nonpayable",
      "type": "function"
    },
    {
      "inputs": [
        {
          "internalType": "address",
          "name": "account",
          "type": "address"
        },
        {
          "internalType": "address",
          "name": "token",
          "type": "address"
        }
      ],
      "name": "updateReserves",
      "outputs": [
        {
          "internalType": "uint256",
          "name": "",
          "type": "uint256"
        }
      ],
      "stateMutability": "view",
      "type": "function"
    }
  ],
  "bytecode": "0x608060405234801561001057600080fd5b5061016c806100206000396000f3fe608060405234801561001057600080fd5b506004361061004c5760003560e01c806347e7ef2414610051578063913fd1b514610065578063f3fef3a314610051578063fa09e6301461008d575b600080fd5b61006361005f36600461010d565b5050565b005b61007b6100733660046100db565b600092915050565b60405190815260200160405180910390f35b61006361009b3660046100ba565b50565b80356001600160a01b03811681146100b557600080fd5b919050565b6000602082840312156100cb578081fd5b6100d48261009e565b9392505050565b600080604083850312156100ed578081fd5b6100f68361009e565b91506101046020840161009e565b90509250929050565b6000806040838503121561011f578182fd5b6101288361009e565b94602093909301359350505056fea2646970667358221220e2e0fd356331b23803af0c7cbc504f76a1fbfd202e4b370fd8dd1ca57c77083364736f6c63430008020033",
  "immutableReferences": {},
  "source": "// SPDX-License-Identifier: MIT\r\npragma solidity ^0.8.2;\r\n\r\nimport \"../interfaces/IStrategy.sol\";\r\n\r\ncontract MockStrategy is IStrategy {\r\n    function deposit(address _token, uint256 _amount) external override {\r\n        \r\n    }\r\n\r\n    function withdraw(address _token, uint256 _amount) external override {\r\n        \r\n    }\r\n\r\n    function withdrawAll(address token) external override {\r\n\r\n    }\r\n\r\n    function updateReserves(address account, address token) \r\n        external \r\n        view \r\n        override \r\n        returns(uint256) \r\n    {\r\n\r\n    }\r\n}",
  "sourcePath": "D:/Projects/Debridge/debridge-contracts-v1/contracts/mock/MockStrategy.sol",
  "compiler": {
    "name": "solc",
    "version": "0.8.2+commit.661d1103.Emscripten.clang"
  },
  "schemaVersion": "3.3.4",
  "updatedAt": "2021-07-18T21:07:26.108Z",
  "devdoc": {
    "kind": "dev",
    "methods": {},
    "version": 1
  },
  "userdoc": {
    "kind": "user",
    "methods": {},
    "version": 1
  }
}