{
  "contractName": "MockNFTToken",
  "abi": [
    {
      "inputs": [
        {
          "internalType": "string",
          "name": "_name",
          "type": "string"
        },
        {
          "internalType": "string",
          "name": "_symbol",
          "type": "string"
        }
      ],
      "stateMutability": "nonpayable",
      "type": "constructor"
    },
    {
      "anonymous": false,
      "inputs": [
        {
          "indexed": true,
          "internalType": "address",
          "name": "owner",
          "type": "address"
        },
        {
          "indexed": true,
          "internalType": "address",
          "name": "approved",
          "type": "address"
        },
        {
          "indexed": true,
          "internalType": "uint256",
          "name": "tokenId",
          "type": "uint256"
        }
      ],
      "name": "Approval",
      "type": "event"
    },
    {
      "anonymous": false,
      "inputs": [
        {
          "indexed": true,
          "internalType": "address",
          "name": "owner",
          "type": "address"
        },
        {
          "indexed": true,
          "internalType": "address",
          "name": "operator",
          "type": "address"
        },
        {
          "indexed": false,
          "internalType": "bool",
          "name": "approved",
          "type": "bool"
        }
      ],
      "name": "ApprovalForAll",
      "type": "event"
    },
    {
      "anonymous": false,
      "inputs": [
        {
          "indexed": true,
          "internalType": "address",
          "name": "from",
          "type": "address"
        },
        {
          "indexed": true,
          "internalType": "address",
          "name": "to",
          "type": "address"
        },
        {
          "indexed": true,
          "internalType": "uint256",
          "name": "tokenId",
          "type": "uint256"
        }
      ],
      "name": "Transfer",
      "type": "event"
    },
    {
      "inputs": [
        {
          "internalType": "address",
          "name": "to",
          "type": "address"
        },
        {
          "internalType": "uint256",
          "name": "tokenId",
          "type": "uint256"
        }
      ],
      "name": "approve",
      "outputs": [],
      "stateMutability": "nonpayable",
      "type": "function"
    },
    {
      "inputs": [
        {
          "internalType": "address",
          "name": "owner",
          "type": "address"
        }
      ],
      "name": "balanceOf",
      "outputs": [
        {
          "internalType": "uint256",
          "name": "",
          "type": "uint256"
        }
      ],
      "stateMutability": "view",
      "type": "function"
    },
    {
      "inputs": [
        {
          "internalType": "uint256",
          "name": "tokenId",
          "type": "uint256"
        }
      ],
      "name": "getApproved",
      "outputs": [
        {
          "internalType": "address",
          "name": "",
          "type": "address"
        }
      ],
      "stateMutability": "view",
      "type": "function"
    },
    {
      "inputs": [
        {
          "internalType": "address",
          "name": "owner",
          "type": "address"
        },
        {
          "internalType": "address",
          "name": "operator",
          "type": "address"
        }
      ],
      "name": "isApprovedForAll",
      "outputs": [
        {
          "internalType": "bool",
          "name": "",
          "type": "bool"
        }
      ],
      "stateMutability": "view",
      "type": "function"
    },
    {
      "inputs": [],
      "name": "name",
      "outputs": [
        {
          "internalType": "string",
          "name": "",
          "type": "string"
        }
      ],
      "stateMutability": "view",
      "type": "function"
    },
    {
      "inputs": [
        {
          "internalType": "uint256",
          "name": "tokenId",
          "type": "uint256"
        }
      ],
      "name": "ownerOf",
      "outputs": [
        {
          "internalType": "address",
          "name": "",
          "type": "address"
        }
      ],
      "stateMutability": "view",
      "type": "function"
    },
    {
      "inputs": [
        {
          "internalType": "address",
          "name": "from",
          "type": "address"
        },
        {
          "internalType": "address",
          "name": "to",
          "type": "address"
        },
        {
          "internalType": "uint256",
          "name": "tokenId",
          "type": "uint256"
        }
      ],
      "name": "safeTransferFrom",
      "outputs": [],
      "stateMutability": "nonpayable",
      "type": "function"
    },
    {
      "inputs": [
        {
          "internalType": "address",
          "name": "from",
          "type": "address"
        },
        {
          "internalType": "address",
          "name": "to",
          "type": "address"
        },
        {
          "internalType": "uint256",
          "name": "tokenId",
          "type": "uint256"
        },
        {
          "internalType": "bytes",
          "name": "_data",
          "type": "bytes"
        }
      ],
      "name": "safeTransferFrom",
      "outputs": [],
      "stateMutability": "nonpayable",
      "type": "function"
    },
    {
      "inputs": [
        {
          "internalType": "address",
          "name": "operator",
          "type": "address"
        },
        {
          "internalType": "bool",
          "name": "approved",
          "type": "bool"
        }
      ],
      "name": "setApprovalForAll",
      "outputs": [],
      "stateMutability": "nonpayable",
      "type": "function"
    },
    {
      "inputs": [
        {
          "internalType": "bytes4",
          "name": "interfaceId",
          "type": "bytes4"
        }
      ],
      "name": "supportsInterface",
      "outputs": [
        {
          "internalType": "bool",
          "name": "",
          "type": "bool"
        }
      ],
      "stateMutability": "view",
      "type": "function"
    },
    {
      "inputs": [],
      "name": "symbol",
      "outputs": [
        {
          "internalType": "string",
          "name": "",
          "type": "string"
        }
      ],
      "stateMutability": "view",
      "type": "function"
    },
    {
      "inputs": [
        {
          "internalType": "uint256",
          "name": "tokenId",
          "type": "uint256"
        }
      ],
      "name": "tokenURI",
      "outputs": [
        {
          "internalType": "string",
          "name": "",
          "type": "string"
        }
      ],
      "stateMutability": "view",
      "type": "function"
    },
    {
      "inputs": [
        {
          "internalType": "address",
          "name": "from",
          "type": "address"
        },
        {
          "internalType": "address",
          "name": "to",
          "type": "address"
        },
        {
          "internalType": "uint256",
          "name": "tokenId",
          "type": "uint256"
        }
      ],
      "name": "transferFrom",
      "outputs": [],
      "stateMutability": "nonpayable",
      "type": "function"
    },
    {
      "inputs": [
        {
          "internalType": "address",
          "name": "_receiver",
          "type": "address"
        },
        {
          "internalType": "uint256",
          "name": "_tokenId",
          "type": "uint256"
        }
      ],
      "name": "mint",
      "outputs": [],
      "stateMutability": "nonpayable",
      "type": "function"
    },
    {
      "inputs": [
        {
          "internalType": "uint256",
          "name": "_tokenId",
          "type": "uint256"
        }
      ],
      "name": "burn",
      "outputs": [],
      "stateMutability": "nonpayable",
      "type": "function"
    }
  ],
  "bytecode": "0x60806040523480156200001157600080fd5b5060405162001718380380620017188339810160408190526200003491620001c7565b8151829082906200004d9060009060208501906200006e565b508051620000639060019060208401906200006e565b505050505062000281565b8280546200007c906200022e565b90600052602060002090601f016020900481019282620000a05760008555620000eb565b82601f10620000bb57805160ff1916838001178555620000eb565b82800160010185558215620000eb579182015b82811115620000eb578251825591602001919060010190620000ce565b50620000f9929150620000fd565b5090565b5b80821115620000f95760008155600101620000fe565b600082601f83011262000125578081fd5b81516001600160401b03808211156200014257620001426200026b565b604051601f8301601f19908116603f011681019082821181831017156200016d576200016d6200026b565b8160405283815260209250868385880101111562000189578485fd5b8491505b83821015620001ac57858201830151818301840152908201906200018d565b83821115620001bd57848385830101525b9695505050505050565b60008060408385031215620001da578182fd5b82516001600160401b0380821115620001f1578384fd5b620001ff8683870162000114565b9350602085015191508082111562000215578283fd5b50620002248582860162000114565b9150509250929050565b6002810460018216806200024357607f821691505b602082108114156200026557634e487b7160e01b600052602260045260246000fd5b50919050565b634e487b7160e01b600052604160045260246000fd5b61148780620002916000396000f3fe608060405234801561001057600080fd5b50600436106100f55760003560e01c806342966c6811610097578063a22cb46511610066578063a22cb465146101ff578063b88d4fde14610212578063c87b56dd14610225578063e985e9c514610238576100f5565b806342966c68146101b05780636352211e146101c357806370a08231146101d657806395d89b41146101f7576100f5565b8063095ea7b3116100d3578063095ea7b31461016257806323b872dd1461017757806340c10f191461018a57806342842e0e1461019d576100f5565b806301ffc9a7146100fa57806306fdde0314610122578063081812fc14610137575b600080fd5b61010d610108366004611182565b610274565b60405190151581526020015b60405180910390f35b61012a6102c8565b604051610119919061126a565b61014a6101453660046111ba565b61035a565b6040516001600160a01b039091168152602001610119565b610175610170366004611159565b6103f4565b005b61017561018536600461100f565b61050a565b610175610198366004611159565b61053b565b6101756101ab36600461100f565b610549565b6101756101be3660046111ba565b610564565b61014a6101d13660046111ba565b610570565b6101e96101e4366004610fc3565b6105e7565b604051908152602001610119565b61012a61066e565b61017561020d36600461111f565b61067d565b61017561022036600461104a565b61074f565b61012a6102333660046111ba565b610787565b61010d610246366004610fdd565b6001600160a01b03918216600090815260056020908152604080832093909416825291909152205460ff1690565b60006001600160e01b031982166380ac58cd60e01b14806102a557506001600160e01b03198216635b5e139f60e01b145b806102c057506301ffc9a760e01b6001600160e01b03198316145b90505b919050565b6060600080546102d79061138f565b80601f01602080910402602001604051908101604052809291908181526020018280546103039061138f565b80156103505780601f1061032557610100808354040283529160200191610350565b820191906000526020600020905b81548152906001019060200180831161033357829003601f168201915b5050505050905090565b6000818152600260205260408120546001600160a01b03166103d85760405162461bcd60e51b815260206004820152602c60248201527f4552433732313a20617070726f76656420717565727920666f72206e6f6e657860448201526b34b9ba32b73a103a37b5b2b760a11b60648201526084015b60405180910390fd5b506000908152600460205260409020546001600160a01b031690565b60006103ff82610570565b9050806001600160a01b0316836001600160a01b0316141561046d5760405162461bcd60e51b815260206004820152602160248201527f4552433732313a20617070726f76616c20746f2063757272656e74206f776e656044820152603960f91b60648201526084016103cf565b336001600160a01b038216148061048957506104898133610246565b6104fb5760405162461bcd60e51b815260206004820152603860248201527f4552433732313a20617070726f76652063616c6c6572206973206e6f74206f7760448201527f6e6572206e6f7220617070726f76656420666f7220616c6c000000000000000060648201526084016103cf565b610505838361086f565b505050565b61051433826108dd565b6105305760405162461bcd60e51b81526004016103cf906112cf565b6105058383836109d4565b6105458282610b74565b5050565b6105058383836040518060200160405280600081525061074f565b61056d81610cb6565b50565b6000818152600260205260408120546001600160a01b0316806102c05760405162461bcd60e51b815260206004820152602960248201527f4552433732313a206f776e657220717565727920666f72206e6f6e657869737460448201526832b73a103a37b5b2b760b91b60648201526084016103cf565b60006001600160a01b0382166106525760405162461bcd60e51b815260206004820152602a60248201527f4552433732313a2062616c616e636520717565727920666f7220746865207a65604482015269726f206164647265737360b01b60648201526084016103cf565b506001600160a01b031660009081526003602052604090205490565b6060600180546102d79061138f565b6001600160a01b0382163314156106d65760405162461bcd60e51b815260206004820152601960248201527f4552433732313a20617070726f766520746f2063616c6c65720000000000000060448201526064016103cf565b3360008181526005602090815260408083206001600160a01b0387168085529252909120805460ff1916841515179055906001600160a01b03167f17307eab39ab6107e8899845ad3d59bd9653f200f220920489ca2b5937696c3183604051610743911515815260200190565b60405180910390a35050565b61075933836108dd565b6107755760405162461bcd60e51b81526004016103cf906112cf565b61078184848484610d51565b50505050565b6000818152600260205260409020546060906001600160a01b03166108065760405162461bcd60e51b815260206004820152602f60248201527f4552433732314d657461646174613a2055524920717565727920666f72206e6f60448201526e3732bc34b9ba32b73a103a37b5b2b760891b60648201526084016103cf565b600061081d60408051602081019091526000815290565b9050600081511161083d5760405180602001604052806000815250610868565b8061084784610d84565b6040516020016108589291906111fe565b6040516020818303038152906040525b9392505050565b600081815260046020526040902080546001600160a01b0319166001600160a01b03841690811790915581906108a482610570565b6001600160a01b03167f8c5be1e5ebec7d5bd14f71427d1e84f3dd0314c0f7b2291e5b200ac8c7c3b92560405160405180910390a45050565b6000818152600260205260408120546001600160a01b03166109565760405162461bcd60e51b815260206004820152602c60248201527f4552433732313a206f70657261746f7220717565727920666f72206e6f6e657860448201526b34b9ba32b73a103a37b5b2b760a11b60648201526084016103cf565b600061096183610570565b9050806001600160a01b0316846001600160a01b0316148061099c5750836001600160a01b03166109918461035a565b6001600160a01b0316145b806109cc57506001600160a01b0380821660009081526005602090815260408083209388168352929052205460ff165b949350505050565b826001600160a01b03166109e782610570565b6001600160a01b031614610a4f5760405162461bcd60e51b815260206004820152602960248201527f4552433732313a207472616e73666572206f6620746f6b656e2074686174206960448201526839903737ba1037bbb760b91b60648201526084016103cf565b6001600160a01b038216610ab15760405162461bcd60e51b8152602060048201526024808201527f4552433732313a207472616e7366657220746f20746865207a65726f206164646044820152637265737360e01b60648201526084016103cf565b610abc60008261086f565b6001600160a01b0383166000908152600360205260408120805460019290610ae590849061134c565b90915550506001600160a01b0382166000908152600360205260408120805460019290610b13908490611320565b909155505060008181526002602052604080822080546001600160a01b0319166001600160a01b0386811691821790925591518493918716917fddf252ad1be2c89b69c2b068fc378daa952ba7f163c4a11628f55a4df523b3ef91a4505050565b6001600160a01b038216610bca5760405162461bcd60e51b815260206004820181905260248201527f4552433732313a206d696e7420746f20746865207a65726f206164647265737360448201526064016103cf565b6000818152600260205260409020546001600160a01b031615610c2f5760405162461bcd60e51b815260206004820152601c60248201527f4552433732313a20746f6b656e20616c7265616479206d696e7465640000000060448201526064016103cf565b6001600160a01b0382166000908152600360205260408120805460019290610c58908490611320565b909155505060008181526002602052604080822080546001600160a01b0319166001600160a01b03861690811790915590518392907fddf252ad1be2c89b69c2b068fc378daa952ba7f163c4a11628f55a4df523b3ef908290a45050565b6000610cc182610570565b9050610cce60008361086f565b6001600160a01b0381166000908152600360205260408120805460019290610cf790849061134c565b909155505060008281526002602052604080822080546001600160a01b0319169055518391906001600160a01b038416907fddf252ad1be2c89b69c2b068fc378daa952ba7f163c4a11628f55a4df523b3ef908390a45050565b610d5c8484846109d4565b610d6884848484610e9f565b6107815760405162461bcd60e51b81526004016103cf9061127d565b606081610da957506040805180820190915260018152600360fc1b60208201526102c3565b8160005b8115610dd35780610dbd816113ca565b9150610dcc9050600a83611338565b9150610dad565b60008167ffffffffffffffff811115610dfc57634e487b7160e01b600052604160045260246000fd5b6040519080825280601f01601f191660200182016040528015610e26576020820181803683370190505b5090505b84156109cc57610e3b60018361134c565b9150610e48600a866113e5565b610e53906030611320565b60f81b818381518110610e7657634e487b7160e01b600052603260045260246000fd5b60200101906001600160f81b031916908160001a905350610e98600a86611338565b9450610e2a565b60006001600160a01b0384163b15610fa157604051630a85bd0160e11b81526001600160a01b0385169063150b7a0290610ee390339089908890889060040161122d565b602060405180830381600087803b158015610efd57600080fd5b505af1925050508015610f2d575060408051601f3d908101601f19168201909252610f2a9181019061119e565b60015b610f87573d808015610f5b576040519150601f19603f3d011682016040523d82523d6000602084013e610f60565b606091505b508051610f7f5760405162461bcd60e51b81526004016103cf9061127d565b805181602001fd5b6001600160e01b031916630a85bd0160e11b1490506109cc565b506001949350505050565b80356001600160a01b03811681146102c357600080fd5b600060208284031215610fd4578081fd5b61086882610fac565b60008060408385031215610fef578081fd5b610ff883610fac565b915061100660208401610fac565b90509250929050565b600080600060608486031215611023578081fd5b61102c84610fac565b925061103a60208501610fac565b9150604084013590509250925092565b6000806000806080858703121561105f578081fd5b61106885610fac565b935061107660208601610fac565b925060408501359150606085013567ffffffffffffffff80821115611099578283fd5b818701915087601f8301126110ac578283fd5b8135818111156110be576110be611425565b604051601f8201601f19908116603f011681019083821181831017156110e6576110e6611425565b816040528281528a60208487010111156110fe578586fd5b82602086016020830137918201602001949094529598949750929550505050565b60008060408385031215611131578182fd5b61113a83610fac565b91506020830135801515811461114e578182fd5b809150509250929050565b6000806040838503121561116b578182fd5b61117483610fac565b946020939093013593505050565b600060208284031215611193578081fd5b81356108688161143b565b6000602082840312156111af578081fd5b81516108688161143b565b6000602082840312156111cb578081fd5b5035919050565b600081518084526111ea816020860160208601611363565b601f01601f19169290920160200192915050565b60008351611210818460208801611363565b835190830190611224818360208801611363565b01949350505050565b6001600160a01b0385811682528416602082015260408101839052608060608201819052600090611260908301846111d2565b9695505050505050565b60006020825261086860208301846111d2565b60208082526032908201527f4552433732313a207472616e7366657220746f206e6f6e20455243373231526560408201527131b2b4bb32b91034b6b83632b6b2b73a32b960711b606082015260800190565b60208082526031908201527f4552433732313a207472616e736665722063616c6c6572206973206e6f74206f6040820152701ddb995c881b9bdc88185c1c1c9bdd9959607a1b606082015260800190565b60008219821115611333576113336113f9565b500190565b6000826113475761134761140f565b500490565b60008282101561135e5761135e6113f9565b500390565b60005b8381101561137e578181015183820152602001611366565b838111156107815750506000910152565b6002810460018216806113a357607f821691505b602082108114156113c457634e487b7160e01b600052602260045260246000fd5b50919050565b60006000198214156113de576113de6113f9565b5060010190565b6000826113f4576113f461140f565b500690565b634e487b7160e01b600052601160045260246000fd5b634e487b7160e01b600052601260045260246000fd5b634e487b7160e01b600052604160045260246000fd5b6001600160e01b03198116811461056d57600080fdfea2646970667358221220a8ee8980601618503aa7e7c0432293d63fccf1e07c461c73508e1aef74375ed764736f6c63430008020033",
  "immutableReferences": {},
  "source": "// SPDX-License-Identifier: MIT\r\npragma solidity ^0.8.2;\r\n\r\nimport \"@openzeppelin/contracts/token/ERC721/ERC721.sol\";\r\nimport \"@openzeppelin/contracts/token/ERC721/IERC721.sol\";\r\n\r\ncontract MockNFTToken is ERC721 {\r\n\r\n    constructor(\r\n        string memory _name,\r\n        string memory _symbol\r\n    ) ERC721(_name, _symbol) {\r\n    }\r\n\r\n    function mint(address _receiver, uint256 _tokenId) external {\r\n        _mint(_receiver, _tokenId);\r\n    }\r\n\r\n    function burn(uint256 _tokenId) external {\r\n        _burn(_tokenId);\r\n    }\r\n}\r\n",
  "sourcePath": "D:/Ethereum/Debridge/debridge-contracts-v1/contracts/mock/MockNFTToken.sol",
  "compiler": {
    "name": "solc",
    "version": "0.8.2+commit.661d1103.Emscripten.clang"
  },
  "schemaVersion": "3.3.4",
  "updatedAt": "2021-06-08T16:02:58.094Z",
  "devdoc": {
    "kind": "dev",
    "methods": {
      "approve(address,uint256)": {
        "details": "See {IERC721-approve}."
      },
      "balanceOf(address)": {
        "details": "See {IERC721-balanceOf}."
      },
      "getApproved(uint256)": {
        "details": "See {IERC721-getApproved}."
      },
      "isApprovedForAll(address,address)": {
        "details": "See {IERC721-isApprovedForAll}."
      },
      "name()": {
        "details": "See {IERC721Metadata-name}."
      },
      "ownerOf(uint256)": {
        "details": "See {IERC721-ownerOf}."
      },
      "safeTransferFrom(address,address,uint256)": {
        "details": "See {IERC721-safeTransferFrom}."
      },
      "safeTransferFrom(address,address,uint256,bytes)": {
        "details": "See {IERC721-safeTransferFrom}."
      },
      "setApprovalForAll(address,bool)": {
        "details": "See {IERC721-setApprovalForAll}."
      },
      "supportsInterface(bytes4)": {
        "details": "See {IERC165-supportsInterface}."
      },
      "symbol()": {
        "details": "See {IERC721Metadata-symbol}."
      },
      "tokenURI(uint256)": {
        "details": "See {IERC721Metadata-tokenURI}."
      },
      "transferFrom(address,address,uint256)": {
        "details": "See {IERC721-transferFrom}."
      }
    },
    "version": 1
  },
  "userdoc": {
    "kind": "user",
    "methods": {},
    "version": 1
  }
}