{
  "contractName": "OracleManager",
  "abi": [
    {
      "inputs": [
        {
          "internalType": "uint256",
          "name": "_timelock",
          "type": "uint256"
        },
        {
          "internalType": "contract IStrategyController",
          "name": "_strategyController",
          "type": "address"
        },
        {
          "internalType": "contract IPriceConsumer",
          "name": "_priceConsumer",
          "type": "address"
        }
      ],
      "stateMutability": "nonpayable",
      "type": "constructor"
    },
    {
      "anonymous": false,
      "inputs": [
        {
          "indexed": true,
          "internalType": "address",
          "name": "previousOwner",
          "type": "address"
        },
        {
          "indexed": true,
          "internalType": "address",
          "name": "newOwner",
          "type": "address"
        }
      ],
      "name": "OwnershipTransferred",
      "type": "event"
    },
    {
      "anonymous": false,
      "inputs": [
        {
          "indexed": false,
          "internalType": "address",
          "name": "oracle",
          "type": "address"
        },
        {
          "indexed": false,
          "internalType": "uint256",
          "name": "collatoralId",
          "type": "uint256"
        },
        {
          "indexed": false,
          "internalType": "uint256",
          "name": "amount",
          "type": "uint256"
        }
      ],
      "name": "Staked",
      "type": "event"
    },
    {
      "anonymous": false,
      "inputs": [
        {
          "indexed": false,
          "internalType": "address",
          "name": "delegator",
          "type": "address"
        },
        {
          "indexed": false,
          "internalType": "uint256",
          "name": "transferId",
          "type": "uint256"
        }
      ],
      "name": "TransferExecuted",
      "type": "event"
    },
    {
      "anonymous": false,
      "inputs": [
        {
          "indexed": false,
          "internalType": "address",
          "name": "delegator",
          "type": "address"
        },
        {
          "indexed": false,
          "internalType": "uint256",
          "name": "transferId",
          "type": "uint256"
        }
      ],
      "name": "TransferRequested",
      "type": "event"
    },
    {
      "anonymous": false,
      "inputs": [
        {
          "indexed": false,
          "internalType": "address",
          "name": "oracle",
          "type": "address"
        },
        {
          "indexed": false,
          "internalType": "uint256",
          "name": "withdrawalId",
          "type": "uint256"
        }
      ],
      "name": "UnstakeCancelled",
      "type": "event"
    },
    {
      "anonymous": false,
      "inputs": [
        {
          "indexed": false,
          "internalType": "address",
          "name": "oracle",
          "type": "address"
        },
        {
          "indexed": false,
          "internalType": "uint256",
          "name": "withdrawalId",
          "type": "uint256"
        }
      ],
      "name": "UnstakeExecuted",
      "type": "event"
    },
    {
      "anonymous": false,
      "inputs": [
        {
          "indexed": false,
          "internalType": "address",
          "name": "oracle",
          "type": "address"
        },
        {
          "indexed": false,
          "internalType": "uint256",
          "name": "withdrawalId",
          "type": "uint256"
        },
        {
          "indexed": false,
          "internalType": "uint256",
          "name": "timestamp",
          "type": "uint256"
        }
      ],
      "name": "UnstakePaused",
      "type": "event"
    },
    {
      "anonymous": false,
      "inputs": [
        {
          "indexed": false,
          "internalType": "address",
          "name": "oracle",
          "type": "address"
        },
        {
          "indexed": false,
          "internalType": "uint256",
          "name": "collatoralId",
          "type": "uint256"
        },
        {
          "indexed": false,
          "internalType": "address",
          "name": "receipient",
          "type": "address"
        },
        {
          "indexed": false,
          "internalType": "uint256",
          "name": "amount",
          "type": "uint256"
        }
      ],
      "name": "UnstakeRequested",
      "type": "event"
    },
    {
      "anonymous": false,
      "inputs": [
        {
          "indexed": false,
          "internalType": "address",
          "name": "oracle",
          "type": "address"
        },
        {
          "indexed": false,
          "internalType": "uint256",
          "name": "withdrawalId",
          "type": "uint256"
        },
        {
          "indexed": false,
          "internalType": "uint256",
          "name": "timestamp",
          "type": "uint256"
        }
      ],
      "name": "UnstakeResumed",
      "type": "event"
    },
    {
      "anonymous": false,
      "inputs": [
        {
          "indexed": false,
          "internalType": "address",
          "name": "oracle",
          "type": "address"
        },
        {
          "indexed": false,
          "internalType": "uint256",
          "name": "amount",
          "type": "uint256"
        },
        {
          "indexed": false,
          "internalType": "uint256",
          "name": "strategy",
          "type": "uint256"
        },
        {
          "indexed": false,
          "internalType": "uint256",
          "name": "collatoralId",
          "type": "uint256"
        }
      ],
      "name": "depositedToStrategy",
      "type": "event"
    },
    {
      "anonymous": false,
      "inputs": [
        {
          "indexed": false,
          "internalType": "address",
          "name": "oracle",
          "type": "address"
        },
        {
          "indexed": false,
          "internalType": "uint256",
          "name": "collatoralId",
          "type": "uint256"
        },
        {
          "indexed": false,
          "internalType": "uint256",
          "name": "amount",
          "type": "uint256"
        }
      ],
      "name": "liquidated",
      "type": "event"
    },
    {
      "anonymous": false,
      "inputs": [
        {
          "indexed": false,
          "internalType": "address",
          "name": "oracle",
          "type": "address"
        },
        {
          "indexed": false,
          "internalType": "uint256",
          "name": "amount",
          "type": "uint256"
        },
        {
          "indexed": false,
          "internalType": "uint256",
          "name": "strategy",
          "type": "uint256"
        },
        {
          "indexed": false,
          "internalType": "uint256",
          "name": "collatoralId",
          "type": "uint256"
        }
      ],
      "name": "withdrawedFromStrategy",
      "type": "event"
    },
    {
      "anonymous": false,
      "inputs": [
        {
          "indexed": false,
          "internalType": "address",
          "name": "recipient",
          "type": "address"
        },
        {
          "indexed": false,
          "internalType": "uint256",
          "name": "collatoralId",
          "type": "uint256"
        },
        {
          "indexed": false,
          "internalType": "uint256",
          "name": "amount",
          "type": "uint256"
        }
      ],
      "name": "withdrawedFunds",
      "type": "event"
    },
    {
      "inputs": [
        {
          "internalType": "uint256",
          "name": "",
          "type": "uint256"
        }
      ],
      "name": "collatorals",
      "outputs": [
        {
          "internalType": "contract IERC20",
          "name": "token",
          "type": "address"
        },
        {
          "internalType": "uint256",
          "name": "confiscatedFunds",
          "type": "uint256"
        },
        {
          "internalType": "uint256",
          "name": "totalLocked",
          "type": "uint256"
        }
      ],
      "stateMutability": "view",
      "type": "function"
    },
    {
      "inputs": [
        {
          "internalType": "address",
          "name": "",
          "type": "address"
        }
      ],
      "name": "getOracleInfo",
      "outputs": [
        {
          "internalType": "address",
          "name": "admin",
          "type": "address"
        },
        {
          "internalType": "uint256",
          "name": "withdrawalCount",
          "type": "uint256"
        },
        {
          "internalType": "uint256",
          "name": "transferCount",
          "type": "uint256"
        },
        {
          "internalType": "uint256",
          "name": "profitSharing",
          "type": "uint256"
        },
        {
          "internalType": "uint256",
          "name": "usdAmountOfDelegation",
          "type": "uint256"
        },
        {
          "internalType": "bool",
          "name": "isOracle",
          "type": "bool"
        },
        {
          "internalType": "bool",
          "name": "isAbleToDelegate",
          "type": "bool"
        },
        {
          "internalType": "uint256",
          "name": "delegatorCount",
          "type": "uint256"
        }
      ],
      "stateMutability": "view",
      "type": "function"
    },
    {
      "inputs": [],
      "name": "owner",
      "outputs": [
        {
          "internalType": "address",
          "name": "",
          "type": "address"
        }
      ],
      "stateMutability": "view",
      "type": "function"
    },
    {
      "inputs": [],
      "name": "priceConsumer",
      "outputs": [
        {
          "internalType": "contract IPriceConsumer",
          "name": "",
          "type": "address"
        }
      ],
      "stateMutability": "view",
      "type": "function"
    },
    {
      "inputs": [],
      "name": "renounceOwnership",
      "outputs": [],
      "stateMutability": "nonpayable",
      "type": "function"
    },
    {
      "inputs": [
        {
          "internalType": "uint256",
          "name": "",
          "type": "uint256"
        }
      ],
      "name": "strategies",
      "outputs": [
        {
          "internalType": "address",
          "name": "strategy",
          "type": "address"
        },
        {
          "internalType": "uint256",
          "name": "stakeToken",
          "type": "uint256"
        },
        {
          "internalType": "uint256",
          "name": "rewardToken",
          "type": "uint256"
        }
      ],
      "stateMutability": "view",
      "type": "function"
    },
    {
      "inputs": [],
      "name": "strategyController",
      "outputs": [
        {
          "internalType": "contract IStrategyController",
          "name": "",
          "type": "address"
        }
      ],
      "stateMutability": "view",
      "type": "function"
    },
    {
      "inputs": [],
      "name": "timelock",
      "outputs": [
        {
          "internalType": "uint256",
          "name": "",
          "type": "uint256"
        }
      ],
      "stateMutability": "view",
      "type": "function"
    },
    {
      "inputs": [],
      "name": "timelockForDelegate",
      "outputs": [
        {
          "internalType": "uint256",
          "name": "",
          "type": "uint256"
        }
      ],
      "stateMutability": "view",
      "type": "function"
    },
    {
      "inputs": [
        {
          "internalType": "address",
          "name": "newOwner",
          "type": "address"
        }
      ],
      "name": "transferOwnership",
      "outputs": [],
      "stateMutability": "nonpayable",
      "type": "function"
    },
    {
      "inputs": [
        {
          "internalType": "address",
          "name": "_oracle",
          "type": "address"
        },
        {
          "internalType": "uint256",
          "name": "_collatoralId",
          "type": "uint256"
        },
        {
          "internalType": "uint256",
          "name": "_amount",
          "type": "uint256"
        }
      ],
      "name": "stake",
      "outputs": [],
      "stateMutability": "nonpayable",
      "type": "function"
    },
    {
      "inputs": [
        {
          "internalType": "address",
          "name": "_oracle",
          "type": "address"
        },
        {
          "internalType": "uint256",
          "name": "_collatoralId",
          "type": "uint256"
        },
        {
          "internalType": "address",
          "name": "_recipient",
          "type": "address"
        },
        {
          "internalType": "uint256",
          "name": "_amount",
          "type": "uint256"
        }
      ],
      "name": "requestUnstake",
      "outputs": [],
      "stateMutability": "nonpayable",
      "type": "function"
    },
    {
      "inputs": [
        {
          "internalType": "address",
          "name": "_oracle",
          "type": "address"
        },
        {
          "internalType": "uint256",
          "name": "_withdrawalId",
          "type": "uint256"
        }
      ],
      "name": "executeUnstake",
      "outputs": [],
      "stateMutability": "nonpayable",
      "type": "function"
    },
    {
      "inputs": [
        {
          "internalType": "address",
          "name": "_oracleFrom",
          "type": "address"
        },
        {
          "internalType": "address",
          "name": "_oracleTo",
          "type": "address"
        },
        {
          "internalType": "uint256",
          "name": "_collatoralId",
          "type": "uint256"
        },
        {
          "internalType": "uint256",
          "name": "_amount",
          "type": "uint256"
        }
      ],
      "name": "requestTransfer",
      "outputs": [],
      "stateMutability": "nonpayable",
      "type": "function"
    },
    {
      "inputs": [
        {
          "internalType": "uint256",
          "name": "_transferId",
          "type": "uint256"
        }
      ],
      "name": "executeTransfer",
      "outputs": [],
      "stateMutability": "nonpayable",
      "type": "function"
    },
    {
      "inputs": [
        {
          "internalType": "address",
          "name": "_oracle",
          "type": "address"
        },
        {
          "internalType": "uint256",
          "name": "_amount",
          "type": "uint256"
        },
        {
          "internalType": "uint256",
          "name": "_strategy",
          "type": "uint256"
        }
      ],
      "name": "depositToStrategy",
      "outputs": [],
      "stateMutability": "nonpayable",
      "type": "function"
    },
    {
      "inputs": [
        {
          "internalType": "address",
          "name": "_oracle",
          "type": "address"
        },
        {
          "internalType": "uint256",
          "name": "_amount",
          "type": "uint256"
        },
        {
          "internalType": "uint256",
          "name": "_strategy",
          "type": "uint256"
        }
      ],
      "name": "withdrawFromStrategy",
      "outputs": [],
      "stateMutability": "nonpayable",
      "type": "function"
    },
    {
      "inputs": [
        {
          "internalType": "address",
          "name": "_oracle",
          "type": "address"
        },
        {
          "internalType": "uint256",
          "name": "_profitSharing",
          "type": "uint256"
        }
      ],
      "name": "setProfitSharing",
      "outputs": [],
      "stateMutability": "nonpayable",
      "type": "function"
    },
    {
      "inputs": [
        {
          "internalType": "address",
          "name": "_oracle",
          "type": "address"
        },
        {
          "internalType": "uint256",
          "name": "_usdAmountOfDelegation",
          "type": "uint256"
        }
      ],
      "name": "setUsdAmountOfDelegation",
      "outputs": [],
      "stateMutability": "nonpayable",
      "type": "function"
    },
    {
      "inputs": [
        {
          "internalType": "uint256",
          "name": "_newTimelock",
          "type": "uint256"
        }
      ],
      "name": "setTimelock",
      "outputs": [],
      "stateMutability": "nonpayable",
      "type": "function"
    },
    {
      "inputs": [
        {
          "internalType": "uint256",
          "name": "_newTimelock",
          "type": "uint256"
        }
      ],
      "name": "setTimelockForTransfer",
      "outputs": [],
      "stateMutability": "nonpayable",
      "type": "function"
    },
    {
      "inputs": [
        {
          "internalType": "address",
          "name": "_oracle",
          "type": "address"
        },
        {
          "internalType": "address",
          "name": "_admin",
          "type": "address"
        }
      ],
      "name": "addOracle",
      "outputs": [],
      "stateMutability": "nonpayable",
      "type": "function"
    },
    {
      "inputs": [
        {
          "internalType": "address",
          "name": "_delegator",
          "type": "address"
        }
      ],
      "name": "addDelegator",
      "outputs": [],
      "stateMutability": "nonpayable",
      "type": "function"
    },
    {
      "inputs": [
        {
          "internalType": "contract IERC20",
          "name": "_token",
          "type": "address"
        }
      ],
      "name": "addCollatoral",
      "outputs": [],
      "stateMutability": "nonpayable",
      "type": "function"
    },
    {
      "inputs": [
        {
          "internalType": "address",
          "name": "_strategy",
          "type": "address"
        },
        {
          "internalType": "uint256",
          "name": "_stakeToken",
          "type": "uint256"
        },
        {
          "internalType": "uint256",
          "name": "_rewardToken",
          "type": "uint256"
        }
      ],
      "name": "addStrategy",
      "outputs": [],
      "stateMutability": "nonpayable",
      "type": "function"
    },
    {
      "inputs": [
        {
          "internalType": "address",
          "name": "_oracle",
          "type": "address"
        },
        {
          "internalType": "uint256",
          "name": "_withdrawalId",
          "type": "uint256"
        }
      ],
      "name": "cancelUnstake",
      "outputs": [],
      "stateMutability": "nonpayable",
      "type": "function"
    },
    {
      "inputs": [
        {
          "internalType": "address",
          "name": "_oracle",
          "type": "address"
        },
        {
          "internalType": "uint256",
          "name": "_collatoralId",
          "type": "uint256"
        },
        {
          "internalType": "uint256",
          "name": "_amount",
          "type": "uint256"
        }
      ],
      "name": "liquidate",
      "outputs": [],
      "stateMutability": "nonpayable",
      "type": "function"
    },
    {
      "inputs": [
        {
          "internalType": "address",
          "name": "_recipient",
          "type": "address"
        },
        {
          "internalType": "uint256",
          "name": "_collatoralId",
          "type": "uint256"
        },
        {
          "internalType": "uint256",
          "name": "_amount",
          "type": "uint256"
        }
      ],
      "name": "withdrawFunds",
      "outputs": [],
      "stateMutability": "nonpayable",
      "type": "function"
    },
    {
      "inputs": [
        {
          "internalType": "address",
          "name": "_oracle",
          "type": "address"
        },
        {
          "internalType": "uint256",
          "name": "_withdrawalId",
          "type": "uint256"
        }
      ],
      "name": "pauseUnstake",
      "outputs": [],
      "stateMutability": "nonpayable",
      "type": "function"
    },
    {
      "inputs": [
        {
          "internalType": "address",
          "name": "_oracle",
          "type": "address"
        },
        {
          "internalType": "uint256",
          "name": "_withdrawalId",
          "type": "uint256"
        }
      ],
      "name": "resumeUnstake",
      "outputs": [],
      "stateMutability": "nonpayable",
      "type": "function"
    },
    {
      "inputs": [
        {
          "internalType": "contract IStrategyController",
          "name": "_strategyController",
          "type": "address"
        }
      ],
      "name": "setStrategyController",
      "outputs": [],
      "stateMutability": "nonpayable",
      "type": "function"
    },
    {
      "inputs": [
        {
          "internalType": "contract IPriceConsumer",
          "name": "_priceConsumer",
          "type": "address"
        }
      ],
      "name": "setPriceConsumer",
      "outputs": [],
      "stateMutability": "nonpayable",
      "type": "function"
    },
    {
      "inputs": [
        {
          "internalType": "address",
          "name": "_oracle",
          "type": "address"
        },
        {
          "internalType": "uint256",
          "name": "_collatoralId",
          "type": "uint256"
        },
        {
          "internalType": "uint256",
          "name": "_amount",
          "type": "uint256"
        }
      ],
      "name": "account_asset",
      "outputs": [],
      "stateMutability": "nonpayable",
      "type": "function"
    },
    {
      "inputs": [
        {
          "internalType": "address",
          "name": "_oracle",
          "type": "address"
        },
        {
          "internalType": "uint256",
          "name": "_withdrawalId",
          "type": "uint256"
        }
      ],
      "name": "getWithdrawalRequest",
      "outputs": [
        {
          "components": [
            {
              "internalType": "uint256",
              "name": "amount",
              "type": "uint256"
            },
            {
              "internalType": "uint256",
              "name": "timelock",
              "type": "uint256"
            },
            {
              "internalType": "address",
              "name": "receiver",
              "type": "address"
            },
            {
              "internalType": "bool",
              "name": "executed",
              "type": "bool"
            },
            {
              "internalType": "bool",
              "name": "paused",
              "type": "bool"
            },
            {
              "internalType": "uint256",
              "name": "pausedTime",
              "type": "uint256"
            },
            {
              "internalType": "uint256",
              "name": "collatoralId",
              "type": "uint256"
            }
          ],
          "internalType": "struct OracleManager.WithdrawalInfo",
          "name": "",
          "type": "tuple"
        }
      ],
      "stateMutability": "view",
      "type": "function"
    },
    {
      "inputs": [
        {
          "internalType": "address",
          "name": "_oracle",
          "type": "address"
        },
        {
          "internalType": "uint256",
          "name": "_transferId",
          "type": "uint256"
        }
      ],
      "name": "getTransferRequest",
      "outputs": [
        {
          "components": [
            {
              "internalType": "uint256",
              "name": "amount",
              "type": "uint256"
            },
            {
              "internalType": "uint256",
              "name": "timelock",
              "type": "uint256"
            },
            {
              "internalType": "address",
              "name": "oracleFrom",
              "type": "address"
            },
            {
              "internalType": "address",
              "name": "oracleTo",
              "type": "address"
            },
            {
              "internalType": "bool",
              "name": "executed",
              "type": "bool"
            },
            {
              "internalType": "uint256",
              "name": "collatoralId",
              "type": "uint256"
            }
          ],
          "internalType": "struct OracleManager.TransferInfo",
          "name": "",
          "type": "tuple"
        }
      ],
      "stateMutability": "view",
      "type": "function"
    },
    {
      "inputs": [
        {
          "internalType": "address",
          "name": "_oracle",
          "type": "address"
        },
        {
          "internalType": "uint256",
          "name": "_collatoralId",
          "type": "uint256"
        }
      ],
      "name": "getOracleStaking",
      "outputs": [
        {
          "internalType": "uint256",
          "name": "",
          "type": "uint256"
        }
      ],
      "stateMutability": "view",
      "type": "function"
    },
    {
      "inputs": [
        {
          "internalType": "address",
          "name": "_oracle",
          "type": "address"
        },
        {
          "internalType": "address",
          "name": "_delegator",
          "type": "address"
        },
        {
          "internalType": "uint256",
          "name": "_collatoralId",
          "type": "uint256"
        }
      ],
      "name": "getDelegatorStakes",
      "outputs": [
        {
          "internalType": "uint256",
          "name": "",
          "type": "uint256"
        }
      ],
      "stateMutability": "view",
      "type": "function"
    }
  ],
  "bytecode": "0x6080604052621275006003553480156200001857600080fd5b5060405162003207380380620032078339810160408190526200003b91620000b4565b600080546001600160a01b031916339081178255604051909182917f8be0079c531659141344cd1fd0a4f28419497f9722a3daafe3b4186f6b6457e0908290a350600292909255600680546001600160a01b039283166001600160a01b0319918216179091556007805492909316911617905562000114565b600080600060608486031215620000c9578283fd5b835192506020840151620000dd81620000fb565b6040850151909250620000f081620000fb565b809150509250925092565b6001600160a01b03811681146200011157600080fd5b50565b6130e380620001246000396000f3fe608060405234801561001057600080fd5b50600436106102265760003560e01c8063815193bc11610130578063d33219b4116100b8578063f2847e641161007c578063f2847e6414610597578063f2fde38b14610608578063f54c02461461061b578063f699d3791461062e578063fa34d6111461074557610226565b8063d33219b414610542578063d574ea3d1461054b578063e56a2b671461055e578063f05d575214610571578063f0ca4adb1461058457610226565b8063a4d5654d116100ff578063a4d5654d14610446578063aecd8e5514610459578063b2af098b1461046c578063b509ed701461047f578063bfdb6b041461049257610226565b8063815193bc146103fc57806386e76f731461040f5780638da5cb5b14610422578063a3ff53e21461043357610226565b806321fb4c35116101b3578063437aef4b11610182578063437aef4b146103a3578063461a758c146103ac5780634ef6ed99146103bf578063715018a6146103e157806380b69c8c146103e957610226565b806321fb4c351461033457806328d2c3db14610347578063376956b61461035a5780633ed6edf71461036d57610226565b80630c51b88f116101fa5780630c51b88f1461029657806318e7e397146102a95780631e891c0a146102fb5780631f3564d91461030e578063210112011461032157610226565b8062258d6b1461022b57806301519cfd1461025b5780630710285c1461027057806307550f2a14610283575b600080fd5b60065461023e906001600160a01b031681565b6040516001600160a01b0390911681526020015b60405180910390f35b61026e610269366004612cf2565b610758565b005b61026e61027e366004612e44565b61084a565b61026e610291366004612dd2565b6109bf565b61026e6102a4366004612e44565b610adc565b6102ed6102b7366004612d4d565b6001600160a01b039283166000908152600160209081526040808320949095168252600990930183528381209181529152205490565b604051908152602001610252565b61026e610309366004612e98565b610fde565b61026e61031c366004612dd2565b61100d565b61026e61032f366004612dfd565b61118c565b61026e610342366004612cf2565b61154f565b61026e610355366004612dd2565b6115b5565b61026e610368366004612dd2565b6115fd565b6102ed61037b366004612dd2565b6001600160a01b03919091166000908152600160209081526040808320938352929052205490565b6102ed60035481565b60075461023e906001600160a01b031681565b6103d26103cd366004612e98565b611925565b60405161025293929190612ec8565b61026e611962565b61026e6103f7366004612dd2565b6119d6565b61026e61040a366004612d8d565b611ace565b61026e61041d366004612cf2565b611e50565b6000546001600160a01b031661023e565b61026e610441366004612dd2565b611e9c565b61026e610454366004612e44565b611ee4565b61026e610467366004612e44565b6120b1565b61026e61047a366004612e44565b61241e565b61026e61048d366004612e98565b612575565b6104f96104a0366004612cf2565b60016020819052600091825260409091209081015460028201546003830154600684015460078501546008860154600b909601546001600160a01b0390951695939492939192909160ff80821692610100909204169088565b604080516001600160a01b03909916895260208901979097529587019490945260608601929092526080850152151560a0840152151560c083015260e082015261010001610252565b6102ed60025481565b6103d2610559366004612e98565b6125a4565b61026e61056c366004612cf2565b6125b4565b61026e61057f366004612e98565b612600565b61026e610592366004612d15565b6127e7565b6105aa6105a5366004612dd2565b612857565b604051610252919081518152602080830151908201526040808301516001600160a01b03169082015260608083015115159082015260808083015115159082015260a0808301519082015260c0918201519181019190915260e00190565b61026e610616366004612cf2565b61292e565b61026e610629366004612e44565b612a18565b6106eb61063c366004612dd2565b6040805160c081018252600080825260208201819052918101829052606081018290526080810182905260a0810191909152506001600160a01b0391821660009081526001602081815260408084209484526005909401815291839020835160c081018552815481529181015492820192909252600282015484169281019290925260038101549283166060830152600160a01b90920460ff161515608082015260049091015460a082015290565b604051610252919081518152602080830151908201526040808301516001600160a01b03908116918301919091526060808401519091169082015260808083015115159082015260a0918201519181019190915260c00190565b61026e610753366004612e44565b612c07565b6000546001600160a01b0316331461078b5760405162461bcd60e51b815260040161078290612f34565b60405180910390fd5b604080516060810182526001600160a01b03928316815260006020820181815292820181815260048054600181018255925291517f8a35acfbc15ff81a39ae7d344fd709f28e8600b4aa8c65c6b64bfe7fe36bd19b600390920291820180546001600160a01b031916919095161790935590517f8a35acfbc15ff81a39ae7d344fd709f28e8600b4aa8c65c6b64bfe7fe36bd19c830155517f8a35acfbc15ff81a39ae7d344fd709f28e8600b4aa8c65c6b64bfe7fe36bd19d90910155565b6000546001600160a01b031633146108745760405162461bcd60e51b815260040161078290612f34565b6001600160a01b038316600090815260016020908152604080832085845291829052909120548211156108e95760405162461bcd60e51b815260206004820152601f60248201527f6c69717569646174653a20696e73756666696369656e742062616c616e6365006044820152606401610782565b60006004848154811061090c57634e487b7160e01b600052603260045260246000fd5b90600052602060002090600302019050828260000160008681526020019081526020016000206000828254610941919061304d565b925050819055508281600101600082825461095c9190612ff6565b9250508190555082816002016000828254610977919061304d565b90915550506040517fda63b5f9bc49924b728122fd50b032e0cb2396c33abecc4550350f78e501ce00906109b090879087908790612ec8565b60405180910390a15050505050565b6000546001600160a01b031633146109e95760405162461bcd60e51b815260040161078290612f34565b6001600160a01b0382166000908152600160205260408120905b8160020154811015610ad657600083815260048301602052604090206002810154600160a81b900460ff1615156001148015610a4b57506002810154600160a01b900460ff16155b15610ac35760028101805460ff60a81b191690556003810154610a6e904261304d565b816001016000828254610a819190612ff6565b90915550506040517f551a001dc50bd90c0a14e5b6426b5b5efeaf406db5f39b60875be6d037c022eb90610aba90879087904290612ec8565b60405180910390a15b5080610ace81613064565b915050610a03565b50505050565b6001600160a01b03831660009081526001602052604090206004548310610b455760405162461bcd60e51b815260206004820152601b60248201527f7374616b653a20756e646566696e656420636f6c6c61746f72616c00000000006044820152606401610782565b600060048481548110610b6857634e487b7160e01b600052603260045260246000fd5b906000526020600020906003020190506000805b83600b0154811015610cd9576000818152600a850160205260408120546001600160a01b0316905b600454811015610cc457600754600480546000926001600160a01b031691638da844789185908110610be657634e487b7160e01b600052603260045260246000fd5b600091825260209091206003909102015460405160e083901b6001600160e01b03191681526001600160a01b039091166004820152602401602060405180830381600087803b158015610c3857600080fd5b505af1158015610c4c573d6000803e3d6000fd5b505050506040513d601f19601f82011682018060405250810190610c709190612eb0565b6001600160a01b03841660009081526009890160209081526040808320868452909152902054909150610ca490829061302e565b610cae9086612ff6565b9450508080610cbc90613064565b915050610ba4565b50508080610cd190613064565b915050610b7c565b50336000908152600160205260409020600881015460ff16158015610d0b575060018401546001600160a01b03163314155b15610e105760075483546040516311b5088f60e31b81526001600160a01b0391821660048201526000929190911690638da8447890602401602060405180830381600087803b158015610d5d57600080fd5b505af1158015610d71573d6000803e3d6000fd5b505050506040513d601f19601f82011682018060405250810190610d959190612eb0565b6007860154909150610da7878361302e565b610db19085612ff6565b1115610e0e5760405162461bcd60e51b815260206004820152602660248201527f7374616b653a20616d6f756e74206f662064656c65676174696f6e206973206c6044820152651a5b5a5d195960d21b6064820152608401610782565b505b82546040516323b872dd60e01b8152336004820152306024820152604481018790526001600160a01b03909116906323b872dd90606401602060405180830381600087803b158015610e6157600080fd5b505af1158015610e75573d6000803e3d6000fd5b505050506040513d601f19601f82011682018060405250810190610e999190612e78565b610ede5760405162461bcd60e51b81526020600482015260166024820152751cdd185ad94e881d1c985b9cd9995c8819985a5b195960521b6044820152606401610782565b60008681526020859052604081208054879290610efc908490612ff6565b9250508190555084836002016000828254610f179190612ff6565b909155505060018401546001600160a01b03163314610f9a57600b840180546000908152600a86016020526040812080546001600160a01b0319163317905581549190610f6383613064565b9091555050336000908152600985016020908152604080832089845290915281208054879290610f94908490612ff6565b90915550505b7f1449c6dd7851abc30abf37f57715f492010519147cc2652fbc38202c18a6ee90878787604051610fcd93929190612ec8565b60405180910390a150505050505050565b6000546001600160a01b031633146110085760405162461bcd60e51b815260040161078290612f34565b600255565b6000546001600160a01b031633146110375760405162461bcd60e51b815260040161078290612f34565b6001600160a01b0382166000908152600160209081526040808320848452600481019092529091206002810154600160a01b900460ff16156110bb5760405162461bcd60e51b815260206004820152601f60248201527f63616e63656c556e7374616b653a20616c7265616479206578656375746564006044820152606401610782565b600060048260040154815481106110e257634e487b7160e01b600052603260045260246000fd5b6000918252602080832060028601805460ff60a01b1916600160a01b17905585546004870154855291879052604084208054600390940290910194509092909161112d908490612ff6565b90915550508154600282018054600090611148908490612ff6565b9091555050604080516001600160a01b0387168152602081018690527f02fbe69eb5474cc010b6c0c236dd70755556cee48c19373e79147100e04de70b91016109b0565b6001600160a01b0384166000908152600160205260409020816111af5750610ad6565b60008481526020829052604090205460045485106111df5760405162461bcd60e51b815260040161078290612f69565b828110156112475760405162461bcd60e51b815260206004820152602f60248201527f72657175657374556e7374616b653a20696e73756666696369656e742077697460448201526e686472617761626c652066756e647360881b6064820152608401610782565b336000908152600160205260409020600881015460ff16158015611278575060018301546001600160a01b03163314155b1561132c5733600090815260098401602090815260408083208984529091529020548411156112f55760405162461bcd60e51b815260206004820152602360248201527f72657175657374556e7374616b653a20696e73756666696369656e7420616d6f6044820152621d5b9d60ea1b6064820152608401610782565b33600090815260098401602090815260408083208984529091528120805486929061132190849061304d565b909155506113979050565b60018301546001600160a01b031633146113975760405162461bcd60e51b815260206004820152602660248201527f72657175657374556e7374616b653a206f6e6c792063616c6c61626c652062796044820152651030b236b4b760d11b6064820152608401610782565b6000600487815481106113ba57634e487b7160e01b600052603260045260246000fd5b9060005260206000209060030201905084836113d6919061304d565b6000888152602086905260408120919091556002820180548792906113fc90849061304d565b925050819055506040518060e00160405280868152602001600254426114229190612ff6565b81526001600160a01b03808916602080840191909152600060408085018290526060808601839052608080870184905260a09687018f90526002808d01805486526004808f0188528587208b518155978b01516001890155948a01519187018054948b0151938b01511515600160a81b0260ff60a81b19941515600160a01b0260ff60a01b1994909a166001600160a01b03199096169590951792909216979097179190911691909117905593850151600383015560c0909401519201919091558054916114ef83613064565b9091555050604080516001600160a01b038a81168252602082018a90528816818301526060810187905290517fd510a52a7b98020ef4b89dbc66cdf0ea3f07af095ef84d0c377db18bdc64bafc9181900360800190a15050505050505050565b6000546001600160a01b031633146115795760405162461bcd60e51b815260040161078290612f34565b6001600160a01b0316600081815260016020819052604090912090810180546001600160a01b031916909217909155600801805460ff19169055565b6001600160a01b0382811660009081526001602081905260409091209081015490911633146115f65760405162461bcd60e51b815260040161078290612ee9565b6007015550565b6001600160a01b03808316600090815260016020819052604090912090810154909116331461167d5760405162461bcd60e51b815260206004820152602660248201527f65786563757465556e7374616b653a206f6e6c792063616c6c61626c652062796044820152651030b236b4b760d11b6064820152608401610782565b806002015482106116de5760405162461bcd60e51b815260206004820152602560248201527f65786563757465556e7374616b653a207769746864726177616c206e6f742065604482015264786973747360d81b6064820152608401610782565b600082815260048201602052604090206002810154600160a01b900460ff161561174a5760405162461bcd60e51b815260206004820181905260248201527f65786563757465556e7374616b653a20616c72656164792065786563757465646044820152606401610782565b428160010154106117995760405162461bcd60e51b815260206004820152601960248201527865786563757465556e7374616b653a20746f6f206561726c7960381b6044820152606401610782565b60028101805460ff60a01b1916600160a01b1790556004808201548154600092919081106117d757634e487b7160e01b600052603260045260246000fd5b60009182526020918290206040805160608101825260039390930290910180546001600160a01b0390811680855260018301549585019590955260029182015484840152908601548654925163a9059cbb60e01b815291166004820152602481019190915290925063a9059cbb90604401602060405180830381600087803b15801561186257600080fd5b505af1158015611876573d6000803e3d6000fd5b505050506040513d601f19601f8201168201806040525081019061189a9190612e78565b6118e65760405162461bcd60e51b815260206004820152601f60248201527f65786563757465556e7374616b653a207472616e73666572206661696c6564006044820152606401610782565b604080516001600160a01b0387168152602081018690527fe3e01bae44eb85a30bd61c3742b60e379576ff5070a142675f575f53d5bbc2e491016109b0565b6004818154811061193557600080fd5b60009182526020909120600390910201805460018201546002909201546001600160a01b03909116925083565b6000546001600160a01b0316331461198c5760405162461bcd60e51b815260040161078290612f34565b600080546040516001600160a01b03909116907f8be0079c531659141344cd1fd0a4f28419497f9722a3daafe3b4186f6b6457e0908390a3600080546001600160a01b0319169055565b6000546001600160a01b03163314611a005760405162461bcd60e51b815260040161078290612f34565b6001600160a01b0382166000908152600160205260408120905b8160020154811015610ad657600081815260048301602052604090206002810154600160a81b900460ff16158015611a5e57506002810154600160a01b900460ff16155b15611abb5760028101805460ff60a81b1916600160a81b17905542600382018190556040517f6f380c85102b9cb64ee83468eff76d3d02638fc84dba6e0b286fe0deb4408bc391611ab29188918891612ec8565b60405180910390a15b5080611ac681613064565b915050611a1a565b6001600160a01b03808516600090815260016020526040808220928616825290206004548410611b105760405162461bcd60e51b815260040161078290612f69565b336000908152600160205260409020600881015460ff1615611b835760405162461bcd60e51b815260206004820152602660248201527f726571756573745472616e736665723a2063616c6c61626c652062792064656c60448201526532b3b0ba37b960d11b6064820152608401610782565b600085815260208490526040902054841115611bed5760405162461bcd60e51b815260206004820152602360248201527f7472616e736665724173736574733a20496e73756666696369656e7420616d6f6044820152621d5b9d60ea1b6064820152608401610782565b3360009081526009840160209081526040808320888452909152902054841115611c735760405162461bcd60e51b815260206004820152603160248201527f7472616e736665724173736574733a20496e73756666696369656e7420616d6f6044820152703ab73a103337b9103232b632b3b0ba37b960791b6064820152608401610782565b60008581526020849052604081208054869290611c9190849061304d565b909155505060008581526020839052604081208054869290611cb4908490612ff6565b9091555050336000908152600984016020908152604080832088845290915281208054869290611ce590849061304d565b9091555050336000908152600983016020908152604080832088845290915281208054869290611d16908490612ff6565b925050819055506040518060c0016040528085815260200160035442611d3c9190612ff6565b81526001600160a01b03808a166020808401919091528982166040808501919091526000606080860182905260809586018c9052600380890154835260058901855283832088518155948801516001860155928701516002850180549187166001600160a01b0319928316179055908701518484018054978901511515600160a01b0260ff60a01b19929097169790921696909617959095169390931790935560a0909301516004909301929092558401805491611df983613064565b91905055507f52ad287b15e67700db062c247036c3a0d6c313b231a9d078ef26ebdac206958b3360018360030154611e31919061304d565b604080516001600160a01b039093168352602083019190915201610fcd565b6000546001600160a01b03163314611e7a5760405162461bcd60e51b815260040161078290612f34565b600780546001600160a01b0319166001600160a01b0392909216919091179055565b6001600160a01b038281166000908152600160208190526040909120908101549091163314611edd5760405162461bcd60e51b815260040161078290612ee9565b6006015550565b6001600160a01b038381166000908152600160208190526040909120908101549091163314611f255760405162461bcd60e51b815260040161078290612fad565b600060058381548110611f4857634e487b7160e01b600052603260045260246000fd5b6000918252602080832060408051606081018252600390940290910180546001600160a01b031684526001810154928401839052600201549083015260048054929450918110611fa857634e487b7160e01b600052603260045260246000fd5b90600052602060002090600302019050848360000160008460200151815260200190815260200160002054101561202d5760405162461bcd60e51b8152602060048201526024808201527f6465706f736974546f53747261746567793a20496e73756666696369656e7420604482015263199d5b9960e21b6064820152608401610782565b60208083015160009081529084905260408120805487929061205090849061304d565b9091555050602082810151604080516001600160a01b038a168152928301889052820186905260608201527feed56ac1b06f09a8e41aaaf1045cb5301633e5ae81c16ca2a140074d6b123f0a906080015b60405180910390a1505050505050565b6001600160a01b038316600090815260016020526040812060068101549091906064906120de908561302e565b6120e8919061300e565b90506120f4818461304d565b60008581526020849052604081208054909190612112908490612ff6565b90915550600090506060815b84600b01548110156122db576000818152600a860160205260408120546001600160a01b0316905b60045481101561229157600754600480546000926001600160a01b031691638da84478918590811061218857634e487b7160e01b600052603260045260246000fd5b600091825260209091206003909102015460405160e083901b6001600160e01b03191681526001600160a01b039091166004820152602401602060405180830381600087803b1580156121da57600080fd5b505af11580156121ee573d6000803e3d6000fd5b505050506040513d601f19601f820116820180604052508101906122129190612eb0565b6001600160a01b038416600090815260098a016020908152604080832086845290915290205490915061224690829061302e565b85858151811061226657634e487b7160e01b600052603260045260246000fd5b6020026020010181815161227a9190612ff6565b90525081905061228981613064565b915050612146565b508282815181106122b257634e487b7160e01b600052603260045260246000fd5b6020026020010151846122c59190612ff6565b93505080806122d390613064565b91505061211e565b506000600487815481106122ff57634e487b7160e01b600052603260045260246000fd5b90600052602060002090600302019050858160020160008282546123239190612ff6565b909155505082156123f05760005b85600b01548110156123ea576000818152600a8701602052604090205483516001600160a01b0390911690859085908490811061237e57634e487b7160e01b600052603260045260246000fd5b602002602001015187612391919061302e565b61239b919061300e565b6001600160a01b038216600090815260098901602090815260408083208d8452909152812080549091906123d0908490612ff6565b909155508291506123e2905081613064565b915050612331565b50612414565b6000878152602086905260408120805486929061240e908490612ff6565b90915550505b5050505050505050565b6001600160a01b03838116600090815260016020819052604090912090810154909116331461245f5760405162461bcd60e51b815260040161078290612fad565b60006005838154811061248257634e487b7160e01b600052603260045260246000fd5b6000918252602080832060408051606081018252600390940290910180546001600160a01b03168452600181015492840192909252600290910154908201819052600480549294509181106124e757634e487b7160e01b600052603260045260246000fd5b90600052602060002090600302019050848360000160008460400151815260200190815260200160002060008282546125209190612ff6565b909155505060408083015181516001600160a01b03891681526020810188905291820186905260608201527fe7ef643e036a57f74693efb7ed7b9224c4ab88f9990e8794e0e5f3a61d14bd0c906080016120a1565b6000546001600160a01b0316331461259f5760405162461bcd60e51b815260040161078290612f34565b600355565b6005818154811061193557600080fd5b6000546001600160a01b031633146125de5760405162461bcd60e51b815260040161078290612f34565b600680546001600160a01b0319166001600160a01b0392909216919091179055565b336000908152600160205260409020600881015460ff16156126725760405162461bcd60e51b815260206004820152602560248201527f65786563757465556e7374616b653a2063616c6c61626c652062792064656c6560448201526433b0ba37b960d91b6064820152608401610782565b818160030154116126d95760405162461bcd60e51b815260206004820152602b60248201527f657865637574655472616e736665723a207472616e736665722072657175657360448201526a1d081b9bdd08195e1a5cdd60aa1b6064820152608401610782565b600082815260058201602052604090206003810154600160a01b900460ff16156127455760405162461bcd60e51b815260206004820181905260248201527f65786563757465556e7374616b653a20616c72656164792065786563757465646044820152606401610782565b428160010154106127945760405162461bcd60e51b815260206004820152601960248201527865786563757465556e7374616b653a20746f6f206561726c7960381b6044820152606401610782565b60038101805460ff60a01b1916600160a01b17905560408051338152602081018590527f9a1fd8511a9f728f23ed3cb955318fe1f8b2bc7c3aeea602c7f7ecf959a46939910160405180910390a1505050565b6000546001600160a01b031633146128115760405162461bcd60e51b815260040161078290612f34565b6001600160a01b03918216600090815260016020819052604090912080820180546001600160a01b0319169390941692909217909255600801805460ff19169091179055565b6128a46040518060e00160405280600081526020016000815260200160006001600160a01b0316815260200160001515815260200160001515815260200160008152602001600081525090565b506001600160a01b0380831660009081526001602081815260408084208685526004908101835293819020815160e08101835281548152938101549284019290925260028201549485169083015260ff600160a01b8504811615156060840152600160a81b90940490931615156080820152600383015460a082015291015460c082015292915050565b6000546001600160a01b031633146129585760405162461bcd60e51b815260040161078290612f34565b6001600160a01b0381166129bd5760405162461bcd60e51b815260206004820152602660248201527f4f776e61626c653a206e6577206f776e657220697320746865207a65726f206160448201526564647265737360d01b6064820152608401610782565b600080546040516001600160a01b03808516939216917f8be0079c531659141344cd1fd0a4f28419497f9722a3daafe3b4186f6b6457e091a3600080546001600160a01b0319166001600160a01b0392909216919091179055565b6000546001600160a01b03163314612a425760405162461bcd60e51b815260040161078290612f34565b600060048381548110612a6557634e487b7160e01b600052603260045260246000fd5b906000526020600020906003020190508181600101541015612adb5760405162461bcd60e51b815260206004820152602960248201527f776974686472617746756e64733a20696e73756666696369656e7420726573656044820152687276652066756e647360b81b6064820152608401610782565b805460405163a9059cbb60e01b81526001600160a01b038681166004830152602482018590529091169063a9059cbb90604401602060405180830381600087803b158015612b2857600080fd5b505af1158015612b3c573d6000803e3d6000fd5b505050506040513d601f19601f82011682018060405250810190612b609190612e78565b612bac5760405162461bcd60e51b815260206004820152601e60248201527f776974686472617746756e64733a207472616e73666572206661696c656400006044820152606401610782565b81816001016000828254612bc0919061304d565b90915550506040517fc2de028e84be62d45320ae9425ee251059f3d14e028a5fca46b519c19ebb94b790612bf990869086908690612ec8565b60405180910390a150505050565b6000546001600160a01b03163314612c315760405162461bcd60e51b815260040161078290612f34565b604080516060810182526001600160a01b039485168152602081019384529081019182526005805460018101825560009190915290517f036b6384b5eca791c62761152d0c79bb0604c104a5fb6f4eb0703f3154bb3db0600390920291820180546001600160a01b031916919095161790935590517f036b6384b5eca791c62761152d0c79bb0604c104a5fb6f4eb0703f3154bb3db1830155517f036b6384b5eca791c62761152d0c79bb0604c104a5fb6f4eb0703f3154bb3db290910155565b600060208284031215612d03578081fd5b8135612d0e81613095565b9392505050565b60008060408385031215612d27578081fd5b8235612d3281613095565b91506020830135612d4281613095565b809150509250929050565b600080600060608486031215612d61578081fd5b8335612d6c81613095565b92506020840135612d7c81613095565b929592945050506040919091013590565b60008060008060808587031215612da2578081fd5b8435612dad81613095565b93506020850135612dbd81613095565b93969395505050506040820135916060013590565b60008060408385031215612de4578182fd5b8235612def81613095565b946020939093013593505050565b60008060008060808587031215612e12578384fd5b8435612e1d81613095565b9350602085013592506040850135612e3481613095565b9396929550929360600135925050565b600080600060608486031215612e58578283fd5b8335612e6381613095565b95602085013595506040909401359392505050565b600060208284031215612e89578081fd5b81518015158114612d0e578182fd5b600060208284031215612ea9578081fd5b5035919050565b600060208284031215612ec1578081fd5b5051919050565b6001600160a01b039390931683526020830191909152604082015260600190565b6020808252602b908201527f73657450726f66697450657263656e746167653a206f6e6c792063616c6c616260408201526a363290313c9030b236b4b760a91b606082015260800190565b6020808252818101527f4f776e61626c653a2063616c6c6572206973206e6f7420746865206f776e6572604082015260600190565b60208082526024908201527f72657175657374556e7374616b653a20756e646566696e656420636f6c6c61746040820152631bdc985b60e21b606082015260800190565b60208082526029908201527f6465706f736974546f53747261746567793a206f6e6c792063616c6c61626c6560408201526810313c9030b236b4b760b91b606082015260800190565b600082198211156130095761300961307f565b500190565b60008261302957634e487b7160e01b81526012600452602481fd5b500490565b60008160001904831182151516156130485761304861307f565b500290565b60008282101561305f5761305f61307f565b500390565b60006000198214156130785761307861307f565b5060010190565b634e487b7160e01b600052601160045260246000fd5b6001600160a01b03811681146130aa57600080fd5b5056fea26469706673582212204cee56f483bd7efbeb26251857facfa0e5dae9934f51373e520eac348381bc8e64736f6c63430008020033",
  "immutableReferences": {},
  "source": "// SPDX-License-Identifier: MIT\r\npragma solidity ^0.8.2;\r\n\r\nimport \"@openzeppelin/contracts/access/Ownable.sol\";\r\nimport \"@openzeppelin/contracts/token/ERC20/IERC20.sol\";\r\nimport \"../interfaces/IStrategyController.sol\";\r\nimport \"../interfaces/IPriceConsumer.sol\";\r\n\r\ncontract OracleManager is Ownable {\r\n\r\n    struct WithdrawalInfo {\r\n        uint256 amount; // amount of staked token\r\n        uint256 timelock; // time till the asset is locked\r\n        address receiver; // token receiver\r\n        bool executed; // whether is executed\r\n        bool paused;    // whether is paused\r\n        uint256 pausedTime; // paused timestamp\r\n        uint256 collatoralId; // collatoral identifier\r\n    }\r\n\r\n    struct TransferInfo {\r\n        uint256 amount; // amount of transfer token\r\n        uint256 timelock; // time till the asset is locked\r\n        address oracleFrom; // oracle that token is transferred from\r\n        address oracleTo; // oracle that token is transferred to\r\n        bool executed; // whether is executed\r\n        uint256 collatoralId; // collatoral identifier\r\n    }\r\n\r\n    struct OracleInfo { // info of validator or delegator\r\n        mapping(uint256 => uint256) stake; // amount of stake per collatoral\r\n        address admin; // current oracle admin\r\n        uint256 withdrawalCount; // withdrawals count\r\n        uint256 transferCount;\r\n        mapping(uint256 => WithdrawalInfo) withdrawals; // list of withdrawal requests\r\n        mapping(uint256 => TransferInfo) transfers;\r\n        uint256 profitSharing;  // percentage of profit sharing.\r\n        uint256 usdAmountOfDelegation;\r\n        bool isOracle; // whether is oracles\r\n        bool isAbleToDelegate;\r\n        mapping(address => mapping(uint256 => uint256)) delegatorStakes; // delegator stakes per collatoral\r\n        mapping(uint256 => address) delegators; //delegator list\r\n        uint256 delegatorCount; //delegator count\r\n    }\r\n\r\n    struct Collatoral {\r\n        IERC20 token;\r\n        uint256 confiscatedFunds; // total confiscated tokens\r\n        uint256 totalLocked; // total staked tokens\r\n    }\r\n\r\n    struct Strategy {\r\n        address strategy;\r\n        uint256 stakeToken;\r\n        uint256 rewardToken;\r\n    }\r\n\r\n    mapping(address => OracleInfo) public getOracleInfo; // oracle address => oracle details\r\n    uint256 public timelock; // duration of withdrawal timelock\r\n    uint256 public timelockForDelegate = 2 weeks;\r\n    Collatoral[] public collatorals;\r\n    Strategy[] public strategies;\r\n    IStrategyController public strategyController;\r\n    IPriceConsumer public priceConsumer;\r\n\r\n    /* Events */\r\n    event Staked(address oracle, uint256 collatoralId, uint256 amount);\r\n    event UnstakeRequested(address oracle, uint256 collatoralId, address receipient, uint256 amount);\r\n    event UnstakeExecuted(address oracle, uint256 withdrawalId);\r\n    event UnstakeCancelled(address oracle, uint256 withdrawalId);\r\n    event UnstakePaused(address oracle, uint256 withdrawalId, uint256 timestamp);\r\n    event UnstakeResumed(address oracle, uint256 withdrawalId, uint256 timestamp);\r\n    event liquidated(address oracle, uint256 collatoralId, uint256 amount);\r\n    event depositedToStrategy(address oracle, uint256 amount, uint256 strategy, uint256 collatoralId);\r\n    event withdrawedFromStrategy(address oracle, uint256 amount, uint256 strategy, uint256 collatoralId);\r\n    event withdrawedFunds(address recipient, uint256 collatoralId, uint256 amount);\r\n    event TransferRequested(address delegator, uint256 transferId);\r\n    event TransferExecuted(address delegator, uint256 transferId);\r\n\r\n    /* PUBLIC */\r\n\r\n    /// @dev Constructor that initializes the most important configurations.\r\n    /// @param _timelock Duration of withdrawal timelock.\r\n    constructor(uint256 _timelock, IStrategyController _strategyController, IPriceConsumer _priceConsumer) Ownable() {\r\n        timelock = _timelock;\r\n        strategyController = _strategyController;\r\n        priceConsumer = _priceConsumer;\r\n    }\r\n\r\n    /// @dev Withdraws oracle reward.\r\n    /// @param _oracle Oracle address.\r\n    /// @param _collatoralId Index of collatoral\r\n    /// @param _amount Amount to withdraw.\r\n    function stake(address _oracle, uint256 _collatoralId, uint256 _amount) external {\r\n        OracleInfo storage oracle = getOracleInfo[_oracle];\r\n        require(\r\n            _collatoralId < collatorals.length,\r\n            \"stake: undefined collatoral\"\r\n        );\r\n        Collatoral storage collatoral = collatorals[_collatoralId];\r\n\r\n        uint256 totalUSDAmount = 0;\r\n        for (uint256 i = 0; i < oracle.delegatorCount; i ++) {\r\n            address delegator = oracle.delegators[i];\r\n            for (uint256 j = 0; j < collatorals.length; j ++) {\r\n                uint256 price = priceConsumer.getPriceOfToken(address(collatorals[j].token));\r\n                totalUSDAmount += oracle.delegatorStakes[delegator][j] * price;\r\n            }\r\n        }\r\n        OracleInfo storage sender = getOracleInfo[msg.sender];\r\n        if (sender.isOracle == false && msg.sender != oracle.admin) {\r\n            uint256 collatoralPrice = priceConsumer.getPriceOfToken(address(collatoral.token));\r\n            require(totalUSDAmount + collatoralPrice * _amount <= oracle.usdAmountOfDelegation, \"stake: amount of delegation is limited\");\r\n        }\r\n\r\n        require(\r\n            collatoral.token.transferFrom(msg.sender, address(this), _amount),\r\n            \"stake: transfer failed\"\r\n        );\r\n        oracle.stake[_collatoralId] += _amount;\r\n        collatoral.totalLocked += _amount;\r\n        if (msg.sender != oracle.admin) {\r\n            oracle.delegators[oracle.delegatorCount] = msg.sender;\r\n            oracle.delegatorCount ++;\r\n            oracle.delegatorStakes[msg.sender][_collatoralId] += _amount;\r\n        }\r\n        emit Staked(_oracle, _collatoralId, _amount);\r\n    }\r\n\r\n    /// @dev Withdraws oracle reward.\r\n    /// @param _oracle Oracle address.\r\n    /// @param _collatoralId Index of collatoral\r\n    /// @param _recipient Recepient reward.\r\n    /// @param _amount Amount to withdraw.\r\n    function requestUnstake(\r\n        address _oracle,\r\n        uint256 _collatoralId,\r\n        address _recipient,\r\n        uint256 _amount\r\n    ) external {\r\n        OracleInfo storage oracle = getOracleInfo[_oracle];\r\n        if (_amount == 0) {\r\n            return;\r\n        }\r\n        uint256 available = oracle.stake[_collatoralId];\r\n        require(\r\n            _collatoralId < collatorals.length,\r\n            \"requestUnstake: undefined collatoral\"\r\n        );\r\n        require(\r\n            available >= _amount,\r\n            \"requestUnstake: insufficient withdrawable funds\"\r\n        );\r\n        OracleInfo storage sender = getOracleInfo[msg.sender];\r\n        if (sender.isOracle == false && msg.sender != oracle.admin) {\r\n            require(oracle.delegatorStakes[msg.sender][_collatoralId] >= _amount, \"requestUnstake: insufficient amount\");\r\n            oracle.delegatorStakes[msg.sender][_collatoralId] -= _amount;\r\n        }\r\n        else require(msg.sender == oracle.admin, \"requestUnstake: only callable by admin\");\r\n\r\n        Collatoral storage collatoral = collatorals[_collatoralId];\r\n        oracle.stake[_collatoralId] = available - _amount;\r\n        collatoral.totalLocked -= _amount;\r\n\r\n        oracle.withdrawals[oracle.withdrawalCount] = WithdrawalInfo(\r\n            _amount,\r\n            block.timestamp + timelock,\r\n            _recipient,\r\n            false,\r\n            false,\r\n            0,\r\n            _collatoralId\r\n        );\r\n        oracle.withdrawalCount++;\r\n        emit UnstakeRequested(_oracle, _collatoralId, _recipient, _amount);\r\n    }\r\n\r\n    /// @dev Withdraw stake.\r\n    /// @param _oracle Oracle address.\r\n    /// @param _withdrawalId Withdrawal identifier.\r\n    function executeUnstake(address _oracle, uint256 _withdrawalId) external {\r\n        OracleInfo storage oracle = getOracleInfo[_oracle];\r\n        require(\r\n            oracle.admin == msg.sender,\r\n            \"executeUnstake: only callable by admin\"\r\n        );\r\n        require(\r\n            _withdrawalId < oracle.withdrawalCount,\r\n            \"executeUnstake: withdrawal not exists\"\r\n        );\r\n        WithdrawalInfo storage withdrawal = oracle.withdrawals[_withdrawalId];\r\n        require(!withdrawal.executed, \"executeUnstake: already executed\");\r\n        require(\r\n            withdrawal.timelock < block.timestamp,\r\n            \"executeUnstake: too early\"\r\n        );\r\n        withdrawal.executed = true;\r\n        Collatoral memory collatoral = collatorals[withdrawal.collatoralId];\r\n        require(\r\n            collatoral.token.transfer(withdrawal.receiver, withdrawal.amount),\r\n            \"executeUnstake: transfer failed\"\r\n        );\r\n\r\n        emit UnstakeExecuted(_oracle, _withdrawalId);\r\n    }\r\n    /**\r\n     * @dev request to move assets between oracles\r\n     * @param _oracleFrom Address of oracle sender\r\n     * @param _oracleTo Address of oracle receiver\r\n     * @param _collatoralId Id of collatoral\r\n     * @param _amount Amount of collatoral\r\n     */\r\n    function requestTransfer(address _oracleFrom, address _oracleTo, uint256 _collatoralId, uint256 _amount) external {\r\n        OracleInfo storage oracleFrom = getOracleInfo[_oracleFrom];\r\n        OracleInfo storage oracleTo = getOracleInfo[_oracleTo];\r\n\r\n        require(\r\n            _collatoralId < collatorals.length,\r\n            \"requestUnstake: undefined collatoral\"\r\n        );\r\n        OracleInfo storage sender = getOracleInfo[msg.sender];\r\n        require(sender.isOracle == false, \"requestTransfer: callable by delegator\");\r\n        require(oracleFrom.stake[_collatoralId] >= _amount, \"transferAssets: Insufficient amount\");\r\n        require(oracleFrom.delegatorStakes[msg.sender][_collatoralId] >= _amount, \"transferAssets: Insufficient amount for delegator\");\r\n        oracleFrom.stake[_collatoralId] -= _amount;\r\n        oracleTo.stake[_collatoralId] += _amount;\r\n        oracleFrom.delegatorStakes[msg.sender][_collatoralId] -= _amount;\r\n        oracleTo.delegatorStakes[msg.sender][_collatoralId] += _amount;\r\n        sender.transfers[sender.transferCount] = TransferInfo(\r\n            _amount,\r\n            block.timestamp + timelockForDelegate,\r\n            _oracleFrom,\r\n            _oracleTo,\r\n            false,\r\n            _collatoralId\r\n        );\r\n        oracleFrom.transferCount ++;\r\n        emit TransferRequested(msg.sender, sender.transferCount - 1);\r\n    }\r\n\r\n    /**\r\n     * @dev Execute transfer request\r\n     * @param _transferId Identifier of transfer\r\n     */\r\n    function executeTransfer(uint256 _transferId) external {\r\n        OracleInfo storage sender = getOracleInfo[msg.sender];\r\n\r\n        require(\r\n            sender.isOracle == false,\r\n            \"executeUnstake: callable by delegator\"\r\n        );\r\n        require(sender.transferCount > _transferId, \"executeTransfer: transfer request not exist\");\r\n        TransferInfo storage transfer = sender.transfers[_transferId];\r\n        require(!transfer.executed, \"executeUnstake: already executed\");\r\n        require(\r\n            transfer.timelock < block.timestamp,\r\n            \"executeUnstake: too early\"\r\n        );\r\n        transfer.executed = true;\r\n        emit TransferExecuted(msg.sender, _transferId);\r\n    }\r\n\r\n    /**\r\n     * @dev Stake token to strategies to earn rewards\r\n     * @param _oracle address of oracle\r\n     * @param _amount Amount to be staked\r\n     * @param _strategy strategy to stake into.\r\n     */\r\n    function depositToStrategy(address _oracle, uint256 _amount, uint256 _strategy) external {\r\n        OracleInfo storage oracle = getOracleInfo[_oracle];\r\n        require(msg.sender == oracle.admin, \"depositToStrategy: only callable by admin\");\r\n        Strategy memory strategy = strategies[_strategy];\r\n        Collatoral storage collatoral = collatorals[strategy.stakeToken];\r\n        require(oracle.stake[strategy.stakeToken] >= _amount, \"depositToStrategy: Insufficient fund\");\r\n        // strategyController.deposit(_strategy, address(collatoral.token), _amount);\r\n        oracle.stake[strategy.stakeToken] -= _amount;\r\n        emit depositedToStrategy(_oracle, _amount, _strategy, strategy.stakeToken);\r\n    }\r\n\r\n    /**\r\n     * @dev Earn from the strategy\r\n     */\r\n    function withdrawFromStrategy(address _oracle, uint256 _amount, uint256 _strategy) external {\r\n        OracleInfo storage oracle = getOracleInfo[_oracle];\r\n        require(msg.sender == oracle.admin, \"depositToStrategy: only callable by admin\");\r\n        Strategy memory strategy = strategies[_strategy];\r\n        Collatoral storage collatoral = collatorals[strategy.rewardToken];\r\n        // strategyController.withdraw(_strategy, address(collatoral.token), _amount);\r\n        oracle.stake[strategy.rewardToken] += _amount;\r\n        emit withdrawedFromStrategy(_oracle, _amount, _strategy, strategy.rewardToken);\r\n    }\r\n\r\n    /**\r\n     * @dev set percentage of profit sharing\r\n     * @param _profitSharing percentage of profit sharing\r\n     */\r\n    function setProfitSharing(address _oracle, uint256 _profitSharing) external {\r\n        OracleInfo storage oracle = getOracleInfo[_oracle];\r\n        require(msg.sender == oracle.admin, \"setProfitPercentage: only callable by admin\");\r\n        oracle.profitSharing = _profitSharing;\r\n    }\r\n\r\n    /**\r\n     * @dev set usd amount of delegation\r\n     * @param _oracle address of oracle\r\n     * @param _usdAmountOfDelegation usd amount of delegation\r\n     */\r\n    function setUsdAmountOfDelegation(address _oracle, uint256 _usdAmountOfDelegation) external {\r\n        OracleInfo storage oracle = getOracleInfo[_oracle];\r\n        require(msg.sender == oracle.admin, \"setProfitPercentage: only callable by admin\");\r\n        oracle.usdAmountOfDelegation = _usdAmountOfDelegation;\r\n    }\r\n\r\n    /* ADMIN */\r\n\r\n    /// @dev Change withdrawal timelock.\r\n    /// @param _newTimelock New timelock.\r\n    function setTimelock(uint256 _newTimelock) external onlyOwner() {\r\n        timelock = _newTimelock;\r\n    }\r\n\r\n    /**\r\n     * @dev Change timelock for delegate\r\n     * @param _newTimelock new timelock for delegate\r\n     */\r\n    function setTimelockForTransfer(uint256 _newTimelock) external onlyOwner() {\r\n        timelockForDelegate = _newTimelock;\r\n    }\r\n\r\n    /// @dev Add new oracle.\r\n    /// @param _oracle Oracle address.\r\n    /// @param _admin Admin address.\r\n    function addOracle(address _oracle, address _admin) external onlyOwner() {\r\n        getOracleInfo[_oracle].admin = _admin;\r\n        getOracleInfo[_oracle].isOracle = true;\r\n    }\r\n\r\n    /// @dev Add new delegator.\r\n    /// @param _delegator Oracle address.\r\n    function addDelegator(address _delegator) external onlyOwner() {\r\n        getOracleInfo[_delegator].admin = _delegator;\r\n        getOracleInfo[_delegator].isOracle = false;\r\n    }\r\n\r\n    /**\r\n     * @dev Add a new collatoral\r\n     * @param _token Address of token\r\n     */\r\n    function addCollatoral(IERC20 _token) external onlyOwner() {\r\n        collatorals.push(Collatoral(IERC20(_token), 0, 0));\r\n    }\r\n\r\n    /**\r\n     * @dev Add a new strategy\r\n     * @param _strategy address to strategy\r\n     * @param _stakeToken collatoralId of stakeToken\r\n     * @param _rewardToken collatoralId of rewardToken \r\n     */\r\n    function addStrategy(address _strategy, uint256 _stakeToken, uint256 _rewardToken) external onlyOwner() {\r\n        strategies.push(Strategy(_strategy, _stakeToken, _rewardToken));\r\n    }\r\n\r\n    /// @dev Cancel unstake.\r\n    /// @param _oracle Oracle address.\r\n    /// @param _withdrawalId Withdrawal identifier.\r\n    function cancelUnstake(address _oracle, uint256 _withdrawalId)\r\n        external\r\n        onlyOwner()\r\n    {\r\n        OracleInfo storage oracle = getOracleInfo[_oracle];\r\n        WithdrawalInfo storage withdrawal = oracle.withdrawals[_withdrawalId];\r\n        require(!withdrawal.executed, \"cancelUnstake: already executed\");\r\n        Collatoral storage collatoral = collatorals[withdrawal.collatoralId];\r\n        withdrawal.executed = true;\r\n        oracle.stake[withdrawal.collatoralId] += withdrawal.amount;\r\n        collatoral.totalLocked += withdrawal.amount;\r\n        UnstakeCancelled(_oracle, _withdrawalId);\r\n    }\r\n\r\n    /// @dev Withdraws confiscated tokens.\r\n    /// @param _oracle Oracle address.\r\n    /// @param _collatoralId Index of collatoral\r\n    /// @param _amount Amount to withdraw.\r\n    function liquidate(address _oracle, uint256 _collatoralId, uint256 _amount) external onlyOwner() {\r\n        OracleInfo storage oracle = getOracleInfo[_oracle];\r\n        require(oracle.stake[_collatoralId] >= _amount, \"liquidate: insufficient balance\");\r\n        Collatoral storage collatoral = collatorals[_collatoralId];\r\n        oracle.stake[_collatoralId] -= _amount;\r\n        collatoral.confiscatedFunds += _amount;\r\n        collatoral.totalLocked -= _amount;\r\n        liquidated(_oracle, _collatoralId, _amount);\r\n    }\r\n\r\n    /// @dev Withdraws confiscated tokens.\r\n    /// @param _recipient Recepient reward.\r\n    /// @param _amount Amount to withdraw.\r\n    function withdrawFunds(address _recipient, uint256 _collatoralId, uint256 _amount)\r\n        external\r\n        onlyOwner()\r\n    {\r\n        Collatoral storage collatoral = collatorals[_collatoralId];\r\n        require(\r\n            uint256(collatoral.confiscatedFunds) >= _amount,\r\n            \"withdrawFunds: insufficient reserve funds\"\r\n        );\r\n        require(\r\n            collatoral.token.transfer(_recipient, _amount),\r\n            \"withdrawFunds: transfer failed\"\r\n        );\r\n        collatoral.confiscatedFunds -= _amount;\r\n        emit withdrawedFunds(_recipient, _collatoralId, _amount);\r\n    }\r\n\r\n    /**\r\n     * @dev Pause unstaking request.\r\n     * @param _oracle address of oracle\r\n     * @param _withdrawalId withdrawal identifier\r\n     */\r\n    function pauseUnstake(address _oracle, uint256 _withdrawalId) external onlyOwner() {\r\n        OracleInfo storage oracle = getOracleInfo[_oracle];\r\n        uint256 i;\r\n        for (i = 0; i < oracle.withdrawalCount; i ++) {\r\n            WithdrawalInfo storage withdrawal = oracle.withdrawals[i];\r\n            if (withdrawal.paused == false && withdrawal.executed == false) {\r\n                withdrawal.paused = true;\r\n                withdrawal.pausedTime = block.timestamp;\r\n                emit UnstakePaused(_oracle, _withdrawalId, block.timestamp);\r\n            }\r\n        }\r\n    }\r\n\r\n    /**\r\n     * @dev Resume unstaking request.\r\n     * @param _oracle address of oracle\r\n     * @param _withdrawalId withdrawal identifier\r\n     */\r\n    function resumeUnstake(address _oracle, uint256 _withdrawalId) external onlyOwner() {\r\n        OracleInfo storage oracle = getOracleInfo[_oracle];\r\n        uint256 i;\r\n        for (i = 0; i < oracle.withdrawalCount; i ++) {\r\n            WithdrawalInfo storage withdrawal = oracle.withdrawals[_withdrawalId];\r\n            if (withdrawal.paused == true && withdrawal.executed == false) {\r\n                withdrawal.paused = false;\r\n                withdrawal.timelock += block.timestamp - withdrawal.pausedTime;\r\n                emit UnstakeResumed(_oracle, _withdrawalId, block.timestamp);\r\n            }\r\n        }\r\n    }\r\n\r\n    /**\r\n     * @dev Set strategy controller\r\n     * @param _strategyController address of strategy controller\r\n     */\r\n    function setStrategyController(IStrategyController _strategyController) external onlyOwner() {\r\n        strategyController = _strategyController;\r\n    }\r\n\r\n    /**\r\n     * @dev Set Price Consumer\r\n     * @param _priceConsumer address of price consumer\r\n     */\r\n    function setPriceConsumer(IPriceConsumer _priceConsumer) external onlyOwner() {\r\n        priceConsumer = _priceConsumer;\r\n    }\r\n\r\n    /**\r\n     * @dev accounts add assets to oracle\r\n     * @param _oracle address of oracle\r\n     * @param _collatoralId collatoralId oracle\r\n     * @param _amount amount of token\r\n     */\r\n    function account_asset(address _oracle, uint256 _collatoralId, uint256 _amount) public {\r\n        OracleInfo storage oracle = getOracleInfo[_oracle];\r\n        uint256 share = _amount * oracle.profitSharing / 100;\r\n        oracle.stake[_collatoralId] += _amount - share;\r\n\r\n        uint256 totalUSDAmount = 0;\r\n        uint256[] memory usdAmountPerDelegator;\r\n        for (uint256 i = 0; i < oracle.delegatorCount; i ++) {\r\n            address delegator = oracle.delegators[i];\r\n            for (uint256 j = 0; j < collatorals.length; j ++) {\r\n                uint256 price = priceConsumer.getPriceOfToken(address(collatorals[j].token));\r\n                usdAmountPerDelegator[i] += oracle.delegatorStakes[delegator][j] * price;\r\n            }\r\n            totalUSDAmount += usdAmountPerDelegator[i];\r\n        }\r\n        \r\n        Collatoral storage collatoral = collatorals[_collatoralId];\r\n        collatoral.totalLocked += _amount;\r\n        if (totalUSDAmount != 0) {\r\n            for (uint256 i = 0; i < oracle.delegatorCount; i ++) {\r\n                address delegator = oracle.delegators[i];\r\n                oracle.delegatorStakes[delegator][_collatoralId] += share * usdAmountPerDelegator[i] / totalUSDAmount;\r\n            }\r\n        }\r\n        else oracle.stake[_collatoralId] += share;\r\n    }\r\n\r\n    /// @dev Get withdrawal request.\r\n    /// @param _oracle Oracle address.\r\n    /// @param _withdrawalId Withdrawal identifier.\r\n    function getWithdrawalRequest(address _oracle, uint256 _withdrawalId)\r\n        public\r\n        view\r\n        returns (WithdrawalInfo memory)\r\n    {\r\n        return getOracleInfo[_oracle].withdrawals[_withdrawalId];\r\n    }\r\n\r\n    /**\r\n     * @dev Get transfer request\r\n     * @param _oracle Oracle address\r\n     * @param _transferId Transfer identifier\r\n     */\r\n    function getTransferRequest(address _oracle, uint256 _transferId) \r\n        public\r\n        view\r\n        returns (TransferInfo memory)\r\n    {\r\n        return getOracleInfo[_oracle].transfers[_transferId];\r\n    }\r\n\r\n    /** \r\n     * @dev get stake property of oracle\r\n     * @param _oracle address of oracle\r\n     * @param _collatoralId Index of collatoral\r\n     */\r\n    function getOracleStaking(address _oracle, uint256 _collatoralId) public view returns (uint256) {\r\n        return getOracleInfo[_oracle].stake[_collatoralId];\r\n    }\r\n\r\n    /**\r\n     * @dev get delegator stakes\r\n     * @param _oracle address of oracle\r\n     * @param _delegator address of delegator\r\n     * @param _collatoralId Index of collatoral\r\n     */\r\n    function getDelegatorStakes(address _oracle, address _delegator, uint256 _collatoralId) public view returns(uint256) {\r\n        return getOracleInfo[_oracle].delegatorStakes[_delegator][_collatoralId];\r\n    }\r\n\r\n    function min(uint256 a, uint256 b) internal pure returns(uint256) {\r\n        return a < b ? a : b;\r\n    }\r\n}\r\n",
  "sourcePath": "D:/Ethereum/Debridge/debridge-contracts-v1/contracts/oracles/OracleManager.sol",
  "compiler": {
    "name": "solc",
    "version": "0.8.2+commit.661d1103.Emscripten.clang"
  },
  "schemaVersion": "3.3.4",
  "updatedAt": "2021-06-22T22:42:13.040Z",
  "devdoc": {
    "kind": "dev",
    "methods": {
      "account_asset(address,uint256,uint256)": {
        "details": "accounts add assets to oracle",
        "params": {
          "_amount": "amount of token",
          "_collatoralId": "collatoralId oracle",
          "_oracle": "address of oracle"
        }
      },
      "addCollatoral(address)": {
        "details": "Add a new collatoral",
        "params": {
          "_token": "Address of token"
        }
      },
      "addDelegator(address)": {
        "details": "Add new delegator.",
        "params": {
          "_delegator": "Oracle address."
        }
      },
      "addOracle(address,address)": {
        "details": "Add new oracle.",
        "params": {
          "_admin": "Admin address.",
          "_oracle": "Oracle address."
        }
      },
      "addStrategy(address,uint256,uint256)": {
        "details": "Add a new strategy",
        "params": {
          "_rewardToken": "collatoralId of rewardToken ",
          "_stakeToken": "collatoralId of stakeToken",
          "_strategy": "address to strategy"
        }
      },
      "cancelUnstake(address,uint256)": {
        "details": "Cancel unstake.",
        "params": {
          "_oracle": "Oracle address.",
          "_withdrawalId": "Withdrawal identifier."
        }
      },
      "constructor": {
        "details": "Constructor that initializes the most important configurations.",
        "params": {
          "_timelock": "Duration of withdrawal timelock."
        }
      },
      "depositToStrategy(address,uint256,uint256)": {
        "details": "Stake token to strategies to earn rewards",
        "params": {
          "_amount": "Amount to be staked",
          "_oracle": "address of oracle",
          "_strategy": "strategy to stake into."
        }
      },
      "executeTransfer(uint256)": {
        "details": "Execute transfer request",
        "params": {
          "_transferId": "Identifier of transfer"
        }
      },
      "executeUnstake(address,uint256)": {
        "details": "Withdraw stake.",
        "params": {
          "_oracle": "Oracle address.",
          "_withdrawalId": "Withdrawal identifier."
        }
      },
      "getDelegatorStakes(address,address,uint256)": {
        "details": "get delegator stakes",
        "params": {
          "_collatoralId": "Index of collatoral",
          "_delegator": "address of delegator",
          "_oracle": "address of oracle"
        }
      },
      "getOracleStaking(address,uint256)": {
        "details": "get stake property of oracle",
        "params": {
          "_collatoralId": "Index of collatoral",
          "_oracle": "address of oracle"
        }
      },
      "getTransferRequest(address,uint256)": {
        "details": "Get transfer request",
        "params": {
          "_oracle": "Oracle address",
          "_transferId": "Transfer identifier"
        }
      },
      "getWithdrawalRequest(address,uint256)": {
        "details": "Get withdrawal request.",
        "params": {
          "_oracle": "Oracle address.",
          "_withdrawalId": "Withdrawal identifier."
        }
      },
      "liquidate(address,uint256,uint256)": {
        "details": "Withdraws confiscated tokens.",
        "params": {
          "_amount": "Amount to withdraw.",
          "_collatoralId": "Index of collatoral",
          "_oracle": "Oracle address."
        }
      },
      "owner()": {
        "details": "Returns the address of the current owner."
      },
      "pauseUnstake(address,uint256)": {
        "details": "Pause unstaking request.",
        "params": {
          "_oracle": "address of oracle",
          "_withdrawalId": "withdrawal identifier"
        }
      },
      "renounceOwnership()": {
        "details": "Leaves the contract without owner. It will not be possible to call `onlyOwner` functions anymore. Can only be called by the current owner. NOTE: Renouncing ownership will leave the contract without an owner, thereby removing any functionality that is only available to the owner."
      },
      "requestTransfer(address,address,uint256,uint256)": {
        "details": "request to move assets between oracles",
        "params": {
          "_amount": "Amount of collatoral",
          "_collatoralId": "Id of collatoral",
          "_oracleFrom": "Address of oracle sender",
          "_oracleTo": "Address of oracle receiver"
        }
      },
      "requestUnstake(address,uint256,address,uint256)": {
        "details": "Withdraws oracle reward.",
        "params": {
          "_amount": "Amount to withdraw.",
          "_collatoralId": "Index of collatoral",
          "_oracle": "Oracle address.",
          "_recipient": "Recepient reward."
        }
      },
      "resumeUnstake(address,uint256)": {
        "details": "Resume unstaking request.",
        "params": {
          "_oracle": "address of oracle",
          "_withdrawalId": "withdrawal identifier"
        }
      },
      "setPriceConsumer(address)": {
        "details": "Set Price Consumer",
        "params": {
          "_priceConsumer": "address of price consumer"
        }
      },
      "setProfitSharing(address,uint256)": {
        "details": "set percentage of profit sharing",
        "params": {
          "_profitSharing": "percentage of profit sharing"
        }
      },
      "setStrategyController(address)": {
        "details": "Set strategy controller",
        "params": {
          "_strategyController": "address of strategy controller"
        }
      },
      "setTimelock(uint256)": {
        "details": "Change withdrawal timelock.",
        "params": {
          "_newTimelock": "New timelock."
        }
      },
      "setTimelockForTransfer(uint256)": {
        "details": "Change timelock for delegate",
        "params": {
          "_newTimelock": "new timelock for delegate"
        }
      },
      "setUsdAmountOfDelegation(address,uint256)": {
        "details": "set usd amount of delegation",
        "params": {
          "_oracle": "address of oracle",
          "_usdAmountOfDelegation": "usd amount of delegation"
        }
      },
      "stake(address,uint256,uint256)": {
        "details": "Withdraws oracle reward.",
        "params": {
          "_amount": "Amount to withdraw.",
          "_collatoralId": "Index of collatoral",
          "_oracle": "Oracle address."
        }
      },
      "transferOwnership(address)": {
        "details": "Transfers ownership of the contract to a new account (`newOwner`). Can only be called by the current owner."
      },
      "withdrawFromStrategy(address,uint256,uint256)": {
        "details": "Earn from the strategy"
      },
      "withdrawFunds(address,uint256,uint256)": {
        "details": "Withdraws confiscated tokens.",
        "params": {
          "_amount": "Amount to withdraw.",
          "_recipient": "Recepient reward."
        }
      }
    },
    "version": 1
  },
  "userdoc": {
    "kind": "user",
    "methods": {},
    "version": 1
  }
}