{
  "contractName": "OracleManager",
  "abi": [
    {
      "inputs": [
        {
          "internalType": "contract IERC20",
          "name": "_token",
          "type": "address"
        },
        {
          "internalType": "uint256",
          "name": "_timelock",
          "type": "uint256"
        }
      ],
      "stateMutability": "nonpayable",
      "type": "constructor"
    },
    {
      "anonymous": false,
      "inputs": [
        {
          "indexed": true,
          "internalType": "address",
          "name": "previousOwner",
          "type": "address"
        },
        {
          "indexed": true,
          "internalType": "address",
          "name": "newOwner",
          "type": "address"
        }
      ],
      "name": "OwnershipTransferred",
      "type": "event"
    },
    {
      "inputs": [],
      "name": "confiscatedFunds",
      "outputs": [
        {
          "internalType": "uint256",
          "name": "",
          "type": "uint256"
        }
      ],
      "stateMutability": "view",
      "type": "function"
    },
    {
      "inputs": [
        {
          "internalType": "address",
          "name": "",
          "type": "address"
        }
      ],
      "name": "getOracleInfo",
      "outputs": [
        {
          "internalType": "uint256",
          "name": "stake",
          "type": "uint256"
        },
        {
          "internalType": "address",
          "name": "admin",
          "type": "address"
        },
        {
          "internalType": "uint256",
          "name": "withdrawalCount",
          "type": "uint256"
        }
      ],
      "stateMutability": "view",
      "type": "function"
    },
    {
      "inputs": [],
      "name": "owner",
      "outputs": [
        {
          "internalType": "address",
          "name": "",
          "type": "address"
        }
      ],
      "stateMutability": "view",
      "type": "function"
    },
    {
      "inputs": [],
      "name": "renounceOwnership",
      "outputs": [],
      "stateMutability": "nonpayable",
      "type": "function"
    },
    {
      "inputs": [],
      "name": "timelock",
      "outputs": [
        {
          "internalType": "uint256",
          "name": "",
          "type": "uint256"
        }
      ],
      "stateMutability": "view",
      "type": "function"
    },
    {
      "inputs": [],
      "name": "token",
      "outputs": [
        {
          "internalType": "contract IERC20",
          "name": "",
          "type": "address"
        }
      ],
      "stateMutability": "view",
      "type": "function"
    },
    {
      "inputs": [],
      "name": "totalLocked",
      "outputs": [
        {
          "internalType": "uint256",
          "name": "",
          "type": "uint256"
        }
      ],
      "stateMutability": "view",
      "type": "function"
    },
    {
      "inputs": [
        {
          "internalType": "address",
          "name": "newOwner",
          "type": "address"
        }
      ],
      "name": "transferOwnership",
      "outputs": [],
      "stateMutability": "nonpayable",
      "type": "function"
    },
    {
      "inputs": [
        {
          "internalType": "address",
          "name": "_oracle",
          "type": "address"
        },
        {
          "internalType": "uint256",
          "name": "_amount",
          "type": "uint256"
        }
      ],
      "name": "stake",
      "outputs": [],
      "stateMutability": "nonpayable",
      "type": "function"
    },
    {
      "inputs": [
        {
          "internalType": "address",
          "name": "_oracle",
          "type": "address"
        },
        {
          "internalType": "address",
          "name": "_recipient",
          "type": "address"
        },
        {
          "internalType": "uint256",
          "name": "_amount",
          "type": "uint256"
        }
      ],
      "name": "requestUnstake",
      "outputs": [],
      "stateMutability": "nonpayable",
      "type": "function"
    },
    {
      "inputs": [
        {
          "internalType": "address",
          "name": "_oracle",
          "type": "address"
        },
        {
          "internalType": "uint256",
          "name": "_withdrawalId",
          "type": "uint256"
        }
      ],
      "name": "executeUnstake",
      "outputs": [],
      "stateMutability": "nonpayable",
      "type": "function"
    },
    {
      "inputs": [
        {
          "internalType": "uint256",
          "name": "_newTimelock",
          "type": "uint256"
        }
      ],
      "name": "setTimelock",
      "outputs": [],
      "stateMutability": "nonpayable",
      "type": "function"
    },
    {
      "inputs": [
        {
          "internalType": "address",
          "name": "_oracle",
          "type": "address"
        },
        {
          "internalType": "address",
          "name": "_admin",
          "type": "address"
        }
      ],
      "name": "addOracle",
      "outputs": [],
      "stateMutability": "nonpayable",
      "type": "function"
    },
    {
      "inputs": [
        {
          "internalType": "address",
          "name": "_oracle",
          "type": "address"
        },
        {
          "internalType": "uint256",
          "name": "_withdrawalId",
          "type": "uint256"
        }
      ],
      "name": "cancelUnstake",
      "outputs": [],
      "stateMutability": "nonpayable",
      "type": "function"
    },
    {
      "inputs": [
        {
          "internalType": "address",
          "name": "_oracle",
          "type": "address"
        },
        {
          "internalType": "uint256",
          "name": "_amount",
          "type": "uint256"
        }
      ],
      "name": "liquidate",
      "outputs": [],
      "stateMutability": "nonpayable",
      "type": "function"
    },
    {
      "inputs": [
        {
          "internalType": "address",
          "name": "_recipient",
          "type": "address"
        },
        {
          "internalType": "uint256",
          "name": "_amount",
          "type": "uint256"
        }
      ],
      "name": "withdrawFunds",
      "outputs": [],
      "stateMutability": "nonpayable",
      "type": "function"
    },
    {
      "inputs": [
        {
          "internalType": "address",
          "name": "_oracle",
          "type": "address"
        },
        {
          "internalType": "uint256",
          "name": "_withdrawalId",
          "type": "uint256"
        }
      ],
      "name": "getWithdrawalRequest",
      "outputs": [
        {
          "components": [
            {
              "internalType": "uint256",
              "name": "amount",
              "type": "uint256"
            },
            {
              "internalType": "uint256",
              "name": "timelock",
              "type": "uint256"
            },
            {
              "internalType": "address",
              "name": "receiver",
              "type": "address"
            },
            {
              "internalType": "bool",
              "name": "executed",
              "type": "bool"
            }
          ],
          "internalType": "struct OracleManager.WithdrawalInfo",
          "name": "",
          "type": "tuple"
        }
      ],
      "stateMutability": "view",
      "type": "function"
    }
  ],
  "bytecode": "0x608060405234801561001057600080fd5b506040516110e33803806110e383398101604081905261002f91610099565b600080546001600160a01b031916339081178255604051909182917f8be0079c531659141344cd1fd0a4f28419497f9722a3daafe3b4186f6b6457e0908290a350600280546001600160a01b0319166001600160a01b0393909316929092179091556005556100d1565b600080604083850312156100ab578182fd5b82516001600160a01b03811681146100c1578283fd5b6020939093015192949293505050565b611003806100e06000396000f3fe608060405234801561001057600080fd5b506004361061010b5760003560e01c8063bcbaf487116100a2578063d33219b411610071578063d33219b414610246578063f0ca4adb1461024f578063f2847e6414610262578063f2fde38b14610339578063fc0c546a1461034c5761010b565b8063bcbaf487146101ba578063bfdb6b04146101cd578063c10753291461022a578063cbb7bef61461023d5761010b565b806356891412116100de578063568914121461015e578063715018a61461017a5780638da5cb5b14610182578063adc9772e146101a75761010b565b80631e891c0a146101105780631f3564d914610125578063376956b6146101385780634288d3aa1461014b575b600080fd5b61012361011e366004610f20565b61035f565b005b610123610133366004610ed7565b610397565b610123610146366004610ed7565b610492565b610123610159366004610e9c565b610723565b61016760045481565b6040519081526020015b60405180910390f35b6101236108f2565b6000546001600160a01b03165b6040516001600160a01b039091168152602001610171565b6101236101b5366004610ed7565b610966565b6101236101c8366004610ed7565b610a81565b6102076101db366004610e49565b60016020819052600091825260409091208054918101546002909101546001600160a01b039091169083565b604080519384526001600160a01b03909216602084015290820152606001610171565b610123610238366004610ed7565b610b6c565b61016760035481565b61016760055481565b61012361025d366004610e6a565b610ce7565b6102fb610270366004610ed7565b604080516080810182526000808252602082018190529181018290526060810191909152506001600160a01b0391821660009081526001602081815260408084209484526003909401815291839020835160808101855281548152918101549282019290925260029091015492831691810191909152600160a01b90910460ff161515606082015290565b604051610171919081518152602080830151908201526040808301516001600160a01b03169082015260609182015115159181019190915260800190565b610123610347366004610e49565b610d43565b60025461018f906001600160a01b031681565b6000546001600160a01b031633146103925760405162461bcd60e51b815260040161038990610f38565b60405180910390fd5b600555565b6000546001600160a01b031633146103c15760405162461bcd60e51b815260040161038990610f38565b6001600160a01b0382166000908152600160209081526040808320848452600381019092529091206002810154600160a01b900460ff16156104455760405162461bcd60e51b815260206004820152601f60248201527f63616e63656c556e7374616b653a20616c7265616479206578656375746564006044820152606401610389565b60028101805460ff60a01b1916600160a01b17905580548254839060009061046e908490610f6d565b9091555050805460048054600090610487908490610f6d565b909155505050505050565b6001600160a01b0380831660009081526001602081905260409091209081015490911633146105125760405162461bcd60e51b815260206004820152602660248201527f65786563757465556e7374616b653a206f6e6c792063616c6c61626c652062796044820152651030b236b4b760d11b6064820152608401610389565b806002015482106105735760405162461bcd60e51b815260206004820152602560248201527f65786563757465556e7374616b653a207769746864726177616c206e6f742065604482015264786973747360d81b6064820152608401610389565b600082815260038201602052604090206002810154600160a01b900460ff16156105df5760405162461bcd60e51b815260206004820181905260248201527f65786563757465556e7374616b653a20616c72656164792065786563757465646044820152606401610389565b428160010154106106325760405162461bcd60e51b815260206004820152601960248201527f65786563757465556e7374616b653a20746f6f206561726c79000000000000006044820152606401610389565b6002818101805460ff60a01b1916600160a01b17908190559054825460405163a9059cbb60e01b81526001600160a01b039384166004820152602481019190915291169063a9059cbb90604401602060405180830381600087803b15801561069957600080fd5b505af11580156106ad573d6000803e3d6000fd5b505050506040513d601f19601f820116820180604052508101906106d19190610f00565b61071d5760405162461bcd60e51b815260206004820152601f60248201527f65786563757465556e7374616b653a207472616e73666572206661696c6564006044820152606401610389565b50505050565b6001600160a01b0380841660009081526001602081905260409091209081015490911633146107a35760405162461bcd60e51b815260206004820152602660248201527f72657175657374556e7374616b653a206f6e6c792063616c6c61626c652062796044820152651030b236b4b760d11b6064820152608401610389565b816107ae57506108ed565b8054828110156108185760405162461bcd60e51b815260206004820152602f60248201527f72657175657374556e7374616b653a20696e73756666696369656e742077697460448201526e686472617761626c652066756e647360881b6064820152608401610389565b6108228382610f85565b825560048054849190600090610839908490610f85565b9250508190555060405180608001604052808481526020016005544261085f9190610f6d565b81526001600160a01b03808716602080840191909152600060409384018190526002808801805483526003890184528583208751815593870151600185015594860151920180546060909601511515600160a01b0260ff60a01b19939094166001600160a01b03199096169590951791909116919091179092558054916108e583610f9c565b919050555050505b505050565b6000546001600160a01b0316331461091c5760405162461bcd60e51b815260040161038990610f38565b600080546040516001600160a01b03909116907f8be0079c531659141344cd1fd0a4f28419497f9722a3daafe3b4186f6b6457e0908390a3600080546001600160a01b0319169055565b6001600160a01b038281166000908152600160205260409081902060025491516323b872dd60e01b815233600482015230602482015260448101859052909291909116906323b872dd90606401602060405180830381600087803b1580156109cd57600080fd5b505af11580156109e1573d6000803e3d6000fd5b505050506040513d601f19601f82011682018060405250810190610a059190610f00565b610a4a5760405162461bcd60e51b81526020600482015260166024820152751cdd185ad94e881d1c985b9cd9995c8819985a5b195960521b6044820152606401610389565b81816000016000828254610a5e9190610f6d565b925050819055508160046000828254610a779190610f6d565b9091555050505050565b6000546001600160a01b03163314610aab5760405162461bcd60e51b815260040161038990610f38565b6001600160a01b03821660009081526001602052604090208054821115610b265760405162461bcd60e51b815260206004820152602960248201527f6c69717569646174653a20696e73756666696369656e7420636f6e66697363616044820152681d1948185b5bdd5b9d60ba1b6064820152608401610389565b81816000016000828254610b3a9190610f85565b925050819055508160036000828254610b539190610f6d565b925050819055508160046000828254610a779190610f85565b6000546001600160a01b03163314610b965760405162461bcd60e51b815260040161038990610f38565b806003541015610bfa5760405162461bcd60e51b815260206004820152602960248201527f776974686472617746756e64733a20696e73756666696369656e7420726573656044820152687276652066756e647360b81b6064820152608401610389565b60025460405163a9059cbb60e01b81526001600160a01b038481166004830152602482018490529091169063a9059cbb90604401602060405180830381600087803b158015610c4857600080fd5b505af1158015610c5c573d6000803e3d6000fd5b505050506040513d601f19601f82011682018060405250810190610c809190610f00565b610ccc5760405162461bcd60e51b815260206004820152601e60248201527f776974686472617746756e64733a207472616e73666572206661696c656400006044820152606401610389565b8060036000828254610cde9190610f85565b90915550505050565b6000546001600160a01b03163314610d115760405162461bcd60e51b815260040161038990610f38565b6001600160a01b0391821660009081526001602081905260409091200180546001600160a01b03191691909216179055565b6000546001600160a01b03163314610d6d5760405162461bcd60e51b815260040161038990610f38565b6001600160a01b038116610dd25760405162461bcd60e51b815260206004820152602660248201527f4f776e61626c653a206e6577206f776e657220697320746865207a65726f206160448201526564647265737360d01b6064820152608401610389565b600080546040516001600160a01b03808516939216917f8be0079c531659141344cd1fd0a4f28419497f9722a3daafe3b4186f6b6457e091a3600080546001600160a01b0319166001600160a01b0392909216919091179055565b80356001600160a01b0381168114610e4457600080fd5b919050565b600060208284031215610e5a578081fd5b610e6382610e2d565b9392505050565b60008060408385031215610e7c578081fd5b610e8583610e2d565b9150610e9360208401610e2d565b90509250929050565b600080600060608486031215610eb0578081fd5b610eb984610e2d565b9250610ec760208501610e2d565b9150604084013590509250925092565b60008060408385031215610ee9578182fd5b610ef283610e2d565b946020939093013593505050565b600060208284031215610f11578081fd5b81518015158114610e63578182fd5b600060208284031215610f31578081fd5b5035919050565b6020808252818101527f4f776e61626c653a2063616c6c6572206973206e6f7420746865206f776e6572604082015260600190565b60008219821115610f8057610f80610fb7565b500190565b600082821015610f9757610f97610fb7565b500390565b6000600019821415610fb057610fb0610fb7565b5060010190565b634e487b7160e01b600052601160045260246000fdfea2646970667358221220ac778d6c3be76173af7f77158ccb0e9c5059d4f06dcb891d246baf63d7c0f6cc64736f6c63430008020033",
  "immutableReferences": {},
  "source": "// SPDX-License-Identifier: MIT\npragma solidity ^0.8.2;\n\nimport \"@openzeppelin/contracts/access/Ownable.sol\";\nimport \"@openzeppelin/contracts/token/ERC20/IERC20.sol\";\n\ncontract OracleManager is Ownable {\n    struct WithdrawalInfo {\n        uint256 amount; // amount of staked token\n        uint256 timelock; // time till the asset is locked\n        address receiver; // token receiver\n        bool executed; // whether is executed\n    }\n\n    struct OracleInfo {\n        uint256 stake; // amount of staked token\n        address admin; // current oracle admin\n        uint256 withdrawalCount; // withdrawals count\n        mapping(uint256 => WithdrawalInfo) withdrawals; // list of withdrawal requests\n    }\n\n    mapping(address => OracleInfo) public getOracleInfo; // oracle address => oracle details\n    IERC20 public token; // token address\n    uint256 public confiscatedFunds; // total confiscated tokens\n    uint256 public totalLocked; // total staked tokens\n    uint256 public timelock; // duration of withdrawal timelock\n\n    /* PUBLIC */\n\n    /// @dev Constructor that initializes the most important configurations.\n    /// @param _token Token to stake.\n    /// @param _timelock Duration of withdrawal timelock.\n    constructor(IERC20 _token, uint256 _timelock) Ownable() {\n        token = _token;\n        timelock = _timelock;\n    }\n\n    /// @dev Withdraws oracle reward.\n    /// @param _oracle Oracle address.\n    /// @param _amount Amount to withdraw.\n    function stake(address _oracle, uint256 _amount) external {\n        OracleInfo storage oracle = getOracleInfo[_oracle];\n        require(\n            token.transferFrom(msg.sender, address(this), _amount),\n            \"stake: transfer failed\"\n        );\n        oracle.stake += _amount;\n        totalLocked += _amount;\n    }\n\n    /// @dev Withdraws oracle reward.\n    /// @param _oracle Oracle address.\n    /// @param _recipient Recepient reward.\n    /// @param _amount Amount to withdraw.\n    function requestUnstake(\n        address _oracle,\n        address _recipient,\n        uint256 _amount\n    ) external {\n        OracleInfo storage oracle = getOracleInfo[_oracle];\n        require(\n            oracle.admin == msg.sender,\n            \"requestUnstake: only callable by admin\"\n        );\n        if (_amount == 0) {\n            return;\n        }\n        uint256 available = oracle.stake;\n        require(\n            available >= _amount,\n            \"requestUnstake: insufficient withdrawable funds\"\n        );\n        oracle.stake = available - _amount;\n        totalLocked -= _amount;\n        oracle.withdrawals[oracle.withdrawalCount] = WithdrawalInfo(\n            _amount,\n            block.timestamp + timelock,\n            _recipient,\n            false\n        );\n        oracle.withdrawalCount++;\n    }\n\n    /// @dev Withdraw stake.\n    /// @param _oracle Oracle address.\n    /// @param _withdrawalId Withdrawal identifier.\n    function executeUnstake(address _oracle, uint256 _withdrawalId) external {\n        OracleInfo storage oracle = getOracleInfo[_oracle];\n        require(\n            oracle.admin == msg.sender,\n            \"executeUnstake: only callable by admin\"\n        );\n        require(\n            _withdrawalId < oracle.withdrawalCount,\n            \"executeUnstake: withdrawal not exists\"\n        );\n        WithdrawalInfo storage withdrawal = oracle.withdrawals[_withdrawalId];\n        require(!withdrawal.executed, \"executeUnstake: already executed\");\n        require(\n            withdrawal.timelock < block.timestamp,\n            \"executeUnstake: too early\"\n        );\n        withdrawal.executed = true;\n        require(\n            token.transfer(withdrawal.receiver, withdrawal.amount),\n            \"executeUnstake: transfer failed\"\n        );\n    }\n\n    /* ADMIN */\n\n    /// @dev Change withdrawal timelock.\n    /// @param _newTimelock Oracle address.\n    function setTimelock(uint256 _newTimelock) external onlyOwner() {\n        timelock = _newTimelock;\n    }\n\n    /// @dev Add new oracle.\n    /// @param _oracle Oracle address.\n    /// @param _admin Admin address.\n    function addOracle(address _oracle, address _admin) external onlyOwner() {\n        getOracleInfo[_oracle].admin = _admin;\n    }\n\n    /// @dev Cancel unstake.\n    /// @param _oracle Oracle address.\n    /// @param _withdrawalId Withdrawal identifier.\n    function cancelUnstake(address _oracle, uint256 _withdrawalId)\n        external\n        onlyOwner()\n    {\n        OracleInfo storage oracle = getOracleInfo[_oracle];\n        WithdrawalInfo storage withdrawal = oracle.withdrawals[_withdrawalId];\n        require(!withdrawal.executed, \"cancelUnstake: already executed\");\n        withdrawal.executed = true;\n        oracle.stake += withdrawal.amount;\n        totalLocked += withdrawal.amount;\n    }\n\n    /// @dev Withdraws confiscated tokens.\n    /// @param _oracle Oracle address.\n    /// @param _amount Amount to withdraw.\n    function liquidate(address _oracle, uint256 _amount) external onlyOwner() {\n        OracleInfo storage oracle = getOracleInfo[_oracle];\n        require(\n            oracle.stake >= _amount,\n            \"liquidate: insufficient confiscate amount\"\n        );\n        oracle.stake -= _amount;\n        confiscatedFunds += _amount;\n        totalLocked -= _amount;\n    }\n\n    /// @dev Withdraws confiscated tokens.\n    /// @param _recipient Recepient reward.\n    /// @param _amount Amount to withdraw.\n    function withdrawFunds(address _recipient, uint256 _amount)\n        external\n        onlyOwner()\n    {\n        require(\n            uint256(confiscatedFunds) >= _amount,\n            \"withdrawFunds: insufficient reserve funds\"\n        );\n        require(\n            token.transfer(_recipient, _amount),\n            \"withdrawFunds: transfer failed\"\n        );\n        confiscatedFunds -= _amount;\n    }\n\n    /// @dev Get withdrawal request.\n    /// @param _oracle Oracle address.\n    /// @param _withdrawalId Withdrawal identifier.\n    function getWithdrawalRequest(address _oracle, uint256 _withdrawalId)\n        public\n        view\n        returns (WithdrawalInfo memory)\n    {\n        return getOracleInfo[_oracle].withdrawals[_withdrawalId];\n    }\n}\n",
  "sourcePath": "/Users/kstasi/Documents/side/debridge-contracts/contracts/oracles/OracleManager.sol",
  "compiler": {
    "name": "solc",
    "version": "0.8.2+commit.661d1103.Emscripten.clang"
  },
  "schemaVersion": "3.3.4",
  "updatedAt": "2021-04-27T06:19:41.399Z",
  "devdoc": {
    "kind": "dev",
    "methods": {
      "addOracle(address,address)": {
        "details": "Add new oracle.",
        "params": {
          "_admin": "Admin address.",
          "_oracle": "Oracle address."
        }
      },
      "cancelUnstake(address,uint256)": {
        "details": "Cancel unstake.",
        "params": {
          "_oracle": "Oracle address.",
          "_withdrawalId": "Withdrawal identifier."
        }
      },
      "constructor": {
        "details": "Constructor that initializes the most important configurations.",
        "params": {
          "_timelock": "Duration of withdrawal timelock.",
          "_token": "Token to stake."
        }
      },
      "executeUnstake(address,uint256)": {
        "details": "Withdraw stake.",
        "params": {
          "_oracle": "Oracle address.",
          "_withdrawalId": "Withdrawal identifier."
        }
      },
      "getWithdrawalRequest(address,uint256)": {
        "details": "Get withdrawal request.",
        "params": {
          "_oracle": "Oracle address.",
          "_withdrawalId": "Withdrawal identifier."
        }
      },
      "liquidate(address,uint256)": {
        "details": "Withdraws confiscated tokens.",
        "params": {
          "_amount": "Amount to withdraw.",
          "_oracle": "Oracle address."
        }
      },
      "owner()": {
        "details": "Returns the address of the current owner."
      },
      "renounceOwnership()": {
        "details": "Leaves the contract without owner. It will not be possible to call `onlyOwner` functions anymore. Can only be called by the current owner. NOTE: Renouncing ownership will leave the contract without an owner, thereby removing any functionality that is only available to the owner."
      },
      "requestUnstake(address,address,uint256)": {
        "details": "Withdraws oracle reward.",
        "params": {
          "_amount": "Amount to withdraw.",
          "_oracle": "Oracle address.",
          "_recipient": "Recepient reward."
        }
      },
      "setTimelock(uint256)": {
        "details": "Change withdrawal timelock.",
        "params": {
          "_newTimelock": "Oracle address."
        }
      },
      "stake(address,uint256)": {
        "details": "Withdraws oracle reward.",
        "params": {
          "_amount": "Amount to withdraw.",
          "_oracle": "Oracle address."
        }
      },
      "transferOwnership(address)": {
        "details": "Transfers ownership of the contract to a new account (`newOwner`). Can only be called by the current owner."
      },
      "withdrawFunds(address,uint256)": {
        "details": "Withdraws confiscated tokens.",
        "params": {
          "_amount": "Amount to withdraw.",
          "_recipient": "Recepient reward."
        }
      }
    },
    "version": 1
  },
  "userdoc": {
    "kind": "user",
    "methods": {},
    "version": 1
  }
}