{
  "contractName": "OracleManager",
  "abi": [
    {
      "inputs": [
        {
          "internalType": "uint256",
          "name": "_timelock",
          "type": "uint256"
        },
        {
          "internalType": "contract IStrategyController",
          "name": "_strategyController",
          "type": "address"
        },
        {
          "internalType": "contract IPriceConsumer",
          "name": "_priceConsumer",
          "type": "address"
        }
      ],
      "stateMutability": "nonpayable",
      "type": "constructor"
    },
    {
      "anonymous": false,
      "inputs": [
        {
          "indexed": false,
          "internalType": "address",
          "name": "oracle",
          "type": "address"
        },
        {
          "indexed": false,
          "internalType": "uint256",
          "name": "amount",
          "type": "uint256"
        },
        {
          "indexed": false,
          "internalType": "uint256",
          "name": "strategy",
          "type": "uint256"
        },
        {
          "indexed": false,
          "internalType": "address",
          "name": "collateral",
          "type": "address"
        }
      ],
      "name": "DepositedToStrategy",
      "type": "event"
    },
    {
      "anonymous": false,
      "inputs": [
        {
          "indexed": false,
          "internalType": "address",
          "name": "oracle",
          "type": "address"
        },
        {
          "indexed": false,
          "internalType": "address",
          "name": "collateral",
          "type": "address"
        },
        {
          "indexed": false,
          "internalType": "uint256",
          "name": "amount",
          "type": "uint256"
        }
      ],
      "name": "Liquidated",
      "type": "event"
    },
    {
      "anonymous": false,
      "inputs": [
        {
          "indexed": true,
          "internalType": "address",
          "name": "previousOwner",
          "type": "address"
        },
        {
          "indexed": true,
          "internalType": "address",
          "name": "newOwner",
          "type": "address"
        }
      ],
      "name": "OwnershipTransferred",
      "type": "event"
    },
    {
      "anonymous": false,
      "inputs": [
        {
          "indexed": false,
          "internalType": "address",
          "name": "oracle",
          "type": "address"
        },
        {
          "indexed": false,
          "internalType": "address",
          "name": "collateral",
          "type": "address"
        },
        {
          "indexed": false,
          "internalType": "uint256",
          "name": "amount",
          "type": "uint256"
        }
      ],
      "name": "Staked",
      "type": "event"
    },
    {
      "anonymous": false,
      "inputs": [
        {
          "indexed": false,
          "internalType": "address",
          "name": "delegator",
          "type": "address"
        },
        {
          "indexed": false,
          "internalType": "uint256",
          "name": "transferId",
          "type": "uint256"
        }
      ],
      "name": "TransferExecuted",
      "type": "event"
    },
    {
      "anonymous": false,
      "inputs": [
        {
          "indexed": false,
          "internalType": "address",
          "name": "delegator",
          "type": "address"
        },
        {
          "indexed": false,
          "internalType": "uint256",
          "name": "transferId",
          "type": "uint256"
        }
      ],
      "name": "TransferRequested",
      "type": "event"
    },
    {
      "anonymous": false,
      "inputs": [
        {
          "indexed": false,
          "internalType": "address",
          "name": "oracle",
          "type": "address"
        },
        {
          "indexed": false,
          "internalType": "uint256",
          "name": "withdrawalId",
          "type": "uint256"
        }
      ],
      "name": "UnstakeCancelled",
      "type": "event"
    },
    {
      "anonymous": false,
      "inputs": [
        {
          "indexed": false,
          "internalType": "address",
          "name": "oracle",
          "type": "address"
        },
        {
          "indexed": false,
          "internalType": "uint256",
          "name": "withdrawalId",
          "type": "uint256"
        }
      ],
      "name": "UnstakeExecuted",
      "type": "event"
    },
    {
      "anonymous": false,
      "inputs": [
        {
          "indexed": false,
          "internalType": "address",
          "name": "oracle",
          "type": "address"
        },
        {
          "indexed": false,
          "internalType": "uint256",
          "name": "withdrawalId",
          "type": "uint256"
        },
        {
          "indexed": false,
          "internalType": "uint256",
          "name": "timestamp",
          "type": "uint256"
        }
      ],
      "name": "UnstakePaused",
      "type": "event"
    },
    {
      "anonymous": false,
      "inputs": [
        {
          "indexed": false,
          "internalType": "address",
          "name": "oracle",
          "type": "address"
        },
        {
          "indexed": false,
          "internalType": "address",
          "name": "collateral",
          "type": "address"
        },
        {
          "indexed": false,
          "internalType": "address",
          "name": "receipient",
          "type": "address"
        },
        {
          "indexed": false,
          "internalType": "uint256",
          "name": "amount",
          "type": "uint256"
        }
      ],
      "name": "UnstakeRequested",
      "type": "event"
    },
    {
      "anonymous": false,
      "inputs": [
        {
          "indexed": false,
          "internalType": "address",
          "name": "oracle",
          "type": "address"
        },
        {
          "indexed": false,
          "internalType": "uint256",
          "name": "withdrawalId",
          "type": "uint256"
        },
        {
          "indexed": false,
          "internalType": "uint256",
          "name": "timestamp",
          "type": "uint256"
        }
      ],
      "name": "UnstakeResumed",
      "type": "event"
    },
    {
      "anonymous": false,
      "inputs": [
        {
          "indexed": false,
          "internalType": "address",
          "name": "oracle",
          "type": "address"
        },
        {
          "indexed": false,
          "internalType": "uint256",
          "name": "amount",
          "type": "uint256"
        },
        {
          "indexed": false,
          "internalType": "uint256",
          "name": "strategy",
          "type": "uint256"
        },
        {
          "indexed": false,
          "internalType": "address",
          "name": "collateral",
          "type": "address"
        }
      ],
      "name": "WithdrawedFromStrategy",
      "type": "event"
    },
    {
      "anonymous": false,
      "inputs": [
        {
          "indexed": false,
          "internalType": "address",
          "name": "recipient",
          "type": "address"
        },
        {
          "indexed": false,
          "internalType": "address",
          "name": "collateral",
          "type": "address"
        },
        {
          "indexed": false,
          "internalType": "uint256",
          "name": "amount",
          "type": "uint256"
        }
      ],
      "name": "WithdrawedFunds",
      "type": "event"
    },
    {
      "inputs": [
        {
          "internalType": "address",
          "name": "",
          "type": "address"
        }
      ],
      "name": "collaterals",
      "outputs": [
        {
          "internalType": "uint256",
          "name": "confiscatedFunds",
          "type": "uint256"
        },
        {
          "internalType": "uint256",
          "name": "totalLocked",
          "type": "uint256"
        },
        {
          "internalType": "bool",
          "name": "isSupported",
          "type": "bool"
        }
      ],
      "stateMutability": "view",
      "type": "function"
    },
    {
      "inputs": [
        {
          "internalType": "address",
          "name": "",
          "type": "address"
        }
      ],
      "name": "getOracleInfo",
      "outputs": [
        {
          "internalType": "address",
          "name": "admin",
          "type": "address"
        },
        {
          "internalType": "uint256",
          "name": "withdrawalCount",
          "type": "uint256"
        },
        {
          "internalType": "uint256",
          "name": "transferCount",
          "type": "uint256"
        },
        {
          "internalType": "uint256",
          "name": "profitSharing",
          "type": "uint256"
        },
        {
          "internalType": "uint256",
          "name": "usdAmountOfDelegation",
          "type": "uint256"
        },
        {
          "internalType": "bool",
          "name": "isOracle",
          "type": "bool"
        },
        {
          "internalType": "bool",
          "name": "isAbleToDelegate",
          "type": "bool"
        },
        {
          "internalType": "uint256",
          "name": "delegatorCount",
          "type": "uint256"
        }
      ],
      "stateMutability": "view",
      "type": "function"
    },
    {
      "inputs": [],
      "name": "owner",
      "outputs": [
        {
          "internalType": "address",
          "name": "",
          "type": "address"
        }
      ],
      "stateMutability": "view",
      "type": "function"
    },
    {
      "inputs": [],
      "name": "priceConsumer",
      "outputs": [
        {
          "internalType": "contract IPriceConsumer",
          "name": "",
          "type": "address"
        }
      ],
      "stateMutability": "view",
      "type": "function"
    },
    {
      "inputs": [],
      "name": "renounceOwnership",
      "outputs": [],
      "stateMutability": "nonpayable",
      "type": "function"
    },
    {
      "inputs": [
        {
          "internalType": "uint256",
          "name": "",
          "type": "uint256"
        }
      ],
      "name": "strategies",
      "outputs": [
        {
          "internalType": "address",
          "name": "strategy",
          "type": "address"
        },
        {
          "internalType": "address",
          "name": "stakeToken",
          "type": "address"
        },
        {
          "internalType": "address",
          "name": "rewardToken",
          "type": "address"
        }
      ],
      "stateMutability": "view",
      "type": "function"
    },
    {
      "inputs": [],
      "name": "strategyController",
      "outputs": [
        {
          "internalType": "contract IStrategyController",
          "name": "",
          "type": "address"
        }
      ],
      "stateMutability": "view",
      "type": "function"
    },
    {
      "inputs": [],
      "name": "strategyCount",
      "outputs": [
        {
          "internalType": "uint256",
          "name": "",
          "type": "uint256"
        }
      ],
      "stateMutability": "view",
      "type": "function"
    },
    {
      "inputs": [],
      "name": "timelock",
      "outputs": [
        {
          "internalType": "uint256",
          "name": "",
          "type": "uint256"
        }
      ],
      "stateMutability": "view",
      "type": "function"
    },
    {
      "inputs": [],
      "name": "timelockForDelegate",
      "outputs": [
        {
          "internalType": "uint256",
          "name": "",
          "type": "uint256"
        }
      ],
      "stateMutability": "view",
      "type": "function"
    },
    {
      "inputs": [
        {
          "internalType": "address",
          "name": "newOwner",
          "type": "address"
        }
      ],
      "name": "transferOwnership",
      "outputs": [],
      "stateMutability": "nonpayable",
      "type": "function"
    },
    {
      "inputs": [
        {
          "internalType": "address",
          "name": "_oracle",
          "type": "address"
        },
        {
          "internalType": "address",
          "name": "_collateral",
          "type": "address"
        },
        {
          "internalType": "uint256",
          "name": "_amount",
          "type": "uint256"
        }
      ],
      "name": "stake",
      "outputs": [],
      "stateMutability": "nonpayable",
      "type": "function"
    },
    {
      "inputs": [
        {
          "internalType": "address",
          "name": "_oracle",
          "type": "address"
        },
        {
          "internalType": "address",
          "name": "_collateral",
          "type": "address"
        },
        {
          "internalType": "address",
          "name": "_recipient",
          "type": "address"
        },
        {
          "internalType": "uint256",
          "name": "_amount",
          "type": "uint256"
        }
      ],
      "name": "requestUnstake",
      "outputs": [],
      "stateMutability": "nonpayable",
      "type": "function"
    },
    {
      "inputs": [
        {
          "internalType": "address",
          "name": "_oracle",
          "type": "address"
        },
        {
          "internalType": "uint256",
          "name": "_withdrawalId",
          "type": "uint256"
        }
      ],
      "name": "executeUnstake",
      "outputs": [],
      "stateMutability": "nonpayable",
      "type": "function"
    },
    {
      "inputs": [
        {
          "internalType": "address",
          "name": "_oracleFrom",
          "type": "address"
        },
        {
          "internalType": "address",
          "name": "_oracleTo",
          "type": "address"
        },
        {
          "internalType": "address",
          "name": "_collateral",
          "type": "address"
        },
        {
          "internalType": "uint256",
          "name": "_amount",
          "type": "uint256"
        }
      ],
      "name": "requestTransfer",
      "outputs": [],
      "stateMutability": "nonpayable",
      "type": "function"
    },
    {
      "inputs": [
        {
          "internalType": "uint256",
          "name": "_transferId",
          "type": "uint256"
        }
      ],
      "name": "executeTransfer",
      "outputs": [],
      "stateMutability": "nonpayable",
      "type": "function"
    },
    {
      "inputs": [
        {
          "internalType": "address",
          "name": "_oracle",
          "type": "address"
        },
        {
          "internalType": "uint256",
          "name": "_amount",
          "type": "uint256"
        },
        {
          "internalType": "uint256",
          "name": "_strategy",
          "type": "uint256"
        }
      ],
      "name": "depositToStrategy",
      "outputs": [],
      "stateMutability": "nonpayable",
      "type": "function"
    },
    {
      "inputs": [
        {
          "internalType": "address",
          "name": "_oracle",
          "type": "address"
        },
        {
          "internalType": "uint256",
          "name": "_amount",
          "type": "uint256"
        },
        {
          "internalType": "uint256",
          "name": "_strategy",
          "type": "uint256"
        }
      ],
      "name": "withdrawFromStrategy",
      "outputs": [],
      "stateMutability": "nonpayable",
      "type": "function"
    },
    {
      "inputs": [
        {
          "internalType": "address",
          "name": "_oracle",
          "type": "address"
        },
        {
          "internalType": "uint256",
          "name": "_profitSharing",
          "type": "uint256"
        }
      ],
      "name": "setProfitSharing",
      "outputs": [],
      "stateMutability": "nonpayable",
      "type": "function"
    },
    {
      "inputs": [
        {
          "internalType": "address",
          "name": "_oracle",
          "type": "address"
        },
        {
          "internalType": "uint256",
          "name": "_usdAmountOfDelegation",
          "type": "uint256"
        }
      ],
      "name": "setUsdAmountOfDelegation",
      "outputs": [],
      "stateMutability": "nonpayable",
      "type": "function"
    },
    {
      "inputs": [
        {
          "internalType": "uint256",
          "name": "_newTimelock",
          "type": "uint256"
        }
      ],
      "name": "setTimelock",
      "outputs": [],
      "stateMutability": "nonpayable",
      "type": "function"
    },
    {
      "inputs": [
        {
          "internalType": "uint256",
          "name": "_newTimelock",
          "type": "uint256"
        }
      ],
      "name": "setTimelockForTransfer",
      "outputs": [],
      "stateMutability": "nonpayable",
      "type": "function"
    },
    {
      "inputs": [
        {
          "internalType": "address",
          "name": "_oracle",
          "type": "address"
        },
        {
          "internalType": "address",
          "name": "_admin",
          "type": "address"
        }
      ],
      "name": "addOracle",
      "outputs": [],
      "stateMutability": "nonpayable",
      "type": "function"
    },
    {
      "inputs": [
        {
          "internalType": "address",
          "name": "_delegator",
          "type": "address"
        }
      ],
      "name": "addDelegator",
      "outputs": [],
      "stateMutability": "nonpayable",
      "type": "function"
    },
    {
      "inputs": [
        {
          "internalType": "address",
          "name": "_token",
          "type": "address"
        }
      ],
      "name": "addCollateral",
      "outputs": [],
      "stateMutability": "nonpayable",
      "type": "function"
    },
    {
      "inputs": [
        {
          "internalType": "address",
          "name": "_strategy",
          "type": "address"
        },
        {
          "internalType": "address",
          "name": "_stakeToken",
          "type": "address"
        },
        {
          "internalType": "address",
          "name": "_rewardToken",
          "type": "address"
        }
      ],
      "name": "addStrategy",
      "outputs": [],
      "stateMutability": "nonpayable",
      "type": "function"
    },
    {
      "inputs": [
        {
          "internalType": "address",
          "name": "_oracle",
          "type": "address"
        },
        {
          "internalType": "uint256",
          "name": "_withdrawalId",
          "type": "uint256"
        }
      ],
      "name": "cancelUnstake",
      "outputs": [],
      "stateMutability": "nonpayable",
      "type": "function"
    },
    {
      "inputs": [
        {
          "internalType": "address",
          "name": "_oracle",
          "type": "address"
        },
        {
          "internalType": "address",
          "name": "_collateral",
          "type": "address"
        },
        {
          "internalType": "uint256",
          "name": "_amount",
          "type": "uint256"
        }
      ],
      "name": "liquidate",
      "outputs": [],
      "stateMutability": "nonpayable",
      "type": "function"
    },
    {
      "inputs": [
        {
          "internalType": "address",
          "name": "_recipient",
          "type": "address"
        },
        {
          "internalType": "address",
          "name": "_collateral",
          "type": "address"
        },
        {
          "internalType": "uint256",
          "name": "_amount",
          "type": "uint256"
        }
      ],
      "name": "withdrawFunds",
      "outputs": [],
      "stateMutability": "nonpayable",
      "type": "function"
    },
    {
      "inputs": [
        {
          "internalType": "address",
          "name": "_oracle",
          "type": "address"
        },
        {
          "internalType": "uint256",
          "name": "_withdrawalId",
          "type": "uint256"
        }
      ],
      "name": "pauseUnstake",
      "outputs": [],
      "stateMutability": "nonpayable",
      "type": "function"
    },
    {
      "inputs": [
        {
          "internalType": "address",
          "name": "_oracle",
          "type": "address"
        },
        {
          "internalType": "uint256",
          "name": "_withdrawalId",
          "type": "uint256"
        }
      ],
      "name": "resumeUnstake",
      "outputs": [],
      "stateMutability": "nonpayable",
      "type": "function"
    },
    {
      "inputs": [
        {
          "internalType": "contract IStrategyController",
          "name": "_strategyController",
          "type": "address"
        }
      ],
      "name": "setStrategyController",
      "outputs": [],
      "stateMutability": "nonpayable",
      "type": "function"
    },
    {
      "inputs": [
        {
          "internalType": "contract IPriceConsumer",
          "name": "_priceConsumer",
          "type": "address"
        }
      ],
      "name": "setPriceConsumer",
      "outputs": [],
      "stateMutability": "nonpayable",
      "type": "function"
    },
    {
      "inputs": [
        {
          "internalType": "address",
          "name": "_oracle",
          "type": "address"
        },
        {
          "internalType": "address",
          "name": "_collateral",
          "type": "address"
        },
        {
          "internalType": "uint256",
          "name": "_amount",
          "type": "uint256"
        }
      ],
      "name": "account_asset",
      "outputs": [],
      "stateMutability": "nonpayable",
      "type": "function"
    },
    {
      "inputs": [
        {
          "internalType": "address",
          "name": "_oracle",
          "type": "address"
        },
        {
          "internalType": "uint256",
          "name": "_withdrawalId",
          "type": "uint256"
        }
      ],
      "name": "getWithdrawalRequest",
      "outputs": [
        {
          "components": [
            {
              "internalType": "uint256",
              "name": "amount",
              "type": "uint256"
            },
            {
              "internalType": "uint256",
              "name": "timelock",
              "type": "uint256"
            },
            {
              "internalType": "address",
              "name": "receiver",
              "type": "address"
            },
            {
              "internalType": "bool",
              "name": "executed",
              "type": "bool"
            },
            {
              "internalType": "bool",
              "name": "paused",
              "type": "bool"
            },
            {
              "internalType": "uint256",
              "name": "pausedTime",
              "type": "uint256"
            },
            {
              "internalType": "address",
              "name": "collateral",
              "type": "address"
            }
          ],
          "internalType": "struct OracleManager.WithdrawalInfo",
          "name": "",
          "type": "tuple"
        }
      ],
      "stateMutability": "view",
      "type": "function"
    },
    {
      "inputs": [
        {
          "internalType": "address",
          "name": "_oracle",
          "type": "address"
        },
        {
          "internalType": "uint256",
          "name": "_transferId",
          "type": "uint256"
        }
      ],
      "name": "getTransferRequest",
      "outputs": [
        {
          "components": [
            {
              "internalType": "uint256",
              "name": "amount",
              "type": "uint256"
            },
            {
              "internalType": "uint256",
              "name": "timelock",
              "type": "uint256"
            },
            {
              "internalType": "address",
              "name": "oracleFrom",
              "type": "address"
            },
            {
              "internalType": "address",
              "name": "oracleTo",
              "type": "address"
            },
            {
              "internalType": "bool",
              "name": "executed",
              "type": "bool"
            },
            {
              "internalType": "address",
              "name": "collateral",
              "type": "address"
            }
          ],
          "internalType": "struct OracleManager.TransferInfo",
          "name": "",
          "type": "tuple"
        }
      ],
      "stateMutability": "view",
      "type": "function"
    },
    {
      "inputs": [
        {
          "internalType": "address",
          "name": "_oracle",
          "type": "address"
        },
        {
          "internalType": "address",
          "name": "_collateral",
          "type": "address"
        }
      ],
      "name": "getOracleStaking",
      "outputs": [
        {
          "internalType": "uint256",
          "name": "",
          "type": "uint256"
        }
      ],
      "stateMutability": "view",
      "type": "function"
    },
    {
      "inputs": [
        {
          "internalType": "address",
          "name": "_oracle",
          "type": "address"
        },
        {
          "internalType": "address",
          "name": "_delegator",
          "type": "address"
        },
        {
          "internalType": "address",
          "name": "_collateral",
          "type": "address"
        }
      ],
      "name": "getDelegatorStakes",
      "outputs": [
        {
          "internalType": "uint256",
          "name": "",
          "type": "uint256"
        }
      ],
      "stateMutability": "view",
      "type": "function"
    }
  ],
  "bytecode": "0x6080604052621275006003553480156200001857600080fd5b5060405162003016380380620030168339810160408190526200003b91620000b4565b600080546001600160a01b031916339081178255604051909182917f8be0079c531659141344cd1fd0a4f28419497f9722a3daafe3b4186f6b6457e0908290a350600292909255600980546001600160a01b039283166001600160a01b031991821617909155600a805492909316911617905562000114565b600080600060608486031215620000c9578283fd5b835192506020840151620000dd81620000fb565b6040850151909250620000f081620000fb565b809150509250925092565b6001600160a01b03811681146200011157600080fd5b50565b612ef280620001246000396000f3fe608060405234801561001057600080fd5b50600436106102315760003560e01c8063a3ff53e211610130578063e56a2b67116100b8578063f0d2d5a81161007c578063f0d2d5a814610631578063f2847e6414610644578063f2fde38b1461077b578063f699d3791461078e578063ff3ab9c5146108a357610231565b8063e56a2b6714610596578063ea900ed3146105a9578063eeb97d3b146105bc578063f05d57521461060b578063f0ca4adb1461061e57610231565b8063bd9806d8116100ff578063bd9806d81461041d578063bf6eac2f14610464578063bfdb6b0414610477578063d33219b414610527578063d574ea3d1461053057610231565b8063a3ff53e2146103d1578063a4d5654d146103e4578063b2af098b146103f7578063b509ed701461040a57610231565b80632c417263116101be578063743a544111610182578063743a54411461034e57806380b69c8c146103875780638408f7451461039a57806386e76f73146103ad5780638da5cb5b146103c057610231565b80632c41726314610304578063376956b614610317578063437aef4b1461032a578063461a758c14610333578063715018a61461034657610231565b80631f3564d9116102055780631f3564d9146102a157806321fb4c35146102b457806322068b44146102c757806326c01303146102de57806328d2c3db146102f157610231565b8062258d6b1461023657806307550f2a146102665780631c20fadd1461027b5780631e891c0a1461028e575b600080fd5b600954610249906001600160a01b031681565b6040516001600160a01b0390911681526020015b60405180910390f35b610279610274366004612be3565b6108b6565b005b610279610289366004612ba3565b6109e8565b61027961029c366004612c62565b610bb6565b6102796102af366004612be3565b610be5565b6102796102c2366004612aae565b610d4b565b6102d060085481565b60405190815260200161025d565b6102796102ec366004612ba3565b610db1565b6102796102ff366004612be3565b610ef1565b610279610312366004612b53565b610f39565b610279610325366004612be3565b6113b3565b6102d060035481565b600a54610249906001600160a01b031681565b610279611681565b6102d061035c366004612ad1565b6001600160a01b03918216600090815260016020908152604080832093909416825291909152205490565b610279610395366004612be3565b6116f5565b6102796103a8366004612b53565b6117fe565b6102796103bb366004612aae565b611bf6565b6000546001600160a01b0316610249565b6102796103df366004612be3565b611c42565b6102796103f2366004612c0e565b611c8a565b610279610405366004612c0e565b611e32565b610279610418366004612c62565b611f5a565b6102d061042b366004612b09565b6001600160a01b039283166000908152600160209081526040808320948616835260099094018152838220929094168152925290205490565b610279610472366004612ba3565b611f89565b6104de610485366004612aae565b60016020819052600091825260409091209081015460028201546003830154600684015460078501546008860154600c909601546001600160a01b0390951695939492939192909160ff80821692610100909204169088565b604080516001600160a01b03909916895260208901979097529587019490945260608601929092526080850152151560a0840152151560c083015260e08201526101000161025d565b6102d060025481565b61056c61053e366004612c62565b6007602052600090815260409020805460018201546002909201546001600160a01b03918216928216911683565b604080516001600160a01b039485168152928416602084015292169181019190915260600161025d565b6102796105a4366004612aae565b612432565b6102796105b7366004612ba3565b61247e565b6105ee6105ca366004612aae565b60046020526000908152604090208054600182015460029092015490919060ff1683565b60408051938452602084019290925215159082015260600161025d565b610279610619366004612c62565b612626565b61027961062c366004612ad1565b61281c565b61027961063f366004612aae565b61288c565b610719610652366004612be3565b6040805160e081018252600080825260208201819052918101829052606081018290526080810182905260a0810182905260c0810191909152506001600160a01b0391821660009081526001602081815260408084209484526004948501825292839020835160e081018552815481529281015491830191909152600281015480861693830193909352600160a01b830460ff90811615156060840152600160a81b90930490921615156080820152600382015460a082015291015490911660c082015290565b604080518251815260208084015190820152828201516001600160a01b039081169282019290925260608084015115159082015260808084015115159082015260a0808401519082015260c0928301519091169181019190915260e00161025d565b610279610789366004612aae565b612928565b61084b61079c366004612be3565b6040805160c081018252600080825260208201819052918101829052606081018290526080810182905260a0810191909152506001600160a01b0391821660009081526001602081815260408084209484526005909401815291839020835160c081018552815481529181015492820192909252600282015484169281019290925260038101548084166060840152600160a01b900460ff16151560808301526004015490911660a082015290565b604080518251815260208084015190820152828201516001600160a01b039081169282019290925260608084015183169082015260808084015115159082015260a0928301519091169181019190915260c00161025d565b6102796108b1366004612b09565b612a12565b6000546001600160a01b031633146108e95760405162461bcd60e51b81526004016108e090612d46565b60405180910390fd5b6001600160a01b0382166000908152600160205260408120905b81600201548110156109e257600083815260048301602052604090206002810154600160a81b900460ff161515600114801561094b57506002810154600160a01b900460ff16155b156109cf5760028101805460ff60a81b19169055600381015461096e9042612e5f565b8160010160008282546109819190612e08565b9091555050604080516001600160a01b038716815260208101869052428183015290517f551a001dc50bd90c0a14e5b6426b5b5efeaf406db5f39b60875be6d037c022eb9181900360600190a15b50806109da81612e76565b915050610903565b50505050565b6000546001600160a01b03163314610a125760405162461bcd60e51b81526004016108e090612d46565b6001600160a01b03821660009081526004602052604090208054821115610a8d5760405162461bcd60e51b815260206004820152602960248201527f776974686472617746756e64733a20696e73756666696369656e7420726573656044820152687276652066756e647360b81b60648201526084016108e0565b60405163a9059cbb60e01b81526001600160a01b0385811660048301526024820184905284169063a9059cbb90604401602060405180830381600087803b158015610ad757600080fd5b505af1158015610aeb573d6000803e3d6000fd5b505050506040513d601f19601f82011682018060405250810190610b0f9190612c42565b610b5b5760405162461bcd60e51b815260206004820152601e60248201527f776974686472617746756e64733a207472616e73666572206661696c6564000060448201526064016108e0565b81816000016000828254610b6f9190612e5f565b90915550506040517fe61c2dc65a7e3f01243a6567d63f0160291fc888ea9714cefee0e82b0e7ff71890610ba890869086908690612c92565b60405180910390a150505050565b6000546001600160a01b03163314610be05760405162461bcd60e51b81526004016108e090612d46565b600255565b6000546001600160a01b03163314610c0f5760405162461bcd60e51b81526004016108e090612d46565b6001600160a01b0382166000908152600160209081526040808320848452600481019092529091206002810154600160a01b900460ff1615610c935760405162461bcd60e51b815260206004820152601f60248201527f63616e63656c556e7374616b653a20616c72656164792065786563757465640060448201526064016108e0565b6004818101546001600160a01b031660009081526020918252604080822060028501805460ff60a01b1916600160a01b17905584549386905290822080549193929091610ce1908490612e08565b90915550508154600182018054600090610cfc908490612e08565b9091555050604080516001600160a01b0387168152602081018690527f02fbe69eb5474cc010b6c0c236dd70755556cee48c19373e79147100e04de70b91015b60405180910390a15050505050565b6000546001600160a01b03163314610d755760405162461bcd60e51b81526004016108e090612d46565b6001600160a01b0316600081815260016020819052604090912090810180546001600160a01b031916909217909155600801805460ff19169055565b6000546001600160a01b03163314610ddb5760405162461bcd60e51b81526004016108e090612d46565b6001600160a01b038084166000908152600160209081526040808320938616835290839052902054821115610e525760405162461bcd60e51b815260206004820152601f60248201527f6c69717569646174653a20696e73756666696369656e742062616c616e63650060448201526064016108e0565b6001600160a01b0383166000908152600460209081526040808320918490528220805491928592610e84908490612e5f565b9091555050805483908290600090610e9d908490612e08565b9250508190555082816001016000828254610eb89190612e5f565b90915550506040517fde0aa27286f5cb3a4ed853dc4823ead62d63e92cdf13de09d6aece56970721a490610d3c90879087908790612c92565b6001600160a01b038281166000908152600160208190526040909120908101549091163314610f325760405162461bcd60e51b81526004016108e090612cfb565b6007015550565b6001600160a01b038416600090815260016020526040902081610f5c57506109e2565b6001600160a01b0384166000908152600460205260409020600281015460ff16610f985760405162461bcd60e51b81526004016108e090612d7b565b6001600160a01b038516600090815260208390526040902054838110156110195760405162461bcd60e51b815260206004820152602f60248201527f72657175657374556e7374616b653a20696e73756666696369656e742077697460448201526e686472617761626c652066756e647360881b60648201526084016108e0565b336000908152600160205260409020600881015460ff1615801561104a575060018401546001600160a01b03163314155b156111ae5733600090815260098501602090815260408083206001600160a01b038b1684529091529020548511156110d05760405162461bcd60e51b815260206004820152602360248201527f72657175657374556e7374616b653a20696e73756666696369656e7420616d6f6044820152621d5b9d60ea1b60648201526084016108e0565b33600090815260098501602090815260408083206001600160a01b038b16845290915281208054879290611105908490612e5f565b9091555050600a546040516311b5088f60e31b81526001600160a01b0389811660048301526000921690638da8447890602401602060405180830381600087803b15801561115257600080fd5b505af1158015611166573d6000803e3d6000fd5b505050506040513d601f19601f8201168201806040525081019061118a9190612c7a565b90506111968682612e40565b336000908152600a8701602052604090205550611219565b60018401546001600160a01b031633146112195760405162461bcd60e51b815260206004820152602660248201527f72657175657374556e7374616b653a206f6e6c792063616c6c61626c652062796044820152651030b236b4b760d11b60648201526084016108e0565b6112238583612e5f565b6001600160a01b038816600090815260208690526040812091909155600184018054879290611253908490612e5f565b925050819055506040518060e00160405280868152602001600254426112799190612e08565b81526001600160a01b0380891660208084019190915260006040808501829052606080860183905260808087018490528e861660a0978801526002808d01805486526004808f0188528587208b518155978b01516001890155948a01519187018054948b0151938b01511515600160a81b0260ff60a81b19941515600160a01b0260ff60a01b19948b166001600160a01b0319978816179490941693909317939093169190911790915595870151600385015560c09096015192018054929093169190941617905580549161134d83612e76565b9091555050604080516001600160a01b03808b168252808a166020830152881691810191909152606081018690527fbee4e9a3b61524ca70f68318d30f79c9347b997657b87a220c20eec7a59e6620906080015b60405180910390a15050505050505050565b6001600160a01b0380831660009081526001602081905260409091209081015490911633146114335760405162461bcd60e51b815260206004820152602660248201527f65786563757465556e7374616b653a206f6e6c792063616c6c61626c652062796044820152651030b236b4b760d11b60648201526084016108e0565b806002015482106114945760405162461bcd60e51b815260206004820152602560248201527f65786563757465556e7374616b653a207769746864726177616c206e6f742065604482015264786973747360d81b60648201526084016108e0565b600082815260048201602052604090206002810154600160a01b900460ff16156115005760405162461bcd60e51b815260206004820181905260248201527f65786563757465556e7374616b653a20616c726561647920657865637574656460448201526064016108e0565b428160010154106115535760405162461bcd60e51b815260206004820152601960248201527f65786563757465556e7374616b653a20746f6f206561726c790000000000000060448201526064016108e0565b60028101805460ff60a01b1916600160a01b1790819055600480830154835460405163a9059cbb60e01b81526001600160a01b03948516938101939093526024830152919091169063a9059cbb90604401602060405180830381600087803b1580156115be57600080fd5b505af11580156115d2573d6000803e3d6000fd5b505050506040513d601f19601f820116820180604052508101906115f69190612c42565b6116425760405162461bcd60e51b815260206004820152601f60248201527f65786563757465556e7374616b653a207472616e73666572206661696c65640060448201526064016108e0565b604080516001600160a01b0386168152602081018590527fe3e01bae44eb85a30bd61c3742b60e379576ff5070a142675f575f53d5bbc2e49101610ba8565b6000546001600160a01b031633146116ab5760405162461bcd60e51b81526004016108e090612d46565b600080546040516001600160a01b03909116907f8be0079c531659141344cd1fd0a4f28419497f9722a3daafe3b4186f6b6457e0908390a3600080546001600160a01b0319169055565b6000546001600160a01b0316331461171f5760405162461bcd60e51b81526004016108e090612d46565b6001600160a01b0382166000908152600160205260408120905b81600201548110156109e257600081815260048301602052604090206002810154600160a81b900460ff1615801561177d57506002810154600160a01b900460ff16155b156117eb5760028101805460ff60a81b1916600160a81b1790554260038201819055604080516001600160a01b038816815260208101879052908101919091527f6f380c85102b9cb64ee83468eff76d3d02638fc84dba6e0b286fe0deb4408bc39060600160405180910390a15b50806117f681612e76565b915050611739565b6001600160a01b038085166000908152600160208181526040808420888616855281852095881685526004835293819020815160608101835281548152938101549284019290925260029091015460ff1615159082018190529192916118765760405162461bcd60e51b81526004016108e090612d7b565b336000908152600160205260409020600881015460ff16156118e95760405162461bcd60e51b815260206004820152602660248201527f726571756573745472616e736665723a2063616c6c61626c652062792064656c60448201526532b3b0ba37b960d11b60648201526084016108e0565b6001600160a01b03861660009081526020859052604090205485111561195d5760405162461bcd60e51b815260206004820152602360248201527f7472616e736665724173736574733a20496e73756666696369656e7420616d6f6044820152621d5b9d60ea1b60648201526084016108e0565b33600090815260098501602090815260408083206001600160a01b038a1684529091529020548511156119ec5760405162461bcd60e51b815260206004820152603160248201527f7472616e736665724173736574733a20496e73756666696369656e7420616d6f6044820152703ab73a103337b9103232b632b3b0ba37b960791b60648201526084016108e0565b6001600160a01b03861660009081526020859052604081208054879290611a14908490612e5f565b90915550506001600160a01b03861660009081526020849052604081208054879290611a41908490612e08565b909155505033600090815260098501602090815260408083206001600160a01b038a16845290915281208054879290611a7b908490612e5f565b909155505033600090815260098401602090815260408083206001600160a01b038a16845290915281208054879290611ab5908490612e08565b925050819055506040518060c0016040528086815260200160035442611adb9190612e08565b81526001600160a01b03808b166020808401919091528a8216604080850191909152600060608086018290528c851660809687015260038089018054845260058a01865284842089518155958901516001870155938801516002860180549188166001600160a01b0319928316179055918801519085018054978901511515600160a01b0260ff60a01b1992881698841698909817919091169690961790955560a090950151600490920180549290931691909316179055805491611b9f83612e76565b91905055507f52ad287b15e67700db062c247036c3a0d6c313b231a9d078ef26ebdac206958b3360018360030154611bd79190612e5f565b604080516001600160a01b0390931683526020830191909152016113a1565b6000546001600160a01b03163314611c205760405162461bcd60e51b81526004016108e090612d46565b600a80546001600160a01b0319166001600160a01b0392909216919091179055565b6001600160a01b038281166000908152600160208190526040909120908101549091163314611c835760405162461bcd60e51b81526004016108e090612cfb565b6006015550565b6001600160a01b038381166000908152600160208190526040909120908101549091163314611ccb5760405162461bcd60e51b81526004016108e090612dbf565b600854821115611ced5760405162461bcd60e51b81526004016108e090612cb6565b6000828152600760209081526040808320815160608101835281546001600160a01b03908116825260018301548116828601818152600290940154821683860152865260048552838620925116855292859052922054909190851115611da15760405162461bcd60e51b8152602060048201526024808201527f6465706f736974546f53747261746567793a20496e73756666696369656e7420604482015263199d5b9960e21b60648201526084016108e0565b6020808301516001600160a01b0316600090815290849052604081208054879290611dcd908490612e5f565b9091555050602082810151604080516001600160a01b03808b168252938101899052908101879052911660608201527ff7b1ebb5d395f2f098924b931da3a29946c46015da48e143be17270198f2beae906080015b60405180910390a1505050505050565b6001600160a01b038381166000908152600160208190526040909120908101549091163314611e735760405162461bcd60e51b81526004016108e090612dbf565b600854821115611e955760405162461bcd60e51b81526004016108e090612cb6565b6000828152600760209081526040808320815160608101835281546001600160a01b03908116825260018301548116828601526002909201548216818401818152908652600485528386209051909216855292859052908320805492939192879290611f02908490612e08565b909155505060408083015181516001600160a01b03808a16825260208201899052928101879052911660608201527f1a71b532a36506a1a83083b4ec87d3d49541aeeedfdce811901fc02a2c56df2190608001611e22565b6000546001600160a01b03163314611f845760405162461bcd60e51b81526004016108e090612d46565b600355565b6001600160a01b038084166000908152600160209081526040808320938616835260049091529020600281015460ff166120055760405162461bcd60e51b815260206004820152601b60248201527f7374616b653a20756e646566696e656420636f6c6c61746572616c000000000060448201526064016108e0565b6000805b83600c0154811015612060576000818152600b850160209081526040808320546001600160a01b0316808452600a88019092529091205461204a9084612e08565b925050808061205890612e76565b915050612009565b50336000908152600160205260409020600881015460ff16158015612092575060018401546001600160a01b03163314155b1561219257600a546040516311b5088f60e31b81526001600160a01b0388811660048301526000921690638da8447890602401602060405180830381600087803b1580156120df57600080fd5b505af11580156120f3573d6000803e3d6000fd5b505050506040513d601f19601f820116820180604052508101906121179190612c7a565b60078601549091506121298783612e40565b6121339085612e08565b11156121905760405162461bcd60e51b815260206004820152602660248201527f7374616b653a20616d6f756e74206f662064656c65676174696f6e206973206c6044820152651a5b5a5d195960d21b60648201526084016108e0565b505b6040516323b872dd60e01b81526001600160a01b038716906323b872dd906121c290339030908a90600401612c92565b602060405180830381600087803b1580156121dc57600080fd5b505af11580156121f0573d6000803e3d6000fd5b505050506040513d601f19601f820116820180604052508101906122149190612c42565b6122595760405162461bcd60e51b81526020600482015260166024820152751cdd185ad94e881d1c985b9cd9995c8819985a5b195960521b60448201526064016108e0565b6001600160a01b03861660009081526020859052604081208054879290612281908490612e08565b925050819055508483600101600082825461229c9190612e08565b9091555050600881015460ff161580156122c3575060018401546001600160a01b03163314155b156123ee57600c840180546000908152600b86016020526040812080546001600160a01b03191633179055815491906122fb83612e76565b909155505033600090815260098501602090815260408083206001600160a01b038a16845290915281208054879290612335908490612e08565b9091555050600a546040516311b5088f60e31b81526001600160a01b0388811660048301526000921690638da8447890602401602060405180830381600087803b15801561238257600080fd5b505af1158015612396573d6000803e3d6000fd5b505050506040513d601f19601f820116820180604052508101906123ba9190612c7a565b90506123c68187612e40565b336000908152600a87016020526040812080549091906123e7908490612e08565b9091555050505b7f5dac0c1b1112564a045ba943c9d50270893e8e826c49be8e7073adc713ab7bd787878760405161242193929190612c92565b60405180910390a150505050505050565b6000546001600160a01b0316331461245c5760405162461bcd60e51b81526004016108e090612d46565b600980546001600160a01b0319166001600160a01b0392909216919091179055565b6001600160a01b038316600090815260016020526040812060068101549091906064906124ab9085612e40565b6124b59190612e20565b90506000805b83600c0154811015612512576000818152600b850160209081526040808320546001600160a01b0316808452600a8801909252909120546124fc9084612e08565b925050808061250a90612e76565b9150506124bb565b506001600160a01b038516600090815260046020526040812060018101805491928792612540908490612e08565b90915550506001600160a01b0386166000908152602085905260408120805487929061256d908490612e08565b9091555050811561261d5760005b84600c015481101561261b576000818152600b860160209081526040808320546001600160a01b0316808452600a89019092529091205484906125be9087612e40565b6125c89190612e20565b6001600160a01b0380831660009081526009890160209081526040808320938d1683529290529081208054909190612601908490612e08565b90915550829150612613905081612e76565b91505061257b565b505b50505050505050565b336000908152600160205260409020600881015460ff16156126995760405162461bcd60e51b815260206004820152602660248201527f657865637574655472616e736665723a2063616c6c61626c652062792064656c60448201526532b3b0ba37b960d11b60648201526084016108e0565b818160030154116127005760405162461bcd60e51b815260206004820152602b60248201527f657865637574655472616e736665723a207472616e736665722072657175657360448201526a1d081b9bdd08195e1a5cdd60aa1b60648201526084016108e0565b600082815260058201602052604090206003810154600160a01b900460ff16156127765760405162461bcd60e51b815260206004820152602160248201527f657865637574655472616e736665723a20616c726561647920657865637574656044820152601960fa1b60648201526084016108e0565b428160010154106127c95760405162461bcd60e51b815260206004820152601a60248201527f657865637574655472616e736665723a20746f6f206561726c7900000000000060448201526064016108e0565b60038101805460ff60a01b1916600160a01b17905560408051338152602081018590527f9a1fd8511a9f728f23ed3cb955318fe1f8b2bc7c3aeea602c7f7ecf959a46939910160405180910390a1505050565b6000546001600160a01b031633146128465760405162461bcd60e51b81526004016108e090612d46565b6001600160a01b03918216600090815260016020819052604090912080820180546001600160a01b0319169390941692909217909255600801805460ff19169091179055565b6000546001600160a01b031633146128b65760405162461bcd60e51b81526004016108e090612d46565b60005b6005548110156128fd576000818152600660205260409020546001600160a01b03838116911614156128eb5750612925565b806128f581612e76565b9150506128b9565b506001600160a01b0381166000908152600460205260409020600201805460ff191660011790555b50565b6000546001600160a01b031633146129525760405162461bcd60e51b81526004016108e090612d46565b6001600160a01b0381166129b75760405162461bcd60e51b815260206004820152602660248201527f4f776e61626c653a206e6577206f776e657220697320746865207a65726f206160448201526564647265737360d01b60648201526084016108e0565b600080546040516001600160a01b03808516939216917f8be0079c531659141344cd1fd0a4f28419497f9722a3daafe3b4186f6b6457e091a3600080546001600160a01b0319166001600160a01b0392909216919091179055565b6000546001600160a01b03163314612a3c5760405162461bcd60e51b81526004016108e090612d46565b6008805460009081526007602052604080822080546001600160a01b038089166001600160a01b0319928316179092558454845282842060010180548884169083161790558454845291832060020180549186169190921617905581549190612aa483612e76565b9190505550505050565b600060208284031215612abf578081fd5b8135612aca81612ea7565b9392505050565b60008060408385031215612ae3578081fd5b8235612aee81612ea7565b91506020830135612afe81612ea7565b809150509250929050565b600080600060608486031215612b1d578081fd5b8335612b2881612ea7565b92506020840135612b3881612ea7565b91506040840135612b4881612ea7565b809150509250925092565b60008060008060808587031215612b68578081fd5b8435612b7381612ea7565b93506020850135612b8381612ea7565b92506040850135612b9381612ea7565b9396929550929360600135925050565b600080600060608486031215612bb7578283fd5b8335612bc281612ea7565b92506020840135612bd281612ea7565b929592945050506040919091013590565b60008060408385031215612bf5578182fd5b8235612c0081612ea7565b946020939093013593505050565b600080600060608486031215612c22578283fd5b8335612c2d81612ea7565b95602085013595506040909401359392505050565b600060208284031215612c53578081fd5b81518015158114612aca578182fd5b600060208284031215612c73578081fd5b5035919050565b600060208284031215612c8b578081fd5b5051919050565b6001600160a01b039384168152919092166020820152604081019190915260600190565b60208082526025908201527f6465706f736974546f53747261746567793a207374726174656779206e6f7420604082015264195e1a5cdd60da1b606082015260800190565b6020808252602b908201527f73657450726f66697450657263656e746167653a206f6e6c792063616c6c616260408201526a363290313c9030b236b4b760a91b606082015260800190565b6020808252818101527f4f776e61626c653a2063616c6c6572206973206e6f7420746865206f776e6572604082015260600190565b60208082526024908201527f72657175657374556e7374616b653a20756e646566696e656420636f6c6c6174604082015263195c985b60e21b606082015260800190565b60208082526029908201527f6465706f736974546f53747261746567793a206f6e6c792063616c6c61626c6560408201526810313c9030b236b4b760b91b606082015260800190565b60008219821115612e1b57612e1b612e91565b500190565b600082612e3b57634e487b7160e01b81526012600452602481fd5b500490565b6000816000190483118215151615612e5a57612e5a612e91565b500290565b600082821015612e7157612e71612e91565b500390565b6000600019821415612e8a57612e8a612e91565b5060010190565b634e487b7160e01b600052601160045260246000fd5b6001600160a01b038116811461292557600080fdfea26469706673582212208b1621b675262865678b724656e8a12a4bcf7454aa9d617c58f971bffb38e50164736f6c63430008020033",
  "immutableReferences": {},
  "source": "// SPDX-License-Identifier: MIT\r\npragma solidity ^0.8.2;\r\n\r\nimport \"@openzeppelin/contracts/access/Ownable.sol\";\r\nimport \"@openzeppelin/contracts/token/ERC20/IERC20.sol\";\r\nimport \"../interfaces/IStrategyController.sol\";\r\nimport \"../interfaces/IPriceConsumer.sol\";\r\n\r\ncontract OracleManager is Ownable {\r\n\r\n    struct WithdrawalInfo {\r\n        uint256 amount; // amount of staked token\r\n        uint256 timelock; // time till the asset is locked\r\n        address receiver; // token receiver\r\n        bool executed; // whether is executed\r\n        bool paused;    // whether is paused\r\n        uint256 pausedTime; // paused timestamp\r\n        address collateral; // collateral identifier\r\n    }\r\n\r\n    struct TransferInfo {\r\n        uint256 amount; // amount of transfer token\r\n        uint256 timelock; // time till the asset is locked\r\n        address oracleFrom; // oracle that token is transferred from\r\n        address oracleTo; // oracle that token is transferred to\r\n        bool executed; // whether is executed\r\n        address collateral; // collateral identifier\r\n    }\r\n\r\n    struct OracleInfo { // info of validator or delegator\r\n        mapping(address => uint256) stake; // amount of stake per collateral\r\n        address admin; // current oracle admin\r\n        uint256 withdrawalCount; // withdrawals count\r\n        uint256 transferCount;\r\n        mapping(uint256 => WithdrawalInfo) withdrawals; // list of withdrawal requests\r\n        mapping(uint256 => TransferInfo) transfers;\r\n        uint256 profitSharing;  // percentage of profit sharing.\r\n        uint256 usdAmountOfDelegation;\r\n        bool isOracle; // whether is oracles\r\n        bool isAbleToDelegate;\r\n        mapping(address => mapping(address => uint256)) delegatorStakes; // delegator stakes per collateral\r\n        mapping(address => uint256) delegatorUSDAmounts;\r\n        mapping(uint256 => address) delegators; //delegator list\r\n        uint256 delegatorCount; //delegator count\r\n    }\r\n\r\n    struct Collateral {\r\n        uint256 confiscatedFunds; // total confiscated tokens\r\n        uint256 totalLocked; // total staked tokens\r\n        bool isSupported;\r\n    }\r\n\r\n    struct Strategy {\r\n        address strategy;\r\n        address stakeToken;\r\n        address rewardToken;\r\n    }\r\n\r\n    mapping(address => OracleInfo) public getOracleInfo; // oracle address => oracle details\r\n    uint256 public timelock; // duration of withdrawal timelock\r\n    uint256 public timelockForDelegate = 2 weeks;\r\n    mapping(address => Collateral) public collaterals;\r\n    uint256 collateralCount;\r\n    mapping(uint256 => address) collateralAddresses;\r\n    mapping(uint256 => Strategy) public strategies;\r\n    uint256 public strategyCount;\r\n    IStrategyController public strategyController;\r\n    IPriceConsumer public priceConsumer;\r\n\r\n    /* Events */\r\n    event Staked(address oracle, address collateral, uint256 amount);\r\n    event UnstakeRequested(address oracle, address collateral, address receipient, uint256 amount);\r\n    event UnstakeExecuted(address oracle, uint256 withdrawalId);\r\n    event UnstakeCancelled(address oracle, uint256 withdrawalId);\r\n    event UnstakePaused(address oracle, uint256 withdrawalId, uint256 timestamp);\r\n    event UnstakeResumed(address oracle, uint256 withdrawalId, uint256 timestamp);\r\n    event Liquidated(address oracle, address collateral, uint256 amount);\r\n    event DepositedToStrategy(address oracle, uint256 amount, uint256 strategy, address collateral);\r\n    event WithdrawedFromStrategy(address oracle, uint256 amount, uint256 strategy, address collateral);\r\n    event WithdrawedFunds(address recipient, address collateral, uint256 amount);\r\n    event TransferRequested(address delegator, uint256 transferId);\r\n    event TransferExecuted(address delegator, uint256 transferId);\r\n\r\n    /* PUBLIC */\r\n\r\n    /// @dev Constructor that initializes the most important configurations.\r\n    /// @param _timelock Duration of withdrawal timelock.\r\n    constructor(uint256 _timelock, IStrategyController _strategyController, IPriceConsumer _priceConsumer) Ownable() {\r\n        timelock = _timelock;\r\n        strategyController = _strategyController;\r\n        priceConsumer = _priceConsumer;\r\n    }\r\n\r\n    /// @dev Withdraws oracle reward.\r\n    /// @param _oracle Oracle address.\r\n    /// @param _collateral address of collateral\r\n    /// @param _amount Amount to withdraw.\r\n    function stake(address _oracle, address _collateral, uint256 _amount) external {\r\n        OracleInfo storage oracle = getOracleInfo[_oracle];\r\n        Collateral storage collateral = collaterals[_collateral];\r\n        require(\r\n            collateral.isSupported,\r\n            \"stake: undefined collateral\"\r\n        );\r\n\r\n        uint256 totalUSDAmount = 0;\r\n        for (uint256 i = 0; i < oracle.delegatorCount; i ++) {\r\n            address delegator = oracle.delegators[i];\r\n            totalUSDAmount += oracle.delegatorUSDAmounts[delegator];\r\n        }\r\n        OracleInfo storage sender = getOracleInfo[msg.sender];\r\n        if (sender.isOracle == false && msg.sender != oracle.admin) {\r\n            uint256 collateralPrice = priceConsumer.getPriceOfToken(_collateral);\r\n            require(totalUSDAmount + collateralPrice * _amount <= oracle.usdAmountOfDelegation, \"stake: amount of delegation is limited\");\r\n        }\r\n\r\n        require(\r\n            IERC20(_collateral).transferFrom(msg.sender, address(this), _amount),\r\n            \"stake: transfer failed\"\r\n        );\r\n        oracle.stake[_collateral] += _amount;\r\n        collateral.totalLocked += _amount;\r\n        if (sender.isOracle == false && msg.sender != oracle.admin) {\r\n            oracle.delegators[oracle.delegatorCount] = msg.sender;\r\n            oracle.delegatorCount ++;\r\n            oracle.delegatorStakes[msg.sender][_collateral] += _amount;\r\n            uint256 price = priceConsumer.getPriceOfToken(_collateral);\r\n            oracle.delegatorUSDAmounts[msg.sender] += _amount * price;\r\n        }\r\n        emit Staked(_oracle, _collateral, _amount);\r\n    }\r\n\r\n    /// @dev Withdraws oracle reward.\r\n    /// @param _oracle Oracle address.\r\n    /// @param _collateral Index of collateral\r\n    /// @param _recipient Recepient reward.\r\n    /// @param _amount Amount to withdraw.\r\n    function requestUnstake(\r\n        address _oracle,\r\n        address _collateral,\r\n        address _recipient,\r\n        uint256 _amount\r\n    ) external {\r\n        OracleInfo storage oracle = getOracleInfo[_oracle];\r\n        if (_amount == 0) {\r\n            return;\r\n        }\r\n        Collateral storage collateral = collaterals[_collateral];\r\n        require(\r\n            collateral.isSupported,\r\n            \"requestUnstake: undefined collateral\"\r\n        );\r\n        uint256 available = oracle.stake[_collateral];\r\n        require(\r\n            available >= _amount,\r\n            \"requestUnstake: insufficient withdrawable funds\"\r\n        );\r\n        OracleInfo storage sender = getOracleInfo[msg.sender];\r\n        if (sender.isOracle == false && msg.sender != oracle.admin) {\r\n            require(oracle.delegatorStakes[msg.sender][_collateral] >= _amount, \"requestUnstake: insufficient amount\");\r\n            oracle.delegatorStakes[msg.sender][_collateral] -= _amount;\r\n            uint256 price = priceConsumer.getPriceOfToken(_collateral);\r\n            oracle.delegatorUSDAmounts[msg.sender] = price * _amount;\r\n        }\r\n        else require(msg.sender == oracle.admin, \"requestUnstake: only callable by admin\");\r\n\r\n        oracle.stake[_collateral] = available - _amount;\r\n        collateral.totalLocked -= _amount;\r\n\r\n        oracle.withdrawals[oracle.withdrawalCount] = WithdrawalInfo(\r\n            _amount,\r\n            block.timestamp + timelock,\r\n            _recipient,\r\n            false,\r\n            false,\r\n            0,\r\n            _collateral\r\n        );\r\n        oracle.withdrawalCount++;\r\n        emit UnstakeRequested(_oracle, _collateral, _recipient, _amount);\r\n    }\r\n\r\n    /// @dev Withdraw stake.\r\n    /// @param _oracle Oracle address.\r\n    /// @param _withdrawalId Withdrawal identifier.\r\n    function executeUnstake(address _oracle, uint256 _withdrawalId) external {\r\n        OracleInfo storage oracle = getOracleInfo[_oracle];\r\n        require(\r\n            oracle.admin == msg.sender,\r\n            \"executeUnstake: only callable by admin\"\r\n        );\r\n        require(\r\n            _withdrawalId < oracle.withdrawalCount,\r\n            \"executeUnstake: withdrawal not exists\"\r\n        );\r\n        WithdrawalInfo storage withdrawal = oracle.withdrawals[_withdrawalId];\r\n        require(!withdrawal.executed, \"executeUnstake: already executed\");\r\n        require(\r\n            withdrawal.timelock < block.timestamp,\r\n            \"executeUnstake: too early\"\r\n        );\r\n        withdrawal.executed = true;\r\n        require(\r\n            IERC20(withdrawal.collateral).transfer(withdrawal.receiver, withdrawal.amount),\r\n            \"executeUnstake: transfer failed\"\r\n        );\r\n\r\n        emit UnstakeExecuted(_oracle, _withdrawalId);\r\n    }\r\n    /**\r\n     * @dev request to move assets between oracles\r\n     * @param _oracleFrom Address of oracle sender\r\n     * @param _oracleTo Address of oracle receiver\r\n     * @param _collateral address of collateral\r\n     * @param _amount Amount of collateral\r\n     */\r\n    function requestTransfer(address _oracleFrom, address _oracleTo, address _collateral, uint256 _amount) external {\r\n        OracleInfo storage oracleFrom = getOracleInfo[_oracleFrom];\r\n        OracleInfo storage oracleTo = getOracleInfo[_oracleTo];\r\n\r\n        Collateral memory collateral = collaterals[_collateral];\r\n        require(\r\n            collateral.isSupported,\r\n            \"requestUnstake: undefined collateral\"\r\n        );\r\n        OracleInfo storage sender = getOracleInfo[msg.sender];\r\n        require(sender.isOracle == false, \"requestTransfer: callable by delegator\");\r\n        require(oracleFrom.stake[_collateral] >= _amount, \"transferAssets: Insufficient amount\");\r\n        require(oracleFrom.delegatorStakes[msg.sender][_collateral] >= _amount, \"transferAssets: Insufficient amount for delegator\");\r\n        oracleFrom.stake[_collateral] -= _amount;\r\n        oracleTo.stake[_collateral] += _amount;\r\n        oracleFrom.delegatorStakes[msg.sender][_collateral] -= _amount;\r\n        oracleTo.delegatorStakes[msg.sender][_collateral] += _amount;\r\n        sender.transfers[sender.transferCount] = TransferInfo(\r\n            _amount,\r\n            block.timestamp + timelockForDelegate,\r\n            _oracleFrom,\r\n            _oracleTo,\r\n            false,\r\n            _collateral\r\n        );\r\n        sender.transferCount ++;\r\n        emit TransferRequested(msg.sender, sender.transferCount - 1);\r\n    }\r\n\r\n    /**\r\n     * @dev Execute transfer request\r\n     * @param _transferId Identifier of transfer\r\n     */\r\n    function executeTransfer(uint256 _transferId) external {\r\n        OracleInfo storage sender = getOracleInfo[msg.sender];\r\n\r\n        require(\r\n            sender.isOracle == false,\r\n            \"executeTransfer: callable by delegator\"\r\n        );\r\n        require(sender.transferCount > _transferId, \"executeTransfer: transfer request not exist\");\r\n        TransferInfo storage transfer = sender.transfers[_transferId];\r\n        require(!transfer.executed, \"executeTransfer: already executed\");\r\n        require(\r\n            transfer.timelock < block.timestamp,\r\n            \"executeTransfer: too early\"\r\n        );\r\n        transfer.executed = true;\r\n        emit TransferExecuted(msg.sender, _transferId);\r\n    }\r\n\r\n    /**\r\n     * @dev Stake token to strategies to earn rewards\r\n     * @param _oracle address of oracle\r\n     * @param _amount Amount to be staked\r\n     * @param _strategy strategy to stake into.\r\n     */\r\n    function depositToStrategy(address _oracle, uint256 _amount, uint256 _strategy) external {\r\n        OracleInfo storage oracle = getOracleInfo[_oracle];\r\n        require(msg.sender == oracle.admin, \"depositToStrategy: only callable by admin\");\r\n        require(_strategy <= strategyCount, \"depositToStrategy: strategy not exist\");\r\n        Strategy memory strategy = strategies[_strategy];\r\n        Collateral storage stakeCollateral = collaterals[strategy.stakeToken];\r\n        require(oracle.stake[strategy.stakeToken] >= _amount, \"depositToStrategy: Insufficient fund\");\r\n        // strategyController.deposit(_strategy, address(collateral.token), _amount);\r\n        oracle.stake[strategy.stakeToken] -= _amount;\r\n        emit DepositedToStrategy(_oracle, _amount, _strategy, strategy.stakeToken);\r\n    }\r\n\r\n    /**\r\n     * @dev Earn from the strategy\r\n     */\r\n    function withdrawFromStrategy(address _oracle, uint256 _amount, uint256 _strategy) external {\r\n        OracleInfo storage oracle = getOracleInfo[_oracle];\r\n        require(msg.sender == oracle.admin, \"depositToStrategy: only callable by admin\");\r\n        require(_strategy <= strategyCount, \"depositToStrategy: strategy not exist\");\r\n        Strategy memory strategy = strategies[_strategy];\r\n        Collateral storage collateral = collaterals[strategy.rewardToken];\r\n        // strategyController.withdraw(_strategy, address(collateral.token), _amount);\r\n        oracle.stake[strategy.rewardToken] += _amount;\r\n        emit WithdrawedFromStrategy(_oracle, _amount, _strategy, strategy.rewardToken);\r\n    }\r\n\r\n    /**\r\n     * @dev set percentage of profit sharing\r\n     * @param _profitSharing percentage of profit sharing\r\n     */\r\n    function setProfitSharing(address _oracle, uint256 _profitSharing) external {\r\n        OracleInfo storage oracle = getOracleInfo[_oracle];\r\n        require(msg.sender == oracle.admin, \"setProfitPercentage: only callable by admin\");\r\n        oracle.profitSharing = _profitSharing;\r\n    }\r\n\r\n    /**\r\n     * @dev set usd amount of delegation\r\n     * @param _oracle address of oracle\r\n     * @param _usdAmountOfDelegation usd amount of delegation\r\n     */\r\n    function setUsdAmountOfDelegation(address _oracle, uint256 _usdAmountOfDelegation) external {\r\n        OracleInfo storage oracle = getOracleInfo[_oracle];\r\n        require(msg.sender == oracle.admin, \"setProfitPercentage: only callable by admin\");\r\n        oracle.usdAmountOfDelegation = _usdAmountOfDelegation;\r\n    }\r\n\r\n    /* ADMIN */\r\n\r\n    /// @dev Change withdrawal timelock.\r\n    /// @param _newTimelock New timelock.\r\n    function setTimelock(uint256 _newTimelock) external onlyOwner() {\r\n        timelock = _newTimelock;\r\n    }\r\n\r\n    /**\r\n     * @dev Change timelock for delegate\r\n     * @param _newTimelock new timelock for delegate\r\n     */\r\n    function setTimelockForTransfer(uint256 _newTimelock) external onlyOwner() {\r\n        timelockForDelegate = _newTimelock;\r\n    }\r\n\r\n    /// @dev Add new oracle.\r\n    /// @param _oracle Oracle address.\r\n    /// @param _admin Admin address.\r\n    function addOracle(address _oracle, address _admin) external onlyOwner() {\r\n        getOracleInfo[_oracle].admin = _admin;\r\n        getOracleInfo[_oracle].isOracle = true;\r\n    }\r\n\r\n    /// @dev Add new delegator.\r\n    /// @param _delegator Oracle address.\r\n    function addDelegator(address _delegator) external onlyOwner() {\r\n        getOracleInfo[_delegator].admin = _delegator;\r\n        getOracleInfo[_delegator].isOracle = false;\r\n    }\r\n\r\n    /**\r\n     * @dev Add a new collateral\r\n     * @param _token Address of token\r\n     */\r\n    function addCollateral(address _token) external onlyOwner() {\r\n        for (uint256 i = 0; i < collateralCount; i ++) {\r\n            if (collateralAddresses[i] == _token)\r\n                return;\r\n        }\r\n        collaterals[_token].isSupported = true;\r\n    }\r\n\r\n    /**\r\n     * @dev Add a new strategy\r\n     * @param _strategy address to strategy\r\n     * @param _stakeToken collateralId of stakeToken\r\n     * @param _rewardToken collateralId of rewardToken \r\n     */\r\n    function addStrategy(address _strategy, address _stakeToken, address _rewardToken) external onlyOwner() {\r\n        strategies[strategyCount].strategy = _strategy;\r\n        strategies[strategyCount].stakeToken = _stakeToken;\r\n        strategies[strategyCount].rewardToken = _rewardToken;\r\n        strategyCount ++;\r\n    }\r\n\r\n    /// @dev Cancel unstake.\r\n    /// @param _oracle Oracle address.\r\n    /// @param _withdrawalId Withdrawal identifier.\r\n    function cancelUnstake(address _oracle, uint256 _withdrawalId)\r\n        external\r\n        onlyOwner()\r\n    {\r\n        OracleInfo storage oracle = getOracleInfo[_oracle];\r\n        WithdrawalInfo storage withdrawal = oracle.withdrawals[_withdrawalId];\r\n        require(!withdrawal.executed, \"cancelUnstake: already executed\");\r\n        Collateral storage collateral = collaterals[withdrawal.collateral];\r\n        withdrawal.executed = true;\r\n        oracle.stake[withdrawal.collateral] += withdrawal.amount;\r\n        collateral.totalLocked += withdrawal.amount;\r\n        emit UnstakeCancelled(_oracle, _withdrawalId);\r\n    }\r\n\r\n    /// @dev Withdraws confiscated tokens.\r\n    /// @param _oracle Oracle address.\r\n    /// @param _collateral Index of collateral\r\n    /// @param _amount Amount to withdraw.\r\n    function liquidate(address _oracle, address _collateral, uint256 _amount) external onlyOwner() {\r\n        OracleInfo storage oracle = getOracleInfo[_oracle];\r\n        require(oracle.stake[_collateral] >= _amount, \"liquidate: insufficient balance\");\r\n        Collateral storage collateral = collaterals[_collateral];\r\n        oracle.stake[_collateral] -= _amount;\r\n        collateral.confiscatedFunds += _amount;\r\n        collateral.totalLocked -= _amount;\r\n        emit Liquidated(_oracle, _collateral, _amount);\r\n    }\r\n\r\n    /// @dev Withdraws confiscated tokens.\r\n    /// @param _recipient Recepient reward.\r\n    /// @param _amount Amount to withdraw.\r\n    function withdrawFunds(address _recipient, address _collateral, uint256 _amount)\r\n        external\r\n        onlyOwner()\r\n    {\r\n        Collateral storage collateral = collaterals[_collateral];\r\n        require(\r\n            uint256(collateral.confiscatedFunds) >= _amount,\r\n            \"withdrawFunds: insufficient reserve funds\"\r\n        );\r\n        require(\r\n            IERC20(_collateral).transfer(_recipient, _amount),\r\n            \"withdrawFunds: transfer failed\"\r\n        );\r\n        collateral.confiscatedFunds -= _amount;\r\n        emit WithdrawedFunds(_recipient, _collateral, _amount);\r\n    }\r\n\r\n    /**\r\n     * @dev Pause unstaking request.\r\n     * @param _oracle address of oracle\r\n     * @param _withdrawalId withdrawal identifier\r\n     */\r\n    function pauseUnstake(address _oracle, uint256 _withdrawalId) external onlyOwner() {\r\n        OracleInfo storage oracle = getOracleInfo[_oracle];\r\n        uint256 i;\r\n        for (i = 0; i < oracle.withdrawalCount; i ++) {\r\n            WithdrawalInfo storage withdrawal = oracle.withdrawals[i];\r\n            if (withdrawal.paused == false && withdrawal.executed == false) {\r\n                withdrawal.paused = true;\r\n                withdrawal.pausedTime = block.timestamp;\r\n                emit UnstakePaused(_oracle, _withdrawalId, block.timestamp);\r\n            }\r\n        }\r\n    }\r\n\r\n    /**\r\n     * @dev Resume unstaking request.\r\n     * @param _oracle address of oracle\r\n     * @param _withdrawalId withdrawal identifier\r\n     */\r\n    function resumeUnstake(address _oracle, uint256 _withdrawalId) external onlyOwner() {\r\n        OracleInfo storage oracle = getOracleInfo[_oracle];\r\n        uint256 i;\r\n        for (i = 0; i < oracle.withdrawalCount; i ++) {\r\n            WithdrawalInfo storage withdrawal = oracle.withdrawals[_withdrawalId];\r\n            if (withdrawal.paused == true && withdrawal.executed == false) {\r\n                withdrawal.paused = false;\r\n                withdrawal.timelock += block.timestamp - withdrawal.pausedTime;\r\n                emit UnstakeResumed(_oracle, _withdrawalId, block.timestamp);\r\n            }\r\n        }\r\n    }\r\n\r\n    /**\r\n     * @dev Set strategy controller\r\n     * @param _strategyController address of strategy controller\r\n     */\r\n    function setStrategyController(IStrategyController _strategyController) external onlyOwner() {\r\n        strategyController = _strategyController;\r\n    }\r\n\r\n    /**\r\n     * @dev Set Price Consumer\r\n     * @param _priceConsumer address of price consumer\r\n     */\r\n    function setPriceConsumer(IPriceConsumer _priceConsumer) external onlyOwner() {\r\n        priceConsumer = _priceConsumer;\r\n    }\r\n\r\n    /**\r\n     * @dev accounts add assets to oracle\r\n     * @param _oracle address of oracle\r\n     * @param _collateral collateralId oracle\r\n     * @param _amount amount of token\r\n     */\r\n    function account_asset(address _oracle, address _collateral, uint256 _amount) public {\r\n        OracleInfo storage oracle = getOracleInfo[_oracle];\r\n        uint256 share = _amount * oracle.profitSharing / 100;\r\n\r\n        uint256 totalUSDAmount = 0;\r\n        for (uint256 i = 0; i < oracle.delegatorCount; i ++) {\r\n            address delegator = oracle.delegators[i];\r\n            totalUSDAmount += oracle.delegatorUSDAmounts[delegator];\r\n        }\r\n        Collateral storage collateral = collaterals[_collateral];\r\n        collateral.totalLocked += _amount;\r\n        oracle.stake[_collateral] += _amount;\r\n        if (totalUSDAmount != 0) {\r\n            for (uint256 i = 0; i < oracle.delegatorCount; i ++) {\r\n                address delegator = oracle.delegators[i];\r\n                oracle.delegatorStakes[delegator][_collateral] += share * oracle.delegatorUSDAmounts[delegator] / totalUSDAmount;\r\n            }\r\n        }\r\n    }\r\n\r\n    /// @dev Get withdrawal request.\r\n    /// @param _oracle Oracle address.\r\n    /// @param _withdrawalId Withdrawal identifier.\r\n    function getWithdrawalRequest(address _oracle, uint256 _withdrawalId)\r\n        public\r\n        view\r\n        returns (WithdrawalInfo memory)\r\n    {\r\n        return getOracleInfo[_oracle].withdrawals[_withdrawalId];\r\n    }\r\n\r\n    /**\r\n     * @dev Get transfer request\r\n     * @param _oracle Oracle address\r\n     * @param _transferId Transfer identifier\r\n     */\r\n    function getTransferRequest(address _oracle, uint256 _transferId) \r\n        public\r\n        view\r\n        returns (TransferInfo memory)\r\n    {\r\n        return getOracleInfo[_oracle].transfers[_transferId];\r\n    }\r\n\r\n    /** \r\n     * @dev get stake property of oracle\r\n     * @param _oracle address of oracle\r\n     * @param _collateral Address of collateral\r\n     */\r\n    function getOracleStaking(address _oracle, address _collateral) public view returns (uint256) {\r\n        return getOracleInfo[_oracle].stake[_collateral];\r\n    }\r\n\r\n    /**\r\n     * @dev get delegator stakes\r\n     * @param _oracle address of oracle\r\n     * @param _delegator address of delegator\r\n     * @param _collateral Address of collateral\r\n     */\r\n    function getDelegatorStakes(address _oracle, address _delegator, address _collateral) public view returns(uint256) {\r\n        return getOracleInfo[_oracle].delegatorStakes[_delegator][_collateral];\r\n    }\r\n\r\n    function min(uint256 a, uint256 b) internal pure returns(uint256) {\r\n        return a < b ? a : b;\r\n    }\r\n}\r\n",
  "sourcePath": "D:/Ethereum/Debridge/debridge-contracts-v1/contracts/oracles/OracleManager.sol",
  "compiler": {
    "name": "solc",
    "version": "0.8.2+commit.661d1103.Emscripten.clang"
  },
  "schemaVersion": "3.3.4",
  "updatedAt": "2021-06-27T05:55:33.406Z",
  "devdoc": {
    "kind": "dev",
    "methods": {
      "account_asset(address,address,uint256)": {
        "details": "accounts add assets to oracle",
        "params": {
          "_amount": "amount of token",
          "_collateral": "collateralId oracle",
          "_oracle": "address of oracle"
        }
      },
      "addCollateral(address)": {
        "details": "Add a new collateral",
        "params": {
          "_token": "Address of token"
        }
      },
      "addDelegator(address)": {
        "details": "Add new delegator.",
        "params": {
          "_delegator": "Oracle address."
        }
      },
      "addOracle(address,address)": {
        "details": "Add new oracle.",
        "params": {
          "_admin": "Admin address.",
          "_oracle": "Oracle address."
        }
      },
      "addStrategy(address,address,address)": {
        "details": "Add a new strategy",
        "params": {
          "_rewardToken": "collateralId of rewardToken ",
          "_stakeToken": "collateralId of stakeToken",
          "_strategy": "address to strategy"
        }
      },
      "cancelUnstake(address,uint256)": {
        "details": "Cancel unstake.",
        "params": {
          "_oracle": "Oracle address.",
          "_withdrawalId": "Withdrawal identifier."
        }
      },
      "constructor": {
        "details": "Constructor that initializes the most important configurations.",
        "params": {
          "_timelock": "Duration of withdrawal timelock."
        }
      },
      "depositToStrategy(address,uint256,uint256)": {
        "details": "Stake token to strategies to earn rewards",
        "params": {
          "_amount": "Amount to be staked",
          "_oracle": "address of oracle",
          "_strategy": "strategy to stake into."
        }
      },
      "executeTransfer(uint256)": {
        "details": "Execute transfer request",
        "params": {
          "_transferId": "Identifier of transfer"
        }
      },
      "executeUnstake(address,uint256)": {
        "details": "Withdraw stake.",
        "params": {
          "_oracle": "Oracle address.",
          "_withdrawalId": "Withdrawal identifier."
        }
      },
      "getDelegatorStakes(address,address,address)": {
        "details": "get delegator stakes",
        "params": {
          "_collateral": "Address of collateral",
          "_delegator": "address of delegator",
          "_oracle": "address of oracle"
        }
      },
      "getOracleStaking(address,address)": {
        "details": "get stake property of oracle",
        "params": {
          "_collateral": "Address of collateral",
          "_oracle": "address of oracle"
        }
      },
      "getTransferRequest(address,uint256)": {
        "details": "Get transfer request",
        "params": {
          "_oracle": "Oracle address",
          "_transferId": "Transfer identifier"
        }
      },
      "getWithdrawalRequest(address,uint256)": {
        "details": "Get withdrawal request.",
        "params": {
          "_oracle": "Oracle address.",
          "_withdrawalId": "Withdrawal identifier."
        }
      },
      "liquidate(address,address,uint256)": {
        "details": "Withdraws confiscated tokens.",
        "params": {
          "_amount": "Amount to withdraw.",
          "_collateral": "Index of collateral",
          "_oracle": "Oracle address."
        }
      },
      "owner()": {
        "details": "Returns the address of the current owner."
      },
      "pauseUnstake(address,uint256)": {
        "details": "Pause unstaking request.",
        "params": {
          "_oracle": "address of oracle",
          "_withdrawalId": "withdrawal identifier"
        }
      },
      "renounceOwnership()": {
        "details": "Leaves the contract without owner. It will not be possible to call `onlyOwner` functions anymore. Can only be called by the current owner. NOTE: Renouncing ownership will leave the contract without an owner, thereby removing any functionality that is only available to the owner."
      },
      "requestTransfer(address,address,address,uint256)": {
        "details": "request to move assets between oracles",
        "params": {
          "_amount": "Amount of collateral",
          "_collateral": "address of collateral",
          "_oracleFrom": "Address of oracle sender",
          "_oracleTo": "Address of oracle receiver"
        }
      },
      "requestUnstake(address,address,address,uint256)": {
        "details": "Withdraws oracle reward.",
        "params": {
          "_amount": "Amount to withdraw.",
          "_collateral": "Index of collateral",
          "_oracle": "Oracle address.",
          "_recipient": "Recepient reward."
        }
      },
      "resumeUnstake(address,uint256)": {
        "details": "Resume unstaking request.",
        "params": {
          "_oracle": "address of oracle",
          "_withdrawalId": "withdrawal identifier"
        }
      },
      "setPriceConsumer(address)": {
        "details": "Set Price Consumer",
        "params": {
          "_priceConsumer": "address of price consumer"
        }
      },
      "setProfitSharing(address,uint256)": {
        "details": "set percentage of profit sharing",
        "params": {
          "_profitSharing": "percentage of profit sharing"
        }
      },
      "setStrategyController(address)": {
        "details": "Set strategy controller",
        "params": {
          "_strategyController": "address of strategy controller"
        }
      },
      "setTimelock(uint256)": {
        "details": "Change withdrawal timelock.",
        "params": {
          "_newTimelock": "New timelock."
        }
      },
      "setTimelockForTransfer(uint256)": {
        "details": "Change timelock for delegate",
        "params": {
          "_newTimelock": "new timelock for delegate"
        }
      },
      "setUsdAmountOfDelegation(address,uint256)": {
        "details": "set usd amount of delegation",
        "params": {
          "_oracle": "address of oracle",
          "_usdAmountOfDelegation": "usd amount of delegation"
        }
      },
      "stake(address,address,uint256)": {
        "details": "Withdraws oracle reward.",
        "params": {
          "_amount": "Amount to withdraw.",
          "_collateral": "address of collateral",
          "_oracle": "Oracle address."
        }
      },
      "transferOwnership(address)": {
        "details": "Transfers ownership of the contract to a new account (`newOwner`). Can only be called by the current owner."
      },
      "withdrawFromStrategy(address,uint256,uint256)": {
        "details": "Earn from the strategy"
      },
      "withdrawFunds(address,address,uint256)": {
        "details": "Withdraws confiscated tokens.",
        "params": {
          "_amount": "Amount to withdraw.",
          "_recipient": "Recepient reward."
        }
      }
    },
    "version": 1
  },
  "userdoc": {
    "kind": "user",
    "methods": {},
    "version": 1
  }
}