{
  "contractName": "OracleManager",
  "abi": [
    {
      "inputs": [
        {
          "internalType": "uint256",
          "name": "_timelock",
          "type": "uint256"
        },
        {
          "internalType": "contract IStrategyController",
          "name": "_strategyController",
          "type": "address"
        },
        {
          "internalType": "contract IPriceConsumer",
          "name": "_priceConsumer",
          "type": "address"
        }
      ],
      "stateMutability": "nonpayable",
      "type": "constructor"
    },
    {
      "anonymous": false,
      "inputs": [
        {
          "indexed": false,
          "internalType": "address",
          "name": "oracle",
          "type": "address"
        },
        {
          "indexed": false,
          "internalType": "uint256",
          "name": "amount",
          "type": "uint256"
        },
        {
          "indexed": false,
          "internalType": "uint256",
          "name": "strategy",
          "type": "uint256"
        },
        {
          "indexed": false,
          "internalType": "uint256",
          "name": "collateralId",
          "type": "uint256"
        }
      ],
      "name": "DepositedToStrategy",
      "type": "event"
    },
    {
      "anonymous": false,
      "inputs": [
        {
          "indexed": false,
          "internalType": "address",
          "name": "oracle",
          "type": "address"
        },
        {
          "indexed": false,
          "internalType": "uint256",
          "name": "collateralId",
          "type": "uint256"
        },
        {
          "indexed": false,
          "internalType": "uint256",
          "name": "amount",
          "type": "uint256"
        }
      ],
      "name": "Liquidated",
      "type": "event"
    },
    {
      "anonymous": false,
      "inputs": [
        {
          "indexed": true,
          "internalType": "address",
          "name": "previousOwner",
          "type": "address"
        },
        {
          "indexed": true,
          "internalType": "address",
          "name": "newOwner",
          "type": "address"
        }
      ],
      "name": "OwnershipTransferred",
      "type": "event"
    },
    {
      "anonymous": false,
      "inputs": [
        {
          "indexed": false,
          "internalType": "address",
          "name": "oracle",
          "type": "address"
        },
        {
          "indexed": false,
          "internalType": "uint256",
          "name": "collateralId",
          "type": "uint256"
        },
        {
          "indexed": false,
          "internalType": "uint256",
          "name": "amount",
          "type": "uint256"
        }
      ],
      "name": "Staked",
      "type": "event"
    },
    {
      "anonymous": false,
      "inputs": [
        {
          "indexed": false,
          "internalType": "address",
          "name": "delegator",
          "type": "address"
        },
        {
          "indexed": false,
          "internalType": "uint256",
          "name": "transferId",
          "type": "uint256"
        }
      ],
      "name": "TransferExecuted",
      "type": "event"
    },
    {
      "anonymous": false,
      "inputs": [
        {
          "indexed": false,
          "internalType": "address",
          "name": "delegator",
          "type": "address"
        },
        {
          "indexed": false,
          "internalType": "uint256",
          "name": "transferId",
          "type": "uint256"
        }
      ],
      "name": "TransferRequested",
      "type": "event"
    },
    {
      "anonymous": false,
      "inputs": [
        {
          "indexed": false,
          "internalType": "address",
          "name": "oracle",
          "type": "address"
        },
        {
          "indexed": false,
          "internalType": "uint256",
          "name": "withdrawalId",
          "type": "uint256"
        }
      ],
      "name": "UnstakeCancelled",
      "type": "event"
    },
    {
      "anonymous": false,
      "inputs": [
        {
          "indexed": false,
          "internalType": "address",
          "name": "oracle",
          "type": "address"
        },
        {
          "indexed": false,
          "internalType": "uint256",
          "name": "withdrawalId",
          "type": "uint256"
        }
      ],
      "name": "UnstakeExecuted",
      "type": "event"
    },
    {
      "anonymous": false,
      "inputs": [
        {
          "indexed": false,
          "internalType": "address",
          "name": "oracle",
          "type": "address"
        },
        {
          "indexed": false,
          "internalType": "uint256",
          "name": "withdrawalId",
          "type": "uint256"
        },
        {
          "indexed": false,
          "internalType": "uint256",
          "name": "timestamp",
          "type": "uint256"
        }
      ],
      "name": "UnstakePaused",
      "type": "event"
    },
    {
      "anonymous": false,
      "inputs": [
        {
          "indexed": false,
          "internalType": "address",
          "name": "oracle",
          "type": "address"
        },
        {
          "indexed": false,
          "internalType": "uint256",
          "name": "collateralId",
          "type": "uint256"
        },
        {
          "indexed": false,
          "internalType": "address",
          "name": "receipient",
          "type": "address"
        },
        {
          "indexed": false,
          "internalType": "uint256",
          "name": "amount",
          "type": "uint256"
        }
      ],
      "name": "UnstakeRequested",
      "type": "event"
    },
    {
      "anonymous": false,
      "inputs": [
        {
          "indexed": false,
          "internalType": "address",
          "name": "oracle",
          "type": "address"
        },
        {
          "indexed": false,
          "internalType": "uint256",
          "name": "withdrawalId",
          "type": "uint256"
        },
        {
          "indexed": false,
          "internalType": "uint256",
          "name": "timestamp",
          "type": "uint256"
        }
      ],
      "name": "UnstakeResumed",
      "type": "event"
    },
    {
      "anonymous": false,
      "inputs": [
        {
          "indexed": false,
          "internalType": "address",
          "name": "oracle",
          "type": "address"
        },
        {
          "indexed": false,
          "internalType": "uint256",
          "name": "amount",
          "type": "uint256"
        },
        {
          "indexed": false,
          "internalType": "uint256",
          "name": "strategy",
          "type": "uint256"
        },
        {
          "indexed": false,
          "internalType": "uint256",
          "name": "collateralId",
          "type": "uint256"
        }
      ],
      "name": "WithdrawedFromStrategy",
      "type": "event"
    },
    {
      "anonymous": false,
      "inputs": [
        {
          "indexed": false,
          "internalType": "address",
          "name": "recipient",
          "type": "address"
        },
        {
          "indexed": false,
          "internalType": "uint256",
          "name": "collateralId",
          "type": "uint256"
        },
        {
          "indexed": false,
          "internalType": "uint256",
          "name": "amount",
          "type": "uint256"
        }
      ],
      "name": "WithdrawedFunds",
      "type": "event"
    },
    {
      "inputs": [
        {
          "internalType": "uint256",
          "name": "",
          "type": "uint256"
        }
      ],
      "name": "collaterals",
      "outputs": [
        {
          "internalType": "contract IERC20",
          "name": "token",
          "type": "address"
        },
        {
          "internalType": "uint256",
          "name": "confiscatedFunds",
          "type": "uint256"
        },
        {
          "internalType": "uint256",
          "name": "totalLocked",
          "type": "uint256"
        }
      ],
      "stateMutability": "view",
      "type": "function"
    },
    {
      "inputs": [
        {
          "internalType": "address",
          "name": "",
          "type": "address"
        }
      ],
      "name": "getOracleInfo",
      "outputs": [
        {
          "internalType": "address",
          "name": "admin",
          "type": "address"
        },
        {
          "internalType": "uint256",
          "name": "withdrawalCount",
          "type": "uint256"
        },
        {
          "internalType": "uint256",
          "name": "transferCount",
          "type": "uint256"
        },
        {
          "internalType": "uint256",
          "name": "profitSharing",
          "type": "uint256"
        },
        {
          "internalType": "uint256",
          "name": "usdAmountOfDelegation",
          "type": "uint256"
        },
        {
          "internalType": "bool",
          "name": "isOracle",
          "type": "bool"
        },
        {
          "internalType": "bool",
          "name": "isAbleToDelegate",
          "type": "bool"
        },
        {
          "internalType": "uint256",
          "name": "delegatorCount",
          "type": "uint256"
        }
      ],
      "stateMutability": "view",
      "type": "function"
    },
    {
      "inputs": [],
      "name": "owner",
      "outputs": [
        {
          "internalType": "address",
          "name": "",
          "type": "address"
        }
      ],
      "stateMutability": "view",
      "type": "function"
    },
    {
      "inputs": [],
      "name": "priceConsumer",
      "outputs": [
        {
          "internalType": "contract IPriceConsumer",
          "name": "",
          "type": "address"
        }
      ],
      "stateMutability": "view",
      "type": "function"
    },
    {
      "inputs": [],
      "name": "renounceOwnership",
      "outputs": [],
      "stateMutability": "nonpayable",
      "type": "function"
    },
    {
      "inputs": [
        {
          "internalType": "uint256",
          "name": "",
          "type": "uint256"
        }
      ],
      "name": "strategies",
      "outputs": [
        {
          "internalType": "address",
          "name": "strategy",
          "type": "address"
        },
        {
          "internalType": "uint256",
          "name": "stakeToken",
          "type": "uint256"
        },
        {
          "internalType": "uint256",
          "name": "rewardToken",
          "type": "uint256"
        }
      ],
      "stateMutability": "view",
      "type": "function"
    },
    {
      "inputs": [],
      "name": "strategyController",
      "outputs": [
        {
          "internalType": "contract IStrategyController",
          "name": "",
          "type": "address"
        }
      ],
      "stateMutability": "view",
      "type": "function"
    },
    {
      "inputs": [],
      "name": "timelock",
      "outputs": [
        {
          "internalType": "uint256",
          "name": "",
          "type": "uint256"
        }
      ],
      "stateMutability": "view",
      "type": "function"
    },
    {
      "inputs": [],
      "name": "timelockForDelegate",
      "outputs": [
        {
          "internalType": "uint256",
          "name": "",
          "type": "uint256"
        }
      ],
      "stateMutability": "view",
      "type": "function"
    },
    {
      "inputs": [
        {
          "internalType": "address",
          "name": "newOwner",
          "type": "address"
        }
      ],
      "name": "transferOwnership",
      "outputs": [],
      "stateMutability": "nonpayable",
      "type": "function"
    },
    {
      "inputs": [
        {
          "internalType": "address",
          "name": "_oracle",
          "type": "address"
        },
        {
          "internalType": "uint256",
          "name": "_collateralId",
          "type": "uint256"
        },
        {
          "internalType": "uint256",
          "name": "_amount",
          "type": "uint256"
        }
      ],
      "name": "stake",
      "outputs": [],
      "stateMutability": "nonpayable",
      "type": "function"
    },
    {
      "inputs": [
        {
          "internalType": "address",
          "name": "_oracle",
          "type": "address"
        },
        {
          "internalType": "uint256",
          "name": "_collateralId",
          "type": "uint256"
        },
        {
          "internalType": "address",
          "name": "_recipient",
          "type": "address"
        },
        {
          "internalType": "uint256",
          "name": "_amount",
          "type": "uint256"
        }
      ],
      "name": "requestUnstake",
      "outputs": [],
      "stateMutability": "nonpayable",
      "type": "function"
    },
    {
      "inputs": [
        {
          "internalType": "address",
          "name": "_oracle",
          "type": "address"
        },
        {
          "internalType": "uint256",
          "name": "_withdrawalId",
          "type": "uint256"
        }
      ],
      "name": "executeUnstake",
      "outputs": [],
      "stateMutability": "nonpayable",
      "type": "function"
    },
    {
      "inputs": [
        {
          "internalType": "address",
          "name": "_oracleFrom",
          "type": "address"
        },
        {
          "internalType": "address",
          "name": "_oracleTo",
          "type": "address"
        },
        {
          "internalType": "uint256",
          "name": "_collateralId",
          "type": "uint256"
        },
        {
          "internalType": "uint256",
          "name": "_amount",
          "type": "uint256"
        }
      ],
      "name": "requestTransfer",
      "outputs": [],
      "stateMutability": "nonpayable",
      "type": "function"
    },
    {
      "inputs": [
        {
          "internalType": "uint256",
          "name": "_transferId",
          "type": "uint256"
        }
      ],
      "name": "executeTransfer",
      "outputs": [],
      "stateMutability": "nonpayable",
      "type": "function"
    },
    {
      "inputs": [
        {
          "internalType": "address",
          "name": "_oracle",
          "type": "address"
        },
        {
          "internalType": "uint256",
          "name": "_amount",
          "type": "uint256"
        },
        {
          "internalType": "uint256",
          "name": "_strategy",
          "type": "uint256"
        }
      ],
      "name": "depositToStrategy",
      "outputs": [],
      "stateMutability": "nonpayable",
      "type": "function"
    },
    {
      "inputs": [
        {
          "internalType": "address",
          "name": "_oracle",
          "type": "address"
        },
        {
          "internalType": "uint256",
          "name": "_amount",
          "type": "uint256"
        },
        {
          "internalType": "uint256",
          "name": "_strategy",
          "type": "uint256"
        }
      ],
      "name": "withdrawFromStrategy",
      "outputs": [],
      "stateMutability": "nonpayable",
      "type": "function"
    },
    {
      "inputs": [
        {
          "internalType": "address",
          "name": "_oracle",
          "type": "address"
        },
        {
          "internalType": "uint256",
          "name": "_profitSharing",
          "type": "uint256"
        }
      ],
      "name": "setProfitSharing",
      "outputs": [],
      "stateMutability": "nonpayable",
      "type": "function"
    },
    {
      "inputs": [
        {
          "internalType": "address",
          "name": "_oracle",
          "type": "address"
        },
        {
          "internalType": "uint256",
          "name": "_usdAmountOfDelegation",
          "type": "uint256"
        }
      ],
      "name": "setUsdAmountOfDelegation",
      "outputs": [],
      "stateMutability": "nonpayable",
      "type": "function"
    },
    {
      "inputs": [
        {
          "internalType": "uint256",
          "name": "_newTimelock",
          "type": "uint256"
        }
      ],
      "name": "setTimelock",
      "outputs": [],
      "stateMutability": "nonpayable",
      "type": "function"
    },
    {
      "inputs": [
        {
          "internalType": "uint256",
          "name": "_newTimelock",
          "type": "uint256"
        }
      ],
      "name": "setTimelockForTransfer",
      "outputs": [],
      "stateMutability": "nonpayable",
      "type": "function"
    },
    {
      "inputs": [
        {
          "internalType": "address",
          "name": "_oracle",
          "type": "address"
        },
        {
          "internalType": "address",
          "name": "_admin",
          "type": "address"
        }
      ],
      "name": "addOracle",
      "outputs": [],
      "stateMutability": "nonpayable",
      "type": "function"
    },
    {
      "inputs": [
        {
          "internalType": "address",
          "name": "_delegator",
          "type": "address"
        }
      ],
      "name": "addDelegator",
      "outputs": [],
      "stateMutability": "nonpayable",
      "type": "function"
    },
    {
      "inputs": [
        {
          "internalType": "contract IERC20",
          "name": "_token",
          "type": "address"
        }
      ],
      "name": "addCollateral",
      "outputs": [],
      "stateMutability": "nonpayable",
      "type": "function"
    },
    {
      "inputs": [
        {
          "internalType": "address",
          "name": "_strategy",
          "type": "address"
        },
        {
          "internalType": "uint256",
          "name": "_stakeToken",
          "type": "uint256"
        },
        {
          "internalType": "uint256",
          "name": "_rewardToken",
          "type": "uint256"
        }
      ],
      "name": "addStrategy",
      "outputs": [],
      "stateMutability": "nonpayable",
      "type": "function"
    },
    {
      "inputs": [
        {
          "internalType": "address",
          "name": "_oracle",
          "type": "address"
        },
        {
          "internalType": "uint256",
          "name": "_withdrawalId",
          "type": "uint256"
        }
      ],
      "name": "cancelUnstake",
      "outputs": [],
      "stateMutability": "nonpayable",
      "type": "function"
    },
    {
      "inputs": [
        {
          "internalType": "address",
          "name": "_oracle",
          "type": "address"
        },
        {
          "internalType": "uint256",
          "name": "_collateralId",
          "type": "uint256"
        },
        {
          "internalType": "uint256",
          "name": "_amount",
          "type": "uint256"
        }
      ],
      "name": "liquidate",
      "outputs": [],
      "stateMutability": "nonpayable",
      "type": "function"
    },
    {
      "inputs": [
        {
          "internalType": "address",
          "name": "_recipient",
          "type": "address"
        },
        {
          "internalType": "uint256",
          "name": "_collateralId",
          "type": "uint256"
        },
        {
          "internalType": "uint256",
          "name": "_amount",
          "type": "uint256"
        }
      ],
      "name": "withdrawFunds",
      "outputs": [],
      "stateMutability": "nonpayable",
      "type": "function"
    },
    {
      "inputs": [
        {
          "internalType": "address",
          "name": "_oracle",
          "type": "address"
        },
        {
          "internalType": "uint256",
          "name": "_withdrawalId",
          "type": "uint256"
        }
      ],
      "name": "pauseUnstake",
      "outputs": [],
      "stateMutability": "nonpayable",
      "type": "function"
    },
    {
      "inputs": [
        {
          "internalType": "address",
          "name": "_oracle",
          "type": "address"
        },
        {
          "internalType": "uint256",
          "name": "_withdrawalId",
          "type": "uint256"
        }
      ],
      "name": "resumeUnstake",
      "outputs": [],
      "stateMutability": "nonpayable",
      "type": "function"
    },
    {
      "inputs": [
        {
          "internalType": "contract IStrategyController",
          "name": "_strategyController",
          "type": "address"
        }
      ],
      "name": "setStrategyController",
      "outputs": [],
      "stateMutability": "nonpayable",
      "type": "function"
    },
    {
      "inputs": [
        {
          "internalType": "contract IPriceConsumer",
          "name": "_priceConsumer",
          "type": "address"
        }
      ],
      "name": "setPriceConsumer",
      "outputs": [],
      "stateMutability": "nonpayable",
      "type": "function"
    },
    {
      "inputs": [
        {
          "internalType": "address",
          "name": "_oracle",
          "type": "address"
        },
        {
          "internalType": "uint256",
          "name": "_collateralId",
          "type": "uint256"
        },
        {
          "internalType": "uint256",
          "name": "_amount",
          "type": "uint256"
        }
      ],
      "name": "account_asset",
      "outputs": [],
      "stateMutability": "nonpayable",
      "type": "function"
    },
    {
      "inputs": [
        {
          "internalType": "address",
          "name": "_oracle",
          "type": "address"
        },
        {
          "internalType": "uint256",
          "name": "_withdrawalId",
          "type": "uint256"
        }
      ],
      "name": "getWithdrawalRequest",
      "outputs": [
        {
          "components": [
            {
              "internalType": "uint256",
              "name": "amount",
              "type": "uint256"
            },
            {
              "internalType": "uint256",
              "name": "timelock",
              "type": "uint256"
            },
            {
              "internalType": "address",
              "name": "receiver",
              "type": "address"
            },
            {
              "internalType": "bool",
              "name": "executed",
              "type": "bool"
            },
            {
              "internalType": "bool",
              "name": "paused",
              "type": "bool"
            },
            {
              "internalType": "uint256",
              "name": "pausedTime",
              "type": "uint256"
            },
            {
              "internalType": "uint256",
              "name": "collateralId",
              "type": "uint256"
            }
          ],
          "internalType": "struct OracleManager.WithdrawalInfo",
          "name": "",
          "type": "tuple"
        }
      ],
      "stateMutability": "view",
      "type": "function"
    },
    {
      "inputs": [
        {
          "internalType": "address",
          "name": "_oracle",
          "type": "address"
        },
        {
          "internalType": "uint256",
          "name": "_transferId",
          "type": "uint256"
        }
      ],
      "name": "getTransferRequest",
      "outputs": [
        {
          "components": [
            {
              "internalType": "uint256",
              "name": "amount",
              "type": "uint256"
            },
            {
              "internalType": "uint256",
              "name": "timelock",
              "type": "uint256"
            },
            {
              "internalType": "address",
              "name": "oracleFrom",
              "type": "address"
            },
            {
              "internalType": "address",
              "name": "oracleTo",
              "type": "address"
            },
            {
              "internalType": "bool",
              "name": "executed",
              "type": "bool"
            },
            {
              "internalType": "uint256",
              "name": "collateralId",
              "type": "uint256"
            }
          ],
          "internalType": "struct OracleManager.TransferInfo",
          "name": "",
          "type": "tuple"
        }
      ],
      "stateMutability": "view",
      "type": "function"
    },
    {
      "inputs": [
        {
          "internalType": "address",
          "name": "_oracle",
          "type": "address"
        },
        {
          "internalType": "uint256",
          "name": "_collateralId",
          "type": "uint256"
        }
      ],
      "name": "getOracleStaking",
      "outputs": [
        {
          "internalType": "uint256",
          "name": "",
          "type": "uint256"
        }
      ],
      "stateMutability": "view",
      "type": "function"
    },
    {
      "inputs": [
        {
          "internalType": "address",
          "name": "_oracle",
          "type": "address"
        },
        {
          "internalType": "address",
          "name": "_delegator",
          "type": "address"
        },
        {
          "internalType": "uint256",
          "name": "_collateralId",
          "type": "uint256"
        }
      ],
      "name": "getDelegatorStakes",
      "outputs": [
        {
          "internalType": "uint256",
          "name": "",
          "type": "uint256"
        }
      ],
      "stateMutability": "view",
      "type": "function"
    }
  ],
  "bytecode": "0x6080604052621275006003553480156200001857600080fd5b50604051620032c0380380620032c08339810160408190526200003b91620000b4565b600080546001600160a01b031916339081178255604051909182917f8be0079c531659141344cd1fd0a4f28419497f9722a3daafe3b4186f6b6457e0908290a350600292909255600680546001600160a01b039283166001600160a01b0319918216179091556007805492909316911617905562000114565b600080600060608486031215620000c9578283fd5b835192506020840151620000dd81620000fb565b6040850151909250620000f081620000fb565b809150509250925092565b6001600160a01b03811681146200011157600080fd5b50565b61319c80620001246000396000f3fe608060405234801561001057600080fd5b50600436106102265760003560e01c806386e76f7311610130578063d574ea3d116100b8578063f2847e641161007c578063f2847e6414610597578063f2fde38b14610608578063f54c02461461061b578063f699d3791461062e578063fa34d6111461074557610226565b8063d574ea3d14610538578063e56a2b671461054b578063f05d57521461055e578063f0ca4adb14610571578063f0d2d5a81461058457610226565b8063aecd8e55116100ff578063aecd8e5514610446578063b2af098b14610459578063b509ed701461046c578063bfdb6b041461047f578063d33219b41461052f57610226565b806386e76f73146103fc5780638da5cb5b1461040f578063a3ff53e214610420578063a4d5654d1461043357610226565b806324c1173b116101b3578063437aef4b11610182578063437aef4b146103b2578063461a758c146103bb578063715018a6146103ce57806380b69c8c146103d6578063815193bc146103e957610226565b806324c1173b1461033457806328d2c3db14610356578063376956b6146103695780633ed6edf71461037c57610226565b806318e7e397116101fa57806318e7e397146102965780631e891c0a146102e85780631f3564d9146102fb578063210112011461030e57806321fb4c351461032157610226565b8062258d6b1461022b5780630710285c1461025b57806307550f2a146102705780630c51b88f14610283575b600080fd5b60065461023e906001600160a01b031681565b6040516001600160a01b0390911681526020015b60405180910390f35b61026e610269366004612f00565b610758565b005b61026e61027e366004612e8e565b6108d6565b61026e610291366004612f00565b6109f3565b6102da6102a4366004612e09565b6001600160a01b039283166000908152600160209081526040808320949095168252600990930183528381209181529152205490565b604051908152602001610252565b61026e6102f6366004612f54565b610f08565b61026e610309366004612e8e565b610f37565b61026e61031c366004612eb9565b6110b6565b61026e61032f366004612dae565b611479565b610347610342366004612f54565b6114df565b60405161025293929190612f84565b61026e610364366004612e8e565b61151c565b61026e610377366004612e8e565b611564565b6102da61038a366004612e8e565b6001600160a01b03919091166000908152600160209081526040808320938352929052205490565b6102da60035481565b60075461023e906001600160a01b031681565b61026e611890565b61026e6103e4366004612e8e565b611904565b61026e6103f7366004612e49565b6119fc565b61026e61040a366004612dae565b611d7d565b6000546001600160a01b031661023e565b61026e61042e366004612e8e565b611dc9565b61026e610441366004612f00565b611e11565b61026e610454366004612f00565b611fde565b61026e610467366004612f00565b61236f565b61026e61047a366004612f54565b6124c6565b6104e661048d366004612dae565b60016020819052600091825260409091209081015460028201546003830154600684015460078501546008860154600b909601546001600160a01b0390951695939492939192909160ff80821692610100909204169088565b604080516001600160a01b03909916895260208901979097529587019490945260608601929092526080850152151560a0840152151560c083015260e082015261010001610252565b6102da60025481565b610347610546366004612f54565b6124f5565b61026e610559366004612dae565b612505565b61026e61056c366004612f54565b612551565b61026e61057f366004612dd1565b612747565b61026e610592366004612dae565b6127b7565b6105aa6105a5366004612e8e565b612913565b604051610252919081518152602080830151908201526040808301516001600160a01b03169082015260608083015115159082015260808083015115159082015260a0808301519082015260c0918201519181019190915260e00190565b61026e610616366004612dae565b6129ea565b61026e610629366004612f00565b612ad4565b6106eb61063c366004612e8e565b6040805160c081018252600080825260208201819052918101829052606081018290526080810182905260a0810191909152506001600160a01b0391821660009081526001602081815260408084209484526005909401815291839020835160c081018552815481529181015492820192909252600282015484169281019290925260038101549283166060830152600160a01b90920460ff161515608082015260049091015460a082015290565b604051610252919081518152602080830151908201526040808301516001600160a01b03908116918301919091526060808401519091169082015260808083015115159082015260a0918201519181019190915260c00190565b61026e610753366004612f00565b612cc3565b6000546001600160a01b0316331461078b5760405162461bcd60e51b815260040161078290612ff0565b60405180910390fd5b6001600160a01b038316600090815260016020908152604080832085845291829052909120548211156108005760405162461bcd60e51b815260206004820152601f60248201527f6c69717569646174653a20696e73756666696369656e742062616c616e6365006044820152606401610782565b60006004848154811061082357634e487b7160e01b600052603260045260246000fd5b906000526020600020906003020190508282600001600086815260200190815260200160002060008282546108589190613109565b925050819055508281600101600082825461087391906130b2565b925050819055508281600201600082825461088e9190613109565b90915550506040517f09c223cfcd8c93e245f558f5f8de755fc0930fd9bc257441155ef5d54a170e0f906108c790879087908790612f84565b60405180910390a15050505050565b6000546001600160a01b031633146109005760405162461bcd60e51b815260040161078290612ff0565b6001600160a01b0382166000908152600160205260408120905b81600201548110156109ed57600083815260048301602052604090206002810154600160a81b900460ff161515600114801561096257506002810154600160a01b900460ff16155b156109da5760028101805460ff60a81b1916905560038101546109859042613109565b81600101600082825461099891906130b2565b90915550506040517f551a001dc50bd90c0a14e5b6426b5b5efeaf406db5f39b60875be6d037c022eb906109d190879087904290612f84565b60405180910390a15b50806109e581613120565b91505061091a565b50505050565b6001600160a01b03831660009081526001602052604090206004548310610a5c5760405162461bcd60e51b815260206004820152601b60248201527f7374616b653a20756e646566696e656420636f6c6c61746572616c00000000006044820152606401610782565b600060048481548110610a7f57634e487b7160e01b600052603260045260246000fd5b906000526020600020906003020190506000805b83600b0154811015610bf0576000818152600a850160205260408120546001600160a01b0316905b600454811015610bdb57600754600480546000926001600160a01b031691638da844789185908110610afd57634e487b7160e01b600052603260045260246000fd5b600091825260209091206003909102015460405160e083901b6001600160e01b03191681526001600160a01b039091166004820152602401602060405180830381600087803b158015610b4f57600080fd5b505af1158015610b63573d6000803e3d6000fd5b505050506040513d601f19601f82011682018060405250810190610b879190612f6c565b6001600160a01b03841660009081526009890160209081526040808320868452909152902054909150610bbb9082906130ea565b610bc590866130b2565b9450508080610bd390613120565b915050610abb565b50508080610be890613120565b915050610a93565b50336000908152600160205260409020600881015460ff16158015610c22575060018401546001600160a01b03163314155b15610d275760075483546040516311b5088f60e31b81526001600160a01b0391821660048201526000929190911690638da8447890602401602060405180830381600087803b158015610c7457600080fd5b505af1158015610c88573d6000803e3d6000fd5b505050506040513d601f19601f82011682018060405250810190610cac9190612f6c565b6007860154909150610cbe87836130ea565b610cc890856130b2565b1115610d255760405162461bcd60e51b815260206004820152602660248201527f7374616b653a20616d6f756e74206f662064656c65676174696f6e206973206c6044820152651a5b5a5d195960d21b6064820152608401610782565b505b82546040516323b872dd60e01b8152336004820152306024820152604481018790526001600160a01b03909116906323b872dd90606401602060405180830381600087803b158015610d7857600080fd5b505af1158015610d8c573d6000803e3d6000fd5b505050506040513d601f19601f82011682018060405250810190610db09190612f34565b610df55760405162461bcd60e51b81526020600482015260166024820152751cdd185ad94e881d1c985b9cd9995c8819985a5b195960521b6044820152606401610782565b60008681526020859052604081208054879290610e139084906130b2565b9250508190555084836002016000828254610e2e91906130b2565b9091555050600881015460ff16158015610e55575060018401546001600160a01b03163314155b15610ec457600b840180546000908152600a86016020526040812080546001600160a01b0319163317905581549190610e8d83613120565b9091555050336000908152600985016020908152604080832089845290915281208054879290610ebe9084906130b2565b90915550505b7f1449c6dd7851abc30abf37f57715f492010519147cc2652fbc38202c18a6ee90878787604051610ef793929190612f84565b60405180910390a150505050505050565b6000546001600160a01b03163314610f325760405162461bcd60e51b815260040161078290612ff0565b600255565b6000546001600160a01b03163314610f615760405162461bcd60e51b815260040161078290612ff0565b6001600160a01b0382166000908152600160209081526040808320848452600481019092529091206002810154600160a01b900460ff1615610fe55760405162461bcd60e51b815260206004820152601f60248201527f63616e63656c556e7374616b653a20616c7265616479206578656375746564006044820152606401610782565b6000600482600401548154811061100c57634e487b7160e01b600052603260045260246000fd5b6000918252602080832060028601805460ff60a01b1916600160a01b1790558554600487015485529187905260408420805460039094029091019450909290916110579084906130b2565b909155505081546002820180546000906110729084906130b2565b9091555050604080516001600160a01b0387168152602081018690527f02fbe69eb5474cc010b6c0c236dd70755556cee48c19373e79147100e04de70b91016108c7565b6001600160a01b0384166000908152600160205260409020816110d957506109ed565b60045484106110fa5760405162461bcd60e51b815260040161078290613025565b600084815260208290526040902054828110156111715760405162461bcd60e51b815260206004820152602f60248201527f72657175657374556e7374616b653a20696e73756666696369656e742077697460448201526e686472617761626c652066756e647360881b6064820152608401610782565b336000908152600160205260409020600881015460ff161580156111a2575060018301546001600160a01b03163314155b1561125657336000908152600984016020908152604080832089845290915290205484111561121f5760405162461bcd60e51b815260206004820152602360248201527f72657175657374556e7374616b653a20696e73756666696369656e7420616d6f6044820152621d5b9d60ea1b6064820152608401610782565b33600090815260098401602090815260408083208984529091528120805486929061124b908490613109565b909155506112c19050565b60018301546001600160a01b031633146112c15760405162461bcd60e51b815260206004820152602660248201527f72657175657374556e7374616b653a206f6e6c792063616c6c61626c652062796044820152651030b236b4b760d11b6064820152608401610782565b6000600487815481106112e457634e487b7160e01b600052603260045260246000fd5b9060005260206000209060030201905084836113009190613109565b600088815260208690526040812091909155600282018054879290611326908490613109565b925050819055506040518060e001604052808681526020016002544261134c91906130b2565b81526001600160a01b03808916602080840191909152600060408085018290526060808601839052608080870184905260a09687018f90526002808d01805486526004808f0188528587208b518155978b01516001890155948a01519187018054948b0151938b01511515600160a81b0260ff60a81b19941515600160a01b0260ff60a01b1994909a166001600160a01b03199096169590951792909216979097179190911691909117905593850151600383015560c09094015192019190915580549161141983613120565b9091555050604080516001600160a01b038a81168252602082018a90528816818301526060810187905290517fd510a52a7b98020ef4b89dbc66cdf0ea3f07af095ef84d0c377db18bdc64bafc9181900360800190a15050505050505050565b6000546001600160a01b031633146114a35760405162461bcd60e51b815260040161078290612ff0565b6001600160a01b0316600081815260016020819052604090912090810180546001600160a01b031916909217909155600801805460ff19169055565b600481815481106114ef57600080fd5b60009182526020909120600390910201805460018201546002909201546001600160a01b03909116925083565b6001600160a01b03828116600090815260016020819052604090912090810154909116331461155d5760405162461bcd60e51b815260040161078290612fa5565b6007015550565b6001600160a01b0380831660009081526001602081905260409091209081015490911633146115e45760405162461bcd60e51b815260206004820152602660248201527f65786563757465556e7374616b653a206f6e6c792063616c6c61626c652062796044820152651030b236b4b760d11b6064820152608401610782565b806002015482106116455760405162461bcd60e51b815260206004820152602560248201527f65786563757465556e7374616b653a207769746864726177616c206e6f742065604482015264786973747360d81b6064820152608401610782565b600082815260048201602052604090206002810154600160a01b900460ff16156116b15760405162461bcd60e51b815260206004820181905260248201527f65786563757465556e7374616b653a20616c72656164792065786563757465646044820152606401610782565b428160010154106117045760405162461bcd60e51b815260206004820152601960248201527f65786563757465556e7374616b653a20746f6f206561726c79000000000000006044820152606401610782565b60028101805460ff60a01b1916600160a01b17905560048082015481546000929190811061174257634e487b7160e01b600052603260045260246000fd5b60009182526020918290206040805160608101825260039390930290910180546001600160a01b0390811680855260018301549585019590955260029182015484840152908601548654925163a9059cbb60e01b815291166004820152602481019190915290925063a9059cbb90604401602060405180830381600087803b1580156117cd57600080fd5b505af11580156117e1573d6000803e3d6000fd5b505050506040513d601f19601f820116820180604052508101906118059190612f34565b6118515760405162461bcd60e51b815260206004820152601f60248201527f65786563757465556e7374616b653a207472616e73666572206661696c6564006044820152606401610782565b604080516001600160a01b0387168152602081018690527fe3e01bae44eb85a30bd61c3742b60e379576ff5070a142675f575f53d5bbc2e491016108c7565b6000546001600160a01b031633146118ba5760405162461bcd60e51b815260040161078290612ff0565b600080546040516001600160a01b03909116907f8be0079c531659141344cd1fd0a4f28419497f9722a3daafe3b4186f6b6457e0908390a3600080546001600160a01b0319169055565b6000546001600160a01b0316331461192e5760405162461bcd60e51b815260040161078290612ff0565b6001600160a01b0382166000908152600160205260408120905b81600201548110156109ed57600081815260048301602052604090206002810154600160a81b900460ff1615801561198c57506002810154600160a01b900460ff16155b156119e95760028101805460ff60a81b1916600160a81b17905542600382018190556040517f6f380c85102b9cb64ee83468eff76d3d02638fc84dba6e0b286fe0deb4408bc3916119e09188918891612f84565b60405180910390a15b50806119f481613120565b915050611948565b6001600160a01b03808516600090815260016020526040808220928616825290206004548410611a3e5760405162461bcd60e51b815260040161078290613025565b336000908152600160205260409020600881015460ff1615611ab15760405162461bcd60e51b815260206004820152602660248201527f726571756573745472616e736665723a2063616c6c61626c652062792064656c60448201526532b3b0ba37b960d11b6064820152608401610782565b600085815260208490526040902054841115611b1b5760405162461bcd60e51b815260206004820152602360248201527f7472616e736665724173736574733a20496e73756666696369656e7420616d6f6044820152621d5b9d60ea1b6064820152608401610782565b3360009081526009840160209081526040808320888452909152902054841115611ba15760405162461bcd60e51b815260206004820152603160248201527f7472616e736665724173736574733a20496e73756666696369656e7420616d6f6044820152703ab73a103337b9103232b632b3b0ba37b960791b6064820152608401610782565b60008581526020849052604081208054869290611bbf908490613109565b909155505060008581526020839052604081208054869290611be29084906130b2565b9091555050336000908152600984016020908152604080832088845290915281208054869290611c13908490613109565b9091555050336000908152600983016020908152604080832088845290915281208054869290611c449084906130b2565b925050819055506040518060c0016040528085815260200160035442611c6a91906130b2565b81526001600160a01b03808a166020808401919091528982166040808501919091526000606080860182905260809586018c905260038089018054845260058a01865284842089518155958901516001870155938801516002860180549188166001600160a01b0319928316179055918801519085018054978901511515600160a01b0260ff60a01b19929097169790921696909617959095169390931790935560a090930151600490930192909255805491611d2683613120565b91905055507f52ad287b15e67700db062c247036c3a0d6c313b231a9d078ef26ebdac206958b3360018360030154611d5e9190613109565b604080516001600160a01b039093168352602083019190915201610ef7565b6000546001600160a01b03163314611da75760405162461bcd60e51b815260040161078290612ff0565b600780546001600160a01b0319166001600160a01b0392909216919091179055565b6001600160a01b038281166000908152600160208190526040909120908101549091163314611e0a5760405162461bcd60e51b815260040161078290612fa5565b6006015550565b6001600160a01b038381166000908152600160208190526040909120908101549091163314611e525760405162461bcd60e51b815260040161078290613069565b600060058381548110611e7557634e487b7160e01b600052603260045260246000fd5b6000918252602080832060408051606081018252600390940290910180546001600160a01b031684526001810154928401839052600201549083015260048054929450918110611ed557634e487b7160e01b600052603260045260246000fd5b906000526020600020906003020190508483600001600084602001518152602001908152602001600020541015611f5a5760405162461bcd60e51b8152602060048201526024808201527f6465706f736974546f53747261746567793a20496e73756666696369656e7420604482015263199d5b9960e21b6064820152608401610782565b602080830151600090815290849052604081208054879290611f7d908490613109565b9091555050602082810151604080516001600160a01b038a168152928301889052820186905260608201527f4cea6376a4cbadad1480f8d2ee9735fa67cf64cc67fb4b6aee9ee63cdb612783906080015b60405180910390a1505050505050565b6001600160a01b0383166000908152600160205260408120600681015490919060649061200b90856130ea565b61201591906130ca565b905060008083600b015467ffffffffffffffff81111561204557634e487b7160e01b600052604160045260246000fd5b60405190808252806020026020018201604052801561206e578160200160208202803683370190505b50905060005b84600b0154811015612231576000818152600a860160205260408120546001600160a01b0316905b6004548110156121e757600754600480546000926001600160a01b031691638da8447891859081106120de57634e487b7160e01b600052603260045260246000fd5b600091825260209091206003909102015460405160e083901b6001600160e01b03191681526001600160a01b039091166004820152602401602060405180830381600087803b15801561213057600080fd5b505af1158015612144573d6000803e3d6000fd5b505050506040513d601f19601f820116820180604052508101906121689190612f6c565b6001600160a01b038416600090815260098a016020908152604080832086845290915290205490915061219c9082906130ea565b8585815181106121bc57634e487b7160e01b600052603260045260246000fd5b602002602001018181516121d091906130b2565b9052508190506121df81613120565b91505061209c565b5082828151811061220857634e487b7160e01b600052603260045260246000fd5b60200260200101518461221b91906130b2565b935050808061222990613120565b915050612074565b5060006004878154811061225557634e487b7160e01b600052603260045260246000fd5b906000526020600020906003020190508581600201600082825461227991906130b2565b90915550506000878152602086905260408120805488929061229c9084906130b2565b909155505082156123655760005b85600b0154811015612363576000818152600a8701602052604090205483516001600160a01b039091169085908590849081106122f757634e487b7160e01b600052603260045260246000fd5b60200260200101518761230a91906130ea565b61231491906130ca565b6001600160a01b038216600090815260098901602090815260408083208d8452909152812080549091906123499084906130b2565b9091555082915061235b905081613120565b9150506122aa565b505b5050505050505050565b6001600160a01b0383811660009081526001602081905260409091209081015490911633146123b05760405162461bcd60e51b815260040161078290613069565b6000600583815481106123d357634e487b7160e01b600052603260045260246000fd5b6000918252602080832060408051606081018252600390940290910180546001600160a01b031684526001810154928401929092526002909101549082018190526004805492945091811061243857634e487b7160e01b600052603260045260246000fd5b906000526020600020906003020190508483600001600084604001518152602001908152602001600020600082825461247191906130b2565b909155505060408083015181516001600160a01b03891681526020810188905291820186905260608201527f5d3be7e25e769e572264d9ce0530a2b97e3f8e57d63b3a414abb2523487ef59590608001611fce565b6000546001600160a01b031633146124f05760405162461bcd60e51b815260040161078290612ff0565b600355565b600581815481106114ef57600080fd5b6000546001600160a01b0316331461252f5760405162461bcd60e51b815260040161078290612ff0565b600680546001600160a01b0319166001600160a01b0392909216919091179055565b336000908152600160205260409020600881015460ff16156125c45760405162461bcd60e51b815260206004820152602660248201527f657865637574655472616e736665723a2063616c6c61626c652062792064656c60448201526532b3b0ba37b960d11b6064820152608401610782565b8181600301541161262b5760405162461bcd60e51b815260206004820152602b60248201527f657865637574655472616e736665723a207472616e736665722072657175657360448201526a1d081b9bdd08195e1a5cdd60aa1b6064820152608401610782565b600082815260058201602052604090206003810154600160a01b900460ff16156126a15760405162461bcd60e51b815260206004820152602160248201527f657865637574655472616e736665723a20616c726561647920657865637574656044820152601960fa1b6064820152608401610782565b428160010154106126f45760405162461bcd60e51b815260206004820152601a60248201527f657865637574655472616e736665723a20746f6f206561726c790000000000006044820152606401610782565b60038101805460ff60a01b1916600160a01b17905560408051338152602081018590527f9a1fd8511a9f728f23ed3cb955318fe1f8b2bc7c3aeea602c7f7ecf959a46939910160405180910390a1505050565b6000546001600160a01b031633146127715760405162461bcd60e51b815260040161078290612ff0565b6001600160a01b03918216600090815260016020819052604090912080820180546001600160a01b0319169390941692909217909255600801805460ff19169091179055565b6000546001600160a01b031633146127e15760405162461bcd60e51b815260040161078290612ff0565b60005b60045481101561285157816001600160a01b03166004828154811061281957634e487b7160e01b600052603260045260246000fd5b60009182526020909120600390910201546001600160a01b0316141561283f5750612910565b8061284981613120565b9150506127e4565b50604080516060810182526001600160a01b03838116825260006020830181815293830181815260048054600181018255925292517f8a35acfbc15ff81a39ae7d344fd709f28e8600b4aa8c65c6b64bfe7fe36bd19b600390920291820180546001600160a01b031916919093161790915591517f8a35acfbc15ff81a39ae7d344fd709f28e8600b4aa8c65c6b64bfe7fe36bd19c830155517f8a35acfbc15ff81a39ae7d344fd709f28e8600b4aa8c65c6b64bfe7fe36bd19d909101555b50565b6129606040518060e00160405280600081526020016000815260200160006001600160a01b0316815260200160001515815260200160001515815260200160008152602001600081525090565b506001600160a01b0380831660009081526001602081815260408084208685526004908101835293819020815160e08101835281548152938101549284019290925260028201549485169083015260ff600160a01b8504811615156060840152600160a81b90940490931615156080820152600383015460a082015291015460c082015292915050565b6000546001600160a01b03163314612a145760405162461bcd60e51b815260040161078290612ff0565b6001600160a01b038116612a795760405162461bcd60e51b815260206004820152602660248201527f4f776e61626c653a206e6577206f776e657220697320746865207a65726f206160448201526564647265737360d01b6064820152608401610782565b600080546040516001600160a01b03808516939216917f8be0079c531659141344cd1fd0a4f28419497f9722a3daafe3b4186f6b6457e091a3600080546001600160a01b0319166001600160a01b0392909216919091179055565b6000546001600160a01b03163314612afe5760405162461bcd60e51b815260040161078290612ff0565b600060048381548110612b2157634e487b7160e01b600052603260045260246000fd5b906000526020600020906003020190508181600101541015612b975760405162461bcd60e51b815260206004820152602960248201527f776974686472617746756e64733a20696e73756666696369656e7420726573656044820152687276652066756e647360b81b6064820152608401610782565b805460405163a9059cbb60e01b81526001600160a01b038681166004830152602482018590529091169063a9059cbb90604401602060405180830381600087803b158015612be457600080fd5b505af1158015612bf8573d6000803e3d6000fd5b505050506040513d601f19601f82011682018060405250810190612c1c9190612f34565b612c685760405162461bcd60e51b815260206004820152601e60248201527f776974686472617746756e64733a207472616e73666572206661696c656400006044820152606401610782565b81816001016000828254612c7c9190613109565b90915550506040517f9663c1ad0eec6028b71e1544d2c3336a5ac20cf1e4757683d294fe222476b12190612cb590869086908690612f84565b60405180910390a150505050565b6000546001600160a01b03163314612ced5760405162461bcd60e51b815260040161078290612ff0565b604080516060810182526001600160a01b039485168152602081019384529081019182526005805460018101825560009190915290517f036b6384b5eca791c62761152d0c79bb0604c104a5fb6f4eb0703f3154bb3db0600390920291820180546001600160a01b031916919095161790935590517f036b6384b5eca791c62761152d0c79bb0604c104a5fb6f4eb0703f3154bb3db1830155517f036b6384b5eca791c62761152d0c79bb0604c104a5fb6f4eb0703f3154bb3db290910155565b600060208284031215612dbf578081fd5b8135612dca81613151565b9392505050565b60008060408385031215612de3578081fd5b8235612dee81613151565b91506020830135612dfe81613151565b809150509250929050565b600080600060608486031215612e1d578081fd5b8335612e2881613151565b92506020840135612e3881613151565b929592945050506040919091013590565b60008060008060808587031215612e5e578081fd5b8435612e6981613151565b93506020850135612e7981613151565b93969395505050506040820135916060013590565b60008060408385031215612ea0578182fd5b8235612eab81613151565b946020939093013593505050565b60008060008060808587031215612ece578384fd5b8435612ed981613151565b9350602085013592506040850135612ef081613151565b9396929550929360600135925050565b600080600060608486031215612f14578283fd5b8335612f1f81613151565b95602085013595506040909401359392505050565b600060208284031215612f45578081fd5b81518015158114612dca578182fd5b600060208284031215612f65578081fd5b5035919050565b600060208284031215612f7d578081fd5b5051919050565b6001600160a01b039390931683526020830191909152604082015260600190565b6020808252602b908201527f73657450726f66697450657263656e746167653a206f6e6c792063616c6c616260408201526a363290313c9030b236b4b760a91b606082015260800190565b6020808252818101527f4f776e61626c653a2063616c6c6572206973206e6f7420746865206f776e6572604082015260600190565b60208082526024908201527f72657175657374556e7374616b653a20756e646566696e656420636f6c6c6174604082015263195c985b60e21b606082015260800190565b60208082526029908201527f6465706f736974546f53747261746567793a206f6e6c792063616c6c61626c6560408201526810313c9030b236b4b760b91b606082015260800190565b600082198211156130c5576130c561313b565b500190565b6000826130e557634e487b7160e01b81526012600452602481fd5b500490565b60008160001904831182151516156131045761310461313b565b500290565b60008282101561311b5761311b61313b565b500390565b60006000198214156131345761313461313b565b5060010190565b634e487b7160e01b600052601160045260246000fd5b6001600160a01b038116811461291057600080fdfea2646970667358221220cfe01691fd65c176ff1213fe964ac6c90833673823fce43c5a98f7ae632465b064736f6c63430008020033",
  "immutableReferences": {},
  "source": "// SPDX-License-Identifier: MIT\r\npragma solidity ^0.8.2;\r\n\r\nimport \"@openzeppelin/contracts/access/Ownable.sol\";\r\nimport \"@openzeppelin/contracts/token/ERC20/IERC20.sol\";\r\nimport \"../interfaces/IStrategyController.sol\";\r\nimport \"../interfaces/IPriceConsumer.sol\";\r\n\r\ncontract OracleManager is Ownable {\r\n\r\n    struct WithdrawalInfo {\r\n        uint256 amount; // amount of staked token\r\n        uint256 timelock; // time till the asset is locked\r\n        address receiver; // token receiver\r\n        bool executed; // whether is executed\r\n        bool paused;    // whether is paused\r\n        uint256 pausedTime; // paused timestamp\r\n        uint256 collateralId; // collateral identifier\r\n    }\r\n\r\n    struct TransferInfo {\r\n        uint256 amount; // amount of transfer token\r\n        uint256 timelock; // time till the asset is locked\r\n        address oracleFrom; // oracle that token is transferred from\r\n        address oracleTo; // oracle that token is transferred to\r\n        bool executed; // whether is executed\r\n        uint256 collateralId; // collateral identifier\r\n    }\r\n\r\n    struct OracleInfo { // info of validator or delegator\r\n        mapping(uint256 => uint256) stake; // amount of stake per collateral\r\n        address admin; // current oracle admin\r\n        uint256 withdrawalCount; // withdrawals count\r\n        uint256 transferCount;\r\n        mapping(uint256 => WithdrawalInfo) withdrawals; // list of withdrawal requests\r\n        mapping(uint256 => TransferInfo) transfers;\r\n        uint256 profitSharing;  // percentage of profit sharing.\r\n        uint256 usdAmountOfDelegation;\r\n        bool isOracle; // whether is oracles\r\n        bool isAbleToDelegate;\r\n        mapping(address => mapping(uint256 => uint256)) delegatorStakes; // delegator stakes per collateral\r\n        mapping(uint256 => address) delegators; //delegator list\r\n        uint256 delegatorCount; //delegator count\r\n    }\r\n\r\n    struct Collateral {\r\n        IERC20 token;\r\n        uint256 confiscatedFunds; // total confiscated tokens\r\n        uint256 totalLocked; // total staked tokens\r\n    }\r\n\r\n    struct Strategy {\r\n        address strategy;\r\n        uint256 stakeToken;\r\n        uint256 rewardToken;\r\n    }\r\n\r\n    mapping(address => OracleInfo) public getOracleInfo; // oracle address => oracle details\r\n    uint256 public timelock; // duration of withdrawal timelock\r\n    uint256 public timelockForDelegate = 2 weeks;\r\n    Collateral[] public collaterals;\r\n    Strategy[] public strategies;\r\n    IStrategyController public strategyController;\r\n    IPriceConsumer public priceConsumer;\r\n\r\n    /* Events */\r\n    event Staked(address oracle, uint256 collateralId, uint256 amount);\r\n    event UnstakeRequested(address oracle, uint256 collateralId, address receipient, uint256 amount);\r\n    event UnstakeExecuted(address oracle, uint256 withdrawalId);\r\n    event UnstakeCancelled(address oracle, uint256 withdrawalId);\r\n    event UnstakePaused(address oracle, uint256 withdrawalId, uint256 timestamp);\r\n    event UnstakeResumed(address oracle, uint256 withdrawalId, uint256 timestamp);\r\n    event Liquidated(address oracle, uint256 collateralId, uint256 amount);\r\n    event DepositedToStrategy(address oracle, uint256 amount, uint256 strategy, uint256 collateralId);\r\n    event WithdrawedFromStrategy(address oracle, uint256 amount, uint256 strategy, uint256 collateralId);\r\n    event WithdrawedFunds(address recipient, uint256 collateralId, uint256 amount);\r\n    event TransferRequested(address delegator, uint256 transferId);\r\n    event TransferExecuted(address delegator, uint256 transferId);\r\n\r\n    /* PUBLIC */\r\n\r\n    /// @dev Constructor that initializes the most important configurations.\r\n    /// @param _timelock Duration of withdrawal timelock.\r\n    constructor(uint256 _timelock, IStrategyController _strategyController, IPriceConsumer _priceConsumer) Ownable() {\r\n        timelock = _timelock;\r\n        strategyController = _strategyController;\r\n        priceConsumer = _priceConsumer;\r\n    }\r\n\r\n    /// @dev Withdraws oracle reward.\r\n    /// @param _oracle Oracle address.\r\n    /// @param _collateralId Index of collateral\r\n    /// @param _amount Amount to withdraw.\r\n    function stake(address _oracle, uint256 _collateralId, uint256 _amount) external {\r\n        OracleInfo storage oracle = getOracleInfo[_oracle];\r\n        require(\r\n            _collateralId < collaterals.length,\r\n            \"stake: undefined collateral\"\r\n        );\r\n        Collateral storage collateral = collaterals[_collateralId];\r\n\r\n        uint256 totalUSDAmount = 0;\r\n        for (uint256 i = 0; i < oracle.delegatorCount; i ++) {\r\n            address delegator = oracle.delegators[i];\r\n            for (uint256 j = 0; j < collaterals.length; j ++) {\r\n                uint256 price = priceConsumer.getPriceOfToken(address(collaterals[j].token));\r\n                totalUSDAmount += oracle.delegatorStakes[delegator][j] * price;\r\n            }\r\n        }\r\n        OracleInfo storage sender = getOracleInfo[msg.sender];\r\n        if (sender.isOracle == false && msg.sender != oracle.admin) {\r\n            uint256 collateralPrice = priceConsumer.getPriceOfToken(address(collateral.token));\r\n            require(totalUSDAmount + collateralPrice * _amount <= oracle.usdAmountOfDelegation, \"stake: amount of delegation is limited\");\r\n        }\r\n\r\n        require(\r\n            collateral.token.transferFrom(msg.sender, address(this), _amount),\r\n            \"stake: transfer failed\"\r\n        );\r\n        oracle.stake[_collateralId] += _amount;\r\n        collateral.totalLocked += _amount;\r\n        if (sender.isOracle == false && msg.sender != oracle.admin) {\r\n            oracle.delegators[oracle.delegatorCount] = msg.sender;\r\n            oracle.delegatorCount ++;\r\n            oracle.delegatorStakes[msg.sender][_collateralId] += _amount;\r\n        }\r\n        emit Staked(_oracle, _collateralId, _amount);\r\n    }\r\n\r\n    /// @dev Withdraws oracle reward.\r\n    /// @param _oracle Oracle address.\r\n    /// @param _collateralId Index of collateral\r\n    /// @param _recipient Recepient reward.\r\n    /// @param _amount Amount to withdraw.\r\n    function requestUnstake(\r\n        address _oracle,\r\n        uint256 _collateralId,\r\n        address _recipient,\r\n        uint256 _amount\r\n    ) external {\r\n        OracleInfo storage oracle = getOracleInfo[_oracle];\r\n        if (_amount == 0) {\r\n            return;\r\n        }\r\n        require(\r\n            _collateralId < collaterals.length,\r\n            \"requestUnstake: undefined collateral\"\r\n        );\r\n        uint256 available = oracle.stake[_collateralId];\r\n        require(\r\n            available >= _amount,\r\n            \"requestUnstake: insufficient withdrawable funds\"\r\n        );\r\n        OracleInfo storage sender = getOracleInfo[msg.sender];\r\n        if (sender.isOracle == false && msg.sender != oracle.admin) {\r\n            require(oracle.delegatorStakes[msg.sender][_collateralId] >= _amount, \"requestUnstake: insufficient amount\");\r\n            oracle.delegatorStakes[msg.sender][_collateralId] -= _amount;\r\n        }\r\n        else require(msg.sender == oracle.admin, \"requestUnstake: only callable by admin\");\r\n\r\n        Collateral storage collateral = collaterals[_collateralId];\r\n        oracle.stake[_collateralId] = available - _amount;\r\n        collateral.totalLocked -= _amount;\r\n\r\n        oracle.withdrawals[oracle.withdrawalCount] = WithdrawalInfo(\r\n            _amount,\r\n            block.timestamp + timelock,\r\n            _recipient,\r\n            false,\r\n            false,\r\n            0,\r\n            _collateralId\r\n        );\r\n        oracle.withdrawalCount++;\r\n        emit UnstakeRequested(_oracle, _collateralId, _recipient, _amount);\r\n    }\r\n\r\n    /// @dev Withdraw stake.\r\n    /// @param _oracle Oracle address.\r\n    /// @param _withdrawalId Withdrawal identifier.\r\n    function executeUnstake(address _oracle, uint256 _withdrawalId) external {\r\n        OracleInfo storage oracle = getOracleInfo[_oracle];\r\n        require(\r\n            oracle.admin == msg.sender,\r\n            \"executeUnstake: only callable by admin\"\r\n        );\r\n        require(\r\n            _withdrawalId < oracle.withdrawalCount,\r\n            \"executeUnstake: withdrawal not exists\"\r\n        );\r\n        WithdrawalInfo storage withdrawal = oracle.withdrawals[_withdrawalId];\r\n        require(!withdrawal.executed, \"executeUnstake: already executed\");\r\n        require(\r\n            withdrawal.timelock < block.timestamp,\r\n            \"executeUnstake: too early\"\r\n        );\r\n        withdrawal.executed = true;\r\n        Collateral memory collateral = collaterals[withdrawal.collateralId];\r\n        require(\r\n            collateral.token.transfer(withdrawal.receiver, withdrawal.amount),\r\n            \"executeUnstake: transfer failed\"\r\n        );\r\n\r\n        emit UnstakeExecuted(_oracle, _withdrawalId);\r\n    }\r\n    /**\r\n     * @dev request to move assets between oracles\r\n     * @param _oracleFrom Address of oracle sender\r\n     * @param _oracleTo Address of oracle receiver\r\n     * @param _collateralId Id of collateral\r\n     * @param _amount Amount of collateral\r\n     */\r\n    function requestTransfer(address _oracleFrom, address _oracleTo, uint256 _collateralId, uint256 _amount) external {\r\n        OracleInfo storage oracleFrom = getOracleInfo[_oracleFrom];\r\n        OracleInfo storage oracleTo = getOracleInfo[_oracleTo];\r\n\r\n        require(\r\n            _collateralId < collaterals.length,\r\n            \"requestUnstake: undefined collateral\"\r\n        );\r\n        OracleInfo storage sender = getOracleInfo[msg.sender];\r\n        require(sender.isOracle == false, \"requestTransfer: callable by delegator\");\r\n        require(oracleFrom.stake[_collateralId] >= _amount, \"transferAssets: Insufficient amount\");\r\n        require(oracleFrom.delegatorStakes[msg.sender][_collateralId] >= _amount, \"transferAssets: Insufficient amount for delegator\");\r\n        oracleFrom.stake[_collateralId] -= _amount;\r\n        oracleTo.stake[_collateralId] += _amount;\r\n        oracleFrom.delegatorStakes[msg.sender][_collateralId] -= _amount;\r\n        oracleTo.delegatorStakes[msg.sender][_collateralId] += _amount;\r\n        sender.transfers[sender.transferCount] = TransferInfo(\r\n            _amount,\r\n            block.timestamp + timelockForDelegate,\r\n            _oracleFrom,\r\n            _oracleTo,\r\n            false,\r\n            _collateralId\r\n        );\r\n        sender.transferCount ++;\r\n        emit TransferRequested(msg.sender, sender.transferCount - 1);\r\n    }\r\n\r\n    /**\r\n     * @dev Execute transfer request\r\n     * @param _transferId Identifier of transfer\r\n     */\r\n    function executeTransfer(uint256 _transferId) external {\r\n        OracleInfo storage sender = getOracleInfo[msg.sender];\r\n\r\n        require(\r\n            sender.isOracle == false,\r\n            \"executeTransfer: callable by delegator\"\r\n        );\r\n        require(sender.transferCount > _transferId, \"executeTransfer: transfer request not exist\");\r\n        TransferInfo storage transfer = sender.transfers[_transferId];\r\n        require(!transfer.executed, \"executeTransfer: already executed\");\r\n        require(\r\n            transfer.timelock < block.timestamp,\r\n            \"executeTransfer: too early\"\r\n        );\r\n        transfer.executed = true;\r\n        emit TransferExecuted(msg.sender, _transferId);\r\n    }\r\n\r\n    /**\r\n     * @dev Stake token to strategies to earn rewards\r\n     * @param _oracle address of oracle\r\n     * @param _amount Amount to be staked\r\n     * @param _strategy strategy to stake into.\r\n     */\r\n    function depositToStrategy(address _oracle, uint256 _amount, uint256 _strategy) external {\r\n        OracleInfo storage oracle = getOracleInfo[_oracle];\r\n        require(msg.sender == oracle.admin, \"depositToStrategy: only callable by admin\");\r\n        Strategy memory strategy = strategies[_strategy];\r\n        Collateral storage collateral = collaterals[strategy.stakeToken];\r\n        require(oracle.stake[strategy.stakeToken] >= _amount, \"depositToStrategy: Insufficient fund\");\r\n        // strategyController.deposit(_strategy, address(collateral.token), _amount);\r\n        oracle.stake[strategy.stakeToken] -= _amount;\r\n        emit DepositedToStrategy(_oracle, _amount, _strategy, strategy.stakeToken);\r\n    }\r\n\r\n    /**\r\n     * @dev Earn from the strategy\r\n     */\r\n    function withdrawFromStrategy(address _oracle, uint256 _amount, uint256 _strategy) external {\r\n        OracleInfo storage oracle = getOracleInfo[_oracle];\r\n        require(msg.sender == oracle.admin, \"depositToStrategy: only callable by admin\");\r\n        Strategy memory strategy = strategies[_strategy];\r\n        Collateral storage collateral = collaterals[strategy.rewardToken];\r\n        // strategyController.withdraw(_strategy, address(collateral.token), _amount);\r\n        oracle.stake[strategy.rewardToken] += _amount;\r\n        emit WithdrawedFromStrategy(_oracle, _amount, _strategy, strategy.rewardToken);\r\n    }\r\n\r\n    /**\r\n     * @dev set percentage of profit sharing\r\n     * @param _profitSharing percentage of profit sharing\r\n     */\r\n    function setProfitSharing(address _oracle, uint256 _profitSharing) external {\r\n        OracleInfo storage oracle = getOracleInfo[_oracle];\r\n        require(msg.sender == oracle.admin, \"setProfitPercentage: only callable by admin\");\r\n        oracle.profitSharing = _profitSharing;\r\n    }\r\n\r\n    /**\r\n     * @dev set usd amount of delegation\r\n     * @param _oracle address of oracle\r\n     * @param _usdAmountOfDelegation usd amount of delegation\r\n     */\r\n    function setUsdAmountOfDelegation(address _oracle, uint256 _usdAmountOfDelegation) external {\r\n        OracleInfo storage oracle = getOracleInfo[_oracle];\r\n        require(msg.sender == oracle.admin, \"setProfitPercentage: only callable by admin\");\r\n        oracle.usdAmountOfDelegation = _usdAmountOfDelegation;\r\n    }\r\n\r\n    /* ADMIN */\r\n\r\n    /// @dev Change withdrawal timelock.\r\n    /// @param _newTimelock New timelock.\r\n    function setTimelock(uint256 _newTimelock) external onlyOwner() {\r\n        timelock = _newTimelock;\r\n    }\r\n\r\n    /**\r\n     * @dev Change timelock for delegate\r\n     * @param _newTimelock new timelock for delegate\r\n     */\r\n    function setTimelockForTransfer(uint256 _newTimelock) external onlyOwner() {\r\n        timelockForDelegate = _newTimelock;\r\n    }\r\n\r\n    /// @dev Add new oracle.\r\n    /// @param _oracle Oracle address.\r\n    /// @param _admin Admin address.\r\n    function addOracle(address _oracle, address _admin) external onlyOwner() {\r\n        getOracleInfo[_oracle].admin = _admin;\r\n        getOracleInfo[_oracle].isOracle = true;\r\n    }\r\n\r\n    /// @dev Add new delegator.\r\n    /// @param _delegator Oracle address.\r\n    function addDelegator(address _delegator) external onlyOwner() {\r\n        getOracleInfo[_delegator].admin = _delegator;\r\n        getOracleInfo[_delegator].isOracle = false;\r\n    }\r\n\r\n    /**\r\n     * @dev Add a new collateral\r\n     * @param _token Address of token\r\n     */\r\n    function addCollateral(IERC20 _token) external onlyOwner() {\r\n        for (uint256 i = 0; i < collaterals.length; i ++) {\r\n            if (address(collaterals[i].token) == address(_token))\r\n                return;\r\n        }\r\n        collaterals.push(Collateral(_token, 0, 0));\r\n    }\r\n\r\n    /**\r\n     * @dev Add a new strategy\r\n     * @param _strategy address to strategy\r\n     * @param _stakeToken collateralId of stakeToken\r\n     * @param _rewardToken collateralId of rewardToken \r\n     */\r\n    function addStrategy(address _strategy, uint256 _stakeToken, uint256 _rewardToken) external onlyOwner() {\r\n        strategies.push(Strategy(_strategy, _stakeToken, _rewardToken));\r\n    }\r\n\r\n    /// @dev Cancel unstake.\r\n    /// @param _oracle Oracle address.\r\n    /// @param _withdrawalId Withdrawal identifier.\r\n    function cancelUnstake(address _oracle, uint256 _withdrawalId)\r\n        external\r\n        onlyOwner()\r\n    {\r\n        OracleInfo storage oracle = getOracleInfo[_oracle];\r\n        WithdrawalInfo storage withdrawal = oracle.withdrawals[_withdrawalId];\r\n        require(!withdrawal.executed, \"cancelUnstake: already executed\");\r\n        Collateral storage collateral = collaterals[withdrawal.collateralId];\r\n        withdrawal.executed = true;\r\n        oracle.stake[withdrawal.collateralId] += withdrawal.amount;\r\n        collateral.totalLocked += withdrawal.amount;\r\n        emit UnstakeCancelled(_oracle, _withdrawalId);\r\n    }\r\n\r\n    /// @dev Withdraws confiscated tokens.\r\n    /// @param _oracle Oracle address.\r\n    /// @param _collateralId Index of collateral\r\n    /// @param _amount Amount to withdraw.\r\n    function liquidate(address _oracle, uint256 _collateralId, uint256 _amount) external onlyOwner() {\r\n        OracleInfo storage oracle = getOracleInfo[_oracle];\r\n        require(oracle.stake[_collateralId] >= _amount, \"liquidate: insufficient balance\");\r\n        Collateral storage collateral = collaterals[_collateralId];\r\n        oracle.stake[_collateralId] -= _amount;\r\n        collateral.confiscatedFunds += _amount;\r\n        collateral.totalLocked -= _amount;\r\n        emit Liquidated(_oracle, _collateralId, _amount);\r\n    }\r\n\r\n    /// @dev Withdraws confiscated tokens.\r\n    /// @param _recipient Recepient reward.\r\n    /// @param _amount Amount to withdraw.\r\n    function withdrawFunds(address _recipient, uint256 _collateralId, uint256 _amount)\r\n        external\r\n        onlyOwner()\r\n    {\r\n        Collateral storage collateral = collaterals[_collateralId];\r\n        require(\r\n            uint256(collateral.confiscatedFunds) >= _amount,\r\n            \"withdrawFunds: insufficient reserve funds\"\r\n        );\r\n        require(\r\n            collateral.token.transfer(_recipient, _amount),\r\n            \"withdrawFunds: transfer failed\"\r\n        );\r\n        collateral.confiscatedFunds -= _amount;\r\n        emit WithdrawedFunds(_recipient, _collateralId, _amount);\r\n    }\r\n\r\n    /**\r\n     * @dev Pause unstaking request.\r\n     * @param _oracle address of oracle\r\n     * @param _withdrawalId withdrawal identifier\r\n     */\r\n    function pauseUnstake(address _oracle, uint256 _withdrawalId) external onlyOwner() {\r\n        OracleInfo storage oracle = getOracleInfo[_oracle];\r\n        uint256 i;\r\n        for (i = 0; i < oracle.withdrawalCount; i ++) {\r\n            WithdrawalInfo storage withdrawal = oracle.withdrawals[i];\r\n            if (withdrawal.paused == false && withdrawal.executed == false) {\r\n                withdrawal.paused = true;\r\n                withdrawal.pausedTime = block.timestamp;\r\n                emit UnstakePaused(_oracle, _withdrawalId, block.timestamp);\r\n            }\r\n        }\r\n    }\r\n\r\n    /**\r\n     * @dev Resume unstaking request.\r\n     * @param _oracle address of oracle\r\n     * @param _withdrawalId withdrawal identifier\r\n     */\r\n    function resumeUnstake(address _oracle, uint256 _withdrawalId) external onlyOwner() {\r\n        OracleInfo storage oracle = getOracleInfo[_oracle];\r\n        uint256 i;\r\n        for (i = 0; i < oracle.withdrawalCount; i ++) {\r\n            WithdrawalInfo storage withdrawal = oracle.withdrawals[_withdrawalId];\r\n            if (withdrawal.paused == true && withdrawal.executed == false) {\r\n                withdrawal.paused = false;\r\n                withdrawal.timelock += block.timestamp - withdrawal.pausedTime;\r\n                emit UnstakeResumed(_oracle, _withdrawalId, block.timestamp);\r\n            }\r\n        }\r\n    }\r\n\r\n    /**\r\n     * @dev Set strategy controller\r\n     * @param _strategyController address of strategy controller\r\n     */\r\n    function setStrategyController(IStrategyController _strategyController) external onlyOwner() {\r\n        strategyController = _strategyController;\r\n    }\r\n\r\n    /**\r\n     * @dev Set Price Consumer\r\n     * @param _priceConsumer address of price consumer\r\n     */\r\n    function setPriceConsumer(IPriceConsumer _priceConsumer) external onlyOwner() {\r\n        priceConsumer = _priceConsumer;\r\n    }\r\n\r\n    /**\r\n     * @dev accounts add assets to oracle\r\n     * @param _oracle address of oracle\r\n     * @param _collateralId collateralId oracle\r\n     * @param _amount amount of token\r\n     */\r\n    function account_asset(address _oracle, uint256 _collateralId, uint256 _amount) public {\r\n        OracleInfo storage oracle = getOracleInfo[_oracle];\r\n        uint256 share = _amount * oracle.profitSharing / 100;\r\n\r\n        uint256 totalUSDAmount = 0;\r\n        uint256[] memory usdAmountPerDelegator = new uint256[](oracle.delegatorCount);\r\n        for (uint256 i = 0; i < oracle.delegatorCount; i ++) {\r\n            address delegator = oracle.delegators[i];\r\n            for (uint256 j = 0; j < collaterals.length; j ++) {\r\n                uint256 price = priceConsumer.getPriceOfToken(address(collaterals[j].token));\r\n                usdAmountPerDelegator[i] += oracle.delegatorStakes[delegator][j] * price;\r\n            }\r\n            totalUSDAmount += usdAmountPerDelegator[i];\r\n        }\r\n        Collateral storage collateral = collaterals[_collateralId];\r\n        collateral.totalLocked += _amount;\r\n        oracle.stake[_collateralId] += _amount;\r\n        if (totalUSDAmount != 0) {\r\n            for (uint256 i = 0; i < oracle.delegatorCount; i ++) {\r\n                address delegator = oracle.delegators[i];\r\n                oracle.delegatorStakes[delegator][_collateralId] += share * usdAmountPerDelegator[i] / totalUSDAmount;\r\n            }\r\n        }\r\n    }\r\n\r\n    /// @dev Get withdrawal request.\r\n    /// @param _oracle Oracle address.\r\n    /// @param _withdrawalId Withdrawal identifier.\r\n    function getWithdrawalRequest(address _oracle, uint256 _withdrawalId)\r\n        public\r\n        view\r\n        returns (WithdrawalInfo memory)\r\n    {\r\n        return getOracleInfo[_oracle].withdrawals[_withdrawalId];\r\n    }\r\n\r\n    /**\r\n     * @dev Get transfer request\r\n     * @param _oracle Oracle address\r\n     * @param _transferId Transfer identifier\r\n     */\r\n    function getTransferRequest(address _oracle, uint256 _transferId) \r\n        public\r\n        view\r\n        returns (TransferInfo memory)\r\n    {\r\n        return getOracleInfo[_oracle].transfers[_transferId];\r\n    }\r\n\r\n    /** \r\n     * @dev get stake property of oracle\r\n     * @param _oracle address of oracle\r\n     * @param _collateralId Index of collateral\r\n     */\r\n    function getOracleStaking(address _oracle, uint256 _collateralId) public view returns (uint256) {\r\n        return getOracleInfo[_oracle].stake[_collateralId];\r\n    }\r\n\r\n    /**\r\n     * @dev get delegator stakes\r\n     * @param _oracle address of oracle\r\n     * @param _delegator address of delegator\r\n     * @param _collateralId Index of collateral\r\n     */\r\n    function getDelegatorStakes(address _oracle, address _delegator, uint256 _collateralId) public view returns(uint256) {\r\n        return getOracleInfo[_oracle].delegatorStakes[_delegator][_collateralId];\r\n    }\r\n\r\n    function min(uint256 a, uint256 b) internal pure returns(uint256) {\r\n        return a < b ? a : b;\r\n    }\r\n}\r\n",
  "sourcePath": "D:/Ethereum/Debridge/debridge-contracts-v1/contracts/oracles/OracleManager.sol",
  "compiler": {
    "name": "solc",
    "version": "0.8.2+commit.661d1103.Emscripten.clang"
  },
  "schemaVersion": "3.3.4",
  "updatedAt": "2021-06-24T22:29:03.034Z",
  "devdoc": {
    "kind": "dev",
    "methods": {
      "account_asset(address,uint256,uint256)": {
        "details": "accounts add assets to oracle",
        "params": {
          "_amount": "amount of token",
          "_collateralId": "collateralId oracle",
          "_oracle": "address of oracle"
        }
      },
      "addCollateral(address)": {
        "details": "Add a new collateral",
        "params": {
          "_token": "Address of token"
        }
      },
      "addDelegator(address)": {
        "details": "Add new delegator.",
        "params": {
          "_delegator": "Oracle address."
        }
      },
      "addOracle(address,address)": {
        "details": "Add new oracle.",
        "params": {
          "_admin": "Admin address.",
          "_oracle": "Oracle address."
        }
      },
      "addStrategy(address,uint256,uint256)": {
        "details": "Add a new strategy",
        "params": {
          "_rewardToken": "collateralId of rewardToken ",
          "_stakeToken": "collateralId of stakeToken",
          "_strategy": "address to strategy"
        }
      },
      "cancelUnstake(address,uint256)": {
        "details": "Cancel unstake.",
        "params": {
          "_oracle": "Oracle address.",
          "_withdrawalId": "Withdrawal identifier."
        }
      },
      "constructor": {
        "details": "Constructor that initializes the most important configurations.",
        "params": {
          "_timelock": "Duration of withdrawal timelock."
        }
      },
      "depositToStrategy(address,uint256,uint256)": {
        "details": "Stake token to strategies to earn rewards",
        "params": {
          "_amount": "Amount to be staked",
          "_oracle": "address of oracle",
          "_strategy": "strategy to stake into."
        }
      },
      "executeTransfer(uint256)": {
        "details": "Execute transfer request",
        "params": {
          "_transferId": "Identifier of transfer"
        }
      },
      "executeUnstake(address,uint256)": {
        "details": "Withdraw stake.",
        "params": {
          "_oracle": "Oracle address.",
          "_withdrawalId": "Withdrawal identifier."
        }
      },
      "getDelegatorStakes(address,address,uint256)": {
        "details": "get delegator stakes",
        "params": {
          "_collateralId": "Index of collateral",
          "_delegator": "address of delegator",
          "_oracle": "address of oracle"
        }
      },
      "getOracleStaking(address,uint256)": {
        "details": "get stake property of oracle",
        "params": {
          "_collateralId": "Index of collateral",
          "_oracle": "address of oracle"
        }
      },
      "getTransferRequest(address,uint256)": {
        "details": "Get transfer request",
        "params": {
          "_oracle": "Oracle address",
          "_transferId": "Transfer identifier"
        }
      },
      "getWithdrawalRequest(address,uint256)": {
        "details": "Get withdrawal request.",
        "params": {
          "_oracle": "Oracle address.",
          "_withdrawalId": "Withdrawal identifier."
        }
      },
      "liquidate(address,uint256,uint256)": {
        "details": "Withdraws confiscated tokens.",
        "params": {
          "_amount": "Amount to withdraw.",
          "_collateralId": "Index of collateral",
          "_oracle": "Oracle address."
        }
      },
      "owner()": {
        "details": "Returns the address of the current owner."
      },
      "pauseUnstake(address,uint256)": {
        "details": "Pause unstaking request.",
        "params": {
          "_oracle": "address of oracle",
          "_withdrawalId": "withdrawal identifier"
        }
      },
      "renounceOwnership()": {
        "details": "Leaves the contract without owner. It will not be possible to call `onlyOwner` functions anymore. Can only be called by the current owner. NOTE: Renouncing ownership will leave the contract without an owner, thereby removing any functionality that is only available to the owner."
      },
      "requestTransfer(address,address,uint256,uint256)": {
        "details": "request to move assets between oracles",
        "params": {
          "_amount": "Amount of collateral",
          "_collateralId": "Id of collateral",
          "_oracleFrom": "Address of oracle sender",
          "_oracleTo": "Address of oracle receiver"
        }
      },
      "requestUnstake(address,uint256,address,uint256)": {
        "details": "Withdraws oracle reward.",
        "params": {
          "_amount": "Amount to withdraw.",
          "_collateralId": "Index of collateral",
          "_oracle": "Oracle address.",
          "_recipient": "Recepient reward."
        }
      },
      "resumeUnstake(address,uint256)": {
        "details": "Resume unstaking request.",
        "params": {
          "_oracle": "address of oracle",
          "_withdrawalId": "withdrawal identifier"
        }
      },
      "setPriceConsumer(address)": {
        "details": "Set Price Consumer",
        "params": {
          "_priceConsumer": "address of price consumer"
        }
      },
      "setProfitSharing(address,uint256)": {
        "details": "set percentage of profit sharing",
        "params": {
          "_profitSharing": "percentage of profit sharing"
        }
      },
      "setStrategyController(address)": {
        "details": "Set strategy controller",
        "params": {
          "_strategyController": "address of strategy controller"
        }
      },
      "setTimelock(uint256)": {
        "details": "Change withdrawal timelock.",
        "params": {
          "_newTimelock": "New timelock."
        }
      },
      "setTimelockForTransfer(uint256)": {
        "details": "Change timelock for delegate",
        "params": {
          "_newTimelock": "new timelock for delegate"
        }
      },
      "setUsdAmountOfDelegation(address,uint256)": {
        "details": "set usd amount of delegation",
        "params": {
          "_oracle": "address of oracle",
          "_usdAmountOfDelegation": "usd amount of delegation"
        }
      },
      "stake(address,uint256,uint256)": {
        "details": "Withdraws oracle reward.",
        "params": {
          "_amount": "Amount to withdraw.",
          "_collateralId": "Index of collateral",
          "_oracle": "Oracle address."
        }
      },
      "transferOwnership(address)": {
        "details": "Transfers ownership of the contract to a new account (`newOwner`). Can only be called by the current owner."
      },
      "withdrawFromStrategy(address,uint256,uint256)": {
        "details": "Earn from the strategy"
      },
      "withdrawFunds(address,uint256,uint256)": {
        "details": "Withdraws confiscated tokens.",
        "params": {
          "_amount": "Amount to withdraw.",
          "_recipient": "Recepient reward."
        }
      }
    },
    "version": 1
  },
  "userdoc": {
    "kind": "user",
    "methods": {},
    "version": 1
  }
}