{
  "contractName": "OracleManager",
  "abi": [
    {
      "inputs": [
        {
          "internalType": "uint256",
          "name": "_timelock",
          "type": "uint256"
        },
        {
          "internalType": "contract IStrategyController",
          "name": "_strategyController",
          "type": "address"
        },
        {
          "internalType": "contract IPriceConsumer",
          "name": "_priceConsumer",
          "type": "address"
        }
      ],
      "stateMutability": "nonpayable",
      "type": "constructor"
    },
    {
      "anonymous": false,
      "inputs": [
        {
          "indexed": false,
          "internalType": "address",
          "name": "oracle",
          "type": "address"
        },
        {
          "indexed": false,
          "internalType": "uint256",
          "name": "amount",
          "type": "uint256"
        },
        {
          "indexed": false,
          "internalType": "address",
          "name": "strategy",
          "type": "address"
        },
        {
          "indexed": false,
          "internalType": "address",
          "name": "collateral",
          "type": "address"
        }
      ],
      "name": "DepositedToStrategy",
      "type": "event"
    },
    {
      "anonymous": false,
      "inputs": [
        {
          "indexed": false,
          "internalType": "address",
          "name": "oracle",
          "type": "address"
        },
        {
          "indexed": false,
          "internalType": "address",
          "name": "collateral",
          "type": "address"
        },
        {
          "indexed": false,
          "internalType": "uint256",
          "name": "amount",
          "type": "uint256"
        }
      ],
      "name": "Liquidated",
      "type": "event"
    },
    {
      "anonymous": false,
      "inputs": [
        {
          "indexed": true,
          "internalType": "address",
          "name": "previousOwner",
          "type": "address"
        },
        {
          "indexed": true,
          "internalType": "address",
          "name": "newOwner",
          "type": "address"
        }
      ],
      "name": "OwnershipTransferred",
      "type": "event"
    },
    {
      "anonymous": false,
      "inputs": [
        {
          "indexed": false,
          "internalType": "address",
          "name": "oracle",
          "type": "address"
        },
        {
          "indexed": false,
          "internalType": "address",
          "name": "staker",
          "type": "address"
        },
        {
          "indexed": false,
          "internalType": "address",
          "name": "collateral",
          "type": "address"
        },
        {
          "indexed": false,
          "internalType": "uint256",
          "name": "amount",
          "type": "uint256"
        }
      ],
      "name": "Staked",
      "type": "event"
    },
    {
      "anonymous": false,
      "inputs": [
        {
          "indexed": false,
          "internalType": "address",
          "name": "delegator",
          "type": "address"
        },
        {
          "indexed": false,
          "internalType": "uint256",
          "name": "transferId",
          "type": "uint256"
        }
      ],
      "name": "TransferExecuted",
      "type": "event"
    },
    {
      "anonymous": false,
      "inputs": [
        {
          "indexed": false,
          "internalType": "address",
          "name": "delegator",
          "type": "address"
        },
        {
          "indexed": false,
          "internalType": "uint256",
          "name": "transferId",
          "type": "uint256"
        }
      ],
      "name": "TransferRequested",
      "type": "event"
    },
    {
      "anonymous": false,
      "inputs": [
        {
          "indexed": false,
          "internalType": "address",
          "name": "oracle",
          "type": "address"
        },
        {
          "indexed": false,
          "internalType": "uint256",
          "name": "withdrawalId",
          "type": "uint256"
        }
      ],
      "name": "UnstakeCancelled",
      "type": "event"
    },
    {
      "anonymous": false,
      "inputs": [
        {
          "indexed": false,
          "internalType": "address",
          "name": "oracle",
          "type": "address"
        },
        {
          "indexed": false,
          "internalType": "uint256",
          "name": "withdrawalId",
          "type": "uint256"
        }
      ],
      "name": "UnstakeExecuted",
      "type": "event"
    },
    {
      "anonymous": false,
      "inputs": [
        {
          "indexed": false,
          "internalType": "address",
          "name": "oracle",
          "type": "address"
        },
        {
          "indexed": false,
          "internalType": "uint256",
          "name": "withdrawalId",
          "type": "uint256"
        },
        {
          "indexed": false,
          "internalType": "uint256",
          "name": "timestamp",
          "type": "uint256"
        }
      ],
      "name": "UnstakePaused",
      "type": "event"
    },
    {
      "anonymous": false,
      "inputs": [
        {
          "indexed": false,
          "internalType": "address",
          "name": "oracle",
          "type": "address"
        },
        {
          "indexed": false,
          "internalType": "address",
          "name": "collateral",
          "type": "address"
        },
        {
          "indexed": false,
          "internalType": "address",
          "name": "receipient",
          "type": "address"
        },
        {
          "indexed": false,
          "internalType": "uint256",
          "name": "amount",
          "type": "uint256"
        }
      ],
      "name": "UnstakeRequested",
      "type": "event"
    },
    {
      "anonymous": false,
      "inputs": [
        {
          "indexed": false,
          "internalType": "address",
          "name": "oracle",
          "type": "address"
        },
        {
          "indexed": false,
          "internalType": "uint256",
          "name": "withdrawalId",
          "type": "uint256"
        },
        {
          "indexed": false,
          "internalType": "uint256",
          "name": "timestamp",
          "type": "uint256"
        }
      ],
      "name": "UnstakeResumed",
      "type": "event"
    },
    {
      "anonymous": false,
      "inputs": [
        {
          "indexed": false,
          "internalType": "address",
          "name": "oracle",
          "type": "address"
        },
        {
          "indexed": false,
          "internalType": "uint256",
          "name": "amount",
          "type": "uint256"
        },
        {
          "indexed": false,
          "internalType": "address",
          "name": "strategy",
          "type": "address"
        },
        {
          "indexed": false,
          "internalType": "address",
          "name": "collateral",
          "type": "address"
        }
      ],
      "name": "WithdrawedFromStrategy",
      "type": "event"
    },
    {
      "anonymous": false,
      "inputs": [
        {
          "indexed": false,
          "internalType": "address",
          "name": "recipient",
          "type": "address"
        },
        {
          "indexed": false,
          "internalType": "address",
          "name": "collateral",
          "type": "address"
        },
        {
          "indexed": false,
          "internalType": "uint256",
          "name": "amount",
          "type": "uint256"
        }
      ],
      "name": "WithdrawedFunds",
      "type": "event"
    },
    {
      "inputs": [
        {
          "internalType": "uint256",
          "name": "",
          "type": "uint256"
        }
      ],
      "name": "collateralAddresses",
      "outputs": [
        {
          "internalType": "address",
          "name": "",
          "type": "address"
        }
      ],
      "stateMutability": "view",
      "type": "function"
    },
    {
      "inputs": [
        {
          "internalType": "address",
          "name": "",
          "type": "address"
        }
      ],
      "name": "collaterals",
      "outputs": [
        {
          "internalType": "uint256",
          "name": "confiscatedFunds",
          "type": "uint256"
        },
        {
          "internalType": "uint256",
          "name": "totalLocked",
          "type": "uint256"
        },
        {
          "internalType": "bool",
          "name": "isSupported",
          "type": "bool"
        },
        {
          "internalType": "bool",
          "name": "isUSDStable",
          "type": "bool"
        },
        {
          "internalType": "bool",
          "name": "isEnabled",
          "type": "bool"
        }
      ],
      "stateMutability": "view",
      "type": "function"
    },
    {
      "inputs": [
        {
          "internalType": "address",
          "name": "",
          "type": "address"
        }
      ],
      "name": "getOracleInfo",
      "outputs": [
        {
          "internalType": "address",
          "name": "admin",
          "type": "address"
        },
        {
          "internalType": "uint256",
          "name": "withdrawalCount",
          "type": "uint256"
        },
        {
          "internalType": "uint256",
          "name": "transferCount",
          "type": "uint256"
        },
        {
          "internalType": "uint256",
          "name": "profitSharing",
          "type": "uint256"
        },
        {
          "internalType": "uint256",
          "name": "usdAmountOfDelegation",
          "type": "uint256"
        },
        {
          "internalType": "bool",
          "name": "isOracle",
          "type": "bool"
        },
        {
          "internalType": "bool",
          "name": "isAbleToDelegate",
          "type": "bool"
        },
        {
          "internalType": "uint256",
          "name": "delegatorCount",
          "type": "uint256"
        }
      ],
      "stateMutability": "view",
      "type": "function"
    },
    {
      "inputs": [],
      "name": "owner",
      "outputs": [
        {
          "internalType": "address",
          "name": "",
          "type": "address"
        }
      ],
      "stateMutability": "view",
      "type": "function"
    },
    {
      "inputs": [],
      "name": "priceConsumer",
      "outputs": [
        {
          "internalType": "contract IPriceConsumer",
          "name": "",
          "type": "address"
        }
      ],
      "stateMutability": "view",
      "type": "function"
    },
    {
      "inputs": [],
      "name": "renounceOwnership",
      "outputs": [],
      "stateMutability": "nonpayable",
      "type": "function"
    },
    {
      "inputs": [
        {
          "internalType": "address",
          "name": "",
          "type": "address"
        }
      ],
      "name": "strategies",
      "outputs": [
        {
          "internalType": "bool",
          "name": "isSupported",
          "type": "bool"
        },
        {
          "internalType": "bool",
          "name": "isEnabled",
          "type": "bool"
        },
        {
          "internalType": "address",
          "name": "stakeToken",
          "type": "address"
        },
        {
          "internalType": "address",
          "name": "rewardToken",
          "type": "address"
        }
      ],
      "stateMutability": "view",
      "type": "function"
    },
    {
      "inputs": [
        {
          "internalType": "uint256",
          "name": "",
          "type": "uint256"
        }
      ],
      "name": "strategyAddresses",
      "outputs": [
        {
          "internalType": "address",
          "name": "",
          "type": "address"
        }
      ],
      "stateMutability": "view",
      "type": "function"
    },
    {
      "inputs": [],
      "name": "strategyController",
      "outputs": [
        {
          "internalType": "contract IStrategyController",
          "name": "",
          "type": "address"
        }
      ],
      "stateMutability": "view",
      "type": "function"
    },
    {
      "inputs": [],
      "name": "timelock",
      "outputs": [
        {
          "internalType": "uint256",
          "name": "",
          "type": "uint256"
        }
      ],
      "stateMutability": "view",
      "type": "function"
    },
    {
      "inputs": [],
      "name": "timelockForDelegate",
      "outputs": [
        {
          "internalType": "uint256",
          "name": "",
          "type": "uint256"
        }
      ],
      "stateMutability": "view",
      "type": "function"
    },
    {
      "inputs": [
        {
          "internalType": "address",
          "name": "newOwner",
          "type": "address"
        }
      ],
      "name": "transferOwnership",
      "outputs": [],
      "stateMutability": "nonpayable",
      "type": "function"
    },
    {
      "inputs": [
        {
          "internalType": "address",
          "name": "_oracle",
          "type": "address"
        },
        {
          "internalType": "address",
          "name": "_collateral",
          "type": "address"
        },
        {
          "internalType": "uint256",
          "name": "_amount",
          "type": "uint256"
        }
      ],
      "name": "stake",
      "outputs": [],
      "stateMutability": "nonpayable",
      "type": "function"
    },
    {
      "inputs": [
        {
          "internalType": "address",
          "name": "_oracle",
          "type": "address"
        },
        {
          "internalType": "address",
          "name": "_collateral",
          "type": "address"
        },
        {
          "internalType": "address",
          "name": "_recipient",
          "type": "address"
        },
        {
          "internalType": "uint256",
          "name": "_amount",
          "type": "uint256"
        }
      ],
      "name": "requestUnstake",
      "outputs": [],
      "stateMutability": "nonpayable",
      "type": "function"
    },
    {
      "inputs": [
        {
          "internalType": "address",
          "name": "_oracle",
          "type": "address"
        },
        {
          "internalType": "uint256",
          "name": "_withdrawalId",
          "type": "uint256"
        }
      ],
      "name": "executeUnstake",
      "outputs": [],
      "stateMutability": "nonpayable",
      "type": "function"
    },
    {
      "inputs": [
        {
          "internalType": "address",
          "name": "_oracleFrom",
          "type": "address"
        },
        {
          "internalType": "address",
          "name": "_oracleTo",
          "type": "address"
        },
        {
          "internalType": "address",
          "name": "_collateral",
          "type": "address"
        },
        {
          "internalType": "uint256",
          "name": "_amount",
          "type": "uint256"
        }
      ],
      "name": "requestTransfer",
      "outputs": [],
      "stateMutability": "nonpayable",
      "type": "function"
    },
    {
      "inputs": [
        {
          "internalType": "uint256",
          "name": "_transferId",
          "type": "uint256"
        }
      ],
      "name": "executeTransfer",
      "outputs": [],
      "stateMutability": "nonpayable",
      "type": "function"
    },
    {
      "inputs": [
        {
          "internalType": "address",
          "name": "_oracle",
          "type": "address"
        },
        {
          "internalType": "uint256",
          "name": "_amount",
          "type": "uint256"
        },
        {
          "internalType": "address",
          "name": "_strategy",
          "type": "address"
        }
      ],
      "name": "depositToStrategy",
      "outputs": [],
      "stateMutability": "nonpayable",
      "type": "function"
    },
    {
      "inputs": [
        {
          "internalType": "address",
          "name": "_oracle",
          "type": "address"
        },
        {
          "internalType": "uint256",
          "name": "_amount",
          "type": "uint256"
        },
        {
          "internalType": "address",
          "name": "_strategy",
          "type": "address"
        }
      ],
      "name": "withdrawFromStrategy",
      "outputs": [],
      "stateMutability": "nonpayable",
      "type": "function"
    },
    {
      "inputs": [
        {
          "internalType": "address",
          "name": "_oracle",
          "type": "address"
        },
        {
          "internalType": "uint256",
          "name": "_profitSharing",
          "type": "uint256"
        }
      ],
      "name": "setProfitSharing",
      "outputs": [],
      "stateMutability": "nonpayable",
      "type": "function"
    },
    {
      "inputs": [
        {
          "internalType": "address",
          "name": "_oracle",
          "type": "address"
        },
        {
          "internalType": "uint256",
          "name": "_usdAmountOfDelegation",
          "type": "uint256"
        }
      ],
      "name": "setUsdAmountOfDelegation",
      "outputs": [],
      "stateMutability": "nonpayable",
      "type": "function"
    },
    {
      "inputs": [
        {
          "internalType": "uint256",
          "name": "_newTimelock",
          "type": "uint256"
        }
      ],
      "name": "setTimelock",
      "outputs": [],
      "stateMutability": "nonpayable",
      "type": "function"
    },
    {
      "inputs": [
        {
          "internalType": "uint256",
          "name": "_newTimelock",
          "type": "uint256"
        }
      ],
      "name": "setTimelockForTransfer",
      "outputs": [],
      "stateMutability": "nonpayable",
      "type": "function"
    },
    {
      "inputs": [
        {
          "internalType": "address",
          "name": "_oracle",
          "type": "address"
        },
        {
          "internalType": "address",
          "name": "_admin",
          "type": "address"
        }
      ],
      "name": "addOracle",
      "outputs": [],
      "stateMutability": "nonpayable",
      "type": "function"
    },
    {
      "inputs": [
        {
          "internalType": "address",
          "name": "_delegator",
          "type": "address"
        }
      ],
      "name": "addDelegator",
      "outputs": [],
      "stateMutability": "nonpayable",
      "type": "function"
    },
    {
      "inputs": [
        {
          "internalType": "address",
          "name": "_token",
          "type": "address"
        },
        {
          "internalType": "bool",
          "name": "_isUSDStable",
          "type": "bool"
        }
      ],
      "name": "addCollateral",
      "outputs": [],
      "stateMutability": "nonpayable",
      "type": "function"
    },
    {
      "inputs": [
        {
          "internalType": "address",
          "name": "_strategy",
          "type": "address"
        },
        {
          "internalType": "address",
          "name": "_stakeToken",
          "type": "address"
        },
        {
          "internalType": "address",
          "name": "_rewardToken",
          "type": "address"
        }
      ],
      "name": "addStrategy",
      "outputs": [],
      "stateMutability": "nonpayable",
      "type": "function"
    },
    {
      "inputs": [
        {
          "internalType": "address",
          "name": "_collateral",
          "type": "address"
        },
        {
          "internalType": "bool",
          "name": "_isEnabled",
          "type": "bool"
        }
      ],
      "name": "updatedCollateral",
      "outputs": [],
      "stateMutability": "nonpayable",
      "type": "function"
    },
    {
      "inputs": [
        {
          "internalType": "address",
          "name": "_strategy",
          "type": "address"
        },
        {
          "internalType": "bool",
          "name": "_isEnabled",
          "type": "bool"
        }
      ],
      "name": "updateStrategy",
      "outputs": [],
      "stateMutability": "nonpayable",
      "type": "function"
    },
    {
      "inputs": [
        {
          "internalType": "address",
          "name": "_oracle",
          "type": "address"
        },
        {
          "internalType": "uint256",
          "name": "_withdrawalId",
          "type": "uint256"
        }
      ],
      "name": "cancelUnstake",
      "outputs": [],
      "stateMutability": "nonpayable",
      "type": "function"
    },
    {
      "inputs": [
        {
          "internalType": "address",
          "name": "_oracle",
          "type": "address"
        },
        {
          "internalType": "address",
          "name": "_collateral",
          "type": "address"
        },
        {
          "internalType": "uint256",
          "name": "_amount",
          "type": "uint256"
        }
      ],
      "name": "liquidate",
      "outputs": [],
      "stateMutability": "nonpayable",
      "type": "function"
    },
    {
      "inputs": [
        {
          "internalType": "address",
          "name": "_recipient",
          "type": "address"
        },
        {
          "internalType": "address",
          "name": "_collateral",
          "type": "address"
        },
        {
          "internalType": "uint256",
          "name": "_amount",
          "type": "uint256"
        }
      ],
      "name": "withdrawFunds",
      "outputs": [],
      "stateMutability": "nonpayable",
      "type": "function"
    },
    {
      "inputs": [
        {
          "internalType": "address",
          "name": "_oracle",
          "type": "address"
        }
      ],
      "name": "pauseUnstake",
      "outputs": [],
      "stateMutability": "nonpayable",
      "type": "function"
    },
    {
      "inputs": [
        {
          "internalType": "address",
          "name": "_oracle",
          "type": "address"
        }
      ],
      "name": "resumeUnstake",
      "outputs": [],
      "stateMutability": "nonpayable",
      "type": "function"
    },
    {
      "inputs": [
        {
          "internalType": "contract IStrategyController",
          "name": "_strategyController",
          "type": "address"
        }
      ],
      "name": "setStrategyController",
      "outputs": [],
      "stateMutability": "nonpayable",
      "type": "function"
    },
    {
      "inputs": [
        {
          "internalType": "contract IPriceConsumer",
          "name": "_priceConsumer",
          "type": "address"
        }
      ],
      "name": "setPriceConsumer",
      "outputs": [],
      "stateMutability": "nonpayable",
      "type": "function"
    },
    {
      "inputs": [
        {
          "internalType": "address",
          "name": "_oracle",
          "type": "address"
        },
        {
          "internalType": "address",
          "name": "_collateral",
          "type": "address"
        },
        {
          "internalType": "uint256",
          "name": "_amount",
          "type": "uint256"
        }
      ],
      "name": "account_asset",
      "outputs": [],
      "stateMutability": "nonpayable",
      "type": "function"
    },
    {
      "inputs": [
        {
          "internalType": "address",
          "name": "_oracle",
          "type": "address"
        },
        {
          "internalType": "uint256",
          "name": "_withdrawalId",
          "type": "uint256"
        }
      ],
      "name": "getWithdrawalRequest",
      "outputs": [
        {
          "components": [
            {
              "internalType": "uint256",
              "name": "amount",
              "type": "uint256"
            },
            {
              "internalType": "uint256",
              "name": "timelock",
              "type": "uint256"
            },
            {
              "internalType": "address",
              "name": "receiver",
              "type": "address"
            },
            {
              "internalType": "bool",
              "name": "executed",
              "type": "bool"
            },
            {
              "internalType": "bool",
              "name": "paused",
              "type": "bool"
            },
            {
              "internalType": "uint256",
              "name": "pausedTime",
              "type": "uint256"
            },
            {
              "internalType": "address",
              "name": "collateral",
              "type": "address"
            }
          ],
          "internalType": "struct OracleManager.WithdrawalInfo",
          "name": "",
          "type": "tuple"
        }
      ],
      "stateMutability": "view",
      "type": "function"
    },
    {
      "inputs": [
        {
          "internalType": "address",
          "name": "_oracle",
          "type": "address"
        },
        {
          "internalType": "uint256",
          "name": "_transferId",
          "type": "uint256"
        }
      ],
      "name": "getTransferRequest",
      "outputs": [
        {
          "components": [
            {
              "internalType": "uint256",
              "name": "amount",
              "type": "uint256"
            },
            {
              "internalType": "uint256",
              "name": "timelock",
              "type": "uint256"
            },
            {
              "internalType": "address",
              "name": "oracleFrom",
              "type": "address"
            },
            {
              "internalType": "address",
              "name": "oracleTo",
              "type": "address"
            },
            {
              "internalType": "bool",
              "name": "executed",
              "type": "bool"
            },
            {
              "internalType": "address",
              "name": "collateral",
              "type": "address"
            }
          ],
          "internalType": "struct OracleManager.TransferInfo",
          "name": "",
          "type": "tuple"
        }
      ],
      "stateMutability": "view",
      "type": "function"
    },
    {
      "inputs": [
        {
          "internalType": "address",
          "name": "_oracle",
          "type": "address"
        },
        {
          "internalType": "address",
          "name": "_collateral",
          "type": "address"
        }
      ],
      "name": "getOracleStaking",
      "outputs": [
        {
          "internalType": "uint256",
          "name": "",
          "type": "uint256"
        }
      ],
      "stateMutability": "view",
      "type": "function"
    },
    {
      "inputs": [
        {
          "internalType": "address",
          "name": "_oracle",
          "type": "address"
        },
        {
          "internalType": "address",
          "name": "_delegator",
          "type": "address"
        },
        {
          "internalType": "address",
          "name": "_collateral",
          "type": "address"
        }
      ],
      "name": "getDelegatorStakes",
      "outputs": [
        {
          "internalType": "uint256",
          "name": "",
          "type": "uint256"
        }
      ],
      "stateMutability": "view",
      "type": "function"
    }
  ],
  "bytecode": "0x6080604052621275006003553480156200001857600080fd5b5060405162003580380380620035808339810160408190526200003b91620000b4565b600080546001600160a01b031916339081178255604051909182917f8be0079c531659141344cd1fd0a4f28419497f9722a3daafe3b4186f6b6457e0908290a350600292909255600880546001600160a01b039283166001600160a01b0319918216179091556009805492909316911617905562000114565b600080600060608486031215620000c9578283fd5b835192506020840151620000dd81620000fb565b6040850151909250620000f081620000fb565b809150509250925092565b6001600160a01b03811681146200011157600080fd5b50565b61345c80620001246000396000f3fe608060405234801561001057600080fd5b50600436106102525760003560e01c80638408f74511610146578063cf796a1d116100c3578063f05d575211610087578063f05d5752146106bc578063f0ca4adb146106cf578063f2847e64146106e2578063f2fde38b14610819578063f699d3791461082c578063ff3ab9c51461094157610252565b8063cf796a1d14610605578063d33219b414610618578063e56a2b6714610621578063ea900ed314610634578063eeb97d3b1461064757610252565b8063b509ed701161010a578063b509ed70146104d5578063b779e6cb146104e8578063bd9806d8146104fb578063bf6eac2f14610542578063bfdb6b041461055557610252565b80638408f7451461047857806386e76f731461048b5780638da5cb5b1461049e578063973badb7146104af578063a3ff53e2146104c257610252565b80632ec919f1116101d4578063461a758c11610198578063461a758c146103fe57806355772ca714610411578063715018a614610424578063743a54411461042c578063744928941461046557610252565b80632ec919f1146103345780633729282114610347578063376956b61461035a57806339ebf8231461036d578063437aef4b146103e757610252565b806320abadd71161021b57806320abadd7146102d557806321fb4c35146102e857806326c01303146102fb57806328d2c3db1461030e5780632c4172631461032157610252565b8062258d6b14610257578063172f68ad146102875780631c20fadd1461029a5780631e891c0a146102af5780631f3564d9146102c2575b600080fd5b60085461026a906001600160a01b031681565b6040516001600160a01b0390911681526020015b60405180910390f35b61026a61029536600461318e565b610954565b6102ad6102a83660046130a4565b61097e565b005b6102ad6102bd36600461318e565b610b65565b6102ad6102d0366004613111565b610b94565b6102ad6102e33660046130e4565b610cfa565b6102ad6102f6366004612faf565b610dcd565b6102ad6103093660046130a4565b610e33565b6102ad61031c366004613111565b610f87565b6102ad61032f366004613054565b610fcf565b6102ad610342366004612faf565b6114bf565b61026a61035536600461318e565b6115e7565b6102ad610368366004613111565b6115f7565b6103b661037b366004612faf565b6006602052600090815260409020805460019091015460ff808316926101008104909116916001600160a01b03620100009092048216911684565b60408051941515855292151560208501526001600160a01b039182169284019290925216606082015260800161027e565b6103f060035481565b60405190815260200161027e565b60095461026a906001600160a01b031681565b6102ad61041f3660046130e4565b6118c5565b6102ad611925565b6103f061043a366004612fd2565b6001600160a01b03918216600090815260016020908152604080832093909416825291909152205490565b6102ad6104733660046130e4565b611999565b6102ad610486366004613054565b6119f4565b6102ad610499366004612faf565b611e6f565b6000546001600160a01b031661026a565b6102ad6104bd36600461313c565b611ebb565b6102ad6104d0366004613111565b6120b7565b6102ad6104e336600461318e565b6120ff565b6102ad6104f6366004612faf565b61212e565b6103f061050936600461300a565b6001600160a01b039283166000908152600160209081526040808320948616835260099094018152838220929094168152925290205490565b6102ad6105503660046130a4565b612237565b6105bc610563366004612faf565b60016020819052600091825260409091209081015460028201546003830154600684015460078501546008860154600b909601546001600160a01b0390951695939492939192909160ff80821692610100909204169088565b604080516001600160a01b03909916895260208901979097529587019490945260608601929092526080850152151560a0840152151560c083015260e08201526101000161027e565b6102ad61061336600461313c565b6127c3565b6103f060025481565b6102ad61062f366004612faf565b61293e565b6102ad6106423660046130a4565b61298a565b61068c610655366004612faf565b60046020526000908152604090208054600182015460029092015490919060ff808216916101008104821691620100009091041685565b6040805195865260208601949094529115159284019290925290151560608301521515608082015260a00161027e565b6102ad6106ca36600461318e565b612b38565b6102ad6106dd366004612fd2565b612d2e565b6107b76106f0366004613111565b6040805160e081018252600080825260208201819052918101829052606081018290526080810182905260a0810182905260c0810191909152506001600160a01b0391821660009081526001602081815260408084209484526004948501825292839020835160e081018552815481529281015491830191909152600281015480861693830193909352600160a01b830460ff90811615156060840152600160a81b90930490921615156080820152600382015460a082015291015490911660c082015290565b604080518251815260208084015190820152828201516001600160a01b039081169282019290925260608084015115159082015260808084015115159082015260a0808401519082015260c0928301519091169181019190915260e00161027e565b6102ad610827366004612faf565b612d9e565b6108e961083a366004613111565b6040805160c081018252600080825260208201819052918101829052606081018290526080810182905260a0810191909152506001600160a01b0391821660009081526001602081815260408084209484526005909401815291839020835160c081018552815481529181015492820192909252600282015484169281019290925260038101548084166060840152600160a01b900460ff16151560808301526004015490911660a082015290565b604080518251815260208084015190820152828201516001600160a01b039081169282019290925260608084015183169082015260808084015115159082015260a0928301519091169181019190915260c00161027e565b6102ad61094f36600461300a565b612e88565b6005818154811061096457600080fd5b6000918252602090912001546001600160a01b0316905081565b6000546001600160a01b031633146109b15760405162461bcd60e51b81526004016109a89061329f565b60405180910390fd5b6001600160a01b03821660009081526004602052604090208054821115610a2c5760405162461bcd60e51b815260206004820152602960248201527f776974686472617746756e64733a20696e73756666696369656e7420726573656044820152687276652066756e647360b81b60648201526084016109a8565b60405163a9059cbb60e01b81526001600160a01b0385811660048301526024820184905284169063a9059cbb90604401602060405180830381600087803b158015610a7657600080fd5b505af1158015610a8a573d6000803e3d6000fd5b505050506040513d601f19601f82011682018060405250810190610aae9190613172565b610afa5760405162461bcd60e51b815260206004820152601e60248201527f776974686472617746756e64733a207472616e73666572206661696c6564000060448201526064016109a8565b81816000016000828254610b0e91906133b8565b9091555050604080516001600160a01b038087168252851660208201529081018390527fe61c2dc65a7e3f01243a6567d63f0160291fc888ea9714cefee0e82b0e7ff718906060015b60405180910390a150505050565b6000546001600160a01b03163314610b8f5760405162461bcd60e51b81526004016109a89061329f565b600255565b6000546001600160a01b03163314610bbe5760405162461bcd60e51b81526004016109a89061329f565b6001600160a01b0382166000908152600160209081526040808320848452600481019092529091206002810154600160a01b900460ff1615610c425760405162461bcd60e51b815260206004820152601f60248201527f63616e63656c556e7374616b653a20616c72656164792065786563757465640060448201526064016109a8565b6004818101546001600160a01b031660009081526020918252604080822060028501805460ff60a01b1916600160a01b17905584549386905290822080549193929091610c90908490613361565b90915550508154600182018054600090610cab908490613361565b9091555050604080516001600160a01b0387168152602081018690527f02fbe69eb5474cc010b6c0c236dd70755556cee48c19373e79147100e04de70b91015b60405180910390a15050505050565b6000546001600160a01b03163314610d245760405162461bcd60e51b81526004016109a89061329f565b6001600160a01b03821660009081526004602052604090206002015460ff16610dc9576001600160a01b0382166000818152600460205260408120600201805462010000600160ff19909216821762ff000019161761ff00191661010086151502179091556005805491820181559091527f036b6384b5eca791c62761152d0c79bb0604c104a5fb6f4eb0703f3154bb3db00180546001600160a01b03191690911790555b5050565b6000546001600160a01b03163314610df75760405162461bcd60e51b81526004016109a89061329f565b6001600160a01b0316600081815260016020819052604090912090810180546001600160a01b031916909217909155600801805460ff19169055565b6000546001600160a01b03163314610e5d5760405162461bcd60e51b81526004016109a89061329f565b6001600160a01b038084166000908152600160209081526040808320938616835290839052902054821115610ed45760405162461bcd60e51b815260206004820152601f60248201527f6c69717569646174653a20696e73756666696369656e742062616c616e63650060448201526064016109a8565b6001600160a01b0383166000908152600460209081526040808320918490528220805491928592610f069084906133b8565b9091555050805483908290600090610f1f908490613361565b9250508190555082816001016000828254610f3a91906133b8565b9091555050604080516001600160a01b038088168252861660208201529081018490527fde0aa27286f5cb3a4ed853dc4823ead62d63e92cdf13de09d6aece56970721a490606001610ceb565b6001600160a01b038281166000908152600160208190526040909120908101549091163314610fc85760405162461bcd60e51b81526004016109a890613208565b6007015550565b6001600160a01b038416600090815260016020526040902081610ff257506114b9565b6001600160a01b0384166000908152600460205260409020600281015460ff1661102e5760405162461bcd60e51b81526004016109a8906132d4565b600281015462010000900460ff1661109a5760405162461bcd60e51b815260206004820152602960248201527f72657175657374556e7374616b653a20636f6c6c61746572616c206973206e6f6044820152681d08195b98589b195960ba1b60648201526084016109a8565b6001600160a01b0385166000908152602083905260409020548381101561111b5760405162461bcd60e51b815260206004820152602f60248201527f72657175657374556e7374616b653a20696e73756666696369656e742077697460448201526e686472617761626c652066756e647360881b60648201526084016109a8565b336000908152600160205260409020600881015460ff1615801561114c575060018401546001600160a01b03163314155b156112b95733600090815260098501602090815260408083206001600160a01b038b16845291829052909120548611156111d45760405162461bcd60e51b815260206004820152602360248201527f72657175657374556e7374616b653a20696e73756666696369656e7420616d6f6044820152621d5b9d60ea1b60648201526084016109a8565b6001600160a01b038816600090815260208290526040812080548892906111fc9084906133b8565b90915550506002840154600090610100900460ff161561121e575060016112a0565b6009546040516311b5088f60e31b81526001600160a01b038b8116600483015290911690638da8447890602401602060405180830381600087803b15801561126557600080fd5b505af1158015611279573d6000803e3d6000fd5b505050506040513d601f19601f8201168201806040525081019061129d91906131a6565b90505b6112aa8782613399565b82600101819055505050611324565b60018401546001600160a01b031633146113245760405162461bcd60e51b815260206004820152602660248201527f72657175657374556e7374616b653a206f6e6c792063616c6c61626c652062796044820152651030b236b4b760d11b60648201526084016109a8565b61132e85836133b8565b6001600160a01b03881660009081526020869052604081209190915560018401805487929061135e9084906133b8565b925050819055506040518060e00160405280868152602001600254426113849190613361565b81526001600160a01b0380891660208084019190915260006040808501829052606080860183905260808087018490528e861660a0978801526002808d01805486526004808f0188528587208b518155978b01516001890155948a01519187018054948b0151938b01511515600160a81b0260ff60a81b19941515600160a01b0260ff60a01b19948b166001600160a01b0319978816179490941693909317939093169190911790915595870151600385015560c090960151920180549290931691909416179055805491611458836133cf565b9091555050604080516001600160a01b03808b168252808a166020830152881691810191909152606081018690527fbee4e9a3b61524ca70f68318d30f79c9347b997657b87a220c20eec7a59e6620906080015b60405180910390a1505050505b50505050565b6000546001600160a01b031633146114e95760405162461bcd60e51b81526004016109a89061329f565b6001600160a01b0381166000908152600160205260408120905b81600201548110156115e257600081815260048301602052604090206002810154600160a81b900460ff161515600114801561154b57506002810154600160a01b900460ff16155b156115cf5760028101805460ff60a81b19169055600381015461156e90426133b8565b8160010160008282546115819190613361565b9091555050604080516001600160a01b038616815260208101849052428183015290517f551a001dc50bd90c0a14e5b6426b5b5efeaf406db5f39b60875be6d037c022eb9181900360600190a15b50806115da816133cf565b915050611503565b505050565b6007818154811061096457600080fd5b6001600160a01b0380831660009081526001602081905260409091209081015490911633146116775760405162461bcd60e51b815260206004820152602660248201527f65786563757465556e7374616b653a206f6e6c792063616c6c61626c652062796044820152651030b236b4b760d11b60648201526084016109a8565b806002015482106116d85760405162461bcd60e51b815260206004820152602560248201527f65786563757465556e7374616b653a207769746864726177616c206e6f742065604482015264786973747360d81b60648201526084016109a8565b600082815260048201602052604090206002810154600160a01b900460ff16156117445760405162461bcd60e51b815260206004820181905260248201527f65786563757465556e7374616b653a20616c726561647920657865637574656460448201526064016109a8565b428160010154106117975760405162461bcd60e51b815260206004820152601960248201527f65786563757465556e7374616b653a20746f6f206561726c790000000000000060448201526064016109a8565b60028101805460ff60a01b1916600160a01b1790819055600480830154835460405163a9059cbb60e01b81526001600160a01b03948516938101939093526024830152919091169063a9059cbb90604401602060405180830381600087803b15801561180257600080fd5b505af1158015611816573d6000803e3d6000fd5b505050506040513d601f19601f8201168201806040525081019061183a9190613172565b6118865760405162461bcd60e51b815260206004820152601f60248201527f65786563757465556e7374616b653a207472616e73666572206661696c65640060448201526064016109a8565b604080516001600160a01b0386168152602081018590527fe3e01bae44eb85a30bd61c3742b60e379576ff5070a142675f575f53d5bbc2e49101610b57565b6000546001600160a01b031633146118ef5760405162461bcd60e51b81526004016109a89061329f565b6001600160a01b0390911660009081526004602052604090206002018054911515620100000262ff000019909216919091179055565b6000546001600160a01b0316331461194f5760405162461bcd60e51b81526004016109a89061329f565b600080546040516001600160a01b03909116907f8be0079c531659141344cd1fd0a4f28419497f9722a3daafe3b4186f6b6457e0908390a3600080546001600160a01b0319169055565b6000546001600160a01b031633146119c35760405162461bcd60e51b81526004016109a89061329f565b6001600160a01b03909116600090815260066020526040902080549115156101000261ff0019909216919091179055565b6001600160a01b038085166000908152600160208181526040808420888616855281852095881685526004835293819020815160a08101835281548152938101549284019290925260029091015460ff80821615159284018390526101008204811615156060850152620100009091041615156080830152919291611a8b5760405162461bcd60e51b81526004016109a8906132d4565b8060800151611aef5760405162461bcd60e51b815260206004820152602a60248201527f726571756573745472616e736665723a20636f6c6c61746572616c206973206e6044820152691bdd08195b98589b195960b21b60648201526084016109a8565b336000908152600160205260409020600881015460ff1615611b625760405162461bcd60e51b815260206004820152602660248201527f726571756573745472616e736665723a2063616c6c61626c652062792064656c60448201526532b3b0ba37b960d11b60648201526084016109a8565b6001600160a01b038616600090815260208590526040902054851115611bd65760405162461bcd60e51b815260206004820152602360248201527f7472616e736665724173736574733a20496e73756666696369656e7420616d6f6044820152621d5b9d60ea1b60648201526084016109a8565b33600090815260098501602090815260408083206001600160a01b038a168452909152902054851115611c655760405162461bcd60e51b815260206004820152603160248201527f7472616e736665724173736574733a20496e73756666696369656e7420616d6f6044820152703ab73a103337b9103232b632b3b0ba37b960791b60648201526084016109a8565b6001600160a01b03861660009081526020859052604081208054879290611c8d9084906133b8565b90915550506001600160a01b03861660009081526020849052604081208054879290611cba908490613361565b909155505033600090815260098501602090815260408083206001600160a01b038a16845290915281208054879290611cf49084906133b8565b909155505033600090815260098401602090815260408083206001600160a01b038a16845290915281208054879290611d2e908490613361565b925050819055506040518060c0016040528086815260200160035442611d549190613361565b81526001600160a01b03808b166020808401919091528a8216604080850191909152600060608086018290528c851660809687015260038089018054845260058a01865284842089518155958901516001870155938801516002860180549188166001600160a01b0319928316179055918801519085018054978901511515600160a01b0260ff60a01b1992881698841698909817919091169690961790955560a090950151600490920180549290931691909316179055805491611e18836133cf565b91905055507f52ad287b15e67700db062c247036c3a0d6c313b231a9d078ef26ebdac206958b3360018360030154611e5091906133b8565b604080516001600160a01b0390931683526020830191909152016114ac565b6000546001600160a01b03163314611e995760405162461bcd60e51b81526004016109a89061329f565b600980546001600160a01b0319166001600160a01b0392909216919091179055565b6001600160a01b038381166000908152600160208190526040909120908101549091163314611efc5760405162461bcd60e51b81526004016109a890613318565b6001600160a01b038083166000908152600660209081526040918290208251608081018452815460ff8082161515808452610100830490911615159483019490945262010000900485169381019390935260010154909216606082015290611f765760405162461bcd60e51b81526004016109a890613253565b8060200151611f975760405162461bcd60e51b81526004016109a8906131be565b604080820180516001600160a01b03908116600090815260046020908152848220935190921681529085905291909120548511156120235760405162461bcd60e51b8152602060048201526024808201527f6465706f736974546f53747261746567793a20496e73756666696369656e7420604482015263199d5b9960e21b60648201526084016109a8565b6040808301516001600160a01b031660009081526020859052908120805487929061204f9084906133b8565b909155505060408083015181516001600160a01b03808a1682526020820189905280881693820193909352911660608201527fe5f6e046a73966c0bd1305b3aa76df4366553773c43078385be55b65b3edeb3b906080015b60405180910390a1505050505050565b6001600160a01b0382811660009081526001602081905260409091209081015490911633146120f85760405162461bcd60e51b81526004016109a890613208565b6006015550565b6000546001600160a01b031633146121295760405162461bcd60e51b81526004016109a89061329f565b600355565b6000546001600160a01b031633146121585760405162461bcd60e51b81526004016109a89061329f565b6001600160a01b0381166000908152600160205260408120905b81600201548110156115e257600081815260048301602052604090206002810154600160a81b900460ff161580156121b657506002810154600160a01b900460ff16155b156122245760028101805460ff60a81b1916600160a81b1790554260038201819055604080516001600160a01b038716815260208101859052908101919091527f6f380c85102b9cb64ee83468eff76d3d02638fc84dba6e0b286fe0deb4408bc39060600160405180910390a15b508061222f816133cf565b915050612172565b6001600160a01b038084166000908152600160209081526040808320938616835260049091529020600281015460ff166122b35760405162461bcd60e51b815260206004820152601b60248201527f7374616b653a20756e646566696e656420636f6c6c61746572616c000000000060448201526064016109a8565b600281015462010000900460ff1661230d5760405162461bcd60e51b815260206004820181905260248201527f7374616b653a20636f6c6c61746572616c206973206e6f7420656e61626c656460448201526064016109a8565b6000805b83600b015481101561236b576000818152600a850160209081526040808320546001600160a01b031680845260098801909252909120600101546123559084613361565b9250508080612363906133cf565b915050612311565b50336000908152600160205260409020600881015460ff1615801561239d575060018401546001600160a01b03163314155b156124cd576001600160a01b038616600090815260046020526040812060020154610100900460ff16156123d357506001612455565b6009546040516311b5088f60e31b81526001600160a01b03898116600483015290911690638da8447890602401602060405180830381600087803b15801561241a57600080fd5b505af115801561242e573d6000803e3d6000fd5b505050506040513d601f19601f8201168201806040525081019061245291906131a6565b90505b60078501546124648783613399565b61246e9085613361565b11156124cb5760405162461bcd60e51b815260206004820152602660248201527f7374616b653a20616d6f756e74206f662064656c65676174696f6e206973206c6044820152651a5b5a5d195960d21b60648201526084016109a8565b505b6040516323b872dd60e01b8152336004820152306024820152604481018690526001600160a01b038716906323b872dd90606401602060405180830381600087803b15801561251b57600080fd5b505af115801561252f573d6000803e3d6000fd5b505050506040513d601f19601f820116820180604052508101906125539190613172565b6125985760405162461bcd60e51b81526020600482015260166024820152751cdd185ad94e881d1c985b9cd9995c8819985a5b195960521b60448201526064016109a8565b6001600160a01b038616600090815260208590526040812080548792906125c0908490613361565b92505081905550848360010160008282546125db9190613361565b9091555050600881015460ff16158015612602575060018401546001600160a01b03163314155b1561276a5733600090815260098501602052604090206002015460ff1661265c57600b840180546000908152600a86016020526040812080546001600160a01b0319163317905581549190612656836133cf565b91905055505b33600090815260098501602090815260408083206001600160a01b038a16845290915281208054879290612691908490613361565b90915550506002830154600090610100900460ff16156126b357506001612735565b6009546040516311b5088f60e31b81526001600160a01b03898116600483015290911690638da8447890602401602060405180830381600087803b1580156126fa57600080fd5b505af115801561270e573d6000803e3d6000fd5b505050506040513d601f19601f8201168201806040525081019061273291906131a6565b90505b61273f8187613399565b33600090815260098701602052604081206001018054909190612763908490613361565b9091555050505b604080516001600160a01b0389811682523360208301528816818301526060810187905290517f6e613e504dcbe267f60e295b08e0a211b63db8690d660e5ed4f864d409bb66209181900360800190a150505050505050565b6001600160a01b0383811660009081526001602081905260409091209081015490911633146128045760405162461bcd60e51b81526004016109a890613318565b6001600160a01b038083166000908152600660209081526040918290208251608081018452815460ff808216151580845261010083049091161515948301949094526201000090048516938101939093526001015490921660608201529061287e5760405162461bcd60e51b81526004016109a890613253565b806020015161289f5760405162461bcd60e51b81526004016109a8906131be565b6060810180516001600160a01b0390811660009081526004602090815260408083209451909316825285905290812080548792906128de908490613361565b9091555050606082810151604080516001600160a01b03808b168252602082018a9052808916928201929092529116918101919091527fc5bb40f64ed9c93859e0d4d8648697d93280e3209e7947dfe77859ae3a1ea172906080016120a7565b6000546001600160a01b031633146129685760405162461bcd60e51b81526004016109a89061329f565b600880546001600160a01b0319166001600160a01b0392909216919091179055565b6001600160a01b038316600090815260016020526040812060068101549091906064906129b79085613399565b6129c19190613379565b90506000805b83600b0154811015612a21576000818152600a850160209081526040808320546001600160a01b03168084526009880190925290912060010154612a0b9084613361565b9250508080612a19906133cf565b9150506129c7565b506001600160a01b038516600090815260046020526040812060018101805491928792612a4f908490613361565b90915550506001600160a01b03861660009081526020859052604081208054879290612a7c908490613361565b90915550508115612b2f5760005b84600b0154811015612b2d576000818152600a860160209081526040808320546001600160a01b031680845260098901909252909120600101548490612ad09087613399565b612ada9190613379565b6001600160a01b0380831660009081526009890160209081526040808320938d1683529290529081208054909190612b13908490613361565b90915550829150612b259050816133cf565b915050612a8a565b505b50505050505050565b336000908152600160205260409020600881015460ff1615612bab5760405162461bcd60e51b815260206004820152602660248201527f657865637574655472616e736665723a2063616c6c61626c652062792064656c60448201526532b3b0ba37b960d11b60648201526084016109a8565b81816003015411612c125760405162461bcd60e51b815260206004820152602b60248201527f657865637574655472616e736665723a207472616e736665722072657175657360448201526a1d081b9bdd08195e1a5cdd60aa1b60648201526084016109a8565b600082815260058201602052604090206003810154600160a01b900460ff1615612c885760405162461bcd60e51b815260206004820152602160248201527f657865637574655472616e736665723a20616c726561647920657865637574656044820152601960fa1b60648201526084016109a8565b42816001015410612cdb5760405162461bcd60e51b815260206004820152601a60248201527f657865637574655472616e736665723a20746f6f206561726c7900000000000060448201526064016109a8565b60038101805460ff60a01b1916600160a01b17905560408051338152602081018590527f9a1fd8511a9f728f23ed3cb955318fe1f8b2bc7c3aeea602c7f7ecf959a46939910160405180910390a1505050565b6000546001600160a01b03163314612d585760405162461bcd60e51b81526004016109a89061329f565b6001600160a01b03918216600090815260016020819052604090912080820180546001600160a01b0319169390941692909217909255600801805460ff19169091179055565b6000546001600160a01b03163314612dc85760405162461bcd60e51b81526004016109a89061329f565b6001600160a01b038116612e2d5760405162461bcd60e51b815260206004820152602660248201527f4f776e61626c653a206e6577206f776e657220697320746865207a65726f206160448201526564647265737360d01b60648201526084016109a8565b600080546040516001600160a01b03808516939216917f8be0079c531659141344cd1fd0a4f28419497f9722a3daafe3b4186f6b6457e091a3600080546001600160a01b0319166001600160a01b0392909216919091179055565b6000546001600160a01b03163314612eb25760405162461bcd60e51b81526004016109a89061329f565b6001600160a01b0383166000908152600660205260409020805460ff1615612f1c5760405162461bcd60e51b815260206004820152601a60248201527f61646453747261746567793a20616c726561647920657869737400000000000060448201526064016109a8565b8054600180830180546001600160a01b03199081166001600160a01b039687161790915561010062010000600160b01b031990931662010000968616969096029590951760ff1916811761ff001916919091179091556007805491820181556000527fa66cc928b5edb82af9bd49922954155ab7b0942694bea4ce44661d9a8736c6880180549092169216919091179055565b600060208284031215612fc0578081fd5b8135612fcb81613400565b9392505050565b60008060408385031215612fe4578081fd5b8235612fef81613400565b91506020830135612fff81613400565b809150509250929050565b60008060006060848603121561301e578081fd5b833561302981613400565b9250602084013561303981613400565b9150604084013561304981613400565b809150509250925092565b60008060008060808587031215613069578081fd5b843561307481613400565b9350602085013561308481613400565b9250604085013561309481613400565b9396929550929360600135925050565b6000806000606084860312156130b8578283fd5b83356130c381613400565b925060208401356130d381613400565b929592945050506040919091013590565b600080604083850312156130f6578182fd5b823561310181613400565b91506020830135612fff81613418565b60008060408385031215613123578182fd5b823561312e81613400565b946020939093013593505050565b600080600060608486031215613150578283fd5b833561315b81613400565b925060208401359150604084013561304981613400565b600060208284031215613183578081fd5b8151612fcb81613418565b60006020828403121561319f578081fd5b5035919050565b6000602082840312156131b7578081fd5b5051919050565b6020808252602a908201527f6465706f736974546f53747261746567793a207374726174656779206973206e6040820152691bdd08195b98589b195960b21b606082015260800190565b6020808252602b908201527f73657450726f66697450657263656e746167653a206f6e6c792063616c6c616260408201526a363290313c9030b236b4b760a91b606082015260800190565b6020808252602c908201527f6465706f736974546f53747261746567793a207374726174656779206973206e60408201526b1bdd081cdd5c1c1bdc9d195960a21b606082015260800190565b6020808252818101527f4f776e61626c653a2063616c6c6572206973206e6f7420746865206f776e6572604082015260600190565b60208082526024908201527f72657175657374556e7374616b653a20756e646566696e656420636f6c6c6174604082015263195c985b60e21b606082015260800190565b60208082526029908201527f6465706f736974546f53747261746567793a206f6e6c792063616c6c61626c6560408201526810313c9030b236b4b760b91b606082015260800190565b60008219821115613374576133746133ea565b500190565b60008261339457634e487b7160e01b81526012600452602481fd5b500490565b60008160001904831182151516156133b3576133b36133ea565b500290565b6000828210156133ca576133ca6133ea565b500390565b60006000198214156133e3576133e36133ea565b5060010190565b634e487b7160e01b600052601160045260246000fd5b6001600160a01b038116811461341557600080fd5b50565b801515811461341557600080fdfea264697066735822122018dcb21e77bc78d1f3fb69bec9d69cd5dcb148ad1c67a692597e9587fe15b3c064736f6c63430008020033",
  "immutableReferences": {},
  "source": "// SPDX-License-Identifier: MIT\r\npragma solidity ^0.8.2;\r\n\r\nimport \"@openzeppelin/contracts/access/Ownable.sol\";\r\nimport \"@openzeppelin/contracts/token/ERC20/IERC20.sol\";\r\nimport \"../interfaces/IStrategyController.sol\";\r\nimport \"../interfaces/IPriceConsumer.sol\";\r\n\r\ncontract OracleManager is Ownable {\r\n\r\n    struct WithdrawalInfo {\r\n        uint256 amount; // amount of staked token\r\n        uint256 timelock; // time till the asset is locked\r\n        address receiver; // token receiver\r\n        bool executed; // whether is executed\r\n        bool paused;    // whether is paused\r\n        uint256 pausedTime; // paused timestamp\r\n        address collateral; // collateral identifier\r\n    }\r\n\r\n    struct TransferInfo {\r\n        uint256 amount; // amount of transfer token\r\n        uint256 timelock; // time till the asset is locked\r\n        address oracleFrom; // oracle that token is transferred from\r\n        address oracleTo; // oracle that token is transferred to\r\n        bool executed; // whether is executed\r\n        address collateral; // collateral identifier\r\n    }\r\n\r\n    struct DelegatorInfo {\r\n        mapping(address => uint256) stakes;\r\n        uint256 usdAmount;\r\n        bool staked;\r\n    }\r\n\r\n    struct OracleInfo { // info of validator or delegator\r\n        mapping(address => uint256) stake; // amount of stake per collateral\r\n        address admin; // current oracle admin\r\n        uint256 withdrawalCount; // withdrawals count\r\n        uint256 transferCount;\r\n        mapping(uint256 => WithdrawalInfo) withdrawals; // list of withdrawal requests\r\n        mapping(uint256 => TransferInfo) transfers;\r\n        uint256 profitSharing;  // percentage of profit sharing.\r\n        uint256 usdAmountOfDelegation;\r\n        bool isOracle; // whether is oracles\r\n        bool isAbleToDelegate;\r\n        mapping(address => DelegatorInfo) delegators;\r\n        mapping(uint256 => address) delegatorAddresses; //delegator list\r\n        uint256 delegatorCount; //delegator count\r\n    }\r\n\r\n    struct Collateral {\r\n        uint256 confiscatedFunds; // total confiscated tokens\r\n        uint256 totalLocked; // total staked tokens\r\n        bool isSupported;\r\n        bool isUSDStable;\r\n        bool isEnabled;\r\n    }\r\n\r\n    struct Strategy {\r\n        bool isSupported;\r\n        bool isEnabled;\r\n        address stakeToken;\r\n        address rewardToken;\r\n    }\r\n\r\n    mapping(address => OracleInfo) public getOracleInfo; // oracle address => oracle details\r\n    uint256 public timelock; // duration of withdrawal timelock\r\n    uint256 public timelockForDelegate = 2 weeks;\r\n    mapping(address => Collateral) public collaterals;\r\n    address[] public collateralAddresses;\r\n    mapping(address => Strategy) public strategies;\r\n    address[] public strategyAddresses;\r\n    IStrategyController public strategyController;\r\n    IPriceConsumer public priceConsumer;\r\n\r\n    /* Events */\r\n    event Staked(address oracle, address staker, address collateral, uint256 amount);\r\n    event UnstakeRequested(address oracle, address collateral, address receipient, uint256 amount);\r\n    event UnstakeExecuted(address oracle, uint256 withdrawalId);\r\n    event UnstakeCancelled(address oracle, uint256 withdrawalId);\r\n    event UnstakePaused(address oracle, uint256 withdrawalId, uint256 timestamp);\r\n    event UnstakeResumed(address oracle, uint256 withdrawalId, uint256 timestamp);\r\n    event Liquidated(address oracle, address collateral, uint256 amount);\r\n    event DepositedToStrategy(address oracle, uint256 amount, address strategy, address collateral);\r\n    event WithdrawedFromStrategy(address oracle, uint256 amount, address strategy, address collateral);\r\n    event WithdrawedFunds(address recipient, address collateral, uint256 amount);\r\n    event TransferRequested(address delegator, uint256 transferId);\r\n    event TransferExecuted(address delegator, uint256 transferId);\r\n\r\n    /* PUBLIC */\r\n\r\n    /// @dev Constructor that initializes the most important configurations.\r\n    /// @param _timelock Duration of withdrawal timelock.\r\n    constructor(uint256 _timelock, IStrategyController _strategyController, IPriceConsumer _priceConsumer) Ownable() {\r\n        timelock = _timelock;\r\n        strategyController = _strategyController;\r\n        priceConsumer = _priceConsumer;\r\n    }\r\n\r\n    /// @dev Withdraws oracle reward.\r\n    /// @param _oracle Oracle address.\r\n    /// @param _collateral address of collateral\r\n    /// @param _amount Amount to withdraw.\r\n    function stake(address _oracle, address _collateral, uint256 _amount) external {\r\n        OracleInfo storage oracle = getOracleInfo[_oracle];\r\n        Collateral storage collateral = collaterals[_collateral];\r\n        require(\r\n            collateral.isSupported,\r\n            \"stake: undefined collateral\"\r\n        );\r\n        require(\r\n            collateral.isEnabled,\r\n            \"stake: collateral is not enabled\"\r\n        );\r\n\r\n        uint256 totalUSDAmount = 0;\r\n        for (uint256 i = 0; i < oracle.delegatorCount; i ++) {\r\n            address delegator = oracle.delegatorAddresses[i];\r\n            totalUSDAmount += oracle.delegators[delegator].usdAmount;\r\n        }\r\n        OracleInfo storage sender = getOracleInfo[msg.sender];\r\n        if (sender.isOracle == false && msg.sender != oracle.admin) {\r\n            uint256 collateralPrice;\r\n            if (collaterals[_collateral].isUSDStable)\r\n                collateralPrice = 1;\r\n            else collateralPrice = priceConsumer.getPriceOfToken(_collateral);\r\n            require(totalUSDAmount + collateralPrice * _amount <= oracle.usdAmountOfDelegation, \"stake: amount of delegation is limited\");\r\n        }\r\n\r\n        require(\r\n            IERC20(_collateral).transferFrom(msg.sender, address(this), _amount),\r\n            \"stake: transfer failed\"\r\n        );\r\n        oracle.stake[_collateral] += _amount;\r\n        collateral.totalLocked += _amount;\r\n        if (sender.isOracle == false && msg.sender != oracle.admin) {\r\n            if (!oracle.delegators[msg.sender].staked) {\r\n                oracle.delegatorAddresses[oracle.delegatorCount] = msg.sender;\r\n                oracle.delegatorCount ++;\r\n            }\r\n            oracle.delegators[msg.sender].stakes[_collateral] += _amount;\r\n            uint256 price;\r\n            if (collateral.isUSDStable)\r\n                price = 1;\r\n            else price = priceConsumer.getPriceOfToken(_collateral);\r\n            oracle.delegators[msg.sender].usdAmount += _amount * price;\r\n        }\r\n        emit Staked(_oracle, msg.sender, _collateral, _amount);\r\n    }\r\n\r\n    /// @dev Withdraws oracle reward.\r\n    /// @param _oracle Oracle address.\r\n    /// @param _collateral Index of collateral\r\n    /// @param _recipient Recepient reward.\r\n    /// @param _amount Amount to withdraw.\r\n    function requestUnstake(\r\n        address _oracle,\r\n        address _collateral,\r\n        address _recipient,\r\n        uint256 _amount\r\n    ) external {\r\n        OracleInfo storage oracle = getOracleInfo[_oracle];\r\n        if (_amount == 0) {\r\n            return;\r\n        }\r\n        Collateral storage collateral = collaterals[_collateral];\r\n        require(\r\n            collateral.isSupported,\r\n            \"requestUnstake: undefined collateral\"\r\n        );\r\n        require(\r\n            collateral.isEnabled,\r\n            \"requestUnstake: collateral is not enabled\"\r\n        );\r\n        uint256 available = oracle.stake[_collateral];\r\n        require(\r\n            available >= _amount,\r\n            \"requestUnstake: insufficient withdrawable funds\"\r\n        );\r\n        OracleInfo storage sender = getOracleInfo[msg.sender];\r\n        if (sender.isOracle == false && msg.sender != oracle.admin) {\r\n            DelegatorInfo storage delegator = oracle.delegators[msg.sender];\r\n            require(delegator.stakes[_collateral] >= _amount, \"requestUnstake: insufficient amount\");\r\n            delegator.stakes[_collateral] -= _amount;\r\n            uint256 price;\r\n            if (collateral.isUSDStable)\r\n                price = 1;\r\n            else price = priceConsumer.getPriceOfToken(_collateral);\r\n            delegator.usdAmount = price * _amount;\r\n        }\r\n        else require(msg.sender == oracle.admin, \"requestUnstake: only callable by admin\");\r\n\r\n        oracle.stake[_collateral] = available - _amount;\r\n        collateral.totalLocked -= _amount;\r\n\r\n        oracle.withdrawals[oracle.withdrawalCount] = WithdrawalInfo(\r\n            _amount,\r\n            block.timestamp + timelock,\r\n            _recipient,\r\n            false,\r\n            false,\r\n            0,\r\n            _collateral\r\n        );\r\n        oracle.withdrawalCount++;\r\n        emit UnstakeRequested(_oracle, _collateral, _recipient, _amount);\r\n    }\r\n\r\n    /// @dev Withdraw stake.\r\n    /// @param _oracle Oracle address.\r\n    /// @param _withdrawalId Withdrawal identifier.\r\n    function executeUnstake(address _oracle, uint256 _withdrawalId) external {\r\n        OracleInfo storage oracle = getOracleInfo[_oracle];\r\n        require(\r\n            oracle.admin == msg.sender,\r\n            \"executeUnstake: only callable by admin\"\r\n        );\r\n        require(\r\n            _withdrawalId < oracle.withdrawalCount,\r\n            \"executeUnstake: withdrawal not exists\"\r\n        );\r\n        WithdrawalInfo storage withdrawal = oracle.withdrawals[_withdrawalId];\r\n        require(!withdrawal.executed, \"executeUnstake: already executed\");\r\n        require(\r\n            withdrawal.timelock < block.timestamp,\r\n            \"executeUnstake: too early\"\r\n        );\r\n        withdrawal.executed = true;\r\n        require(\r\n            IERC20(withdrawal.collateral).transfer(withdrawal.receiver, withdrawal.amount),\r\n            \"executeUnstake: transfer failed\"\r\n        );\r\n\r\n        emit UnstakeExecuted(_oracle, _withdrawalId);\r\n    }\r\n    /**\r\n     * @dev request to move assets between oracles\r\n     * @param _oracleFrom Address of oracle sender\r\n     * @param _oracleTo Address of oracle receiver\r\n     * @param _collateral address of collateral\r\n     * @param _amount Amount of collateral\r\n     */\r\n    function requestTransfer(address _oracleFrom, address _oracleTo, address _collateral, uint256 _amount) external {\r\n        OracleInfo storage oracleFrom = getOracleInfo[_oracleFrom];\r\n        OracleInfo storage oracleTo = getOracleInfo[_oracleTo];\r\n\r\n        Collateral memory collateral = collaterals[_collateral];\r\n        require(\r\n            collateral.isSupported,\r\n            \"requestUnstake: undefined collateral\"\r\n        );\r\n        require(\r\n            collateral.isEnabled,\r\n            \"requestTransfer: collateral is not enabled\"\r\n        );\r\n        OracleInfo storage sender = getOracleInfo[msg.sender];\r\n        require(sender.isOracle == false, \"requestTransfer: callable by delegator\");\r\n        require(oracleFrom.stake[_collateral] >= _amount, \"transferAssets: Insufficient amount\");\r\n        require(oracleFrom.delegators[msg.sender].stakes[_collateral] >= _amount, \"transferAssets: Insufficient amount for delegator\");\r\n        oracleFrom.stake[_collateral] -= _amount;\r\n        oracleTo.stake[_collateral] += _amount;\r\n        oracleFrom.delegators[msg.sender].stakes[_collateral] -= _amount;\r\n        oracleTo.delegators[msg.sender].stakes[_collateral] += _amount;\r\n        sender.transfers[sender.transferCount] = TransferInfo(\r\n            _amount,\r\n            block.timestamp + timelockForDelegate,\r\n            _oracleFrom,\r\n            _oracleTo,\r\n            false,\r\n            _collateral\r\n        );\r\n        sender.transferCount ++;\r\n        emit TransferRequested(msg.sender, sender.transferCount - 1);\r\n    }\r\n\r\n    /**\r\n     * @dev Execute transfer request\r\n     * @param _transferId Identifier of transfer\r\n     */\r\n    function executeTransfer(uint256 _transferId) external {\r\n        OracleInfo storage sender = getOracleInfo[msg.sender];\r\n\r\n        require(\r\n            sender.isOracle == false,\r\n            \"executeTransfer: callable by delegator\"\r\n        );\r\n        require(sender.transferCount > _transferId, \"executeTransfer: transfer request not exist\");\r\n        TransferInfo storage transfer = sender.transfers[_transferId];\r\n        require(!transfer.executed, \"executeTransfer: already executed\");\r\n        require(\r\n            transfer.timelock < block.timestamp,\r\n            \"executeTransfer: too early\"\r\n        );\r\n        transfer.executed = true;\r\n        emit TransferExecuted(msg.sender, _transferId);\r\n    }\r\n\r\n    /**\r\n     * @dev Stake token to strategies to earn rewards\r\n     * @param _oracle address of oracle\r\n     * @param _amount Amount to be staked\r\n     * @param _strategy strategy to stake into.\r\n     */\r\n    function depositToStrategy(address _oracle, uint256 _amount, address _strategy) external {\r\n        OracleInfo storage oracle = getOracleInfo[_oracle];\r\n        require(msg.sender == oracle.admin, \"depositToStrategy: only callable by admin\");\r\n        Strategy memory strategy = strategies[_strategy];\r\n        require(strategy.isSupported, \"depositToStrategy: strategy is not supported\");\r\n        require(strategy.isEnabled, \"depositToStrategy: strategy is not enabled\");\r\n        Collateral storage stakeCollateral = collaterals[strategy.stakeToken];\r\n        require(oracle.stake[strategy.stakeToken] >= _amount, \"depositToStrategy: Insufficient fund\");\r\n        // strategyController.deposit(_strategy, address(collateral.token), _amount);\r\n        oracle.stake[strategy.stakeToken] -= _amount;\r\n        emit DepositedToStrategy(_oracle, _amount, _strategy, strategy.stakeToken);\r\n    }\r\n\r\n    /**\r\n     * @dev Earn from the strategy\r\n     */\r\n    function withdrawFromStrategy(address _oracle, uint256 _amount, address _strategy) external {\r\n        OracleInfo storage oracle = getOracleInfo[_oracle];\r\n        require(msg.sender == oracle.admin, \"depositToStrategy: only callable by admin\");\r\n        Strategy memory strategy = strategies[_strategy];\r\n        require(strategy.isSupported, \"depositToStrategy: strategy is not supported\");\r\n        require(strategy.isEnabled, \"depositToStrategy: strategy is not enabled\");\r\n        Collateral storage collateral = collaterals[strategy.rewardToken];\r\n        // strategyController.withdraw(_strategy, address(collateral.token), _amount);\r\n        oracle.stake[strategy.rewardToken] += _amount;\r\n        emit WithdrawedFromStrategy(_oracle, _amount, _strategy, strategy.rewardToken);\r\n    }\r\n\r\n    /**\r\n     * @dev set percentage of profit sharing\r\n     * @param _profitSharing percentage of profit sharing\r\n     */\r\n    function setProfitSharing(address _oracle, uint256 _profitSharing) external {\r\n        OracleInfo storage oracle = getOracleInfo[_oracle];\r\n        require(msg.sender == oracle.admin, \"setProfitPercentage: only callable by admin\");\r\n        oracle.profitSharing = _profitSharing;\r\n    }\r\n\r\n    /**\r\n     * @dev set usd amount of delegation\r\n     * @param _oracle address of oracle\r\n     * @param _usdAmountOfDelegation usd amount of delegation\r\n     */\r\n    function setUsdAmountOfDelegation(address _oracle, uint256 _usdAmountOfDelegation) external {\r\n        OracleInfo storage oracle = getOracleInfo[_oracle];\r\n        require(msg.sender == oracle.admin, \"setProfitPercentage: only callable by admin\");\r\n        oracle.usdAmountOfDelegation = _usdAmountOfDelegation;\r\n    }\r\n\r\n    /* ADMIN */\r\n\r\n    /// @dev Change withdrawal timelock.\r\n    /// @param _newTimelock New timelock.\r\n    function setTimelock(uint256 _newTimelock) external onlyOwner() {\r\n        timelock = _newTimelock;\r\n    }\r\n\r\n    /**\r\n     * @dev Change timelock for delegate\r\n     * @param _newTimelock new timelock for delegate\r\n     */\r\n    function setTimelockForTransfer(uint256 _newTimelock) external onlyOwner() {\r\n        timelockForDelegate = _newTimelock;\r\n    }\r\n\r\n    /// @dev Add new oracle.\r\n    /// @param _oracle Oracle address.\r\n    /// @param _admin Admin address.\r\n    function addOracle(address _oracle, address _admin) external onlyOwner() {\r\n        getOracleInfo[_oracle].admin = _admin;\r\n        getOracleInfo[_oracle].isOracle = true;\r\n    }\r\n\r\n    /// @dev Add new delegator.\r\n    /// @param _delegator Oracle address.\r\n    function addDelegator(address _delegator) external onlyOwner() {\r\n        getOracleInfo[_delegator].admin = _delegator;\r\n        getOracleInfo[_delegator].isOracle = false;\r\n    }\r\n\r\n    /**\r\n     * @dev Add a new collateral\r\n     * @param _token Address of token\r\n     */\r\n    function addCollateral(address _token, bool _isUSDStable) external onlyOwner() {\r\n        if (!collaterals[_token].isSupported){\r\n            collaterals[_token].isSupported = true;\r\n            collaterals[_token].isEnabled = true;\r\n            collaterals[_token].isUSDStable = _isUSDStable;\r\n            collateralAddresses.push(_token);\r\n        }\r\n    }\r\n\r\n    /**\r\n     * @dev Add a new strategy\r\n     * @param _strategy address to strategy\r\n     * @param _stakeToken collateralId of stakeToken\r\n     * @param _rewardToken collateralId of rewardToken \r\n     */\r\n    function addStrategy(address _strategy, address _stakeToken, address _rewardToken) external onlyOwner() {\r\n        Strategy storage strategy = strategies[_strategy];\r\n        require(!strategy.isSupported, \"addStrategy: already exist\");\r\n        strategy.stakeToken = _stakeToken;\r\n        strategy.rewardToken = _rewardToken;\r\n        strategy.isSupported = true;\r\n        strategy.isEnabled = true;\r\n        strategyAddresses.push(_strategy);\r\n    }\r\n\r\n    /**\r\n     * @dev enable collateral\r\n     * @param _collateral address of collateral\r\n     * @param _isEnabled bool of enable\r\n     */\r\n    function updatedCollateral(address _collateral, bool _isEnabled) external onlyOwner() {\r\n        collaterals[_collateral].isEnabled = _isEnabled;\r\n    }\r\n\r\n    /**\r\n     * @dev enable strategy\r\n     * @param _strategy address of strategy\r\n     * @param _isEnabled bool of enable\r\n     */\r\n    function updateStrategy(address _strategy, bool _isEnabled) external onlyOwner() {\r\n        strategies[_strategy].isEnabled = _isEnabled;\r\n    }\r\n\r\n    /// @dev Cancel unstake.\r\n    /// @param _oracle Oracle address.\r\n    /// @param _withdrawalId Withdrawal identifier.\r\n    function cancelUnstake(address _oracle, uint256 _withdrawalId)\r\n        external\r\n        onlyOwner()\r\n    {\r\n        OracleInfo storage oracle = getOracleInfo[_oracle];\r\n        WithdrawalInfo storage withdrawal = oracle.withdrawals[_withdrawalId];\r\n        require(!withdrawal.executed, \"cancelUnstake: already executed\");\r\n        Collateral storage collateral = collaterals[withdrawal.collateral];\r\n        withdrawal.executed = true;\r\n        oracle.stake[withdrawal.collateral] += withdrawal.amount;\r\n        collateral.totalLocked += withdrawal.amount;\r\n        emit UnstakeCancelled(_oracle, _withdrawalId);\r\n    }\r\n\r\n    /// @dev Withdraws confiscated tokens.\r\n    /// @param _oracle Oracle address.\r\n    /// @param _collateral Index of collateral\r\n    /// @param _amount Amount to withdraw.\r\n    function liquidate(address _oracle, address _collateral, uint256 _amount) external onlyOwner() {\r\n        OracleInfo storage oracle = getOracleInfo[_oracle];\r\n        require(oracle.stake[_collateral] >= _amount, \"liquidate: insufficient balance\");\r\n        Collateral storage collateral = collaterals[_collateral];\r\n        oracle.stake[_collateral] -= _amount;\r\n        collateral.confiscatedFunds += _amount;\r\n        collateral.totalLocked -= _amount;\r\n        emit Liquidated(_oracle, _collateral, _amount);\r\n    }\r\n\r\n    /// @dev Withdraws confiscated tokens.\r\n    /// @param _recipient Recepient reward.\r\n    /// @param _amount Amount to withdraw.\r\n    function withdrawFunds(address _recipient, address _collateral, uint256 _amount)\r\n        external\r\n        onlyOwner()\r\n    {\r\n        Collateral storage collateral = collaterals[_collateral];\r\n        require(\r\n            uint256(collateral.confiscatedFunds) >= _amount,\r\n            \"withdrawFunds: insufficient reserve funds\"\r\n        );\r\n        require(\r\n            IERC20(_collateral).transfer(_recipient, _amount),\r\n            \"withdrawFunds: transfer failed\"\r\n        );\r\n        collateral.confiscatedFunds -= _amount;\r\n        emit WithdrawedFunds(_recipient, _collateral, _amount);\r\n    }\r\n\r\n    /**\r\n     * @dev Pause unstaking request.\r\n     * @param _oracle address of oracle\r\n     */\r\n    function pauseUnstake(address _oracle) external onlyOwner() {\r\n        OracleInfo storage oracle = getOracleInfo[_oracle];\r\n        uint256 i;\r\n        for (i = 0; i < oracle.withdrawalCount; i ++) {\r\n            WithdrawalInfo storage withdrawal = oracle.withdrawals[i];\r\n            if (withdrawal.paused == false && withdrawal.executed == false) {\r\n                withdrawal.paused = true;\r\n                withdrawal.pausedTime = block.timestamp;\r\n                emit UnstakePaused(_oracle, i, block.timestamp);\r\n            }\r\n        }\r\n    }\r\n\r\n    /**\r\n     * @dev Resume unstaking request.\r\n     * @param _oracle address of oracle\r\n     */\r\n    function resumeUnstake(address _oracle) external onlyOwner() {\r\n        OracleInfo storage oracle = getOracleInfo[_oracle];\r\n        uint256 i;\r\n        for (i = 0; i < oracle.withdrawalCount; i ++) {\r\n            WithdrawalInfo storage withdrawal = oracle.withdrawals[i];\r\n            if (withdrawal.paused == true && withdrawal.executed == false) {\r\n                withdrawal.paused = false;\r\n                withdrawal.timelock += block.timestamp - withdrawal.pausedTime;\r\n                emit UnstakeResumed(_oracle, i, block.timestamp);\r\n            }\r\n        }\r\n    }\r\n\r\n    /**\r\n     * @dev Set strategy controller\r\n     * @param _strategyController address of strategy controller\r\n     */\r\n    function setStrategyController(IStrategyController _strategyController) external onlyOwner() {\r\n        strategyController = _strategyController;\r\n    }\r\n\r\n    /**\r\n     * @dev Set Price Consumer\r\n     * @param _priceConsumer address of price consumer\r\n     */\r\n    function setPriceConsumer(IPriceConsumer _priceConsumer) external onlyOwner() {\r\n        priceConsumer = _priceConsumer;\r\n    }\r\n\r\n    /**\r\n     * @dev accounts add assets to oracle\r\n     * @param _oracle address of oracle\r\n     * @param _collateral collateralId oracle\r\n     * @param _amount amount of token\r\n     */\r\n    function account_asset(address _oracle, address _collateral, uint256 _amount) public {\r\n        OracleInfo storage oracle = getOracleInfo[_oracle];\r\n        uint256 share = _amount * oracle.profitSharing / 100;\r\n\r\n        uint256 totalUSDAmount = 0;\r\n        for (uint256 i = 0; i < oracle.delegatorCount; i ++) {\r\n            address delegator = oracle.delegatorAddresses[i];\r\n            totalUSDAmount += oracle.delegators[delegator].usdAmount;\r\n        }\r\n        Collateral storage collateral = collaterals[_collateral];\r\n        collateral.totalLocked += _amount;\r\n        oracle.stake[_collateral] += _amount;\r\n        if (totalUSDAmount != 0) {\r\n            for (uint256 i = 0; i < oracle.delegatorCount; i ++) {\r\n                address delegator = oracle.delegatorAddresses[i];\r\n                oracle.delegators[delegator].stakes[_collateral] += share * oracle.delegators[delegator].usdAmount / totalUSDAmount;\r\n            }\r\n        }\r\n    }\r\n\r\n    /// @dev Get withdrawal request.\r\n    /// @param _oracle Oracle address.\r\n    /// @param _withdrawalId Withdrawal identifier.\r\n    function getWithdrawalRequest(address _oracle, uint256 _withdrawalId)\r\n        public\r\n        view\r\n        returns (WithdrawalInfo memory)\r\n    {\r\n        return getOracleInfo[_oracle].withdrawals[_withdrawalId];\r\n    }\r\n\r\n    /**\r\n     * @dev Get transfer request\r\n     * @param _oracle Oracle address\r\n     * @param _transferId Transfer identifier\r\n     */\r\n    function getTransferRequest(address _oracle, uint256 _transferId) \r\n        public\r\n        view\r\n        returns (TransferInfo memory)\r\n    {\r\n        return getOracleInfo[_oracle].transfers[_transferId];\r\n    }\r\n\r\n    /** \r\n     * @dev get stake property of oracle\r\n     * @param _oracle address of oracle\r\n     * @param _collateral Address of collateral\r\n     */\r\n    function getOracleStaking(address _oracle, address _collateral) public view returns (uint256) {\r\n        return getOracleInfo[_oracle].stake[_collateral];\r\n    }\r\n\r\n    /**\r\n     * @dev get delegator stakes\r\n     * @param _oracle address of oracle\r\n     * @param _delegator address of delegator\r\n     * @param _collateral Address of collateral\r\n     */\r\n    function getDelegatorStakes(address _oracle, address _delegator, address _collateral) public view returns(uint256) {\r\n        return getOracleInfo[_oracle].delegators[_delegator].stakes[_collateral];\r\n    }\r\n\r\n    function min(uint256 a, uint256 b) internal pure returns(uint256) {\r\n        return a < b ? a : b;\r\n    }\r\n}\r\n",
  "sourcePath": "D:/Ethereum/Debridge/debridge-contracts-v1/contracts/oracles/OracleManager.sol",
  "compiler": {
    "name": "solc",
    "version": "0.8.2+commit.661d1103.Emscripten.clang"
  },
  "schemaVersion": "3.3.4",
  "updatedAt": "2021-06-29T17:41:25.998Z",
  "devdoc": {
    "kind": "dev",
    "methods": {
      "account_asset(address,address,uint256)": {
        "details": "accounts add assets to oracle",
        "params": {
          "_amount": "amount of token",
          "_collateral": "collateralId oracle",
          "_oracle": "address of oracle"
        }
      },
      "addCollateral(address,bool)": {
        "details": "Add a new collateral",
        "params": {
          "_token": "Address of token"
        }
      },
      "addDelegator(address)": {
        "details": "Add new delegator.",
        "params": {
          "_delegator": "Oracle address."
        }
      },
      "addOracle(address,address)": {
        "details": "Add new oracle.",
        "params": {
          "_admin": "Admin address.",
          "_oracle": "Oracle address."
        }
      },
      "addStrategy(address,address,address)": {
        "details": "Add a new strategy",
        "params": {
          "_rewardToken": "collateralId of rewardToken ",
          "_stakeToken": "collateralId of stakeToken",
          "_strategy": "address to strategy"
        }
      },
      "cancelUnstake(address,uint256)": {
        "details": "Cancel unstake.",
        "params": {
          "_oracle": "Oracle address.",
          "_withdrawalId": "Withdrawal identifier."
        }
      },
      "constructor": {
        "details": "Constructor that initializes the most important configurations.",
        "params": {
          "_timelock": "Duration of withdrawal timelock."
        }
      },
      "depositToStrategy(address,uint256,address)": {
        "details": "Stake token to strategies to earn rewards",
        "params": {
          "_amount": "Amount to be staked",
          "_oracle": "address of oracle",
          "_strategy": "strategy to stake into."
        }
      },
      "executeTransfer(uint256)": {
        "details": "Execute transfer request",
        "params": {
          "_transferId": "Identifier of transfer"
        }
      },
      "executeUnstake(address,uint256)": {
        "details": "Withdraw stake.",
        "params": {
          "_oracle": "Oracle address.",
          "_withdrawalId": "Withdrawal identifier."
        }
      },
      "getDelegatorStakes(address,address,address)": {
        "details": "get delegator stakes",
        "params": {
          "_collateral": "Address of collateral",
          "_delegator": "address of delegator",
          "_oracle": "address of oracle"
        }
      },
      "getOracleStaking(address,address)": {
        "details": "get stake property of oracle",
        "params": {
          "_collateral": "Address of collateral",
          "_oracle": "address of oracle"
        }
      },
      "getTransferRequest(address,uint256)": {
        "details": "Get transfer request",
        "params": {
          "_oracle": "Oracle address",
          "_transferId": "Transfer identifier"
        }
      },
      "getWithdrawalRequest(address,uint256)": {
        "details": "Get withdrawal request.",
        "params": {
          "_oracle": "Oracle address.",
          "_withdrawalId": "Withdrawal identifier."
        }
      },
      "liquidate(address,address,uint256)": {
        "details": "Withdraws confiscated tokens.",
        "params": {
          "_amount": "Amount to withdraw.",
          "_collateral": "Index of collateral",
          "_oracle": "Oracle address."
        }
      },
      "owner()": {
        "details": "Returns the address of the current owner."
      },
      "pauseUnstake(address)": {
        "details": "Pause unstaking request.",
        "params": {
          "_oracle": "address of oracle"
        }
      },
      "renounceOwnership()": {
        "details": "Leaves the contract without owner. It will not be possible to call `onlyOwner` functions anymore. Can only be called by the current owner. NOTE: Renouncing ownership will leave the contract without an owner, thereby removing any functionality that is only available to the owner."
      },
      "requestTransfer(address,address,address,uint256)": {
        "details": "request to move assets between oracles",
        "params": {
          "_amount": "Amount of collateral",
          "_collateral": "address of collateral",
          "_oracleFrom": "Address of oracle sender",
          "_oracleTo": "Address of oracle receiver"
        }
      },
      "requestUnstake(address,address,address,uint256)": {
        "details": "Withdraws oracle reward.",
        "params": {
          "_amount": "Amount to withdraw.",
          "_collateral": "Index of collateral",
          "_oracle": "Oracle address.",
          "_recipient": "Recepient reward."
        }
      },
      "resumeUnstake(address)": {
        "details": "Resume unstaking request.",
        "params": {
          "_oracle": "address of oracle"
        }
      },
      "setPriceConsumer(address)": {
        "details": "Set Price Consumer",
        "params": {
          "_priceConsumer": "address of price consumer"
        }
      },
      "setProfitSharing(address,uint256)": {
        "details": "set percentage of profit sharing",
        "params": {
          "_profitSharing": "percentage of profit sharing"
        }
      },
      "setStrategyController(address)": {
        "details": "Set strategy controller",
        "params": {
          "_strategyController": "address of strategy controller"
        }
      },
      "setTimelock(uint256)": {
        "details": "Change withdrawal timelock.",
        "params": {
          "_newTimelock": "New timelock."
        }
      },
      "setTimelockForTransfer(uint256)": {
        "details": "Change timelock for delegate",
        "params": {
          "_newTimelock": "new timelock for delegate"
        }
      },
      "setUsdAmountOfDelegation(address,uint256)": {
        "details": "set usd amount of delegation",
        "params": {
          "_oracle": "address of oracle",
          "_usdAmountOfDelegation": "usd amount of delegation"
        }
      },
      "stake(address,address,uint256)": {
        "details": "Withdraws oracle reward.",
        "params": {
          "_amount": "Amount to withdraw.",
          "_collateral": "address of collateral",
          "_oracle": "Oracle address."
        }
      },
      "transferOwnership(address)": {
        "details": "Transfers ownership of the contract to a new account (`newOwner`). Can only be called by the current owner."
      },
      "updateStrategy(address,bool)": {
        "details": "enable strategy",
        "params": {
          "_isEnabled": "bool of enable",
          "_strategy": "address of strategy"
        }
      },
      "updatedCollateral(address,bool)": {
        "details": "enable collateral",
        "params": {
          "_collateral": "address of collateral",
          "_isEnabled": "bool of enable"
        }
      },
      "withdrawFromStrategy(address,uint256,address)": {
        "details": "Earn from the strategy"
      },
      "withdrawFunds(address,address,uint256)": {
        "details": "Withdraws confiscated tokens.",
        "params": {
          "_amount": "Amount to withdraw.",
          "_recipient": "Recepient reward."
        }
      }
    },
    "version": 1
  },
  "userdoc": {
    "kind": "user",
    "methods": {},
    "version": 1
  }
}