{
  "contractName": "OracleManager",
  "abi": [
    {
      "inputs": [
        {
          "internalType": "uint256",
          "name": "_timelock",
          "type": "uint256"
        },
        {
          "internalType": "contract IStrategyController",
          "name": "_strategyController",
          "type": "address"
        }
      ],
      "stateMutability": "nonpayable",
      "type": "constructor"
    },
    {
      "anonymous": false,
      "inputs": [
        {
          "indexed": false,
          "internalType": "address",
          "name": "oracleFrom",
          "type": "address"
        },
        {
          "indexed": false,
          "internalType": "address",
          "name": "oracleTo",
          "type": "address"
        },
        {
          "indexed": false,
          "internalType": "uint256",
          "name": "collatoralId",
          "type": "uint256"
        },
        {
          "indexed": false,
          "internalType": "uint256",
          "name": "amount",
          "type": "uint256"
        }
      ],
      "name": "AssetsTransferred",
      "type": "event"
    },
    {
      "anonymous": false,
      "inputs": [
        {
          "indexed": true,
          "internalType": "address",
          "name": "previousOwner",
          "type": "address"
        },
        {
          "indexed": true,
          "internalType": "address",
          "name": "newOwner",
          "type": "address"
        }
      ],
      "name": "OwnershipTransferred",
      "type": "event"
    },
    {
      "anonymous": false,
      "inputs": [
        {
          "indexed": false,
          "internalType": "address",
          "name": "oracle",
          "type": "address"
        },
        {
          "indexed": false,
          "internalType": "uint256",
          "name": "collatoralId",
          "type": "uint256"
        },
        {
          "indexed": false,
          "internalType": "uint256",
          "name": "amount",
          "type": "uint256"
        }
      ],
      "name": "Staked",
      "type": "event"
    },
    {
      "anonymous": false,
      "inputs": [
        {
          "indexed": false,
          "internalType": "address",
          "name": "oracle",
          "type": "address"
        },
        {
          "indexed": false,
          "internalType": "uint256",
          "name": "withdrawalId",
          "type": "uint256"
        }
      ],
      "name": "UnstakeCancelled",
      "type": "event"
    },
    {
      "anonymous": false,
      "inputs": [
        {
          "indexed": false,
          "internalType": "address",
          "name": "oracle",
          "type": "address"
        },
        {
          "indexed": false,
          "internalType": "uint256",
          "name": "withdrawalId",
          "type": "uint256"
        }
      ],
      "name": "UnstakeExecuted",
      "type": "event"
    },
    {
      "anonymous": false,
      "inputs": [
        {
          "indexed": false,
          "internalType": "address",
          "name": "oracle",
          "type": "address"
        },
        {
          "indexed": false,
          "internalType": "uint256",
          "name": "collatoralId",
          "type": "uint256"
        },
        {
          "indexed": false,
          "internalType": "address",
          "name": "receipient",
          "type": "address"
        },
        {
          "indexed": false,
          "internalType": "uint256",
          "name": "amount",
          "type": "uint256"
        }
      ],
      "name": "UnstakeRequested",
      "type": "event"
    },
    {
      "anonymous": false,
      "inputs": [
        {
          "indexed": false,
          "internalType": "address",
          "name": "oracle",
          "type": "address"
        },
        {
          "indexed": false,
          "internalType": "uint256",
          "name": "collatoralId",
          "type": "uint256"
        },
        {
          "indexed": false,
          "internalType": "uint256",
          "name": "amount",
          "type": "uint256"
        },
        {
          "indexed": false,
          "internalType": "address",
          "name": "strategy",
          "type": "address"
        }
      ],
      "name": "depositedToStrategy",
      "type": "event"
    },
    {
      "anonymous": false,
      "inputs": [
        {
          "indexed": false,
          "internalType": "address",
          "name": "oracle",
          "type": "address"
        },
        {
          "indexed": false,
          "internalType": "uint256",
          "name": "collatoralId",
          "type": "uint256"
        },
        {
          "indexed": false,
          "internalType": "uint256",
          "name": "amount",
          "type": "uint256"
        }
      ],
      "name": "liquidated",
      "type": "event"
    },
    {
      "anonymous": false,
      "inputs": [
        {
          "indexed": false,
          "internalType": "address",
          "name": "oracle",
          "type": "address"
        },
        {
          "indexed": false,
          "internalType": "uint256",
          "name": "collatoralId",
          "type": "uint256"
        },
        {
          "indexed": false,
          "internalType": "uint256",
          "name": "amount",
          "type": "uint256"
        },
        {
          "indexed": false,
          "internalType": "address",
          "name": "strategy",
          "type": "address"
        }
      ],
      "name": "withdrawedFromStrategy",
      "type": "event"
    },
    {
      "anonymous": false,
      "inputs": [
        {
          "indexed": false,
          "internalType": "address",
          "name": "recipient",
          "type": "address"
        },
        {
          "indexed": false,
          "internalType": "uint256",
          "name": "collatoralId",
          "type": "uint256"
        },
        {
          "indexed": false,
          "internalType": "uint256",
          "name": "amount",
          "type": "uint256"
        }
      ],
      "name": "withdrawedFunds",
      "type": "event"
    },
    {
      "inputs": [
        {
          "internalType": "uint256",
          "name": "",
          "type": "uint256"
        }
      ],
      "name": "collatorals",
      "outputs": [
        {
          "internalType": "contract IERC20",
          "name": "token",
          "type": "address"
        },
        {
          "internalType": "uint256",
          "name": "confiscatedFunds",
          "type": "uint256"
        },
        {
          "internalType": "uint256",
          "name": "totalLocked",
          "type": "uint256"
        }
      ],
      "stateMutability": "view",
      "type": "function"
    },
    {
      "inputs": [
        {
          "internalType": "address",
          "name": "",
          "type": "address"
        }
      ],
      "name": "getOracleInfo",
      "outputs": [
        {
          "internalType": "address",
          "name": "admin",
          "type": "address"
        },
        {
          "internalType": "uint256",
          "name": "withdrawalCount",
          "type": "uint256"
        }
      ],
      "stateMutability": "view",
      "type": "function"
    },
    {
      "inputs": [],
      "name": "owner",
      "outputs": [
        {
          "internalType": "address",
          "name": "",
          "type": "address"
        }
      ],
      "stateMutability": "view",
      "type": "function"
    },
    {
      "inputs": [],
      "name": "renounceOwnership",
      "outputs": [],
      "stateMutability": "nonpayable",
      "type": "function"
    },
    {
      "inputs": [],
      "name": "strategyController",
      "outputs": [
        {
          "internalType": "contract IStrategyController",
          "name": "",
          "type": "address"
        }
      ],
      "stateMutability": "view",
      "type": "function"
    },
    {
      "inputs": [],
      "name": "timelock",
      "outputs": [
        {
          "internalType": "uint256",
          "name": "",
          "type": "uint256"
        }
      ],
      "stateMutability": "view",
      "type": "function"
    },
    {
      "inputs": [
        {
          "internalType": "address",
          "name": "newOwner",
          "type": "address"
        }
      ],
      "name": "transferOwnership",
      "outputs": [],
      "stateMutability": "nonpayable",
      "type": "function"
    },
    {
      "inputs": [
        {
          "internalType": "address",
          "name": "_oracle",
          "type": "address"
        },
        {
          "internalType": "uint256",
          "name": "_collatoralId",
          "type": "uint256"
        },
        {
          "internalType": "uint256",
          "name": "_amount",
          "type": "uint256"
        }
      ],
      "name": "stake",
      "outputs": [],
      "stateMutability": "nonpayable",
      "type": "function"
    },
    {
      "inputs": [
        {
          "internalType": "address",
          "name": "_oracle",
          "type": "address"
        },
        {
          "internalType": "uint256",
          "name": "_collatoralId",
          "type": "uint256"
        },
        {
          "internalType": "address",
          "name": "_recipient",
          "type": "address"
        },
        {
          "internalType": "uint256",
          "name": "_amount",
          "type": "uint256"
        }
      ],
      "name": "requestUnstake",
      "outputs": [],
      "stateMutability": "nonpayable",
      "type": "function"
    },
    {
      "inputs": [
        {
          "internalType": "address",
          "name": "_oracle",
          "type": "address"
        },
        {
          "internalType": "uint256",
          "name": "_withdrawalId",
          "type": "uint256"
        }
      ],
      "name": "executeUnstake",
      "outputs": [],
      "stateMutability": "nonpayable",
      "type": "function"
    },
    {
      "inputs": [
        {
          "internalType": "address",
          "name": "_oracle",
          "type": "address"
        },
        {
          "internalType": "uint256",
          "name": "_collatoralId",
          "type": "uint256"
        },
        {
          "internalType": "uint256",
          "name": "_amount",
          "type": "uint256"
        },
        {
          "internalType": "address",
          "name": "_strategy",
          "type": "address"
        }
      ],
      "name": "depositToStrategy",
      "outputs": [],
      "stateMutability": "nonpayable",
      "type": "function"
    },
    {
      "inputs": [
        {
          "internalType": "address",
          "name": "_oracle",
          "type": "address"
        },
        {
          "internalType": "uint256",
          "name": "_collatoralId",
          "type": "uint256"
        },
        {
          "internalType": "uint256",
          "name": "_amount",
          "type": "uint256"
        },
        {
          "internalType": "address",
          "name": "_strategy",
          "type": "address"
        }
      ],
      "name": "withdrawFromStrategy",
      "outputs": [],
      "stateMutability": "nonpayable",
      "type": "function"
    },
    {
      "inputs": [
        {
          "internalType": "uint256",
          "name": "_newTimelock",
          "type": "uint256"
        }
      ],
      "name": "setTimelock",
      "outputs": [],
      "stateMutability": "nonpayable",
      "type": "function"
    },
    {
      "inputs": [
        {
          "internalType": "address",
          "name": "_oracle",
          "type": "address"
        },
        {
          "internalType": "address",
          "name": "_admin",
          "type": "address"
        }
      ],
      "name": "addOracle",
      "outputs": [],
      "stateMutability": "nonpayable",
      "type": "function"
    },
    {
      "inputs": [
        {
          "internalType": "contract IERC20",
          "name": "_token",
          "type": "address"
        }
      ],
      "name": "addCollatoral",
      "outputs": [],
      "stateMutability": "nonpayable",
      "type": "function"
    },
    {
      "inputs": [
        {
          "internalType": "address",
          "name": "_oracle",
          "type": "address"
        },
        {
          "internalType": "uint256",
          "name": "_withdrawalId",
          "type": "uint256"
        }
      ],
      "name": "cancelUnstake",
      "outputs": [],
      "stateMutability": "nonpayable",
      "type": "function"
    },
    {
      "inputs": [
        {
          "internalType": "address",
          "name": "_oracle",
          "type": "address"
        },
        {
          "internalType": "uint256",
          "name": "_collatoralId",
          "type": "uint256"
        },
        {
          "internalType": "uint256",
          "name": "_amount",
          "type": "uint256"
        }
      ],
      "name": "liquidate",
      "outputs": [],
      "stateMutability": "nonpayable",
      "type": "function"
    },
    {
      "inputs": [
        {
          "internalType": "address",
          "name": "_recipient",
          "type": "address"
        },
        {
          "internalType": "uint256",
          "name": "_collatoralId",
          "type": "uint256"
        },
        {
          "internalType": "uint256",
          "name": "_amount",
          "type": "uint256"
        }
      ],
      "name": "withdrawFunds",
      "outputs": [],
      "stateMutability": "nonpayable",
      "type": "function"
    },
    {
      "inputs": [
        {
          "internalType": "address",
          "name": "_oracleFrom",
          "type": "address"
        },
        {
          "internalType": "address",
          "name": "_oracleTo",
          "type": "address"
        },
        {
          "internalType": "uint256",
          "name": "_collatoralId",
          "type": "uint256"
        },
        {
          "internalType": "uint256",
          "name": "_amount",
          "type": "uint256"
        }
      ],
      "name": "transferAssets",
      "outputs": [],
      "stateMutability": "nonpayable",
      "type": "function"
    },
    {
      "inputs": [
        {
          "internalType": "contract IStrategyController",
          "name": "_strategyController",
          "type": "address"
        }
      ],
      "name": "setStrategyController",
      "outputs": [],
      "stateMutability": "nonpayable",
      "type": "function"
    },
    {
      "inputs": [
        {
          "internalType": "address",
          "name": "_oracle",
          "type": "address"
        },
        {
          "internalType": "uint256",
          "name": "_withdrawalId",
          "type": "uint256"
        }
      ],
      "name": "getWithdrawalRequest",
      "outputs": [
        {
          "components": [
            {
              "internalType": "uint256",
              "name": "amount",
              "type": "uint256"
            },
            {
              "internalType": "uint256",
              "name": "timelock",
              "type": "uint256"
            },
            {
              "internalType": "address",
              "name": "receiver",
              "type": "address"
            },
            {
              "internalType": "bool",
              "name": "executed",
              "type": "bool"
            },
            {
              "internalType": "uint256",
              "name": "collatoralId",
              "type": "uint256"
            }
          ],
          "internalType": "struct OracleManager.WithdrawalInfo",
          "name": "",
          "type": "tuple"
        }
      ],
      "stateMutability": "view",
      "type": "function"
    },
    {
      "inputs": [
        {
          "internalType": "address",
          "name": "_oracle",
          "type": "address"
        },
        {
          "internalType": "uint256",
          "name": "_collatoralId",
          "type": "uint256"
        }
      ],
      "name": "getOracleStaking",
      "outputs": [
        {
          "internalType": "uint256",
          "name": "",
          "type": "uint256"
        }
      ],
      "stateMutability": "view",
      "type": "function"
    }
  ],
  "bytecode": "0x60806040526212750060025534801561001757600080fd5b50604051611c83380380611c83833981016040819052610036916100a1565b600080546001600160a01b031916339081178255604051909182917f8be0079c531659141344cd1fd0a4f28419497f9722a3daafe3b4186f6b6457e0908290a350600291909155600480546001600160a01b0319166001600160a01b039092169190911790556100dc565b600080604083850312156100b3578182fd5b825160208401519092506001600160a01b03811681146100d1578182fd5b809150509250929050565b611b98806100eb6000396000f3fe608060405234801561001057600080fd5b50600436106101415760003560e01c80638da5cb5b116100b8578063d33219b41161007c578063d33219b41461030c578063e56a2b6714610315578063f0ca4adb14610328578063f2847e641461033b578063f2fde38b14610396578063f54c0246146103a957610141565b80638da5cb5b1461026b578063a0ebf4ca1461027c578063aa3ed4271461028f578063b61ff18e146102a2578063bfdb6b04146102b557610141565b80631f3564d91161010a5780631f3564d9146101c457806321011201146101d7578063376956b6146101ea5780633ed6edf7146101fd5780634ef6ed9914610241578063715018a61461026357610141565b8062258d6b1461014657806301519cfd146101765780630710285c1461018b5780630c51b88f1461019e5780631e891c0a146101b1575b600080fd5b600454610159906001600160a01b031681565b6040516001600160a01b0390911681526020015b60405180910390f35b6101896101843660046118cd565b6103bc565b005b6101896101993660046119df565b6104b2565b6101896101ac3660046119df565b610627565b6101896101bf366004611a7c565b610804565b6101896101d236600461196d565b610833565b6101896101e5366004611998565b6109b0565b6101896101f836600461196d565b610c92565b61023361020b36600461196d565b6001600160a01b03919091166000908152600160209081526040808320938352929052205490565b60405190815260200161016d565b61025461024f366004611a7c565b610fbe565b60405161016d93929190611a94565b610189610ffb565b6000546001600160a01b0316610159565b61018961028a366004611a13565b61106f565b61018961029d366004611928565b611220565b6101896102b0366004611a13565b611369565b6102ed6102c33660046118cd565b6001602081905260009182526040909120908101546002909101546001600160a01b039091169082565b604080516001600160a01b03909316835260208301919091520161016d565b61023360025481565b6101896103233660046118cd565b6114a2565b6101896103363660046118f0565b6114ee565b61034e61034936600461196d565b61154a565b60405161016d919081518152602080830151908201526040808301516001600160a01b0316908201526060808301511515908201526080918201519181019190915260a00190565b6101896103a43660046118cd565b6115f4565b6101896103b73660046119df565b6116de565b6000546001600160a01b031633146103ef5760405162461bcd60e51b81526004016103e690611ab5565b60405180910390fd5b604080516060810182526001600160a01b039283168152600060208201818152928201818152600380546001810182559281905292517fc2575a0e9e593c00f959f8c92f12db2869c3395a3b0502d05e2516446f71f85b9290930291820180546001600160a01b031916939095169290921790935590517fc2575a0e9e593c00f959f8c92f12db2869c3395a3b0502d05e2516446f71f85c830155517fc2575a0e9e593c00f959f8c92f12db2869c3395a3b0502d05e2516446f71f85d90910155565b6000546001600160a01b031633146104dc5760405162461bcd60e51b81526004016103e690611ab5565b6001600160a01b038316600090815260016020908152604080832085845291829052909120548211156105515760405162461bcd60e51b815260206004820152601f60248201527f6c69717569646174653a20696e73756666696369656e742062616c616e63650060448201526064016103e6565b60006003848154811061057457634e487b7160e01b600052603260045260246000fd5b906000526020600020906003020190508282600001600086815260200190815260200160002060008282546105a99190611b02565b92505081905550828160010160008282546105c49190611aea565b92505081905550828160020160008282546105df9190611b02565b90915550506040517fda63b5f9bc49924b728122fd50b032e0cb2396c33abecc4550350f78e501ce009061061890879087908790611a94565b60405180910390a15050505050565b6001600160a01b038316600090815260016020526040902060035483106106905760405162461bcd60e51b815260206004820152601b60248201527f7374616b653a20756e646566696e656420636f6c6c61746f72616c000000000060448201526064016103e6565b6000600384815481106106b357634e487b7160e01b600052603260045260246000fd5b6000918252602090912060039091020180546040516323b872dd60e01b8152336004820152306024820152604481018690529192506001600160a01b0316906323b872dd90606401602060405180830381600087803b15801561071557600080fd5b505af1158015610729573d6000803e3d6000fd5b505050506040513d601f19601f8201168201806040525081019061074d9190611a5c565b6107925760405162461bcd60e51b81526020600482015260166024820152751cdd185ad94e881d1c985b9cd9995c8819985a5b195960521b60448201526064016103e6565b600084815260208390526040812080548592906107b0908490611aea565b92505081905550828160020160008282546107cb9190611aea565b90915550506040517f1449c6dd7851abc30abf37f57715f492010519147cc2652fbc38202c18a6ee909061061890879087908790611a94565b6000546001600160a01b0316331461082e5760405162461bcd60e51b81526004016103e690611ab5565b600255565b6000546001600160a01b0316331461085d5760405162461bcd60e51b81526004016103e690611ab5565b6001600160a01b0382166000908152600160209081526040808320848452600381019092529091206002810154600160a01b900460ff16156108e15760405162461bcd60e51b815260206004820152601f60248201527f63616e63656c556e7374616b653a20616c72656164792065786563757465640060448201526064016103e6565b6000600382600301548154811061090857634e487b7160e01b600052603260045260246000fd5b6000918252602080832060028601805460ff60a01b1916600160a01b17905585546003878101548652928890526040852080549390940290910194509290610951908490611aea565b9091555050815460028201805460009061096c908490611aea565b9091555050604080516001600160a01b0387168152602081018690527f02fbe69eb5474cc010b6c0c236dd70755556cee48c19373e79147100e04de70b9101610618565b6001600160a01b038085166000908152600160208190526040909120908101549091163314610a305760405162461bcd60e51b815260206004820152602660248201527f72657175657374556e7374616b653a206f6e6c792063616c6c61626c652062796044820152651030b236b4b760d11b60648201526084016103e6565b81610a3b5750610c8c565b6000848152602082905260409020546003548510610aa75760405162461bcd60e51b8152602060048201526024808201527f72657175657374556e7374616b653a20756e646566696e656420636f6c6c61746044820152631bdc985b60e21b60648201526084016103e6565b82811015610b0f5760405162461bcd60e51b815260206004820152602f60248201527f72657175657374556e7374616b653a20696e73756666696369656e742077697460448201526e686472617761626c652066756e647360881b60648201526084016103e6565b600060038681548110610b3257634e487b7160e01b600052603260045260246000fd5b906000526020600020906003020190508382610b4e9190611b02565b600087815260208590526040812091909155600282018054869290610b74908490611b02565b925050819055506040518060a0016040528085815260200160025442610b9a9190611aea565b81526001600160a01b038781166020808401919091526000604080850182905260609485018c90526002898101805484526003808c01865283852089518155958901516001870155928801519185018054978901516001600160a01b0319909816929096169190911760ff60a01b1916600160a01b9615159690960295909517909355608090940151910155805491610c3283611b19565b9091555050604080516001600160a01b038981168252602082018990528716818301526060810186905290517fd510a52a7b98020ef4b89dbc66cdf0ea3f07af095ef84d0c377db18bdc64bafc9181900360800190a15050505b50505050565b6001600160a01b038083166000908152600160208190526040909120908101549091163314610d125760405162461bcd60e51b815260206004820152602660248201527f65786563757465556e7374616b653a206f6e6c792063616c6c61626c652062796044820152651030b236b4b760d11b60648201526084016103e6565b80600201548210610d735760405162461bcd60e51b815260206004820152602560248201527f65786563757465556e7374616b653a207769746864726177616c206e6f742065604482015264786973747360d81b60648201526084016103e6565b600082815260038201602052604090206002810154600160a01b900460ff1615610ddf5760405162461bcd60e51b815260206004820181905260248201527f65786563757465556e7374616b653a20616c726561647920657865637574656460448201526064016103e6565b42816001015410610e325760405162461bcd60e51b815260206004820152601960248201527f65786563757465556e7374616b653a20746f6f206561726c790000000000000060448201526064016103e6565b60028101805460ff60a01b1916600160a01b179055600380820154815460009291908110610e7057634e487b7160e01b600052603260045260246000fd5b60009182526020918290206040805160608101825260039390930290910180546001600160a01b0390811680855260018301549585019590955260029182015484840152908601548654925163a9059cbb60e01b815291166004820152602481019190915290925063a9059cbb90604401602060405180830381600087803b158015610efb57600080fd5b505af1158015610f0f573d6000803e3d6000fd5b505050506040513d601f19601f82011682018060405250810190610f339190611a5c565b610f7f5760405162461bcd60e51b815260206004820152601f60248201527f65786563757465556e7374616b653a207472616e73666572206661696c65640060448201526064016103e6565b604080516001600160a01b0387168152602081018690527fe3e01bae44eb85a30bd61c3742b60e379576ff5070a142675f575f53d5bbc2e49101610618565b60038181548110610fce57600080fd5b60009182526020909120600390910201805460018201546002909201546001600160a01b03909116925083565b6000546001600160a01b031633146110255760405162461bcd60e51b81526004016103e690611ab5565b600080546040516001600160a01b03909116907f8be0079c531659141344cd1fd0a4f28419497f9722a3daafe3b4186f6b6457e0908390a3600080546001600160a01b0319169055565b6001600160a01b038416600090815260016020526040812060038054919291869081106110ac57634e487b7160e01b600052603260045260246000fd5b906000526020600020906003020190508382600001600087815260200190815260200160002054101561112d5760405162461bcd60e51b8152602060048201526024808201527f6465706f736974546f53747261746567793a20496e73756666696369656e7420604482015263199d5b9960e21b60648201526084016103e6565b600480548254604051638340f54960e01b81526001600160a01b0387811694820194909452908316602482015260448101879052911690638340f54990606401600060405180830381600087803b15801561118757600080fd5b505af115801561119b573d6000803e3d6000fd5b505050600086815260208490526040812080548793509091906111bf908490611b02565b9091555050604080516001600160a01b0380891682526020820188905291810186905290841660608201527f7c956ddf89c75a52cd4a8d046ac9acabbdb9940abddbb171946635ad9d613a53906080015b60405180910390a1505050505050565b6000546001600160a01b0316331461124a5760405162461bcd60e51b81526004016103e690611ab5565b6001600160a01b038085166000908152600160209081526040808320938716835280832086845291849052909120548311156112d45760405162461bcd60e51b815260206004820152602360248201527f7472616e736665724173736574733a20496e73756666696369656e7420616d6f6044820152621d5b9d60ea1b60648201526084016103e6565b600084815260208390526040812080548592906112f2908490611b02565b909155505060008481526020829052604081208054859290611315908490611aea565b9091555050604080516001600160a01b03808916825287166020820152908101859052606081018490527f9ffcff05673a318c28c25ecb4ed6089c75a547d83d2d6811d1a799bc7844142190608001611210565b6001600160a01b038416600090815260016020526040812060038054919291869081106113a657634e487b7160e01b600052603260045260246000fd5b600091825260209091206004805460039093029091018054604051636ce5768960e11b81526001600160a01b038881169482019490945290831660248201526044810188905290935091169063d9caed1290606401600060405180830381600087803b15801561141557600080fd5b505af1158015611429573d6000803e3d6000fd5b5050506000868152602084905260408120805487935090919061144d908490611aea565b9091555050604080516001600160a01b0380891682526020820188905291810186905290841660608201527fbcd82a98dd363b70428b9f593415025b4fd65e367e46f39c893be95d43dcf36990608001611210565b6000546001600160a01b031633146114cc5760405162461bcd60e51b81526004016103e690611ab5565b600480546001600160a01b0319166001600160a01b0392909216919091179055565b6000546001600160a01b031633146115185760405162461bcd60e51b81526004016103e690611ab5565b6001600160a01b0391821660009081526001602081905260409091200180546001600160a01b03191691909216179055565b6115876040518060a00160405280600081526020016000815260200160006001600160a01b03168152602001600015158152602001600081525090565b506001600160a01b0391821660009081526001602081815260408084209484526003948501825292839020835160a081018552815481529281015491830191909152600281015494851692820192909252600160a01b90930460ff16151560608401520154608082015290565b6000546001600160a01b0316331461161e5760405162461bcd60e51b81526004016103e690611ab5565b6001600160a01b0381166116835760405162461bcd60e51b815260206004820152602660248201527f4f776e61626c653a206e6577206f776e657220697320746865207a65726f206160448201526564647265737360d01b60648201526084016103e6565b600080546040516001600160a01b03808516939216917f8be0079c531659141344cd1fd0a4f28419497f9722a3daafe3b4186f6b6457e091a3600080546001600160a01b0319166001600160a01b0392909216919091179055565b6000546001600160a01b031633146117085760405162461bcd60e51b81526004016103e690611ab5565b60006003838154811061172b57634e487b7160e01b600052603260045260246000fd5b9060005260206000209060030201905081816001015410156117a15760405162461bcd60e51b815260206004820152602960248201527f776974686472617746756e64733a20696e73756666696369656e7420726573656044820152687276652066756e647360b81b60648201526084016103e6565b805460405163a9059cbb60e01b81526001600160a01b038681166004830152602482018590529091169063a9059cbb90604401602060405180830381600087803b1580156117ee57600080fd5b505af1158015611802573d6000803e3d6000fd5b505050506040513d601f19601f820116820180604052508101906118269190611a5c565b6118725760405162461bcd60e51b815260206004820152601e60248201527f776974686472617746756e64733a207472616e73666572206661696c6564000060448201526064016103e6565b818160010160008282546118869190611b02565b90915550506040517fc2de028e84be62d45320ae9425ee251059f3d14e028a5fca46b519c19ebb94b7906118bf90869086908690611a94565b60405180910390a150505050565b6000602082840312156118de578081fd5b81356118e981611b4a565b9392505050565b60008060408385031215611902578081fd5b823561190d81611b4a565b9150602083013561191d81611b4a565b809150509250929050565b6000806000806080858703121561193d578182fd5b843561194881611b4a565b9350602085013561195881611b4a565b93969395505050506040820135916060013590565b6000806040838503121561197f578182fd5b823561198a81611b4a565b946020939093013593505050565b600080600080608085870312156119ad578384fd5b84356119b881611b4a565b93506020850135925060408501356119cf81611b4a565b9396929550929360600135925050565b6000806000606084860312156119f3578283fd5b83356119fe81611b4a565b95602085013595506040909401359392505050565b60008060008060808587031215611a28578384fd5b8435611a3381611b4a565b935060208501359250604085013591506060850135611a5181611b4a565b939692955090935050565b600060208284031215611a6d578081fd5b815180151581146118e9578182fd5b600060208284031215611a8d578081fd5b5035919050565b6001600160a01b039390931683526020830191909152604082015260600190565b6020808252818101527f4f776e61626c653a2063616c6c6572206973206e6f7420746865206f776e6572604082015260600190565b60008219821115611afd57611afd611b34565b500190565b600082821015611b1457611b14611b34565b500390565b6000600019821415611b2d57611b2d611b34565b5060010190565b634e487b7160e01b600052601160045260246000fd5b6001600160a01b0381168114611b5f57600080fd5b5056fea26469706673582212201c7d8704f2654d3b0a2d8fd0c79143ab5fc765e5ab06725986cb0c3782fcdb1564736f6c63430008020033",
  "immutableReferences": {},
  "source": "// SPDX-License-Identifier: MIT\r\npragma solidity ^0.8.2;\r\n\r\nimport \"@openzeppelin/contracts/access/Ownable.sol\";\r\nimport \"@openzeppelin/contracts/token/ERC20/IERC20.sol\";\r\nimport \"../interfaces/IStrategyController.sol\";\r\n\r\ncontract OracleManager is Ownable {\r\n    struct WithdrawalInfo {\r\n        uint256 amount; // amount of staked token\r\n        uint256 timelock; // time till the asset is locked\r\n        address receiver; // token receiver\r\n        bool executed; // whether is executed\r\n        uint256 collatoralId;\r\n    }\r\n\r\n    struct OracleInfo {\r\n        mapping(uint256 => uint256) stake; // amount of stake per collatoral\r\n        address admin; // current oracle admin\r\n        uint256 withdrawalCount; // withdrawals count\r\n        mapping(uint256 => WithdrawalInfo) withdrawals; // list of withdrawal requests\r\n    }\r\n    \r\n    struct Collatoral {\r\n        IERC20 token;\r\n        uint256 confiscatedFunds; // total confiscated tokens\r\n        uint256 totalLocked; // total staked tokens\r\n    }\r\n\r\n    mapping(address => OracleInfo) public getOracleInfo; // oracle address => oracle details\r\n    uint256 public timelock = 2 weeks; // duration of withdrawal timelock\r\n    Collatoral[] public collatorals;\r\n    IStrategyController public strategyController;\r\n\r\n    /* Events */\r\n    event Staked(address oracle, uint256 collatoralId, uint256 amount);\r\n    event UnstakeRequested(address oracle, uint256 collatoralId, address receipient, uint256 amount);\r\n    event UnstakeExecuted(address oracle, uint256 withdrawalId);\r\n    event UnstakeCancelled(address oracle, uint256 withdrawalId);\r\n    event liquidated(address oracle, uint256 collatoralId, uint256 amount);\r\n    event depositedToStrategy(address oracle, uint256 collatoralId, uint256 amount, address strategy);\r\n    event withdrawedFunds(address recipient, uint256 collatoralId, uint256 amount);\r\n    event AssetsTransferred(address oracleFrom, address oracleTo, uint256 collatoralId, uint256 amount);\r\n    event withdrawedFromStrategy(address oracle, uint256 collatoralId, uint256 amount, address strategy);\r\n\r\n    /* PUBLIC */\r\n\r\n    /// @dev Constructor that initializes the most important configurations.\r\n    /// @param _timelock Duration of withdrawal timelock.\r\n    constructor(uint256 _timelock, IStrategyController _strategyController) Ownable() {\r\n        timelock = _timelock;\r\n        strategyController = _strategyController;\r\n    }\r\n\r\n    /// @dev Withdraws oracle reward.\r\n    /// @param _oracle Oracle address.\r\n    /// @param _collatoralId Index of collatoral\r\n    /// @param _amount Amount to withdraw.\r\n    function stake(address _oracle, uint256 _collatoralId, uint256 _amount) external {\r\n        OracleInfo storage oracle = getOracleInfo[_oracle];\r\n        require(\r\n            _collatoralId < collatorals.length,\r\n            \"stake: undefined collatoral\"\r\n        );\r\n        Collatoral storage collatoral = collatorals[_collatoralId];\r\n        require(\r\n            collatoral.token.transferFrom(msg.sender, address(this), _amount),\r\n            \"stake: transfer failed\"\r\n        );\r\n        oracle.stake[_collatoralId] += _amount;\r\n        collatoral.totalLocked += _amount;\r\n        emit Staked(_oracle, _collatoralId, _amount);\r\n    }\r\n\r\n    /// @dev Withdraws oracle reward.\r\n    /// @param _oracle Oracle address.\r\n    /// @param _collatoralId Index of collatoral\r\n    /// @param _recipient Recepient reward.\r\n    /// @param _amount Amount to withdraw.\r\n    function requestUnstake(\r\n        address _oracle,\r\n        uint256 _collatoralId,\r\n        address _recipient,\r\n        uint256 _amount\r\n    ) external {\r\n        OracleInfo storage oracle = getOracleInfo[_oracle];\r\n        require(\r\n            oracle.admin == msg.sender,\r\n            \"requestUnstake: only callable by admin\"\r\n        );\r\n        if (_amount == 0) {\r\n            return;\r\n        }\r\n        uint256 available = oracle.stake[_collatoralId];\r\n        require(\r\n            _collatoralId < collatorals.length,\r\n            \"requestUnstake: undefined collatoral\"\r\n        );\r\n        require(\r\n            available >= _amount,\r\n            \"requestUnstake: insufficient withdrawable funds\"\r\n        );\r\n        Collatoral storage collatoral = collatorals[_collatoralId];\r\n        oracle.stake[_collatoralId] = available - _amount;\r\n        collatoral.totalLocked -= _amount;\r\n        oracle.withdrawals[oracle.withdrawalCount] = WithdrawalInfo(\r\n            _amount,\r\n            block.timestamp + timelock,\r\n            _recipient,\r\n            false,\r\n            _collatoralId\r\n        );\r\n        oracle.withdrawalCount++;\r\n        emit UnstakeRequested(_oracle, _collatoralId, _recipient, _amount);\r\n    }\r\n\r\n    /// @dev Withdraw stake.\r\n    /// @param _oracle Oracle address.\r\n    /// @param _withdrawalId Withdrawal identifier.\r\n    function executeUnstake(address _oracle, uint256 _withdrawalId) external {\r\n        OracleInfo storage oracle = getOracleInfo[_oracle];\r\n        require(\r\n            oracle.admin == msg.sender,\r\n            \"executeUnstake: only callable by admin\"\r\n        );\r\n        require(\r\n            _withdrawalId < oracle.withdrawalCount,\r\n            \"executeUnstake: withdrawal not exists\"\r\n        );\r\n        WithdrawalInfo storage withdrawal = oracle.withdrawals[_withdrawalId];\r\n        require(!withdrawal.executed, \"executeUnstake: already executed\");\r\n        require(\r\n            withdrawal.timelock < block.timestamp,\r\n            \"executeUnstake: too early\"\r\n        );\r\n        withdrawal.executed = true;\r\n        Collatoral memory collatoral = collatorals[withdrawal.collatoralId];\r\n        require(\r\n            collatoral.token.transfer(withdrawal.receiver, withdrawal.amount),\r\n            \"executeUnstake: transfer failed\"\r\n        );\r\n\r\n        emit UnstakeExecuted(_oracle, _withdrawalId);\r\n    }\r\n\r\n    /**\r\n     * @dev Stake token to strategies to earn rewards\r\n     * @param _oracle address of oracle\r\n     * @param _collatoralId Index of collatoral\r\n     * @param _amount Amount to be staked\r\n     * @param _strategy strategy to stake into.\r\n     */\r\n    function depositToStrategy(address _oracle, uint256 _collatoralId, uint256 _amount, address _strategy) external {\r\n        OracleInfo storage oracle = getOracleInfo[_oracle];\r\n        Collatoral storage collatoral = collatorals[_collatoralId];\r\n        require(oracle.stake[_collatoralId] >= _amount, \"depositToStrategy: Insufficient fund\");\r\n        strategyController.deposit(_strategy, address(collatoral.token), _amount);\r\n        oracle.stake[_collatoralId] -= _amount;\r\n        emit depositedToStrategy(_oracle, _collatoralId, _amount, _strategy);\r\n    }\r\n\r\n    /**\r\n     * @dev Earn from the strategy\r\n     */\r\n    function withdrawFromStrategy(address _oracle, uint256 _collatoralId, uint256 _amount, address _strategy) external {\r\n        OracleInfo storage oracle = getOracleInfo[_oracle];\r\n        Collatoral storage collatoral = collatorals[_collatoralId];\r\n        strategyController.withdraw(_strategy, address(collatoral.token), _amount);\r\n        oracle.stake[_collatoralId] += _amount;\r\n        emit withdrawedFromStrategy(_oracle, _collatoralId, _amount, _strategy);\r\n    }\r\n\r\n    /* ADMIN */\r\n\r\n    /// @dev Change withdrawal timelock.\r\n    /// @param _newTimelock Oracle address.\r\n    function setTimelock(uint256 _newTimelock) external onlyOwner() {\r\n        timelock = _newTimelock;\r\n    }\r\n\r\n    /// @dev Add new oracle.\r\n    /// @param _oracle Oracle address.\r\n    /// @param _admin Admin address.\r\n    function addOracle(address _oracle, address _admin) external onlyOwner() {\r\n        getOracleInfo[_oracle].admin = _admin;\r\n    }\r\n\r\n    /**\r\n     * @dev Add a new collatoral\r\n     * @param _token Address of token\r\n     */\r\n    function addCollatoral(IERC20 _token) external onlyOwner() {\r\n        collatorals.push(Collatoral(IERC20(_token), 0, 0));\r\n    }\r\n\r\n    /// @dev Cancel unstake.\r\n    /// @param _oracle Oracle address.\r\n    /// @param _withdrawalId Withdrawal identifier.\r\n    function cancelUnstake(address _oracle, uint256 _withdrawalId)\r\n        external\r\n        onlyOwner()\r\n    {\r\n        OracleInfo storage oracle = getOracleInfo[_oracle];\r\n        WithdrawalInfo storage withdrawal = oracle.withdrawals[_withdrawalId];\r\n        require(!withdrawal.executed, \"cancelUnstake: already executed\");\r\n        Collatoral storage collatoral = collatorals[withdrawal.collatoralId];\r\n        withdrawal.executed = true;\r\n        oracle.stake[withdrawal.collatoralId] += withdrawal.amount;\r\n        collatoral.totalLocked += withdrawal.amount;\r\n        UnstakeCancelled(_oracle, _withdrawalId);\r\n    }\r\n\r\n    /// @dev Withdraws confiscated tokens.\r\n    /// @param _oracle Oracle address.\r\n    /// @param _collatoralId Index of collatoral\r\n    /// @param _amount Amount to withdraw.\r\n    function liquidate(address _oracle, uint256 _collatoralId, uint256 _amount) external onlyOwner() {\r\n        OracleInfo storage oracle = getOracleInfo[_oracle];\r\n        require(oracle.stake[_collatoralId] >= _amount, \"liquidate: insufficient balance\");\r\n        Collatoral storage collatoral = collatorals[_collatoralId];\r\n        oracle.stake[_collatoralId] -= _amount;\r\n        collatoral.confiscatedFunds += _amount;\r\n        collatoral.totalLocked -= _amount;\r\n        liquidated(_oracle, _collatoralId, _amount);\r\n    }\r\n\r\n    /// @dev Withdraws confiscated tokens.\r\n    /// @param _recipient Recepient reward.\r\n    /// @param _amount Amount to withdraw.\r\n    function withdrawFunds(address _recipient, uint256 _collatoralId, uint256 _amount)\r\n        external\r\n        onlyOwner()\r\n    {\r\n        Collatoral storage collatoral = collatorals[_collatoralId];\r\n        require(\r\n            uint256(collatoral.confiscatedFunds) >= _amount,\r\n            \"withdrawFunds: insufficient reserve funds\"\r\n        );\r\n        require(\r\n            collatoral.token.transfer(_recipient, _amount),\r\n            \"withdrawFunds: transfer failed\"\r\n        );\r\n        collatoral.confiscatedFunds -= _amount;\r\n        emit withdrawedFunds(_recipient, _collatoralId, _amount);\r\n    }\r\n\r\n    /**\r\n     * @dev Move assets between oracles\r\n     * @param _oracleFrom Address of oracle sender\r\n     * @param _oracleTo Address of oracle receiver\r\n     * @param _collatoralId Id of collatoral\r\n     * @param _amount Amount of collatoral\r\n     */\r\n    function transferAssets(address _oracleFrom, address _oracleTo, uint256 _collatoralId, uint256 _amount) external onlyOwner() {\r\n        OracleInfo storage oracleFrom = getOracleInfo[_oracleFrom];\r\n        OracleInfo storage oracleTo = getOracleInfo[_oracleTo];\r\n\r\n        require(oracleFrom.stake[_collatoralId] >= _amount, \"transferAssets: Insufficient amount\");\r\n\r\n        oracleFrom.stake[_collatoralId] -= _amount;\r\n        oracleTo.stake[_collatoralId] += _amount;\r\n        emit AssetsTransferred(_oracleFrom, _oracleTo, _collatoralId, _amount);\r\n    }\r\n\r\n    /**\r\n     * @dev Set strategy controller\r\n     * @param _strategyController address of strategy controller\r\n     */\r\n    function setStrategyController(IStrategyController _strategyController) external onlyOwner() {\r\n        strategyController = _strategyController;\r\n    }\r\n\r\n    /// @dev Get withdrawal request.\r\n    /// @param _oracle Oracle address.\r\n    /// @param _withdrawalId Withdrawal identifier.\r\n    function getWithdrawalRequest(address _oracle, uint256 _withdrawalId)\r\n        public\r\n        view\r\n        returns (WithdrawalInfo memory)\r\n    {\r\n        return getOracleInfo[_oracle].withdrawals[_withdrawalId];\r\n    }\r\n\r\n    /** \r\n     * @dev get stake property of oracle\r\n     * @param _oracle address of oracle\r\n     * @param _collatoralId Index of collatoral\r\n     */\r\n    function getOracleStaking(address _oracle, uint256 _collatoralId) public view returns (uint256) {\r\n        return getOracleInfo[_oracle].stake[_collatoralId];\r\n    }\r\n}\r\n",
  "sourcePath": "D:/Ethereum/Debridge/debridge-contracts-v1/contracts/oracles/OracleManager.sol",
  "compiler": {
    "name": "solc",
    "version": "0.8.2+commit.661d1103.Emscripten.clang"
  },
  "schemaVersion": "3.3.4",
  "updatedAt": "2021-06-15T07:17:29.349Z",
  "devdoc": {
    "kind": "dev",
    "methods": {
      "addCollatoral(address)": {
        "details": "Add a new collatoral",
        "params": {
          "_token": "Address of token"
        }
      },
      "addOracle(address,address)": {
        "details": "Add new oracle.",
        "params": {
          "_admin": "Admin address.",
          "_oracle": "Oracle address."
        }
      },
      "cancelUnstake(address,uint256)": {
        "details": "Cancel unstake.",
        "params": {
          "_oracle": "Oracle address.",
          "_withdrawalId": "Withdrawal identifier."
        }
      },
      "constructor": {
        "details": "Constructor that initializes the most important configurations.",
        "params": {
          "_timelock": "Duration of withdrawal timelock."
        }
      },
      "depositToStrategy(address,uint256,uint256,address)": {
        "details": "Stake token to strategies to earn rewards",
        "params": {
          "_amount": "Amount to be staked",
          "_collatoralId": "Index of collatoral",
          "_oracle": "address of oracle",
          "_strategy": "strategy to stake into."
        }
      },
      "executeUnstake(address,uint256)": {
        "details": "Withdraw stake.",
        "params": {
          "_oracle": "Oracle address.",
          "_withdrawalId": "Withdrawal identifier."
        }
      },
      "getOracleStaking(address,uint256)": {
        "details": "get stake property of oracle",
        "params": {
          "_collatoralId": "Index of collatoral",
          "_oracle": "address of oracle"
        }
      },
      "getWithdrawalRequest(address,uint256)": {
        "details": "Get withdrawal request.",
        "params": {
          "_oracle": "Oracle address.",
          "_withdrawalId": "Withdrawal identifier."
        }
      },
      "liquidate(address,uint256,uint256)": {
        "details": "Withdraws confiscated tokens.",
        "params": {
          "_amount": "Amount to withdraw.",
          "_collatoralId": "Index of collatoral",
          "_oracle": "Oracle address."
        }
      },
      "owner()": {
        "details": "Returns the address of the current owner."
      },
      "renounceOwnership()": {
        "details": "Leaves the contract without owner. It will not be possible to call `onlyOwner` functions anymore. Can only be called by the current owner. NOTE: Renouncing ownership will leave the contract without an owner, thereby removing any functionality that is only available to the owner."
      },
      "requestUnstake(address,uint256,address,uint256)": {
        "details": "Withdraws oracle reward.",
        "params": {
          "_amount": "Amount to withdraw.",
          "_collatoralId": "Index of collatoral",
          "_oracle": "Oracle address.",
          "_recipient": "Recepient reward."
        }
      },
      "setStrategyController(address)": {
        "details": "Set strategy controller",
        "params": {
          "_strategyController": "address of strategy controller"
        }
      },
      "setTimelock(uint256)": {
        "details": "Change withdrawal timelock.",
        "params": {
          "_newTimelock": "Oracle address."
        }
      },
      "stake(address,uint256,uint256)": {
        "details": "Withdraws oracle reward.",
        "params": {
          "_amount": "Amount to withdraw.",
          "_collatoralId": "Index of collatoral",
          "_oracle": "Oracle address."
        }
      },
      "transferAssets(address,address,uint256,uint256)": {
        "details": "Move assets between oracles",
        "params": {
          "_amount": "Amount of collatoral",
          "_collatoralId": "Id of collatoral",
          "_oracleFrom": "Address of oracle sender",
          "_oracleTo": "Address of oracle receiver"
        }
      },
      "transferOwnership(address)": {
        "details": "Transfers ownership of the contract to a new account (`newOwner`). Can only be called by the current owner."
      },
      "withdrawFromStrategy(address,uint256,uint256,address)": {
        "details": "Earn from the strategy"
      },
      "withdrawFunds(address,uint256,uint256)": {
        "details": "Withdraws confiscated tokens.",
        "params": {
          "_amount": "Amount to withdraw.",
          "_recipient": "Recepient reward."
        }
      }
    },
    "version": 1
  },
  "userdoc": {
    "kind": "user",
    "methods": {},
    "version": 1
  }
}