{
  "contractName": "PriceConsumer",
  "abi": [
    {
      "anonymous": false,
      "inputs": [
        {
          "indexed": true,
          "internalType": "address",
          "name": "previousOwner",
          "type": "address"
        },
        {
          "indexed": true,
          "internalType": "address",
          "name": "newOwner",
          "type": "address"
        }
      ],
      "name": "OwnershipTransferred",
      "type": "event"
    },
    {
      "inputs": [],
      "name": "owner",
      "outputs": [
        {
          "internalType": "address",
          "name": "",
          "type": "address"
        }
      ],
      "stateMutability": "view",
      "type": "function"
    },
    {
      "inputs": [],
      "name": "renounceOwnership",
      "outputs": [],
      "stateMutability": "nonpayable",
      "type": "function"
    },
    {
      "inputs": [
        {
          "internalType": "address",
          "name": "newOwner",
          "type": "address"
        }
      ],
      "name": "transferOwnership",
      "outputs": [],
      "stateMutability": "nonpayable",
      "type": "function"
    },
    {
      "inputs": [
        {
          "internalType": "address",
          "name": "_token",
          "type": "address"
        }
      ],
      "name": "getPriceOfToken",
      "outputs": [
        {
          "internalType": "uint256",
          "name": "",
          "type": "uint256"
        }
      ],
      "stateMutability": "view",
      "type": "function"
    },
    {
      "inputs": [
        {
          "internalType": "address",
          "name": "_token",
          "type": "address"
        },
        {
          "internalType": "address",
          "name": "_priceFeed",
          "type": "address"
        }
      ],
      "name": "addPriceFeed",
      "outputs": [],
      "stateMutability": "nonpayable",
      "type": "function"
    }
  ],
  "bytecode": "0x608060405234801561001057600080fd5b50600080546001600160a01b031916339081178255604051909182917f8be0079c531659141344cd1fd0a4f28419497f9722a3daafe3b4186f6b6457e0908290a35061047a806100616000396000f3fe608060405234801561001057600080fd5b50600436106100575760003560e01c8063715018a61461005c5780638da5cb5b146100665780638da8447814610086578063e8a97a3e146100a7578063f2fde38b146100ba575b600080fd5b6100646100cd565b005b6000546040516001600160a01b0390911681526020015b60405180910390f35b61009961009436600461036d565b61014a565b60405190815260200161007d565b6100646100b536600461038e565b6101fa565b6100646100c836600461036d565b610252565b6000546001600160a01b031633146101005760405162461bcd60e51b81526004016100f79061040f565b60405180910390fd5b600080546040516001600160a01b03909116907f8be0079c531659141344cd1fd0a4f28419497f9722a3daafe3b4186f6b6457e0908390a3600080546001600160a01b0319169055565b6001600160a01b03808216600090815260016020526040808220548151633fabe5a360e21b81529151929316918391839163feaf968c9160048082019260a092909190829003018186803b1580156101a157600080fd5b505afa1580156101b5573d6000803e3d6000fd5b505050506040513d601f19601f820116820180604052508101906101d991906103c0565b505050915050600081136101ee5760006101f0565b805b925050505b919050565b6000546001600160a01b031633146102245760405162461bcd60e51b81526004016100f79061040f565b6001600160a01b03918216600090815260016020526040902080546001600160a01b03191691909216179055565b6000546001600160a01b0316331461027c5760405162461bcd60e51b81526004016100f79061040f565b6001600160a01b0381166102e15760405162461bcd60e51b815260206004820152602660248201527f4f776e61626c653a206e6577206f776e657220697320746865207a65726f206160448201526564647265737360d01b60648201526084016100f7565b600080546040516001600160a01b03808516939216917f8be0079c531659141344cd1fd0a4f28419497f9722a3daafe3b4186f6b6457e091a3600080546001600160a01b0319166001600160a01b0392909216919091179055565b80356001600160a01b03811681146101f557600080fd5b805169ffffffffffffffffffff811681146101f557600080fd5b60006020828403121561037e578081fd5b6103878261033c565b9392505050565b600080604083850312156103a0578081fd5b6103a98361033c565b91506103b76020840161033c565b90509250929050565b600080600080600060a086880312156103d7578081fd5b6103e086610353565b945060208601519350604086015192506060860151915061040360808701610353565b90509295509295909350565b6020808252818101527f4f776e61626c653a2063616c6c6572206973206e6f7420746865206f776e657260408201526060019056fea2646970667358221220fefee4778fba0b003745f39d8542703df1302ee3b785ca557185da4649b844de64736f6c63430008020033",
  "immutableReferences": {},
  "source": "// SPDX-License-Identifier: MIT\r\npragma solidity ^0.8.2;\r\n\r\nimport \"@openzeppelin/contracts/access/Ownable.sol\";\r\nimport \"@chainlink/contracts/src/v0.6/interfaces/AggregatorV3Interface.sol\";\r\nimport \"../interfaces/IPriceConsumer.sol\";\r\n\r\ncontract PriceConsumer is IPriceConsumer, Ownable {\r\n    mapping(address => address) priceFeeds;\r\n\r\n    /**\r\n     * @dev get Price of Token\r\n     * @param _token address of token\r\n     */\r\n    function getPriceOfToken(address _token) external override view returns(uint256){\r\n        AggregatorV3Interface priceFeed = AggregatorV3Interface(priceFeeds[_token]);\r\n        (,int price,,,) = priceFeed.latestRoundData();\r\n        return price > 0 ? uint256(price) : 0;\r\n    }\r\n\r\n    /**\r\n     * @dev set Price feed\r\n     * @param _token address of token\r\n     * @param _priceFeed address of price feed\r\n     */\r\n    function addPriceFeed(address _token, address _priceFeed) external onlyOwner(){\r\n        priceFeeds[_token] = _priceFeed;\r\n    }\r\n}",
  "sourcePath": "D:/Projects/Debridge/debridge-contracts-v1/contracts/periphery/PriceConsumer.sol",
  "compiler": {
    "name": "solc",
    "version": "0.8.2+commit.661d1103.Emscripten.clang"
  },
  "schemaVersion": "3.3.4",
  "updatedAt": "2021-07-18T21:07:26.207Z",
  "devdoc": {
    "kind": "dev",
    "methods": {
      "addPriceFeed(address,address)": {
        "details": "set Price feed",
        "params": {
          "_priceFeed": "address of price feed",
          "_token": "address of token"
        }
      },
      "getPriceOfToken(address)": {
        "details": "get Price of Token",
        "params": {
          "_token": "address of token"
        }
      },
      "owner()": {
        "details": "Returns the address of the current owner."
      },
      "renounceOwnership()": {
        "details": "Leaves the contract without owner. It will not be possible to call `onlyOwner` functions anymore. Can only be called by the current owner. NOTE: Renouncing ownership will leave the contract without an owner, thereby removing any functionality that is only available to the owner."
      },
      "transferOwnership(address)": {
        "details": "Transfers ownership of the contract to a new account (`newOwner`). Can only be called by the current owner."
      }
    },
    "version": 1
  },
  "userdoc": {
    "kind": "user",
    "methods": {},
    "version": 1
  }
}