{
  "contractName": "StrategyController",
  "abi": [
    {
      "inputs": [],
      "stateMutability": "nonpayable",
      "type": "constructor"
    },
    {
      "inputs": [
        {
          "internalType": "address",
          "name": "",
          "type": "address"
        }
      ],
      "name": "approvedStrategies",
      "outputs": [
        {
          "internalType": "bool",
          "name": "",
          "type": "bool"
        }
      ],
      "stateMutability": "view",
      "type": "function"
    },
    {
      "inputs": [],
      "name": "governance",
      "outputs": [
        {
          "internalType": "address",
          "name": "",
          "type": "address"
        }
      ],
      "stateMutability": "view",
      "type": "function"
    },
    {
      "inputs": [
        {
          "internalType": "address",
          "name": "_governance",
          "type": "address"
        }
      ],
      "name": "setGovernance",
      "outputs": [],
      "stateMutability": "nonpayable",
      "type": "function"
    },
    {
      "inputs": [
        {
          "internalType": "address",
          "name": "_strategy",
          "type": "address"
        }
      ],
      "name": "approveStrategy",
      "outputs": [],
      "stateMutability": "nonpayable",
      "type": "function"
    },
    {
      "inputs": [
        {
          "internalType": "address",
          "name": "_strategy",
          "type": "address"
        }
      ],
      "name": "revokeStrategy",
      "outputs": [],
      "stateMutability": "nonpayable",
      "type": "function"
    },
    {
      "inputs": [
        {
          "internalType": "address",
          "name": "_strategy",
          "type": "address"
        },
        {
          "internalType": "address",
          "name": "_token",
          "type": "address"
        },
        {
          "internalType": "uint256",
          "name": "_amount",
          "type": "uint256"
        }
      ],
      "name": "deposit",
      "outputs": [],
      "stateMutability": "nonpayable",
      "type": "function"
    },
    {
      "inputs": [
        {
          "internalType": "address",
          "name": "_strategy",
          "type": "address"
        },
        {
          "internalType": "address",
          "name": "_token",
          "type": "address"
        },
        {
          "internalType": "uint256",
          "name": "_amount",
          "type": "uint256"
        }
      ],
      "name": "withdraw",
      "outputs": [],
      "stateMutability": "nonpayable",
      "type": "function"
    },
    {
      "inputs": [
        {
          "internalType": "address",
          "name": "_strategy",
          "type": "address"
        },
        {
          "internalType": "address",
          "name": "_token",
          "type": "address"
        }
      ],
      "name": "withdrawAll",
      "outputs": [],
      "stateMutability": "nonpayable",
      "type": "function"
    }
  ],
  "bytecode": "0x608060405234801561001057600080fd5b50600080546001600160a01b031916331790556104d6806100326000396000f3fe608060405234801561001057600080fd5b50600436106100885760003560e01c8063ab033ea91161005b578063ab033ea9146100f7578063bb994d481461010a578063c613aec01461011d578063d9caed121461015057610088565b806309cae2c81461008d5780633b8ae397146100a15780635aa6e675146100b45780638340f549146100e4575b600080fd5b61009f61009b36600461040a565b5050565b005b61009f6100af3660046103e9565b610163565b6000546100c7906001600160a01b031681565b6040516001600160a01b0390911681526020015b60405180910390f35b61009f6100f236600461043c565b6101bd565b61009f6101053660046103e9565b610293565b61009f6101183660046103e9565b6102df565b61014061012b3660046103e9565b60016020526000908152604090205460ff1681565b60405190151581526020016100db565b61009f61015e36600461043c565b61032a565b6000546001600160a01b031633146101965760405162461bcd60e51b815260040161018d90610477565b60405180910390fd5b6001600160a01b03166000908152600160208190526040909120805460ff19169091179055565b6001600160a01b03831660009081526001602081905260409091205460ff1615151461022b5760405162461bcd60e51b815260206004820152601e60248201527f6465706f7369743a207374726174656779206e6f7420617070726f7665640000604482015260640161018d565b6040516311f9fbc960e21b81526001600160a01b038381166004830152602482018390528416906347e7ef24906044015b600060405180830381600087803b15801561027657600080fd5b505af115801561028a573d6000803e3d6000fd5b50505050505050565b6000546001600160a01b031633146102bd5760405162461bcd60e51b815260040161018d90610477565b600080546001600160a01b0319166001600160a01b0392909216919091179055565b6000546001600160a01b031633146103095760405162461bcd60e51b815260040161018d90610477565b6001600160a01b03166000908152600160205260409020805460ff19169055565b6001600160a01b03831660009081526001602081905260409091205460ff161515146103985760405162461bcd60e51b815260206004820152601e60248201527f6465706f7369743a207374726174656779206e6f7420617070726f7665640000604482015260640161018d565b60405163f3fef3a360e01b81526001600160a01b0383811660048301526024820183905284169063f3fef3a39060440161025c565b80356001600160a01b03811681146103e457600080fd5b919050565b6000602082840312156103fa578081fd5b610403826103cd565b9392505050565b6000806040838503121561041c578081fd5b610425836103cd565b9150610433602084016103cd565b90509250929050565b600080600060608486031215610450578081fd5b610459846103cd565b9250610467602085016103cd565b9150604084013590509250925092565b6020808252600f908201526e4f6e6c7920676f7665726e616e636560881b60408201526060019056fea26469706673582212209da82c858d0c6dac539ffdc634372ffe436284d4bf705da8f6897ef1b6fdca9364736f6c63430008020033",
  "immutableReferences": {},
  "source": "// SPDX-License-Identifier: MIT\r\npragma solidity ^0.8.2;\r\n\r\nimport \"@openzeppelin/contracts/token/ERC20/IERC20.sol\";\r\nimport \"../interfaces/IStrategyController.sol\";\r\nimport \"../interfaces/IStrategy.sol\";\r\n\r\ncontract StrategyController is \r\nIStrategyController {\r\n    address public governance;\r\n    mapping(address => bool) public approvedStrategies;\r\n    \r\n    constructor() {\r\n        governance = msg.sender;\r\n    }\r\n\r\n    /**\r\n     * @dev Set governance\r\n     * @param _governance Address of new governance\r\n     */\r\n    function setGovernance(address _governance) public onlyGovernance() {\r\n        governance = _governance;\r\n    }\r\n\r\n    /**\r\n     * @dev Approve strategy by governance\r\n     * @param _strategy Address of strategy\r\n     */\r\n    function approveStrategy(address _strategy) external override onlyGovernance() {\r\n        approvedStrategies[_strategy] = true;\r\n    }\r\n\r\n    /**\r\n     * @dev Reject strategy by governance\r\n     * @param _strategy Address of strategy\r\n     */\r\n    function revokeStrategy(address _strategy) external override onlyGovernance() {\r\n        approvedStrategies[_strategy] = false;\r\n    }\r\n\r\n    /**\r\n     * @dev Deposit token to specific strategy\r\n     * @param _strategy Address of strategy\r\n     * @param _token Address of token\r\n     * @param _amount Amount of token\r\n     */\r\n    function deposit(address _strategy, address _token, uint256 _amount) external override{\r\n        require(approvedStrategies[_strategy] == true, \"deposit: strategy not approved\");\r\n\r\n        IStrategy(_strategy).deposit(_token, _amount);\r\n    }\r\n\r\n    /**\r\n     * @dev Withdraw token from strategy\r\n     * @param _strategy Address of strategy\r\n     * @param _token Address of token\r\n     * @param _amount Amount of token to withdraw\r\n     */\r\n    function withdraw(address _strategy, address _token, uint256 _amount) external override{\r\n        require(approvedStrategies[_strategy] == true, \"deposit: strategy not approved\");\r\n\r\n        IStrategy(_strategy).withdraw(_token, _amount);\r\n    }\r\n\r\n    /**\r\n     * @dev Withdraw token from strategy\r\n     * @param _strategy Address of strategy\r\n     * @param _token Address of token\r\n     */\r\n    function withdrawAll(address _strategy, address _token) external override{\r\n        \r\n    }\r\n\r\n    /* modifiers */\r\n\r\n    modifier onlyGovernance() {\r\n        require(governance == msg.sender, \"Only governance\");\r\n        _;\r\n    }\r\n}\r\n",
  "sourcePath": "D:/Ethereum/Debridge/debridge-contracts-v1/contracts/periphery/StrategyController.sol",
  "compiler": {
    "name": "solc",
    "version": "0.8.2+commit.661d1103.Emscripten.clang"
  },
  "schemaVersion": "3.3.4",
  "updatedAt": "2021-06-29T17:41:26.020Z",
  "devdoc": {
    "kind": "dev",
    "methods": {
      "approveStrategy(address)": {
        "details": "Approve strategy by governance",
        "params": {
          "_strategy": "Address of strategy"
        }
      },
      "deposit(address,address,uint256)": {
        "details": "Deposit token to specific strategy",
        "params": {
          "_amount": "Amount of token",
          "_strategy": "Address of strategy",
          "_token": "Address of token"
        }
      },
      "revokeStrategy(address)": {
        "details": "Reject strategy by governance",
        "params": {
          "_strategy": "Address of strategy"
        }
      },
      "setGovernance(address)": {
        "details": "Set governance",
        "params": {
          "_governance": "Address of new governance"
        }
      },
      "withdraw(address,address,uint256)": {
        "details": "Withdraw token from strategy",
        "params": {
          "_amount": "Amount of token to withdraw",
          "_strategy": "Address of strategy",
          "_token": "Address of token"
        }
      },
      "withdrawAll(address,address)": {
        "details": "Withdraw token from strategy",
        "params": {
          "_strategy": "Address of strategy",
          "_token": "Address of token"
        }
      }
    },
    "version": 1
  },
  "userdoc": {
    "kind": "user",
    "methods": {},
    "version": 1
  }
}