{
  "contractName": "StrategyController",
  "abi": [
    {
      "inputs": [],
      "stateMutability": "nonpayable",
      "type": "constructor"
    },
    {
      "inputs": [
        {
          "internalType": "address",
          "name": "",
          "type": "address"
        }
      ],
      "name": "approvedStrategies",
      "outputs": [
        {
          "internalType": "bool",
          "name": "",
          "type": "bool"
        }
      ],
      "stateMutability": "view",
      "type": "function"
    },
    {
      "inputs": [],
      "name": "governance",
      "outputs": [
        {
          "internalType": "address",
          "name": "",
          "type": "address"
        }
      ],
      "stateMutability": "view",
      "type": "function"
    },
    {
      "inputs": [
        {
          "internalType": "address",
          "name": "_governance",
          "type": "address"
        }
      ],
      "name": "setGovernance",
      "outputs": [],
      "stateMutability": "nonpayable",
      "type": "function"
    },
    {
      "inputs": [
        {
          "internalType": "address",
          "name": "_strategy",
          "type": "address"
        }
      ],
      "name": "approveStrategy",
      "outputs": [],
      "stateMutability": "nonpayable",
      "type": "function"
    },
    {
      "inputs": [
        {
          "internalType": "address",
          "name": "_strategy",
          "type": "address"
        }
      ],
      "name": "revokeStrategy",
      "outputs": [],
      "stateMutability": "nonpayable",
      "type": "function"
    },
    {
      "inputs": [
        {
          "internalType": "address",
          "name": "_strategy",
          "type": "address"
        },
        {
          "internalType": "address",
          "name": "_token",
          "type": "address"
        },
        {
          "internalType": "uint256",
          "name": "_amount",
          "type": "uint256"
        }
      ],
      "name": "deposit",
      "outputs": [],
      "stateMutability": "nonpayable",
      "type": "function"
    },
    {
      "inputs": [
        {
          "internalType": "address",
          "name": "_strategy",
          "type": "address"
        },
        {
          "internalType": "address",
          "name": "_token",
          "type": "address"
        },
        {
          "internalType": "uint256",
          "name": "_amount",
          "type": "uint256"
        }
      ],
      "name": "withdraw",
      "outputs": [],
      "stateMutability": "nonpayable",
      "type": "function"
    }
  ],
  "bytecode": "0x608060405234801561001057600080fd5b50600080546001600160a01b03191633179055610487806100326000396000f3fe608060405234801561001057600080fd5b506004361061007d5760003560e01c8063ab033ea91161005b578063ab033ea9146100da578063bb994d48146100ed578063c613aec014610100578063d9caed12146101335761007d565b80633b8ae397146100825780635aa6e675146100975780638340f549146100c7575b600080fd5b6100956100903660046103cc565b610146565b005b6000546100aa906001600160a01b031681565b6040516001600160a01b0390911681526020015b60405180910390f35b6100956100d53660046103ed565b6101a0565b6100956100e83660046103cc565b610276565b6100956100fb3660046103cc565b6102c2565b61012361010e3660046103cc565b60016020526000908152604090205460ff1681565b60405190151581526020016100be565b6100956101413660046103ed565b61030d565b6000546001600160a01b031633146101795760405162461bcd60e51b815260040161017090610428565b60405180910390fd5b6001600160a01b03166000908152600160208190526040909120805460ff19169091179055565b6001600160a01b03831660009081526001602081905260409091205460ff1615151461020e5760405162461bcd60e51b815260206004820152601e60248201527f6465706f7369743a207374726174656779206e6f7420617070726f76656400006044820152606401610170565b6040516311f9fbc960e21b81526001600160a01b038381166004830152602482018390528416906347e7ef24906044015b600060405180830381600087803b15801561025957600080fd5b505af115801561026d573d6000803e3d6000fd5b50505050505050565b6000546001600160a01b031633146102a05760405162461bcd60e51b815260040161017090610428565b600080546001600160a01b0319166001600160a01b0392909216919091179055565b6000546001600160a01b031633146102ec5760405162461bcd60e51b815260040161017090610428565b6001600160a01b03166000908152600160205260409020805460ff19169055565b6001600160a01b03831660009081526001602081905260409091205460ff1615151461037b5760405162461bcd60e51b815260206004820152601e60248201527f6465706f7369743a207374726174656779206e6f7420617070726f76656400006044820152606401610170565b60405163f3fef3a360e01b81526001600160a01b0383811660048301526024820183905284169063f3fef3a39060440161023f565b80356001600160a01b03811681146103c757600080fd5b919050565b6000602082840312156103dd578081fd5b6103e6826103b0565b9392505050565b600080600060608486031215610401578182fd5b61040a846103b0565b9250610418602085016103b0565b9150604084013590509250925092565b6020808252600f908201526e4f6e6c7920676f7665726e616e636560881b60408201526060019056fea26469706673582212208bd82d0759b762f6d4b26db18d44bc043994dc1858fb419d7aa886300ff4e1e464736f6c63430008020033",
  "immutableReferences": {},
  "source": "// SPDX-License-Identifier: MIT\r\npragma solidity ^0.8.2;\r\n\r\nimport \"@openzeppelin/contracts/token/ERC20/IERC20.sol\";\r\nimport \"../interfaces/IStrategyController.sol\";\r\nimport \"../interfaces/IStrategy.sol\";\r\n\r\ncontract StrategyController is \r\nIStrategyController {\r\n    address public governance;\r\n    mapping(address => bool) public approvedStrategies;\r\n    \r\n    constructor() {\r\n        governance = msg.sender;\r\n    }\r\n\r\n    /**\r\n     * @dev Set governance\r\n     * @param _governance Address of new governance\r\n     */\r\n    function setGovernance(address _governance) public onlyGovernance() {\r\n        governance = _governance;\r\n    }\r\n\r\n    /**\r\n     * @dev Approve strategy by governance\r\n     * @param _strategy Address of strategy\r\n     */\r\n    function approveStrategy(address _strategy) external override onlyGovernance() {\r\n        approvedStrategies[_strategy] = true;\r\n    }\r\n\r\n    /**\r\n     * @dev Reject strategy by governance\r\n     * @param _strategy Address of strategy\r\n     */\r\n    function revokeStrategy(address _strategy) external override onlyGovernance() {\r\n        approvedStrategies[_strategy] = false;\r\n    }\r\n\r\n    /**\r\n     * @dev Deposit token to specific strategy\r\n     * @param _strategy Address of strategy\r\n     * @param _token Address of token\r\n     * @param _amount Amount of token\r\n     */\r\n    function deposit(address _strategy, address _token, uint256 _amount) external override{\r\n        require(approvedStrategies[_strategy] == true, \"deposit: strategy not approved\");\r\n\r\n        IStrategy(_strategy).deposit(_token, _amount);\r\n    }\r\n\r\n    /**\r\n     * @dev Withdraw token from strategy\r\n     * @param _strategy Address of strategy\r\n     * @param _token Address of token\r\n     * @param _amount Amount of token to withdraw\r\n     */\r\n    function withdraw(address _strategy, address _token, uint256 _amount) external override{\r\n        require(approvedStrategies[_strategy] == true, \"deposit: strategy not approved\");\r\n\r\n        IStrategy(_strategy).withdraw(_token, _amount);\r\n    }\r\n\r\n    /* modifiers */\r\n\r\n    modifier onlyGovernance() {\r\n        require(governance == msg.sender, \"Only governance\");\r\n        _;\r\n    }\r\n}\r\n",
  "sourcePath": "D:/Ethereum/Debridge/debridge-contracts-v1/contracts/periphery/StrategyController.sol",
  "compiler": {
    "name": "solc",
    "version": "0.8.2+commit.661d1103.Emscripten.clang"
  },
  "schemaVersion": "3.3.4",
  "updatedAt": "2021-06-15T14:59:25.610Z",
  "devdoc": {
    "kind": "dev",
    "methods": {
      "approveStrategy(address)": {
        "details": "Approve strategy by governance",
        "params": {
          "_strategy": "Address of strategy"
        }
      },
      "deposit(address,address,uint256)": {
        "details": "Deposit token to specific strategy",
        "params": {
          "_amount": "Amount of token",
          "_strategy": "Address of strategy",
          "_token": "Address of token"
        }
      },
      "revokeStrategy(address)": {
        "details": "Reject strategy by governance",
        "params": {
          "_strategy": "Address of strategy"
        }
      },
      "setGovernance(address)": {
        "details": "Set governance",
        "params": {
          "_governance": "Address of new governance"
        }
      },
      "withdraw(address,address,uint256)": {
        "details": "Withdraw token from strategy",
        "params": {
          "_amount": "Amount of token to withdraw",
          "_strategy": "Address of strategy",
          "_token": "Address of token"
        }
      }
    },
    "version": 1
  },
  "userdoc": {
    "kind": "user",
    "methods": {},
    "version": 1
  }
}