{
  "contractName": "WhiteLightDebridge",
  "abi": [
    {
      "anonymous": false,
      "inputs": [
        {
          "indexed": false,
          "internalType": "bytes32",
          "name": "submissionId",
          "type": "bytes32"
        },
        {
          "indexed": false,
          "internalType": "bytes32",
          "name": "debridgeId",
          "type": "bytes32"
        },
        {
          "indexed": false,
          "internalType": "uint256",
          "name": "amount",
          "type": "uint256"
        },
        {
          "indexed": false,
          "internalType": "address",
          "name": "receiver",
          "type": "address"
        },
        {
          "indexed": false,
          "internalType": "uint256",
          "name": "nonce",
          "type": "uint256"
        },
        {
          "indexed": false,
          "internalType": "uint256",
          "name": "chainIdTo",
          "type": "uint256"
        }
      ],
      "name": "Burnt",
      "type": "event"
    },
    {
      "anonymous": false,
      "inputs": [
        {
          "indexed": true,
          "internalType": "bytes32",
          "name": "debridgeId",
          "type": "bytes32"
        },
        {
          "indexed": true,
          "internalType": "uint256",
          "name": "chainId",
          "type": "uint256"
        }
      ],
      "name": "ChainSupportAdded",
      "type": "event"
    },
    {
      "anonymous": false,
      "inputs": [
        {
          "indexed": true,
          "internalType": "bytes32",
          "name": "debridgeId",
          "type": "bytes32"
        },
        {
          "indexed": true,
          "internalType": "uint256",
          "name": "chainId",
          "type": "uint256"
        }
      ],
      "name": "ChainSupportRemoved",
      "type": "event"
    },
    {
      "anonymous": false,
      "inputs": [
        {
          "indexed": false,
          "internalType": "bytes32",
          "name": "submissionId",
          "type": "bytes32"
        },
        {
          "indexed": false,
          "internalType": "uint256",
          "name": "amount",
          "type": "uint256"
        },
        {
          "indexed": false,
          "internalType": "address",
          "name": "receiver",
          "type": "address"
        },
        {
          "indexed": false,
          "internalType": "bytes32",
          "name": "debridgeId",
          "type": "bytes32"
        }
      ],
      "name": "Claimed",
      "type": "event"
    },
    {
      "anonymous": false,
      "inputs": [
        {
          "indexed": false,
          "internalType": "bytes32",
          "name": "submissionId",
          "type": "bytes32"
        },
        {
          "indexed": false,
          "internalType": "uint256",
          "name": "amount",
          "type": "uint256"
        },
        {
          "indexed": false,
          "internalType": "address",
          "name": "receiver",
          "type": "address"
        },
        {
          "indexed": false,
          "internalType": "bytes32",
          "name": "debridgeId",
          "type": "bytes32"
        }
      ],
      "name": "Minted",
      "type": "event"
    },
    {
      "anonymous": false,
      "inputs": [
        {
          "indexed": true,
          "internalType": "bytes32",
          "name": "debridgeId",
          "type": "bytes32"
        },
        {
          "indexed": true,
          "internalType": "address",
          "name": "tokenAddress",
          "type": "address"
        },
        {
          "indexed": true,
          "internalType": "uint256",
          "name": "chainId",
          "type": "uint256"
        },
        {
          "indexed": false,
          "internalType": "uint256",
          "name": "minAmount",
          "type": "uint256"
        },
        {
          "indexed": false,
          "internalType": "uint256",
          "name": "transferFee",
          "type": "uint256"
        },
        {
          "indexed": false,
          "internalType": "uint256",
          "name": "minReserves",
          "type": "uint256"
        }
      ],
      "name": "PairAdded",
      "type": "event"
    },
    {
      "anonymous": false,
      "inputs": [
        {
          "indexed": true,
          "internalType": "bytes32",
          "name": "role",
          "type": "bytes32"
        },
        {
          "indexed": true,
          "internalType": "bytes32",
          "name": "previousAdminRole",
          "type": "bytes32"
        },
        {
          "indexed": true,
          "internalType": "bytes32",
          "name": "newAdminRole",
          "type": "bytes32"
        }
      ],
      "name": "RoleAdminChanged",
      "type": "event"
    },
    {
      "anonymous": false,
      "inputs": [
        {
          "indexed": true,
          "internalType": "bytes32",
          "name": "role",
          "type": "bytes32"
        },
        {
          "indexed": true,
          "internalType": "address",
          "name": "account",
          "type": "address"
        },
        {
          "indexed": true,
          "internalType": "address",
          "name": "sender",
          "type": "address"
        }
      ],
      "name": "RoleGranted",
      "type": "event"
    },
    {
      "anonymous": false,
      "inputs": [
        {
          "indexed": true,
          "internalType": "bytes32",
          "name": "role",
          "type": "bytes32"
        },
        {
          "indexed": true,
          "internalType": "address",
          "name": "account",
          "type": "address"
        },
        {
          "indexed": true,
          "internalType": "address",
          "name": "sender",
          "type": "address"
        }
      ],
      "name": "RoleRevoked",
      "type": "event"
    },
    {
      "anonymous": false,
      "inputs": [
        {
          "indexed": false,
          "internalType": "bytes32",
          "name": "submissionId",
          "type": "bytes32"
        },
        {
          "indexed": false,
          "internalType": "bytes32",
          "name": "debridgeId",
          "type": "bytes32"
        },
        {
          "indexed": false,
          "internalType": "uint256",
          "name": "amount",
          "type": "uint256"
        },
        {
          "indexed": false,
          "internalType": "address",
          "name": "receiver",
          "type": "address"
        },
        {
          "indexed": false,
          "internalType": "uint256",
          "name": "nonce",
          "type": "uint256"
        },
        {
          "indexed": false,
          "internalType": "uint256",
          "name": "chainIdTo",
          "type": "uint256"
        }
      ],
      "name": "Sent",
      "type": "event"
    },
    {
      "inputs": [],
      "name": "DEFAULT_ADMIN_ROLE",
      "outputs": [
        {
          "internalType": "bytes32",
          "name": "",
          "type": "bytes32"
        }
      ],
      "stateMutability": "view",
      "type": "function",
      "constant": true
    },
    {
      "inputs": [],
      "name": "DENOMINATOR",
      "outputs": [
        {
          "internalType": "uint256",
          "name": "",
          "type": "uint256"
        }
      ],
      "stateMutability": "view",
      "type": "function",
      "constant": true
    },
    {
      "inputs": [
        {
          "internalType": "address",
          "name": "_tokenAddress",
          "type": "address"
        },
        {
          "internalType": "address",
          "name": "_wrappedAssetAddress",
          "type": "address"
        },
        {
          "internalType": "uint256",
          "name": "_chainId",
          "type": "uint256"
        },
        {
          "internalType": "uint256",
          "name": "_minAmount",
          "type": "uint256"
        },
        {
          "internalType": "uint256",
          "name": "_transferFee",
          "type": "uint256"
        },
        {
          "internalType": "uint256",
          "name": "_minReserves",
          "type": "uint256"
        },
        {
          "internalType": "uint256[]",
          "name": "_supportedChainIds",
          "type": "uint256[]"
        }
      ],
      "name": "addExternalAsset",
      "outputs": [],
      "stateMutability": "nonpayable",
      "type": "function"
    },
    {
      "inputs": [
        {
          "internalType": "address",
          "name": "_tokenAddress",
          "type": "address"
        },
        {
          "internalType": "uint256",
          "name": "_minAmount",
          "type": "uint256"
        },
        {
          "internalType": "uint256",
          "name": "_transferFee",
          "type": "uint256"
        },
        {
          "internalType": "uint256",
          "name": "_minReserves",
          "type": "uint256"
        },
        {
          "internalType": "uint256[]",
          "name": "_supportedChainIds",
          "type": "uint256[]"
        }
      ],
      "name": "addNativeAsset",
      "outputs": [],
      "stateMutability": "nonpayable",
      "type": "function"
    },
    {
      "inputs": [],
      "name": "aggregator",
      "outputs": [
        {
          "internalType": "address",
          "name": "",
          "type": "address"
        }
      ],
      "stateMutability": "view",
      "type": "function",
      "constant": true
    },
    {
      "inputs": [],
      "name": "aggregatorVersion",
      "outputs": [
        {
          "internalType": "uint8",
          "name": "",
          "type": "uint8"
        }
      ],
      "stateMutability": "view",
      "type": "function",
      "constant": true
    },
    {
      "inputs": [
        {
          "internalType": "bytes32",
          "name": "_debridgeId",
          "type": "bytes32"
        },
        {
          "internalType": "address",
          "name": "_receiver",
          "type": "address"
        },
        {
          "internalType": "uint256",
          "name": "_amount",
          "type": "uint256"
        },
        {
          "internalType": "uint256",
          "name": "_chainIdTo",
          "type": "uint256"
        }
      ],
      "name": "burn",
      "outputs": [],
      "stateMutability": "nonpayable",
      "type": "function"
    },
    {
      "inputs": [],
      "name": "chainId",
      "outputs": [
        {
          "internalType": "uint256",
          "name": "",
          "type": "uint256"
        }
      ],
      "stateMutability": "view",
      "type": "function",
      "constant": true
    },
    {
      "inputs": [],
      "name": "defiController",
      "outputs": [
        {
          "internalType": "contract IDefiController",
          "name": "",
          "type": "address"
        }
      ],
      "stateMutability": "view",
      "type": "function",
      "constant": true
    },
    {
      "inputs": [
        {
          "internalType": "address",
          "name": "_tokenAddress",
          "type": "address"
        }
      ],
      "name": "getBalance",
      "outputs": [
        {
          "internalType": "uint256",
          "name": "",
          "type": "uint256"
        }
      ],
      "stateMutability": "view",
      "type": "function",
      "constant": true
    },
    {
      "inputs": [
        {
          "internalType": "bytes32",
          "name": "",
          "type": "bytes32"
        }
      ],
      "name": "getDebridge",
      "outputs": [
        {
          "internalType": "address",
          "name": "tokenAddress",
          "type": "address"
        },
        {
          "internalType": "uint256",
          "name": "chainId",
          "type": "uint256"
        },
        {
          "internalType": "uint256",
          "name": "minAmount",
          "type": "uint256"
        },
        {
          "internalType": "uint256",
          "name": "transferFee",
          "type": "uint256"
        },
        {
          "internalType": "uint256",
          "name": "collectedFees",
          "type": "uint256"
        },
        {
          "internalType": "uint256",
          "name": "balance",
          "type": "uint256"
        },
        {
          "internalType": "uint256",
          "name": "minReserves",
          "type": "uint256"
        }
      ],
      "stateMutability": "view",
      "type": "function",
      "constant": true
    },
    {
      "inputs": [
        {
          "internalType": "uint256",
          "name": "_chainId",
          "type": "uint256"
        },
        {
          "internalType": "address",
          "name": "_tokenAddress",
          "type": "address"
        }
      ],
      "name": "getDebridgeId",
      "outputs": [
        {
          "internalType": "bytes32",
          "name": "",
          "type": "bytes32"
        }
      ],
      "stateMutability": "pure",
      "type": "function",
      "constant": true
    },
    {
      "inputs": [
        {
          "internalType": "uint8",
          "name": "",
          "type": "uint8"
        }
      ],
      "name": "getOldAggregator",
      "outputs": [
        {
          "internalType": "address",
          "name": "aggregator",
          "type": "address"
        },
        {
          "internalType": "bool",
          "name": "isValid",
          "type": "bool"
        }
      ],
      "stateMutability": "view",
      "type": "function",
      "constant": true
    },
    {
      "inputs": [
        {
          "internalType": "bytes32",
          "name": "role",
          "type": "bytes32"
        }
      ],
      "name": "getRoleAdmin",
      "outputs": [
        {
          "internalType": "bytes32",
          "name": "",
          "type": "bytes32"
        }
      ],
      "stateMutability": "view",
      "type": "function",
      "constant": true
    },
    {
      "inputs": [
        {
          "internalType": "bytes32",
          "name": "_debridgeId",
          "type": "bytes32"
        },
        {
          "internalType": "uint256",
          "name": "_chainIdTo",
          "type": "uint256"
        },
        {
          "internalType": "uint256",
          "name": "_amount",
          "type": "uint256"
        },
        {
          "internalType": "address",
          "name": "_receiver",
          "type": "address"
        },
        {
          "internalType": "uint256",
          "name": "_nonce",
          "type": "uint256"
        }
      ],
      "name": "getSubmisionId",
      "outputs": [
        {
          "internalType": "bytes32",
          "name": "",
          "type": "bytes32"
        }
      ],
      "stateMutability": "pure",
      "type": "function",
      "constant": true
    },
    {
      "inputs": [
        {
          "internalType": "bytes32",
          "name": "_debridgeId",
          "type": "bytes32"
        }
      ],
      "name": "getSupportedChainIds",
      "outputs": [
        {
          "internalType": "uint256[]",
          "name": "",
          "type": "uint256[]"
        }
      ],
      "stateMutability": "view",
      "type": "function",
      "constant": true
    },
    {
      "inputs": [
        {
          "internalType": "address",
          "name": "",
          "type": "address"
        }
      ],
      "name": "getUserNonce",
      "outputs": [
        {
          "internalType": "uint256",
          "name": "",
          "type": "uint256"
        }
      ],
      "stateMutability": "view",
      "type": "function",
      "constant": true
    },
    {
      "inputs": [
        {
          "internalType": "bytes32",
          "name": "role",
          "type": "bytes32"
        },
        {
          "internalType": "address",
          "name": "account",
          "type": "address"
        }
      ],
      "name": "grantRole",
      "outputs": [],
      "stateMutability": "nonpayable",
      "type": "function"
    },
    {
      "inputs": [
        {
          "internalType": "bytes32",
          "name": "role",
          "type": "bytes32"
        },
        {
          "internalType": "address",
          "name": "account",
          "type": "address"
        }
      ],
      "name": "hasRole",
      "outputs": [
        {
          "internalType": "bool",
          "name": "",
          "type": "bool"
        }
      ],
      "stateMutability": "view",
      "type": "function",
      "constant": true
    },
    {
      "inputs": [
        {
          "internalType": "bytes32",
          "name": "",
          "type": "bytes32"
        }
      ],
      "name": "isSubmissionUsed",
      "outputs": [
        {
          "internalType": "bool",
          "name": "",
          "type": "bool"
        }
      ],
      "stateMutability": "view",
      "type": "function",
      "constant": true
    },
    {
      "inputs": [
        {
          "internalType": "uint8",
          "name": "_aggregatorVersion",
          "type": "uint8"
        },
        {
          "internalType": "bool",
          "name": "_isValid",
          "type": "bool"
        }
      ],
      "name": "manageOldAggregator",
      "outputs": [],
      "stateMutability": "nonpayable",
      "type": "function"
    },
    {
      "inputs": [
        {
          "internalType": "bytes32",
          "name": "role",
          "type": "bytes32"
        },
        {
          "internalType": "address",
          "name": "account",
          "type": "address"
        }
      ],
      "name": "renounceRole",
      "outputs": [],
      "stateMutability": "nonpayable",
      "type": "function"
    },
    {
      "inputs": [
        {
          "internalType": "address",
          "name": "_tokenAddress",
          "type": "address"
        },
        {
          "internalType": "uint256",
          "name": "_amount",
          "type": "uint256"
        }
      ],
      "name": "requestReserves",
      "outputs": [],
      "stateMutability": "nonpayable",
      "type": "function"
    },
    {
      "inputs": [
        {
          "internalType": "address",
          "name": "_tokenAddress",
          "type": "address"
        },
        {
          "internalType": "uint256",
          "name": "_amount",
          "type": "uint256"
        }
      ],
      "name": "returnReserves",
      "outputs": [],
      "stateMutability": "payable",
      "type": "function",
      "payable": true
    },
    {
      "inputs": [
        {
          "internalType": "bytes32",
          "name": "role",
          "type": "bytes32"
        },
        {
          "internalType": "address",
          "name": "account",
          "type": "address"
        }
      ],
      "name": "revokeRole",
      "outputs": [],
      "stateMutability": "nonpayable",
      "type": "function"
    },
    {
      "inputs": [
        {
          "internalType": "bytes32",
          "name": "_debridgeId",
          "type": "bytes32"
        },
        {
          "internalType": "address",
          "name": "_receiver",
          "type": "address"
        },
        {
          "internalType": "uint256",
          "name": "_amount",
          "type": "uint256"
        },
        {
          "internalType": "uint256",
          "name": "_chainIdTo",
          "type": "uint256"
        }
      ],
      "name": "send",
      "outputs": [],
      "stateMutability": "payable",
      "type": "function",
      "payable": true
    },
    {
      "inputs": [
        {
          "internalType": "address",
          "name": "_aggregator",
          "type": "address"
        }
      ],
      "name": "setAggregator",
      "outputs": [],
      "stateMutability": "nonpayable",
      "type": "function"
    },
    {
      "inputs": [
        {
          "internalType": "bytes32",
          "name": "_debridgeId",
          "type": "bytes32"
        },
        {
          "internalType": "uint256",
          "name": "_chainId",
          "type": "uint256"
        },
        {
          "internalType": "bool",
          "name": "_isSupported",
          "type": "bool"
        }
      ],
      "name": "setChainIdSupport",
      "outputs": [],
      "stateMutability": "nonpayable",
      "type": "function"
    },
    {
      "inputs": [
        {
          "internalType": "contract IDefiController",
          "name": "_defiController",
          "type": "address"
        }
      ],
      "name": "setDefiController",
      "outputs": [],
      "stateMutability": "nonpayable",
      "type": "function"
    },
    {
      "inputs": [
        {
          "internalType": "bytes4",
          "name": "interfaceId",
          "type": "bytes4"
        }
      ],
      "name": "supportsInterface",
      "outputs": [
        {
          "internalType": "bool",
          "name": "",
          "type": "bool"
        }
      ],
      "stateMutability": "view",
      "type": "function",
      "constant": true
    },
    {
      "inputs": [
        {
          "internalType": "bytes32",
          "name": "_debridgeId",
          "type": "bytes32"
        },
        {
          "internalType": "uint256",
          "name": "_minAmount",
          "type": "uint256"
        },
        {
          "internalType": "uint256",
          "name": "_transferFee",
          "type": "uint256"
        },
        {
          "internalType": "uint256",
          "name": "_minReserves",
          "type": "uint256"
        }
      ],
      "name": "updateAsset",
      "outputs": [],
      "stateMutability": "nonpayable",
      "type": "function"
    },
    {
      "inputs": [
        {
          "internalType": "bytes32",
          "name": "_debridgeId",
          "type": "bytes32"
        },
        {
          "internalType": "address",
          "name": "_receiver",
          "type": "address"
        },
        {
          "internalType": "uint256",
          "name": "_amount",
          "type": "uint256"
        }
      ],
      "name": "withdrawFee",
      "outputs": [],
      "stateMutability": "nonpayable",
      "type": "function"
    },
    {
      "inputs": [
        {
          "internalType": "uint256",
          "name": "_minAmount",
          "type": "uint256"
        },
        {
          "internalType": "uint256",
          "name": "_transferFee",
          "type": "uint256"
        },
        {
          "internalType": "uint256",
          "name": "_minReserves",
          "type": "uint256"
        },
        {
          "internalType": "address",
          "name": "_aggregator",
          "type": "address"
        },
        {
          "internalType": "uint256[]",
          "name": "_supportedChainIds",
          "type": "uint256[]"
        },
        {
          "internalType": "contract IDefiController",
          "name": "_defiController",
          "type": "address"
        }
      ],
      "name": "initialize",
      "outputs": [],
      "stateMutability": "payable",
      "type": "function",
      "payable": true
    },
    {
      "inputs": [
        {
          "internalType": "bytes32",
          "name": "_debridgeId",
          "type": "bytes32"
        },
        {
          "internalType": "address",
          "name": "_receiver",
          "type": "address"
        },
        {
          "internalType": "uint256",
          "name": "_amount",
          "type": "uint256"
        },
        {
          "internalType": "uint256",
          "name": "_nonce",
          "type": "uint256"
        },
        {
          "internalType": "bytes[2][]",
          "name": "_trxData",
          "type": "bytes[2][]"
        }
      ],
      "name": "mint",
      "outputs": [],
      "stateMutability": "nonpayable",
      "type": "function"
    },
    {
      "inputs": [
        {
          "internalType": "bytes32",
          "name": "_debridgeId",
          "type": "bytes32"
        },
        {
          "internalType": "address",
          "name": "_receiver",
          "type": "address"
        },
        {
          "internalType": "uint256",
          "name": "_amount",
          "type": "uint256"
        },
        {
          "internalType": "uint256",
          "name": "_nonce",
          "type": "uint256"
        },
        {
          "internalType": "bytes[2][]",
          "name": "_trxData",
          "type": "bytes[2][]"
        },
        {
          "internalType": "uint8",
          "name": "_aggregatorVersion",
          "type": "uint8"
        }
      ],
      "name": "mintWithOldAggregator",
      "outputs": [],
      "stateMutability": "nonpayable",
      "type": "function"
    },
    {
      "inputs": [
        {
          "internalType": "bytes32",
          "name": "_debridgeId",
          "type": "bytes32"
        },
        {
          "internalType": "address",
          "name": "_receiver",
          "type": "address"
        },
        {
          "internalType": "uint256",
          "name": "_amount",
          "type": "uint256"
        },
        {
          "internalType": "uint256",
          "name": "_nonce",
          "type": "uint256"
        },
        {
          "internalType": "bytes[2][]",
          "name": "_trxData",
          "type": "bytes[2][]"
        }
      ],
      "name": "claim",
      "outputs": [],
      "stateMutability": "nonpayable",
      "type": "function"
    },
    {
      "inputs": [
        {
          "internalType": "bytes32",
          "name": "_debridgeId",
          "type": "bytes32"
        },
        {
          "internalType": "address",
          "name": "_receiver",
          "type": "address"
        },
        {
          "internalType": "uint256",
          "name": "_amount",
          "type": "uint256"
        },
        {
          "internalType": "uint256",
          "name": "_nonce",
          "type": "uint256"
        },
        {
          "internalType": "bytes[2][]",
          "name": "_trxData",
          "type": "bytes[2][]"
        },
        {
          "internalType": "uint8",
          "name": "_aggregatorVersion",
          "type": "uint8"
        }
      ],
      "name": "claimWithOldAggregator",
      "outputs": [],
      "stateMutability": "nonpayable",
      "type": "function"
    }
  ],
  "bytecode": "0x608060405234801561001057600080fd5b50612f73806100206000396000f3fe60806040526004361061021a5760003560e01c80637454f33111610123578063b41eced5116100ab578063e82637f61161006f578063e82637f614610739578063f30de9b014610759578063f8b2cb4f1461076c578063f9120af61461078c578063fe67b0b8146107ac5761021a565b8063b41eced514610686578063be7f2184146106a6578063ce4aa247146106c6578063d311f656146106e6578063d547741f146107195761021a565b8063918f8674116100f2578063918f8674146105ff57806391d148541461061b5780639682b9091461063b5780639a8a05921461065b578063a217fddf146106715761021a565b80637454f3311461053157806383d3f95d14610551578063841b162b146105715780638a2034cc146105d25761021a565b80633bd47721116101a65780635fe582b5116101755780635fe582b51461048157806365ac9f78146104a15780636834e3a8146104d15780636b063d65146104fe5780636b7cbb69146105115761021a565b80633bd477211461037f57806346144c8f1461039f5780635352e983146103bf57806357cf07ca146103df5761021a565b8063106f432f116101ed578063106f432f146102a9578063245a7bfc146102c9578063248a9ca3146103015780632f2ff15d1461033f57806336568abe1461035f5761021a565b806301ffc9a71461021f578063031ac61314610254578063084826e1146102695780630a0e5e9a14610289575b600080fd5b34801561022b57600080fd5b5061023f61023a366004612af6565b6107cc565b60405190151581526020015b60405180910390f35b610267610262366004612916565b610805565b005b34801561027557600080fd5b506102676102843660046129c3565b610aab565b34801561029557600080fd5b506102676102a4366004612a45565b610c07565b3480156102b557600080fd5b506102676102c4366004612743565b610cc7565b3480156102d557600080fd5b506003546102e9906001600160a01b031681565b6040516001600160a01b03909116815260200161024b565b34801561030d57600080fd5b5061033161031c366004612898565b60009081526020819052604090206001015490565b60405190815260200161024b565b34801561034b57600080fd5b5061026761035a3660046128b0565b610d10565b34801561036b57600080fd5b5061026761037a3660046128b0565b610d9f565b34801561038b57600080fd5b5061026761039a366004612ac5565b610e19565b3480156103ab57600080fd5b506004546102e9906001600160a01b031681565b3480156103cb57600080fd5b506102676103da366004612916565b610e62565b3480156103eb57600080fd5b506104426103fa366004612898565b600560208190526000918252604090912080546001820154600283015460038401546004850154958501546006909501546001600160a01b0390941695929491939092919087565b604080516001600160a01b0390981688526020880196909652948601939093526060850191909152608084015260a083015260c082015260e00161024b565b34801561048d57600080fd5b5061026761049c366004612952565b6110fc565b3480156104ad57600080fd5b5061023f6104bc366004612898565b60066020526000908152604090205460ff1681565b3480156104dd57600080fd5b506103316104ec366004612743565b60076020526000908152604090205481565b61026761050c3660046127e6565b6111fa565b34801561051d57600080fd5b5061026761052c366004612bce565b61129c565b34801561053d57600080fd5b5061033161054c366004612a7d565b61135f565b34801561055d57600080fd5b5061026761056c3660046128df565b6113bd565b34801561057d57600080fd5b506105b361058c366004612bb4565b6008602052600090815260409020546001600160a01b03811690600160a01b900460ff1682565b604080516001600160a01b03909316835290151560208301520161024b565b3480156105de57600080fd5b506105f26105ed366004612898565b6114d3565b60405161024b9190612c3f565b34801561060b57600080fd5b50610331670de0b6b3a764000081565b34801561062757600080fd5b5061023f6106363660046128b0565b611538565b34801561064757600080fd5b506103316106563660046128b0565b611561565b34801561066757600080fd5b5061033160025481565b34801561067d57600080fd5b50610331600081565b34801561069257600080fd5b506102676106a1366004612952565b6115af565b3480156106b257600080fd5b506102676106c13660046127e6565b6116a5565b3480156106d257600080fd5b506102676106e136600461275f565b611835565b3480156106f257600080fd5b5060035461070790600160a01b900460ff1681565b60405160ff909116815260200161024b565b34801561072557600080fd5b506102676107343660046128b0565b611883565b34801561074557600080fd5b50610267610754366004612811565b611903565b610267610767366004612b36565b61194b565b34801561077857600080fd5b50610331610787366004612743565b611a19565b34801561079857600080fd5b506102676107a7366004612743565b611aae565b3480156107b857600080fd5b506102676107c73660046129c3565b611b78565b60006001600160e01b03198216637965db0b60e01b14806107fd57506301ffc9a760e01b6001600160e01b03198316145b90505b919050565b60008481526005602052604090206002546001820154146108665760405162461bcd60e51b815260206004820152601660248201527539b2b7321d103737ba103730ba34bb329031b430b4b760511b60448201526064015b60405180910390fd5b600082815260088201602052604090205460ff166108c65760405162461bcd60e51b815260206004820152601860248201527f73656e643a2077726f6e672074617267656420636861696e0000000000000000604482015260640161085d565b80600201548310156109115760405162461bcd60e51b815260206004820152601460248201527373656e643a20616d6f756e7420746f6f206c6f7760601b604482015260640161085d565b80546001600160a01b031661096c573483146109675760405162461bcd60e51b81526020600482015260156024820152740e6cadcc87440c2dadeeadce840dad2e6dac2e8c6d605b1b604482015260640161085d565b610983565b8054610983906001600160a01b0316333086611cc8565b6000670de0b6b3a764000082600301548561099e9190612e4e565b6109a89190612e2e565b905080156109d757808260040160008282546109c49190612e16565b909155506109d490508185612e6d565b93505b838260050160008282546109eb9190612e16565b90915550506001600160a01b03851660009081526007602052604081205490610a178886888a8661135f565b60408051828152602081018b90529081018890526001600160a01b03891660608201526080810184905260a081018790529091507f17c61cb89b62a3f29f5b150e3489c7a796ac4dc95fd73af14faa2c8086a324b49060c00160405180910390a16001600160a01b0387166000908152600760205260408120805491610a9c83612eb0565b91905055505050505050505050565b600087815260056020526040812060010154610acb908990888a8961135f565b60ff8084166000908152600860209081526040918290208251808401909352546001600160a01b0381168352600160a01b90049092161515918101829052919250610b285760405162461bcd60e51b815260040161085d90612da1565b8051604051634a41e6d960e01b81526001600160a01b0390911690634a41e6d990610b5b90859089908990600401612c83565b602060405180830381600087803b158015610b7557600080fd5b505af1158015610b89573d6000803e3d6000fd5b505050506040513d601f19601f82011682018060405250810190610bad919061287c565b610bf05760405162461bcd60e51b815260206004820152601460248201527318db185a5b4e881b9bdd0818dbdb999a5c9b595960621b604482015260640161085d565b610bfc828a8a8a611d33565b505050505050505050565b610c12600033611538565b610c2e5760405162461bcd60e51b815260040161085d90612de9565b600083815260056020908152604080832085845260088101909252909120805460ff19168315801591909117909155610c9357604051839085907fdd4dbf80f57aa5115a1e07abb36e4de565879d4de5bd15b3803d666fe1d8486390600090a3610cc1565b604051839085907f86c512831f7a2aad3f56b4169c161be1028776ab950c72e26237a0310ded560690600090a35b50505050565b610cd2600033611538565b610cee5760405162461bcd60e51b815260040161085d90612de9565b600480546001600160a01b0319166001600160a01b0392909216919091179055565b600082815260208190526040902060010154610d2d905b33610636565b610d915760405162461bcd60e51b815260206004820152602f60248201527f416363657373436f6e74726f6c3a2073656e646572206d75737420626520616e60448201526e0818591b5a5b881d1bc819dc985b9d608a1b606482015260840161085d565b610d9b8282611ee4565b5050565b6001600160a01b0381163314610e0f5760405162461bcd60e51b815260206004820152602f60248201527f416363657373436f6e74726f6c3a2063616e206f6e6c792072656e6f756e636560448201526e103937b632b9903337b91039b2b63360891b606482015260840161085d565b610d9b8282611f68565b610e24600033611538565b610e405760405162461bcd60e51b815260040161085d90612de9565b6000938452600560205260409093206002810192909255600382015560060155565b600084815260056020526040902060025460018201541415610ebb5760405162461bcd60e51b8152602060048201526012602482015271189d5c9b8e881b985d1a5d9948185cdcd95d60721b604482015260640161085d565b8060020154831015610f065760405162461bcd60e51b81526020600482015260146024820152736275726e3a20616d6f756e7420746f6f206c6f7760601b604482015260640161085d565b80546040516323b872dd60e01b8152336004820152306024820152604481018590526001600160a01b039091169081906323b872dd90606401602060405180830381600087803b158015610f5957600080fd5b505af1158015610f6d573d6000803e3d6000fd5b505050506040513d601f19601f82011682018060405250810190610f91919061287c565b506000670de0b6b3a7640000836003015486610fad9190612e4e565b610fb79190612e2e565b90508015610fe65780836004016000828254610fd39190612e16565b90915550610fe390508186612e6d565b94505b604051630852cd8d60e31b8152600481018690526001600160a01b038316906342966c6890602401600060405180830381600087803b15801561102857600080fd5b505af115801561103c573d6000803e3d6000fd5b5050506001600160a01b03871660009081526007602052604081205491506110678987898b8661135f565b60408051828152602081018c90529081018990526001600160a01b038a1660608201526080810184905260a081018890529091507fb8cc5195d548dc2781227c496b92d3736cd56d7f32b28971c9ae1e9eb0badf959060c00160405180910390a16001600160a01b03881660009081526007602052604081208054916110ec83612eb0565b9190505550505050505050505050565b60008681526005602052604081206001015461111c90889087898861135f565b60035460405163578d837760e01b81529192506001600160a01b03169063578d83779061115190849087908790600401612c83565b602060405180830381600087803b15801561116b57600080fd5b505af115801561117f573d6000803e3d6000fd5b505050506040513d601f19601f820116820180604052508101906111a3919061287c565b6111e55760405162461bcd60e51b81526020600482015260136024820152721b5a5b9d0e881b9bdd0818dbdb999a5c9b5959606a1b604482015260640161085d565b6111f181888888611fcd565b50505050505050565b6004546001600160a01b0316331461124f5760405162461bcd60e51b815260206004820152601860248201527764656669436f6e74726f6c6c65723a2062616420726f6c6560401b604482015260640161085d565b600061125d60025484611561565b60008181526005602052604090208054919250906001600160a01b031615610cc1576004548154610cc1916001600160a01b0391821691163086611cc8565b6112a7600033611538565b6112c35760405162461bcd60e51b815260040161085d90612de9565b60035460ff600160a01b9091048116908316106113305760405162461bcd60e51b815260206004820152602560248201527f6d616e6167654f6c6441676772656761746f723a2076657273696f6e20746f6f604482015264040d0d2ced60db1b606482015260840161085d565b60ff90911660009081526008602052604090208054911515600160a01b0260ff60a01b19909216919091179055565b6040805160208101879052908101859052606080820185905283901b6bffffffffffffffffffffffff191660808201526094810182905260009060b40160405160208183030381529060405280519060200120905095945050505050565b6113c8600033611538565b6113e45760405162461bcd60e51b815260040161085d90612de9565b600083815260056020526040902060048101548211156114465760405162461bcd60e51b815260206004820152601b60248201527f77697468647261774665653a206e6f7420656e6f756768206665650000000000604482015260640161085d565b8181600401600082825461145a9190612e6d565b9091555050600254600182015414801561147c575080546001600160a01b0316155b156114bd576040516001600160a01b0384169083156108fc029084906000818181858888f193505050501580156114b7573d6000803e3d6000fd5b50610cc1565b8054610cc1906001600160a01b0316848461214e565b60008181526005602090815260409182902060070180548351818402810184019094528084526060939283018282801561152c57602002820191906000526020600020905b815481526020019060010190808311611518575b50505050509050919050565b6000918252602082815260408084206001600160a01b0393909316845291905290205460ff1690565b6000828260405160200161159192919091825260601b6bffffffffffffffffffffffff1916602082015260340190565b60405160208183030381529060405280519060200120905092915050565b6000868152600560205260408120600101546115cf90889087898861135f565b600354604051634a41e6d960e01b81529192506001600160a01b031690634a41e6d99061160490849087908790600401612c83565b602060405180830381600087803b15801561161e57600080fd5b505af1158015611632573d6000803e3d6000fd5b505050506040513d601f19601f82011682018060405250810190611656919061287c565b6116995760405162461bcd60e51b815260206004820152601460248201527318db185a5b4e881b9bdd0818dbdb999a5c9b595960621b604482015260640161085d565b6111f181888888611d33565b6004546001600160a01b031633146116fa5760405162461bcd60e51b815260206004820152601860248201527764656669436f6e74726f6c6c65723a2062616420726f6c6560401b604482015260640161085d565b600061170860025484611561565b6000818152600560208190526040822060068101549181015493945092670de0b6b3a76400009161173891612e4e565b6117429190612e2e565b825490915060009061175c906001600160a01b0316611a19565b9050806117698684612e16565b116117c25760405162461bcd60e51b8152602060048201526024808201527f7265717565737452657365727665733a206e6f7420656e6f75676820726573656044820152637276657360e01b606482015260840161085d565b82546001600160a01b0316611811576004546040516001600160a01b039091169086156108fc029087906000818181858888f1935050505015801561180b573d6000803e3d6000fd5b5061182d565b600454835461182d916001600160a01b0391821691168761214e565b505050505050565b611840600033611538565b61185c5760405162461bcd60e51b815260040161085d90612de9565b60006118688689611561565b905061187981888888888888612183565b5050505050505050565b60008281526020819052604090206001015461189e90610d27565b610e0f5760405162461bcd60e51b815260206004820152603060248201527f416363657373436f6e74726f6c3a2073656e646572206d75737420626520616e60448201526f2061646d696e20746f207265766f6b6560801b606482015260840161085d565b61190e600033611538565b61192a5760405162461bcd60e51b815260040161085d90612de9565b600061193860025487611561565b905061182d818760025488888888612183565b600154610100900460ff1680611964575060015460ff16155b6119c75760405162461bcd60e51b815260206004820152602e60248201527f496e697469616c697a61626c653a20636f6e747261637420697320616c72656160448201526d191e481a5b9a5d1a585b1a5e995960921b606482015260840161085d565b600154610100900460ff161580156119f1576001805460ff1961ff00199091166101001716811790555b6119ff8787878787876122cd565b80156111f1576001805461ff001916905550505050505050565b60006001600160a01b038216611a30575047610800565b6040516370a0823160e01b81523060048201526001600160a01b038316906370a082319060240160206040518083038186803b158015611a6f57600080fd5b505afa158015611a83573d6000803e3d6000fd5b505050506040513d601f19601f82011682018060405250810190611aa79190612b1e565b9050610800565b611ab9600033611538565b611ad55760405162461bcd60e51b815260040161085d90612de9565b604080518082018252600380546001600160a01b0380821684526001602080860191825260ff600160a01b948590048116600090815260089092529690209451855491511515840260ff60a01b199184166001600160a01b0319938416179190911617909455825490861693169290921780825591909104909116906014611b5c83612ecb565b91906101000a81548160ff021916908360ff1602179055505050565b600087815260056020526040812060010154611b98908990888a8961135f565b60ff8084166000908152600860209081526040918290208251808401909352546001600160a01b0381168352600160a01b90049092161515918101829052919250611bf55760405162461bcd60e51b815260040161085d90612da1565b805160405163578d837760e01b81526001600160a01b039091169063578d837790611c2890859089908990600401612c83565b602060405180830381600087803b158015611c4257600080fd5b505af1158015611c56573d6000803e3d6000fd5b505050506040513d601f19601f82011682018060405250810190611c7a919061287c565b611cbc5760405162461bcd60e51b81526020600482015260136024820152721b5a5b9d0e881b9bdd0818dbdb999a5c9b5959606a1b604482015260640161085d565b610bfc828a8a8a611fcd565b6040516001600160a01b0380851660248301528316604482015260648101829052610cc19085906323b872dd60e01b906084015b60408051601f198184030181529190526020810180516001600160e01b03166001600160e01b031990931692909217909152612324565b6000838152600560205260409020600254600182015414611d965760405162461bcd60e51b815260206004820152601960248201527f636c61696d3a2077726f6e672074617267657420636861696e00000000000000604482015260640161085d565b60008581526006602052604090205460ff1615611deb5760405162461bcd60e51b815260206004820152601360248201527218db185a5b4e88185b1c9958591e481d5cd959606a1b604482015260640161085d565b6000858152600660205260408120805460ff19166001179055600582018054849290611e18908490612e6d565b90915550611e28905081836123f6565b80546001600160a01b0316611e73576040516001600160a01b0384169083156108fc029084906000818181858888f19350505050158015611e6d573d6000803e3d6000fd5b50611e89565b8054611e89906001600160a01b0316848461214e565b60408051868152602081018490526001600160a01b03851691810191909152606081018590527fabe3bed2a8590dd123c1a018888bce6142d526741bed65dfe570fb223525c6a4906080015b60405180910390a15050505050565b611eee8282611538565b610d9b576000828152602081815260408083206001600160a01b03851684529091529020805460ff19166001179055611f243390565b6001600160a01b0316816001600160a01b0316837f2f8788117e7eff1d82e926ec794901d17c78024a50270940304540a733656f0d60405160405180910390a45050565b611f728282611538565b15610d9b576000828152602081815260408083206001600160a01b0385168085529252808320805460ff1916905551339285917ff6391f5c32d9c69d2a47ea670b442974b53935d1edc7fd64eb21e047a839171b9190a45050565b60008481526006602052604090205460ff16156120215760405162461bcd60e51b81526020600482015260126024820152711b5a5b9d0e88185b1c9958591e481d5cd95960721b604482015260640161085d565b60008381526005602090815260408083208784526006909252909120805460ff191660019081179091556002549082015414156120985760405162461bcd60e51b815260206004820152601560248201527436b4b73a1d1034b9903730ba34bb329031b430b4b760591b604482015260640161085d565b80546040516340c10f1960e01b81526001600160a01b03858116600483015260248201859052909116906340c10f1990604401600060405180830381600087803b1580156120e557600080fd5b505af11580156120f9573d6000803e3d6000fd5b505060408051888152602081018690526001600160a01b03871691810191909152606081018790527f5918a95fd00afb5898499bd5beade1619e98655d2b4ff6e0f6a4347f0a69c12792506080019050611ed5565b6040516001600160a01b03831660248201526044810182905261217e90849063a9059cbb60e01b90606401611cfc565b505050565b600087815260056020526040812080546001600160a01b0319166001600160a01b0389161781556001810187905560028101869055600381018590556006810184905590805b8351811015612271578381815181106121f257634e487b7160e01b600052603260045260246000fd5b60209081029190910181015160008181526008860183526040808220805460ff1916600190811790915560078801805491820181558352938220909301829055915190935083918c917fdd4dbf80f57aa5115a1e07abb36e4de565879d4de5bd15b3803d666fe1d848639190a38061226981612eb0565b9150506121c9565b50604080518781526020810187905290810185905287906001600160a01b038a16908b907ff6f4e2b9c6425dc5e0ebbec27bfdc06bece97c248400c189c656fe08259cd4659060600160405180910390a4505050505050505050565b46600281905560006122df8282611561565b90506122f38160006002548b8b8b8a612183565b600380546001600160a01b0319166001600160a01b0387811691909117909155600454169250611879600033610d91565b6000612379826040518060400160405280602081526020017f5361666545524332303a206c6f772d6c6576656c2063616c6c206661696c6564815250856001600160a01b03166124d29092919063ffffffff16565b80519091501561217e5780806020019051810190612397919061287c565b61217e5760405162461bcd60e51b815260206004820152602a60248201527f5361666545524332303a204552433230206f7065726174696f6e20646964206e6044820152691bdd081cdd58d8d9595960b21b606482015260840161085d565b6000670de0b6b3a7640000836006015484600501546124159190612e4e565b61241f9190612e2e565b8354909150600090612439906001600160a01b0316611a19565b9050600083831161244a578361244c565b825b9050818111156124cb576124608282612e6d565b6004805487546040516309e62b9160e01b81526001600160a01b03918216938101939093526024830184905292935091909116906309e62b9190604401600060405180830381600087803b1580156124b757600080fd5b505af1158015610bfc573d6000803e3d6000fd5b5050505050565b60606124e184846000856124eb565b90505b9392505050565b60608247101561254c5760405162461bcd60e51b815260206004820152602660248201527f416464726573733a20696e73756666696369656e742062616c616e636520666f6044820152651c8818d85b1b60d21b606482015260840161085d565b843b61259a5760405162461bcd60e51b815260206004820152601d60248201527f416464726573733a2063616c6c20746f206e6f6e2d636f6e7472616374000000604482015260640161085d565b600080866001600160a01b031685876040516125b69190612c23565b60006040518083038185875af1925050503d80600081146125f3576040519150601f19603f3d011682016040523d82523d6000602084013e6125f8565b606091505b5091509150612608828286612613565b979650505050505050565b606083156126225750816124e4565b8251156126325782518084602001fd5b8160405162461bcd60e51b815260040161085d9190612d6e565b60008083601f84011261265d578081fd5b50813567ffffffffffffffff811115612674578182fd5b602083019150836020808302850101111561268e57600080fd5b9250929050565b600082601f8301126126a5578081fd5b8135602067ffffffffffffffff808311156126c2576126c2612f01565b818302604051601f19603f830116810181811084821117156126e6576126e6612f01565b60405284815283810192508684018288018501891015612704578687fd5b8692505b85831015612726578035845292840192600192909201918401612708565b50979650505050505050565b803560ff8116811461080057600080fd5b600060208284031215612754578081fd5b81356124e481612f17565b600080600080600080600060e0888a031215612779578283fd5b873561278481612f17565b9650602088013561279481612f17565b955060408801359450606088013593506080880135925060a0880135915060c088013567ffffffffffffffff8111156127cb578182fd5b6127d78a828b01612695565b91505092959891949750929550565b600080604083850312156127f8578182fd5b823561280381612f17565b946020939093013593505050565b600080600080600060a08688031215612828578081fd5b853561283381612f17565b9450602086013593506040860135925060608601359150608086013567ffffffffffffffff811115612863578182fd5b61286f88828901612695565b9150509295509295909350565b60006020828403121561288d578081fd5b81516124e481612f2f565b6000602082840312156128a9578081fd5b5035919050565b600080604083850312156128c2578182fd5b8235915060208301356128d481612f17565b809150509250929050565b6000806000606084860312156128f3578283fd5b83359250602084013561290581612f17565b929592945050506040919091013590565b6000806000806080858703121561292b578384fd5b84359350602085013561293d81612f17565b93969395505050506040820135916060013590565b60008060008060008060a0878903121561296a578182fd5b86359550602087013561297c81612f17565b94506040870135935060608701359250608087013567ffffffffffffffff8111156129a5578283fd5b6129b189828a0161264c565b979a9699509497509295939492505050565b600080600080600080600060c0888a0312156129dd578081fd5b8735965060208801356129ef81612f17565b95506040880135945060608801359350608088013567ffffffffffffffff811115612a18578182fd5b612a248a828b0161264c565b9094509250612a37905060a08901612732565b905092959891949750929550565b600080600060608486031215612a59578081fd5b83359250602084013591506040840135612a7281612f2f565b809150509250925092565b600080600080600060a08688031215612a94578283fd5b8535945060208601359350604086013592506060860135612ab481612f17565b949793965091946080013592915050565b60008060008060808587031215612ada578182fd5b5050823594602084013594506040840135936060013592509050565b600060208284031215612b07578081fd5b81356001600160e01b0319811681146124e4578182fd5b600060208284031215612b2f578081fd5b5051919050565b60008060008060008060c08789031215612b4e578384fd5b8635955060208701359450604087013593506060870135612b6e81612f17565b9250608087013567ffffffffffffffff811115612b89578283fd5b612b9589828a01612695565b92505060a0870135612ba681612f17565b809150509295509295509295565b600060208284031215612bc5578081fd5b6124e482612732565b60008060408385031215612be0578182fd5b612be983612732565b915060208301356128d481612f2f565b60008284528282602086013780602084860101526020601f19601f85011685010190509392505050565b60008251612c35818460208701612e84565b9190910192915050565b6020808252825182820181905260009190848201906040850190845b81811015612c7757835183529284019291840191600101612c5b565b50909695505050505050565b6000604080830186845260208281860152818683526060860190506060828802870101925087855b88811015612d5f57878503605f190183528135368b9003603e19018112612cd0578788fd5b8a0185878101828a36829003601e19015b6002821015612d47578a840385528235818112612cfc578d8efd5b8601803567ffffffffffffffff811115612d14578e8ffd5b803603881315612d22578e8ffd5b612d2f86828e8501612bf9565b968c0196955050509189019160019190910190612ce1565b50919850505093850193505090830190600101612cab565b50929998505050505050505050565b6000602082528251806020840152612d8d816040850160208701612e84565b601f01601f19169190910160400192915050565b60208082526028908201527f6d696e74576974684f6c6441676772656761746f723a20696e76616c6964416760408201526733b932b3b0ba37b960c11b606082015260800190565b6020808252601390820152726f6e6c7941646d696e3a2062616420726f6c6560681b604082015260600190565b60008219821115612e2957612e29612eeb565b500190565b600082612e4957634e487b7160e01b81526012600452602481fd5b500490565b6000816000190483118215151615612e6857612e68612eeb565b500290565b600082821015612e7f57612e7f612eeb565b500390565b60005b83811015612e9f578181015183820152602001612e87565b83811115610cc15750506000910152565b6000600019821415612ec457612ec4612eeb565b5060010190565b600060ff821660ff811415612ee257612ee2612eeb565b60010192915050565b634e487b7160e01b600052601160045260246000fd5b634e487b7160e01b600052604160045260246000fd5b6001600160a01b0381168114612f2c57600080fd5b50565b8015158114612f2c57600080fdfea26469706673582212208527ceda5f1baf0398149ee7e1ba98b1a50f8541ea2186ee311162b46b8da5b064736f6c63430008020033",
  "immutableReferences": {},
  "source": "// SPDX-License-Identifier: MIT\npragma solidity ^0.8.2;\n\nimport \"@openzeppelin/contracts/token/ERC20/IERC20.sol\";\nimport \"@openzeppelin/contracts/token/ERC20/utils/SafeERC20.sol\";\nimport \"../interfaces/IWhiteLightAggregator.sol\";\nimport \"../interfaces/IWhiteLightDebridge.sol\";\nimport \"./WhiteDebridge.sol\";\n\ncontract WhiteLightDebridge is WhiteDebridge, IWhiteLightDebridge {\n    using SafeERC20 for IERC20;\n\n    /// @dev Constructor that initializes the most important configurations.\n    /// @param _minAmount Minimal amount of current chain token to be wrapped.\n    /// @param _transferFee Transfer fee rate.\n    /// @param _minReserves Minimal reserve ratio.\n    /// @param _aggregator Submission aggregator address.\n    /// @param _supportedChainIds Chain ids where native token of the current chain can be wrapped.\n    function initialize(\n        uint256 _minAmount,\n        uint256 _transferFee,\n        uint256 _minReserves,\n        address _aggregator,\n        uint256[] memory _supportedChainIds,\n        IDefiController _defiController\n    ) public payable initializer {\n        super._initialize(\n            _minAmount,\n            _transferFee,\n            _minReserves,\n            _aggregator,\n            _supportedChainIds,\n            _defiController\n        );\n    }\n\n    /// @dev Mints wrapped asset on the current chain.\n    /// @param _debridgeId Asset identifier.\n    /// @param _receiver Receiver address.\n    /// @param _amount Amount of the transfered asset (note: without applyed fee).\n    /// @param _nonce Submission id.\n    /// @param _trxData Array of transactions by oracles of 2 elements - payload up to the receiver address and the signature bytes.\n    function mint(\n        bytes32 _debridgeId,\n        address _receiver,\n        uint256 _amount,\n        uint256 _nonce,\n        bytes[2][] calldata _trxData\n    ) external override {\n        bytes32 mintId =\n            getSubmisionId(\n                _debridgeId,\n                getDebridge[_debridgeId].chainId,\n                _amount,\n                _receiver,\n                _nonce\n            );\n        require(\n            IWhiteLightAggregator(aggregator).submitMint(mintId, _trxData),\n            \"mint: not confirmed\"\n        );\n        _mint(mintId, _debridgeId, _receiver, _amount);\n    }\n\n    /// @dev Mints wrapped asset on the current chain.\n    /// @param _debridgeId Asset identifier.\n    /// @param _receiver Receiver address.\n    /// @param _amount Amount of the transfered asset (note: without applyed fee).\n    /// @param _nonce Submission id.\n    /// @param _trxData Array of transactions by oracles of 2 elements - payload up to the receiver address and the signature bytes.\n    /// @param _aggregatorVersion Aggregator version.\n    function mintWithOldAggregator(\n        bytes32 _debridgeId,\n        address _receiver,\n        uint256 _amount,\n        uint256 _nonce,\n        bytes[2][] calldata _trxData,\n        uint8 _aggregatorVersion\n    ) external override {\n        bytes32 mintId =\n            getSubmisionId(\n                _debridgeId,\n                getDebridge[_debridgeId].chainId,\n                _amount,\n                _receiver,\n                _nonce\n            );\n        AggregatorInfo memory aggregatorInfo =\n            getOldAggregator[_aggregatorVersion];\n        require(\n            aggregatorInfo.isValid,\n            \"mintWithOldAggregator: invalidAggregator\"\n        );\n        require(\n            IWhiteLightAggregator(aggregatorInfo.aggregator).submitMint(\n                mintId,\n                _trxData\n            ),\n            \"mint: not confirmed\"\n        );\n        _mint(mintId, _debridgeId, _receiver, _amount);\n    }\n\n    /// @dev Unlock the asset on the current chain and transfer to receiver.\n    /// @param _debridgeId Asset identifier.\n    /// @param _receiver Receiver address.\n    /// @param _amount Amount of the transfered asset (note: the fee can be applyed).\n    /// @param _nonce Submission id.\n    /// @param _trxData Array of transactions by oracles of 2 elements - payload up to the receiver address and the signature bytes.\n    function claim(\n        bytes32 _debridgeId,\n        address _receiver,\n        uint256 _amount,\n        uint256 _nonce,\n        bytes[2][] calldata _trxData\n    ) external override {\n        bytes32 burntId =\n            getSubmisionId(\n                _debridgeId,\n                getDebridge[_debridgeId].chainId,\n                _amount,\n                _receiver,\n                _nonce\n            );\n        require(\n            IWhiteLightAggregator(aggregator).submitBurn(burntId, _trxData),\n            \"claim: not confirmed\"\n        );\n        _claim(burntId, _debridgeId, _receiver, _amount);\n    }\n\n    /// @dev Unlock the asset on the current chain and transfer to receiver.\n    /// @param _debridgeId Asset identifier.\n    /// @param _receiver Receiver address.\n    /// @param _amount Amount of the transfered asset (note: the fee can be applyed).\n    /// @param _nonce Submission id.\n    /// @param _trxData Array of transactions by oracles of 2 elements - payload up to the receiver address and the signature bytes.\n    /// @param _aggregatorVersion Aggregator version.\n    function claimWithOldAggregator(\n        bytes32 _debridgeId,\n        address _receiver,\n        uint256 _amount,\n        uint256 _nonce,\n        bytes[2][] calldata _trxData,\n        uint8 _aggregatorVersion\n    ) external override {\n        bytes32 burntId =\n            getSubmisionId(\n                _debridgeId,\n                getDebridge[_debridgeId].chainId,\n                _amount,\n                _receiver,\n                _nonce\n            );\n        AggregatorInfo memory aggregatorInfo =\n            getOldAggregator[_aggregatorVersion];\n        require(\n            aggregatorInfo.isValid,\n            \"mintWithOldAggregator: invalidAggregator\"\n        );\n        require(\n            IWhiteLightAggregator(aggregatorInfo.aggregator).submitBurn(\n                burntId,\n                _trxData\n            ),\n            \"claim: not confirmed\"\n        );\n        _claim(burntId, _debridgeId, _receiver, _amount);\n    }\n}\n",
  "sourcePath": "/Users/kstasi/Documents/side/debridge-contracts/contracts/transfers/WhiteLightDebridge.sol",
  "compiler": {
    "name": "solc",
    "version": "0.8.2+commit.661d1103.Emscripten.clang"
  },
  "schemaVersion": "3.3.4",
  "updatedAt": "2021-04-21T18:17:22.401Z",
  "networkType": "ethereum",
  "devdoc": {
    "kind": "dev",
    "methods": {
      "addExternalAsset(address,address,uint256,uint256,uint256,uint256,uint256[])": {
        "details": "Add support for the asset from the other chain, deploy new wrapped asset.",
        "params": {
          "_chainId": "Current chain id.",
          "_minAmount": "Minimal amount of the asset to be wrapped.",
          "_minReserves": "Minimal reserve ration.",
          "_supportedChainIds": "Chain ids where the token of the current chain can be transfered.",
          "_tokenAddress": "Address of the asset on the other chain.",
          "_transferFee": "Transfer fee rate.",
          "_wrappedAssetAddress": "Wrapped asset address."
        }
      },
      "addNativeAsset(address,uint256,uint256,uint256,uint256[])": {
        "details": "Add support for the asset on the current chain.",
        "params": {
          "_minAmount": "Minimal amount of current chain token to be wrapped.",
          "_minReserves": "Minimal reserve ration.",
          "_supportedChainIds": "Chain ids where native token of the current chain can be wrapped.",
          "_tokenAddress": "Address of the asset on the current chain.",
          "_transferFee": "Transfer fee rate."
        }
      },
      "burn(bytes32,address,uint256,uint256)": {
        "details": "Burns wrapped asset and allowss to claim it on the other chain.",
        "params": {
          "_amount": "Amount of the transfered asset (note: the fee can be applyed).",
          "_chainIdTo": "Chain id of the target chain.",
          "_debridgeId": "Asset identifier.",
          "_receiver": "Receiver address."
        }
      },
      "claim(bytes32,address,uint256,uint256,bytes[2][])": {
        "details": "Unlock the asset on the current chain and transfer to receiver.",
        "params": {
          "_amount": "Amount of the transfered asset (note: the fee can be applyed).",
          "_debridgeId": "Asset identifier.",
          "_nonce": "Submission id.",
          "_receiver": "Receiver address.",
          "_trxData": "Array of transactions by oracles of 2 elements - payload up to the receiver address and the signature bytes."
        }
      },
      "claimWithOldAggregator(bytes32,address,uint256,uint256,bytes[2][],uint8)": {
        "details": "Unlock the asset on the current chain and transfer to receiver.",
        "params": {
          "_aggregatorVersion": "Aggregator version.",
          "_amount": "Amount of the transfered asset (note: the fee can be applyed).",
          "_debridgeId": "Asset identifier.",
          "_nonce": "Submission id.",
          "_receiver": "Receiver address.",
          "_trxData": "Array of transactions by oracles of 2 elements - payload up to the receiver address and the signature bytes."
        }
      },
      "getBalance(address)": {
        "details": "Check the balance.",
        "params": {
          "_tokenAddress": "Address of the asset on the other chain."
        }
      },
      "getDebridgeId(uint256,address)": {
        "details": "Calculates asset identifier.",
        "params": {
          "_chainId": "Current chain id.",
          "_tokenAddress": "Address of the asset on the other chain."
        }
      },
      "getRoleAdmin(bytes32)": {
        "details": "Returns the admin role that controls `role`. See {grantRole} and {revokeRole}. To change a role's admin, use {_setRoleAdmin}."
      },
      "getSubmisionId(bytes32,uint256,uint256,address,uint256)": {
        "details": "Calculate submission id.",
        "params": {
          "_amount": "Amount of the transfered asset (note: the fee can be applyed).",
          "_debridgeId": "Asset identifier.",
          "_nonce": "Submission id.",
          "_receiver": "Receiver address."
        }
      },
      "getSupportedChainIds(bytes32)": {
        "details": "Get all supported chain ids.",
        "params": {
          "_debridgeId": "Asset identifier."
        }
      },
      "grantRole(bytes32,address)": {
        "details": "Grants `role` to `account`. If `account` had not been already granted `role`, emits a {RoleGranted} event. Requirements: - the caller must have ``role``'s admin role."
      },
      "hasRole(bytes32,address)": {
        "details": "Returns `true` if `account` has been granted `role`."
      },
      "initialize(uint256,uint256,uint256,address,uint256[],address)": {
        "details": "Constructor that initializes the most important configurations.",
        "params": {
          "_aggregator": "Submission aggregator address.",
          "_minAmount": "Minimal amount of current chain token to be wrapped.",
          "_minReserves": "Minimal reserve ratio.",
          "_supportedChainIds": "Chain ids where native token of the current chain can be wrapped.",
          "_transferFee": "Transfer fee rate."
        }
      },
      "manageOldAggregator(uint8,bool)": {
        "details": "Set aggregator address.",
        "params": {
          "_aggregatorVersion": "Submission aggregator address.",
          "_isValid": "Is valid."
        }
      },
      "mint(bytes32,address,uint256,uint256,bytes[2][])": {
        "details": "Mints wrapped asset on the current chain.",
        "params": {
          "_amount": "Amount of the transfered asset (note: without applyed fee).",
          "_debridgeId": "Asset identifier.",
          "_nonce": "Submission id.",
          "_receiver": "Receiver address.",
          "_trxData": "Array of transactions by oracles of 2 elements - payload up to the receiver address and the signature bytes."
        }
      },
      "mintWithOldAggregator(bytes32,address,uint256,uint256,bytes[2][],uint8)": {
        "details": "Mints wrapped asset on the current chain.",
        "params": {
          "_aggregatorVersion": "Aggregator version.",
          "_amount": "Amount of the transfered asset (note: without applyed fee).",
          "_debridgeId": "Asset identifier.",
          "_nonce": "Submission id.",
          "_receiver": "Receiver address.",
          "_trxData": "Array of transactions by oracles of 2 elements - payload up to the receiver address and the signature bytes."
        }
      },
      "renounceRole(bytes32,address)": {
        "details": "Revokes `role` from the calling account. Roles are often managed via {grantRole} and {revokeRole}: this function's purpose is to provide a mechanism for accounts to lose their privileges if they are compromised (such as when a trusted device is misplaced). If the calling account had been granted `role`, emits a {RoleRevoked} event. Requirements: - the caller must be `account`."
      },
      "requestReserves(address,uint256)": {
        "details": "Request the assets to be used in defi protocol.",
        "params": {
          "_amount": "Amount of tokens to request.",
          "_tokenAddress": "Asset address."
        }
      },
      "returnReserves(address,uint256)": {
        "details": "Return the assets that were used in defi protocol.",
        "params": {
          "_amount": "Amount of tokens to claim.",
          "_tokenAddress": "Asset address."
        }
      },
      "revokeRole(bytes32,address)": {
        "details": "Revokes `role` from `account`. If `account` had been granted `role`, emits a {RoleRevoked} event. Requirements: - the caller must have ``role``'s admin role."
      },
      "send(bytes32,address,uint256,uint256)": {
        "details": "Locks asset on the chain and enables minting on the other chain.",
        "params": {
          "_amount": "Amount to be transfered (note: the fee can be applyed).",
          "_chainIdTo": "Chain id of the target chain.",
          "_debridgeId": "Asset identifier.",
          "_receiver": "Receiver address."
        }
      },
      "setAggregator(address)": {
        "details": "Set aggregator address.",
        "params": {
          "_aggregator": "Submission aggregator address."
        }
      },
      "setChainIdSupport(bytes32,uint256,bool)": {
        "details": "Set support for the chains where the token can be transfered.",
        "params": {
          "_chainId": "Current chain id.",
          "_debridgeId": "Asset identifier.",
          "_isSupported": "Whether the token is transferable to the other chain."
        }
      },
      "setDefiController(address)": {
        "details": "Set defi controoler.",
        "params": {
          "_defiController": "Defi controller address address."
        }
      },
      "supportsInterface(bytes4)": {
        "details": "See {IERC165-supportsInterface}."
      },
      "updateAsset(bytes32,uint256,uint256,uint256)": {
        "details": "Add support for the asset.",
        "params": {
          "_debridgeId": "Asset identifier.",
          "_minAmount": "Minimal amount of the asset to be wrapped.",
          "_minReserves": "Minimal reserve ration.",
          "_transferFee": "Transfer fee rate."
        }
      },
      "withdrawFee(bytes32,address,uint256)": {
        "details": "Withdraw fees.",
        "params": {
          "_amount": "Amount of tokens to withdraw.",
          "_debridgeId": "Asset identifier.",
          "_receiver": "Receiver address."
        }
      }
    },
    "version": 1
  },
  "userdoc": {
    "kind": "user",
    "methods": {},
    "version": 1
  }
}