{
  "contractName": "WhiteLightDebridge",
  "abi": [
    {
      "inputs": [
        {
          "internalType": "uint256",
          "name": "_minAmount",
          "type": "uint256"
        },
        {
          "internalType": "uint256",
          "name": "_transferFee",
          "type": "uint256"
        },
        {
          "internalType": "uint256",
          "name": "_minReserves",
          "type": "uint256"
        },
        {
          "internalType": "address",
          "name": "_aggregator",
          "type": "address"
        },
        {
          "internalType": "uint256[]",
          "name": "_supportedChainIds",
          "type": "uint256[]"
        },
        {
          "internalType": "contract IWETH",
          "name": "_weth",
          "type": "address"
        },
        {
          "internalType": "contract IFeeProxy",
          "name": "_feeProxy",
          "type": "address"
        },
        {
          "internalType": "contract IDefiController",
          "name": "_defiController",
          "type": "address"
        }
      ],
      "stateMutability": "nonpayable",
      "type": "constructor"
    },
    {
      "anonymous": false,
      "inputs": [
        {
          "indexed": false,
          "internalType": "bytes32",
          "name": "submissionId",
          "type": "bytes32"
        },
        {
          "indexed": false,
          "internalType": "bytes32",
          "name": "debridgeId",
          "type": "bytes32"
        },
        {
          "indexed": false,
          "internalType": "uint256",
          "name": "amount",
          "type": "uint256"
        },
        {
          "indexed": false,
          "internalType": "address",
          "name": "receiver",
          "type": "address"
        },
        {
          "indexed": false,
          "internalType": "uint256",
          "name": "nonce",
          "type": "uint256"
        },
        {
          "indexed": false,
          "internalType": "uint256",
          "name": "chainIdTo",
          "type": "uint256"
        }
      ],
      "name": "Burnt",
      "type": "event"
    },
    {
      "anonymous": false,
      "inputs": [
        {
          "indexed": true,
          "internalType": "bytes32",
          "name": "debridgeId",
          "type": "bytes32"
        },
        {
          "indexed": true,
          "internalType": "uint256",
          "name": "chainId",
          "type": "uint256"
        }
      ],
      "name": "ChainSupportAdded",
      "type": "event"
    },
    {
      "anonymous": false,
      "inputs": [
        {
          "indexed": true,
          "internalType": "bytes32",
          "name": "debridgeId",
          "type": "bytes32"
        },
        {
          "indexed": true,
          "internalType": "uint256",
          "name": "chainId",
          "type": "uint256"
        }
      ],
      "name": "ChainSupportRemoved",
      "type": "event"
    },
    {
      "anonymous": false,
      "inputs": [
        {
          "indexed": false,
          "internalType": "bytes32",
          "name": "submissionId",
          "type": "bytes32"
        },
        {
          "indexed": false,
          "internalType": "uint256",
          "name": "amount",
          "type": "uint256"
        },
        {
          "indexed": false,
          "internalType": "address",
          "name": "receiver",
          "type": "address"
        },
        {
          "indexed": false,
          "internalType": "bytes32",
          "name": "debridgeId",
          "type": "bytes32"
        }
      ],
      "name": "Claimed",
      "type": "event"
    },
    {
      "anonymous": false,
      "inputs": [
        {
          "indexed": false,
          "internalType": "bytes32",
          "name": "submissionId",
          "type": "bytes32"
        },
        {
          "indexed": false,
          "internalType": "uint256",
          "name": "amount",
          "type": "uint256"
        },
        {
          "indexed": false,
          "internalType": "address",
          "name": "receiver",
          "type": "address"
        },
        {
          "indexed": false,
          "internalType": "bytes32",
          "name": "debridgeId",
          "type": "bytes32"
        }
      ],
      "name": "Minted",
      "type": "event"
    },
    {
      "anonymous": false,
      "inputs": [
        {
          "indexed": true,
          "internalType": "bytes32",
          "name": "debridgeId",
          "type": "bytes32"
        },
        {
          "indexed": true,
          "internalType": "address",
          "name": "tokenAddress",
          "type": "address"
        },
        {
          "indexed": true,
          "internalType": "uint256",
          "name": "chainId",
          "type": "uint256"
        },
        {
          "indexed": false,
          "internalType": "uint256",
          "name": "minAmount",
          "type": "uint256"
        },
        {
          "indexed": false,
          "internalType": "uint256",
          "name": "transferFee",
          "type": "uint256"
        },
        {
          "indexed": false,
          "internalType": "uint256",
          "name": "minReserves",
          "type": "uint256"
        }
      ],
      "name": "PairAdded",
      "type": "event"
    },
    {
      "anonymous": false,
      "inputs": [
        {
          "indexed": true,
          "internalType": "bytes32",
          "name": "role",
          "type": "bytes32"
        },
        {
          "indexed": true,
          "internalType": "bytes32",
          "name": "previousAdminRole",
          "type": "bytes32"
        },
        {
          "indexed": true,
          "internalType": "bytes32",
          "name": "newAdminRole",
          "type": "bytes32"
        }
      ],
      "name": "RoleAdminChanged",
      "type": "event"
    },
    {
      "anonymous": false,
      "inputs": [
        {
          "indexed": true,
          "internalType": "bytes32",
          "name": "role",
          "type": "bytes32"
        },
        {
          "indexed": true,
          "internalType": "address",
          "name": "account",
          "type": "address"
        },
        {
          "indexed": true,
          "internalType": "address",
          "name": "sender",
          "type": "address"
        }
      ],
      "name": "RoleGranted",
      "type": "event"
    },
    {
      "anonymous": false,
      "inputs": [
        {
          "indexed": true,
          "internalType": "bytes32",
          "name": "role",
          "type": "bytes32"
        },
        {
          "indexed": true,
          "internalType": "address",
          "name": "account",
          "type": "address"
        },
        {
          "indexed": true,
          "internalType": "address",
          "name": "sender",
          "type": "address"
        }
      ],
      "name": "RoleRevoked",
      "type": "event"
    },
    {
      "anonymous": false,
      "inputs": [
        {
          "indexed": false,
          "internalType": "bytes32",
          "name": "submissionId",
          "type": "bytes32"
        },
        {
          "indexed": false,
          "internalType": "bytes32",
          "name": "debridgeId",
          "type": "bytes32"
        },
        {
          "indexed": false,
          "internalType": "uint256",
          "name": "amount",
          "type": "uint256"
        },
        {
          "indexed": false,
          "internalType": "address",
          "name": "receiver",
          "type": "address"
        },
        {
          "indexed": false,
          "internalType": "uint256",
          "name": "nonce",
          "type": "uint256"
        },
        {
          "indexed": false,
          "internalType": "uint256",
          "name": "chainIdTo",
          "type": "uint256"
        }
      ],
      "name": "Sent",
      "type": "event"
    },
    {
      "inputs": [],
      "name": "DEFAULT_ADMIN_ROLE",
      "outputs": [
        {
          "internalType": "bytes32",
          "name": "",
          "type": "bytes32"
        }
      ],
      "stateMutability": "view",
      "type": "function"
    },
    {
      "inputs": [],
      "name": "DENOMINATOR",
      "outputs": [
        {
          "internalType": "uint256",
          "name": "",
          "type": "uint256"
        }
      ],
      "stateMutability": "view",
      "type": "function"
    },
    {
      "inputs": [
        {
          "internalType": "address",
          "name": "_tokenAddress",
          "type": "address"
        },
        {
          "internalType": "uint256",
          "name": "_chainId",
          "type": "uint256"
        },
        {
          "internalType": "uint256",
          "name": "_minAmount",
          "type": "uint256"
        },
        {
          "internalType": "uint256",
          "name": "_transferFee",
          "type": "uint256"
        },
        {
          "internalType": "uint256",
          "name": "_minReserves",
          "type": "uint256"
        },
        {
          "internalType": "uint256[]",
          "name": "_supportedChainIds",
          "type": "uint256[]"
        },
        {
          "internalType": "string",
          "name": "_name",
          "type": "string"
        },
        {
          "internalType": "string",
          "name": "_symbol",
          "type": "string"
        }
      ],
      "name": "addExternalAsset",
      "outputs": [],
      "stateMutability": "nonpayable",
      "type": "function"
    },
    {
      "inputs": [
        {
          "internalType": "address",
          "name": "_tokenAddress",
          "type": "address"
        },
        {
          "internalType": "uint256",
          "name": "_minAmount",
          "type": "uint256"
        },
        {
          "internalType": "uint256",
          "name": "_transferFee",
          "type": "uint256"
        },
        {
          "internalType": "uint256",
          "name": "_minReserves",
          "type": "uint256"
        },
        {
          "internalType": "uint256[]",
          "name": "_supportedChainIds",
          "type": "uint256[]"
        }
      ],
      "name": "addNativeAsset",
      "outputs": [],
      "stateMutability": "nonpayable",
      "type": "function"
    },
    {
      "inputs": [],
      "name": "aggregator",
      "outputs": [
        {
          "internalType": "address",
          "name": "",
          "type": "address"
        }
      ],
      "stateMutability": "view",
      "type": "function"
    },
    {
      "inputs": [],
      "name": "aggregatorAddr",
      "outputs": [
        {
          "internalType": "address",
          "name": "",
          "type": "address"
        }
      ],
      "stateMutability": "view",
      "type": "function"
    },
    {
      "inputs": [
        {
          "internalType": "bytes32",
          "name": "_debridgeId",
          "type": "bytes32"
        },
        {
          "internalType": "address",
          "name": "_receiver",
          "type": "address"
        },
        {
          "internalType": "uint256",
          "name": "_amount",
          "type": "uint256"
        }
      ],
      "name": "burn",
      "outputs": [],
      "stateMutability": "nonpayable",
      "type": "function"
    },
    {
      "inputs": [],
      "name": "chainId",
      "outputs": [
        {
          "internalType": "uint256",
          "name": "",
          "type": "uint256"
        }
      ],
      "stateMutability": "view",
      "type": "function"
    },
    {
      "inputs": [],
      "name": "defiController",
      "outputs": [
        {
          "internalType": "contract IDefiController",
          "name": "",
          "type": "address"
        }
      ],
      "stateMutability": "view",
      "type": "function"
    },
    {
      "inputs": [],
      "name": "feeProxy",
      "outputs": [
        {
          "internalType": "contract IFeeProxy",
          "name": "",
          "type": "address"
        }
      ],
      "stateMutability": "view",
      "type": "function"
    },
    {
      "inputs": [
        {
          "internalType": "bytes32",
          "name": "_debridgeId",
          "type": "bytes32"
        },
        {
          "internalType": "uint256",
          "name": "_amount",
          "type": "uint256"
        }
      ],
      "name": "fundAggregator",
      "outputs": [],
      "stateMutability": "nonpayable",
      "type": "function"
    },
    {
      "inputs": [
        {
          "internalType": "address",
          "name": "_tokenAddress",
          "type": "address"
        }
      ],
      "name": "getBalance",
      "outputs": [
        {
          "internalType": "uint256",
          "name": "",
          "type": "uint256"
        }
      ],
      "stateMutability": "view",
      "type": "function"
    },
    {
      "inputs": [
        {
          "internalType": "bytes32",
          "name": "",
          "type": "bytes32"
        }
      ],
      "name": "getDebridge",
      "outputs": [
        {
          "internalType": "address",
          "name": "tokenAddress",
          "type": "address"
        },
        {
          "internalType": "uint256",
          "name": "chainId",
          "type": "uint256"
        },
        {
          "internalType": "uint256",
          "name": "minAmount",
          "type": "uint256"
        },
        {
          "internalType": "uint256",
          "name": "transferFee",
          "type": "uint256"
        },
        {
          "internalType": "uint256",
          "name": "collectedFees",
          "type": "uint256"
        },
        {
          "internalType": "uint256",
          "name": "balance",
          "type": "uint256"
        },
        {
          "internalType": "uint256",
          "name": "minReserves",
          "type": "uint256"
        }
      ],
      "stateMutability": "view",
      "type": "function"
    },
    {
      "inputs": [
        {
          "internalType": "uint256",
          "name": "_chainId",
          "type": "uint256"
        },
        {
          "internalType": "address",
          "name": "_tokenAddress",
          "type": "address"
        }
      ],
      "name": "getDebridgeId",
      "outputs": [
        {
          "internalType": "bytes32",
          "name": "",
          "type": "bytes32"
        }
      ],
      "stateMutability": "pure",
      "type": "function"
    },
    {
      "inputs": [
        {
          "internalType": "bytes32",
          "name": "role",
          "type": "bytes32"
        }
      ],
      "name": "getRoleAdmin",
      "outputs": [
        {
          "internalType": "bytes32",
          "name": "",
          "type": "bytes32"
        }
      ],
      "stateMutability": "view",
      "type": "function"
    },
    {
      "inputs": [
        {
          "internalType": "bytes32",
          "name": "_debridgeId",
          "type": "bytes32"
        },
        {
          "internalType": "uint256",
          "name": "_amount",
          "type": "uint256"
        },
        {
          "internalType": "address",
          "name": "_receiver",
          "type": "address"
        },
        {
          "internalType": "uint256",
          "name": "_nonce",
          "type": "uint256"
        }
      ],
      "name": "getSubmisionId",
      "outputs": [
        {
          "internalType": "bytes32",
          "name": "",
          "type": "bytes32"
        }
      ],
      "stateMutability": "pure",
      "type": "function"
    },
    {
      "inputs": [
        {
          "internalType": "bytes32",
          "name": "_debridgeId",
          "type": "bytes32"
        }
      ],
      "name": "getSupportedChainIds",
      "outputs": [
        {
          "internalType": "uint256[]",
          "name": "",
          "type": "uint256[]"
        }
      ],
      "stateMutability": "view",
      "type": "function"
    },
    {
      "inputs": [
        {
          "internalType": "address",
          "name": "",
          "type": "address"
        }
      ],
      "name": "getUserNonce",
      "outputs": [
        {
          "internalType": "uint256",
          "name": "",
          "type": "uint256"
        }
      ],
      "stateMutability": "view",
      "type": "function"
    },
    {
      "inputs": [
        {
          "internalType": "bytes32",
          "name": "role",
          "type": "bytes32"
        },
        {
          "internalType": "address",
          "name": "account",
          "type": "address"
        }
      ],
      "name": "grantRole",
      "outputs": [],
      "stateMutability": "nonpayable",
      "type": "function"
    },
    {
      "inputs": [
        {
          "internalType": "bytes32",
          "name": "role",
          "type": "bytes32"
        },
        {
          "internalType": "address",
          "name": "account",
          "type": "address"
        }
      ],
      "name": "hasRole",
      "outputs": [
        {
          "internalType": "bool",
          "name": "",
          "type": "bool"
        }
      ],
      "stateMutability": "view",
      "type": "function"
    },
    {
      "inputs": [
        {
          "internalType": "bytes32",
          "name": "",
          "type": "bytes32"
        }
      ],
      "name": "isSubmissionUsed",
      "outputs": [
        {
          "internalType": "bool",
          "name": "",
          "type": "bool"
        }
      ],
      "stateMutability": "view",
      "type": "function"
    },
    {
      "inputs": [
        {
          "internalType": "bytes32",
          "name": "role",
          "type": "bytes32"
        },
        {
          "internalType": "address",
          "name": "account",
          "type": "address"
        }
      ],
      "name": "renounceRole",
      "outputs": [],
      "stateMutability": "nonpayable",
      "type": "function"
    },
    {
      "inputs": [
        {
          "internalType": "address",
          "name": "_tokenAddress",
          "type": "address"
        },
        {
          "internalType": "uint256",
          "name": "_amount",
          "type": "uint256"
        }
      ],
      "name": "requestReserves",
      "outputs": [],
      "stateMutability": "nonpayable",
      "type": "function"
    },
    {
      "inputs": [
        {
          "internalType": "address",
          "name": "_tokenAddress",
          "type": "address"
        },
        {
          "internalType": "uint256",
          "name": "_amount",
          "type": "uint256"
        }
      ],
      "name": "returnReserves",
      "outputs": [],
      "stateMutability": "payable",
      "type": "function"
    },
    {
      "inputs": [
        {
          "internalType": "bytes32",
          "name": "role",
          "type": "bytes32"
        },
        {
          "internalType": "address",
          "name": "account",
          "type": "address"
        }
      ],
      "name": "revokeRole",
      "outputs": [],
      "stateMutability": "nonpayable",
      "type": "function"
    },
    {
      "inputs": [
        {
          "internalType": "bytes32",
          "name": "_debridgeId",
          "type": "bytes32"
        },
        {
          "internalType": "address",
          "name": "_receiver",
          "type": "address"
        },
        {
          "internalType": "uint256",
          "name": "_amount",
          "type": "uint256"
        },
        {
          "internalType": "uint256",
          "name": "_chainIdTo",
          "type": "uint256"
        }
      ],
      "name": "send",
      "outputs": [],
      "stateMutability": "payable",
      "type": "function"
    },
    {
      "inputs": [
        {
          "internalType": "address",
          "name": "_aggregator",
          "type": "address"
        }
      ],
      "name": "setAggregator",
      "outputs": [],
      "stateMutability": "nonpayable",
      "type": "function"
    },
    {
      "inputs": [
        {
          "internalType": "bytes32",
          "name": "_debridgeId",
          "type": "bytes32"
        },
        {
          "internalType": "uint256",
          "name": "_chainId",
          "type": "uint256"
        },
        {
          "internalType": "bool",
          "name": "_isSupported",
          "type": "bool"
        }
      ],
      "name": "setChainIdSupport",
      "outputs": [],
      "stateMutability": "nonpayable",
      "type": "function"
    },
    {
      "inputs": [
        {
          "internalType": "contract IDefiController",
          "name": "_defiController",
          "type": "address"
        }
      ],
      "name": "setDefiController",
      "outputs": [],
      "stateMutability": "nonpayable",
      "type": "function"
    },
    {
      "inputs": [
        {
          "internalType": "contract IFeeProxy",
          "name": "_feeProxy",
          "type": "address"
        }
      ],
      "name": "setFeeProxy",
      "outputs": [],
      "stateMutability": "nonpayable",
      "type": "function"
    },
    {
      "inputs": [
        {
          "internalType": "contract IWETH",
          "name": "_weth",
          "type": "address"
        }
      ],
      "name": "setWeth",
      "outputs": [],
      "stateMutability": "nonpayable",
      "type": "function"
    },
    {
      "inputs": [
        {
          "internalType": "bytes4",
          "name": "interfaceId",
          "type": "bytes4"
        }
      ],
      "name": "supportsInterface",
      "outputs": [
        {
          "internalType": "bool",
          "name": "",
          "type": "bool"
        }
      ],
      "stateMutability": "view",
      "type": "function"
    },
    {
      "inputs": [],
      "name": "weth",
      "outputs": [
        {
          "internalType": "contract IWETH",
          "name": "",
          "type": "address"
        }
      ],
      "stateMutability": "view",
      "type": "function"
    },
    {
      "inputs": [
        {
          "internalType": "bytes32",
          "name": "_debridgeId",
          "type": "bytes32"
        },
        {
          "internalType": "address",
          "name": "_receiver",
          "type": "address"
        },
        {
          "internalType": "uint256",
          "name": "_amount",
          "type": "uint256"
        }
      ],
      "name": "withdrawFee",
      "outputs": [],
      "stateMutability": "nonpayable",
      "type": "function"
    },
    {
      "inputs": [
        {
          "internalType": "bytes32",
          "name": "_debridgeId",
          "type": "bytes32"
        },
        {
          "internalType": "address",
          "name": "_receiver",
          "type": "address"
        },
        {
          "internalType": "uint256",
          "name": "_amount",
          "type": "uint256"
        },
        {
          "internalType": "uint256",
          "name": "_nonce",
          "type": "uint256"
        },
        {
          "internalType": "bytes[2][]",
          "name": "_trxData",
          "type": "bytes[2][]"
        }
      ],
      "name": "mint",
      "outputs": [],
      "stateMutability": "nonpayable",
      "type": "function"
    },
    {
      "inputs": [
        {
          "internalType": "bytes32",
          "name": "_debridgeId",
          "type": "bytes32"
        },
        {
          "internalType": "address",
          "name": "_receiver",
          "type": "address"
        },
        {
          "internalType": "uint256",
          "name": "_amount",
          "type": "uint256"
        },
        {
          "internalType": "uint256",
          "name": "_nonce",
          "type": "uint256"
        },
        {
          "internalType": "bytes[2][]",
          "name": "_trxData",
          "type": "bytes[2][]"
        }
      ],
      "name": "claim",
      "outputs": [],
      "stateMutability": "nonpayable",
      "type": "function"
    }
  ],
  "bytecode": "0x60806040523480156200001157600080fd5b5060405162004b9538038062004b9583398101604081905262000034916200033d565b878787878787878760004690508060018190555060006200005f6001546000620000e160201b60201c565b90506200007b8160006001548d8d8d8c6200012b60201b60201c565b600280546001600160a01b03808a166001600160a01b03199283161790925560058054888416908316179055600380548784169216919091179055600454169250620000c96000336200027b565b505050505050505050505050505050505050620004d3565b600082826040516020016200010d92919091825260601b6001600160601b031916602082015260340190565b60405160208183030381529060405280519060200120905092915050565b6000878152600660208190526040822080546001600160a01b0319166001600160a01b038a1617815560018101889055600281018790556003810186905590810184905590805b83518110156200021f578381815181106200019d57634e487b7160e01b600052603260045260246000fd5b60209081029190910181015160008181526008860183526040808220805460ff1916600190811790915560078801805491820181558352938220909301829055915190935083918c917fdd4dbf80f57aa5115a1e07abb36e4de565879d4de5bd15b3803d666fe1d848639190a38062000216816200047c565b91505062000172565b50604080518781526020810187905290810185905287906001600160a01b038a16908b907ff6f4e2b9c6425dc5e0ebbec27bfdc06bece97c248400c189c656fe08259cd4659060600160405180910390a4505050505050505050565b6200028782826200028b565b5050565b6000828152602081815260408083206001600160a01b038516845290915290205460ff1662000287576000828152602081815260408083206001600160a01b03851684529091529020805460ff19166001179055620002e73390565b6001600160a01b0316816001600160a01b0316837f2f8788117e7eff1d82e926ec794901d17c78024a50270940304540a733656f0d60405160405180910390a45050565b80516200033881620004ba565b919050565b600080600080600080600080610100898b0312156200035a578384fd5b88519750602089015196506040890151955060608901516200037c81620004ba565b60808a01519095506001600160401b038082111562000399578586fd5b818b0191508b601f830112620003ad578586fd5b815181811115620003c257620003c2620004a4565b60208102604051601f19603f83011681018181108582111715620003ea57620003ea620004a4565b8060405250809350828152602081019350602085018f60208488010111156200041157898afd5b8995505b83861015620004365780518552600195909501946020948501940162000415565b5080985050505050506200044d60a08a016200032b565b92506200045d60c08a016200032b565b91506200046d60e08a016200032b565b90509295985092959890939650565b60006000198214156200049d57634e487b7160e01b81526011600452602481fd5b5060010190565b634e487b7160e01b600052604160045260246000fd5b6001600160a01b0381168114620004d057600080fd5b50565b6146b280620004e36000396000f3fe608060405260043610620002425760003560e01c80636b063d651162000133578063b41eced511620000af578063be7f21841162000079578063be7f2184146200076f578063d547741f1462000794578063e82637f614620007b9578063f8b2cb4f14620007de578063f9120af614620008035762000242565b8063b41eced514620006de578063b8d1452f1462000703578063ba9f77761462000728578063bc23a2c0146200074a5762000242565b8063918f867411620000fd578063918f8674146200064757806391d1485414620006655780639682b909146200068a5780639a8a059214620006af578063a217fddf14620006c75762000242565b80636b063d6514620005b55780638276260014620005cc57806383d3f95d14620005ee5780638a2034cc14620006135762000242565b8063346a907411620001c357806357cf07ca116200018d57806357cf07ca146200045f5780635bd5a95e14620005065780635fe582b5146200052b57806365ac9f7814620005505780636834e3a814620005845762000242565b8063346a907414620003d157806336568abe14620003f65780633fc8cef3146200041b57806346144c8f146200043d5762000242565b8063245a7bfc1162000211578063245a7bfc14620002e4578063248a9ca3146200031f57806325be0be114620003625780632a68394914620003875780632f2ff15d14620003ac5762000242565b806301ffc9a71462000247578063031ac61314620002815780630a0e5e9a146200029a578063106f432f14620002bf575b600080fd5b3480156200025457600080fd5b506200026c6200026636600462002acc565b62000828565b60405190151581526020015b60405180910390f35b62000298620002923660046200294a565b62000862565b005b348015620002a757600080fd5b5062000298620002b936600462002a91565b62000b21565b348015620002cc57600080fd5b5062000298620002de36600462002720565b62000be8565b348015620002f157600080fd5b5060025462000306906001600160a01b031681565b6040516001600160a01b03909116815260200162000278565b3480156200032c57600080fd5b50620003536200033e366004620028c5565b60009081526020819052604090206001015490565b60405190815260200162000278565b3480156200036f57600080fd5b50620002986200038136600462002720565b62000c36565b3480156200039457600080fd5b5062000298620003a6366004620027de565b62000c84565b348015620003b957600080fd5b5062000298620003cb366004620028de565b62000d1c565b348015620003de57600080fd5b5062000298620003f036600462002910565b62000db1565b3480156200040357600080fd5b506200029862000415366004620028de565b62001008565b3480156200042857600080fd5b5060055462000306906001600160a01b031681565b3480156200044a57600080fd5b5060045462000306906001600160a01b031681565b3480156200046c57600080fd5b50620004c66200047e366004620028c5565b600660208190526000918252604090912080546001820154600283015460038401546004850154600586015495909601546001600160a01b0390941695929491939092919087565b604080516001600160a01b0390981688526020880196909652948601939093526060850191909152608084015260a083015260c082015260e00162000278565b3480156200051357600080fd5b50620002986200052536600462002a2e565b62001086565b3480156200053857600080fd5b50620002986200054a36600462002989565b620013af565b3480156200055d57600080fd5b506200026c6200056f366004620028c5565b60076020526000908152604090205460ff1681565b3480156200059157600080fd5b5062000353620005a336600462002720565b60086020526000908152604090205481565b62000298620005c63660046200273f565b6200149e565b348015620005d957600080fd5b5060095462000306906001600160a01b031681565b348015620005fb57600080fd5b50620002986200060d36600462002910565b62001547565b3480156200062057600080fd5b506200063862000632366004620028c5565b620016af565b60405162000278919062002b85565b3480156200065457600080fd5b5062000353670de0b6b3a764000081565b3480156200067257600080fd5b506200026c62000684366004620028de565b62001716565b3480156200069757600080fd5b5062000353620006a9366004620028de565b6200173f565b348015620006bc57600080fd5b506200035360015481565b348015620006d457600080fd5b5062000353600081565b348015620006eb57600080fd5b5062000298620006fd36600462002989565b6200178e565b3480156200071057600080fd5b50620002986200072236600462002720565b6200187e565b3480156200073557600080fd5b5060035462000306906001600160a01b031681565b3480156200075757600080fd5b50620003536200076936600462002a50565b620018cc565b3480156200077c57600080fd5b50620002986200078e3660046200273f565b62001922565b348015620007a157600080fd5b5062000298620007b3366004620028de565b62001ac6565b348015620007c657600080fd5b5062000298620007d83660046200276d565b62001b4a565b348015620007eb57600080fd5b5062000353620007fd36600462002720565b62001b9b565b3480156200081057600080fd5b50620002986200082236600462002720565b62001c37565b60006001600160e01b03198216637965db0b60e01b14806200085a57506301ffc9a760e01b6001600160e01b03198316145b90505b919050565b6000848152600660205260409020600180549082015414620008c45760405162461bcd60e51b815260206004820152601660248201527539b2b7321d103737ba103730ba34bb329031b430b4b760511b60448201526064015b60405180910390fd5b600082815260088201602052604090205460ff16620009265760405162461bcd60e51b815260206004820152601860248201527f73656e643a2077726f6e672074617267656420636861696e00000000000000006044820152606401620008bb565b8060020154831015620009735760405162461bcd60e51b815260206004820152601460248201527373656e643a20616d6f756e7420746f6f206c6f7760601b6044820152606401620008bb565b80546001600160a01b0316620009d257348314620009cc5760405162461bcd60e51b81526020600482015260156024820152740e6cadcc87440c2dadeeadce840dad2e6dac2e8c6d605b1b6044820152606401620008bb565b620009eb565b8054620009eb906001600160a01b031633308662001c85565b6000670de0b6b3a764000082600301548562000a08919062002da4565b62000a14919062002d83565b9050801562000a48578082600401600082825462000a33919062002d68565b9091555062000a459050818562002dc6565b93505b8382600501600082825462000a5e919062002d68565b90915550506001600160a01b0385166000908152600860205260408120549062000a8b88878985620018cc565b60408051828152602081018b90529081018890526001600160a01b03891660608201526080810184905260a081018790529091507f17c61cb89b62a3f29f5b150e3489c7a796ac4dc95fd73af14faa2c8086a324b49060c00160405180910390a16001600160a01b038716600090815260086020526040812080549162000b128362002e0f565b91905055505050505050505050565b62000b2e60003362001716565b62000b4d5760405162461bcd60e51b8152600401620008bb9062002d07565b600083815260066020908152604080832085845260088101909252909120805460ff1916831580159190911790915562000bb457604051839085907fdd4dbf80f57aa5115a1e07abb36e4de565879d4de5bd15b3803d666fe1d8486390600090a362000be2565b604051839085907f86c512831f7a2aad3f56b4169c161be1028776ab950c72e26237a0310ded560690600090a35b50505050565b62000bf560003362001716565b62000c145760405162461bcd60e51b8152600401620008bb9062002d07565b600480546001600160a01b0319166001600160a01b0392909216919091179055565b62000c4360003362001716565b62000c625760405162461bcd60e51b8152600401620008bb9062002d07565b600380546001600160a01b0319166001600160a01b0392909216919091179055565b62000c9160003362001716565b62000cb05760405162461bcd60e51b8152600401620008bb9062002d07565b600062000cbe888a6200173f565b90506000838360405162000cd29062002608565b62000cdf92919062002cd5565b604051809103906000f08015801562000cfc573d6000803e3d6000fd5b50905062000d1082828b8b8b8b8b62001cf2565b50505050505050505050565b60008281526020819052604090206001015462000d3b905b3362000684565b62000da15760405162461bcd60e51b815260206004820152602f60248201527f416363657373436f6e74726f6c3a2073656e646572206d75737420626520616e60448201526e0818591b5a5b881d1bc819dc985b9d608a1b6064820152608401620008bb565b62000dad828262001e42565b5050565b60008381526006602052604090206001805490820154141562000e0c5760405162461bcd60e51b8152602060048201526012602482015271189d5c9b8e881b985d1a5d9948185cdcd95d60721b6044820152606401620008bb565b806002015482101562000e595760405162461bcd60e51b81526020600482015260146024820152736275726e3a20616d6f756e7420746f6f206c6f7760601b6044820152606401620008bb565b80546040516323b872dd60e01b8152336004820152306024820152604481018490526001600160a01b039091169081906323b872dd90606401602060405180830381600087803b15801562000ead57600080fd5b505af115801562000ec2573d6000803e3d6000fd5b505050506040513d601f19601f8201168201806040525081019062000ee89190620028a6565b50604051630852cd8d60e31b8152600481018490526001600160a01b038216906342966c6890602401600060405180830381600087803b15801562000f2c57600080fd5b505af115801562000f41573d6000803e3d6000fd5b5050506001600160a01b038516600090815260086020526040812054915062000f6d87868885620018cc565b600185015460408051838152602081018b90529081018890526001600160a01b03891660608201526080810185905260a08101919091529091507fb8cc5195d548dc2781227c496b92d3736cd56d7f32b28971c9ae1e9eb0badf959060c00160405180910390a16001600160a01b038616600090815260086020526040812080549162000ffa8362002e0f565b919050555050505050505050565b6001600160a01b03811633146200107a5760405162461bcd60e51b815260206004820152602f60248201527f416363657373436f6e74726f6c3a2063616e206f6e6c792072656e6f756e636560448201526e103937b632b9903337b91039b2b63360891b6064820152608401620008bb565b62000dad828262001eca565b6200109360003362001716565b620010b25760405162461bcd60e51b8152600401620008bb9062002d07565b6000828152600660205260409020600180549082015414620011225760405162461bcd60e51b815260206004820152602260248201527f66756e6441676772656761746f723a2077726f6e67207461726765742063686160448201526134b760f11b6064820152608401620008bb565b8181600401541015620011785760405162461bcd60e51b815260206004820152601e60248201527f66756e6441676772656761746f723a206e6f7420656e6f7567682066656500006044820152606401620008bb565b818160040160008282546200118e919062002dc6565b909155505080546001600160a01b03166200131757600560009054906101000a90046001600160a01b03166001600160a01b031663d0e30db0836040518263ffffffff1660e01b81526004016000604051808303818588803b158015620011f457600080fd5b505af115801562001209573d6000803e3d6000fd5b505060055460035460405163a9059cbb60e01b81526001600160a01b039182166004820152602481018890529116935063a9059cbb92506044019050602060405180830381600087803b1580156200126057600080fd5b505af115801562001275573d6000803e3d6000fd5b505050506040513d601f19601f820116820180604052508101906200129b9190620028a6565b50600354600554600254604051631acd461560e31b81526001600160a01b03928316600482015260248101869052908216604482015291169063d66a30a890606401600060405180830381600087803b158015620012f857600080fd5b505af11580156200130d573d6000803e3d6000fd5b50505050620013aa565b600354815462001335916001600160a01b0391821691168462001f32565b6003548154600254604051631acd461560e31b81526001600160a01b03928316600482015260248101869052908216604482015291169063d66a30a890606401600060405180830381600087803b1580156200139057600080fd5b505af1158015620013a5573d6000803e3d6000fd5b505050505b505050565b6000620013bf87868887620018cc565b60025460405163578d837760e01b81529192506001600160a01b03169063578d837790620013f69084908790879060040162002bcb565b602060405180830381600087803b1580156200141157600080fd5b505af115801562001426573d6000803e3d6000fd5b505050506040513d601f19601f820116820180604052508101906200144c9190620028a6565b620014905760405162461bcd60e51b81526020600482015260136024820152721b5a5b9d0e881b9bdd0818dbdb999a5c9b5959606a1b6044820152606401620008bb565b620013a58188888862001f64565b6004546001600160a01b03163314620014f55760405162461bcd60e51b815260206004820152601860248201527764656669436f6e74726f6c6c65723a2062616420726f6c6560401b6044820152606401620008bb565b600062001505600154846200173f565b60008181526006602052604090208054919250906001600160a01b03161562000be257600454815462000be2916001600160a01b039182169116308662001c85565b6200155460003362001716565b620015735760405162461bcd60e51b8152600401620008bb9062002d07565b6000838152600660205260409020600180549082015414620015d85760405162461bcd60e51b815260206004820152601f60248201527f77697468647261774665653a2077726f6e672074617267657420636861696e006044820152606401620008bb565b81816004015410156200162e5760405162461bcd60e51b815260206004820152601b60248201527f77697468647261774665653a206e6f7420656e6f7567682066656500000000006044820152606401620008bb565b8181600401600082825462001644919062002dc6565b909155505080546001600160a01b031662001697576040516001600160a01b0384169083156108fc029084906000818181858888f1935050505015801562001690573d6000803e3d6000fd5b5062000be2565b805462000be2906001600160a01b0316848462001f32565b6000818152600660209081526040918290206007018054835181840281018401909452808452606093928301828280156200170a57602002820191906000526020600020905b815481526020019060010190808311620016f5575b50505050509050919050565b6000918252602082815260408084206001600160a01b0393909316845291905290205460ff1690565b600082826040516020016200177092919091825260601b6bffffffffffffffffffffffff1916602082015260340190565b60405160208183030381529060405280519060200120905092915050565b60006200179e87868887620018cc565b600254604051634a41e6d960e01b81529192506001600160a01b031690634a41e6d990620017d59084908790879060040162002bcb565b602060405180830381600087803b158015620017f057600080fd5b505af115801562001805573d6000803e3d6000fd5b505050506040513d601f19601f820116820180604052508101906200182b9190620028a6565b620018705760405162461bcd60e51b815260206004820152601460248201527318db185a5b4e881b9bdd0818dbdb999a5c9b595960621b6044820152606401620008bb565b620013a581888888620020a2565b6200188b60003362001716565b620018aa5760405162461bcd60e51b8152600401620008bb9062002d07565b600580546001600160a01b0319166001600160a01b0392909216919091179055565b6040805160208101869052908101849052606083811b6bffffffffffffffffffffffff19169082015260748101829052600090609401604051602081830303815290604052805190602001209050949350505050565b6004546001600160a01b03163314620019795760405162461bcd60e51b815260206004820152601860248201527764656669436f6e74726f6c6c65723a2062616420726f6c6560401b6044820152606401620008bb565b600062001989600154846200173f565b600081815260066020819052604082209081015460058201549394509092670de0b6b3a764000091620019bc9162002da4565b620019c8919062002d83565b8254909150600090620019e4906001600160a01b031662001b9b565b905080620019f3868462002d68565b1162001a4e5760405162461bcd60e51b8152602060048201526024808201527f7265717565737452657365727665733a206e6f7420656e6f75676820726573656044820152637276657360e01b6064820152608401620008bb565b82546001600160a01b031662001aa0576004546040516001600160a01b039091169086156108fc029087906000818181858888f1935050505015801562001a99573d6000803e3d6000fd5b5062001abe565b600454835462001abe916001600160a01b0391821691168762001f32565b505050505050565b60008281526020819052604090206001015462001ae39062000d34565b6200107a5760405162461bcd60e51b815260206004820152603060248201527f416363657373436f6e74726f6c3a2073656e646572206d75737420626520616e60448201526f2061646d696e20746f207265766f6b6560801b6064820152608401620008bb565b62001b5760003362001716565b62001b765760405162461bcd60e51b8152600401620008bb9062002d07565b600062001b86600154876200173f565b905062001abe81876001548888888862001cf2565b60006001600160a01b03821662001bb45750476200085d565b6040516370a0823160e01b81523060048201526001600160a01b038316906370a082319060240160206040518083038186803b15801562001bf457600080fd5b505afa15801562001c09573d6000803e3d6000fd5b505050506040513d601f19601f8201168201806040525081019062001c2f919062002af6565b90506200085d565b62001c4460003362001716565b62001c635760405162461bcd60e51b8152600401620008bb9062002d07565b600280546001600160a01b0319166001600160a01b0392909216919091179055565b6040516001600160a01b038085166024830152831660448201526064810182905262000be29085906323b872dd60e01b906084015b60408051601f198184030181529190526020810180516001600160e01b03166001600160e01b031990931692909217909152620022b6565b6000878152600660208190526040822080546001600160a01b0319166001600160a01b038a1617815560018101889055600281018790556003810186905590810184905590805b835181101562001de65783818151811062001d6457634e487b7160e01b600052603260045260246000fd5b60209081029190910181015160008181526008860183526040808220805460ff1916600190811790915560078801805491820181558352938220909301829055915190935083918c917fdd4dbf80f57aa5115a1e07abb36e4de565879d4de5bd15b3803d666fe1d848639190a38062001ddd8162002e0f565b91505062001d39565b50604080518781526020810187905290810185905287906001600160a01b038a16908b907ff6f4e2b9c6425dc5e0ebbec27bfdc06bece97c248400c189c656fe08259cd4659060600160405180910390a4505050505050505050565b62001e4e828262001716565b62000dad576000828152602081815260408083206001600160a01b03851684529091529020805460ff1916600117905562001e863390565b6001600160a01b0316816001600160a01b0316837f2f8788117e7eff1d82e926ec794901d17c78024a50270940304540a733656f0d60405160405180910390a45050565b62001ed6828262001716565b1562000dad576000828152602081815260408083206001600160a01b0385168085529252808320805460ff1916905551339285917ff6391f5c32d9c69d2a47ea670b442974b53935d1edc7fd64eb21e047a839171b9190a45050565b6040516001600160a01b038316602482015260448101829052620013aa90849063a9059cbb60e01b9060640162001cba565b60008481526007602052604090205460ff161562001fba5760405162461bcd60e51b81526020600482015260126024820152711b5a5b9d0e88185b1c9958591e481d5cd95960721b6044820152606401620008bb565b6000838152600660209081526040808320878452600790925291829020805460ff19166001179055805491516340c10f1960e01b81526001600160a01b03858116600483015260248201859052919291909116906340c10f1990604401600060405180830381600087803b1580156200203257600080fd5b505af115801562002047573d6000803e3d6000fd5b505060408051888152602081018690526001600160a01b038716818301526060810188905290517f5918a95fd00afb5898499bd5beade1619e98655d2b4ff6e0f6a4347f0a69c1279350908190036080019150a15050505050565b6000838152600660205260409020600180549082015414620021075760405162461bcd60e51b815260206004820152601960248201527f636c61696d3a2077726f6e672074617267657420636861696e000000000000006044820152606401620008bb565b60008581526007602052604090205460ff16156200215e5760405162461bcd60e51b815260206004820152601360248201527218db185a5b4e88185b1c9958591e481d5cd959606a1b6044820152606401620008bb565b6000858152600760205260408120805460ff191660011790556003820154670de0b6b3a76400009062002192908562002da4565b6200219e919062002d83565b905082826005016000828254620021b6919062002dc6565b90915550508015620021ed5780826004016000828254620021d8919062002d68565b90915550620021ea9050818462002dc6565b92505b620021f982846200238f565b81546001600160a01b031662002247576040516001600160a01b0385169084156108fc029085906000818181858888f1935050505015801562002240573d6000803e3d6000fd5b506200225f565b81546200225f906001600160a01b0316858562001f32565b60408051878152602081018590526001600160a01b038616818301526060810187905290517fabe3bed2a8590dd123c1a018888bce6142d526741bed65dfe570fb223525c6a49181900360800190a1505050505050565b60006200230d826040518060400160405280602081526020017f5361666545524332303a206c6f772d6c6576656c2063616c6c206661696c6564815250856001600160a01b03166200247d9092919063ffffffff16565b805190915015620013aa57808060200190518101906200232e9190620028a6565b620013aa5760405162461bcd60e51b815260206004820152602a60248201527f5361666545524332303a204552433230206f7065726174696f6e20646964206e6044820152691bdd081cdd58d8d9595960b21b6064820152608401620008bb565b6000670de0b6b3a764000083600601548460050154620023b0919062002da4565b620023bc919062002d83565b8354909150600090620023d8906001600160a01b031662001b9b565b90506000838311620023eb5783620023ed565b825b905081811115620024765762002404828262002dc6565b6004805487546040516309e62b9160e01b81526001600160a01b03918216938101939093526024830184905292935091909116906309e62b9190604401600060405180830381600087803b1580156200245c57600080fd5b505af115801562002471573d6000803e3d6000fd5b505050505b5050505050565b60606200248e848460008562002498565b90505b9392505050565b606082471015620024fb5760405162461bcd60e51b815260206004820152602660248201527f416464726573733a20696e73756666696369656e742062616c616e636520666f6044820152651c8818d85b1b60d21b6064820152608401620008bb565b843b6200254b5760405162461bcd60e51b815260206004820152601d60248201527f416464726573733a2063616c6c20746f206e6f6e2d636f6e74726163740000006044820152606401620008bb565b600080866001600160a01b0316858760405162002569919062002b67565b60006040518083038185875af1925050503d8060008114620025a8576040519150601f19603f3d011682016040523d82523d6000602084013e620025ad565b606091505b5091509150620025bf828286620025ca565b979650505050505050565b60608315620025db57508162002491565b825115620025ec5782518084602001fd5b8160405162461bcd60e51b8152600401620008bb919062002cc0565b6117fb8062002e8283390190565b80356200085d8162002e59565b600082601f83011262002634578081fd5b8135602067ffffffffffffffff82111562002653576200265362002e43565b8082026200266382820162002d34565b8381528281019086840183880185018910156200267e578687fd5b8693505b85841015620026a257803583526001939093019291840191840162002682565b50979650505050505050565b600082601f830112620026bf578081fd5b813567ffffffffffffffff811115620026dc57620026dc62002e43565b620026f1601f8201601f191660200162002d34565b81815284602083860101111562002706578283fd5b816020850160208301379081016020019190915292915050565b60006020828403121562002732578081fd5b8135620024918162002e59565b6000806040838503121562002752578081fd5b82356200275f8162002e59565b946020939093013593505050565b600080600080600060a0868803121562002785578081fd5b8535620027928162002e59565b9450602086013593506040860135925060608601359150608086013567ffffffffffffffff811115620027c3578182fd5b620027d18882890162002623565b9150509295509295909350565b600080600080600080600080610100898b031215620027fb578283fd5b620028068962002616565b97506020890135965060408901359550606089013594506080890135935060a089013567ffffffffffffffff808211156200283f578485fd5b6200284d8c838d0162002623565b945060c08b013591508082111562002863578384fd5b620028718c838d01620026ae565b935060e08b013591508082111562002887578283fd5b50620028968b828c01620026ae565b9150509295985092959890939650565b600060208284031215620028b8578081fd5b8151620024918162002e72565b600060208284031215620028d7578081fd5b5035919050565b60008060408385031215620028f1578182fd5b823591506020830135620029058162002e59565b809150509250929050565b60008060006060848603121562002925578283fd5b833592506020840135620029398162002e59565b929592945050506040919091013590565b6000806000806080858703121562002960578182fd5b843593506020850135620029748162002e59565b93969395505050506040820135916060013590565b60008060008060008060a08789031215620029a2578384fd5b863595506020870135620029b68162002e59565b94506040870135935060608701359250608087013567ffffffffffffffff80821115620029e1578384fd5b818901915089601f830112620029f5578384fd5b81358181111562002a04578485fd5b8a6020808302850101111562002a18578485fd5b6020830194508093505050509295509295509295565b6000806040838503121562002a41578182fd5b50508035926020909101359150565b6000806000806080858703121562002a66578182fd5b8435935060208501359250604085013562002a818162002e59565b9396929550929360600135925050565b60008060006060848603121562002aa6578081fd5b8335925060208401359150604084013562002ac18162002e72565b809150509250925092565b60006020828403121562002ade578081fd5b81356001600160e01b03198116811462002491578182fd5b60006020828403121562002b08578081fd5b5051919050565b60008284528282602086013780602084860101526020601f19601f85011685010190509392505050565b6000815180845262002b5381602086016020860162002de0565b601f01601f19169290920160200192915050565b6000825162002b7b81846020870162002de0565b9190910192915050565b6020808252825182820181905260009190848201906040850190845b8181101562002bbf5783518352928401929184019160010162002ba1565b50909695505050505050565b6000604080830186845260208281860152818683526060860190506060828802870101925087855b8881101562002cb157878503605f190183528135368b9003603e1901811262002c1a578788fd5b8a0185878101828a36829003601e19015b600282101562002c98578a84038552823581811262002c48578d8efd5b8601803567ffffffffffffffff81111562002c61578e8ffd5b80360388131562002c70578e8ffd5b62002c7f86828e850162002b0f565b968c019695505050918901916001919091019062002c2b565b5091985050509385019350509083019060010162002bf3565b50929998505050505050505050565b60006020825262002491602083018462002b39565b60006040825262002cea604083018562002b39565b828103602084015262002cfe818562002b39565b95945050505050565b6020808252601390820152726f6e6c7941646d696e3a2062616420726f6c6560681b604082015260600190565b604051601f8201601f1916810167ffffffffffffffff8111828210171562002d605762002d6062002e43565b604052919050565b6000821982111562002d7e5762002d7e62002e2d565b500190565b60008262002d9f57634e487b7160e01b81526012600452602481fd5b500490565b600081600019048311821515161562002dc15762002dc162002e2d565b500290565b60008282101562002ddb5762002ddb62002e2d565b500390565b60005b8381101562002dfd57818101518382015260200162002de3565b8381111562000be25750506000910152565b600060001982141562002e265762002e2662002e2d565b5060010190565b634e487b7160e01b600052601160045260246000fd5b634e487b7160e01b600052604160045260246000fd5b6001600160a01b038116811462002e6f57600080fd5b50565b801515811462002e6f57600080fdfe60806040523480156200001157600080fd5b50604051620017fb380380620017fb83398101604081905262000034916200034c565b8151829082906200004d906004906020850190620001f3565b50805162000063906005906020840190620001f3565b50620000759150600090503362000143565b620000a17f9f2df0fed2c77648de5860a4cc508cd0818c85b8b8a1ab4ceeef8d981c8956a63362000143565b50805160209182012060408051808201825260018152603160f81b9084015280517f8b73c3c69bb8fe3d512ecc4cf759cc79239f7b179b0ffacaa9a75d522b39400f81850152808201929092527fc89efdaa54c0f20c7adf612882df0950f5a951637e0307cdcb4c672f298b8bc660608301524660808301523060a0808401919091528151808403909101815260c09092019052805191012060065562000406565b6200014f828262000153565b5050565b6000828152602081815260408083206001600160a01b038516845290915290205460ff166200014f576000828152602081815260408083206001600160a01b03851684529091529020805460ff19166001179055620001af3390565b6001600160a01b0316816001600160a01b0316837f2f8788117e7eff1d82e926ec794901d17c78024a50270940304540a733656f0d60405160405180910390a45050565b8280546200020190620003b3565b90600052602060002090601f01602090048101928262000225576000855562000270565b82601f106200024057805160ff191683800117855562000270565b8280016001018555821562000270579182015b828111156200027057825182559160200191906001019062000253565b506200027e92915062000282565b5090565b5b808211156200027e576000815560010162000283565b600082601f830112620002aa578081fd5b81516001600160401b0380821115620002c757620002c7620003f0565b604051601f8301601f19908116603f01168101908282118183101715620002f257620002f2620003f0565b816040528381526020925086838588010111156200030e578485fd5b8491505b8382101562000331578582018301518183018401529082019062000312565b838211156200034257848385830101525b9695505050505050565b600080604083850312156200035f578182fd5b82516001600160401b038082111562000376578384fd5b620003848683870162000299565b935060208501519150808211156200039a578283fd5b50620003a98582860162000299565b9150509250929050565b600281046001821680620003c857607f821691505b60208210811415620003ea57634e487b7160e01b600052602260045260246000fd5b50919050565b634e487b7160e01b600052604160045260246000fd5b6113e580620004166000396000f3fe608060405234801561001057600080fd5b50600436106101735760003560e01c806340c10f19116100de578063a217fddf11610097578063d505accf11610071578063d505accf14610342578063d539139314610355578063d547741f1461037c578063dd62ed3e1461038f57610173565b8063a217fddf14610314578063a457c2d71461031c578063a9059cbb1461032f57610173565b806340c10f191461028a57806342966c681461029d57806370a08231146102b05780637ecebe00146102d957806391d14854146102f957806395d89b411461030c57610173565b80632f2ff15d116101305780632f2ff15d1461021057806330adf81f14610225578063313ce5671461024c5780633644e5151461025b57806336568abe14610264578063395093511461027757610173565b806301ffc9a71461017857806306fdde03146101a0578063095ea7b3146101b557806318160ddd146101c857806323b872dd146101da578063248a9ca3146101ed575b600080fd5b61018b610186366004611299565b6103c8565b60405190151581526020015b60405180910390f35b6101a8610401565b60405161019791906112c1565b61018b6101c3366004611236565b610493565b6003545b604051908152602001610197565b61018b6101e836600461118a565b6104a9565b6101cc6101fb36600461125f565b60009081526020819052604090206001015490565b61022361021e366004611277565b61055f565b005b6101cc7f6e71edae12b1b97f4d1f60370fef10105fa2faae0126114a169c64845d6126c981565b60405160128152602001610197565b6101cc60065481565b610223610272366004611277565b6105ee565b61018b610285366004611236565b610668565b610223610298366004611236565b61069f565b6102236102ab36600461125f565b61071a565b6101cc6102be366004611137565b6001600160a01b031660009081526001602052604090205490565b6101cc6102e7366004611137565b60076020526000908152604090205481565b61018b610307366004611277565b610798565b6101a86107c1565b6101cc600081565b61018b61032a366004611236565b6107d0565b61018b61033d366004611236565b61086b565b6102236103503660046111c5565b610878565b6101cc7f9f2df0fed2c77648de5860a4cc508cd0818c85b8b8a1ab4ceeef8d981c8956a681565b61022361038a366004611277565b610a8c565b6101cc61039d366004611158565b6001600160a01b03918216600090815260026020908152604080832093909416825291909152205490565b60006001600160e01b03198216637965db0b60e01b14806103f957506301ffc9a760e01b6001600160e01b03198316145b90505b919050565b60606004805461041090611343565b80601f016020809104026020016040519081016040528092919081815260200182805461043c90611343565b80156104895780601f1061045e57610100808354040283529160200191610489565b820191906000526020600020905b81548152906001019060200180831161046c57829003601f168201915b5050505050905090565b60006104a0338484610b0c565b50600192915050565b60006104b6848484610c31565b6001600160a01b0384166000908152600260209081526040808320338452909152902054828110156105405760405162461bcd60e51b815260206004820152602860248201527f45524332303a207472616e7366657220616d6f756e74206578636565647320616044820152676c6c6f77616e636560c01b60648201526084015b60405180910390fd5b610554853361054f868561132c565b610b0c565b506001949350505050565b60008281526020819052604090206001015461057c905b33610307565b6105e05760405162461bcd60e51b815260206004820152602f60248201527f416363657373436f6e74726f6c3a2073656e646572206d75737420626520616e60448201526e0818591b5a5b881d1bc819dc985b9d608a1b6064820152608401610537565b6105ea8282610e09565b5050565b6001600160a01b038116331461065e5760405162461bcd60e51b815260206004820152602f60248201527f416363657373436f6e74726f6c3a2063616e206f6e6c792072656e6f756e636560448201526e103937b632b9903337b91039b2b63360891b6064820152608401610537565b6105ea8282610e8d565b3360008181526002602090815260408083206001600160a01b038716845290915281205490916104a091859061054f908690611314565b6106c97f9f2df0fed2c77648de5860a4cc508cd0818c85b8b8a1ab4ceeef8d981c8956a633610798565b6107105760405162461bcd60e51b81526020600482015260186024820152776f6e6c7941676772656761746f723a2062616420726f6c6560401b6044820152606401610537565b6105ea8282610ef2565b6107447f9f2df0fed2c77648de5860a4cc508cd0818c85b8b8a1ab4ceeef8d981c8956a633610798565b61078b5760405162461bcd60e51b81526020600482015260186024820152776f6e6c7941676772656761746f723a2062616420726f6c6560401b6044820152606401610537565b6107953382610fd1565b50565b6000918252602082815260408084206001600160a01b0393909316845291905290205460ff1690565b60606005805461041090611343565b3360009081526002602090815260408083206001600160a01b0386168452909152812054828110156108525760405162461bcd60e51b815260206004820152602560248201527f45524332303a2064656372656173656420616c6c6f77616e63652062656c6f77604482015264207a65726f60d81b6064820152608401610537565b610861338561054f868561132c565b5060019392505050565b60006104a0338484610c31565b428410156108bd5760405162461bcd60e51b8152602060048201526012602482015271155b9a5cddd85c158c8e881156141254915160721b6044820152606401610537565b6006546001600160a01b038816600090815260076020526040812080549192917f6e71edae12b1b97f4d1f60370fef10105fa2faae0126114a169c64845d6126c9918b918b918b9190876109108361137e565b909155506040805160208101969096526001600160a01b0394851690860152929091166060840152608083015260a082015260c0810187905260e0016040516020818303038152906040528051906020012060405160200161098992919061190160f01b81526002810192909252602282015260420190565b60408051601f198184030181528282528051602091820120600080855291840180845281905260ff88169284019290925260608301869052608083018590529092509060019060a0016020604051602081039080840390855afa1580156109f4573d6000803e3d6000fd5b5050604051601f1901519150506001600160a01b03811615801590610a2a5750886001600160a01b0316816001600160a01b0316145b610a765760405162461bcd60e51b815260206004820152601960248201527f7065726d69743a20696e76616c6964207369676e6174757265000000000000006044820152606401610537565b610a81898989610b0c565b505050505050505050565b600082815260208190526040902060010154610aa790610576565b61065e5760405162461bcd60e51b815260206004820152603060248201527f416363657373436f6e74726f6c3a2073656e646572206d75737420626520616e60448201526f2061646d696e20746f207265766f6b6560801b6064820152608401610537565b6001600160a01b038316610b6e5760405162461bcd60e51b8152602060048201526024808201527f45524332303a20617070726f76652066726f6d20746865207a65726f206164646044820152637265737360e01b6064820152608401610537565b6001600160a01b038216610bcf5760405162461bcd60e51b815260206004820152602260248201527f45524332303a20617070726f766520746f20746865207a65726f206164647265604482015261737360f01b6064820152608401610537565b6001600160a01b0383811660008181526002602090815260408083209487168084529482529182902085905590518481527f8c5be1e5ebec7d5bd14f71427d1e84f3dd0314c0f7b2291e5b200ac8c7c3b92591015b60405180910390a3505050565b6001600160a01b038316610c955760405162461bcd60e51b815260206004820152602560248201527f45524332303a207472616e736665722066726f6d20746865207a65726f206164604482015264647265737360d81b6064820152608401610537565b6001600160a01b038216610cf75760405162461bcd60e51b815260206004820152602360248201527f45524332303a207472616e7366657220746f20746865207a65726f206164647260448201526265737360e81b6064820152608401610537565b6001600160a01b03831660009081526001602052604090205481811015610d6f5760405162461bcd60e51b815260206004820152602660248201527f45524332303a207472616e7366657220616d6f756e7420657863656564732062604482015265616c616e636560d01b6064820152608401610537565b610d79828261132c565b6001600160a01b038086166000908152600160205260408082209390935590851681529081208054849290610daf908490611314565b92505081905550826001600160a01b0316846001600160a01b03167fddf252ad1be2c89b69c2b068fc378daa952ba7f163c4a11628f55a4df523b3ef84604051610dfb91815260200190565b60405180910390a350505050565b610e138282610798565b6105ea576000828152602081815260408083206001600160a01b03851684529091529020805460ff19166001179055610e493390565b6001600160a01b0316816001600160a01b0316837f2f8788117e7eff1d82e926ec794901d17c78024a50270940304540a733656f0d60405160405180910390a45050565b610e978282610798565b156105ea576000828152602081815260408083206001600160a01b0385168085529252808320805460ff1916905551339285917ff6391f5c32d9c69d2a47ea670b442974b53935d1edc7fd64eb21e047a839171b9190a45050565b6001600160a01b038216610f485760405162461bcd60e51b815260206004820152601f60248201527f45524332303a206d696e7420746f20746865207a65726f2061646472657373006044820152606401610537565b8060036000828254610f5a9190611314565b90915550506001600160a01b03821660009081526001602052604081208054839290610f87908490611314565b90915550506040518181526001600160a01b038316906000907fddf252ad1be2c89b69c2b068fc378daa952ba7f163c4a11628f55a4df523b3ef9060200160405180910390a35050565b6001600160a01b0382166110315760405162461bcd60e51b815260206004820152602160248201527f45524332303a206275726e2066726f6d20746865207a65726f206164647265736044820152607360f81b6064820152608401610537565b6001600160a01b038216600090815260016020526040902054818110156110a55760405162461bcd60e51b815260206004820152602260248201527f45524332303a206275726e20616d6f756e7420657863656564732062616c616e604482015261636560f01b6064820152608401610537565b6110af828261132c565b6001600160a01b038416600090815260016020526040812091909155600380548492906110dd90849061132c565b90915550506040518281526000906001600160a01b038516907fddf252ad1be2c89b69c2b068fc378daa952ba7f163c4a11628f55a4df523b3ef90602001610c24565b80356001600160a01b03811681146103fc57600080fd5b600060208284031215611148578081fd5b61115182611120565b9392505050565b6000806040838503121561116a578081fd5b61117383611120565b915061118160208401611120565b90509250929050565b60008060006060848603121561119e578081fd5b6111a784611120565b92506111b560208501611120565b9150604084013590509250925092565b600080600080600080600060e0888a0312156111df578283fd5b6111e888611120565b96506111f660208901611120565b95506040880135945060608801359350608088013560ff81168114611219578384fd5b9699959850939692959460a0840135945060c09093013592915050565b60008060408385031215611248578182fd5b61125183611120565b946020939093013593505050565b600060208284031215611270578081fd5b5035919050565b60008060408385031215611289578182fd5b8235915061118160208401611120565b6000602082840312156112aa578081fd5b81356001600160e01b031981168114611151578182fd5b6000602080835283518082850152825b818110156112ed578581018301518582016040015282016112d1565b818111156112fe5783604083870101525b50601f01601f1916929092016040019392505050565b6000821982111561132757611327611399565b500190565b60008282101561133e5761133e611399565b500390565b60028104600182168061135757607f821691505b6020821081141561137857634e487b7160e01b600052602260045260246000fd5b50919050565b600060001982141561139257611392611399565b5060010190565b634e487b7160e01b600052601160045260246000fdfea26469706673582212206e2a1e7e2b5546fe4beba2fc926f82b77c4d1cbd108d393f74195c9f151464f464736f6c63430008020033a26469706673582212208628232c1d1b3337c9629a42f620b40b35fd5f15413a2f70ee357c085416826164736f6c63430008020033",
  "immutableReferences": {},
  "source": "// SPDX-License-Identifier: MIT\npragma solidity ^0.8.2;\n\nimport \"@openzeppelin/contracts/token/ERC20/IERC20.sol\";\nimport \"@openzeppelin/contracts/token/ERC20/utils/SafeERC20.sol\";\nimport \"../interfaces/IWhiteLightAggregator.sol\";\nimport \"../interfaces/IWhiteLightDebridge.sol\";\nimport \"./WhiteDebridge.sol\";\n\ncontract WhiteLightDebridge is WhiteDebridge, IWhiteLightDebridge {\n    using SafeERC20 for IERC20;\n\n    address public aggregatorAddr;\n\n    /// @dev Constructor that initializes the most important configurations.\n    /// @param _minAmount Minimal amount of current chain token to be wrapped.\n    /// @param _transferFee Transfer fee rate.\n    /// @param _minReserves Minimal reserve ratio.\n    /// @param _aggregator Submission aggregator address.\n    /// @param _supportedChainIds Chain ids where native token of the current chain can be wrapped.\n    constructor(\n        uint256 _minAmount,\n        uint256 _transferFee,\n        uint256 _minReserves,\n        address _aggregator,\n        uint256[] memory _supportedChainIds,\n        IWETH _weth,\n        IFeeProxy _feeProxy,\n        IDefiController _defiController\n    )\n        WhiteDebridge(\n            _minAmount,\n            _transferFee,\n            _minReserves,\n            _aggregator,\n            _supportedChainIds,\n            _weth,\n            _feeProxy,\n            _defiController\n        )\n    {}\n\n    /// @dev Mints wrapped asset on the current chain.\n    /// @param _debridgeId Asset identifier.\n    /// @param _receiver Receiver address.\n    /// @param _amount Amount of the transfered asset (note: without applyed fee).\n    /// @param _nonce Submission id.\n    /// @param _trxData Array of transactions by oracles of 2 elements - payload up to the receiver address and the signature bytes.\n    function mint(\n        bytes32 _debridgeId,\n        address _receiver,\n        uint256 _amount,\n        uint256 _nonce,\n        bytes[2][] calldata _trxData\n    ) external override {\n        bytes32 mintId =\n            getSubmisionId(_debridgeId, _amount, _receiver, _nonce);\n        require(\n            IWhiteLightAggregator(aggregator).submitMint(mintId, _trxData),\n            \"mint: not confirmed\"\n        );\n        _mint(mintId, _debridgeId, _receiver, _amount);\n    }\n\n    /// @dev Unlock the asset on the current chain and transfer to receiver.\n    /// @param _debridgeId Asset identifier.\n    /// @param _receiver Receiver address.\n    /// @param _amount Amount of the transfered asset (note: the fee can be applyed).\n    /// @param _nonce Submission id.\n    /// @param _trxData Array of transactions by oracles of 2 elements - payload up to the receiver address and the signature bytes.\n    function claim(\n        bytes32 _debridgeId,\n        address _receiver,\n        uint256 _amount,\n        uint256 _nonce,\n        bytes[2][] calldata _trxData\n    ) external override {\n        bytes32 burntId =\n            getSubmisionId(_debridgeId, _amount, _receiver, _nonce);\n        require(\n            IWhiteLightAggregator(aggregator).submitBurn(burntId, _trxData),\n            \"claim: not confirmed\"\n        );\n        _claim(burntId, _debridgeId, _receiver, _amount);\n    }\n}\n",
  "sourcePath": "/Users/kstasi/Documents/side/debridge-contracts/contracts/transfers/WhiteLightDebridge.sol",
  "compiler": {
    "name": "solc",
    "version": "0.8.2+commit.661d1103.Emscripten.clang"
  },
  "schemaVersion": "3.3.4",
  "updatedAt": "2021-04-15T06:15:27.298Z",
  "devdoc": {
    "kind": "dev",
    "methods": {
      "addExternalAsset(address,uint256,uint256,uint256,uint256,uint256[],string,string)": {
        "details": "Add support for the asset from the other chain, deploy new wrapped asset.",
        "params": {
          "_chainId": "Current chain id.",
          "_minAmount": "Minimal amount of the asset to be wrapped.",
          "_minReserves": "Minimal reserve ration.",
          "_name": "Wrapped asset name.",
          "_supportedChainIds": "Chain ids where the token of the current chain can be transfered.",
          "_symbol": "Wrapped asset symbol.",
          "_tokenAddress": "Address of the asset on the other chain.",
          "_transferFee": "Transfer fee rate."
        }
      },
      "addNativeAsset(address,uint256,uint256,uint256,uint256[])": {
        "details": "Add support for the asset on the current chain.",
        "params": {
          "_minAmount": "Minimal amount of current chain token to be wrapped.",
          "_minReserves": "Minimal reserve ration.",
          "_supportedChainIds": "Chain ids where native token of the current chain can be wrapped.",
          "_tokenAddress": "Address of the asset on the current chain.",
          "_transferFee": "Transfer fee rate."
        }
      },
      "burn(bytes32,address,uint256)": {
        "details": "Burns wrapped asset and allowss to claim it on the other chain.",
        "params": {
          "_amount": "Amount of the transfered asset (note: the fee can be applyed).",
          "_debridgeId": "Asset identifier.",
          "_receiver": "Receiver address."
        }
      },
      "claim(bytes32,address,uint256,uint256,bytes[2][])": {
        "details": "Unlock the asset on the current chain and transfer to receiver.",
        "params": {
          "_amount": "Amount of the transfered asset (note: the fee can be applyed).",
          "_debridgeId": "Asset identifier.",
          "_nonce": "Submission id.",
          "_receiver": "Receiver address.",
          "_trxData": "Array of transactions by oracles of 2 elements - payload up to the receiver address and the signature bytes."
        }
      },
      "constructor": {
        "details": "Constructor that initializes the most important configurations.",
        "params": {
          "_aggregator": "Submission aggregator address.",
          "_minAmount": "Minimal amount of current chain token to be wrapped.",
          "_minReserves": "Minimal reserve ratio.",
          "_supportedChainIds": "Chain ids where native token of the current chain can be wrapped.",
          "_transferFee": "Transfer fee rate."
        }
      },
      "fundAggregator(bytes32,uint256)": {
        "details": "Fund aggregator.",
        "params": {
          "_amount": "Submission aggregator address.",
          "_debridgeId": "Asset identifier."
        }
      },
      "getBalance(address)": {
        "details": "Check the balance.",
        "params": {
          "_tokenAddress": "Address of the asset on the other chain."
        }
      },
      "getDebridgeId(uint256,address)": {
        "details": "Calculates asset identifier.",
        "params": {
          "_chainId": "Current chain id.",
          "_tokenAddress": "Address of the asset on the other chain."
        }
      },
      "getRoleAdmin(bytes32)": {
        "details": "Returns the admin role that controls `role`. See {grantRole} and {revokeRole}. To change a role's admin, use {_setRoleAdmin}."
      },
      "getSubmisionId(bytes32,uint256,address,uint256)": {
        "details": "Calculate submission id.",
        "params": {
          "_amount": "Amount of the transfered asset (note: the fee can be applyed).",
          "_debridgeId": "Asset identifier.",
          "_nonce": "Submission id.",
          "_receiver": "Receiver address."
        }
      },
      "getSupportedChainIds(bytes32)": {
        "details": "Get all supported chain ids.",
        "params": {
          "_debridgeId": "Asset identifier."
        }
      },
      "grantRole(bytes32,address)": {
        "details": "Grants `role` to `account`. If `account` had not been already granted `role`, emits a {RoleGranted} event. Requirements: - the caller must have ``role``'s admin role."
      },
      "hasRole(bytes32,address)": {
        "details": "Returns `true` if `account` has been granted `role`."
      },
      "mint(bytes32,address,uint256,uint256,bytes[2][])": {
        "details": "Mints wrapped asset on the current chain.",
        "params": {
          "_amount": "Amount of the transfered asset (note: without applyed fee).",
          "_debridgeId": "Asset identifier.",
          "_nonce": "Submission id.",
          "_receiver": "Receiver address.",
          "_trxData": "Array of transactions by oracles of 2 elements - payload up to the receiver address and the signature bytes."
        }
      },
      "renounceRole(bytes32,address)": {
        "details": "Revokes `role` from the calling account. Roles are often managed via {grantRole} and {revokeRole}: this function's purpose is to provide a mechanism for accounts to lose their privileges if they are compromised (such as when a trusted device is misplaced). If the calling account had been granted `role`, emits a {RoleRevoked} event. Requirements: - the caller must be `account`."
      },
      "requestReserves(address,uint256)": {
        "details": "Request the assets to be used in defi protocol.",
        "params": {
          "_amount": "Amount of tokens to request.",
          "_tokenAddress": "Asset address."
        }
      },
      "returnReserves(address,uint256)": {
        "details": "Return the assets that were used in defi protocol.",
        "params": {
          "_amount": "Amount of tokens to claim.",
          "_tokenAddress": "Asset address."
        }
      },
      "revokeRole(bytes32,address)": {
        "details": "Revokes `role` from `account`. If `account` had been granted `role`, emits a {RoleRevoked} event. Requirements: - the caller must have ``role``'s admin role."
      },
      "send(bytes32,address,uint256,uint256)": {
        "details": "Locks asset on the chain and enables minting on the other chain.",
        "params": {
          "_amount": "Amount to be transfered (note: the fee can be applyed).",
          "_chainIdTo": "Chain id of the target chain.",
          "_debridgeId": "Asset identifier.",
          "_receiver": "Receiver address."
        }
      },
      "setAggregator(address)": {
        "details": "Set aggregator address.",
        "params": {
          "_aggregator": "Submission aggregator address."
        }
      },
      "setChainIdSupport(bytes32,uint256,bool)": {
        "details": "Set support for the chains where the token can be transfered.",
        "params": {
          "_chainId": "Current chain id.",
          "_debridgeId": "Asset identifier.",
          "_isSupported": "Whether the token is transferable to the other chain."
        }
      },
      "setDefiController(address)": {
        "details": "Set defi controoler.",
        "params": {
          "_defiController": "Defi controller address address."
        }
      },
      "setFeeProxy(address)": {
        "details": "Set fee converter proxy.",
        "params": {
          "_feeProxy": "Fee proxy address."
        }
      },
      "setWeth(address)": {
        "details": "Set wrapped native asset address.",
        "params": {
          "_weth": "Weth address."
        }
      },
      "supportsInterface(bytes4)": {
        "details": "See {IERC165-supportsInterface}."
      },
      "withdrawFee(bytes32,address,uint256)": {
        "details": "Withdraw fees.",
        "params": {
          "_amount": "Amount of tokens to withdraw.",
          "_debridgeId": "Asset identifier.",
          "_receiver": "Receiver address."
        }
      }
    },
    "version": 1
  },
  "userdoc": {
    "kind": "user",
    "methods": {},
    "version": 1
  }
}