{
  "contractName": "WhiteDebridge",
  "abi": [
    {
      "inputs": [
        {
          "internalType": "uint256",
          "name": "_minAmount",
          "type": "uint256"
        },
        {
          "internalType": "uint256",
          "name": "_transferFee",
          "type": "uint256"
        },
        {
          "internalType": "contract IWhiteAggregator",
          "name": "_aggregator",
          "type": "address"
        },
        {
          "internalType": "uint256[]",
          "name": "_supportedChainIds",
          "type": "uint256[]"
        },
        {
          "internalType": "contract IWETH",
          "name": "_weth",
          "type": "address"
        },
        {
          "internalType": "contract IFeeProxy",
          "name": "_feeProxy",
          "type": "address"
        },
        {
          "internalType": "contract IDefiController",
          "name": "_defiController",
          "type": "address"
        }
      ],
      "stateMutability": "nonpayable",
      "type": "constructor"
    },
    {
      "anonymous": false,
      "inputs": [
        {
          "indexed": false,
          "internalType": "bytes32",
          "name": "burntId",
          "type": "bytes32"
        },
        {
          "indexed": false,
          "internalType": "bytes32",
          "name": "debridgeId",
          "type": "bytes32"
        },
        {
          "indexed": false,
          "internalType": "uint256",
          "name": "amount",
          "type": "uint256"
        },
        {
          "indexed": false,
          "internalType": "address",
          "name": "receiver",
          "type": "address"
        },
        {
          "indexed": false,
          "internalType": "uint256",
          "name": "nonce",
          "type": "uint256"
        },
        {
          "indexed": false,
          "internalType": "uint256",
          "name": "chainIdTo",
          "type": "uint256"
        }
      ],
      "name": "Burnt",
      "type": "event"
    },
    {
      "anonymous": false,
      "inputs": [
        {
          "indexed": false,
          "internalType": "uint256",
          "name": "amount",
          "type": "uint256"
        },
        {
          "indexed": false,
          "internalType": "address",
          "name": "receiver",
          "type": "address"
        },
        {
          "indexed": false,
          "internalType": "bytes32",
          "name": "debridgeId",
          "type": "bytes32"
        }
      ],
      "name": "Claimed",
      "type": "event"
    },
    {
      "anonymous": false,
      "inputs": [
        {
          "indexed": false,
          "internalType": "uint256",
          "name": "amount",
          "type": "uint256"
        },
        {
          "indexed": false,
          "internalType": "address",
          "name": "receiver",
          "type": "address"
        },
        {
          "indexed": false,
          "internalType": "bytes32",
          "name": "debridgeId",
          "type": "bytes32"
        }
      ],
      "name": "Minted",
      "type": "event"
    },
    {
      "anonymous": false,
      "inputs": [
        {
          "indexed": true,
          "internalType": "bytes32",
          "name": "role",
          "type": "bytes32"
        },
        {
          "indexed": true,
          "internalType": "bytes32",
          "name": "previousAdminRole",
          "type": "bytes32"
        },
        {
          "indexed": true,
          "internalType": "bytes32",
          "name": "newAdminRole",
          "type": "bytes32"
        }
      ],
      "name": "RoleAdminChanged",
      "type": "event"
    },
    {
      "anonymous": false,
      "inputs": [
        {
          "indexed": true,
          "internalType": "bytes32",
          "name": "role",
          "type": "bytes32"
        },
        {
          "indexed": true,
          "internalType": "address",
          "name": "account",
          "type": "address"
        },
        {
          "indexed": true,
          "internalType": "address",
          "name": "sender",
          "type": "address"
        }
      ],
      "name": "RoleGranted",
      "type": "event"
    },
    {
      "anonymous": false,
      "inputs": [
        {
          "indexed": true,
          "internalType": "bytes32",
          "name": "role",
          "type": "bytes32"
        },
        {
          "indexed": true,
          "internalType": "address",
          "name": "account",
          "type": "address"
        },
        {
          "indexed": true,
          "internalType": "address",
          "name": "sender",
          "type": "address"
        }
      ],
      "name": "RoleRevoked",
      "type": "event"
    },
    {
      "anonymous": false,
      "inputs": [
        {
          "indexed": false,
          "internalType": "bytes32",
          "name": "sentId",
          "type": "bytes32"
        },
        {
          "indexed": false,
          "internalType": "bytes32",
          "name": "debridgeId",
          "type": "bytes32"
        },
        {
          "indexed": false,
          "internalType": "uint256",
          "name": "amount",
          "type": "uint256"
        },
        {
          "indexed": false,
          "internalType": "address",
          "name": "receiver",
          "type": "address"
        },
        {
          "indexed": false,
          "internalType": "uint256",
          "name": "nonce",
          "type": "uint256"
        },
        {
          "indexed": false,
          "internalType": "uint256",
          "name": "chainIdTo",
          "type": "uint256"
        }
      ],
      "name": "Sent",
      "type": "event"
    },
    {
      "inputs": [],
      "name": "DEFAULT_ADMIN_ROLE",
      "outputs": [
        {
          "internalType": "bytes32",
          "name": "",
          "type": "bytes32"
        }
      ],
      "stateMutability": "view",
      "type": "function"
    },
    {
      "inputs": [],
      "name": "DENOMINATOR",
      "outputs": [
        {
          "internalType": "uint256",
          "name": "",
          "type": "uint256"
        }
      ],
      "stateMutability": "view",
      "type": "function"
    },
    {
      "inputs": [],
      "name": "aggregator",
      "outputs": [
        {
          "internalType": "contract IWhiteAggregator",
          "name": "",
          "type": "address"
        }
      ],
      "stateMutability": "view",
      "type": "function"
    },
    {
      "inputs": [],
      "name": "chainId",
      "outputs": [
        {
          "internalType": "uint256",
          "name": "",
          "type": "uint256"
        }
      ],
      "stateMutability": "view",
      "type": "function"
    },
    {
      "inputs": [],
      "name": "defiController",
      "outputs": [
        {
          "internalType": "contract IDefiController",
          "name": "",
          "type": "address"
        }
      ],
      "stateMutability": "view",
      "type": "function"
    },
    {
      "inputs": [],
      "name": "feeProxy",
      "outputs": [
        {
          "internalType": "contract IFeeProxy",
          "name": "",
          "type": "address"
        }
      ],
      "stateMutability": "view",
      "type": "function"
    },
    {
      "inputs": [
        {
          "internalType": "bytes32",
          "name": "",
          "type": "bytes32"
        }
      ],
      "name": "getDebridge",
      "outputs": [
        {
          "internalType": "address",
          "name": "tokenAddress",
          "type": "address"
        },
        {
          "internalType": "uint256",
          "name": "chainId",
          "type": "uint256"
        },
        {
          "internalType": "uint256",
          "name": "minAmount",
          "type": "uint256"
        },
        {
          "internalType": "uint256",
          "name": "transferFee",
          "type": "uint256"
        },
        {
          "internalType": "uint256",
          "name": "collectedFees",
          "type": "uint256"
        },
        {
          "internalType": "uint256",
          "name": "balance",
          "type": "uint256"
        },
        {
          "internalType": "uint256",
          "name": "minReserves",
          "type": "uint256"
        }
      ],
      "stateMutability": "view",
      "type": "function"
    },
    {
      "inputs": [
        {
          "internalType": "bytes32",
          "name": "role",
          "type": "bytes32"
        }
      ],
      "name": "getRoleAdmin",
      "outputs": [
        {
          "internalType": "bytes32",
          "name": "",
          "type": "bytes32"
        }
      ],
      "stateMutability": "view",
      "type": "function"
    },
    {
      "inputs": [
        {
          "internalType": "address",
          "name": "",
          "type": "address"
        }
      ],
      "name": "getUserNonce",
      "outputs": [
        {
          "internalType": "uint256",
          "name": "",
          "type": "uint256"
        }
      ],
      "stateMutability": "view",
      "type": "function"
    },
    {
      "inputs": [
        {
          "internalType": "bytes32",
          "name": "role",
          "type": "bytes32"
        },
        {
          "internalType": "address",
          "name": "account",
          "type": "address"
        }
      ],
      "name": "grantRole",
      "outputs": [],
      "stateMutability": "nonpayable",
      "type": "function"
    },
    {
      "inputs": [
        {
          "internalType": "bytes32",
          "name": "role",
          "type": "bytes32"
        },
        {
          "internalType": "address",
          "name": "account",
          "type": "address"
        }
      ],
      "name": "hasRole",
      "outputs": [
        {
          "internalType": "bool",
          "name": "",
          "type": "bool"
        }
      ],
      "stateMutability": "view",
      "type": "function"
    },
    {
      "inputs": [
        {
          "internalType": "bytes32",
          "name": "",
          "type": "bytes32"
        }
      ],
      "name": "isSubmissionUsed",
      "outputs": [
        {
          "internalType": "bool",
          "name": "",
          "type": "bool"
        }
      ],
      "stateMutability": "view",
      "type": "function"
    },
    {
      "inputs": [
        {
          "internalType": "bytes32",
          "name": "role",
          "type": "bytes32"
        },
        {
          "internalType": "address",
          "name": "account",
          "type": "address"
        }
      ],
      "name": "renounceRole",
      "outputs": [],
      "stateMutability": "nonpayable",
      "type": "function"
    },
    {
      "inputs": [
        {
          "internalType": "bytes32",
          "name": "role",
          "type": "bytes32"
        },
        {
          "internalType": "address",
          "name": "account",
          "type": "address"
        }
      ],
      "name": "revokeRole",
      "outputs": [],
      "stateMutability": "nonpayable",
      "type": "function"
    },
    {
      "inputs": [
        {
          "internalType": "bytes4",
          "name": "interfaceId",
          "type": "bytes4"
        }
      ],
      "name": "supportsInterface",
      "outputs": [
        {
          "internalType": "bool",
          "name": "",
          "type": "bool"
        }
      ],
      "stateMutability": "view",
      "type": "function"
    },
    {
      "inputs": [],
      "name": "weth",
      "outputs": [
        {
          "internalType": "contract IWETH",
          "name": "",
          "type": "address"
        }
      ],
      "stateMutability": "view",
      "type": "function"
    },
    {
      "inputs": [
        {
          "internalType": "bytes32",
          "name": "_debridgeId",
          "type": "bytes32"
        },
        {
          "internalType": "address",
          "name": "_receiver",
          "type": "address"
        },
        {
          "internalType": "uint256",
          "name": "_amount",
          "type": "uint256"
        },
        {
          "internalType": "uint256",
          "name": "_chainIdTo",
          "type": "uint256"
        }
      ],
      "name": "send",
      "outputs": [],
      "stateMutability": "payable",
      "type": "function"
    },
    {
      "inputs": [
        {
          "internalType": "bytes32",
          "name": "_debridgeId",
          "type": "bytes32"
        },
        {
          "internalType": "address",
          "name": "_receiver",
          "type": "address"
        },
        {
          "internalType": "uint256",
          "name": "_amount",
          "type": "uint256"
        },
        {
          "internalType": "uint256",
          "name": "_nonce",
          "type": "uint256"
        }
      ],
      "name": "mint",
      "outputs": [],
      "stateMutability": "nonpayable",
      "type": "function"
    },
    {
      "inputs": [
        {
          "internalType": "bytes32",
          "name": "_debridgeId",
          "type": "bytes32"
        },
        {
          "internalType": "address",
          "name": "_receiver",
          "type": "address"
        },
        {
          "internalType": "uint256",
          "name": "_amount",
          "type": "uint256"
        }
      ],
      "name": "burn",
      "outputs": [],
      "stateMutability": "nonpayable",
      "type": "function"
    },
    {
      "inputs": [
        {
          "internalType": "bytes32",
          "name": "_debridgeId",
          "type": "bytes32"
        },
        {
          "internalType": "address",
          "name": "_receiver",
          "type": "address"
        },
        {
          "internalType": "uint256",
          "name": "_amount",
          "type": "uint256"
        },
        {
          "internalType": "uint256",
          "name": "_nonce",
          "type": "uint256"
        }
      ],
      "name": "claim",
      "outputs": [],
      "stateMutability": "nonpayable",
      "type": "function"
    },
    {
      "inputs": [
        {
          "internalType": "address",
          "name": "_tokenAddress",
          "type": "address"
        },
        {
          "internalType": "uint256",
          "name": "_minAmount",
          "type": "uint256"
        },
        {
          "internalType": "uint256",
          "name": "_transferFee",
          "type": "uint256"
        },
        {
          "internalType": "uint256[]",
          "name": "_supportedChainIds",
          "type": "uint256[]"
        }
      ],
      "name": "addNativelAsset",
      "outputs": [],
      "stateMutability": "nonpayable",
      "type": "function"
    },
    {
      "inputs": [
        {
          "internalType": "address",
          "name": "_tokenAddress",
          "type": "address"
        },
        {
          "internalType": "uint256",
          "name": "_chainId",
          "type": "uint256"
        },
        {
          "internalType": "uint256",
          "name": "_minAmount",
          "type": "uint256"
        },
        {
          "internalType": "uint256",
          "name": "_transferFee",
          "type": "uint256"
        },
        {
          "internalType": "uint256[]",
          "name": "_supportedChainIds",
          "type": "uint256[]"
        },
        {
          "internalType": "string",
          "name": "_name",
          "type": "string"
        },
        {
          "internalType": "string",
          "name": "_symbol",
          "type": "string"
        }
      ],
      "name": "addExternalAsset",
      "outputs": [],
      "stateMutability": "nonpayable",
      "type": "function"
    },
    {
      "inputs": [
        {
          "internalType": "bytes32",
          "name": "_debridgeId",
          "type": "bytes32"
        },
        {
          "internalType": "uint256",
          "name": "_chainId",
          "type": "uint256"
        },
        {
          "internalType": "bool",
          "name": "_isSupported",
          "type": "bool"
        }
      ],
      "name": "setChainIdSupport",
      "outputs": [],
      "stateMutability": "nonpayable",
      "type": "function"
    },
    {
      "inputs": [
        {
          "internalType": "contract IWhiteAggregator",
          "name": "_aggregator",
          "type": "address"
        }
      ],
      "name": "setAggregator",
      "outputs": [],
      "stateMutability": "nonpayable",
      "type": "function"
    },
    {
      "inputs": [
        {
          "internalType": "contract IFeeProxy",
          "name": "_feeProxy",
          "type": "address"
        }
      ],
      "name": "setFeeProxy",
      "outputs": [],
      "stateMutability": "nonpayable",
      "type": "function"
    },
    {
      "inputs": [
        {
          "internalType": "contract IDefiController",
          "name": "_defiController",
          "type": "address"
        }
      ],
      "name": "setDefiController",
      "outputs": [],
      "stateMutability": "nonpayable",
      "type": "function"
    },
    {
      "inputs": [
        {
          "internalType": "contract IWETH",
          "name": "_weth",
          "type": "address"
        }
      ],
      "name": "setWeth",
      "outputs": [],
      "stateMutability": "nonpayable",
      "type": "function"
    },
    {
      "inputs": [
        {
          "internalType": "bytes32",
          "name": "_debridgeId",
          "type": "bytes32"
        },
        {
          "internalType": "address",
          "name": "_receiver",
          "type": "address"
        },
        {
          "internalType": "uint256",
          "name": "_amount",
          "type": "uint256"
        }
      ],
      "name": "withdrawFee",
      "outputs": [],
      "stateMutability": "nonpayable",
      "type": "function"
    },
    {
      "inputs": [
        {
          "internalType": "address",
          "name": "_tokenAddress",
          "type": "address"
        },
        {
          "internalType": "uint256",
          "name": "_amount",
          "type": "uint256"
        }
      ],
      "name": "requestReserves",
      "outputs": [],
      "stateMutability": "nonpayable",
      "type": "function"
    },
    {
      "inputs": [
        {
          "internalType": "address",
          "name": "_tokenAddress",
          "type": "address"
        },
        {
          "internalType": "uint256",
          "name": "_amount",
          "type": "uint256"
        }
      ],
      "name": "returnReserves",
      "outputs": [],
      "stateMutability": "payable",
      "type": "function"
    },
    {
      "inputs": [
        {
          "internalType": "bytes32",
          "name": "_debridgeId",
          "type": "bytes32"
        },
        {
          "internalType": "uint256",
          "name": "_amount",
          "type": "uint256"
        }
      ],
      "name": "fundAggregator",
      "outputs": [],
      "stateMutability": "nonpayable",
      "type": "function"
    },
    {
      "inputs": [
        {
          "internalType": "uint256",
          "name": "_chainId",
          "type": "uint256"
        },
        {
          "internalType": "address",
          "name": "_tokenAddress",
          "type": "address"
        }
      ],
      "name": "getDebridgeId",
      "outputs": [
        {
          "internalType": "bytes32",
          "name": "",
          "type": "bytes32"
        }
      ],
      "stateMutability": "pure",
      "type": "function"
    },
    {
      "inputs": [
        {
          "internalType": "bytes32",
          "name": "_debridgeId",
          "type": "bytes32"
        },
        {
          "internalType": "uint256",
          "name": "_amount",
          "type": "uint256"
        },
        {
          "internalType": "address",
          "name": "_receiver",
          "type": "address"
        },
        {
          "internalType": "uint256",
          "name": "_nonce",
          "type": "uint256"
        }
      ],
      "name": "getSubmisionId",
      "outputs": [
        {
          "internalType": "bytes32",
          "name": "",
          "type": "bytes32"
        }
      ],
      "stateMutability": "pure",
      "type": "function"
    }
  ],
  "bytecode": "0x60806040523480156200001157600080fd5b5060405162004d4938038062004d4983398101604081905262000034916200028a565b4660018190556000620000488282620000c0565b9050620000638160006001548c8c8b6200010a60201b60201c565b600280546001600160a01b03808a166001600160a01b03199283161790925560058054888416908316179055600380548784169216919091179055600454169250620000b1600033620001c8565b50505050505050505062000413565b60008282604051602001620000ec92919091825260601b6001600160601b031916602082015260340190565b60405160208183030381529060405280519060200120905092915050565b600086815260066020526040812080546001600160a01b0319166001600160a01b038816178155600181018690556002810185905560038101849055905b8251811015620001be5760018260070160008584815181106200017b57634e487b7160e01b600052603260045260246000fd5b6020026020010151815260200190815260200160002060006101000a81548160ff0219169083151502179055508080620001b590620003bc565b91505062000148565b5050505050505050565b620001d48282620001d8565b5050565b6000828152602081815260408083206001600160a01b038516845290915290205460ff16620001d4576000828152602081815260408083206001600160a01b03851684529091529020805460ff19166001179055620002343390565b6001600160a01b0316816001600160a01b0316837f2f8788117e7eff1d82e926ec794901d17c78024a50270940304540a733656f0d60405160405180910390a45050565b80516200028581620003fa565b919050565b600080600080600080600060e0888a031215620002a5578283fd5b8751965060208089015196506040890151620002c181620003fa565b60608a01519096506001600160401b0380821115620002de578586fd5b818b0191508b601f830112620002f2578586fd5b815181811115620003075762000307620003e4565b838102604051601f19603f830116810181811085821117156200032e576200032e620003e4565b806040525080935082815285810193508585018f878488010111156200035257898afd5b8995505b838610156200037657805185526001959095019493860193860162000356565b508099505050505050506200038e6080890162000278565b92506200039e60a0890162000278565b9150620003ae60c0890162000278565b905092959891949750929550565b6000600019821415620003dd57634e487b7160e01b81526011600452602481fd5b5060010190565b634e487b7160e01b600052604160045260246000fd5b6001600160a01b03811681146200041057600080fd5b50565b61492680620004236000396000f3fe608060405260043610620002305760003560e01c806365ac9f7811620001395780639a8a059211620000c1578063ba9f7776116200008b578063be7f2184116200006d578063be7f2184146200079f578063d547741f14620007c4578063f9120af614620007e95762000230565b8063ba9f77761462000708578063bc23a2c0146200072a5762000230565b80639a8a0592146200068f5780639e70290114620006a7578063a217fddf14620006cc578063b8d1452f14620006e35762000230565b806383d3f95d116200010357806383d3f95d14620005df578063918f8674146200060457806391d1485414620006225780639682b909146200066a5762000230565b806365ac9f78146200053e57806366e1aef514620005725780636834e3a814620005975780636b063d6514620005c85762000230565b806325be0be111620001bd5780633fc8cef311620001875780633fc8cef3146200042e57806346144c8f146200045057806357cf07ca14620004725780635bd5a95e14620005195762000230565b806325be0be1146200039a5780632f2ff15d14620003bf578063346a907414620003e457806336568abe14620004095762000230565b8063106f432f11620001ff578063106f432f14620002d257806317bb58e314620002f7578063245a7bfc146200031c578063248a9ca314620003575762000230565b806301ffc9a71462000235578063031ac613146200026f57806309bd39a714620002885780630a0e5e9a14620002ad575b600080fd5b3480156200024257600080fd5b506200025a6200025436600462002cc8565b6200080e565b60405190151581526020015b60405180910390f35b620002866200028036600462002beb565b62000878565b005b3480156200029557600080fd5b5062000286620002a736600462002a87565b62000b85565b348015620002ba57600080fd5b5062000286620002cc36600462002c8d565b62000c65565b348015620002df57600080fd5b5062000286620002f1366004620029d3565b62000d09565b3480156200030457600080fd5b50620002866200031636600462002a20565b62000da1565b3480156200032957600080fd5b506002546200033e906001600160a01b031681565b6040516001600160a01b03909116815260200162000266565b3480156200036457600080fd5b506200038b6200037636600462002b66565b60009081526020819052604090206001015490565b60405190815260200162000266565b348015620003a757600080fd5b5062000286620003b9366004620029d3565b62000e42565b348015620003cc57600080fd5b5062000286620003de36600462002b7f565b62000eda565b348015620003f157600080fd5b50620002866200040336600462002bb1565b62000f7d565b3480156200041657600080fd5b50620002866200042836600462002b7f565b62001236565b3480156200043b57600080fd5b506005546200033e906001600160a01b031681565b3480156200045d57600080fd5b506004546200033e906001600160a01b031681565b3480156200047f57600080fd5b50620004d96200049136600462002b66565b600660208190526000918252604090912080546001820154600283015460038401546004850154600586015495909601546001600160a01b0390941695929491939092919087565b604080516001600160a01b0390981688526020880196909652948601939093526060850191909152608084015260a083015260c082015260e00162000266565b3480156200052657600080fd5b50620002866200053836600462002c2a565b620012c2565b3480156200054b57600080fd5b506200025a6200055d36600462002b66565b60076020526000908152604090205460ff1681565b3480156200057f57600080fd5b50620002866200059136600462002beb565b62001650565b348015620005a457600080fd5b506200038b620005b6366004620029d3565b60086020526000908152604090205481565b62000286620005d9366004620029f2565b6200199d565b348015620005ec57600080fd5b5062000286620005fe36600462002bb1565b62001a8e565b3480156200061157600080fd5b506200038b670de0b6b3a764000081565b3480156200062f57600080fd5b506200025a6200064136600462002b7f565b6000918252602082815260408084206001600160a01b0393909316845291905290205460ff1690565b3480156200067757600080fd5b506200038b6200068936600462002b7f565b62001c40565b3480156200069c57600080fd5b506200038b60015481565b348015620006b457600080fd5b5062000286620006c636600462002beb565b62001c8f565b348015620006d957600080fd5b506200038b600081565b348015620006f057600080fd5b506200028662000702366004620029d3565b62001f20565b3480156200071557600080fd5b506003546200033e906001600160a01b031681565b3480156200073757600080fd5b506200038b6200074936600462002c4c565b6040805160208101869052908101849052606083811b6bffffffffffffffffffffffff19169082015260748101829052600090609401604051602081830303815290604052805190602001209050949350505050565b348015620007ac57600080fd5b5062000286620007be366004620029f2565b62001fb8565b348015620007d157600080fd5b5062000286620007e336600462002b7f565b62002176565b348015620007f657600080fd5b506200028662000808366004620029d3565b62002207565b60006001600160e01b031982167f7965db0b0000000000000000000000000000000000000000000000000000000014806200087257507f01ffc9a7000000000000000000000000000000000000000000000000000000006001600160e01b03198316145b92915050565b6000848152600660205260409020600180549082015414620008e15760405162461bcd60e51b815260206004820152601c60248201527f73656e643a206e6f74206e617469766520636861696e20636861696e0000000060448201526064015b60405180910390fd5b600082815260078201602052604090205460ff16620009435760405162461bcd60e51b815260206004820152601f60248201527f73656e643a2077726f6e67207461726765642074617267657420636861696e006044820152606401620008d8565b8060020154831015620009995760405162461bcd60e51b815260206004820152601460248201527f73656e643a20616d6f756e7420746f6f206c6f770000000000000000000000006044820152606401620008d8565b80546001600160a01b031662000a0057348314620009fa5760405162461bcd60e51b815260206004820152601560248201527f73656e643a20616d6f756e74206d69736d6174636800000000000000000000006044820152606401620008d8565b62000a19565b805462000a19906001600160a01b03163330866200229f565b6000670de0b6b3a764000082600301548562000a36919062002df5565b62000a42919062002dd4565b9050801562000a76578082600401600082825462000a61919062002db9565b9091555062000a739050818562002e17565b93505b8382600501600082825462000a8c919062002db9565b90915550506001600160a01b0385166000818152600860209081526040918290205482518083018b905280840189905260608a811b6bffffffffffffffffffffffff19169082015260748082018390528451808303909101815260948201808652815191909401209283905260b481018b905260d4810189905260f4810194909452610114840181905261013484018790529151919290917f17c61cb89b62a3f29f5b150e3489c7a796ac4dc95fd73af14faa2c8086a324b491610154908290030190a16001600160a01b038716600090815260086020526040812080549162000b768362002e60565b91905055505050505050505050565b3360009081527fad3228b676f7d3cd4284a5443f17f1962b36e491b30a40b2405849e597ba5fb5602052604090205460ff1662000bfb5760405162461bcd60e51b81526020600482015260136024820152726f6e6c7941646d696e3a2062616420726f6c6560681b6044820152606401620008d8565b600062000c09878962001c40565b90506000838360405162000c1d90620028c8565b62000c2a92919062002d53565b604051809103906000f08015801562000c47573d6000803e3d6000fd5b50905062000c5a82828a8a8a8a62002321565b505050505050505050565b3360009081527fad3228b676f7d3cd4284a5443f17f1962b36e491b30a40b2405849e597ba5fb5602052604090205460ff1662000cdb5760405162461bcd60e51b81526020600482015260136024820152726f6e6c7941646d696e3a2062616420726f6c6560681b6044820152606401620008d8565b6000928352600660209081526040808520938552600790930190529120805460ff1916911515919091179055565b3360009081527fad3228b676f7d3cd4284a5443f17f1962b36e491b30a40b2405849e597ba5fb5602052604090205460ff1662000d7f5760405162461bcd60e51b81526020600482015260136024820152726f6e6c7941646d696e3a2062616420726f6c6560681b6044820152606401620008d8565b600480546001600160a01b0319166001600160a01b0392909216919091179055565b3360009081527fad3228b676f7d3cd4284a5443f17f1962b36e491b30a40b2405849e597ba5fb5602052604090205460ff1662000e175760405162461bcd60e51b81526020600482015260136024820152726f6e6c7941646d696e3a2062616420726f6c6560681b6044820152606401620008d8565b600062000e276001548662001c40565b905062000e3b818660015487878762002321565b5050505050565b3360009081527fad3228b676f7d3cd4284a5443f17f1962b36e491b30a40b2405849e597ba5fb5602052604090205460ff1662000eb85760405162461bcd60e51b81526020600482015260136024820152726f6e6c7941646d696e3a2062616420726f6c6560681b6044820152606401620008d8565b600380546001600160a01b0319166001600160a01b0392909216919091179055565b60008281526020819052604090206001015462000ef9905b3362000641565b62000f6d5760405162461bcd60e51b815260206004820152602f60248201527f416363657373436f6e74726f6c3a2073656e646572206d75737420626520616e60448201527f2061646d696e20746f206772616e7400000000000000000000000000000000006064820152608401620008d8565b62000f798282620023df565b5050565b60008381526006602052604090206001805490820154141562000fe35760405162461bcd60e51b815260206004820152601260248201527f6275726e3a206e617469766520617373657400000000000000000000000000006044820152606401620008d8565b8060020154821015620010395760405162461bcd60e51b815260206004820152601460248201527f6275726e3a20616d6f756e7420746f6f206c6f770000000000000000000000006044820152606401620008d8565b80546040516323b872dd60e01b8152336004820152306024820152604481018490526001600160a01b039091169081906323b872dd90606401602060405180830381600087803b1580156200108d57600080fd5b505af1158015620010a2573d6000803e3d6000fd5b505050506040513d601f19601f82011682018060405250810190620010c8919062002b47565b506040517f42966c68000000000000000000000000000000000000000000000000000000008152600481018490526001600160a01b038216906342966c6890602401600060405180830381600087803b1580156200112557600080fd5b505af11580156200113a573d6000803e3d6000fd5b505050506001600160a01b0384166000818152600860209081526040918290205482518083018a9052808401889052606089811b6bffffffffffffffffffffffff191690820152607480820183905284518083039091018152609482018086528151919094012060018801549381905260b482018b905260d4820189905260f4820195909552610114810182905261013481019290925291519192917fb8cc5195d548dc2781227c496b92d3736cd56d7f32b28971c9ae1e9eb0badf9591610154908290030190a16001600160a01b0386166000908152600860205260408120805491620012288362002e60565b919050555050505050505050565b6001600160a01b0381163314620012b65760405162461bcd60e51b815260206004820152602f60248201527f416363657373436f6e74726f6c3a2063616e206f6e6c792072656e6f756e636560448201527f20726f6c657320666f722073656c6600000000000000000000000000000000006064820152608401620008d8565b62000f7982826200247f565b3360009081527fad3228b676f7d3cd4284a5443f17f1962b36e491b30a40b2405849e597ba5fb5602052604090205460ff16620013385760405162461bcd60e51b81526020600482015260136024820152726f6e6c7941646d696e3a2062616420726f6c6560681b6044820152606401620008d8565b6000828152600660205260409020600180549082015414620013c35760405162461bcd60e51b815260206004820152602260248201527f66756e6441676772656761746f723a2077726f6e67207461726765742063686160448201527f696e0000000000000000000000000000000000000000000000000000000000006064820152608401620008d8565b8181600401541015620014195760405162461bcd60e51b815260206004820152601e60248201527f66756e6441676772656761746f723a206e6f7420656e6f7567682066656500006044820152606401620008d8565b818160040160008282546200142f919062002e17565b909155505080546001600160a01b0316620015b857600560009054906101000a90046001600160a01b03166001600160a01b031663d0e30db0836040518263ffffffff1660e01b81526004016000604051808303818588803b1580156200149557600080fd5b505af1158015620014aa573d6000803e3d6000fd5b505060055460035460405163a9059cbb60e01b81526001600160a01b039182166004820152602481018890529116935063a9059cbb92506044019050602060405180830381600087803b1580156200150157600080fd5b505af115801562001516573d6000803e3d6000fd5b505050506040513d601f19601f820116820180604052508101906200153c919062002b47565b50600354600554600254604051631acd461560e31b81526001600160a01b03928316600482015260248101869052908216604482015291169063d66a30a890606401600060405180830381600087803b1580156200159957600080fd5b505af1158015620015ae573d6000803e3d6000fd5b505050506200164b565b6003548154620015d6916001600160a01b03918216911684620024ff565b6003548154600254604051631acd461560e31b81526001600160a01b03928316600482015260248101869052908216604482015291169063d66a30a890606401600060405180830381600087803b1580156200163157600080fd5b505af115801562001646573d6000803e3d6000fd5b505050505b505050565b604080516020808201879052818301859052606086811b6bffffffffffffffffffffffff191690830152607480830185905283518084039091018152609490920190925280519101206000906002546040517fa61ece18000000000000000000000000000000000000000000000000000000008152600481018390529192506001600160a01b03169063a61ece189060240160206040518083038186803b158015620016fb57600080fd5b505afa15801562001710573d6000803e3d6000fd5b505050506040513d601f19601f8201168201806040525081019062001736919062002b47565b620017845760405162461bcd60e51b815260206004820152601460248201527f636c61696d3a206e6f7420636f6e6669726d65640000000000000000000000006044820152606401620008d8565b6000858152600660205260409020600180549082015414620017e95760405162461bcd60e51b815260206004820152601960248201527f636c61696d3a2077726f6e672074617267657420636861696e000000000000006044820152606401620008d8565b60008281526007602052604090205460ff16156200184a5760405162461bcd60e51b815260206004820152601360248201527f636c61696d3a20616c72656164792075736564000000000000000000000000006044820152606401620008d8565b6000828152600760205260408120805460ff191660011790556003820154670de0b6b3a7640000906200187e908762002df5565b6200188a919062002dd4565b905084826005016000828254620018a2919062002e17565b90915550508015620018d95780826004016000828254620018c4919062002db9565b90915550620018d69050818662002e17565b94505b620018e5828662002531565b81546001600160a01b031662001933576040516001600160a01b0387169086156108fc029087906000818181858888f193505050501580156200192c573d6000803e3d6000fd5b506200194b565b81546200194b906001600160a01b03168787620024ff565b604080518681526001600160a01b03881660208201529081018890527fbcb8b73e5a89971ee294cc3d2f51a084375b679f88047211b28c5344acb53df59060600160405180910390a150505050505050565b6004546001600160a01b03163314620019f95760405162461bcd60e51b815260206004820152601860248201527f64656669436f6e74726f6c6c65723a2062616420726f6c6500000000000000006044820152606401620008d8565b600062001a096001548462001c40565b60008181526006602052604090208054919250906001600160a01b031662001a4d573481600501600082825462001a41919062002db9565b9091555062001a889050565b600454815462001a6c916001600160a01b03918216911630866200229f565b8281600501600082825462001a82919062002db9565b90915550505b50505050565b3360009081527fad3228b676f7d3cd4284a5443f17f1962b36e491b30a40b2405849e597ba5fb5602052604090205460ff1662001b045760405162461bcd60e51b81526020600482015260136024820152726f6e6c7941646d696e3a2062616420726f6c6560681b6044820152606401620008d8565b600083815260066020526040902060018054908201541462001b695760405162461bcd60e51b815260206004820152601f60248201527f77697468647261774665653a2077726f6e672074617267657420636861696e006044820152606401620008d8565b818160040154101562001bbf5760405162461bcd60e51b815260206004820152601b60248201527f77697468647261774665653a206e6f7420656e6f7567682066656500000000006044820152606401620008d8565b8181600401600082825462001bd5919062002e17565b909155505080546001600160a01b031662001c28576040516001600160a01b0384169083156108fc029084906000818181858888f1935050505015801562001c21573d6000803e3d6000fd5b5062001a88565b805462001a88906001600160a01b03168484620024ff565b6000828260405160200162001c7192919091825260601b6bffffffffffffffffffffffff1916602082015260340190565b60405160208183030381529060405280519060200120905092915050565b604080516020808201879052818301859052606086811b6bffffffffffffffffffffffff191690830152607480830185905283518084039091018152609490920190925280519101206000906002546040517fa1e5c7b1000000000000000000000000000000000000000000000000000000008152600481018390529192506001600160a01b03169063a1e5c7b19060240160206040518083038186803b15801562001d3a57600080fd5b505afa15801562001d4f573d6000803e3d6000fd5b505050506040513d601f19601f8201168201806040525081019062001d75919062002b47565b62001dc35760405162461bcd60e51b815260206004820152601360248201527f6d696e743a206e6f7420636f6e6669726d6564000000000000000000000000006044820152606401620008d8565b60008181526007602052604090205460ff161562001e245760405162461bcd60e51b815260206004820152601260248201527f6d696e743a20616c7265616479207573656400000000000000000000000000006044820152606401620008d8565b6000858152600660209081526040808320848452600790925291829020805460ff19166001179055805491517f40c10f190000000000000000000000000000000000000000000000000000000081526001600160a01b03878116600483015260248201879052919291909116906340c10f1990604401600060405180830381600087803b15801562001eb557600080fd5b505af115801562001eca573d6000803e3d6000fd5b5050604080518781526001600160a01b03891660208201529081018990527f735d687607ce9e35b73121f5b238c4cd2854db103741adba51d670bb706051cc9250606001905060405180910390a1505050505050565b3360009081527fad3228b676f7d3cd4284a5443f17f1962b36e491b30a40b2405849e597ba5fb5602052604090205460ff1662001f965760405162461bcd60e51b81526020600482015260136024820152726f6e6c7941646d696e3a2062616420726f6c6560681b6044820152606401620008d8565b600580546001600160a01b0319166001600160a01b0392909216919091179055565b6004546001600160a01b03163314620020145760405162461bcd60e51b815260206004820152601860248201527f64656669436f6e74726f6c6c65723a2062616420726f6c6500000000000000006044820152606401620008d8565b6000620020246001548462001c40565b600081815260066020819052604082209081015460058201549394509092670de0b6b3a764000091620020579162002df5565b62002063919062002dd4565b600583015490915062002077858362002db9565b11620020eb5760405162461bcd60e51b8152602060048201526024808201527f7265717565737452657365727665733a206e6f7420656e6f756768207265736560448201527f72766573000000000000000000000000000000000000000000000000000000006064820152608401620008d8565b8382600501600082825462002101919062002e17565b909155505081546001600160a01b031662002158576004546040516001600160a01b039091169085156108fc029086906000818181858888f1935050505015801562002151573d6000803e3d6000fd5b5062000e3b565b600454825462000e3b916001600160a01b03918216911686620024ff565b600082815260208190526040902060010154620021939062000ef2565b620012b65760405162461bcd60e51b815260206004820152603060248201527f416363657373436f6e74726f6c3a2073656e646572206d75737420626520616e60448201527f2061646d696e20746f207265766f6b65000000000000000000000000000000006064820152608401620008d8565b3360009081527fad3228b676f7d3cd4284a5443f17f1962b36e491b30a40b2405849e597ba5fb5602052604090205460ff166200227d5760405162461bcd60e51b81526020600482015260136024820152726f6e6c7941646d696e3a2062616420726f6c6560681b6044820152606401620008d8565b600280546001600160a01b0319166001600160a01b0392909216919091179055565b6040516001600160a01b038085166024830152831660448201526064810182905262001a889085906323b872dd60e01b906084015b60408051601f198184030181529190526020810180517bffffffffffffffffffffffffffffffffffffffffffffffffffffffff166001600160e01b0319909316929092179091526200263a565b600086815260066020526040812080546001600160a01b0319166001600160a01b038816178155600181018690556002810185905560038101849055905b8251811015620023d55760018260070160008584815181106200239257634e487b7160e01b600052603260045260246000fd5b6020026020010151815260200190815260200160002060006101000a81548160ff0219169083151502179055508080620023cc9062002e60565b9150506200235f565b5050505050505050565b6000828152602081815260408083206001600160a01b038516845290915290205460ff1662000f79576000828152602081815260408083206001600160a01b03851684529091529020805460ff191660011790556200243b3390565b6001600160a01b0316816001600160a01b0316837f2f8788117e7eff1d82e926ec794901d17c78024a50270940304540a733656f0d60405160405180910390a45050565b6000828152602081815260408083206001600160a01b038516845290915290205460ff161562000f79576000828152602081815260408083206001600160a01b0385168085529252808320805460ff1916905551339285917ff6391f5c32d9c69d2a47ea670b442974b53935d1edc7fd64eb21e047a839171b9190a45050565b6040516001600160a01b0383166024820152604481018290526200164b90849063a9059cbb60e01b90606401620022d4565b6000670de0b6b3a76400008360060154846005015462002552919062002df5565b6200255e919062002dd4565b600584015490915062002572838362002db9565b10156200164b576000828285600501546200258e919062002e17565b6200259a919062002db9565b6004805486546040517f09e62b910000000000000000000000000000000000000000000000000000000081526001600160a01b03918216938101939093526024830184905292935091909116906309e62b9190604401600060405180830381600087803b1580156200260b57600080fd5b505af115801562002620573d6000803e3d6000fd5b505050508084600501600082825462001a82919062002db9565b600062002691826040518060400160405280602081526020017f5361666545524332303a206c6f772d6c6576656c2063616c6c206661696c6564815250856001600160a01b0316620027269092919063ffffffff16565b8051909150156200164b5780806020019051810190620026b2919062002b47565b6200164b5760405162461bcd60e51b815260206004820152602a60248201527f5361666545524332303a204552433230206f7065726174696f6e20646964206e60448201527f6f742073756363656564000000000000000000000000000000000000000000006064820152608401620008d8565b606062002737848460008562002741565b90505b9392505050565b606082471015620027bb5760405162461bcd60e51b815260206004820152602660248201527f416464726573733a20696e73756666696369656e742062616c616e636520666f60448201527f722063616c6c00000000000000000000000000000000000000000000000000006064820152608401620008d8565b843b6200280b5760405162461bcd60e51b815260206004820152601d60248201527f416464726573733a2063616c6c20746f206e6f6e2d636f6e74726163740000006044820152606401620008d8565b600080866001600160a01b0316858760405162002829919062002d20565b60006040518083038185875af1925050503d806000811462002868576040519150601f19603f3d011682016040523d82523d6000602084013e6200286d565b606091505b50915091506200287f8282866200288a565b979650505050505050565b606083156200289b5750816200273a565b825115620028ac5782518084602001fd5b8160405162461bcd60e51b8152600401620008d8919062002d3e565b611a1e8062002ed383390190565b600082601f830112620028e7578081fd5b8135602067ffffffffffffffff82111562002906576200290662002e94565b8082026200291682820162002d85565b83815282810190868401838801850189101562002931578687fd5b8693505b858410156200295557803583526001939093019291840191840162002935565b50979650505050505050565b600082601f83011262002972578081fd5b813567ffffffffffffffff8111156200298f576200298f62002e94565b620029a4601f8201601f191660200162002d85565b818152846020838601011115620029b9578283fd5b816020850160208301379081016020019190915292915050565b600060208284031215620029e5578081fd5b81356200273a8162002eaa565b6000806040838503121562002a05578081fd5b823562002a128162002eaa565b946020939093013593505050565b6000806000806080858703121562002a36578182fd5b843562002a438162002eaa565b93506020850135925060408501359150606085013567ffffffffffffffff81111562002a6d578182fd5b62002a7b87828801620028d6565b91505092959194509250565b600080600080600080600060e0888a03121562002aa2578283fd5b873562002aaf8162002eaa565b9650602088013595506040880135945060608801359350608088013567ffffffffffffffff8082111562002ae1578485fd5b62002aef8b838c01620028d6565b945060a08a013591508082111562002b05578384fd5b62002b138b838c0162002961565b935060c08a013591508082111562002b29578283fd5b5062002b388a828b0162002961565b91505092959891949750929550565b60006020828403121562002b59578081fd5b81516200273a8162002ec3565b60006020828403121562002b78578081fd5b5035919050565b6000806040838503121562002b92578182fd5b82359150602083013562002ba68162002eaa565b809150509250929050565b60008060006060848603121562002bc6578283fd5b83359250602084013562002bda8162002eaa565b929592945050506040919091013590565b6000806000806080858703121562002c01578384fd5b84359350602085013562002c158162002eaa565b93969395505050506040820135916060013590565b6000806040838503121562002c3d578182fd5b50508035926020909101359150565b6000806000806080858703121562002c62578182fd5b8435935060208501359250604085013562002c7d8162002eaa565b9396929550929360600135925050565b60008060006060848603121562002ca2578081fd5b8335925060208401359150604084013562002cbd8162002ec3565b809150509250925092565b60006020828403121562002cda578081fd5b81356001600160e01b0319811681146200273a578182fd5b6000815180845262002d0c81602086016020860162002e31565b601f01601f19169290920160200192915050565b6000825162002d3481846020870162002e31565b9190910192915050565b6000602082526200273a602083018462002cf2565b60006040825262002d68604083018562002cf2565b828103602084015262002d7c818562002cf2565b95945050505050565b604051601f8201601f1916810167ffffffffffffffff8111828210171562002db15762002db162002e94565b604052919050565b6000821982111562002dcf5762002dcf62002e7e565b500190565b60008262002df057634e487b7160e01b81526012600452602481fd5b500490565b600081600019048311821515161562002e125762002e1262002e7e565b500290565b60008282101562002e2c5762002e2c62002e7e565b500390565b60005b8381101562002e4e57818101518382015260200162002e34565b8381111562001a885750506000910152565b600060001982141562002e775762002e7762002e7e565b5060010190565b634e487b7160e01b600052601160045260246000fd5b634e487b7160e01b600052604160045260246000fd5b6001600160a01b038116811462002ec057600080fd5b50565b801515811462002ec057600080fdfe60806040523480156200001157600080fd5b5060405162001a1e38038062001a1e83398101604081905262000034916200034c565b8151829082906200004d906004906020850190620001f3565b50805162000063906005906020840190620001f3565b50620000759150600090503362000143565b620000a17f9f2df0fed2c77648de5860a4cc508cd0818c85b8b8a1ab4ceeef8d981c8956a63362000143565b50805160209182012060408051808201825260018152603160f81b9084015280517f8b73c3c69bb8fe3d512ecc4cf759cc79239f7b179b0ffacaa9a75d522b39400f81850152808201929092527fc89efdaa54c0f20c7adf612882df0950f5a951637e0307cdcb4c672f298b8bc660608301524660808301523060a0808401919091528151808403909101815260c09092019052805191012060065562000406565b6200014f828262000153565b5050565b6000828152602081815260408083206001600160a01b038516845290915290205460ff166200014f576000828152602081815260408083206001600160a01b03851684529091529020805460ff19166001179055620001af3390565b6001600160a01b0316816001600160a01b0316837f2f8788117e7eff1d82e926ec794901d17c78024a50270940304540a733656f0d60405160405180910390a45050565b8280546200020190620003b3565b90600052602060002090601f01602090048101928262000225576000855562000270565b82601f106200024057805160ff191683800117855562000270565b8280016001018555821562000270579182015b828111156200027057825182559160200191906001019062000253565b506200027e92915062000282565b5090565b5b808211156200027e576000815560010162000283565b600082601f830112620002aa578081fd5b81516001600160401b0380821115620002c757620002c7620003f0565b604051601f8301601f19908116603f01168101908282118183101715620002f257620002f2620003f0565b816040528381526020925086838588010111156200030e578485fd5b8491505b8382101562000331578582018301518183018401529082019062000312565b838211156200034257848385830101525b9695505050505050565b600080604083850312156200035f578182fd5b82516001600160401b038082111562000376578384fd5b620003848683870162000299565b935060208501519150808211156200039a578283fd5b50620003a98582860162000299565b9150509250929050565b600281046001821680620003c857607f821691505b60208210811415620003ea57634e487b7160e01b600052602260045260246000fd5b50919050565b634e487b7160e01b600052604160045260246000fd5b61160880620004166000396000f3fe608060405234801561001057600080fd5b50600436106101a35760003560e01c806340c10f19116100ee578063a217fddf11610097578063d505accf11610071578063d505accf14610396578063d5391393146103a9578063d547741f146103d0578063dd62ed3e146103e3576101a3565b8063a217fddf14610368578063a457c2d714610370578063a9059cbb14610383576101a3565b80637ecebe00116100c85780637ecebe001461030957806391d148541461032957806395d89b4114610360576101a3565b806340c10f19146102ba57806342966c68146102cd57806370a08231146102e0576101a3565b80632f2ff15d116101505780633644e5151161012a5780633644e5151461028b57806336568abe1461029457806339509351146102a7576101a3565b80632f2ff15d1461024057806330adf81f14610255578063313ce5671461027c576101a3565b806318160ddd1161018157806318160ddd146101f857806323b872dd1461020a578063248a9ca31461021d576101a3565b806301ffc9a7146101a857806306fdde03146101d0578063095ea7b3146101e5575b600080fd5b6101bb6101b63660046114a4565b61041c565b60405190151581526020015b60405180910390f35b6101d86104b7565b6040516101c791906114e4565b6101bb6101f3366004611441565b610549565b6003545b6040519081526020016101c7565b6101bb610218366004611395565b61055f565b6101fc61022b36600461146a565b60009081526020819052604090206001015490565b61025361024e366004611482565b61062a565b005b6101fc7f6e71edae12b1b97f4d1f60370fef10105fa2faae0126114a169c64845d6126c981565b604051601281526020016101c7565b6101fc60065481565b6102536102a2366004611482565b6106c7565b6101bb6102b5366004611441565b61074f565b6102536102c8366004611441565b610786565b6102536102db36600461146a565b61080e565b6101fc6102ee366004611342565b6001600160a01b031660009081526001602052604090205490565b6101fc610317366004611342565b60076020526000908152604090205481565b6101bb610337366004611482565b6000918252602082815260408084206001600160a01b0393909316845291905290205460ff1690565b6101d8610899565b6101fc600081565b6101bb61037e366004611441565b6108a8565b6101bb610391366004611441565b61095b565b6102536103a43660046113d0565b610968565b6101fc7f9f2df0fed2c77648de5860a4cc508cd0818c85b8b8a1ab4ceeef8d981c8956a681565b6102536103de366004611482565b610ba2565b6101fc6103f1366004611363565b6001600160a01b03918216600090815260026020908152604080832093909416825291909152205490565b60007fffffffff0000000000000000000000000000000000000000000000000000000082167f7965db0b0000000000000000000000000000000000000000000000000000000014806104af57507f01ffc9a7000000000000000000000000000000000000000000000000000000007fffffffff000000000000000000000000000000000000000000000000000000008316145b90505b919050565b6060600480546104c690611566565b80601f01602080910402602001604051908101604052809291908181526020018280546104f290611566565b801561053f5780601f106105145761010080835404028352916020019161053f565b820191906000526020600020905b81548152906001019060200180831161052257829003601f168201915b5050505050905090565b6000610556338484610c2f565b50600192915050565b600061056c848484610d88565b6001600160a01b03841660009081526002602090815260408083203384529091529020548281101561060b5760405162461bcd60e51b815260206004820152602860248201527f45524332303a207472616e7366657220616d6f756e742065786365656473206160448201527f6c6c6f77616e636500000000000000000000000000000000000000000000000060648201526084015b60405180910390fd5b61061f853361061a868561154f565b610c2f565b506001949350505050565b600082815260208190526040902060010154610647905b33610337565b6106b95760405162461bcd60e51b815260206004820152602f60248201527f416363657373436f6e74726f6c3a2073656e646572206d75737420626520616e60448201527f2061646d696e20746f206772616e7400000000000000000000000000000000006064820152608401610602565b6106c38282610fa9565b5050565b6001600160a01b03811633146107455760405162461bcd60e51b815260206004820152602f60248201527f416363657373436f6e74726f6c3a2063616e206f6e6c792072656e6f756e636560448201527f20726f6c657320666f722073656c6600000000000000000000000000000000006064820152608401610602565b6106c38282611047565b3360008181526002602090815260408083206001600160a01b0387168452909152812054909161055691859061061a908690611537565b3360009081527f0781d7cac9c378efa22a7481e4d4d29704a680ddf504b3bc50b517700ee11e6c602052604090205460ff166108045760405162461bcd60e51b815260206004820152601860248201527f6f6e6c7941676772656761746f723a2062616420726f6c6500000000000000006044820152606401610602565b6106c382826110c6565b3360009081527f0781d7cac9c378efa22a7481e4d4d29704a680ddf504b3bc50b517700ee11e6c602052604090205460ff1661088c5760405162461bcd60e51b815260206004820152601860248201527f6f6e6c7941676772656761746f723a2062616420726f6c6500000000000000006044820152606401610602565b61089633826111a5565b50565b6060600580546104c690611566565b3360009081526002602090815260408083206001600160a01b0386168452909152812054828110156109425760405162461bcd60e51b815260206004820152602560248201527f45524332303a2064656372656173656420616c6c6f77616e63652062656c6f7760448201527f207a65726f0000000000000000000000000000000000000000000000000000006064820152608401610602565b610951338561061a868561154f565b5060019392505050565b6000610556338484610d88565b428410156109b85760405162461bcd60e51b815260206004820152601260248201527f556e697377617056323a204558504952454400000000000000000000000000006044820152606401610602565b6006546001600160a01b038816600090815260076020526040812080549192917f6e71edae12b1b97f4d1f60370fef10105fa2faae0126114a169c64845d6126c9918b918b918b919087610a0b836115a1565b909155506040805160208101969096526001600160a01b0394851690860152929091166060840152608083015260a082015260c0810187905260e00160405160208183030381529060405280519060200120604051602001610a9f9291907f190100000000000000000000000000000000000000000000000000000000000081526002810192909252602282015260420190565b60408051601f198184030181528282528051602091820120600080855291840180845281905260ff88169284019290925260608301869052608083018590529092509060019060a0016020604051602081039080840390855afa158015610b0a573d6000803e3d6000fd5b5050604051601f1901519150506001600160a01b03811615801590610b405750886001600160a01b0316816001600160a01b0316145b610b8c5760405162461bcd60e51b815260206004820152601960248201527f7065726d69743a20696e76616c6964207369676e6174757265000000000000006044820152606401610602565b610b97898989610c2f565b505050505050505050565b600082815260208190526040902060010154610bbd90610641565b6107455760405162461bcd60e51b815260206004820152603060248201527f416363657373436f6e74726f6c3a2073656e646572206d75737420626520616e60448201527f2061646d696e20746f207265766f6b65000000000000000000000000000000006064820152608401610602565b6001600160a01b038316610caa5760405162461bcd60e51b8152602060048201526024808201527f45524332303a20617070726f76652066726f6d20746865207a65726f2061646460448201527f72657373000000000000000000000000000000000000000000000000000000006064820152608401610602565b6001600160a01b038216610d265760405162461bcd60e51b815260206004820152602260248201527f45524332303a20617070726f766520746f20746865207a65726f20616464726560448201527f73730000000000000000000000000000000000000000000000000000000000006064820152608401610602565b6001600160a01b0383811660008181526002602090815260408083209487168084529482529182902085905590518481527f8c5be1e5ebec7d5bd14f71427d1e84f3dd0314c0f7b2291e5b200ac8c7c3b92591015b60405180910390a3505050565b6001600160a01b038316610e045760405162461bcd60e51b815260206004820152602560248201527f45524332303a207472616e736665722066726f6d20746865207a65726f20616460448201527f64726573730000000000000000000000000000000000000000000000000000006064820152608401610602565b6001600160a01b038216610e805760405162461bcd60e51b815260206004820152602360248201527f45524332303a207472616e7366657220746f20746865207a65726f206164647260448201527f65737300000000000000000000000000000000000000000000000000000000006064820152608401610602565b6001600160a01b03831660009081526001602052604090205481811015610f0f5760405162461bcd60e51b815260206004820152602660248201527f45524332303a207472616e7366657220616d6f756e742065786365656473206260448201527f616c616e636500000000000000000000000000000000000000000000000000006064820152608401610602565b610f19828261154f565b6001600160a01b038086166000908152600160205260408082209390935590851681529081208054849290610f4f908490611537565b92505081905550826001600160a01b0316846001600160a01b03167fddf252ad1be2c89b69c2b068fc378daa952ba7f163c4a11628f55a4df523b3ef84604051610f9b91815260200190565b60405180910390a350505050565b6000828152602081815260408083206001600160a01b038516845290915290205460ff166106c3576000828152602081815260408083206001600160a01b03851684529091529020805460ff191660011790556110033390565b6001600160a01b0316816001600160a01b0316837f2f8788117e7eff1d82e926ec794901d17c78024a50270940304540a733656f0d60405160405180910390a45050565b6000828152602081815260408083206001600160a01b038516845290915290205460ff16156106c3576000828152602081815260408083206001600160a01b0385168085529252808320805460ff1916905551339285917ff6391f5c32d9c69d2a47ea670b442974b53935d1edc7fd64eb21e047a839171b9190a45050565b6001600160a01b03821661111c5760405162461bcd60e51b815260206004820152601f60248201527f45524332303a206d696e7420746f20746865207a65726f2061646472657373006044820152606401610602565b806003600082825461112e9190611537565b90915550506001600160a01b0382166000908152600160205260408120805483929061115b908490611537565b90915550506040518181526001600160a01b038316906000907fddf252ad1be2c89b69c2b068fc378daa952ba7f163c4a11628f55a4df523b3ef9060200160405180910390a35050565b6001600160a01b0382166112215760405162461bcd60e51b815260206004820152602160248201527f45524332303a206275726e2066726f6d20746865207a65726f2061646472657360448201527f73000000000000000000000000000000000000000000000000000000000000006064820152608401610602565b6001600160a01b038216600090815260016020526040902054818110156112b05760405162461bcd60e51b815260206004820152602260248201527f45524332303a206275726e20616d6f756e7420657863656564732062616c616e60448201527f63650000000000000000000000000000000000000000000000000000000000006064820152608401610602565b6112ba828261154f565b6001600160a01b038416600090815260016020526040812091909155600380548492906112e890849061154f565b90915550506040518281526000906001600160a01b038516907fddf252ad1be2c89b69c2b068fc378daa952ba7f163c4a11628f55a4df523b3ef90602001610d7b565b80356001600160a01b03811681146104b257600080fd5b600060208284031215611353578081fd5b61135c8261132b565b9392505050565b60008060408385031215611375578081fd5b61137e8361132b565b915061138c6020840161132b565b90509250929050565b6000806000606084860312156113a9578081fd5b6113b28461132b565b92506113c06020850161132b565b9150604084013590509250925092565b600080600080600080600060e0888a0312156113ea578283fd5b6113f38861132b565b96506114016020890161132b565b95506040880135945060608801359350608088013560ff81168114611424578384fd5b9699959850939692959460a0840135945060c09093013592915050565b60008060408385031215611453578182fd5b61145c8361132b565b946020939093013593505050565b60006020828403121561147b578081fd5b5035919050565b60008060408385031215611494578182fd5b8235915061138c6020840161132b565b6000602082840312156114b5578081fd5b81357fffffffff000000000000000000000000000000000000000000000000000000008116811461135c578182fd5b6000602080835283518082850152825b81811015611510578581018301518582016040015282016114f4565b818111156115215783604083870101525b50601f01601f1916929092016040019392505050565b6000821982111561154a5761154a6115bc565b500190565b600082821015611561576115616115bc565b500390565b60028104600182168061157a57607f821691505b6020821081141561159b57634e487b7160e01b600052602260045260246000fd5b50919050565b60006000198214156115b5576115b56115bc565b5060010190565b634e487b7160e01b600052601160045260246000fdfea2646970667358221220f5ced816affb02f835797b6b918f596bdbdc9fac765481e744e121321cc1985d64736f6c63430008020033a26469706673582212200f3ffb8ac6a78ea4ef834664466e6cd2051ac59b917cce36aaa5a791777a737b64736f6c63430008020033",
  "immutableReferences": {},
  "source": "// SPDX-License-Identifier: MIT\npragma solidity ^0.8.2;\n\nimport \"@openzeppelin/contracts/token/ERC20/ERC20.sol\";\nimport \"@openzeppelin/contracts/token/ERC20/IERC20.sol\";\nimport \"@openzeppelin/contracts/token/ERC20/utils/SafeERC20.sol\";\nimport \"@openzeppelin/contracts/access/AccessControl.sol\";\nimport \"../interfaces/IWhiteDebridge.sol\";\nimport \"../interfaces/IFeeProxy.sol\";\nimport \"../interfaces/IWETH.sol\";\nimport \"../interfaces/IDefiController.sol\";\nimport \"../interfaces/IWhiteAggregator.sol\";\nimport \"../periphery/WrappedAsset.sol\";\n\ncontract WhiteDebridge is AccessControl, IWhiteDebridge {\n    using SafeERC20 for IERC20;\n\n    struct DebridgeInfo {\n        address tokenAddress; // asset address on the current chain\n        uint256 chainId; // native chain id\n        uint256 minAmount; // minimal amount to transfer\n        uint256 transferFee; // transfer fee rate\n        uint256 collectedFees; // total collected fees that can be used to buy LINK\n        uint256 balance; // total locked assets\n        uint256 minReserves; // minimal hot reserves\n        mapping(uint256 => bool) isSupported; // wheter the chain for the asset is supported\n    }\n\n    uint256 public constant DENOMINATOR = 1e18; // accuacy multiplyer\n    uint256 public chainId; // current chain id\n    IWhiteAggregator public aggregator; // chainlink aggregator address\n    IFeeProxy public feeProxy; // proxy to convert the collected fees into Link's\n    IDefiController public defiController; // proxy to use the locked assets in Defi protocols\n    IWETH public weth; // wrapped native token contract\n    mapping(bytes32 => DebridgeInfo) public getDebridge; // debridgeId (i.e. hash(native chainId, native tokenAddress)) => token\n    mapping(bytes32 => bool) public isSubmissionUsed; // submissionId (i.e. hash( debridgeId, amount, receiver, nonce)) => whether is claimed\n    mapping(address => uint256) public getUserNonce; // submissionId (i.e. hash( debridgeId, amount, receiver, nonce)) => whether is claimed\n\n    event Sent(\n        bytes32 sentId,\n        bytes32 debridgeId,\n        uint256 amount,\n        address receiver,\n        uint256 nonce,\n        uint256 chainIdTo\n    ); // emited once the native tokens are locked to be sent to the other chain\n    event Minted(uint256 amount, address receiver, bytes32 debridgeId); // emited once the wrapped tokens are minted on the current chain\n    event Burnt(\n        bytes32 burntId,\n        bytes32 debridgeId,\n        uint256 amount,\n        address receiver,\n        uint256 nonce,\n        uint256 chainIdTo\n    ); // emited once the wrapped tokens are sent to the contract\n    event Claimed(uint256 amount, address receiver, bytes32 debridgeId); // emited once the tokens are withdrawn on native chain\n\n    modifier onlyAggregator {\n        require(address(aggregator) == msg.sender, \"onlyAggregator: bad role\");\n        _;\n    }\n    modifier onlyDefiController {\n        require(\n            address(defiController) == msg.sender,\n            \"defiController: bad role\"\n        );\n        _;\n    }\n    modifier onlyAdmin {\n        require(hasRole(DEFAULT_ADMIN_ROLE, msg.sender), \"onlyAdmin: bad role\");\n        _;\n    }\n\n    /* EXTERNAL */\n\n    /// @dev Constructor that initializes the most important configurations.\n    /// @param _minAmount Minimal amount of current chain token to be wrapped.\n    /// @param _transferFee Transfer fee rate.\n    /// @param _aggregator Submission aggregator address.\n    /// @param _supportedChainIds Chain ids where native token of the current chain can be wrapped.\n    constructor(\n        uint256 _minAmount,\n        uint256 _transferFee,\n        IWhiteAggregator _aggregator,\n        uint256[] memory _supportedChainIds,\n        IWETH _weth,\n        IFeeProxy _feeProxy,\n        IDefiController _defiController\n    ) {\n        uint256 cid;\n        assembly {\n            cid := chainid()\n        }\n        chainId = cid;\n        bytes32 debridgeId = getDebridgeId(chainId, address(0));\n        _addAsset(\n            debridgeId,\n            address(0),\n            chainId,\n            _minAmount,\n            _transferFee,\n            _supportedChainIds\n        );\n        aggregator = _aggregator;\n        weth = _weth;\n        feeProxy = _feeProxy;\n        _defiController = defiController;\n        _setupRole(DEFAULT_ADMIN_ROLE, msg.sender);\n    }\n\n    /// @dev Locks asset on the chain and enables minting on the other chain.\n    /// @param _debridgeId Asset identifier.\n    /// @param _receiver Receiver address.\n    /// @param _amount Amount to be transfered (note: the fee can be applyed).\n    /// @param _chainIdTo Chain id of the target chain.\n    function send(\n        bytes32 _debridgeId,\n        address _receiver,\n        uint256 _amount,\n        uint256 _chainIdTo\n    ) external payable override {\n        DebridgeInfo storage debridge = getDebridge[_debridgeId];\n        require(debridge.chainId == chainId, \"send: not native chain chain\");\n        require(\n            debridge.isSupported[_chainIdTo],\n            \"send: wrong targed target chain\"\n        );\n        require(_amount >= debridge.minAmount, \"send: amount too low\");\n        if (debridge.tokenAddress == address(0)) {\n            require(_amount == msg.value, \"send: amount mismatch\");\n        } else {\n            IERC20(debridge.tokenAddress).safeTransferFrom(\n                msg.sender,\n                address(this),\n                _amount\n            );\n        }\n        uint256 transferFee = (_amount * debridge.transferFee) / DENOMINATOR;\n        if (transferFee > 0) {\n            debridge.collectedFees += transferFee;\n            _amount -= transferFee;\n        }\n        debridge.balance += _amount;\n        uint256 nonce = getUserNonce[_receiver];\n        bytes32 sentId = getSubmisionId(_debridgeId, _amount, _receiver, nonce);\n        emit Sent(sentId, _debridgeId, _amount, _receiver, nonce, _chainIdTo);\n        getUserNonce[_receiver]++;\n    }\n\n    /// @dev Mints wrapped asset on the current chain.\n    /// @param _debridgeId Asset identifier.\n    /// @param _receiver Receiver address.\n    /// @param _amount Amount of the transfered asset (note: without applyed fee).\n    /// @param _nonce Submission id.\n    function mint(\n        bytes32 _debridgeId,\n        address _receiver,\n        uint256 _amount,\n        uint256 _nonce\n    ) external override {\n        bytes32 mintId =\n            getSubmisionId(_debridgeId, _amount, _receiver, _nonce);\n        require(aggregator.isMintConfirmed(mintId), \"mint: not confirmed\");\n        require(!isSubmissionUsed[mintId], \"mint: already used\");\n        DebridgeInfo storage debridge = getDebridge[_debridgeId];\n        isSubmissionUsed[mintId] = true;\n        IWrappedAsset(debridge.tokenAddress).mint(_receiver, _amount);\n        emit Minted(_amount, _receiver, _debridgeId);\n    }\n\n    /// @dev Burns wrapped asset and allowss to claim it on the other chain.\n    /// @param _debridgeId Asset identifier.\n    /// @param _receiver Receiver address.\n    /// @param _amount Amount of the transfered asset (note: the fee can be applyed).\n    function burn(\n        bytes32 _debridgeId,\n        address _receiver,\n        uint256 _amount\n    ) external override {\n        DebridgeInfo storage debridge = getDebridge[_debridgeId];\n        require(debridge.chainId != chainId, \"burn: native asset\");\n        require(_amount >= debridge.minAmount, \"burn: amount too low\");\n        IWrappedAsset wrappedAsset = IWrappedAsset(debridge.tokenAddress);\n        wrappedAsset.transferFrom(msg.sender, address(this), _amount);\n        wrappedAsset.burn(_amount);\n        uint256 nonce = getUserNonce[_receiver];\n        bytes32 burntId =\n            getSubmisionId(_debridgeId, _amount, _receiver, nonce);\n        emit Burnt(\n            burntId,\n            _debridgeId,\n            _amount,\n            _receiver,\n            nonce,\n            debridge.chainId\n        );\n        getUserNonce[_receiver]++;\n    }\n\n    /// @dev Unlock the asset on the current chain and transfer to receiver.\n    /// @param _debridgeId Asset identifier.\n    /// @param _receiver Receiver address.\n    /// @param _amount Amount of the transfered asset (note: the fee can be applyed).\n    /// @param _nonce Submission id.\n    function claim(\n        bytes32 _debridgeId,\n        address _receiver,\n        uint256 _amount,\n        uint256 _nonce\n    ) external override {\n        bytes32 burntId =\n            getSubmisionId(_debridgeId, _amount, _receiver, _nonce);\n        require(aggregator.isBurntConfirmed(burntId), \"claim: not confirmed\");\n        DebridgeInfo storage debridge = getDebridge[_debridgeId];\n        require(debridge.chainId == chainId, \"claim: wrong target chain\");\n        require(!isSubmissionUsed[burntId], \"claim: already used\");\n        isSubmissionUsed[burntId] = true;\n        uint256 transferFee = (_amount * debridge.transferFee) / DENOMINATOR;\n        debridge.balance -= _amount;\n        if (transferFee > 0) {\n            debridge.collectedFees += transferFee;\n            _amount -= transferFee;\n        }\n        _ensureReserves(debridge, _amount);\n        if (debridge.tokenAddress == address(0)) {\n            payable(_receiver).transfer(_amount);\n        } else {\n            IERC20(debridge.tokenAddress).safeTransfer(_receiver, _amount);\n        }\n        emit Claimed(_amount, _receiver, _debridgeId);\n    }\n\n    /* ADMIN */\n\n    /// @dev Add support for the asset on the current chain.\n    /// @param _tokenAddress Address of the asset on the current chain.\n    /// @param _minAmount Minimal amount of current chain token to be wrapped.\n    /// @param _transferFee Transfer fee rate.\n    /// @param _supportedChainIds Chain ids where native token of the current chain can be wrapped.\n    function addNativelAsset(\n        address _tokenAddress,\n        uint256 _minAmount,\n        uint256 _transferFee,\n        uint256[] memory _supportedChainIds\n    ) external override onlyAdmin() {\n        bytes32 debridgeId = getDebridgeId(chainId, _tokenAddress);\n        _addAsset(\n            debridgeId,\n            _tokenAddress,\n            chainId,\n            _minAmount,\n            _transferFee,\n            _supportedChainIds\n        );\n    }\n\n    /// @dev Add support for the asset from the other chain, deploy new wrapped asset.\n    /// @param _tokenAddress Address of the asset on the other chain.\n    /// @param _chainId Current chain id.\n    /// @param _minAmount Minimal amount of the asset to be wrapped.\n    /// @param _transferFee Transfer fee rate.\n    /// @param _supportedChainIds Chain ids where the token of the current chain can be transfered.\n    /// @param _name Wrapped asset name.\n    /// @param _symbol Wrapped asset symbol.\n    function addExternalAsset(\n        address _tokenAddress,\n        uint256 _chainId,\n        uint256 _minAmount,\n        uint256 _transferFee,\n        uint256[] memory _supportedChainIds,\n        string memory _name,\n        string memory _symbol\n    ) external override onlyAdmin() {\n        bytes32 debridgeId = getDebridgeId(_chainId, _tokenAddress);\n        address tokenAddress = address(new WrappedAsset(_name, _symbol));\n        _addAsset(\n            debridgeId,\n            tokenAddress,\n            _chainId,\n            _minAmount,\n            _transferFee,\n            _supportedChainIds\n        );\n    }\n\n    /// @dev Set support for the chains where the token can be transfered.\n    /// @param _debridgeId Asset identifier.\n    /// @param _chainId Current chain id.\n    /// @param _isSupported Whether the token is transferable to the other chain.\n    function setChainIdSupport(\n        bytes32 _debridgeId,\n        uint256 _chainId,\n        bool _isSupported\n    ) external override onlyAdmin() {\n        DebridgeInfo storage debridge = getDebridge[_debridgeId];\n        debridge.isSupported[_chainId] = _isSupported;\n    }\n\n    /// @dev Set aggregator address.\n    /// @param _aggregator Submission aggregator address.\n    function setAggregator(IWhiteAggregator _aggregator) external onlyAdmin() {\n        aggregator = _aggregator;\n    }\n\n    /// @dev Set fee converter proxy.\n    /// @param _feeProxy Submission aggregator address.\n    function setFeeProxy(IFeeProxy _feeProxy) external onlyAdmin() {\n        feeProxy = _feeProxy;\n    }\n\n    /// @dev Set defi controoler.\n    /// @param _defiController Submission aggregator address.\n    function setDefiController(IDefiController _defiController)\n        external\n        onlyAdmin()\n    {\n        // TODO: claim all the reserves before\n        defiController = _defiController;\n    }\n\n    /// @dev Set wrapped native asset address.\n    /// @param _weth Submission aggregator address.\n    function setWeth(IWETH _weth) external onlyAdmin() {\n        weth = _weth;\n    }\n\n    /// @dev Withdraw fees.\n    /// @param _debridgeId Asset identifier.\n    /// @param _receiver Receiver address.\n    /// @param _amount Submission aggregator address.\n    function withdrawFee(\n        bytes32 _debridgeId,\n        address _receiver,\n        uint256 _amount\n    ) external onlyAdmin() {\n        DebridgeInfo storage debridge = getDebridge[_debridgeId];\n        require(debridge.chainId == chainId, \"withdrawFee: wrong target chain\");\n        require(\n            debridge.collectedFees >= _amount,\n            \"withdrawFee: not enough fee\"\n        );\n        debridge.collectedFees -= _amount;\n        if (debridge.tokenAddress == address(0)) {\n            payable(_receiver).transfer(_amount);\n        } else {\n            IERC20(debridge.tokenAddress).safeTransfer(_receiver, _amount);\n        }\n    }\n\n    /// @dev Request the assets to be used in defi protocol.\n    /// @param _tokenAddress Asset address.\n    /// @param _amount Submission aggregator address.\n    function requestReserves(address _tokenAddress, uint256 _amount)\n        external\n        onlyDefiController()\n    {\n        bytes32 debridgeId = getDebridgeId(chainId, _tokenAddress);\n        DebridgeInfo storage debridge = getDebridge[debridgeId];\n        uint256 minReserves =\n            (debridge.balance * debridge.minReserves) / DENOMINATOR;\n        require(\n            minReserves + _amount > debridge.balance,\n            \"requestReserves: not enough reserves\"\n        );\n        debridge.balance -= _amount;\n        if (debridge.tokenAddress == address(0)) {\n            payable(address(defiController)).transfer(_amount);\n        } else {\n            IERC20(debridge.tokenAddress).safeTransfer(\n                address(defiController),\n                _amount\n            );\n        }\n    }\n\n    /// @dev Return the assets that were used in defi protocol.\n    /// @param _tokenAddress Asset address.\n    /// @param _amount Submission aggregator address.\n    function returnReserves(address _tokenAddress, uint256 _amount)\n        external\n        payable\n        onlyDefiController()\n    {\n        bytes32 debridgeId = getDebridgeId(chainId, _tokenAddress);\n        DebridgeInfo storage debridge = getDebridge[debridgeId];\n        if (debridge.tokenAddress == address(0)) {\n            debridge.balance += msg.value;\n        } else {\n            IERC20(debridge.tokenAddress).safeTransferFrom(\n                address(defiController),\n                address(this),\n                _amount\n            );\n            debridge.balance += _amount;\n        }\n    }\n\n    /// @dev Fund aggregator.\n    /// @param _debridgeId Asset identifier.\n    /// @param _amount Submission aggregator address.\n    function fundAggregator(bytes32 _debridgeId, uint256 _amount)\n        external\n        onlyAdmin()\n    {\n        DebridgeInfo storage debridge = getDebridge[_debridgeId];\n        require(\n            debridge.chainId == chainId,\n            \"fundAggregator: wrong target chain\"\n        );\n        require(\n            debridge.collectedFees >= _amount,\n            \"fundAggregator: not enough fee\"\n        );\n        debridge.collectedFees -= _amount;\n        if (debridge.tokenAddress == address(0)) {\n            weth.deposit{value: _amount}();\n            weth.transfer(address(feeProxy), _amount);\n            feeProxy.swapToLink(address(weth), _amount, address(aggregator));\n        } else {\n            IERC20(debridge.tokenAddress).safeTransfer(\n                address(feeProxy),\n                _amount\n            );\n            feeProxy.swapToLink(\n                debridge.tokenAddress,\n                _amount,\n                address(aggregator)\n            );\n        }\n    }\n\n    /* INTERNAL */\n\n    /// @dev Add support for the asset.\n    /// @param _debridgeId Asset identifier.\n    /// @param _tokenAddress Address of the asset on the other chain.\n    /// @param _chainId Current chain id.\n    /// @param _minAmount Minimal amount of the asset to be wrapped.\n    /// @param _transferFee Transfer fee rate.\n    /// @param _supportedChainIds Chain ids where the token of the current chain can be transfered.\n    function _addAsset(\n        bytes32 _debridgeId,\n        address _tokenAddress,\n        uint256 _chainId,\n        uint256 _minAmount,\n        uint256 _transferFee,\n        uint256[] memory _supportedChainIds\n    ) internal {\n        DebridgeInfo storage debridge = getDebridge[_debridgeId];\n        debridge.tokenAddress = _tokenAddress;\n        debridge.chainId = _chainId;\n        debridge.minAmount = _minAmount;\n        debridge.transferFee = _transferFee;\n        for (uint256 i = 0; i < _supportedChainIds.length; i++) {\n            debridge.isSupported[_supportedChainIds[i]] = true;\n        }\n    }\n\n    /// @dev Request the assets to be used in defi protocol.\n    /// @param _debridge Asset info.\n    /// @param _amount Submission aggregator address.\n    function _ensureReserves(DebridgeInfo storage _debridge, uint256 _amount)\n        internal\n    {\n        uint256 minReserves =\n            (_debridge.balance * _debridge.minReserves) / DENOMINATOR;\n        if (minReserves + _amount < _debridge.balance) {\n            uint256 requestedReserves =\n                _debridge.balance - minReserves + _amount;\n            defiController.claimReserve(\n                _debridge.tokenAddress,\n                requestedReserves\n            );\n            _debridge.balance += requestedReserves;\n        }\n    }\n\n    /* VIEW */\n\n    /// @dev Calculates asset identifier.\n    /// @param _tokenAddress Address of the asset on the other chain.\n    /// @param _chainId Current chain id.\n    function getDebridgeId(uint256 _chainId, address _tokenAddress)\n        public\n        pure\n        returns (bytes32)\n    {\n        return keccak256(abi.encodePacked(_chainId, _tokenAddress));\n    }\n\n    /// @dev Calculate submission id.\n    /// @param _debridgeId Asset identifier.\n    /// @param _receiver Receiver address.\n    /// @param _amount Amount of the transfered asset (note: the fee can be applyed).\n    /// @param _nonce Submission id.\n    function getSubmisionId(\n        bytes32 _debridgeId,\n        uint256 _amount,\n        address _receiver,\n        uint256 _nonce\n    ) public pure returns (bytes32) {\n        return\n            keccak256(\n                abi.encodePacked(_debridgeId, _amount, _receiver, _nonce)\n            );\n    }\n}\n",
  "sourcePath": "/Users/kstasi/Documents/work/debridge-contracts/contracts/transfers/WhiteDebridge.sol",
  "compiler": {
    "name": "solc",
    "version": "0.8.2+commit.661d1103.Emscripten.clang"
  },
  "schemaVersion": "3.3.4",
  "updatedAt": "2021-03-21T16:58:58.193Z",
  "devdoc": {
    "kind": "dev",
    "methods": {
      "addExternalAsset(address,uint256,uint256,uint256,uint256[],string,string)": {
        "details": "Add support for the asset from the other chain, deploy new wrapped asset.",
        "params": {
          "_chainId": "Current chain id.",
          "_minAmount": "Minimal amount of the asset to be wrapped.",
          "_name": "Wrapped asset name.",
          "_supportedChainIds": "Chain ids where the token of the current chain can be transfered.",
          "_symbol": "Wrapped asset symbol.",
          "_tokenAddress": "Address of the asset on the other chain.",
          "_transferFee": "Transfer fee rate."
        }
      },
      "addNativelAsset(address,uint256,uint256,uint256[])": {
        "details": "Add support for the asset on the current chain.",
        "params": {
          "_minAmount": "Minimal amount of current chain token to be wrapped.",
          "_supportedChainIds": "Chain ids where native token of the current chain can be wrapped.",
          "_tokenAddress": "Address of the asset on the current chain.",
          "_transferFee": "Transfer fee rate."
        }
      },
      "burn(bytes32,address,uint256)": {
        "details": "Burns wrapped asset and allowss to claim it on the other chain.",
        "params": {
          "_amount": "Amount of the transfered asset (note: the fee can be applyed).",
          "_debridgeId": "Asset identifier.",
          "_receiver": "Receiver address."
        }
      },
      "claim(bytes32,address,uint256,uint256)": {
        "details": "Unlock the asset on the current chain and transfer to receiver.",
        "params": {
          "_amount": "Amount of the transfered asset (note: the fee can be applyed).",
          "_debridgeId": "Asset identifier.",
          "_nonce": "Submission id.",
          "_receiver": "Receiver address."
        }
      },
      "constructor": {
        "details": "Constructor that initializes the most important configurations.",
        "params": {
          "_aggregator": "Submission aggregator address.",
          "_minAmount": "Minimal amount of current chain token to be wrapped.",
          "_supportedChainIds": "Chain ids where native token of the current chain can be wrapped.",
          "_transferFee": "Transfer fee rate."
        }
      },
      "fundAggregator(bytes32,uint256)": {
        "details": "Fund aggregator.",
        "params": {
          "_amount": "Submission aggregator address.",
          "_debridgeId": "Asset identifier."
        }
      },
      "getDebridgeId(uint256,address)": {
        "details": "Calculates asset identifier.",
        "params": {
          "_chainId": "Current chain id.",
          "_tokenAddress": "Address of the asset on the other chain."
        }
      },
      "getRoleAdmin(bytes32)": {
        "details": "Returns the admin role that controls `role`. See {grantRole} and {revokeRole}. To change a role's admin, use {_setRoleAdmin}."
      },
      "getSubmisionId(bytes32,uint256,address,uint256)": {
        "details": "Calculate submission id.",
        "params": {
          "_amount": "Amount of the transfered asset (note: the fee can be applyed).",
          "_debridgeId": "Asset identifier.",
          "_nonce": "Submission id.",
          "_receiver": "Receiver address."
        }
      },
      "grantRole(bytes32,address)": {
        "details": "Grants `role` to `account`. If `account` had not been already granted `role`, emits a {RoleGranted} event. Requirements: - the caller must have ``role``'s admin role."
      },
      "hasRole(bytes32,address)": {
        "details": "Returns `true` if `account` has been granted `role`."
      },
      "mint(bytes32,address,uint256,uint256)": {
        "details": "Mints wrapped asset on the current chain.",
        "params": {
          "_amount": "Amount of the transfered asset (note: without applyed fee).",
          "_debridgeId": "Asset identifier.",
          "_nonce": "Submission id.",
          "_receiver": "Receiver address."
        }
      },
      "renounceRole(bytes32,address)": {
        "details": "Revokes `role` from the calling account. Roles are often managed via {grantRole} and {revokeRole}: this function's purpose is to provide a mechanism for accounts to lose their privileges if they are compromised (such as when a trusted device is misplaced). If the calling account had been granted `role`, emits a {RoleRevoked} event. Requirements: - the caller must be `account`."
      },
      "requestReserves(address,uint256)": {
        "details": "Request the assets to be used in defi protocol.",
        "params": {
          "_amount": "Submission aggregator address.",
          "_tokenAddress": "Asset address."
        }
      },
      "returnReserves(address,uint256)": {
        "details": "Return the assets that were used in defi protocol.",
        "params": {
          "_amount": "Submission aggregator address.",
          "_tokenAddress": "Asset address."
        }
      },
      "revokeRole(bytes32,address)": {
        "details": "Revokes `role` from `account`. If `account` had been granted `role`, emits a {RoleRevoked} event. Requirements: - the caller must have ``role``'s admin role."
      },
      "send(bytes32,address,uint256,uint256)": {
        "details": "Locks asset on the chain and enables minting on the other chain.",
        "params": {
          "_amount": "Amount to be transfered (note: the fee can be applyed).",
          "_chainIdTo": "Chain id of the target chain.",
          "_debridgeId": "Asset identifier.",
          "_receiver": "Receiver address."
        }
      },
      "setAggregator(address)": {
        "details": "Set aggregator address.",
        "params": {
          "_aggregator": "Submission aggregator address."
        }
      },
      "setChainIdSupport(bytes32,uint256,bool)": {
        "details": "Set support for the chains where the token can be transfered.",
        "params": {
          "_chainId": "Current chain id.",
          "_debridgeId": "Asset identifier.",
          "_isSupported": "Whether the token is transferable to the other chain."
        }
      },
      "setDefiController(address)": {
        "details": "Set defi controoler.",
        "params": {
          "_defiController": "Submission aggregator address."
        }
      },
      "setFeeProxy(address)": {
        "details": "Set fee converter proxy.",
        "params": {
          "_feeProxy": "Submission aggregator address."
        }
      },
      "setWeth(address)": {
        "details": "Set wrapped native asset address.",
        "params": {
          "_weth": "Submission aggregator address."
        }
      },
      "supportsInterface(bytes4)": {
        "details": "See {IERC165-supportsInterface}."
      },
      "withdrawFee(bytes32,address,uint256)": {
        "details": "Withdraw fees.",
        "params": {
          "_amount": "Submission aggregator address.",
          "_debridgeId": "Asset identifier.",
          "_receiver": "Receiver address."
        }
      }
    },
    "version": 1
  },
  "userdoc": {
    "kind": "user",
    "methods": {},
    "version": 1
  }
}