{
  "contractName": "WhiteFullDebridge",
  "abi": [
    {
      "anonymous": false,
      "inputs": [
        {
          "indexed": false,
          "internalType": "bytes32",
          "name": "submissionId",
          "type": "bytes32"
        },
        {
          "indexed": false,
          "internalType": "bytes32",
          "name": "debridgeId",
          "type": "bytes32"
        },
        {
          "indexed": false,
          "internalType": "uint256",
          "name": "amount",
          "type": "uint256"
        },
        {
          "indexed": false,
          "internalType": "address",
          "name": "receiver",
          "type": "address"
        },
        {
          "indexed": false,
          "internalType": "uint256",
          "name": "nonce",
          "type": "uint256"
        },
        {
          "indexed": false,
          "internalType": "uint256",
          "name": "chainIdTo",
          "type": "uint256"
        },
        {
          "indexed": false,
          "internalType": "uint256",
          "name": "claimFee",
          "type": "uint256"
        },
        {
          "indexed": false,
          "internalType": "bytes",
          "name": "data",
          "type": "bytes"
        }
      ],
      "name": "AutoBurnt",
      "type": "event"
    },
    {
      "anonymous": false,
      "inputs": [
        {
          "indexed": false,
          "internalType": "bytes32",
          "name": "submissionId",
          "type": "bytes32"
        },
        {
          "indexed": false,
          "internalType": "bool",
          "name": "success",
          "type": "bool"
        }
      ],
      "name": "AutoRequestExecuted",
      "type": "event"
    },
    {
      "anonymous": false,
      "inputs": [
        {
          "indexed": false,
          "internalType": "bytes32",
          "name": "submissionId",
          "type": "bytes32"
        },
        {
          "indexed": false,
          "internalType": "bytes32",
          "name": "debridgeId",
          "type": "bytes32"
        },
        {
          "indexed": false,
          "internalType": "uint256",
          "name": "amount",
          "type": "uint256"
        },
        {
          "indexed": false,
          "internalType": "address",
          "name": "receiver",
          "type": "address"
        },
        {
          "indexed": false,
          "internalType": "uint256",
          "name": "nonce",
          "type": "uint256"
        },
        {
          "indexed": false,
          "internalType": "uint256",
          "name": "chainIdTo",
          "type": "uint256"
        },
        {
          "indexed": false,
          "internalType": "uint256",
          "name": "claimFee",
          "type": "uint256"
        },
        {
          "indexed": false,
          "internalType": "bytes",
          "name": "data",
          "type": "bytes"
        }
      ],
      "name": "AutoSent",
      "type": "event"
    },
    {
      "anonymous": false,
      "inputs": [
        {
          "indexed": false,
          "internalType": "bytes32",
          "name": "submissionId",
          "type": "bytes32"
        },
        {
          "indexed": false,
          "internalType": "bytes32",
          "name": "debridgeId",
          "type": "bytes32"
        },
        {
          "indexed": false,
          "internalType": "uint256",
          "name": "amount",
          "type": "uint256"
        },
        {
          "indexed": false,
          "internalType": "address",
          "name": "receiver",
          "type": "address"
        },
        {
          "indexed": false,
          "internalType": "uint256",
          "name": "nonce",
          "type": "uint256"
        },
        {
          "indexed": false,
          "internalType": "uint256",
          "name": "chainIdTo",
          "type": "uint256"
        }
      ],
      "name": "Burnt",
      "type": "event"
    },
    {
      "anonymous": false,
      "inputs": [
        {
          "indexed": false,
          "internalType": "address",
          "name": "callProxy",
          "type": "address"
        }
      ],
      "name": "CallProxyUpdated",
      "type": "event"
    },
    {
      "anonymous": false,
      "inputs": [
        {
          "indexed": true,
          "internalType": "bytes32",
          "name": "debridgeId",
          "type": "bytes32"
        },
        {
          "indexed": true,
          "internalType": "uint256",
          "name": "chainId",
          "type": "uint256"
        }
      ],
      "name": "ChainSupportAdded",
      "type": "event"
    },
    {
      "anonymous": false,
      "inputs": [
        {
          "indexed": true,
          "internalType": "bytes32",
          "name": "debridgeId",
          "type": "bytes32"
        },
        {
          "indexed": true,
          "internalType": "uint256",
          "name": "chainId",
          "type": "uint256"
        }
      ],
      "name": "ChainSupportRemoved",
      "type": "event"
    },
    {
      "anonymous": false,
      "inputs": [
        {
          "indexed": false,
          "internalType": "uint256[]",
          "name": "chainIds",
          "type": "uint256[]"
        }
      ],
      "name": "ChainsSupportUpdated",
      "type": "event"
    },
    {
      "anonymous": false,
      "inputs": [
        {
          "indexed": false,
          "internalType": "bytes32",
          "name": "submissionId",
          "type": "bytes32"
        },
        {
          "indexed": false,
          "internalType": "uint256",
          "name": "amount",
          "type": "uint256"
        },
        {
          "indexed": false,
          "internalType": "address",
          "name": "receiver",
          "type": "address"
        },
        {
          "indexed": false,
          "internalType": "bytes32",
          "name": "debridgeId",
          "type": "bytes32"
        }
      ],
      "name": "Claimed",
      "type": "event"
    },
    {
      "anonymous": false,
      "inputs": [
        {
          "indexed": false,
          "internalType": "bytes32",
          "name": "submissionId",
          "type": "bytes32"
        },
        {
          "indexed": false,
          "internalType": "uint256",
          "name": "amount",
          "type": "uint256"
        },
        {
          "indexed": false,
          "internalType": "address",
          "name": "receiver",
          "type": "address"
        },
        {
          "indexed": false,
          "internalType": "bytes32",
          "name": "debridgeId",
          "type": "bytes32"
        }
      ],
      "name": "Minted",
      "type": "event"
    },
    {
      "anonymous": false,
      "inputs": [
        {
          "indexed": true,
          "internalType": "bytes32",
          "name": "debridgeId",
          "type": "bytes32"
        },
        {
          "indexed": true,
          "internalType": "address",
          "name": "tokenAddress",
          "type": "address"
        },
        {
          "indexed": true,
          "internalType": "uint256",
          "name": "chainId",
          "type": "uint256"
        },
        {
          "indexed": false,
          "internalType": "uint256",
          "name": "minAmount",
          "type": "uint256"
        },
        {
          "indexed": false,
          "internalType": "uint256",
          "name": "fixedFee",
          "type": "uint256"
        },
        {
          "indexed": false,
          "internalType": "uint256",
          "name": "transferFee",
          "type": "uint256"
        },
        {
          "indexed": false,
          "internalType": "uint256",
          "name": "minReserves",
          "type": "uint256"
        }
      ],
      "name": "PairAdded",
      "type": "event"
    },
    {
      "anonymous": false,
      "inputs": [
        {
          "indexed": false,
          "internalType": "address",
          "name": "account",
          "type": "address"
        }
      ],
      "name": "Paused",
      "type": "event"
    },
    {
      "anonymous": false,
      "inputs": [
        {
          "indexed": true,
          "internalType": "bytes32",
          "name": "role",
          "type": "bytes32"
        },
        {
          "indexed": true,
          "internalType": "bytes32",
          "name": "previousAdminRole",
          "type": "bytes32"
        },
        {
          "indexed": true,
          "internalType": "bytes32",
          "name": "newAdminRole",
          "type": "bytes32"
        }
      ],
      "name": "RoleAdminChanged",
      "type": "event"
    },
    {
      "anonymous": false,
      "inputs": [
        {
          "indexed": true,
          "internalType": "bytes32",
          "name": "role",
          "type": "bytes32"
        },
        {
          "indexed": true,
          "internalType": "address",
          "name": "account",
          "type": "address"
        },
        {
          "indexed": true,
          "internalType": "address",
          "name": "sender",
          "type": "address"
        }
      ],
      "name": "RoleGranted",
      "type": "event"
    },
    {
      "anonymous": false,
      "inputs": [
        {
          "indexed": true,
          "internalType": "bytes32",
          "name": "role",
          "type": "bytes32"
        },
        {
          "indexed": true,
          "internalType": "address",
          "name": "account",
          "type": "address"
        },
        {
          "indexed": true,
          "internalType": "address",
          "name": "sender",
          "type": "address"
        }
      ],
      "name": "RoleRevoked",
      "type": "event"
    },
    {
      "anonymous": false,
      "inputs": [
        {
          "indexed": false,
          "internalType": "bytes32",
          "name": "submissionId",
          "type": "bytes32"
        },
        {
          "indexed": false,
          "internalType": "bytes32",
          "name": "debridgeId",
          "type": "bytes32"
        },
        {
          "indexed": false,
          "internalType": "uint256",
          "name": "amount",
          "type": "uint256"
        },
        {
          "indexed": false,
          "internalType": "address",
          "name": "receiver",
          "type": "address"
        },
        {
          "indexed": false,
          "internalType": "uint256",
          "name": "nonce",
          "type": "uint256"
        },
        {
          "indexed": false,
          "internalType": "uint256",
          "name": "chainIdTo",
          "type": "uint256"
        }
      ],
      "name": "Sent",
      "type": "event"
    },
    {
      "anonymous": false,
      "inputs": [
        {
          "indexed": false,
          "internalType": "address",
          "name": "account",
          "type": "address"
        }
      ],
      "name": "Unpaused",
      "type": "event"
    },
    {
      "inputs": [],
      "name": "DEFAULT_ADMIN_ROLE",
      "outputs": [
        {
          "internalType": "bytes32",
          "name": "",
          "type": "bytes32"
        }
      ],
      "stateMutability": "view",
      "type": "function"
    },
    {
      "inputs": [],
      "name": "DENOMINATOR",
      "outputs": [
        {
          "internalType": "uint256",
          "name": "",
          "type": "uint256"
        }
      ],
      "stateMutability": "view",
      "type": "function"
    },
    {
      "inputs": [
        {
          "internalType": "address",
          "name": "_tokenAddress",
          "type": "address"
        },
        {
          "internalType": "address",
          "name": "_wrappedAssetAddress",
          "type": "address"
        },
        {
          "internalType": "uint256",
          "name": "_chainId",
          "type": "uint256"
        },
        {
          "internalType": "uint256",
          "name": "_minAmount",
          "type": "uint256"
        },
        {
          "internalType": "uint256",
          "name": "_fixedFee",
          "type": "uint256"
        },
        {
          "internalType": "uint256",
          "name": "_transferFee",
          "type": "uint256"
        },
        {
          "internalType": "uint256",
          "name": "_minReserves",
          "type": "uint256"
        },
        {
          "internalType": "uint256[]",
          "name": "_supportedChainIds",
          "type": "uint256[]"
        }
      ],
      "name": "addExternalAsset",
      "outputs": [],
      "stateMutability": "nonpayable",
      "type": "function"
    },
    {
      "inputs": [
        {
          "internalType": "address",
          "name": "_tokenAddress",
          "type": "address"
        },
        {
          "internalType": "uint256",
          "name": "_minAmount",
          "type": "uint256"
        },
        {
          "internalType": "uint256",
          "name": "_fixedFee",
          "type": "uint256"
        },
        {
          "internalType": "uint256",
          "name": "_transferFee",
          "type": "uint256"
        },
        {
          "internalType": "uint256",
          "name": "_minReserves",
          "type": "uint256"
        },
        {
          "internalType": "uint256[]",
          "name": "_supportedChainIds",
          "type": "uint256[]"
        }
      ],
      "name": "addNativeAsset",
      "outputs": [],
      "stateMutability": "nonpayable",
      "type": "function"
    },
    {
      "inputs": [],
      "name": "aggregator",
      "outputs": [
        {
          "internalType": "address",
          "name": "",
          "type": "address"
        }
      ],
      "stateMutability": "view",
      "type": "function"
    },
    {
      "inputs": [],
      "name": "aggregatorVersion",
      "outputs": [
        {
          "internalType": "uint8",
          "name": "",
          "type": "uint8"
        }
      ],
      "stateMutability": "view",
      "type": "function"
    },
    {
      "inputs": [
        {
          "internalType": "bytes32",
          "name": "_debridgeId",
          "type": "bytes32"
        },
        {
          "internalType": "address",
          "name": "_receiver",
          "type": "address"
        },
        {
          "internalType": "uint256",
          "name": "_amount",
          "type": "uint256"
        },
        {
          "internalType": "uint256",
          "name": "_chainIdTo",
          "type": "uint256"
        },
        {
          "internalType": "address",
          "name": "_reserveAddress",
          "type": "address"
        },
        {
          "internalType": "uint256",
          "name": "_claimFee",
          "type": "uint256"
        },
        {
          "internalType": "bytes",
          "name": "_data",
          "type": "bytes"
        }
      ],
      "name": "autoBurn",
      "outputs": [],
      "stateMutability": "nonpayable",
      "type": "function"
    },
    {
      "inputs": [
        {
          "internalType": "bytes32",
          "name": "_debridgeId",
          "type": "bytes32"
        },
        {
          "internalType": "address",
          "name": "_receiver",
          "type": "address"
        },
        {
          "internalType": "uint256",
          "name": "_amount",
          "type": "uint256"
        },
        {
          "internalType": "uint256",
          "name": "_chainIdTo",
          "type": "uint256"
        },
        {
          "internalType": "address",
          "name": "_reserveAddress",
          "type": "address"
        },
        {
          "internalType": "uint256",
          "name": "_claimFee",
          "type": "uint256"
        },
        {
          "internalType": "bytes",
          "name": "_data",
          "type": "bytes"
        }
      ],
      "name": "autoSend",
      "outputs": [],
      "stateMutability": "payable",
      "type": "function"
    },
    {
      "inputs": [
        {
          "internalType": "bytes32",
          "name": "_debridgeId",
          "type": "bytes32"
        },
        {
          "internalType": "address",
          "name": "_receiver",
          "type": "address"
        },
        {
          "internalType": "uint256",
          "name": "_amount",
          "type": "uint256"
        },
        {
          "internalType": "uint256",
          "name": "_chainIdTo",
          "type": "uint256"
        }
      ],
      "name": "burn",
      "outputs": [],
      "stateMutability": "nonpayable",
      "type": "function"
    },
    {
      "inputs": [],
      "name": "callProxy",
      "outputs": [
        {
          "internalType": "address",
          "name": "",
          "type": "address"
        }
      ],
      "stateMutability": "view",
      "type": "function"
    },
    {
      "inputs": [],
      "name": "chainId",
      "outputs": [
        {
          "internalType": "uint256",
          "name": "",
          "type": "uint256"
        }
      ],
      "stateMutability": "view",
      "type": "function"
    },
    {
      "inputs": [
        {
          "internalType": "uint256",
          "name": "",
          "type": "uint256"
        }
      ],
      "name": "chainIds",
      "outputs": [
        {
          "internalType": "uint256",
          "name": "",
          "type": "uint256"
        }
      ],
      "stateMutability": "view",
      "type": "function"
    },
    {
      "inputs": [],
      "name": "defiController",
      "outputs": [
        {
          "internalType": "contract IDefiController",
          "name": "",
          "type": "address"
        }
      ],
      "stateMutability": "view",
      "type": "function"
    },
    {
      "inputs": [],
      "name": "feeProxy",
      "outputs": [
        {
          "internalType": "contract IFeeProxy",
          "name": "",
          "type": "address"
        }
      ],
      "stateMutability": "view",
      "type": "function"
    },
    {
      "inputs": [
        {
          "internalType": "bytes32",
          "name": "_debridgeId",
          "type": "bytes32"
        },
        {
          "internalType": "uint256",
          "name": "_chainIdFrom",
          "type": "uint256"
        },
        {
          "internalType": "uint256",
          "name": "_chainIdTo",
          "type": "uint256"
        },
        {
          "internalType": "uint256",
          "name": "_amount",
          "type": "uint256"
        },
        {
          "internalType": "address",
          "name": "_receiver",
          "type": "address"
        },
        {
          "internalType": "uint256",
          "name": "_nonce",
          "type": "uint256"
        },
        {
          "internalType": "address",
          "name": "_reserveAddress",
          "type": "address"
        },
        {
          "internalType": "uint256",
          "name": "_claimFee",
          "type": "uint256"
        },
        {
          "internalType": "bytes",
          "name": "_data",
          "type": "bytes"
        }
      ],
      "name": "getAutoSubmisionId",
      "outputs": [
        {
          "internalType": "bytes32",
          "name": "",
          "type": "bytes32"
        }
      ],
      "stateMutability": "pure",
      "type": "function"
    },
    {
      "inputs": [
        {
          "internalType": "address",
          "name": "_tokenAddress",
          "type": "address"
        }
      ],
      "name": "getBalance",
      "outputs": [
        {
          "internalType": "uint256",
          "name": "",
          "type": "uint256"
        }
      ],
      "stateMutability": "view",
      "type": "function"
    },
    {
      "inputs": [
        {
          "internalType": "bytes32",
          "name": "",
          "type": "bytes32"
        }
      ],
      "name": "getDebridge",
      "outputs": [
        {
          "internalType": "address",
          "name": "tokenAddress",
          "type": "address"
        },
        {
          "internalType": "uint256",
          "name": "chainId",
          "type": "uint256"
        },
        {
          "internalType": "uint256",
          "name": "minAmount",
          "type": "uint256"
        },
        {
          "internalType": "uint256",
          "name": "fixedFee",
          "type": "uint256"
        },
        {
          "internalType": "uint256",
          "name": "transferFee",
          "type": "uint256"
        },
        {
          "internalType": "uint256",
          "name": "collectedFees",
          "type": "uint256"
        },
        {
          "internalType": "uint256",
          "name": "balance",
          "type": "uint256"
        },
        {
          "internalType": "uint256",
          "name": "minReserves",
          "type": "uint256"
        }
      ],
      "stateMutability": "view",
      "type": "function"
    },
    {
      "inputs": [
        {
          "internalType": "uint256",
          "name": "_chainId",
          "type": "uint256"
        },
        {
          "internalType": "address",
          "name": "_tokenAddress",
          "type": "address"
        }
      ],
      "name": "getDebridgeId",
      "outputs": [
        {
          "internalType": "bytes32",
          "name": "",
          "type": "bytes32"
        }
      ],
      "stateMutability": "pure",
      "type": "function"
    },
    {
      "inputs": [
        {
          "internalType": "uint8",
          "name": "",
          "type": "uint8"
        }
      ],
      "name": "getOldAggregator",
      "outputs": [
        {
          "internalType": "address",
          "name": "aggregator",
          "type": "address"
        },
        {
          "internalType": "bool",
          "name": "isValid",
          "type": "bool"
        }
      ],
      "stateMutability": "view",
      "type": "function"
    },
    {
      "inputs": [
        {
          "internalType": "bytes32",
          "name": "role",
          "type": "bytes32"
        }
      ],
      "name": "getRoleAdmin",
      "outputs": [
        {
          "internalType": "bytes32",
          "name": "",
          "type": "bytes32"
        }
      ],
      "stateMutability": "view",
      "type": "function"
    },
    {
      "inputs": [
        {
          "internalType": "bytes32",
          "name": "_debridgeId",
          "type": "bytes32"
        },
        {
          "internalType": "uint256",
          "name": "_chainIdFrom",
          "type": "uint256"
        },
        {
          "internalType": "uint256",
          "name": "_chainIdTo",
          "type": "uint256"
        },
        {
          "internalType": "uint256",
          "name": "_amount",
          "type": "uint256"
        },
        {
          "internalType": "address",
          "name": "_receiver",
          "type": "address"
        },
        {
          "internalType": "uint256",
          "name": "_nonce",
          "type": "uint256"
        }
      ],
      "name": "getSubmisionId",
      "outputs": [
        {
          "internalType": "bytes32",
          "name": "",
          "type": "bytes32"
        }
      ],
      "stateMutability": "pure",
      "type": "function"
    },
    {
      "inputs": [
        {
          "internalType": "address",
          "name": "",
          "type": "address"
        }
      ],
      "name": "getUserNonce",
      "outputs": [
        {
          "internalType": "uint256",
          "name": "",
          "type": "uint256"
        }
      ],
      "stateMutability": "view",
      "type": "function"
    },
    {
      "inputs": [
        {
          "internalType": "bytes32",
          "name": "role",
          "type": "bytes32"
        },
        {
          "internalType": "address",
          "name": "account",
          "type": "address"
        }
      ],
      "name": "grantRole",
      "outputs": [],
      "stateMutability": "nonpayable",
      "type": "function"
    },
    {
      "inputs": [
        {
          "internalType": "bytes32",
          "name": "role",
          "type": "bytes32"
        },
        {
          "internalType": "address",
          "name": "account",
          "type": "address"
        }
      ],
      "name": "hasRole",
      "outputs": [
        {
          "internalType": "bool",
          "name": "",
          "type": "bool"
        }
      ],
      "stateMutability": "view",
      "type": "function"
    },
    {
      "inputs": [
        {
          "internalType": "bytes32",
          "name": "_debridgeId",
          "type": "bytes32"
        },
        {
          "internalType": "uint256",
          "name": "_chainId",
          "type": "uint256"
        }
      ],
      "name": "isChainIdSupported",
      "outputs": [
        {
          "internalType": "bool",
          "name": "",
          "type": "bool"
        }
      ],
      "stateMutability": "view",
      "type": "function"
    },
    {
      "inputs": [
        {
          "internalType": "bytes32",
          "name": "",
          "type": "bytes32"
        }
      ],
      "name": "isSubmissionUsed",
      "outputs": [
        {
          "internalType": "bool",
          "name": "",
          "type": "bool"
        }
      ],
      "stateMutability": "view",
      "type": "function"
    },
    {
      "inputs": [
        {
          "internalType": "uint8",
          "name": "_aggregatorVersion",
          "type": "uint8"
        },
        {
          "internalType": "bool",
          "name": "_isValid",
          "type": "bool"
        }
      ],
      "name": "manageOldAggregator",
      "outputs": [],
      "stateMutability": "nonpayable",
      "type": "function"
    },
    {
      "inputs": [],
      "name": "pause",
      "outputs": [],
      "stateMutability": "nonpayable",
      "type": "function"
    },
    {
      "inputs": [],
      "name": "paused",
      "outputs": [
        {
          "internalType": "bool",
          "name": "",
          "type": "bool"
        }
      ],
      "stateMutability": "view",
      "type": "function"
    },
    {
      "inputs": [
        {
          "internalType": "bytes32",
          "name": "role",
          "type": "bytes32"
        },
        {
          "internalType": "address",
          "name": "account",
          "type": "address"
        }
      ],
      "name": "renounceRole",
      "outputs": [],
      "stateMutability": "nonpayable",
      "type": "function"
    },
    {
      "inputs": [
        {
          "internalType": "address",
          "name": "_tokenAddress",
          "type": "address"
        },
        {
          "internalType": "uint256",
          "name": "_amount",
          "type": "uint256"
        }
      ],
      "name": "requestReserves",
      "outputs": [],
      "stateMutability": "nonpayable",
      "type": "function"
    },
    {
      "inputs": [
        {
          "internalType": "address",
          "name": "_tokenAddress",
          "type": "address"
        },
        {
          "internalType": "uint256",
          "name": "_amount",
          "type": "uint256"
        }
      ],
      "name": "returnReserves",
      "outputs": [],
      "stateMutability": "payable",
      "type": "function"
    },
    {
      "inputs": [
        {
          "internalType": "bytes32",
          "name": "role",
          "type": "bytes32"
        },
        {
          "internalType": "address",
          "name": "account",
          "type": "address"
        }
      ],
      "name": "revokeRole",
      "outputs": [],
      "stateMutability": "nonpayable",
      "type": "function"
    },
    {
      "inputs": [
        {
          "internalType": "bytes32",
          "name": "_debridgeId",
          "type": "bytes32"
        },
        {
          "internalType": "address",
          "name": "_receiver",
          "type": "address"
        },
        {
          "internalType": "uint256",
          "name": "_amount",
          "type": "uint256"
        },
        {
          "internalType": "uint256",
          "name": "_chainIdTo",
          "type": "uint256"
        }
      ],
      "name": "send",
      "outputs": [],
      "stateMutability": "payable",
      "type": "function"
    },
    {
      "inputs": [
        {
          "internalType": "address",
          "name": "_aggregator",
          "type": "address"
        }
      ],
      "name": "setAggregator",
      "outputs": [],
      "stateMutability": "nonpayable",
      "type": "function"
    },
    {
      "inputs": [
        {
          "internalType": "bytes32",
          "name": "_debridgeId",
          "type": "bytes32"
        },
        {
          "internalType": "uint256",
          "name": "_chainId",
          "type": "uint256"
        },
        {
          "internalType": "bool",
          "name": "_isSupported",
          "type": "bool"
        }
      ],
      "name": "setChainIdSupport",
      "outputs": [],
      "stateMutability": "nonpayable",
      "type": "function"
    },
    {
      "inputs": [
        {
          "internalType": "address",
          "name": "_callProxy",
          "type": "address"
        }
      ],
      "name": "setChainIds",
      "outputs": [],
      "stateMutability": "nonpayable",
      "type": "function"
    },
    {
      "inputs": [
        {
          "internalType": "uint256[]",
          "name": "_chainIds",
          "type": "uint256[]"
        }
      ],
      "name": "setChainIds",
      "outputs": [],
      "stateMutability": "nonpayable",
      "type": "function"
    },
    {
      "inputs": [
        {
          "internalType": "contract IDefiController",
          "name": "_defiController",
          "type": "address"
        }
      ],
      "name": "setDefiController",
      "outputs": [],
      "stateMutability": "nonpayable",
      "type": "function"
    },
    {
      "inputs": [
        {
          "internalType": "bytes4",
          "name": "interfaceId",
          "type": "bytes4"
        }
      ],
      "name": "supportsInterface",
      "outputs": [
        {
          "internalType": "bool",
          "name": "",
          "type": "bool"
        }
      ],
      "stateMutability": "view",
      "type": "function"
    },
    {
      "inputs": [],
      "name": "unpause",
      "outputs": [],
      "stateMutability": "nonpayable",
      "type": "function"
    },
    {
      "inputs": [
        {
          "internalType": "bytes32",
          "name": "_debridgeId",
          "type": "bytes32"
        },
        {
          "internalType": "uint256",
          "name": "_minAmount",
          "type": "uint256"
        },
        {
          "internalType": "uint256",
          "name": "_fixedFee",
          "type": "uint256"
        },
        {
          "internalType": "uint256",
          "name": "_transferFee",
          "type": "uint256"
        },
        {
          "internalType": "uint256",
          "name": "_minReserves",
          "type": "uint256"
        }
      ],
      "name": "updateAsset",
      "outputs": [],
      "stateMutability": "nonpayable",
      "type": "function"
    },
    {
      "inputs": [],
      "name": "weth",
      "outputs": [
        {
          "internalType": "contract IWETH",
          "name": "",
          "type": "address"
        }
      ],
      "stateMutability": "view",
      "type": "function"
    },
    {
      "inputs": [
        {
          "internalType": "bytes32",
          "name": "_debridgeId",
          "type": "bytes32"
        },
        {
          "internalType": "address",
          "name": "_receiver",
          "type": "address"
        },
        {
          "internalType": "uint256",
          "name": "_amount",
          "type": "uint256"
        }
      ],
      "name": "withdrawFee",
      "outputs": [],
      "stateMutability": "nonpayable",
      "type": "function"
    },
    {
      "inputs": [
        {
          "internalType": "uint256",
          "name": "_minAmount",
          "type": "uint256"
        },
        {
          "internalType": "uint256",
          "name": "_fixedFee",
          "type": "uint256"
        },
        {
          "internalType": "uint256",
          "name": "_transferFee",
          "type": "uint256"
        },
        {
          "internalType": "uint256",
          "name": "_minReserves",
          "type": "uint256"
        },
        {
          "internalType": "address",
          "name": "_aggregator",
          "type": "address"
        },
        {
          "internalType": "address",
          "name": "_callProxy",
          "type": "address"
        },
        {
          "internalType": "uint256[]",
          "name": "_supportedChainIds",
          "type": "uint256[]"
        },
        {
          "internalType": "contract IWETH",
          "name": "_weth",
          "type": "address"
        },
        {
          "internalType": "contract IFeeProxy",
          "name": "_feeProxy",
          "type": "address"
        },
        {
          "internalType": "contract IDefiController",
          "name": "_defiController",
          "type": "address"
        }
      ],
      "name": "initialize",
      "outputs": [],
      "stateMutability": "payable",
      "type": "function"
    },
    {
      "inputs": [
        {
          "internalType": "bytes32",
          "name": "_debridgeId",
          "type": "bytes32"
        },
        {
          "internalType": "uint256",
          "name": "_chainIdFrom",
          "type": "uint256"
        },
        {
          "internalType": "address",
          "name": "_receiver",
          "type": "address"
        },
        {
          "internalType": "uint256",
          "name": "_amount",
          "type": "uint256"
        },
        {
          "internalType": "uint256",
          "name": "_nonce",
          "type": "uint256"
        },
        {
          "internalType": "address",
          "name": "_reserveAddress",
          "type": "address"
        },
        {
          "internalType": "uint256",
          "name": "_claimFee",
          "type": "uint256"
        },
        {
          "internalType": "bytes",
          "name": "_data",
          "type": "bytes"
        }
      ],
      "name": "autoMint",
      "outputs": [],
      "stateMutability": "nonpayable",
      "type": "function"
    },
    {
      "inputs": [
        {
          "internalType": "bytes32",
          "name": "_debridgeId",
          "type": "bytes32"
        },
        {
          "internalType": "uint256",
          "name": "_chainIdFrom",
          "type": "uint256"
        },
        {
          "internalType": "address",
          "name": "_receiver",
          "type": "address"
        },
        {
          "internalType": "uint256",
          "name": "_amount",
          "type": "uint256"
        },
        {
          "internalType": "uint256",
          "name": "_nonce",
          "type": "uint256"
        },
        {
          "internalType": "address",
          "name": "_reserveAddress",
          "type": "address"
        },
        {
          "internalType": "uint256",
          "name": "_claimFee",
          "type": "uint256"
        },
        {
          "internalType": "bytes",
          "name": "_data",
          "type": "bytes"
        },
        {
          "internalType": "uint8",
          "name": "_aggregatorVersion",
          "type": "uint8"
        }
      ],
      "name": "autoMintWithOldAggregator",
      "outputs": [],
      "stateMutability": "nonpayable",
      "type": "function"
    },
    {
      "inputs": [
        {
          "internalType": "bytes32",
          "name": "_debridgeId",
          "type": "bytes32"
        },
        {
          "internalType": "uint256",
          "name": "_chainIdFrom",
          "type": "uint256"
        },
        {
          "internalType": "address",
          "name": "_receiver",
          "type": "address"
        },
        {
          "internalType": "uint256",
          "name": "_amount",
          "type": "uint256"
        },
        {
          "internalType": "uint256",
          "name": "_nonce",
          "type": "uint256"
        }
      ],
      "name": "mint",
      "outputs": [],
      "stateMutability": "nonpayable",
      "type": "function"
    },
    {
      "inputs": [
        {
          "internalType": "bytes32",
          "name": "_debridgeId",
          "type": "bytes32"
        },
        {
          "internalType": "uint256",
          "name": "_chainIdFrom",
          "type": "uint256"
        },
        {
          "internalType": "address",
          "name": "_receiver",
          "type": "address"
        },
        {
          "internalType": "uint256",
          "name": "_amount",
          "type": "uint256"
        },
        {
          "internalType": "uint256",
          "name": "_nonce",
          "type": "uint256"
        },
        {
          "internalType": "uint8",
          "name": "_aggregatorVersion",
          "type": "uint8"
        }
      ],
      "name": "mintWithOldAggregator",
      "outputs": [],
      "stateMutability": "nonpayable",
      "type": "function"
    },
    {
      "inputs": [
        {
          "internalType": "bytes32",
          "name": "_debridgeId",
          "type": "bytes32"
        },
        {
          "internalType": "uint256",
          "name": "_chainIdFrom",
          "type": "uint256"
        },
        {
          "internalType": "address",
          "name": "_receiver",
          "type": "address"
        },
        {
          "internalType": "uint256",
          "name": "_amount",
          "type": "uint256"
        },
        {
          "internalType": "uint256",
          "name": "_nonce",
          "type": "uint256"
        },
        {
          "internalType": "address",
          "name": "_reserveAddress",
          "type": "address"
        },
        {
          "internalType": "uint256",
          "name": "_claimFee",
          "type": "uint256"
        },
        {
          "internalType": "bytes",
          "name": "_data",
          "type": "bytes"
        }
      ],
      "name": "autoClaim",
      "outputs": [],
      "stateMutability": "nonpayable",
      "type": "function"
    },
    {
      "inputs": [
        {
          "internalType": "bytes32",
          "name": "_debridgeId",
          "type": "bytes32"
        },
        {
          "internalType": "uint256",
          "name": "_chainIdFrom",
          "type": "uint256"
        },
        {
          "internalType": "address",
          "name": "_receiver",
          "type": "address"
        },
        {
          "internalType": "uint256",
          "name": "_amount",
          "type": "uint256"
        },
        {
          "internalType": "uint256",
          "name": "_nonce",
          "type": "uint256"
        },
        {
          "internalType": "address",
          "name": "_reserveAddress",
          "type": "address"
        },
        {
          "internalType": "uint256",
          "name": "_claimFee",
          "type": "uint256"
        },
        {
          "internalType": "bytes",
          "name": "_data",
          "type": "bytes"
        },
        {
          "internalType": "uint8",
          "name": "_aggregatorVersion",
          "type": "uint8"
        }
      ],
      "name": "autoClaimWithOldAggregator",
      "outputs": [],
      "stateMutability": "nonpayable",
      "type": "function"
    },
    {
      "inputs": [
        {
          "internalType": "bytes32",
          "name": "_debridgeId",
          "type": "bytes32"
        },
        {
          "internalType": "uint256",
          "name": "_chainIdFrom",
          "type": "uint256"
        },
        {
          "internalType": "address",
          "name": "_receiver",
          "type": "address"
        },
        {
          "internalType": "uint256",
          "name": "_amount",
          "type": "uint256"
        },
        {
          "internalType": "uint256",
          "name": "_nonce",
          "type": "uint256"
        }
      ],
      "name": "claim",
      "outputs": [],
      "stateMutability": "nonpayable",
      "type": "function"
    },
    {
      "inputs": [
        {
          "internalType": "bytes32",
          "name": "_debridgeId",
          "type": "bytes32"
        },
        {
          "internalType": "uint256",
          "name": "_chainIdFrom",
          "type": "uint256"
        },
        {
          "internalType": "address",
          "name": "_receiver",
          "type": "address"
        },
        {
          "internalType": "uint256",
          "name": "_amount",
          "type": "uint256"
        },
        {
          "internalType": "uint256",
          "name": "_nonce",
          "type": "uint256"
        },
        {
          "internalType": "uint8",
          "name": "_aggregatorVersion",
          "type": "uint8"
        }
      ],
      "name": "claimWithOldAggregator",
      "outputs": [],
      "stateMutability": "nonpayable",
      "type": "function"
    },
    {
      "inputs": [
        {
          "internalType": "bytes32",
          "name": "_debridgeId",
          "type": "bytes32"
        },
        {
          "internalType": "uint256",
          "name": "_amount",
          "type": "uint256"
        }
      ],
      "name": "fundAggregator",
      "outputs": [],
      "stateMutability": "nonpayable",
      "type": "function"
    },
    {
      "inputs": [
        {
          "internalType": "contract IFeeProxy",
          "name": "_feeProxy",
          "type": "address"
        }
      ],
      "name": "setFeeProxy",
      "outputs": [],
      "stateMutability": "nonpayable",
      "type": "function"
    },
    {
      "inputs": [
        {
          "internalType": "contract IWETH",
          "name": "_weth",
          "type": "address"
        }
      ],
      "name": "setWeth",
      "outputs": [],
      "stateMutability": "nonpayable",
      "type": "function"
    }
  ],
  "bytecode": "0x608060405234801561001057600080fd5b506149f2806100206000396000f3fe60806040526004361061036b5760003560e01c806376d8e49d116101c6578063ba9f7776116100f7578063df05f8f511610095578063ec857bb71161006f578063ec857bb714610af8578063f8b2cb4f14610b18578063f9120af614610b38578063f9e032c414610b585761036b565b8063df05f8f514610a98578063e3024c1514610ab8578063e562904d14610ad85761036b565b8063cb885f0d116100d1578063cb885f0d146109f3578063d311f65614610a32578063d547741f14610a65578063d81a28ed14610a855761036b565b8063ba9f777614610993578063be7f2184146109b3578063bf3d7341146109d35761036b565b80639682b90911610164578063a217fddf1161013e578063a217fddf1461091e578063accf708b14610933578063ae0d21ff14610953578063b8d1452f146109735761036b565b80639682b909146108c85780639a8a0592146108e85780639f6787f7146108fe5761036b565b80638456cb59116101a05780638456cb5914610857578063918f86741461086c57806391d148541461088857806395f03b60146108a85761036b565b806376d8e49d146107c357806383d3f95d146107d6578063841b162b146107f65761036b565b806346144c8f116102a057806365ac9f781161023e57806369fad9b81161021857806369fad9b8146107505780636b063d65146107705780636b7cbb691461078357806374987155146107a35761036b565b806365ac9f78146106d357806365f3b0c7146107035780636834e3a8146107235761036b565b806353f3be851161027a57806353f3be85146105c557806357cf07ca146105e55780635bd5a95e146106945780635c975abb146106b45761036b565b806346144c8f146105655780634adc479c146105855780635352e983146105a55761036b565b806325be0be11161030d57806336568abe116102e757806336568abe146104f05780633f4ba83a146105105780633fc8cef3146105255780634146bd53146105455761036b565b806325be0be1146104905780632da688ac146104b05780632f2ff15d146104d05761036b565b8063106f432f11610349578063106f432f146103da57806321d93090146103fa578063245a7bfc14610428578063248a9ca3146104605761036b565b806301ffc9a714610370578063031ac613146103a55780630a0e5e9a146103ba575b600080fd5b34801561037c57600080fd5b5061039061038b36600461444b565b610b78565b60405190151581526020015b60405180910390f35b6103b86103b3366004614042565b610bb1565b005b3480156103c657600080fd5b506103b86103d53660046142ea565b610cb6565b3480156103e657600080fd5b506103b86103f5366004613e2a565b610d76565b34801561040657600080fd5b5061041a610415366004613fc4565b610dbf565b60405190815260200161039c565b34801561043457600080fd5b50600354610448906001600160a01b031681565b6040516001600160a01b03909116815260200161039c565b34801561046c57600080fd5b5061041a61047b366004613fc4565b60009081526020819052604090206001015490565b34801561049c57600080fd5b506103b86104ab366004613e2a565b610de0565b3480156104bc57600080fd5b50600454610448906001600160a01b031681565b3480156104dc57600080fd5b506103b86104eb366004613fdc565b610e29565b3480156104fc57600080fd5b506103b861050b366004613fdc565b610eb8565b34801561051c57600080fd5b506103b8610f32565b34801561053157600080fd5b50600c54610448906001600160a01b031681565b34801561055157600080fd5b506103b86105603660046141ef565b610fb8565b34801561057157600080fd5b50600654610448906001600160a01b031681565b34801561059157600080fd5b506103b86105a0366004614126565b61110c565b3480156105b157600080fd5b506103b86105c0366004614042565b611218565b3480156105d157600080fd5b506103b86105e0366004614126565b6112df565b3480156105f157600080fd5b5061064f610600366004613fc4565b6007602081905260009182526040909120805460018201546002830154600384015460048501546005860154600687015496909701546001600160a01b03909516969395929491939092909188565b604080516001600160a01b0390991689526020890197909752958701949094526060860192909252608085015260a084015260c083015260e08201526101000161039c565b3480156106a057600080fd5b506103b86106af366004614105565b6113e3565b3480156106c057600080fd5b5061039060015462010000900460ff1690565b3480156106df57600080fd5b506103906106ee366004613fc4565b60086020526000908152604090205460ff1681565b34801561070f57600080fd5b506103b861071e366004614411565b611693565b34801561072f57600080fd5b5061041a61073e366004613e2a565b60096020526000908152604090205481565b34801561075c57600080fd5b506103b861076b366004613f02565b6116e5565b6103b861077e366004613ed7565b61172e565b34801561078f57600080fd5b506103b861079e366004614568565b6117d0565b3480156107af57600080fd5b506103b86107be366004614291565b611893565b6103b86107d136600461407e565b6119cd565b3480156107e257600080fd5b506103b86107f136600461400b565b611b55565b34801561080257600080fd5b5061083861081136600461454e565b600a602052600090815260409020546001600160a01b03811690600160a01b900460ff1682565b604080516001600160a01b03909316835290151560208301520161039c565b34801561086357600080fd5b506103b8611c6b565b34801561087857600080fd5b5061041a670de0b6b3a764000081565b34801561089457600080fd5b506103906108a3366004613fdc565b611cc9565b3480156108b457600080fd5b506103b86108c33660046141ef565b611cf2565b3480156108d457600080fd5b5061041a6108e3366004613fdc565b611e39565b3480156108f457600080fd5b5061041a60025481565b34801561090a57600080fd5b506103b8610919366004613e2a565b611e87565b34801561092a57600080fd5b5061041a600081565b34801561093f57600080fd5b506103b861094e366004613e46565b611f03565b34801561095f57600080fd5b506103b861096e36600461416e565b611f53565b34801561097f57600080fd5b506103b861098e366004613e2a565b61203f565b34801561099f57600080fd5b50600b54610448906001600160a01b031681565b3480156109bf57600080fd5b506103b86109ce366004613ed7565b612088565b3480156109df57600080fd5b5061041a6109ee366004614322565b612211565b3480156109ff57600080fd5b50610390610a0e366004614105565b60009182526007602090815260408084209284526008909201905290205460ff1690565b348015610a3e57600080fd5b50600454610a5390600160a01b900460ff1681565b60405160ff909116815260200161039c565b348015610a7157600080fd5b506103b8610a80366004613fdc565b61226f565b6103b8610a9336600461448b565b6122ef565b348015610aa457600080fd5b506103b8610ab3366004614291565b6123f3565b348015610ac457600080fd5b506103b8610ad336600461407e565b612523565b348015610ae457600080fd5b506103b8610af3366004613f75565b61266f565b348015610b0457600080fd5b506103b8610b1336600461416e565b6126d9565b348015610b2457600080fd5b5061041a610b33366004613e2a565b6127c5565b348015610b4457600080fd5b506103b8610b53366004613e2a565b61285a565b348015610b6457600080fd5b5061041a610b73366004614376565b61292a565b60006001600160e01b03198216637965db0b60e01b1480610ba957506301ffc9a760e01b6001600160e01b03198316145b90505b919050565b610bc360015462010000900460ff1690565b15610be95760405162461bcd60e51b8152600401610be0906147e0565b60405180910390fd5b610bf4848383612972565b6001600160a01b03841660009081526009602052604081205460025492945091610c2390879085878987612211565b60408051828152602081018990529081018690526001600160a01b03871660608201526080810184905260a081018590529091507f17c61cb89b62a3f29f5b150e3489c7a796ac4dc95fd73af14faa2c8086a324b49060c0015b60405180910390a16001600160a01b0385166000908152600960205260408120805491610ca98361492f565b9190505550505050505050565b610cc1600033611cc9565b610cdd5760405162461bcd60e51b8152600401610be09061480a565b600083815260076020908152604080832085845260088101909252909120805460ff19168315801591909117909155610d4257604051839085907fdd4dbf80f57aa5115a1e07abb36e4de565879d4de5bd15b3803d666fe1d8486390600090a3610d70565b604051839085907f86c512831f7a2aad3f56b4169c161be1028776ab950c72e26237a0310ded560690600090a35b50505050565b610d81600033611cc9565b610d9d5760405162461bcd60e51b8152600401610be09061480a565b600680546001600160a01b0319166001600160a01b0392909216919091179055565b60058181548110610dcf57600080fd5b600091825260209091200154905081565b610deb600033611cc9565b610e075760405162461bcd60e51b8152600401610be09061480a565b600b80546001600160a01b0319166001600160a01b0392909216919091179055565b600082815260208190526040902060010154610e46905b336108a3565b610eaa5760405162461bcd60e51b815260206004820152602f60248201527f416363657373436f6e74726f6c3a2073656e646572206d75737420626520616e60448201526e0818591b5a5b881d1bc819dc985b9d608a1b6064820152608401610be0565b610eb48282612bc4565b5050565b6001600160a01b0381163314610f285760405162461bcd60e51b815260206004820152602f60248201527f416363657373436f6e74726f6c3a2063616e206f6e6c792072656e6f756e636560448201526e103937b632b9903337b91039b2b63360891b6064820152608401610be0565b610eb48282612c48565b610f3d600033611cc9565b610f595760405162461bcd60e51b8152600401610be09061480a565b610f6b60015462010000900460ff1690565b610fae5760405162461bcd60e51b815260206004820152601460248201527314185d5cd8589b194e881b9bdd081c185d5cd95960621b6044820152606401610be0565b610fb6612cad565b565b610fca60015462010000900460ff1690565b15610fe75760405162461bcd60e51b8152600401610be0906147e0565b6000610ffc8a8a6002548a8c8b8b8b8b61292a565b60ff8084166000908152600a60209081526040918290208251808401909352546001600160a01b0381168352600160a01b900490921615159181018290529192506110595760405162461bcd60e51b8152600401610be09061476a565b80516040516317ccf26d60e11b8152600481018490526001600160a01b0390911690632f99e4da9060240160206040518083038186803b15801561109c57600080fd5b505afa1580156110b0573d6000803e3d6000fd5b505050506040513d601f19601f820116820180604052508101906110d49190613fa8565b6110f05760405162461bcd60e51b8152600401610be090614837565b6110ff828c8b8b8a8a8a612d44565b5050505050505050505050565b61111e60015462010000900460ff1690565b1561113b5760405162461bcd60e51b8152600401610be0906147e0565b600061114d8686600254868887612211565b6003546040516317ccf26d60e11b8152600481018390529192506001600160a01b031690632f99e4da9060240160206040518083038186803b15801561119257600080fd5b505afa1580156111a6573d6000803e3d6000fd5b505050506040513d601f19601f820116820180604052508101906111ca9190613fa8565b6111e65760405162461bcd60e51b8152600401610be090614837565b6112108187868660008060405180604001604052806002815260200161060f60f31b815250612d44565b505050505050565b61122a60015462010000900460ff1690565b156112475760405162461bcd60e51b8152600401610be0906147e0565b611252848383613078565b6001600160a01b0384166000908152600960205260408120546002549294509161128190879085878987612211565b60408051828152602081018990529081018690526001600160a01b03871660608201526080810184905260a081018590529091507fb8cc5195d548dc2781227c496b92d3736cd56d7f32b28971c9ae1e9eb0badf959060c001610c7d565b6112f160015462010000900460ff1690565b1561130e5760405162461bcd60e51b8152600401610be0906147e0565b60006113208686600254868887612211565b6003546040516317ccf26d60e11b8152600481018390529192506001600160a01b031690632f99e4da9060240160206040518083038186803b15801561136557600080fd5b505afa158015611379573d6000803e3d6000fd5b505050506040513d601f19601f8201168201806040525081019061139d9190613fa8565b6113b95760405162461bcd60e51b8152600401610be0906147b2565b6112108187868660008060405180604001604052806002815260200161060f60f31b815250613320565b6113ee600033611cc9565b61140a5760405162461bcd60e51b8152600401610be09061480a565b6000828152600760205260409020600581015482111561146c5760405162461bcd60e51b815260206004820152601e60248201527f66756e6441676772656761746f723a206e6f7420656e6f7567682066656500006044820152606401610be0565b8181600501600082825461148091906148ec565b909155505080546001600160a01b03166115ff57600c60009054906101000a90046001600160a01b03166001600160a01b031663d0e30db0836040518263ffffffff1660e01b81526004016000604051808303818588803b1580156114e457600080fd5b505af11580156114f8573d6000803e3d6000fd5b5050600c54600b5460405163a9059cbb60e01b81526001600160a01b039182166004820152602481018890529116935063a9059cbb92506044019050602060405180830381600087803b15801561154e57600080fd5b505af1158015611562573d6000803e3d6000fd5b505050506040513d601f19601f820116820180604052508101906115869190613fa8565b50600b54600c54600354604051631acd461560e31b81526001600160a01b03928316600482015260248101869052908216604482015291169063d66a30a890606401600060405180830381600087803b1580156115e257600080fd5b505af11580156115f6573d6000803e3d6000fd5b5050505061168e565b600b54815461161b916001600160a01b039182169116846136d0565b600b548154600354604051631acd461560e31b81526001600160a01b03928316600482015260248101869052908216604482015291169063d66a30a890606401600060405180830381600087803b15801561167557600080fd5b505af1158015611689573d6000803e3d6000fd5b505050505b505050565b61169e600033611cc9565b6116ba5760405162461bcd60e51b8152600401610be09061480a565b6000948552600760208190526040909520600281019490945560038401929092556004830155910155565b6116f0600033611cc9565b61170c5760405162461bcd60e51b8152600401610be09061480a565b600061171a60025488611e39565b905061168981886002548989898989613733565b6006546001600160a01b031633146117835760405162461bcd60e51b815260206004820152601860248201527764656669436f6e74726f6c6c65723a2062616420726f6c6560401b6044820152606401610be0565b600061179160025484611e39565b60008181526007602052604090208054919250906001600160a01b031615610d70576006548154610d70916001600160a01b0391821691163086613874565b6117db600033611cc9565b6117f75760405162461bcd60e51b8152600401610be09061480a565b60045460ff600160a01b9091048116908316106118645760405162461bcd60e51b815260206004820152602560248201527f6d616e6167654f6c6441676772656761746f723a2076657273696f6e20746f6f604482015264040d0d2ced60db1b6064820152608401610be0565b60ff9091166000908152600a602052604090208054911515600160a01b0260ff60a01b19909216919091179055565b60006118a58787600254878988612211565b60ff8084166000908152600a60209081526040918290208251808401909352546001600160a01b0381168352600160a01b900490921615159181018290529192506119025760405162461bcd60e51b8152600401610be09061476a565b80516040516317ccf26d60e11b8152600481018490526001600160a01b0390911690632f99e4da9060240160206040518083038186803b15801561194557600080fd5b505afa158015611959573d6000803e3d6000fd5b505050506040513d601f19601f8201168201806040525081019061197d9190613fa8565b6119995760405162461bcd60e51b8152600401610be0906147b2565b6119c38289888860008060405180604001604052806002815260200161060f60f31b815250613320565b5050505050505050565b6119df60015462010000900460ff1690565b156119fc5760405162461bcd60e51b8152600401610be0906147e0565b81611a415760405162461bcd60e51b81526020600482015260156024820152746175746f53656e643a2066656520746f6f206c6f7760581b6044820152606401610be0565b611a4c878686612972565b945081851015611a9e5760405162461bcd60e51b815260206004820152601f60248201527f6175746f53656e643a2070726f706f7365642066656520746f6f2068696768006044820152606401610be0565b611aa882866148ec565b6001600160a01b03871660009081526009602052604081205460025492975091611ada908a90888a8c878b8b8b61292a565b90507fd6a26970ca5b3bad18e3f990daa2e30f9bffdd9933a65c8dfa45dbb963cb6811818a898b868b8a8a604051611b19989796959493929190614702565b60405180910390a16001600160a01b0388166000908152600960205260408120805491611b458361492f565b9190505550505050505050505050565b611b60600033611cc9565b611b7c5760405162461bcd60e51b8152600401610be09061480a565b60008381526007602052604090206005810154821115611bde5760405162461bcd60e51b815260206004820152601b60248201527f77697468647261774665653a206e6f7420656e6f7567682066656500000000006044820152606401610be0565b81816005016000828254611bf291906148ec565b90915550506002546001820154148015611c14575080546001600160a01b0316155b15611c55576040516001600160a01b0384169083156108fc029084906000818181858888f19350505050158015611c4f573d6000803e3d6000fd5b50610d70565b8054610d70906001600160a01b031684846136d0565b611c76600033611cc9565b611c925760405162461bcd60e51b8152600401610be09061480a565b611ca460015462010000900460ff1690565b15611cc15760405162461bcd60e51b8152600401610be0906147e0565b610fb66138ac565b6000918252602082815260408084206001600160a01b0393909316845291905290205460ff1690565b611d0460015462010000900460ff1690565b15611d215760405162461bcd60e51b8152600401610be0906147e0565b6000611d368a8a6002548a8c8b8b8b8b61292a565b60ff8084166000908152600a60209081526040918290208251808401909352546001600160a01b0381168352600160a01b90049092161515918101829052919250611d935760405162461bcd60e51b8152600401610be09061476a565b80516040516317ccf26d60e11b8152600481018490526001600160a01b0390911690632f99e4da9060240160206040518083038186803b158015611dd657600080fd5b505afa158015611dea573d6000803e3d6000fd5b505050506040513d601f19601f82011682018060405250810190611e0e9190613fa8565b611e2a5760405162461bcd60e51b8152600401610be0906147b2565b6110ff828c8b8b8a8a8a613320565b60008282604051602001611e6992919091825260601b6bffffffffffffffffffffffff1916602082015260340190565b60405160208183030381529060405280519060200120905092915050565b611e92600033611cc9565b611eae5760405162461bcd60e51b8152600401610be09061480a565b600480546001600160a01b0319166001600160a01b0383169081179091556040519081527fa9543b36462a5e2c2259a14d72a8bd4e2342eaf9d7c828e9fb86921b3aa3eb5f906020015b60405180910390a150565b611f0e600033611cc9565b611f2a5760405162461bcd60e51b8152600401610be09061480a565b6000611f36878a611e39565b9050611f488189898989898989613733565b505050505050505050565b611f6560015462010000900460ff1690565b15611f825760405162461bcd60e51b8152600401610be0906147e0565b6000611f978989600254898b8a8a8a8a61292a565b6003546040516317ccf26d60e11b8152600481018390529192506001600160a01b031690632f99e4da9060240160206040518083038186803b158015611fdc57600080fd5b505afa158015611ff0573d6000803e3d6000fd5b505050506040513d601f19601f820116820180604052508101906120149190613fa8565b6120305760405162461bcd60e51b8152600401610be0906147b2565b611f48818a8989888888613320565b61204a600033611cc9565b6120665760405162461bcd60e51b8152600401610be09061480a565b600c80546001600160a01b0319166001600160a01b0392909216919091179055565b6006546001600160a01b031633146120dd5760405162461bcd60e51b815260206004820152601860248201527764656669436f6e74726f6c6c65723a2062616420726f6c6560401b6044820152606401610be0565b60006120eb60025484611e39565b600081815260076020819052604082209081015460068201549394509092670de0b6b3a76400009161211c916148cd565b61212691906148ad565b8254909150600090612140906001600160a01b03166127c5565b90508061214d8684614895565b116121a65760405162461bcd60e51b8152602060048201526024808201527f7265717565737452657365727665733a206e6f7420656e6f75676820726573656044820152637276657360e01b6064820152608401610be0565b82546001600160a01b03166121f5576006546040516001600160a01b039091169086156108fc029087906000818181858888f193505050501580156121ef573d6000803e3d6000fd5b50611210565b6006548354611210916001600160a01b039182169116876136d0565b60408051602080820198909852808201969096526060808701959095526080860193909352921b6bffffffffffffffffffffffff191660a084015260b4808401929092528051808403909201825260d4909201909152805191012090565b60008281526020819052604090206001015461228a90610e40565b610f285760405162461bcd60e51b815260206004820152603060248201527f416363657373436f6e74726f6c3a2073656e646572206d75737420626520616e60448201526f2061646d696e20746f207265766f6b6560801b6064820152608401610be0565b600154610100900460ff1680612308575060015460ff16155b61236b5760405162461bcd60e51b815260206004820152602e60248201527f496e697469616c697a61626c653a20636f6e747261637420697320616c72656160448201526d191e481a5b9a5d1a585b1a5e995960921b6064820152608401610be0565b600154610100900460ff16158015612395576001805460ff1961ff00199091166101001716811790555b6123a58b8b8b8b8b8b8b8961391c565b600c80546001600160a01b038087166001600160a01b031992831617909255600b80549286169290911691909117905580156110ff576001805461ff00191690555050505050505050505050565b60006124058787600254878988612211565b60ff8084166000908152600a60209081526040918290208251808401909352546001600160a01b0381168352600160a01b900490921615159181018290529192506124625760405162461bcd60e51b8152600401610be09061476a565b80516040516317ccf26d60e11b8152600481018490526001600160a01b0390911690632f99e4da9060240160206040518083038186803b1580156124a557600080fd5b505afa1580156124b9573d6000803e3d6000fd5b505050506040513d601f19601f820116820180604052508101906124dd9190613fa8565b6124f95760405162461bcd60e51b8152600401610be090614837565b6119c38289888860008060405180604001604052806002815260200161060f60f31b815250612d44565b61253560015462010000900460ff1690565b156125525760405162461bcd60e51b8152600401610be0906147e0565b816125975760405162461bcd60e51b81526020600482015260156024820152746175746f4275726e3a2066656520746f6f206c6f7760581b6044820152606401610be0565b6125a2878686613078565b9450818510156125f45760405162461bcd60e51b815260206004820152601f60248201527f6175746f4275726e3a2070726f706f7365642066656520746f6f2068696768006044820152606401610be0565b6125fe82866148ec565b6001600160a01b03871660009081526009602052604081205460025492975091612630908a90888a8c878b8b8b61292a565b90507f36a268c961c097e1f744d1ce89408dd36212025f95204538cd463fba9e22cada818a898b868b8a8a604051611b19989796959493929190614702565b61267a600033611cc9565b6126965760405162461bcd60e51b8152600401610be09061480a565b80516126a9906005906020840190613ccc565b507fc96689ced54dda42d1f32f295881474112291c08120448bec2f7b10f5297e88f81604051611ef891906146be565b6126eb60015462010000900460ff1690565b156127085760405162461bcd60e51b8152600401610be0906147e0565b600061271d8989600254898b8a8a8a8a61292a565b6003546040516317ccf26d60e11b8152600481018390529192506001600160a01b031690632f99e4da9060240160206040518083038186803b15801561276257600080fd5b505afa158015612776573d6000803e3d6000fd5b505050506040513d601f19601f8201168201806040525081019061279a9190613fa8565b6127b65760405162461bcd60e51b8152600401610be090614837565b611f48818a8989888888612d44565b60006001600160a01b0382166127dc575047610bac565b6040516370a0823160e01b81523060048201526001600160a01b038316906370a082319060240160206040518083038186803b15801561281b57600080fd5b505afa15801561282f573d6000803e3d6000fd5b505050506040513d601f19601f820116820180604052508101906128539190614473565b9050610bac565b612865600033611cc9565b6128815760405162461bcd60e51b8152600401610be09061480a565b604080518082018252600380546001600160a01b039081168352600160208085019182526004805460ff600160a01b9182900481166000908152600a909452979092209551865493511515830260ff60a01b199186166001600160a01b03199586161791909116179095558354928716929091169190911790915581540490911690601461290e8361494a565b91906101000a81548160ff021916908360ff1602179055505050565b600089898989898989898960405160200161294d999897969594939291906145bf565b6040516020818303038152906040528051906020012090509998505050505050505050565b60008381526007602052604081206002546001820154146129ce5760405162461bcd60e51b815260206004820152601660248201527539b2b7321d103737ba103730ba34bb329031b430b4b760511b6044820152606401610be0565b600083815260088201602052604090205460ff16612a2e5760405162461bcd60e51b815260206004820152601860248201527f73656e643a2077726f6e672074617267656420636861696e00000000000000006044820152606401610be0565b8060020154841015612a795760405162461bcd60e51b815260206004820152601460248201527373656e643a20616d6f756e7420746f6f206c6f7760601b6044820152606401610be0565b80546001600160a01b0316612ad457348414612acf5760405162461bcd60e51b81526020600482015260156024820152740e6cadcc87440c2dadeeadce840dad2e6dac2e8c6d605b1b6044820152606401610be0565b612aeb565b8054612aeb906001600160a01b0316333087613874565b6000670de0b6b3a7640000826004015486612b0691906148cd565b612b1091906148ad565b8260030154612b1f9190614895565b90508015612b9e5780851015612b775760405162461bcd60e51b815260206004820152601b60248201527f73656e643a20616d6f756e74206e6f7420636f766572206665657300000000006044820152606401610be0565b80826005016000828254612b8b9190614895565b90915550612b9b905081866148ec565b94505b84826006016000828254612bb29190614895565b909155508593505050505b9392505050565b612bce8282611cc9565b610eb4576000828152602081815260408083206001600160a01b03851684529091529020805460ff19166001179055612c043390565b6001600160a01b0316816001600160a01b0316837f2f8788117e7eff1d82e926ec794901d17c78024a50270940304540a733656f0d60405160405180910390a45050565b612c528282611cc9565b15610eb4576000828152602081815260408083206001600160a01b0385168085529252808320805460ff1916905551339285917ff6391f5c32d9c69d2a47ea670b442974b53935d1edc7fd64eb21e047a839171b9190a45050565b612cbf60015462010000900460ff1690565b612d025760405162461bcd60e51b815260206004820152601460248201527314185d5cd8589b194e881b9bdd081c185d5cd95960621b6044820152606401610be0565b6001805462ff0000191690556040513381527f5db9ee0a495bf2e6ff9c91a7834c1ba4fdd244a5e8aa4e537bd38aeae4b073aa906020015b60405180910390a1565b60008781526008602052604090205460ff1615612d985760405162461bcd60e51b81526020600482015260126024820152711b5a5b9d0e88185b1c9958591e481d5cd95960721b6044820152606401610be0565b60008681526007602090815260408083208a84526008909252909120805460ff19166001908117909155600254908201541415612e0f5760405162461bcd60e51b815260206004820152601560248201527436b4b73a1d1034b9903730ba34bb329031b430b4b760591b6044820152606401610be0565b8215612fb45780546040516340c10f1960e01b8152336004820152602481018590526001600160a01b03909116906340c10f1990604401600060405180830381600087803b158015612e6057600080fd5b505af1158015612e74573d6000803e3d6000fd5b50508254600480546040516340c10f1960e01b81526001600160a01b0391821692810192909252602482018a905290911692506340c10f199150604401600060405180830381600087803b158015612ecb57600080fd5b505af1158015612edf573d6000803e3d6000fd5b5050600480548454604051633bab642f60e01b8152600095506001600160a01b039283169450633bab642f93612f1f93909216918a918d918a910161464b565b602060405180830381600087803b158015612f3957600080fd5b505af1158015612f4d573d6000803e3d6000fd5b505050506040513d601f19601f82011682018060405250810190612f719190613fa8565b604080518b815282151560208201529192507f36c8142a7dcbbfde02c55b345b75761d6761eb241d6c504a0df77c0730b52fe9910160405180910390a15061301a565b80546040516340c10f1960e01b81526001600160a01b03888116600483015260248201889052909116906340c10f1990604401600060405180830381600087803b15801561300157600080fd5b505af1158015613015573d6000803e3d6000fd5b505050505b60408051898152602081018790526001600160a01b03881691810191909152606081018890527f5918a95fd00afb5898499bd5beade1619e98655d2b4ff6e0f6a4347f0a69c127906080015b60405180910390a15050505050505050565b6000838152600760205260408120600254600182015414156130d15760405162461bcd60e51b8152602060048201526012602482015271189d5c9b8e881b985d1a5d9948185cdcd95d60721b6044820152606401610be0565b600083815260088201602052604090205460ff166131315760405162461bcd60e51b815260206004820152601860248201527f6275726e3a2077726f6e672074617267656420636861696e00000000000000006044820152606401610be0565b806002015484101561317c5760405162461bcd60e51b81526020600482015260146024820152736275726e3a20616d6f756e7420746f6f206c6f7760601b6044820152606401610be0565b80546040516323b872dd60e01b8152336004820152306024820152604481018690526001600160a01b039091169081906323b872dd90606401602060405180830381600087803b1580156131cf57600080fd5b505af11580156131e3573d6000803e3d6000fd5b505050506040513d601f19601f820116820180604052508101906132079190613fa8565b506000670de0b6b3a764000083600401548761322391906148cd565b61322d91906148ad565b836003015461323c9190614895565b905080156132bb57808610156132945760405162461bcd60e51b815260206004820152601b60248201527f6275726e3a20616d6f756e74206e6f7420636f766572206665657300000000006044820152606401610be0565b808360050160008282546132a89190614895565b909155506132b8905081876148ec565b95505b604051630852cd8d60e31b8152600481018790526001600160a01b038316906342966c6890602401600060405180830381600087803b1580156132fd57600080fd5b505af1158015613311573d6000803e3d6000fd5b50979998505050505050505050565b60008681526007602052604090206002546001820154146133835760405162461bcd60e51b815260206004820152601960248201527f636c61696d3a2077726f6e672074617267657420636861696e000000000000006044820152606401610be0565b60008881526008602052604090205460ff16156133d85760405162461bcd60e51b815260206004820152601360248201527218db185a5b4e88185b1c9958591e481d5cd959606a1b6044820152606401610be0565b6000888152600860205260408120805460ff191660011790556006820180548792906134059084906148ec565b90915550613415905081866139ac565b80546001600160a01b031661356257821561352557604051339084156108fc029085906000818181858888f19350505050158015613457573d6000803e3d6000fd5b506004805460405163c435b14b60e01b81526000926001600160a01b039092169163c435b14b918991613490918a918d918a9101614689565b6020604051808303818588803b1580156134a957600080fd5b505af11580156134bd573d6000803e3d6000fd5b50505050506040513d601f19601f820116820180604052508101906134e29190613fa8565b604080518b815282151560208201529192507f36c8142a7dcbbfde02c55b345b75761d6761eb241d6c504a0df77c0730b52fe9910160405180910390a15061355d565b6040516001600160a01b0387169086156108fc029087906000818181858888f1935050505015801561355b573d6000803e3d6000fd5b505b613680565b821561366a57805461357e906001600160a01b031633856136d0565b600454815461359a916001600160a01b039182169116876136d0565b600480548254604051633bab642f60e01b81526000936001600160a01b0393841693633bab642f936135d5939116918a918d918a910161464b565b602060405180830381600087803b1580156135ef57600080fd5b505af1158015613603573d6000803e3d6000fd5b505050506040513d601f19601f820116820180604052508101906136279190613fa8565b604080518b815282151560208201529192507f36c8142a7dcbbfde02c55b345b75761d6761eb241d6c504a0df77c0730b52fe9910160405180910390a150613680565b8054613680906001600160a01b031687876136d0565b60408051898152602081018790526001600160a01b03881691810191909152606081018890527fabe3bed2a8590dd123c1a018888bce6142d526741bed65dfe570fb223525c6a490608001613066565b6040516001600160a01b03831660248201526044810182905261168e90849063a9059cbb60e01b906064015b60408051601f198184030181529190526020810180516001600160e01b03166001600160e01b031990931692909217909152613a82565b6000888152600760208190526040822080546001600160a01b0319166001600160a01b038b161781556001810189905560028101889055600381018790556004810186905590810184905590805b8351811015613810578381815181106137aa57634e487b7160e01b600052603260045260246000fd5b6020908102919091018101516000818152600886019092526040808320805460ff191660011790555190935083918d917fdd4dbf80f57aa5115a1e07abb36e4de565879d4de5bd15b3803d666fe1d848639190a3806138088161492f565b915050613781565b5060408051888152602081018890529081018690526060810185905288906001600160a01b038b16908c907fd942912aeb558da46e785c7a8abcd48c74853b5c29c54a9a350a389d9d2345549060800160405180910390a450505050505050505050565b6040516001600160a01b0380851660248301528316604482015260648101829052610d709085906323b872dd60e01b906084016136fc565b6138be60015462010000900460ff1690565b156138db5760405162461bcd60e51b8152600401610be0906147e0565b6001805462ff00001916620100001790556040513381527f62e78cea01bee320cd4e420270b5ea74000d11b0c9f74754ebdbfc544b05a25890602001612d3a565b466002819055600061392e8282611e39565b90506139438160006002548d8d8d8d8b613733565b600380546001600160a01b038089166001600160a01b03199283161790925560048054928816929091169190911790558351613986906005906020870190613ccc565b506006546001600160a01b031692506139a0600033610eaa565b50505050505050505050565b6000670de0b6b3a7640000836007015484600601546139cb91906148cd565b6139d591906148ad565b83549091506000906139ef906001600160a01b03166127c5565b90506000838311613a005783613a02565b825b905081811115613a7b57613a1682826148ec565b60065486546040516309e62b9160e01b81526001600160a01b0391821660048201526024810184905292935016906309e62b9190604401600060405180830381600087803b158015613a6757600080fd5b505af1158015611f48573d6000803e3d6000fd5b5050505050565b6000613ad7826040518060400160405280602081526020017f5361666545524332303a206c6f772d6c6576656c2063616c6c206661696c6564815250856001600160a01b0316613b549092919063ffffffff16565b80519091501561168e5780806020019051810190613af59190613fa8565b61168e5760405162461bcd60e51b815260206004820152602a60248201527f5361666545524332303a204552433230206f7065726174696f6e20646964206e6044820152691bdd081cdd58d8d9595960b21b6064820152608401610be0565b6060613b638484600085613b6b565b949350505050565b606082471015613bcc5760405162461bcd60e51b815260206004820152602660248201527f416464726573733a20696e73756666696369656e742062616c616e636520666f6044820152651c8818d85b1b60d21b6064820152608401610be0565b843b613c1a5760405162461bcd60e51b815260206004820152601d60248201527f416464726573733a2063616c6c20746f206e6f6e2d636f6e74726163740000006044820152606401610be0565b600080866001600160a01b03168587604051613c36919061462f565b60006040518083038185875af1925050503d8060008114613c73576040519150601f19603f3d011682016040523d82523d6000602084013e613c78565b606091505b5091509150613c88828286613c93565b979650505050505050565b60608315613ca2575081612bbd565b825115613cb25782518084602001fd5b8160405162461bcd60e51b8152600401610be09190614757565b828054828255906000526020600020908101928215613d07579160200282015b82811115613d07578251825591602001919060010190613cec565b50613d13929150613d17565b5090565b5b80821115613d135760008155600101613d18565b600082601f830112613d3c578081fd5b8135602067ffffffffffffffff821115613d5857613d58614980565b808202613d66828201614864565b838152828101908684018388018501891015613d80578687fd5b8693505b85841015613da2578035835260019390930192918401918401613d84565b50979650505050505050565b600082601f830112613dbe578081fd5b813567ffffffffffffffff811115613dd857613dd8614980565b613deb601f8201601f1916602001614864565b818152846020838601011115613dff578283fd5b816020850160208301379081016020019190915292915050565b803560ff81168114610bac57600080fd5b600060208284031215613e3b578081fd5b8135612bbd81614996565b600080600080600080600080610100898b031215613e62578384fd5b8835613e6d81614996565b97506020890135613e7d81614996565b965060408901359550606089013594506080890135935060a0890135925060c0890135915060e089013567ffffffffffffffff811115613ebb578182fd5b613ec78b828c01613d2c565b9150509295985092959890939650565b60008060408385031215613ee9578182fd5b8235613ef481614996565b946020939093013593505050565b60008060008060008060c08789031215613f1a578182fd5b8635613f2581614996565b95506020870135945060408701359350606087013592506080870135915060a087013567ffffffffffffffff811115613f5c578182fd5b613f6889828a01613d2c565b9150509295509295509295565b600060208284031215613f86578081fd5b813567ffffffffffffffff811115613f9c578182fd5b613b6384828501613d2c565b600060208284031215613fb9578081fd5b8151612bbd816149ae565b600060208284031215613fd5578081fd5b5035919050565b60008060408385031215613fee578182fd5b82359150602083013561400081614996565b809150509250929050565b60008060006060848603121561401f578081fd5b83359250602084013561403181614996565b929592945050506040919091013590565b60008060008060808587031215614057578182fd5b84359350602085013561406981614996565b93969395505050506040820135916060013590565b600080600080600080600060e0888a031215614098578081fd5b8735965060208801356140aa81614996565b9550604088013594506060880135935060808801356140c881614996565b925060a0880135915060c088013567ffffffffffffffff8111156140ea578182fd5b6140f68a828b01613dae565b91505092959891949750929550565b60008060408385031215614117578182fd5b50508035926020909101359150565b600080600080600060a0868803121561413d578283fd5b8535945060208601359350604086013561415681614996565b94979396509394606081013594506080013592915050565b600080600080600080600080610100898b03121561418a578182fd5b883597506020890135965060408901356141a381614996565b9550606089013594506080890135935060a08901356141c181614996565b925060c0890135915060e089013567ffffffffffffffff8111156141e3578182fd5b613ec78b828c01613dae565b60008060008060008060008060006101208a8c03121561420d578283fd5b8935985060208a0135975060408a013561422681614996565b965060608a0135955060808a0135945060a08a013561424481614996565b935060c08a0135925060e08a013567ffffffffffffffff811115614266578182fd5b6142728c828d01613dae565b9250506142826101008b01613e19565b90509295985092959850929598565b60008060008060008060c087890312156142a9578384fd5b863595506020870135945060408701356142c281614996565b935060608701359250608087013591506142de60a08801613e19565b90509295509295509295565b6000806000606084860312156142fe578081fd5b83359250602084013591506040840135614317816149ae565b809150509250925092565b60008060008060008060c0878903121561433a578384fd5b86359550602087013594506040870135935060608701359250608087013561436181614996565b8092505060a087013590509295509295509295565b60008060008060008060008060006101208a8c031215614394578283fd5b8935985060208a0135975060408a0135965060608a0135955060808a01356143bb81614996565b945060a08a0135935060c08a01356143d281614996565b925060e08a013591506101008a013567ffffffffffffffff8111156143f5578182fd5b6144018c828d01613dae565b9150509295985092959850929598565b600080600080600060a08688031215614428578283fd5b505083359560208501359550604085013594606081013594506080013592509050565b60006020828403121561445c578081fd5b81356001600160e01b031981168114612bbd578182fd5b600060208284031215614484578081fd5b5051919050565b6000806000806000806000806000806101408b8d0312156144aa578384fd5b8a35995060208b0135985060408b0135975060608b0135965060808b01356144d181614996565b955060a08b01356144e181614996565b945060c08b013567ffffffffffffffff8111156144fc578485fd5b6145088d828e01613d2c565b94505060e08b013561451981614996565b92506101008b013561452a81614996565b91506101208b013561453b81614996565b809150509295989b9194979a5092959850565b60006020828403121561455f578081fd5b612bbd82613e19565b6000806040838503121561457a578182fd5b61458383613e19565b91506020830135614000816149ae565b600081518084526145ab816020860160208601614903565b601f01601f19169290920160200192915050565b60008a82528960208301528860408301528760608301526bffffffffffffffffffffffff19808860601b166080840152866094840152808660601b1660b4840152508360c8830152825161461a8160e8850160208701614903565b9190910160e8019a9950505050505050505050565b60008251614641818460208701614903565b9190910192915050565b6001600160a01b03858116825284811660208301528316604082015260806060820181905260009061467f90830184614593565b9695505050505050565b6001600160a01b038481168252831660208201526060604082018190526000906146b590830184614593565b95945050505050565b6020808252825182820181905260009190848201906040850190845b818110156146f6578351835292840192918401916001016146da565b50909695505050505050565b60006101008a835289602084015288604084015260018060a01b03881660608401528660808401528560a08401528460c08401528060e084015261474881840185614593565b9b9a5050505050505050505050565b600060208252612bbd6020830184614593565b60208082526028908201527f6d696e74576974684f6c6441676772656761746f723a20696e76616c6964416760408201526733b932b3b0ba37b960c11b606082015260800190565b60208082526014908201527318db185a5b4e881b9bdd0818dbdb999a5c9b595960621b604082015260600190565b60208082526010908201526f14185d5cd8589b194e881c185d5cd95960821b604082015260600190565b6020808252601390820152726f6e6c7941646d696e3a2062616420726f6c6560681b604082015260600190565b6020808252601390820152721b5a5b9d0e881b9bdd0818dbdb999a5c9b5959606a1b604082015260600190565b604051601f8201601f1916810167ffffffffffffffff8111828210171561488d5761488d614980565b604052919050565b600082198211156148a8576148a861496a565b500190565b6000826148c857634e487b7160e01b81526012600452602481fd5b500490565b60008160001904831182151516156148e7576148e761496a565b500290565b6000828210156148fe576148fe61496a565b500390565b60005b8381101561491e578181015183820152602001614906565b83811115610d705750506000910152565b60006000198214156149435761494361496a565b5060010190565b600060ff821660ff8114156149615761496161496a565b60010192915050565b634e487b7160e01b600052601160045260246000fd5b634e487b7160e01b600052604160045260246000fd5b6001600160a01b03811681146149ab57600080fd5b50565b80151581146149ab57600080fdfea26469706673582212205efd9d8b69a79c160c01a5813415650d32106c1df1ea663e8407c2fdb885ac4a64736f6c63430008020033",
  "immutableReferences": {},
  "source": "// SPDX-License-Identifier: MIT\npragma solidity ^0.8.2;\n\nimport \"@openzeppelin/contracts/token/ERC20/ERC20.sol\";\nimport \"@openzeppelin/contracts/token/ERC20/IERC20.sol\";\nimport \"@openzeppelin/contracts/token/ERC20/utils/SafeERC20.sol\";\nimport \"@openzeppelin/contracts/access/AccessControl.sol\";\nimport \"../interfaces/IWhiteDebridge.sol\";\nimport \"../interfaces/IFeeProxy.sol\";\nimport \"../interfaces/IWETH.sol\";\nimport \"../interfaces/IWhiteFullDebridge.sol\";\nimport \"../interfaces/IDefiController.sol\";\nimport \"../interfaces/IWhiteFullAggregator.sol\";\nimport \"../periphery/WrappedAsset.sol\";\nimport \"./WhiteDebridge.sol\";\n\ncontract WhiteFullDebridge is WhiteDebridge, IWhiteFullDebridge {\n    using SafeERC20 for IERC20;\n\n    IFeeProxy public feeProxy; // proxy to convert the collected fees into Link's\n    IWETH public weth; // wrapped native token contract\n\n    /// @dev Constructor that initializes the most important configurations.\n    /// @param _minAmount Minimal amount of current chain token to be wrapped.\n    /// @param _fixedFee Fixed transfer fee rate.\n    /// @param _transferFee Transfer fee rate.\n    /// @param _minReserves Minimal reserve ratio.\n    /// @param _aggregator Submission aggregator address.\n    /// @param _supportedChainIds Chain ids where native token of the current chain can be wrapped.\n    function initialize(\n        uint256 _minAmount,\n        uint256 _fixedFee,\n        uint256 _transferFee,\n        uint256 _minReserves,\n        address _aggregator,\n        address _callProxy,\n        uint256[] memory _supportedChainIds,\n        IWETH _weth,\n        IFeeProxy _feeProxy,\n        IDefiController _defiController\n    ) public payable initializer {\n        super._initialize(\n            _minAmount,\n            _fixedFee,\n            _transferFee,\n            _minReserves,\n            _aggregator,\n            _callProxy,\n            _supportedChainIds,\n            _defiController\n        );\n        weth = _weth;\n        feeProxy = _feeProxy;\n    }\n\n    /// @dev Mints wrapped asset on the current chain.\n    /// @param _debridgeId Asset identifier.\n    /// @param _receiver Receiver address.\n    /// @param _amount Amount of the transfered asset (note: without applyed fee).\n    /// @param _nonce Submission id.\n    function autoMint(\n        bytes32 _debridgeId,\n        uint256 _chainIdFrom,\n        address _receiver,\n        uint256 _amount,\n        uint256 _nonce,\n        address _reserveAddress,\n        uint256 _claimFee,\n        bytes memory _data\n    ) external whenNotPaused() {\n        bytes32 submissionId =\n            getAutoSubmisionId(\n                _debridgeId,\n                _chainIdFrom,\n                chainId,\n                _amount,\n                _receiver,\n                _nonce,\n                _reserveAddress,\n                _claimFee,\n                _data\n            );\n        require(\n            IWhiteFullAggregator(aggregator).isSubmissionConfirmed(\n                submissionId\n            ),\n            \"mint: not confirmed\"\n        );\n        _mint(\n            submissionId,\n            _debridgeId,\n            _receiver,\n            _amount,\n            _reserveAddress,\n            _claimFee,\n            _data\n        );\n    }\n\n    /// @dev Mints wrapped asset on the current chain.\n    /// @param _debridgeId Asset identifier.\n    /// @param _receiver Receiver address.\n    /// @param _amount Amount of the transfered asset (note: without applyed fee).\n    /// @param _nonce Submission id.\n    function autoMintWithOldAggregator(\n        bytes32 _debridgeId,\n        uint256 _chainIdFrom,\n        address _receiver,\n        uint256 _amount,\n        uint256 _nonce,\n        address _reserveAddress,\n        uint256 _claimFee,\n        bytes memory _data,\n        uint8 _aggregatorVersion\n    ) external whenNotPaused() {\n        bytes32 submissionId =\n            getAutoSubmisionId(\n                _debridgeId,\n                _chainIdFrom,\n                chainId,\n                _amount,\n                _receiver,\n                _nonce,\n                _reserveAddress,\n                _claimFee,\n                _data\n            );\n        AggregatorInfo memory aggregatorInfo =\n            getOldAggregator[_aggregatorVersion];\n        require(\n            aggregatorInfo.isValid,\n            \"mintWithOldAggregator: invalidAggregator\"\n        );\n        require(\n            IWhiteFullAggregator(aggregatorInfo.aggregator)\n                .isSubmissionConfirmed(submissionId),\n            \"mint: not confirmed\"\n        );\n        _mint(\n            submissionId,\n            _debridgeId,\n            _receiver,\n            _amount,\n            _reserveAddress,\n            _claimFee,\n            _data\n        );\n    }\n\n    /// @dev Mints wrapped asset on the current chain.\n    /// @param _debridgeId Asset identifier.\n    /// @param _receiver Receiver address.\n    /// @param _amount Amount of the transfered asset (note: without applyed fee).\n    /// @param _nonce Submission id.\n    function mint(\n        bytes32 _debridgeId,\n        uint256 _chainIdFrom,\n        address _receiver,\n        uint256 _amount,\n        uint256 _nonce\n    ) external override whenNotPaused() {\n        bytes32 submissionId =\n            getSubmisionId(\n                _debridgeId,\n                _chainIdFrom,\n                chainId,\n                _amount,\n                _receiver,\n                _nonce\n            );\n        require(\n            IWhiteFullAggregator(aggregator).isSubmissionConfirmed(\n                submissionId\n            ),\n            \"mint: not confirmed\"\n        );\n        _mint(\n            submissionId,\n            _debridgeId,\n            _receiver,\n            _amount,\n            address(0),\n            0,\n            \"0x\"\n        );\n    }\n\n    /// @dev Mints wrapped asset on the current chain.\n    /// @param _debridgeId Asset identifier.\n    /// @param _receiver Receiver address.\n    /// @param _amount Amount of the transfered asset (note: without applyed fee).\n    /// @param _nonce Submission id.\n    /// @param _aggregatorVersion Aggregator version.\n    function mintWithOldAggregator(\n        bytes32 _debridgeId,\n        uint256 _chainIdFrom,\n        address _receiver,\n        uint256 _amount,\n        uint256 _nonce,\n        uint8 _aggregatorVersion\n    ) external override {\n        bytes32 submissionId =\n            getSubmisionId(\n                _debridgeId,\n                _chainIdFrom,\n                chainId,\n                _amount,\n                _receiver,\n                _nonce\n            );\n        AggregatorInfo memory aggregatorInfo =\n            getOldAggregator[_aggregatorVersion];\n        require(\n            aggregatorInfo.isValid,\n            \"mintWithOldAggregator: invalidAggregator\"\n        );\n        require(\n            IWhiteFullAggregator(aggregatorInfo.aggregator)\n                .isSubmissionConfirmed(submissionId),\n            \"mint: not confirmed\"\n        );\n        _mint(\n            submissionId,\n            _debridgeId,\n            _receiver,\n            _amount,\n            address(0),\n            0,\n            \"0x\"\n        );\n    }\n\n    /// @dev Unlock the asset on the current chain and transfer to receiver.\n    /// @param _debridgeId Asset identifier.\n    /// @param _receiver Receiver address.\n    /// @param _amount Amount of the transfered asset (note: the fee can be applyed).\n    /// @param _nonce Submission id.\n    function autoClaim(\n        bytes32 _debridgeId,\n        uint256 _chainIdFrom,\n        address _receiver,\n        uint256 _amount,\n        uint256 _nonce,\n        address _reserveAddress,\n        uint256 _claimFee,\n        bytes memory _data\n    ) external whenNotPaused() {\n        bytes32 submissionId =\n            getAutoSubmisionId(\n                _debridgeId,\n                _chainIdFrom,\n                chainId,\n                _amount,\n                _receiver,\n                _nonce,\n                _reserveAddress,\n                _claimFee,\n                _data\n            );\n        require(\n            IWhiteFullAggregator(aggregator).isSubmissionConfirmed(\n                submissionId\n            ),\n            \"claim: not confirmed\"\n        );\n        _claim(\n            submissionId,\n            _debridgeId,\n            _receiver,\n            _amount,\n            _reserveAddress,\n            _claimFee,\n            _data\n        );\n    }\n\n    /// @dev Unlock the asset on the current chain and transfer to receiver.\n    /// @param _debridgeId Asset identifier.\n    /// @param _receiver Receiver address.\n    /// @param _amount Amount of the transfered asset (note: the fee can be applyed).\n    /// @param _nonce Submission id.\n    function autoClaimWithOldAggregator(\n        bytes32 _debridgeId,\n        uint256 _chainIdFrom,\n        address _receiver,\n        uint256 _amount,\n        uint256 _nonce,\n        address _reserveAddress,\n        uint256 _claimFee,\n        bytes memory _data,\n        uint8 _aggregatorVersion\n    ) external whenNotPaused() {\n        bytes32 submissionId =\n            getAutoSubmisionId(\n                _debridgeId,\n                _chainIdFrom,\n                chainId,\n                _amount,\n                _receiver,\n                _nonce,\n                _reserveAddress,\n                _claimFee,\n                _data\n            );\n        AggregatorInfo memory aggregatorInfo =\n            getOldAggregator[_aggregatorVersion];\n        require(\n            aggregatorInfo.isValid,\n            \"mintWithOldAggregator: invalidAggregator\"\n        );\n        require(\n            IWhiteFullAggregator(aggregatorInfo.aggregator)\n                .isSubmissionConfirmed(submissionId),\n            \"claim: not confirmed\"\n        );\n        _claim(\n            submissionId,\n            _debridgeId,\n            _receiver,\n            _amount,\n            _reserveAddress,\n            _claimFee,\n            _data\n        );\n    }\n\n    /// @dev Unlock the asset on the current chain and transfer to receiver.\n    /// @param _debridgeId Asset identifier.\n    /// @param _receiver Receiver address.\n    /// @param _amount Amount of the transfered asset (note: the fee can be applyed).\n    /// @param _nonce Submission id.\n    function claim(\n        bytes32 _debridgeId,\n        uint256 _chainIdFrom,\n        address _receiver,\n        uint256 _amount,\n        uint256 _nonce\n    ) external override whenNotPaused() {\n        bytes32 submissionId =\n            getSubmisionId(\n                _debridgeId,\n                _chainIdFrom,\n                chainId,\n                _amount,\n                _receiver,\n                _nonce\n            );\n        require(\n            IWhiteFullAggregator(aggregator).isSubmissionConfirmed(\n                submissionId\n            ),\n            \"claim: not confirmed\"\n        );\n        _claim(\n            submissionId,\n            _debridgeId,\n            _receiver,\n            _amount,\n            address(0),\n            0,\n            \"0x\"\n        );\n    }\n\n    /// @dev Unlock the asset on the current chain and transfer to receiver.\n    /// @param _debridgeId Asset identifier.\n    /// @param _receiver Receiver address.\n    /// @param _amount Amount of the transfered asset (note: the fee can be applyed).\n    /// @param _nonce Submission id.\n    /// @param _aggregatorVersion Aggregator version.\n    function claimWithOldAggregator(\n        bytes32 _debridgeId,\n        uint256 _chainIdFrom,\n        address _receiver,\n        uint256 _amount,\n        uint256 _nonce,\n        uint8 _aggregatorVersion\n    ) external override {\n        bytes32 submissionId =\n            getSubmisionId(\n                _debridgeId,\n                _chainIdFrom,\n                chainId,\n                _amount,\n                _receiver,\n                _nonce\n            );\n        AggregatorInfo memory aggregatorInfo =\n            getOldAggregator[_aggregatorVersion];\n        require(\n            aggregatorInfo.isValid,\n            \"mintWithOldAggregator: invalidAggregator\"\n        );\n        require(\n            IWhiteFullAggregator(aggregatorInfo.aggregator)\n                .isSubmissionConfirmed(submissionId),\n            \"claim: not confirmed\"\n        );\n        _claim(\n            submissionId,\n            _debridgeId,\n            _receiver,\n            _amount,\n            address(0),\n            0,\n            \"0x\"\n        );\n    }\n\n    /* ADMIN */\n\n    /// @dev Fund aggregator.\n    /// @param _debridgeId Asset identifier.\n    /// @param _amount Submission aggregator address.\n    function fundAggregator(bytes32 _debridgeId, uint256 _amount)\n        external\n        onlyAdmin()\n    {\n        DebridgeInfo storage debridge = getDebridge[_debridgeId];\n        require(\n            debridge.collectedFees >= _amount,\n            \"fundAggregator: not enough fee\"\n        );\n        debridge.collectedFees -= _amount;\n        if (debridge.tokenAddress == address(0)) {\n            weth.deposit{value: _amount}();\n            weth.transfer(address(feeProxy), _amount);\n            feeProxy.swapToLink(address(weth), _amount, aggregator);\n        } else {\n            IERC20(debridge.tokenAddress).safeTransfer(\n                address(feeProxy),\n                _amount\n            );\n            feeProxy.swapToLink(debridge.tokenAddress, _amount, aggregator);\n        }\n    }\n\n    /// @dev Set fee converter proxy.\n    /// @param _feeProxy Fee proxy address.\n    function setFeeProxy(IFeeProxy _feeProxy) external onlyAdmin() {\n        feeProxy = _feeProxy;\n    }\n\n    /// @dev Set wrapped native asset address.\n    /// @param _weth Weth address.\n    function setWeth(IWETH _weth) external onlyAdmin() {\n        weth = _weth;\n    }\n}\n",
  "sourcePath": "/Users/kstasi/Documents/side/debridge-contracts/contracts/transfers/WhiteFullDebridge.sol",
  "compiler": {
    "name": "solc",
    "version": "0.8.2+commit.661d1103.Emscripten.clang"
  },
  "schemaVersion": "3.3.4",
  "updatedAt": "2021-05-03T11:48:30.644Z",
  "networkType": "ethereum",
  "devdoc": {
    "kind": "dev",
    "methods": {
      "addExternalAsset(address,address,uint256,uint256,uint256,uint256,uint256,uint256[])": {
        "details": "Add support for the asset from the other chain, deploy new wrapped asset.",
        "params": {
          "_chainId": "Current chain id.",
          "_fixedFee": "Transfer fee rate.",
          "_minAmount": "Minimal amount of the asset to be wrapped.",
          "_minReserves": "Minimal reserve ration.",
          "_supportedChainIds": "Chain ids where the token of the current chain can be transfered.",
          "_tokenAddress": "Address of the asset on the other chain.",
          "_transferFee": "Transfer fee rate.",
          "_wrappedAssetAddress": "Wrapped asset address."
        }
      },
      "addNativeAsset(address,uint256,uint256,uint256,uint256,uint256[])": {
        "details": "Add support for the asset on the current chain.",
        "params": {
          "_fixedFee": "Transfer fee rate.",
          "_minAmount": "Minimal amount of current chain token to be wrapped.",
          "_minReserves": "Minimal reserve ration.",
          "_supportedChainIds": "Chain ids where native token of the current chain can be wrapped.",
          "_tokenAddress": "Address of the asset on the current chain.",
          "_transferFee": "Transfer fee rate."
        }
      },
      "autoBurn(bytes32,address,uint256,uint256,address,uint256,bytes)": {
        "details": "Burns wrapped asset and allowss to claim it on the other chain.",
        "params": {
          "_amount": "Amount of the transfered asset (note: the fee can be applyed).",
          "_chainIdTo": "Chain id of the target chain.",
          "_debridgeId": "Asset identifier.",
          "_receiver": "Receiver address."
        }
      },
      "autoClaim(bytes32,uint256,address,uint256,uint256,address,uint256,bytes)": {
        "details": "Unlock the asset on the current chain and transfer to receiver.",
        "params": {
          "_amount": "Amount of the transfered asset (note: the fee can be applyed).",
          "_debridgeId": "Asset identifier.",
          "_nonce": "Submission id.",
          "_receiver": "Receiver address."
        }
      },
      "autoClaimWithOldAggregator(bytes32,uint256,address,uint256,uint256,address,uint256,bytes,uint8)": {
        "details": "Unlock the asset on the current chain and transfer to receiver.",
        "params": {
          "_amount": "Amount of the transfered asset (note: the fee can be applyed).",
          "_debridgeId": "Asset identifier.",
          "_nonce": "Submission id.",
          "_receiver": "Receiver address."
        }
      },
      "autoMint(bytes32,uint256,address,uint256,uint256,address,uint256,bytes)": {
        "details": "Mints wrapped asset on the current chain.",
        "params": {
          "_amount": "Amount of the transfered asset (note: without applyed fee).",
          "_debridgeId": "Asset identifier.",
          "_nonce": "Submission id.",
          "_receiver": "Receiver address."
        }
      },
      "autoMintWithOldAggregator(bytes32,uint256,address,uint256,uint256,address,uint256,bytes,uint8)": {
        "details": "Mints wrapped asset on the current chain.",
        "params": {
          "_amount": "Amount of the transfered asset (note: without applyed fee).",
          "_debridgeId": "Asset identifier.",
          "_nonce": "Submission id.",
          "_receiver": "Receiver address."
        }
      },
      "autoSend(bytes32,address,uint256,uint256,address,uint256,bytes)": {
        "details": "Locks asset on the chain and enables minting on the other chain.",
        "params": {
          "_amount": "Amount to be transfered (note: the fee can be applyed).",
          "_chainIdTo": "Chain id of the target chain.",
          "_debridgeId": "Asset identifier.",
          "_receiver": "Receiver address."
        }
      },
      "burn(bytes32,address,uint256,uint256)": {
        "details": "Burns wrapped asset and allowss to claim it on the other chain.",
        "params": {
          "_amount": "Amount of the transfered asset (note: the fee can be applyed).",
          "_chainIdTo": "Chain id of the target chain.",
          "_debridgeId": "Asset identifier.",
          "_receiver": "Receiver address."
        }
      },
      "claim(bytes32,uint256,address,uint256,uint256)": {
        "details": "Unlock the asset on the current chain and transfer to receiver.",
        "params": {
          "_amount": "Amount of the transfered asset (note: the fee can be applyed).",
          "_debridgeId": "Asset identifier.",
          "_nonce": "Submission id.",
          "_receiver": "Receiver address."
        }
      },
      "claimWithOldAggregator(bytes32,uint256,address,uint256,uint256,uint8)": {
        "details": "Unlock the asset on the current chain and transfer to receiver.",
        "params": {
          "_aggregatorVersion": "Aggregator version.",
          "_amount": "Amount of the transfered asset (note: the fee can be applyed).",
          "_debridgeId": "Asset identifier.",
          "_nonce": "Submission id.",
          "_receiver": "Receiver address."
        }
      },
      "fundAggregator(bytes32,uint256)": {
        "details": "Fund aggregator.",
        "params": {
          "_amount": "Submission aggregator address.",
          "_debridgeId": "Asset identifier."
        }
      },
      "getAutoSubmisionId(bytes32,uint256,uint256,uint256,address,uint256,address,uint256,bytes)": {
        "details": "Calculate submission id for auto claimable transfer.",
        "params": {
          "_amount": "Amount of the transfered asset (note: the fee can be applyed).",
          "_debridgeId": "Asset identifier.",
          "_nonce": "Submission id.",
          "_receiver": "Receiver address."
        }
      },
      "getBalance(address)": {
        "details": "Check the balance.",
        "params": {
          "_tokenAddress": "Address of the asset on the other chain."
        }
      },
      "getDebridgeId(uint256,address)": {
        "details": "Calculates asset identifier.",
        "params": {
          "_chainId": "Current chain id.",
          "_tokenAddress": "Address of the asset on the other chain."
        }
      },
      "getRoleAdmin(bytes32)": {
        "details": "Returns the admin role that controls `role`. See {grantRole} and {revokeRole}. To change a role's admin, use {_setRoleAdmin}."
      },
      "getSubmisionId(bytes32,uint256,uint256,uint256,address,uint256)": {
        "details": "Calculate submission id.",
        "params": {
          "_amount": "Amount of the transfered asset (note: the fee can be applyed).",
          "_debridgeId": "Asset identifier.",
          "_nonce": "Submission id.",
          "_receiver": "Receiver address."
        }
      },
      "grantRole(bytes32,address)": {
        "details": "Grants `role` to `account`. If `account` had not been already granted `role`, emits a {RoleGranted} event. Requirements: - the caller must have ``role``'s admin role."
      },
      "hasRole(bytes32,address)": {
        "details": "Returns `true` if `account` has been granted `role`."
      },
      "initialize(uint256,uint256,uint256,uint256,address,address,uint256[],address,address,address)": {
        "details": "Constructor that initializes the most important configurations.",
        "params": {
          "_aggregator": "Submission aggregator address.",
          "_fixedFee": "Fixed transfer fee rate.",
          "_minAmount": "Minimal amount of current chain token to be wrapped.",
          "_minReserves": "Minimal reserve ratio.",
          "_supportedChainIds": "Chain ids where native token of the current chain can be wrapped.",
          "_transferFee": "Transfer fee rate."
        }
      },
      "isChainIdSupported(bytes32,uint256)": {
        "details": "Check if transfer to chain is supported.",
        "params": {
          "_chainId": "Chain identifier.",
          "_debridgeId": "Asset identifier."
        }
      },
      "manageOldAggregator(uint8,bool)": {
        "details": "Set aggregator address.",
        "params": {
          "_aggregatorVersion": "Submission aggregator address.",
          "_isValid": "Is valid."
        }
      },
      "mint(bytes32,uint256,address,uint256,uint256)": {
        "details": "Mints wrapped asset on the current chain.",
        "params": {
          "_amount": "Amount of the transfered asset (note: without applyed fee).",
          "_debridgeId": "Asset identifier.",
          "_nonce": "Submission id.",
          "_receiver": "Receiver address."
        }
      },
      "mintWithOldAggregator(bytes32,uint256,address,uint256,uint256,uint8)": {
        "details": "Mints wrapped asset on the current chain.",
        "params": {
          "_aggregatorVersion": "Aggregator version.",
          "_amount": "Amount of the transfered asset (note: without applyed fee).",
          "_debridgeId": "Asset identifier.",
          "_nonce": "Submission id.",
          "_receiver": "Receiver address."
        }
      },
      "pause()": {
        "details": "Stop all transfers."
      },
      "paused()": {
        "details": "Returns true if the contract is paused, and false otherwise."
      },
      "renounceRole(bytes32,address)": {
        "details": "Revokes `role` from the calling account. Roles are often managed via {grantRole} and {revokeRole}: this function's purpose is to provide a mechanism for accounts to lose their privileges if they are compromised (such as when a trusted device is misplaced). If the calling account had been granted `role`, emits a {RoleRevoked} event. Requirements: - the caller must be `account`."
      },
      "requestReserves(address,uint256)": {
        "details": "Request the assets to be used in defi protocol.",
        "params": {
          "_amount": "Amount of tokens to request.",
          "_tokenAddress": "Asset address."
        }
      },
      "returnReserves(address,uint256)": {
        "details": "Return the assets that were used in defi protocol.",
        "params": {
          "_amount": "Amount of tokens to claim.",
          "_tokenAddress": "Asset address."
        }
      },
      "revokeRole(bytes32,address)": {
        "details": "Revokes `role` from `account`. If `account` had been granted `role`, emits a {RoleRevoked} event. Requirements: - the caller must have ``role``'s admin role."
      },
      "send(bytes32,address,uint256,uint256)": {
        "details": "Locks asset on the chain and enables minting on the other chain.",
        "params": {
          "_amount": "Amount to be transfered (note: the fee can be applyed).",
          "_chainIdTo": "Chain id of the target chain.",
          "_debridgeId": "Asset identifier.",
          "_receiver": "Receiver address."
        }
      },
      "setAggregator(address)": {
        "details": "Set aggregator address.",
        "params": {
          "_aggregator": "Submission aggregator address."
        }
      },
      "setChainIdSupport(bytes32,uint256,bool)": {
        "details": "Set support for the chains where the token can be transfered.",
        "params": {
          "_chainId": "Current chain id.",
          "_debridgeId": "Asset identifier.",
          "_isSupported": "Whether the token is transferable to the other chain."
        }
      },
      "setChainIds(address)": {
        "details": "Set support for the chains.",
        "params": {
          "_callProxy": "Address of the proxy that executes external calls."
        }
      },
      "setChainIds(uint256[])": {
        "details": "Set support for the chains.",
        "params": {
          "_chainIds": "All supported chain ids."
        }
      },
      "setDefiController(address)": {
        "details": "Set defi controoler.",
        "params": {
          "_defiController": "Defi controller address address."
        }
      },
      "setFeeProxy(address)": {
        "details": "Set fee converter proxy.",
        "params": {
          "_feeProxy": "Fee proxy address."
        }
      },
      "setWeth(address)": {
        "details": "Set wrapped native asset address.",
        "params": {
          "_weth": "Weth address."
        }
      },
      "supportsInterface(bytes4)": {
        "details": "See {IERC165-supportsInterface}."
      },
      "unpause()": {
        "details": "Allow transfers."
      },
      "updateAsset(bytes32,uint256,uint256,uint256,uint256)": {
        "details": "Add support for the asset.",
        "params": {
          "_debridgeId": "Asset identifier.",
          "_fixedFee": "Fixed transfer fee rate.",
          "_minAmount": "Minimal amount of the asset to be wrapped.",
          "_minReserves": "Minimal reserve ration.",
          "_transferFee": "Transfer fee rate."
        }
      },
      "withdrawFee(bytes32,address,uint256)": {
        "details": "Withdraw fees.",
        "params": {
          "_amount": "Amount of tokens to withdraw.",
          "_debridgeId": "Asset identifier.",
          "_receiver": "Receiver address."
        }
      }
    },
    "version": 1
  },
  "userdoc": {
    "kind": "user",
    "methods": {},
    "version": 1
  }
}