{
  "contractName": "WhiteDebridge",
  "abi": [
    {
      "inputs": [
        {
          "internalType": "uint256",
          "name": "_chainId",
          "type": "uint256"
        },
        {
          "internalType": "uint256",
          "name": "_minAmount",
          "type": "uint256"
        },
        {
          "internalType": "uint256",
          "name": "_transferFee",
          "type": "uint256"
        },
        {
          "internalType": "uint256[]",
          "name": "_supportedChainIds",
          "type": "uint256[]"
        }
      ],
      "stateMutability": "nonpayable",
      "type": "constructor"
    },
    {
      "anonymous": false,
      "inputs": [
        {
          "indexed": false,
          "internalType": "bytes32",
          "name": "debridgeId",
          "type": "bytes32"
        },
        {
          "indexed": false,
          "internalType": "uint256",
          "name": "amount",
          "type": "uint256"
        },
        {
          "indexed": false,
          "internalType": "address",
          "name": "receiver",
          "type": "address"
        },
        {
          "indexed": false,
          "internalType": "uint256",
          "name": "nonce",
          "type": "uint256"
        },
        {
          "indexed": false,
          "internalType": "uint256",
          "name": "chainIdTo",
          "type": "uint256"
        }
      ],
      "name": "Burnt",
      "type": "event"
    },
    {
      "anonymous": false,
      "inputs": [
        {
          "indexed": false,
          "internalType": "uint256",
          "name": "amount",
          "type": "uint256"
        },
        {
          "indexed": false,
          "internalType": "address",
          "name": "receiver",
          "type": "address"
        },
        {
          "indexed": false,
          "internalType": "bytes32",
          "name": "debridgeId",
          "type": "bytes32"
        }
      ],
      "name": "Claimed",
      "type": "event"
    },
    {
      "anonymous": false,
      "inputs": [
        {
          "indexed": false,
          "internalType": "uint256",
          "name": "amount",
          "type": "uint256"
        },
        {
          "indexed": false,
          "internalType": "address",
          "name": "receiver",
          "type": "address"
        },
        {
          "indexed": false,
          "internalType": "bytes32",
          "name": "debridgeId",
          "type": "bytes32"
        }
      ],
      "name": "Minted",
      "type": "event"
    },
    {
      "anonymous": false,
      "inputs": [
        {
          "indexed": true,
          "internalType": "bytes32",
          "name": "role",
          "type": "bytes32"
        },
        {
          "indexed": true,
          "internalType": "bytes32",
          "name": "previousAdminRole",
          "type": "bytes32"
        },
        {
          "indexed": true,
          "internalType": "bytes32",
          "name": "newAdminRole",
          "type": "bytes32"
        }
      ],
      "name": "RoleAdminChanged",
      "type": "event"
    },
    {
      "anonymous": false,
      "inputs": [
        {
          "indexed": true,
          "internalType": "bytes32",
          "name": "role",
          "type": "bytes32"
        },
        {
          "indexed": true,
          "internalType": "address",
          "name": "account",
          "type": "address"
        },
        {
          "indexed": true,
          "internalType": "address",
          "name": "sender",
          "type": "address"
        }
      ],
      "name": "RoleGranted",
      "type": "event"
    },
    {
      "anonymous": false,
      "inputs": [
        {
          "indexed": true,
          "internalType": "bytes32",
          "name": "role",
          "type": "bytes32"
        },
        {
          "indexed": true,
          "internalType": "address",
          "name": "account",
          "type": "address"
        },
        {
          "indexed": true,
          "internalType": "address",
          "name": "sender",
          "type": "address"
        }
      ],
      "name": "RoleRevoked",
      "type": "event"
    },
    {
      "anonymous": false,
      "inputs": [
        {
          "indexed": false,
          "internalType": "bytes32",
          "name": "debridgeId",
          "type": "bytes32"
        },
        {
          "indexed": false,
          "internalType": "uint256",
          "name": "amount",
          "type": "uint256"
        },
        {
          "indexed": false,
          "internalType": "address",
          "name": "receiver",
          "type": "address"
        },
        {
          "indexed": false,
          "internalType": "uint256",
          "name": "nonce",
          "type": "uint256"
        },
        {
          "indexed": false,
          "internalType": "uint256",
          "name": "chainIdTo",
          "type": "uint256"
        }
      ],
      "name": "Sent",
      "type": "event"
    },
    {
      "inputs": [],
      "name": "AGGREGATOR_ROLE",
      "outputs": [
        {
          "internalType": "bytes32",
          "name": "",
          "type": "bytes32"
        }
      ],
      "stateMutability": "view",
      "type": "function",
      "constant": true
    },
    {
      "inputs": [],
      "name": "DEFAULT_ADMIN_ROLE",
      "outputs": [
        {
          "internalType": "bytes32",
          "name": "",
          "type": "bytes32"
        }
      ],
      "stateMutability": "view",
      "type": "function",
      "constant": true
    },
    {
      "inputs": [],
      "name": "DENOMINATOR",
      "outputs": [
        {
          "internalType": "uint256",
          "name": "",
          "type": "uint256"
        }
      ],
      "stateMutability": "view",
      "type": "function",
      "constant": true
    },
    {
      "inputs": [],
      "name": "chainId",
      "outputs": [
        {
          "internalType": "uint256",
          "name": "",
          "type": "uint256"
        }
      ],
      "stateMutability": "view",
      "type": "function",
      "constant": true
    },
    {
      "inputs": [],
      "name": "collectedFees",
      "outputs": [
        {
          "internalType": "uint256",
          "name": "",
          "type": "uint256"
        }
      ],
      "stateMutability": "view",
      "type": "function",
      "constant": true
    },
    {
      "inputs": [
        {
          "internalType": "bytes32",
          "name": "",
          "type": "bytes32"
        }
      ],
      "name": "getDebridge",
      "outputs": [
        {
          "internalType": "address",
          "name": "tokenAddress",
          "type": "address"
        },
        {
          "internalType": "uint256",
          "name": "chainId",
          "type": "uint256"
        },
        {
          "internalType": "uint256",
          "name": "minAmount",
          "type": "uint256"
        },
        {
          "internalType": "uint256",
          "name": "transferFee",
          "type": "uint256"
        }
      ],
      "stateMutability": "view",
      "type": "function",
      "constant": true
    },
    {
      "inputs": [
        {
          "internalType": "bytes32",
          "name": "role",
          "type": "bytes32"
        }
      ],
      "name": "getRoleAdmin",
      "outputs": [
        {
          "internalType": "bytes32",
          "name": "",
          "type": "bytes32"
        }
      ],
      "stateMutability": "view",
      "type": "function",
      "constant": true
    },
    {
      "inputs": [
        {
          "internalType": "bytes32",
          "name": "role",
          "type": "bytes32"
        },
        {
          "internalType": "address",
          "name": "account",
          "type": "address"
        }
      ],
      "name": "grantRole",
      "outputs": [],
      "stateMutability": "nonpayable",
      "type": "function"
    },
    {
      "inputs": [
        {
          "internalType": "bytes32",
          "name": "role",
          "type": "bytes32"
        },
        {
          "internalType": "address",
          "name": "account",
          "type": "address"
        }
      ],
      "name": "hasRole",
      "outputs": [
        {
          "internalType": "bool",
          "name": "",
          "type": "bool"
        }
      ],
      "stateMutability": "view",
      "type": "function",
      "constant": true
    },
    {
      "inputs": [],
      "name": "nonce",
      "outputs": [
        {
          "internalType": "uint256",
          "name": "",
          "type": "uint256"
        }
      ],
      "stateMutability": "view",
      "type": "function",
      "constant": true
    },
    {
      "inputs": [
        {
          "internalType": "bytes32",
          "name": "role",
          "type": "bytes32"
        },
        {
          "internalType": "address",
          "name": "account",
          "type": "address"
        }
      ],
      "name": "renounceRole",
      "outputs": [],
      "stateMutability": "nonpayable",
      "type": "function"
    },
    {
      "inputs": [
        {
          "internalType": "bytes32",
          "name": "role",
          "type": "bytes32"
        },
        {
          "internalType": "address",
          "name": "account",
          "type": "address"
        }
      ],
      "name": "revokeRole",
      "outputs": [],
      "stateMutability": "nonpayable",
      "type": "function"
    },
    {
      "inputs": [
        {
          "internalType": "bytes4",
          "name": "interfaceId",
          "type": "bytes4"
        }
      ],
      "name": "supportsInterface",
      "outputs": [
        {
          "internalType": "bool",
          "name": "",
          "type": "bool"
        }
      ],
      "stateMutability": "view",
      "type": "function",
      "constant": true
    },
    {
      "inputs": [
        {
          "internalType": "address",
          "name": "_tokenAddress",
          "type": "address"
        },
        {
          "internalType": "address",
          "name": "_receiver",
          "type": "address"
        },
        {
          "internalType": "uint256",
          "name": "_amount",
          "type": "uint256"
        },
        {
          "internalType": "uint256",
          "name": "_chainIdTo",
          "type": "uint256"
        }
      ],
      "name": "send",
      "outputs": [],
      "stateMutability": "payable",
      "type": "function",
      "payable": true
    },
    {
      "inputs": [
        {
          "internalType": "bytes32",
          "name": "_debridgeId",
          "type": "bytes32"
        },
        {
          "internalType": "address",
          "name": "_receiver",
          "type": "address"
        },
        {
          "internalType": "uint256",
          "name": "_amount",
          "type": "uint256"
        }
      ],
      "name": "claim",
      "outputs": [],
      "stateMutability": "nonpayable",
      "type": "function"
    },
    {
      "inputs": [
        {
          "internalType": "bytes32",
          "name": "_debridgeId",
          "type": "bytes32"
        },
        {
          "internalType": "address",
          "name": "_receiver",
          "type": "address"
        },
        {
          "internalType": "uint256",
          "name": "_amount",
          "type": "uint256"
        }
      ],
      "name": "burn",
      "outputs": [],
      "stateMutability": "nonpayable",
      "type": "function"
    },
    {
      "inputs": [
        {
          "internalType": "bytes32",
          "name": "_debridgeId",
          "type": "bytes32"
        },
        {
          "internalType": "address",
          "name": "_receiver",
          "type": "address"
        },
        {
          "internalType": "uint256",
          "name": "_amount",
          "type": "uint256"
        }
      ],
      "name": "mint",
      "outputs": [],
      "stateMutability": "nonpayable",
      "type": "function"
    },
    {
      "inputs": [
        {
          "internalType": "address",
          "name": "_tokenAddress",
          "type": "address"
        },
        {
          "internalType": "uint256",
          "name": "_minAmount",
          "type": "uint256"
        },
        {
          "internalType": "uint256",
          "name": "_transferFee",
          "type": "uint256"
        },
        {
          "internalType": "uint256[]",
          "name": "_supportedChainIds",
          "type": "uint256[]"
        }
      ],
      "name": "addNativelAsset",
      "outputs": [],
      "stateMutability": "nonpayable",
      "type": "function"
    },
    {
      "inputs": [
        {
          "internalType": "bytes32",
          "name": "_debridgeId",
          "type": "bytes32"
        },
        {
          "internalType": "uint256",
          "name": "_chainId",
          "type": "uint256"
        },
        {
          "internalType": "bool",
          "name": "_isSupported",
          "type": "bool"
        }
      ],
      "name": "setChainIdSupport",
      "outputs": [],
      "stateMutability": "nonpayable",
      "type": "function"
    },
    {
      "inputs": [
        {
          "internalType": "bytes32",
          "name": "_debridgeId",
          "type": "bytes32"
        },
        {
          "internalType": "uint256",
          "name": "_chainId",
          "type": "uint256"
        },
        {
          "internalType": "uint256",
          "name": "_minAmount",
          "type": "uint256"
        },
        {
          "internalType": "uint256",
          "name": "_transferFee",
          "type": "uint256"
        },
        {
          "internalType": "uint256[]",
          "name": "_supportedChainIds",
          "type": "uint256[]"
        },
        {
          "internalType": "string",
          "name": "_name",
          "type": "string"
        },
        {
          "internalType": "string",
          "name": "_symbol",
          "type": "string"
        }
      ],
      "name": "addExternalAsset",
      "outputs": [],
      "stateMutability": "nonpayable",
      "type": "function"
    },
    {
      "inputs": [
        {
          "internalType": "address",
          "name": "_aggregator",
          "type": "address"
        }
      ],
      "name": "addAggregator",
      "outputs": [],
      "stateMutability": "nonpayable",
      "type": "function"
    },
    {
      "inputs": [
        {
          "internalType": "address",
          "name": "_aggregator",
          "type": "address"
        }
      ],
      "name": "removeAggregator",
      "outputs": [],
      "stateMutability": "nonpayable",
      "type": "function"
    },
    {
      "inputs": [
        {
          "internalType": "uint256",
          "name": "_chainId",
          "type": "uint256"
        },
        {
          "internalType": "address",
          "name": "_tokenAddress",
          "type": "address"
        }
      ],
      "name": "getDebridgeId",
      "outputs": [
        {
          "internalType": "bytes32",
          "name": "",
          "type": "bytes32"
        }
      ],
      "stateMutability": "pure",
      "type": "function",
      "constant": true
    }
  ],
  "bytecode": "0x60806040523480156200001157600080fd5b5060405162005e2738038062005e2783398181016040528101906200003791906200044c565b8360018190555060008460006040516020016200005692919062000507565b60405160208183030381529060405280519060200120905062000087816000600154878787620000d960201b60201c565b6200009c6000801b336200021a60201b60201c565b620000ce7fb3c3f8258c2780bffb0b444bbeed42fe51cc1a89779df0a97a43a56e08602e19336200021a60201b60201c565b505050505062000719565b6000600460008881526020019081526020016000209050858160000160006101000a81548173ffffffffffffffffffffffffffffffffffffffff021916908373ffffffffffffffffffffffffffffffffffffffff1602179055508481600101819055508381600201819055508281600301819055506001816004016000600154815260200190815260200160002060006101000a81548160ff02191690831515021790555060005b825181101562000210576001826004016000858481518110620001cd577f4e487b7100000000000000000000000000000000000000000000000000000000600052603260045260246000fd5b6020026020010151815260200190815260200160002060006101000a81548160ff0219169083151502179055508080620002079062000603565b91505062000181565b5050505050505050565b6200022c82826200023060201b60201c565b5050565b6200024282826200032160201b60201c565b6200031d57600160008084815260200190815260200160002060000160008373ffffffffffffffffffffffffffffffffffffffff1673ffffffffffffffffffffffffffffffffffffffff16815260200190815260200160002060006101000a81548160ff021916908315150217905550620002c26200038b60201b60201c565b73ffffffffffffffffffffffffffffffffffffffff168173ffffffffffffffffffffffffffffffffffffffff16837f2f8788117e7eff1d82e926ec794901d17c78024a50270940304540a733656f0d60405160405180910390a45b5050565b600080600084815260200190815260200160002060000160008373ffffffffffffffffffffffffffffffffffffffff1673ffffffffffffffffffffffffffffffffffffffff16815260200190815260200160002060009054906101000a900460ff16905092915050565b600033905090565b6000620003aa620003a48462000560565b62000537565b90508083825260208201905082856020860282011115620003ca57600080fd5b60005b85811015620003fe5781620003e3888262000435565b845260208401935060208301925050600181019050620003cd565b5050509392505050565b600082601f8301126200041a57600080fd5b81516200042c84826020860162000393565b91505092915050565b6000815190506200044681620006ff565b92915050565b600080600080608085870312156200046357600080fd5b6000620004738782880162000435565b9450506020620004868782880162000435565b9350506040620004998782880162000435565b925050606085015167ffffffffffffffff811115620004b757600080fd5b620004c58782880162000408565b91505092959194509250565b620004e6620004e0826200058f565b62000651565b82525050565b62000501620004fb82620005c3565b62000679565b82525050565b6000620005158285620004ec565b602082019150620005278284620004d1565b6014820191508190509392505050565b60006200054362000556565b9050620005518282620005cd565b919050565b6000604051905090565b600067ffffffffffffffff8211156200057e576200057d620006b2565b5b602082029050602081019050919050565b60006200059c82620005a3565b9050919050565b600073ffffffffffffffffffffffffffffffffffffffff82169050919050565b6000819050919050565b620005d882620006e1565b810181811067ffffffffffffffff82111715620005fa57620005f9620006b2565b5b80604052505050565b60006200061082620005c3565b91507fffffffffffffffffffffffffffffffffffffffffffffffffffffffffffffffff82141562000646576200064562000683565b5b600182019050919050565b60006200065e8262000665565b9050919050565b60006200067282620006f2565b9050919050565b6000819050919050565b7f4e487b7100000000000000000000000000000000000000000000000000000000600052601160045260246000fd5b7f4e487b7100000000000000000000000000000000000000000000000000000000600052604160045260246000fd5b6000601f19601f8301169050919050565b60008160601b9050919050565b6200070a81620005c3565b81146200071657600080fd5b50565b6156fe80620007296000396000f3fe6080604052600436106200015e5760003560e01c80636520b00911620000c75780639682b90911620000795780639682b90914620004c457806398e5d7e214620005085780639a8a05921462000536578063a217fddf1462000566578063affed0e01462000596578063d547741f14620005c6576200015e565b80636520b00914620003965780637ed9db5914620003c45780638c651f1114620003f25780639003adfe1462000420578063918f8674146200045057806391d148541462000480576200015e565b80633225b10b11620001215780633225b10b1462000275578063346a907414620002a557806336568abe14620002d35780633dc28cf1146200030157806357cf07ca14620003215780635e35206c1462000368576200015e565b806301ffc9a714620001635780630a0e5e9a14620001a757806317bb58e314620001d5578063248a9ca314620002035780632f2ff15d1462000247575b600080fd5b3480156200017057600080fd5b506200018f6004803603810190620001899190620020cf565b620005f4565b6040516200019e919062002529565b60405180910390f35b348015620001b457600080fd5b50620001d36004803603810190620001cd919062001f81565b62000671565b005b348015620001e257600080fd5b50620002016004803603810190620001fb919062001e0d565b6200070c565b005b3480156200021057600080fd5b506200022f600480360381019062000229919062001ebe565b620007a7565b6040516200023e919062002546565b60405180910390f35b3480156200025457600080fd5b506200027360048036038101906200026d919062001eea565b620007c6565b005b3480156200028257600080fd5b506200028d62000837565b6040516200029c919062002546565b60405180910390f35b348015620002b257600080fd5b50620002d16004803603810190620002cb919062001f2b565b6200085b565b005b348015620002e057600080fd5b50620002ff6004803603810190620002f9919062001eea565b62000a90565b005b6200031f600480360381019062000319919062001da1565b62000b1a565b005b3480156200032e57600080fd5b506200034d600480360381019062000347919062001ebe565b62000def565b6040516200035f9493929190620024dc565b60405180910390f35b3480156200037557600080fd5b506200039460048036038101906200038e919062001fd7565b62000e3f565b005b348015620003a357600080fd5b50620003c26004803603810190620003bc919062001d75565b62000ee9565b005b348015620003d157600080fd5b50620003f06004803603810190620003ea919062001f2b565b62000f18565b005b348015620003ff57600080fd5b506200041e600480360381019062000418919062001d75565b620010d7565b005b3480156200042d57600080fd5b506200043862001106565b604051620004479190620027d9565b60405180910390f35b3480156200045d57600080fd5b50620004686200110c565b604051620004779190620027d9565b60405180910390f35b3480156200048d57600080fd5b50620004ac6004803603810190620004a6919062001eea565b62001118565b604051620004bb919062002529565b60405180910390f35b348015620004d157600080fd5b50620004f06004803603810190620004ea9190620020fb565b62001182565b604051620004ff919062002546565b60405180910390f35b3480156200051557600080fd5b506200053460048036038101906200052e919062001f2b565b620011b7565b005b3480156200054357600080fd5b506200054e62001426565b6040516200055d9190620027d9565b60405180910390f35b3480156200057357600080fd5b506200057e6200142c565b6040516200058d919062002546565b60405180910390f35b348015620005a357600080fd5b50620005ae62001433565b604051620005bd9190620027d9565b60405180910390f35b348015620005d357600080fd5b50620005f26004803603810190620005ec919062001eea565b62001439565b005b60007f7965db0b000000000000000000000000000000000000000000000000000000007bffffffffffffffffffffffffffffffffffffffffffffffffffffffff1916827bffffffffffffffffffffffffffffffffffffffffffffffffffffffff191614806200066a57506200066982620014aa565b5b9050919050565b620006806000801b3362001118565b620006c2576040517f08c379a0000000000000000000000000000000000000000000000000000000008152600401620006b990620026eb565b60405180910390fd5b60006004600085815260200190815260200160002090508181600401600085815260200190815260200160002060006101000a81548160ff02191690831515021790555050505050565b6200071b6000801b3362001118565b6200075d576040517f08c379a00000000000000000000000000000000000000000000000000000000081526004016200075490620026eb565b60405180910390fd5b6000600154856040516020016200077692919062002442565b604051602081830303815290604052805190602001209050620007a0818660015487878762001514565b5050505050565b6000806000838152602001908152602001600020600101549050919050565b620007e5620007d583620007a7565b620007df62001655565b62001118565b62000827576040517f08c379a00000000000000000000000000000000000000000000000000000000081526004016200081e906200261f565b60405180910390fd5b6200083382826200165d565b5050565b7fb3c3f8258c2780bffb0b444bbeed42fe51cc1a89779df0a97a43a56e08602e1981565b600060046000858152602001908152602001600020905060015481600101541415620008be576040517f08c379a0000000000000000000000000000000000000000000000000000000008152600401620008b590620026c9565b60405180910390fd5b8060020154821162000907576040517f08c379a0000000000000000000000000000000000000000000000000000000008152600401620008fe9062002641565b60405180910390fd5b60008160000160009054906101000a900473ffffffffffffffffffffffffffffffffffffffff1690508073ffffffffffffffffffffffffffffffffffffffff166323b872dd3330866040518463ffffffff1660e01b81526004016200096f9392919062002472565b602060405180830381600087803b1580156200098a57600080fd5b505af11580156200099f573d6000803e3d6000fd5b505050506040513d601f19601f82011682018060405250810190620009c5919062001e92565b506000670de0b6b3a7640000836003015485620009e3919062002988565b620009ef919062002950565b9050600081111562000a2757806002600082825462000a0f9190620028f3565b92505081905550808462000a249190620029e9565b93505b7ff0af449ea8371e5a21e101793b781a6b460df515e6e92a5500bd0cee0c215916868587600354876001015460405162000a6695949392919062002563565b60405180910390a16003600081548092919062000a839062002b1f565b9190505550505050505050565b62000a9a62001655565b73ffffffffffffffffffffffffffffffffffffffff168173ffffffffffffffffffffffffffffffffffffffff161462000b0a576040517f08c379a000000000000000000000000000000000000000000000000000000000815260040162000b019062002795565b60405180910390fd5b62000b16828262001742565b5050565b60006001548560405160200162000b3392919062002442565b604051602081830303815290604052805190602001209050600060046000838152602001908152602001600020905080600401600084815260200190815260200160002060009054906101000a900460ff1662000bc7576040517f08c379a000000000000000000000000000000000000000000000000000000000815260040162000bbe906200272f565b60405180910390fd5b806004016000600154815260200190815260200160002060009054906101000a900460ff1662000c2e576040517f08c379a000000000000000000000000000000000000000000000000000000000815260040162000c25906200272f565b60405180910390fd5b8060020154841162000c77576040517f08c379a000000000000000000000000000000000000000000000000000000000815260040162000c6e9062002685565b60405180910390fd5b600073ffffffffffffffffffffffffffffffffffffffff168673ffffffffffffffffffffffffffffffffffffffff16141562000cf85734841462000cf2576040517f08c379a000000000000000000000000000000000000000000000000000000000815260040162000ce99062002773565b60405180910390fd5b62000d28565b62000d273330868973ffffffffffffffffffffffffffffffffffffffff1662001828909392919063ffffffff16565b5b6000670de0b6b3a764000082600301548662000d45919062002988565b62000d51919062002950565b9050600081111562000d8957806002600082825462000d719190620028f3565b92505081905550808562000d869190620029e9565b94505b7f0d74148383eed57d6b9fc15aaf325f6c1b6c6adc791bb6d405b70becdfb5f9a38386886003548860405162000dc495949392919062002563565b60405180910390a16003600081548092919062000de19062002b1f565b919050555050505050505050565b60046020528060005260406000206000915090508060000160009054906101000a900473ffffffffffffffffffffffffffffffffffffffff16908060010154908060020154908060030154905084565b62000e4e6000801b3362001118565b62000e90576040517f08c379a000000000000000000000000000000000000000000000000000000000815260040162000e8790620026eb565b60405180910390fd5b6000828260405162000ea29062001bc9565b62000eaf929190620025e4565b604051809103906000f08015801562000ecc573d6000803e3d6000fd5b50905062000edf88828989898962001514565b5050505050505050565b62000f157fb3c3f8258c2780bffb0b444bbeed42fe51cc1a89779df0a97a43a56e08602e1982620007c6565b50565b62000f447fb3c3f8258c2780bffb0b444bbeed42fe51cc1a89779df0a97a43a56e08602e193362001118565b62000f86576040517f08c379a000000000000000000000000000000000000000000000000000000000815260040162000f7d90620027b7565b60405180910390fd5b60006004600085815260200190815260200160002090508060000160009054906101000a900473ffffffffffffffffffffffffffffffffffffffff1673ffffffffffffffffffffffffffffffffffffffff166340c10f1984846040518363ffffffff1660e01b815260040162000ffe929190620024af565b600060405180830381600087803b1580156200101957600080fd5b505af11580156200102e573d6000803e3d6000fd5b505050506000670de0b6b3a76400008260030154846200104f919062002988565b6200105b919062002950565b90506000811115620010935780600260008282546200107b9190620028f3565b925050819055508083620010909190620029e9565b92505b7f735d687607ce9e35b73121f5b238c4cd2854db103741adba51d670bb706051cc838587604051620010c893929190620027f6565b60405180910390a15050505050565b620011037fb3c3f8258c2780bffb0b444bbeed42fe51cc1a89779df0a97a43a56e08602e198262001439565b50565b60025481565b670de0b6b3a764000081565b600080600084815260200190815260200160002060000160008373ffffffffffffffffffffffffffffffffffffffff1673ffffffffffffffffffffffffffffffffffffffff16815260200190815260200160002060009054906101000a900460ff16905092915050565b600082826040516020016200119992919062002442565b60405160208183030381529060405280519060200120905092915050565b620011e37fb3c3f8258c2780bffb0b444bbeed42fe51cc1a89779df0a97a43a56e08602e193362001118565b62001225576040517f08c379a00000000000000000000000000000000000000000000000000000000081526004016200121c90620027b7565b60405180910390fd5b600060046000858152602001908152602001600020905060015481600101541462001287576040517f08c379a00000000000000000000000000000000000000000000000000000000081526004016200127e906200272f565b60405180910390fd5b600073ffffffffffffffffffffffffffffffffffffffff168160000160009054906101000a900473ffffffffffffffffffffffffffffffffffffffff1673ffffffffffffffffffffffffffffffffffffffff1614156200132f578273ffffffffffffffffffffffffffffffffffffffff166108fc839081150290604051600060405180830381858888f1935050505015801562001328573d6000803e3d6000fd5b5062001381565b6200138083838360000160009054906101000a900473ffffffffffffffffffffffffffffffffffffffff1673ffffffffffffffffffffffffffffffffffffffff16620018b59092919063ffffffff16565b5b6000670de0b6b3a76400008260030154846200139e919062002988565b620013aa919062002950565b90506000811115620013e2578060026000828254620013ca9190620028f3565b925050819055508083620013df9190620029e9565b92505b7fbcb8b73e5a89971ee294cc3d2f51a084375b679f88047211b28c5344acb53df58385876040516200141793929190620027f6565b60405180910390a15050505050565b60015481565b6000801b81565b60035481565b620014586200144883620007a7565b6200145262001655565b62001118565b6200149a576040517f08c379a00000000000000000000000000000000000000000000000000000000081526004016200149190620026a7565b60405180910390fd5b620014a6828262001742565b5050565b60007f01ffc9a7000000000000000000000000000000000000000000000000000000007bffffffffffffffffffffffffffffffffffffffffffffffffffffffff1916827bffffffffffffffffffffffffffffffffffffffffffffffffffffffff1916149050919050565b6000600460008881526020019081526020016000209050858160000160006101000a81548173ffffffffffffffffffffffffffffffffffffffff021916908373ffffffffffffffffffffffffffffffffffffffff1602179055508481600101819055508381600201819055508281600301819055506001816004016000600154815260200190815260200160002060006101000a81548160ff02191690831515021790555060005b82518110156200164b57600182600401600085848151811062001608577f4e487b7100000000000000000000000000000000000000000000000000000000600052603260045260246000fd5b6020026020010151815260200190815260200160002060006101000a81548160ff0219169083151502179055508080620016429062002b1f565b915050620015bc565b5050505050505050565b600033905090565b62001669828262001118565b6200173e57600160008084815260200190815260200160002060000160008373ffffffffffffffffffffffffffffffffffffffff1673ffffffffffffffffffffffffffffffffffffffff16815260200190815260200160002060006101000a81548160ff021916908315150217905550620016e362001655565b73ffffffffffffffffffffffffffffffffffffffff168173ffffffffffffffffffffffffffffffffffffffff16837f2f8788117e7eff1d82e926ec794901d17c78024a50270940304540a733656f0d60405160405180910390a45b5050565b6200174e828262001118565b156200182457600080600084815260200190815260200160002060000160008373ffffffffffffffffffffffffffffffffffffffff1673ffffffffffffffffffffffffffffffffffffffff16815260200190815260200160002060006101000a81548160ff021916908315150217905550620017c962001655565b73ffffffffffffffffffffffffffffffffffffffff168173ffffffffffffffffffffffffffffffffffffffff16837ff6391f5c32d9c69d2a47ea670b442974b53935d1edc7fd64eb21e047a839171b60405160405180910390a45b5050565b620018af846323b872dd60e01b8585856040516024016200184c9392919062002472565b604051602081830303815290604052907bffffffffffffffffffffffffffffffffffffffffffffffffffffffff19166020820180517bffffffffffffffffffffffffffffffffffffffffffffffffffffffff83818316178352505050506200193f565b50505050565b6200193a8363a9059cbb60e01b8484604051602401620018d7929190620024af565b604051602081830303815290604052907bffffffffffffffffffffffffffffffffffffffffffffffffffffffff19166020820180517bffffffffffffffffffffffffffffffffffffffffffffffffffffffff83818316178352505050506200193f565b505050565b6000620019a3826040518060400160405280602081526020017f5361666545524332303a206c6f772d6c6576656c2063616c6c206661696c65648152508573ffffffffffffffffffffffffffffffffffffffff1662001a0e9092919063ffffffff16565b905060008151111562001a095780806020019051810190620019c6919062001e92565b62001a08576040517f08c379a0000000000000000000000000000000000000000000000000000000008152600401620019ff9062002751565b60405180910390fd5b5b505050565b606062001a1f848460008562001a28565b90509392505050565b60608247101562001a70576040517f08c379a000000000000000000000000000000000000000000000000000000000815260040162001a679062002663565b60405180910390fd5b62001a7b8562001b4a565b62001abd576040517f08c379a000000000000000000000000000000000000000000000000000000000815260040162001ab4906200270d565b60405180910390fd5b6000808673ffffffffffffffffffffffffffffffffffffffff16858760405162001ae8919062002429565b60006040518083038185875af1925050503d806000811462001b27576040519150601f19603f3d011682016040523d82523d6000602084013e62001b2c565b606091505b509150915062001b3e82828662001b5d565b92505050949350505050565b600080823b905060008111915050919050565b6060831562001b6f5782905062001bc2565b60008351111562001b835782518084602001fd5b816040517f08c379a000000000000000000000000000000000000000000000000000000000815260040162001bb99190620025c0565b60405180910390fd5b9392505050565b6127298062002fa083390190565b600062001bee62001be8846200285c565b62002833565b9050808382526020820190508285602086028201111562001c0e57600080fd5b60005b8581101562001c42578162001c27888262001d5e565b84526020840193506020830192505060018101905062001c11565b5050509392505050565b600062001c6362001c5d846200288b565b62002833565b90508281526020810184848401111562001c7c57600080fd5b62001c8984828562002aa4565b509392505050565b60008135905062001ca28162002f1d565b92915050565b600082601f83011262001cba57600080fd5b813562001ccc84826020860162001bd7565b91505092915050565b60008135905062001ce68162002f37565b92915050565b60008151905062001cfd8162002f37565b92915050565b60008135905062001d148162002f51565b92915050565b60008135905062001d2b8162002f6b565b92915050565b600082601f83011262001d4357600080fd5b813562001d5584826020860162001c4c565b91505092915050565b60008135905062001d6f8162002f85565b92915050565b60006020828403121562001d8857600080fd5b600062001d988482850162001c91565b91505092915050565b6000806000806080858703121562001db857600080fd5b600062001dc88782880162001c91565b945050602062001ddb8782880162001c91565b935050604062001dee8782880162001d5e565b925050606062001e018782880162001d5e565b91505092959194509250565b6000806000806080858703121562001e2457600080fd5b600062001e348782880162001c91565b945050602062001e478782880162001d5e565b935050604062001e5a8782880162001d5e565b925050606085013567ffffffffffffffff81111562001e7857600080fd5b62001e868782880162001ca8565b91505092959194509250565b60006020828403121562001ea557600080fd5b600062001eb58482850162001cec565b91505092915050565b60006020828403121562001ed157600080fd5b600062001ee18482850162001d03565b91505092915050565b6000806040838503121562001efe57600080fd5b600062001f0e8582860162001d03565b925050602062001f218582860162001c91565b9150509250929050565b60008060006060848603121562001f4157600080fd5b600062001f518682870162001d03565b935050602062001f648682870162001c91565b925050604062001f778682870162001d5e565b9150509250925092565b60008060006060848603121562001f9757600080fd5b600062001fa78682870162001d03565b935050602062001fba8682870162001d5e565b925050604062001fcd8682870162001cd5565b9150509250925092565b600080600080600080600060e0888a03121562001ff357600080fd5b6000620020038a828b0162001d03565b9750506020620020168a828b0162001d5e565b9650506040620020298a828b0162001d5e565b95505060606200203c8a828b0162001d5e565b945050608088013567ffffffffffffffff8111156200205a57600080fd5b620020688a828b0162001ca8565b93505060a088013567ffffffffffffffff8111156200208657600080fd5b620020948a828b0162001d31565b92505060c088013567ffffffffffffffff811115620020b257600080fd5b620020c08a828b0162001d31565b91505092959891949750929550565b600060208284031215620020e257600080fd5b6000620020f28482850162001d1a565b91505092915050565b600080604083850312156200210f57600080fd5b60006200211f8582860162001d5e565b9250506020620021328582860162001c91565b9150509250929050565b620021478162002a24565b82525050565b620021626200215c8262002a24565b62002b6d565b82525050565b620021738162002a38565b82525050565b620021848162002a44565b82525050565b60006200219782620028c1565b620021a38185620028d7565b9350620021b581856020860162002ab3565b80840191505092915050565b6000620021ce82620028cc565b620021da8185620028e2565b9350620021ec81856020860162002ab3565b620021f78162002c2c565b840191505092915050565b600062002211602f83620028e2565b91506200221e8262002c4a565b604082019050919050565b600062002238601483620028e2565b9150620022458262002c99565b602082019050919050565b60006200225f602683620028e2565b91506200226c8262002cc2565b604082019050919050565b600062002286601483620028e2565b9150620022938262002d11565b602082019050919050565b6000620022ad603083620028e2565b9150620022ba8262002d3a565b604082019050919050565b6000620022d4601383620028e2565b9150620022e18262002d89565b602082019050919050565b6000620022fb601383620028e2565b9150620023088262002db2565b602082019050919050565b600062002322601d83620028e2565b91506200232f8262002ddb565b602082019050919050565b600062002349601f83620028e2565b9150620023568262002e04565b602082019050919050565b600062002370602a83620028e2565b91506200237d8262002e2d565b604082019050919050565b600062002397601583620028e2565b9150620023a48262002e7c565b602082019050919050565b6000620023be602f83620028e2565b9150620023cb8262002ea5565b604082019050919050565b6000620023e5601883620028e2565b9150620023f28262002ef4565b602082019050919050565b620024088162002a9a565b82525050565b620024236200241d8262002a9a565b62002b95565b82525050565b60006200243782846200218a565b915081905092915050565b60006200245082856200240e565b6020820191506200246282846200214d565b6014820191508190509392505050565b60006060820190506200248960008301866200213c565b6200249860208301856200213c565b620024a76040830184620023fd565b949350505050565b6000604082019050620024c660008301856200213c565b620024d56020830184620023fd565b9392505050565b6000608082019050620024f360008301876200213c565b620025026020830186620023fd565b620025116040830185620023fd565b620025206060830184620023fd565b95945050505050565b600060208201905062002540600083018462002168565b92915050565b60006020820190506200255d600083018462002179565b92915050565b600060a0820190506200257a600083018862002179565b620025896020830187620023fd565b6200259860408301866200213c565b620025a76060830185620023fd565b620025b66080830184620023fd565b9695505050505050565b60006020820190508181036000830152620025dc8184620021c1565b905092915050565b60006040820190508181036000830152620026008185620021c1565b90508181036020830152620026168184620021c1565b90509392505050565b600060208201905081810360008301526200263a8162002202565b9050919050565b600060208201905081810360008301526200265c8162002229565b9050919050565b600060208201905081810360008301526200267e8162002250565b9050919050565b60006020820190508181036000830152620026a08162002277565b9050919050565b60006020820190508181036000830152620026c2816200229e565b9050919050565b60006020820190508181036000830152620026e481620022c5565b9050919050565b600060208201905081810360008301526200270681620022ec565b9050919050565b60006020820190508181036000830152620027288162002313565b9050919050565b600060208201905081810360008301526200274a816200233a565b9050919050565b600060208201905081810360008301526200276c8162002361565b9050919050565b600060208201905081810360008301526200278e8162002388565b9050919050565b60006020820190508181036000830152620027b081620023af565b9050919050565b60006020820190508181036000830152620027d281620023d6565b9050919050565b6000602082019050620027f06000830184620023fd565b92915050565b60006060820190506200280d6000830186620023fd565b6200281c60208301856200213c565b6200282b604083018462002179565b949350505050565b60006200283f62002852565b90506200284d828262002ae9565b919050565b6000604051905090565b600067ffffffffffffffff8211156200287a576200287962002bfd565b5b602082029050602081019050919050565b600067ffffffffffffffff821115620028a957620028a862002bfd565b5b620028b48262002c2c565b9050602081019050919050565b600081519050919050565b600081519050919050565b600081905092915050565b600082825260208201905092915050565b6000620029008262002a9a565b91506200290d8362002a9a565b9250827fffffffffffffffffffffffffffffffffffffffffffffffffffffffffffffffff0382111562002945576200294462002b9f565b5b828201905092915050565b60006200295d8262002a9a565b91506200296a8362002a9a565b9250826200297d576200297c62002bce565b5b828204905092915050565b6000620029958262002a9a565b9150620029a28362002a9a565b9250817fffffffffffffffffffffffffffffffffffffffffffffffffffffffffffffffff0483118215151615620029de57620029dd62002b9f565b5b828202905092915050565b6000620029f68262002a9a565b915062002a038362002a9a565b92508282101562002a195762002a1862002b9f565b5b828203905092915050565b600062002a318262002a7a565b9050919050565b60008115159050919050565b6000819050919050565b60007fffffffff0000000000000000000000000000000000000000000000000000000082169050919050565b600073ffffffffffffffffffffffffffffffffffffffff82169050919050565b6000819050919050565b82818337600083830152505050565b60005b8381101562002ad357808201518184015260208101905062002ab6565b8381111562002ae3576000848401525b50505050565b62002af48262002c2c565b810181811067ffffffffffffffff8211171562002b165762002b1562002bfd565b5b80604052505050565b600062002b2c8262002a9a565b91507fffffffffffffffffffffffffffffffffffffffffffffffffffffffffffffffff82141562002b625762002b6162002b9f565b5b600182019050919050565b600062002b7a8262002b81565b9050919050565b600062002b8e8262002c3d565b9050919050565b6000819050919050565b7f4e487b7100000000000000000000000000000000000000000000000000000000600052601160045260246000fd5b7f4e487b7100000000000000000000000000000000000000000000000000000000600052601260045260246000fd5b7f4e487b7100000000000000000000000000000000000000000000000000000000600052604160045260246000fd5b6000601f19601f8301169050919050565b60008160601b9050919050565b7f416363657373436f6e74726f6c3a2073656e646572206d75737420626520616e60008201527f2061646d696e20746f206772616e740000000000000000000000000000000000602082015250565b7f6275726e3a20616d6f756e7420746f6f206c6f77000000000000000000000000600082015250565b7f416464726573733a20696e73756666696369656e742062616c616e636520666f60008201527f722063616c6c0000000000000000000000000000000000000000000000000000602082015250565b7f73656e643a20616d6f756e7420746f6f206c6f77000000000000000000000000600082015250565b7f416363657373436f6e74726f6c3a2073656e646572206d75737420626520616e60008201527f2061646d696e20746f207265766f6b6500000000000000000000000000000000602082015250565b7f6275726e3a2077726f6e6720636861696e496400000000000000000000000000600082015250565b7f6f6e6c7941646d696e3a2062616420726f6c6500000000000000000000000000600082015250565b7f416464726573733a2063616c6c20746f206e6f6e2d636f6e7472616374000000600082015250565b7f73656e643a2077726f6e67207461726765642074617267657420636861696e00600082015250565b7f5361666545524332303a204552433230206f7065726174696f6e20646964206e60008201527f6f74207375636365656400000000000000000000000000000000000000000000602082015250565b7f73656e643a20616d6f756e74206d69736d617463680000000000000000000000600082015250565b7f416363657373436f6e74726f6c3a2063616e206f6e6c792072656e6f756e636560008201527f20726f6c657320666f722073656c660000000000000000000000000000000000602082015250565b7f6f6e6c7941676772656761746f723a2062616420726f6c650000000000000000600082015250565b62002f288162002a24565b811462002f3457600080fd5b50565b62002f428162002a38565b811462002f4e57600080fd5b50565b62002f5c8162002a44565b811462002f6857600080fd5b50565b62002f768162002a4e565b811462002f8257600080fd5b50565b62002f908162002a9a565b811462002f9c57600080fd5b5056fe60806040523480156200001157600080fd5b506040516200272938038062002729833981810160405281019062000037919062000197565b818181600490805190602001906200005192919062000075565b5080600590805190602001906200006a92919062000075565b50505050506200037a565b82805462000083906200029f565b90600052602060002090601f016020900481019282620000a75760008555620000f3565b82601f10620000c257805160ff1916838001178555620000f3565b82800160010185558215620000f3579182015b82811115620000f2578251825591602001919060010190620000d5565b5b50905062000102919062000106565b5090565b5b808211156200012157600081600090555060010162000107565b5090565b60006200013c620001368462000233565b6200020a565b9050828152602081018484840111156200015557600080fd5b6200016284828562000269565b509392505050565b600082601f8301126200017c57600080fd5b81516200018e84826020860162000125565b91505092915050565b60008060408385031215620001ab57600080fd5b600083015167ffffffffffffffff811115620001c657600080fd5b620001d4858286016200016a565b925050602083015167ffffffffffffffff811115620001f257600080fd5b62000200858286016200016a565b9150509250929050565b60006200021662000229565b9050620002248282620002d5565b919050565b6000604051905090565b600067ffffffffffffffff8211156200025157620002506200033a565b5b6200025c8262000369565b9050602081019050919050565b60005b83811015620002895780820151818401526020810190506200026c565b8381111562000299576000848401525b50505050565b60006002820490506001821680620002b857607f821691505b60208210811415620002cf57620002ce6200030b565b5b50919050565b620002e08262000369565b810181811067ffffffffffffffff821117156200030257620003016200033a565b5b80604052505050565b7f4e487b7100000000000000000000000000000000000000000000000000000000600052602260045260246000fd5b7f4e487b7100000000000000000000000000000000000000000000000000000000600052604160045260246000fd5b6000601f19601f8301169050919050565b61239f806200038a6000396000f3fe608060405234801561001057600080fd5b50600436106101375760003560e01c806340c10f19116100b8578063a217fddf1161007c578063a217fddf14610374578063a457c2d714610392578063a9059cbb146103c2578063d5391393146103f2578063d547741f14610410578063dd62ed3e1461042c57610137565b806340c10f19146102be57806342966c68146102da57806370a08231146102f657806391d148541461032657806395d89b411461035657610137565b8063248a9ca3116100ff578063248a9ca3146102085780632f2ff15d14610238578063313ce5671461025457806336568abe14610272578063395093511461028e57610137565b806301ffc9a71461013c57806306fdde031461016c578063095ea7b31461018a57806318160ddd146101ba57806323b872dd146101d8575b600080fd5b61015660048036038101906101519190611803565b61045c565b6040516101639190611ab4565b60405180910390f35b6101746104d6565b6040516101819190611aea565b60405180910390f35b6101a4600480360381019061019f9190611762565b610568565b6040516101b19190611ab4565b60405180910390f35b6101c2610586565b6040516101cf9190611ccc565b60405180910390f35b6101f260048036038101906101ed9190611713565b610590565b6040516101ff9190611ab4565b60405180910390f35b610222600480360381019061021d919061179e565b610691565b60405161022f9190611acf565b60405180910390f35b610252600480360381019061024d91906117c7565b6106b0565b005b61025c610716565b6040516102699190611ce7565b60405180910390f35b61028c600480360381019061028791906117c7565b61071f565b005b6102a860048036038101906102a39190611762565b6107a2565b6040516102b59190611ab4565b60405180910390f35b6102d860048036038101906102d39190611762565b61084e565b005b6102f460048036038101906102ef919061182c565b6108c5565b005b610310600480360381019061030b91906116ae565b61093b565b60405161031d9190611ccc565b60405180910390f35b610340600480360381019061033b91906117c7565b610984565b60405161034d9190611ab4565b60405180910390f35b61035e6109ee565b60405161036b9190611aea565b60405180910390f35b61037c610a80565b6040516103899190611acf565b60405180910390f35b6103ac60048036038101906103a79190611762565b610a87565b6040516103b99190611ab4565b60405180910390f35b6103dc60048036038101906103d79190611762565b610b7b565b6040516103e99190611ab4565b60405180910390f35b6103fa610b99565b6040516104079190611acf565b60405180910390f35b61042a600480360381019061042591906117c7565b610bbd565b005b610446600480360381019061044191906116d7565b610c23565b6040516104539190611ccc565b60405180910390f35b60007f7965db0b000000000000000000000000000000000000000000000000000000007bffffffffffffffffffffffffffffffffffffffffffffffffffffffff1916827bffffffffffffffffffffffffffffffffffffffffffffffffffffffff191614806104cf57506104ce82610caa565b5b9050919050565b6060600480546104e590611e66565b80601f016020809104026020016040519081016040528092919081815260200182805461051190611e66565b801561055e5780601f106105335761010080835404028352916020019161055e565b820191906000526020600020905b81548152906001019060200180831161054157829003601f168201915b5050505050905090565b600061057c610575610d14565b8484610d1c565b6001905092915050565b6000600354905090565b600061059d848484610ee7565b6000600260008673ffffffffffffffffffffffffffffffffffffffff1673ffffffffffffffffffffffffffffffffffffffff16815260200190815260200160002060006105e8610d14565b73ffffffffffffffffffffffffffffffffffffffff1673ffffffffffffffffffffffffffffffffffffffff16815260200190815260200160002054905082811015610668576040517f08c379a000000000000000000000000000000000000000000000000000000000815260040161065f90611bcc565b60405180910390fd5b61068585610674610d14565b85846106809190611d74565b610d1c565b60019150509392505050565b6000806000838152602001908152602001600020600101549050919050565b6106c96106bc83610691565b6106c4610d14565b610984565b610708576040517f08c379a00000000000000000000000000000000000000000000000000000000081526004016106ff90611b2c565b60405180910390fd5b6107128282611169565b5050565b60006012905090565b610727610d14565b73ffffffffffffffffffffffffffffffffffffffff168173ffffffffffffffffffffffffffffffffffffffff1614610794576040517f08c379a000000000000000000000000000000000000000000000000000000000815260040161078b90611c6c565b60405180910390fd5b61079e8282611249565b5050565b60006108446107af610d14565b8484600260006107bd610d14565b73ffffffffffffffffffffffffffffffffffffffff1673ffffffffffffffffffffffffffffffffffffffff16815260200190815260200160002060008873ffffffffffffffffffffffffffffffffffffffff1673ffffffffffffffffffffffffffffffffffffffff1681526020019081526020016000205461083f9190611d1e565b610d1c565b6001905092915050565b6108787f9f2df0fed2c77648de5860a4cc508cd0818c85b8b8a1ab4ceeef8d981c8956a633610984565b6108b7576040517f08c379a00000000000000000000000000000000000000000000000000000000081526004016108ae90611c8c565b60405180910390fd5b6108c1828261132a565b5050565b6108ef7f9f2df0fed2c77648de5860a4cc508cd0818c85b8b8a1ab4ceeef8d981c8956a633610984565b61092e576040517f08c379a000000000000000000000000000000000000000000000000000000000815260040161092590611c8c565b60405180910390fd5b610938338261147f565b50565b6000600160008373ffffffffffffffffffffffffffffffffffffffff1673ffffffffffffffffffffffffffffffffffffffff168152602001908152602001600020549050919050565b600080600084815260200190815260200160002060000160008373ffffffffffffffffffffffffffffffffffffffff1673ffffffffffffffffffffffffffffffffffffffff16815260200190815260200160002060009054906101000a900460ff16905092915050565b6060600580546109fd90611e66565b80601f0160208091040260200160405190810160405280929190818152602001828054610a2990611e66565b8015610a765780601f10610a4b57610100808354040283529160200191610a76565b820191906000526020600020905b815481529060010190602001808311610a5957829003601f168201915b5050505050905090565b6000801b81565b60008060026000610a96610d14565b73ffffffffffffffffffffffffffffffffffffffff1673ffffffffffffffffffffffffffffffffffffffff16815260200190815260200160002060008573ffffffffffffffffffffffffffffffffffffffff1673ffffffffffffffffffffffffffffffffffffffff16815260200190815260200160002054905082811015610b53576040517f08c379a0000000000000000000000000000000000000000000000000000000008152600401610b4a90611c4c565b60405180910390fd5b610b70610b5e610d14565b858584610b6b9190611d74565b610d1c565b600191505092915050565b6000610b8f610b88610d14565b8484610ee7565b6001905092915050565b7f9f2df0fed2c77648de5860a4cc508cd0818c85b8b8a1ab4ceeef8d981c8956a681565b610bd6610bc983610691565b610bd1610d14565b610984565b610c15576040517f08c379a0000000000000000000000000000000000000000000000000000000008152600401610c0c90611bac565b60405180910390fd5b610c1f8282611249565b5050565b6000600260008473ffffffffffffffffffffffffffffffffffffffff1673ffffffffffffffffffffffffffffffffffffffff16815260200190815260200160002060008373ffffffffffffffffffffffffffffffffffffffff1673ffffffffffffffffffffffffffffffffffffffff16815260200190815260200160002054905092915050565b60007f01ffc9a7000000000000000000000000000000000000000000000000000000007bffffffffffffffffffffffffffffffffffffffffffffffffffffffff1916827bffffffffffffffffffffffffffffffffffffffffffffffffffffffff1916149050919050565b600033905090565b600073ffffffffffffffffffffffffffffffffffffffff168373ffffffffffffffffffffffffffffffffffffffff161415610d8c576040517f08c379a0000000000000000000000000000000000000000000000000000000008152600401610d8390611c2c565b60405180910390fd5b600073ffffffffffffffffffffffffffffffffffffffff168273ffffffffffffffffffffffffffffffffffffffff161415610dfc576040517f08c379a0000000000000000000000000000000000000000000000000000000008152600401610df390611b6c565b60405180910390fd5b80600260008573ffffffffffffffffffffffffffffffffffffffff1673ffffffffffffffffffffffffffffffffffffffff16815260200190815260200160002060008473ffffffffffffffffffffffffffffffffffffffff1673ffffffffffffffffffffffffffffffffffffffff168152602001908152602001600020819055508173ffffffffffffffffffffffffffffffffffffffff168373ffffffffffffffffffffffffffffffffffffffff167f8c5be1e5ebec7d5bd14f71427d1e84f3dd0314c0f7b2291e5b200ac8c7c3b92583604051610eda9190611ccc565b60405180910390a3505050565b600073ffffffffffffffffffffffffffffffffffffffff168373ffffffffffffffffffffffffffffffffffffffff161415610f57576040517f08c379a0000000000000000000000000000000000000000000000000000000008152600401610f4e90611c0c565b60405180910390fd5b600073ffffffffffffffffffffffffffffffffffffffff168273ffffffffffffffffffffffffffffffffffffffff161415610fc7576040517f08c379a0000000000000000000000000000000000000000000000000000000008152600401610fbe90611b0c565b60405180910390fd5b610fd2838383611655565b6000600160008573ffffffffffffffffffffffffffffffffffffffff1673ffffffffffffffffffffffffffffffffffffffff16815260200190815260200160002054905081811015611059576040517f08c379a000000000000000000000000000000000000000000000000000000000815260040161105090611b8c565b60405180910390fd5b81816110659190611d74565b600160008673ffffffffffffffffffffffffffffffffffffffff1673ffffffffffffffffffffffffffffffffffffffff1681526020019081526020016000208190555081600160008573ffffffffffffffffffffffffffffffffffffffff1673ffffffffffffffffffffffffffffffffffffffff16815260200190815260200160002060008282546110f79190611d1e565b925050819055508273ffffffffffffffffffffffffffffffffffffffff168473ffffffffffffffffffffffffffffffffffffffff167fddf252ad1be2c89b69c2b068fc378daa952ba7f163c4a11628f55a4df523b3ef8460405161115b9190611ccc565b60405180910390a350505050565b6111738282610984565b61124557600160008084815260200190815260200160002060000160008373ffffffffffffffffffffffffffffffffffffffff1673ffffffffffffffffffffffffffffffffffffffff16815260200190815260200160002060006101000a81548160ff0219169083151502179055506111ea610d14565b73ffffffffffffffffffffffffffffffffffffffff168173ffffffffffffffffffffffffffffffffffffffff16837f2f8788117e7eff1d82e926ec794901d17c78024a50270940304540a733656f0d60405160405180910390a45b5050565b6112538282610984565b1561132657600080600084815260200190815260200160002060000160008373ffffffffffffffffffffffffffffffffffffffff1673ffffffffffffffffffffffffffffffffffffffff16815260200190815260200160002060006101000a81548160ff0219169083151502179055506112cb610d14565b73ffffffffffffffffffffffffffffffffffffffff168173ffffffffffffffffffffffffffffffffffffffff16837ff6391f5c32d9c69d2a47ea670b442974b53935d1edc7fd64eb21e047a839171b60405160405180910390a45b5050565b600073ffffffffffffffffffffffffffffffffffffffff168273ffffffffffffffffffffffffffffffffffffffff16141561139a576040517f08c379a000000000000000000000000000000000000000000000000000000000815260040161139190611cac565b60405180910390fd5b6113a660008383611655565b80600360008282546113b89190611d1e565b9250508190555080600160008473ffffffffffffffffffffffffffffffffffffffff1673ffffffffffffffffffffffffffffffffffffffff168152602001908152602001600020600082825461140e9190611d1e565b925050819055508173ffffffffffffffffffffffffffffffffffffffff16600073ffffffffffffffffffffffffffffffffffffffff167fddf252ad1be2c89b69c2b068fc378daa952ba7f163c4a11628f55a4df523b3ef836040516114739190611ccc565b60405180910390a35050565b600073ffffffffffffffffffffffffffffffffffffffff168273ffffffffffffffffffffffffffffffffffffffff1614156114ef576040517f08c379a00000000000000000000000000000000000000000000000000000000081526004016114e690611bec565b60405180910390fd5b6114fb82600083611655565b6000600160008473ffffffffffffffffffffffffffffffffffffffff1673ffffffffffffffffffffffffffffffffffffffff16815260200190815260200160002054905081811015611582576040517f08c379a000000000000000000000000000000000000000000000000000000000815260040161157990611b4c565b60405180910390fd5b818161158e9190611d74565b600160008573ffffffffffffffffffffffffffffffffffffffff1673ffffffffffffffffffffffffffffffffffffffff1681526020019081526020016000208190555081600360008282546115e39190611d74565b92505081905550600073ffffffffffffffffffffffffffffffffffffffff168373ffffffffffffffffffffffffffffffffffffffff167fddf252ad1be2c89b69c2b068fc378daa952ba7f163c4a11628f55a4df523b3ef846040516116489190611ccc565b60405180910390a3505050565b505050565b6000813590506116698161230d565b92915050565b60008135905061167e81612324565b92915050565b6000813590506116938161233b565b92915050565b6000813590506116a881612352565b92915050565b6000602082840312156116c057600080fd5b60006116ce8482850161165a565b91505092915050565b600080604083850312156116ea57600080fd5b60006116f88582860161165a565b92505060206117098582860161165a565b9150509250929050565b60008060006060848603121561172857600080fd5b60006117368682870161165a565b93505060206117478682870161165a565b925050604061175886828701611699565b9150509250925092565b6000806040838503121561177557600080fd5b60006117838582860161165a565b925050602061179485828601611699565b9150509250929050565b6000602082840312156117b057600080fd5b60006117be8482850161166f565b91505092915050565b600080604083850312156117da57600080fd5b60006117e88582860161166f565b92505060206117f98582860161165a565b9150509250929050565b60006020828403121561181557600080fd5b600061182384828501611684565b91505092915050565b60006020828403121561183e57600080fd5b600061184c84828501611699565b91505092915050565b61185e81611dba565b82525050565b61186d81611dc6565b82525050565b600061187e82611d02565b6118888185611d0d565b9350611898818560208601611e33565b6118a181611ef6565b840191505092915050565b60006118b9602383611d0d565b91506118c482611f07565b604082019050919050565b60006118dc602f83611d0d565b91506118e782611f56565b604082019050919050565b60006118ff602283611d0d565b915061190a82611fa5565b604082019050919050565b6000611922602283611d0d565b915061192d82611ff4565b604082019050919050565b6000611945602683611d0d565b915061195082612043565b604082019050919050565b6000611968603083611d0d565b915061197382612092565b604082019050919050565b600061198b602883611d0d565b9150611996826120e1565b604082019050919050565b60006119ae602183611d0d565b91506119b982612130565b604082019050919050565b60006119d1602583611d0d565b91506119dc8261217f565b604082019050919050565b60006119f4602483611d0d565b91506119ff826121ce565b604082019050919050565b6000611a17602583611d0d565b9150611a228261221d565b604082019050919050565b6000611a3a602f83611d0d565b9150611a458261226c565b604082019050919050565b6000611a5d601883611d0d565b9150611a68826122bb565b602082019050919050565b6000611a80601f83611d0d565b9150611a8b826122e4565b602082019050919050565b611a9f81611e1c565b82525050565b611aae81611e26565b82525050565b6000602082019050611ac96000830184611855565b92915050565b6000602082019050611ae46000830184611864565b92915050565b60006020820190508181036000830152611b048184611873565b905092915050565b60006020820190508181036000830152611b25816118ac565b9050919050565b60006020820190508181036000830152611b45816118cf565b9050919050565b60006020820190508181036000830152611b65816118f2565b9050919050565b60006020820190508181036000830152611b8581611915565b9050919050565b60006020820190508181036000830152611ba581611938565b9050919050565b60006020820190508181036000830152611bc58161195b565b9050919050565b60006020820190508181036000830152611be58161197e565b9050919050565b60006020820190508181036000830152611c05816119a1565b9050919050565b60006020820190508181036000830152611c25816119c4565b9050919050565b60006020820190508181036000830152611c45816119e7565b9050919050565b60006020820190508181036000830152611c6581611a0a565b9050919050565b60006020820190508181036000830152611c8581611a2d565b9050919050565b60006020820190508181036000830152611ca581611a50565b9050919050565b60006020820190508181036000830152611cc581611a73565b9050919050565b6000602082019050611ce16000830184611a96565b92915050565b6000602082019050611cfc6000830184611aa5565b92915050565b600081519050919050565b600082825260208201905092915050565b6000611d2982611e1c565b9150611d3483611e1c565b9250827fffffffffffffffffffffffffffffffffffffffffffffffffffffffffffffffff03821115611d6957611d68611e98565b5b828201905092915050565b6000611d7f82611e1c565b9150611d8a83611e1c565b925082821015611d9d57611d9c611e98565b5b828203905092915050565b6000611db382611dfc565b9050919050565b60008115159050919050565b6000819050919050565b60007fffffffff0000000000000000000000000000000000000000000000000000000082169050919050565b600073ffffffffffffffffffffffffffffffffffffffff82169050919050565b6000819050919050565b600060ff82169050919050565b60005b83811015611e51578082015181840152602081019050611e36565b83811115611e60576000848401525b50505050565b60006002820490506001821680611e7e57607f821691505b60208210811415611e9257611e91611ec7565b5b50919050565b7f4e487b7100000000000000000000000000000000000000000000000000000000600052601160045260246000fd5b7f4e487b7100000000000000000000000000000000000000000000000000000000600052602260045260246000fd5b6000601f19601f8301169050919050565b7f45524332303a207472616e7366657220746f20746865207a65726f206164647260008201527f6573730000000000000000000000000000000000000000000000000000000000602082015250565b7f416363657373436f6e74726f6c3a2073656e646572206d75737420626520616e60008201527f2061646d696e20746f206772616e740000000000000000000000000000000000602082015250565b7f45524332303a206275726e20616d6f756e7420657863656564732062616c616e60008201527f6365000000000000000000000000000000000000000000000000000000000000602082015250565b7f45524332303a20617070726f766520746f20746865207a65726f20616464726560008201527f7373000000000000000000000000000000000000000000000000000000000000602082015250565b7f45524332303a207472616e7366657220616d6f756e742065786365656473206260008201527f616c616e63650000000000000000000000000000000000000000000000000000602082015250565b7f416363657373436f6e74726f6c3a2073656e646572206d75737420626520616e60008201527f2061646d696e20746f207265766f6b6500000000000000000000000000000000602082015250565b7f45524332303a207472616e7366657220616d6f756e742065786365656473206160008201527f6c6c6f77616e6365000000000000000000000000000000000000000000000000602082015250565b7f45524332303a206275726e2066726f6d20746865207a65726f2061646472657360008201527f7300000000000000000000000000000000000000000000000000000000000000602082015250565b7f45524332303a207472616e736665722066726f6d20746865207a65726f20616460008201527f6472657373000000000000000000000000000000000000000000000000000000602082015250565b7f45524332303a20617070726f76652066726f6d20746865207a65726f2061646460008201527f7265737300000000000000000000000000000000000000000000000000000000602082015250565b7f45524332303a2064656372656173656420616c6c6f77616e63652062656c6f7760008201527f207a65726f000000000000000000000000000000000000000000000000000000602082015250565b7f416363657373436f6e74726f6c3a2063616e206f6e6c792072656e6f756e636560008201527f20726f6c657320666f722073656c660000000000000000000000000000000000602082015250565b7f6f6e6c7941676772656761746f723a2062616420726f6c650000000000000000600082015250565b7f45524332303a206d696e7420746f20746865207a65726f206164647265737300600082015250565b61231681611da8565b811461232157600080fd5b50565b61232d81611dc6565b811461233857600080fd5b50565b61234481611dd0565b811461234f57600080fd5b50565b61235b81611e1c565b811461236657600080fd5b5056fea264697066735822122007cd3277e675c5e05d581a8ba3cb86407c02b52d020adca5f263709b7c91676464736f6c63430008020033a2646970667358221220d96e287b7d4894300e8b17bc5bdad179f11e49516ffbdad07b33975f9ce4e58a64736f6c63430008020033",
  "immutableReferences": {},
  "source": "// SPDX-License-Identifier: MIT\npragma solidity ^0.8.2;\n\nimport \"@openzeppelin/contracts/token/ERC20/ERC20.sol\";\nimport \"@openzeppelin/contracts/token/ERC20/IERC20.sol\";\nimport \"@openzeppelin/contracts/token/ERC20/utils/SafeERC20.sol\";\nimport \"@openzeppelin/contracts/access/AccessControl.sol\";\nimport \"../interfaces/IWhiteDebridge.sol\";\nimport \"../periphery/WrappedAsset.sol\";\n\ncontract WhiteDebridge is AccessControl, IWhiteDebridge {\n    using SafeERC20 for IERC20;\n\n    struct DebridgeInfo {\n        address tokenAddress; // asset address on the current chain\n        uint256 chainId; // native chain id\n        uint256 minAmount; // minimal amount to transfer\n        uint256 transferFee; // transfer fee rate\n        mapping(uint256 => bool) isSupported; // wheter the chain for the asset is supported\n    }\n\n    uint256 public constant DENOMINATOR = 1e18;\n    bytes32 public constant AGGREGATOR_ROLE = keccak256(\"AGGREGATOR_ROLE\");\n    uint256 public chainId;\n    uint256 public collectedFees;\n    uint256 public nonce;\n    mapping(bytes32 => DebridgeInfo) public getDebridge; // debridgeId (i.e. hash(native chainId, native tokenAddress)) => token\n\n    event Sent(\n        bytes32 debridgeId,\n        uint256 amount,\n        address receiver,\n        uint256 nonce,\n        uint256 chainIdTo\n    );\n    event Minted(uint256 amount, address receiver, bytes32 debridgeId);\n    event Burnt(\n        bytes32 debridgeId,\n        uint256 amount,\n        address receiver,\n        uint256 nonce,\n        uint256 chainIdTo\n    );\n    event Claimed(uint256 amount, address receiver, bytes32 debridgeId);\n\n    modifier onlyAggregator {\n        require(\n            hasRole(AGGREGATOR_ROLE, msg.sender),\n            \"onlyAggregator: bad role\"\n        );\n        _;\n    }\n    modifier onlyAdmin {\n        require(hasRole(DEFAULT_ADMIN_ROLE, msg.sender), \"onlyAdmin: bad role\");\n        _;\n    }\n\n    constructor(\n        uint256 _chainId,\n        uint256 _minAmount,\n        uint256 _transferFee,\n        uint256[] memory _supportedChainIds\n    ) {\n        chainId = _chainId;\n        bytes32 debridgeId = keccak256(abi.encodePacked(_chainId, address(0)));\n        _addAsset(\n            debridgeId,\n            address(0),\n            chainId,\n            _minAmount,\n            _transferFee,\n            _supportedChainIds\n        );\n        _setupRole(DEFAULT_ADMIN_ROLE, msg.sender);\n        _setupRole(AGGREGATOR_ROLE, msg.sender);\n    }\n\n    function send(\n        address _tokenAddress,\n        address _receiver,\n        uint256 _amount,\n        uint256 _chainIdTo\n    ) external payable override {\n        bytes32 debridgeId =\n            keccak256(abi.encodePacked(chainId, _tokenAddress));\n        DebridgeInfo storage debridge = getDebridge[debridgeId];\n        require(\n            debridge.isSupported[_chainIdTo],\n            \"send: wrong targed target chain\"\n        );\n        require(\n            debridge.isSupported[chainId],\n            \"send: wrong targed target chain\"\n        );\n        require(_amount > debridge.minAmount, \"send: amount too low\");\n        if (_tokenAddress == address(0)) {\n            require(_amount == msg.value, \"send: amount mismatch\");\n        } else {\n            IERC20(_tokenAddress).safeTransferFrom(\n                msg.sender,\n                address(this),\n                _amount\n            );\n        }\n        uint256 transferFee = (_amount * debridge.transferFee) / DENOMINATOR;\n        if (transferFee > 0) {\n            collectedFees += transferFee;\n            _amount -= transferFee;\n        }\n        emit Sent(debridgeId, _amount, _receiver, nonce, _chainIdTo);\n        nonce++;\n    }\n\n    function claim(\n        bytes32 _debridgeId,\n        address _receiver,\n        uint256 _amount\n    ) external override onlyAggregator() {\n        DebridgeInfo storage debridge = getDebridge[_debridgeId];\n        require(debridge.chainId == chainId, \"send: wrong targed target chain\");\n        if (debridge.tokenAddress == address(0)) {\n            payable(_receiver).transfer(_amount);\n        } else {\n            IERC20(debridge.tokenAddress).safeTransfer(_receiver, _amount);\n        }\n        uint256 transferFee = (_amount * debridge.transferFee) / DENOMINATOR;\n        if (transferFee > 0) {\n            collectedFees += transferFee;\n            _amount -= transferFee;\n        }\n        emit Claimed(_amount, _receiver, _debridgeId);\n    }\n\n    function burn(\n        bytes32 _debridgeId,\n        address _receiver,\n        uint256 _amount\n    ) external override {\n        DebridgeInfo storage debridge = getDebridge[_debridgeId];\n        require(debridge.chainId != chainId, \"burn: wrong chainId\");\n        require(_amount > debridge.minAmount, \"burn: amount too low\");\n        IWrappedAsset wrappedAsset = IWrappedAsset(debridge.tokenAddress);\n        wrappedAsset.transferFrom(msg.sender, address(this), _amount);\n        uint256 transferFee = (_amount * debridge.transferFee) / DENOMINATOR;\n        if (transferFee > 0) {\n            collectedFees += transferFee;\n            _amount -= transferFee;\n        }\n        emit Burnt(_debridgeId, _amount, _receiver, nonce, debridge.chainId);\n        nonce++;\n    }\n\n    function mint(\n        bytes32 _debridgeId,\n        address _receiver,\n        uint256 _amount\n    ) external override onlyAggregator() {\n        DebridgeInfo storage debridge = getDebridge[_debridgeId];\n        IWrappedAsset(debridge.tokenAddress).mint(_receiver, _amount);\n        uint256 transferFee = (_amount * debridge.transferFee) / DENOMINATOR;\n        if (transferFee > 0) {\n            collectedFees += transferFee;\n            _amount -= transferFee;\n        }\n        emit Minted(_amount, _receiver, _debridgeId);\n    }\n\n    function addNativelAsset(\n        address _tokenAddress,\n        uint256 _minAmount,\n        uint256 _transferFee,\n        uint256[] memory _supportedChainIds\n    ) external override onlyAdmin() {\n        bytes32 debridgeId =\n            keccak256(abi.encodePacked(chainId, _tokenAddress));\n        _addAsset(\n            debridgeId,\n            _tokenAddress,\n            chainId,\n            _minAmount,\n            _transferFee,\n            _supportedChainIds\n        );\n    }\n\n    function setChainIdSupport(\n        bytes32 _debridgeId,\n        uint256 _chainId,\n        bool _isSupported\n    ) external override onlyAdmin() {\n        DebridgeInfo storage debridge = getDebridge[_debridgeId];\n        debridge.isSupported[_chainId] = _isSupported;\n    }\n\n    function addExternalAsset(\n        bytes32 _debridgeId,\n        uint256 _chainId,\n        uint256 _minAmount,\n        uint256 _transferFee,\n        uint256[] memory _supportedChainIds,\n        string memory _name,\n        string memory _symbol\n    ) external override onlyAdmin() {\n        address tokenAddress = address(new WrappedAsset(_name, _symbol));\n        _addAsset(\n            _debridgeId,\n            tokenAddress,\n            _chainId,\n            _minAmount,\n            _transferFee,\n            _supportedChainIds\n        );\n    }\n\n    function addAggregator(address _aggregator) external {\n        grantRole(AGGREGATOR_ROLE, _aggregator);\n    }\n\n    function removeAggregator(address _aggregator) external {\n        revokeRole(AGGREGATOR_ROLE, _aggregator);\n    }\n\n    function _addAsset(\n        bytes32 _debridgeId,\n        address _tokenAddress,\n        uint256 _chainId,\n        uint256 _minAmount,\n        uint256 _transferFee,\n        uint256[] memory _supportedChainIds\n    ) internal {\n        DebridgeInfo storage debridge = getDebridge[_debridgeId];\n        debridge.tokenAddress = _tokenAddress;\n        debridge.chainId = _chainId;\n        debridge.minAmount = _minAmount;\n        debridge.transferFee = _transferFee;\n        debridge.isSupported[chainId] = true;\n        for (uint256 i = 0; i < _supportedChainIds.length; i++) {\n            debridge.isSupported[_supportedChainIds[i]] = true;\n        }\n    }\n\n    function getDebridgeId(uint256 _chainId, address _tokenAddress)\n        external\n        pure\n        returns (bytes32)\n    {\n        return keccak256(abi.encodePacked(_chainId, _tokenAddress));\n    }\n}\n",
  "sourcePath": "/Users/kstasi/Documents/work/debridge-contracts/contracts/transfers/WhiteDebridge.sol",
  "compiler": {
    "name": "solc",
    "version": "0.8.2+commit.661d1103.Emscripten.clang"
  },
  "schemaVersion": "3.3.4",
  "updatedAt": "2021-03-17T18:59:55.048Z",
  "networkType": "ethereum",
  "devdoc": {
    "kind": "dev",
    "methods": {
      "getRoleAdmin(bytes32)": {
        "details": "Returns the admin role that controls `role`. See {grantRole} and {revokeRole}. To change a role's admin, use {_setRoleAdmin}."
      },
      "grantRole(bytes32,address)": {
        "details": "Grants `role` to `account`. If `account` had not been already granted `role`, emits a {RoleGranted} event. Requirements: - the caller must have ``role``'s admin role."
      },
      "hasRole(bytes32,address)": {
        "details": "Returns `true` if `account` has been granted `role`."
      },
      "renounceRole(bytes32,address)": {
        "details": "Revokes `role` from the calling account. Roles are often managed via {grantRole} and {revokeRole}: this function's purpose is to provide a mechanism for accounts to lose their privileges if they are compromised (such as when a trusted device is misplaced). If the calling account had been granted `role`, emits a {RoleRevoked} event. Requirements: - the caller must be `account`."
      },
      "revokeRole(bytes32,address)": {
        "details": "Revokes `role` from `account`. If `account` had been granted `role`, emits a {RoleRevoked} event. Requirements: - the caller must have ``role``'s admin role."
      },
      "supportsInterface(bytes4)": {
        "details": "See {IERC165-supportsInterface}."
      }
    },
    "version": 1
  },
  "userdoc": {
    "kind": "user",
    "methods": {},
    "version": 1
  }
}