{
  "contractName": "WhiteAggregator",
  "abi": [
    {
      "inputs": [
        {
          "internalType": "uint256",
          "name": "_minConfirmations",
          "type": "uint256"
        },
        {
          "internalType": "uint128",
          "name": "_payment",
          "type": "uint128"
        },
        {
          "internalType": "contract IERC20",
          "name": "_link",
          "type": "address"
        }
      ],
      "stateMutability": "nonpayable",
      "type": "constructor"
    },
    {
      "anonymous": false,
      "inputs": [
        {
          "indexed": false,
          "internalType": "bytes32",
          "name": "debridgeId",
          "type": "bytes32"
        },
        {
          "indexed": false,
          "internalType": "bytes32",
          "name": "commitment",
          "type": "bytes32"
        }
      ],
      "name": "Broadcasted",
      "type": "event"
    },
    {
      "anonymous": false,
      "inputs": [
        {
          "indexed": false,
          "internalType": "bytes32",
          "name": "commitment",
          "type": "bytes32"
        },
        {
          "indexed": false,
          "internalType": "bytes32",
          "name": "debridgeId",
          "type": "bytes32"
        },
        {
          "indexed": false,
          "internalType": "address",
          "name": "operator",
          "type": "address"
        }
      ],
      "name": "Confirmed",
      "type": "event"
    },
    {
      "anonymous": false,
      "inputs": [
        {
          "indexed": true,
          "internalType": "bytes32",
          "name": "role",
          "type": "bytes32"
        },
        {
          "indexed": true,
          "internalType": "bytes32",
          "name": "previousAdminRole",
          "type": "bytes32"
        },
        {
          "indexed": true,
          "internalType": "bytes32",
          "name": "newAdminRole",
          "type": "bytes32"
        }
      ],
      "name": "RoleAdminChanged",
      "type": "event"
    },
    {
      "anonymous": false,
      "inputs": [
        {
          "indexed": true,
          "internalType": "bytes32",
          "name": "role",
          "type": "bytes32"
        },
        {
          "indexed": true,
          "internalType": "address",
          "name": "account",
          "type": "address"
        },
        {
          "indexed": true,
          "internalType": "address",
          "name": "sender",
          "type": "address"
        }
      ],
      "name": "RoleGranted",
      "type": "event"
    },
    {
      "anonymous": false,
      "inputs": [
        {
          "indexed": true,
          "internalType": "bytes32",
          "name": "role",
          "type": "bytes32"
        },
        {
          "indexed": true,
          "internalType": "address",
          "name": "account",
          "type": "address"
        },
        {
          "indexed": true,
          "internalType": "address",
          "name": "sender",
          "type": "address"
        }
      ],
      "name": "RoleRevoked",
      "type": "event"
    },
    {
      "inputs": [],
      "name": "DEFAULT_ADMIN_ROLE",
      "outputs": [
        {
          "internalType": "bytes32",
          "name": "",
          "type": "bytes32"
        }
      ],
      "stateMutability": "view",
      "type": "function",
      "constant": true
    },
    {
      "inputs": [],
      "name": "ORACLE_ROLE",
      "outputs": [
        {
          "internalType": "bytes32",
          "name": "",
          "type": "bytes32"
        }
      ],
      "stateMutability": "view",
      "type": "function",
      "constant": true
    },
    {
      "inputs": [
        {
          "internalType": "address",
          "name": "_aggregator",
          "type": "address"
        }
      ],
      "name": "addOracle",
      "outputs": [],
      "stateMutability": "nonpayable",
      "type": "function"
    },
    {
      "inputs": [],
      "name": "allocatedFunds",
      "outputs": [
        {
          "internalType": "uint256",
          "name": "",
          "type": "uint256"
        }
      ],
      "stateMutability": "view",
      "type": "function",
      "constant": true
    },
    {
      "inputs": [],
      "name": "availableFunds",
      "outputs": [
        {
          "internalType": "uint256",
          "name": "",
          "type": "uint256"
        }
      ],
      "stateMutability": "view",
      "type": "function",
      "constant": true
    },
    {
      "inputs": [
        {
          "internalType": "bytes32",
          "name": "",
          "type": "bytes32"
        }
      ],
      "name": "getBurnInfo",
      "outputs": [
        {
          "internalType": "bool",
          "name": "broadcasted",
          "type": "bool"
        },
        {
          "internalType": "uint256",
          "name": "confirmations",
          "type": "uint256"
        },
        {
          "internalType": "bytes32",
          "name": "debridgeId",
          "type": "bytes32"
        },
        {
          "internalType": "uint256",
          "name": "amount",
          "type": "uint256"
        },
        {
          "internalType": "address",
          "name": "receiver",
          "type": "address"
        },
        {
          "internalType": "uint256",
          "name": "nonce",
          "type": "uint256"
        }
      ],
      "stateMutability": "view",
      "type": "function",
      "constant": true
    },
    {
      "inputs": [
        {
          "internalType": "bytes32",
          "name": "",
          "type": "bytes32"
        }
      ],
      "name": "getDebridge",
      "outputs": [
        {
          "internalType": "contract IWhiteDebridge",
          "name": "",
          "type": "address"
        }
      ],
      "stateMutability": "view",
      "type": "function",
      "constant": true
    },
    {
      "inputs": [
        {
          "internalType": "bytes32",
          "name": "",
          "type": "bytes32"
        }
      ],
      "name": "getMintInfo",
      "outputs": [
        {
          "internalType": "bool",
          "name": "broadcasted",
          "type": "bool"
        },
        {
          "internalType": "uint256",
          "name": "confirmations",
          "type": "uint256"
        },
        {
          "internalType": "bytes32",
          "name": "debridgeId",
          "type": "bytes32"
        },
        {
          "internalType": "uint256",
          "name": "amount",
          "type": "uint256"
        },
        {
          "internalType": "address",
          "name": "receiver",
          "type": "address"
        },
        {
          "internalType": "uint256",
          "name": "nonce",
          "type": "uint256"
        }
      ],
      "stateMutability": "view",
      "type": "function",
      "constant": true
    },
    {
      "inputs": [
        {
          "internalType": "bytes32",
          "name": "role",
          "type": "bytes32"
        }
      ],
      "name": "getRoleAdmin",
      "outputs": [
        {
          "internalType": "bytes32",
          "name": "",
          "type": "bytes32"
        }
      ],
      "stateMutability": "view",
      "type": "function",
      "constant": true
    },
    {
      "inputs": [
        {
          "internalType": "address",
          "name": "",
          "type": "address"
        }
      ],
      "name": "getRracleInfo",
      "outputs": [
        {
          "internalType": "uint128",
          "name": "withdrawable",
          "type": "uint128"
        },
        {
          "internalType": "address",
          "name": "admin",
          "type": "address"
        },
        {
          "internalType": "address",
          "name": "pendingAdmin",
          "type": "address"
        }
      ],
      "stateMutability": "view",
      "type": "function",
      "constant": true
    },
    {
      "inputs": [
        {
          "internalType": "bytes32",
          "name": "role",
          "type": "bytes32"
        },
        {
          "internalType": "address",
          "name": "account",
          "type": "address"
        }
      ],
      "name": "grantRole",
      "outputs": [],
      "stateMutability": "nonpayable",
      "type": "function"
    },
    {
      "inputs": [
        {
          "internalType": "bytes32",
          "name": "role",
          "type": "bytes32"
        },
        {
          "internalType": "address",
          "name": "account",
          "type": "address"
        }
      ],
      "name": "hasRole",
      "outputs": [
        {
          "internalType": "bool",
          "name": "",
          "type": "bool"
        }
      ],
      "stateMutability": "view",
      "type": "function",
      "constant": true
    },
    {
      "inputs": [],
      "name": "link",
      "outputs": [
        {
          "internalType": "contract IERC20",
          "name": "",
          "type": "address"
        }
      ],
      "stateMutability": "view",
      "type": "function",
      "constant": true
    },
    {
      "inputs": [],
      "name": "minConfirmations",
      "outputs": [
        {
          "internalType": "uint256",
          "name": "",
          "type": "uint256"
        }
      ],
      "stateMutability": "view",
      "type": "function",
      "constant": true
    },
    {
      "inputs": [
        {
          "internalType": "address",
          "name": "",
          "type": "address"
        },
        {
          "internalType": "uint256",
          "name": "",
          "type": "uint256"
        },
        {
          "internalType": "bytes",
          "name": "_data",
          "type": "bytes"
        }
      ],
      "name": "onTokenTransfer",
      "outputs": [],
      "stateMutability": "nonpayable",
      "type": "function"
    },
    {
      "inputs": [],
      "name": "payment",
      "outputs": [
        {
          "internalType": "uint128",
          "name": "",
          "type": "uint128"
        }
      ],
      "stateMutability": "view",
      "type": "function",
      "constant": true
    },
    {
      "inputs": [
        {
          "internalType": "address",
          "name": "_aggregator",
          "type": "address"
        }
      ],
      "name": "removeOracle",
      "outputs": [],
      "stateMutability": "nonpayable",
      "type": "function"
    },
    {
      "inputs": [
        {
          "internalType": "bytes32",
          "name": "role",
          "type": "bytes32"
        },
        {
          "internalType": "address",
          "name": "account",
          "type": "address"
        }
      ],
      "name": "renounceRole",
      "outputs": [],
      "stateMutability": "nonpayable",
      "type": "function"
    },
    {
      "inputs": [
        {
          "internalType": "bytes32",
          "name": "role",
          "type": "bytes32"
        },
        {
          "internalType": "address",
          "name": "account",
          "type": "address"
        }
      ],
      "name": "revokeRole",
      "outputs": [],
      "stateMutability": "nonpayable",
      "type": "function"
    },
    {
      "inputs": [
        {
          "internalType": "uint256",
          "name": "_minConfirmations",
          "type": "uint256"
        }
      ],
      "name": "setMinConfirmations",
      "outputs": [],
      "stateMutability": "nonpayable",
      "type": "function"
    },
    {
      "inputs": [
        {
          "internalType": "uint128",
          "name": "_payment",
          "type": "uint128"
        }
      ],
      "name": "setPayment",
      "outputs": [],
      "stateMutability": "nonpayable",
      "type": "function"
    },
    {
      "inputs": [
        {
          "internalType": "bytes4",
          "name": "interfaceId",
          "type": "bytes4"
        }
      ],
      "name": "supportsInterface",
      "outputs": [
        {
          "internalType": "bool",
          "name": "",
          "type": "bool"
        }
      ],
      "stateMutability": "view",
      "type": "function",
      "constant": true
    },
    {
      "inputs": [],
      "name": "updateAvailableFunds",
      "outputs": [],
      "stateMutability": "nonpayable",
      "type": "function"
    },
    {
      "inputs": [
        {
          "internalType": "address",
          "name": "_recipient",
          "type": "address"
        },
        {
          "internalType": "uint256",
          "name": "_amount",
          "type": "uint256"
        }
      ],
      "name": "withdrawFunds",
      "outputs": [],
      "stateMutability": "nonpayable",
      "type": "function"
    },
    {
      "inputs": [
        {
          "internalType": "address",
          "name": "_oracle",
          "type": "address"
        },
        {
          "internalType": "address",
          "name": "_recipient",
          "type": "address"
        },
        {
          "internalType": "uint256",
          "name": "_amount",
          "type": "uint256"
        }
      ],
      "name": "withdrawPayment",
      "outputs": [],
      "stateMutability": "nonpayable",
      "type": "function"
    },
    {
      "inputs": [
        {
          "internalType": "address",
          "name": "_oracle",
          "type": "address"
        }
      ],
      "name": "withdrawablePayment",
      "outputs": [
        {
          "internalType": "uint256",
          "name": "",
          "type": "uint256"
        }
      ],
      "stateMutability": "view",
      "type": "function",
      "constant": true
    },
    {
      "inputs": [
        {
          "internalType": "bytes32",
          "name": "_debridgeId",
          "type": "bytes32"
        },
        {
          "internalType": "uint256",
          "name": "_amount",
          "type": "uint256"
        },
        {
          "internalType": "address",
          "name": "_receiver",
          "type": "address"
        },
        {
          "internalType": "uint256",
          "name": "_nonce",
          "type": "uint256"
        }
      ],
      "name": "submitMint",
      "outputs": [],
      "stateMutability": "nonpayable",
      "type": "function"
    },
    {
      "inputs": [
        {
          "internalType": "bytes32",
          "name": "_debridgeId",
          "type": "bytes32"
        },
        {
          "internalType": "uint256",
          "name": "_amount",
          "type": "uint256"
        },
        {
          "internalType": "address",
          "name": "_receiver",
          "type": "address"
        },
        {
          "internalType": "uint256",
          "name": "_nonce",
          "type": "uint256"
        }
      ],
      "name": "submitBurn",
      "outputs": [],
      "stateMutability": "nonpayable",
      "type": "function"
    },
    {
      "inputs": [
        {
          "internalType": "bytes32",
          "name": "_debridgeId",
          "type": "bytes32"
        },
        {
          "internalType": "contract IWhiteDebridge",
          "name": "_debridge",
          "type": "address"
        }
      ],
      "name": "setDebridge",
      "outputs": [],
      "stateMutability": "nonpayable",
      "type": "function"
    }
  ],
  "bytecode": "0x60806040523480156200001157600080fd5b5060405162002ebd38038062002ebd8339818101604052810190620000379190620002cc565b8282828260018190555081600460006101000a8154816fffffffffffffffffffffffffffffffff02191690836fffffffffffffffffffffffffffffffff16021790555080600560006101000a81548173ffffffffffffffffffffffffffffffffffffffff021916908373ffffffffffffffffffffffffffffffffffffffff160217905550620000d06000801b336200010e60201b60201c565b620001027f68e79a7bf1e0bc45d0a330c573bc367f9cf464fd326078812f301165fbda4ef1336200010e60201b60201c565b505050505050620003de565b6200012082826200012460201b60201c565b5050565b6200013682826200021560201b60201c565b6200021157600160008084815260200190815260200160002060000160008373ffffffffffffffffffffffffffffffffffffffff1673ffffffffffffffffffffffffffffffffffffffff16815260200190815260200160002060006101000a81548160ff021916908315150217905550620001b66200027f60201b60201c565b73ffffffffffffffffffffffffffffffffffffffff168173ffffffffffffffffffffffffffffffffffffffff16837f2f8788117e7eff1d82e926ec794901d17c78024a50270940304540a733656f0d60405160405180910390a45b5050565b600080600084815260200190815260200160002060000160008373ffffffffffffffffffffffffffffffffffffffff1673ffffffffffffffffffffffffffffffffffffffff16815260200190815260200160002060009054906101000a900460ff16905092915050565b600033905090565b600081519050620002988162000390565b92915050565b600081519050620002af81620003aa565b92915050565b600081519050620002c681620003c4565b92915050565b600080600060608486031215620002e257600080fd5b6000620002f286828701620002b5565b935050602062000305868287016200029e565b9250506040620003188682870162000287565b9150509250925092565b60006200032f8262000366565b9050919050565b6000620003438262000322565b9050919050565b60006fffffffffffffffffffffffffffffffff82169050919050565b600073ffffffffffffffffffffffffffffffffffffffff82169050919050565b6000819050919050565b6200039b8162000336565b8114620003a757600080fd5b50565b620003b5816200034a565b8114620003c157600080fd5b50565b620003cf8162000386565b8114620003db57600080fd5b50565b612acf80620003ee6000396000f3fe608060405234801561001057600080fd5b50600436106101cf5760003560e01c806351be6ad711610104578063c1075329116100a2578063df5dd1a511610071578063df5dd1a514610522578063e2e403171461053e578063e7c4393e1461056e578063fdc85fc41461058c576101cf565b8063c1075329146104b0578063d2821655146104cc578063d4cc54e4146104e8578063d547741f14610506576101cf565b806391d14854116100de57806391d1485414610411578063a217fddf14610441578063a4c0ed361461045f578063b95eeed71461047b576101cf565b806351be6ad7146103a957806357cf07ca146103c557806382313e50146103f5576101cf565b806336568abe11610171578063435f7bcd1161014b578063435f7bcd1461033057806344914e461461034c57806346fcff4c146103815780634f8fc3b51461039f576101cf565b806336568abe146102da5780633d3d7714146102f657806342f6487a14610312576101cf565b80632288c5cf116101ad5780632288c5cf14610240578063248a9ca31461025c5780632dd6b35c1461028c5780632f2ff15d146102be576101cf565b806301ffc9a7146101d457806307e2cea5146102045780631c4695f414610222575b600080fd5b6101ee60048036038101906101e99190611f10565b6105a8565b6040516101fb9190612275565b60405180910390f35b61020c610622565b60405161021991906122f1565b60405180910390f35b61022a610646565b6040516102379190612343565b60405180910390f35b61025a60048036038101906102559190611ead565b61066c565b005b61027660048036038101906102719190611e0c565b61096d565b60405161028391906122f1565b60405180910390f35b6102a660048036038101906102a19190611cc3565b61098c565b6040516102b5939291906124f4565b60405180910390f35b6102d860048036038101906102d39190611e35565b610a12565b005b6102f460048036038101906102ef9190611e35565b610a78565b005b610310600480360381019061030b9190611cec565b610afb565b005b61031a610e44565b60405161032791906124d9565b60405180910390f35b61034a60048036038101906103459190611ead565b610e66565b005b61036660048036038101906103619190611e0c565b611167565b60405161037896959493929190612290565b60405180910390f35b6103896111d0565b604051610396919061252b565b60405180910390f35b6103a76111d6565b005b6103c360048036038101906103be9190611e71565b611296565b005b6103df60048036038101906103da9190611e0c565b611338565b6040516103ec919061235e565b60405180910390f35b61040f600480360381019061040a9190611f39565b61136b565b005b61042b60048036038101906104269190611e35565b6113f3565b6040516104389190612275565b60405180910390f35b61044961145d565b60405161045691906122f1565b60405180910390f35b61047960048036038101906104749190611d77565b611464565b005b61049560048036038101906104909190611e0c565b6114b8565b6040516104a796959493929190612290565b60405180910390f35b6104ca60048036038101906104c59190611d3b565b611521565b005b6104e660048036038101906104e19190611f62565b6116ac565b005b6104f0611702565b6040516104fd919061252b565b60405180910390f35b610520600480360381019061051b9190611e35565b611708565b005b61053c60048036038101906105379190611cc3565b61176e565b005b61055860048036038101906105539190611cc3565b61179b565b604051610565919061252b565b60405180910390f35b610576611815565b604051610583919061252b565b60405180910390f35b6105a660048036038101906105a19190611cc3565b61181b565b005b60007f7965db0b000000000000000000000000000000000000000000000000000000007bffffffffffffffffffffffffffffffffffffffffffffffffffffffff1916827bffffffffffffffffffffffffffffffffffffffffffffffffffffffff1916148061061b575061061a82611848565b5b9050919050565b7f68e79a7bf1e0bc45d0a330c573bc367f9cf464fd326078812f301165fbda4ef181565b600560009054906101000a900473ffffffffffffffffffffffffffffffffffffffff1681565b6106967f68e79a7bf1e0bc45d0a330c573bc367f9cf464fd326078812f301165fbda4ef1336113f3565b6106d5576040517f08c379a00000000000000000000000000000000000000000000000000000000081526004016106cc90612499565b60405180910390fd5b6000848484846040516020016106ee94939291906121e3565b60405160208183030381529060405280519060200120905060006008600083815260200190815260200160002090508060060160003373ffffffffffffffffffffffffffffffffffffffff1673ffffffffffffffffffffffffffffffffffffffff16815260200190815260200160002060009054906101000a900460ff16156107ac576040517f08c379a00000000000000000000000000000000000000000000000000000000081526004016107a3906123b9565b60405180910390fd5b60008160010154141561081857848160030181905550838160040160006101000a81548173ffffffffffffffffffffffffffffffffffffffff021916908373ffffffffffffffffffffffffffffffffffffffff1602179055508281600501819055508581600201819055505b600181600101600082825461082d919061259d565b9250508190555060018160060160003373ffffffffffffffffffffffffffffffffffffffff1673ffffffffffffffffffffffffffffffffffffffff16815260200190815260200160002060006101000a81548160ff0219169083151502179055506001548160010154141561095c576009600087815260200190815260200160002060009054906101000a900473ffffffffffffffffffffffffffffffffffffffff1673ffffffffffffffffffffffffffffffffffffffff166398e5d7e28786886040518463ffffffff1660e01b815260040161090c9392919061230c565b600060405180830381600087803b15801561092657600080fd5b505af115801561093a573d6000803e3d6000fd5b5050505060018160000160006101000a81548160ff0219169083151502179055505b610965336118b2565b505050505050565b6000806000838152602001908152602001600020600101549050919050565b60066020528060005260406000206000915090508060000160009054906101000a90046fffffffffffffffffffffffffffffffff16908060010160009054906101000a900473ffffffffffffffffffffffffffffffffffffffff16908060020160009054906101000a900473ffffffffffffffffffffffffffffffffffffffff16905083565b610a2b610a1e8361096d565b610a26611a08565b6113f3565b610a6a576040517f08c379a0000000000000000000000000000000000000000000000000000000008152600401610a6190612379565b60405180910390fd5b610a748282611a10565b5050565b610a80611a08565b73ffffffffffffffffffffffffffffffffffffffff168173ffffffffffffffffffffffffffffffffffffffff1614610aed576040517f08c379a0000000000000000000000000000000000000000000000000000000008152600401610ae4906124b9565b60405180910390fd5b610af78282611af0565b5050565b3373ffffffffffffffffffffffffffffffffffffffff16600660008573ffffffffffffffffffffffffffffffffffffffff1673ffffffffffffffffffffffffffffffffffffffff16815260200190815260200160002060010160009054906101000a900473ffffffffffffffffffffffffffffffffffffffff1673ffffffffffffffffffffffffffffffffffffffff1614610bcb576040517f08c379a0000000000000000000000000000000000000000000000000000000008152600401610bc290612459565b60405180910390fd5b60008190506000600660008673ffffffffffffffffffffffffffffffffffffffff1673ffffffffffffffffffffffffffffffffffffffff16815260200190815260200160002060000160009054906101000a90046fffffffffffffffffffffffffffffffff169050816fffffffffffffffffffffffffffffffff16816fffffffffffffffffffffffffffffffff161015610c9a576040517f08c379a0000000000000000000000000000000000000000000000000000000008152600401610c9190612399565b60405180910390fd5b8181610ca691906125f3565b600660008773ffffffffffffffffffffffffffffffffffffffff1673ffffffffffffffffffffffffffffffffffffffff16815260200190815260200160002060000160006101000a8154816fffffffffffffffffffffffffffffffff02191690836fffffffffffffffffffffffffffffffff160217905550816fffffffffffffffffffffffffffffffff1660026000828254610d429190612627565b92505081905550600560009054906101000a900473ffffffffffffffffffffffffffffffffffffffff1673ffffffffffffffffffffffffffffffffffffffff1663a9059cbb85846fffffffffffffffffffffffffffffffff166040518363ffffffff1660e01b8152600401610db892919061224c565b602060405180830381600087803b158015610dd257600080fd5b505af1158015610de6573d6000803e3d6000fd5b505050506040513d601f19601f82011682018060405250810190610e0a9190611de3565b610e3d577f4e487b7100000000000000000000000000000000000000000000000000000000600052600160045260246000fd5b5050505050565b600460009054906101000a90046fffffffffffffffffffffffffffffffff1681565b610e907f68e79a7bf1e0bc45d0a330c573bc367f9cf464fd326078812f301165fbda4ef1336113f3565b610ecf576040517f08c379a0000000000000000000000000000000000000000000000000000000008152600401610ec690612499565b60405180910390fd5b600084848484604051602001610ee894939291906121e3565b60405160208183030381529060405280519060200120905060006007600083815260200190815260200160002090508060060160003373ffffffffffffffffffffffffffffffffffffffff1673ffffffffffffffffffffffffffffffffffffffff16815260200190815260200160002060009054906101000a900460ff1615610fa6576040517f08c379a0000000000000000000000000000000000000000000000000000000008152600401610f9d906123b9565b60405180910390fd5b60008160010154141561101257848160030181905550838160040160006101000a81548173ffffffffffffffffffffffffffffffffffffffff021916908373ffffffffffffffffffffffffffffffffffffffff1602179055508281600501819055508581600201819055505b6001816001016000828254611027919061259d565b9250508190555060018160060160003373ffffffffffffffffffffffffffffffffffffffff1673ffffffffffffffffffffffffffffffffffffffff16815260200190815260200160002060006101000a81548160ff02191690831515021790555060015481600101541415611156576009600087815260200190815260200160002060009054906101000a900473ffffffffffffffffffffffffffffffffffffffff1673ffffffffffffffffffffffffffffffffffffffff16637ed9db598786886040518463ffffffff1660e01b81526004016111069392919061230c565b600060405180830381600087803b15801561112057600080fd5b505af1158015611134573d6000803e3d6000fd5b5050505060018160000160006101000a81548160ff0219169083151502179055505b61115f336118b2565b505050505050565b60076020528060005260406000206000915090508060000160009054906101000a900460ff16908060010154908060020154908060030154908060040160009054906101000a900473ffffffffffffffffffffffffffffffffffffffff16908060050154905086565b60035481565b600254600560009054906101000a900473ffffffffffffffffffffffffffffffffffffffff1673ffffffffffffffffffffffffffffffffffffffff166370a08231306040518263ffffffff1660e01b81526004016112349190612231565b60206040518083038186803b15801561124c57600080fd5b505afa158015611260573d6000803e3d6000fd5b505050506040513d601f19601f820116820180604052508101906112849190611f8b565b61128e9190612627565b600381905550565b6112a36000801b336113f3565b6112e2576040517f08c379a00000000000000000000000000000000000000000000000000000000081526004016112d990612479565b60405180910390fd5b806009600084815260200190815260200160002060006101000a81548173ffffffffffffffffffffffffffffffffffffffff021916908373ffffffffffffffffffffffffffffffffffffffff1602179055505050565b60096020528060005260406000206000915054906101000a900473ffffffffffffffffffffffffffffffffffffffff1681565b6113786000801b336113f3565b6113b7576040517f08c379a00000000000000000000000000000000000000000000000000000000081526004016113ae90612479565b60405180910390fd5b80600460006101000a8154816fffffffffffffffffffffffffffffffff02191690836fffffffffffffffffffffffffffffffff16021790555050565b600080600084815260200190815260200160002060000160008373ffffffffffffffffffffffffffffffffffffffff1673ffffffffffffffffffffffffffffffffffffffff16815260200190815260200160002060009054906101000a900460ff16905092915050565b6000801b81565b600082829050146114aa576040517f08c379a00000000000000000000000000000000000000000000000000000000081526004016114a1906123f9565b60405180910390fd5b6114b26111d6565b50505050565b60086020528060005260406000206000915090508060000160009054906101000a900460ff16908060010154908060020154908060030154908060040160009054906101000a900473ffffffffffffffffffffffffffffffffffffffff16908060050154905086565b61152e6000801b336113f3565b61156d576040517f08c379a000000000000000000000000000000000000000000000000000000000815260040161156490612479565b60405180910390fd5b8060035410156115b2576040517f08c379a00000000000000000000000000000000000000000000000000000000081526004016115a990612439565b60405180910390fd5b600560009054906101000a900473ffffffffffffffffffffffffffffffffffffffff1673ffffffffffffffffffffffffffffffffffffffff1663a9059cbb83836040518363ffffffff1660e01b815260040161160f92919061224c565b602060405180830381600087803b15801561162957600080fd5b505af115801561163d573d6000803e3d6000fd5b505050506040513d601f19601f820116820180604052508101906116619190611de3565b6116a0576040517f08c379a0000000000000000000000000000000000000000000000000000000008152600401611697906123d9565b60405180910390fd5b6116a86111d6565b5050565b6116b96000801b336113f3565b6116f8576040517f08c379a00000000000000000000000000000000000000000000000000000000081526004016116ef90612479565b60405180910390fd5b8060018190555050565b60025481565b6117216117148361096d565b61171c611a08565b6113f3565b611760576040517f08c379a000000000000000000000000000000000000000000000000000000000815260040161175790612419565b60405180910390fd5b61176a8282611af0565b5050565b6117987f68e79a7bf1e0bc45d0a330c573bc367f9cf464fd326078812f301165fbda4ef182610a12565b50565b6000600660008373ffffffffffffffffffffffffffffffffffffffff1673ffffffffffffffffffffffffffffffffffffffff16815260200190815260200160002060000160009054906101000a90046fffffffffffffffffffffffffffffffff166fffffffffffffffffffffffffffffffff169050919050565b60015481565b6118457f68e79a7bf1e0bc45d0a330c573bc367f9cf464fd326078812f301165fbda4ef182611708565b50565b60007f01ffc9a7000000000000000000000000000000000000000000000000000000007bffffffffffffffffffffffffffffffffffffffffffffffffffffffff1916827bffffffffffffffffffffffffffffffffffffffffffffffffffffffff1916149050919050565b600460009054906101000a90046fffffffffffffffffffffffffffffffff166fffffffffffffffffffffffffffffffff16600360008282546118f49190612627565b92505081905550600460009054906101000a90046fffffffffffffffffffffffffffffffff166fffffffffffffffffffffffffffffffff166002600082825461193d919061259d565b92505081905550600460009054906101000a90046fffffffffffffffffffffffffffffffff16600660008373ffffffffffffffffffffffffffffffffffffffff1673ffffffffffffffffffffffffffffffffffffffff16815260200190815260200160002060000160008282829054906101000a90046fffffffffffffffffffffffffffffffff166119cf9190612557565b92506101000a8154816fffffffffffffffffffffffffffffffff02191690836fffffffffffffffffffffffffffffffff16021790555050565b600033905090565b611a1a82826113f3565b611aec57600160008084815260200190815260200160002060000160008373ffffffffffffffffffffffffffffffffffffffff1673ffffffffffffffffffffffffffffffffffffffff16815260200190815260200160002060006101000a81548160ff021916908315150217905550611a91611a08565b73ffffffffffffffffffffffffffffffffffffffff168173ffffffffffffffffffffffffffffffffffffffff16837f2f8788117e7eff1d82e926ec794901d17c78024a50270940304540a733656f0d60405160405180910390a45b5050565b611afa82826113f3565b15611bcd57600080600084815260200190815260200160002060000160008373ffffffffffffffffffffffffffffffffffffffff1673ffffffffffffffffffffffffffffffffffffffff16815260200190815260200160002060006101000a81548160ff021916908315150217905550611b72611a08565b73ffffffffffffffffffffffffffffffffffffffff168173ffffffffffffffffffffffffffffffffffffffff16837ff6391f5c32d9c69d2a47ea670b442974b53935d1edc7fd64eb21e047a839171b60405160405180910390a45b5050565b600081359050611be0816129f8565b92915050565b600081519050611bf581612a0f565b92915050565b600081359050611c0a81612a26565b92915050565b600081359050611c1f81612a3d565b92915050565b60008083601f840112611c3757600080fd5b8235905067ffffffffffffffff811115611c5057600080fd5b602083019150836001820283011115611c6857600080fd5b9250929050565b600081359050611c7e81612a54565b92915050565b600081359050611c9381612a6b565b92915050565b600081359050611ca881612a82565b92915050565b600081519050611cbd81612a82565b92915050565b600060208284031215611cd557600080fd5b6000611ce384828501611bd1565b91505092915050565b600080600060608486031215611d0157600080fd5b6000611d0f86828701611bd1565b9350506020611d2086828701611bd1565b9250506040611d3186828701611c99565b9150509250925092565b60008060408385031215611d4e57600080fd5b6000611d5c85828601611bd1565b9250506020611d6d85828601611c99565b9150509250929050565b60008060008060608587031215611d8d57600080fd5b6000611d9b87828801611bd1565b9450506020611dac87828801611c99565b935050604085013567ffffffffffffffff811115611dc957600080fd5b611dd587828801611c25565b925092505092959194509250565b600060208284031215611df557600080fd5b6000611e0384828501611be6565b91505092915050565b600060208284031215611e1e57600080fd5b6000611e2c84828501611bfb565b91505092915050565b60008060408385031215611e4857600080fd5b6000611e5685828601611bfb565b9250506020611e6785828601611bd1565b9150509250929050565b60008060408385031215611e8457600080fd5b6000611e9285828601611bfb565b9250506020611ea385828601611c6f565b9150509250929050565b60008060008060808587031215611ec357600080fd5b6000611ed187828801611bfb565b9450506020611ee287828801611c99565b9350506040611ef387828801611bd1565b9250506060611f0487828801611c99565b91505092959194509250565b600060208284031215611f2257600080fd5b6000611f3084828501611c10565b91505092915050565b600060208284031215611f4b57600080fd5b6000611f5984828501611c84565b91505092915050565b600060208284031215611f7457600080fd5b6000611f8284828501611c99565b91505092915050565b600060208284031215611f9d57600080fd5b6000611fab84828501611cae565b91505092915050565b611fbd8161265b565b82525050565b611fd4611fcf8261265b565b61274f565b82525050565b611fe38161266d565b82525050565b611ff281612679565b82525050565b61200961200482612679565b612761565b82525050565b61201881612707565b82525050565b6120278161272b565b82525050565b600061203a602f83612546565b9150612045826127c3565b604082019050919050565b600061205d601f83612546565b915061206882612812565b602082019050919050565b6000612080601983612546565b915061208b8261283b565b602082019050919050565b60006120a3601e83612546565b91506120ae82612864565b602082019050919050565b60006120c6602083612546565b91506120d18261288d565b602082019050919050565b60006120e9603083612546565b91506120f4826128b6565b604082019050919050565b600061210c601a83612546565b915061211782612905565b602082019050919050565b600061212f601683612546565b915061213a8261292e565b602082019050919050565b6000612152601383612546565b915061215d82612957565b602082019050919050565b6000612175601483612546565b915061218082612980565b602082019050919050565b6000612198602f83612546565b91506121a3826129a9565b604082019050919050565b6121b7816126c1565b82525050565b6121c6816126fd565b82525050565b6121dd6121d8826126fd565b61277d565b82525050565b60006121ef8287611ff8565b6020820191506121ff82866121cc565b60208201915061220f8285611fc3565b60148201915061221f82846121cc565b60208201915081905095945050505050565b60006020820190506122466000830184611fb4565b92915050565b60006040820190506122616000830185611fb4565b61226e60208301846121bd565b9392505050565b600060208201905061228a6000830184611fda565b92915050565b600060c0820190506122a56000830189611fda565b6122b260208301886121bd565b6122bf6040830187611fe9565b6122cc60608301866121bd565b6122d96080830185611fb4565b6122e660a08301846121bd565b979650505050505050565b60006020820190506123066000830184611fe9565b92915050565b60006060820190506123216000830186611fe9565b61232e6020830185611fb4565b61233b60408301846121bd565b949350505050565b6000602082019050612358600083018461200f565b92915050565b6000602082019050612373600083018461201e565b92915050565b600060208201905081810360008301526123928161202d565b9050919050565b600060208201905081810360008301526123b281612050565b9050919050565b600060208201905081810360008301526123d281612073565b9050919050565b600060208201905081810360008301526123f281612096565b9050919050565b60006020820190508181036000830152612412816120b9565b9050919050565b60006020820190508181036000830152612432816120dc565b9050919050565b60006020820190508181036000830152612452816120ff565b9050919050565b6000602082019050818103600083015261247281612122565b9050919050565b6000602082019050818103600083015261249281612145565b9050919050565b600060208201905081810360008301526124b281612168565b9050919050565b600060208201905081810360008301526124d28161218b565b9050919050565b60006020820190506124ee60008301846121ae565b92915050565b600060608201905061250960008301866121ae565b6125166020830185611fb4565b6125236040830184611fb4565b949350505050565b600060208201905061254060008301846121bd565b92915050565b600082825260208201905092915050565b6000612562826126c1565b915061256d836126c1565b9250826fffffffffffffffffffffffffffffffff0382111561259257612591612787565b5b828201905092915050565b60006125a8826126fd565b91506125b3836126fd565b9250827fffffffffffffffffffffffffffffffffffffffffffffffffffffffffffffffff038211156125e8576125e7612787565b5b828201905092915050565b60006125fe826126c1565b9150612609836126c1565b92508282101561261c5761261b612787565b5b828203905092915050565b6000612632826126fd565b915061263d836126fd565b9250828210156126505761264f612787565b5b828203905092915050565b6000612666826126dd565b9050919050565b60008115159050919050565b6000819050919050565b60007fffffffff0000000000000000000000000000000000000000000000000000000082169050919050565b60006126ba8261265b565b9050919050565b60006fffffffffffffffffffffffffffffffff82169050919050565b600073ffffffffffffffffffffffffffffffffffffffff82169050919050565b6000819050919050565b600061271282612719565b9050919050565b6000612724826126dd565b9050919050565b60006127368261273d565b9050919050565b6000612748826126dd565b9050919050565b600061275a8261276b565b9050919050565b6000819050919050565b6000612776826127b6565b9050919050565b6000819050919050565b7f4e487b7100000000000000000000000000000000000000000000000000000000600052601160045260246000fd5b60008160601b9050919050565b7f416363657373436f6e74726f6c3a2073656e646572206d75737420626520616e60008201527f2061646d696e20746f206772616e740000000000000000000000000000000000602082015250565b7f696e73756666696369656e7420776974686472617761626c652066756e647300600082015250565b7f7375626d69743a207375626d697474656420616c726561647900000000000000600082015250565b7f776974686472617746756e64733a207472616e73666572206661696c65640000600082015250565b7f7472616e7366657220646f65736e2774206163636570742063616c6c64617461600082015250565b7f416363657373436f6e74726f6c3a2073656e646572206d75737420626520616e60008201527f2061646d696e20746f207265766f6b6500000000000000000000000000000000602082015250565b7f696e73756666696369656e7420726573657276652066756e6473000000000000600082015250565b7f6f6e6c792063616c6c61626c652062792061646d696e00000000000000000000600082015250565b7f6f6e6c7941646d696e3a2062616420726f6c6500000000000000000000000000600082015250565b7f6f6e6c794f7261636c653a2062616420726f6c65000000000000000000000000600082015250565b7f416363657373436f6e74726f6c3a2063616e206f6e6c792072656e6f756e636560008201527f20726f6c657320666f722073656c660000000000000000000000000000000000602082015250565b612a018161265b565b8114612a0c57600080fd5b50565b612a188161266d565b8114612a2357600080fd5b50565b612a2f81612679565b8114612a3a57600080fd5b50565b612a4681612683565b8114612a5157600080fd5b50565b612a5d816126af565b8114612a6857600080fd5b50565b612a74816126c1565b8114612a7f57600080fd5b50565b612a8b816126fd565b8114612a9657600080fd5b5056fea2646970667358221220dda95aba36ea72b3ffcbcffa1a58c899153583726c67be760643f90209d9fe6864736f6c63430008020033",
  "immutableReferences": {},
  "source": "// SPDX-License-Identifier: MIT\npragma solidity ^0.8.2;\n\nimport \"@openzeppelin/contracts/access/AccessControl.sol\";\nimport \"@openzeppelin/contracts/token/ERC20/IERC20.sol\";\nimport \"../interfaces/IWhiteDebridge.sol\";\nimport \"./Aggregator.sol\";\n\ncontract WhiteAggregator is Aggregator {\n    struct MintInfo {\n        bool broadcasted;\n        uint256 confirmations;\n        bytes32 debridgeId; // hash(chainId, tokenAddress)\n        uint256 amount;\n        address receiver;\n        uint256 nonce;\n        mapping(address => bool) hasVerified;\n    }\n    struct BurnInfo {\n        bool broadcasted;\n        uint256 confirmations;\n        bytes32 debridgeId; // hash(chainId, tokenAddress)\n        uint256 amount;\n        address receiver;\n        uint256 nonce;\n        mapping(address => bool) hasVerified;\n    }\n\n    mapping(bytes32 => MintInfo) public getMintInfo;\n    mapping(bytes32 => BurnInfo) public getBurnInfo;\n    mapping(bytes32 => IWhiteDebridge) public getDebridge;\n\n    event Confirmed(bytes32 commitment, bytes32 debridgeId, address operator);\n    event Broadcasted(bytes32 debridgeId, bytes32 commitment);\n\n    constructor(\n        uint256 _minConfirmations,\n        uint128 _payment,\n        IERC20 _link\n    ) Aggregator(_minConfirmations, _payment, _link) {}\n\n    function submitMint(\n        bytes32 _debridgeId,\n        uint256 _amount,\n        address _receiver,\n        uint256 _nonce\n    ) external onlyOracle {\n        bytes32 depositId =\n            keccak256(\n                abi.encodePacked(_debridgeId, _amount, _receiver, _nonce)\n            );\n        MintInfo storage mintInfo = getMintInfo[depositId];\n        require(!mintInfo.hasVerified[msg.sender], \"submit: submitted already\");\n        if (mintInfo.confirmations == 0) {\n            mintInfo.amount = _amount;\n            mintInfo.receiver = _receiver;\n            mintInfo.nonce = _nonce;\n            mintInfo.debridgeId = _debridgeId;\n        }\n        mintInfo.confirmations += 1;\n        mintInfo.hasVerified[msg.sender] = true;\n        if (mintInfo.confirmations == minConfirmations) {\n            getDebridge[_debridgeId].mint(_debridgeId, _receiver, _amount);\n            mintInfo.broadcasted = true;\n        }\n        _payOracle(msg.sender);\n    }\n\n    function submitBurn(\n        bytes32 _debridgeId,\n        uint256 _amount,\n        address _receiver,\n        uint256 _nonce\n    ) external onlyOracle {\n        bytes32 depositId =\n            keccak256(\n                abi.encodePacked(_debridgeId, _amount, _receiver, _nonce)\n            );\n        BurnInfo storage burnInfo = getBurnInfo[depositId];\n        require(!burnInfo.hasVerified[msg.sender], \"submit: submitted already\");\n        if (burnInfo.confirmations == 0) {\n            burnInfo.amount = _amount;\n            burnInfo.receiver = _receiver;\n            burnInfo.nonce = _nonce;\n            burnInfo.debridgeId = _debridgeId;\n        }\n        burnInfo.confirmations += 1;\n        burnInfo.hasVerified[msg.sender] = true;\n        if (burnInfo.confirmations == minConfirmations) {\n            getDebridge[_debridgeId].claim(_debridgeId, _receiver, _amount);\n            burnInfo.broadcasted = true;\n        }\n        _payOracle(msg.sender);\n    }\n\n    function setDebridge(bytes32 _debridgeId, IWhiteDebridge _debridge)\n        external\n        onlyAdmin\n    {\n        getDebridge[_debridgeId] = _debridge;\n    }\n}\n",
  "sourcePath": "/Users/kstasi/Documents/work/debridge-contracts/contracts/chainlink/WhiteAggregator.sol",
  "compiler": {
    "name": "solc",
    "version": "0.8.2+commit.661d1103.Emscripten.clang"
  },
  "schemaVersion": "3.3.4",
  "updatedAt": "2021-03-17T17:04:46.790Z",
  "networkType": "ethereum",
  "devdoc": {
    "kind": "dev",
    "methods": {
      "getRoleAdmin(bytes32)": {
        "details": "Returns the admin role that controls `role`. See {grantRole} and {revokeRole}. To change a role's admin, use {_setRoleAdmin}."
      },
      "grantRole(bytes32,address)": {
        "details": "Grants `role` to `account`. If `account` had not been already granted `role`, emits a {RoleGranted} event. Requirements: - the caller must have ``role``'s admin role."
      },
      "hasRole(bytes32,address)": {
        "details": "Returns `true` if `account` has been granted `role`."
      },
      "renounceRole(bytes32,address)": {
        "details": "Revokes `role` from the calling account. Roles are often managed via {grantRole} and {revokeRole}: this function's purpose is to provide a mechanism for accounts to lose their privileges if they are compromised (such as when a trusted device is misplaced). If the calling account had been granted `role`, emits a {RoleRevoked} event. Requirements: - the caller must be `account`."
      },
      "revokeRole(bytes32,address)": {
        "details": "Revokes `role` from `account`. If `account` had been granted `role`, emits a {RoleRevoked} event. Requirements: - the caller must have ``role``'s admin role."
      },
      "supportsInterface(bytes4)": {
        "details": "See {IERC165-supportsInterface}."
      }
    },
    "version": 1
  },
  "userdoc": {
    "kind": "user",
    "methods": {},
    "version": 1
  }
}