{
  "contractName": "WhiteLightAggregator",
  "abi": [
    {
      "inputs": [
        {
          "internalType": "uint256",
          "name": "_minConfirmations",
          "type": "uint256"
        },
        {
          "internalType": "bytes[2]",
          "name": "_utilityBytes",
          "type": "bytes[2]"
        }
      ],
      "stateMutability": "nonpayable",
      "type": "constructor"
    },
    {
      "anonymous": false,
      "inputs": [
        {
          "indexed": false,
          "internalType": "bytes32",
          "name": "submissionId",
          "type": "bytes32"
        },
        {
          "indexed": false,
          "internalType": "address",
          "name": "operator",
          "type": "address"
        }
      ],
      "name": "Confirmed",
      "type": "event"
    },
    {
      "anonymous": false,
      "inputs": [
        {
          "indexed": true,
          "internalType": "bytes32",
          "name": "role",
          "type": "bytes32"
        },
        {
          "indexed": true,
          "internalType": "bytes32",
          "name": "previousAdminRole",
          "type": "bytes32"
        },
        {
          "indexed": true,
          "internalType": "bytes32",
          "name": "newAdminRole",
          "type": "bytes32"
        }
      ],
      "name": "RoleAdminChanged",
      "type": "event"
    },
    {
      "anonymous": false,
      "inputs": [
        {
          "indexed": true,
          "internalType": "bytes32",
          "name": "role",
          "type": "bytes32"
        },
        {
          "indexed": true,
          "internalType": "address",
          "name": "account",
          "type": "address"
        },
        {
          "indexed": true,
          "internalType": "address",
          "name": "sender",
          "type": "address"
        }
      ],
      "name": "RoleGranted",
      "type": "event"
    },
    {
      "anonymous": false,
      "inputs": [
        {
          "indexed": true,
          "internalType": "bytes32",
          "name": "role",
          "type": "bytes32"
        },
        {
          "indexed": true,
          "internalType": "address",
          "name": "account",
          "type": "address"
        },
        {
          "indexed": true,
          "internalType": "address",
          "name": "sender",
          "type": "address"
        }
      ],
      "name": "RoleRevoked",
      "type": "event"
    },
    {
      "anonymous": false,
      "inputs": [
        {
          "indexed": false,
          "internalType": "bytes32",
          "name": "submissionId",
          "type": "bytes32"
        }
      ],
      "name": "SubmissionApproved",
      "type": "event"
    },
    {
      "inputs": [],
      "name": "DEFAULT_ADMIN_ROLE",
      "outputs": [
        {
          "internalType": "bytes32",
          "name": "",
          "type": "bytes32"
        }
      ],
      "stateMutability": "view",
      "type": "function",
      "constant": true
    },
    {
      "inputs": [],
      "name": "ORACLE_ROLE",
      "outputs": [
        {
          "internalType": "bytes32",
          "name": "",
          "type": "bytes32"
        }
      ],
      "stateMutability": "view",
      "type": "function",
      "constant": true
    },
    {
      "inputs": [
        {
          "internalType": "bytes32",
          "name": "",
          "type": "bytes32"
        }
      ],
      "name": "getBurntInfo",
      "outputs": [
        {
          "internalType": "bool",
          "name": "confirmed",
          "type": "bool"
        },
        {
          "internalType": "uint256",
          "name": "confirmations",
          "type": "uint256"
        }
      ],
      "stateMutability": "view",
      "type": "function",
      "constant": true
    },
    {
      "inputs": [
        {
          "internalType": "bytes32",
          "name": "",
          "type": "bytes32"
        }
      ],
      "name": "getMintInfo",
      "outputs": [
        {
          "internalType": "bool",
          "name": "confirmed",
          "type": "bool"
        },
        {
          "internalType": "uint256",
          "name": "confirmations",
          "type": "uint256"
        }
      ],
      "stateMutability": "view",
      "type": "function",
      "constant": true
    },
    {
      "inputs": [
        {
          "internalType": "bytes32",
          "name": "role",
          "type": "bytes32"
        }
      ],
      "name": "getRoleAdmin",
      "outputs": [
        {
          "internalType": "bytes32",
          "name": "",
          "type": "bytes32"
        }
      ],
      "stateMutability": "view",
      "type": "function",
      "constant": true
    },
    {
      "inputs": [
        {
          "internalType": "bytes32",
          "name": "role",
          "type": "bytes32"
        },
        {
          "internalType": "address",
          "name": "account",
          "type": "address"
        }
      ],
      "name": "grantRole",
      "outputs": [],
      "stateMutability": "nonpayable",
      "type": "function"
    },
    {
      "inputs": [
        {
          "internalType": "bytes32",
          "name": "role",
          "type": "bytes32"
        },
        {
          "internalType": "address",
          "name": "account",
          "type": "address"
        }
      ],
      "name": "hasRole",
      "outputs": [
        {
          "internalType": "bool",
          "name": "",
          "type": "bool"
        }
      ],
      "stateMutability": "view",
      "type": "function",
      "constant": true
    },
    {
      "inputs": [
        {
          "internalType": "address",
          "name": "",
          "type": "address"
        }
      ],
      "name": "isOracle",
      "outputs": [
        {
          "internalType": "bool",
          "name": "",
          "type": "bool"
        }
      ],
      "stateMutability": "view",
      "type": "function",
      "constant": true
    },
    {
      "inputs": [],
      "name": "minConfirmations",
      "outputs": [
        {
          "internalType": "uint256",
          "name": "",
          "type": "uint256"
        }
      ],
      "stateMutability": "view",
      "type": "function",
      "constant": true
    },
    {
      "inputs": [
        {
          "internalType": "bytes32",
          "name": "role",
          "type": "bytes32"
        },
        {
          "internalType": "address",
          "name": "account",
          "type": "address"
        }
      ],
      "name": "renounceRole",
      "outputs": [],
      "stateMutability": "nonpayable",
      "type": "function"
    },
    {
      "inputs": [
        {
          "internalType": "bytes32",
          "name": "role",
          "type": "bytes32"
        },
        {
          "internalType": "address",
          "name": "account",
          "type": "address"
        }
      ],
      "name": "revokeRole",
      "outputs": [],
      "stateMutability": "nonpayable",
      "type": "function"
    },
    {
      "inputs": [
        {
          "internalType": "bytes4",
          "name": "interfaceId",
          "type": "bytes4"
        }
      ],
      "name": "supportsInterface",
      "outputs": [
        {
          "internalType": "bool",
          "name": "",
          "type": "bool"
        }
      ],
      "stateMutability": "view",
      "type": "function",
      "constant": true
    },
    {
      "inputs": [
        {
          "internalType": "uint256",
          "name": "",
          "type": "uint256"
        }
      ],
      "name": "utilityBytes",
      "outputs": [
        {
          "internalType": "bytes",
          "name": "",
          "type": "bytes"
        }
      ],
      "stateMutability": "view",
      "type": "function",
      "constant": true
    },
    {
      "inputs": [
        {
          "internalType": "bytes32",
          "name": "_mintId",
          "type": "bytes32"
        },
        {
          "internalType": "bytes[2][]",
          "name": "_trxData",
          "type": "bytes[2][]"
        }
      ],
      "name": "submitMint",
      "outputs": [
        {
          "internalType": "bool",
          "name": "",
          "type": "bool"
        }
      ],
      "stateMutability": "nonpayable",
      "type": "function"
    },
    {
      "inputs": [
        {
          "internalType": "bytes32",
          "name": "_burntId",
          "type": "bytes32"
        },
        {
          "internalType": "bytes[2][]",
          "name": "_trxData",
          "type": "bytes[2][]"
        }
      ],
      "name": "submitBurn",
      "outputs": [
        {
          "internalType": "bool",
          "name": "",
          "type": "bool"
        }
      ],
      "stateMutability": "nonpayable",
      "type": "function"
    },
    {
      "inputs": [
        {
          "internalType": "uint256",
          "name": "_minConfirmations",
          "type": "uint256"
        }
      ],
      "name": "setMinConfirmations",
      "outputs": [],
      "stateMutability": "nonpayable",
      "type": "function"
    },
    {
      "inputs": [
        {
          "internalType": "address",
          "name": "_oracle",
          "type": "address"
        }
      ],
      "name": "addOracle",
      "outputs": [],
      "stateMutability": "nonpayable",
      "type": "function"
    },
    {
      "inputs": [
        {
          "internalType": "address",
          "name": "_oracle",
          "type": "address"
        }
      ],
      "name": "removeOracle",
      "outputs": [],
      "stateMutability": "nonpayable",
      "type": "function"
    },
    {
      "inputs": [
        {
          "internalType": "bytes32",
          "name": "_mintId",
          "type": "bytes32"
        }
      ],
      "name": "isMintConfirmed",
      "outputs": [
        {
          "internalType": "bool",
          "name": "",
          "type": "bool"
        }
      ],
      "stateMutability": "view",
      "type": "function",
      "constant": true
    },
    {
      "inputs": [
        {
          "internalType": "bytes32",
          "name": "_burntId",
          "type": "bytes32"
        }
      ],
      "name": "isBurntConfirmed",
      "outputs": [
        {
          "internalType": "bool",
          "name": "",
          "type": "bool"
        }
      ],
      "stateMutability": "view",
      "type": "function",
      "constant": true
    },
    {
      "inputs": [
        {
          "internalType": "bytes",
          "name": "_payloadPart",
          "type": "bytes"
        },
        {
          "internalType": "bytes",
          "name": "_method",
          "type": "bytes"
        },
        {
          "internalType": "bytes32",
          "name": "_submissionId",
          "type": "bytes32"
        }
      ],
      "name": "getUnsignedTrx",
      "outputs": [
        {
          "internalType": "bytes",
          "name": "",
          "type": "bytes"
        }
      ],
      "stateMutability": "view",
      "type": "function",
      "constant": true
    },
    {
      "inputs": [
        {
          "internalType": "bytes32",
          "name": "_msgHash",
          "type": "bytes32"
        },
        {
          "internalType": "bytes",
          "name": "_signature",
          "type": "bytes"
        }
      ],
      "name": "recoverSigner",
      "outputs": [
        {
          "internalType": "address",
          "name": "",
          "type": "address"
        }
      ],
      "stateMutability": "pure",
      "type": "function",
      "constant": true
    },
    {
      "inputs": [
        {
          "internalType": "bytes",
          "name": "_signature",
          "type": "bytes"
        }
      ],
      "name": "splitSignature",
      "outputs": [
        {
          "internalType": "bytes32",
          "name": "r",
          "type": "bytes32"
        },
        {
          "internalType": "bytes32",
          "name": "s",
          "type": "bytes32"
        },
        {
          "internalType": "uint8",
          "name": "v",
          "type": "uint8"
        }
      ],
      "stateMutability": "pure",
      "type": "function",
      "constant": true
    }
  ],
  "bytecode": "0x60806040523480156200001157600080fd5b506040516200182b3803806200182b83398101604081905262000034916200026c565b600182905562000047600282816200010d565b50620000556000336200005d565b5050620003fa565b6200006982826200006d565b5050565b6000828152602081815260408083206001600160a01b038516845290915290205460ff1662000069576000828152602081815260408083206001600160a01b03851684529091529020805460ff19166001179055620000c93390565b6001600160a01b0316816001600160a01b0316837f2f8788117e7eff1d82e926ec794901d17c78024a50270940304540a733656f0d60405160405180910390a45050565b826002810192821562000152579160200282015b828111156200015257825180516200014191849160209091019062000164565b509160200191906001019062000121565b5062000160929150620001ef565b5090565b8280546200017290620003a7565b90600052602060002090601f016020900481019282620001965760008555620001e1565b82601f10620001b157805160ff1916838001178555620001e1565b82800160010185558215620001e1579182015b82811115620001e1578251825591602001919060010190620001c4565b506200016092915062000210565b808211156200016057600062000206828262000227565b50600101620001ef565b5b8082111562000160576000815560010162000211565b5080546200023590620003a7565b6000825580601f1062000249575062000269565b601f01602090049060005260206000209081019062000269919062000210565b50565b600080604083850312156200027f578182fd5b8251602080850151919350906001600160401b0380821115620002a0578384fd5b8186019150601f8781840112620002b5578485fd5b620002c1604062000374565b8084875b60028110156200036357815187018c86820112620002e157898afd5b805187811115620002f657620002f6620003e4565b62000309818801601f19168b0162000374565b8181528e8b8385010111156200031d578b8cfd5b8b5b828110156200033c578381018c01518282018d01528b016200031f565b828111156200034d578c8c84840101525b50865250509287019290870190600101620002c5565b50979a909950975050505050505050565b604051601f8201601f191681016001600160401b03811182821017156200039f576200039f620003e4565b604052919050565b600281046001821680620003bc57607f821691505b60208210811415620003de57634e487b7160e01b600052602260045260246000fd5b50919050565b634e487b7160e01b600052604160045260246000fd5b611421806200040a6000396000f3fe608060405234801561001057600080fd5b506004361061014d5760003560e01c806397aba7f9116100c3578063b7827f8a1161007c578063b7827f8a1461037f578063d282165514610392578063d547741f146103a5578063df5dd1a5146103b8578063e7c4393e146103cb578063fdc85fc4146103d45761014d565b806397aba7f9146102b2578063a1e5c7b1146102dd578063a217fddf14610300578063a61ece1814610308578063a7bb58031461032b578063a97e5c931461035c5761014d565b80633168f504116101155780633168f504146101f557806336568abe1461023957806344914e461461024c5780634a41e6d914610279578063578d83771461028c57806391d148541461029f5761014d565b806301ffc9a71461015257806307e2cea51461017a57806314d218571461019d578063248a9ca3146101bd5780632f2ff15d146101e0575b600080fd5b6101656101603660046111bb565b6103e7565b60405190151581526020015b60405180910390f35b61018f6000805160206113cc83398151915281565b604051908152602001610171565b6101b06101ab366004611041565b610420565b6040516101719190611280565b61018f6101cb366004611041565b60009081526020819052604090206001015490565b6101f36101ee366004611059565b6104c0565b005b610222610203366004611041565b6006602052600090815260409020805460019091015460ff9091169082565b604080519215158352602083019190915201610171565b6101f3610247366004611059565b610554565b61022261025a366004611041565b6005602052600090815260409020805460019091015460ff9091169082565b610165610287366004611084565b6105ce565b61016561029a366004611084565b610876565b6101656102ad366004611059565b610ae0565b6102c56102c0366004611176565b610b09565b6040516001600160a01b039091168152602001610171565b6101656102eb366004611041565b60009081526005602052604090205460ff1690565b61018f600081565b610165610316366004611041565b60009081526006602052604090205460ff1690565b61033e6103393660046111e3565b610b88565b60408051938452602084019290925260ff1690820152606001610171565b61016561036a366004611020565b60046020526000908152604090205460ff1681565b6101b061038d366004611216565b610c0d565b6101f36103a0366004611041565b610ce7565b6101f36103b3366004611059565b610d13565b6101f36103c6366004611020565b610d93565b61018f60015481565b6101f36103e2366004611020565b610df6565b60006001600160e01b03198216637965db0b60e01b148061041857506301ffc9a760e01b6001600160e01b03198316145b90505b919050565b6002816002811061043057600080fd5b01805490915061043f90611349565b80601f016020809104026020016040519081016040528092919081815260200182805461046b90611349565b80156104b85780601f1061048d576101008083540402835291602001916104b8565b820191906000526020600020905b81548152906001019060200180831161049b57829003601f168201915b505050505081565b6000828152602081905260409020600101546104dd905b336102ad565b6105465760405162461bcd60e51b815260206004820152602f60248201527f416363657373436f6e74726f6c3a2073656e646572206d75737420626520616e60448201526e0818591b5a5b881d1bc819dc985b9d608a1b60648201526084015b60405180910390fd5b6105508282610e38565b5050565b6001600160a01b03811633146105c45760405162461bcd60e51b815260206004820152602f60248201527f416363657373436f6e74726f6c3a2063616e206f6e6c792072656e6f756e636560448201526e103937b632b9903337b91039b2b63360891b606482015260840161053d565b6105508282610ebc565b6000828152600660205260408120815b835181101561086a57600061065c85838151811061060c57634e487b7160e01b600052603260045260246000fd5b602002602001015160006002811061063457634e487b7160e01b600052603260045260246000fd5b6020020151604051806040016040528060048152602001630c4b56cd60e41b81525088610c0d565b905060006106bd828051906020012087858151811061068b57634e487b7160e01b600052603260045260246000fd5b60200260200101516001600281106106b357634e487b7160e01b600052603260045260246000fd5b6020020151610b09565b90506106d76000805160206113cc83398151915282610ae0565b61071a5760405162461bcd60e51b81526020600482015260146024820152736f6e6c794f7261636c653a2062616420726f6c6560601b604482015260640161053d565b6001600160a01b038116600090815260028501602052604090205460ff16156107815760405162461bcd60e51b81526020600482015260196024820152787375626d69743a207375626d697474656420616c726561647960381b604482015260640161053d565b60018460010160008282546107969190611331565b90915550506001600160a01b03811660009081526002850160205260409020805460ff191660019081179091558054908501541061081457835460ff191660011784556040517f2a6b4960c287d4d53a338f9c9a9f830f37e7b66e67a0a958f68be89a4eeb939d9061080b9089815260200190565b60405180910390a15b604080518881526001600160a01b03831660208201527fd4964a7cd99f5c1fa8f2420fb5e1d3bd26eadf16e2658cf2e29a67dfda38601e910160405180910390a15050808061086290611384565b9150506105de565b505460ff169392505050565b6000828152600560205260408120815b835181101561086a5760006109048583815181106108b457634e487b7160e01b600052603260045260246000fd5b60200260200101516000600281106108dc57634e487b7160e01b600052603260045260246000fd5b6020020151604051806040016040528060048152602001630b29b94360e01b81525088610c0d565b90506000610933828051906020012087858151811061068b57634e487b7160e01b600052603260045260246000fd5b905061094d6000805160206113cc83398151915282610ae0565b6109905760405162461bcd60e51b81526020600482015260146024820152736f6e6c794f7261636c653a2062616420726f6c6560601b604482015260640161053d565b6001600160a01b038116600090815260028501602052604090205460ff16156109f75760405162461bcd60e51b81526020600482015260196024820152787375626d69743a207375626d697474656420616c726561647960381b604482015260640161053d565b6001846001016000828254610a0c9190611331565b90915550506001600160a01b03811660009081526002850160205260409020805460ff1916600190811790915580549085015410610a8a57835460ff191660011784556040517f2a6b4960c287d4d53a338f9c9a9f830f37e7b66e67a0a958f68be89a4eeb939d90610a819089815260200190565b60405180910390a15b604080518881526001600160a01b03831660208201527fd4964a7cd99f5c1fa8f2420fb5e1d3bd26eadf16e2658cf2e29a67dfda38601e910160405180910390a150508080610ad890611384565b915050610886565b6000918252602082815260408084206001600160a01b0393909316845291905290205460ff1690565b600080600080610b1885610b88565b6040805160008152602081018083528b905260ff8316918101919091526060810184905260808101839052929550909350915060019060a0016020604051602081039080840390855afa158015610b73573d6000803e3d6000fd5b5050604051601f190151979650505050505050565b60008060008351604114610bef5760405162461bcd60e51b815260206004820152602860248201527f73706c69745369676e61747572653a20696e76616c6964207369676e617475726044820152670ca40d8cadccee8d60c31b606482015260840161053d565b50505060208101516040820151606090920151909260009190911a90565b6060610cdf610cd6610cb6610cb087600260005b018054610c2d90611349565b80601f0160208091040260200160405190810160405280929190818152602001828054610c5990611349565b8015610ca65780601f10610c7b57610100808354040283529160200191610ca6565b820191906000526020600020905b815481529060010190602001808311610c8957829003601f168201915b5050505050610f21565b86610f21565b604080516020810187905201604051602081830303815290604052610f21565b60026001610c21565b949350505050565b610cf2600033610ae0565b610d0e5760405162461bcd60e51b815260040161053d906112d3565b600155565b600082815260208190526040902060010154610d2e906104d7565b6105c45760405162461bcd60e51b815260206004820152603060248201527f416363657373436f6e74726f6c3a2073656e646572206d75737420626520616e60448201526f2061646d696e20746f207265766f6b6560801b606482015260840161053d565b610d9e600033610ae0565b610dba5760405162461bcd60e51b815260040161053d906112d3565b610dd26000805160206113cc833981519152826104c0565b6001600160a01b03166000908152600460205260409020805460ff19166001179055565b610e01600033610ae0565b610e1d5760405162461bcd60e51b815260040161053d906112d3565b610e356000805160206113cc83398151915282610d13565b50565b610e428282610ae0565b610550576000828152602081815260408083206001600160a01b03851684529091529020805460ff19166001179055610e783390565b6001600160a01b0316816001600160a01b0316837f2f8788117e7eff1d82e926ec794901d17c78024a50270940304540a733656f0d60405160405180910390a45050565b610ec68282610ae0565b15610550576000828152602081815260408083206001600160a01b0385168085529252808320805460ff1916905551339285917ff6391f5c32d9c69d2a47ea670b442974b53935d1edc7fd64eb21e047a839171b9190a45050565b6060806040519050835180825260208201818101602087015b81831015610f52578051835260209283019201610f3a565b50855184518101855292509050808201602086015b81831015610f7f578051835260209283019201610f67565b508651929092011591909101601f01601f191660405250905092915050565b80356001600160a01b038116811461041b57600080fd5b600082601f830112610fc5578081fd5b813567ffffffffffffffff811115610fdf57610fdf6113b5565b610ff2601f8201601f1916602001611300565b818152846020838601011115611006578283fd5b816020850160208301379081016020019190915292915050565b600060208284031215611031578081fd5b61103a82610f9e565b9392505050565b600060208284031215611052578081fd5b5035919050565b6000806040838503121561106b578081fd5b8235915061107b60208401610f9e565b90509250929050565b60008060408385031215611096578182fd5b82359150602083013567ffffffffffffffff808211156110b4578283fd5b818501915085601f8301126110c7578283fd5b8135818111156110d9576110d96113b5565b6110e7602080830201611300565b818152602080820193508401855b8381101561116757813586018a603f82011261110f578788fd5b6111196040611300565b80602083018a5b600281101561114e576111398f60208435880101610fb5565b84526020938401939190910190600101611120565b50508752505060209485019491909101906001016110f5565b50959890975095505050505050565b60008060408385031215611188578182fd5b82359150602083013567ffffffffffffffff8111156111a5578182fd5b6111b185828601610fb5565b9150509250929050565b6000602082840312156111cc578081fd5b81356001600160e01b03198116811461103a578182fd5b6000602082840312156111f4578081fd5b813567ffffffffffffffff81111561120a578182fd5b610cdf84828501610fb5565b60008060006060848603121561122a578081fd5b833567ffffffffffffffff80821115611241578283fd5b61124d87838801610fb5565b94506020860135915080821115611262578283fd5b5061126f86828701610fb5565b925050604084013590509250925092565b6000602080835283518082850152825b818110156112ac57858101830151858201604001528201611290565b818111156112bd5783604083870101525b50601f01601f1916929092016040019392505050565b6020808252601390820152726f6e6c7941646d696e3a2062616420726f6c6560681b604082015260600190565b604051601f8201601f1916810167ffffffffffffffff81118282101715611329576113296113b5565b604052919050565b600082198211156113445761134461139f565b500190565b60028104600182168061135d57607f821691505b6020821081141561137e57634e487b7160e01b600052602260045260246000fd5b50919050565b60006000198214156113985761139861139f565b5060010190565b634e487b7160e01b600052601160045260246000fd5b634e487b7160e01b600052604160045260246000fdfe68e79a7bf1e0bc45d0a330c573bc367f9cf464fd326078812f301165fbda4ef1a26469706673582212205d37d645b6fd4d291ee217d93c77b521c845ae9b5968b1be1995288603d6d64764736f6c63430008020033",
  "immutableReferences": {},
  "source": "// SPDX-License-Identifier: MIT\npragma solidity ^0.8.2;\n\nimport \"@openzeppelin/contracts/access/AccessControl.sol\";\nimport \"@openzeppelin/contracts/token/ERC20/IERC20.sol\";\nimport \"../interfaces/IWhiteLightAggregator.sol\";\n\ncontract WhiteLightAggregator is AccessControl, IWhiteLightAggregator {\n    bytes32 public constant ORACLE_ROLE = keccak256(\"ORACLE_ROLE\"); // role allowed to submit the data\n    uint256 public minConfirmations; // minimal required confimations\n    bytes[2] public utilityBytes; // the part of the transaction payload; [\"[[aggregatorAddr]]80a4\",\"388080\"]\n\n    mapping(address => bool) public isOracle; // oracle address => oracle details\n\n    modifier onlyAdmin {\n        require(hasRole(DEFAULT_ADMIN_ROLE, msg.sender), \"onlyAdmin: bad role\");\n        _;\n    }\n\n    struct SubmissionInfo {\n        bool confirmed; // whether is confirmed\n        uint256 confirmations; // received confirmations count\n        mapping(address => bool) hasVerified; // verifier => has already voted\n    }\n\n    mapping(bytes32 => SubmissionInfo) public getMintInfo; // mint id => submission info\n    mapping(bytes32 => SubmissionInfo) public getBurntInfo; // burnt id => submission info\n\n    event Confirmed(bytes32 submissionId, address operator); // emitted once the submission is confirmed\n    event SubmissionApproved(bytes32 submissionId); // emitted once the submission is confirmed\n\n    /// @dev Constructor that initializes the most important configurations.\n    /// @param _minConfirmations Minimal required confirmations.\n    /// @param _utilityBytes Utility bytes to be inserted into the transaction payload.\n    constructor(uint256 _minConfirmations, bytes[2] memory _utilityBytes) {\n        minConfirmations = _minConfirmations;\n        utilityBytes = _utilityBytes;\n        _setupRole(DEFAULT_ADMIN_ROLE, msg.sender);\n    }\n\n    /// @dev Confirms the mint request.\n    /// @param _mintId Submission identifier.\n    /// @param _trxData Array of transactions by oracles of 2 elements - payload up to the receiver address and the signature bytes.\n    function submitMint(bytes32 _mintId, bytes[2][] memory _trxData)\n        external\n        override\n        returns (bool)\n    {\n        SubmissionInfo storage mintInfo = getMintInfo[_mintId];\n        for (uint256 i = 0; i < _trxData.length; i++) {\n            bytes memory unsignedTrx =\n                getUnsignedTrx(_trxData[i][0], hex\"0b29b943\", _mintId);\n            address oracle =\n                recoverSigner(keccak256(unsignedTrx), _trxData[i][1]);\n            require(hasRole(ORACLE_ROLE, oracle), \"onlyOracle: bad role\");\n            require(!mintInfo.hasVerified[oracle], \"submit: submitted already\");\n            mintInfo.confirmations += 1;\n            mintInfo.hasVerified[oracle] = true;\n            if (mintInfo.confirmations >= minConfirmations) {\n                mintInfo.confirmed = true;\n                emit SubmissionApproved(_mintId);\n            }\n            emit Confirmed(_mintId, oracle);\n        }\n        return mintInfo.confirmed;\n    }\n\n    /// @dev Confirms the burnnt request.\n    /// @param _burntId Submission identifier.\n    /// @param _trxData Array of transactions by oracles of 2 elements - payload up to the receiver address and the signature bytes.\n    function submitBurn(bytes32 _burntId, bytes[2][] memory _trxData)\n        external\n        override\n        returns (bool)\n    {\n        SubmissionInfo storage burnInfo = getBurntInfo[_burntId];\n        for (uint256 i = 0; i < _trxData.length; i++) {\n            bytes memory unsignedTrx =\n                getUnsignedTrx(_trxData[i][0], hex\"c4b56cd0\", _burntId);\n            address oracle =\n                recoverSigner(keccak256(unsignedTrx), _trxData[i][1]);\n            require(hasRole(ORACLE_ROLE, oracle), \"onlyOracle: bad role\");\n            require(!burnInfo.hasVerified[oracle], \"submit: submitted already\");\n            burnInfo.confirmations += 1;\n            burnInfo.hasVerified[oracle] = true;\n            if (burnInfo.confirmations >= minConfirmations) {\n                burnInfo.confirmed = true;\n                emit SubmissionApproved(_burntId);\n            }\n            emit Confirmed(_burntId, oracle);\n        }\n        return burnInfo.confirmed;\n    }\n\n    /// @dev Sets minimal required confirmations.\n    /// @param _minConfirmations Minimal required confirmations.\n    function setMinConfirmations(uint256 _minConfirmations) external onlyAdmin {\n        minConfirmations = _minConfirmations;\n    }\n\n    /// @dev Add new oracle.\n    /// @param _oracle Oracle address.\n    function addOracle(address _oracle) external onlyAdmin {\n        grantRole(ORACLE_ROLE, _oracle);\n        isOracle[_oracle] = true;\n    }\n\n    /// @dev Remove oracle.\n    /// @param _oracle Oracle address.\n    function removeOracle(address _oracle) external onlyAdmin {\n        revokeRole(ORACLE_ROLE, _oracle);\n    }\n\n    /// @dev Returns whether mint request is confirmed.\n    /// @param _mintId Submission identifier.\n    /// @return Whether mint request is confirmed.\n    function isMintConfirmed(bytes32 _mintId)\n        external\n        view\n        override\n        returns (bool)\n    {\n        return getMintInfo[_mintId].confirmed;\n    }\n\n    /// @dev Returns whether burnnt request is confirmed.\n    /// @param _burntId Submission identifier.\n    /// @return Whether burnnt request is confirmed.\n    function isBurntConfirmed(bytes32 _burntId)\n        external\n        view\n        override\n        returns (bool)\n    {\n        return getBurntInfo[_burntId].confirmed;\n    }\n\n    /// @dev Prepares raw transacton that was signed by the oracle.\n    /// @param _payloadPart First part of the transaction; rlp encoded (nonce + gasprice + startgas) + length of the next rlp encoded element (recipient).\n    /// @param _method The function identifier called by the oracle for the confirmation.\n    /// @param _submissionId Submission identifier.\n    function getUnsignedTrx(\n        bytes memory _payloadPart,\n        bytes memory _method,\n        bytes32 _submissionId\n    ) public view returns (bytes memory) {\n        return\n            concat(\n                concat(\n                    concat(concat(_payloadPart, utilityBytes[0]), _method),\n                    abi.encodePacked(_submissionId)\n                ),\n                utilityBytes[1]\n            );\n    }\n\n    /// @dev Recovers the signer of the msg.\n    /// @param _msgHash The raw transaction hash.\n    /// @param _signature Signature bytes in format r+s+v.\n    function recoverSigner(bytes32 _msgHash, bytes memory _signature)\n        public\n        pure\n        returns (address)\n    {\n        (bytes32 r, bytes32 s, uint8 v) = splitSignature(_signature);\n\n        return ecrecover(_msgHash, v, r, s);\n    }\n\n    /// @dev Splits signature bytes to r,s,v components.\n    /// @param _signature Signature bytes in format r+s+v.\n    function splitSignature(bytes memory _signature)\n        public\n        pure\n        returns (\n            bytes32 r,\n            bytes32 s,\n            uint8 v\n        )\n    {\n        require(\n            _signature.length == 65,\n            \"splitSignature: invalid signature length\"\n        );\n\n        assembly {\n            r := mload(add(_signature, 32))\n            s := mload(add(_signature, 64))\n            v := byte(0, mload(add(_signature, 96)))\n        }\n    }\n\n    /// @dev Concats arbitrary bytes.\n    /// @param _preBytes First byte array.\n    /// @param _postBytes Second byte array.\n    function concat(bytes memory _preBytes, bytes memory _postBytes)\n        internal\n        pure\n        returns (bytes memory)\n    {\n        bytes memory tempBytes;\n\n        assembly {\n            tempBytes := mload(0x40)\n\n            let length := mload(_preBytes)\n            mstore(tempBytes, length)\n            let mc := add(tempBytes, 0x20)\n            let end := add(mc, length)\n\n            for {\n                let cc := add(_preBytes, 0x20)\n            } lt(mc, end) {\n                mc := add(mc, 0x20)\n                cc := add(cc, 0x20)\n            } {\n                mstore(mc, mload(cc))\n            }\n\n            length := mload(_postBytes)\n            mstore(tempBytes, add(length, mload(tempBytes)))\n            mc := end\n            end := add(mc, length)\n\n            for {\n                let cc := add(_postBytes, 0x20)\n            } lt(mc, end) {\n                mc := add(mc, 0x20)\n                cc := add(cc, 0x20)\n            } {\n                mstore(mc, mload(cc))\n            }\n            mstore(\n                0x40,\n                and(\n                    add(add(end, iszero(add(length, mload(_preBytes)))), 31),\n                    not(31)\n                )\n            )\n        }\n\n        return tempBytes;\n    }\n}\n",
  "sourcePath": "/Users/kstasi/Documents/side/debridge-contracts/contracts/chainlink/WhiteLightAggregator.sol",
  "compiler": {
    "name": "solc",
    "version": "0.8.2+commit.661d1103.Emscripten.clang"
  },
  "schemaVersion": "3.3.4",
  "updatedAt": "2021-04-15T14:11:56.750Z",
  "networkType": "ethereum",
  "devdoc": {
    "kind": "dev",
    "methods": {
      "addOracle(address)": {
        "details": "Add new oracle.",
        "params": {
          "_oracle": "Oracle address."
        }
      },
      "constructor": {
        "details": "Constructor that initializes the most important configurations.",
        "params": {
          "_minConfirmations": "Minimal required confirmations.",
          "_utilityBytes": "Utility bytes to be inserted into the transaction payload."
        }
      },
      "getRoleAdmin(bytes32)": {
        "details": "Returns the admin role that controls `role`. See {grantRole} and {revokeRole}. To change a role's admin, use {_setRoleAdmin}."
      },
      "getUnsignedTrx(bytes,bytes,bytes32)": {
        "details": "Prepares raw transacton that was signed by the oracle.",
        "params": {
          "_method": "The function identifier called by the oracle for the confirmation.",
          "_payloadPart": "First part of the transaction; rlp encoded (nonce + gasprice + startgas) + length of the next rlp encoded element (recipient).",
          "_submissionId": "Submission identifier."
        }
      },
      "grantRole(bytes32,address)": {
        "details": "Grants `role` to `account`. If `account` had not been already granted `role`, emits a {RoleGranted} event. Requirements: - the caller must have ``role``'s admin role."
      },
      "hasRole(bytes32,address)": {
        "details": "Returns `true` if `account` has been granted `role`."
      },
      "isBurntConfirmed(bytes32)": {
        "details": "Returns whether burnnt request is confirmed.",
        "params": {
          "_burntId": "Submission identifier."
        },
        "returns": {
          "_0": "Whether burnnt request is confirmed."
        }
      },
      "isMintConfirmed(bytes32)": {
        "details": "Returns whether mint request is confirmed.",
        "params": {
          "_mintId": "Submission identifier."
        },
        "returns": {
          "_0": "Whether mint request is confirmed."
        }
      },
      "recoverSigner(bytes32,bytes)": {
        "details": "Recovers the signer of the msg.",
        "params": {
          "_msgHash": "The raw transaction hash.",
          "_signature": "Signature bytes in format r+s+v."
        }
      },
      "removeOracle(address)": {
        "details": "Remove oracle.",
        "params": {
          "_oracle": "Oracle address."
        }
      },
      "renounceRole(bytes32,address)": {
        "details": "Revokes `role` from the calling account. Roles are often managed via {grantRole} and {revokeRole}: this function's purpose is to provide a mechanism for accounts to lose their privileges if they are compromised (such as when a trusted device is misplaced). If the calling account had been granted `role`, emits a {RoleRevoked} event. Requirements: - the caller must be `account`."
      },
      "revokeRole(bytes32,address)": {
        "details": "Revokes `role` from `account`. If `account` had been granted `role`, emits a {RoleRevoked} event. Requirements: - the caller must have ``role``'s admin role."
      },
      "setMinConfirmations(uint256)": {
        "details": "Sets minimal required confirmations.",
        "params": {
          "_minConfirmations": "Minimal required confirmations."
        }
      },
      "splitSignature(bytes)": {
        "details": "Splits signature bytes to r,s,v components.",
        "params": {
          "_signature": "Signature bytes in format r+s+v."
        }
      },
      "submitBurn(bytes32,bytes[2][])": {
        "details": "Confirms the burnnt request.",
        "params": {
          "_burntId": "Submission identifier.",
          "_trxData": "Array of transactions by oracles of 2 elements - payload up to the receiver address and the signature bytes."
        }
      },
      "submitMint(bytes32,bytes[2][])": {
        "details": "Confirms the mint request.",
        "params": {
          "_mintId": "Submission identifier.",
          "_trxData": "Array of transactions by oracles of 2 elements - payload up to the receiver address and the signature bytes."
        }
      },
      "supportsInterface(bytes4)": {
        "details": "See {IERC165-supportsInterface}."
      }
    },
    "version": 1
  },
  "userdoc": {
    "kind": "user",
    "methods": {},
    "version": 1
  }
}