{
  "contractName": "WhiteAggregator",
  "abi": [
    {
      "inputs": [
        {
          "internalType": "uint256",
          "name": "_minConfirmations",
          "type": "uint256"
        },
        {
          "internalType": "uint128",
          "name": "_payment",
          "type": "uint128"
        },
        {
          "internalType": "contract IERC20",
          "name": "_link",
          "type": "address"
        }
      ],
      "stateMutability": "nonpayable",
      "type": "constructor"
    },
    {
      "anonymous": false,
      "inputs": [
        {
          "indexed": false,
          "internalType": "bytes32",
          "name": "submissionId",
          "type": "bytes32"
        },
        {
          "indexed": false,
          "internalType": "address",
          "name": "operator",
          "type": "address"
        }
      ],
      "name": "Confirmed",
      "type": "event"
    },
    {
      "anonymous": false,
      "inputs": [
        {
          "indexed": true,
          "internalType": "bytes32",
          "name": "role",
          "type": "bytes32"
        },
        {
          "indexed": true,
          "internalType": "bytes32",
          "name": "previousAdminRole",
          "type": "bytes32"
        },
        {
          "indexed": true,
          "internalType": "bytes32",
          "name": "newAdminRole",
          "type": "bytes32"
        }
      ],
      "name": "RoleAdminChanged",
      "type": "event"
    },
    {
      "anonymous": false,
      "inputs": [
        {
          "indexed": true,
          "internalType": "bytes32",
          "name": "role",
          "type": "bytes32"
        },
        {
          "indexed": true,
          "internalType": "address",
          "name": "account",
          "type": "address"
        },
        {
          "indexed": true,
          "internalType": "address",
          "name": "sender",
          "type": "address"
        }
      ],
      "name": "RoleGranted",
      "type": "event"
    },
    {
      "anonymous": false,
      "inputs": [
        {
          "indexed": true,
          "internalType": "bytes32",
          "name": "role",
          "type": "bytes32"
        },
        {
          "indexed": true,
          "internalType": "address",
          "name": "account",
          "type": "address"
        },
        {
          "indexed": true,
          "internalType": "address",
          "name": "sender",
          "type": "address"
        }
      ],
      "name": "RoleRevoked",
      "type": "event"
    },
    {
      "inputs": [],
      "name": "DEFAULT_ADMIN_ROLE",
      "outputs": [
        {
          "internalType": "bytes32",
          "name": "",
          "type": "bytes32"
        }
      ],
      "stateMutability": "view",
      "type": "function",
      "constant": true
    },
    {
      "inputs": [],
      "name": "ORACLE_ROLE",
      "outputs": [
        {
          "internalType": "bytes32",
          "name": "",
          "type": "bytes32"
        }
      ],
      "stateMutability": "view",
      "type": "function",
      "constant": true
    },
    {
      "inputs": [
        {
          "internalType": "address",
          "name": "_oracle",
          "type": "address"
        },
        {
          "internalType": "address",
          "name": "_admin",
          "type": "address"
        }
      ],
      "name": "addOracle",
      "outputs": [],
      "stateMutability": "nonpayable",
      "type": "function"
    },
    {
      "inputs": [],
      "name": "allocatedFunds",
      "outputs": [
        {
          "internalType": "uint256",
          "name": "",
          "type": "uint256"
        }
      ],
      "stateMutability": "view",
      "type": "function",
      "constant": true
    },
    {
      "inputs": [],
      "name": "availableFunds",
      "outputs": [
        {
          "internalType": "uint256",
          "name": "",
          "type": "uint256"
        }
      ],
      "stateMutability": "view",
      "type": "function",
      "constant": true
    },
    {
      "inputs": [
        {
          "internalType": "bytes32",
          "name": "",
          "type": "bytes32"
        }
      ],
      "name": "getBurntInfo",
      "outputs": [
        {
          "internalType": "bool",
          "name": "confirmed",
          "type": "bool"
        },
        {
          "internalType": "uint256",
          "name": "confirmations",
          "type": "uint256"
        }
      ],
      "stateMutability": "view",
      "type": "function",
      "constant": true
    },
    {
      "inputs": [
        {
          "internalType": "bytes32",
          "name": "",
          "type": "bytes32"
        }
      ],
      "name": "getMintInfo",
      "outputs": [
        {
          "internalType": "bool",
          "name": "confirmed",
          "type": "bool"
        },
        {
          "internalType": "uint256",
          "name": "confirmations",
          "type": "uint256"
        }
      ],
      "stateMutability": "view",
      "type": "function",
      "constant": true
    },
    {
      "inputs": [
        {
          "internalType": "address",
          "name": "",
          "type": "address"
        }
      ],
      "name": "getOracleInfo",
      "outputs": [
        {
          "internalType": "uint256",
          "name": "withdrawable",
          "type": "uint256"
        },
        {
          "internalType": "address",
          "name": "admin",
          "type": "address"
        }
      ],
      "stateMutability": "view",
      "type": "function",
      "constant": true
    },
    {
      "inputs": [
        {
          "internalType": "bytes32",
          "name": "role",
          "type": "bytes32"
        }
      ],
      "name": "getRoleAdmin",
      "outputs": [
        {
          "internalType": "bytes32",
          "name": "",
          "type": "bytes32"
        }
      ],
      "stateMutability": "view",
      "type": "function",
      "constant": true
    },
    {
      "inputs": [
        {
          "internalType": "bytes32",
          "name": "role",
          "type": "bytes32"
        },
        {
          "internalType": "address",
          "name": "account",
          "type": "address"
        }
      ],
      "name": "grantRole",
      "outputs": [],
      "stateMutability": "nonpayable",
      "type": "function"
    },
    {
      "inputs": [
        {
          "internalType": "bytes32",
          "name": "role",
          "type": "bytes32"
        },
        {
          "internalType": "address",
          "name": "account",
          "type": "address"
        }
      ],
      "name": "hasRole",
      "outputs": [
        {
          "internalType": "bool",
          "name": "",
          "type": "bool"
        }
      ],
      "stateMutability": "view",
      "type": "function",
      "constant": true
    },
    {
      "inputs": [],
      "name": "link",
      "outputs": [
        {
          "internalType": "contract IERC20",
          "name": "",
          "type": "address"
        }
      ],
      "stateMutability": "view",
      "type": "function",
      "constant": true
    },
    {
      "inputs": [],
      "name": "minConfirmations",
      "outputs": [
        {
          "internalType": "uint256",
          "name": "",
          "type": "uint256"
        }
      ],
      "stateMutability": "view",
      "type": "function",
      "constant": true
    },
    {
      "inputs": [
        {
          "internalType": "address",
          "name": "",
          "type": "address"
        },
        {
          "internalType": "uint256",
          "name": "",
          "type": "uint256"
        },
        {
          "internalType": "bytes",
          "name": "_data",
          "type": "bytes"
        }
      ],
      "name": "onTokenTransfer",
      "outputs": [],
      "stateMutability": "nonpayable",
      "type": "function"
    },
    {
      "inputs": [],
      "name": "payment",
      "outputs": [
        {
          "internalType": "uint256",
          "name": "",
          "type": "uint256"
        }
      ],
      "stateMutability": "view",
      "type": "function",
      "constant": true
    },
    {
      "inputs": [
        {
          "internalType": "address",
          "name": "_oracle",
          "type": "address"
        }
      ],
      "name": "removeOracle",
      "outputs": [],
      "stateMutability": "nonpayable",
      "type": "function"
    },
    {
      "inputs": [
        {
          "internalType": "bytes32",
          "name": "role",
          "type": "bytes32"
        },
        {
          "internalType": "address",
          "name": "account",
          "type": "address"
        }
      ],
      "name": "renounceRole",
      "outputs": [],
      "stateMutability": "nonpayable",
      "type": "function"
    },
    {
      "inputs": [
        {
          "internalType": "bytes32",
          "name": "role",
          "type": "bytes32"
        },
        {
          "internalType": "address",
          "name": "account",
          "type": "address"
        }
      ],
      "name": "revokeRole",
      "outputs": [],
      "stateMutability": "nonpayable",
      "type": "function"
    },
    {
      "inputs": [
        {
          "internalType": "uint256",
          "name": "_minConfirmations",
          "type": "uint256"
        }
      ],
      "name": "setMinConfirmations",
      "outputs": [],
      "stateMutability": "nonpayable",
      "type": "function"
    },
    {
      "inputs": [
        {
          "internalType": "uint128",
          "name": "_payment",
          "type": "uint128"
        }
      ],
      "name": "setPayment",
      "outputs": [],
      "stateMutability": "nonpayable",
      "type": "function"
    },
    {
      "inputs": [
        {
          "internalType": "bytes4",
          "name": "interfaceId",
          "type": "bytes4"
        }
      ],
      "name": "supportsInterface",
      "outputs": [
        {
          "internalType": "bool",
          "name": "",
          "type": "bool"
        }
      ],
      "stateMutability": "view",
      "type": "function",
      "constant": true
    },
    {
      "inputs": [],
      "name": "updateAvailableFunds",
      "outputs": [],
      "stateMutability": "nonpayable",
      "type": "function"
    },
    {
      "inputs": [
        {
          "internalType": "address",
          "name": "_recipient",
          "type": "address"
        },
        {
          "internalType": "uint256",
          "name": "_amount",
          "type": "uint256"
        }
      ],
      "name": "withdrawFunds",
      "outputs": [],
      "stateMutability": "nonpayable",
      "type": "function"
    },
    {
      "inputs": [
        {
          "internalType": "address",
          "name": "_oracle",
          "type": "address"
        },
        {
          "internalType": "address",
          "name": "_recipient",
          "type": "address"
        },
        {
          "internalType": "uint256",
          "name": "_amount",
          "type": "uint256"
        }
      ],
      "name": "withdrawPayment",
      "outputs": [],
      "stateMutability": "nonpayable",
      "type": "function"
    },
    {
      "inputs": [
        {
          "internalType": "address",
          "name": "_oracle",
          "type": "address"
        }
      ],
      "name": "withdrawablePayment",
      "outputs": [
        {
          "internalType": "uint256",
          "name": "",
          "type": "uint256"
        }
      ],
      "stateMutability": "view",
      "type": "function",
      "constant": true
    },
    {
      "inputs": [
        {
          "internalType": "bytes32",
          "name": "_mintId",
          "type": "bytes32"
        }
      ],
      "name": "submitMint",
      "outputs": [],
      "stateMutability": "nonpayable",
      "type": "function"
    },
    {
      "inputs": [
        {
          "internalType": "bytes32",
          "name": "_burntId",
          "type": "bytes32"
        }
      ],
      "name": "submitBurn",
      "outputs": [],
      "stateMutability": "nonpayable",
      "type": "function"
    },
    {
      "inputs": [
        {
          "internalType": "bytes32",
          "name": "_mintId",
          "type": "bytes32"
        }
      ],
      "name": "isMintConfirmed",
      "outputs": [
        {
          "internalType": "bool",
          "name": "",
          "type": "bool"
        }
      ],
      "stateMutability": "view",
      "type": "function",
      "constant": true
    },
    {
      "inputs": [
        {
          "internalType": "bytes32",
          "name": "_burntId",
          "type": "bytes32"
        }
      ],
      "name": "isBurntConfirmed",
      "outputs": [
        {
          "internalType": "bool",
          "name": "",
          "type": "bool"
        }
      ],
      "stateMutability": "view",
      "type": "function",
      "constant": true
    }
  ],
  "bytecode": "0x60806040523480156200001157600080fd5b50604051620017ca380380620017ca833981016040819052620000349162000159565b60018390556001600160801b038216600455600580546001600160a01b0319166001600160a01b03831617905582828262000071600033620000a9565b6200009d7f68e79a7bf1e0bc45d0a330c573bc367f9cf464fd326078812f301165fbda4ef133620000a9565b505050505050620001b5565b620000b58282620000b9565b5050565b6000828152602081815260408083206001600160a01b038516845290915290205460ff16620000b5576000828152602081815260408083206001600160a01b03851684529091529020805460ff19166001179055620001153390565b6001600160a01b0316816001600160a01b0316837f2f8788117e7eff1d82e926ec794901d17c78024a50270940304540a733656f0d60405160405180910390a45050565b6000806000606084860312156200016e578283fd5b835160208501519093506001600160801b03811681146200018d578283fd5b60408501519092506001600160a01b0381168114620001aa578182fd5b809150509250925092565b61160580620001c56000396000f3fe608060405234801561001057600080fd5b50600436106101cf5760003560e01c806391d1485411610104578063c4b56cd0116100a2578063e2e4031711610071578063e2e40317146104a5578063e7c4393e146104ce578063f0ca4adb146104d7578063fdc85fc4146104ea576101cf565b8063c4b56cd014610463578063d282165514610476578063d4cc54e414610489578063d547741f14610492576101cf565b8063a4c0ed36116100de578063a4c0ed36146103cd578063a61ece18146103e0578063bfdb6b0414610403578063c107532914610450576101cf565b806391d148541461036b578063a1e5c7b1146103a2578063a217fddf146103c5576101cf565b806336568abe1161017157806344914e461161014b57806344914e461461031a57806346fcff4c146103475780634f8fc3b51461035057806382313e5014610358576101cf565b806336568abe146102eb5780633d3d7714146102fe57806342f6487a14610311576101cf565b80631c4695f4116101ad5780631c4695f414610246578063248a9ca3146102715780632f2ff15d146102945780633168f504146102a7576101cf565b806301ffc9a7146101d457806307e2cea5146101fc5780630b29b94314610231575b600080fd5b6101e76101e2366004611502565b6104fd565b60405190151581526020015b60405180910390f35b6102237f68e79a7bf1e0bc45d0a330c573bc367f9cf464fd326078812f301165fbda4ef181565b6040519081526020016101f3565b61024461023f3660046114c8565b610598565b005b600554610259906001600160a01b031681565b6040516001600160a01b0390911681526020016101f3565b61022361027f3660046114c8565b60009081526020819052604090206001015490565b6102446102a23660046114e0565b61071f565b6102d46102b53660046114c8565b6008602052600090815260409020805460019091015460ff9091169082565b6040805192151583526020830191909152016101f3565b6102446102f93660046114e0565b6107bc565b61024461030c3660046113c2565b610844565b61022360045481565b6102d46103283660046114c8565b6007602052600090815260409020805460019091015460ff9091169082565b61022360035481565b610244610a48565b610244610366366004611542565b610aee565b6101e76103793660046114e0565b6000918252602082815260408084206001600160a01b0393909316845291905290205460ff1690565b6101e76103b03660046114c8565b60009081526007602052604090205460ff1690565b610223600081565b6102446103db366004611426565b610b79565b6101e76103ee3660046114c8565b60009081526008602052604090205460ff1690565b61043361041136600461136f565b600660205260009081526040902080546001909101546001600160a01b031682565b604080519283526001600160a01b039091166020830152016101f3565b61024461045e3660046113fd565b610c29565b6102446104713660046114c8565b610dc9565b6102446104843660046114c8565b610f47565b61022360025481565b6102446104a03660046114e0565b610fc0565b6102236104b336600461136f565b6001600160a01b031660009081526006602052604090205490565b61022360015481565b6102446104e5366004611390565b61104d565b6102446104f836600461136f565b611134565b60007fffffffff0000000000000000000000000000000000000000000000000000000082167f7965db0b00000000000000000000000000000000000000000000000000000000148061059057507f01ffc9a7000000000000000000000000000000000000000000000000000000007fffffffff000000000000000000000000000000000000000000000000000000008316145b90505b919050565b3360009081527fa629f6981c2f6895a67dc766e8e03ff72d04a413d0d8773a3ca56e9e474032c1602052604090205460ff1661061b5760405162461bcd60e51b815260206004820152601460248201527f6f6e6c794f7261636c653a2062616420726f6c6500000000000000000000000060448201526064015b60405180910390fd5b6000818152600760209081526040808320338452600281019092529091205460ff161561068a5760405162461bcd60e51b815260206004820152601960248201527f7375626d69743a207375626d697474656420616c7265616479000000000000006044820152606401610612565b600181600101600082825461069f919061158a565b90915550503360009081526002820160205260409020805460ff19166001908117909155805490820154106106da57805460ff191660011781555b6106e3336111d5565b604080518381523360208201527fd4964a7cd99f5c1fa8f2420fb5e1d3bd26eadf16e2658cf2e29a67dfda38601e910160405180910390a15050565b60008281526020819052604090206001015461073c905b33610379565b6107ae5760405162461bcd60e51b815260206004820152602f60248201527f416363657373436f6e74726f6c3a2073656e646572206d75737420626520616e60448201527f2061646d696e20746f206772616e7400000000000000000000000000000000006064820152608401610612565b6107b8828261123b565b5050565b6001600160a01b038116331461083a5760405162461bcd60e51b815260206004820152602f60248201527f416363657373436f6e74726f6c3a2063616e206f6e6c792072656e6f756e636560448201527f20726f6c657320666f722073656c6600000000000000000000000000000000006064820152608401610612565b6107b882826112d9565b6001600160a01b038381166000908152600660205260409020600101541633146108d65760405162461bcd60e51b815260206004820152602760248201527f77697468647261775061796d656e743a206f6e6c792063616c6c61626c65206260448201527f792061646d696e000000000000000000000000000000000000000000000000006064820152608401610612565b6001600160a01b038316600090815260066020526040902054818110156109655760405162461bcd60e51b815260206004820152603060248201527f77697468647261775061796d656e743a20696e73756666696369656e7420776960448201527f74686472617761626c652066756e6473000000000000000000000000000000006064820152608401610612565b61096f82826115a2565b6001600160a01b0385166000908152600660205260408120919091556002805484929061099d9084906115a2565b909155505060055460405163a9059cbb60e01b81526001600160a01b038581166004830152602482018590529091169063a9059cbb90604401602060405180830381600087803b1580156109f057600080fd5b505af1158015610a04573d6000803e3d6000fd5b505050506040513d601f19601f82011682018060405250810190610a2891906114a8565b610a4257634e487b7160e01b600052600160045260246000fd5b50505050565b6002546005546040517f70a082310000000000000000000000000000000000000000000000000000000081523060048201526001600160a01b03909116906370a082319060240160206040518083038186803b158015610aa757600080fd5b505afa158015610abb573d6000803e3d6000fd5b505050506040513d601f19601f82011682018060405250810190610adf9190611572565b610ae991906115a2565b600355565b3360009081527fad3228b676f7d3cd4284a5443f17f1962b36e491b30a40b2405849e597ba5fb5602052604090205460ff16610b625760405162461bcd60e51b81526020600482015260136024820152726f6e6c7941646d696e3a2062616420726f6c6560681b6044820152606401610612565b6fffffffffffffffffffffffffffffffff16600455565b6005546001600160a01b03163314610bd35760405162461bcd60e51b815260206004820152601d60248201527f6f6e546f6b656e5472616e736665723a206e6f7420746865204c696e6b0000006044820152606401610612565b8015610c215760405162461bcd60e51b815260206004820181905260248201527f7472616e7366657220646f65736e2774206163636570742063616c6c646174616044820152606401610612565b610a42610a48565b3360009081527fad3228b676f7d3cd4284a5443f17f1962b36e491b30a40b2405849e597ba5fb5602052604090205460ff16610c9d5760405162461bcd60e51b81526020600482015260136024820152726f6e6c7941646d696e3a2062616420726f6c6560681b6044820152606401610612565b806003541015610cef5760405162461bcd60e51b815260206004820152601a60248201527f696e73756666696369656e7420726573657276652066756e64730000000000006044820152606401610612565b60055460405163a9059cbb60e01b81526001600160a01b038481166004830152602482018490529091169063a9059cbb90604401602060405180830381600087803b158015610d3d57600080fd5b505af1158015610d51573d6000803e3d6000fd5b505050506040513d601f19601f82011682018060405250810190610d7591906114a8565b610dc15760405162461bcd60e51b815260206004820152601e60248201527f776974686472617746756e64733a207472616e73666572206661696c656400006044820152606401610612565b6107b8610a48565b3360009081527fa629f6981c2f6895a67dc766e8e03ff72d04a413d0d8773a3ca56e9e474032c1602052604090205460ff16610e475760405162461bcd60e51b815260206004820152601460248201527f6f6e6c794f7261636c653a2062616420726f6c650000000000000000000000006044820152606401610612565b6000818152600860209081526040808320338452600281019092529091205460ff1615610eb65760405162461bcd60e51b815260206004820152601960248201527f7375626d69743a207375626d697474656420616c7265616479000000000000006044820152606401610612565b6001816001016000828254610ecb919061158a565b90915550503360009081526002820160205260409020805460ff1916600190811790915580549082015410610f0657805460ff191660011781555b604080518381523360208201527fd4964a7cd99f5c1fa8f2420fb5e1d3bd26eadf16e2658cf2e29a67dfda38601e910160405180910390a16107b8336111d5565b3360009081527fad3228b676f7d3cd4284a5443f17f1962b36e491b30a40b2405849e597ba5fb5602052604090205460ff16610fbb5760405162461bcd60e51b81526020600482015260136024820152726f6e6c7941646d696e3a2062616420726f6c6560681b6044820152606401610612565b600155565b600082815260208190526040902060010154610fdb90610736565b61083a5760405162461bcd60e51b815260206004820152603060248201527f416363657373436f6e74726f6c3a2073656e646572206d75737420626520616e60448201527f2061646d696e20746f207265766f6b65000000000000000000000000000000006064820152608401610612565b3360009081527fad3228b676f7d3cd4284a5443f17f1962b36e491b30a40b2405849e597ba5fb5602052604090205460ff166110c15760405162461bcd60e51b81526020600482015260136024820152726f6e6c7941646d696e3a2062616420726f6c6560681b6044820152606401610612565b6110eb7f68e79a7bf1e0bc45d0a330c573bc367f9cf464fd326078812f301165fbda4ef18361071f565b6001600160a01b03918216600090815260066020526040902060010180547fffffffffffffffffffffffff00000000000000000000000000000000000000001691909216179055565b3360009081527fad3228b676f7d3cd4284a5443f17f1962b36e491b30a40b2405849e597ba5fb5602052604090205460ff166111a85760405162461bcd60e51b81526020600482015260136024820152726f6e6c7941646d696e3a2062616420726f6c6560681b6044820152606401610612565b6111d27f68e79a7bf1e0bc45d0a330c573bc367f9cf464fd326078812f301165fbda4ef182610fc0565b50565b600454600360008282546111e991906115a2565b90915550506004546002805460009061120390849061158a565b90915550506004546001600160a01b0382166000908152600660205260408120805490919061123390849061158a565b909155505050565b6000828152602081815260408083206001600160a01b038516845290915290205460ff166107b8576000828152602081815260408083206001600160a01b03851684529091529020805460ff191660011790556112953390565b6001600160a01b0316816001600160a01b0316837f2f8788117e7eff1d82e926ec794901d17c78024a50270940304540a733656f0d60405160405180910390a45050565b6000828152602081815260408083206001600160a01b038516845290915290205460ff16156107b8576000828152602081815260408083206001600160a01b0385168085529252808320805460ff1916905551339285917ff6391f5c32d9c69d2a47ea670b442974b53935d1edc7fd64eb21e047a839171b9190a45050565b80356001600160a01b038116811461059357600080fd5b600060208284031215611380578081fd5b61138982611358565b9392505050565b600080604083850312156113a2578081fd5b6113ab83611358565b91506113b960208401611358565b90509250929050565b6000806000606084860312156113d6578081fd5b6113df84611358565b92506113ed60208501611358565b9150604084013590509250925092565b6000806040838503121561140f578182fd5b61141883611358565b946020939093013593505050565b6000806000806060858703121561143b578081fd5b61144485611358565b935060208501359250604085013567ffffffffffffffff80821115611467578283fd5b818701915087601f83011261147a578283fd5b813581811115611488578384fd5b886020828501011115611499578384fd5b95989497505060200194505050565b6000602082840312156114b9578081fd5b81518015158114611389578182fd5b6000602082840312156114d9578081fd5b5035919050565b600080604083850312156114f2578182fd5b823591506113b960208401611358565b600060208284031215611513578081fd5b81357fffffffff0000000000000000000000000000000000000000000000000000000081168114611389578182fd5b600060208284031215611553578081fd5b81356fffffffffffffffffffffffffffffffff81168114611389578182fd5b600060208284031215611583578081fd5b5051919050565b6000821982111561159d5761159d6115b9565b500190565b6000828210156115b4576115b46115b9565b500390565b634e487b7160e01b600052601160045260246000fdfea264697066735822122044dbac81744ccdc436c662e78774e27b67a267bfccf15800e751e088b2bad51464736f6c63430008020033",
  "immutableReferences": {},
  "source": "// SPDX-License-Identifier: MIT\npragma solidity ^0.8.2;\n\nimport \"@openzeppelin/contracts/access/AccessControl.sol\";\nimport \"@openzeppelin/contracts/token/ERC20/IERC20.sol\";\nimport \"./Aggregator.sol\";\nimport \"../interfaces/IWhiteAggregator.sol\";\n\ncontract WhiteAggregator is Aggregator, IWhiteAggregator {\n    struct SubmissionInfo {\n        bool confirmed; // whether is confirmed\n        uint256 confirmations; // received confirmations count\n        mapping(address => bool) hasVerified; // verifier => has already voted\n    }\n\n    mapping(bytes32 => SubmissionInfo) public getMintInfo; // mint id => submission info\n    mapping(bytes32 => SubmissionInfo) public getBurntInfo; // burnt id => submission info\n\n    event Confirmed(bytes32 submissionId, address operator); // emitted once the submission is confirmed\n\n    /// @dev Constructor that initializes the most important configurations.\n    /// @param _minConfirmations Minimal required confirmations.\n    /// @param _payment Oracle reward.\n    /// @param _link Link token to pay to oracles.\n    constructor(\n        uint256 _minConfirmations,\n        uint128 _payment,\n        IERC20 _link\n    ) Aggregator(_minConfirmations, _payment, _link) {}\n\n    /// @dev Confirms the mint request.\n    /// @param _mintId Submission identifier.\n    function submitMint(bytes32 _mintId) external override onlyOracle {\n        SubmissionInfo storage mintInfo = getMintInfo[_mintId];\n        require(!mintInfo.hasVerified[msg.sender], \"submit: submitted already\");\n        mintInfo.confirmations += 1;\n        mintInfo.hasVerified[msg.sender] = true;\n        if (mintInfo.confirmations >= minConfirmations) {\n            mintInfo.confirmed = true;\n        }\n        _payOracle(msg.sender);\n        emit Confirmed(_mintId, msg.sender);\n    }\n\n    /// @dev Confirms the burnnt request.\n    /// @param _burntId Submission identifier.\n    function submitBurn(bytes32 _burntId) external override onlyOracle {\n        SubmissionInfo storage burnInfo = getBurntInfo[_burntId];\n        require(!burnInfo.hasVerified[msg.sender], \"submit: submitted already\");\n        burnInfo.confirmations += 1;\n        burnInfo.hasVerified[msg.sender] = true;\n        if (burnInfo.confirmations >= minConfirmations) {\n            burnInfo.confirmed = true;\n        }\n        emit Confirmed(_burntId, msg.sender);\n        _payOracle(msg.sender);\n    }\n\n    /// @dev Returns whether mint request is confirmed.\n    /// @param _mintId Submission identifier.\n    /// @return Whether mint request is confirmed.\n    function isMintConfirmed(bytes32 _mintId)\n        external\n        view\n        override\n        returns (bool)\n    {\n        return getMintInfo[_mintId].confirmed;\n    }\n\n    /// @dev Returns whether burnnt request is confirmed.\n    /// @param _burntId Submission identifier.\n    /// @return Whether burnnt request is confirmed.\n    function isBurntConfirmed(bytes32 _burntId)\n        external\n        view\n        override\n        returns (bool)\n    {\n        return getBurntInfo[_burntId].confirmed;\n    }\n}\n",
  "sourcePath": "/Users/kstasi/Documents/side/debridge-contracts/contracts/chainlink/WhiteAggregator.sol",
  "compiler": {
    "name": "solc",
    "version": "0.8.2+commit.661d1103.Emscripten.clang"
  },
  "schemaVersion": "3.3.4",
  "updatedAt": "2021-03-28T19:42:06.446Z",
  "networkType": "ethereum",
  "devdoc": {
    "kind": "dev",
    "methods": {
      "addOracle(address,address)": {
        "details": "Add new oracle.",
        "params": {
          "_admin": "Admin address.",
          "_oracle": "Oracle address."
        }
      },
      "constructor": {
        "details": "Constructor that initializes the most important configurations.",
        "params": {
          "_link": "Link token to pay to oracles.",
          "_minConfirmations": "Minimal required confirmations.",
          "_payment": "Oracle reward."
        }
      },
      "getRoleAdmin(bytes32)": {
        "details": "Returns the admin role that controls `role`. See {grantRole} and {revokeRole}. To change a role's admin, use {_setRoleAdmin}."
      },
      "grantRole(bytes32,address)": {
        "details": "Grants `role` to `account`. If `account` had not been already granted `role`, emits a {RoleGranted} event. Requirements: - the caller must have ``role``'s admin role."
      },
      "hasRole(bytes32,address)": {
        "details": "Returns `true` if `account` has been granted `role`."
      },
      "isBurntConfirmed(bytes32)": {
        "details": "Returns whether burnnt request is confirmed.",
        "params": {
          "_burntId": "Submission identifier."
        },
        "returns": {
          "_0": "Whether burnnt request is confirmed."
        }
      },
      "isMintConfirmed(bytes32)": {
        "details": "Returns whether mint request is confirmed.",
        "params": {
          "_mintId": "Submission identifier."
        },
        "returns": {
          "_0": "Whether mint request is confirmed."
        }
      },
      "removeOracle(address)": {
        "details": "Remove oracle.",
        "params": {
          "_oracle": "Oracle address."
        }
      },
      "renounceRole(bytes32,address)": {
        "details": "Revokes `role` from the calling account. Roles are often managed via {grantRole} and {revokeRole}: this function's purpose is to provide a mechanism for accounts to lose their privileges if they are compromised (such as when a trusted device is misplaced). If the calling account had been granted `role`, emits a {RoleRevoked} event. Requirements: - the caller must be `account`."
      },
      "revokeRole(bytes32,address)": {
        "details": "Revokes `role` from `account`. If `account` had been granted `role`, emits a {RoleRevoked} event. Requirements: - the caller must have ``role``'s admin role."
      },
      "setMinConfirmations(uint256)": {
        "details": "Sets minimal required confirmations.",
        "params": {
          "_minConfirmations": "Minimal required confirmations."
        }
      },
      "setPayment(uint128)": {
        "details": "Sets new oracle reward.",
        "params": {
          "_payment": "Oracle reward."
        }
      },
      "submitBurn(bytes32)": {
        "details": "Confirms the burnnt request.",
        "params": {
          "_burntId": "Submission identifier."
        }
      },
      "submitMint(bytes32)": {
        "details": "Confirms the mint request.",
        "params": {
          "_mintId": "Submission identifier."
        }
      },
      "supportsInterface(bytes4)": {
        "details": "See {IERC165-supportsInterface}."
      },
      "updateAvailableFunds()": {
        "details": "Updates available rewards to be distributed."
      },
      "withdrawFunds(address,uint256)": {
        "details": "Withdraws available LINK's.",
        "params": {
          "_amount": "Amount to withdraw.",
          "_recipient": "Recepient reward."
        }
      },
      "withdrawPayment(address,address,uint256)": {
        "details": "Withdraws oracle reward.",
        "params": {
          "_amount": "Amount to withdraw.",
          "_oracle": "Oracle address.",
          "_recipient": "Recepient reward."
        }
      },
      "withdrawablePayment(address)": {
        "details": "Withdraws oracle reward.",
        "params": {
          "_oracle": "Oracle address."
        },
        "returns": {
          "_0": "Oracle rewards."
        }
      }
    },
    "version": 1
  },
  "userdoc": {
    "kind": "user",
    "methods": {},
    "version": 1
  }
}