{
  "contractName": "WhiteLightAggregator",
  "abi": [
    {
      "inputs": [
        {
          "internalType": "uint256",
          "name": "_minConfirmations",
          "type": "uint256"
        },
        {
          "internalType": "bytes[2]",
          "name": "_utilityBytes",
          "type": "bytes[2]"
        },
        {
          "internalType": "bytes",
          "name": "_versionBytes",
          "type": "bytes"
        }
      ],
      "stateMutability": "nonpayable",
      "type": "constructor"
    },
    {
      "anonymous": false,
      "inputs": [
        {
          "indexed": false,
          "internalType": "bytes32",
          "name": "submissionId",
          "type": "bytes32"
        },
        {
          "indexed": false,
          "internalType": "address",
          "name": "operator",
          "type": "address"
        }
      ],
      "name": "Confirmed",
      "type": "event"
    },
    {
      "anonymous": false,
      "inputs": [
        {
          "indexed": true,
          "internalType": "bytes32",
          "name": "role",
          "type": "bytes32"
        },
        {
          "indexed": true,
          "internalType": "bytes32",
          "name": "previousAdminRole",
          "type": "bytes32"
        },
        {
          "indexed": true,
          "internalType": "bytes32",
          "name": "newAdminRole",
          "type": "bytes32"
        }
      ],
      "name": "RoleAdminChanged",
      "type": "event"
    },
    {
      "anonymous": false,
      "inputs": [
        {
          "indexed": true,
          "internalType": "bytes32",
          "name": "role",
          "type": "bytes32"
        },
        {
          "indexed": true,
          "internalType": "address",
          "name": "account",
          "type": "address"
        },
        {
          "indexed": true,
          "internalType": "address",
          "name": "sender",
          "type": "address"
        }
      ],
      "name": "RoleGranted",
      "type": "event"
    },
    {
      "anonymous": false,
      "inputs": [
        {
          "indexed": true,
          "internalType": "bytes32",
          "name": "role",
          "type": "bytes32"
        },
        {
          "indexed": true,
          "internalType": "address",
          "name": "account",
          "type": "address"
        },
        {
          "indexed": true,
          "internalType": "address",
          "name": "sender",
          "type": "address"
        }
      ],
      "name": "RoleRevoked",
      "type": "event"
    },
    {
      "anonymous": false,
      "inputs": [
        {
          "indexed": false,
          "internalType": "bytes32",
          "name": "submissionId",
          "type": "bytes32"
        }
      ],
      "name": "SubmissionApproved",
      "type": "event"
    },
    {
      "inputs": [],
      "name": "DEFAULT_ADMIN_ROLE",
      "outputs": [
        {
          "internalType": "bytes32",
          "name": "",
          "type": "bytes32"
        }
      ],
      "stateMutability": "view",
      "type": "function",
      "constant": true
    },
    {
      "inputs": [],
      "name": "ORACLE_ROLE",
      "outputs": [
        {
          "internalType": "bytes32",
          "name": "",
          "type": "bytes32"
        }
      ],
      "stateMutability": "view",
      "type": "function",
      "constant": true
    },
    {
      "inputs": [
        {
          "internalType": "bytes32",
          "name": "",
          "type": "bytes32"
        }
      ],
      "name": "getBurntInfo",
      "outputs": [
        {
          "internalType": "bool",
          "name": "confirmed",
          "type": "bool"
        },
        {
          "internalType": "uint256",
          "name": "confirmations",
          "type": "uint256"
        }
      ],
      "stateMutability": "view",
      "type": "function",
      "constant": true
    },
    {
      "inputs": [
        {
          "internalType": "bytes32",
          "name": "",
          "type": "bytes32"
        }
      ],
      "name": "getMintInfo",
      "outputs": [
        {
          "internalType": "bool",
          "name": "confirmed",
          "type": "bool"
        },
        {
          "internalType": "uint256",
          "name": "confirmations",
          "type": "uint256"
        }
      ],
      "stateMutability": "view",
      "type": "function",
      "constant": true
    },
    {
      "inputs": [
        {
          "internalType": "bytes32",
          "name": "role",
          "type": "bytes32"
        }
      ],
      "name": "getRoleAdmin",
      "outputs": [
        {
          "internalType": "bytes32",
          "name": "",
          "type": "bytes32"
        }
      ],
      "stateMutability": "view",
      "type": "function",
      "constant": true
    },
    {
      "inputs": [
        {
          "internalType": "bytes32",
          "name": "role",
          "type": "bytes32"
        },
        {
          "internalType": "address",
          "name": "account",
          "type": "address"
        }
      ],
      "name": "grantRole",
      "outputs": [],
      "stateMutability": "nonpayable",
      "type": "function"
    },
    {
      "inputs": [
        {
          "internalType": "bytes32",
          "name": "role",
          "type": "bytes32"
        },
        {
          "internalType": "address",
          "name": "account",
          "type": "address"
        }
      ],
      "name": "hasRole",
      "outputs": [
        {
          "internalType": "bool",
          "name": "",
          "type": "bool"
        }
      ],
      "stateMutability": "view",
      "type": "function",
      "constant": true
    },
    {
      "inputs": [
        {
          "internalType": "address",
          "name": "",
          "type": "address"
        }
      ],
      "name": "isOracle",
      "outputs": [
        {
          "internalType": "bool",
          "name": "",
          "type": "bool"
        }
      ],
      "stateMutability": "view",
      "type": "function",
      "constant": true
    },
    {
      "inputs": [],
      "name": "minConfirmations",
      "outputs": [
        {
          "internalType": "uint256",
          "name": "",
          "type": "uint256"
        }
      ],
      "stateMutability": "view",
      "type": "function",
      "constant": true
    },
    {
      "inputs": [
        {
          "internalType": "bytes32",
          "name": "role",
          "type": "bytes32"
        },
        {
          "internalType": "address",
          "name": "account",
          "type": "address"
        }
      ],
      "name": "renounceRole",
      "outputs": [],
      "stateMutability": "nonpayable",
      "type": "function"
    },
    {
      "inputs": [
        {
          "internalType": "bytes32",
          "name": "role",
          "type": "bytes32"
        },
        {
          "internalType": "address",
          "name": "account",
          "type": "address"
        }
      ],
      "name": "revokeRole",
      "outputs": [],
      "stateMutability": "nonpayable",
      "type": "function"
    },
    {
      "inputs": [
        {
          "internalType": "bytes4",
          "name": "interfaceId",
          "type": "bytes4"
        }
      ],
      "name": "supportsInterface",
      "outputs": [
        {
          "internalType": "bool",
          "name": "",
          "type": "bool"
        }
      ],
      "stateMutability": "view",
      "type": "function",
      "constant": true
    },
    {
      "inputs": [
        {
          "internalType": "uint256",
          "name": "",
          "type": "uint256"
        }
      ],
      "name": "utilityBytes",
      "outputs": [
        {
          "internalType": "bytes",
          "name": "",
          "type": "bytes"
        }
      ],
      "stateMutability": "view",
      "type": "function",
      "constant": true
    },
    {
      "inputs": [],
      "name": "versionBytes",
      "outputs": [
        {
          "internalType": "bytes",
          "name": "",
          "type": "bytes"
        }
      ],
      "stateMutability": "view",
      "type": "function",
      "constant": true
    },
    {
      "inputs": [
        {
          "internalType": "bytes32",
          "name": "_mintId",
          "type": "bytes32"
        },
        {
          "internalType": "bytes[2][]",
          "name": "_trxData",
          "type": "bytes[2][]"
        }
      ],
      "name": "submitMint",
      "outputs": [
        {
          "internalType": "bool",
          "name": "",
          "type": "bool"
        }
      ],
      "stateMutability": "nonpayable",
      "type": "function"
    },
    {
      "inputs": [
        {
          "internalType": "bytes32",
          "name": "_burntId",
          "type": "bytes32"
        },
        {
          "internalType": "bytes[2][]",
          "name": "_trxData",
          "type": "bytes[2][]"
        }
      ],
      "name": "submitBurn",
      "outputs": [
        {
          "internalType": "bool",
          "name": "",
          "type": "bool"
        }
      ],
      "stateMutability": "nonpayable",
      "type": "function"
    },
    {
      "inputs": [
        {
          "internalType": "bytes[2]",
          "name": "_utilityBytes",
          "type": "bytes[2]"
        }
      ],
      "name": "setUtilityBytes",
      "outputs": [],
      "stateMutability": "nonpayable",
      "type": "function"
    },
    {
      "inputs": [
        {
          "internalType": "bytes",
          "name": "_versionBytes",
          "type": "bytes"
        }
      ],
      "name": "setVersionBytes",
      "outputs": [],
      "stateMutability": "nonpayable",
      "type": "function"
    },
    {
      "inputs": [
        {
          "internalType": "uint256",
          "name": "_minConfirmations",
          "type": "uint256"
        }
      ],
      "name": "setMinConfirmations",
      "outputs": [],
      "stateMutability": "nonpayable",
      "type": "function"
    },
    {
      "inputs": [
        {
          "internalType": "address",
          "name": "_oracle",
          "type": "address"
        }
      ],
      "name": "addOracle",
      "outputs": [],
      "stateMutability": "nonpayable",
      "type": "function"
    },
    {
      "inputs": [
        {
          "internalType": "address",
          "name": "_oracle",
          "type": "address"
        }
      ],
      "name": "removeOracle",
      "outputs": [],
      "stateMutability": "nonpayable",
      "type": "function"
    },
    {
      "inputs": [
        {
          "internalType": "bytes32",
          "name": "_mintId",
          "type": "bytes32"
        }
      ],
      "name": "isMintConfirmed",
      "outputs": [
        {
          "internalType": "bool",
          "name": "",
          "type": "bool"
        }
      ],
      "stateMutability": "view",
      "type": "function",
      "constant": true
    },
    {
      "inputs": [
        {
          "internalType": "bytes32",
          "name": "_burntId",
          "type": "bytes32"
        }
      ],
      "name": "isBurntConfirmed",
      "outputs": [
        {
          "internalType": "bool",
          "name": "",
          "type": "bool"
        }
      ],
      "stateMutability": "view",
      "type": "function",
      "constant": true
    },
    {
      "inputs": [
        {
          "internalType": "bytes",
          "name": "_payloadPart",
          "type": "bytes"
        },
        {
          "internalType": "bytes",
          "name": "_method",
          "type": "bytes"
        },
        {
          "internalType": "bytes32",
          "name": "_submissionId",
          "type": "bytes32"
        }
      ],
      "name": "getUnsignedTrx",
      "outputs": [
        {
          "internalType": "bytes",
          "name": "",
          "type": "bytes"
        }
      ],
      "stateMutability": "view",
      "type": "function",
      "constant": true
    },
    {
      "inputs": [
        {
          "internalType": "bytes",
          "name": "_signature",
          "type": "bytes"
        }
      ],
      "name": "splitSignature",
      "outputs": [
        {
          "internalType": "bytes32",
          "name": "r",
          "type": "bytes32"
        },
        {
          "internalType": "bytes32",
          "name": "s",
          "type": "bytes32"
        },
        {
          "internalType": "uint8",
          "name": "v",
          "type": "uint8"
        }
      ],
      "stateMutability": "pure",
      "type": "function",
      "constant": true
    }
  ],
  "bytecode": "0x60806040523480156200001157600080fd5b506040516200184b3803806200184b833981016040819052620000349162000314565b6001839055620000476002838162000124565b5080516200005d9060049060208401906200017b565b506200006b60003362000074565b50505062000454565b62000080828262000084565b5050565b6000828152602081815260408083206001600160a01b038516845290915290205460ff1662000080576000828152602081815260408083206001600160a01b03851684529091529020805460ff19166001179055620000e03390565b6001600160a01b0316816001600160a01b0316837f2f8788117e7eff1d82e926ec794901d17c78024a50270940304540a733656f0d60405160405180910390a45050565b826002810192821562000169579160200282015b82811115620001695782518051620001589184916020909101906200017b565b509160200191906001019062000138565b506200017792915062000206565b5090565b828054620001899062000401565b90600052602060002090601f016020900481019282620001ad5760008555620001f8565b82601f10620001c857805160ff1916838001178555620001f8565b82800160010185558215620001f8579182015b82811115620001f8578251825591602001919060010190620001db565b506200017792915062000227565b80821115620001775760006200021d82826200023e565b5060010162000206565b5b8082111562000177576000815560010162000228565b5080546200024c9062000401565b6000825580601f1062000260575062000280565b601f01602090049060005260206000209081019062000280919062000227565b50565b600082601f83011262000294578081fd5b81516001600160401b03811115620002b057620002b06200043e565b6020620002c6601f8301601f19168201620003ce565b8281528582848701011115620002da578384fd5b835b83811015620002f9578581018301518282018401528201620002dc565b838111156200030a57848385840101525b5095945050505050565b60008060006060848603121562000329578283fd5b8351602080860151919450906001600160401b03808211156200034a578485fd5b818701915087601f8301126200035e578485fd5b6200036a6040620003ce565b8083875b60028110156200039a57620003878c8351880162000283565b845292860192908601906001016200036e565b5050604089015190965093505080831115620003b4578384fd5b5050620003c48682870162000283565b9150509250925092565b604051601f8201601f191681016001600160401b0381118282101715620003f957620003f96200043e565b604052919050565b6002810460018216806200041657607f821691505b602082108114156200043857634e487b7160e01b600052602260045260246000fd5b50919050565b634e487b7160e01b600052604160045260246000fd5b6113e780620004646000396000f3fe608060405234801561001057600080fd5b50600436106101735760003560e01c8063a217fddf116100de578063d282165511610097578063dd2e797611610071578063dd2e7976146103ce578063df5dd1a5146103e1578063e7c4393e146103f4578063fdc85fc4146103fd57610173565b8063d282165514610395578063d547741f146103a8578063d652b702146103bb57610173565b8063a217fddf146102fb578063a61ece1814610303578063a7bb580314610326578063a97e5c9314610357578063b7827f8a1461037a578063ba3ee3d71461038d57610173565b806336568abe1161013057806336568abe1461025f57806344914e46146102725780634a41e6d91461029f578063578d8377146102b257806391d14854146102c5578063a1e5c7b1146102d857610173565b806301ffc9a71461017857806307e2cea5146101a057806314d21857146101c3578063248a9ca3146101e35780632f2ff15d146102065780633168f5041461021b575b600080fd5b61018b610186366004611181565b610410565b60405190151581526020015b60405180910390f35b6101b560008051602061139283398151915281565b604051908152602001610197565b6101d66101d1366004611095565b610449565b6040516101979190611246565b6101b56101f1366004611095565b60009081526020819052604090206001015490565b6102196102143660046110ad565b6104e9565b005b610248610229366004611095565b6007602052600090815260409020805460019091015460ff9091169082565b604080519215158352602083019190915201610197565b61021961026d3660046110ad565b61057d565b610248610280366004611095565b6006602052600090815260409020805460019091015460ff9091169082565b61018b6102ad3660046110d8565b6105f7565b61018b6102c03660046110d8565b610638565b61018b6102d33660046110ad565b610671565b61018b6102e6366004611095565b60009081526006602052604090205460ff1690565b6101b5600081565b61018b610311366004611095565b60009081526007602052604090205460ff1690565b6103396103343660046111a9565b61069a565b60408051938452602084019290925260ff1690820152606001610197565b61018b610365366004611041565b60056020526000908152604090205460ff1681565b6101d66103883660046111dc565b61071f565b6101d6610801565b6102196103a3366004611095565b61080e565b6102196103b63660046110ad565b61083a565b6102196103c93660046111a9565b6108ba565b6102196103dc366004611062565b6108f4565b6102196103ef366004611041565b610927565b6101b560015481565b61021961040b366004611041565b61098a565b60006001600160e01b03198216637965db0b60e01b148061044157506301ffc9a760e01b6001600160e01b03198316145b90505b919050565b6002816002811061045957600080fd5b0180549091506104689061130f565b80601f01602080910402602001604051908101604052809291908181526020018280546104949061130f565b80156104e15780601f106104b6576101008083540402835291602001916104e1565b820191906000526020600020905b8154815290600101906020018083116104c457829003601f168201915b505050505081565b600082815260208190526040902060010154610506905b336102d3565b61056f5760405162461bcd60e51b815260206004820152602f60248201527f416363657373436f6e74726f6c3a2073656e646572206d75737420626520616e60448201526e0818591b5a5b881d1bc819dc985b9d608a1b60648201526084015b60405180910390fd5b61057982826109cc565b5050565b6001600160a01b03811633146105ed5760405162461bcd60e51b815260206004820152602f60248201527f416363657373436f6e74726f6c3a2063616e206f6e6c792072656e6f756e636560448201526e103937b632b9903337b91039b2b63360891b6064820152608401610566565b6105798282610a50565b6000828152600760209081526040808320815180830190925260048252630c4b56cd60e41b928201929092526106309082908686610ab5565b949350505050565b6000828152600660209081526040808320815180830190925260048252630b29b94360e01b928201929092526106309082908686610ab5565b6000918252602082815260408084206001600160a01b0393909316845291905290205460ff1690565b600080600083516041146107015760405162461bcd60e51b815260206004820152602860248201527f73706c69745369676e61747572653a20696e76616c6964207369676e617475726044820152670ca40d8cadccee8d60c31b6064820152608401610566565b50505060208101516040820151606090920151909260009190911a90565b60606106306107f86107eb6107cb6107c588600260005b0180546107429061130f565b80601f016020809104026020016040519081016040528092919081815260200182805461076e9061130f565b80156107bb5780601f10610790576101008083540402835291602001916107bb565b820191906000526020600020905b81548152906001019060200180831161079e57829003601f168201915b5050505050610db0565b87610db0565b604080516020810188905201604051602081830303815290604052610db0565b600480546107429061130f565b60026001610736565b600480546104689061130f565b610819600033610671565b6108355760405162461bcd60e51b815260040161056690611299565b600155565b60008281526020819052604090206001015461085590610500565b6105ed5760405162461bcd60e51b815260206004820152603060248201527f416363657373436f6e74726f6c3a2073656e646572206d75737420626520616e60448201526f2061646d696e20746f207265766f6b6560801b6064820152608401610566565b6108c5600033610671565b6108e15760405162461bcd60e51b815260040161056690611299565b8051610579906004906020840190610e2d565b6108ff600033610671565b61091b5760405162461bcd60e51b815260040161056690611299565b61057960028281610eb1565b610932600033610671565b61094e5760405162461bcd60e51b815260040161056690611299565b610966600080516020611392833981519152826104e9565b6001600160a01b03166000908152600560205260409020805460ff19166001179055565b610995600033610671565b6109b15760405162461bcd60e51b815260040161056690611299565b6109c96000805160206113928339815191528261083a565b50565b6109d68282610671565b610579576000828152602081815260408083206001600160a01b03851684529091529020805460ff19166001179055610a0c3390565b6001600160a01b0316816001600160a01b0316837f2f8788117e7eff1d82e926ec794901d17c78024a50270940304540a733656f0d60405160405180910390a45050565b610a5a8282610671565b15610579576000828152602081815260408083206001600160a01b0385168085529252808320805460ff1916905551339285917ff6391f5c32d9c69d2a47ea670b442974b53935d1edc7fd64eb21e047a839171b9190a45050565b6000805b8251811015610da2576000806000610b1c868581518110610aea57634e487b7160e01b600052603260045260246000fd5b6020026020010151600160028110610b1257634e487b7160e01b600052603260045260246000fd5b602002015161069a565b9250925092506000610b7b878681518110610b4757634e487b7160e01b600052603260045260246000fd5b6020026020010151600060028110610b6f57634e487b7160e01b600052603260045260246000fd5b60200201518a8a61071f565b905060006001828051906020012084878760405160008152602001604052604051610bc2949392919093845260ff9290921660208401526040830152606082015260800190565b6020604051602081039080840390855afa158015610be4573d6000803e3d6000fd5b505050602060405103519050610c0860008051602061139283398151915282610671565b610c4b5760405162461bcd60e51b81526020600482015260146024820152736f6e6c794f7261636c653a2062616420726f6c6560601b6044820152606401610566565b6001600160a01b038116600090815260028c01602052604090205460ff1615610cb65760405162461bcd60e51b815260206004820152601960248201527f7375626d69743a207375626d697474656420616c7265616479000000000000006044820152606401610566565b60018b6001016000828254610ccb91906112f7565b90915550506001600160a01b038116600090815260028c0160205260409020805460ff191660019081179091558054908c015410610d49578a5460ff19166001178b556040517f2a6b4960c287d4d53a338f9c9a9f830f37e7b66e67a0a958f68be89a4eeb939d90610d40908b815260200190565b60405180910390a15b604080518a81526001600160a01b03831660208201527fd4964a7cd99f5c1fa8f2420fb5e1d3bd26eadf16e2658cf2e29a67dfda38601e910160405180910390a150505050508080610d9a9061134a565b915050610ab9565b5050925460ff169392505050565b6060806040519050835180825260208201818101602087015b81831015610de1578051835260209283019201610dc9565b50855184518101855292509050808201602086015b81831015610e0e578051835260209283019201610df6565b508651929092011591909101601f01601f191660405250905092915050565b828054610e399061130f565b90600052602060002090601f016020900481019282610e5b5760008555610ea1565b82601f10610e7457805160ff1916838001178555610ea1565b82800160010185558215610ea1579182015b82811115610ea1578251825591602001919060010190610e86565b50610ead929150610efd565b5090565b8260028101928215610ef1579160200282015b82811115610ef15782518051610ee1918491602090910190610e2d565b5091602001919060010190610ec4565b50610ead929150610f12565b5b80821115610ead5760008155600101610efe565b80821115610ead576000610f268282610f2f565b50600101610f12565b508054610f3b9061130f565b6000825580601f10610f4d57506109c9565b601f0160209004906000526020600020908101906109c99190610efd565b80356001600160a01b038116811461044457600080fd5b600082601f830112610f92578081fd5b610f9c60406112c6565b8083835b6002811015610fcb57610fb68783358801610fd6565b84526020938401939190910190600101610fa0565b509095945050505050565b600082601f830112610fe6578081fd5b813567ffffffffffffffff8111156110005761100061137b565b611013601f8201601f19166020016112c6565b818152846020838601011115611027578283fd5b816020850160208301379081016020019190915292915050565b600060208284031215611052578081fd5b61105b82610f6b565b9392505050565b600060208284031215611073578081fd5b813567ffffffffffffffff811115611089578182fd5b61063084828501610f82565b6000602082840312156110a6578081fd5b5035919050565b600080604083850312156110bf578081fd5b823591506110cf60208401610f6b565b90509250929050565b600080604083850312156110ea578182fd5b8235915060208084013567ffffffffffffffff80821115611109578384fd5b818601915086601f83011261111c578384fd5b81358181111561112e5761112e61137b565b61113b84858302016112c6565b8181528481019250838501865b838110156111715761115f8b888435890101610f82565b85529386019390860190600101611148565b5096999098509650505050505050565b600060208284031215611192578081fd5b81356001600160e01b03198116811461105b578182fd5b6000602082840312156111ba578081fd5b813567ffffffffffffffff8111156111d0578182fd5b61063084828501610fd6565b6000806000606084860312156111f0578081fd5b833567ffffffffffffffff80821115611207578283fd5b61121387838801610fd6565b94506020860135915080821115611228578283fd5b5061123586828701610fd6565b925050604084013590509250925092565b6000602080835283518082850152825b8181101561127257858101830151858201604001528201611256565b818111156112835783604083870101525b50601f01601f1916929092016040019392505050565b6020808252601390820152726f6e6c7941646d696e3a2062616420726f6c6560681b604082015260600190565b604051601f8201601f1916810167ffffffffffffffff811182821017156112ef576112ef61137b565b604052919050565b6000821982111561130a5761130a611365565b500190565b60028104600182168061132357607f821691505b6020821081141561134457634e487b7160e01b600052602260045260246000fd5b50919050565b600060001982141561135e5761135e611365565b5060010190565b634e487b7160e01b600052601160045260246000fd5b634e487b7160e01b600052604160045260246000fdfe68e79a7bf1e0bc45d0a330c573bc367f9cf464fd326078812f301165fbda4ef1a26469706673582212203d4931ab3a76f936eeac234ae52f5b674cbb264bbcf5c123529829229c4e4cad64736f6c63430008020033",
  "immutableReferences": {},
  "source": "// SPDX-License-Identifier: MIT\npragma solidity ^0.8.2;\n\nimport \"@openzeppelin/contracts/access/AccessControl.sol\";\nimport \"@openzeppelin/contracts/token/ERC20/IERC20.sol\";\nimport \"../interfaces/IWhiteLightAggregator.sol\";\n\ncontract WhiteLightAggregator is AccessControl, IWhiteLightAggregator {\n    bytes32 public constant ORACLE_ROLE = keccak256(\"ORACLE_ROLE\"); // role allowed to submit the data\n    uint256 public minConfirmations; // minimal required confimations\n    bytes[2] public utilityBytes; // the part of the transaction payload;\n    bytes public versionBytes; // chain id of the network where the confirmations are collected + v\n    mapping(address => bool) public isOracle; // oracle address => oracle details\n\n    modifier onlyAdmin {\n        require(hasRole(DEFAULT_ADMIN_ROLE, msg.sender), \"onlyAdmin: bad role\");\n        _;\n    }\n\n    struct SubmissionInfo {\n        bool confirmed; // whether is confirmed\n        uint256 confirmations; // received confirmations count\n        mapping(address => bool) hasVerified; // verifier => has already voted\n    }\n\n    mapping(bytes32 => SubmissionInfo) public getMintInfo; // mint id => submission info\n    mapping(bytes32 => SubmissionInfo) public getBurntInfo; // burnt id => submission info\n\n    event Confirmed(bytes32 submissionId, address operator); // emitted once the submission is confirmed\n    event SubmissionApproved(bytes32 submissionId); // emitted once the submission is confirmed\n\n    /// @dev Constructor that initializes the most important configurations.\n    /// @param _minConfirmations Minimal required confirmations.\n    /// @param _utilityBytes Utility bytes to be inserted into the transaction payload.\n    /// @param _versionBytes The bytes that identify the chain where confirmations are sent + v.\n    constructor(\n        uint256 _minConfirmations,\n        bytes[2] memory _utilityBytes,\n        bytes memory _versionBytes\n    ) {\n        minConfirmations = _minConfirmations;\n        utilityBytes = _utilityBytes;\n        versionBytes = _versionBytes;\n        _setupRole(DEFAULT_ADMIN_ROLE, msg.sender);\n    }\n\n    /// @dev Confirms the mint request.\n    /// @param _mintId Submission identifier.\n    /// @param _trxData Array of transactions by oracles of 2 elements - payload up to the receiver address and the signature bytes.\n    function submitMint(bytes32 _mintId, bytes[2][] memory _trxData)\n        external\n        override\n        returns (bool)\n    {\n        SubmissionInfo storage mintInfo = getMintInfo[_mintId];\n        return _submit(mintInfo, hex\"0b29b943\", _mintId, _trxData);\n    }\n\n    /// @dev Confirms the burnnt request.\n    /// @param _burntId Submission identifier.\n    /// @param _trxData Array of transactions by oracles of 2 elements - payload up to the receiver address and the signature bytes.\n    function submitBurn(bytes32 _burntId, bytes[2][] memory _trxData)\n        external\n        override\n        returns (bool)\n    {\n        SubmissionInfo storage burnInfo = getBurntInfo[_burntId];\n        return _submit(burnInfo, hex\"c4b56cd0\", _burntId, _trxData);\n    }\n\n    /* ADMIN */\n\n    /// @dev Sets utility bytes.\n    /// @param _utilityBytes Utility bytes to be inserted into the transaction payload.\n    function setUtilityBytes(bytes[2] memory _utilityBytes) external onlyAdmin {\n        utilityBytes = _utilityBytes;\n    }\n\n    /// @dev Sets version bytes.\n    /// @param _versionBytes The bytes that identify the chain where confirmations are sent + v.\n    function setVersionBytes(bytes memory _versionBytes) external onlyAdmin {\n        versionBytes = _versionBytes;\n    }\n\n    /// @dev Sets minimal required confirmations.\n    /// @param _minConfirmations Minimal required confirmations.\n    function setMinConfirmations(uint256 _minConfirmations) external onlyAdmin {\n        minConfirmations = _minConfirmations;\n    }\n\n    /// @dev Add new oracle.\n    /// @param _oracle Oracle address.\n    function addOracle(address _oracle) external onlyAdmin {\n        grantRole(ORACLE_ROLE, _oracle);\n        isOracle[_oracle] = true;\n    }\n\n    /// @dev Remove oracle.\n    /// @param _oracle Oracle address.\n    function removeOracle(address _oracle) external onlyAdmin {\n        revokeRole(ORACLE_ROLE, _oracle);\n    }\n\n    /* INTERNAL */\n\n    /// @dev Confirms the burnnt request.\n    /// @param _submissionId Submission identifier.\n    /// @param _trxData Array of transactions by oracles of 2 elements - payload up to the receiver address and the signature bytes.\n    function _submit(\n        SubmissionInfo storage _submissionInfo,\n        bytes memory _methodId,\n        bytes32 _submissionId,\n        bytes[2][] memory _trxData\n    ) internal returns (bool) {\n        for (uint256 i = 0; i < _trxData.length; i++) {\n            (bytes32 r, bytes32 s, uint8 v) = splitSignature(_trxData[i][1]);\n            bytes memory unsignedTrx =\n                getUnsignedTrx(_trxData[i][0], _methodId, _submissionId);\n            address oracle = ecrecover(keccak256(unsignedTrx), v, r, s);\n            require(hasRole(ORACLE_ROLE, oracle), \"onlyOracle: bad role\");\n            require(\n                !_submissionInfo.hasVerified[oracle],\n                \"submit: submitted already\"\n            );\n            _submissionInfo.confirmations += 1;\n            _submissionInfo.hasVerified[oracle] = true;\n            if (_submissionInfo.confirmations >= minConfirmations) {\n                _submissionInfo.confirmed = true;\n                emit SubmissionApproved(_submissionId);\n            }\n            emit Confirmed(_submissionId, oracle);\n        }\n        return _submissionInfo.confirmed;\n    }\n\n    /* VIEW */\n\n    /// @dev Returns whether mint request is confirmed.\n    /// @param _mintId Submission identifier.\n    /// @return Whether mint request is confirmed.\n    function isMintConfirmed(bytes32 _mintId)\n        external\n        view\n        override\n        returns (bool)\n    {\n        return getMintInfo[_mintId].confirmed;\n    }\n\n    /// @dev Returns whether burnnt request is confirmed.\n    /// @param _burntId Submission identifier.\n    /// @return Whether burnnt request is confirmed.\n    function isBurntConfirmed(bytes32 _burntId)\n        external\n        view\n        override\n        returns (bool)\n    {\n        return getBurntInfo[_burntId].confirmed;\n    }\n\n    /// @dev Prepares raw transacton that was signed by the oracle.\n    /// @param _payloadPart First part of the transaction; rlp encoded (nonce + gasprice + startgas) + length of the next rlp encoded element (recipient).\n    /// @param _method The function identifier called by the oracle for the confirmation.\n    /// @param _submissionId Submission identifier.\n    function getUnsignedTrx(\n        bytes memory _payloadPart,\n        bytes memory _method,\n        bytes32 _submissionId\n    ) public view returns (bytes memory) {\n        return\n            concat(\n                concat(\n                    concat(\n                        concat(concat(_payloadPart, utilityBytes[0]), _method),\n                        abi.encodePacked(_submissionId)\n                    ),\n                    versionBytes // NOTE: the byte must contain the chaind + v\n                ),\n                utilityBytes[1]\n            );\n    }\n\n    /// @dev Splits signature bytes to r,s,v components.\n    /// @param _signature Signature bytes in format r+s+v.\n    function splitSignature(bytes memory _signature)\n        public\n        pure\n        returns (\n            bytes32 r,\n            bytes32 s,\n            uint8 v\n        )\n    {\n        require(\n            _signature.length == 65,\n            \"splitSignature: invalid signature length\"\n        );\n\n        assembly {\n            r := mload(add(_signature, 32))\n            s := mload(add(_signature, 64))\n            v := byte(0, mload(add(_signature, 96)))\n        }\n    }\n\n    /// @dev Concats arbitrary bytes.\n    /// @param _preBytes First byte array.\n    /// @param _postBytes Second byte array.\n    function concat(bytes memory _preBytes, bytes memory _postBytes)\n        internal\n        pure\n        returns (bytes memory)\n    {\n        bytes memory tempBytes;\n\n        assembly {\n            tempBytes := mload(0x40)\n\n            let length := mload(_preBytes)\n            mstore(tempBytes, length)\n            let mc := add(tempBytes, 0x20)\n            let end := add(mc, length)\n\n            for {\n                let cc := add(_preBytes, 0x20)\n            } lt(mc, end) {\n                mc := add(mc, 0x20)\n                cc := add(cc, 0x20)\n            } {\n                mstore(mc, mload(cc))\n            }\n\n            length := mload(_postBytes)\n            mstore(tempBytes, add(length, mload(tempBytes)))\n            mc := end\n            end := add(mc, length)\n\n            for {\n                let cc := add(_postBytes, 0x20)\n            } lt(mc, end) {\n                mc := add(mc, 0x20)\n                cc := add(cc, 0x20)\n            } {\n                mstore(mc, mload(cc))\n            }\n            mstore(\n                0x40,\n                and(\n                    add(add(end, iszero(add(length, mload(_preBytes)))), 31),\n                    not(31)\n                )\n            )\n        }\n\n        return tempBytes;\n    }\n}\n",
  "sourcePath": "/Users/kstasi/Documents/side/debridge-contracts/contracts/chainlink/WhiteLightAggregator.sol",
  "compiler": {
    "name": "solc",
    "version": "0.8.2+commit.661d1103.Emscripten.clang"
  },
  "schemaVersion": "3.3.4",
  "updatedAt": "2021-04-19T08:28:58.680Z",
  "networkType": "ethereum",
  "devdoc": {
    "kind": "dev",
    "methods": {
      "addOracle(address)": {
        "details": "Add new oracle.",
        "params": {
          "_oracle": "Oracle address."
        }
      },
      "constructor": {
        "details": "Constructor that initializes the most important configurations.",
        "params": {
          "_minConfirmations": "Minimal required confirmations.",
          "_utilityBytes": "Utility bytes to be inserted into the transaction payload.",
          "_versionBytes": "The bytes that identify the chain where confirmations are sent + v."
        }
      },
      "getRoleAdmin(bytes32)": {
        "details": "Returns the admin role that controls `role`. See {grantRole} and {revokeRole}. To change a role's admin, use {_setRoleAdmin}."
      },
      "getUnsignedTrx(bytes,bytes,bytes32)": {
        "details": "Prepares raw transacton that was signed by the oracle.",
        "params": {
          "_method": "The function identifier called by the oracle for the confirmation.",
          "_payloadPart": "First part of the transaction; rlp encoded (nonce + gasprice + startgas) + length of the next rlp encoded element (recipient).",
          "_submissionId": "Submission identifier."
        }
      },
      "grantRole(bytes32,address)": {
        "details": "Grants `role` to `account`. If `account` had not been already granted `role`, emits a {RoleGranted} event. Requirements: - the caller must have ``role``'s admin role."
      },
      "hasRole(bytes32,address)": {
        "details": "Returns `true` if `account` has been granted `role`."
      },
      "isBurntConfirmed(bytes32)": {
        "details": "Returns whether burnnt request is confirmed.",
        "params": {
          "_burntId": "Submission identifier."
        },
        "returns": {
          "_0": "Whether burnnt request is confirmed."
        }
      },
      "isMintConfirmed(bytes32)": {
        "details": "Returns whether mint request is confirmed.",
        "params": {
          "_mintId": "Submission identifier."
        },
        "returns": {
          "_0": "Whether mint request is confirmed."
        }
      },
      "removeOracle(address)": {
        "details": "Remove oracle.",
        "params": {
          "_oracle": "Oracle address."
        }
      },
      "renounceRole(bytes32,address)": {
        "details": "Revokes `role` from the calling account. Roles are often managed via {grantRole} and {revokeRole}: this function's purpose is to provide a mechanism for accounts to lose their privileges if they are compromised (such as when a trusted device is misplaced). If the calling account had been granted `role`, emits a {RoleRevoked} event. Requirements: - the caller must be `account`."
      },
      "revokeRole(bytes32,address)": {
        "details": "Revokes `role` from `account`. If `account` had been granted `role`, emits a {RoleRevoked} event. Requirements: - the caller must have ``role``'s admin role."
      },
      "setMinConfirmations(uint256)": {
        "details": "Sets minimal required confirmations.",
        "params": {
          "_minConfirmations": "Minimal required confirmations."
        }
      },
      "setUtilityBytes(bytes[2])": {
        "details": "Sets utility bytes.",
        "params": {
          "_utilityBytes": "Utility bytes to be inserted into the transaction payload."
        }
      },
      "setVersionBytes(bytes)": {
        "details": "Sets version bytes.",
        "params": {
          "_versionBytes": "The bytes that identify the chain where confirmations are sent + v."
        }
      },
      "splitSignature(bytes)": {
        "details": "Splits signature bytes to r,s,v components.",
        "params": {
          "_signature": "Signature bytes in format r+s+v."
        }
      },
      "submitBurn(bytes32,bytes[2][])": {
        "details": "Confirms the burnnt request.",
        "params": {
          "_burntId": "Submission identifier.",
          "_trxData": "Array of transactions by oracles of 2 elements - payload up to the receiver address and the signature bytes."
        }
      },
      "submitMint(bytes32,bytes[2][])": {
        "details": "Confirms the mint request.",
        "params": {
          "_mintId": "Submission identifier.",
          "_trxData": "Array of transactions by oracles of 2 elements - payload up to the receiver address and the signature bytes."
        }
      },
      "supportsInterface(bytes4)": {
        "details": "See {IERC165-supportsInterface}."
      }
    },
    "version": 1
  },
  "userdoc": {
    "kind": "user",
    "methods": {},
    "version": 1
  }
}