{
  "contractName": "WhiteDebridge",
  "abi": [
    {
      "inputs": [
        {
          "internalType": "uint256",
          "name": "_chainId",
          "type": "uint256"
        },
        {
          "internalType": "uint256",
          "name": "_minAmount",
          "type": "uint256"
        },
        {
          "internalType": "uint256",
          "name": "_transferFee",
          "type": "uint256"
        },
        {
          "internalType": "contract IWhiteAggregator",
          "name": "_aggregator",
          "type": "address"
        },
        {
          "internalType": "uint256[]",
          "name": "_supportedChainIds",
          "type": "uint256[]"
        }
      ],
      "stateMutability": "nonpayable",
      "type": "constructor"
    },
    {
      "anonymous": false,
      "inputs": [
        {
          "indexed": false,
          "internalType": "bytes32",
          "name": "burntId",
          "type": "bytes32"
        },
        {
          "indexed": false,
          "internalType": "bytes32",
          "name": "debridgeId",
          "type": "bytes32"
        },
        {
          "indexed": false,
          "internalType": "uint256",
          "name": "amount",
          "type": "uint256"
        },
        {
          "indexed": false,
          "internalType": "address",
          "name": "receiver",
          "type": "address"
        },
        {
          "indexed": false,
          "internalType": "uint256",
          "name": "nonce",
          "type": "uint256"
        },
        {
          "indexed": false,
          "internalType": "uint256",
          "name": "chainIdTo",
          "type": "uint256"
        }
      ],
      "name": "Burnt",
      "type": "event"
    },
    {
      "anonymous": false,
      "inputs": [
        {
          "indexed": false,
          "internalType": "uint256",
          "name": "amount",
          "type": "uint256"
        },
        {
          "indexed": false,
          "internalType": "address",
          "name": "receiver",
          "type": "address"
        },
        {
          "indexed": false,
          "internalType": "bytes32",
          "name": "debridgeId",
          "type": "bytes32"
        }
      ],
      "name": "Claimed",
      "type": "event"
    },
    {
      "anonymous": false,
      "inputs": [
        {
          "indexed": false,
          "internalType": "uint256",
          "name": "amount",
          "type": "uint256"
        },
        {
          "indexed": false,
          "internalType": "address",
          "name": "receiver",
          "type": "address"
        },
        {
          "indexed": false,
          "internalType": "bytes32",
          "name": "debridgeId",
          "type": "bytes32"
        }
      ],
      "name": "Minted",
      "type": "event"
    },
    {
      "anonymous": false,
      "inputs": [
        {
          "indexed": true,
          "internalType": "bytes32",
          "name": "role",
          "type": "bytes32"
        },
        {
          "indexed": true,
          "internalType": "bytes32",
          "name": "previousAdminRole",
          "type": "bytes32"
        },
        {
          "indexed": true,
          "internalType": "bytes32",
          "name": "newAdminRole",
          "type": "bytes32"
        }
      ],
      "name": "RoleAdminChanged",
      "type": "event"
    },
    {
      "anonymous": false,
      "inputs": [
        {
          "indexed": true,
          "internalType": "bytes32",
          "name": "role",
          "type": "bytes32"
        },
        {
          "indexed": true,
          "internalType": "address",
          "name": "account",
          "type": "address"
        },
        {
          "indexed": true,
          "internalType": "address",
          "name": "sender",
          "type": "address"
        }
      ],
      "name": "RoleGranted",
      "type": "event"
    },
    {
      "anonymous": false,
      "inputs": [
        {
          "indexed": true,
          "internalType": "bytes32",
          "name": "role",
          "type": "bytes32"
        },
        {
          "indexed": true,
          "internalType": "address",
          "name": "account",
          "type": "address"
        },
        {
          "indexed": true,
          "internalType": "address",
          "name": "sender",
          "type": "address"
        }
      ],
      "name": "RoleRevoked",
      "type": "event"
    },
    {
      "anonymous": false,
      "inputs": [
        {
          "indexed": false,
          "internalType": "bytes32",
          "name": "sentId",
          "type": "bytes32"
        },
        {
          "indexed": false,
          "internalType": "bytes32",
          "name": "debridgeId",
          "type": "bytes32"
        },
        {
          "indexed": false,
          "internalType": "uint256",
          "name": "amount",
          "type": "uint256"
        },
        {
          "indexed": false,
          "internalType": "address",
          "name": "receiver",
          "type": "address"
        },
        {
          "indexed": false,
          "internalType": "uint256",
          "name": "nonce",
          "type": "uint256"
        },
        {
          "indexed": false,
          "internalType": "uint256",
          "name": "chainIdTo",
          "type": "uint256"
        }
      ],
      "name": "Sent",
      "type": "event"
    },
    {
      "inputs": [],
      "name": "DEFAULT_ADMIN_ROLE",
      "outputs": [
        {
          "internalType": "bytes32",
          "name": "",
          "type": "bytes32"
        }
      ],
      "stateMutability": "view",
      "type": "function",
      "constant": true
    },
    {
      "inputs": [],
      "name": "DENOMINATOR",
      "outputs": [
        {
          "internalType": "uint256",
          "name": "",
          "type": "uint256"
        }
      ],
      "stateMutability": "view",
      "type": "function",
      "constant": true
    },
    {
      "inputs": [],
      "name": "aggregator",
      "outputs": [
        {
          "internalType": "contract IWhiteAggregator",
          "name": "",
          "type": "address"
        }
      ],
      "stateMutability": "view",
      "type": "function",
      "constant": true
    },
    {
      "inputs": [],
      "name": "chainId",
      "outputs": [
        {
          "internalType": "uint256",
          "name": "",
          "type": "uint256"
        }
      ],
      "stateMutability": "view",
      "type": "function",
      "constant": true
    },
    {
      "inputs": [],
      "name": "collectedFees",
      "outputs": [
        {
          "internalType": "uint256",
          "name": "",
          "type": "uint256"
        }
      ],
      "stateMutability": "view",
      "type": "function",
      "constant": true
    },
    {
      "inputs": [
        {
          "internalType": "bytes32",
          "name": "",
          "type": "bytes32"
        }
      ],
      "name": "getDebridge",
      "outputs": [
        {
          "internalType": "address",
          "name": "tokenAddress",
          "type": "address"
        },
        {
          "internalType": "uint256",
          "name": "chainId",
          "type": "uint256"
        },
        {
          "internalType": "uint256",
          "name": "minAmount",
          "type": "uint256"
        },
        {
          "internalType": "uint256",
          "name": "transferFee",
          "type": "uint256"
        }
      ],
      "stateMutability": "view",
      "type": "function",
      "constant": true
    },
    {
      "inputs": [
        {
          "internalType": "bytes32",
          "name": "role",
          "type": "bytes32"
        }
      ],
      "name": "getRoleAdmin",
      "outputs": [
        {
          "internalType": "bytes32",
          "name": "",
          "type": "bytes32"
        }
      ],
      "stateMutability": "view",
      "type": "function",
      "constant": true
    },
    {
      "inputs": [
        {
          "internalType": "bytes32",
          "name": "role",
          "type": "bytes32"
        },
        {
          "internalType": "address",
          "name": "account",
          "type": "address"
        }
      ],
      "name": "grantRole",
      "outputs": [],
      "stateMutability": "nonpayable",
      "type": "function"
    },
    {
      "inputs": [
        {
          "internalType": "bytes32",
          "name": "role",
          "type": "bytes32"
        },
        {
          "internalType": "address",
          "name": "account",
          "type": "address"
        }
      ],
      "name": "hasRole",
      "outputs": [
        {
          "internalType": "bool",
          "name": "",
          "type": "bool"
        }
      ],
      "stateMutability": "view",
      "type": "function",
      "constant": true
    },
    {
      "inputs": [
        {
          "internalType": "bytes32",
          "name": "",
          "type": "bytes32"
        }
      ],
      "name": "isBurntConfirmed",
      "outputs": [
        {
          "internalType": "bool",
          "name": "",
          "type": "bool"
        }
      ],
      "stateMutability": "view",
      "type": "function",
      "constant": true
    },
    {
      "inputs": [
        {
          "internalType": "bytes32",
          "name": "",
          "type": "bytes32"
        }
      ],
      "name": "isMintConfirmed",
      "outputs": [
        {
          "internalType": "bool",
          "name": "",
          "type": "bool"
        }
      ],
      "stateMutability": "view",
      "type": "function",
      "constant": true
    },
    {
      "inputs": [],
      "name": "nonce",
      "outputs": [
        {
          "internalType": "uint256",
          "name": "",
          "type": "uint256"
        }
      ],
      "stateMutability": "view",
      "type": "function",
      "constant": true
    },
    {
      "inputs": [
        {
          "internalType": "bytes32",
          "name": "role",
          "type": "bytes32"
        },
        {
          "internalType": "address",
          "name": "account",
          "type": "address"
        }
      ],
      "name": "renounceRole",
      "outputs": [],
      "stateMutability": "nonpayable",
      "type": "function"
    },
    {
      "inputs": [
        {
          "internalType": "bytes32",
          "name": "role",
          "type": "bytes32"
        },
        {
          "internalType": "address",
          "name": "account",
          "type": "address"
        }
      ],
      "name": "revokeRole",
      "outputs": [],
      "stateMutability": "nonpayable",
      "type": "function"
    },
    {
      "inputs": [
        {
          "internalType": "bytes4",
          "name": "interfaceId",
          "type": "bytes4"
        }
      ],
      "name": "supportsInterface",
      "outputs": [
        {
          "internalType": "bool",
          "name": "",
          "type": "bool"
        }
      ],
      "stateMutability": "view",
      "type": "function",
      "constant": true
    },
    {
      "inputs": [
        {
          "internalType": "address",
          "name": "_tokenAddress",
          "type": "address"
        },
        {
          "internalType": "address",
          "name": "_receiver",
          "type": "address"
        },
        {
          "internalType": "uint256",
          "name": "_amount",
          "type": "uint256"
        },
        {
          "internalType": "uint256",
          "name": "_chainIdTo",
          "type": "uint256"
        }
      ],
      "name": "send",
      "outputs": [],
      "stateMutability": "payable",
      "type": "function",
      "payable": true
    },
    {
      "inputs": [
        {
          "internalType": "bytes32",
          "name": "_debridgeId",
          "type": "bytes32"
        },
        {
          "internalType": "uint256",
          "name": "_amount",
          "type": "uint256"
        },
        {
          "internalType": "address",
          "name": "_receiver",
          "type": "address"
        },
        {
          "internalType": "uint256",
          "name": "_nonce",
          "type": "uint256"
        }
      ],
      "name": "claim",
      "outputs": [],
      "stateMutability": "nonpayable",
      "type": "function"
    },
    {
      "inputs": [
        {
          "internalType": "bytes32",
          "name": "_debridgeId",
          "type": "bytes32"
        },
        {
          "internalType": "address",
          "name": "_receiver",
          "type": "address"
        },
        {
          "internalType": "uint256",
          "name": "_amount",
          "type": "uint256"
        }
      ],
      "name": "burn",
      "outputs": [],
      "stateMutability": "nonpayable",
      "type": "function"
    },
    {
      "inputs": [
        {
          "internalType": "bytes32",
          "name": "_mintId",
          "type": "bytes32"
        }
      ],
      "name": "submitMint",
      "outputs": [],
      "stateMutability": "nonpayable",
      "type": "function"
    },
    {
      "inputs": [
        {
          "internalType": "bytes32",
          "name": "_burntId",
          "type": "bytes32"
        }
      ],
      "name": "submitBurnt",
      "outputs": [],
      "stateMutability": "nonpayable",
      "type": "function"
    },
    {
      "inputs": [
        {
          "internalType": "bytes32",
          "name": "_debridgeId",
          "type": "bytes32"
        },
        {
          "internalType": "uint256",
          "name": "_amount",
          "type": "uint256"
        },
        {
          "internalType": "address",
          "name": "_receiver",
          "type": "address"
        },
        {
          "internalType": "uint256",
          "name": "_nonce",
          "type": "uint256"
        }
      ],
      "name": "mint",
      "outputs": [],
      "stateMutability": "nonpayable",
      "type": "function"
    },
    {
      "inputs": [
        {
          "internalType": "address",
          "name": "_tokenAddress",
          "type": "address"
        },
        {
          "internalType": "uint256",
          "name": "_minAmount",
          "type": "uint256"
        },
        {
          "internalType": "uint256",
          "name": "_transferFee",
          "type": "uint256"
        },
        {
          "internalType": "uint256[]",
          "name": "_supportedChainIds",
          "type": "uint256[]"
        }
      ],
      "name": "addNativelAsset",
      "outputs": [],
      "stateMutability": "nonpayable",
      "type": "function"
    },
    {
      "inputs": [
        {
          "internalType": "bytes32",
          "name": "_debridgeId",
          "type": "bytes32"
        },
        {
          "internalType": "uint256",
          "name": "_chainId",
          "type": "uint256"
        },
        {
          "internalType": "bool",
          "name": "_isSupported",
          "type": "bool"
        }
      ],
      "name": "setChainIdSupport",
      "outputs": [],
      "stateMutability": "nonpayable",
      "type": "function"
    },
    {
      "inputs": [
        {
          "internalType": "bytes32",
          "name": "_debridgeId",
          "type": "bytes32"
        },
        {
          "internalType": "uint256",
          "name": "_chainId",
          "type": "uint256"
        },
        {
          "internalType": "uint256",
          "name": "_minAmount",
          "type": "uint256"
        },
        {
          "internalType": "uint256",
          "name": "_transferFee",
          "type": "uint256"
        },
        {
          "internalType": "uint256[]",
          "name": "_supportedChainIds",
          "type": "uint256[]"
        },
        {
          "internalType": "string",
          "name": "_name",
          "type": "string"
        },
        {
          "internalType": "string",
          "name": "_symbol",
          "type": "string"
        }
      ],
      "name": "addExternalAsset",
      "outputs": [],
      "stateMutability": "nonpayable",
      "type": "function"
    },
    {
      "inputs": [
        {
          "internalType": "contract IWhiteAggregator",
          "name": "_aggregator",
          "type": "address"
        }
      ],
      "name": "setAggregator",
      "outputs": [],
      "stateMutability": "nonpayable",
      "type": "function"
    },
    {
      "inputs": [
        {
          "internalType": "uint256",
          "name": "_chainId",
          "type": "uint256"
        },
        {
          "internalType": "address",
          "name": "_tokenAddress",
          "type": "address"
        }
      ],
      "name": "getDebridgeId",
      "outputs": [
        {
          "internalType": "bytes32",
          "name": "",
          "type": "bytes32"
        }
      ],
      "stateMutability": "pure",
      "type": "function",
      "constant": true
    }
  ],
  "bytecode": "0x60806040523480156200001157600080fd5b506040516200652438038062006524833981810160405281019062000037919062000473565b8460018190555060008560006040516020016200005692919062000544565b60405160208183030381529060405280519060200120905062000087816000600154888887620000e960201b60201c565b82600460006101000a81548173ffffffffffffffffffffffffffffffffffffffff021916908373ffffffffffffffffffffffffffffffffffffffff160217905550620000dd6000801b336200022a60201b60201c565b50505050505062000784565b6000600560008881526020019081526020016000209050858160000160006101000a81548173ffffffffffffffffffffffffffffffffffffffff021916908373ffffffffffffffffffffffffffffffffffffffff1602179055508481600101819055508381600201819055508281600301819055506001816004016000600154815260200190815260200160002060006101000a81548160ff02191690831515021790555060005b825181101562000220576001826004016000858481518110620001dd577f4e487b7100000000000000000000000000000000000000000000000000000000600052603260045260246000fd5b6020026020010151815260200190815260200160002060006101000a81548160ff0219169083151502179055508080620002179062000654565b91505062000191565b5050505050505050565b6200023c82826200024060201b60201c565b5050565b6200025282826200033160201b60201c565b6200032d57600160008084815260200190815260200160002060000160008373ffffffffffffffffffffffffffffffffffffffff1673ffffffffffffffffffffffffffffffffffffffff16815260200190815260200160002060006101000a81548160ff021916908315150217905550620002d26200039b60201b60201c565b73ffffffffffffffffffffffffffffffffffffffff168173ffffffffffffffffffffffffffffffffffffffff16837f2f8788117e7eff1d82e926ec794901d17c78024a50270940304540a733656f0d60405160405180910390a45b5050565b600080600084815260200190815260200160002060000160008373ffffffffffffffffffffffffffffffffffffffff1673ffffffffffffffffffffffffffffffffffffffff16815260200190815260200160002060009054906101000a900460ff16905092915050565b600033905090565b6000620003ba620003b4846200059d565b62000574565b90508083825260208201905082856020860282011115620003da57600080fd5b60005b858110156200040e5781620003f388826200045c565b845260208401935060208301925050600181019050620003dd565b5050509392505050565b600082601f8301126200042a57600080fd5b81516200043c848260208601620003a3565b91505092915050565b600081519050620004568162000750565b92915050565b6000815190506200046d816200076a565b92915050565b600080600080600060a086880312156200048c57600080fd5b60006200049c888289016200045c565b9550506020620004af888289016200045c565b9450506040620004c2888289016200045c565b9350506060620004d58882890162000445565b925050608086015167ffffffffffffffff811115620004f357600080fd5b620005018882890162000418565b9150509295509295909350565b620005236200051d82620005cc565b620006a2565b82525050565b6200053e620005388262000614565b620006ca565b82525050565b600062000552828562000529565b6020820191506200056482846200050e565b6014820191508190509392505050565b60006200058062000593565b90506200058e82826200061e565b919050565b6000604051905090565b600067ffffffffffffffff821115620005bb57620005ba62000703565b5b602082029050602081019050919050565b6000620005d982620005f4565b9050919050565b6000620005ed82620005cc565b9050919050565b600073ffffffffffffffffffffffffffffffffffffffff82169050919050565b6000819050919050565b620006298262000732565b810181811067ffffffffffffffff821117156200064b576200064a62000703565b5b80604052505050565b6000620006618262000614565b91507fffffffffffffffffffffffffffffffffffffffffffffffffffffffffffffffff821415620006975762000696620006d4565b5b600182019050919050565b6000620006af82620006b6565b9050919050565b6000620006c38262000743565b9050919050565b6000819050919050565b7f4e487b7100000000000000000000000000000000000000000000000000000000600052601160045260246000fd5b7f4e487b7100000000000000000000000000000000000000000000000000000000600052604160045260246000fd5b6000601f19601f8301169050919050565b60008160601b9050919050565b6200075b81620005e0565b81146200076757600080fd5b50565b620007758162000614565b81146200078157600080fd5b50565b615d9080620007946000396000f3fe608060405260043610620001a65760003560e01c8063918f867411620000e5578063a217fddf1162000097578063c3c37fbc116200006d578063c3c37fbc146200063a578063c9ce8b821462000668578063d547741f1462000696578063f9120af614620006c457620001a6565b8063a217fddf1462000596578063a61ece1814620005c6578063affed0e0146200060a57620001a6565b8063918f8674146200043c57806391d14854146200046c5780639682b90914620004b05780639a8a059214620004f4578063a1b1c4091462000524578063a1e5c7b1146200055257620001a6565b80632f2ff15d116200015d5780633dc28cf111620001335780633dc28cf1146200037757806357cf07ca14620003975780635e35206c14620003de5780639003adfe146200040c57620001a6565b80632f2ff15d14620002ed578063346a9074146200031b57806336568abe146200034957620001a6565b806301ffc9a714620001ab5780630a0e5e9a14620001ef5780630b29b943146200021d57806317bb58e3146200024b578063245a7bfc1462000279578063248a9ca314620002a9575b600080fd5b348015620001b857600080fd5b50620001d76004803603810190620001d19190620025b4565b620006f2565b604051620001e6919062002ae3565b60405180910390f35b348015620001fc57600080fd5b506200021b600480360381019062000215919062002466565b6200076f565b005b3480156200022a57600080fd5b5062000249600480360381019062000243919062002337565b6200080a565b005b3480156200025857600080fd5b5062000277600480360381019062000271919062002286565b620008cc565b005b3480156200028657600080fd5b506200029162000967565b604051620002a0919062002b8a565b60405180910390f35b348015620002b657600080fd5b50620002d56004803603810190620002cf919062002337565b6200098d565b604051620002e4919062002b00565b60405180910390f35b348015620002fa57600080fd5b5062000319600480360381019062000313919062002363565b620009ac565b005b3480156200032857600080fd5b50620003476004803603810190620003419190620023a4565b62000a1d565b005b3480156200035657600080fd5b506200037560048036038101906200036f919062002363565b62000c8a565b005b6200039560048036038101906200038f91906200221a565b62000d14565b005b348015620003a457600080fd5b50620003c36004803603810190620003bd919062002337565b62001021565b604051620003d5949392919062002a96565b60405180910390f35b348015620003eb57600080fd5b506200040a6004803603810190620004049190620024bc565b62001071565b005b3480156200041957600080fd5b50620004246200111b565b60405162000433919062002de2565b60405180910390f35b3480156200044957600080fd5b506200045462001121565b60405162000463919062002de2565b60405180910390f35b3480156200047957600080fd5b5062000498600480360381019062000492919062002363565b6200112d565b604051620004a7919062002ae3565b60405180910390f35b348015620004bd57600080fd5b50620004dc6004803603810190620004d691906200260c565b62001197565b604051620004eb919062002b00565b60405180910390f35b3480156200050157600080fd5b506200050c620011cc565b6040516200051b919062002de2565b60405180910390f35b3480156200053157600080fd5b506200055060048036038101906200054a9190620023fa565b620011d2565b005b3480156200055f57600080fd5b506200057e600480360381019062000578919062002337565b6200144b565b6040516200058d919062002ae3565b60405180910390f35b348015620005a357600080fd5b50620005ae6200146b565b604051620005bd919062002b00565b60405180910390f35b348015620005d357600080fd5b50620005f26004803603810190620005ec919062002337565b62001472565b60405162000601919062002ae3565b60405180910390f35b3480156200061757600080fd5b506200062262001492565b60405162000631919062002de2565b60405180910390f35b3480156200064757600080fd5b50620006666004803603810190620006609190620023fa565b62001498565b005b3480156200067557600080fd5b506200069460048036038101906200068e919062002337565b620017c1565b005b348015620006a357600080fd5b50620006c26004803603810190620006bc919062002363565b62001883565b005b348015620006d157600080fd5b50620006f06004803603810190620006ea9190620025e0565b620018f4565b005b60007f7965db0b000000000000000000000000000000000000000000000000000000007bffffffffffffffffffffffffffffffffffffffffffffffffffffffff1916827bffffffffffffffffffffffffffffffffffffffffffffffffffffffff19161480620007685750620007678262001938565b5b9050919050565b6200077e6000801b336200112d565b620007c0576040517f08c379a0000000000000000000000000000000000000000000000000000000008152600401620007b79062002cd2565b60405180910390fd5b60006005600085815260200190815260200160002090508181600401600085815260200190815260200160002060006101000a81548160ff02191690831515021790555050505050565b3373ffffffffffffffffffffffffffffffffffffffff16600460009054906101000a900473ffffffffffffffffffffffffffffffffffffffff1673ffffffffffffffffffffffffffffffffffffffff16146200089d576040517f08c379a0000000000000000000000000000000000000000000000000000000008152600401620008949062002dc0565b60405180910390fd5b60016006600083815260200190815260200160002060006101000a81548160ff02191690831515021790555050565b620008db6000801b336200112d565b6200091d576040517f08c379a0000000000000000000000000000000000000000000000000000000008152600401620009149062002cd2565b60405180910390fd5b60006001548560405160200162000936929190620029fc565b604051602081830303815290604052805190602001209050620009608186600154878787620019a2565b5050505050565b600460009054906101000a900473ffffffffffffffffffffffffffffffffffffffff1681565b6000806000838152602001908152602001600020600101549050919050565b620009cb620009bb836200098d565b620009c562001ae3565b6200112d565b62000a0d576040517f08c379a000000000000000000000000000000000000000000000000000000000815260040162000a049062002c06565b60405180910390fd5b62000a19828262001aeb565b5050565b60006005600085815260200190815260200160002090506001548160010154141562000a80576040517f08c379a000000000000000000000000000000000000000000000000000000000815260040162000a779062002cb0565b60405180910390fd5b8060020154821162000ac9576040517f08c379a000000000000000000000000000000000000000000000000000000000815260040162000ac09062002c28565b60405180910390fd5b60008160000160009054906101000a900473ffffffffffffffffffffffffffffffffffffffff1690508073ffffffffffffffffffffffffffffffffffffffff166323b872dd3330866040518463ffffffff1660e01b815260040162000b319392919062002a2c565b602060405180830381600087803b15801562000b4c57600080fd5b505af115801562000b61573d6000803e3d6000fd5b505050506040513d601f19601f8201168201806040525081019062000b8791906200230b565b506000670de0b6b3a764000083600301548562000ba5919062002f91565b62000bb1919062002f59565b9050600081111562000be957806002600082825462000bd1919062002efc565b92505081905550808462000be6919062002ff2565b93505b600086858760035460405160200162000c0694939291906200298d565b6040516020818303038152906040528051906020012090507fb8cc5195d548dc2781227c496b92d3736cd56d7f32b28971c9ae1e9eb0badf9581888789600354896001015460405162000c5f9695949392919062002b1d565b60405180910390a16003600081548092919062000c7c9062003164565b919050555050505050505050565b62000c9462001ae3565b73ffffffffffffffffffffffffffffffffffffffff168173ffffffffffffffffffffffffffffffffffffffff161462000d04576040517f08c379a000000000000000000000000000000000000000000000000000000000815260040162000cfb9062002d9e565b60405180910390fd5b62000d10828262001bd0565b5050565b60006001548560405160200162000d2d929190620029fc565b604051602081830303815290604052805190602001209050600060056000838152602001908152602001600020905080600401600084815260200190815260200160002060009054906101000a900460ff1662000dc1576040517f08c379a000000000000000000000000000000000000000000000000000000000815260040162000db89062002d38565b60405180910390fd5b806004016000600154815260200190815260200160002060009054906101000a900460ff1662000e28576040517f08c379a000000000000000000000000000000000000000000000000000000000815260040162000e1f9062002d38565b60405180910390fd5b8060020154841162000e71576040517f08c379a000000000000000000000000000000000000000000000000000000000815260040162000e689062002c6c565b60405180910390fd5b600073ffffffffffffffffffffffffffffffffffffffff168673ffffffffffffffffffffffffffffffffffffffff16141562000ef25734841462000eec576040517f08c379a000000000000000000000000000000000000000000000000000000000815260040162000ee39062002d7c565b60405180910390fd5b62000f22565b62000f213330868973ffffffffffffffffffffffffffffffffffffffff1662001cb6909392919063ffffffff16565b5b6000670de0b6b3a764000082600301548662000f3f919062002f91565b62000f4b919062002f59565b9050600081111562000f8357806002600082825462000f6b919062002efc565b92505081905550808562000f80919062002ff2565b94505b600083868860035460405160200162000fa094939291906200298d565b6040516020818303038152906040528051906020012090507f17c61cb89b62a3f29f5b150e3489c7a796ac4dc95fd73af14faa2c8086a324b48185888a6003548a60405162000ff59695949392919062002b1d565b60405180910390a160036000815480929190620010129062003164565b91905055505050505050505050565b60056020528060005260406000206000915090508060000160009054906101000a900473ffffffffffffffffffffffffffffffffffffffff16908060010154908060020154908060030154905084565b620010806000801b336200112d565b620010c2576040517f08c379a0000000000000000000000000000000000000000000000000000000008152600401620010b99062002cd2565b60405180910390fd5b60008282604051620010d49062002057565b620010e192919062002bcb565b604051809103906000f080158015620010fe573d6000803e3d6000fd5b50905062001111888289898989620019a2565b5050505050505050565b60025481565b670de0b6b3a764000081565b600080600084815260200190815260200160002060000160008373ffffffffffffffffffffffffffffffffffffffff1673ffffffffffffffffffffffffffffffffffffffff16815260200190815260200160002060009054906101000a900460ff16905092915050565b60008282604051602001620011ae929190620029fc565b60405160208183030381529060405280519060200120905092915050565b60015481565b600084848484604051602001620011ed94939291906200298d565b604051602081830303815290604052805190602001209050600460009054906101000a900473ffffffffffffffffffffffffffffffffffffffff1673ffffffffffffffffffffffffffffffffffffffff1663a1e5c7b1826040518263ffffffff1660e01b815260040162001262919062002b00565b60206040518083038186803b1580156200127b57600080fd5b505afa15801562001290573d6000803e3d6000fd5b505050506040513d601f19601f82011682018060405250810190620012b691906200230b565b620012f8576040517f08c379a0000000000000000000000000000000000000000000000000000000008152600401620012ef9062002d16565b60405180910390fd5b60006005600087815260200190815260200160002090508060000160009054906101000a900473ffffffffffffffffffffffffffffffffffffffff1673ffffffffffffffffffffffffffffffffffffffff166340c10f1985876040518363ffffffff1660e01b81526004016200137092919062002a69565b600060405180830381600087803b1580156200138b57600080fd5b505af1158015620013a0573d6000803e3d6000fd5b505050506000670de0b6b3a7640000826003015487620013c1919062002f91565b620013cd919062002f59565b9050600081111562001405578060026000828254620013ed919062002efc565b92505081905550808662001402919062002ff2565b95505b7f735d687607ce9e35b73121f5b238c4cd2854db103741adba51d670bb706051cc8686896040516200143a9392919062002dff565b60405180910390a150505050505050565b60066020528060005260406000206000915054906101000a900460ff1681565b6000801b81565b60076020528060005260406000206000915054906101000a900460ff1681565b60035481565b600084848484604051602001620014b394939291906200298d565b604051602081830303815290604052805190602001209050600460009054906101000a900473ffffffffffffffffffffffffffffffffffffffff1673ffffffffffffffffffffffffffffffffffffffff1663a61ece18826040518263ffffffff1660e01b815260040162001528919062002b00565b60206040518083038186803b1580156200154157600080fd5b505afa15801562001556573d6000803e3d6000fd5b505050506040513d601f19601f820116820180604052508101906200157c91906200230b565b620015be576040517f08c379a0000000000000000000000000000000000000000000000000000000008152600401620015b59062002d16565b60405180910390fd5b600060056000878152602001908152602001600020905060015481600101541462001620576040517f08c379a0000000000000000000000000000000000000000000000000000000008152600401620016179062002d38565b60405180910390fd5b600073ffffffffffffffffffffffffffffffffffffffff168160000160009054906101000a900473ffffffffffffffffffffffffffffffffffffffff1673ffffffffffffffffffffffffffffffffffffffff161415620016c8578373ffffffffffffffffffffffffffffffffffffffff166108fc869081150290604051600060405180830381858888f19350505050158015620016c1573d6000803e3d6000fd5b506200171a565b6200171984868360000160009054906101000a900473ffffffffffffffffffffffffffffffffffffffff1673ffffffffffffffffffffffffffffffffffffffff1662001d439092919063ffffffff16565b5b6000670de0b6b3a764000082600301548762001737919062002f91565b62001743919062002f59565b905060008111156200177b57806002600082825462001763919062002efc565b92505081905550808662001778919062002ff2565b95505b7fbcb8b73e5a89971ee294cc3d2f51a084375b679f88047211b28c5344acb53df5868689604051620017b09392919062002dff565b60405180910390a150505050505050565b3373ffffffffffffffffffffffffffffffffffffffff16600460009054906101000a900473ffffffffffffffffffffffffffffffffffffffff1673ffffffffffffffffffffffffffffffffffffffff161462001854576040517f08c379a00000000000000000000000000000000000000000000000000000000081526004016200184b9062002dc0565b60405180910390fd5b60016007600083815260200190815260200160002060006101000a81548160ff02191690831515021790555050565b620018a262001892836200098d565b6200189c62001ae3565b6200112d565b620018e4576040517f08c379a0000000000000000000000000000000000000000000000000000000008152600401620018db9062002c8e565b60405180910390fd5b620018f0828262001bd0565b5050565b80600460006101000a81548173ffffffffffffffffffffffffffffffffffffffff021916908373ffffffffffffffffffffffffffffffffffffffff16021790555050565b60007f01ffc9a7000000000000000000000000000000000000000000000000000000007bffffffffffffffffffffffffffffffffffffffffffffffffffffffff1916827bffffffffffffffffffffffffffffffffffffffffffffffffffffffff1916149050919050565b6000600560008881526020019081526020016000209050858160000160006101000a81548173ffffffffffffffffffffffffffffffffffffffff021916908373ffffffffffffffffffffffffffffffffffffffff1602179055508481600101819055508381600201819055508281600301819055506001816004016000600154815260200190815260200160002060006101000a81548160ff02191690831515021790555060005b825181101562001ad957600182600401600085848151811062001a96577f4e487b7100000000000000000000000000000000000000000000000000000000600052603260045260246000fd5b6020026020010151815260200190815260200160002060006101000a81548160ff021916908315150217905550808062001ad09062003164565b91505062001a4a565b5050505050505050565b600033905090565b62001af782826200112d565b62001bcc57600160008084815260200190815260200160002060000160008373ffffffffffffffffffffffffffffffffffffffff1673ffffffffffffffffffffffffffffffffffffffff16815260200190815260200160002060006101000a81548160ff02191690831515021790555062001b7162001ae3565b73ffffffffffffffffffffffffffffffffffffffff168173ffffffffffffffffffffffffffffffffffffffff16837f2f8788117e7eff1d82e926ec794901d17c78024a50270940304540a733656f0d60405160405180910390a45b5050565b62001bdc82826200112d565b1562001cb257600080600084815260200190815260200160002060000160008373ffffffffffffffffffffffffffffffffffffffff1673ffffffffffffffffffffffffffffffffffffffff16815260200190815260200160002060006101000a81548160ff02191690831515021790555062001c5762001ae3565b73ffffffffffffffffffffffffffffffffffffffff168173ffffffffffffffffffffffffffffffffffffffff16837ff6391f5c32d9c69d2a47ea670b442974b53935d1edc7fd64eb21e047a839171b60405160405180910390a45b5050565b62001d3d846323b872dd60e01b85858560405160240162001cda9392919062002a2c565b604051602081830303815290604052907bffffffffffffffffffffffffffffffffffffffffffffffffffffffff19166020820180517bffffffffffffffffffffffffffffffffffffffffffffffffffffffff838183161783525050505062001dcd565b50505050565b62001dc88363a9059cbb60e01b848460405160240162001d6592919062002a69565b604051602081830303815290604052907bffffffffffffffffffffffffffffffffffffffffffffffffffffffff19166020820180517bffffffffffffffffffffffffffffffffffffffffffffffffffffffff838183161783525050505062001dcd565b505050565b600062001e31826040518060400160405280602081526020017f5361666545524332303a206c6f772d6c6576656c2063616c6c206661696c65648152508573ffffffffffffffffffffffffffffffffffffffff1662001e9c9092919063ffffffff16565b905060008151111562001e97578080602001905181019062001e5491906200230b565b62001e96576040517f08c379a000000000000000000000000000000000000000000000000000000000815260040162001e8d9062002d5a565b60405180910390fd5b5b505050565b606062001ead848460008562001eb6565b90509392505050565b60608247101562001efe576040517f08c379a000000000000000000000000000000000000000000000000000000000815260040162001ef59062002c4a565b60405180910390fd5b62001f098562001fd8565b62001f4b576040517f08c379a000000000000000000000000000000000000000000000000000000000815260040162001f429062002cf4565b60405180910390fd5b6000808673ffffffffffffffffffffffffffffffffffffffff16858760405162001f769190620029e3565b60006040518083038185875af1925050503d806000811462001fb5576040519150601f19603f3d011682016040523d82523d6000602084013e62001fba565b606091505b509150915062001fcc82828662001feb565b92505050949350505050565b600080823b905060008111915050919050565b6060831562001ffd5782905062002050565b600083511115620020115782518084602001fd5b816040517f08c379a000000000000000000000000000000000000000000000000000000000815260040162002047919062002ba7565b60405180910390fd5b9392505050565b612729806200363283390190565b60006200207c620020768462002e65565b62002e3c565b905080838252602082019050828560208602820111156200209c57600080fd5b60005b85811015620020d05781620020b5888262002203565b8452602084019350602083019250506001810190506200209f565b5050509392505050565b6000620020f1620020eb8462002e94565b62002e3c565b9050828152602081018484840111156200210a57600080fd5b62002117848285620030e9565b509392505050565b600081359050620021308162003595565b92915050565b600082601f8301126200214857600080fd5b81356200215a84826020860162002065565b91505092915050565b6000813590506200217481620035af565b92915050565b6000815190506200218b81620035af565b92915050565b600081359050620021a281620035c9565b92915050565b600081359050620021b981620035e3565b92915050565b600081359050620021d081620035fd565b92915050565b600082601f830112620021e857600080fd5b8135620021fa848260208601620020da565b91505092915050565b600081359050620022148162003617565b92915050565b600080600080608085870312156200223157600080fd5b600062002241878288016200211f565b945050602062002254878288016200211f565b9350506040620022678782880162002203565b92505060606200227a8782880162002203565b91505092959194509250565b600080600080608085870312156200229d57600080fd5b6000620022ad878288016200211f565b9450506020620022c08782880162002203565b9350506040620022d38782880162002203565b925050606085013567ffffffffffffffff811115620022f157600080fd5b620022ff8782880162002136565b91505092959194509250565b6000602082840312156200231e57600080fd5b60006200232e848285016200217a565b91505092915050565b6000602082840312156200234a57600080fd5b60006200235a8482850162002191565b91505092915050565b600080604083850312156200237757600080fd5b6000620023878582860162002191565b92505060206200239a858286016200211f565b9150509250929050565b600080600060608486031215620023ba57600080fd5b6000620023ca8682870162002191565b9350506020620023dd868287016200211f565b9250506040620023f08682870162002203565b9150509250925092565b600080600080608085870312156200241157600080fd5b6000620024218782880162002191565b9450506020620024348782880162002203565b935050604062002447878288016200211f565b92505060606200245a8782880162002203565b91505092959194509250565b6000806000606084860312156200247c57600080fd5b60006200248c8682870162002191565b93505060206200249f8682870162002203565b9250506040620024b28682870162002163565b9150509250925092565b600080600080600080600060e0888a031215620024d857600080fd5b6000620024e88a828b0162002191565b9750506020620024fb8a828b0162002203565b96505060406200250e8a828b0162002203565b9550506060620025218a828b0162002203565b945050608088013567ffffffffffffffff8111156200253f57600080fd5b6200254d8a828b0162002136565b93505060a088013567ffffffffffffffff8111156200256b57600080fd5b620025798a828b01620021d6565b92505060c088013567ffffffffffffffff8111156200259757600080fd5b620025a58a828b01620021d6565b91505092959891949750929550565b600060208284031215620025c757600080fd5b6000620025d784828501620021a8565b91505092915050565b600060208284031215620025f357600080fd5b60006200260384828501620021bf565b91505092915050565b600080604083850312156200262057600080fd5b6000620026308582860162002203565b925050602062002643858286016200211f565b9150509250929050565b62002658816200302d565b82525050565b620026736200266d826200302d565b620031b2565b82525050565b620026848162003041565b82525050565b62002695816200304d565b82525050565b620026b0620026aa826200304d565b620031c6565b82525050565b6000620026c38262002eca565b620026cf818562002ee0565b9350620026e1818560208601620030f8565b80840191505092915050565b620026f881620030c1565b82525050565b60006200270b8262002ed5565b62002717818562002eeb565b935062002729818560208601620030f8565b62002734816200327b565b840191505092915050565b60006200274e602f8362002eeb565b91506200275b8262003299565b604082019050919050565b60006200277560148362002eeb565b91506200278282620032e8565b602082019050919050565b60006200279c60268362002eeb565b9150620027a98262003311565b604082019050919050565b6000620027c360148362002eeb565b9150620027d08262003360565b602082019050919050565b6000620027ea60308362002eeb565b9150620027f78262003389565b604082019050919050565b60006200281160138362002eeb565b91506200281e82620033d8565b602082019050919050565b60006200283860138362002eeb565b9150620028458262003401565b602082019050919050565b60006200285f601d8362002eeb565b91506200286c826200342a565b602082019050919050565b60006200288660138362002eeb565b9150620028938262003453565b602082019050919050565b6000620028ad601f8362002eeb565b9150620028ba826200347c565b602082019050919050565b6000620028d4602a8362002eeb565b9150620028e182620034a5565b604082019050919050565b6000620028fb60158362002eeb565b91506200290882620034f4565b602082019050919050565b600062002922602f8362002eeb565b91506200292f826200351d565b604082019050919050565b60006200294960188362002eeb565b915062002956826200356c565b602082019050919050565b6200296c81620030b7565b82525050565b620029876200298182620030b7565b620031e4565b82525050565b60006200299b82876200269b565b602082019150620029ad828662002972565b602082019150620029bf82856200265e565b601482019150620029d1828462002972565b60208201915081905095945050505050565b6000620029f18284620026b6565b915081905092915050565b600062002a0a828562002972565b60208201915062002a1c82846200265e565b6014820191508190509392505050565b600060608201905062002a4360008301866200264d565b62002a5260208301856200264d565b62002a61604083018462002961565b949350505050565b600060408201905062002a8060008301856200264d565b62002a8f602083018462002961565b9392505050565b600060808201905062002aad60008301876200264d565b62002abc602083018662002961565b62002acb604083018562002961565b62002ada606083018462002961565b95945050505050565b600060208201905062002afa600083018462002679565b92915050565b600060208201905062002b1760008301846200268a565b92915050565b600060c08201905062002b3460008301896200268a565b62002b4360208301886200268a565b62002b52604083018762002961565b62002b6160608301866200264d565b62002b70608083018562002961565b62002b7f60a083018462002961565b979650505050505050565b600060208201905062002ba16000830184620026ed565b92915050565b6000602082019050818103600083015262002bc38184620026fe565b905092915050565b6000604082019050818103600083015262002be78185620026fe565b9050818103602083015262002bfd8184620026fe565b90509392505050565b6000602082019050818103600083015262002c21816200273f565b9050919050565b6000602082019050818103600083015262002c438162002766565b9050919050565b6000602082019050818103600083015262002c65816200278d565b9050919050565b6000602082019050818103600083015262002c8781620027b4565b9050919050565b6000602082019050818103600083015262002ca981620027db565b9050919050565b6000602082019050818103600083015262002ccb8162002802565b9050919050565b6000602082019050818103600083015262002ced8162002829565b9050919050565b6000602082019050818103600083015262002d0f8162002850565b9050919050565b6000602082019050818103600083015262002d318162002877565b9050919050565b6000602082019050818103600083015262002d53816200289e565b9050919050565b6000602082019050818103600083015262002d7581620028c5565b9050919050565b6000602082019050818103600083015262002d9781620028ec565b9050919050565b6000602082019050818103600083015262002db98162002913565b9050919050565b6000602082019050818103600083015262002ddb816200293a565b9050919050565b600060208201905062002df9600083018462002961565b92915050565b600060608201905062002e16600083018662002961565b62002e2560208301856200264d565b62002e3460408301846200268a565b949350505050565b600062002e4862002e5b565b905062002e5682826200312e565b919050565b6000604051905090565b600067ffffffffffffffff82111562002e835762002e826200324c565b5b602082029050602081019050919050565b600067ffffffffffffffff82111562002eb25762002eb16200324c565b5b62002ebd826200327b565b9050602081019050919050565b600081519050919050565b600081519050919050565b600081905092915050565b600082825260208201905092915050565b600062002f0982620030b7565b915062002f1683620030b7565b9250827fffffffffffffffffffffffffffffffffffffffffffffffffffffffffffffffff0382111562002f4e5762002f4d620031ee565b5b828201905092915050565b600062002f6682620030b7565b915062002f7383620030b7565b92508262002f865762002f856200321d565b5b828204905092915050565b600062002f9e82620030b7565b915062002fab83620030b7565b9250817fffffffffffffffffffffffffffffffffffffffffffffffffffffffffffffffff048311821515161562002fe75762002fe6620031ee565b5b828202905092915050565b600062002fff82620030b7565b91506200300c83620030b7565b925082821015620030225762003021620031ee565b5b828203905092915050565b60006200303a8262003097565b9050919050565b60008115159050919050565b6000819050919050565b60007fffffffff0000000000000000000000000000000000000000000000000000000082169050919050565b600062003090826200302d565b9050919050565b600073ffffffffffffffffffffffffffffffffffffffff82169050919050565b6000819050919050565b6000620030ce82620030d5565b9050919050565b6000620030e28262003097565b9050919050565b82818337600083830152505050565b60005b8381101562003118578082015181840152602081019050620030fb565b8381111562003128576000848401525b50505050565b62003139826200327b565b810181811067ffffffffffffffff821117156200315b576200315a6200324c565b5b80604052505050565b60006200317182620030b7565b91507fffffffffffffffffffffffffffffffffffffffffffffffffffffffffffffffff821415620031a757620031a6620031ee565b5b600182019050919050565b6000620031bf82620031d0565b9050919050565b6000819050919050565b6000620031dd826200328c565b9050919050565b6000819050919050565b7f4e487b7100000000000000000000000000000000000000000000000000000000600052601160045260246000fd5b7f4e487b7100000000000000000000000000000000000000000000000000000000600052601260045260246000fd5b7f4e487b7100000000000000000000000000000000000000000000000000000000600052604160045260246000fd5b6000601f19601f8301169050919050565b60008160601b9050919050565b7f416363657373436f6e74726f6c3a2073656e646572206d75737420626520616e60008201527f2061646d696e20746f206772616e740000000000000000000000000000000000602082015250565b7f6275726e3a20616d6f756e7420746f6f206c6f77000000000000000000000000600082015250565b7f416464726573733a20696e73756666696369656e742062616c616e636520666f60008201527f722063616c6c0000000000000000000000000000000000000000000000000000602082015250565b7f73656e643a20616d6f756e7420746f6f206c6f77000000000000000000000000600082015250565b7f416363657373436f6e74726f6c3a2073656e646572206d75737420626520616e60008201527f2061646d696e20746f207265766f6b6500000000000000000000000000000000602082015250565b7f6275726e3a2077726f6e6720636861696e496400000000000000000000000000600082015250565b7f6f6e6c7941646d696e3a2062616420726f6c6500000000000000000000000000600082015250565b7f416464726573733a2063616c6c20746f206e6f6e2d636f6e7472616374000000600082015250565b7f6d696e743a206e6f7420636f6e6669726d656400000000000000000000000000600082015250565b7f73656e643a2077726f6e67207461726765642074617267657420636861696e00600082015250565b7f5361666545524332303a204552433230206f7065726174696f6e20646964206e60008201527f6f74207375636365656400000000000000000000000000000000000000000000602082015250565b7f73656e643a20616d6f756e74206d69736d617463680000000000000000000000600082015250565b7f416363657373436f6e74726f6c3a2063616e206f6e6c792072656e6f756e636560008201527f20726f6c657320666f722073656c660000000000000000000000000000000000602082015250565b7f6f6e6c7941676772656761746f723a2062616420726f6c650000000000000000600082015250565b620035a0816200302d565b8114620035ac57600080fd5b50565b620035ba8162003041565b8114620035c657600080fd5b50565b620035d4816200304d565b8114620035e057600080fd5b50565b620035ee8162003057565b8114620035fa57600080fd5b50565b620036088162003083565b81146200361457600080fd5b50565b6200362281620030b7565b81146200362e57600080fd5b5056fe60806040523480156200001157600080fd5b506040516200272938038062002729833981810160405281019062000037919062000197565b818181600490805190602001906200005192919062000075565b5080600590805190602001906200006a92919062000075565b50505050506200037a565b82805462000083906200029f565b90600052602060002090601f016020900481019282620000a75760008555620000f3565b82601f10620000c257805160ff1916838001178555620000f3565b82800160010185558215620000f3579182015b82811115620000f2578251825591602001919060010190620000d5565b5b50905062000102919062000106565b5090565b5b808211156200012157600081600090555060010162000107565b5090565b60006200013c620001368462000233565b6200020a565b9050828152602081018484840111156200015557600080fd5b6200016284828562000269565b509392505050565b600082601f8301126200017c57600080fd5b81516200018e84826020860162000125565b91505092915050565b60008060408385031215620001ab57600080fd5b600083015167ffffffffffffffff811115620001c657600080fd5b620001d4858286016200016a565b925050602083015167ffffffffffffffff811115620001f257600080fd5b62000200858286016200016a565b9150509250929050565b60006200021662000229565b9050620002248282620002d5565b919050565b6000604051905090565b600067ffffffffffffffff8211156200025157620002506200033a565b5b6200025c8262000369565b9050602081019050919050565b60005b83811015620002895780820151818401526020810190506200026c565b8381111562000299576000848401525b50505050565b60006002820490506001821680620002b857607f821691505b60208210811415620002cf57620002ce6200030b565b5b50919050565b620002e08262000369565b810181811067ffffffffffffffff821117156200030257620003016200033a565b5b80604052505050565b7f4e487b7100000000000000000000000000000000000000000000000000000000600052602260045260246000fd5b7f4e487b7100000000000000000000000000000000000000000000000000000000600052604160045260246000fd5b6000601f19601f8301169050919050565b61239f806200038a6000396000f3fe608060405234801561001057600080fd5b50600436106101375760003560e01c806340c10f19116100b8578063a217fddf1161007c578063a217fddf14610374578063a457c2d714610392578063a9059cbb146103c2578063d5391393146103f2578063d547741f14610410578063dd62ed3e1461042c57610137565b806340c10f19146102be57806342966c68146102da57806370a08231146102f657806391d148541461032657806395d89b411461035657610137565b8063248a9ca3116100ff578063248a9ca3146102085780632f2ff15d14610238578063313ce5671461025457806336568abe14610272578063395093511461028e57610137565b806301ffc9a71461013c57806306fdde031461016c578063095ea7b31461018a57806318160ddd146101ba57806323b872dd146101d8575b600080fd5b61015660048036038101906101519190611803565b61045c565b6040516101639190611ab4565b60405180910390f35b6101746104d6565b6040516101819190611aea565b60405180910390f35b6101a4600480360381019061019f9190611762565b610568565b6040516101b19190611ab4565b60405180910390f35b6101c2610586565b6040516101cf9190611ccc565b60405180910390f35b6101f260048036038101906101ed9190611713565b610590565b6040516101ff9190611ab4565b60405180910390f35b610222600480360381019061021d919061179e565b610691565b60405161022f9190611acf565b60405180910390f35b610252600480360381019061024d91906117c7565b6106b0565b005b61025c610716565b6040516102699190611ce7565b60405180910390f35b61028c600480360381019061028791906117c7565b61071f565b005b6102a860048036038101906102a39190611762565b6107a2565b6040516102b59190611ab4565b60405180910390f35b6102d860048036038101906102d39190611762565b61084e565b005b6102f460048036038101906102ef919061182c565b6108c5565b005b610310600480360381019061030b91906116ae565b61093b565b60405161031d9190611ccc565b60405180910390f35b610340600480360381019061033b91906117c7565b610984565b60405161034d9190611ab4565b60405180910390f35b61035e6109ee565b60405161036b9190611aea565b60405180910390f35b61037c610a80565b6040516103899190611acf565b60405180910390f35b6103ac60048036038101906103a79190611762565b610a87565b6040516103b99190611ab4565b60405180910390f35b6103dc60048036038101906103d79190611762565b610b7b565b6040516103e99190611ab4565b60405180910390f35b6103fa610b99565b6040516104079190611acf565b60405180910390f35b61042a600480360381019061042591906117c7565b610bbd565b005b610446600480360381019061044191906116d7565b610c23565b6040516104539190611ccc565b60405180910390f35b60007f7965db0b000000000000000000000000000000000000000000000000000000007bffffffffffffffffffffffffffffffffffffffffffffffffffffffff1916827bffffffffffffffffffffffffffffffffffffffffffffffffffffffff191614806104cf57506104ce82610caa565b5b9050919050565b6060600480546104e590611e66565b80601f016020809104026020016040519081016040528092919081815260200182805461051190611e66565b801561055e5780601f106105335761010080835404028352916020019161055e565b820191906000526020600020905b81548152906001019060200180831161054157829003601f168201915b5050505050905090565b600061057c610575610d14565b8484610d1c565b6001905092915050565b6000600354905090565b600061059d848484610ee7565b6000600260008673ffffffffffffffffffffffffffffffffffffffff1673ffffffffffffffffffffffffffffffffffffffff16815260200190815260200160002060006105e8610d14565b73ffffffffffffffffffffffffffffffffffffffff1673ffffffffffffffffffffffffffffffffffffffff16815260200190815260200160002054905082811015610668576040517f08c379a000000000000000000000000000000000000000000000000000000000815260040161065f90611bcc565b60405180910390fd5b61068585610674610d14565b85846106809190611d74565b610d1c565b60019150509392505050565b6000806000838152602001908152602001600020600101549050919050565b6106c96106bc83610691565b6106c4610d14565b610984565b610708576040517f08c379a00000000000000000000000000000000000000000000000000000000081526004016106ff90611b2c565b60405180910390fd5b6107128282611169565b5050565b60006012905090565b610727610d14565b73ffffffffffffffffffffffffffffffffffffffff168173ffffffffffffffffffffffffffffffffffffffff1614610794576040517f08c379a000000000000000000000000000000000000000000000000000000000815260040161078b90611c6c565b60405180910390fd5b61079e8282611249565b5050565b60006108446107af610d14565b8484600260006107bd610d14565b73ffffffffffffffffffffffffffffffffffffffff1673ffffffffffffffffffffffffffffffffffffffff16815260200190815260200160002060008873ffffffffffffffffffffffffffffffffffffffff1673ffffffffffffffffffffffffffffffffffffffff1681526020019081526020016000205461083f9190611d1e565b610d1c565b6001905092915050565b6108787f9f2df0fed2c77648de5860a4cc508cd0818c85b8b8a1ab4ceeef8d981c8956a633610984565b6108b7576040517f08c379a00000000000000000000000000000000000000000000000000000000081526004016108ae90611c8c565b60405180910390fd5b6108c1828261132a565b5050565b6108ef7f9f2df0fed2c77648de5860a4cc508cd0818c85b8b8a1ab4ceeef8d981c8956a633610984565b61092e576040517f08c379a000000000000000000000000000000000000000000000000000000000815260040161092590611c8c565b60405180910390fd5b610938338261147f565b50565b6000600160008373ffffffffffffffffffffffffffffffffffffffff1673ffffffffffffffffffffffffffffffffffffffff168152602001908152602001600020549050919050565b600080600084815260200190815260200160002060000160008373ffffffffffffffffffffffffffffffffffffffff1673ffffffffffffffffffffffffffffffffffffffff16815260200190815260200160002060009054906101000a900460ff16905092915050565b6060600580546109fd90611e66565b80601f0160208091040260200160405190810160405280929190818152602001828054610a2990611e66565b8015610a765780601f10610a4b57610100808354040283529160200191610a76565b820191906000526020600020905b815481529060010190602001808311610a5957829003601f168201915b5050505050905090565b6000801b81565b60008060026000610a96610d14565b73ffffffffffffffffffffffffffffffffffffffff1673ffffffffffffffffffffffffffffffffffffffff16815260200190815260200160002060008573ffffffffffffffffffffffffffffffffffffffff1673ffffffffffffffffffffffffffffffffffffffff16815260200190815260200160002054905082811015610b53576040517f08c379a0000000000000000000000000000000000000000000000000000000008152600401610b4a90611c4c565b60405180910390fd5b610b70610b5e610d14565b858584610b6b9190611d74565b610d1c565b600191505092915050565b6000610b8f610b88610d14565b8484610ee7565b6001905092915050565b7f9f2df0fed2c77648de5860a4cc508cd0818c85b8b8a1ab4ceeef8d981c8956a681565b610bd6610bc983610691565b610bd1610d14565b610984565b610c15576040517f08c379a0000000000000000000000000000000000000000000000000000000008152600401610c0c90611bac565b60405180910390fd5b610c1f8282611249565b5050565b6000600260008473ffffffffffffffffffffffffffffffffffffffff1673ffffffffffffffffffffffffffffffffffffffff16815260200190815260200160002060008373ffffffffffffffffffffffffffffffffffffffff1673ffffffffffffffffffffffffffffffffffffffff16815260200190815260200160002054905092915050565b60007f01ffc9a7000000000000000000000000000000000000000000000000000000007bffffffffffffffffffffffffffffffffffffffffffffffffffffffff1916827bffffffffffffffffffffffffffffffffffffffffffffffffffffffff1916149050919050565b600033905090565b600073ffffffffffffffffffffffffffffffffffffffff168373ffffffffffffffffffffffffffffffffffffffff161415610d8c576040517f08c379a0000000000000000000000000000000000000000000000000000000008152600401610d8390611c2c565b60405180910390fd5b600073ffffffffffffffffffffffffffffffffffffffff168273ffffffffffffffffffffffffffffffffffffffff161415610dfc576040517f08c379a0000000000000000000000000000000000000000000000000000000008152600401610df390611b6c565b60405180910390fd5b80600260008573ffffffffffffffffffffffffffffffffffffffff1673ffffffffffffffffffffffffffffffffffffffff16815260200190815260200160002060008473ffffffffffffffffffffffffffffffffffffffff1673ffffffffffffffffffffffffffffffffffffffff168152602001908152602001600020819055508173ffffffffffffffffffffffffffffffffffffffff168373ffffffffffffffffffffffffffffffffffffffff167f8c5be1e5ebec7d5bd14f71427d1e84f3dd0314c0f7b2291e5b200ac8c7c3b92583604051610eda9190611ccc565b60405180910390a3505050565b600073ffffffffffffffffffffffffffffffffffffffff168373ffffffffffffffffffffffffffffffffffffffff161415610f57576040517f08c379a0000000000000000000000000000000000000000000000000000000008152600401610f4e90611c0c565b60405180910390fd5b600073ffffffffffffffffffffffffffffffffffffffff168273ffffffffffffffffffffffffffffffffffffffff161415610fc7576040517f08c379a0000000000000000000000000000000000000000000000000000000008152600401610fbe90611b0c565b60405180910390fd5b610fd2838383611655565b6000600160008573ffffffffffffffffffffffffffffffffffffffff1673ffffffffffffffffffffffffffffffffffffffff16815260200190815260200160002054905081811015611059576040517f08c379a000000000000000000000000000000000000000000000000000000000815260040161105090611b8c565b60405180910390fd5b81816110659190611d74565b600160008673ffffffffffffffffffffffffffffffffffffffff1673ffffffffffffffffffffffffffffffffffffffff1681526020019081526020016000208190555081600160008573ffffffffffffffffffffffffffffffffffffffff1673ffffffffffffffffffffffffffffffffffffffff16815260200190815260200160002060008282546110f79190611d1e565b925050819055508273ffffffffffffffffffffffffffffffffffffffff168473ffffffffffffffffffffffffffffffffffffffff167fddf252ad1be2c89b69c2b068fc378daa952ba7f163c4a11628f55a4df523b3ef8460405161115b9190611ccc565b60405180910390a350505050565b6111738282610984565b61124557600160008084815260200190815260200160002060000160008373ffffffffffffffffffffffffffffffffffffffff1673ffffffffffffffffffffffffffffffffffffffff16815260200190815260200160002060006101000a81548160ff0219169083151502179055506111ea610d14565b73ffffffffffffffffffffffffffffffffffffffff168173ffffffffffffffffffffffffffffffffffffffff16837f2f8788117e7eff1d82e926ec794901d17c78024a50270940304540a733656f0d60405160405180910390a45b5050565b6112538282610984565b1561132657600080600084815260200190815260200160002060000160008373ffffffffffffffffffffffffffffffffffffffff1673ffffffffffffffffffffffffffffffffffffffff16815260200190815260200160002060006101000a81548160ff0219169083151502179055506112cb610d14565b73ffffffffffffffffffffffffffffffffffffffff168173ffffffffffffffffffffffffffffffffffffffff16837ff6391f5c32d9c69d2a47ea670b442974b53935d1edc7fd64eb21e047a839171b60405160405180910390a45b5050565b600073ffffffffffffffffffffffffffffffffffffffff168273ffffffffffffffffffffffffffffffffffffffff16141561139a576040517f08c379a000000000000000000000000000000000000000000000000000000000815260040161139190611cac565b60405180910390fd5b6113a660008383611655565b80600360008282546113b89190611d1e565b9250508190555080600160008473ffffffffffffffffffffffffffffffffffffffff1673ffffffffffffffffffffffffffffffffffffffff168152602001908152602001600020600082825461140e9190611d1e565b925050819055508173ffffffffffffffffffffffffffffffffffffffff16600073ffffffffffffffffffffffffffffffffffffffff167fddf252ad1be2c89b69c2b068fc378daa952ba7f163c4a11628f55a4df523b3ef836040516114739190611ccc565b60405180910390a35050565b600073ffffffffffffffffffffffffffffffffffffffff168273ffffffffffffffffffffffffffffffffffffffff1614156114ef576040517f08c379a00000000000000000000000000000000000000000000000000000000081526004016114e690611bec565b60405180910390fd5b6114fb82600083611655565b6000600160008473ffffffffffffffffffffffffffffffffffffffff1673ffffffffffffffffffffffffffffffffffffffff16815260200190815260200160002054905081811015611582576040517f08c379a000000000000000000000000000000000000000000000000000000000815260040161157990611b4c565b60405180910390fd5b818161158e9190611d74565b600160008573ffffffffffffffffffffffffffffffffffffffff1673ffffffffffffffffffffffffffffffffffffffff1681526020019081526020016000208190555081600360008282546115e39190611d74565b92505081905550600073ffffffffffffffffffffffffffffffffffffffff168373ffffffffffffffffffffffffffffffffffffffff167fddf252ad1be2c89b69c2b068fc378daa952ba7f163c4a11628f55a4df523b3ef846040516116489190611ccc565b60405180910390a3505050565b505050565b6000813590506116698161230d565b92915050565b60008135905061167e81612324565b92915050565b6000813590506116938161233b565b92915050565b6000813590506116a881612352565b92915050565b6000602082840312156116c057600080fd5b60006116ce8482850161165a565b91505092915050565b600080604083850312156116ea57600080fd5b60006116f88582860161165a565b92505060206117098582860161165a565b9150509250929050565b60008060006060848603121561172857600080fd5b60006117368682870161165a565b93505060206117478682870161165a565b925050604061175886828701611699565b9150509250925092565b6000806040838503121561177557600080fd5b60006117838582860161165a565b925050602061179485828601611699565b9150509250929050565b6000602082840312156117b057600080fd5b60006117be8482850161166f565b91505092915050565b600080604083850312156117da57600080fd5b60006117e88582860161166f565b92505060206117f98582860161165a565b9150509250929050565b60006020828403121561181557600080fd5b600061182384828501611684565b91505092915050565b60006020828403121561183e57600080fd5b600061184c84828501611699565b91505092915050565b61185e81611dba565b82525050565b61186d81611dc6565b82525050565b600061187e82611d02565b6118888185611d0d565b9350611898818560208601611e33565b6118a181611ef6565b840191505092915050565b60006118b9602383611d0d565b91506118c482611f07565b604082019050919050565b60006118dc602f83611d0d565b91506118e782611f56565b604082019050919050565b60006118ff602283611d0d565b915061190a82611fa5565b604082019050919050565b6000611922602283611d0d565b915061192d82611ff4565b604082019050919050565b6000611945602683611d0d565b915061195082612043565b604082019050919050565b6000611968603083611d0d565b915061197382612092565b604082019050919050565b600061198b602883611d0d565b9150611996826120e1565b604082019050919050565b60006119ae602183611d0d565b91506119b982612130565b604082019050919050565b60006119d1602583611d0d565b91506119dc8261217f565b604082019050919050565b60006119f4602483611d0d565b91506119ff826121ce565b604082019050919050565b6000611a17602583611d0d565b9150611a228261221d565b604082019050919050565b6000611a3a602f83611d0d565b9150611a458261226c565b604082019050919050565b6000611a5d601883611d0d565b9150611a68826122bb565b602082019050919050565b6000611a80601f83611d0d565b9150611a8b826122e4565b602082019050919050565b611a9f81611e1c565b82525050565b611aae81611e26565b82525050565b6000602082019050611ac96000830184611855565b92915050565b6000602082019050611ae46000830184611864565b92915050565b60006020820190508181036000830152611b048184611873565b905092915050565b60006020820190508181036000830152611b25816118ac565b9050919050565b60006020820190508181036000830152611b45816118cf565b9050919050565b60006020820190508181036000830152611b65816118f2565b9050919050565b60006020820190508181036000830152611b8581611915565b9050919050565b60006020820190508181036000830152611ba581611938565b9050919050565b60006020820190508181036000830152611bc58161195b565b9050919050565b60006020820190508181036000830152611be58161197e565b9050919050565b60006020820190508181036000830152611c05816119a1565b9050919050565b60006020820190508181036000830152611c25816119c4565b9050919050565b60006020820190508181036000830152611c45816119e7565b9050919050565b60006020820190508181036000830152611c6581611a0a565b9050919050565b60006020820190508181036000830152611c8581611a2d565b9050919050565b60006020820190508181036000830152611ca581611a50565b9050919050565b60006020820190508181036000830152611cc581611a73565b9050919050565b6000602082019050611ce16000830184611a96565b92915050565b6000602082019050611cfc6000830184611aa5565b92915050565b600081519050919050565b600082825260208201905092915050565b6000611d2982611e1c565b9150611d3483611e1c565b9250827fffffffffffffffffffffffffffffffffffffffffffffffffffffffffffffffff03821115611d6957611d68611e98565b5b828201905092915050565b6000611d7f82611e1c565b9150611d8a83611e1c565b925082821015611d9d57611d9c611e98565b5b828203905092915050565b6000611db382611dfc565b9050919050565b60008115159050919050565b6000819050919050565b60007fffffffff0000000000000000000000000000000000000000000000000000000082169050919050565b600073ffffffffffffffffffffffffffffffffffffffff82169050919050565b6000819050919050565b600060ff82169050919050565b60005b83811015611e51578082015181840152602081019050611e36565b83811115611e60576000848401525b50505050565b60006002820490506001821680611e7e57607f821691505b60208210811415611e9257611e91611ec7565b5b50919050565b7f4e487b7100000000000000000000000000000000000000000000000000000000600052601160045260246000fd5b7f4e487b7100000000000000000000000000000000000000000000000000000000600052602260045260246000fd5b6000601f19601f8301169050919050565b7f45524332303a207472616e7366657220746f20746865207a65726f206164647260008201527f6573730000000000000000000000000000000000000000000000000000000000602082015250565b7f416363657373436f6e74726f6c3a2073656e646572206d75737420626520616e60008201527f2061646d696e20746f206772616e740000000000000000000000000000000000602082015250565b7f45524332303a206275726e20616d6f756e7420657863656564732062616c616e60008201527f6365000000000000000000000000000000000000000000000000000000000000602082015250565b7f45524332303a20617070726f766520746f20746865207a65726f20616464726560008201527f7373000000000000000000000000000000000000000000000000000000000000602082015250565b7f45524332303a207472616e7366657220616d6f756e742065786365656473206260008201527f616c616e63650000000000000000000000000000000000000000000000000000602082015250565b7f416363657373436f6e74726f6c3a2073656e646572206d75737420626520616e60008201527f2061646d696e20746f207265766f6b6500000000000000000000000000000000602082015250565b7f45524332303a207472616e7366657220616d6f756e742065786365656473206160008201527f6c6c6f77616e6365000000000000000000000000000000000000000000000000602082015250565b7f45524332303a206275726e2066726f6d20746865207a65726f2061646472657360008201527f7300000000000000000000000000000000000000000000000000000000000000602082015250565b7f45524332303a207472616e736665722066726f6d20746865207a65726f20616460008201527f6472657373000000000000000000000000000000000000000000000000000000602082015250565b7f45524332303a20617070726f76652066726f6d20746865207a65726f2061646460008201527f7265737300000000000000000000000000000000000000000000000000000000602082015250565b7f45524332303a2064656372656173656420616c6c6f77616e63652062656c6f7760008201527f207a65726f000000000000000000000000000000000000000000000000000000602082015250565b7f416363657373436f6e74726f6c3a2063616e206f6e6c792072656e6f756e636560008201527f20726f6c657320666f722073656c660000000000000000000000000000000000602082015250565b7f6f6e6c7941676772656761746f723a2062616420726f6c650000000000000000600082015250565b7f45524332303a206d696e7420746f20746865207a65726f206164647265737300600082015250565b61231681611da8565b811461232157600080fd5b50565b61232d81611dc6565b811461233857600080fd5b50565b61234481611dd0565b811461234f57600080fd5b50565b61235b81611e1c565b811461236657600080fd5b5056fea264697066735822122007cd3277e675c5e05d581a8ba3cb86407c02b52d020adca5f263709b7c91676464736f6c63430008020033a264697066735822122015b59d8820604ea49e6b4dc9b962d113da30dbaaa586b71304e0cc979ca2ef8464736f6c63430008020033",
  "immutableReferences": {},
  "source": "// SPDX-License-Identifier: MIT\npragma solidity ^0.8.2;\n\nimport \"@openzeppelin/contracts/token/ERC20/ERC20.sol\";\nimport \"@openzeppelin/contracts/token/ERC20/IERC20.sol\";\nimport \"@openzeppelin/contracts/token/ERC20/utils/SafeERC20.sol\";\nimport \"@openzeppelin/contracts/access/AccessControl.sol\";\nimport \"../interfaces/IWhiteDebridge.sol\";\nimport \"../interfaces/IWhiteAggregator.sol\";\nimport \"../periphery/WrappedAsset.sol\";\n\ncontract WhiteDebridge is AccessControl, IWhiteDebridge {\n    using SafeERC20 for IERC20;\n\n    struct DebridgeInfo {\n        address tokenAddress; // asset address on the current chain\n        uint256 chainId; // native chain id\n        uint256 minAmount; // minimal amount to transfer\n        uint256 transferFee; // transfer fee rate\n        mapping(uint256 => bool) isSupported; // wheter the chain for the asset is supported\n    }\n\n    uint256 public constant DENOMINATOR = 1e18;\n    uint256 public chainId;\n    uint256 public collectedFees;\n    uint256 public nonce;\n    IWhiteAggregator public aggregator;\n    mapping(bytes32 => DebridgeInfo) public getDebridge; // debridgeId (i.e. hash(native chainId, native tokenAddress)) => token\n    mapping(bytes32 => bool) public isMintConfirmed; // mintId  => confirmed\n    mapping(bytes32 => bool) public isBurntConfirmed; // mintId  => confirmed\n\n    event Sent(\n        bytes32 sentId,\n        bytes32 debridgeId,\n        uint256 amount,\n        address receiver,\n        uint256 nonce,\n        uint256 chainIdTo\n    );\n    event Minted(uint256 amount, address receiver, bytes32 debridgeId);\n    event Burnt(\n        bytes32 burntId,\n        bytes32 debridgeId,\n        uint256 amount,\n        address receiver,\n        uint256 nonce,\n        uint256 chainIdTo\n    );\n    event Claimed(uint256 amount, address receiver, bytes32 debridgeId);\n\n    modifier onlyAggregator {\n        require(address(aggregator) == msg.sender, \"onlyAggregator: bad role\");\n        _;\n    }\n    modifier onlyAdmin {\n        require(hasRole(DEFAULT_ADMIN_ROLE, msg.sender), \"onlyAdmin: bad role\");\n        _;\n    }\n\n    constructor(\n        uint256 _chainId,\n        uint256 _minAmount,\n        uint256 _transferFee,\n        IWhiteAggregator _aggregator,\n        uint256[] memory _supportedChainIds\n    ) {\n        chainId = _chainId;\n        bytes32 debridgeId = keccak256(abi.encodePacked(_chainId, address(0)));\n        _addAsset(\n            debridgeId,\n            address(0),\n            chainId,\n            _minAmount,\n            _transferFee,\n            _supportedChainIds\n        );\n        aggregator = _aggregator;\n        _setupRole(DEFAULT_ADMIN_ROLE, msg.sender);\n    }\n\n    function send(\n        address _tokenAddress,\n        address _receiver,\n        uint256 _amount,\n        uint256 _chainIdTo\n    ) external payable override {\n        bytes32 debridgeId =\n            keccak256(abi.encodePacked(chainId, _tokenAddress));\n        DebridgeInfo storage debridge = getDebridge[debridgeId];\n        require(\n            debridge.isSupported[_chainIdTo],\n            \"send: wrong targed target chain\"\n        );\n        require(\n            debridge.isSupported[chainId],\n            \"send: wrong targed target chain\"\n        );\n        require(_amount > debridge.minAmount, \"send: amount too low\");\n        if (_tokenAddress == address(0)) {\n            require(_amount == msg.value, \"send: amount mismatch\");\n        } else {\n            IERC20(_tokenAddress).safeTransferFrom(\n                msg.sender,\n                address(this),\n                _amount\n            );\n        }\n        uint256 transferFee = (_amount * debridge.transferFee) / DENOMINATOR;\n        if (transferFee > 0) {\n            collectedFees += transferFee;\n            _amount -= transferFee;\n        }\n        bytes32 sentId =\n            keccak256(abi.encodePacked(debridgeId, _amount, _receiver, nonce));\n        emit Sent(sentId, debridgeId, _amount, _receiver, nonce, _chainIdTo);\n        nonce++;\n    }\n\n    function claim(\n        bytes32 _debridgeId,\n        uint256 _amount,\n        address _receiver,\n        uint256 _nonce\n    ) external override {\n        bytes32 burntId =\n            keccak256(\n                abi.encodePacked(_debridgeId, _amount, _receiver, _nonce)\n            );\n        require(aggregator.isBurntConfirmed(burntId), \"mint: not confirmed\");\n        DebridgeInfo storage debridge = getDebridge[_debridgeId];\n        require(debridge.chainId == chainId, \"send: wrong targed target chain\");\n        if (debridge.tokenAddress == address(0)) {\n            payable(_receiver).transfer(_amount);\n        } else {\n            IERC20(debridge.tokenAddress).safeTransfer(_receiver, _amount);\n        }\n        uint256 transferFee = (_amount * debridge.transferFee) / DENOMINATOR;\n        if (transferFee > 0) {\n            collectedFees += transferFee;\n            _amount -= transferFee;\n        }\n        emit Claimed(_amount, _receiver, _debridgeId);\n    }\n\n    function burn(\n        bytes32 _debridgeId,\n        address _receiver,\n        uint256 _amount\n    ) external override {\n        DebridgeInfo storage debridge = getDebridge[_debridgeId];\n        require(debridge.chainId != chainId, \"burn: wrong chainId\");\n        require(_amount > debridge.minAmount, \"burn: amount too low\");\n        IWrappedAsset wrappedAsset = IWrappedAsset(debridge.tokenAddress);\n        wrappedAsset.transferFrom(msg.sender, address(this), _amount);\n        uint256 transferFee = (_amount * debridge.transferFee) / DENOMINATOR;\n        if (transferFee > 0) {\n            collectedFees += transferFee;\n            _amount -= transferFee;\n        }\n        bytes32 burntId =\n            keccak256(abi.encodePacked(_debridgeId, _amount, _receiver, nonce));\n        emit Burnt(\n            burntId,\n            _debridgeId,\n            _amount,\n            _receiver,\n            nonce,\n            debridge.chainId\n        );\n        nonce++;\n    }\n\n    function submitMint(bytes32 _mintId) external override onlyAggregator() {\n        isMintConfirmed[_mintId] = true;\n    }\n\n    function submitBurnt(bytes32 _burntId) external override onlyAggregator() {\n        isBurntConfirmed[_burntId] = true;\n    }\n\n    function mint(\n        bytes32 _debridgeId,\n        uint256 _amount,\n        address _receiver,\n        uint256 _nonce\n    ) external override {\n        bytes32 mintId =\n            keccak256(\n                abi.encodePacked(_debridgeId, _amount, _receiver, _nonce)\n            );\n        require(aggregator.isMintConfirmed(mintId), \"mint: not confirmed\");\n        DebridgeInfo storage debridge = getDebridge[_debridgeId];\n        IWrappedAsset(debridge.tokenAddress).mint(_receiver, _amount);\n        uint256 transferFee = (_amount * debridge.transferFee) / DENOMINATOR;\n        if (transferFee > 0) {\n            collectedFees += transferFee;\n            _amount -= transferFee;\n        }\n        emit Minted(_amount, _receiver, _debridgeId);\n    }\n\n    function addNativelAsset(\n        address _tokenAddress,\n        uint256 _minAmount,\n        uint256 _transferFee,\n        uint256[] memory _supportedChainIds\n    ) external override onlyAdmin() {\n        bytes32 debridgeId =\n            keccak256(abi.encodePacked(chainId, _tokenAddress));\n        _addAsset(\n            debridgeId,\n            _tokenAddress,\n            chainId,\n            _minAmount,\n            _transferFee,\n            _supportedChainIds\n        );\n    }\n\n    function setChainIdSupport(\n        bytes32 _debridgeId,\n        uint256 _chainId,\n        bool _isSupported\n    ) external override onlyAdmin() {\n        DebridgeInfo storage debridge = getDebridge[_debridgeId];\n        debridge.isSupported[_chainId] = _isSupported;\n    }\n\n    function addExternalAsset(\n        bytes32 _debridgeId,\n        uint256 _chainId,\n        uint256 _minAmount,\n        uint256 _transferFee,\n        uint256[] memory _supportedChainIds,\n        string memory _name,\n        string memory _symbol\n    ) external override onlyAdmin() {\n        address tokenAddress = address(new WrappedAsset(_name, _symbol));\n        _addAsset(\n            _debridgeId,\n            tokenAddress,\n            _chainId,\n            _minAmount,\n            _transferFee,\n            _supportedChainIds\n        );\n    }\n\n    function setAggregator(IWhiteAggregator _aggregator) external {\n        aggregator = _aggregator;\n    }\n\n    function _addAsset(\n        bytes32 _debridgeId,\n        address _tokenAddress,\n        uint256 _chainId,\n        uint256 _minAmount,\n        uint256 _transferFee,\n        uint256[] memory _supportedChainIds\n    ) internal {\n        DebridgeInfo storage debridge = getDebridge[_debridgeId];\n        debridge.tokenAddress = _tokenAddress;\n        debridge.chainId = _chainId;\n        debridge.minAmount = _minAmount;\n        debridge.transferFee = _transferFee;\n        debridge.isSupported[chainId] = true;\n        for (uint256 i = 0; i < _supportedChainIds.length; i++) {\n            debridge.isSupported[_supportedChainIds[i]] = true;\n        }\n    }\n\n    function getDebridgeId(uint256 _chainId, address _tokenAddress)\n        external\n        pure\n        returns (bytes32)\n    {\n        return keccak256(abi.encodePacked(_chainId, _tokenAddress));\n    }\n}\n",
  "sourcePath": "/Users/kstasi/Documents/work/debridge-contracts/contracts/transfers/WhiteDebridge.sol",
  "compiler": {
    "name": "solc",
    "version": "0.8.2+commit.661d1103.Emscripten.clang"
  },
  "schemaVersion": "3.3.4",
  "updatedAt": "2021-03-18T11:08:13.887Z",
  "networkType": "ethereum",
  "devdoc": {
    "kind": "dev",
    "methods": {
      "getRoleAdmin(bytes32)": {
        "details": "Returns the admin role that controls `role`. See {grantRole} and {revokeRole}. To change a role's admin, use {_setRoleAdmin}."
      },
      "grantRole(bytes32,address)": {
        "details": "Grants `role` to `account`. If `account` had not been already granted `role`, emits a {RoleGranted} event. Requirements: - the caller must have ``role``'s admin role."
      },
      "hasRole(bytes32,address)": {
        "details": "Returns `true` if `account` has been granted `role`."
      },
      "renounceRole(bytes32,address)": {
        "details": "Revokes `role` from the calling account. Roles are often managed via {grantRole} and {revokeRole}: this function's purpose is to provide a mechanism for accounts to lose their privileges if they are compromised (such as when a trusted device is misplaced). If the calling account had been granted `role`, emits a {RoleRevoked} event. Requirements: - the caller must be `account`."
      },
      "revokeRole(bytes32,address)": {
        "details": "Revokes `role` from `account`. If `account` had been granted `role`, emits a {RoleRevoked} event. Requirements: - the caller must have ``role``'s admin role."
      },
      "supportsInterface(bytes4)": {
        "details": "See {IERC165-supportsInterface}."
      }
    },
    "version": 1
  },
  "userdoc": {
    "kind": "user",
    "methods": {},
    "version": 1
  }
}