{
  "contractName": "WhiteAggregator",
  "abi": [
    {
      "inputs": [
        {
          "internalType": "uint256",
          "name": "_minConfirmations",
          "type": "uint256"
        },
        {
          "internalType": "uint128",
          "name": "_payment",
          "type": "uint128"
        },
        {
          "internalType": "contract IERC20",
          "name": "_link",
          "type": "address"
        }
      ],
      "stateMutability": "nonpayable",
      "type": "constructor"
    },
    {
      "anonymous": false,
      "inputs": [
        {
          "indexed": false,
          "internalType": "bytes32",
          "name": "debridgeId",
          "type": "bytes32"
        },
        {
          "indexed": false,
          "internalType": "bytes32",
          "name": "commitment",
          "type": "bytes32"
        }
      ],
      "name": "Broadcasted",
      "type": "event"
    },
    {
      "anonymous": false,
      "inputs": [
        {
          "indexed": false,
          "internalType": "bytes32",
          "name": "commitment",
          "type": "bytes32"
        },
        {
          "indexed": false,
          "internalType": "bytes32",
          "name": "debridgeId",
          "type": "bytes32"
        },
        {
          "indexed": false,
          "internalType": "address",
          "name": "operator",
          "type": "address"
        }
      ],
      "name": "Confirmed",
      "type": "event"
    },
    {
      "anonymous": false,
      "inputs": [
        {
          "indexed": true,
          "internalType": "bytes32",
          "name": "role",
          "type": "bytes32"
        },
        {
          "indexed": true,
          "internalType": "bytes32",
          "name": "previousAdminRole",
          "type": "bytes32"
        },
        {
          "indexed": true,
          "internalType": "bytes32",
          "name": "newAdminRole",
          "type": "bytes32"
        }
      ],
      "name": "RoleAdminChanged",
      "type": "event"
    },
    {
      "anonymous": false,
      "inputs": [
        {
          "indexed": true,
          "internalType": "bytes32",
          "name": "role",
          "type": "bytes32"
        },
        {
          "indexed": true,
          "internalType": "address",
          "name": "account",
          "type": "address"
        },
        {
          "indexed": true,
          "internalType": "address",
          "name": "sender",
          "type": "address"
        }
      ],
      "name": "RoleGranted",
      "type": "event"
    },
    {
      "anonymous": false,
      "inputs": [
        {
          "indexed": true,
          "internalType": "bytes32",
          "name": "role",
          "type": "bytes32"
        },
        {
          "indexed": true,
          "internalType": "address",
          "name": "account",
          "type": "address"
        },
        {
          "indexed": true,
          "internalType": "address",
          "name": "sender",
          "type": "address"
        }
      ],
      "name": "RoleRevoked",
      "type": "event"
    },
    {
      "inputs": [],
      "name": "DEFAULT_ADMIN_ROLE",
      "outputs": [
        {
          "internalType": "bytes32",
          "name": "",
          "type": "bytes32"
        }
      ],
      "stateMutability": "view",
      "type": "function"
    },
    {
      "inputs": [],
      "name": "ORACLE_ROLE",
      "outputs": [
        {
          "internalType": "bytes32",
          "name": "",
          "type": "bytes32"
        }
      ],
      "stateMutability": "view",
      "type": "function"
    },
    {
      "inputs": [],
      "name": "allocatedFunds",
      "outputs": [
        {
          "internalType": "uint256",
          "name": "",
          "type": "uint256"
        }
      ],
      "stateMutability": "view",
      "type": "function"
    },
    {
      "inputs": [],
      "name": "availableFunds",
      "outputs": [
        {
          "internalType": "uint256",
          "name": "",
          "type": "uint256"
        }
      ],
      "stateMutability": "view",
      "type": "function"
    },
    {
      "inputs": [
        {
          "internalType": "bytes32",
          "name": "",
          "type": "bytes32"
        }
      ],
      "name": "getBurnInfo",
      "outputs": [
        {
          "internalType": "bool",
          "name": "broadcasted",
          "type": "bool"
        },
        {
          "internalType": "uint256",
          "name": "confirmations",
          "type": "uint256"
        },
        {
          "internalType": "bytes32",
          "name": "debridgeId",
          "type": "bytes32"
        },
        {
          "internalType": "uint256",
          "name": "amount",
          "type": "uint256"
        },
        {
          "internalType": "address",
          "name": "receiver",
          "type": "address"
        },
        {
          "internalType": "uint256",
          "name": "nonce",
          "type": "uint256"
        }
      ],
      "stateMutability": "view",
      "type": "function"
    },
    {
      "inputs": [
        {
          "internalType": "bytes32",
          "name": "",
          "type": "bytes32"
        }
      ],
      "name": "getDebridge",
      "outputs": [
        {
          "internalType": "contract IWhiteDebridge",
          "name": "",
          "type": "address"
        }
      ],
      "stateMutability": "view",
      "type": "function"
    },
    {
      "inputs": [
        {
          "internalType": "bytes32",
          "name": "",
          "type": "bytes32"
        }
      ],
      "name": "getMintInfo",
      "outputs": [
        {
          "internalType": "bool",
          "name": "broadcasted",
          "type": "bool"
        },
        {
          "internalType": "uint256",
          "name": "confirmations",
          "type": "uint256"
        },
        {
          "internalType": "bytes32",
          "name": "debridgeId",
          "type": "bytes32"
        },
        {
          "internalType": "uint256",
          "name": "amount",
          "type": "uint256"
        },
        {
          "internalType": "address",
          "name": "receiver",
          "type": "address"
        },
        {
          "internalType": "uint256",
          "name": "nonce",
          "type": "uint256"
        }
      ],
      "stateMutability": "view",
      "type": "function"
    },
    {
      "inputs": [
        {
          "internalType": "bytes32",
          "name": "role",
          "type": "bytes32"
        }
      ],
      "name": "getRoleAdmin",
      "outputs": [
        {
          "internalType": "bytes32",
          "name": "",
          "type": "bytes32"
        }
      ],
      "stateMutability": "view",
      "type": "function"
    },
    {
      "inputs": [
        {
          "internalType": "address",
          "name": "",
          "type": "address"
        }
      ],
      "name": "getRracleInfo",
      "outputs": [
        {
          "internalType": "uint128",
          "name": "withdrawable",
          "type": "uint128"
        },
        {
          "internalType": "address",
          "name": "admin",
          "type": "address"
        },
        {
          "internalType": "address",
          "name": "pendingAdmin",
          "type": "address"
        }
      ],
      "stateMutability": "view",
      "type": "function"
    },
    {
      "inputs": [
        {
          "internalType": "bytes32",
          "name": "role",
          "type": "bytes32"
        },
        {
          "internalType": "address",
          "name": "account",
          "type": "address"
        }
      ],
      "name": "grantRole",
      "outputs": [],
      "stateMutability": "nonpayable",
      "type": "function"
    },
    {
      "inputs": [
        {
          "internalType": "bytes32",
          "name": "role",
          "type": "bytes32"
        },
        {
          "internalType": "address",
          "name": "account",
          "type": "address"
        }
      ],
      "name": "hasRole",
      "outputs": [
        {
          "internalType": "bool",
          "name": "",
          "type": "bool"
        }
      ],
      "stateMutability": "view",
      "type": "function"
    },
    {
      "inputs": [],
      "name": "link",
      "outputs": [
        {
          "internalType": "contract IERC20",
          "name": "",
          "type": "address"
        }
      ],
      "stateMutability": "view",
      "type": "function"
    },
    {
      "inputs": [],
      "name": "minConfirmations",
      "outputs": [
        {
          "internalType": "uint256",
          "name": "",
          "type": "uint256"
        }
      ],
      "stateMutability": "view",
      "type": "function"
    },
    {
      "inputs": [
        {
          "internalType": "address",
          "name": "",
          "type": "address"
        },
        {
          "internalType": "uint256",
          "name": "",
          "type": "uint256"
        },
        {
          "internalType": "bytes",
          "name": "_data",
          "type": "bytes"
        }
      ],
      "name": "onTokenTransfer",
      "outputs": [],
      "stateMutability": "nonpayable",
      "type": "function"
    },
    {
      "inputs": [],
      "name": "payment",
      "outputs": [
        {
          "internalType": "uint128",
          "name": "",
          "type": "uint128"
        }
      ],
      "stateMutability": "view",
      "type": "function"
    },
    {
      "inputs": [
        {
          "internalType": "bytes32",
          "name": "role",
          "type": "bytes32"
        },
        {
          "internalType": "address",
          "name": "account",
          "type": "address"
        }
      ],
      "name": "renounceRole",
      "outputs": [],
      "stateMutability": "nonpayable",
      "type": "function"
    },
    {
      "inputs": [
        {
          "internalType": "bytes32",
          "name": "role",
          "type": "bytes32"
        },
        {
          "internalType": "address",
          "name": "account",
          "type": "address"
        }
      ],
      "name": "revokeRole",
      "outputs": [],
      "stateMutability": "nonpayable",
      "type": "function"
    },
    {
      "inputs": [
        {
          "internalType": "uint256",
          "name": "_minConfirmations",
          "type": "uint256"
        }
      ],
      "name": "setMinConfirmations",
      "outputs": [],
      "stateMutability": "nonpayable",
      "type": "function"
    },
    {
      "inputs": [
        {
          "internalType": "uint128",
          "name": "_payment",
          "type": "uint128"
        }
      ],
      "name": "setPayment",
      "outputs": [],
      "stateMutability": "nonpayable",
      "type": "function"
    },
    {
      "inputs": [
        {
          "internalType": "bytes4",
          "name": "interfaceId",
          "type": "bytes4"
        }
      ],
      "name": "supportsInterface",
      "outputs": [
        {
          "internalType": "bool",
          "name": "",
          "type": "bool"
        }
      ],
      "stateMutability": "view",
      "type": "function"
    },
    {
      "inputs": [],
      "name": "updateAvailableFunds",
      "outputs": [],
      "stateMutability": "nonpayable",
      "type": "function"
    },
    {
      "inputs": [
        {
          "internalType": "address",
          "name": "_recipient",
          "type": "address"
        },
        {
          "internalType": "uint256",
          "name": "_amount",
          "type": "uint256"
        }
      ],
      "name": "withdrawFunds",
      "outputs": [],
      "stateMutability": "nonpayable",
      "type": "function"
    },
    {
      "inputs": [
        {
          "internalType": "address",
          "name": "_oracle",
          "type": "address"
        },
        {
          "internalType": "address",
          "name": "_recipient",
          "type": "address"
        },
        {
          "internalType": "uint256",
          "name": "_amount",
          "type": "uint256"
        }
      ],
      "name": "withdrawPayment",
      "outputs": [],
      "stateMutability": "nonpayable",
      "type": "function"
    },
    {
      "inputs": [
        {
          "internalType": "address",
          "name": "_oracle",
          "type": "address"
        }
      ],
      "name": "withdrawablePayment",
      "outputs": [
        {
          "internalType": "uint256",
          "name": "",
          "type": "uint256"
        }
      ],
      "stateMutability": "view",
      "type": "function"
    },
    {
      "inputs": [
        {
          "internalType": "bytes32",
          "name": "_debridgeId",
          "type": "bytes32"
        },
        {
          "internalType": "uint256",
          "name": "_amount",
          "type": "uint256"
        },
        {
          "internalType": "address",
          "name": "_receiver",
          "type": "address"
        },
        {
          "internalType": "uint256",
          "name": "_nonce",
          "type": "uint256"
        }
      ],
      "name": "submitMint",
      "outputs": [],
      "stateMutability": "nonpayable",
      "type": "function"
    },
    {
      "inputs": [
        {
          "internalType": "bytes32",
          "name": "_debridgeId",
          "type": "bytes32"
        },
        {
          "internalType": "uint256",
          "name": "_amount",
          "type": "uint256"
        },
        {
          "internalType": "address",
          "name": "_receiver",
          "type": "address"
        },
        {
          "internalType": "uint256",
          "name": "_nonce",
          "type": "uint256"
        }
      ],
      "name": "submitBurn",
      "outputs": [],
      "stateMutability": "nonpayable",
      "type": "function"
    },
    {
      "inputs": [
        {
          "internalType": "bytes32",
          "name": "_debridgeId",
          "type": "bytes32"
        },
        {
          "internalType": "contract IWhiteDebridge",
          "name": "_debridge",
          "type": "address"
        }
      ],
      "name": "setDebridge",
      "outputs": [],
      "stateMutability": "nonpayable",
      "type": "function"
    }
  ],
  "bytecode": "0x60806040523480156200001157600080fd5b5060405162002dd338038062002dd383398181016040528101906200003791906200029a565b8282828260018190555081600460006101000a8154816fffffffffffffffffffffffffffffffff02191690836fffffffffffffffffffffffffffffffff16021790555080600560006101000a81548173ffffffffffffffffffffffffffffffffffffffff021916908373ffffffffffffffffffffffffffffffffffffffff160217905550620000d06000801b33620000dc60201b60201c565b505050505050620003ac565b620000ee8282620000f260201b60201c565b5050565b620001048282620001e360201b60201c565b620001df57600160008084815260200190815260200160002060000160008373ffffffffffffffffffffffffffffffffffffffff1673ffffffffffffffffffffffffffffffffffffffff16815260200190815260200160002060006101000a81548160ff021916908315150217905550620001846200024d60201b60201c565b73ffffffffffffffffffffffffffffffffffffffff168173ffffffffffffffffffffffffffffffffffffffff16837f2f8788117e7eff1d82e926ec794901d17c78024a50270940304540a733656f0d60405160405180910390a45b5050565b600080600084815260200190815260200160002060000160008373ffffffffffffffffffffffffffffffffffffffff1673ffffffffffffffffffffffffffffffffffffffff16815260200190815260200160002060009054906101000a900460ff16905092915050565b600033905090565b60008151905062000266816200035e565b92915050565b6000815190506200027d8162000378565b92915050565b600081519050620002948162000392565b92915050565b600080600060608486031215620002b057600080fd5b6000620002c08682870162000283565b9350506020620002d3868287016200026c565b9250506040620002e68682870162000255565b9150509250925092565b6000620002fd8262000334565b9050919050565b60006200031182620002f0565b9050919050565b60006fffffffffffffffffffffffffffffffff82169050919050565b600073ffffffffffffffffffffffffffffffffffffffff82169050919050565b6000819050919050565b620003698162000304565b81146200037557600080fd5b50565b620003838162000318565b81146200038f57600080fd5b50565b6200039d8162000354565b8114620003a957600080fd5b50565b612a1780620003bc6000396000f3fe608060405234801561001057600080fd5b50600436106101a95760003560e01c80634f8fc3b5116100f9578063b95eeed711610097578063d4cc54e411610071578063d4cc54e4146104c2578063d547741f146104e0578063e2e40317146104fc578063e7c4393e1461052c576101a9565b8063b95eeed714610455578063c10753291461048a578063d2821655146104a6576101a9565b806382313e50116100d357806382313e50146103cf57806391d14854146103eb578063a217fddf1461041b578063a4c0ed3614610439576101a9565b80634f8fc3b51461037957806351be6ad71461038357806357cf07ca1461039f576101a9565b80632f2ff15d1161016657806342f6487a1161014057806342f6487a146102ec578063435f7bcd1461030a57806344914e461461032657806346fcff4c1461035b576101a9565b80632f2ff15d1461029857806336568abe146102b45780633d3d7714146102d0576101a9565b806301ffc9a7146101ae57806307e2cea5146101de5780631c4695f4146101fc5780632288c5cf1461021a578063248a9ca3146102365780632dd6b35c14610266575b600080fd5b6101c860048036038101906101c39190611e58565b61054a565b6040516101d591906121bd565b60405180910390f35b6101e66105c4565b6040516101f39190612239565b60405180910390f35b6102046105e8565b604051610211919061228b565b60405180910390f35b610234600480360381019061022f9190611df5565b61060e565b005b610250600480360381019061024b9190611d54565b61090f565b60405161025d9190612239565b60405180910390f35b610280600480360381019061027b9190611c0b565b61092e565b60405161028f9392919061243c565b60405180910390f35b6102b260048036038101906102ad9190611d7d565b6109b4565b005b6102ce60048036038101906102c99190611d7d565b610a1a565b005b6102ea60048036038101906102e59190611c34565b610a9d565b005b6102f4610de6565b6040516103019190612421565b60405180910390f35b610324600480360381019061031f9190611df5565b610e08565b005b610340600480360381019061033b9190611d54565b611109565b604051610352969594939291906121d8565b60405180910390f35b610363611172565b6040516103709190612473565b60405180910390f35b610381611178565b005b61039d60048036038101906103989190611db9565b611238565b005b6103b960048036038101906103b49190611d54565b6112da565b6040516103c691906122a6565b60405180910390f35b6103e960048036038101906103e49190611e81565b61130d565b005b61040560048036038101906104009190611d7d565b611395565b60405161041291906121bd565b60405180910390f35b6104236113ff565b6040516104309190612239565b60405180910390f35b610453600480360381019061044e9190611cbf565b611406565b005b61046f600480360381019061046a9190611d54565b61145a565b604051610481969594939291906121d8565b60405180910390f35b6104a4600480360381019061049f9190611c83565b6114c3565b005b6104c060048036038101906104bb9190611eaa565b61164e565b005b6104ca6116a4565b6040516104d79190612473565b60405180910390f35b6104fa60048036038101906104f59190611d7d565b6116aa565b005b61051660048036038101906105119190611c0b565b611710565b6040516105239190612473565b60405180910390f35b61053461178a565b6040516105419190612473565b60405180910390f35b60007f7965db0b000000000000000000000000000000000000000000000000000000007bffffffffffffffffffffffffffffffffffffffffffffffffffffffff1916827bffffffffffffffffffffffffffffffffffffffffffffffffffffffff191614806105bd57506105bc82611790565b5b9050919050565b7f68e79a7bf1e0bc45d0a330c573bc367f9cf464fd326078812f301165fbda4ef181565b600560009054906101000a900473ffffffffffffffffffffffffffffffffffffffff1681565b6106387f68e79a7bf1e0bc45d0a330c573bc367f9cf464fd326078812f301165fbda4ef133611395565b610677576040517f08c379a000000000000000000000000000000000000000000000000000000000815260040161066e906123e1565b60405180910390fd5b600084848484604051602001610690949392919061212b565b60405160208183030381529060405280519060200120905060006008600083815260200190815260200160002090508060060160003373ffffffffffffffffffffffffffffffffffffffff1673ffffffffffffffffffffffffffffffffffffffff16815260200190815260200160002060009054906101000a900460ff161561074e576040517f08c379a000000000000000000000000000000000000000000000000000000000815260040161074590612301565b60405180910390fd5b6000816001015414156107ba57848160030181905550838160040160006101000a81548173ffffffffffffffffffffffffffffffffffffffff021916908373ffffffffffffffffffffffffffffffffffffffff1602179055508281600501819055508581600201819055505b60018160010160008282546107cf91906124e5565b9250508190555060018160060160003373ffffffffffffffffffffffffffffffffffffffff1673ffffffffffffffffffffffffffffffffffffffff16815260200190815260200160002060006101000a81548160ff021916908315150217905550600154816001015414156108fe576009600087815260200190815260200160002060009054906101000a900473ffffffffffffffffffffffffffffffffffffffff1673ffffffffffffffffffffffffffffffffffffffff166398e5d7e28786886040518463ffffffff1660e01b81526004016108ae93929190612254565b600060405180830381600087803b1580156108c857600080fd5b505af11580156108dc573d6000803e3d6000fd5b5050505060018160000160006101000a81548160ff0219169083151502179055505b610907336117fa565b505050505050565b6000806000838152602001908152602001600020600101549050919050565b60066020528060005260406000206000915090508060000160009054906101000a90046fffffffffffffffffffffffffffffffff16908060010160009054906101000a900473ffffffffffffffffffffffffffffffffffffffff16908060020160009054906101000a900473ffffffffffffffffffffffffffffffffffffffff16905083565b6109cd6109c08361090f565b6109c8611950565b611395565b610a0c576040517f08c379a0000000000000000000000000000000000000000000000000000000008152600401610a03906122c1565b60405180910390fd5b610a168282611958565b5050565b610a22611950565b73ffffffffffffffffffffffffffffffffffffffff168173ffffffffffffffffffffffffffffffffffffffff1614610a8f576040517f08c379a0000000000000000000000000000000000000000000000000000000008152600401610a8690612401565b60405180910390fd5b610a998282611a38565b5050565b3373ffffffffffffffffffffffffffffffffffffffff16600660008573ffffffffffffffffffffffffffffffffffffffff1673ffffffffffffffffffffffffffffffffffffffff16815260200190815260200160002060010160009054906101000a900473ffffffffffffffffffffffffffffffffffffffff1673ffffffffffffffffffffffffffffffffffffffff1614610b6d576040517f08c379a0000000000000000000000000000000000000000000000000000000008152600401610b64906123a1565b60405180910390fd5b60008190506000600660008673ffffffffffffffffffffffffffffffffffffffff1673ffffffffffffffffffffffffffffffffffffffff16815260200190815260200160002060000160009054906101000a90046fffffffffffffffffffffffffffffffff169050816fffffffffffffffffffffffffffffffff16816fffffffffffffffffffffffffffffffff161015610c3c576040517f08c379a0000000000000000000000000000000000000000000000000000000008152600401610c33906122e1565b60405180910390fd5b8181610c48919061253b565b600660008773ffffffffffffffffffffffffffffffffffffffff1673ffffffffffffffffffffffffffffffffffffffff16815260200190815260200160002060000160006101000a8154816fffffffffffffffffffffffffffffffff02191690836fffffffffffffffffffffffffffffffff160217905550816fffffffffffffffffffffffffffffffff1660026000828254610ce4919061256f565b92505081905550600560009054906101000a900473ffffffffffffffffffffffffffffffffffffffff1673ffffffffffffffffffffffffffffffffffffffff1663a9059cbb85846fffffffffffffffffffffffffffffffff166040518363ffffffff1660e01b8152600401610d5a929190612194565b602060405180830381600087803b158015610d7457600080fd5b505af1158015610d88573d6000803e3d6000fd5b505050506040513d601f19601f82011682018060405250810190610dac9190611d2b565b610ddf577f4e487b7100000000000000000000000000000000000000000000000000000000600052600160045260246000fd5b5050505050565b600460009054906101000a90046fffffffffffffffffffffffffffffffff1681565b610e327f68e79a7bf1e0bc45d0a330c573bc367f9cf464fd326078812f301165fbda4ef133611395565b610e71576040517f08c379a0000000000000000000000000000000000000000000000000000000008152600401610e68906123e1565b60405180910390fd5b600084848484604051602001610e8a949392919061212b565b60405160208183030381529060405280519060200120905060006007600083815260200190815260200160002090508060060160003373ffffffffffffffffffffffffffffffffffffffff1673ffffffffffffffffffffffffffffffffffffffff16815260200190815260200160002060009054906101000a900460ff1615610f48576040517f08c379a0000000000000000000000000000000000000000000000000000000008152600401610f3f90612301565b60405180910390fd5b600081600101541415610fb457848160030181905550838160040160006101000a81548173ffffffffffffffffffffffffffffffffffffffff021916908373ffffffffffffffffffffffffffffffffffffffff1602179055508281600501819055508581600201819055505b6001816001016000828254610fc991906124e5565b9250508190555060018160060160003373ffffffffffffffffffffffffffffffffffffffff1673ffffffffffffffffffffffffffffffffffffffff16815260200190815260200160002060006101000a81548160ff021916908315150217905550600154816001015414156110f8576009600087815260200190815260200160002060009054906101000a900473ffffffffffffffffffffffffffffffffffffffff1673ffffffffffffffffffffffffffffffffffffffff16637ed9db598786886040518463ffffffff1660e01b81526004016110a893929190612254565b600060405180830381600087803b1580156110c257600080fd5b505af11580156110d6573d6000803e3d6000fd5b5050505060018160000160006101000a81548160ff0219169083151502179055505b611101336117fa565b505050505050565b60076020528060005260406000206000915090508060000160009054906101000a900460ff16908060010154908060020154908060030154908060040160009054906101000a900473ffffffffffffffffffffffffffffffffffffffff16908060050154905086565b60035481565b600254600560009054906101000a900473ffffffffffffffffffffffffffffffffffffffff1673ffffffffffffffffffffffffffffffffffffffff166370a08231306040518263ffffffff1660e01b81526004016111d69190612179565b60206040518083038186803b1580156111ee57600080fd5b505afa158015611202573d6000803e3d6000fd5b505050506040513d601f19601f820116820180604052508101906112269190611ed3565b611230919061256f565b600381905550565b6112456000801b33611395565b611284576040517f08c379a000000000000000000000000000000000000000000000000000000000815260040161127b906123c1565b60405180910390fd5b806009600084815260200190815260200160002060006101000a81548173ffffffffffffffffffffffffffffffffffffffff021916908373ffffffffffffffffffffffffffffffffffffffff1602179055505050565b60096020528060005260406000206000915054906101000a900473ffffffffffffffffffffffffffffffffffffffff1681565b61131a6000801b33611395565b611359576040517f08c379a0000000000000000000000000000000000000000000000000000000008152600401611350906123c1565b60405180910390fd5b80600460006101000a8154816fffffffffffffffffffffffffffffffff02191690836fffffffffffffffffffffffffffffffff16021790555050565b600080600084815260200190815260200160002060000160008373ffffffffffffffffffffffffffffffffffffffff1673ffffffffffffffffffffffffffffffffffffffff16815260200190815260200160002060009054906101000a900460ff16905092915050565b6000801b81565b6000828290501461144c576040517f08c379a000000000000000000000000000000000000000000000000000000000815260040161144390612341565b60405180910390fd5b611454611178565b50505050565b60086020528060005260406000206000915090508060000160009054906101000a900460ff16908060010154908060020154908060030154908060040160009054906101000a900473ffffffffffffffffffffffffffffffffffffffff16908060050154905086565b6114d06000801b33611395565b61150f576040517f08c379a0000000000000000000000000000000000000000000000000000000008152600401611506906123c1565b60405180910390fd5b806003541015611554576040517f08c379a000000000000000000000000000000000000000000000000000000000815260040161154b90612381565b60405180910390fd5b600560009054906101000a900473ffffffffffffffffffffffffffffffffffffffff1673ffffffffffffffffffffffffffffffffffffffff1663a9059cbb83836040518363ffffffff1660e01b81526004016115b1929190612194565b602060405180830381600087803b1580156115cb57600080fd5b505af11580156115df573d6000803e3d6000fd5b505050506040513d601f19601f820116820180604052508101906116039190611d2b565b611642576040517f08c379a000000000000000000000000000000000000000000000000000000000815260040161163990612321565b60405180910390fd5b61164a611178565b5050565b61165b6000801b33611395565b61169a576040517f08c379a0000000000000000000000000000000000000000000000000000000008152600401611691906123c1565b60405180910390fd5b8060018190555050565b60025481565b6116c36116b68361090f565b6116be611950565b611395565b611702576040517f08c379a00000000000000000000000000000000000000000000000000000000081526004016116f990612361565b60405180910390fd5b61170c8282611a38565b5050565b6000600660008373ffffffffffffffffffffffffffffffffffffffff1673ffffffffffffffffffffffffffffffffffffffff16815260200190815260200160002060000160009054906101000a90046fffffffffffffffffffffffffffffffff166fffffffffffffffffffffffffffffffff169050919050565b60015481565b60007f01ffc9a7000000000000000000000000000000000000000000000000000000007bffffffffffffffffffffffffffffffffffffffffffffffffffffffff1916827bffffffffffffffffffffffffffffffffffffffffffffffffffffffff1916149050919050565b600460009054906101000a90046fffffffffffffffffffffffffffffffff166fffffffffffffffffffffffffffffffff166003600082825461183c919061256f565b92505081905550600460009054906101000a90046fffffffffffffffffffffffffffffffff166fffffffffffffffffffffffffffffffff166002600082825461188591906124e5565b92505081905550600460009054906101000a90046fffffffffffffffffffffffffffffffff16600660008373ffffffffffffffffffffffffffffffffffffffff1673ffffffffffffffffffffffffffffffffffffffff16815260200190815260200160002060000160008282829054906101000a90046fffffffffffffffffffffffffffffffff16611917919061249f565b92506101000a8154816fffffffffffffffffffffffffffffffff02191690836fffffffffffffffffffffffffffffffff16021790555050565b600033905090565b6119628282611395565b611a3457600160008084815260200190815260200160002060000160008373ffffffffffffffffffffffffffffffffffffffff1673ffffffffffffffffffffffffffffffffffffffff16815260200190815260200160002060006101000a81548160ff0219169083151502179055506119d9611950565b73ffffffffffffffffffffffffffffffffffffffff168173ffffffffffffffffffffffffffffffffffffffff16837f2f8788117e7eff1d82e926ec794901d17c78024a50270940304540a733656f0d60405160405180910390a45b5050565b611a428282611395565b15611b1557600080600084815260200190815260200160002060000160008373ffffffffffffffffffffffffffffffffffffffff1673ffffffffffffffffffffffffffffffffffffffff16815260200190815260200160002060006101000a81548160ff021916908315150217905550611aba611950565b73ffffffffffffffffffffffffffffffffffffffff168173ffffffffffffffffffffffffffffffffffffffff16837ff6391f5c32d9c69d2a47ea670b442974b53935d1edc7fd64eb21e047a839171b60405160405180910390a45b5050565b600081359050611b2881612940565b92915050565b600081519050611b3d81612957565b92915050565b600081359050611b528161296e565b92915050565b600081359050611b6781612985565b92915050565b60008083601f840112611b7f57600080fd5b8235905067ffffffffffffffff811115611b9857600080fd5b602083019150836001820283011115611bb057600080fd5b9250929050565b600081359050611bc68161299c565b92915050565b600081359050611bdb816129b3565b92915050565b600081359050611bf0816129ca565b92915050565b600081519050611c05816129ca565b92915050565b600060208284031215611c1d57600080fd5b6000611c2b84828501611b19565b91505092915050565b600080600060608486031215611c4957600080fd5b6000611c5786828701611b19565b9350506020611c6886828701611b19565b9250506040611c7986828701611be1565b9150509250925092565b60008060408385031215611c9657600080fd5b6000611ca485828601611b19565b9250506020611cb585828601611be1565b9150509250929050565b60008060008060608587031215611cd557600080fd5b6000611ce387828801611b19565b9450506020611cf487828801611be1565b935050604085013567ffffffffffffffff811115611d1157600080fd5b611d1d87828801611b6d565b925092505092959194509250565b600060208284031215611d3d57600080fd5b6000611d4b84828501611b2e565b91505092915050565b600060208284031215611d6657600080fd5b6000611d7484828501611b43565b91505092915050565b60008060408385031215611d9057600080fd5b6000611d9e85828601611b43565b9250506020611daf85828601611b19565b9150509250929050565b60008060408385031215611dcc57600080fd5b6000611dda85828601611b43565b9250506020611deb85828601611bb7565b9150509250929050565b60008060008060808587031215611e0b57600080fd5b6000611e1987828801611b43565b9450506020611e2a87828801611be1565b9350506040611e3b87828801611b19565b9250506060611e4c87828801611be1565b91505092959194509250565b600060208284031215611e6a57600080fd5b6000611e7884828501611b58565b91505092915050565b600060208284031215611e9357600080fd5b6000611ea184828501611bcc565b91505092915050565b600060208284031215611ebc57600080fd5b6000611eca84828501611be1565b91505092915050565b600060208284031215611ee557600080fd5b6000611ef384828501611bf6565b91505092915050565b611f05816125a3565b82525050565b611f1c611f17826125a3565b612697565b82525050565b611f2b816125b5565b82525050565b611f3a816125c1565b82525050565b611f51611f4c826125c1565b6126a9565b82525050565b611f608161264f565b82525050565b611f6f81612673565b82525050565b6000611f82602f8361248e565b9150611f8d8261270b565b604082019050919050565b6000611fa5601f8361248e565b9150611fb08261275a565b602082019050919050565b6000611fc860198361248e565b9150611fd382612783565b602082019050919050565b6000611feb601e8361248e565b9150611ff6826127ac565b602082019050919050565b600061200e60208361248e565b9150612019826127d5565b602082019050919050565b600061203160308361248e565b915061203c826127fe565b604082019050919050565b6000612054601a8361248e565b915061205f8261284d565b602082019050919050565b600061207760168361248e565b915061208282612876565b602082019050919050565b600061209a60138361248e565b91506120a58261289f565b602082019050919050565b60006120bd60148361248e565b91506120c8826128c8565b602082019050919050565b60006120e0602f8361248e565b91506120eb826128f1565b604082019050919050565b6120ff81612609565b82525050565b61210e81612645565b82525050565b61212561212082612645565b6126c5565b82525050565b60006121378287611f40565b6020820191506121478286612114565b6020820191506121578285611f0b565b6014820191506121678284612114565b60208201915081905095945050505050565b600060208201905061218e6000830184611efc565b92915050565b60006040820190506121a96000830185611efc565b6121b66020830184612105565b9392505050565b60006020820190506121d26000830184611f22565b92915050565b600060c0820190506121ed6000830189611f22565b6121fa6020830188612105565b6122076040830187611f31565b6122146060830186612105565b6122216080830185611efc565b61222e60a0830184612105565b979650505050505050565b600060208201905061224e6000830184611f31565b92915050565b60006060820190506122696000830186611f31565b6122766020830185611efc565b6122836040830184612105565b949350505050565b60006020820190506122a06000830184611f57565b92915050565b60006020820190506122bb6000830184611f66565b92915050565b600060208201905081810360008301526122da81611f75565b9050919050565b600060208201905081810360008301526122fa81611f98565b9050919050565b6000602082019050818103600083015261231a81611fbb565b9050919050565b6000602082019050818103600083015261233a81611fde565b9050919050565b6000602082019050818103600083015261235a81612001565b9050919050565b6000602082019050818103600083015261237a81612024565b9050919050565b6000602082019050818103600083015261239a81612047565b9050919050565b600060208201905081810360008301526123ba8161206a565b9050919050565b600060208201905081810360008301526123da8161208d565b9050919050565b600060208201905081810360008301526123fa816120b0565b9050919050565b6000602082019050818103600083015261241a816120d3565b9050919050565b600060208201905061243660008301846120f6565b92915050565b600060608201905061245160008301866120f6565b61245e6020830185611efc565b61246b6040830184611efc565b949350505050565b60006020820190506124886000830184612105565b92915050565b600082825260208201905092915050565b60006124aa82612609565b91506124b583612609565b9250826fffffffffffffffffffffffffffffffff038211156124da576124d96126cf565b5b828201905092915050565b60006124f082612645565b91506124fb83612645565b9250827fffffffffffffffffffffffffffffffffffffffffffffffffffffffffffffffff038211156125305761252f6126cf565b5b828201905092915050565b600061254682612609565b915061255183612609565b925082821015612564576125636126cf565b5b828203905092915050565b600061257a82612645565b915061258583612645565b925082821015612598576125976126cf565b5b828203905092915050565b60006125ae82612625565b9050919050565b60008115159050919050565b6000819050919050565b60007fffffffff0000000000000000000000000000000000000000000000000000000082169050919050565b6000612602826125a3565b9050919050565b60006fffffffffffffffffffffffffffffffff82169050919050565b600073ffffffffffffffffffffffffffffffffffffffff82169050919050565b6000819050919050565b600061265a82612661565b9050919050565b600061266c82612625565b9050919050565b600061267e82612685565b9050919050565b600061269082612625565b9050919050565b60006126a2826126b3565b9050919050565b6000819050919050565b60006126be826126fe565b9050919050565b6000819050919050565b7f4e487b7100000000000000000000000000000000000000000000000000000000600052601160045260246000fd5b60008160601b9050919050565b7f416363657373436f6e74726f6c3a2073656e646572206d75737420626520616e60008201527f2061646d696e20746f206772616e740000000000000000000000000000000000602082015250565b7f696e73756666696369656e7420776974686472617761626c652066756e647300600082015250565b7f7375626d69743a207375626d697474656420616c726561647900000000000000600082015250565b7f776974686472617746756e64733a207472616e73666572206661696c65640000600082015250565b7f7472616e7366657220646f65736e2774206163636570742063616c6c64617461600082015250565b7f416363657373436f6e74726f6c3a2073656e646572206d75737420626520616e60008201527f2061646d696e20746f207265766f6b6500000000000000000000000000000000602082015250565b7f696e73756666696369656e7420726573657276652066756e6473000000000000600082015250565b7f6f6e6c792063616c6c61626c652062792061646d696e00000000000000000000600082015250565b7f6f6e6c7941646d696e3a2062616420726f6c6500000000000000000000000000600082015250565b7f6f6e6c794f7261636c653a2062616420726f6c65000000000000000000000000600082015250565b7f416363657373436f6e74726f6c3a2063616e206f6e6c792072656e6f756e636560008201527f20726f6c657320666f722073656c660000000000000000000000000000000000602082015250565b612949816125a3565b811461295457600080fd5b50565b612960816125b5565b811461296b57600080fd5b50565b612977816125c1565b811461298257600080fd5b50565b61298e816125cb565b811461299957600080fd5b50565b6129a5816125f7565b81146129b057600080fd5b50565b6129bc81612609565b81146129c757600080fd5b50565b6129d381612645565b81146129de57600080fd5b5056fea26469706673582212200bd59d187e2b366d13a4034908f60965682a2dac68d918794c8ebd00ce26590464736f6c63430008020033",
  "immutableReferences": {},
  "source": "// SPDX-License-Identifier: MIT\npragma solidity ^0.8.2;\n\nimport \"@openzeppelin/contracts/access/AccessControl.sol\";\nimport \"@openzeppelin/contracts/token/ERC20/IERC20.sol\";\nimport \"../interfaces/IWhiteDebridge.sol\";\nimport \"./Aggregator.sol\";\n\ncontract WhiteAggregator is Aggregator {\n    struct MintInfo {\n        bool broadcasted;\n        uint256 confirmations;\n        bytes32 debridgeId; // hash(chainId, tokenAddress)\n        uint256 amount;\n        address receiver;\n        uint256 nonce;\n        mapping(address => bool) hasVerified;\n    }\n    struct BurnInfo {\n        bool broadcasted;\n        uint256 confirmations;\n        bytes32 debridgeId; // hash(chainId, tokenAddress)\n        uint256 amount;\n        address receiver;\n        uint256 nonce;\n        mapping(address => bool) hasVerified;\n    }\n\n    mapping(bytes32 => MintInfo) public getMintInfo;\n    mapping(bytes32 => BurnInfo) public getBurnInfo;\n    mapping(bytes32 => IWhiteDebridge) public getDebridge;\n\n    event Confirmed(bytes32 commitment, bytes32 debridgeId, address operator);\n    event Broadcasted(bytes32 debridgeId, bytes32 commitment);\n\n    constructor(\n        uint256 _minConfirmations,\n        uint128 _payment,\n        IERC20 _link\n    ) Aggregator(_minConfirmations, _payment, _link) {}\n\n    function submitMint(\n        bytes32 _debridgeId,\n        uint256 _amount,\n        address _receiver,\n        uint256 _nonce\n    ) external onlyOracle {\n        bytes32 depositId =\n            keccak256(\n                abi.encodePacked(_debridgeId, _amount, _receiver, _nonce)\n            );\n        MintInfo storage mintInfo = getMintInfo[depositId];\n        require(!mintInfo.hasVerified[msg.sender], \"submit: submitted already\");\n        if (mintInfo.confirmations == 0) {\n            mintInfo.amount = _amount;\n            mintInfo.receiver = _receiver;\n            mintInfo.nonce = _nonce;\n            mintInfo.debridgeId = _debridgeId;\n        }\n        mintInfo.confirmations += 1;\n        mintInfo.hasVerified[msg.sender] = true;\n        if (mintInfo.confirmations == minConfirmations) {\n            getDebridge[_debridgeId].mint(_debridgeId, _receiver, _amount);\n            mintInfo.broadcasted = true;\n        }\n        _payOracle(msg.sender);\n    }\n\n    function submitBurn(\n        bytes32 _debridgeId,\n        uint256 _amount,\n        address _receiver,\n        uint256 _nonce\n    ) external onlyOracle {\n        bytes32 depositId =\n            keccak256(\n                abi.encodePacked(_debridgeId, _amount, _receiver, _nonce)\n            );\n        BurnInfo storage burnInfo = getBurnInfo[depositId];\n        require(!burnInfo.hasVerified[msg.sender], \"submit: submitted already\");\n        if (burnInfo.confirmations == 0) {\n            burnInfo.amount = _amount;\n            burnInfo.receiver = _receiver;\n            burnInfo.nonce = _nonce;\n            burnInfo.debridgeId = _debridgeId;\n        }\n        burnInfo.confirmations += 1;\n        burnInfo.hasVerified[msg.sender] = true;\n        if (burnInfo.confirmations == minConfirmations) {\n            getDebridge[_debridgeId].claim(_debridgeId, _receiver, _amount);\n            burnInfo.broadcasted = true;\n        }\n        _payOracle(msg.sender);\n    }\n\n    function setDebridge(bytes32 _debridgeId, IWhiteDebridge _debridge)\n        external\n        onlyAdmin\n    {\n        getDebridge[_debridgeId] = _debridge;\n    }\n}\n",
  "sourcePath": "/Users/kstasi/Documents/work/debridge-contracts/contracts/chainlink/WhiteAggregator.sol",
  "compiler": {
    "name": "solc",
    "version": "0.8.2+commit.661d1103.Emscripten.clang"
  },
  "schemaVersion": "3.3.4",
  "updatedAt": "2021-03-16T21:18:10.052Z",
  "devdoc": {
    "kind": "dev",
    "methods": {
      "getRoleAdmin(bytes32)": {
        "details": "Returns the admin role that controls `role`. See {grantRole} and {revokeRole}. To change a role's admin, use {_setRoleAdmin}."
      },
      "grantRole(bytes32,address)": {
        "details": "Grants `role` to `account`. If `account` had not been already granted `role`, emits a {RoleGranted} event. Requirements: - the caller must have ``role``'s admin role."
      },
      "hasRole(bytes32,address)": {
        "details": "Returns `true` if `account` has been granted `role`."
      },
      "renounceRole(bytes32,address)": {
        "details": "Revokes `role` from the calling account. Roles are often managed via {grantRole} and {revokeRole}: this function's purpose is to provide a mechanism for accounts to lose their privileges if they are compromised (such as when a trusted device is misplaced). If the calling account had been granted `role`, emits a {RoleRevoked} event. Requirements: - the caller must be `account`."
      },
      "revokeRole(bytes32,address)": {
        "details": "Revokes `role` from `account`. If `account` had been granted `role`, emits a {RoleRevoked} event. Requirements: - the caller must have ``role``'s admin role."
      },
      "supportsInterface(bytes4)": {
        "details": "See {IERC165-supportsInterface}."
      }
    },
    "version": 1
  },
  "userdoc": {
    "kind": "user",
    "methods": {},
    "version": 1
  }
}