{
  "contractName": "WhiteDebridge",
  "abi": [
    {
      "inputs": [
        {
          "internalType": "uint256",
          "name": "_chainId",
          "type": "uint256"
        },
        {
          "internalType": "uint256",
          "name": "_minAmount",
          "type": "uint256"
        },
        {
          "internalType": "uint256",
          "name": "_transferFee",
          "type": "uint256"
        },
        {
          "internalType": "contract IWhiteAggregator",
          "name": "_aggregator",
          "type": "address"
        },
        {
          "internalType": "uint256[]",
          "name": "_supportedChainIds",
          "type": "uint256[]"
        }
      ],
      "stateMutability": "nonpayable",
      "type": "constructor"
    },
    {
      "anonymous": false,
      "inputs": [
        {
          "indexed": false,
          "internalType": "bytes32",
          "name": "burntId",
          "type": "bytes32"
        },
        {
          "indexed": false,
          "internalType": "bytes32",
          "name": "debridgeId",
          "type": "bytes32"
        },
        {
          "indexed": false,
          "internalType": "uint256",
          "name": "amount",
          "type": "uint256"
        },
        {
          "indexed": false,
          "internalType": "address",
          "name": "receiver",
          "type": "address"
        },
        {
          "indexed": false,
          "internalType": "uint256",
          "name": "nonce",
          "type": "uint256"
        },
        {
          "indexed": false,
          "internalType": "uint256",
          "name": "chainIdTo",
          "type": "uint256"
        }
      ],
      "name": "Burnt",
      "type": "event"
    },
    {
      "anonymous": false,
      "inputs": [
        {
          "indexed": false,
          "internalType": "uint256",
          "name": "amount",
          "type": "uint256"
        },
        {
          "indexed": false,
          "internalType": "address",
          "name": "receiver",
          "type": "address"
        },
        {
          "indexed": false,
          "internalType": "bytes32",
          "name": "debridgeId",
          "type": "bytes32"
        }
      ],
      "name": "Claimed",
      "type": "event"
    },
    {
      "anonymous": false,
      "inputs": [
        {
          "indexed": false,
          "internalType": "uint256",
          "name": "amount",
          "type": "uint256"
        },
        {
          "indexed": false,
          "internalType": "address",
          "name": "receiver",
          "type": "address"
        },
        {
          "indexed": false,
          "internalType": "bytes32",
          "name": "debridgeId",
          "type": "bytes32"
        }
      ],
      "name": "Minted",
      "type": "event"
    },
    {
      "anonymous": false,
      "inputs": [
        {
          "indexed": true,
          "internalType": "bytes32",
          "name": "role",
          "type": "bytes32"
        },
        {
          "indexed": true,
          "internalType": "bytes32",
          "name": "previousAdminRole",
          "type": "bytes32"
        },
        {
          "indexed": true,
          "internalType": "bytes32",
          "name": "newAdminRole",
          "type": "bytes32"
        }
      ],
      "name": "RoleAdminChanged",
      "type": "event"
    },
    {
      "anonymous": false,
      "inputs": [
        {
          "indexed": true,
          "internalType": "bytes32",
          "name": "role",
          "type": "bytes32"
        },
        {
          "indexed": true,
          "internalType": "address",
          "name": "account",
          "type": "address"
        },
        {
          "indexed": true,
          "internalType": "address",
          "name": "sender",
          "type": "address"
        }
      ],
      "name": "RoleGranted",
      "type": "event"
    },
    {
      "anonymous": false,
      "inputs": [
        {
          "indexed": true,
          "internalType": "bytes32",
          "name": "role",
          "type": "bytes32"
        },
        {
          "indexed": true,
          "internalType": "address",
          "name": "account",
          "type": "address"
        },
        {
          "indexed": true,
          "internalType": "address",
          "name": "sender",
          "type": "address"
        }
      ],
      "name": "RoleRevoked",
      "type": "event"
    },
    {
      "anonymous": false,
      "inputs": [
        {
          "indexed": false,
          "internalType": "bytes32",
          "name": "sentId",
          "type": "bytes32"
        },
        {
          "indexed": false,
          "internalType": "bytes32",
          "name": "debridgeId",
          "type": "bytes32"
        },
        {
          "indexed": false,
          "internalType": "uint256",
          "name": "amount",
          "type": "uint256"
        },
        {
          "indexed": false,
          "internalType": "address",
          "name": "receiver",
          "type": "address"
        },
        {
          "indexed": false,
          "internalType": "uint256",
          "name": "nonce",
          "type": "uint256"
        },
        {
          "indexed": false,
          "internalType": "uint256",
          "name": "chainIdTo",
          "type": "uint256"
        }
      ],
      "name": "Sent",
      "type": "event"
    },
    {
      "inputs": [],
      "name": "DEFAULT_ADMIN_ROLE",
      "outputs": [
        {
          "internalType": "bytes32",
          "name": "",
          "type": "bytes32"
        }
      ],
      "stateMutability": "view",
      "type": "function",
      "constant": true
    },
    {
      "inputs": [],
      "name": "DENOMINATOR",
      "outputs": [
        {
          "internalType": "uint256",
          "name": "",
          "type": "uint256"
        }
      ],
      "stateMutability": "view",
      "type": "function",
      "constant": true
    },
    {
      "inputs": [],
      "name": "aggregator",
      "outputs": [
        {
          "internalType": "contract IWhiteAggregator",
          "name": "",
          "type": "address"
        }
      ],
      "stateMutability": "view",
      "type": "function",
      "constant": true
    },
    {
      "inputs": [],
      "name": "chainId",
      "outputs": [
        {
          "internalType": "uint256",
          "name": "",
          "type": "uint256"
        }
      ],
      "stateMutability": "view",
      "type": "function",
      "constant": true
    },
    {
      "inputs": [
        {
          "internalType": "bytes32",
          "name": "",
          "type": "bytes32"
        }
      ],
      "name": "getDebridge",
      "outputs": [
        {
          "internalType": "address",
          "name": "tokenAddress",
          "type": "address"
        },
        {
          "internalType": "uint256",
          "name": "chainId",
          "type": "uint256"
        },
        {
          "internalType": "uint256",
          "name": "minAmount",
          "type": "uint256"
        },
        {
          "internalType": "uint256",
          "name": "transferFee",
          "type": "uint256"
        },
        {
          "internalType": "uint256",
          "name": "collectedFees",
          "type": "uint256"
        }
      ],
      "stateMutability": "view",
      "type": "function",
      "constant": true
    },
    {
      "inputs": [
        {
          "internalType": "bytes32",
          "name": "role",
          "type": "bytes32"
        }
      ],
      "name": "getRoleAdmin",
      "outputs": [
        {
          "internalType": "bytes32",
          "name": "",
          "type": "bytes32"
        }
      ],
      "stateMutability": "view",
      "type": "function",
      "constant": true
    },
    {
      "inputs": [
        {
          "internalType": "bytes32",
          "name": "role",
          "type": "bytes32"
        },
        {
          "internalType": "address",
          "name": "account",
          "type": "address"
        }
      ],
      "name": "grantRole",
      "outputs": [],
      "stateMutability": "nonpayable",
      "type": "function"
    },
    {
      "inputs": [
        {
          "internalType": "bytes32",
          "name": "role",
          "type": "bytes32"
        },
        {
          "internalType": "address",
          "name": "account",
          "type": "address"
        }
      ],
      "name": "hasRole",
      "outputs": [
        {
          "internalType": "bool",
          "name": "",
          "type": "bool"
        }
      ],
      "stateMutability": "view",
      "type": "function",
      "constant": true
    },
    {
      "inputs": [
        {
          "internalType": "bytes32",
          "name": "",
          "type": "bytes32"
        }
      ],
      "name": "isSubmissionUsed",
      "outputs": [
        {
          "internalType": "bool",
          "name": "",
          "type": "bool"
        }
      ],
      "stateMutability": "view",
      "type": "function",
      "constant": true
    },
    {
      "inputs": [],
      "name": "nonce",
      "outputs": [
        {
          "internalType": "uint256",
          "name": "",
          "type": "uint256"
        }
      ],
      "stateMutability": "view",
      "type": "function",
      "constant": true
    },
    {
      "inputs": [
        {
          "internalType": "bytes32",
          "name": "role",
          "type": "bytes32"
        },
        {
          "internalType": "address",
          "name": "account",
          "type": "address"
        }
      ],
      "name": "renounceRole",
      "outputs": [],
      "stateMutability": "nonpayable",
      "type": "function"
    },
    {
      "inputs": [
        {
          "internalType": "bytes32",
          "name": "role",
          "type": "bytes32"
        },
        {
          "internalType": "address",
          "name": "account",
          "type": "address"
        }
      ],
      "name": "revokeRole",
      "outputs": [],
      "stateMutability": "nonpayable",
      "type": "function"
    },
    {
      "inputs": [
        {
          "internalType": "bytes4",
          "name": "interfaceId",
          "type": "bytes4"
        }
      ],
      "name": "supportsInterface",
      "outputs": [
        {
          "internalType": "bool",
          "name": "",
          "type": "bool"
        }
      ],
      "stateMutability": "view",
      "type": "function",
      "constant": true
    },
    {
      "inputs": [
        {
          "internalType": "bytes32",
          "name": "_debridgeId",
          "type": "bytes32"
        },
        {
          "internalType": "address",
          "name": "_receiver",
          "type": "address"
        },
        {
          "internalType": "uint256",
          "name": "_amount",
          "type": "uint256"
        },
        {
          "internalType": "uint256",
          "name": "_chainIdTo",
          "type": "uint256"
        }
      ],
      "name": "send",
      "outputs": [],
      "stateMutability": "payable",
      "type": "function",
      "payable": true
    },
    {
      "inputs": [
        {
          "internalType": "bytes32",
          "name": "_debridgeId",
          "type": "bytes32"
        },
        {
          "internalType": "address",
          "name": "_receiver",
          "type": "address"
        },
        {
          "internalType": "uint256",
          "name": "_amount",
          "type": "uint256"
        },
        {
          "internalType": "uint256",
          "name": "_nonce",
          "type": "uint256"
        }
      ],
      "name": "mint",
      "outputs": [],
      "stateMutability": "nonpayable",
      "type": "function"
    },
    {
      "inputs": [
        {
          "internalType": "bytes32",
          "name": "_debridgeId",
          "type": "bytes32"
        },
        {
          "internalType": "address",
          "name": "_receiver",
          "type": "address"
        },
        {
          "internalType": "uint256",
          "name": "_amount",
          "type": "uint256"
        }
      ],
      "name": "burn",
      "outputs": [],
      "stateMutability": "nonpayable",
      "type": "function"
    },
    {
      "inputs": [
        {
          "internalType": "bytes32",
          "name": "_debridgeId",
          "type": "bytes32"
        },
        {
          "internalType": "address",
          "name": "_receiver",
          "type": "address"
        },
        {
          "internalType": "uint256",
          "name": "_amount",
          "type": "uint256"
        },
        {
          "internalType": "uint256",
          "name": "_nonce",
          "type": "uint256"
        }
      ],
      "name": "claim",
      "outputs": [],
      "stateMutability": "nonpayable",
      "type": "function"
    },
    {
      "inputs": [
        {
          "internalType": "address",
          "name": "_tokenAddress",
          "type": "address"
        },
        {
          "internalType": "uint256",
          "name": "_minAmount",
          "type": "uint256"
        },
        {
          "internalType": "uint256",
          "name": "_transferFee",
          "type": "uint256"
        },
        {
          "internalType": "uint256[]",
          "name": "_supportedChainIds",
          "type": "uint256[]"
        }
      ],
      "name": "addNativelAsset",
      "outputs": [],
      "stateMutability": "nonpayable",
      "type": "function"
    },
    {
      "inputs": [
        {
          "internalType": "address",
          "name": "_tokenAddress",
          "type": "address"
        },
        {
          "internalType": "uint256",
          "name": "_chainId",
          "type": "uint256"
        },
        {
          "internalType": "uint256",
          "name": "_minAmount",
          "type": "uint256"
        },
        {
          "internalType": "uint256",
          "name": "_transferFee",
          "type": "uint256"
        },
        {
          "internalType": "uint256[]",
          "name": "_supportedChainIds",
          "type": "uint256[]"
        },
        {
          "internalType": "string",
          "name": "_name",
          "type": "string"
        },
        {
          "internalType": "string",
          "name": "_symbol",
          "type": "string"
        }
      ],
      "name": "addExternalAsset",
      "outputs": [],
      "stateMutability": "nonpayable",
      "type": "function"
    },
    {
      "inputs": [
        {
          "internalType": "bytes32",
          "name": "_debridgeId",
          "type": "bytes32"
        },
        {
          "internalType": "uint256",
          "name": "_chainId",
          "type": "uint256"
        },
        {
          "internalType": "bool",
          "name": "_isSupported",
          "type": "bool"
        }
      ],
      "name": "setChainIdSupport",
      "outputs": [],
      "stateMutability": "nonpayable",
      "type": "function"
    },
    {
      "inputs": [
        {
          "internalType": "contract IWhiteAggregator",
          "name": "_aggregator",
          "type": "address"
        }
      ],
      "name": "setAggregator",
      "outputs": [],
      "stateMutability": "nonpayable",
      "type": "function"
    },
    {
      "inputs": [
        {
          "internalType": "bytes32",
          "name": "_debridgeId",
          "type": "bytes32"
        },
        {
          "internalType": "address",
          "name": "_receiver",
          "type": "address"
        },
        {
          "internalType": "uint256",
          "name": "_amount",
          "type": "uint256"
        }
      ],
      "name": "withdrawFee",
      "outputs": [],
      "stateMutability": "nonpayable",
      "type": "function"
    },
    {
      "inputs": [
        {
          "internalType": "uint256",
          "name": "_chainId",
          "type": "uint256"
        },
        {
          "internalType": "address",
          "name": "_tokenAddress",
          "type": "address"
        }
      ],
      "name": "getDebridgeId",
      "outputs": [
        {
          "internalType": "bytes32",
          "name": "",
          "type": "bytes32"
        }
      ],
      "stateMutability": "pure",
      "type": "function",
      "constant": true
    },
    {
      "inputs": [
        {
          "internalType": "bytes32",
          "name": "_debridgeId",
          "type": "bytes32"
        },
        {
          "internalType": "uint256",
          "name": "_amount",
          "type": "uint256"
        },
        {
          "internalType": "address",
          "name": "_receiver",
          "type": "address"
        },
        {
          "internalType": "uint256",
          "name": "_nonce",
          "type": "uint256"
        }
      ],
      "name": "getSubmisionId",
      "outputs": [
        {
          "internalType": "bytes32",
          "name": "",
          "type": "bytes32"
        }
      ],
      "stateMutability": "pure",
      "type": "function",
      "constant": true
    }
  ],
  "bytecode": "0x60806040523480156200001157600080fd5b5060405162003d5538038062003d5583398101604081905262000034916200024e565b6001859055600062000047868262000096565b905062000062816000600154888887620000e060201b60201c565b600380546001600160a01b0319166001600160a01b0385161790556200008a6000336200019e565b50505050505062000398565b60008282604051602001620000c292919091825260601b6001600160601b031916602082015260340190565b60405160208183030381529060405280519060200120905092915050565b600086815260046020526040812080546001600160a01b0319166001600160a01b038816178155600181018690556002810185905560038101849055905b8251811015620001945760018260050160008584815181106200015157634e487b7160e01b600052603260045260246000fd5b6020026020010151815260200190815260200160002060006101000a81548160ff02191690831515021790555080806200018b906200035a565b9150506200011e565b5050505050505050565b620001aa8282620001ae565b5050565b6000828152602081815260408083206001600160a01b038516845290915290205460ff16620001aa576000828152602081815260408083206001600160a01b03851684529091529020805460ff191660011790556200020a3390565b6001600160a01b0316816001600160a01b0316837f2f8788117e7eff1d82e926ec794901d17c78024a50270940304540a733656f0d60405160405180910390a45050565b600080600080600060a0868803121562000266578081fd5b8551602080880151604089015160608a01519398509096509450906001600160a01b038116811462000296578283fd5b60808801519093506001600160401b0380821115620002b3578384fd5b818901915089601f830112620002c7578384fd5b815181811115620002dc57620002dc62000382565b838102604051601f19603f8301168101818110858211171562000303576200030362000382565b604052828152858101935084860182860187018e101562000322578788fd5b8795505b838610156200034657805185526001959095019493860193860162000326565b508096505050505050509295509295909350565b60006000198214156200037b57634e487b7160e01b81526011600452602481fd5b5060010190565b634e487b7160e01b600052604160045260246000fd5b6139ad80620003a86000396000f3fe608060405260043610620001b25760003560e01c806366e1aef511620000eb5780639e702901116200008b578063bc23a2c01162000061578063bc23a2c01462000567578063d547741f14620005dc578063f9120af6146200060157620001b2565b80639e7029011462000513578063a217fddf1462000538578063affed0e0146200054f57620001b2565b806391d1485411620000c157806391d14854146200048e5780639682b90914620004d65780639a8a059214620004fb57620001b2565b806366e1aef5146200042657806383d3f95d146200044b578063918f8674146200047057620001b2565b8063248a9ca3116200015757806336568abe116200012d57806336568abe146200034157806357cf07ca146200036657806365ac9f7814620003f257620001b2565b8063248a9ca314620002b45780632f2ff15d14620002f7578063346a9074146200031c57620001b2565b80630a0e5e9a116200018d5780630a0e5e9a146200022f57806317bb58e31462000254578063245a7bfc146200027957620001b2565b806301ffc9a714620001b7578063031ac61314620001f157806309bd39a7146200020a575b600080fd5b348015620001c457600080fd5b50620001dc620001d63660046200211f565b62000626565b60405190151581526020015b60405180910390f35b620002086200020236600462002064565b62000690565b005b3480156200021757600080fd5b50620002086200022936600462001f00565b6200095b565b3480156200023c57600080fd5b50620002086200024e366004620020e4565b62000a3b565b3480156200026157600080fd5b50620002086200027336600462001e99565b62000adf565b3480156200028657600080fd5b506003546200029b906001600160a01b031681565b6040516001600160a01b039091168152602001620001e8565b348015620002c157600080fd5b50620002e8620002d336600462001fdf565b60009081526020819052604090206001015490565b604051908152602001620001e8565b3480156200030457600080fd5b50620002086200031636600462001ff8565b62000b80565b3480156200032957600080fd5b50620002086200033b3660046200202a565b62000c23565b3480156200034e57600080fd5b50620002086200036036600462001ff8565b62000eb5565b3480156200037357600080fd5b50620003bf6200038536600462001fdf565b6004602081905260009182526040909120805460018201546002830154600384015493909401546001600160a01b03909216939092909185565b604080516001600160a01b0390961686526020860194909452928401919091526060830152608082015260a001620001e8565b348015620003ff57600080fd5b50620001dc6200041136600462001fdf565b60056020526000908152604090205460ff1681565b3480156200043357600080fd5b50620002086200044536600462002064565b62000f41565b3480156200045857600080fd5b50620002086200046a3660046200202a565b62001267565b3480156200047d57600080fd5b50620002e8670de0b6b3a764000081565b3480156200049b57600080fd5b50620001dc620004ad36600462001ff8565b6000918252602082815260408084206001600160a01b0393909316845291905290205460ff1690565b348015620004e357600080fd5b50620002e8620004f536600462001ff8565b6200141f565b3480156200050857600080fd5b50620002e860015481565b3480156200052057600080fd5b50620002086200053236600462002064565b6200146e565b3480156200054557600080fd5b50620002e8600081565b3480156200055c57600080fd5b50620002e860025481565b3480156200057457600080fd5b50620002e862000586366004620020a3565b6040805160208101869052908101849052606083811b6bffffffffffffffffffffffff19169082015260748101829052600090609401604051602081830303815290604052805190602001209050949350505050565b348015620005e957600080fd5b5062000208620005fb36600462001ff8565b6200170d565b3480156200060e57600080fd5b50620002086200062036600462002149565b6200179e565b60006001600160e01b031982167f7965db0b0000000000000000000000000000000000000000000000000000000014806200068a57507f01ffc9a7000000000000000000000000000000000000000000000000000000006001600160e01b03198316145b92915050565b6000848152600460205260409020600180549082015414620006f95760405162461bcd60e51b815260206004820152601c60248201527f73656e643a206e6f74206e617469766520636861696e20636861696e0000000060448201526064015b60405180910390fd5b600082815260058201602052604090205460ff166200075b5760405162461bcd60e51b815260206004820152601f60248201527f73656e643a2077726f6e67207461726765642074617267657420636861696e006044820152606401620006f0565b8060020154831015620007b15760405162461bcd60e51b815260206004820152601460248201527f73656e643a20616d6f756e7420746f6f206c6f770000000000000000000000006044820152606401620006f0565b80546001600160a01b03166200081857348314620008125760405162461bcd60e51b815260206004820152601560248201527f73656e643a20616d6f756e74206d69736d6174636800000000000000000000006044820152606401620006f0565b62000831565b805462000831906001600160a01b031633308662001843565b6000670de0b6b3a76400008260030154856200084e91906200226b565b6200085a91906200224a565b905080156200088e57808260040160008282546200087991906200222f565b909155506200088b905081856200228d565b93505b6002546040805160208082018a9052818301889052606089811b6bffffffffffffffffffffffff19169083015260748083018590528351808403909101815260948301808552815191909201209081905260b482018a905260d482018890526001600160a01b03891660f4830152610114820193909352610134810186905290517f17c61cb89b62a3f29f5b150e3489c7a796ac4dc95fd73af14faa2c8086a324b491610154908290030190a1600280549060006200094d83620022d6565b919050555050505050505050565b3360009081527fad3228b676f7d3cd4284a5443f17f1962b36e491b30a40b2405849e597ba5fb5602052604090205460ff16620009d15760405162461bcd60e51b81526020600482015260136024820152726f6e6c7941646d696e3a2062616420726f6c6560681b6044820152606401620006f0565b6000620009df87896200141f565b905060008383604051620009f39062001d8e565b62000a00929190620021c9565b604051809103906000f08015801562000a1d573d6000803e3d6000fd5b50905062000a3082828a8a8a8a620018c5565b505050505050505050565b3360009081527fad3228b676f7d3cd4284a5443f17f1962b36e491b30a40b2405849e597ba5fb5602052604090205460ff1662000ab15760405162461bcd60e51b81526020600482015260136024820152726f6e6c7941646d696e3a2062616420726f6c6560681b6044820152606401620006f0565b6000928352600460209081526040808520938552600590930190529120805460ff1916911515919091179055565b3360009081527fad3228b676f7d3cd4284a5443f17f1962b36e491b30a40b2405849e597ba5fb5602052604090205460ff1662000b555760405162461bcd60e51b81526020600482015260136024820152726f6e6c7941646d696e3a2062616420726f6c6560681b6044820152606401620006f0565b600062000b65600154866200141f565b905062000b798186600154878787620018c5565b5050505050565b60008281526020819052604090206001015462000b9f905b33620004ad565b62000c135760405162461bcd60e51b815260206004820152602f60248201527f416363657373436f6e74726f6c3a2073656e646572206d75737420626520616e60448201527f2061646d696e20746f206772616e7400000000000000000000000000000000006064820152608401620006f0565b62000c1f828262001990565b5050565b60008381526004602052604090206001805490820154141562000c895760405162461bcd60e51b815260206004820152601260248201527f6275726e3a206e617469766520617373657400000000000000000000000000006044820152606401620006f0565b806002015482101562000cdf5760405162461bcd60e51b815260206004820152601460248201527f6275726e3a20616d6f756e7420746f6f206c6f770000000000000000000000006044820152606401620006f0565b80546040516323b872dd60e01b8152336004820152306024820152604481018490526001600160a01b039091169081906323b872dd90606401602060405180830381600087803b15801562000d3357600080fd5b505af115801562000d48573d6000803e3d6000fd5b505050506040513d601f19601f8201168201806040525081019062000d6e919062001fc0565b506040517f42966c68000000000000000000000000000000000000000000000000000000008152600481018490526001600160a01b038216906342966c6890602401600060405180830381600087803b15801562000dcb57600080fd5b505af115801562000de0573d6000803e3d6000fd5b50506002546040805160208082018b905281830189905260608a811b6bffffffffffffffffffffffff191690830152607480830185905283518084039091018152609483018085528151919092012060018901549181905260b483018c905260d483018a90526001600160a01b038b1660f484015261011483019490945261013482015290519193507fb8cc5195d548dc2781227c496b92d3736cd56d7f32b28971c9ae1e9eb0badf959250610154908290030190a16002805490600062000ea883620022d6565b9190505550505050505050565b6001600160a01b038116331462000f355760405162461bcd60e51b815260206004820152602f60248201527f416363657373436f6e74726f6c3a2063616e206f6e6c792072656e6f756e636560448201527f20726f6c657320666f722073656c6600000000000000000000000000000000006064820152608401620006f0565b62000c1f828262001a30565b604080516020808201879052818301859052606086811b6bffffffffffffffffffffffff191690830152607480830185905283518084039091018152609490920190925280519101206000906003546040517fa61ece18000000000000000000000000000000000000000000000000000000008152600481018390529192506001600160a01b03169063a61ece189060240160206040518083038186803b15801562000fec57600080fd5b505afa15801562001001573d6000803e3d6000fd5b505050506040513d601f19601f8201168201806040525081019062001027919062001fc0565b620010755760405162461bcd60e51b815260206004820152601460248201527f636c61696d3a206e6f7420636f6e6669726d65640000000000000000000000006044820152606401620006f0565b6000858152600460205260409020600180549082015414620010da5760405162461bcd60e51b815260206004820152601960248201527f636c61696d3a2077726f6e672074617267657420636861696e000000000000006044820152606401620006f0565b60008281526005602052604090205460ff16156200113b5760405162461bcd60e51b815260206004820152601360248201527f636c61696d3a20616c72656164792075736564000000000000000000000000006044820152606401620006f0565b6000828152600560205260408120805460ff191660011790556003820154670de0b6b3a7640000906200116f90876200226b565b6200117b91906200224a565b90508015620011af57808260040160008282546200119a91906200222f565b90915550620011ac905081866200228d565b94505b81546001600160a01b0316620011fd576040516001600160a01b0387169086156108fc029087906000818181858888f19350505050158015620011f6573d6000803e3d6000fd5b5062001215565b815462001215906001600160a01b0316878762001ab0565b604080518681526001600160a01b03881660208201529081018890527fbcb8b73e5a89971ee294cc3d2f51a084375b679f88047211b28c5344acb53df59060600160405180910390a150505050505050565b3360009081527fad3228b676f7d3cd4284a5443f17f1962b36e491b30a40b2405849e597ba5fb5602052604090205460ff16620012dd5760405162461bcd60e51b81526020600482015260136024820152726f6e6c7941646d696e3a2062616420726f6c6560681b6044820152606401620006f0565b6000838152600460205260409020600180549082015414620013425760405162461bcd60e51b815260206004820152601f60248201527f77697468647261774665653a2077726f6e672074617267657420636861696e006044820152606401620006f0565b8181600401541015620013985760405162461bcd60e51b815260206004820152601b60248201527f77697468647261774665653a206e6f7420656e6f7567682066656500000000006044820152606401620006f0565b81816004016000828254620013ae91906200228d565b909155505080546001600160a01b031662001401576040516001600160a01b0384169083156108fc029084906000818181858888f19350505050158015620013fa573d6000803e3d6000fd5b5062001419565b805462001419906001600160a01b0316848462001ab0565b50505050565b600082826040516020016200145092919091825260601b6bffffffffffffffffffffffff1916602082015260340190565b60405160208183030381529060405280519060200120905092915050565b604080516020808201879052818301859052606086811b6bffffffffffffffffffffffff191690830152607480830185905283518084039091018152609490920190925280519101206000906003546040517fa1e5c7b1000000000000000000000000000000000000000000000000000000008152600481018390529192506001600160a01b03169063a1e5c7b19060240160206040518083038186803b1580156200151957600080fd5b505afa1580156200152e573d6000803e3d6000fd5b505050506040513d601f19601f8201168201806040525081019062001554919062001fc0565b620015a25760405162461bcd60e51b815260206004820152601360248201527f6d696e743a206e6f7420636f6e6669726d6564000000000000000000000000006044820152606401620006f0565b60008181526005602052604090205460ff1615620016035760405162461bcd60e51b815260206004820152601260248201527f6d696e743a20616c7265616479207573656400000000000000000000000000006044820152606401620006f0565b6000858152600460208181526040808420858552600590925292839020805460ff19166001179055805492517f40c10f1900000000000000000000000000000000000000000000000000000000815290926001600160a01b0316916340c10f1991620016879189918991016001600160a01b03929092168252602082015260400190565b600060405180830381600087803b158015620016a257600080fd5b505af1158015620016b7573d6000803e3d6000fd5b5050604080518781526001600160a01b03891660208201529081018990527f735d687607ce9e35b73121f5b238c4cd2854db103741adba51d670bb706051cc9250606001905060405180910390a1505050505050565b6000828152602081905260409020600101546200172a9062000b98565b62000f355760405162461bcd60e51b815260206004820152603060248201527f416363657373436f6e74726f6c3a2073656e646572206d75737420626520616e60448201527f2061646d696e20746f207265766f6b65000000000000000000000000000000006064820152608401620006f0565b3360009081527fad3228b676f7d3cd4284a5443f17f1962b36e491b30a40b2405849e597ba5fb5602052604090205460ff16620018145760405162461bcd60e51b81526020600482015260136024820152726f6e6c7941646d696e3a2062616420726f6c6560681b6044820152606401620006f0565b6003805473ffffffffffffffffffffffffffffffffffffffff19166001600160a01b0392909216919091179055565b6040516001600160a01b0380851660248301528316604482015260648101829052620014199085906323b872dd60e01b906084015b60408051601f198184030181529190526020810180517bffffffffffffffffffffffffffffffffffffffffffffffffffffffff166001600160e01b03199093169290921790915262001b00565b6000868152600460205260408120805473ffffffffffffffffffffffffffffffffffffffff19166001600160a01b038816178155600181018690556002810185905560038101849055905b8251811015620019865760018260050160008584815181106200194357634e487b7160e01b600052603260045260246000fd5b6020026020010151815260200190815260200160002060006101000a81548160ff02191690831515021790555080806200197d90620022d6565b91505062001910565b5050505050505050565b6000828152602081815260408083206001600160a01b038516845290915290205460ff1662000c1f576000828152602081815260408083206001600160a01b03851684529091529020805460ff19166001179055620019ec3390565b6001600160a01b0316816001600160a01b0316837f2f8788117e7eff1d82e926ec794901d17c78024a50270940304540a733656f0d60405160405180910390a45050565b6000828152602081815260408083206001600160a01b038516845290915290205460ff161562000c1f576000828152602081815260408083206001600160a01b0385168085529252808320805460ff1916905551339285917ff6391f5c32d9c69d2a47ea670b442974b53935d1edc7fd64eb21e047a839171b9190a45050565b6040516001600160a01b03831660248201526044810182905262001afb9084907fa9059cbb000000000000000000000000000000000000000000000000000000009060640162001878565b505050565b600062001b57826040518060400160405280602081526020017f5361666545524332303a206c6f772d6c6576656c2063616c6c206661696c6564815250856001600160a01b031662001bec9092919063ffffffff16565b80519091501562001afb578080602001905181019062001b78919062001fc0565b62001afb5760405162461bcd60e51b815260206004820152602a60248201527f5361666545524332303a204552433230206f7065726174696f6e20646964206e60448201527f6f742073756363656564000000000000000000000000000000000000000000006064820152608401620006f0565b606062001bfd848460008562001c07565b90505b9392505050565b60608247101562001c815760405162461bcd60e51b815260206004820152602660248201527f416464726573733a20696e73756666696369656e742062616c616e636520666f60448201527f722063616c6c00000000000000000000000000000000000000000000000000006064820152608401620006f0565b843b62001cd15760405162461bcd60e51b815260206004820152601d60248201527f416464726573733a2063616c6c20746f206e6f6e2d636f6e74726163740000006044820152606401620006f0565b600080866001600160a01b0316858760405162001cef919062002196565b60006040518083038185875af1925050503d806000811462001d2e576040519150601f19603f3d011682016040523d82523d6000602084013e62001d33565b606091505b509150915062001d4582828662001d50565b979650505050505050565b6060831562001d6157508162001c00565b82511562001d725782518084602001fd5b8160405162461bcd60e51b8152600401620006f09190620021b4565b61162f806200234983390190565b600082601f83011262001dad578081fd5b8135602067ffffffffffffffff82111562001dcc5762001dcc6200230a565b80820262001ddc828201620021fb565b83815282810190868401838801850189101562001df7578687fd5b8693505b8584101562001e1b57803583526001939093019291840191840162001dfb565b50979650505050505050565b600082601f83011262001e38578081fd5b813567ffffffffffffffff81111562001e555762001e556200230a565b62001e6a601f8201601f1916602001620021fb565b81815284602083860101111562001e7f578283fd5b816020850160208301379081016020019190915292915050565b6000806000806080858703121562001eaf578384fd5b843562001ebc8162002320565b93506020850135925060408501359150606085013567ffffffffffffffff81111562001ee6578182fd5b62001ef48782880162001d9c565b91505092959194509250565b600080600080600080600060e0888a03121562001f1b578283fd5b873562001f288162002320565b9650602088013595506040880135945060608801359350608088013567ffffffffffffffff8082111562001f5a578485fd5b62001f688b838c0162001d9c565b945060a08a013591508082111562001f7e578384fd5b62001f8c8b838c0162001e27565b935060c08a013591508082111562001fa2578283fd5b5062001fb18a828b0162001e27565b91505092959891949750929550565b60006020828403121562001fd2578081fd5b815162001c008162002339565b60006020828403121562001ff1578081fd5b5035919050565b600080604083850312156200200b578182fd5b8235915060208301356200201f8162002320565b809150509250929050565b6000806000606084860312156200203f578283fd5b833592506020840135620020538162002320565b929592945050506040919091013590565b600080600080608085870312156200207a578384fd5b8435935060208501356200208e8162002320565b93969395505050506040820135916060013590565b60008060008060808587031215620020b9578384fd5b84359350602085013592506040850135620020d48162002320565b9396929550929360600135925050565b600080600060608486031215620020f9578283fd5b83359250602084013591506040840135620021148162002339565b809150509250925092565b60006020828403121562002131578081fd5b81356001600160e01b03198116811462001c00578182fd5b6000602082840312156200215b578081fd5b813562001c008162002320565b6000815180845262002182816020860160208601620022a7565b601f01601f19169290920160200192915050565b60008251620021aa818460208701620022a7565b9190910192915050565b60006020825262001c00602083018462002168565b600060408252620021de604083018562002168565b8281036020840152620021f2818562002168565b95945050505050565b604051601f8201601f1916810167ffffffffffffffff811182821017156200222757620022276200230a565b604052919050565b60008219821115620022455762002245620022f4565b500190565b6000826200226657634e487b7160e01b81526012600452602481fd5b500490565b6000816000190483118215151615620022885762002288620022f4565b500290565b600082821015620022a257620022a2620022f4565b500390565b60005b83811015620022c4578181015183820152602001620022aa565b83811115620014195750506000910152565b6000600019821415620022ed57620022ed620022f4565b5060010190565b634e487b7160e01b600052601160045260246000fd5b634e487b7160e01b600052604160045260246000fd5b6001600160a01b03811681146200233657600080fd5b50565b80151581146200233657600080fdfe60806040523480156200001157600080fd5b506040516200162f3803806200162f8339810160408190526200003491620002b2565b8151829082906200004d90600490602085019062000159565b5080516200006390600590602084019062000159565b506200007591506000905033620000a9565b620000a17f9f2df0fed2c77648de5860a4cc508cd0818c85b8b8a1ab4ceeef8d981c8956a633620000a9565b50506200036c565b620000b58282620000b9565b5050565b6000828152602081815260408083206001600160a01b038516845290915290205460ff16620000b5576000828152602081815260408083206001600160a01b03851684529091529020805460ff19166001179055620001153390565b6001600160a01b0316816001600160a01b0316837f2f8788117e7eff1d82e926ec794901d17c78024a50270940304540a733656f0d60405160405180910390a45050565b828054620001679062000319565b90600052602060002090601f0160209004810192826200018b5760008555620001d6565b82601f10620001a657805160ff1916838001178555620001d6565b82800160010185558215620001d6579182015b82811115620001d6578251825591602001919060010190620001b9565b50620001e4929150620001e8565b5090565b5b80821115620001e45760008155600101620001e9565b600082601f83011262000210578081fd5b81516001600160401b03808211156200022d576200022d62000356565b604051601f8301601f19908116603f0116810190828211818310171562000258576200025862000356565b8160405283815260209250868385880101111562000274578485fd5b8491505b8382101562000297578582018301518183018401529082019062000278565b83821115620002a857848385830101525b9695505050505050565b60008060408385031215620002c5578182fd5b82516001600160401b0380821115620002dc578384fd5b620002ea86838701620001ff565b9350602085015191508082111562000300578283fd5b506200030f85828601620001ff565b9150509250929050565b6002810460018216806200032e57607f821691505b602082108114156200035057634e487b7160e01b600052602260045260246000fd5b50919050565b634e487b7160e01b600052604160045260246000fd5b6112b3806200037c6000396000f3fe608060405234801561001057600080fd5b50600436106101775760003560e01c806340c10f19116100d8578063a217fddf1161008c578063d539139311610066578063d53913931461031a578063d547741f14610341578063dd62ed3e1461035457610177565b8063a217fddf146102ec578063a457c2d7146102f4578063a9059cbb1461030757610177565b806370a08231116100bd57806370a082311461028457806391d14854146102ad57806395d89b41146102e457610177565b806340c10f191461025e57806342966c681461027157610177565b8063248a9ca31161012f578063313ce56711610114578063313ce5671461022957806336568abe14610238578063395093511461024b57610177565b8063248a9ca3146101f15780632f2ff15d1461021457610177565b8063095ea7b311610160578063095ea7b3146101b957806318160ddd146101cc57806323b872dd146101de57610177565b806301ffc9a71461017c57806306fdde03146101a4575b600080fd5b61018f61018a36600461116a565b61038d565b60405190151581526020015b60405180910390f35b6101ac610428565b60405161019b91906111aa565b61018f6101c7366004611107565b6104ba565b6003545b60405190815260200161019b565b61018f6101ec3660046110cc565b6104d0565b6101d06101ff366004611130565b60009081526020819052604090206001015490565b610227610222366004611148565b61059b565b005b6040516012815260200161019b565b610227610246366004611148565b610638565b61018f610259366004611107565b6106c0565b61022761026c366004611107565b6106f7565b61022761027f366004611130565b61077f565b6101d0610292366004611079565b6001600160a01b031660009081526001602052604090205490565b61018f6102bb366004611148565b6000918252602082815260408084206001600160a01b0393909316845291905290205460ff1690565b6101ac61080a565b6101d0600081565b61018f610302366004611107565b610819565b61018f610315366004611107565b6108cc565b6101d07f9f2df0fed2c77648de5860a4cc508cd0818c85b8b8a1ab4ceeef8d981c8956a681565b61022761034f366004611148565b6108d9565b6101d061036236600461109a565b6001600160a01b03918216600090815260026020908152604080832093909416825291909152205490565b60007fffffffff0000000000000000000000000000000000000000000000000000000082167f7965db0b00000000000000000000000000000000000000000000000000000000148061042057507f01ffc9a7000000000000000000000000000000000000000000000000000000007fffffffff000000000000000000000000000000000000000000000000000000008316145b90505b919050565b6060600480546104379061122c565b80601f01602080910402602001604051908101604052809291908181526020018280546104639061122c565b80156104b05780601f10610485576101008083540402835291602001916104b0565b820191906000526020600020905b81548152906001019060200180831161049357829003601f168201915b5050505050905090565b60006104c7338484610966565b50600192915050565b60006104dd848484610abf565b6001600160a01b03841660009081526002602090815260408083203384529091529020548281101561057c5760405162461bcd60e51b815260206004820152602860248201527f45524332303a207472616e7366657220616d6f756e742065786365656473206160448201527f6c6c6f77616e636500000000000000000000000000000000000000000000000060648201526084015b60405180910390fd5b610590853361058b8685611215565b610966565b506001949350505050565b6000828152602081905260409020600101546105b8905b336102bb565b61062a5760405162461bcd60e51b815260206004820152602f60248201527f416363657373436f6e74726f6c3a2073656e646572206d75737420626520616e60448201527f2061646d696e20746f206772616e7400000000000000000000000000000000006064820152608401610573565b6106348282610ce0565b5050565b6001600160a01b03811633146106b65760405162461bcd60e51b815260206004820152602f60248201527f416363657373436f6e74726f6c3a2063616e206f6e6c792072656e6f756e636560448201527f20726f6c657320666f722073656c6600000000000000000000000000000000006064820152608401610573565b6106348282610d7e565b3360008181526002602090815260408083206001600160a01b038716845290915281205490916104c791859061058b9086906111fd565b3360009081527f0781d7cac9c378efa22a7481e4d4d29704a680ddf504b3bc50b517700ee11e6c602052604090205460ff166107755760405162461bcd60e51b815260206004820152601860248201527f6f6e6c7941676772656761746f723a2062616420726f6c6500000000000000006044820152606401610573565b6106348282610dfd565b3360009081527f0781d7cac9c378efa22a7481e4d4d29704a680ddf504b3bc50b517700ee11e6c602052604090205460ff166107fd5760405162461bcd60e51b815260206004820152601860248201527f6f6e6c7941676772656761746f723a2062616420726f6c6500000000000000006044820152606401610573565b6108073382610edc565b50565b6060600580546104379061122c565b3360009081526002602090815260408083206001600160a01b0386168452909152812054828110156108b35760405162461bcd60e51b815260206004820152602560248201527f45524332303a2064656372656173656420616c6c6f77616e63652062656c6f7760448201527f207a65726f0000000000000000000000000000000000000000000000000000006064820152608401610573565b6108c2338561058b8685611215565b5060019392505050565b60006104c7338484610abf565b6000828152602081905260409020600101546108f4906105b2565b6106b65760405162461bcd60e51b815260206004820152603060248201527f416363657373436f6e74726f6c3a2073656e646572206d75737420626520616e60448201527f2061646d696e20746f207265766f6b65000000000000000000000000000000006064820152608401610573565b6001600160a01b0383166109e15760405162461bcd60e51b8152602060048201526024808201527f45524332303a20617070726f76652066726f6d20746865207a65726f2061646460448201527f72657373000000000000000000000000000000000000000000000000000000006064820152608401610573565b6001600160a01b038216610a5d5760405162461bcd60e51b815260206004820152602260248201527f45524332303a20617070726f766520746f20746865207a65726f20616464726560448201527f73730000000000000000000000000000000000000000000000000000000000006064820152608401610573565b6001600160a01b0383811660008181526002602090815260408083209487168084529482529182902085905590518481527f8c5be1e5ebec7d5bd14f71427d1e84f3dd0314c0f7b2291e5b200ac8c7c3b92591015b60405180910390a3505050565b6001600160a01b038316610b3b5760405162461bcd60e51b815260206004820152602560248201527f45524332303a207472616e736665722066726f6d20746865207a65726f20616460448201527f64726573730000000000000000000000000000000000000000000000000000006064820152608401610573565b6001600160a01b038216610bb75760405162461bcd60e51b815260206004820152602360248201527f45524332303a207472616e7366657220746f20746865207a65726f206164647260448201527f65737300000000000000000000000000000000000000000000000000000000006064820152608401610573565b6001600160a01b03831660009081526001602052604090205481811015610c465760405162461bcd60e51b815260206004820152602660248201527f45524332303a207472616e7366657220616d6f756e742065786365656473206260448201527f616c616e636500000000000000000000000000000000000000000000000000006064820152608401610573565b610c508282611215565b6001600160a01b038086166000908152600160205260408082209390935590851681529081208054849290610c869084906111fd565b92505081905550826001600160a01b0316846001600160a01b03167fddf252ad1be2c89b69c2b068fc378daa952ba7f163c4a11628f55a4df523b3ef84604051610cd291815260200190565b60405180910390a350505050565b6000828152602081815260408083206001600160a01b038516845290915290205460ff16610634576000828152602081815260408083206001600160a01b03851684529091529020805460ff19166001179055610d3a3390565b6001600160a01b0316816001600160a01b0316837f2f8788117e7eff1d82e926ec794901d17c78024a50270940304540a733656f0d60405160405180910390a45050565b6000828152602081815260408083206001600160a01b038516845290915290205460ff1615610634576000828152602081815260408083206001600160a01b0385168085529252808320805460ff1916905551339285917ff6391f5c32d9c69d2a47ea670b442974b53935d1edc7fd64eb21e047a839171b9190a45050565b6001600160a01b038216610e535760405162461bcd60e51b815260206004820152601f60248201527f45524332303a206d696e7420746f20746865207a65726f2061646472657373006044820152606401610573565b8060036000828254610e6591906111fd565b90915550506001600160a01b03821660009081526001602052604081208054839290610e929084906111fd565b90915550506040518181526001600160a01b038316906000907fddf252ad1be2c89b69c2b068fc378daa952ba7f163c4a11628f55a4df523b3ef9060200160405180910390a35050565b6001600160a01b038216610f585760405162461bcd60e51b815260206004820152602160248201527f45524332303a206275726e2066726f6d20746865207a65726f2061646472657360448201527f73000000000000000000000000000000000000000000000000000000000000006064820152608401610573565b6001600160a01b03821660009081526001602052604090205481811015610fe75760405162461bcd60e51b815260206004820152602260248201527f45524332303a206275726e20616d6f756e7420657863656564732062616c616e60448201527f63650000000000000000000000000000000000000000000000000000000000006064820152608401610573565b610ff18282611215565b6001600160a01b0384166000908152600160205260408120919091556003805484929061101f908490611215565b90915550506040518281526000906001600160a01b038516907fddf252ad1be2c89b69c2b068fc378daa952ba7f163c4a11628f55a4df523b3ef90602001610ab2565b80356001600160a01b038116811461042357600080fd5b60006020828403121561108a578081fd5b61109382611062565b9392505050565b600080604083850312156110ac578081fd5b6110b583611062565b91506110c360208401611062565b90509250929050565b6000806000606084860312156110e0578081fd5b6110e984611062565b92506110f760208501611062565b9150604084013590509250925092565b60008060408385031215611119578182fd5b61112283611062565b946020939093013593505050565b600060208284031215611141578081fd5b5035919050565b6000806040838503121561115a578182fd5b823591506110c360208401611062565b60006020828403121561117b578081fd5b81357fffffffff0000000000000000000000000000000000000000000000000000000081168114611093578182fd5b6000602080835283518082850152825b818110156111d6578581018301518582016040015282016111ba565b818111156111e75783604083870101525b50601f01601f1916929092016040019392505050565b6000821982111561121057611210611267565b500190565b60008282101561122757611227611267565b500390565b60028104600182168061124057607f821691505b6020821081141561126157634e487b7160e01b600052602260045260246000fd5b50919050565b634e487b7160e01b600052601160045260246000fdfea264697066735822122084770198a55b816df50d43f484baab8ca8271d95c532b34b888a94db78dfbfab64736f6c63430008020033a2646970667358221220ee209ba573ac90c08c0d097c0dc8488af0743bad3a9cb2ab8b5ebbd94ec9c4ff64736f6c63430008020033",
  "immutableReferences": {},
  "source": "// SPDX-License-Identifier: MIT\npragma solidity ^0.8.2;\n\nimport \"@openzeppelin/contracts/token/ERC20/ERC20.sol\";\nimport \"@openzeppelin/contracts/token/ERC20/IERC20.sol\";\nimport \"@openzeppelin/contracts/token/ERC20/utils/SafeERC20.sol\";\nimport \"@openzeppelin/contracts/access/AccessControl.sol\";\nimport \"../interfaces/IWhiteDebridge.sol\";\nimport \"../interfaces/IWhiteAggregator.sol\";\nimport \"../periphery/WrappedAsset.sol\";\n\ncontract WhiteDebridge is AccessControl, IWhiteDebridge {\n    using SafeERC20 for IERC20;\n\n    struct DebridgeInfo {\n        address tokenAddress; // asset address on the current chain\n        uint256 chainId; // native chain id\n        uint256 minAmount; // minimal amount to transfer\n        uint256 transferFee; // transfer fee rate\n        uint256 collectedFees; // total collected fees that can be used to buy LINK\n        mapping(uint256 => bool) isSupported; // wheter the chain for the asset is supported\n    }\n\n    uint256 public constant DENOMINATOR = 1e18; // accuacy multiplyer\n    uint256 public chainId; // current chain id\n    uint256 public nonce; // global counter for transfers\n    IWhiteAggregator public aggregator; // chainlink aggregator address\n    mapping(bytes32 => DebridgeInfo) public getDebridge; // debridgeId (i.e. hash(native chainId, native tokenAddress)) => token\n    mapping(bytes32 => bool) public isSubmissionUsed; // submissionId (i.e. hash( debridgeId, amount, receiver, nonce)) => whether is claimed\n\n    event Sent(\n        bytes32 sentId,\n        bytes32 debridgeId,\n        uint256 amount,\n        address receiver,\n        uint256 nonce,\n        uint256 chainIdTo\n    ); // emited once the native tokens are locked to be sent to the other chain\n    event Minted(uint256 amount, address receiver, bytes32 debridgeId); // emited once the wrapped tokens are minted on the current chain\n    event Burnt(\n        bytes32 burntId,\n        bytes32 debridgeId,\n        uint256 amount,\n        address receiver,\n        uint256 nonce,\n        uint256 chainIdTo\n    ); // emited once the wrapped tokens are sent to the contract\n    event Claimed(uint256 amount, address receiver, bytes32 debridgeId); // emited once the tokens are withdrawn on native chain\n\n    modifier onlyAggregator {\n        require(address(aggregator) == msg.sender, \"onlyAggregator: bad role\");\n        _;\n    }\n    modifier onlyAdmin {\n        require(hasRole(DEFAULT_ADMIN_ROLE, msg.sender), \"onlyAdmin: bad role\");\n        _;\n    }\n\n    /* EXTERNAL */\n\n    /// @dev Constructor that initializes the most important configurations.\n    /// @param _chainId Current chain id.\n    /// @param _minAmount Minimal amount of current chain token to be wrapped.\n    /// @param _transferFee Transfer fee rate.\n    /// @param _aggregator Submission aggregator address.\n    /// @param _supportedChainIds Chain ids where native token of the current chain can be wrapped.\n    constructor(\n        uint256 _chainId,\n        uint256 _minAmount,\n        uint256 _transferFee,\n        IWhiteAggregator _aggregator,\n        uint256[] memory _supportedChainIds\n    ) {\n        chainId = _chainId;\n        bytes32 debridgeId = getDebridgeId(_chainId, address(0));\n        _addAsset(\n            debridgeId,\n            address(0),\n            chainId,\n            _minAmount,\n            _transferFee,\n            _supportedChainIds\n        );\n        aggregator = _aggregator;\n        _setupRole(DEFAULT_ADMIN_ROLE, msg.sender);\n    }\n\n    /// @dev Locks asset on the chain and enables minting on the other chain.\n    /// @param _debridgeId Asset identifier.\n    /// @param _receiver Receiver address.\n    /// @param _amount Amount to be transfered (note: the fee can be applyed).\n    /// @param _chainIdTo Chain id of the target chain.\n    function send(\n        bytes32 _debridgeId,\n        address _receiver,\n        uint256 _amount,\n        uint256 _chainIdTo\n    ) external payable override {\n        DebridgeInfo storage debridge = getDebridge[_debridgeId];\n        require(debridge.chainId == chainId, \"send: not native chain chain\");\n        require(\n            debridge.isSupported[_chainIdTo],\n            \"send: wrong targed target chain\"\n        );\n        require(_amount >= debridge.minAmount, \"send: amount too low\");\n        if (debridge.tokenAddress == address(0)) {\n            require(_amount == msg.value, \"send: amount mismatch\");\n        } else {\n            IERC20(debridge.tokenAddress).safeTransferFrom(\n                msg.sender,\n                address(this),\n                _amount\n            );\n        }\n        uint256 transferFee = (_amount * debridge.transferFee) / DENOMINATOR;\n        if (transferFee > 0) {\n            debridge.collectedFees += transferFee;\n            _amount -= transferFee;\n        }\n        bytes32 sentId = getSubmisionId(_debridgeId, _amount, _receiver, nonce);\n        emit Sent(sentId, _debridgeId, _amount, _receiver, nonce, _chainIdTo);\n        nonce++;\n    }\n\n    /// @dev Mints wrapped asset on the current chain.\n    /// @param _debridgeId Asset identifier.\n    /// @param _receiver Receiver address.\n    /// @param _amount Amount of the transfered asset (note: without applyed fee).\n    /// @param _nonce Submission id.\n    function mint(\n        bytes32 _debridgeId,\n        address _receiver,\n        uint256 _amount,\n        uint256 _nonce\n    ) external override {\n        bytes32 mintId =\n            getSubmisionId(_debridgeId, _amount, _receiver, _nonce);\n        require(aggregator.isMintConfirmed(mintId), \"mint: not confirmed\");\n        require(!isSubmissionUsed[mintId], \"mint: already used\");\n        DebridgeInfo storage debridge = getDebridge[_debridgeId];\n        isSubmissionUsed[mintId] = true;\n        IWrappedAsset(debridge.tokenAddress).mint(_receiver, _amount);\n        emit Minted(_amount, _receiver, _debridgeId);\n    }\n\n    /// @dev Burns wrapped asset and allowss to claim it on the other chain.\n    /// @param _debridgeId Asset identifier.\n    /// @param _receiver Receiver address.\n    /// @param _amount Amount of the transfered asset (note: the fee can be applyed).\n    function burn(\n        bytes32 _debridgeId,\n        address _receiver,\n        uint256 _amount\n    ) external override {\n        DebridgeInfo storage debridge = getDebridge[_debridgeId];\n        require(debridge.chainId != chainId, \"burn: native asset\");\n        require(_amount >= debridge.minAmount, \"burn: amount too low\");\n        IWrappedAsset wrappedAsset = IWrappedAsset(debridge.tokenAddress);\n        wrappedAsset.transferFrom(msg.sender, address(this), _amount);\n        wrappedAsset.burn(_amount);\n        bytes32 burntId =\n            getSubmisionId(_debridgeId, _amount, _receiver, nonce);\n        emit Burnt(\n            burntId,\n            _debridgeId,\n            _amount,\n            _receiver,\n            nonce,\n            debridge.chainId\n        );\n        nonce++;\n    }\n\n    /// @dev Unlock the asset on the current chain and transfer to receiver.\n    /// @param _debridgeId Asset identifier.\n    /// @param _receiver Receiver address.\n    /// @param _amount Amount of the transfered asset (note: the fee can be applyed).\n    /// @param _nonce Submission id.\n    function claim(\n        bytes32 _debridgeId,\n        address _receiver,\n        uint256 _amount,\n        uint256 _nonce\n    ) external override {\n        bytes32 burntId =\n            getSubmisionId(_debridgeId, _amount, _receiver, _nonce);\n        require(aggregator.isBurntConfirmed(burntId), \"claim: not confirmed\");\n        DebridgeInfo storage debridge = getDebridge[_debridgeId];\n        require(debridge.chainId == chainId, \"claim: wrong target chain\");\n        require(!isSubmissionUsed[burntId], \"claim: already used\");\n        isSubmissionUsed[burntId] = true;\n        uint256 transferFee = (_amount * debridge.transferFee) / DENOMINATOR;\n        if (transferFee > 0) {\n            debridge.collectedFees += transferFee;\n            _amount -= transferFee;\n        }\n        if (debridge.tokenAddress == address(0)) {\n            payable(_receiver).transfer(_amount);\n        } else {\n            IERC20(debridge.tokenAddress).safeTransfer(_receiver, _amount);\n        }\n        emit Claimed(_amount, _receiver, _debridgeId);\n    }\n\n    /* ADMIN */\n\n    /// @dev Add support for the asset on the current chain.\n    /// @param _tokenAddress Address of the asset on the current chain.\n    /// @param _minAmount Minimal amount of current chain token to be wrapped.\n    /// @param _transferFee Transfer fee rate.\n    /// @param _supportedChainIds Chain ids where native token of the current chain can be wrapped.\n    function addNativelAsset(\n        address _tokenAddress,\n        uint256 _minAmount,\n        uint256 _transferFee,\n        uint256[] memory _supportedChainIds\n    ) external override onlyAdmin() {\n        bytes32 debridgeId = getDebridgeId(chainId, _tokenAddress);\n        _addAsset(\n            debridgeId,\n            _tokenAddress,\n            chainId,\n            _minAmount,\n            _transferFee,\n            _supportedChainIds\n        );\n    }\n\n    /// @dev Add support for the asset from the other chain, deploy new wrapped asset.\n    /// @param _tokenAddress Address of the asset on the other chain.\n    /// @param _chainId Current chain id.\n    /// @param _minAmount Minimal amount of the asset to be wrapped.\n    /// @param _transferFee Transfer fee rate.\n    /// @param _supportedChainIds Chain ids where the token of the current chain can be transfered.\n    /// @param _name Wrapped asset name.\n    /// @param _symbol Wrapped asset symbol.\n    function addExternalAsset(\n        address _tokenAddress,\n        uint256 _chainId,\n        uint256 _minAmount,\n        uint256 _transferFee,\n        uint256[] memory _supportedChainIds,\n        string memory _name,\n        string memory _symbol\n    ) external override onlyAdmin() {\n        bytes32 debridgeId = getDebridgeId(_chainId, _tokenAddress);\n        address tokenAddress = address(new WrappedAsset(_name, _symbol));\n        _addAsset(\n            debridgeId,\n            tokenAddress,\n            _chainId,\n            _minAmount,\n            _transferFee,\n            _supportedChainIds\n        );\n    }\n\n    /// @dev Set support for the chains where the token can be transfered.\n    /// @param _debridgeId Asset identifier.\n    /// @param _chainId Current chain id.\n    /// @param _isSupported Whether the token is transferable to the other chain.\n    function setChainIdSupport(\n        bytes32 _debridgeId,\n        uint256 _chainId,\n        bool _isSupported\n    ) external override onlyAdmin() {\n        DebridgeInfo storage debridge = getDebridge[_debridgeId];\n        debridge.isSupported[_chainId] = _isSupported;\n    }\n\n    /// @dev Set aggregator address.\n    /// @param _aggregator Submission aggregator address.\n    function setAggregator(IWhiteAggregator _aggregator) external onlyAdmin() {\n        aggregator = _aggregator;\n    }\n\n    /// @dev Withdraw fees.\n    /// @param _debridgeId Asset identifier.\n    /// @param _receiver Receiver address.\n    /// @param _amount Submission aggregator address.\n    function withdrawFee(\n        bytes32 _debridgeId,\n        address _receiver,\n        uint256 _amount\n    ) external onlyAdmin() {\n        DebridgeInfo storage debridge = getDebridge[_debridgeId];\n        require(debridge.chainId == chainId, \"withdrawFee: wrong target chain\");\n        require(\n            debridge.collectedFees >= _amount,\n            \"withdrawFee: not enough fee\"\n        );\n        debridge.collectedFees -= _amount;\n        if (debridge.tokenAddress == address(0)) {\n            payable(_receiver).transfer(_amount);\n        } else {\n            IERC20(debridge.tokenAddress).safeTransfer(_receiver, _amount);\n        }\n    }\n\n    /* INTERNAL */\n\n    /// @dev Add support for the asset.\n    /// @param _debridgeId Asset identifier.\n    /// @param _tokenAddress Address of the asset on the other chain.\n    /// @param _chainId Current chain id.\n    /// @param _minAmount Minimal amount of the asset to be wrapped.\n    /// @param _transferFee Transfer fee rate.\n    /// @param _supportedChainIds Chain ids where the token of the current chain can be transfered.\n    function _addAsset(\n        bytes32 _debridgeId,\n        address _tokenAddress,\n        uint256 _chainId,\n        uint256 _minAmount,\n        uint256 _transferFee,\n        uint256[] memory _supportedChainIds\n    ) internal {\n        DebridgeInfo storage debridge = getDebridge[_debridgeId];\n        debridge.tokenAddress = _tokenAddress;\n        debridge.chainId = _chainId;\n        debridge.minAmount = _minAmount;\n        debridge.transferFee = _transferFee;\n        for (uint256 i = 0; i < _supportedChainIds.length; i++) {\n            debridge.isSupported[_supportedChainIds[i]] = true;\n        }\n    }\n\n    /* VIEW */\n\n    /// @dev Calculates asset identifier.\n    /// @param _tokenAddress Address of the asset on the other chain.\n    /// @param _chainId Current chain id.\n    function getDebridgeId(uint256 _chainId, address _tokenAddress)\n        public\n        pure\n        returns (bytes32)\n    {\n        return keccak256(abi.encodePacked(_chainId, _tokenAddress));\n    }\n\n    /// @dev Calculate submission id.\n    /// @param _debridgeId Asset identifier.\n    /// @param _receiver Receiver address.\n    /// @param _amount Amount of the transfered asset (note: the fee can be applyed).\n    /// @param _nonce Submission id.\n    function getSubmisionId(\n        bytes32 _debridgeId,\n        uint256 _amount,\n        address _receiver,\n        uint256 _nonce\n    ) public pure returns (bytes32) {\n        return\n            keccak256(\n                abi.encodePacked(_debridgeId, _amount, _receiver, _nonce)\n            );\n    }\n}\n",
  "sourcePath": "/Users/kstasi/Documents/work/debridge-contracts/contracts/transfers/WhiteDebridge.sol",
  "compiler": {
    "name": "solc",
    "version": "0.8.2+commit.661d1103.Emscripten.clang"
  },
  "schemaVersion": "3.3.4",
  "updatedAt": "2021-03-20T14:49:57.616Z",
  "networkType": "ethereum",
  "devdoc": {
    "kind": "dev",
    "methods": {
      "addExternalAsset(address,uint256,uint256,uint256,uint256[],string,string)": {
        "details": "Add support for the asset from the other chain, deploy new wrapped asset.",
        "params": {
          "_chainId": "Current chain id.",
          "_minAmount": "Minimal amount of the asset to be wrapped.",
          "_name": "Wrapped asset name.",
          "_supportedChainIds": "Chain ids where the token of the current chain can be transfered.",
          "_symbol": "Wrapped asset symbol.",
          "_tokenAddress": "Address of the asset on the other chain.",
          "_transferFee": "Transfer fee rate."
        }
      },
      "addNativelAsset(address,uint256,uint256,uint256[])": {
        "details": "Add support for the asset on the current chain.",
        "params": {
          "_minAmount": "Minimal amount of current chain token to be wrapped.",
          "_supportedChainIds": "Chain ids where native token of the current chain can be wrapped.",
          "_tokenAddress": "Address of the asset on the current chain.",
          "_transferFee": "Transfer fee rate."
        }
      },
      "burn(bytes32,address,uint256)": {
        "details": "Burns wrapped asset and allowss to claim it on the other chain.",
        "params": {
          "_amount": "Amount of the transfered asset (note: the fee can be applyed).",
          "_debridgeId": "Asset identifier.",
          "_receiver": "Receiver address."
        }
      },
      "claim(bytes32,address,uint256,uint256)": {
        "details": "Unlock the asset on the current chain and transfer to receiver.",
        "params": {
          "_amount": "Amount of the transfered asset (note: the fee can be applyed).",
          "_debridgeId": "Asset identifier.",
          "_nonce": "Submission id.",
          "_receiver": "Receiver address."
        }
      },
      "constructor": {
        "details": "Constructor that initializes the most important configurations.",
        "params": {
          "_aggregator": "Submission aggregator address.",
          "_chainId": "Current chain id.",
          "_minAmount": "Minimal amount of current chain token to be wrapped.",
          "_supportedChainIds": "Chain ids where native token of the current chain can be wrapped.",
          "_transferFee": "Transfer fee rate."
        }
      },
      "getDebridgeId(uint256,address)": {
        "details": "Calculates asset identifier.",
        "params": {
          "_chainId": "Current chain id.",
          "_tokenAddress": "Address of the asset on the other chain."
        }
      },
      "getRoleAdmin(bytes32)": {
        "details": "Returns the admin role that controls `role`. See {grantRole} and {revokeRole}. To change a role's admin, use {_setRoleAdmin}."
      },
      "getSubmisionId(bytes32,uint256,address,uint256)": {
        "details": "Calculate submission id.",
        "params": {
          "_amount": "Amount of the transfered asset (note: the fee can be applyed).",
          "_debridgeId": "Asset identifier.",
          "_nonce": "Submission id.",
          "_receiver": "Receiver address."
        }
      },
      "grantRole(bytes32,address)": {
        "details": "Grants `role` to `account`. If `account` had not been already granted `role`, emits a {RoleGranted} event. Requirements: - the caller must have ``role``'s admin role."
      },
      "hasRole(bytes32,address)": {
        "details": "Returns `true` if `account` has been granted `role`."
      },
      "mint(bytes32,address,uint256,uint256)": {
        "details": "Mints wrapped asset on the current chain.",
        "params": {
          "_amount": "Amount of the transfered asset (note: without applyed fee).",
          "_debridgeId": "Asset identifier.",
          "_nonce": "Submission id.",
          "_receiver": "Receiver address."
        }
      },
      "renounceRole(bytes32,address)": {
        "details": "Revokes `role` from the calling account. Roles are often managed via {grantRole} and {revokeRole}: this function's purpose is to provide a mechanism for accounts to lose their privileges if they are compromised (such as when a trusted device is misplaced). If the calling account had been granted `role`, emits a {RoleRevoked} event. Requirements: - the caller must be `account`."
      },
      "revokeRole(bytes32,address)": {
        "details": "Revokes `role` from `account`. If `account` had been granted `role`, emits a {RoleRevoked} event. Requirements: - the caller must have ``role``'s admin role."
      },
      "send(bytes32,address,uint256,uint256)": {
        "details": "Locks asset on the chain and enables minting on the other chain.",
        "params": {
          "_amount": "Amount to be transfered (note: the fee can be applyed).",
          "_chainIdTo": "Chain id of the target chain.",
          "_debridgeId": "Asset identifier.",
          "_receiver": "Receiver address."
        }
      },
      "setAggregator(address)": {
        "details": "Set aggregator address.",
        "params": {
          "_aggregator": "Submission aggregator address."
        }
      },
      "setChainIdSupport(bytes32,uint256,bool)": {
        "details": "Set support for the chains where the token can be transfered.",
        "params": {
          "_chainId": "Current chain id.",
          "_debridgeId": "Asset identifier.",
          "_isSupported": "Whether the token is transferable to the other chain."
        }
      },
      "supportsInterface(bytes4)": {
        "details": "See {IERC165-supportsInterface}."
      },
      "withdrawFee(bytes32,address,uint256)": {
        "details": "Withdraw fees.",
        "params": {
          "_amount": "Submission aggregator address.",
          "_debridgeId": "Asset identifier.",
          "_receiver": "Receiver address."
        }
      }
    },
    "version": 1
  },
  "userdoc": {
    "kind": "user",
    "methods": {},
    "version": 1
  }
}