{
  "contractName": "WhiteLightAggregator",
  "abi": [
    {
      "inputs": [
        {
          "internalType": "uint256",
          "name": "_minConfirmations",
          "type": "uint256"
        },
        {
          "internalType": "uint128",
          "name": "_payment",
          "type": "uint128"
        },
        {
          "internalType": "contract IERC20",
          "name": "_link",
          "type": "address"
        }
      ],
      "stateMutability": "nonpayable",
      "type": "constructor"
    },
    {
      "anonymous": false,
      "inputs": [
        {
          "indexed": false,
          "internalType": "bytes32",
          "name": "submissionId",
          "type": "bytes32"
        },
        {
          "indexed": false,
          "internalType": "address",
          "name": "operator",
          "type": "address"
        }
      ],
      "name": "Confirmed",
      "type": "event"
    },
    {
      "anonymous": false,
      "inputs": [
        {
          "indexed": true,
          "internalType": "bytes32",
          "name": "role",
          "type": "bytes32"
        },
        {
          "indexed": true,
          "internalType": "bytes32",
          "name": "previousAdminRole",
          "type": "bytes32"
        },
        {
          "indexed": true,
          "internalType": "bytes32",
          "name": "newAdminRole",
          "type": "bytes32"
        }
      ],
      "name": "RoleAdminChanged",
      "type": "event"
    },
    {
      "anonymous": false,
      "inputs": [
        {
          "indexed": true,
          "internalType": "bytes32",
          "name": "role",
          "type": "bytes32"
        },
        {
          "indexed": true,
          "internalType": "address",
          "name": "account",
          "type": "address"
        },
        {
          "indexed": true,
          "internalType": "address",
          "name": "sender",
          "type": "address"
        }
      ],
      "name": "RoleGranted",
      "type": "event"
    },
    {
      "anonymous": false,
      "inputs": [
        {
          "indexed": true,
          "internalType": "bytes32",
          "name": "role",
          "type": "bytes32"
        },
        {
          "indexed": true,
          "internalType": "address",
          "name": "account",
          "type": "address"
        },
        {
          "indexed": true,
          "internalType": "address",
          "name": "sender",
          "type": "address"
        }
      ],
      "name": "RoleRevoked",
      "type": "event"
    },
    {
      "anonymous": false,
      "inputs": [
        {
          "indexed": false,
          "internalType": "bytes32",
          "name": "submissionId",
          "type": "bytes32"
        }
      ],
      "name": "SubmissionApproved",
      "type": "event"
    },
    {
      "inputs": [],
      "name": "DEFAULT_ADMIN_ROLE",
      "outputs": [
        {
          "internalType": "bytes32",
          "name": "",
          "type": "bytes32"
        }
      ],
      "stateMutability": "view",
      "type": "function"
    },
    {
      "inputs": [],
      "name": "ORACLE_ROLE",
      "outputs": [
        {
          "internalType": "bytes32",
          "name": "",
          "type": "bytes32"
        }
      ],
      "stateMutability": "view",
      "type": "function"
    },
    {
      "inputs": [
        {
          "internalType": "address",
          "name": "_oracle",
          "type": "address"
        },
        {
          "internalType": "address",
          "name": "_admin",
          "type": "address"
        }
      ],
      "name": "addOracle",
      "outputs": [],
      "stateMutability": "nonpayable",
      "type": "function"
    },
    {
      "inputs": [],
      "name": "allocatedFunds",
      "outputs": [
        {
          "internalType": "uint256",
          "name": "",
          "type": "uint256"
        }
      ],
      "stateMutability": "view",
      "type": "function"
    },
    {
      "inputs": [],
      "name": "availableFunds",
      "outputs": [
        {
          "internalType": "uint256",
          "name": "",
          "type": "uint256"
        }
      ],
      "stateMutability": "view",
      "type": "function"
    },
    {
      "inputs": [
        {
          "internalType": "address",
          "name": "",
          "type": "address"
        }
      ],
      "name": "getOracleInfo",
      "outputs": [
        {
          "internalType": "uint256",
          "name": "withdrawable",
          "type": "uint256"
        },
        {
          "internalType": "address",
          "name": "admin",
          "type": "address"
        }
      ],
      "stateMutability": "view",
      "type": "function"
    },
    {
      "inputs": [
        {
          "internalType": "bytes32",
          "name": "role",
          "type": "bytes32"
        }
      ],
      "name": "getRoleAdmin",
      "outputs": [
        {
          "internalType": "bytes32",
          "name": "",
          "type": "bytes32"
        }
      ],
      "stateMutability": "view",
      "type": "function"
    },
    {
      "inputs": [
        {
          "internalType": "bytes32",
          "name": "",
          "type": "bytes32"
        }
      ],
      "name": "getSubmissionInfo",
      "outputs": [
        {
          "internalType": "bool",
          "name": "confirmed",
          "type": "bool"
        },
        {
          "internalType": "uint256",
          "name": "confirmations",
          "type": "uint256"
        }
      ],
      "stateMutability": "view",
      "type": "function"
    },
    {
      "inputs": [
        {
          "internalType": "address",
          "name": "_oracle",
          "type": "address"
        }
      ],
      "name": "getWithdrawable",
      "outputs": [
        {
          "internalType": "uint256",
          "name": "",
          "type": "uint256"
        }
      ],
      "stateMutability": "view",
      "type": "function"
    },
    {
      "inputs": [
        {
          "internalType": "bytes32",
          "name": "role",
          "type": "bytes32"
        },
        {
          "internalType": "address",
          "name": "account",
          "type": "address"
        }
      ],
      "name": "grantRole",
      "outputs": [],
      "stateMutability": "nonpayable",
      "type": "function"
    },
    {
      "inputs": [
        {
          "internalType": "bytes32",
          "name": "role",
          "type": "bytes32"
        },
        {
          "internalType": "address",
          "name": "account",
          "type": "address"
        }
      ],
      "name": "hasRole",
      "outputs": [
        {
          "internalType": "bool",
          "name": "",
          "type": "bool"
        }
      ],
      "stateMutability": "view",
      "type": "function"
    },
    {
      "inputs": [],
      "name": "link",
      "outputs": [
        {
          "internalType": "contract IERC20",
          "name": "",
          "type": "address"
        }
      ],
      "stateMutability": "view",
      "type": "function"
    },
    {
      "inputs": [],
      "name": "minConfirmations",
      "outputs": [
        {
          "internalType": "uint256",
          "name": "",
          "type": "uint256"
        }
      ],
      "stateMutability": "view",
      "type": "function"
    },
    {
      "inputs": [
        {
          "internalType": "address",
          "name": "",
          "type": "address"
        },
        {
          "internalType": "uint256",
          "name": "",
          "type": "uint256"
        },
        {
          "internalType": "bytes",
          "name": "_data",
          "type": "bytes"
        }
      ],
      "name": "onTokenTransfer",
      "outputs": [],
      "stateMutability": "nonpayable",
      "type": "function"
    },
    {
      "inputs": [],
      "name": "payment",
      "outputs": [
        {
          "internalType": "uint256",
          "name": "",
          "type": "uint256"
        }
      ],
      "stateMutability": "view",
      "type": "function"
    },
    {
      "inputs": [
        {
          "internalType": "address",
          "name": "_oracle",
          "type": "address"
        }
      ],
      "name": "removeOracle",
      "outputs": [],
      "stateMutability": "nonpayable",
      "type": "function"
    },
    {
      "inputs": [
        {
          "internalType": "bytes32",
          "name": "role",
          "type": "bytes32"
        },
        {
          "internalType": "address",
          "name": "account",
          "type": "address"
        }
      ],
      "name": "renounceRole",
      "outputs": [],
      "stateMutability": "nonpayable",
      "type": "function"
    },
    {
      "inputs": [
        {
          "internalType": "bytes32",
          "name": "role",
          "type": "bytes32"
        },
        {
          "internalType": "address",
          "name": "account",
          "type": "address"
        }
      ],
      "name": "revokeRole",
      "outputs": [],
      "stateMutability": "nonpayable",
      "type": "function"
    },
    {
      "inputs": [
        {
          "internalType": "uint256",
          "name": "_minConfirmations",
          "type": "uint256"
        }
      ],
      "name": "setMinConfirmations",
      "outputs": [],
      "stateMutability": "nonpayable",
      "type": "function"
    },
    {
      "inputs": [
        {
          "internalType": "uint128",
          "name": "_payment",
          "type": "uint128"
        }
      ],
      "name": "setPayment",
      "outputs": [],
      "stateMutability": "nonpayable",
      "type": "function"
    },
    {
      "inputs": [
        {
          "internalType": "bytes4",
          "name": "interfaceId",
          "type": "bytes4"
        }
      ],
      "name": "supportsInterface",
      "outputs": [
        {
          "internalType": "bool",
          "name": "",
          "type": "bool"
        }
      ],
      "stateMutability": "view",
      "type": "function"
    },
    {
      "inputs": [],
      "name": "updateAvailableFunds",
      "outputs": [],
      "stateMutability": "nonpayable",
      "type": "function"
    },
    {
      "inputs": [
        {
          "internalType": "address",
          "name": "_oracle",
          "type": "address"
        },
        {
          "internalType": "address",
          "name": "_newOracle",
          "type": "address"
        }
      ],
      "name": "updateOracleAddress",
      "outputs": [],
      "stateMutability": "nonpayable",
      "type": "function"
    },
    {
      "inputs": [
        {
          "internalType": "address",
          "name": "_oracle",
          "type": "address"
        },
        {
          "internalType": "address",
          "name": "_newOracleAdmin",
          "type": "address"
        }
      ],
      "name": "updateOracleAdmin",
      "outputs": [],
      "stateMutability": "nonpayable",
      "type": "function"
    },
    {
      "inputs": [
        {
          "internalType": "address",
          "name": "_recipient",
          "type": "address"
        },
        {
          "internalType": "uint256",
          "name": "_amount",
          "type": "uint256"
        }
      ],
      "name": "withdrawFunds",
      "outputs": [],
      "stateMutability": "nonpayable",
      "type": "function"
    },
    {
      "inputs": [
        {
          "internalType": "address",
          "name": "_oracle",
          "type": "address"
        },
        {
          "internalType": "address",
          "name": "_recipient",
          "type": "address"
        },
        {
          "internalType": "uint256",
          "name": "_amount",
          "type": "uint256"
        }
      ],
      "name": "withdrawPayment",
      "outputs": [],
      "stateMutability": "nonpayable",
      "type": "function"
    },
    {
      "inputs": [
        {
          "internalType": "bytes32[]",
          "name": "_submissionIds",
          "type": "bytes32[]"
        },
        {
          "internalType": "bytes[]",
          "name": "_signatures",
          "type": "bytes[]"
        }
      ],
      "name": "submitMany",
      "outputs": [],
      "stateMutability": "nonpayable",
      "type": "function"
    },
    {
      "inputs": [
        {
          "internalType": "bytes32",
          "name": "_submissionId",
          "type": "bytes32"
        },
        {
          "internalType": "bytes",
          "name": "_signature",
          "type": "bytes"
        }
      ],
      "name": "submit",
      "outputs": [],
      "stateMutability": "nonpayable",
      "type": "function"
    },
    {
      "inputs": [
        {
          "internalType": "bytes32",
          "name": "_submissionId",
          "type": "bytes32"
        }
      ],
      "name": "isSubmissionConfirmed",
      "outputs": [
        {
          "internalType": "bool",
          "name": "",
          "type": "bool"
        }
      ],
      "stateMutability": "view",
      "type": "function"
    },
    {
      "inputs": [
        {
          "internalType": "bytes32",
          "name": "_submissionId",
          "type": "bytes32"
        }
      ],
      "name": "getSubmissionSignatures",
      "outputs": [
        {
          "internalType": "bytes[]",
          "name": "",
          "type": "bytes[]"
        }
      ],
      "stateMutability": "view",
      "type": "function"
    },
    {
      "inputs": [
        {
          "internalType": "bytes32",
          "name": "_submissionId",
          "type": "bytes32"
        }
      ],
      "name": "getUnsignedMsg",
      "outputs": [
        {
          "internalType": "bytes32",
          "name": "",
          "type": "bytes32"
        }
      ],
      "stateMutability": "pure",
      "type": "function"
    },
    {
      "inputs": [
        {
          "internalType": "bytes",
          "name": "_signature",
          "type": "bytes"
        }
      ],
      "name": "splitSignature",
      "outputs": [
        {
          "internalType": "bytes32",
          "name": "r",
          "type": "bytes32"
        },
        {
          "internalType": "bytes32",
          "name": "s",
          "type": "bytes32"
        },
        {
          "internalType": "uint8",
          "name": "v",
          "type": "uint8"
        }
      ],
      "stateMutability": "pure",
      "type": "function"
    }
  ],
  "bytecode": "0x60806040523480156200001157600080fd5b5060405162001d4d38038062001d4d833981016040819052620000349162000159565b60018390556001600160801b038216600455600580546001600160a01b0319166001600160a01b03831617905582828262000071600033620000a9565b6200009d7f68e79a7bf1e0bc45d0a330c573bc367f9cf464fd326078812f301165fbda4ef133620000a9565b505050505050620001b5565b620000b58282620000b9565b5050565b6000828152602081815260408083206001600160a01b038516845290915290205460ff16620000b5576000828152602081815260408083206001600160a01b03851684529091529020805460ff19166001179055620001153390565b6001600160a01b0316816001600160a01b0316837f2f8788117e7eff1d82e926ec794901d17c78024a50270940304540a733656f0d60405160405180910390a45050565b6000806000606084860312156200016e578283fd5b835160208501519093506001600160801b03811681146200018d578283fd5b60408501519092506001600160a01b0381168114620001aa578182fd5b809150509250925092565b611b8880620001c56000396000f3fe608060405234801561001057600080fd5b50600436106101f05760003560e01c806382313e501161010f578063d2821655116100a2578063e75a592611610071578063e75a5926146104d0578063e7c4393e146104e3578063f0ca4adb146104ec578063fdc85fc4146104ff576101f0565b8063d282165514610481578063d4cc54e414610494578063d547741f1461049d578063d8a31674146104b0576101f0565b8063a7bb5803116100de578063a7bb5803146103dd578063bfdb6b041461040e578063c10753291461045b578063c3d990ee1461046e576101f0565b806382313e501461039c57806391d14854146103af578063a217fddf146103c2578063a4c0ed36146103ca576101f0565b806336568abe1161018757806346fcff4c1161015657806346fcff4c1461036557806348f6179c1461036e5780634f8fc3b5146103815780634fbca33e14610389576101f0565b806336568abe146103235780633d3d7714146103365780633d5376fa1461034957806342f6487a1461035c576101f0565b8063248a9ca3116101c3578063248a9ca3146102af5780632f2ff15d146102d25780632f99e4da146102e757806332cc6ae6146102fa576101f0565b806301ffc9a7146101f557806307e2cea51461021d5780630e3b90a9146102405780631c4695f414610284575b600080fd5b610208610203366004611898565b610512565b60405190151581526020015b60405180910390f35b610232600080516020611b3383398151915281565b604051908152602001610214565b61026d61024e366004611823565b6007602052600090815260409020805460019091015460ff9091169082565b604080519215158352602083019190915201610214565b600554610297906001600160a01b031681565b6040516001600160a01b039091168152602001610214565b6102326102bd366004611823565b60009081526020819052604090206001015490565b6102e56102e036600461183b565b61054b565b005b6102086102f5366004611823565b6105df565b610232610308366004611613565b6001600160a01b031660009081526006602052604090205490565b6102e561033136600461183b565b610612565b6102e5610344366004611666565b61068c565b6102e561035736600461185d565b61086d565b61023260045481565b61023260035481565b6102e561037c366004611634565b6108ab565b6102e5610978565b6102e561039736600461174c565b610a05565b6102e56103aa3660046118fb565b610b22565b6102086103bd36600461183b565b610b57565b610232600081565b6102e56103d83660046116ca565b610b80565b6103f06103eb3660046118c0565b610c30565b60408051938452602084019290925260ff1690820152606001610214565b61043e61041c366004611613565b600660205260009081526040902080546001909101546001600160a01b031682565b604080519283526001600160a01b03909116602083015201610214565b6102e56104693660046116a1565b610cb5565b61023261047c366004611823565b610e08565b6102e561048f366004611823565b610e5b565b61023260025481565b6102e56104ab36600461183b565b610e87565b6104c36104be366004611823565b610f07565b604051610214919061193a565b6102e56104de366004611634565b610ff6565b61023260015481565b6102e56104fa366004611634565b6110a5565b6102e561050d366004611613565b6110e4565b60006001600160e01b03198216637965db0b60e01b148061054357506301ffc9a760e01b6001600160e01b03198316145b90505b919050565b600082815260208190526040902060010154610568905b336103bd565b6105d15760405162461bcd60e51b815260206004820152602f60248201527f416363657373436f6e74726f6c3a2073656e646572206d75737420626520616e60448201526e0818591b5a5b881d1bc819dc985b9d608a1b60648201526084015b60405180910390fd5b6105db8282611126565b5050565b60008181526007602052604081205460ff1680610543575050600180546000928352600760205260409092200154101590565b6001600160a01b03811633146106825760405162461bcd60e51b815260206004820152602f60248201527f416363657373436f6e74726f6c3a2063616e206f6e6c792072656e6f756e636560448201526e103937b632b9903337b91039b2b63360891b60648201526084016105c8565b6105db82826111aa565b6001600160a01b038381166000908152600660205260409020600101541633146107085760405162461bcd60e51b815260206004820152602760248201527f77697468647261775061796d656e743a206f6e6c792063616c6c61626c6520626044820152663c9030b236b4b760c91b60648201526084016105c8565b6001600160a01b0383166000908152600660205260409020548181101561078a5760405162461bcd60e51b815260206004820152603060248201527f77697468647261775061796d656e743a20696e73756666696369656e7420776960448201526f74686472617761626c652066756e647360801b60648201526084016105c8565b6107948282611a99565b6001600160a01b038516600090815260066020526040812091909155600280548492906107c2908490611a99565b909155505060055460405163a9059cbb60e01b81526001600160a01b038581166004830152602482018590529091169063a9059cbb90604401602060405180830381600087803b15801561081557600080fd5b505af1158015610829573d6000803e3d6000fd5b505050506040513d601f19601f8201168201806040525081019061084d9190611803565b61086757634e487b7160e01b600052600160045260246000fd5b50505050565b610885600080516020611b3383398151915233610b57565b6108a15760405162461bcd60e51b81526004016105c8906119fe565b6105db828261120f565b6001600160a01b0382811660009081526006602052604090206001015416331461092b5760405162461bcd60e51b815260206004820152602b60248201527f7570646174654f7261636c65416464726573733a206f6e6c792063616c6c616260448201526a363290313c9030b236b4b760a91b60648201526084016105c8565b6001600160a01b0390811660009081526006602052604080822060018082018054336001600160a01b03199182161790915595909416835290822080549091559081550180549091169055565b6002546005546040516370a0823160e01b81523060048201526001600160a01b03909116906370a082319060240160206040518083038186803b1580156109be57600080fd5b505afa1580156109d2573d6000803e3d6000fd5b505050506040513d601f19601f820116820180604052508101906109f69190611922565b610a009190611a99565b600355565b610a1d600080516020611b3383398151915233610b57565b610a395760405162461bcd60e51b81526004016105c8906119fe565b8051825114610aa75760405162461bcd60e51b815260206004820152603460248201527f7375626d69744d616e793a207369676e61747572657320616e64207375626d696044820152730e6e6d2dedc40c6deeadce840dad2e6dac2e8c6d60631b60648201526084016105c8565b60005b8251811015610b1d57610b0b838281518110610ad657634e487b7160e01b600052603260045260246000fd5b6020026020010151838381518110610afe57634e487b7160e01b600052603260045260246000fd5b602002602001015161120f565b80610b1581611aeb565b915050610aaa565b505050565b610b2d600033610b57565b610b495760405162461bcd60e51b81526004016105c8906119d1565b6001600160801b0316600455565b6000918252602082815260408084206001600160a01b0393909316845291905290205460ff1690565b6005546001600160a01b03163314610bda5760405162461bcd60e51b815260206004820152601d60248201527f6f6e546f6b656e5472616e736665723a206e6f7420746865204c696e6b00000060448201526064016105c8565b8015610c285760405162461bcd60e51b815260206004820181905260248201527f7472616e7366657220646f65736e2774206163636570742063616c6c6461746160448201526064016105c8565b610867610978565b60008060008351604114610c975760405162461bcd60e51b815260206004820152602860248201527f73706c69745369676e61747572653a20696e76616c6964207369676e617475726044820152670ca40d8cadccee8d60c31b60648201526084016105c8565b50505060208101516040820151606090920151909260009190911a90565b610cc0600033610b57565b610cdc5760405162461bcd60e51b81526004016105c8906119d1565b806003541015610d2e5760405162461bcd60e51b815260206004820152601a60248201527f696e73756666696369656e7420726573657276652066756e647300000000000060448201526064016105c8565b60055460405163a9059cbb60e01b81526001600160a01b038481166004830152602482018490529091169063a9059cbb90604401602060405180830381600087803b158015610d7c57600080fd5b505af1158015610d90573d6000803e3d6000fd5b505050506040513d601f19601f82011682018060405250810190610db49190611803565b610e005760405162461bcd60e51b815260206004820152601e60248201527f776974686472617746756e64733a207472616e73666572206661696c6564000060448201526064016105c8565b6105db610978565b6040517f19457468657265756d205369676e6564204d6573736167653a0a3332000000006020820152603c8101829052600090605c01604051602081830303815290604052805190602001209050919050565b610e66600033610b57565b610e825760405162461bcd60e51b81526004016105c8906119d1565b600155565b600082815260208190526040902060010154610ea290610562565b6106825760405162461bcd60e51b815260206004820152603060248201527f416363657373436f6e74726f6c3a2073656e646572206d75737420626520616e60448201526f2061646d696e20746f207265766f6b6560801b60648201526084016105c8565b606060076000838152602001908152602001600020600201805480602002602001604051908101604052809291908181526020016000905b82821015610feb578382906000526020600020018054610f5e90611ab0565b80601f0160208091040260200160405190810160405280929190818152602001828054610f8a90611ab0565b8015610fd75780601f10610fac57610100808354040283529160200191610fd7565b820191906000526020600020905b815481529060010190602001808311610fba57829003601f168201915b505050505081526020019060010190610f3f565b505050509050919050565b6001600160a01b038281166000908152600660205260409020600101541633146110745760405162461bcd60e51b815260206004820152602960248201527f7570646174654f7261636c6541646d696e3a206f6e6c792063616c6c61626c6560448201526810313c9030b236b4b760b91b60648201526084016105c8565b6001600160a01b03918216600090815260066020526040902060010180546001600160a01b03191691909216179055565b6110b0600033610b57565b6110cc5760405162461bcd60e51b81526004016105c8906119d1565b611074600080516020611b338339815191528361054b565b6110ef600033610b57565b61110b5760405162461bcd60e51b81526004016105c8906119d1565b611123600080516020611b3383398151915282610e87565b50565b6111308282610b57565b6105db576000828152602081815260408083206001600160a01b03851684529091529020805460ff191660011790556111663390565b6001600160a01b0316816001600160a01b0316837f2f8788117e7eff1d82e926ec794901d17c78024a50270940304540a733656f0d60405160405180910390a45050565b6111b48282610b57565b156105db576000828152602081815260408083206001600160a01b0385168085529252808320805460ff1916905551339285917ff6391f5c32d9c69d2a47ea670b442974b53935d1edc7fd64eb21e047a839171b9190a45050565b6000828152600760209081526040808320338452600381019092529091205460ff161561127e5760405162461bcd60e51b815260206004820152601960248201527f7375626d69743a207375626d697474656420616c72656164790000000000000060448201526064016105c8565b600080600061128c85610c30565b925092509250600061129d87610e08565b6040805160008082526020820180845284905260ff86169282019290925260608101879052608081018690529192509060019060a0016020604051602081039080840390855afa1580156112f5573d6000803e3d6000fd5b5050604051601f190151915050336001600160a01b0382161461132a5760405162461bcd60e51b81526004016105c8906119fe565b600186600101600082825461133f9190611a81565b90915550506002860180546001810182556000918252602091829020895161136f939190920191908a0190611491565b503360009081526003870160205260409020805460ff19166001908117909155805490870154106113e057855460ff191660011786556040517f2a6b4960c287d4d53a338f9c9a9f830f37e7b66e67a0a958f68be89a4eeb939d906113d7908a815260200190565b60405180910390a15b6113e93361142b565b604080518981523360208201527fd4964a7cd99f5c1fa8f2420fb5e1d3bd26eadf16e2658cf2e29a67dfda38601e910160405180910390a15050505050505050565b6004546003600082825461143f9190611a99565b909155505060045460028054600090611459908490611a81565b90915550506004546001600160a01b03821660009081526006602052604081208054909190611489908490611a81565b909155505050565b82805461149d90611ab0565b90600052602060002090601f0160209004810192826114bf5760008555611505565b82601f106114d857805160ff1916838001178555611505565b82800160010185558215611505579182015b828111156115055782518255916020019190600101906114ea565b50611511929150611515565b5090565b5b808211156115115760008155600101611516565b80356001600160a01b038116811461054657600080fd5b600082601f830112611551578081fd5b8135602061156661156183611a5d565b611a2c565b82815281810190858301855b8581101561159b57611589898684358b01016115a8565b84529284019290840190600101611572565b5090979650505050505050565b600082601f8301126115b8578081fd5b813567ffffffffffffffff8111156115d2576115d2611b1c565b6115e5601f8201601f1916602001611a2c565b8181528460208386010111156115f9578283fd5b816020850160208301379081016020019190915292915050565b600060208284031215611624578081fd5b61162d8261152a565b9392505050565b60008060408385031215611646578081fd5b61164f8361152a565b915061165d6020840161152a565b90509250929050565b60008060006060848603121561167a578081fd5b6116838461152a565b92506116916020850161152a565b9150604084013590509250925092565b600080604083850312156116b3578182fd5b6116bc8361152a565b946020939093013593505050565b600080600080606085870312156116df578081fd5b6116e88561152a565b935060208501359250604085013567ffffffffffffffff8082111561170b578283fd5b818701915087601f83011261171e578283fd5b81358181111561172c578384fd5b88602082850101111561173d578384fd5b95989497505060200194505050565b6000806040838503121561175e578182fd5b823567ffffffffffffffff80821115611775578384fd5b818501915085601f830112611788578384fd5b8135602061179861156183611a5d565b82815281810190858301838502870184018b10156117b4578889fd5b8896505b848710156117d65780358352600196909601959183019183016117b8565b50965050860135925050808211156117ec578283fd5b506117f985828601611541565b9150509250929050565b600060208284031215611814578081fd5b8151801515811461162d578182fd5b600060208284031215611834578081fd5b5035919050565b6000806040838503121561184d578182fd5b8235915061165d6020840161152a565b6000806040838503121561186f578182fd5b82359150602083013567ffffffffffffffff81111561188c578182fd5b6117f9858286016115a8565b6000602082840312156118a9578081fd5b81356001600160e01b03198116811461162d578182fd5b6000602082840312156118d1578081fd5b813567ffffffffffffffff8111156118e7578182fd5b6118f3848285016115a8565b949350505050565b60006020828403121561190c578081fd5b81356001600160801b038116811461162d578182fd5b600060208284031215611933578081fd5b5051919050565b6000602080830181845280855180835260408601915060408482028701019250838701855b828110156119c457878503603f1901845281518051808752885b81811015611994578281018901518882018a01528801611979565b818111156119a4578989838a0101525b50601f01601f19169590950186019450928501929085019060010161195f565b5092979650505050505050565b6020808252601390820152726f6e6c7941646d696e3a2062616420726f6c6560681b604082015260600190565b6020808252601490820152736f6e6c794f7261636c653a2062616420726f6c6560601b604082015260600190565b604051601f8201601f1916810167ffffffffffffffff81118282101715611a5557611a55611b1c565b604052919050565b600067ffffffffffffffff821115611a7757611a77611b1c565b5060209081020190565b60008219821115611a9457611a94611b06565b500190565b600082821015611aab57611aab611b06565b500390565b600281046001821680611ac457607f821691505b60208210811415611ae557634e487b7160e01b600052602260045260246000fd5b50919050565b6000600019821415611aff57611aff611b06565b5060010190565b634e487b7160e01b600052601160045260246000fd5b634e487b7160e01b600052604160045260246000fdfe68e79a7bf1e0bc45d0a330c573bc367f9cf464fd326078812f301165fbda4ef1a26469706673582212203c8db4b40739b255c0396471d8bbcad54dd99c7207c65bfc2110b59b85ec362d64736f6c63430008020033",
  "immutableReferences": {},
  "source": "// SPDX-License-Identifier: MIT\npragma solidity ^0.8.2;\n\nimport \"@openzeppelin/contracts/access/AccessControl.sol\";\nimport \"@openzeppelin/contracts/token/ERC20/IERC20.sol\";\nimport \"./Aggregator.sol\";\nimport \"../interfaces/IWhiteLightAggregator.sol\";\n\ncontract WhiteLightAggregator is Aggregator, IWhiteLightAggregator {\n    struct SubmissionInfo {\n        bool confirmed; // whether is confirmed\n        uint256 confirmations; // received confirmations count\n        bytes[] signatures;\n        mapping(address => bool) hasVerified; // verifier => has already voted\n    }\n\n    mapping(bytes32 => SubmissionInfo) public getSubmissionInfo; // mint id => submission info\n\n    event Confirmed(bytes32 submissionId, address operator); // emitted once the submission is confirmed by one oracle\n    event SubmissionApproved(bytes32 submissionId); // emitted once the submission is confirmed by min required aount of oracles\n\n    /// @dev Constructor that initializes the most important configurations.\n    /// @param _minConfirmations Minimal required confirmations.\n    /// @param _payment Oracle reward.\n    /// @param _link Link token to pay to oracles.\n    constructor(\n        uint256 _minConfirmations,\n        uint128 _payment,\n        IERC20 _link\n    ) Aggregator(_minConfirmations, _payment, _link) {}\n\n    /// @dev Confirms few transfer requests.\n    /// @param _submissionIds Submission identifiers.\n    /// @param _signatures Oracles signature.\n    function submitMany(\n        bytes32[] memory _submissionIds,\n        bytes[] memory _signatures\n    ) external override onlyOracle {\n        require(\n            _submissionIds.length == _signatures.length,\n            \"submitMany: signatures and submission count mismatch\"\n        );\n        for (uint256 i; i < _submissionIds.length; i++) {\n            _submit(_submissionIds[i], _signatures[i]);\n        }\n    }\n\n    /// @dev Confirms the transfer request.\n    /// @param _submissionId Submission identifier.\n    /// @param _signature Oracle's signature.\n    function submit(bytes32 _submissionId, bytes memory _signature)\n        external\n        override\n        onlyOracle\n    {\n        _submit(_submissionId, _signature);\n    }\n\n    /// @dev Confirms single transfer request.\n    /// @param _submissionId Submission identifier.\n    /// @param _signature Oracle's signature.\n    function _submit(bytes32 _submissionId, bytes memory _signature) internal {\n        SubmissionInfo storage submissionInfo =\n            getSubmissionInfo[_submissionId];\n        require(\n            !submissionInfo.hasVerified[msg.sender],\n            \"submit: submitted already\"\n        );\n        (bytes32 r, bytes32 s, uint8 v) = splitSignature(_signature);\n        bytes32 unsignedMsg = getUnsignedMsg(_submissionId);\n        address oracle = ecrecover(unsignedMsg, v, r, s);\n        require(msg.sender == oracle, \"onlyOracle: bad role\");\n        submissionInfo.confirmations += 1;\n        submissionInfo.signatures.push(_signature);\n        submissionInfo.hasVerified[msg.sender] = true;\n        if (submissionInfo.confirmations >= minConfirmations) {\n            submissionInfo.confirmed = true;\n            emit SubmissionApproved(_submissionId);\n        }\n        _payOracle(msg.sender);\n        emit Confirmed(_submissionId, msg.sender);\n    }\n\n    /// @dev Returns whether transfer request is confirmed.\n    /// @param _submissionId Submission identifier.\n    /// @return Whether transfer request is confirmed.\n    function isSubmissionConfirmed(bytes32 _submissionId)\n        external\n        view\n        override\n        returns (bool)\n    {\n        return\n            getSubmissionInfo[_submissionId].confirmed ||\n            getSubmissionInfo[_submissionId].confirmations >= minConfirmations;\n    }\n\n    /// @dev Returns whether transfer request is confirmed.\n    /// @param _submissionId Submission identifier.\n    /// @return Oracles signatures.\n    function getSubmissionSignatures(bytes32 _submissionId)\n        external\n        view\n        returns (bytes[] memory)\n    {\n        return getSubmissionInfo[_submissionId].signatures;\n    }\n\n    /// @dev Prepares raw msg that was signed by the oracle.\n    /// @param _submissionId Submission identifier.\n    function getUnsignedMsg(bytes32 _submissionId)\n        public\n        pure\n        returns (bytes32)\n    {\n        return\n            keccak256(\n                abi.encodePacked(\n                    \"\\x19Ethereum Signed Message:\\n32\",\n                    _submissionId\n                )\n            );\n    }\n\n    /// @dev Splits signature bytes to r,s,v components.\n    /// @param _signature Signature bytes in format r+s+v.\n    function splitSignature(bytes memory _signature)\n        public\n        pure\n        returns (\n            bytes32 r,\n            bytes32 s,\n            uint8 v\n        )\n    {\n        require(\n            _signature.length == 65,\n            \"splitSignature: invalid signature length\"\n        );\n        assembly {\n            r := mload(add(_signature, 32))\n            s := mload(add(_signature, 64))\n            v := byte(0, mload(add(_signature, 96)))\n        }\n    }\n}\n",
  "sourcePath": "/Users/kstasi/Documents/side/debridge-contracts/contracts/chainlink/WhiteLightAggregator.sol",
  "compiler": {
    "name": "solc",
    "version": "0.8.2+commit.661d1103.Emscripten.clang"
  },
  "schemaVersion": "3.3.4",
  "updatedAt": "2021-05-30T16:27:09.400Z",
  "devdoc": {
    "kind": "dev",
    "methods": {
      "addOracle(address,address)": {
        "details": "Add new oracle.",
        "params": {
          "_admin": "Admin address.",
          "_oracle": "Oracle address."
        }
      },
      "constructor": {
        "details": "Constructor that initializes the most important configurations.",
        "params": {
          "_link": "Link token to pay to oracles.",
          "_minConfirmations": "Minimal required confirmations.",
          "_payment": "Oracle reward."
        }
      },
      "getRoleAdmin(bytes32)": {
        "details": "Returns the admin role that controls `role`. See {grantRole} and {revokeRole}. To change a role's admin, use {_setRoleAdmin}."
      },
      "getSubmissionSignatures(bytes32)": {
        "details": "Returns whether transfer request is confirmed.",
        "params": {
          "_submissionId": "Submission identifier."
        },
        "returns": {
          "_0": "Oracles signatures."
        }
      },
      "getUnsignedMsg(bytes32)": {
        "details": "Prepares raw msg that was signed by the oracle.",
        "params": {
          "_submissionId": "Submission identifier."
        }
      },
      "getWithdrawable(address)": {
        "details": "Return's oracle reward.",
        "params": {
          "_oracle": "Oracle address."
        },
        "returns": {
          "_0": "Oracle rewards."
        }
      },
      "grantRole(bytes32,address)": {
        "details": "Grants `role` to `account`. If `account` had not been already granted `role`, emits a {RoleGranted} event. Requirements: - the caller must have ``role``'s admin role."
      },
      "hasRole(bytes32,address)": {
        "details": "Returns `true` if `account` has been granted `role`."
      },
      "isSubmissionConfirmed(bytes32)": {
        "details": "Returns whether transfer request is confirmed.",
        "params": {
          "_submissionId": "Submission identifier."
        },
        "returns": {
          "_0": "Whether transfer request is confirmed."
        }
      },
      "onTokenTransfer(address,uint256,bytes)": {
        "details": "Updates link balance.",
        "params": {
          "_data": "Call data."
        }
      },
      "removeOracle(address)": {
        "details": "Remove oracle.",
        "params": {
          "_oracle": "Oracle address."
        }
      },
      "renounceRole(bytes32,address)": {
        "details": "Revokes `role` from the calling account. Roles are often managed via {grantRole} and {revokeRole}: this function's purpose is to provide a mechanism for accounts to lose their privileges if they are compromised (such as when a trusted device is misplaced). If the calling account had been granted `role`, emits a {RoleRevoked} event. Requirements: - the caller must be `account`."
      },
      "revokeRole(bytes32,address)": {
        "details": "Revokes `role` from `account`. If `account` had been granted `role`, emits a {RoleRevoked} event. Requirements: - the caller must have ``role``'s admin role."
      },
      "setMinConfirmations(uint256)": {
        "details": "Sets minimal required confirmations.",
        "params": {
          "_minConfirmations": "Minimal required confirmations."
        }
      },
      "setPayment(uint128)": {
        "details": "Sets new oracle reward.",
        "params": {
          "_payment": "Oracle reward."
        }
      },
      "splitSignature(bytes)": {
        "details": "Splits signature bytes to r,s,v components.",
        "params": {
          "_signature": "Signature bytes in format r+s+v."
        }
      },
      "submit(bytes32,bytes)": {
        "details": "Confirms the transfer request.",
        "params": {
          "_signature": "Oracle's signature.",
          "_submissionId": "Submission identifier."
        }
      },
      "submitMany(bytes32[],bytes[])": {
        "details": "Confirms few transfer requests.",
        "params": {
          "_signatures": "Oracles signature.",
          "_submissionIds": "Submission identifiers."
        }
      },
      "supportsInterface(bytes4)": {
        "details": "See {IERC165-supportsInterface}."
      },
      "updateAvailableFunds()": {
        "details": "Updates available rewards to be distributed."
      },
      "updateOracleAddress(address,address)": {
        "details": "Updates oracle's address.",
        "params": {
          "_newOracle": "New oracle address.",
          "_oracle": "Oracle address."
        }
      },
      "updateOracleAdmin(address,address)": {
        "details": "Updates oracle's admin address.",
        "params": {
          "_newOracleAdmin": "New oracle address.",
          "_oracle": "Oracle address."
        }
      },
      "withdrawFunds(address,uint256)": {
        "details": "Withdraws earned LINK's.",
        "params": {
          "_amount": "Amount to withdraw.",
          "_recipient": "Reward's recepient."
        }
      },
      "withdrawPayment(address,address,uint256)": {
        "details": "Withdraws oracle reward.",
        "params": {
          "_amount": "Amount to withdraw.",
          "_oracle": "Oracle address.",
          "_recipient": "Recepient reward."
        }
      }
    },
    "version": 1
  },
  "userdoc": {
    "kind": "user",
    "methods": {},
    "version": 1
  }
}