{
  "contractName": "WhiteAggregator",
  "abi": [
    {
      "inputs": [
        {
          "internalType": "uint256",
          "name": "_minConfirmations",
          "type": "uint256"
        },
        {
          "internalType": "uint128",
          "name": "_payment",
          "type": "uint128"
        },
        {
          "internalType": "contract IERC20",
          "name": "_link",
          "type": "address"
        }
      ],
      "stateMutability": "nonpayable",
      "type": "constructor"
    },
    {
      "anonymous": false,
      "inputs": [
        {
          "indexed": false,
          "internalType": "bytes32",
          "name": "submissionId",
          "type": "bytes32"
        },
        {
          "indexed": false,
          "internalType": "address",
          "name": "operator",
          "type": "address"
        }
      ],
      "name": "Confirmed",
      "type": "event"
    },
    {
      "anonymous": false,
      "inputs": [
        {
          "indexed": true,
          "internalType": "bytes32",
          "name": "role",
          "type": "bytes32"
        },
        {
          "indexed": true,
          "internalType": "bytes32",
          "name": "previousAdminRole",
          "type": "bytes32"
        },
        {
          "indexed": true,
          "internalType": "bytes32",
          "name": "newAdminRole",
          "type": "bytes32"
        }
      ],
      "name": "RoleAdminChanged",
      "type": "event"
    },
    {
      "anonymous": false,
      "inputs": [
        {
          "indexed": true,
          "internalType": "bytes32",
          "name": "role",
          "type": "bytes32"
        },
        {
          "indexed": true,
          "internalType": "address",
          "name": "account",
          "type": "address"
        },
        {
          "indexed": true,
          "internalType": "address",
          "name": "sender",
          "type": "address"
        }
      ],
      "name": "RoleGranted",
      "type": "event"
    },
    {
      "anonymous": false,
      "inputs": [
        {
          "indexed": true,
          "internalType": "bytes32",
          "name": "role",
          "type": "bytes32"
        },
        {
          "indexed": true,
          "internalType": "address",
          "name": "account",
          "type": "address"
        },
        {
          "indexed": true,
          "internalType": "address",
          "name": "sender",
          "type": "address"
        }
      ],
      "name": "RoleRevoked",
      "type": "event"
    },
    {
      "inputs": [],
      "name": "DEFAULT_ADMIN_ROLE",
      "outputs": [
        {
          "internalType": "bytes32",
          "name": "",
          "type": "bytes32"
        }
      ],
      "stateMutability": "view",
      "type": "function",
      "constant": true
    },
    {
      "inputs": [],
      "name": "ORACLE_ROLE",
      "outputs": [
        {
          "internalType": "bytes32",
          "name": "",
          "type": "bytes32"
        }
      ],
      "stateMutability": "view",
      "type": "function",
      "constant": true
    },
    {
      "inputs": [
        {
          "internalType": "address",
          "name": "_oracle",
          "type": "address"
        }
      ],
      "name": "addOracle",
      "outputs": [],
      "stateMutability": "nonpayable",
      "type": "function"
    },
    {
      "inputs": [],
      "name": "allocatedFunds",
      "outputs": [
        {
          "internalType": "uint256",
          "name": "",
          "type": "uint256"
        }
      ],
      "stateMutability": "view",
      "type": "function",
      "constant": true
    },
    {
      "inputs": [],
      "name": "availableFunds",
      "outputs": [
        {
          "internalType": "uint256",
          "name": "",
          "type": "uint256"
        }
      ],
      "stateMutability": "view",
      "type": "function",
      "constant": true
    },
    {
      "inputs": [
        {
          "internalType": "bytes32",
          "name": "",
          "type": "bytes32"
        }
      ],
      "name": "getBurntInfo",
      "outputs": [
        {
          "internalType": "bool",
          "name": "confirmed",
          "type": "bool"
        },
        {
          "internalType": "uint256",
          "name": "confirmations",
          "type": "uint256"
        }
      ],
      "stateMutability": "view",
      "type": "function",
      "constant": true
    },
    {
      "inputs": [
        {
          "internalType": "bytes32",
          "name": "",
          "type": "bytes32"
        }
      ],
      "name": "getMintInfo",
      "outputs": [
        {
          "internalType": "bool",
          "name": "confirmed",
          "type": "bool"
        },
        {
          "internalType": "uint256",
          "name": "confirmations",
          "type": "uint256"
        }
      ],
      "stateMutability": "view",
      "type": "function",
      "constant": true
    },
    {
      "inputs": [
        {
          "internalType": "bytes32",
          "name": "role",
          "type": "bytes32"
        }
      ],
      "name": "getRoleAdmin",
      "outputs": [
        {
          "internalType": "bytes32",
          "name": "",
          "type": "bytes32"
        }
      ],
      "stateMutability": "view",
      "type": "function",
      "constant": true
    },
    {
      "inputs": [
        {
          "internalType": "address",
          "name": "",
          "type": "address"
        }
      ],
      "name": "getRracleInfo",
      "outputs": [
        {
          "internalType": "uint128",
          "name": "withdrawable",
          "type": "uint128"
        },
        {
          "internalType": "address",
          "name": "admin",
          "type": "address"
        },
        {
          "internalType": "address",
          "name": "pendingAdmin",
          "type": "address"
        }
      ],
      "stateMutability": "view",
      "type": "function",
      "constant": true
    },
    {
      "inputs": [
        {
          "internalType": "bytes32",
          "name": "role",
          "type": "bytes32"
        },
        {
          "internalType": "address",
          "name": "account",
          "type": "address"
        }
      ],
      "name": "grantRole",
      "outputs": [],
      "stateMutability": "nonpayable",
      "type": "function"
    },
    {
      "inputs": [
        {
          "internalType": "bytes32",
          "name": "role",
          "type": "bytes32"
        },
        {
          "internalType": "address",
          "name": "account",
          "type": "address"
        }
      ],
      "name": "hasRole",
      "outputs": [
        {
          "internalType": "bool",
          "name": "",
          "type": "bool"
        }
      ],
      "stateMutability": "view",
      "type": "function",
      "constant": true
    },
    {
      "inputs": [],
      "name": "link",
      "outputs": [
        {
          "internalType": "contract IERC20",
          "name": "",
          "type": "address"
        }
      ],
      "stateMutability": "view",
      "type": "function",
      "constant": true
    },
    {
      "inputs": [],
      "name": "minConfirmations",
      "outputs": [
        {
          "internalType": "uint256",
          "name": "",
          "type": "uint256"
        }
      ],
      "stateMutability": "view",
      "type": "function",
      "constant": true
    },
    {
      "inputs": [
        {
          "internalType": "address",
          "name": "",
          "type": "address"
        },
        {
          "internalType": "uint256",
          "name": "",
          "type": "uint256"
        },
        {
          "internalType": "bytes",
          "name": "_data",
          "type": "bytes"
        }
      ],
      "name": "onTokenTransfer",
      "outputs": [],
      "stateMutability": "nonpayable",
      "type": "function"
    },
    {
      "inputs": [],
      "name": "payment",
      "outputs": [
        {
          "internalType": "uint128",
          "name": "",
          "type": "uint128"
        }
      ],
      "stateMutability": "view",
      "type": "function",
      "constant": true
    },
    {
      "inputs": [
        {
          "internalType": "address",
          "name": "_oracle",
          "type": "address"
        }
      ],
      "name": "removeOracle",
      "outputs": [],
      "stateMutability": "nonpayable",
      "type": "function"
    },
    {
      "inputs": [
        {
          "internalType": "bytes32",
          "name": "role",
          "type": "bytes32"
        },
        {
          "internalType": "address",
          "name": "account",
          "type": "address"
        }
      ],
      "name": "renounceRole",
      "outputs": [],
      "stateMutability": "nonpayable",
      "type": "function"
    },
    {
      "inputs": [
        {
          "internalType": "bytes32",
          "name": "role",
          "type": "bytes32"
        },
        {
          "internalType": "address",
          "name": "account",
          "type": "address"
        }
      ],
      "name": "revokeRole",
      "outputs": [],
      "stateMutability": "nonpayable",
      "type": "function"
    },
    {
      "inputs": [
        {
          "internalType": "uint256",
          "name": "_minConfirmations",
          "type": "uint256"
        }
      ],
      "name": "setMinConfirmations",
      "outputs": [],
      "stateMutability": "nonpayable",
      "type": "function"
    },
    {
      "inputs": [
        {
          "internalType": "uint128",
          "name": "_payment",
          "type": "uint128"
        }
      ],
      "name": "setPayment",
      "outputs": [],
      "stateMutability": "nonpayable",
      "type": "function"
    },
    {
      "inputs": [
        {
          "internalType": "bytes4",
          "name": "interfaceId",
          "type": "bytes4"
        }
      ],
      "name": "supportsInterface",
      "outputs": [
        {
          "internalType": "bool",
          "name": "",
          "type": "bool"
        }
      ],
      "stateMutability": "view",
      "type": "function",
      "constant": true
    },
    {
      "inputs": [],
      "name": "updateAvailableFunds",
      "outputs": [],
      "stateMutability": "nonpayable",
      "type": "function"
    },
    {
      "inputs": [
        {
          "internalType": "address",
          "name": "_recipient",
          "type": "address"
        },
        {
          "internalType": "uint256",
          "name": "_amount",
          "type": "uint256"
        }
      ],
      "name": "withdrawFunds",
      "outputs": [],
      "stateMutability": "nonpayable",
      "type": "function"
    },
    {
      "inputs": [
        {
          "internalType": "address",
          "name": "_oracle",
          "type": "address"
        },
        {
          "internalType": "address",
          "name": "_recipient",
          "type": "address"
        },
        {
          "internalType": "uint256",
          "name": "_amount",
          "type": "uint256"
        }
      ],
      "name": "withdrawPayment",
      "outputs": [],
      "stateMutability": "nonpayable",
      "type": "function"
    },
    {
      "inputs": [
        {
          "internalType": "address",
          "name": "_oracle",
          "type": "address"
        }
      ],
      "name": "withdrawablePayment",
      "outputs": [
        {
          "internalType": "uint256",
          "name": "",
          "type": "uint256"
        }
      ],
      "stateMutability": "view",
      "type": "function",
      "constant": true
    },
    {
      "inputs": [
        {
          "internalType": "bytes32",
          "name": "_mintId",
          "type": "bytes32"
        }
      ],
      "name": "submitMint",
      "outputs": [],
      "stateMutability": "nonpayable",
      "type": "function"
    },
    {
      "inputs": [
        {
          "internalType": "bytes32",
          "name": "_burntId",
          "type": "bytes32"
        }
      ],
      "name": "submitBurn",
      "outputs": [],
      "stateMutability": "nonpayable",
      "type": "function"
    },
    {
      "inputs": [
        {
          "internalType": "bytes32",
          "name": "_mintId",
          "type": "bytes32"
        }
      ],
      "name": "isMintConfirmed",
      "outputs": [
        {
          "internalType": "bool",
          "name": "",
          "type": "bool"
        }
      ],
      "stateMutability": "view",
      "type": "function",
      "constant": true
    },
    {
      "inputs": [
        {
          "internalType": "bytes32",
          "name": "_burntId",
          "type": "bytes32"
        }
      ],
      "name": "isBurntConfirmed",
      "outputs": [
        {
          "internalType": "bool",
          "name": "",
          "type": "bool"
        }
      ],
      "stateMutability": "view",
      "type": "function",
      "constant": true
    }
  ],
  "bytecode": "0x60806040523480156200001157600080fd5b506040516200178638038062001786833981016040819052620000349162000167565b6001839055600480546001600160801b0319166001600160801b038416179055600580546001600160a01b0319166001600160a01b0383161790558282826200007f600033620000b7565b620000ab7f68e79a7bf1e0bc45d0a330c573bc367f9cf464fd326078812f301165fbda4ef133620000b7565b505050505050620001c3565b620000c38282620000c7565b5050565b6000828152602081815260408083206001600160a01b038516845290915290205460ff16620000c3576000828152602081815260408083206001600160a01b03851684529091529020805460ff19166001179055620001233390565b6001600160a01b0316816001600160a01b0316837f2f8788117e7eff1d82e926ec794901d17c78024a50270940304540a733656f0d60405160405180910390a45050565b6000806000606084860312156200017c578283fd5b835160208501519093506001600160801b03811681146200019b578283fd5b60408501519092506001600160a01b0381168114620001b8578182fd5b809150509250925092565b6115b380620001d36000396000f3fe608060405234801561001057600080fd5b50600436106101cf5760003560e01c806382313e5011610104578063c4b56cd0116100a2578063df5dd1a511610071578063df5dd1a5146104ee578063e2e4031714610501578063e7c4393e14610533578063fdc85fc41461053c576101cf565b8063c4b56cd0146104ac578063d2821655146104bf578063d4cc54e4146104d2578063d547741f146104db576101cf565b8063a217fddf116100de578063a217fddf1461045b578063a4c0ed3614610463578063a61ece1814610476578063c107532914610499576101cf565b806382313e50146103ee57806391d1485414610401578063a1e5c7b114610438576101cf565b80633168f5041161017157806342f6487a1161014b57806342f6487a1461038557806344914e46146103b057806346fcff4c146103dd5780634f8fc3b5146103e6576101cf565b80633168f5041461031b57806336568abe1461035f5780633d3d771414610372576101cf565b80631c4695f4116101ad5780631c4695f414610246578063248a9ca3146102715780632dd6b35c146102945780632f2ff15d14610308576101cf565b806301ffc9a7146101d457806307e2cea5146101fc5780630b29b94314610231575b600080fd5b6101e76101e2366004611466565b61054f565b60405190151581526020015b60405180910390f35b6102237f68e79a7bf1e0bc45d0a330c573bc367f9cf464fd326078812f301165fbda4ef181565b6040519081526020016101f3565b61024461023f366004611423565b6105ea565b005b600554610259906001600160a01b031681565b6040516001600160a01b0390911681526020016101f3565b61022361027f366004611423565b60009081526020819052604090206001015490565b6102d96102a23660046112fc565b6006602052600090815260409020805460018201546002909201546001600160801b03909116916001600160a01b03908116911683565b604080516001600160801b0390941684526001600160a01b0392831660208501529116908201526060016101f3565b61024461031636600461143b565b610771565b610348610329366004611423565b6008602052600090815260409020805460019091015460ff9091169082565b6040805192151583526020830191909152016101f3565b61024461036d36600461143b565b61080e565b61024461038036600461131d565b610896565b600454610398906001600160801b031681565b6040516001600160801b0390911681526020016101f3565b6103486103be366004611423565b6007602052600090815260409020805460019091015460ff9091169082565b61022360035481565b610244610a89565b6102446103fc3660046114a6565b610b2f565b6101e761040f36600461143b565b6000918252602082815260408084206001600160a01b0393909316845291905290205460ff1690565b6101e7610446366004611423565b60009081526007602052604090205460ff1690565b610223600081565b610244610471366004611381565b610bd8565b6101e7610484366004611423565b60009081526008602052604090205460ff1690565b6102446104a7366004611358565b610c8e565b6102446104ba366004611423565b610e38565b6102446104cd366004611423565b610fb6565b61022360025481565b6102446104e936600461143b565b611039565b6102446104fc3660046112fc565b6110c6565b61022361050f3660046112fc565b6001600160a01b03166000908152600660205260409020546001600160801b031690565b61022360015481565b61024461054a3660046112fc565b6110f3565b60007fffffffff0000000000000000000000000000000000000000000000000000000082167f7965db0b0000000000000000000000000000000000000000000000000000000014806105e257507f01ffc9a7000000000000000000000000000000000000000000000000000000007fffffffff000000000000000000000000000000000000000000000000000000008316145b90505b919050565b3360009081527fa629f6981c2f6895a67dc766e8e03ff72d04a413d0d8773a3ca56e9e474032c1602052604090205460ff1661066d5760405162461bcd60e51b815260206004820152601460248201527f6f6e6c794f7261636c653a2062616420726f6c6500000000000000000000000060448201526064015b60405180910390fd5b6000818152600760209081526040808320338452600281019092529091205460ff16156106dc5760405162461bcd60e51b815260206004820152601960248201527f7375626d69743a207375626d697474656420616c7265616479000000000000006044820152606401610664565b60018160010160008282546106f19190611510565b90915550503360009081526002820160205260409020805460ff191660019081179091558054908201541061072c57805460ff191660011781555b6107353361111d565b604080518381523360208201527fd4964a7cd99f5c1fa8f2420fb5e1d3bd26eadf16e2658cf2e29a67dfda38601e910160405180910390a15050565b60008281526020819052604090206001015461078e905b3361040f565b6108005760405162461bcd60e51b815260206004820152602f60248201527f416363657373436f6e74726f6c3a2073656e646572206d75737420626520616e60448201527f2061646d696e20746f206772616e7400000000000000000000000000000000006064820152608401610664565b61080a82826111c8565b5050565b6001600160a01b038116331461088c5760405162461bcd60e51b815260206004820152602f60248201527f416363657373436f6e74726f6c3a2063616e206f6e6c792072656e6f756e636560448201527f20726f6c657320666f722073656c6600000000000000000000000000000000006064820152608401610664565b61080a8282611266565b6001600160a01b038381166000908152600660205260409020600101541633146109025760405162461bcd60e51b815260206004820152601660248201527f6f6e6c792063616c6c61626c652062792061646d696e000000000000000000006044820152606401610664565b6001600160a01b03831660009081526006602052604090205481906001600160801b0390811690821681101561097a5760405162461bcd60e51b815260206004820152601f60248201527f696e73756666696369656e7420776974686472617761626c652066756e6473006044820152606401610664565b6109848282611528565b6001600160a01b038616600090815260066020526040812080546fffffffffffffffffffffffffffffffff19166001600160801b0393841617905560028054928516929091906109d5908490611550565b909155505060055460405163a9059cbb60e01b81526001600160a01b0386811660048301526001600160801b03851660248301529091169063a9059cbb90604401602060405180830381600087803b158015610a3057600080fd5b505af1158015610a44573d6000803e3d6000fd5b505050506040513d601f19601f82011682018060405250810190610a689190611403565b610a8257634e487b7160e01b600052600160045260246000fd5b5050505050565b6002546005546040517f70a082310000000000000000000000000000000000000000000000000000000081523060048201526001600160a01b03909116906370a082319060240160206040518083038186803b158015610ae857600080fd5b505afa158015610afc573d6000803e3d6000fd5b505050506040513d601f19601f82011682018060405250810190610b2091906114cd565b610b2a9190611550565b600355565b3360009081527fad3228b676f7d3cd4284a5443f17f1962b36e491b30a40b2405849e597ba5fb5602052604090205460ff16610bad5760405162461bcd60e51b815260206004820152601360248201527f6f6e6c7941646d696e3a2062616420726f6c65000000000000000000000000006044820152606401610664565b600480546fffffffffffffffffffffffffffffffff19166001600160801b0392909216919091179055565b6005546001600160a01b03163314610c325760405162461bcd60e51b815260206004820152601d60248201527f6f6e546f6b656e5472616e736665723a206e6f7420746865204c696e6b0000006044820152606401610664565b8015610c805760405162461bcd60e51b815260206004820181905260248201527f7472616e7366657220646f65736e2774206163636570742063616c6c646174616044820152606401610664565b610c88610a89565b50505050565b3360009081527fad3228b676f7d3cd4284a5443f17f1962b36e491b30a40b2405849e597ba5fb5602052604090205460ff16610d0c5760405162461bcd60e51b815260206004820152601360248201527f6f6e6c7941646d696e3a2062616420726f6c65000000000000000000000000006044820152606401610664565b806003541015610d5e5760405162461bcd60e51b815260206004820152601a60248201527f696e73756666696369656e7420726573657276652066756e64730000000000006044820152606401610664565b60055460405163a9059cbb60e01b81526001600160a01b038481166004830152602482018490529091169063a9059cbb90604401602060405180830381600087803b158015610dac57600080fd5b505af1158015610dc0573d6000803e3d6000fd5b505050506040513d601f19601f82011682018060405250810190610de49190611403565b610e305760405162461bcd60e51b815260206004820152601e60248201527f776974686472617746756e64733a207472616e73666572206661696c656400006044820152606401610664565b61080a610a89565b3360009081527fa629f6981c2f6895a67dc766e8e03ff72d04a413d0d8773a3ca56e9e474032c1602052604090205460ff16610eb65760405162461bcd60e51b815260206004820152601460248201527f6f6e6c794f7261636c653a2062616420726f6c650000000000000000000000006044820152606401610664565b6000818152600860209081526040808320338452600281019092529091205460ff1615610f255760405162461bcd60e51b815260206004820152601960248201527f7375626d69743a207375626d697474656420616c7265616479000000000000006044820152606401610664565b6001816001016000828254610f3a9190611510565b90915550503360009081526002820160205260409020805460ff1916600190811790915580549082015410610f7557805460ff191660011781555b604080518381523360208201527fd4964a7cd99f5c1fa8f2420fb5e1d3bd26eadf16e2658cf2e29a67dfda38601e910160405180910390a161080a3361111d565b3360009081527fad3228b676f7d3cd4284a5443f17f1962b36e491b30a40b2405849e597ba5fb5602052604090205460ff166110345760405162461bcd60e51b815260206004820152601360248201527f6f6e6c7941646d696e3a2062616420726f6c65000000000000000000000000006044820152606401610664565b600155565b60008281526020819052604090206001015461105490610788565b61088c5760405162461bcd60e51b815260206004820152603060248201527f416363657373436f6e74726f6c3a2073656e646572206d75737420626520616e60448201527f2061646d696e20746f207265766f6b65000000000000000000000000000000006064820152608401610664565b6110f07f68e79a7bf1e0bc45d0a330c573bc367f9cf464fd326078812f301165fbda4ef182610771565b50565b6110f07f68e79a7bf1e0bc45d0a330c573bc367f9cf464fd326078812f301165fbda4ef182611039565b600454600380546001600160801b039092169160009061113e908490611550565b9091555050600454600280546001600160801b0390921691600090611164908490611510565b90915550506004546001600160a01b038216600090815260066020526040812080546001600160801b03938416939192916111a1918591166114e5565b92506101000a8154816001600160801b0302191690836001600160801b0316021790555050565b6000828152602081815260408083206001600160a01b038516845290915290205460ff1661080a576000828152602081815260408083206001600160a01b03851684529091529020805460ff191660011790556112223390565b6001600160a01b0316816001600160a01b0316837f2f8788117e7eff1d82e926ec794901d17c78024a50270940304540a733656f0d60405160405180910390a45050565b6000828152602081815260408083206001600160a01b038516845290915290205460ff161561080a576000828152602081815260408083206001600160a01b0385168085529252808320805460ff1916905551339285917ff6391f5c32d9c69d2a47ea670b442974b53935d1edc7fd64eb21e047a839171b9190a45050565b80356001600160a01b03811681146105e557600080fd5b60006020828403121561130d578081fd5b611316826112e5565b9392505050565b600080600060608486031215611331578182fd5b61133a846112e5565b9250611348602085016112e5565b9150604084013590509250925092565b6000806040838503121561136a578182fd5b611373836112e5565b946020939093013593505050565b60008060008060608587031215611396578081fd5b61139f856112e5565b935060208501359250604085013567ffffffffffffffff808211156113c2578283fd5b818701915087601f8301126113d5578283fd5b8135818111156113e3578384fd5b8860208285010111156113f4578384fd5b95989497505060200194505050565b600060208284031215611414578081fd5b81518015158114611316578182fd5b600060208284031215611434578081fd5b5035919050565b6000806040838503121561144d578182fd5b8235915061145d602084016112e5565b90509250929050565b600060208284031215611477578081fd5b81357fffffffff0000000000000000000000000000000000000000000000000000000081168114611316578182fd5b6000602082840312156114b7578081fd5b81356001600160801b0381168114611316578182fd5b6000602082840312156114de578081fd5b5051919050565b60006001600160801b0380831681851680830382111561150757611507611567565b01949350505050565b6000821982111561152357611523611567565b500190565b60006001600160801b038381169083168181101561154857611548611567565b039392505050565b60008282101561156257611562611567565b500390565b634e487b7160e01b600052601160045260246000fdfea2646970667358221220eb7306f16aa7a3615982d9fb6691261ee4b4eb0e5d254cb25090f23d5d074b1664736f6c63430008020033",
  "immutableReferences": {},
  "source": "// SPDX-License-Identifier: MIT\npragma solidity ^0.8.2;\n\nimport \"@openzeppelin/contracts/access/AccessControl.sol\";\nimport \"@openzeppelin/contracts/token/ERC20/IERC20.sol\";\nimport \"./Aggregator.sol\";\nimport \"../interfaces/IWhiteAggregator.sol\";\n\ncontract WhiteAggregator is Aggregator, IWhiteAggregator {\n    struct SubmissionInfo {\n        bool confirmed; // whether is confirmed\n        uint256 confirmations; // received confirmations count\n        mapping(address => bool) hasVerified; // verifier => has already voted\n    }\n\n    mapping(bytes32 => SubmissionInfo) public getMintInfo; // mint id => submission info\n    mapping(bytes32 => SubmissionInfo) public getBurntInfo; // burnt id => submission info\n\n    event Confirmed(bytes32 submissionId, address operator); // emitted once the submission is confirmed\n\n    /// @dev Constructor that initializes the most important configurations.\n    /// @param _minConfirmations Minimal required confirmations.\n    /// @param _payment Oracle reward.\n    /// @param _link Link token to pay to oracles.\n    constructor(\n        uint256 _minConfirmations,\n        uint128 _payment,\n        IERC20 _link\n    ) Aggregator(_minConfirmations, _payment, _link) {}\n\n    /// @dev Confirms the mint request.\n    /// @param _mintId Submission identifier.\n    function submitMint(bytes32 _mintId) external override onlyOracle {\n        SubmissionInfo storage mintInfo = getMintInfo[_mintId];\n        require(!mintInfo.hasVerified[msg.sender], \"submit: submitted already\");\n        mintInfo.confirmations += 1;\n        mintInfo.hasVerified[msg.sender] = true;\n        if (mintInfo.confirmations >= minConfirmations) {\n            mintInfo.confirmed = true;\n        }\n        _payOracle(msg.sender);\n        emit Confirmed(_mintId, msg.sender);\n    }\n\n    /// @dev Confirms the burnnt request.\n    /// @param _burntId Submission identifier.\n    function submitBurn(bytes32 _burntId) external override onlyOracle {\n        SubmissionInfo storage burnInfo = getBurntInfo[_burntId];\n        require(!burnInfo.hasVerified[msg.sender], \"submit: submitted already\");\n        burnInfo.confirmations += 1;\n        burnInfo.hasVerified[msg.sender] = true;\n        if (burnInfo.confirmations >= minConfirmations) {\n            burnInfo.confirmed = true;\n        }\n        emit Confirmed(_burntId, msg.sender);\n        _payOracle(msg.sender);\n    }\n\n    /// @dev Returns whether mint request is confirmed.\n    /// @param _mintId Submission identifier.\n    /// @return Whether mint request is confirmed.\n    function isMintConfirmed(bytes32 _mintId)\n        external\n        view\n        override\n        returns (bool)\n    {\n        return getMintInfo[_mintId].confirmed;\n    }\n\n    /// @dev Returns whether burnnt request is confirmed.\n    /// @param _burntId Submission identifier.\n    /// @return Whether burnnt request is confirmed.\n    function isBurntConfirmed(bytes32 _burntId)\n        external\n        view\n        override\n        returns (bool)\n    {\n        return getBurntInfo[_burntId].confirmed;\n    }\n}\n",
  "sourcePath": "/Users/kstasi/Documents/work/debridge-contracts/contracts/chainlink/WhiteAggregator.sol",
  "compiler": {
    "name": "solc",
    "version": "0.8.2+commit.661d1103.Emscripten.clang"
  },
  "schemaVersion": "3.3.4",
  "updatedAt": "2021-03-20T14:49:57.664Z",
  "networkType": "ethereum",
  "devdoc": {
    "kind": "dev",
    "methods": {
      "addOracle(address)": {
        "details": "Add new oracle.",
        "params": {
          "_oracle": "Oracle address."
        }
      },
      "constructor": {
        "details": "Constructor that initializes the most important configurations.",
        "params": {
          "_link": "Link token to pay to oracles.",
          "_minConfirmations": "Minimal required confirmations.",
          "_payment": "Oracle reward."
        }
      },
      "getRoleAdmin(bytes32)": {
        "details": "Returns the admin role that controls `role`. See {grantRole} and {revokeRole}. To change a role's admin, use {_setRoleAdmin}."
      },
      "grantRole(bytes32,address)": {
        "details": "Grants `role` to `account`. If `account` had not been already granted `role`, emits a {RoleGranted} event. Requirements: - the caller must have ``role``'s admin role."
      },
      "hasRole(bytes32,address)": {
        "details": "Returns `true` if `account` has been granted `role`."
      },
      "isBurntConfirmed(bytes32)": {
        "details": "Returns whether burnnt request is confirmed.",
        "params": {
          "_burntId": "Submission identifier."
        },
        "returns": {
          "_0": "Whether burnnt request is confirmed."
        }
      },
      "isMintConfirmed(bytes32)": {
        "details": "Returns whether mint request is confirmed.",
        "params": {
          "_mintId": "Submission identifier."
        },
        "returns": {
          "_0": "Whether mint request is confirmed."
        }
      },
      "removeOracle(address)": {
        "details": "Remove oracle.",
        "params": {
          "_oracle": "Oracle address."
        }
      },
      "renounceRole(bytes32,address)": {
        "details": "Revokes `role` from the calling account. Roles are often managed via {grantRole} and {revokeRole}: this function's purpose is to provide a mechanism for accounts to lose their privileges if they are compromised (such as when a trusted device is misplaced). If the calling account had been granted `role`, emits a {RoleRevoked} event. Requirements: - the caller must be `account`."
      },
      "revokeRole(bytes32,address)": {
        "details": "Revokes `role` from `account`. If `account` had been granted `role`, emits a {RoleRevoked} event. Requirements: - the caller must have ``role``'s admin role."
      },
      "setMinConfirmations(uint256)": {
        "details": "Sets minimal required confirmations.",
        "params": {
          "_minConfirmations": "Minimal required confirmations."
        }
      },
      "setPayment(uint128)": {
        "details": "Sets new oracle reward.",
        "params": {
          "_payment": "Oracle reward."
        }
      },
      "submitBurn(bytes32)": {
        "details": "Confirms the burnnt request.",
        "params": {
          "_burntId": "Submission identifier."
        }
      },
      "submitMint(bytes32)": {
        "details": "Confirms the mint request.",
        "params": {
          "_mintId": "Submission identifier."
        }
      },
      "supportsInterface(bytes4)": {
        "details": "See {IERC165-supportsInterface}."
      },
      "updateAvailableFunds()": {
        "details": "Updates available rewards to be distributed."
      },
      "withdrawFunds(address,uint256)": {
        "details": "Withdraws available LINK's.",
        "params": {
          "_amount": "Amount to withdraw.",
          "_recipient": "Recepient reward."
        }
      },
      "withdrawPayment(address,address,uint256)": {
        "details": "Withdraws oracle reward.",
        "params": {
          "_amount": "Amount to withdraw.",
          "_oracle": "Oracle address.",
          "_recipient": "Recepient reward."
        }
      },
      "withdrawablePayment(address)": {
        "details": "Withdraws oracle reward.",
        "params": {
          "_oracle": "Oracle address."
        },
        "returns": {
          "_0": "Oracle rewards."
        }
      }
    },
    "version": 1
  },
  "userdoc": {
    "kind": "user",
    "methods": {},
    "version": 1
  }
}