{
  "contractName": "WhiteAggregator",
  "abi": [
    {
      "inputs": [
        {
          "internalType": "uint256",
          "name": "_minConfirmations",
          "type": "uint256"
        },
        {
          "internalType": "uint128",
          "name": "_payment",
          "type": "uint128"
        },
        {
          "internalType": "contract IERC20",
          "name": "_link",
          "type": "address"
        }
      ],
      "stateMutability": "nonpayable",
      "type": "constructor"
    },
    {
      "anonymous": false,
      "inputs": [
        {
          "indexed": false,
          "internalType": "bytes32",
          "name": "debridgeId",
          "type": "bytes32"
        },
        {
          "indexed": false,
          "internalType": "bytes32",
          "name": "commitment",
          "type": "bytes32"
        }
      ],
      "name": "Broadcasted",
      "type": "event"
    },
    {
      "anonymous": false,
      "inputs": [
        {
          "indexed": false,
          "internalType": "bytes32",
          "name": "commitment",
          "type": "bytes32"
        },
        {
          "indexed": false,
          "internalType": "bytes32",
          "name": "debridgeId",
          "type": "bytes32"
        },
        {
          "indexed": false,
          "internalType": "address",
          "name": "operator",
          "type": "address"
        }
      ],
      "name": "Confirmed",
      "type": "event"
    },
    {
      "anonymous": false,
      "inputs": [
        {
          "indexed": true,
          "internalType": "bytes32",
          "name": "role",
          "type": "bytes32"
        },
        {
          "indexed": true,
          "internalType": "bytes32",
          "name": "previousAdminRole",
          "type": "bytes32"
        },
        {
          "indexed": true,
          "internalType": "bytes32",
          "name": "newAdminRole",
          "type": "bytes32"
        }
      ],
      "name": "RoleAdminChanged",
      "type": "event"
    },
    {
      "anonymous": false,
      "inputs": [
        {
          "indexed": true,
          "internalType": "bytes32",
          "name": "role",
          "type": "bytes32"
        },
        {
          "indexed": true,
          "internalType": "address",
          "name": "account",
          "type": "address"
        },
        {
          "indexed": true,
          "internalType": "address",
          "name": "sender",
          "type": "address"
        }
      ],
      "name": "RoleGranted",
      "type": "event"
    },
    {
      "anonymous": false,
      "inputs": [
        {
          "indexed": true,
          "internalType": "bytes32",
          "name": "role",
          "type": "bytes32"
        },
        {
          "indexed": true,
          "internalType": "address",
          "name": "account",
          "type": "address"
        },
        {
          "indexed": true,
          "internalType": "address",
          "name": "sender",
          "type": "address"
        }
      ],
      "name": "RoleRevoked",
      "type": "event"
    },
    {
      "inputs": [],
      "name": "DEFAULT_ADMIN_ROLE",
      "outputs": [
        {
          "internalType": "bytes32",
          "name": "",
          "type": "bytes32"
        }
      ],
      "stateMutability": "view",
      "type": "function",
      "constant": true
    },
    {
      "inputs": [],
      "name": "ORACLE_ROLE",
      "outputs": [
        {
          "internalType": "bytes32",
          "name": "",
          "type": "bytes32"
        }
      ],
      "stateMutability": "view",
      "type": "function",
      "constant": true
    },
    {
      "inputs": [
        {
          "internalType": "address",
          "name": "_aggregator",
          "type": "address"
        }
      ],
      "name": "addOracle",
      "outputs": [],
      "stateMutability": "nonpayable",
      "type": "function"
    },
    {
      "inputs": [],
      "name": "allocatedFunds",
      "outputs": [
        {
          "internalType": "uint256",
          "name": "",
          "type": "uint256"
        }
      ],
      "stateMutability": "view",
      "type": "function",
      "constant": true
    },
    {
      "inputs": [],
      "name": "availableFunds",
      "outputs": [
        {
          "internalType": "uint256",
          "name": "",
          "type": "uint256"
        }
      ],
      "stateMutability": "view",
      "type": "function",
      "constant": true
    },
    {
      "inputs": [
        {
          "internalType": "bytes32",
          "name": "",
          "type": "bytes32"
        }
      ],
      "name": "getBurntInfo",
      "outputs": [
        {
          "internalType": "bool",
          "name": "confirmed",
          "type": "bool"
        },
        {
          "internalType": "uint256",
          "name": "confirmations",
          "type": "uint256"
        }
      ],
      "stateMutability": "view",
      "type": "function",
      "constant": true
    },
    {
      "inputs": [
        {
          "internalType": "bytes32",
          "name": "",
          "type": "bytes32"
        }
      ],
      "name": "getMintInfo",
      "outputs": [
        {
          "internalType": "bool",
          "name": "confirmed",
          "type": "bool"
        },
        {
          "internalType": "uint256",
          "name": "confirmations",
          "type": "uint256"
        }
      ],
      "stateMutability": "view",
      "type": "function",
      "constant": true
    },
    {
      "inputs": [
        {
          "internalType": "bytes32",
          "name": "role",
          "type": "bytes32"
        }
      ],
      "name": "getRoleAdmin",
      "outputs": [
        {
          "internalType": "bytes32",
          "name": "",
          "type": "bytes32"
        }
      ],
      "stateMutability": "view",
      "type": "function",
      "constant": true
    },
    {
      "inputs": [
        {
          "internalType": "address",
          "name": "",
          "type": "address"
        }
      ],
      "name": "getRracleInfo",
      "outputs": [
        {
          "internalType": "uint128",
          "name": "withdrawable",
          "type": "uint128"
        },
        {
          "internalType": "address",
          "name": "admin",
          "type": "address"
        },
        {
          "internalType": "address",
          "name": "pendingAdmin",
          "type": "address"
        }
      ],
      "stateMutability": "view",
      "type": "function",
      "constant": true
    },
    {
      "inputs": [
        {
          "internalType": "bytes32",
          "name": "role",
          "type": "bytes32"
        },
        {
          "internalType": "address",
          "name": "account",
          "type": "address"
        }
      ],
      "name": "grantRole",
      "outputs": [],
      "stateMutability": "nonpayable",
      "type": "function"
    },
    {
      "inputs": [
        {
          "internalType": "bytes32",
          "name": "role",
          "type": "bytes32"
        },
        {
          "internalType": "address",
          "name": "account",
          "type": "address"
        }
      ],
      "name": "hasRole",
      "outputs": [
        {
          "internalType": "bool",
          "name": "",
          "type": "bool"
        }
      ],
      "stateMutability": "view",
      "type": "function",
      "constant": true
    },
    {
      "inputs": [],
      "name": "link",
      "outputs": [
        {
          "internalType": "contract IERC20",
          "name": "",
          "type": "address"
        }
      ],
      "stateMutability": "view",
      "type": "function",
      "constant": true
    },
    {
      "inputs": [],
      "name": "minConfirmations",
      "outputs": [
        {
          "internalType": "uint256",
          "name": "",
          "type": "uint256"
        }
      ],
      "stateMutability": "view",
      "type": "function",
      "constant": true
    },
    {
      "inputs": [
        {
          "internalType": "address",
          "name": "",
          "type": "address"
        },
        {
          "internalType": "uint256",
          "name": "",
          "type": "uint256"
        },
        {
          "internalType": "bytes",
          "name": "_data",
          "type": "bytes"
        }
      ],
      "name": "onTokenTransfer",
      "outputs": [],
      "stateMutability": "nonpayable",
      "type": "function"
    },
    {
      "inputs": [],
      "name": "payment",
      "outputs": [
        {
          "internalType": "uint128",
          "name": "",
          "type": "uint128"
        }
      ],
      "stateMutability": "view",
      "type": "function",
      "constant": true
    },
    {
      "inputs": [
        {
          "internalType": "address",
          "name": "_aggregator",
          "type": "address"
        }
      ],
      "name": "removeOracle",
      "outputs": [],
      "stateMutability": "nonpayable",
      "type": "function"
    },
    {
      "inputs": [
        {
          "internalType": "bytes32",
          "name": "role",
          "type": "bytes32"
        },
        {
          "internalType": "address",
          "name": "account",
          "type": "address"
        }
      ],
      "name": "renounceRole",
      "outputs": [],
      "stateMutability": "nonpayable",
      "type": "function"
    },
    {
      "inputs": [
        {
          "internalType": "bytes32",
          "name": "role",
          "type": "bytes32"
        },
        {
          "internalType": "address",
          "name": "account",
          "type": "address"
        }
      ],
      "name": "revokeRole",
      "outputs": [],
      "stateMutability": "nonpayable",
      "type": "function"
    },
    {
      "inputs": [
        {
          "internalType": "uint256",
          "name": "_minConfirmations",
          "type": "uint256"
        }
      ],
      "name": "setMinConfirmations",
      "outputs": [],
      "stateMutability": "nonpayable",
      "type": "function"
    },
    {
      "inputs": [
        {
          "internalType": "uint128",
          "name": "_payment",
          "type": "uint128"
        }
      ],
      "name": "setPayment",
      "outputs": [],
      "stateMutability": "nonpayable",
      "type": "function"
    },
    {
      "inputs": [
        {
          "internalType": "bytes4",
          "name": "interfaceId",
          "type": "bytes4"
        }
      ],
      "name": "supportsInterface",
      "outputs": [
        {
          "internalType": "bool",
          "name": "",
          "type": "bool"
        }
      ],
      "stateMutability": "view",
      "type": "function",
      "constant": true
    },
    {
      "inputs": [],
      "name": "updateAvailableFunds",
      "outputs": [],
      "stateMutability": "nonpayable",
      "type": "function"
    },
    {
      "inputs": [
        {
          "internalType": "address",
          "name": "_recipient",
          "type": "address"
        },
        {
          "internalType": "uint256",
          "name": "_amount",
          "type": "uint256"
        }
      ],
      "name": "withdrawFunds",
      "outputs": [],
      "stateMutability": "nonpayable",
      "type": "function"
    },
    {
      "inputs": [
        {
          "internalType": "address",
          "name": "_oracle",
          "type": "address"
        },
        {
          "internalType": "address",
          "name": "_recipient",
          "type": "address"
        },
        {
          "internalType": "uint256",
          "name": "_amount",
          "type": "uint256"
        }
      ],
      "name": "withdrawPayment",
      "outputs": [],
      "stateMutability": "nonpayable",
      "type": "function"
    },
    {
      "inputs": [
        {
          "internalType": "address",
          "name": "_oracle",
          "type": "address"
        }
      ],
      "name": "withdrawablePayment",
      "outputs": [
        {
          "internalType": "uint256",
          "name": "",
          "type": "uint256"
        }
      ],
      "stateMutability": "view",
      "type": "function",
      "constant": true
    },
    {
      "inputs": [
        {
          "internalType": "bytes32",
          "name": "_mintId",
          "type": "bytes32"
        }
      ],
      "name": "submitMint",
      "outputs": [],
      "stateMutability": "nonpayable",
      "type": "function"
    },
    {
      "inputs": [
        {
          "internalType": "bytes32",
          "name": "_burntId",
          "type": "bytes32"
        }
      ],
      "name": "submitBurn",
      "outputs": [],
      "stateMutability": "nonpayable",
      "type": "function"
    },
    {
      "inputs": [
        {
          "internalType": "bytes32",
          "name": "_mintId",
          "type": "bytes32"
        }
      ],
      "name": "isMintConfirmed",
      "outputs": [
        {
          "internalType": "bool",
          "name": "",
          "type": "bool"
        }
      ],
      "stateMutability": "view",
      "type": "function",
      "constant": true
    },
    {
      "inputs": [
        {
          "internalType": "bytes32",
          "name": "_burntId",
          "type": "bytes32"
        }
      ],
      "name": "isBurntConfirmed",
      "outputs": [
        {
          "internalType": "bool",
          "name": "",
          "type": "bool"
        }
      ],
      "stateMutability": "view",
      "type": "function",
      "constant": true
    }
  ],
  "bytecode": "0x60806040523480156200001157600080fd5b50604051620029e0380380620029e08339818101604052810190620000379190620002cc565b8282828260018190555081600460006101000a8154816fffffffffffffffffffffffffffffffff02191690836fffffffffffffffffffffffffffffffff16021790555080600560006101000a81548173ffffffffffffffffffffffffffffffffffffffff021916908373ffffffffffffffffffffffffffffffffffffffff160217905550620000d06000801b336200010e60201b60201c565b620001027f68e79a7bf1e0bc45d0a330c573bc367f9cf464fd326078812f301165fbda4ef1336200010e60201b60201c565b505050505050620003de565b6200012082826200012460201b60201c565b5050565b6200013682826200021560201b60201c565b6200021157600160008084815260200190815260200160002060000160008373ffffffffffffffffffffffffffffffffffffffff1673ffffffffffffffffffffffffffffffffffffffff16815260200190815260200160002060006101000a81548160ff021916908315150217905550620001b66200027f60201b60201c565b73ffffffffffffffffffffffffffffffffffffffff168173ffffffffffffffffffffffffffffffffffffffff16837f2f8788117e7eff1d82e926ec794901d17c78024a50270940304540a733656f0d60405160405180910390a45b5050565b600080600084815260200190815260200160002060000160008373ffffffffffffffffffffffffffffffffffffffff1673ffffffffffffffffffffffffffffffffffffffff16815260200190815260200160002060009054906101000a900460ff16905092915050565b600033905090565b600081519050620002988162000390565b92915050565b600081519050620002af81620003aa565b92915050565b600081519050620002c681620003c4565b92915050565b600080600060608486031215620002e257600080fd5b6000620002f286828701620002b5565b935050602062000305868287016200029e565b9250506040620003188682870162000287565b9150509250925092565b60006200032f8262000366565b9050919050565b6000620003438262000322565b9050919050565b60006fffffffffffffffffffffffffffffffff82169050919050565b600073ffffffffffffffffffffffffffffffffffffffff82169050919050565b6000819050919050565b6200039b8162000336565b8114620003a757600080fd5b50565b620003b5816200034a565b8114620003c157600080fd5b50565b620003cf8162000386565b8114620003db57600080fd5b50565b6125f280620003ee6000396000f3fe608060405234801561001057600080fd5b50600436106101cf5760003560e01c806382313e5011610104578063c4b56cd0116100a2578063df5dd1a511610071578063df5dd1a51461052e578063e2e403171461054a578063e7c4393e1461057a578063fdc85fc414610598576101cf565b8063c4b56cd0146104bc578063d2821655146104d8578063d4cc54e4146104f4578063d547741f14610512576101cf565b8063a217fddf116100de578063a217fddf14610436578063a4c0ed3614610454578063a61ece1814610470578063c1075329146104a0576101cf565b806382313e50146103ba57806391d14854146103d6578063a1e5c7b114610406576101cf565b80633168f5041161017157806342f6487a1161014b57806342f6487a1461034357806344914e461461036157806346fcff4c146103925780634f8fc3b5146103b0576101cf565b80633168f504146102da57806336568abe1461030b5780633d3d771414610327576101cf565b80631c4695f4116101ad5780631c4695f41461023e578063248a9ca31461025c5780632dd6b35c1461028c5780632f2ff15d146102be576101cf565b806301ffc9a7146101d457806307e2cea5146102045780630b29b94314610222575b600080fd5b6101ee60048036038101906101e99190611b85565b6105b4565b6040516101fb9190611e6b565b60405180910390f35b61020c61062e565b6040516102199190611eaf565b60405180910390f35b61023c60048036038101906102379190611b20565b610652565b005b61024661080f565b6040516102539190611eca565b60405180910390f35b61027660048036038101906102719190611b20565b610835565b6040516102839190611eaf565b60405180910390f35b6102a660048036038101906102a191906119d7565b610854565b6040516102b593929190612080565b60405180910390f35b6102d860048036038101906102d39190611b49565b6108da565b005b6102f460048036038101906102ef9190611b20565b610940565b604051610302929190611e86565b60405180910390f35b61032560048036038101906103209190611b49565b610971565b005b610341600480360381019061033c9190611a00565b6109f4565b005b61034b610d3d565b6040516103589190612065565b60405180910390f35b61037b60048036038101906103769190611b20565b610d5f565b604051610389929190611e86565b60405180910390f35b61039a610d90565b6040516103a791906120b7565b60405180910390f35b6103b8610d96565b005b6103d460048036038101906103cf9190611bae565b610e56565b005b6103f060048036038101906103eb9190611b49565b610ede565b6040516103fd9190611e6b565b60405180910390f35b610420600480360381019061041b9190611b20565b610f48565b60405161042d9190611e6b565b60405180910390f35b61043e610f75565b60405161044b9190611eaf565b60405180910390f35b61046e60048036038101906104699190611a8b565b610f7c565b005b61048a60048036038101906104859190611b20565b611060565b6040516104979190611e6b565b60405180910390f35b6104ba60048036038101906104b59190611a4f565b61108d565b005b6104d660048036038101906104d19190611b20565b611218565b005b6104f260048036038101906104ed9190611bd7565b6113d5565b005b6104fc61142b565b60405161050991906120b7565b60405180910390f35b61052c60048036038101906105279190611b49565b611431565b005b610548600480360381019061054391906119d7565b611497565b005b610564600480360381019061055f91906119d7565b6114c4565b60405161057191906120b7565b60405180910390f35b61058261153e565b60405161058f91906120b7565b60405180910390f35b6105b260048036038101906105ad91906119d7565b611544565b005b60007f7965db0b000000000000000000000000000000000000000000000000000000007bffffffffffffffffffffffffffffffffffffffffffffffffffffffff1916827bffffffffffffffffffffffffffffffffffffffffffffffffffffffff19161480610627575061062682611571565b5b9050919050565b7f68e79a7bf1e0bc45d0a330c573bc367f9cf464fd326078812f301165fbda4ef181565b61067c7f68e79a7bf1e0bc45d0a330c573bc367f9cf464fd326078812f301165fbda4ef133610ede565b6106bb576040517f08c379a00000000000000000000000000000000000000000000000000000000081526004016106b290612025565b60405180910390fd5b60006007600083815260200190815260200160002090508060020160003373ffffffffffffffffffffffffffffffffffffffff1673ffffffffffffffffffffffffffffffffffffffff16815260200190815260200160002060009054906101000a900460ff1615610761576040517f08c379a000000000000000000000000000000000000000000000000000000000815260040161075890611f25565b60405180910390fd5b60018160010160008282546107769190612129565b9250508190555060018160020160003373ffffffffffffffffffffffffffffffffffffffff1673ffffffffffffffffffffffffffffffffffffffff16815260200190815260200160002060006101000a81548160ff0219169083151502179055506001548160010154106108025760018160000160006101000a81548160ff0219169083151502179055505b61080b336115db565b5050565b600560009054906101000a900473ffffffffffffffffffffffffffffffffffffffff1681565b6000806000838152602001908152602001600020600101549050919050565b60066020528060005260406000206000915090508060000160009054906101000a90046fffffffffffffffffffffffffffffffff16908060010160009054906101000a900473ffffffffffffffffffffffffffffffffffffffff16908060020160009054906101000a900473ffffffffffffffffffffffffffffffffffffffff16905083565b6108f36108e683610835565b6108ee611731565b610ede565b610932576040517f08c379a000000000000000000000000000000000000000000000000000000000815260040161092990611ee5565b60405180910390fd5b61093c8282611739565b5050565b60086020528060005260406000206000915090508060000160009054906101000a900460ff16908060010154905082565b610979611731565b73ffffffffffffffffffffffffffffffffffffffff168173ffffffffffffffffffffffffffffffffffffffff16146109e6576040517f08c379a00000000000000000000000000000000000000000000000000000000081526004016109dd90612045565b60405180910390fd5b6109f08282611819565b5050565b3373ffffffffffffffffffffffffffffffffffffffff16600660008573ffffffffffffffffffffffffffffffffffffffff1673ffffffffffffffffffffffffffffffffffffffff16815260200190815260200160002060010160009054906101000a900473ffffffffffffffffffffffffffffffffffffffff1673ffffffffffffffffffffffffffffffffffffffff1614610ac4576040517f08c379a0000000000000000000000000000000000000000000000000000000008152600401610abb90611fe5565b60405180910390fd5b60008190506000600660008673ffffffffffffffffffffffffffffffffffffffff1673ffffffffffffffffffffffffffffffffffffffff16815260200190815260200160002060000160009054906101000a90046fffffffffffffffffffffffffffffffff169050816fffffffffffffffffffffffffffffffff16816fffffffffffffffffffffffffffffffff161015610b93576040517f08c379a0000000000000000000000000000000000000000000000000000000008152600401610b8a90611f05565b60405180910390fd5b8181610b9f919061217f565b600660008773ffffffffffffffffffffffffffffffffffffffff1673ffffffffffffffffffffffffffffffffffffffff16815260200190815260200160002060000160006101000a8154816fffffffffffffffffffffffffffffffff02191690836fffffffffffffffffffffffffffffffff160217905550816fffffffffffffffffffffffffffffffff1660026000828254610c3b91906121b3565b92505081905550600560009054906101000a900473ffffffffffffffffffffffffffffffffffffffff1673ffffffffffffffffffffffffffffffffffffffff1663a9059cbb85846fffffffffffffffffffffffffffffffff166040518363ffffffff1660e01b8152600401610cb1929190611e42565b602060405180830381600087803b158015610ccb57600080fd5b505af1158015610cdf573d6000803e3d6000fd5b505050506040513d601f19601f82011682018060405250810190610d039190611af7565b610d36577f4e487b7100000000000000000000000000000000000000000000000000000000600052600160045260246000fd5b5050505050565b600460009054906101000a90046fffffffffffffffffffffffffffffffff1681565b60076020528060005260406000206000915090508060000160009054906101000a900460ff16908060010154905082565b60035481565b600254600560009054906101000a900473ffffffffffffffffffffffffffffffffffffffff1673ffffffffffffffffffffffffffffffffffffffff166370a08231306040518263ffffffff1660e01b8152600401610df49190611e27565b60206040518083038186803b158015610e0c57600080fd5b505afa158015610e20573d6000803e3d6000fd5b505050506040513d601f19601f82011682018060405250810190610e449190611c00565b610e4e91906121b3565b600381905550565b610e636000801b33610ede565b610ea2576040517f08c379a0000000000000000000000000000000000000000000000000000000008152600401610e9990612005565b60405180910390fd5b80600460006101000a8154816fffffffffffffffffffffffffffffffff02191690836fffffffffffffffffffffffffffffffff16021790555050565b600080600084815260200190815260200160002060000160008373ffffffffffffffffffffffffffffffffffffffff1673ffffffffffffffffffffffffffffffffffffffff16815260200190815260200160002060009054906101000a900460ff16905092915050565b60006007600083815260200190815260200160002060000160009054906101000a900460ff169050919050565b6000801b81565b600560009054906101000a900473ffffffffffffffffffffffffffffffffffffffff1673ffffffffffffffffffffffffffffffffffffffff163373ffffffffffffffffffffffffffffffffffffffff161461100c576040517f08c379a000000000000000000000000000000000000000000000000000000000815260040161100390611fc5565b60405180910390fd5b60008282905014611052576040517f08c379a000000000000000000000000000000000000000000000000000000000815260040161104990611f65565b60405180910390fd5b61105a610d96565b50505050565b60006008600083815260200190815260200160002060000160009054906101000a900460ff169050919050565b61109a6000801b33610ede565b6110d9576040517f08c379a00000000000000000000000000000000000000000000000000000000081526004016110d090612005565b60405180910390fd5b80600354101561111e576040517f08c379a000000000000000000000000000000000000000000000000000000000815260040161111590611fa5565b60405180910390fd5b600560009054906101000a900473ffffffffffffffffffffffffffffffffffffffff1673ffffffffffffffffffffffffffffffffffffffff1663a9059cbb83836040518363ffffffff1660e01b815260040161117b929190611e42565b602060405180830381600087803b15801561119557600080fd5b505af11580156111a9573d6000803e3d6000fd5b505050506040513d601f19601f820116820180604052508101906111cd9190611af7565b61120c576040517f08c379a000000000000000000000000000000000000000000000000000000000815260040161120390611f45565b60405180910390fd5b611214610d96565b5050565b6112427f68e79a7bf1e0bc45d0a330c573bc367f9cf464fd326078812f301165fbda4ef133610ede565b611281576040517f08c379a000000000000000000000000000000000000000000000000000000000815260040161127890612025565b60405180910390fd5b60006008600083815260200190815260200160002090508060020160003373ffffffffffffffffffffffffffffffffffffffff1673ffffffffffffffffffffffffffffffffffffffff16815260200190815260200160002060009054906101000a900460ff1615611327576040517f08c379a000000000000000000000000000000000000000000000000000000000815260040161131e90611f25565b60405180910390fd5b600181600101600082825461133c9190612129565b9250508190555060018160020160003373ffffffffffffffffffffffffffffffffffffffff1673ffffffffffffffffffffffffffffffffffffffff16815260200190815260200160002060006101000a81548160ff0219169083151502179055506001548160010154106113c85760018160000160006101000a81548160ff0219169083151502179055505b6113d1336115db565b5050565b6113e26000801b33610ede565b611421576040517f08c379a000000000000000000000000000000000000000000000000000000000815260040161141890612005565b60405180910390fd5b8060018190555050565b60025481565b61144a61143d83610835565b611445611731565b610ede565b611489576040517f08c379a000000000000000000000000000000000000000000000000000000000815260040161148090611f85565b60405180910390fd5b6114938282611819565b5050565b6114c17f68e79a7bf1e0bc45d0a330c573bc367f9cf464fd326078812f301165fbda4ef1826108da565b50565b6000600660008373ffffffffffffffffffffffffffffffffffffffff1673ffffffffffffffffffffffffffffffffffffffff16815260200190815260200160002060000160009054906101000a90046fffffffffffffffffffffffffffffffff166fffffffffffffffffffffffffffffffff169050919050565b60015481565b61156e7f68e79a7bf1e0bc45d0a330c573bc367f9cf464fd326078812f301165fbda4ef182611431565b50565b60007f01ffc9a7000000000000000000000000000000000000000000000000000000007bffffffffffffffffffffffffffffffffffffffffffffffffffffffff1916827bffffffffffffffffffffffffffffffffffffffffffffffffffffffff1916149050919050565b600460009054906101000a90046fffffffffffffffffffffffffffffffff166fffffffffffffffffffffffffffffffff166003600082825461161d91906121b3565b92505081905550600460009054906101000a90046fffffffffffffffffffffffffffffffff166fffffffffffffffffffffffffffffffff16600260008282546116669190612129565b92505081905550600460009054906101000a90046fffffffffffffffffffffffffffffffff16600660008373ffffffffffffffffffffffffffffffffffffffff1673ffffffffffffffffffffffffffffffffffffffff16815260200190815260200160002060000160008282829054906101000a90046fffffffffffffffffffffffffffffffff166116f891906120e3565b92506101000a8154816fffffffffffffffffffffffffffffffff02191690836fffffffffffffffffffffffffffffffff16021790555050565b600033905090565b6117438282610ede565b61181557600160008084815260200190815260200160002060000160008373ffffffffffffffffffffffffffffffffffffffff1673ffffffffffffffffffffffffffffffffffffffff16815260200190815260200160002060006101000a81548160ff0219169083151502179055506117ba611731565b73ffffffffffffffffffffffffffffffffffffffff168173ffffffffffffffffffffffffffffffffffffffff16837f2f8788117e7eff1d82e926ec794901d17c78024a50270940304540a733656f0d60405160405180910390a45b5050565b6118238282610ede565b156118f657600080600084815260200190815260200160002060000160008373ffffffffffffffffffffffffffffffffffffffff1673ffffffffffffffffffffffffffffffffffffffff16815260200190815260200160002060006101000a81548160ff02191690831515021790555061189b611731565b73ffffffffffffffffffffffffffffffffffffffff168173ffffffffffffffffffffffffffffffffffffffff16837ff6391f5c32d9c69d2a47ea670b442974b53935d1edc7fd64eb21e047a839171b60405160405180910390a45b5050565b60008135905061190981612532565b92915050565b60008151905061191e81612549565b92915050565b60008135905061193381612560565b92915050565b60008135905061194881612577565b92915050565b60008083601f84011261196057600080fd5b8235905067ffffffffffffffff81111561197957600080fd5b60208301915083600182028301111561199157600080fd5b9250929050565b6000813590506119a78161258e565b92915050565b6000813590506119bc816125a5565b92915050565b6000815190506119d1816125a5565b92915050565b6000602082840312156119e957600080fd5b60006119f7848285016118fa565b91505092915050565b600080600060608486031215611a1557600080fd5b6000611a23868287016118fa565b9350506020611a34868287016118fa565b9250506040611a45868287016119ad565b9150509250925092565b60008060408385031215611a6257600080fd5b6000611a70858286016118fa565b9250506020611a81858286016119ad565b9150509250929050565b60008060008060608587031215611aa157600080fd5b6000611aaf878288016118fa565b9450506020611ac0878288016119ad565b935050604085013567ffffffffffffffff811115611add57600080fd5b611ae98782880161194e565b925092505092959194509250565b600060208284031215611b0957600080fd5b6000611b178482850161190f565b91505092915050565b600060208284031215611b3257600080fd5b6000611b4084828501611924565b91505092915050565b60008060408385031215611b5c57600080fd5b6000611b6a85828601611924565b9250506020611b7b858286016118fa565b9150509250929050565b600060208284031215611b9757600080fd5b6000611ba584828501611939565b91505092915050565b600060208284031215611bc057600080fd5b6000611bce84828501611998565b91505092915050565b600060208284031215611be957600080fd5b6000611bf7848285016119ad565b91505092915050565b600060208284031215611c1257600080fd5b6000611c20848285016119c2565b91505092915050565b611c32816121e7565b82525050565b611c41816121f9565b82525050565b611c5081612205565b82525050565b611c5f81612281565b82525050565b6000611c72602f836120d2565b9150611c7d826122d4565b604082019050919050565b6000611c95601f836120d2565b9150611ca082612323565b602082019050919050565b6000611cb86019836120d2565b9150611cc38261234c565b602082019050919050565b6000611cdb601e836120d2565b9150611ce682612375565b602082019050919050565b6000611cfe6020836120d2565b9150611d098261239e565b602082019050919050565b6000611d216030836120d2565b9150611d2c826123c7565b604082019050919050565b6000611d44601a836120d2565b9150611d4f82612416565b602082019050919050565b6000611d67601d836120d2565b9150611d728261243f565b602082019050919050565b6000611d8a6016836120d2565b9150611d9582612468565b602082019050919050565b6000611dad6013836120d2565b9150611db882612491565b602082019050919050565b6000611dd06014836120d2565b9150611ddb826124ba565b602082019050919050565b6000611df3602f836120d2565b9150611dfe826124e3565b604082019050919050565b611e128161223b565b82525050565b611e2181612277565b82525050565b6000602082019050611e3c6000830184611c29565b92915050565b6000604082019050611e576000830185611c29565b611e646020830184611e18565b9392505050565b6000602082019050611e806000830184611c38565b92915050565b6000604082019050611e9b6000830185611c38565b611ea86020830184611e18565b9392505050565b6000602082019050611ec46000830184611c47565b92915050565b6000602082019050611edf6000830184611c56565b92915050565b60006020820190508181036000830152611efe81611c65565b9050919050565b60006020820190508181036000830152611f1e81611c88565b9050919050565b60006020820190508181036000830152611f3e81611cab565b9050919050565b60006020820190508181036000830152611f5e81611cce565b9050919050565b60006020820190508181036000830152611f7e81611cf1565b9050919050565b60006020820190508181036000830152611f9e81611d14565b9050919050565b60006020820190508181036000830152611fbe81611d37565b9050919050565b60006020820190508181036000830152611fde81611d5a565b9050919050565b60006020820190508181036000830152611ffe81611d7d565b9050919050565b6000602082019050818103600083015261201e81611da0565b9050919050565b6000602082019050818103600083015261203e81611dc3565b9050919050565b6000602082019050818103600083015261205e81611de6565b9050919050565b600060208201905061207a6000830184611e09565b92915050565b60006060820190506120956000830186611e09565b6120a26020830185611c29565b6120af6040830184611c29565b949350505050565b60006020820190506120cc6000830184611e18565b92915050565b600082825260208201905092915050565b60006120ee8261223b565b91506120f98361223b565b9250826fffffffffffffffffffffffffffffffff0382111561211e5761211d6122a5565b5b828201905092915050565b600061213482612277565b915061213f83612277565b9250827fffffffffffffffffffffffffffffffffffffffffffffffffffffffffffffffff03821115612174576121736122a5565b5b828201905092915050565b600061218a8261223b565b91506121958361223b565b9250828210156121a8576121a76122a5565b5b828203905092915050565b60006121be82612277565b91506121c983612277565b9250828210156121dc576121db6122a5565b5b828203905092915050565b60006121f282612257565b9050919050565b60008115159050919050565b6000819050919050565b60007fffffffff0000000000000000000000000000000000000000000000000000000082169050919050565b60006fffffffffffffffffffffffffffffffff82169050919050565b600073ffffffffffffffffffffffffffffffffffffffff82169050919050565b6000819050919050565b600061228c82612293565b9050919050565b600061229e82612257565b9050919050565b7f4e487b7100000000000000000000000000000000000000000000000000000000600052601160045260246000fd5b7f416363657373436f6e74726f6c3a2073656e646572206d75737420626520616e60008201527f2061646d696e20746f206772616e740000000000000000000000000000000000602082015250565b7f696e73756666696369656e7420776974686472617761626c652066756e647300600082015250565b7f7375626d69743a207375626d697474656420616c726561647900000000000000600082015250565b7f776974686472617746756e64733a207472616e73666572206661696c65640000600082015250565b7f7472616e7366657220646f65736e2774206163636570742063616c6c64617461600082015250565b7f416363657373436f6e74726f6c3a2073656e646572206d75737420626520616e60008201527f2061646d696e20746f207265766f6b6500000000000000000000000000000000602082015250565b7f696e73756666696369656e7420726573657276652066756e6473000000000000600082015250565b7f6f6e546f6b656e5472616e736665723a206e6f7420746865204c696e6b000000600082015250565b7f6f6e6c792063616c6c61626c652062792061646d696e00000000000000000000600082015250565b7f6f6e6c7941646d696e3a2062616420726f6c6500000000000000000000000000600082015250565b7f6f6e6c794f7261636c653a2062616420726f6c65000000000000000000000000600082015250565b7f416363657373436f6e74726f6c3a2063616e206f6e6c792072656e6f756e636560008201527f20726f6c657320666f722073656c660000000000000000000000000000000000602082015250565b61253b816121e7565b811461254657600080fd5b50565b612552816121f9565b811461255d57600080fd5b50565b61256981612205565b811461257457600080fd5b50565b6125808161220f565b811461258b57600080fd5b50565b6125978161223b565b81146125a257600080fd5b50565b6125ae81612277565b81146125b957600080fd5b5056fea264697066735822122045f91b163f800c036d49dc8ef18a6ed713d08b56197e9f518fae0dcc7ebf53c564736f6c63430008020033",
  "immutableReferences": {},
  "source": "// SPDX-License-Identifier: MIT\npragma solidity ^0.8.2;\n\nimport \"@openzeppelin/contracts/access/AccessControl.sol\";\nimport \"@openzeppelin/contracts/token/ERC20/IERC20.sol\";\nimport \"./Aggregator.sol\";\n\ncontract WhiteAggregator is Aggregator {\n    struct SubmissionInfo {\n        bool confirmed;\n        uint256 confirmations;\n        mapping(address => bool) hasVerified;\n    }\n\n    mapping(bytes32 => SubmissionInfo) public getMintInfo;\n    mapping(bytes32 => SubmissionInfo) public getBurntInfo;\n\n    event Confirmed(bytes32 commitment, bytes32 debridgeId, address operator);\n    event Broadcasted(bytes32 debridgeId, bytes32 commitment);\n\n    constructor(\n        uint256 _minConfirmations,\n        uint128 _payment,\n        IERC20 _link\n    ) Aggregator(_minConfirmations, _payment, _link) {}\n\n    function submitMint(bytes32 _mintId) external onlyOracle {\n        SubmissionInfo storage mintInfo = getMintInfo[_mintId];\n        require(!mintInfo.hasVerified[msg.sender], \"submit: submitted already\");\n        mintInfo.confirmations += 1;\n        mintInfo.hasVerified[msg.sender] = true;\n        if (mintInfo.confirmations >= minConfirmations) {\n            mintInfo.confirmed = true;\n        }\n        _payOracle(msg.sender);\n    }\n\n    function submitBurn(bytes32 _burntId) external onlyOracle {\n        SubmissionInfo storage burnInfo = getBurntInfo[_burntId];\n        require(!burnInfo.hasVerified[msg.sender], \"submit: submitted already\");\n        burnInfo.confirmations += 1;\n        burnInfo.hasVerified[msg.sender] = true;\n        if (burnInfo.confirmations >= minConfirmations) {\n            burnInfo.confirmed = true;\n        }\n        _payOracle(msg.sender);\n    }\n\n    function isMintConfirmed(bytes32 _mintId) external view returns (bool) {\n        return getMintInfo[_mintId].confirmed;\n    }\n\n    function isBurntConfirmed(bytes32 _burntId) external view returns (bool) {\n        return getBurntInfo[_burntId].confirmed;\n    }\n}\n",
  "sourcePath": "/Users/kstasi/Documents/work/debridge-contracts/contracts/chainlink/WhiteAggregator.sol",
  "compiler": {
    "name": "solc",
    "version": "0.8.2+commit.661d1103.Emscripten.clang"
  },
  "schemaVersion": "3.3.4",
  "updatedAt": "2021-03-18T15:25:36.922Z",
  "networkType": "ethereum",
  "devdoc": {
    "kind": "dev",
    "methods": {
      "getRoleAdmin(bytes32)": {
        "details": "Returns the admin role that controls `role`. See {grantRole} and {revokeRole}. To change a role's admin, use {_setRoleAdmin}."
      },
      "grantRole(bytes32,address)": {
        "details": "Grants `role` to `account`. If `account` had not been already granted `role`, emits a {RoleGranted} event. Requirements: - the caller must have ``role``'s admin role."
      },
      "hasRole(bytes32,address)": {
        "details": "Returns `true` if `account` has been granted `role`."
      },
      "renounceRole(bytes32,address)": {
        "details": "Revokes `role` from the calling account. Roles are often managed via {grantRole} and {revokeRole}: this function's purpose is to provide a mechanism for accounts to lose their privileges if they are compromised (such as when a trusted device is misplaced). If the calling account had been granted `role`, emits a {RoleRevoked} event. Requirements: - the caller must be `account`."
      },
      "revokeRole(bytes32,address)": {
        "details": "Revokes `role` from `account`. If `account` had been granted `role`, emits a {RoleRevoked} event. Requirements: - the caller must have ``role``'s admin role."
      },
      "supportsInterface(bytes4)": {
        "details": "See {IERC165-supportsInterface}."
      }
    },
    "version": 1
  },
  "userdoc": {
    "kind": "user",
    "methods": {},
    "version": 1
  }
}