{
  "contractName": "WhiteFullDebridge",
  "abi": [
    {
      "anonymous": false,
      "inputs": [
        {
          "indexed": false,
          "internalType": "bytes32",
          "name": "submissionId",
          "type": "bytes32"
        },
        {
          "indexed": false,
          "internalType": "bytes32",
          "name": "debridgeId",
          "type": "bytes32"
        },
        {
          "indexed": false,
          "internalType": "uint256",
          "name": "amount",
          "type": "uint256"
        },
        {
          "indexed": false,
          "internalType": "address",
          "name": "receiver",
          "type": "address"
        },
        {
          "indexed": false,
          "internalType": "uint256",
          "name": "nonce",
          "type": "uint256"
        },
        {
          "indexed": false,
          "internalType": "uint256",
          "name": "chainIdTo",
          "type": "uint256"
        },
        {
          "indexed": false,
          "internalType": "uint256",
          "name": "claimFee",
          "type": "uint256"
        },
        {
          "indexed": false,
          "internalType": "bytes",
          "name": "data",
          "type": "bytes"
        }
      ],
      "name": "AutoBurnt",
      "type": "event"
    },
    {
      "anonymous": false,
      "inputs": [
        {
          "indexed": false,
          "internalType": "bytes32",
          "name": "submissionId",
          "type": "bytes32"
        },
        {
          "indexed": false,
          "internalType": "bool",
          "name": "success",
          "type": "bool"
        }
      ],
      "name": "AutoRequestExecuted",
      "type": "event"
    },
    {
      "anonymous": false,
      "inputs": [
        {
          "indexed": false,
          "internalType": "bytes32",
          "name": "submissionId",
          "type": "bytes32"
        },
        {
          "indexed": false,
          "internalType": "bytes32",
          "name": "debridgeId",
          "type": "bytes32"
        },
        {
          "indexed": false,
          "internalType": "uint256",
          "name": "amount",
          "type": "uint256"
        },
        {
          "indexed": false,
          "internalType": "address",
          "name": "receiver",
          "type": "address"
        },
        {
          "indexed": false,
          "internalType": "uint256",
          "name": "nonce",
          "type": "uint256"
        },
        {
          "indexed": false,
          "internalType": "uint256",
          "name": "chainIdTo",
          "type": "uint256"
        },
        {
          "indexed": false,
          "internalType": "uint256",
          "name": "claimFee",
          "type": "uint256"
        },
        {
          "indexed": false,
          "internalType": "bytes",
          "name": "data",
          "type": "bytes"
        }
      ],
      "name": "AutoSent",
      "type": "event"
    },
    {
      "anonymous": false,
      "inputs": [
        {
          "indexed": false,
          "internalType": "bytes32",
          "name": "submissionId",
          "type": "bytes32"
        },
        {
          "indexed": false,
          "internalType": "bytes32",
          "name": "debridgeId",
          "type": "bytes32"
        },
        {
          "indexed": false,
          "internalType": "uint256",
          "name": "amount",
          "type": "uint256"
        },
        {
          "indexed": false,
          "internalType": "address",
          "name": "receiver",
          "type": "address"
        },
        {
          "indexed": false,
          "internalType": "uint256",
          "name": "nonce",
          "type": "uint256"
        },
        {
          "indexed": false,
          "internalType": "uint256",
          "name": "chainIdTo",
          "type": "uint256"
        }
      ],
      "name": "Burnt",
      "type": "event"
    },
    {
      "anonymous": false,
      "inputs": [
        {
          "indexed": false,
          "internalType": "address",
          "name": "callProxy",
          "type": "address"
        }
      ],
      "name": "CallProxyUpdated",
      "type": "event"
    },
    {
      "anonymous": false,
      "inputs": [
        {
          "indexed": true,
          "internalType": "bytes32",
          "name": "debridgeId",
          "type": "bytes32"
        },
        {
          "indexed": true,
          "internalType": "uint256",
          "name": "chainId",
          "type": "uint256"
        }
      ],
      "name": "ChainSupportAdded",
      "type": "event"
    },
    {
      "anonymous": false,
      "inputs": [
        {
          "indexed": true,
          "internalType": "bytes32",
          "name": "debridgeId",
          "type": "bytes32"
        },
        {
          "indexed": true,
          "internalType": "uint256",
          "name": "chainId",
          "type": "uint256"
        }
      ],
      "name": "ChainSupportRemoved",
      "type": "event"
    },
    {
      "anonymous": false,
      "inputs": [
        {
          "indexed": false,
          "internalType": "uint256[]",
          "name": "chainIds",
          "type": "uint256[]"
        }
      ],
      "name": "ChainsSupportUpdated",
      "type": "event"
    },
    {
      "anonymous": false,
      "inputs": [
        {
          "indexed": false,
          "internalType": "bytes32",
          "name": "submissionId",
          "type": "bytes32"
        },
        {
          "indexed": false,
          "internalType": "uint256",
          "name": "amount",
          "type": "uint256"
        },
        {
          "indexed": false,
          "internalType": "address",
          "name": "receiver",
          "type": "address"
        },
        {
          "indexed": false,
          "internalType": "bytes32",
          "name": "debridgeId",
          "type": "bytes32"
        }
      ],
      "name": "Claimed",
      "type": "event"
    },
    {
      "anonymous": false,
      "inputs": [
        {
          "indexed": false,
          "internalType": "bytes32",
          "name": "submissionId",
          "type": "bytes32"
        },
        {
          "indexed": false,
          "internalType": "uint256",
          "name": "amount",
          "type": "uint256"
        },
        {
          "indexed": false,
          "internalType": "address",
          "name": "receiver",
          "type": "address"
        },
        {
          "indexed": false,
          "internalType": "bytes32",
          "name": "debridgeId",
          "type": "bytes32"
        }
      ],
      "name": "Minted",
      "type": "event"
    },
    {
      "anonymous": false,
      "inputs": [
        {
          "indexed": true,
          "internalType": "bytes32",
          "name": "debridgeId",
          "type": "bytes32"
        },
        {
          "indexed": true,
          "internalType": "address",
          "name": "tokenAddress",
          "type": "address"
        },
        {
          "indexed": true,
          "internalType": "uint256",
          "name": "chainId",
          "type": "uint256"
        },
        {
          "indexed": false,
          "internalType": "uint256",
          "name": "minAmount",
          "type": "uint256"
        },
        {
          "indexed": false,
          "internalType": "uint256",
          "name": "minReserves",
          "type": "uint256"
        }
      ],
      "name": "PairAdded",
      "type": "event"
    },
    {
      "anonymous": false,
      "inputs": [
        {
          "indexed": false,
          "internalType": "address",
          "name": "account",
          "type": "address"
        }
      ],
      "name": "Paused",
      "type": "event"
    },
    {
      "anonymous": false,
      "inputs": [
        {
          "indexed": true,
          "internalType": "bytes32",
          "name": "role",
          "type": "bytes32"
        },
        {
          "indexed": true,
          "internalType": "bytes32",
          "name": "previousAdminRole",
          "type": "bytes32"
        },
        {
          "indexed": true,
          "internalType": "bytes32",
          "name": "newAdminRole",
          "type": "bytes32"
        }
      ],
      "name": "RoleAdminChanged",
      "type": "event"
    },
    {
      "anonymous": false,
      "inputs": [
        {
          "indexed": true,
          "internalType": "bytes32",
          "name": "role",
          "type": "bytes32"
        },
        {
          "indexed": true,
          "internalType": "address",
          "name": "account",
          "type": "address"
        },
        {
          "indexed": true,
          "internalType": "address",
          "name": "sender",
          "type": "address"
        }
      ],
      "name": "RoleGranted",
      "type": "event"
    },
    {
      "anonymous": false,
      "inputs": [
        {
          "indexed": true,
          "internalType": "bytes32",
          "name": "role",
          "type": "bytes32"
        },
        {
          "indexed": true,
          "internalType": "address",
          "name": "account",
          "type": "address"
        },
        {
          "indexed": true,
          "internalType": "address",
          "name": "sender",
          "type": "address"
        }
      ],
      "name": "RoleRevoked",
      "type": "event"
    },
    {
      "anonymous": false,
      "inputs": [
        {
          "indexed": false,
          "internalType": "bytes32",
          "name": "submissionId",
          "type": "bytes32"
        },
        {
          "indexed": false,
          "internalType": "bytes32",
          "name": "debridgeId",
          "type": "bytes32"
        },
        {
          "indexed": false,
          "internalType": "uint256",
          "name": "amount",
          "type": "uint256"
        },
        {
          "indexed": false,
          "internalType": "address",
          "name": "receiver",
          "type": "address"
        },
        {
          "indexed": false,
          "internalType": "uint256",
          "name": "nonce",
          "type": "uint256"
        },
        {
          "indexed": false,
          "internalType": "uint256",
          "name": "chainIdTo",
          "type": "uint256"
        }
      ],
      "name": "Sent",
      "type": "event"
    },
    {
      "anonymous": false,
      "inputs": [
        {
          "indexed": false,
          "internalType": "address",
          "name": "account",
          "type": "address"
        }
      ],
      "name": "Unpaused",
      "type": "event"
    },
    {
      "inputs": [],
      "name": "DEFAULT_ADMIN_ROLE",
      "outputs": [
        {
          "internalType": "bytes32",
          "name": "",
          "type": "bytes32"
        }
      ],
      "stateMutability": "view",
      "type": "function"
    },
    {
      "inputs": [],
      "name": "DENOMINATOR",
      "outputs": [
        {
          "internalType": "uint256",
          "name": "",
          "type": "uint256"
        }
      ],
      "stateMutability": "view",
      "type": "function"
    },
    {
      "inputs": [
        {
          "internalType": "address",
          "name": "_tokenAddress",
          "type": "address"
        },
        {
          "internalType": "address",
          "name": "_wrappedAssetAddress",
          "type": "address"
        },
        {
          "internalType": "uint256",
          "name": "_chainId",
          "type": "uint256"
        },
        {
          "internalType": "uint256",
          "name": "_minAmount",
          "type": "uint256"
        },
        {
          "internalType": "uint256",
          "name": "_minReserves",
          "type": "uint256"
        },
        {
          "internalType": "uint256[]",
          "name": "_supportedChainIds",
          "type": "uint256[]"
        },
        {
          "components": [
            {
              "internalType": "bool",
              "name": "isSupported",
              "type": "bool"
            },
            {
              "internalType": "uint256",
              "name": "fixedFee",
              "type": "uint256"
            },
            {
              "internalType": "uint256",
              "name": "transferFee",
              "type": "uint256"
            }
          ],
          "internalType": "struct IWhiteDebridge.ChainSupportInfo[]",
          "name": "_chainSupportInfo",
          "type": "tuple[]"
        }
      ],
      "name": "addExternalAsset",
      "outputs": [],
      "stateMutability": "nonpayable",
      "type": "function"
    },
    {
      "inputs": [
        {
          "internalType": "address",
          "name": "_tokenAddress",
          "type": "address"
        },
        {
          "internalType": "uint256",
          "name": "_minAmount",
          "type": "uint256"
        },
        {
          "internalType": "uint256",
          "name": "_minReserves",
          "type": "uint256"
        },
        {
          "internalType": "uint256[]",
          "name": "_supportedChainIds",
          "type": "uint256[]"
        },
        {
          "components": [
            {
              "internalType": "bool",
              "name": "isSupported",
              "type": "bool"
            },
            {
              "internalType": "uint256",
              "name": "fixedFee",
              "type": "uint256"
            },
            {
              "internalType": "uint256",
              "name": "transferFee",
              "type": "uint256"
            }
          ],
          "internalType": "struct IWhiteDebridge.ChainSupportInfo[]",
          "name": "_chainSupportInfo",
          "type": "tuple[]"
        }
      ],
      "name": "addNativeAsset",
      "outputs": [],
      "stateMutability": "nonpayable",
      "type": "function"
    },
    {
      "inputs": [],
      "name": "aggregator",
      "outputs": [
        {
          "internalType": "address",
          "name": "",
          "type": "address"
        }
      ],
      "stateMutability": "view",
      "type": "function"
    },
    {
      "inputs": [],
      "name": "aggregatorVersion",
      "outputs": [
        {
          "internalType": "uint8",
          "name": "",
          "type": "uint8"
        }
      ],
      "stateMutability": "view",
      "type": "function"
    },
    {
      "inputs": [
        {
          "internalType": "bytes32",
          "name": "_debridgeId",
          "type": "bytes32"
        },
        {
          "internalType": "address",
          "name": "_receiver",
          "type": "address"
        },
        {
          "internalType": "uint256",
          "name": "_amount",
          "type": "uint256"
        },
        {
          "internalType": "uint256",
          "name": "_chainIdTo",
          "type": "uint256"
        },
        {
          "internalType": "address",
          "name": "_fallbackAddress",
          "type": "address"
        },
        {
          "internalType": "uint256",
          "name": "_executionFee",
          "type": "uint256"
        },
        {
          "internalType": "bytes",
          "name": "_data",
          "type": "bytes"
        }
      ],
      "name": "autoBurn",
      "outputs": [],
      "stateMutability": "nonpayable",
      "type": "function"
    },
    {
      "inputs": [
        {
          "internalType": "bytes32",
          "name": "_debridgeId",
          "type": "bytes32"
        },
        {
          "internalType": "address",
          "name": "_receiver",
          "type": "address"
        },
        {
          "internalType": "uint256",
          "name": "_amount",
          "type": "uint256"
        },
        {
          "internalType": "uint256",
          "name": "_chainIdTo",
          "type": "uint256"
        },
        {
          "internalType": "address",
          "name": "_fallbackAddress",
          "type": "address"
        },
        {
          "internalType": "uint256",
          "name": "_executionFee",
          "type": "uint256"
        },
        {
          "internalType": "bytes",
          "name": "_data",
          "type": "bytes"
        }
      ],
      "name": "autoSend",
      "outputs": [],
      "stateMutability": "payable",
      "type": "function"
    },
    {
      "inputs": [
        {
          "internalType": "bytes32",
          "name": "_debridgeId",
          "type": "bytes32"
        },
        {
          "internalType": "address",
          "name": "_receiver",
          "type": "address"
        },
        {
          "internalType": "uint256",
          "name": "_amount",
          "type": "uint256"
        },
        {
          "internalType": "uint256",
          "name": "_chainIdTo",
          "type": "uint256"
        }
      ],
      "name": "burn",
      "outputs": [],
      "stateMutability": "nonpayable",
      "type": "function"
    },
    {
      "inputs": [],
      "name": "callProxy",
      "outputs": [
        {
          "internalType": "address",
          "name": "",
          "type": "address"
        }
      ],
      "stateMutability": "view",
      "type": "function"
    },
    {
      "inputs": [],
      "name": "chainId",
      "outputs": [
        {
          "internalType": "uint256",
          "name": "",
          "type": "uint256"
        }
      ],
      "stateMutability": "view",
      "type": "function"
    },
    {
      "inputs": [
        {
          "internalType": "uint256",
          "name": "",
          "type": "uint256"
        }
      ],
      "name": "chainIds",
      "outputs": [
        {
          "internalType": "uint256",
          "name": "",
          "type": "uint256"
        }
      ],
      "stateMutability": "view",
      "type": "function"
    },
    {
      "inputs": [],
      "name": "defiController",
      "outputs": [
        {
          "internalType": "contract IDefiController",
          "name": "",
          "type": "address"
        }
      ],
      "stateMutability": "view",
      "type": "function"
    },
    {
      "inputs": [],
      "name": "feeProxy",
      "outputs": [
        {
          "internalType": "contract IFeeProxy",
          "name": "",
          "type": "address"
        }
      ],
      "stateMutability": "view",
      "type": "function"
    },
    {
      "inputs": [
        {
          "internalType": "bytes32",
          "name": "_debridgeId",
          "type": "bytes32"
        },
        {
          "internalType": "uint256",
          "name": "_chainIdFrom",
          "type": "uint256"
        },
        {
          "internalType": "uint256",
          "name": "_chainIdTo",
          "type": "uint256"
        },
        {
          "internalType": "uint256",
          "name": "_amount",
          "type": "uint256"
        },
        {
          "internalType": "address",
          "name": "_receiver",
          "type": "address"
        },
        {
          "internalType": "uint256",
          "name": "_nonce",
          "type": "uint256"
        },
        {
          "internalType": "address",
          "name": "_fallbackAddress",
          "type": "address"
        },
        {
          "internalType": "uint256",
          "name": "_executionFee",
          "type": "uint256"
        },
        {
          "internalType": "bytes",
          "name": "_data",
          "type": "bytes"
        }
      ],
      "name": "getAutoSubmisionId",
      "outputs": [
        {
          "internalType": "bytes32",
          "name": "",
          "type": "bytes32"
        }
      ],
      "stateMutability": "pure",
      "type": "function"
    },
    {
      "inputs": [
        {
          "internalType": "address",
          "name": "_tokenAddress",
          "type": "address"
        }
      ],
      "name": "getBalance",
      "outputs": [
        {
          "internalType": "uint256",
          "name": "",
          "type": "uint256"
        }
      ],
      "stateMutability": "view",
      "type": "function"
    },
    {
      "inputs": [
        {
          "internalType": "bytes32",
          "name": "_debridgeId",
          "type": "bytes32"
        },
        {
          "internalType": "uint256",
          "name": "_chainId",
          "type": "uint256"
        }
      ],
      "name": "getChainIdSupport",
      "outputs": [
        {
          "components": [
            {
              "internalType": "bool",
              "name": "isSupported",
              "type": "bool"
            },
            {
              "internalType": "uint256",
              "name": "fixedFee",
              "type": "uint256"
            },
            {
              "internalType": "uint256",
              "name": "transferFee",
              "type": "uint256"
            }
          ],
          "internalType": "struct IWhiteDebridge.ChainSupportInfo",
          "name": "",
          "type": "tuple"
        }
      ],
      "stateMutability": "view",
      "type": "function"
    },
    {
      "inputs": [
        {
          "internalType": "bytes32",
          "name": "",
          "type": "bytes32"
        }
      ],
      "name": "getDebridge",
      "outputs": [
        {
          "internalType": "address",
          "name": "tokenAddress",
          "type": "address"
        },
        {
          "internalType": "uint256",
          "name": "chainId",
          "type": "uint256"
        },
        {
          "internalType": "uint256",
          "name": "minAmount",
          "type": "uint256"
        },
        {
          "internalType": "uint256",
          "name": "collectedFees",
          "type": "uint256"
        },
        {
          "internalType": "uint256",
          "name": "balance",
          "type": "uint256"
        },
        {
          "internalType": "uint256",
          "name": "minReserves",
          "type": "uint256"
        }
      ],
      "stateMutability": "view",
      "type": "function"
    },
    {
      "inputs": [
        {
          "internalType": "uint256",
          "name": "_chainId",
          "type": "uint256"
        },
        {
          "internalType": "address",
          "name": "_tokenAddress",
          "type": "address"
        }
      ],
      "name": "getDebridgeId",
      "outputs": [
        {
          "internalType": "bytes32",
          "name": "",
          "type": "bytes32"
        }
      ],
      "stateMutability": "pure",
      "type": "function"
    },
    {
      "inputs": [
        {
          "internalType": "uint8",
          "name": "",
          "type": "uint8"
        }
      ],
      "name": "getOldAggregator",
      "outputs": [
        {
          "internalType": "address",
          "name": "aggregator",
          "type": "address"
        },
        {
          "internalType": "bool",
          "name": "isValid",
          "type": "bool"
        }
      ],
      "stateMutability": "view",
      "type": "function"
    },
    {
      "inputs": [
        {
          "internalType": "bytes32",
          "name": "role",
          "type": "bytes32"
        }
      ],
      "name": "getRoleAdmin",
      "outputs": [
        {
          "internalType": "bytes32",
          "name": "",
          "type": "bytes32"
        }
      ],
      "stateMutability": "view",
      "type": "function"
    },
    {
      "inputs": [
        {
          "internalType": "bytes32",
          "name": "_debridgeId",
          "type": "bytes32"
        },
        {
          "internalType": "uint256",
          "name": "_chainIdFrom",
          "type": "uint256"
        },
        {
          "internalType": "uint256",
          "name": "_chainIdTo",
          "type": "uint256"
        },
        {
          "internalType": "uint256",
          "name": "_amount",
          "type": "uint256"
        },
        {
          "internalType": "address",
          "name": "_receiver",
          "type": "address"
        },
        {
          "internalType": "uint256",
          "name": "_nonce",
          "type": "uint256"
        }
      ],
      "name": "getSubmisionId",
      "outputs": [
        {
          "internalType": "bytes32",
          "name": "",
          "type": "bytes32"
        }
      ],
      "stateMutability": "pure",
      "type": "function"
    },
    {
      "inputs": [
        {
          "internalType": "address",
          "name": "",
          "type": "address"
        }
      ],
      "name": "getUserNonce",
      "outputs": [
        {
          "internalType": "uint256",
          "name": "",
          "type": "uint256"
        }
      ],
      "stateMutability": "view",
      "type": "function"
    },
    {
      "inputs": [
        {
          "internalType": "bytes32",
          "name": "role",
          "type": "bytes32"
        },
        {
          "internalType": "address",
          "name": "account",
          "type": "address"
        }
      ],
      "name": "grantRole",
      "outputs": [],
      "stateMutability": "nonpayable",
      "type": "function"
    },
    {
      "inputs": [
        {
          "internalType": "bytes32",
          "name": "role",
          "type": "bytes32"
        },
        {
          "internalType": "address",
          "name": "account",
          "type": "address"
        }
      ],
      "name": "hasRole",
      "outputs": [
        {
          "internalType": "bool",
          "name": "",
          "type": "bool"
        }
      ],
      "stateMutability": "view",
      "type": "function"
    },
    {
      "inputs": [
        {
          "internalType": "bytes32",
          "name": "",
          "type": "bytes32"
        }
      ],
      "name": "isSubmissionUsed",
      "outputs": [
        {
          "internalType": "bool",
          "name": "",
          "type": "bool"
        }
      ],
      "stateMutability": "view",
      "type": "function"
    },
    {
      "inputs": [
        {
          "internalType": "uint8",
          "name": "_aggregatorVersion",
          "type": "uint8"
        },
        {
          "internalType": "bool",
          "name": "_isValid",
          "type": "bool"
        }
      ],
      "name": "manageOldAggregator",
      "outputs": [],
      "stateMutability": "nonpayable",
      "type": "function"
    },
    {
      "inputs": [],
      "name": "pause",
      "outputs": [],
      "stateMutability": "nonpayable",
      "type": "function"
    },
    {
      "inputs": [],
      "name": "paused",
      "outputs": [
        {
          "internalType": "bool",
          "name": "",
          "type": "bool"
        }
      ],
      "stateMutability": "view",
      "type": "function"
    },
    {
      "inputs": [
        {
          "internalType": "bytes32",
          "name": "role",
          "type": "bytes32"
        },
        {
          "internalType": "address",
          "name": "account",
          "type": "address"
        }
      ],
      "name": "renounceRole",
      "outputs": [],
      "stateMutability": "nonpayable",
      "type": "function"
    },
    {
      "inputs": [
        {
          "internalType": "address",
          "name": "_tokenAddress",
          "type": "address"
        },
        {
          "internalType": "uint256",
          "name": "_amount",
          "type": "uint256"
        }
      ],
      "name": "requestReserves",
      "outputs": [],
      "stateMutability": "nonpayable",
      "type": "function"
    },
    {
      "inputs": [
        {
          "internalType": "address",
          "name": "_tokenAddress",
          "type": "address"
        },
        {
          "internalType": "uint256",
          "name": "_amount",
          "type": "uint256"
        }
      ],
      "name": "returnReserves",
      "outputs": [],
      "stateMutability": "payable",
      "type": "function"
    },
    {
      "inputs": [
        {
          "internalType": "bytes32",
          "name": "role",
          "type": "bytes32"
        },
        {
          "internalType": "address",
          "name": "account",
          "type": "address"
        }
      ],
      "name": "revokeRole",
      "outputs": [],
      "stateMutability": "nonpayable",
      "type": "function"
    },
    {
      "inputs": [
        {
          "internalType": "bytes32",
          "name": "_debridgeId",
          "type": "bytes32"
        },
        {
          "internalType": "address",
          "name": "_receiver",
          "type": "address"
        },
        {
          "internalType": "uint256",
          "name": "_amount",
          "type": "uint256"
        },
        {
          "internalType": "uint256",
          "name": "_chainIdTo",
          "type": "uint256"
        }
      ],
      "name": "send",
      "outputs": [],
      "stateMutability": "payable",
      "type": "function"
    },
    {
      "inputs": [
        {
          "internalType": "address",
          "name": "_aggregator",
          "type": "address"
        }
      ],
      "name": "setAggregator",
      "outputs": [],
      "stateMutability": "nonpayable",
      "type": "function"
    },
    {
      "inputs": [
        {
          "internalType": "address",
          "name": "_callProxy",
          "type": "address"
        }
      ],
      "name": "setCallProxy",
      "outputs": [],
      "stateMutability": "nonpayable",
      "type": "function"
    },
    {
      "inputs": [
        {
          "internalType": "bytes32",
          "name": "_debridgeId",
          "type": "bytes32"
        },
        {
          "internalType": "uint256",
          "name": "_chainId",
          "type": "uint256"
        },
        {
          "internalType": "bool",
          "name": "_isSupported",
          "type": "bool"
        }
      ],
      "name": "setChainIdSupport",
      "outputs": [],
      "stateMutability": "nonpayable",
      "type": "function"
    },
    {
      "inputs": [
        {
          "internalType": "uint256[]",
          "name": "_chainIds",
          "type": "uint256[]"
        }
      ],
      "name": "setChainIds",
      "outputs": [],
      "stateMutability": "nonpayable",
      "type": "function"
    },
    {
      "inputs": [
        {
          "internalType": "contract IDefiController",
          "name": "_defiController",
          "type": "address"
        }
      ],
      "name": "setDefiController",
      "outputs": [],
      "stateMutability": "nonpayable",
      "type": "function"
    },
    {
      "inputs": [
        {
          "internalType": "bytes4",
          "name": "interfaceId",
          "type": "bytes4"
        }
      ],
      "name": "supportsInterface",
      "outputs": [
        {
          "internalType": "bool",
          "name": "",
          "type": "bool"
        }
      ],
      "stateMutability": "view",
      "type": "function"
    },
    {
      "inputs": [],
      "name": "unpause",
      "outputs": [],
      "stateMutability": "nonpayable",
      "type": "function"
    },
    {
      "inputs": [
        {
          "internalType": "bytes32",
          "name": "_debridgeId",
          "type": "bytes32"
        },
        {
          "internalType": "uint256",
          "name": "_minAmount",
          "type": "uint256"
        },
        {
          "internalType": "uint256",
          "name": "_minReserves",
          "type": "uint256"
        }
      ],
      "name": "updateAsset",
      "outputs": [],
      "stateMutability": "nonpayable",
      "type": "function"
    },
    {
      "inputs": [
        {
          "internalType": "bytes32",
          "name": "_debridgeId",
          "type": "bytes32"
        },
        {
          "internalType": "uint256[]",
          "name": "_supportedChainIds",
          "type": "uint256[]"
        },
        {
          "components": [
            {
              "internalType": "bool",
              "name": "isSupported",
              "type": "bool"
            },
            {
              "internalType": "uint256",
              "name": "fixedFee",
              "type": "uint256"
            },
            {
              "internalType": "uint256",
              "name": "transferFee",
              "type": "uint256"
            }
          ],
          "internalType": "struct IWhiteDebridge.ChainSupportInfo[]",
          "name": "_chainSupportInfo",
          "type": "tuple[]"
        }
      ],
      "name": "updateAsset",
      "outputs": [],
      "stateMutability": "nonpayable",
      "type": "function"
    },
    {
      "inputs": [],
      "name": "weth",
      "outputs": [
        {
          "internalType": "contract IWETH",
          "name": "",
          "type": "address"
        }
      ],
      "stateMutability": "view",
      "type": "function"
    },
    {
      "inputs": [
        {
          "internalType": "bytes32",
          "name": "_debridgeId",
          "type": "bytes32"
        },
        {
          "internalType": "address",
          "name": "_receiver",
          "type": "address"
        },
        {
          "internalType": "uint256",
          "name": "_amount",
          "type": "uint256"
        }
      ],
      "name": "withdrawFee",
      "outputs": [],
      "stateMutability": "nonpayable",
      "type": "function"
    },
    {
      "inputs": [
        {
          "internalType": "uint256",
          "name": "_minAmount",
          "type": "uint256"
        },
        {
          "internalType": "uint256",
          "name": "_minReserves",
          "type": "uint256"
        },
        {
          "internalType": "address",
          "name": "_aggregator",
          "type": "address"
        },
        {
          "internalType": "address",
          "name": "_callProxy",
          "type": "address"
        },
        {
          "internalType": "uint256[]",
          "name": "_supportedChainIds",
          "type": "uint256[]"
        },
        {
          "components": [
            {
              "internalType": "bool",
              "name": "isSupported",
              "type": "bool"
            },
            {
              "internalType": "uint256",
              "name": "fixedFee",
              "type": "uint256"
            },
            {
              "internalType": "uint256",
              "name": "transferFee",
              "type": "uint256"
            }
          ],
          "internalType": "struct IWhiteDebridge.ChainSupportInfo[]",
          "name": "_chainSupportInfo",
          "type": "tuple[]"
        },
        {
          "internalType": "contract IWETH",
          "name": "_weth",
          "type": "address"
        },
        {
          "internalType": "contract IFeeProxy",
          "name": "_feeProxy",
          "type": "address"
        },
        {
          "internalType": "contract IDefiController",
          "name": "_defiController",
          "type": "address"
        }
      ],
      "name": "initialize",
      "outputs": [],
      "stateMutability": "payable",
      "type": "function"
    },
    {
      "inputs": [
        {
          "internalType": "bytes32",
          "name": "_debridgeId",
          "type": "bytes32"
        },
        {
          "internalType": "uint256",
          "name": "_chainIdFrom",
          "type": "uint256"
        },
        {
          "internalType": "address",
          "name": "_receiver",
          "type": "address"
        },
        {
          "internalType": "uint256",
          "name": "_amount",
          "type": "uint256"
        },
        {
          "internalType": "uint256",
          "name": "_nonce",
          "type": "uint256"
        },
        {
          "internalType": "address",
          "name": "_fallbackAddress",
          "type": "address"
        },
        {
          "internalType": "uint256",
          "name": "_executionFee",
          "type": "uint256"
        },
        {
          "internalType": "bytes",
          "name": "_data",
          "type": "bytes"
        }
      ],
      "name": "autoMint",
      "outputs": [],
      "stateMutability": "nonpayable",
      "type": "function"
    },
    {
      "inputs": [
        {
          "internalType": "bytes32",
          "name": "_debridgeId",
          "type": "bytes32"
        },
        {
          "internalType": "uint256",
          "name": "_chainIdFrom",
          "type": "uint256"
        },
        {
          "internalType": "address",
          "name": "_receiver",
          "type": "address"
        },
        {
          "internalType": "uint256",
          "name": "_amount",
          "type": "uint256"
        },
        {
          "internalType": "uint256",
          "name": "_nonce",
          "type": "uint256"
        },
        {
          "internalType": "address",
          "name": "_fallbackAddress",
          "type": "address"
        },
        {
          "internalType": "uint256",
          "name": "_executionFee",
          "type": "uint256"
        },
        {
          "internalType": "bytes",
          "name": "_data",
          "type": "bytes"
        },
        {
          "internalType": "uint8",
          "name": "_aggregatorVersion",
          "type": "uint8"
        }
      ],
      "name": "autoMintWithOldAggregator",
      "outputs": [],
      "stateMutability": "nonpayable",
      "type": "function"
    },
    {
      "inputs": [
        {
          "internalType": "bytes32",
          "name": "_debridgeId",
          "type": "bytes32"
        },
        {
          "internalType": "uint256",
          "name": "_chainIdFrom",
          "type": "uint256"
        },
        {
          "internalType": "address",
          "name": "_receiver",
          "type": "address"
        },
        {
          "internalType": "uint256",
          "name": "_amount",
          "type": "uint256"
        },
        {
          "internalType": "uint256",
          "name": "_nonce",
          "type": "uint256"
        }
      ],
      "name": "mint",
      "outputs": [],
      "stateMutability": "nonpayable",
      "type": "function"
    },
    {
      "inputs": [
        {
          "internalType": "bytes32",
          "name": "_debridgeId",
          "type": "bytes32"
        },
        {
          "internalType": "uint256",
          "name": "_chainIdFrom",
          "type": "uint256"
        },
        {
          "internalType": "address",
          "name": "_receiver",
          "type": "address"
        },
        {
          "internalType": "uint256",
          "name": "_amount",
          "type": "uint256"
        },
        {
          "internalType": "uint256",
          "name": "_nonce",
          "type": "uint256"
        },
        {
          "internalType": "uint8",
          "name": "_aggregatorVersion",
          "type": "uint8"
        }
      ],
      "name": "mintWithOldAggregator",
      "outputs": [],
      "stateMutability": "nonpayable",
      "type": "function"
    },
    {
      "inputs": [
        {
          "internalType": "bytes32",
          "name": "_debridgeId",
          "type": "bytes32"
        },
        {
          "internalType": "uint256",
          "name": "_chainIdFrom",
          "type": "uint256"
        },
        {
          "internalType": "address",
          "name": "_receiver",
          "type": "address"
        },
        {
          "internalType": "uint256",
          "name": "_amount",
          "type": "uint256"
        },
        {
          "internalType": "uint256",
          "name": "_nonce",
          "type": "uint256"
        },
        {
          "internalType": "address",
          "name": "_fallbackAddress",
          "type": "address"
        },
        {
          "internalType": "uint256",
          "name": "_executionFee",
          "type": "uint256"
        },
        {
          "internalType": "bytes",
          "name": "_data",
          "type": "bytes"
        }
      ],
      "name": "autoClaim",
      "outputs": [],
      "stateMutability": "nonpayable",
      "type": "function"
    },
    {
      "inputs": [
        {
          "internalType": "bytes32",
          "name": "_debridgeId",
          "type": "bytes32"
        },
        {
          "internalType": "uint256",
          "name": "_chainIdFrom",
          "type": "uint256"
        },
        {
          "internalType": "address",
          "name": "_receiver",
          "type": "address"
        },
        {
          "internalType": "uint256",
          "name": "_amount",
          "type": "uint256"
        },
        {
          "internalType": "uint256",
          "name": "_nonce",
          "type": "uint256"
        },
        {
          "internalType": "address",
          "name": "_fallbackAddress",
          "type": "address"
        },
        {
          "internalType": "uint256",
          "name": "_executionFee",
          "type": "uint256"
        },
        {
          "internalType": "bytes",
          "name": "_data",
          "type": "bytes"
        },
        {
          "internalType": "uint8",
          "name": "_aggregatorVersion",
          "type": "uint8"
        }
      ],
      "name": "autoClaimWithOldAggregator",
      "outputs": [],
      "stateMutability": "nonpayable",
      "type": "function"
    },
    {
      "inputs": [
        {
          "internalType": "bytes32",
          "name": "_debridgeId",
          "type": "bytes32"
        },
        {
          "internalType": "uint256",
          "name": "_chainIdFrom",
          "type": "uint256"
        },
        {
          "internalType": "address",
          "name": "_receiver",
          "type": "address"
        },
        {
          "internalType": "uint256",
          "name": "_amount",
          "type": "uint256"
        },
        {
          "internalType": "uint256",
          "name": "_nonce",
          "type": "uint256"
        }
      ],
      "name": "claim",
      "outputs": [],
      "stateMutability": "nonpayable",
      "type": "function"
    },
    {
      "inputs": [
        {
          "internalType": "bytes32",
          "name": "_debridgeId",
          "type": "bytes32"
        },
        {
          "internalType": "uint256",
          "name": "_chainIdFrom",
          "type": "uint256"
        },
        {
          "internalType": "address",
          "name": "_receiver",
          "type": "address"
        },
        {
          "internalType": "uint256",
          "name": "_amount",
          "type": "uint256"
        },
        {
          "internalType": "uint256",
          "name": "_nonce",
          "type": "uint256"
        },
        {
          "internalType": "uint8",
          "name": "_aggregatorVersion",
          "type": "uint8"
        }
      ],
      "name": "claimWithOldAggregator",
      "outputs": [],
      "stateMutability": "nonpayable",
      "type": "function"
    },
    {
      "inputs": [
        {
          "internalType": "bytes32",
          "name": "_debridgeId",
          "type": "bytes32"
        },
        {
          "internalType": "uint256",
          "name": "_amount",
          "type": "uint256"
        }
      ],
      "name": "fundAggregator",
      "outputs": [],
      "stateMutability": "nonpayable",
      "type": "function"
    },
    {
      "inputs": [
        {
          "internalType": "contract IFeeProxy",
          "name": "_feeProxy",
          "type": "address"
        }
      ],
      "name": "setFeeProxy",
      "outputs": [],
      "stateMutability": "nonpayable",
      "type": "function"
    },
    {
      "inputs": [
        {
          "internalType": "contract IWETH",
          "name": "_weth",
          "type": "address"
        }
      ],
      "name": "setWeth",
      "outputs": [],
      "stateMutability": "nonpayable",
      "type": "function"
    }
  ],
  "bytecode": "0x608060405234801561001057600080fd5b50614d3b806100206000396000f3fe6080604052600436106103765760003560e01c80636b7cbb69116101d1578063b4ccbfd311610102578063d547741f116100a0578063ec857bb71161006f578063ec857bb714610b0a578063f8b2cb4f14610b2a578063f9120af614610b4a578063f9e032c414610b6a57610376565b8063d547741f14610a8a578063df05f8f514610aaa578063e3024c1514610aca578063e562904d14610aea57610376565b8063be7f2184116100dc578063be7f2184146109d3578063bf3d7341146109f3578063d1e3951314610a13578063d311f65614610a5757610376565b8063b4ccbfd314610973578063b8d1452f14610993578063ba9f7776146109b357610376565b8063918f86741161016f5780639682b909116101495780639682b909146109085780639a8a059214610928578063a217fddf1461093e578063ae0d21ff1461095357610376565b8063918f8674146108ac57806391d14854146108c857806395f03b60146108e857610376565b806376d8e49d116101ab57806376d8e49d1461080357806383d3f95d14610816578063841b162b146108365780638456cb591461089757610376565b80636b7cbb69146107a35780636cbb1f05146107c357806374987155146107e357610376565b80633f4ba83a116102ab57806357cf07ca1161024957806365ac9f781161022357806365ac9f78146107205780636656927f146107505780636834e3a8146107635780636b063d651461079057610376565b806357cf07ca146106505780635bd5a95e146106e15780635c975abb1461070157610376565b806346144c8f1161028557806346144c8f146105d05780634adc479c146105f05780635352e9831461061057806353f3be851461063057610376565b80633f4ba83a1461057b5780633fc8cef3146105905780634146bd53146105b057610376565b8063248a9ca3116103185780632c440e56116102f25780632c440e56146104fb5780632da688ac1461051b5780632f2ff15d1461053b57806336568abe1461055b57610376565b8063248a9ca31461048b57806325be0be1146104bb5780632b0d0a8b146104db57610376565b80630bbdf4ef116103545780630bbdf4ef146103e5578063106f432f1461040557806321d9309014610425578063245a7bfc1461045357610376565b806301ffc9a71461037b578063031ac613146103b05780630a0e5e9a146103c5575b600080fd5b34801561038757600080fd5b5061039b610396366004614776565b610b8a565b60405190151581526020015b60405180910390f35b6103c36103be366004614311565b610bc3565b005b3480156103d157600080fd5b506103c36103e0366004614624565b610cc8565b3480156103f157600080fd5b506103c361040036600461465c565b610d88565b34801561041157600080fd5b506103c36104203660046140d3565b610dcc565b34801561043157600080fd5b50610445610440366004614293565b610e15565b6040519081526020016103a7565b34801561045f57600080fd5b50600354610473906001600160a01b031681565b6040516001600160a01b0390911681526020016103a7565b34801561049757600080fd5b506104456104a6366004614293565b60009081526020819052604090206001015490565b3480156104c757600080fd5b506103c36104d63660046140d3565b610e36565b3480156104e757600080fd5b506103c36104f63660046140d3565b610e7f565b34801561050757600080fd5b506103c36105163660046140ef565b610efb565b34801561052757600080fd5b50600454610473906001600160a01b031681565b34801561054757600080fd5b506103c36105563660046142ab565b610f49565b34801561056757600080fd5b506103c36105763660046142ab565b610fd8565b34801561058757600080fd5b506103c3611052565b34801561059c57600080fd5b50600c54610473906001600160a01b031681565b3480156105bc57600080fd5b506103c36105cb366004614529565b6110d8565b3480156105dc57600080fd5b50600654610473906001600160a01b031681565b3480156105fc57600080fd5b506103c361060b366004614450565b61122c565b34801561061c57600080fd5b506103c361062b366004614311565b611338565b34801561063c57600080fd5b506103c361064b366004614450565b6113ff565b34801561065c57600080fd5b506106aa61066b366004614293565b6007602052600090815260409020805460018201546002830154600384015460048501546005909501546001600160a01b039094169492939192909186565b604080516001600160a01b0390971687526020870195909552938501929092526060840152608083015260a082015260c0016103a7565b3480156106ed57600080fd5b506103c36106fc36600461442f565b611503565b34801561070d57600080fd5b5061039b60015462010000900460ff1690565b34801561072c57600080fd5b5061039b61073b366004614293565b60086020526000908152604090205460ff1681565b6103c361075e3660046147b6565b6117b3565b34801561076f57600080fd5b5061044561077e3660046140d3565b60096020526000908152604090205481565b6103c361079e366004614192565b6118b6565b3480156107af57600080fd5b506103c36107be36600461488d565b611958565b3480156107cf57600080fd5b506103c36107de3660046141bd565b611a1b565b3480156107ef57600080fd5b506103c36107fe3660046145cb565b611a63565b6103c361081136600461434d565b611b93565b34801561082257600080fd5b506103c36108313660046142da565b611d1b565b34801561084257600080fd5b50610878610851366004614873565b600a602052600090815260409020546001600160a01b03811690600160a01b900460ff1682565b604080516001600160a01b0390931683529015156020830152016103a7565b3480156108a357600080fd5b506103c3611e31565b3480156108b857600080fd5b50610445670de0b6b3a764000081565b3480156108d457600080fd5b5061039b6108e33660046142ab565b611e8f565b3480156108f457600080fd5b506103c3610903366004614529565b611eb8565b34801561091457600080fd5b506104456109233660046142ab565b611fff565b34801561093457600080fd5b5061044560025481565b34801561094a57600080fd5b50610445600081565b34801561095f57600080fd5b506103c361096e366004614498565b61204d565b34801561097f57600080fd5b506103c361098e3660046143c5565b612144565b34801561099f57600080fd5b506103c36109ae3660046140d3565b61222a565b3480156109bf57600080fd5b50600b54610473906001600160a01b031681565b3480156109df57600080fd5b506103c36109ee366004614192565b612273565b3480156109ff57600080fd5b50610445610a0e366004614687565b6123fb565b348015610a1f57600080fd5b50610a33610a2e36600461442f565b612459565b604080518251151581526020808401519082015291810151908201526060016103a7565b348015610a6357600080fd5b50600454610a7890600160a01b900460ff1681565b60405160ff90911681526020016103a7565b348015610a9657600080fd5b506103c3610aa53660046142ab565b6124c7565b348015610ab657600080fd5b506103c3610ac53660046145cb565b612547565b348015610ad657600080fd5b506103c3610ae536600461434d565b612677565b348015610af657600080fd5b506103c3610b05366004614244565b6127c3565b348015610b1657600080fd5b506103c3610b25366004614498565b61282d565b348015610b3657600080fd5b50610445610b453660046140d3565b612919565b348015610b5657600080fd5b506103c3610b653660046140d3565b6129ae565b348015610b7657600080fd5b50610445610b853660046146db565b612a7e565b60006001600160e01b03198216637965db0b60e01b1480610bbb57506301ffc9a760e01b6001600160e01b03198316145b90505b919050565b610bd560015462010000900460ff1690565b15610bfb5760405162461bcd60e51b8152600401610bf290614b05565b60405180910390fd5b610c06848383612ac6565b6001600160a01b03841660009081526009602052604081205460025492945091610c35908790858789876123fb565b60408051828152602081018990529081018690526001600160a01b03871660608201526080810184905260a081018590529091507f17c61cb89b62a3f29f5b150e3489c7a796ac4dc95fd73af14faa2c8086a324b49060c0015b60405180910390a16001600160a01b0385166000908152600960205260408120805491610cbb83614c78565b9190505550505050505050565b610cd3600033611e8f565b610cef5760405162461bcd60e51b8152600401610bf290614b2f565b600083815260076020908152604080832085845260068101909252909120805460ff19168315801591909117909155610d5457604051839085907fdd4dbf80f57aa5115a1e07abb36e4de565879d4de5bd15b3803d666fe1d8486390600090a3610d82565b604051839085907f86c512831f7a2aad3f56b4169c161be1028776ab950c72e26237a0310ded560690600090a35b50505050565b610d93600033611e8f565b610daf5760405162461bcd60e51b8152600401610bf290614b2f565b600092835260076020526040909220600281019190915560050155565b610dd7600033611e8f565b610df35760405162461bcd60e51b8152600401610bf290614b2f565b600680546001600160a01b0319166001600160a01b0392909216919091179055565b60058181548110610e2557600080fd5b600091825260209091200154905081565b610e41600033611e8f565b610e5d5760405162461bcd60e51b8152600401610bf290614b2f565b600b80546001600160a01b0319166001600160a01b0392909216919091179055565b610e8a600033611e8f565b610ea65760405162461bcd60e51b8152600401610bf290614b2f565b600480546001600160a01b0319166001600160a01b0383169081179091556040519081527fa9543b36462a5e2c2259a14d72a8bd4e2342eaf9d7c828e9fb86921b3aa3eb5f906020015b60405180910390a150565b610f06600033611e8f565b610f225760405162461bcd60e51b8152600401610bf290614b2f565b6000610f2e8689611fff565b9050610f3f81888888888888612d40565b5050505050505050565b600082815260208190526040902060010154610f66905b336108e3565b610fca5760405162461bcd60e51b815260206004820152602f60248201527f416363657373436f6e74726f6c3a2073656e646572206d75737420626520616e60448201526e0818591b5a5b881d1bc819dc985b9d608a1b6064820152608401610bf2565b610fd48282612f07565b5050565b6001600160a01b03811633146110485760405162461bcd60e51b815260206004820152602f60248201527f416363657373436f6e74726f6c3a2063616e206f6e6c792072656e6f756e636560448201526e103937b632b9903337b91039b2b63360891b6064820152608401610bf2565b610fd48282612f8b565b61105d600033611e8f565b6110795760405162461bcd60e51b8152600401610bf290614b2f565b61108b60015462010000900460ff1690565b6110ce5760405162461bcd60e51b815260206004820152601460248201527314185d5cd8589b194e881b9bdd081c185d5cd95960621b6044820152606401610bf2565b6110d6612ff0565b565b6110ea60015462010000900460ff1690565b156111075760405162461bcd60e51b8152600401610bf290614b05565b600061111c8a8a6002548a8c8b8b8b8b612a7e565b60ff8084166000908152600a60209081526040918290208251808401909352546001600160a01b0381168352600160a01b900490921615159181018290529192506111795760405162461bcd60e51b8152600401610bf290614a8f565b80516040516317ccf26d60e11b8152600481018490526001600160a01b0390911690632f99e4da9060240160206040518083038186803b1580156111bc57600080fd5b505afa1580156111d0573d6000803e3d6000fd5b505050506040513d601f19601f820116820180604052508101906111f49190614277565b6112105760405162461bcd60e51b8152600401610bf290614b5c565b61121f828c8b8b8a8a8a613087565b5050505050505050505050565b61123e60015462010000900460ff1690565b1561125b5760405162461bcd60e51b8152600401610bf290614b05565b600061126d86866002548688876123fb565b6003546040516317ccf26d60e11b8152600481018390529192506001600160a01b031690632f99e4da9060240160206040518083038186803b1580156112b257600080fd5b505afa1580156112c6573d6000803e3d6000fd5b505050506040513d601f19601f820116820180604052508101906112ea9190614277565b6113065760405162461bcd60e51b8152600401610bf290614b5c565b6113308187868660008060405180604001604052806002815260200161060f60f31b815250613087565b505050505050565b61134a60015462010000900460ff1690565b156113675760405162461bcd60e51b8152600401610bf290614b05565b6113728483836133bb565b6001600160a01b038416600090815260096020526040812054600254929450916113a1908790858789876123fb565b60408051828152602081018990529081018690526001600160a01b03871660608201526080810184905260a081018590529091507fb8cc5195d548dc2781227c496b92d3736cd56d7f32b28971c9ae1e9eb0badf959060c001610c8f565b61141160015462010000900460ff1690565b1561142e5760405162461bcd60e51b8152600401610bf290614b05565b600061144086866002548688876123fb565b6003546040516317ccf26d60e11b8152600481018390529192506001600160a01b031690632f99e4da9060240160206040518083038186803b15801561148557600080fd5b505afa158015611499573d6000803e3d6000fd5b505050506040513d601f19601f820116820180604052508101906114bd9190614277565b6114d95760405162461bcd60e51b8152600401610bf290614ad7565b6113308187868660008060405180604001604052806002815260200161060f60f31b81525061368b565b61150e600033611e8f565b61152a5760405162461bcd60e51b8152600401610bf290614b2f565b6000828152600760205260409020600381015482111561158c5760405162461bcd60e51b815260206004820152601e60248201527f66756e6441676772656761746f723a206e6f7420656e6f7567682066656500006044820152606401610bf2565b818160030160008282546115a09190614c35565b909155505080546001600160a01b031661171f57600c60009054906101000a90046001600160a01b03166001600160a01b031663d0e30db0836040518263ffffffff1660e01b81526004016000604051808303818588803b15801561160457600080fd5b505af1158015611618573d6000803e3d6000fd5b5050600c54600b5460405163a9059cbb60e01b81526001600160a01b039182166004820152602481018890529116935063a9059cbb92506044019050602060405180830381600087803b15801561166e57600080fd5b505af1158015611682573d6000803e3d6000fd5b505050506040513d601f19601f820116820180604052508101906116a69190614277565b50600b54600c54600354604051631acd461560e31b81526001600160a01b03928316600482015260248101869052908216604482015291169063d66a30a890606401600060405180830381600087803b15801561170257600080fd5b505af1158015611716573d6000803e3d6000fd5b505050506117ae565b600b54815461173b916001600160a01b03918216911684613a3b565b600b548154600354604051631acd461560e31b81526001600160a01b03928316600482015260248101869052908216604482015291169063d66a30a890606401600060405180830381600087803b15801561179557600080fd5b505af11580156117a9573d6000803e3d6000fd5b505050505b505050565b600154610100900460ff16806117cc575060015460ff16155b61182f5760405162461bcd60e51b815260206004820152602e60248201527f496e697469616c697a61626c653a20636f6e747261637420697320616c72656160448201526d191e481a5b9a5d1a585b1a5e995960921b6064820152608401610bf2565b600154610100900460ff16158015611859576001805460ff1961ff00199091166101001716811790555b6118688a8a8a8a8a8a88613a9e565b600c80546001600160a01b038087166001600160a01b031992831617909255600b80549286169290911691909117905580156118aa576001805461ff00191690555b50505050505050505050565b6006546001600160a01b0316331461190b5760405162461bcd60e51b815260206004820152601860248201527764656669436f6e74726f6c6c65723a2062616420726f6c6560401b6044820152606401610bf2565b600061191960025484611fff565b60008181526007602052604090208054919250906001600160a01b031615610d82576006548154610d82916001600160a01b0391821691163086613b21565b611963600033611e8f565b61197f5760405162461bcd60e51b8152600401610bf290614b2f565b60045460ff600160a01b9091048116908316106119ec5760405162461bcd60e51b815260206004820152602560248201527f6d616e6167654f6c6441676772656761746f723a2076657273696f6e20746f6f604482015264040d0d2ced60db1b6064820152608401610bf2565b60ff9091166000908152600a602052604090208054911515600160a01b0260ff60a01b19909216919091179055565b611a26600033611e8f565b611a425760405162461bcd60e51b8152600401610bf290614b2f565b6000611a5060025487611fff565b9050611330818760025488888888612d40565b6000611a7587876002548789886123fb565b60ff8084166000908152600a60209081526040918290208251808401909352546001600160a01b0381168352600160a01b90049092161515918101829052919250611ad25760405162461bcd60e51b8152600401610bf290614a8f565b80516040516317ccf26d60e11b8152600481018490526001600160a01b0390911690632f99e4da9060240160206040518083038186803b158015611b1557600080fd5b505afa158015611b29573d6000803e3d6000fd5b505050506040513d601f19601f82011682018060405250810190611b4d9190614277565b611b695760405162461bcd60e51b8152600401610bf290614ad7565b610f3f8289888860008060405180604001604052806002815260200161060f60f31b81525061368b565b611ba560015462010000900460ff1690565b15611bc25760405162461bcd60e51b8152600401610bf290614b05565b81611c075760405162461bcd60e51b81526020600482015260156024820152746175746f53656e643a2066656520746f6f206c6f7760581b6044820152606401610bf2565b611c12878686612ac6565b945081851015611c645760405162461bcd60e51b815260206004820152601f60248201527f6175746f53656e643a2070726f706f7365642066656520746f6f2068696768006044820152606401610bf2565b611c6e8286614c35565b6001600160a01b03871660009081526009602052604081205460025492975091611ca0908a90888a8c878b8b8b612a7e565b90507fd6a26970ca5b3bad18e3f990daa2e30f9bffdd9933a65c8dfa45dbb963cb6811818a898b868b8a8a604051611cdf989796959493929190614a27565b60405180910390a16001600160a01b0388166000908152600960205260408120805491611d0b83614c78565b9190505550505050505050505050565b611d26600033611e8f565b611d425760405162461bcd60e51b8152600401610bf290614b2f565b60008381526007602052604090206003810154821115611da45760405162461bcd60e51b815260206004820152601b60248201527f77697468647261774665653a206e6f7420656e6f7567682066656500000000006044820152606401610bf2565b81816003016000828254611db89190614c35565b90915550506002546001820154148015611dda575080546001600160a01b0316155b15611e1b576040516001600160a01b0384169083156108fc029084906000818181858888f19350505050158015611e15573d6000803e3d6000fd5b50610d82565b8054610d82906001600160a01b03168484613a3b565b611e3c600033611e8f565b611e585760405162461bcd60e51b8152600401610bf290614b2f565b611e6a60015462010000900460ff1690565b15611e875760405162461bcd60e51b8152600401610bf290614b05565b6110d6613b59565b6000918252602082815260408084206001600160a01b0393909316845291905290205460ff1690565b611eca60015462010000900460ff1690565b15611ee75760405162461bcd60e51b8152600401610bf290614b05565b6000611efc8a8a6002548a8c8b8b8b8b612a7e565b60ff8084166000908152600a60209081526040918290208251808401909352546001600160a01b0381168352600160a01b90049092161515918101829052919250611f595760405162461bcd60e51b8152600401610bf290614a8f565b80516040516317ccf26d60e11b8152600481018490526001600160a01b0390911690632f99e4da9060240160206040518083038186803b158015611f9c57600080fd5b505afa158015611fb0573d6000803e3d6000fd5b505050506040513d601f19601f82011682018060405250810190611fd49190614277565b611ff05760405162461bcd60e51b8152600401610bf290614ad7565b61121f828c8b8b8a8a8a61368b565b6000828260405160200161202f92919091825260601b6bffffffffffffffffffffffff1916602082015260340190565b60405160208183030381529060405280519060200120905092915050565b61205f60015462010000900460ff1690565b1561207c5760405162461bcd60e51b8152600401610bf290614b05565b60006120918989600254898b8a8a8a8a612a7e565b6003546040516317ccf26d60e11b8152600481018390529192506001600160a01b031690632f99e4da9060240160206040518083038186803b1580156120d657600080fd5b505afa1580156120ea573d6000803e3d6000fd5b505050506040513d601f19601f8201168201806040525081019061210e9190614277565b61212a5760405162461bcd60e51b8152600401610bf290614ad7565b612139818a898988888861368b565b505050505050505050565b61214f600033611e8f565b61216b5760405162461bcd60e51b8152600401610bf290614b2f565b6000838152600760205260408120905b8351811015612223578281815181106121a457634e487b7160e01b600052603260045260246000fd5b60200260200101518260060160008684815181106121d257634e487b7160e01b600052603260045260246000fd5b60209081029190910181015182528181019290925260409081016000208351815460ff191690151517815591830151600183015591909101516002909101558061221b81614c78565b91505061217b565b5050505050565b612235600033611e8f565b6122515760405162461bcd60e51b8152600401610bf290614b2f565b600c80546001600160a01b0319166001600160a01b0392909216919091179055565b6006546001600160a01b031633146122c85760405162461bcd60e51b815260206004820152601860248201527764656669436f6e74726f6c6c65723a2062616420726f6c6560401b6044820152606401610bf2565b60006122d660025484611fff565b6000818152600760205260408120600581015460048201549394509092670de0b6b3a76400009161230691614c16565b6123109190614bf6565b825490915060009061232a906001600160a01b0316612919565b9050806123378684614bde565b116123905760405162461bcd60e51b8152602060048201526024808201527f7265717565737452657365727665733a206e6f7420656e6f75676820726573656044820152637276657360e01b6064820152608401610bf2565b82546001600160a01b03166123df576006546040516001600160a01b039091169086156108fc029087906000818181858888f193505050501580156123d9573d6000803e3d6000fd5b50611330565b6006548354611330916001600160a01b03918216911687613a3b565b60408051602080820198909852808201969096526060808701959095526080860193909352921b6bffffffffffffffffffffffff191660a084015260b4808401929092528051808403909201825260d4909201909152805191012090565b61247f604051806060016040528060001515815260200160008152602001600081525090565b50600091825260076020908152604080842092845260069092018152918190208151606081018352815460ff1615158152600182015493810193909352600201549082015290565b6000828152602081905260409020600101546124e290610f60565b6110485760405162461bcd60e51b815260206004820152603060248201527f416363657373436f6e74726f6c3a2073656e646572206d75737420626520616e60448201526f2061646d696e20746f207265766f6b6560801b6064820152608401610bf2565b600061255987876002548789886123fb565b60ff8084166000908152600a60209081526040918290208251808401909352546001600160a01b0381168352600160a01b900490921615159181018290529192506125b65760405162461bcd60e51b8152600401610bf290614a8f565b80516040516317ccf26d60e11b8152600481018490526001600160a01b0390911690632f99e4da9060240160206040518083038186803b1580156125f957600080fd5b505afa15801561260d573d6000803e3d6000fd5b505050506040513d601f19601f820116820180604052508101906126319190614277565b61264d5760405162461bcd60e51b8152600401610bf290614b5c565b610f3f8289888860008060405180604001604052806002815260200161060f60f31b815250613087565b61268960015462010000900460ff1690565b156126a65760405162461bcd60e51b8152600401610bf290614b05565b816126eb5760405162461bcd60e51b81526020600482015260156024820152746175746f4275726e3a2066656520746f6f206c6f7760581b6044820152606401610bf2565b6126f68786866133bb565b9450818510156127485760405162461bcd60e51b815260206004820152601f60248201527f6175746f4275726e3a2070726f706f7365642066656520746f6f2068696768006044820152606401610bf2565b6127528286614c35565b6001600160a01b03871660009081526009602052604081205460025492975091612784908a90888a8c878b8b8b612a7e565b90507f36a268c961c097e1f744d1ce89408dd36212025f95204538cd463fba9e22cada818a898b868b8a8a604051611cdf989796959493929190614a27565b6127ce600033611e8f565b6127ea5760405162461bcd60e51b8152600401610bf290614b2f565b80516127fd906005906020840190613ee2565b507fc96689ced54dda42d1f32f295881474112291c08120448bec2f7b10f5297e88f81604051610ef091906149e3565b61283f60015462010000900460ff1690565b1561285c5760405162461bcd60e51b8152600401610bf290614b05565b60006128718989600254898b8a8a8a8a612a7e565b6003546040516317ccf26d60e11b8152600481018390529192506001600160a01b031690632f99e4da9060240160206040518083038186803b1580156128b657600080fd5b505afa1580156128ca573d6000803e3d6000fd5b505050506040513d601f19601f820116820180604052508101906128ee9190614277565b61290a5760405162461bcd60e51b8152600401610bf290614b5c565b612139818a8989888888613087565b60006001600160a01b038216612930575047610bbe565b6040516370a0823160e01b81523060048201526001600160a01b038316906370a082319060240160206040518083038186803b15801561296f57600080fd5b505afa158015612983573d6000803e3d6000fd5b505050506040513d601f19601f820116820180604052508101906129a7919061479e565b9050610bbe565b6129b9600033611e8f565b6129d55760405162461bcd60e51b8152600401610bf290614b2f565b604080518082018252600380546001600160a01b039081168352600160208085019182526004805460ff600160a01b9182900481166000908152600a909452979092209551865493511515830260ff60a01b199186166001600160a01b031995861617919091161790955583549287169290911691909117909155815404909116906014612a6283614c93565b91906101000a81548160ff021916908360ff1602179055505050565b6000898989898989898989604051602001612aa1999897969594939291906148e4565b6040516020818303038152906040528051906020012090509998505050505050505050565b60008381526007602090815260408083208484526006810183528184208251606081018452815460ff161515815260018083015495820195909552600291820154938101939093525492810154909214612b5b5760405162461bcd60e51b815260206004820152601660248201527539b2b7321d103737ba103730ba34bb329031b430b4b760511b6044820152606401610bf2565b8051612ba95760405162461bcd60e51b815260206004820152601860248201527f73656e643a2077726f6e672074617267656420636861696e00000000000000006044820152606401610bf2565b8160020154851015612bf45760405162461bcd60e51b815260206004820152601460248201527373656e643a20616d6f756e7420746f6f206c6f7760601b6044820152606401610bf2565b81546001600160a01b0316612c4f57348514612c4a5760405162461bcd60e51b81526020600482015260156024820152740e6cadcc87440c2dadeeadce840dad2e6dac2e8c6d605b1b6044820152606401610bf2565b612c66565b8154612c66906001600160a01b0316333088613b21565b6000670de0b6b3a7640000826040015187612c819190614c16565b612c8b9190614bf6565b8260200151612c9a9190614bde565b90508015612d195780861015612cf25760405162461bcd60e51b815260206004820152601b60248201527f73656e643a20616d6f756e74206e6f7420636f766572206665657300000000006044820152606401610bf2565b80836003016000828254612d069190614bde565b90915550612d1690508187614c35565b95505b85836004016000828254612d2d9190614bde565b90915550869450505050505b9392505050565b8051825114612da05760405162461bcd60e51b815260206004820152602660248201527f5f61646441737365743a2077726f6e6720636861696e20737570706f7274206c604482015265656e6774687360d01b6064820152608401610bf2565b600087815260076020526040812080546001600160a01b0319166001600160a01b03891617815560018101879055600281018690556005810185905590805b8451811015612ead57848181518110612e0857634e487b7160e01b600052603260045260246000fd5b60200260200101519150838181518110612e3257634e487b7160e01b600052603260045260246000fd5b602090810291909101810151600084815260068601835260408082208351815460ff1916901515178155938301516001850155918201516002909301929092555183918c917fdd4dbf80f57aa5115a1e07abb36e4de565879d4de5bd15b3803d666fe1d848639190a380612ea581614c78565b915050612ddf565b5086886001600160a01b03168a7f7c33f0d8ed76eeed3663e9bc2346d5d0d43847e247f615a54ac02b20741724968989604051612ef4929190918252602082015260400190565b60405180910390a4505050505050505050565b612f118282611e8f565b610fd4576000828152602081815260408083206001600160a01b03851684529091529020805460ff19166001179055612f473390565b6001600160a01b0316816001600160a01b0316837f2f8788117e7eff1d82e926ec794901d17c78024a50270940304540a733656f0d60405160405180910390a45050565b612f958282611e8f565b15610fd4576000828152602081815260408083206001600160a01b0385168085529252808320805460ff1916905551339285917ff6391f5c32d9c69d2a47ea670b442974b53935d1edc7fd64eb21e047a839171b9190a45050565b61300260015462010000900460ff1690565b6130455760405162461bcd60e51b815260206004820152601460248201527314185d5cd8589b194e881b9bdd081c185d5cd95960621b6044820152606401610bf2565b6001805462ff0000191690556040513381527f5db9ee0a495bf2e6ff9c91a7834c1ba4fdd244a5e8aa4e537bd38aeae4b073aa906020015b60405180910390a1565b60008781526008602052604090205460ff16156130db5760405162461bcd60e51b81526020600482015260126024820152711b5a5b9d0e88185b1c9958591e481d5cd95960721b6044820152606401610bf2565b60008681526007602090815260408083208a84526008909252909120805460ff191660019081179091556002549082015414156131525760405162461bcd60e51b815260206004820152601560248201527436b4b73a1d1034b9903730ba34bb329031b430b4b760591b6044820152606401610bf2565b82156132f75780546040516340c10f1960e01b8152336004820152602481018590526001600160a01b03909116906340c10f1990604401600060405180830381600087803b1580156131a357600080fd5b505af11580156131b7573d6000803e3d6000fd5b50508254600480546040516340c10f1960e01b81526001600160a01b0391821692810192909252602482018a905290911692506340c10f199150604401600060405180830381600087803b15801561320e57600080fd5b505af1158015613222573d6000803e3d6000fd5b5050600480548454604051633bab642f60e01b8152600095506001600160a01b039283169450633bab642f9361326293909216918a918d918a9101614970565b602060405180830381600087803b15801561327c57600080fd5b505af1158015613290573d6000803e3d6000fd5b505050506040513d601f19601f820116820180604052508101906132b49190614277565b604080518b815282151560208201529192507f36c8142a7dcbbfde02c55b345b75761d6761eb241d6c504a0df77c0730b52fe9910160405180910390a15061335d565b80546040516340c10f1960e01b81526001600160a01b03888116600483015260248201889052909116906340c10f1990604401600060405180830381600087803b15801561334457600080fd5b505af1158015613358573d6000803e3d6000fd5b505050505b60408051898152602081018790526001600160a01b03881691810191909152606081018890527f5918a95fd00afb5898499bd5beade1619e98655d2b4ff6e0f6a4347f0a69c127906080015b60405180910390a15050505050505050565b60008381526007602090815260408083208484526006810183528184208251606081018452815460ff1615158152600180830154958201959095526002918201549381019390935254928101549092141561344d5760405162461bcd60e51b8152602060048201526012602482015271189d5c9b8e881b985d1a5d9948185cdcd95d60721b6044820152606401610bf2565b805161349b5760405162461bcd60e51b815260206004820152601860248201527f6275726e3a2077726f6e672074617267656420636861696e00000000000000006044820152606401610bf2565b81600201548510156134e65760405162461bcd60e51b81526020600482015260146024820152736275726e3a20616d6f756e7420746f6f206c6f7760601b6044820152606401610bf2565b81546040516323b872dd60e01b8152336004820152306024820152604481018790526001600160a01b039091169081906323b872dd90606401602060405180830381600087803b15801561353957600080fd5b505af115801561354d573d6000803e3d6000fd5b505050506040513d601f19601f820116820180604052508101906135719190614277565b506000670de0b6b3a764000083604001518861358d9190614c16565b6135979190614bf6565b83602001516135a69190614bde565b9050801561362557808710156135fe5760405162461bcd60e51b815260206004820152601b60248201527f6275726e3a20616d6f756e74206e6f7420636f766572206665657300000000006044820152606401610bf2565b808460030160008282546136129190614bde565b9091555061362290508188614c35565b96505b604051630852cd8d60e31b8152600481018890526001600160a01b038316906342966c6890602401600060405180830381600087803b15801561366757600080fd5b505af115801561367b573d6000803e3d6000fd5b50989a9950505050505050505050565b60008681526007602052604090206002546001820154146136ee5760405162461bcd60e51b815260206004820152601960248201527f636c61696d3a2077726f6e672074617267657420636861696e000000000000006044820152606401610bf2565b60008881526008602052604090205460ff16156137435760405162461bcd60e51b815260206004820152601360248201527218db185a5b4e88185b1c9958591e481d5cd959606a1b6044820152606401610bf2565b6000888152600860205260408120805460ff19166001179055600482018054879290613770908490614c35565b9091555061378090508186613bc9565b80546001600160a01b03166138cd57821561389057604051339084156108fc029085906000818181858888f193505050501580156137c2573d6000803e3d6000fd5b506004805460405163c435b14b60e01b81526000926001600160a01b039092169163c435b14b9189916137fb918a918d918a91016149ae565b6020604051808303818588803b15801561381457600080fd5b505af1158015613828573d6000803e3d6000fd5b50505050506040513d601f19601f8201168201806040525081019061384d9190614277565b604080518b815282151560208201529192507f36c8142a7dcbbfde02c55b345b75761d6761eb241d6c504a0df77c0730b52fe9910160405180910390a1506138c8565b6040516001600160a01b0387169086156108fc029087906000818181858888f193505050501580156138c6573d6000803e3d6000fd5b505b6139eb565b82156139d55780546138e9906001600160a01b03163385613a3b565b6004548154613905916001600160a01b03918216911687613a3b565b600480548254604051633bab642f60e01b81526000936001600160a01b0393841693633bab642f93613940939116918a918d918a9101614970565b602060405180830381600087803b15801561395a57600080fd5b505af115801561396e573d6000803e3d6000fd5b505050506040513d601f19601f820116820180604052508101906139929190614277565b604080518b815282151560208201529192507f36c8142a7dcbbfde02c55b345b75761d6761eb241d6c504a0df77c0730b52fe9910160405180910390a1506139eb565b80546139eb906001600160a01b03168787613a3b565b60408051898152602081018790526001600160a01b03881691810191909152606081018890527fabe3bed2a8590dd123c1a018888bce6142d526741bed65dfe570fb223525c6a4906080016133a9565b6040516001600160a01b0383166024820152604481018290526117ae90849063a9059cbb60e01b906064015b60408051601f198184030181529190526020810180516001600160e01b03166001600160e01b031990931692909217909152613c98565b4660028190556000613ab08282611fff565b9050613ac48160006002548c8c8a8a612d40565b600380546001600160a01b03808a166001600160a01b03199283161790925560048054928916929091169190911790558451613b07906005906020880190613ee2565b506006546001600160a01b03169250612139600033610fca565b6040516001600160a01b0380851660248301528316604482015260648101829052610d829085906323b872dd60e01b90608401613a67565b613b6b60015462010000900460ff1690565b15613b885760405162461bcd60e51b8152600401610bf290614b05565b6001805462ff00001916620100001790556040513381527f62e78cea01bee320cd4e420270b5ea74000d11b0c9f74754ebdbfc544b05a2589060200161307d565b6000670de0b6b3a764000083600501548460040154613be89190614c16565b613bf29190614bf6565b8354909150600090613c0c906001600160a01b0316612919565b90506000838311613c1d5783613c1f565b825b90508181111561222357613c338282614c35565b60065486546040516309e62b9160e01b81526001600160a01b0391821660048201526024810184905292935016906309e62b9190604401600060405180830381600087803b158015613c8457600080fd5b505af1158015612139573d6000803e3d6000fd5b6000613ced826040518060400160405280602081526020017f5361666545524332303a206c6f772d6c6576656c2063616c6c206661696c6564815250856001600160a01b0316613d6a9092919063ffffffff16565b8051909150156117ae5780806020019051810190613d0b9190614277565b6117ae5760405162461bcd60e51b815260206004820152602a60248201527f5361666545524332303a204552433230206f7065726174696f6e20646964206e6044820152691bdd081cdd58d8d9595960b21b6064820152608401610bf2565b6060613d798484600085613d81565b949350505050565b606082471015613de25760405162461bcd60e51b815260206004820152602660248201527f416464726573733a20696e73756666696369656e742062616c616e636520666f6044820152651c8818d85b1b60d21b6064820152608401610bf2565b843b613e305760405162461bcd60e51b815260206004820152601d60248201527f416464726573733a2063616c6c20746f206e6f6e2d636f6e74726163740000006044820152606401610bf2565b600080866001600160a01b03168587604051613e4c9190614954565b60006040518083038185875af1925050503d8060008114613e89576040519150601f19603f3d011682016040523d82523d6000602084013e613e8e565b606091505b5091509150613e9e828286613ea9565b979650505050505050565b60608315613eb8575081612d39565b825115613ec85782518084602001fd5b8160405162461bcd60e51b8152600401610bf29190614a7c565b828054828255906000526020600020908101928215613f1d579160200282015b82811115613f1d578251825591602001919060010190613f02565b50613f29929150613f2d565b5090565b5b80821115613f295760008155600101613f2e565b8035610bbe81614cdf565b600082601f830112613f5d578081fd5b81356020613f72613f6d83614bba565b614b89565b82815281810190858301606080860288018501891015613f90578687fd5b865b86811015613fe25781838b031215613fa8578788fd5b613fb182614b89565b8335613fbc81614cf7565b815283870135878201526040808501359082015285529385019391810191600101613f92565b509198975050505050505050565b600082601f830112614000578081fd5b81356020614010613f6d83614bba565b828152818101908583018385028701840188101561402c578586fd5b855b8581101561404a5781358452928401929084019060010161402e565b5090979650505050505050565b600082601f830112614067578081fd5b813567ffffffffffffffff81111561408157614081614cc9565b614094601f8201601f1916602001614b89565b8181528460208386010111156140a8578283fd5b816020850160208301379081016020019190915292915050565b803560ff81168114610bbe57600080fd5b6000602082840312156140e4578081fd5b8135612d3981614cdf565b600080600080600080600060e0888a031215614109578283fd5b873561411481614cdf565b9650602088013561412481614cdf565b955060408801359450606088013593506080880135925060a088013567ffffffffffffffff80821115614155578384fd5b6141618b838c01613ff0565b935060c08a0135915080821115614176578283fd5b506141838a828b01613f4d565b91505092959891949750929550565b600080604083850312156141a4578182fd5b82356141af81614cdf565b946020939093013593505050565b600080600080600060a086880312156141d4578081fd5b85356141df81614cdf565b94506020860135935060408601359250606086013567ffffffffffffffff80821115614209578283fd5b61421589838a01613ff0565b9350608088013591508082111561422a578283fd5b5061423788828901613f4d565b9150509295509295909350565b600060208284031215614255578081fd5b813567ffffffffffffffff81111561426b578182fd5b613d7984828501613ff0565b600060208284031215614288578081fd5b8151612d3981614cf7565b6000602082840312156142a4578081fd5b5035919050565b600080604083850312156142bd578182fd5b8235915060208301356142cf81614cdf565b809150509250929050565b6000806000606084860312156142ee578081fd5b83359250602084013561430081614cdf565b929592945050506040919091013590565b60008060008060808587031215614326578182fd5b84359350602085013561433881614cdf565b93969395505050506040820135916060013590565b600080600080600080600060e0888a031215614367578081fd5b87359650602088013561437981614cdf565b95506040880135945060608801359350608088013561439781614cdf565b925060a0880135915060c088013567ffffffffffffffff8111156143b9578182fd5b6141838a828b01614057565b6000806000606084860312156143d9578081fd5b83359250602084013567ffffffffffffffff808211156143f7578283fd5b61440387838801613ff0565b93506040860135915080821115614418578283fd5b5061442586828701613f4d565b9150509250925092565b60008060408385031215614441578182fd5b50508035926020909101359150565b600080600080600060a08688031215614467578283fd5b8535945060208601359350604086013561448081614cdf565b94979396509394606081013594506080013592915050565b600080600080600080600080610100898b0312156144b4578182fd5b883597506020890135965060408901356144cd81614cdf565b9550606089013594506080890135935060a08901356144eb81614cdf565b925060c0890135915060e089013567ffffffffffffffff81111561450d578182fd5b6145198b828c01614057565b9150509295985092959890939650565b60008060008060008060008060006101208a8c031215614547578283fd5b8935985060208a0135975060408a013561456081614cdf565b965060608a0135955060808a0135945060a08a013561457e81614cdf565b935060c08a0135925060e08a013567ffffffffffffffff8111156145a0578182fd5b6145ac8c828d01614057565b9250506145bc6101008b016140c2565b90509295985092959850929598565b60008060008060008060c087890312156145e3578384fd5b863595506020870135945060408701356145fc81614cdf565b9350606087013592506080870135915061461860a088016140c2565b90509295509295509295565b600080600060608486031215614638578081fd5b8335925060208401359150604084013561465181614cf7565b809150509250925092565b600080600060608486031215614670578081fd5b505081359360208301359350604090920135919050565b60008060008060008060c0878903121561469f578384fd5b8635955060208701359450604087013593506060870135925060808701356146c681614cdf565b8092505060a087013590509295509295509295565b60008060008060008060008060006101208a8c0312156146f9578283fd5b8935985060208a0135975060408a0135965060608a0135955060808a013561472081614cdf565b945060a08a0135935060c08a013561473781614cdf565b925060e08a013591506101008a013567ffffffffffffffff81111561475a578182fd5b6147668c828d01614057565b9150509295985092959850929598565b600060208284031215614787578081fd5b81356001600160e01b031981168114612d39578182fd5b6000602082840312156147af578081fd5b5051919050565b60008060008060008060008060006101208a8c0312156147d4578283fd5b8935985060208a0135975060408a01356147ed81614cdf565b965060608a01356147fd81614cdf565b955060808a013567ffffffffffffffff80821115614819578485fd5b6148258d838e01613ff0565b965060a08c013591508082111561483a578485fd5b506148478c828d01613f4d565b94505061485660c08b01613f42565b925061486460e08b01613f42565b91506145bc6101008b01613f42565b600060208284031215614884578081fd5b612d39826140c2565b6000806040838503121561489f578182fd5b6148a8836140c2565b915060208301356142cf81614cf7565b600081518084526148d0816020860160208601614c4c565b601f01601f19169290920160200192915050565b60008a82528960208301528860408301528760608301526bffffffffffffffffffffffff19808860601b166080840152866094840152808660601b1660b4840152508360c8830152825161493f8160e8850160208701614c4c565b9190910160e8019a9950505050505050505050565b60008251614966818460208701614c4c565b9190910192915050565b6001600160a01b0385811682528481166020830152831660408201526080606082018190526000906149a4908301846148b8565b9695505050505050565b6001600160a01b038481168252831660208201526060604082018190526000906149da908301846148b8565b95945050505050565b6020808252825182820181905260009190848201906040850190845b81811015614a1b578351835292840192918401916001016149ff565b50909695505050505050565b60006101008a835289602084015288604084015260018060a01b03881660608401528660808401528560a08401528460c08401528060e0840152614a6d818401856148b8565b9b9a5050505050505050505050565b600060208252612d3960208301846148b8565b60208082526028908201527f6d696e74576974684f6c6441676772656761746f723a20696e76616c6964416760408201526733b932b3b0ba37b960c11b606082015260800190565b60208082526014908201527318db185a5b4e881b9bdd0818dbdb999a5c9b595960621b604082015260600190565b60208082526010908201526f14185d5cd8589b194e881c185d5cd95960821b604082015260600190565b6020808252601390820152726f6e6c7941646d696e3a2062616420726f6c6560681b604082015260600190565b6020808252601390820152721b5a5b9d0e881b9bdd0818dbdb999a5c9b5959606a1b604082015260600190565b604051601f8201601f1916810167ffffffffffffffff81118282101715614bb257614bb2614cc9565b604052919050565b600067ffffffffffffffff821115614bd457614bd4614cc9565b5060209081020190565b60008219821115614bf157614bf1614cb3565b500190565b600082614c1157634e487b7160e01b81526012600452602481fd5b500490565b6000816000190483118215151615614c3057614c30614cb3565b500290565b600082821015614c4757614c47614cb3565b500390565b60005b83811015614c67578181015183820152602001614c4f565b83811115610d825750506000910152565b6000600019821415614c8c57614c8c614cb3565b5060010190565b600060ff821660ff811415614caa57614caa614cb3565b60010192915050565b634e487b7160e01b600052601160045260246000fd5b634e487b7160e01b600052604160045260246000fd5b6001600160a01b0381168114614cf457600080fd5b50565b8015158114614cf457600080fdfea2646970667358221220010b88e5c76c3e9f3acbaeb9af2ea5e01301cd06f37ae5e9d585fa19e24440eb64736f6c63430008020033",
  "immutableReferences": {},
  "source": "// SPDX-License-Identifier: MIT\npragma solidity ^0.8.2;\n\nimport \"@openzeppelin/contracts/token/ERC20/ERC20.sol\";\nimport \"@openzeppelin/contracts/token/ERC20/IERC20.sol\";\nimport \"@openzeppelin/contracts/token/ERC20/utils/SafeERC20.sol\";\nimport \"@openzeppelin/contracts/access/AccessControl.sol\";\nimport \"../interfaces/IWhiteDebridge.sol\";\nimport \"../interfaces/IFeeProxy.sol\";\nimport \"../interfaces/IWETH.sol\";\nimport \"../interfaces/IWhiteFullDebridge.sol\";\nimport \"../interfaces/IDefiController.sol\";\nimport \"../interfaces/IWhiteFullAggregator.sol\";\nimport \"../periphery/WrappedAsset.sol\";\nimport \"./WhiteDebridge.sol\";\n\ncontract WhiteFullDebridge is WhiteDebridge, IWhiteFullDebridge {\n    using SafeERC20 for IERC20;\n\n    IFeeProxy public feeProxy; // proxy to convert the collected fees into Link's\n    IWETH public weth; // wrapped native token contract\n\n    /// @dev Constructor that initializes the most important configurations.\n    /// @param _minAmount Minimal amount of current chain token to be wrapped.\n    /// @param _minReserves Minimal reserve ratio.\n    /// @param _aggregator Submission aggregator address.\n    /// @param _supportedChainIds Chain ids where native token of the current chain can be wrapped.\n    function initialize(\n        uint256 _minAmount,\n        uint256 _minReserves,\n        address _aggregator,\n        address _callProxy,\n        uint256[] memory _supportedChainIds,\n        ChainSupportInfo[] memory _chainSupportInfo,\n        IWETH _weth,\n        IFeeProxy _feeProxy,\n        IDefiController _defiController\n    ) public payable initializer {\n        super._initialize(\n            _minAmount,\n            _minReserves,\n            _aggregator,\n            _callProxy,\n            _supportedChainIds,\n            _chainSupportInfo,\n            _defiController\n        );\n        weth = _weth;\n        feeProxy = _feeProxy;\n    }\n\n    /// @dev Mints wrapped asset on the current chain.\n    /// @param _debridgeId Asset identifier.\n    /// @param _receiver Receiver address.\n    /// @param _amount Amount of the transfered asset (note: without applyed fee).\n    /// @param _nonce Submission id.\n    /// @param _fallbackAddress Receiver of the tokens if the call fails.\n    /// @param _executionFee Fee paid to the transaction executor.\n    /// @param _data Chain id of the target chain.\n    function autoMint(\n        bytes32 _debridgeId,\n        uint256 _chainIdFrom,\n        address _receiver,\n        uint256 _amount,\n        uint256 _nonce,\n        address _fallbackAddress,\n        uint256 _executionFee,\n        bytes memory _data\n    ) external whenNotPaused() {\n        bytes32 submissionId =\n            getAutoSubmisionId(\n                _debridgeId,\n                _chainIdFrom,\n                chainId,\n                _amount,\n                _receiver,\n                _nonce,\n                _fallbackAddress,\n                _executionFee,\n                _data\n            );\n        require(\n            IWhiteFullAggregator(aggregator).isSubmissionConfirmed(\n                submissionId\n            ),\n            \"mint: not confirmed\"\n        );\n        _mint(\n            submissionId,\n            _debridgeId,\n            _receiver,\n            _amount,\n            _fallbackAddress,\n            _executionFee,\n            _data\n        );\n    }\n\n    /// @dev Mints wrapped asset on the current chain.\n    /// @param _debridgeId Asset identifier.\n    /// @param _receiver Receiver address.\n    /// @param _amount Amount of the transfered asset (note: without applyed fee).\n    /// @param _nonce Submission id.\n    /// @param _fallbackAddress Receiver of the tokens if the call fails.\n    /// @param _executionFee Fee paid to the transaction executor.\n    /// @param _data Chain id of the target chain.\n    function autoMintWithOldAggregator(\n        bytes32 _debridgeId,\n        uint256 _chainIdFrom,\n        address _receiver,\n        uint256 _amount,\n        uint256 _nonce,\n        address _fallbackAddress,\n        uint256 _executionFee,\n        bytes memory _data,\n        uint8 _aggregatorVersion\n    ) external whenNotPaused() {\n        bytes32 submissionId =\n            getAutoSubmisionId(\n                _debridgeId,\n                _chainIdFrom,\n                chainId,\n                _amount,\n                _receiver,\n                _nonce,\n                _fallbackAddress,\n                _executionFee,\n                _data\n            );\n        AggregatorInfo memory aggregatorInfo =\n            getOldAggregator[_aggregatorVersion];\n        require(\n            aggregatorInfo.isValid,\n            \"mintWithOldAggregator: invalidAggregator\"\n        );\n        require(\n            IWhiteFullAggregator(aggregatorInfo.aggregator)\n                .isSubmissionConfirmed(submissionId),\n            \"mint: not confirmed\"\n        );\n        _mint(\n            submissionId,\n            _debridgeId,\n            _receiver,\n            _amount,\n            _fallbackAddress,\n            _executionFee,\n            _data\n        );\n    }\n\n    /// @dev Mints wrapped asset on the current chain.\n    /// @param _debridgeId Asset identifier.\n    /// @param _receiver Receiver address.\n    /// @param _amount Amount of the transfered asset (note: without applyed fee).\n    /// @param _nonce Submission id.\n    function mint(\n        bytes32 _debridgeId,\n        uint256 _chainIdFrom,\n        address _receiver,\n        uint256 _amount,\n        uint256 _nonce\n    ) external override whenNotPaused() {\n        bytes32 submissionId =\n            getSubmisionId(\n                _debridgeId,\n                _chainIdFrom,\n                chainId,\n                _amount,\n                _receiver,\n                _nonce\n            );\n        require(\n            IWhiteFullAggregator(aggregator).isSubmissionConfirmed(\n                submissionId\n            ),\n            \"mint: not confirmed\"\n        );\n        _mint(\n            submissionId,\n            _debridgeId,\n            _receiver,\n            _amount,\n            address(0),\n            0,\n            \"0x\"\n        );\n    }\n\n    /// @dev Mints wrapped asset on the current chain.\n    /// @param _debridgeId Asset identifier.\n    /// @param _receiver Receiver address.\n    /// @param _amount Amount of the transfered asset (note: without applyed fee).\n    /// @param _nonce Submission id.\n    /// @param _aggregatorVersion Aggregator version.\n    function mintWithOldAggregator(\n        bytes32 _debridgeId,\n        uint256 _chainIdFrom,\n        address _receiver,\n        uint256 _amount,\n        uint256 _nonce,\n        uint8 _aggregatorVersion\n    ) external override {\n        bytes32 submissionId =\n            getSubmisionId(\n                _debridgeId,\n                _chainIdFrom,\n                chainId,\n                _amount,\n                _receiver,\n                _nonce\n            );\n        AggregatorInfo memory aggregatorInfo =\n            getOldAggregator[_aggregatorVersion];\n        require(\n            aggregatorInfo.isValid,\n            \"mintWithOldAggregator: invalidAggregator\"\n        );\n        require(\n            IWhiteFullAggregator(aggregatorInfo.aggregator)\n                .isSubmissionConfirmed(submissionId),\n            \"mint: not confirmed\"\n        );\n        _mint(\n            submissionId,\n            _debridgeId,\n            _receiver,\n            _amount,\n            address(0),\n            0,\n            \"0x\"\n        );\n    }\n\n    /// @dev Unlock the asset on the current chain and transfer to receiver.\n    /// @param _debridgeId Asset identifier.\n    /// @param _receiver Receiver address.\n    /// @param _amount Amount of the transfered asset (note: the fee can be applyed).\n    /// @param _nonce Submission id.\n    function autoClaim(\n        bytes32 _debridgeId,\n        uint256 _chainIdFrom,\n        address _receiver,\n        uint256 _amount,\n        uint256 _nonce,\n        address _fallbackAddress,\n        uint256 _executionFee,\n        bytes memory _data\n    ) external whenNotPaused() {\n        bytes32 submissionId =\n            getAutoSubmisionId(\n                _debridgeId,\n                _chainIdFrom,\n                chainId,\n                _amount,\n                _receiver,\n                _nonce,\n                _fallbackAddress,\n                _executionFee,\n                _data\n            );\n        require(\n            IWhiteFullAggregator(aggregator).isSubmissionConfirmed(\n                submissionId\n            ),\n            \"claim: not confirmed\"\n        );\n        _claim(\n            submissionId,\n            _debridgeId,\n            _receiver,\n            _amount,\n            _fallbackAddress,\n            _executionFee,\n            _data\n        );\n    }\n\n    /// @dev Unlock the asset on the current chain and transfer to receiver.\n    /// @param _debridgeId Asset identifier.\n    /// @param _receiver Receiver address.\n    /// @param _amount Amount of the transfered asset (note: the fee can be applyed).\n    /// @param _nonce Submission id.\n    /// @param _fallbackAddress Receiver of the tokens if the call fails.\n    /// @param _executionFee Fee paid to the transaction executor.\n    /// @param _data Chain id of the target chain.\n    function autoClaimWithOldAggregator(\n        bytes32 _debridgeId,\n        uint256 _chainIdFrom,\n        address _receiver,\n        uint256 _amount,\n        uint256 _nonce,\n        address _fallbackAddress,\n        uint256 _executionFee,\n        bytes memory _data,\n        uint8 _aggregatorVersion\n    ) external whenNotPaused() {\n        bytes32 submissionId =\n            getAutoSubmisionId(\n                _debridgeId,\n                _chainIdFrom,\n                chainId,\n                _amount,\n                _receiver,\n                _nonce,\n                _fallbackAddress,\n                _executionFee,\n                _data\n            );\n        AggregatorInfo memory aggregatorInfo =\n            getOldAggregator[_aggregatorVersion];\n        require(\n            aggregatorInfo.isValid,\n            \"mintWithOldAggregator: invalidAggregator\"\n        );\n        require(\n            IWhiteFullAggregator(aggregatorInfo.aggregator)\n                .isSubmissionConfirmed(submissionId),\n            \"claim: not confirmed\"\n        );\n        _claim(\n            submissionId,\n            _debridgeId,\n            _receiver,\n            _amount,\n            _fallbackAddress,\n            _executionFee,\n            _data\n        );\n    }\n\n    /// @dev Unlock the asset on the current chain and transfer to receiver.\n    /// @param _debridgeId Asset identifier.\n    /// @param _receiver Receiver address.\n    /// @param _amount Amount of the transfered asset (note: the fee can be applyed).\n    /// @param _nonce Submission id.\n\n    function claim(\n        bytes32 _debridgeId,\n        uint256 _chainIdFrom,\n        address _receiver,\n        uint256 _amount,\n        uint256 _nonce\n    ) external override whenNotPaused() {\n        bytes32 submissionId =\n            getSubmisionId(\n                _debridgeId,\n                _chainIdFrom,\n                chainId,\n                _amount,\n                _receiver,\n                _nonce\n            );\n        require(\n            IWhiteFullAggregator(aggregator).isSubmissionConfirmed(\n                submissionId\n            ),\n            \"claim: not confirmed\"\n        );\n        _claim(\n            submissionId,\n            _debridgeId,\n            _receiver,\n            _amount,\n            address(0),\n            0,\n            \"0x\"\n        );\n    }\n\n    /// @dev Unlock the asset on the current chain and transfer to receiver.\n    /// @param _debridgeId Asset identifier.\n    /// @param _receiver Receiver address.\n    /// @param _amount Amount of the transfered asset (note: the fee can be applyed).\n    /// @param _nonce Submission id.\n    /// @param _aggregatorVersion Aggregator version.\n    function claimWithOldAggregator(\n        bytes32 _debridgeId,\n        uint256 _chainIdFrom,\n        address _receiver,\n        uint256 _amount,\n        uint256 _nonce,\n        uint8 _aggregatorVersion\n    ) external override {\n        bytes32 submissionId =\n            getSubmisionId(\n                _debridgeId,\n                _chainIdFrom,\n                chainId,\n                _amount,\n                _receiver,\n                _nonce\n            );\n        AggregatorInfo memory aggregatorInfo =\n            getOldAggregator[_aggregatorVersion];\n        require(\n            aggregatorInfo.isValid,\n            \"mintWithOldAggregator: invalidAggregator\"\n        );\n        require(\n            IWhiteFullAggregator(aggregatorInfo.aggregator)\n                .isSubmissionConfirmed(submissionId),\n            \"claim: not confirmed\"\n        );\n        _claim(\n            submissionId,\n            _debridgeId,\n            _receiver,\n            _amount,\n            address(0),\n            0,\n            \"0x\"\n        );\n    }\n\n    /* ADMIN */\n\n    /// @dev Fund aggregator.\n    /// @param _debridgeId Asset identifier.\n    /// @param _amount Submission aggregator address.\n    function fundAggregator(bytes32 _debridgeId, uint256 _amount)\n        external\n        onlyAdmin()\n    {\n        DebridgeInfo storage debridge = getDebridge[_debridgeId];\n        require(\n            debridge.collectedFees >= _amount,\n            \"fundAggregator: not enough fee\"\n        );\n        debridge.collectedFees -= _amount;\n        if (debridge.tokenAddress == address(0)) {\n            weth.deposit{value: _amount}();\n            weth.transfer(address(feeProxy), _amount);\n            feeProxy.swapToLink(address(weth), _amount, aggregator);\n        } else {\n            IERC20(debridge.tokenAddress).safeTransfer(\n                address(feeProxy),\n                _amount\n            );\n            feeProxy.swapToLink(debridge.tokenAddress, _amount, aggregator);\n        }\n    }\n\n    /// @dev Set fee converter proxy.\n    /// @param _feeProxy Fee proxy address.\n    function setFeeProxy(IFeeProxy _feeProxy) external onlyAdmin() {\n        feeProxy = _feeProxy;\n    }\n\n    /// @dev Set wrapped native asset address.\n    /// @param _weth Weth address.\n    function setWeth(IWETH _weth) external onlyAdmin() {\n        weth = _weth;\n    }\n}\n",
  "sourcePath": "/Users/kstasi/Documents/side/debridge-contracts/contracts/transfers/WhiteFullDebridge.sol",
  "compiler": {
    "name": "solc",
    "version": "0.8.2+commit.661d1103.Emscripten.clang"
  },
  "schemaVersion": "3.3.4",
  "updatedAt": "2021-05-09T06:55:56.425Z",
  "networkType": "ethereum",
  "devdoc": {
    "kind": "dev",
    "methods": {
      "addExternalAsset(address,address,uint256,uint256,uint256,uint256[],(bool,uint256,uint256)[])": {
        "details": "Add support for the asset from the other chain, deploy new wrapped asset.",
        "params": {
          "_chainId": "Current chain id.",
          "_minAmount": "Minimal amount of the asset to be wrapped.",
          "_minReserves": "Minimal reserve ration.",
          "_supportedChainIds": "Chain ids where the token of the current chain can be transfered.",
          "_tokenAddress": "Address of the asset on the other chain.",
          "_wrappedAssetAddress": "Wrapped asset address."
        }
      },
      "addNativeAsset(address,uint256,uint256,uint256[],(bool,uint256,uint256)[])": {
        "details": "Add support for the asset on the current chain.",
        "params": {
          "_minAmount": "Minimal amount of current chain token to be wrapped.",
          "_minReserves": "Minimal reserve ration.",
          "_supportedChainIds": "Chain ids where native token of the current chain can be wrapped.",
          "_tokenAddress": "Address of the asset on the current chain."
        }
      },
      "autoBurn(bytes32,address,uint256,uint256,address,uint256,bytes)": {
        "details": "Burns wrapped asset and allowss to claim it on the other chain.",
        "params": {
          "_amount": "Amount of the transfered asset (note: the fee can be applyed).",
          "_chainIdTo": "Chain id of the target chain.",
          "_data": "Chain id of the target chain.",
          "_debridgeId": "Asset identifier.",
          "_executionFee": "Fee paid to the transaction executor.",
          "_fallbackAddress": "Receiver of the tokens if the call fails.",
          "_receiver": "Receiver address."
        }
      },
      "autoClaim(bytes32,uint256,address,uint256,uint256,address,uint256,bytes)": {
        "details": "Unlock the asset on the current chain and transfer to receiver.",
        "params": {
          "_amount": "Amount of the transfered asset (note: the fee can be applyed).",
          "_debridgeId": "Asset identifier.",
          "_nonce": "Submission id.",
          "_receiver": "Receiver address."
        }
      },
      "autoClaimWithOldAggregator(bytes32,uint256,address,uint256,uint256,address,uint256,bytes,uint8)": {
        "details": "Unlock the asset on the current chain and transfer to receiver.",
        "params": {
          "_amount": "Amount of the transfered asset (note: the fee can be applyed).",
          "_data": "Chain id of the target chain.",
          "_debridgeId": "Asset identifier.",
          "_executionFee": "Fee paid to the transaction executor.",
          "_fallbackAddress": "Receiver of the tokens if the call fails.",
          "_nonce": "Submission id.",
          "_receiver": "Receiver address."
        }
      },
      "autoMint(bytes32,uint256,address,uint256,uint256,address,uint256,bytes)": {
        "details": "Mints wrapped asset on the current chain.",
        "params": {
          "_amount": "Amount of the transfered asset (note: without applyed fee).",
          "_data": "Chain id of the target chain.",
          "_debridgeId": "Asset identifier.",
          "_executionFee": "Fee paid to the transaction executor.",
          "_fallbackAddress": "Receiver of the tokens if the call fails.",
          "_nonce": "Submission id.",
          "_receiver": "Receiver address."
        }
      },
      "autoMintWithOldAggregator(bytes32,uint256,address,uint256,uint256,address,uint256,bytes,uint8)": {
        "details": "Mints wrapped asset on the current chain.",
        "params": {
          "_amount": "Amount of the transfered asset (note: without applyed fee).",
          "_data": "Chain id of the target chain.",
          "_debridgeId": "Asset identifier.",
          "_executionFee": "Fee paid to the transaction executor.",
          "_fallbackAddress": "Receiver of the tokens if the call fails.",
          "_nonce": "Submission id.",
          "_receiver": "Receiver address."
        }
      },
      "autoSend(bytes32,address,uint256,uint256,address,uint256,bytes)": {
        "details": "Locks asset on the chain and enables minting on the other chain.",
        "params": {
          "_amount": "Amount to be transfered (note: the fee can be applyed).",
          "_chainIdTo": "Chain id of the target chain.",
          "_data": "Chain id of the target chain.",
          "_debridgeId": "Asset identifier.",
          "_executionFee": "Fee paid to the transaction executor.",
          "_fallbackAddress": "Receiver of the tokens if the call fails.",
          "_receiver": "Receiver address."
        }
      },
      "burn(bytes32,address,uint256,uint256)": {
        "details": "Burns wrapped asset and allowss to claim it on the other chain.",
        "params": {
          "_amount": "Amount of the transfered asset (note: the fee can be applyed).",
          "_chainIdTo": "Chain id of the target chain.",
          "_debridgeId": "Asset identifier.",
          "_receiver": "Receiver address."
        }
      },
      "claim(bytes32,uint256,address,uint256,uint256)": {
        "details": "Unlock the asset on the current chain and transfer to receiver.",
        "params": {
          "_amount": "Amount of the transfered asset (note: the fee can be applyed).",
          "_debridgeId": "Asset identifier.",
          "_nonce": "Submission id.",
          "_receiver": "Receiver address."
        }
      },
      "claimWithOldAggregator(bytes32,uint256,address,uint256,uint256,uint8)": {
        "details": "Unlock the asset on the current chain and transfer to receiver.",
        "params": {
          "_aggregatorVersion": "Aggregator version.",
          "_amount": "Amount of the transfered asset (note: the fee can be applyed).",
          "_debridgeId": "Asset identifier.",
          "_nonce": "Submission id.",
          "_receiver": "Receiver address."
        }
      },
      "fundAggregator(bytes32,uint256)": {
        "details": "Fund aggregator.",
        "params": {
          "_amount": "Submission aggregator address.",
          "_debridgeId": "Asset identifier."
        }
      },
      "getAutoSubmisionId(bytes32,uint256,uint256,uint256,address,uint256,address,uint256,bytes)": {
        "details": "Calculate submission id for auto claimable transfer.",
        "params": {
          "_amount": "Amount of the transfered asset (note: the fee can be applyed).",
          "_chainIdFrom": "Chain identifier of the chain where tokens are sent from.",
          "_chainIdTo": "Chain identifier of the chain where tokens are sent to.",
          "_data": "Chain id of the target chain.",
          "_debridgeId": "Asset identifier.",
          "_executionFee": "Fee paid to the transaction executor.",
          "_fallbackAddress": "Receiver of the tokens if the call fails.",
          "_nonce": "Submission id.",
          "_receiver": "Receiver address."
        }
      },
      "getBalance(address)": {
        "details": "Get the balance.",
        "params": {
          "_tokenAddress": "Address of the asset on the other chain."
        }
      },
      "getChainIdSupport(bytes32,uint256)": {
        "details": "Check if transfer to chain is supported.",
        "params": {
          "_chainId": "Chain identifier.",
          "_debridgeId": "Asset identifier."
        }
      },
      "getDebridgeId(uint256,address)": {
        "details": "Calculates asset identifier.",
        "params": {
          "_chainId": "Current chain id.",
          "_tokenAddress": "Address of the asset on the other chain."
        }
      },
      "getRoleAdmin(bytes32)": {
        "details": "Returns the admin role that controls `role`. See {grantRole} and {revokeRole}. To change a role's admin, use {_setRoleAdmin}."
      },
      "getSubmisionId(bytes32,uint256,uint256,uint256,address,uint256)": {
        "details": "Calculate submission id.",
        "params": {
          "_amount": "Amount of the transfered asset (note: the fee can be applyed).",
          "_chainIdFrom": "Chain identifier of the chain where tokens are sent from.",
          "_chainIdTo": "Chain identifier of the chain where tokens are sent to.",
          "_debridgeId": "Asset identifier.",
          "_nonce": "Submission id.",
          "_receiver": "Receiver address."
        }
      },
      "grantRole(bytes32,address)": {
        "details": "Grants `role` to `account`. If `account` had not been already granted `role`, emits a {RoleGranted} event. Requirements: - the caller must have ``role``'s admin role."
      },
      "hasRole(bytes32,address)": {
        "details": "Returns `true` if `account` has been granted `role`."
      },
      "initialize(uint256,uint256,address,address,uint256[],(bool,uint256,uint256)[],address,address,address)": {
        "details": "Constructor that initializes the most important configurations.",
        "params": {
          "_aggregator": "Submission aggregator address.",
          "_minAmount": "Minimal amount of current chain token to be wrapped.",
          "_minReserves": "Minimal reserve ratio.",
          "_supportedChainIds": "Chain ids where native token of the current chain can be wrapped."
        }
      },
      "manageOldAggregator(uint8,bool)": {
        "details": "Set aggregator address.",
        "params": {
          "_aggregatorVersion": "Submission aggregator address.",
          "_isValid": "Is valid."
        }
      },
      "mint(bytes32,uint256,address,uint256,uint256)": {
        "details": "Mints wrapped asset on the current chain.",
        "params": {
          "_amount": "Amount of the transfered asset (note: without applyed fee).",
          "_debridgeId": "Asset identifier.",
          "_nonce": "Submission id.",
          "_receiver": "Receiver address."
        }
      },
      "mintWithOldAggregator(bytes32,uint256,address,uint256,uint256,uint8)": {
        "details": "Mints wrapped asset on the current chain.",
        "params": {
          "_aggregatorVersion": "Aggregator version.",
          "_amount": "Amount of the transfered asset (note: without applyed fee).",
          "_debridgeId": "Asset identifier.",
          "_nonce": "Submission id.",
          "_receiver": "Receiver address."
        }
      },
      "pause()": {
        "details": "Stop all transfers."
      },
      "paused()": {
        "details": "Returns true if the contract is paused, and false otherwise."
      },
      "renounceRole(bytes32,address)": {
        "details": "Revokes `role` from the calling account. Roles are often managed via {grantRole} and {revokeRole}: this function's purpose is to provide a mechanism for accounts to lose their privileges if they are compromised (such as when a trusted device is misplaced). If the calling account had been granted `role`, emits a {RoleRevoked} event. Requirements: - the caller must be `account`."
      },
      "requestReserves(address,uint256)": {
        "details": "Request the assets to be used in defi protocol.",
        "params": {
          "_amount": "Amount of tokens to request.",
          "_tokenAddress": "Asset address."
        }
      },
      "returnReserves(address,uint256)": {
        "details": "Return the assets that were used in defi protocol.",
        "params": {
          "_amount": "Amount of tokens to claim.",
          "_tokenAddress": "Asset address."
        }
      },
      "revokeRole(bytes32,address)": {
        "details": "Revokes `role` from `account`. If `account` had been granted `role`, emits a {RoleRevoked} event. Requirements: - the caller must have ``role``'s admin role."
      },
      "send(bytes32,address,uint256,uint256)": {
        "details": "Locks asset on the chain and enables minting on the other chain.",
        "params": {
          "_amount": "Amount to be transfered (note: the fee can be applyed).",
          "_chainIdTo": "Chain id of the target chain.",
          "_debridgeId": "Asset identifier.",
          "_receiver": "Receiver address."
        }
      },
      "setAggregator(address)": {
        "details": "Set aggregator address.",
        "params": {
          "_aggregator": "Submission aggregator address."
        }
      },
      "setCallProxy(address)": {
        "details": "Set proxy address.",
        "params": {
          "_callProxy": "Address of the proxy that executes external calls."
        }
      },
      "setChainIdSupport(bytes32,uint256,bool)": {
        "details": "Set support for the chains where the token can be transfered.",
        "params": {
          "_chainId": "Current chain id.",
          "_debridgeId": "Asset identifier.",
          "_isSupported": "Whether the token is transferable to the other chain."
        }
      },
      "setChainIds(uint256[])": {
        "details": "Set support for the chains.",
        "params": {
          "_chainIds": "All supported chain ids."
        }
      },
      "setDefiController(address)": {
        "details": "Set defi controoler.",
        "params": {
          "_defiController": "Defi controller address address."
        }
      },
      "setFeeProxy(address)": {
        "details": "Set fee converter proxy.",
        "params": {
          "_feeProxy": "Fee proxy address."
        }
      },
      "setWeth(address)": {
        "details": "Set wrapped native asset address.",
        "params": {
          "_weth": "Weth address."
        }
      },
      "supportsInterface(bytes4)": {
        "details": "See {IERC165-supportsInterface}."
      },
      "unpause()": {
        "details": "Allow transfers."
      },
      "updateAsset(bytes32,uint256,uint256)": {
        "details": "Add support for the asset.",
        "params": {
          "_debridgeId": "Asset identifier.",
          "_minAmount": "Minimal amount of the asset to be wrapped.",
          "_minReserves": "Minimal reserve ration."
        }
      },
      "updateAsset(bytes32,uint256[],(bool,uint256,uint256)[])": {
        "details": "Update asset's fees.",
        "params": {
          "_chainSupportInfo": "Cahin support info.",
          "_debridgeId": "Asset identifier.",
          "_supportedChainIds": "Chain identifiers."
        }
      },
      "withdrawFee(bytes32,address,uint256)": {
        "details": "Withdraw fees.",
        "params": {
          "_amount": "Amount of tokens to withdraw.",
          "_debridgeId": "Asset identifier.",
          "_receiver": "Receiver address."
        }
      }
    },
    "version": 1
  },
  "userdoc": {
    "kind": "user",
    "methods": {},
    "version": 1
  }
}