{
  "contractName": "WhiteFullDebridge",
  "abi": [
    {
      "anonymous": false,
      "inputs": [
        {
          "indexed": false,
          "internalType": "bytes32",
          "name": "submissionId",
          "type": "bytes32"
        },
        {
          "indexed": false,
          "internalType": "bytes32",
          "name": "debridgeId",
          "type": "bytes32"
        },
        {
          "indexed": false,
          "internalType": "uint256",
          "name": "amount",
          "type": "uint256"
        },
        {
          "indexed": false,
          "internalType": "address",
          "name": "receiver",
          "type": "address"
        },
        {
          "indexed": false,
          "internalType": "uint256",
          "name": "nonce",
          "type": "uint256"
        },
        {
          "indexed": false,
          "internalType": "uint256",
          "name": "chainIdTo",
          "type": "uint256"
        }
      ],
      "name": "Burnt",
      "type": "event"
    },
    {
      "anonymous": false,
      "inputs": [
        {
          "indexed": true,
          "internalType": "bytes32",
          "name": "debridgeId",
          "type": "bytes32"
        },
        {
          "indexed": true,
          "internalType": "uint256",
          "name": "chainId",
          "type": "uint256"
        }
      ],
      "name": "ChainSupportAdded",
      "type": "event"
    },
    {
      "anonymous": false,
      "inputs": [
        {
          "indexed": true,
          "internalType": "bytes32",
          "name": "debridgeId",
          "type": "bytes32"
        },
        {
          "indexed": true,
          "internalType": "uint256",
          "name": "chainId",
          "type": "uint256"
        }
      ],
      "name": "ChainSupportRemoved",
      "type": "event"
    },
    {
      "anonymous": false,
      "inputs": [
        {
          "indexed": false,
          "internalType": "bytes32",
          "name": "submissionId",
          "type": "bytes32"
        },
        {
          "indexed": false,
          "internalType": "uint256",
          "name": "amount",
          "type": "uint256"
        },
        {
          "indexed": false,
          "internalType": "address",
          "name": "receiver",
          "type": "address"
        },
        {
          "indexed": false,
          "internalType": "bytes32",
          "name": "debridgeId",
          "type": "bytes32"
        }
      ],
      "name": "Claimed",
      "type": "event"
    },
    {
      "anonymous": false,
      "inputs": [
        {
          "indexed": false,
          "internalType": "bytes32",
          "name": "submissionId",
          "type": "bytes32"
        },
        {
          "indexed": false,
          "internalType": "uint256",
          "name": "amount",
          "type": "uint256"
        },
        {
          "indexed": false,
          "internalType": "address",
          "name": "receiver",
          "type": "address"
        },
        {
          "indexed": false,
          "internalType": "bytes32",
          "name": "debridgeId",
          "type": "bytes32"
        }
      ],
      "name": "Minted",
      "type": "event"
    },
    {
      "anonymous": false,
      "inputs": [
        {
          "indexed": true,
          "internalType": "bytes32",
          "name": "debridgeId",
          "type": "bytes32"
        },
        {
          "indexed": true,
          "internalType": "address",
          "name": "tokenAddress",
          "type": "address"
        },
        {
          "indexed": true,
          "internalType": "uint256",
          "name": "chainId",
          "type": "uint256"
        },
        {
          "indexed": false,
          "internalType": "uint256",
          "name": "minAmount",
          "type": "uint256"
        },
        {
          "indexed": false,
          "internalType": "uint256",
          "name": "transferFee",
          "type": "uint256"
        },
        {
          "indexed": false,
          "internalType": "uint256",
          "name": "minReserves",
          "type": "uint256"
        }
      ],
      "name": "PairAdded",
      "type": "event"
    },
    {
      "anonymous": false,
      "inputs": [
        {
          "indexed": true,
          "internalType": "bytes32",
          "name": "role",
          "type": "bytes32"
        },
        {
          "indexed": true,
          "internalType": "bytes32",
          "name": "previousAdminRole",
          "type": "bytes32"
        },
        {
          "indexed": true,
          "internalType": "bytes32",
          "name": "newAdminRole",
          "type": "bytes32"
        }
      ],
      "name": "RoleAdminChanged",
      "type": "event"
    },
    {
      "anonymous": false,
      "inputs": [
        {
          "indexed": true,
          "internalType": "bytes32",
          "name": "role",
          "type": "bytes32"
        },
        {
          "indexed": true,
          "internalType": "address",
          "name": "account",
          "type": "address"
        },
        {
          "indexed": true,
          "internalType": "address",
          "name": "sender",
          "type": "address"
        }
      ],
      "name": "RoleGranted",
      "type": "event"
    },
    {
      "anonymous": false,
      "inputs": [
        {
          "indexed": true,
          "internalType": "bytes32",
          "name": "role",
          "type": "bytes32"
        },
        {
          "indexed": true,
          "internalType": "address",
          "name": "account",
          "type": "address"
        },
        {
          "indexed": true,
          "internalType": "address",
          "name": "sender",
          "type": "address"
        }
      ],
      "name": "RoleRevoked",
      "type": "event"
    },
    {
      "anonymous": false,
      "inputs": [
        {
          "indexed": false,
          "internalType": "bytes32",
          "name": "submissionId",
          "type": "bytes32"
        },
        {
          "indexed": false,
          "internalType": "bytes32",
          "name": "debridgeId",
          "type": "bytes32"
        },
        {
          "indexed": false,
          "internalType": "uint256",
          "name": "amount",
          "type": "uint256"
        },
        {
          "indexed": false,
          "internalType": "address",
          "name": "receiver",
          "type": "address"
        },
        {
          "indexed": false,
          "internalType": "uint256",
          "name": "nonce",
          "type": "uint256"
        },
        {
          "indexed": false,
          "internalType": "uint256",
          "name": "chainIdTo",
          "type": "uint256"
        }
      ],
      "name": "Sent",
      "type": "event"
    },
    {
      "inputs": [],
      "name": "DEFAULT_ADMIN_ROLE",
      "outputs": [
        {
          "internalType": "bytes32",
          "name": "",
          "type": "bytes32"
        }
      ],
      "stateMutability": "view",
      "type": "function"
    },
    {
      "inputs": [],
      "name": "DENOMINATOR",
      "outputs": [
        {
          "internalType": "uint256",
          "name": "",
          "type": "uint256"
        }
      ],
      "stateMutability": "view",
      "type": "function"
    },
    {
      "inputs": [
        {
          "internalType": "address",
          "name": "_tokenAddress",
          "type": "address"
        },
        {
          "internalType": "address",
          "name": "_wrappedAssetAddress",
          "type": "address"
        },
        {
          "internalType": "uint256",
          "name": "_chainId",
          "type": "uint256"
        },
        {
          "internalType": "uint256",
          "name": "_minAmount",
          "type": "uint256"
        },
        {
          "internalType": "uint256",
          "name": "_transferFee",
          "type": "uint256"
        },
        {
          "internalType": "uint256",
          "name": "_minReserves",
          "type": "uint256"
        },
        {
          "internalType": "uint256[]",
          "name": "_supportedChainIds",
          "type": "uint256[]"
        }
      ],
      "name": "addExternalAsset",
      "outputs": [],
      "stateMutability": "nonpayable",
      "type": "function"
    },
    {
      "inputs": [
        {
          "internalType": "address",
          "name": "_tokenAddress",
          "type": "address"
        },
        {
          "internalType": "uint256",
          "name": "_minAmount",
          "type": "uint256"
        },
        {
          "internalType": "uint256",
          "name": "_transferFee",
          "type": "uint256"
        },
        {
          "internalType": "uint256",
          "name": "_minReserves",
          "type": "uint256"
        },
        {
          "internalType": "uint256[]",
          "name": "_supportedChainIds",
          "type": "uint256[]"
        }
      ],
      "name": "addNativeAsset",
      "outputs": [],
      "stateMutability": "nonpayable",
      "type": "function"
    },
    {
      "inputs": [],
      "name": "aggregator",
      "outputs": [
        {
          "internalType": "address",
          "name": "",
          "type": "address"
        }
      ],
      "stateMutability": "view",
      "type": "function"
    },
    {
      "inputs": [
        {
          "internalType": "bytes32",
          "name": "_debridgeId",
          "type": "bytes32"
        },
        {
          "internalType": "address",
          "name": "_receiver",
          "type": "address"
        },
        {
          "internalType": "uint256",
          "name": "_amount",
          "type": "uint256"
        }
      ],
      "name": "burn",
      "outputs": [],
      "stateMutability": "nonpayable",
      "type": "function"
    },
    {
      "inputs": [],
      "name": "chainId",
      "outputs": [
        {
          "internalType": "uint256",
          "name": "",
          "type": "uint256"
        }
      ],
      "stateMutability": "view",
      "type": "function"
    },
    {
      "inputs": [],
      "name": "defiController",
      "outputs": [
        {
          "internalType": "contract IDefiController",
          "name": "",
          "type": "address"
        }
      ],
      "stateMutability": "view",
      "type": "function"
    },
    {
      "inputs": [],
      "name": "feeProxy",
      "outputs": [
        {
          "internalType": "contract IFeeProxy",
          "name": "",
          "type": "address"
        }
      ],
      "stateMutability": "view",
      "type": "function"
    },
    {
      "inputs": [
        {
          "internalType": "address",
          "name": "_tokenAddress",
          "type": "address"
        }
      ],
      "name": "getBalance",
      "outputs": [
        {
          "internalType": "uint256",
          "name": "",
          "type": "uint256"
        }
      ],
      "stateMutability": "view",
      "type": "function"
    },
    {
      "inputs": [
        {
          "internalType": "bytes32",
          "name": "",
          "type": "bytes32"
        }
      ],
      "name": "getDebridge",
      "outputs": [
        {
          "internalType": "address",
          "name": "tokenAddress",
          "type": "address"
        },
        {
          "internalType": "uint256",
          "name": "chainId",
          "type": "uint256"
        },
        {
          "internalType": "uint256",
          "name": "minAmount",
          "type": "uint256"
        },
        {
          "internalType": "uint256",
          "name": "transferFee",
          "type": "uint256"
        },
        {
          "internalType": "uint256",
          "name": "collectedFees",
          "type": "uint256"
        },
        {
          "internalType": "uint256",
          "name": "balance",
          "type": "uint256"
        },
        {
          "internalType": "uint256",
          "name": "minReserves",
          "type": "uint256"
        }
      ],
      "stateMutability": "view",
      "type": "function"
    },
    {
      "inputs": [
        {
          "internalType": "uint256",
          "name": "_chainId",
          "type": "uint256"
        },
        {
          "internalType": "address",
          "name": "_tokenAddress",
          "type": "address"
        }
      ],
      "name": "getDebridgeId",
      "outputs": [
        {
          "internalType": "bytes32",
          "name": "",
          "type": "bytes32"
        }
      ],
      "stateMutability": "pure",
      "type": "function"
    },
    {
      "inputs": [
        {
          "internalType": "bytes32",
          "name": "role",
          "type": "bytes32"
        }
      ],
      "name": "getRoleAdmin",
      "outputs": [
        {
          "internalType": "bytes32",
          "name": "",
          "type": "bytes32"
        }
      ],
      "stateMutability": "view",
      "type": "function"
    },
    {
      "inputs": [
        {
          "internalType": "bytes32",
          "name": "_debridgeId",
          "type": "bytes32"
        },
        {
          "internalType": "uint256",
          "name": "_amount",
          "type": "uint256"
        },
        {
          "internalType": "address",
          "name": "_receiver",
          "type": "address"
        },
        {
          "internalType": "uint256",
          "name": "_nonce",
          "type": "uint256"
        }
      ],
      "name": "getSubmisionId",
      "outputs": [
        {
          "internalType": "bytes32",
          "name": "",
          "type": "bytes32"
        }
      ],
      "stateMutability": "pure",
      "type": "function"
    },
    {
      "inputs": [
        {
          "internalType": "bytes32",
          "name": "_debridgeId",
          "type": "bytes32"
        }
      ],
      "name": "getSupportedChainIds",
      "outputs": [
        {
          "internalType": "uint256[]",
          "name": "",
          "type": "uint256[]"
        }
      ],
      "stateMutability": "view",
      "type": "function"
    },
    {
      "inputs": [
        {
          "internalType": "address",
          "name": "",
          "type": "address"
        }
      ],
      "name": "getUserNonce",
      "outputs": [
        {
          "internalType": "uint256",
          "name": "",
          "type": "uint256"
        }
      ],
      "stateMutability": "view",
      "type": "function"
    },
    {
      "inputs": [
        {
          "internalType": "bytes32",
          "name": "role",
          "type": "bytes32"
        },
        {
          "internalType": "address",
          "name": "account",
          "type": "address"
        }
      ],
      "name": "grantRole",
      "outputs": [],
      "stateMutability": "nonpayable",
      "type": "function"
    },
    {
      "inputs": [
        {
          "internalType": "bytes32",
          "name": "role",
          "type": "bytes32"
        },
        {
          "internalType": "address",
          "name": "account",
          "type": "address"
        }
      ],
      "name": "hasRole",
      "outputs": [
        {
          "internalType": "bool",
          "name": "",
          "type": "bool"
        }
      ],
      "stateMutability": "view",
      "type": "function"
    },
    {
      "inputs": [
        {
          "internalType": "bytes32",
          "name": "",
          "type": "bytes32"
        }
      ],
      "name": "isSubmissionUsed",
      "outputs": [
        {
          "internalType": "bool",
          "name": "",
          "type": "bool"
        }
      ],
      "stateMutability": "view",
      "type": "function"
    },
    {
      "inputs": [
        {
          "internalType": "bytes32",
          "name": "role",
          "type": "bytes32"
        },
        {
          "internalType": "address",
          "name": "account",
          "type": "address"
        }
      ],
      "name": "renounceRole",
      "outputs": [],
      "stateMutability": "nonpayable",
      "type": "function"
    },
    {
      "inputs": [
        {
          "internalType": "address",
          "name": "_tokenAddress",
          "type": "address"
        },
        {
          "internalType": "uint256",
          "name": "_amount",
          "type": "uint256"
        }
      ],
      "name": "requestReserves",
      "outputs": [],
      "stateMutability": "nonpayable",
      "type": "function"
    },
    {
      "inputs": [
        {
          "internalType": "address",
          "name": "_tokenAddress",
          "type": "address"
        },
        {
          "internalType": "uint256",
          "name": "_amount",
          "type": "uint256"
        }
      ],
      "name": "returnReserves",
      "outputs": [],
      "stateMutability": "payable",
      "type": "function"
    },
    {
      "inputs": [
        {
          "internalType": "bytes32",
          "name": "role",
          "type": "bytes32"
        },
        {
          "internalType": "address",
          "name": "account",
          "type": "address"
        }
      ],
      "name": "revokeRole",
      "outputs": [],
      "stateMutability": "nonpayable",
      "type": "function"
    },
    {
      "inputs": [
        {
          "internalType": "bytes32",
          "name": "_debridgeId",
          "type": "bytes32"
        },
        {
          "internalType": "address",
          "name": "_receiver",
          "type": "address"
        },
        {
          "internalType": "uint256",
          "name": "_amount",
          "type": "uint256"
        },
        {
          "internalType": "uint256",
          "name": "_chainIdTo",
          "type": "uint256"
        }
      ],
      "name": "send",
      "outputs": [],
      "stateMutability": "payable",
      "type": "function"
    },
    {
      "inputs": [
        {
          "internalType": "address",
          "name": "_aggregator",
          "type": "address"
        }
      ],
      "name": "setAggregator",
      "outputs": [],
      "stateMutability": "nonpayable",
      "type": "function"
    },
    {
      "inputs": [
        {
          "internalType": "bytes32",
          "name": "_debridgeId",
          "type": "bytes32"
        },
        {
          "internalType": "uint256",
          "name": "_chainId",
          "type": "uint256"
        },
        {
          "internalType": "bool",
          "name": "_isSupported",
          "type": "bool"
        }
      ],
      "name": "setChainIdSupport",
      "outputs": [],
      "stateMutability": "nonpayable",
      "type": "function"
    },
    {
      "inputs": [
        {
          "internalType": "contract IDefiController",
          "name": "_defiController",
          "type": "address"
        }
      ],
      "name": "setDefiController",
      "outputs": [],
      "stateMutability": "nonpayable",
      "type": "function"
    },
    {
      "inputs": [
        {
          "internalType": "bytes4",
          "name": "interfaceId",
          "type": "bytes4"
        }
      ],
      "name": "supportsInterface",
      "outputs": [
        {
          "internalType": "bool",
          "name": "",
          "type": "bool"
        }
      ],
      "stateMutability": "view",
      "type": "function"
    },
    {
      "inputs": [
        {
          "internalType": "bytes32",
          "name": "_debridgeId",
          "type": "bytes32"
        },
        {
          "internalType": "uint256",
          "name": "_minAmount",
          "type": "uint256"
        },
        {
          "internalType": "uint256",
          "name": "_transferFee",
          "type": "uint256"
        },
        {
          "internalType": "uint256",
          "name": "_minReserves",
          "type": "uint256"
        }
      ],
      "name": "updateAsset",
      "outputs": [],
      "stateMutability": "nonpayable",
      "type": "function"
    },
    {
      "inputs": [],
      "name": "weth",
      "outputs": [
        {
          "internalType": "contract IWETH",
          "name": "",
          "type": "address"
        }
      ],
      "stateMutability": "view",
      "type": "function"
    },
    {
      "inputs": [
        {
          "internalType": "bytes32",
          "name": "_debridgeId",
          "type": "bytes32"
        },
        {
          "internalType": "address",
          "name": "_receiver",
          "type": "address"
        },
        {
          "internalType": "uint256",
          "name": "_amount",
          "type": "uint256"
        }
      ],
      "name": "withdrawFee",
      "outputs": [],
      "stateMutability": "nonpayable",
      "type": "function"
    },
    {
      "inputs": [
        {
          "internalType": "uint256",
          "name": "_minAmount",
          "type": "uint256"
        },
        {
          "internalType": "uint256",
          "name": "_transferFee",
          "type": "uint256"
        },
        {
          "internalType": "uint256",
          "name": "_minReserves",
          "type": "uint256"
        },
        {
          "internalType": "address",
          "name": "_aggregator",
          "type": "address"
        },
        {
          "internalType": "uint256[]",
          "name": "_supportedChainIds",
          "type": "uint256[]"
        },
        {
          "internalType": "contract IWETH",
          "name": "_weth",
          "type": "address"
        },
        {
          "internalType": "contract IFeeProxy",
          "name": "_feeProxy",
          "type": "address"
        },
        {
          "internalType": "contract IDefiController",
          "name": "_defiController",
          "type": "address"
        }
      ],
      "name": "initialize",
      "outputs": [],
      "stateMutability": "payable",
      "type": "function"
    },
    {
      "inputs": [
        {
          "internalType": "bytes32",
          "name": "_debridgeId",
          "type": "bytes32"
        },
        {
          "internalType": "address",
          "name": "_receiver",
          "type": "address"
        },
        {
          "internalType": "uint256",
          "name": "_amount",
          "type": "uint256"
        },
        {
          "internalType": "uint256",
          "name": "_nonce",
          "type": "uint256"
        }
      ],
      "name": "mint",
      "outputs": [],
      "stateMutability": "nonpayable",
      "type": "function"
    },
    {
      "inputs": [
        {
          "internalType": "bytes32",
          "name": "_debridgeId",
          "type": "bytes32"
        },
        {
          "internalType": "address",
          "name": "_receiver",
          "type": "address"
        },
        {
          "internalType": "uint256",
          "name": "_amount",
          "type": "uint256"
        },
        {
          "internalType": "uint256",
          "name": "_nonce",
          "type": "uint256"
        }
      ],
      "name": "claim",
      "outputs": [],
      "stateMutability": "nonpayable",
      "type": "function"
    },
    {
      "inputs": [
        {
          "internalType": "bytes32",
          "name": "_debridgeId",
          "type": "bytes32"
        },
        {
          "internalType": "uint256",
          "name": "_amount",
          "type": "uint256"
        }
      ],
      "name": "fundAggregator",
      "outputs": [],
      "stateMutability": "nonpayable",
      "type": "function"
    },
    {
      "inputs": [
        {
          "internalType": "contract IFeeProxy",
          "name": "_feeProxy",
          "type": "address"
        }
      ],
      "name": "setFeeProxy",
      "outputs": [],
      "stateMutability": "nonpayable",
      "type": "function"
    },
    {
      "inputs": [
        {
          "internalType": "contract IWETH",
          "name": "_weth",
          "type": "address"
        }
      ],
      "name": "setWeth",
      "outputs": [],
      "stateMutability": "nonpayable",
      "type": "function"
    }
  ],
  "bytecode": "0x608060405234801561001057600080fd5b50612bdb806100206000396000f3fe60806040526004361061021a5760003560e01c80636b063d6511610123578063b8d1452f116100ab578063d547741f1161006f578063d547741f146106e5578063e82637f614610705578063f8b2cb4f14610725578063f9120af614610745578063f9d82ea3146107655761021a565b8063b8d1452f14610645578063ba9f777614610665578063bc23a2c014610685578063be7f2184146106a5578063ce4aa247146106c55761021a565b806391d14854116100f257806391d14854146105ba5780639682b909146105da5780639a8a0592146105fa5780639e70290114610610578063a217fddf146106305761021a565b80636b063d651461053e57806383d3f95d146105515780638a2034cc14610571578063918f86741461059e5761021a565b806336568abe116101a657806357cf07ca1161017557806357cf07ca146103ff5780635bd5a95e146104a157806365ac9f78146104c157806366e1aef5146104f15780636834e3a8146105115761021a565b806336568abe1461037f5780633bd477211461039f5780633fc8cef3146103bf57806346144c8f146103df5761021a565b8063245a7bfc116101ed578063245a7bfc146102a9578063248a9ca3146102e157806325be0be11461031f5780632f2ff15d1461033f578063346a90741461035f5761021a565b806301ffc9a71461021f578063031ac613146102545780630a0e5e9a14610269578063106f432f14610289575b600080fd5b34801561022b57600080fd5b5061023f61023a3660046128f9565b610778565b60405190151581526020015b60405180910390f35b6102676102623660046127f5565b6107b1565b005b34801561027557600080fd5b50610267610284366004612890565b610a56565b34801561029557600080fd5b506102676102a4366004612622565b610b16565b3480156102b557600080fd5b506003546102c9906001600160a01b031681565b6040516001600160a01b03909116815260200161024b565b3480156102ed57600080fd5b506103116102fc366004612777565b60009081526020819052604090206001015490565b60405190815260200161024b565b34801561032b57600080fd5b5061026761033a366004612622565b610b5f565b34801561034b57600080fd5b5061026761035a36600461278f565b610ba8565b34801561036b57600080fd5b5061026761037a3660046127be565b610c37565b34801561038b57600080fd5b5061026761039a36600461278f565b610e80565b3480156103ab57600080fd5b506102676103ba3660046128c8565b610efa565b3480156103cb57600080fd5b506009546102c9906001600160a01b031681565b3480156103eb57600080fd5b506004546102c9906001600160a01b031681565b34801561040b57600080fd5b5061046261041a366004612777565b600560208190526000918252604090912080546001820154600283015460038401546004850154958501546006909501546001600160a01b0390941695929491939092919087565b604080516001600160a01b0390981688526020880196909652948601939093526060850191909152608084015260a083015260c082015260e00161024b565b3480156104ad57600080fd5b506102676104bc366004612831565b610f43565b3480156104cd57600080fd5b5061023f6104dc366004612777565b60066020526000908152604090205460ff1681565b3480156104fd57600080fd5b5061026761050c3660046127f5565b611253565b34801561051d57600080fd5b5061031161052c366004612622565b60076020526000908152604090205481565b61026761054c3660046126c5565b611334565b34801561055d57600080fd5b5061026761056c3660046127be565b6113d6565b34801561057d57600080fd5b5061059161058c366004612777565b61152e565b60405161024b91906129fa565b3480156105aa57600080fd5b50610311670de0b6b3a764000081565b3480156105c657600080fd5b5061023f6105d536600461278f565b611593565b3480156105e657600080fd5b506103116105f536600461278f565b6115bc565b34801561060657600080fd5b5061031160025481565b34801561061c57600080fd5b5061026761062b3660046127f5565b61160a565b34801561063c57600080fd5b50610311600081565b34801561065157600080fd5b50610267610660366004612622565b6116e3565b34801561067157600080fd5b506008546102c9906001600160a01b031681565b34801561069157600080fd5b506103116106a0366004612852565b61172c565b3480156106b157600080fd5b506102676106c03660046126c5565b611782565b3480156106d157600080fd5b506102676106e036600461263e565b611912565b3480156106f157600080fd5b5061026761070036600461278f565b611960565b34801561071157600080fd5b506102676107203660046126f0565b6119e0565b34801561073157600080fd5b50610311610740366004612622565b611a28565b34801561075157600080fd5b50610267610760366004612622565b611abd565b610267610773366004612939565b611b06565b60006001600160e01b03198216637965db0b60e01b14806107a957506301ffc9a760e01b6001600160e01b03198316145b90505b919050565b60008481526005602052604090206002546001820154146108125760405162461bcd60e51b815260206004820152601660248201527539b2b7321d103737ba103730ba34bb329031b430b4b760511b60448201526064015b60405180910390fd5b600082815260088201602052604090205460ff166108725760405162461bcd60e51b815260206004820152601860248201527f73656e643a2077726f6e672074617267656420636861696e00000000000000006044820152606401610809565b80600201548310156108bd5760405162461bcd60e51b815260206004820152601460248201527373656e643a20616d6f756e7420746f6f206c6f7760601b6044820152606401610809565b80546001600160a01b0316610918573483146109135760405162461bcd60e51b81526020600482015260156024820152740e6cadcc87440c2dadeeadce840dad2e6dac2e8c6d605b1b6044820152606401610809565b61092f565b805461092f906001600160a01b0316333086611c07565b6000670de0b6b3a764000082600301548561094a9190612ad6565b6109549190612ab6565b9050801561098357808260040160008282546109709190612a9e565b9091555061098090508185612af5565b93505b838260050160008282546109979190612a9e565b90915550506001600160a01b038516600090815260076020526040812054906109c28887898561172c565b60408051828152602081018b90529081018890526001600160a01b03891660608201526080810184905260a081018790529091507f17c61cb89b62a3f29f5b150e3489c7a796ac4dc95fd73af14faa2c8086a324b49060c00160405180910390a16001600160a01b0387166000908152600760205260408120805491610a4783612b38565b91905055505050505050505050565b610a61600033611593565b610a7d5760405162461bcd60e51b815260040161080990612a71565b600083815260056020908152604080832085845260088101909252909120805460ff19168315801591909117909155610ae257604051839085907fdd4dbf80f57aa5115a1e07abb36e4de565879d4de5bd15b3803d666fe1d8486390600090a3610b10565b604051839085907f86c512831f7a2aad3f56b4169c161be1028776ab950c72e26237a0310ded560690600090a35b50505050565b610b21600033611593565b610b3d5760405162461bcd60e51b815260040161080990612a71565b600480546001600160a01b0319166001600160a01b0392909216919091179055565b610b6a600033611593565b610b865760405162461bcd60e51b815260040161080990612a71565b600880546001600160a01b0319166001600160a01b0392909216919091179055565b600082815260208190526040902060010154610bc5905b336105d5565b610c295760405162461bcd60e51b815260206004820152602f60248201527f416363657373436f6e74726f6c3a2073656e646572206d75737420626520616e60448201526e0818591b5a5b881d1bc819dc985b9d608a1b6064820152608401610809565b610c338282611c72565b5050565b600083815260056020526040902060025460018201541415610c905760405162461bcd60e51b8152602060048201526012602482015271189d5c9b8e881b985d1a5d9948185cdcd95d60721b6044820152606401610809565b8060020154821015610cdb5760405162461bcd60e51b81526020600482015260146024820152736275726e3a20616d6f756e7420746f6f206c6f7760601b6044820152606401610809565b80546040516323b872dd60e01b8152336004820152306024820152604481018490526001600160a01b039091169081906323b872dd90606401602060405180830381600087803b158015610d2e57600080fd5b505af1158015610d42573d6000803e3d6000fd5b505050506040513d601f19601f82011682018060405250810190610d66919061275b565b50604051630852cd8d60e31b8152600481018490526001600160a01b038216906342966c6890602401600060405180830381600087803b158015610da957600080fd5b505af1158015610dbd573d6000803e3d6000fd5b5050506001600160a01b0385166000908152600760205260408120549150610de78786888561172c565b600185015460408051838152602081018b90529081018890526001600160a01b03891660608201526080810185905260a08101919091529091507fb8cc5195d548dc2781227c496b92d3736cd56d7f32b28971c9ae1e9eb0badf959060c00160405180910390a16001600160a01b0386166000908152600760205260408120805491610e7283612b38565b919050555050505050505050565b6001600160a01b0381163314610ef05760405162461bcd60e51b815260206004820152602f60248201527f416363657373436f6e74726f6c3a2063616e206f6e6c792072656e6f756e636560448201526e103937b632b9903337b91039b2b63360891b6064820152608401610809565b610c338282611cf6565b610f05600033611593565b610f215760405162461bcd60e51b815260040161080990612a71565b6000938452600560205260409093206002810192909255600382015560060155565b610f4e600033611593565b610f6a5760405162461bcd60e51b815260040161080990612a71565b6000828152600560205260409020600254600182015414610fd85760405162461bcd60e51b815260206004820152602260248201527f66756e6441676772656761746f723a2077726f6e67207461726765742063686160448201526134b760f11b6064820152608401610809565b818160040154101561102c5760405162461bcd60e51b815260206004820152601e60248201527f66756e6441676772656761746f723a206e6f7420656e6f7567682066656500006044820152606401610809565b818160040160008282546110409190612af5565b909155505080546001600160a01b03166111bf57600960009054906101000a90046001600160a01b03166001600160a01b031663d0e30db0836040518263ffffffff1660e01b81526004016000604051808303818588803b1580156110a457600080fd5b505af11580156110b8573d6000803e3d6000fd5b505060095460085460405163a9059cbb60e01b81526001600160a01b039182166004820152602481018890529116935063a9059cbb92506044019050602060405180830381600087803b15801561110e57600080fd5b505af1158015611122573d6000803e3d6000fd5b505050506040513d601f19601f82011682018060405250810190611146919061275b565b50600854600954600354604051631acd461560e31b81526001600160a01b03928316600482015260248101869052908216604482015291169063d66a30a890606401600060405180830381600087803b1580156111a257600080fd5b505af11580156111b6573d6000803e3d6000fd5b5050505061124e565b60085481546111db916001600160a01b03918216911684611d5b565b6008548154600354604051631acd461560e31b81526001600160a01b03928316600482015260248101869052908216604482015291169063d66a30a890606401600060405180830381600087803b15801561123557600080fd5b505af1158015611249573d6000803e3d6000fd5b505050505b505050565b60006112618584868561172c565b6003546040516314c3d9c360e31b8152600481018390529192506001600160a01b03169063a61ece189060240160206040518083038186803b1580156112a657600080fd5b505afa1580156112ba573d6000803e3d6000fd5b505050506040513d601f19601f820116820180604052508101906112de919061275b565b6113215760405162461bcd60e51b815260206004820152601460248201527318db185a5b4e881b9bdd0818dbdb999a5c9b595960621b6044820152606401610809565b61132d81868686611d8b565b5050505050565b6004546001600160a01b031633146113895760405162461bcd60e51b815260206004820152601860248201527764656669436f6e74726f6c6c65723a2062616420726f6c6560401b6044820152606401610809565b6000611397600254846115bc565b60008181526005602052604090208054919250906001600160a01b031615610b10576004548154610b10916001600160a01b0391821691163086611c07565b6113e1600033611593565b6113fd5760405162461bcd60e51b815260040161080990612a71565b60008381526005602052604090206002546001820154146114605760405162461bcd60e51b815260206004820152601f60248201527f77697468647261774665653a2077726f6e672074617267657420636861696e006044820152606401610809565b81816004015410156114b45760405162461bcd60e51b815260206004820152601b60248201527f77697468647261774665653a206e6f7420656e6f7567682066656500000000006044820152606401610809565b818160040160008282546114c89190612af5565b909155505080546001600160a01b0316611518576040516001600160a01b0384169083156108fc029084906000818181858888f19350505050158015611512573d6000803e3d6000fd5b50610b10565b8054610b10906001600160a01b03168484611d5b565b60008181526005602090815260409182902060070180548351818402810184019094528084526060939283018282801561158757602002820191906000526020600020905b815481526020019060010190808311611573575b50505050509050919050565b6000918252602082815260408084206001600160a01b0393909316845291905290205460ff1690565b600082826040516020016115ec92919091825260601b6bffffffffffffffffffffffff1916602082015260340190565b60405160208183030381529060405280519060200120905092915050565b60006116188584868561172c565b60035460405163a1e5c7b160e01b8152600481018390529192506001600160a01b03169063a1e5c7b19060240160206040518083038186803b15801561165d57600080fd5b505afa158015611671573d6000803e3d6000fd5b505050506040513d601f19601f82011682018060405250810190611695919061275b565b6116d75760405162461bcd60e51b81526020600482015260136024820152721b5a5b9d0e881b9bdd0818dbdb999a5c9b5959606a1b6044820152606401610809565b61132d81868686611f89565b6116ee600033611593565b61170a5760405162461bcd60e51b815260040161080990612a71565b600980546001600160a01b0319166001600160a01b0392909216919091179055565b6040805160208101869052908101849052606083811b6bffffffffffffffffffffffff19169082015260748101829052600090609401604051602081830303815290604052805190602001209050949350505050565b6004546001600160a01b031633146117d75760405162461bcd60e51b815260206004820152601860248201527764656669436f6e74726f6c6c65723a2062616420726f6c6560401b6044820152606401610809565b60006117e5600254846115bc565b6000818152600560208190526040822060068101549181015493945092670de0b6b3a76400009161181591612ad6565b61181f9190612ab6565b8254909150600090611839906001600160a01b0316611a28565b9050806118468684612a9e565b1161189f5760405162461bcd60e51b8152602060048201526024808201527f7265717565737452657365727665733a206e6f7420656e6f75676820726573656044820152637276657360e01b6064820152608401610809565b82546001600160a01b03166118ee576004546040516001600160a01b039091169086156108fc029087906000818181858888f193505050501580156118e8573d6000803e3d6000fd5b5061190a565b600454835461190a916001600160a01b03918216911687611d5b565b505050505050565b61191d600033611593565b6119395760405162461bcd60e51b815260040161080990612a71565b600061194586896115bc565b9050611956818888888888886120c3565b5050505050505050565b60008281526020819052604090206001015461197b90610bbf565b610ef05760405162461bcd60e51b815260206004820152603060248201527f416363657373436f6e74726f6c3a2073656e646572206d75737420626520616e60448201526f2061646d696e20746f207265766f6b6560801b6064820152608401610809565b6119eb600033611593565b611a075760405162461bcd60e51b815260040161080990612a71565b6000611a15600254876115bc565b905061190a8187600254888888886120c3565b60006001600160a01b038216611a3f5750476107ac565b6040516370a0823160e01b81523060048201526001600160a01b038316906370a082319060240160206040518083038186803b158015611a7e57600080fd5b505afa158015611a92573d6000803e3d6000fd5b505050506040513d601f19601f82011682018060405250810190611ab69190612921565b90506107ac565b611ac8600033611593565b611ae45760405162461bcd60e51b815260040161080990612a71565b600380546001600160a01b0319166001600160a01b0392909216919091179055565b600154610100900460ff1680611b1f575060015460ff16155b611b825760405162461bcd60e51b815260206004820152602e60248201527f496e697469616c697a61626c653a20636f6e747261637420697320616c72656160448201526d191e481a5b9a5d1a585b1a5e995960921b6064820152608401610809565b600154610100900460ff16158015611bac576001805460ff1961ff00199091166101001716811790555b611bba89898989898761220d565b600980546001600160a01b038087166001600160a01b03199283161790925560088054928616929091169190911790558015611bfc576001805461ff00191690555b505050505050505050565b6040516001600160a01b0380851660248301528316604482015260648101829052610b109085906323b872dd60e01b906084015b60408051601f198184030181529190526020810180516001600160e01b03166001600160e01b031990931692909217909152612264565b611c7c8282611593565b610c33576000828152602081815260408083206001600160a01b03851684529091529020805460ff19166001179055611cb23390565b6001600160a01b0316816001600160a01b0316837f2f8788117e7eff1d82e926ec794901d17c78024a50270940304540a733656f0d60405160405180910390a45050565b611d008282611593565b15610c33576000828152602081815260408083206001600160a01b0385168085529252808320805460ff1916905551339285917ff6391f5c32d9c69d2a47ea670b442974b53935d1edc7fd64eb21e047a839171b9190a45050565b6040516001600160a01b03831660248201526044810182905261124e90849063a9059cbb60e01b90606401611c3b565b6000838152600560205260409020600254600182015414611dee5760405162461bcd60e51b815260206004820152601960248201527f636c61696d3a2077726f6e672074617267657420636861696e000000000000006044820152606401610809565b60008581526006602052604090205460ff1615611e435760405162461bcd60e51b815260206004820152601360248201527218db185a5b4e88185b1c9958591e481d5cd959606a1b6044820152606401610809565b6000858152600660205260408120805460ff191660011790556003820154670de0b6b3a764000090611e759085612ad6565b611e7f9190612ab6565b905082826005016000828254611e959190612af5565b90915550508015611ec75780826004016000828254611eb49190612a9e565b90915550611ec490508184612af5565b92505b611ed18284612336565b81546001600160a01b0316611f1c576040516001600160a01b0385169084156108fc029085906000818181858888f19350505050158015611f16573d6000803e3d6000fd5b50611f32565b8154611f32906001600160a01b03168585611d5b565b60408051878152602081018590526001600160a01b038616818301526060810187905290517fabe3bed2a8590dd123c1a018888bce6142d526741bed65dfe570fb223525c6a49181900360800190a1505050505050565b60008481526006602052604090205460ff1615611fdd5760405162461bcd60e51b81526020600482015260126024820152711b5a5b9d0e88185b1c9958591e481d5cd95960721b6044820152606401610809565b6000838152600560209081526040808320878452600690925291829020805460ff19166001179055805491516340c10f1960e01b81526001600160a01b03858116600483015260248201859052919291909116906340c10f1990604401600060405180830381600087803b15801561205457600080fd5b505af1158015612068573d6000803e3d6000fd5b505060408051888152602081018690526001600160a01b038716818301526060810188905290517f5918a95fd00afb5898499bd5beade1619e98655d2b4ff6e0f6a4347f0a69c1279350908190036080019150a15050505050565b600087815260056020526040812080546001600160a01b0319166001600160a01b0389161781556001810187905560028101869055600381018590556006810184905590805b83518110156121b15783818151811061213257634e487b7160e01b600052603260045260246000fd5b60209081029190910181015160008181526008860183526040808220805460ff1916600190811790915560078801805491820181558352938220909301829055915190935083918c917fdd4dbf80f57aa5115a1e07abb36e4de565879d4de5bd15b3803d666fe1d848639190a3806121a981612b38565b915050612109565b50604080518781526020810187905290810185905287906001600160a01b038a16908b907ff6f4e2b9c6425dc5e0ebbec27bfdc06bece97c248400c189c656fe08259cd4659060600160405180910390a4505050505050505050565b466002819055600061221f82826115bc565b90506122338160006002548b8b8b8a6120c3565b600380546001600160a01b0319166001600160a01b0387811691909117909155600454169250611956600033610c29565b60006122b9826040518060400160405280602081526020017f5361666545524332303a206c6f772d6c6576656c2063616c6c206661696c6564815250856001600160a01b031661240b9092919063ffffffff16565b80519091501561124e57808060200190518101906122d7919061275b565b61124e5760405162461bcd60e51b815260206004820152602a60248201527f5361666545524332303a204552433230206f7065726174696f6e20646964206e6044820152691bdd081cdd58d8d9595960b21b6064820152608401610809565b6000670de0b6b3a7640000836006015484600501546123559190612ad6565b61235f9190612ab6565b8354909150600090612379906001600160a01b0316611a28565b9050600083831161238a578361238c565b825b90508181111561132d576123a08282612af5565b6004805487546040516309e62b9160e01b81526001600160a01b03918216938101939093526024830184905292935091909116906309e62b9190604401600060405180830381600087803b1580156123f757600080fd5b505af1158015611bfc573d6000803e3d6000fd5b606061241a8484600085612424565b90505b9392505050565b6060824710156124855760405162461bcd60e51b815260206004820152602660248201527f416464726573733a20696e73756666696369656e742062616c616e636520666f6044820152651c8818d85b1b60d21b6064820152608401610809565b843b6124d35760405162461bcd60e51b815260206004820152601d60248201527f416464726573733a2063616c6c20746f206e6f6e2d636f6e74726163740000006044820152606401610809565b600080866001600160a01b031685876040516124ef91906129de565b60006040518083038185875af1925050503d806000811461252c576040519150601f19603f3d011682016040523d82523d6000602084013e612531565b606091505b509150915061254182828661254c565b979650505050505050565b6060831561255b57508161241d565b82511561256b5782518084602001fd5b8160405162461bcd60e51b81526004016108099190612a3e565b600082601f830112612595578081fd5b8135602067ffffffffffffffff808311156125b2576125b2612b69565b818302604051601f19603f830116810181811084821117156125d6576125d6612b69565b604052848152838101925086840182880185018910156125f4578687fd5b8692505b858310156126165780358452928401926001929092019184016125f8565b50979650505050505050565b600060208284031215612633578081fd5b813561241d81612b7f565b600080600080600080600060e0888a031215612658578283fd5b873561266381612b7f565b9650602088013561267381612b7f565b955060408801359450606088013593506080880135925060a0880135915060c088013567ffffffffffffffff8111156126aa578182fd5b6126b68a828b01612585565b91505092959891949750929550565b600080604083850312156126d7578182fd5b82356126e281612b7f565b946020939093013593505050565b600080600080600060a08688031215612707578081fd5b853561271281612b7f565b9450602086013593506040860135925060608601359150608086013567ffffffffffffffff811115612742578182fd5b61274e88828901612585565b9150509295509295909350565b60006020828403121561276c578081fd5b815161241d81612b97565b600060208284031215612788578081fd5b5035919050565b600080604083850312156127a1578182fd5b8235915060208301356127b381612b7f565b809150509250929050565b6000806000606084860312156127d2578283fd5b8335925060208401356127e481612b7f565b929592945050506040919091013590565b6000806000806080858703121561280a578384fd5b84359350602085013561281c81612b7f565b93969395505050506040820135916060013590565b60008060408385031215612843578182fd5b50508035926020909101359150565b60008060008060808587031215612867578182fd5b8435935060208501359250604085013561288081612b7f565b9396929550929360600135925050565b6000806000606084860312156128a4578081fd5b833592506020840135915060408401356128bd81612b97565b809150509250925092565b600080600080608085870312156128dd578182fd5b5050823594602084013594506040840135936060013592509050565b60006020828403121561290a578081fd5b81356001600160e01b03198116811461241d578182fd5b600060208284031215612932578081fd5b5051919050565b600080600080600080600080610100898b031215612955578182fd5b883597506020890135965060408901359550606089013561297581612b7f565b9450608089013567ffffffffffffffff811115612990578283fd5b61299c8b828c01612585565b94505060a08901356129ad81612b7f565b925060c08901356129bd81612b7f565b915060e08901356129cd81612b7f565b809150509295985092959890939650565b600082516129f0818460208701612b0c565b9190910192915050565b6020808252825182820181905260009190848201906040850190845b81811015612a3257835183529284019291840191600101612a16565b50909695505050505050565b6000602082528251806020840152612a5d816040850160208701612b0c565b601f01601f19169190910160400192915050565b6020808252601390820152726f6e6c7941646d696e3a2062616420726f6c6560681b604082015260600190565b60008219821115612ab157612ab1612b53565b500190565b600082612ad157634e487b7160e01b81526012600452602481fd5b500490565b6000816000190483118215151615612af057612af0612b53565b500290565b600082821015612b0757612b07612b53565b500390565b60005b83811015612b27578181015183820152602001612b0f565b83811115610b105750506000910152565b6000600019821415612b4c57612b4c612b53565b5060010190565b634e487b7160e01b600052601160045260246000fd5b634e487b7160e01b600052604160045260246000fd5b6001600160a01b0381168114612b9457600080fd5b50565b8015158114612b9457600080fdfea2646970667358221220fe9057a61f9433bb0de698408c53f47b757c5e71be10f2548523f4043e87879f64736f6c63430008020033",
  "immutableReferences": {},
  "source": "// SPDX-License-Identifier: MIT\npragma solidity ^0.8.2;\n\nimport \"@openzeppelin/contracts/token/ERC20/ERC20.sol\";\nimport \"@openzeppelin/contracts/token/ERC20/IERC20.sol\";\nimport \"@openzeppelin/contracts/token/ERC20/utils/SafeERC20.sol\";\nimport \"@openzeppelin/contracts/access/AccessControl.sol\";\nimport \"../interfaces/IWhiteDebridge.sol\";\nimport \"../interfaces/IFeeProxy.sol\";\nimport \"../interfaces/IWETH.sol\";\nimport \"../interfaces/IWhiteFullDebridge.sol\";\nimport \"../interfaces/IDefiController.sol\";\nimport \"../interfaces/IWhiteAggregator.sol\";\nimport \"../periphery/WrappedAsset.sol\";\nimport \"./WhiteDebridge.sol\";\n\ncontract WhiteFullDebridge is WhiteDebridge, IWhiteFullDebridge {\n    using SafeERC20 for IERC20;\n\n    IFeeProxy public feeProxy; // proxy to convert the collected fees into Link's\n    IWETH public weth; // wrapped native token contract\n\n    /// @dev Constructor that initializes the most important configurations.\n    /// @param _minAmount Minimal amount of current chain token to be wrapped.\n    /// @param _transferFee Transfer fee rate.\n    /// @param _minReserves Minimal reserve ratio.\n    /// @param _aggregator Submission aggregator address.\n    /// @param _supportedChainIds Chain ids where native token of the current chain can be wrapped.\n    function initialize(\n        uint256 _minAmount,\n        uint256 _transferFee,\n        uint256 _minReserves,\n        address _aggregator,\n        uint256[] memory _supportedChainIds,\n        IWETH _weth,\n        IFeeProxy _feeProxy,\n        IDefiController _defiController\n    ) public payable initializer {\n        super._initialize(\n            _minAmount,\n            _transferFee,\n            _minReserves,\n            _aggregator,\n            _supportedChainIds,\n            _defiController\n        );\n        weth = _weth;\n        feeProxy = _feeProxy;\n    }\n\n    /// @dev Mints wrapped asset on the current chain.\n    /// @param _debridgeId Asset identifier.\n    /// @param _receiver Receiver address.\n    /// @param _amount Amount of the transfered asset (note: without applyed fee).\n    /// @param _nonce Submission id.\n    function mint(\n        bytes32 _debridgeId,\n        address _receiver,\n        uint256 _amount,\n        uint256 _nonce\n    ) external override {\n        bytes32 mintId =\n            getSubmisionId(_debridgeId, _amount, _receiver, _nonce);\n        require(\n            IWhiteAggregator(aggregator).isMintConfirmed(mintId),\n            \"mint: not confirmed\"\n        );\n        _mint(mintId, _debridgeId, _receiver, _amount);\n    }\n\n    /// @dev Unlock the asset on the current chain and transfer to receiver.\n    /// @param _debridgeId Asset identifier.\n    /// @param _receiver Receiver address.\n    /// @param _amount Amount of the transfered asset (note: the fee can be applyed).\n    /// @param _nonce Submission id.\n    function claim(\n        bytes32 _debridgeId,\n        address _receiver,\n        uint256 _amount,\n        uint256 _nonce\n    ) external override {\n        bytes32 burntId =\n            getSubmisionId(_debridgeId, _amount, _receiver, _nonce);\n        require(\n            IWhiteAggregator(aggregator).isBurntConfirmed(burntId),\n            \"claim: not confirmed\"\n        );\n        _claim(burntId, _debridgeId, _receiver, _amount);\n    }\n\n    /* ADMIN */\n\n    /// @dev Fund aggregator.\n    /// @param _debridgeId Asset identifier.\n    /// @param _amount Submission aggregator address.\n    function fundAggregator(bytes32 _debridgeId, uint256 _amount)\n        external\n        onlyAdmin()\n    {\n        DebridgeInfo storage debridge = getDebridge[_debridgeId];\n        require(\n            debridge.chainId == chainId,\n            \"fundAggregator: wrong target chain\"\n        );\n        require(\n            debridge.collectedFees >= _amount,\n            \"fundAggregator: not enough fee\"\n        );\n        debridge.collectedFees -= _amount;\n        if (debridge.tokenAddress == address(0)) {\n            weth.deposit{value: _amount}();\n            weth.transfer(address(feeProxy), _amount);\n            feeProxy.swapToLink(address(weth), _amount, aggregator);\n        } else {\n            IERC20(debridge.tokenAddress).safeTransfer(\n                address(feeProxy),\n                _amount\n            );\n            feeProxy.swapToLink(debridge.tokenAddress, _amount, aggregator);\n        }\n    }\n\n    /// @dev Set fee converter proxy.\n    /// @param _feeProxy Fee proxy address.\n    function setFeeProxy(IFeeProxy _feeProxy) external onlyAdmin() {\n        feeProxy = _feeProxy;\n    }\n\n    /// @dev Set wrapped native asset address.\n    /// @param _weth Weth address.\n    function setWeth(IWETH _weth) external onlyAdmin() {\n        weth = _weth;\n    }\n}\n",
  "sourcePath": "/Users/kstasi/Documents/side/debridge-contracts/contracts/transfers/WhiteFullDebridge.sol",
  "compiler": {
    "name": "solc",
    "version": "0.8.2+commit.661d1103.Emscripten.clang"
  },
  "schemaVersion": "3.3.4",
  "updatedAt": "2021-04-19T08:28:57.918Z",
  "networkType": "ethereum",
  "devdoc": {
    "kind": "dev",
    "methods": {
      "addExternalAsset(address,address,uint256,uint256,uint256,uint256,uint256[])": {
        "details": "Add support for the asset from the other chain, deploy new wrapped asset.",
        "params": {
          "_chainId": "Current chain id.",
          "_minAmount": "Minimal amount of the asset to be wrapped.",
          "_minReserves": "Minimal reserve ration.",
          "_supportedChainIds": "Chain ids where the token of the current chain can be transfered.",
          "_tokenAddress": "Address of the asset on the other chain.",
          "_transferFee": "Transfer fee rate.",
          "_wrappedAssetAddress": "Wrapped asset address."
        }
      },
      "addNativeAsset(address,uint256,uint256,uint256,uint256[])": {
        "details": "Add support for the asset on the current chain.",
        "params": {
          "_minAmount": "Minimal amount of current chain token to be wrapped.",
          "_minReserves": "Minimal reserve ration.",
          "_supportedChainIds": "Chain ids where native token of the current chain can be wrapped.",
          "_tokenAddress": "Address of the asset on the current chain.",
          "_transferFee": "Transfer fee rate."
        }
      },
      "burn(bytes32,address,uint256)": {
        "details": "Burns wrapped asset and allowss to claim it on the other chain.",
        "params": {
          "_amount": "Amount of the transfered asset (note: the fee can be applyed).",
          "_debridgeId": "Asset identifier.",
          "_receiver": "Receiver address."
        }
      },
      "claim(bytes32,address,uint256,uint256)": {
        "details": "Unlock the asset on the current chain and transfer to receiver.",
        "params": {
          "_amount": "Amount of the transfered asset (note: the fee can be applyed).",
          "_debridgeId": "Asset identifier.",
          "_nonce": "Submission id.",
          "_receiver": "Receiver address."
        }
      },
      "fundAggregator(bytes32,uint256)": {
        "details": "Fund aggregator.",
        "params": {
          "_amount": "Submission aggregator address.",
          "_debridgeId": "Asset identifier."
        }
      },
      "getBalance(address)": {
        "details": "Check the balance.",
        "params": {
          "_tokenAddress": "Address of the asset on the other chain."
        }
      },
      "getDebridgeId(uint256,address)": {
        "details": "Calculates asset identifier.",
        "params": {
          "_chainId": "Current chain id.",
          "_tokenAddress": "Address of the asset on the other chain."
        }
      },
      "getRoleAdmin(bytes32)": {
        "details": "Returns the admin role that controls `role`. See {grantRole} and {revokeRole}. To change a role's admin, use {_setRoleAdmin}."
      },
      "getSubmisionId(bytes32,uint256,address,uint256)": {
        "details": "Calculate submission id.",
        "params": {
          "_amount": "Amount of the transfered asset (note: the fee can be applyed).",
          "_debridgeId": "Asset identifier.",
          "_nonce": "Submission id.",
          "_receiver": "Receiver address."
        }
      },
      "getSupportedChainIds(bytes32)": {
        "details": "Get all supported chain ids.",
        "params": {
          "_debridgeId": "Asset identifier."
        }
      },
      "grantRole(bytes32,address)": {
        "details": "Grants `role` to `account`. If `account` had not been already granted `role`, emits a {RoleGranted} event. Requirements: - the caller must have ``role``'s admin role."
      },
      "hasRole(bytes32,address)": {
        "details": "Returns `true` if `account` has been granted `role`."
      },
      "initialize(uint256,uint256,uint256,address,uint256[],address,address,address)": {
        "details": "Constructor that initializes the most important configurations.",
        "params": {
          "_aggregator": "Submission aggregator address.",
          "_minAmount": "Minimal amount of current chain token to be wrapped.",
          "_minReserves": "Minimal reserve ratio.",
          "_supportedChainIds": "Chain ids where native token of the current chain can be wrapped.",
          "_transferFee": "Transfer fee rate."
        }
      },
      "mint(bytes32,address,uint256,uint256)": {
        "details": "Mints wrapped asset on the current chain.",
        "params": {
          "_amount": "Amount of the transfered asset (note: without applyed fee).",
          "_debridgeId": "Asset identifier.",
          "_nonce": "Submission id.",
          "_receiver": "Receiver address."
        }
      },
      "renounceRole(bytes32,address)": {
        "details": "Revokes `role` from the calling account. Roles are often managed via {grantRole} and {revokeRole}: this function's purpose is to provide a mechanism for accounts to lose their privileges if they are compromised (such as when a trusted device is misplaced). If the calling account had been granted `role`, emits a {RoleRevoked} event. Requirements: - the caller must be `account`."
      },
      "requestReserves(address,uint256)": {
        "details": "Request the assets to be used in defi protocol.",
        "params": {
          "_amount": "Amount of tokens to request.",
          "_tokenAddress": "Asset address."
        }
      },
      "returnReserves(address,uint256)": {
        "details": "Return the assets that were used in defi protocol.",
        "params": {
          "_amount": "Amount of tokens to claim.",
          "_tokenAddress": "Asset address."
        }
      },
      "revokeRole(bytes32,address)": {
        "details": "Revokes `role` from `account`. If `account` had been granted `role`, emits a {RoleRevoked} event. Requirements: - the caller must have ``role``'s admin role."
      },
      "send(bytes32,address,uint256,uint256)": {
        "details": "Locks asset on the chain and enables minting on the other chain.",
        "params": {
          "_amount": "Amount to be transfered (note: the fee can be applyed).",
          "_chainIdTo": "Chain id of the target chain.",
          "_debridgeId": "Asset identifier.",
          "_receiver": "Receiver address."
        }
      },
      "setAggregator(address)": {
        "details": "Set aggregator address.",
        "params": {
          "_aggregator": "Submission aggregator address."
        }
      },
      "setChainIdSupport(bytes32,uint256,bool)": {
        "details": "Set support for the chains where the token can be transfered.",
        "params": {
          "_chainId": "Current chain id.",
          "_debridgeId": "Asset identifier.",
          "_isSupported": "Whether the token is transferable to the other chain."
        }
      },
      "setDefiController(address)": {
        "details": "Set defi controoler.",
        "params": {
          "_defiController": "Defi controller address address."
        }
      },
      "setFeeProxy(address)": {
        "details": "Set fee converter proxy.",
        "params": {
          "_feeProxy": "Fee proxy address."
        }
      },
      "setWeth(address)": {
        "details": "Set wrapped native asset address.",
        "params": {
          "_weth": "Weth address."
        }
      },
      "supportsInterface(bytes4)": {
        "details": "See {IERC165-supportsInterface}."
      },
      "updateAsset(bytes32,uint256,uint256,uint256)": {
        "details": "Add support for the asset.",
        "params": {
          "_debridgeId": "Asset identifier.",
          "_minAmount": "Minimal amount of the asset to be wrapped.",
          "_minReserves": "Minimal reserve ration.",
          "_transferFee": "Transfer fee rate."
        }
      },
      "withdrawFee(bytes32,address,uint256)": {
        "details": "Withdraw fees.",
        "params": {
          "_amount": "Amount of tokens to withdraw.",
          "_debridgeId": "Asset identifier.",
          "_receiver": "Receiver address."
        }
      }
    },
    "version": 1
  },
  "userdoc": {
    "kind": "user",
    "methods": {},
    "version": 1
  }
}