{
  "contractName": "WhiteLightDebridge",
  "abi": [
    {
      "anonymous": false,
      "inputs": [
        {
          "indexed": false,
          "internalType": "bytes32",
          "name": "submissionId",
          "type": "bytes32"
        },
        {
          "indexed": false,
          "internalType": "bytes32",
          "name": "debridgeId",
          "type": "bytes32"
        },
        {
          "indexed": false,
          "internalType": "uint256",
          "name": "amount",
          "type": "uint256"
        },
        {
          "indexed": false,
          "internalType": "address",
          "name": "receiver",
          "type": "address"
        },
        {
          "indexed": false,
          "internalType": "uint256",
          "name": "nonce",
          "type": "uint256"
        },
        {
          "indexed": false,
          "internalType": "uint256",
          "name": "chainIdTo",
          "type": "uint256"
        },
        {
          "indexed": false,
          "internalType": "uint256",
          "name": "claimFee",
          "type": "uint256"
        },
        {
          "indexed": false,
          "internalType": "bytes",
          "name": "data",
          "type": "bytes"
        }
      ],
      "name": "AutoBurnt",
      "type": "event"
    },
    {
      "anonymous": false,
      "inputs": [
        {
          "indexed": false,
          "internalType": "bytes32",
          "name": "submissionId",
          "type": "bytes32"
        },
        {
          "indexed": false,
          "internalType": "bool",
          "name": "success",
          "type": "bool"
        }
      ],
      "name": "AutoRequestExecuted",
      "type": "event"
    },
    {
      "anonymous": false,
      "inputs": [
        {
          "indexed": false,
          "internalType": "bytes32",
          "name": "submissionId",
          "type": "bytes32"
        },
        {
          "indexed": false,
          "internalType": "bytes32",
          "name": "debridgeId",
          "type": "bytes32"
        },
        {
          "indexed": false,
          "internalType": "uint256",
          "name": "amount",
          "type": "uint256"
        },
        {
          "indexed": false,
          "internalType": "address",
          "name": "receiver",
          "type": "address"
        },
        {
          "indexed": false,
          "internalType": "uint256",
          "name": "nonce",
          "type": "uint256"
        },
        {
          "indexed": false,
          "internalType": "uint256",
          "name": "chainIdTo",
          "type": "uint256"
        },
        {
          "indexed": false,
          "internalType": "uint256",
          "name": "claimFee",
          "type": "uint256"
        },
        {
          "indexed": false,
          "internalType": "bytes",
          "name": "data",
          "type": "bytes"
        }
      ],
      "name": "AutoSent",
      "type": "event"
    },
    {
      "anonymous": false,
      "inputs": [
        {
          "indexed": false,
          "internalType": "bytes32",
          "name": "submissionId",
          "type": "bytes32"
        },
        {
          "indexed": false,
          "internalType": "bytes32",
          "name": "debridgeId",
          "type": "bytes32"
        },
        {
          "indexed": false,
          "internalType": "uint256",
          "name": "amount",
          "type": "uint256"
        },
        {
          "indexed": false,
          "internalType": "address",
          "name": "receiver",
          "type": "address"
        },
        {
          "indexed": false,
          "internalType": "uint256",
          "name": "nonce",
          "type": "uint256"
        },
        {
          "indexed": false,
          "internalType": "uint256",
          "name": "chainIdTo",
          "type": "uint256"
        }
      ],
      "name": "Burnt",
      "type": "event"
    },
    {
      "anonymous": false,
      "inputs": [
        {
          "indexed": false,
          "internalType": "address",
          "name": "callProxy",
          "type": "address"
        }
      ],
      "name": "CallProxyUpdated",
      "type": "event"
    },
    {
      "anonymous": false,
      "inputs": [
        {
          "indexed": true,
          "internalType": "bytes32",
          "name": "debridgeId",
          "type": "bytes32"
        },
        {
          "indexed": true,
          "internalType": "uint256",
          "name": "chainId",
          "type": "uint256"
        }
      ],
      "name": "ChainSupportAdded",
      "type": "event"
    },
    {
      "anonymous": false,
      "inputs": [
        {
          "indexed": true,
          "internalType": "bytes32",
          "name": "debridgeId",
          "type": "bytes32"
        },
        {
          "indexed": true,
          "internalType": "uint256",
          "name": "chainId",
          "type": "uint256"
        }
      ],
      "name": "ChainSupportRemoved",
      "type": "event"
    },
    {
      "anonymous": false,
      "inputs": [
        {
          "indexed": false,
          "internalType": "uint256[]",
          "name": "chainIds",
          "type": "uint256[]"
        }
      ],
      "name": "ChainsSupportUpdated",
      "type": "event"
    },
    {
      "anonymous": false,
      "inputs": [
        {
          "indexed": false,
          "internalType": "bytes32",
          "name": "submissionId",
          "type": "bytes32"
        },
        {
          "indexed": false,
          "internalType": "uint256",
          "name": "amount",
          "type": "uint256"
        },
        {
          "indexed": false,
          "internalType": "address",
          "name": "receiver",
          "type": "address"
        },
        {
          "indexed": false,
          "internalType": "bytes32",
          "name": "debridgeId",
          "type": "bytes32"
        }
      ],
      "name": "Claimed",
      "type": "event"
    },
    {
      "anonymous": false,
      "inputs": [
        {
          "indexed": false,
          "internalType": "bytes32",
          "name": "submissionId",
          "type": "bytes32"
        },
        {
          "indexed": false,
          "internalType": "uint256",
          "name": "amount",
          "type": "uint256"
        },
        {
          "indexed": false,
          "internalType": "address",
          "name": "receiver",
          "type": "address"
        },
        {
          "indexed": false,
          "internalType": "bytes32",
          "name": "debridgeId",
          "type": "bytes32"
        }
      ],
      "name": "Minted",
      "type": "event"
    },
    {
      "anonymous": false,
      "inputs": [
        {
          "indexed": true,
          "internalType": "bytes32",
          "name": "debridgeId",
          "type": "bytes32"
        },
        {
          "indexed": true,
          "internalType": "address",
          "name": "tokenAddress",
          "type": "address"
        },
        {
          "indexed": true,
          "internalType": "uint256",
          "name": "chainId",
          "type": "uint256"
        },
        {
          "indexed": false,
          "internalType": "uint256",
          "name": "minAmount",
          "type": "uint256"
        },
        {
          "indexed": false,
          "internalType": "uint256",
          "name": "minReserves",
          "type": "uint256"
        }
      ],
      "name": "PairAdded",
      "type": "event"
    },
    {
      "anonymous": false,
      "inputs": [
        {
          "indexed": false,
          "internalType": "address",
          "name": "account",
          "type": "address"
        }
      ],
      "name": "Paused",
      "type": "event"
    },
    {
      "anonymous": false,
      "inputs": [
        {
          "indexed": true,
          "internalType": "bytes32",
          "name": "role",
          "type": "bytes32"
        },
        {
          "indexed": true,
          "internalType": "bytes32",
          "name": "previousAdminRole",
          "type": "bytes32"
        },
        {
          "indexed": true,
          "internalType": "bytes32",
          "name": "newAdminRole",
          "type": "bytes32"
        }
      ],
      "name": "RoleAdminChanged",
      "type": "event"
    },
    {
      "anonymous": false,
      "inputs": [
        {
          "indexed": true,
          "internalType": "bytes32",
          "name": "role",
          "type": "bytes32"
        },
        {
          "indexed": true,
          "internalType": "address",
          "name": "account",
          "type": "address"
        },
        {
          "indexed": true,
          "internalType": "address",
          "name": "sender",
          "type": "address"
        }
      ],
      "name": "RoleGranted",
      "type": "event"
    },
    {
      "anonymous": false,
      "inputs": [
        {
          "indexed": true,
          "internalType": "bytes32",
          "name": "role",
          "type": "bytes32"
        },
        {
          "indexed": true,
          "internalType": "address",
          "name": "account",
          "type": "address"
        },
        {
          "indexed": true,
          "internalType": "address",
          "name": "sender",
          "type": "address"
        }
      ],
      "name": "RoleRevoked",
      "type": "event"
    },
    {
      "anonymous": false,
      "inputs": [
        {
          "indexed": false,
          "internalType": "bytes32",
          "name": "submissionId",
          "type": "bytes32"
        },
        {
          "indexed": false,
          "internalType": "bytes32",
          "name": "debridgeId",
          "type": "bytes32"
        },
        {
          "indexed": false,
          "internalType": "uint256",
          "name": "amount",
          "type": "uint256"
        },
        {
          "indexed": false,
          "internalType": "address",
          "name": "receiver",
          "type": "address"
        },
        {
          "indexed": false,
          "internalType": "uint256",
          "name": "nonce",
          "type": "uint256"
        },
        {
          "indexed": false,
          "internalType": "uint256",
          "name": "chainIdTo",
          "type": "uint256"
        }
      ],
      "name": "Sent",
      "type": "event"
    },
    {
      "anonymous": false,
      "inputs": [
        {
          "indexed": false,
          "internalType": "address",
          "name": "account",
          "type": "address"
        }
      ],
      "name": "Unpaused",
      "type": "event"
    },
    {
      "inputs": [],
      "name": "DEFAULT_ADMIN_ROLE",
      "outputs": [
        {
          "internalType": "bytes32",
          "name": "",
          "type": "bytes32"
        }
      ],
      "stateMutability": "view",
      "type": "function",
      "constant": true
    },
    {
      "inputs": [],
      "name": "DENOMINATOR",
      "outputs": [
        {
          "internalType": "uint256",
          "name": "",
          "type": "uint256"
        }
      ],
      "stateMutability": "view",
      "type": "function",
      "constant": true
    },
    {
      "inputs": [
        {
          "internalType": "address",
          "name": "_tokenAddress",
          "type": "address"
        },
        {
          "internalType": "address",
          "name": "_wrappedAssetAddress",
          "type": "address"
        },
        {
          "internalType": "uint256",
          "name": "_chainId",
          "type": "uint256"
        },
        {
          "internalType": "uint256",
          "name": "_minAmount",
          "type": "uint256"
        },
        {
          "internalType": "uint256",
          "name": "_maxAmount",
          "type": "uint256"
        },
        {
          "internalType": "uint256",
          "name": "_minReserves",
          "type": "uint256"
        },
        {
          "internalType": "uint256[]",
          "name": "_supportedChainIds",
          "type": "uint256[]"
        },
        {
          "components": [
            {
              "internalType": "bool",
              "name": "isSupported",
              "type": "bool"
            },
            {
              "internalType": "uint256",
              "name": "fixedFee",
              "type": "uint256"
            },
            {
              "internalType": "uint256",
              "name": "transferFee",
              "type": "uint256"
            }
          ],
          "internalType": "struct IWhiteDebridge.ChainSupportInfo[]",
          "name": "_chainSupportInfo",
          "type": "tuple[]"
        }
      ],
      "name": "addExternalAsset",
      "outputs": [],
      "stateMutability": "nonpayable",
      "type": "function"
    },
    {
      "inputs": [
        {
          "internalType": "address",
          "name": "_tokenAddress",
          "type": "address"
        },
        {
          "internalType": "uint256",
          "name": "_minAmount",
          "type": "uint256"
        },
        {
          "internalType": "uint256",
          "name": "_maxAmount",
          "type": "uint256"
        },
        {
          "internalType": "uint256",
          "name": "_minReserves",
          "type": "uint256"
        },
        {
          "internalType": "uint256[]",
          "name": "_supportedChainIds",
          "type": "uint256[]"
        },
        {
          "components": [
            {
              "internalType": "bool",
              "name": "isSupported",
              "type": "bool"
            },
            {
              "internalType": "uint256",
              "name": "fixedFee",
              "type": "uint256"
            },
            {
              "internalType": "uint256",
              "name": "transferFee",
              "type": "uint256"
            }
          ],
          "internalType": "struct IWhiteDebridge.ChainSupportInfo[]",
          "name": "_chainSupportInfo",
          "type": "tuple[]"
        }
      ],
      "name": "addNativeAsset",
      "outputs": [],
      "stateMutability": "nonpayable",
      "type": "function"
    },
    {
      "inputs": [],
      "name": "aggregator",
      "outputs": [
        {
          "internalType": "address",
          "name": "",
          "type": "address"
        }
      ],
      "stateMutability": "view",
      "type": "function",
      "constant": true
    },
    {
      "inputs": [],
      "name": "aggregatorVersion",
      "outputs": [
        {
          "internalType": "uint8",
          "name": "",
          "type": "uint8"
        }
      ],
      "stateMutability": "view",
      "type": "function",
      "constant": true
    },
    {
      "inputs": [
        {
          "internalType": "bytes32",
          "name": "_debridgeId",
          "type": "bytes32"
        },
        {
          "internalType": "address",
          "name": "_receiver",
          "type": "address"
        },
        {
          "internalType": "uint256",
          "name": "_amount",
          "type": "uint256"
        },
        {
          "internalType": "uint256",
          "name": "_chainIdTo",
          "type": "uint256"
        },
        {
          "internalType": "address",
          "name": "_fallbackAddress",
          "type": "address"
        },
        {
          "internalType": "uint256",
          "name": "_executionFee",
          "type": "uint256"
        },
        {
          "internalType": "bytes",
          "name": "_data",
          "type": "bytes"
        }
      ],
      "name": "autoBurn",
      "outputs": [],
      "stateMutability": "nonpayable",
      "type": "function"
    },
    {
      "inputs": [
        {
          "internalType": "bytes32",
          "name": "_debridgeId",
          "type": "bytes32"
        },
        {
          "internalType": "address",
          "name": "_receiver",
          "type": "address"
        },
        {
          "internalType": "uint256",
          "name": "_amount",
          "type": "uint256"
        },
        {
          "internalType": "uint256",
          "name": "_chainIdTo",
          "type": "uint256"
        },
        {
          "internalType": "address",
          "name": "_fallbackAddress",
          "type": "address"
        },
        {
          "internalType": "uint256",
          "name": "_executionFee",
          "type": "uint256"
        },
        {
          "internalType": "bytes",
          "name": "_data",
          "type": "bytes"
        }
      ],
      "name": "autoSend",
      "outputs": [],
      "stateMutability": "payable",
      "type": "function",
      "payable": true
    },
    {
      "inputs": [
        {
          "internalType": "bytes32",
          "name": "_debridgeId",
          "type": "bytes32"
        },
        {
          "internalType": "address",
          "name": "_receiver",
          "type": "address"
        },
        {
          "internalType": "uint256",
          "name": "_amount",
          "type": "uint256"
        },
        {
          "internalType": "uint256",
          "name": "_chainIdTo",
          "type": "uint256"
        }
      ],
      "name": "burn",
      "outputs": [],
      "stateMutability": "nonpayable",
      "type": "function"
    },
    {
      "inputs": [],
      "name": "callProxy",
      "outputs": [
        {
          "internalType": "address",
          "name": "",
          "type": "address"
        }
      ],
      "stateMutability": "view",
      "type": "function",
      "constant": true
    },
    {
      "inputs": [],
      "name": "chainId",
      "outputs": [
        {
          "internalType": "uint256",
          "name": "",
          "type": "uint256"
        }
      ],
      "stateMutability": "view",
      "type": "function",
      "constant": true
    },
    {
      "inputs": [
        {
          "internalType": "uint256",
          "name": "",
          "type": "uint256"
        }
      ],
      "name": "chainIds",
      "outputs": [
        {
          "internalType": "uint256",
          "name": "",
          "type": "uint256"
        }
      ],
      "stateMutability": "view",
      "type": "function",
      "constant": true
    },
    {
      "inputs": [],
      "name": "defiController",
      "outputs": [
        {
          "internalType": "contract IDefiController",
          "name": "",
          "type": "address"
        }
      ],
      "stateMutability": "view",
      "type": "function",
      "constant": true
    },
    {
      "inputs": [
        {
          "internalType": "bytes32",
          "name": "_debridgeId",
          "type": "bytes32"
        },
        {
          "internalType": "uint256",
          "name": "_chainIdFrom",
          "type": "uint256"
        },
        {
          "internalType": "uint256",
          "name": "_chainIdTo",
          "type": "uint256"
        },
        {
          "internalType": "uint256",
          "name": "_amount",
          "type": "uint256"
        },
        {
          "internalType": "address",
          "name": "_receiver",
          "type": "address"
        },
        {
          "internalType": "uint256",
          "name": "_nonce",
          "type": "uint256"
        },
        {
          "internalType": "address",
          "name": "_fallbackAddress",
          "type": "address"
        },
        {
          "internalType": "uint256",
          "name": "_executionFee",
          "type": "uint256"
        },
        {
          "internalType": "bytes",
          "name": "_data",
          "type": "bytes"
        }
      ],
      "name": "getAutoSubmisionId",
      "outputs": [
        {
          "internalType": "bytes32",
          "name": "",
          "type": "bytes32"
        }
      ],
      "stateMutability": "pure",
      "type": "function",
      "constant": true
    },
    {
      "inputs": [
        {
          "internalType": "address",
          "name": "_tokenAddress",
          "type": "address"
        }
      ],
      "name": "getBalance",
      "outputs": [
        {
          "internalType": "uint256",
          "name": "",
          "type": "uint256"
        }
      ],
      "stateMutability": "view",
      "type": "function",
      "constant": true
    },
    {
      "inputs": [
        {
          "internalType": "bytes32",
          "name": "_debridgeId",
          "type": "bytes32"
        },
        {
          "internalType": "uint256",
          "name": "_chainId",
          "type": "uint256"
        }
      ],
      "name": "getChainIdSupport",
      "outputs": [
        {
          "components": [
            {
              "internalType": "bool",
              "name": "isSupported",
              "type": "bool"
            },
            {
              "internalType": "uint256",
              "name": "fixedFee",
              "type": "uint256"
            },
            {
              "internalType": "uint256",
              "name": "transferFee",
              "type": "uint256"
            }
          ],
          "internalType": "struct IWhiteDebridge.ChainSupportInfo",
          "name": "",
          "type": "tuple"
        }
      ],
      "stateMutability": "view",
      "type": "function",
      "constant": true
    },
    {
      "inputs": [
        {
          "internalType": "bytes32",
          "name": "",
          "type": "bytes32"
        }
      ],
      "name": "getDebridge",
      "outputs": [
        {
          "internalType": "address",
          "name": "tokenAddress",
          "type": "address"
        },
        {
          "internalType": "uint256",
          "name": "chainId",
          "type": "uint256"
        },
        {
          "internalType": "uint256",
          "name": "minAmount",
          "type": "uint256"
        },
        {
          "internalType": "uint256",
          "name": "maxAmount",
          "type": "uint256"
        },
        {
          "internalType": "uint256",
          "name": "collectedFees",
          "type": "uint256"
        },
        {
          "internalType": "uint256",
          "name": "balance",
          "type": "uint256"
        },
        {
          "internalType": "uint256",
          "name": "minReserves",
          "type": "uint256"
        }
      ],
      "stateMutability": "view",
      "type": "function",
      "constant": true
    },
    {
      "inputs": [
        {
          "internalType": "uint256",
          "name": "_chainId",
          "type": "uint256"
        },
        {
          "internalType": "address",
          "name": "_tokenAddress",
          "type": "address"
        }
      ],
      "name": "getDebridgeId",
      "outputs": [
        {
          "internalType": "bytes32",
          "name": "",
          "type": "bytes32"
        }
      ],
      "stateMutability": "pure",
      "type": "function",
      "constant": true
    },
    {
      "inputs": [
        {
          "internalType": "uint8",
          "name": "",
          "type": "uint8"
        }
      ],
      "name": "getOldAggregator",
      "outputs": [
        {
          "internalType": "address",
          "name": "aggregator",
          "type": "address"
        },
        {
          "internalType": "bool",
          "name": "isValid",
          "type": "bool"
        }
      ],
      "stateMutability": "view",
      "type": "function",
      "constant": true
    },
    {
      "inputs": [
        {
          "internalType": "bytes32",
          "name": "role",
          "type": "bytes32"
        }
      ],
      "name": "getRoleAdmin",
      "outputs": [
        {
          "internalType": "bytes32",
          "name": "",
          "type": "bytes32"
        }
      ],
      "stateMutability": "view",
      "type": "function",
      "constant": true
    },
    {
      "inputs": [
        {
          "internalType": "bytes32",
          "name": "_debridgeId",
          "type": "bytes32"
        },
        {
          "internalType": "uint256",
          "name": "_chainIdFrom",
          "type": "uint256"
        },
        {
          "internalType": "uint256",
          "name": "_chainIdTo",
          "type": "uint256"
        },
        {
          "internalType": "uint256",
          "name": "_amount",
          "type": "uint256"
        },
        {
          "internalType": "address",
          "name": "_receiver",
          "type": "address"
        },
        {
          "internalType": "uint256",
          "name": "_nonce",
          "type": "uint256"
        }
      ],
      "name": "getSubmisionId",
      "outputs": [
        {
          "internalType": "bytes32",
          "name": "",
          "type": "bytes32"
        }
      ],
      "stateMutability": "pure",
      "type": "function",
      "constant": true
    },
    {
      "inputs": [
        {
          "internalType": "address",
          "name": "",
          "type": "address"
        }
      ],
      "name": "getUserNonce",
      "outputs": [
        {
          "internalType": "uint256",
          "name": "",
          "type": "uint256"
        }
      ],
      "stateMutability": "view",
      "type": "function",
      "constant": true
    },
    {
      "inputs": [
        {
          "internalType": "bytes32",
          "name": "role",
          "type": "bytes32"
        },
        {
          "internalType": "address",
          "name": "account",
          "type": "address"
        }
      ],
      "name": "grantRole",
      "outputs": [],
      "stateMutability": "nonpayable",
      "type": "function"
    },
    {
      "inputs": [
        {
          "internalType": "bytes32",
          "name": "role",
          "type": "bytes32"
        },
        {
          "internalType": "address",
          "name": "account",
          "type": "address"
        }
      ],
      "name": "hasRole",
      "outputs": [
        {
          "internalType": "bool",
          "name": "",
          "type": "bool"
        }
      ],
      "stateMutability": "view",
      "type": "function",
      "constant": true
    },
    {
      "inputs": [
        {
          "internalType": "bytes32",
          "name": "",
          "type": "bytes32"
        }
      ],
      "name": "isSubmissionUsed",
      "outputs": [
        {
          "internalType": "bool",
          "name": "",
          "type": "bool"
        }
      ],
      "stateMutability": "view",
      "type": "function",
      "constant": true
    },
    {
      "inputs": [
        {
          "internalType": "uint8",
          "name": "_aggregatorVersion",
          "type": "uint8"
        },
        {
          "internalType": "bool",
          "name": "_isValid",
          "type": "bool"
        }
      ],
      "name": "manageOldAggregator",
      "outputs": [],
      "stateMutability": "nonpayable",
      "type": "function"
    },
    {
      "inputs": [],
      "name": "pause",
      "outputs": [],
      "stateMutability": "nonpayable",
      "type": "function"
    },
    {
      "inputs": [],
      "name": "paused",
      "outputs": [
        {
          "internalType": "bool",
          "name": "",
          "type": "bool"
        }
      ],
      "stateMutability": "view",
      "type": "function",
      "constant": true
    },
    {
      "inputs": [
        {
          "internalType": "bytes32",
          "name": "role",
          "type": "bytes32"
        },
        {
          "internalType": "address",
          "name": "account",
          "type": "address"
        }
      ],
      "name": "renounceRole",
      "outputs": [],
      "stateMutability": "nonpayable",
      "type": "function"
    },
    {
      "inputs": [
        {
          "internalType": "address",
          "name": "_tokenAddress",
          "type": "address"
        },
        {
          "internalType": "uint256",
          "name": "_amount",
          "type": "uint256"
        }
      ],
      "name": "requestReserves",
      "outputs": [],
      "stateMutability": "nonpayable",
      "type": "function"
    },
    {
      "inputs": [
        {
          "internalType": "address",
          "name": "_tokenAddress",
          "type": "address"
        },
        {
          "internalType": "uint256",
          "name": "_amount",
          "type": "uint256"
        }
      ],
      "name": "returnReserves",
      "outputs": [],
      "stateMutability": "payable",
      "type": "function",
      "payable": true
    },
    {
      "inputs": [
        {
          "internalType": "bytes32",
          "name": "role",
          "type": "bytes32"
        },
        {
          "internalType": "address",
          "name": "account",
          "type": "address"
        }
      ],
      "name": "revokeRole",
      "outputs": [],
      "stateMutability": "nonpayable",
      "type": "function"
    },
    {
      "inputs": [
        {
          "internalType": "bytes32",
          "name": "_debridgeId",
          "type": "bytes32"
        },
        {
          "internalType": "address",
          "name": "_receiver",
          "type": "address"
        },
        {
          "internalType": "uint256",
          "name": "_amount",
          "type": "uint256"
        },
        {
          "internalType": "uint256",
          "name": "_chainIdTo",
          "type": "uint256"
        }
      ],
      "name": "send",
      "outputs": [],
      "stateMutability": "payable",
      "type": "function",
      "payable": true
    },
    {
      "inputs": [
        {
          "internalType": "address",
          "name": "_aggregator",
          "type": "address"
        }
      ],
      "name": "setAggregator",
      "outputs": [],
      "stateMutability": "nonpayable",
      "type": "function"
    },
    {
      "inputs": [
        {
          "internalType": "address",
          "name": "_callProxy",
          "type": "address"
        }
      ],
      "name": "setCallProxy",
      "outputs": [],
      "stateMutability": "nonpayable",
      "type": "function"
    },
    {
      "inputs": [
        {
          "internalType": "bytes32",
          "name": "_debridgeId",
          "type": "bytes32"
        },
        {
          "internalType": "uint256",
          "name": "_chainId",
          "type": "uint256"
        },
        {
          "internalType": "bool",
          "name": "_isSupported",
          "type": "bool"
        }
      ],
      "name": "setChainIdSupport",
      "outputs": [],
      "stateMutability": "nonpayable",
      "type": "function"
    },
    {
      "inputs": [
        {
          "internalType": "uint256[]",
          "name": "_chainIds",
          "type": "uint256[]"
        }
      ],
      "name": "setChainIds",
      "outputs": [],
      "stateMutability": "nonpayable",
      "type": "function"
    },
    {
      "inputs": [
        {
          "internalType": "contract IDefiController",
          "name": "_defiController",
          "type": "address"
        }
      ],
      "name": "setDefiController",
      "outputs": [],
      "stateMutability": "nonpayable",
      "type": "function"
    },
    {
      "inputs": [
        {
          "internalType": "bytes4",
          "name": "interfaceId",
          "type": "bytes4"
        }
      ],
      "name": "supportsInterface",
      "outputs": [
        {
          "internalType": "bool",
          "name": "",
          "type": "bool"
        }
      ],
      "stateMutability": "view",
      "type": "function",
      "constant": true
    },
    {
      "inputs": [],
      "name": "unpause",
      "outputs": [],
      "stateMutability": "nonpayable",
      "type": "function"
    },
    {
      "inputs": [
        {
          "internalType": "bytes32",
          "name": "_debridgeId",
          "type": "bytes32"
        },
        {
          "internalType": "uint256",
          "name": "_minAmount",
          "type": "uint256"
        },
        {
          "internalType": "uint256",
          "name": "_maxAmount",
          "type": "uint256"
        },
        {
          "internalType": "uint256",
          "name": "_minReserves",
          "type": "uint256"
        }
      ],
      "name": "updateAsset",
      "outputs": [],
      "stateMutability": "nonpayable",
      "type": "function"
    },
    {
      "inputs": [
        {
          "internalType": "bytes32",
          "name": "_debridgeId",
          "type": "bytes32"
        },
        {
          "internalType": "uint256[]",
          "name": "_supportedChainIds",
          "type": "uint256[]"
        },
        {
          "components": [
            {
              "internalType": "bool",
              "name": "isSupported",
              "type": "bool"
            },
            {
              "internalType": "uint256",
              "name": "fixedFee",
              "type": "uint256"
            },
            {
              "internalType": "uint256",
              "name": "transferFee",
              "type": "uint256"
            }
          ],
          "internalType": "struct IWhiteDebridge.ChainSupportInfo[]",
          "name": "_chainSupportInfo",
          "type": "tuple[]"
        }
      ],
      "name": "updateAsset",
      "outputs": [],
      "stateMutability": "nonpayable",
      "type": "function"
    },
    {
      "inputs": [
        {
          "internalType": "bytes32",
          "name": "_debridgeId",
          "type": "bytes32"
        },
        {
          "internalType": "address",
          "name": "_receiver",
          "type": "address"
        },
        {
          "internalType": "uint256",
          "name": "_amount",
          "type": "uint256"
        }
      ],
      "name": "withdrawFee",
      "outputs": [],
      "stateMutability": "nonpayable",
      "type": "function"
    },
    {
      "inputs": [
        {
          "internalType": "uint256",
          "name": "_minAmount",
          "type": "uint256"
        },
        {
          "internalType": "uint256",
          "name": "_maxAmount",
          "type": "uint256"
        },
        {
          "internalType": "uint256",
          "name": "_minReserves",
          "type": "uint256"
        },
        {
          "internalType": "address",
          "name": "_aggregator",
          "type": "address"
        },
        {
          "internalType": "address",
          "name": "_callProxy",
          "type": "address"
        },
        {
          "internalType": "uint256[]",
          "name": "_supportedChainIds",
          "type": "uint256[]"
        },
        {
          "components": [
            {
              "internalType": "bool",
              "name": "isSupported",
              "type": "bool"
            },
            {
              "internalType": "uint256",
              "name": "fixedFee",
              "type": "uint256"
            },
            {
              "internalType": "uint256",
              "name": "transferFee",
              "type": "uint256"
            }
          ],
          "internalType": "struct IWhiteDebridge.ChainSupportInfo[]",
          "name": "_chainSupportInfo",
          "type": "tuple[]"
        },
        {
          "internalType": "contract IDefiController",
          "name": "_defiController",
          "type": "address"
        }
      ],
      "name": "initialize",
      "outputs": [],
      "stateMutability": "payable",
      "type": "function",
      "payable": true
    },
    {
      "inputs": [
        {
          "internalType": "bytes32",
          "name": "_debridgeId",
          "type": "bytes32"
        },
        {
          "internalType": "uint256",
          "name": "_chainIdFrom",
          "type": "uint256"
        },
        {
          "internalType": "address",
          "name": "_receiver",
          "type": "address"
        },
        {
          "internalType": "uint256",
          "name": "_amount",
          "type": "uint256"
        },
        {
          "internalType": "uint256",
          "name": "_nonce",
          "type": "uint256"
        },
        {
          "internalType": "bytes[]",
          "name": "_signatures",
          "type": "bytes[]"
        },
        {
          "internalType": "address",
          "name": "_fallbackAddress",
          "type": "address"
        },
        {
          "internalType": "uint256",
          "name": "_executionFee",
          "type": "uint256"
        },
        {
          "internalType": "bytes",
          "name": "_data",
          "type": "bytes"
        }
      ],
      "name": "autoMint",
      "outputs": [],
      "stateMutability": "nonpayable",
      "type": "function"
    },
    {
      "inputs": [
        {
          "internalType": "bytes32",
          "name": "_debridgeId",
          "type": "bytes32"
        },
        {
          "internalType": "uint256",
          "name": "_chainIdFrom",
          "type": "uint256"
        },
        {
          "internalType": "address",
          "name": "_receiver",
          "type": "address"
        },
        {
          "internalType": "uint256",
          "name": "_amount",
          "type": "uint256"
        },
        {
          "internalType": "uint256",
          "name": "_nonce",
          "type": "uint256"
        },
        {
          "internalType": "bytes[]",
          "name": "_signatures",
          "type": "bytes[]"
        },
        {
          "internalType": "address",
          "name": "_fallbackAddress",
          "type": "address"
        },
        {
          "internalType": "uint256",
          "name": "_executionFee",
          "type": "uint256"
        },
        {
          "internalType": "bytes",
          "name": "_data",
          "type": "bytes"
        },
        {
          "internalType": "uint8",
          "name": "_aggregatorVersion",
          "type": "uint8"
        }
      ],
      "name": "autoMintWithOldAggregator",
      "outputs": [],
      "stateMutability": "nonpayable",
      "type": "function"
    },
    {
      "inputs": [
        {
          "internalType": "bytes32",
          "name": "_debridgeId",
          "type": "bytes32"
        },
        {
          "internalType": "uint256",
          "name": "_chainIdFrom",
          "type": "uint256"
        },
        {
          "internalType": "address",
          "name": "_receiver",
          "type": "address"
        },
        {
          "internalType": "uint256",
          "name": "_amount",
          "type": "uint256"
        },
        {
          "internalType": "uint256",
          "name": "_nonce",
          "type": "uint256"
        },
        {
          "internalType": "bytes[]",
          "name": "_signatures",
          "type": "bytes[]"
        }
      ],
      "name": "mint",
      "outputs": [],
      "stateMutability": "nonpayable",
      "type": "function"
    },
    {
      "inputs": [
        {
          "internalType": "bytes32",
          "name": "_debridgeId",
          "type": "bytes32"
        },
        {
          "internalType": "uint256",
          "name": "_chainIdFrom",
          "type": "uint256"
        },
        {
          "internalType": "address",
          "name": "_receiver",
          "type": "address"
        },
        {
          "internalType": "uint256",
          "name": "_amount",
          "type": "uint256"
        },
        {
          "internalType": "uint256",
          "name": "_nonce",
          "type": "uint256"
        },
        {
          "internalType": "bytes[]",
          "name": "_signatures",
          "type": "bytes[]"
        },
        {
          "internalType": "uint8",
          "name": "_aggregatorVersion",
          "type": "uint8"
        }
      ],
      "name": "mintWithOldAggregator",
      "outputs": [],
      "stateMutability": "nonpayable",
      "type": "function"
    },
    {
      "inputs": [
        {
          "internalType": "bytes32",
          "name": "_debridgeId",
          "type": "bytes32"
        },
        {
          "internalType": "uint256",
          "name": "_chainIdFrom",
          "type": "uint256"
        },
        {
          "internalType": "address",
          "name": "_receiver",
          "type": "address"
        },
        {
          "internalType": "uint256",
          "name": "_amount",
          "type": "uint256"
        },
        {
          "internalType": "uint256",
          "name": "_nonce",
          "type": "uint256"
        },
        {
          "internalType": "bytes[]",
          "name": "_signatures",
          "type": "bytes[]"
        }
      ],
      "name": "claim",
      "outputs": [],
      "stateMutability": "nonpayable",
      "type": "function"
    },
    {
      "inputs": [
        {
          "internalType": "bytes32",
          "name": "_debridgeId",
          "type": "bytes32"
        },
        {
          "internalType": "uint256",
          "name": "_chainIdFrom",
          "type": "uint256"
        },
        {
          "internalType": "address",
          "name": "_receiver",
          "type": "address"
        },
        {
          "internalType": "uint256",
          "name": "_amount",
          "type": "uint256"
        },
        {
          "internalType": "uint256",
          "name": "_nonce",
          "type": "uint256"
        },
        {
          "internalType": "bytes[]",
          "name": "_signatures",
          "type": "bytes[]"
        },
        {
          "internalType": "address",
          "name": "_fallbackAddress",
          "type": "address"
        },
        {
          "internalType": "uint256",
          "name": "_executionFee",
          "type": "uint256"
        },
        {
          "internalType": "bytes",
          "name": "_data",
          "type": "bytes"
        }
      ],
      "name": "autoClaim",
      "outputs": [],
      "stateMutability": "nonpayable",
      "type": "function"
    },
    {
      "inputs": [
        {
          "internalType": "bytes32",
          "name": "_debridgeId",
          "type": "bytes32"
        },
        {
          "internalType": "uint256",
          "name": "_chainIdFrom",
          "type": "uint256"
        },
        {
          "internalType": "address",
          "name": "_receiver",
          "type": "address"
        },
        {
          "internalType": "uint256",
          "name": "_amount",
          "type": "uint256"
        },
        {
          "internalType": "uint256",
          "name": "_nonce",
          "type": "uint256"
        },
        {
          "internalType": "bytes[]",
          "name": "_signatures",
          "type": "bytes[]"
        },
        {
          "internalType": "address",
          "name": "_fallbackAddress",
          "type": "address"
        },
        {
          "internalType": "uint256",
          "name": "_executionFee",
          "type": "uint256"
        },
        {
          "internalType": "bytes",
          "name": "_data",
          "type": "bytes"
        },
        {
          "internalType": "uint8",
          "name": "_aggregatorVersion",
          "type": "uint8"
        }
      ],
      "name": "autoClaimWithOldAggregator",
      "outputs": [],
      "stateMutability": "nonpayable",
      "type": "function"
    },
    {
      "inputs": [
        {
          "internalType": "bytes32",
          "name": "_debridgeId",
          "type": "bytes32"
        },
        {
          "internalType": "uint256",
          "name": "_chainIdFrom",
          "type": "uint256"
        },
        {
          "internalType": "address",
          "name": "_receiver",
          "type": "address"
        },
        {
          "internalType": "uint256",
          "name": "_amount",
          "type": "uint256"
        },
        {
          "internalType": "uint256",
          "name": "_nonce",
          "type": "uint256"
        },
        {
          "internalType": "bytes[]",
          "name": "_signatures",
          "type": "bytes[]"
        },
        {
          "internalType": "uint8",
          "name": "_aggregatorVersion",
          "type": "uint8"
        }
      ],
      "name": "claimWithOldAggregator",
      "outputs": [],
      "stateMutability": "nonpayable",
      "type": "function"
    }
  ],
  "bytecode": "0x608060405234801561001057600080fd5b50614aea806100206000396000f3fe6080604052600436106102ff5760003560e01c806376d8e49d11610190578063bf3d7341116100dc578063e3024c1511610095578063f30d9ea41161006f578063f30d9ea414610a03578063f8b2cb4f14610a23578063f9120af614610a43578063f9e032c414610a63576102ff565b8063e3024c15146109a3578063e562904d146109c3578063f00966ec146109e3576102ff565b8063bf3d7341146108ac578063d1e39513146108cc578063d311f65614610910578063d547741f14610943578063d8339b7e14610963578063d9deec4d14610983576102ff565b806391d1485411610149578063a217fddf11610123578063a217fddf14610837578063a867566c1461084c578063b4ccbfd31461086c578063be7f21841461088c576102ff565b806391d14854146107e15780639682b909146108015780639a8a059214610821576102ff565b806376d8e49d146107095780637d2112871461071c57806383d3f95d1461072f578063841b162b1461074f5780638456cb59146107b0578063918f8674146107c5576102ff565b80633bd477211161024f57806357cf07ca1161020857806365ac9f78116101e257806365ac9f78146106795780636834e3a8146106a95780636b063d65146106d65780636b7cbb69146106e9576102ff565b806357cf07ca14610599578063598a2a4f1461063a5780635c975abb1461065a576102ff565b80633bd47721146104e45780633f4ba83a1461050457806340768e1f146105195780634219b07d1461053957806346144c8f146105595780635352e98314610579576102ff565b8063245a7bfc116102bc5780632da688ac116102965780632da688ac146104645780632f2ff15d1461048457806334497b09146104a457806336568abe146104c4576102ff565b8063245a7bfc146103dc578063248a9ca3146104145780632b0d0a8b14610444576102ff565b806301ffc9a714610304578063031ac613146103395780630a0e5e9a1461034e5780630c71531d1461036e578063106f432f1461038e57806321d93090146103ae575b600080fd5b34801561031057600080fd5b5061032461031f366004614419565b610a83565b60405190151581526020015b60405180910390f35b61034c610347366004613ee6565b610abc565b005b34801561035a57600080fd5b5061034c6103693660046142c2565b610bc1565b34801561037a57600080fd5b5061034c610389366004614032565b610c80565b34801561039a57600080fd5b5061034c6103a9366004613c99565b610d69565b3480156103ba57600080fd5b506103ce6103c9366004613e68565b610db2565b604051908152602001610330565b3480156103e857600080fd5b506003546103fc906001600160a01b031681565b6040516001600160a01b039091168152602001610330565b34801561042057600080fd5b506103ce61042f366004613e68565b60009081526020819052604090206001015490565b34801561045057600080fd5b5061034c61045f366004613c99565b610dd3565b34801561047057600080fd5b506004546103fc906001600160a01b031681565b34801561049057600080fd5b5061034c61049f366004613e80565b610e4f565b3480156104b057600080fd5b5061034c6104bf366004614032565b610ede565b3480156104d057600080fd5b5061034c6104df366004613e80565b610fbd565b3480156104f057600080fd5b5061034c6104ff3660046142fa565b611037565b34801561051057600080fd5b5061034c611080565b34801561052557600080fd5b5061034c610534366004614238565b611106565b34801561054557600080fd5b5061034c610554366004613d8c565b61124c565b34801561056557600080fd5b506006546103fc906001600160a01b031681565b34801561058557600080fd5b5061034c610594366004613ee6565b61129e565b3480156105a557600080fd5b506105fb6105b4366004613e68565b60076020526000908152604090208054600182015460028301546003840154600485015460058601546006909601546001600160a01b039095169593949293919290919087565b604080516001600160a01b0390981688526020880196909652948601939093526060850191909152608084015260a083015260c082015260e001610330565b34801561064657600080fd5b5061034c61065536600461416a565b611365565b34801561066657600080fd5b5061032460015462010000900460ff1690565b34801561068557600080fd5b50610324610694366004613e68565b60086020526000908152604090205460ff1681565b3480156106b557600080fd5b506103ce6106c4366004613c99565b60096020526000908152604090205481565b61034c6106e4366004613d61565b611496565b3480156106f557600080fd5b5061034c61070436600461452a565b611538565b61034c610717366004613f22565b6115fb565b61034c61072a366004614459565b611783565b34801561073b57600080fd5b5061034c61074a366004613eaf565b611856565b34801561075b57600080fd5b5061079161076a366004614510565b600a602052600090815260409020546001600160a01b03811690600160a01b900460ff1682565b604080516001600160a01b039093168352901515602083015201610330565b3480156107bc57600080fd5b5061034c61196c565b3480156107d157600080fd5b506103ce670de0b6b3a764000081565b3480156107ed57600080fd5b506103246107fc366004613e80565b6119ca565b34801561080d57600080fd5b506103ce61081c366004613e80565b6119f3565b34801561082d57600080fd5b506103ce60025481565b34801561084357600080fd5b506103ce600081565b34801561085857600080fd5b5061034c6108673660046140ac565b611a41565b34801561087857600080fd5b5061034c610887366004613fa8565b611b15565b34801561089857600080fd5b5061034c6108a7366004613d61565b611bfb565b3480156108b857600080fd5b506103ce6108c736600461432b565b611d8b565b3480156108d857600080fd5b506108ec6108e7366004614011565b611de9565b60408051825115158152602080840151908201529181015190820152606001610330565b34801561091c57600080fd5b5060045461093190600160a01b900460ff1681565b60405160ff9091168152602001610330565b34801561094f57600080fd5b5061034c61095e366004613e80565b611e56565b34801561096f57600080fd5b5061034c61097e366004613cb5565b611ed6565b34801561098f57600080fd5b5061034c61099e3660046140ac565b611f1b565b3480156109af57600080fd5b5061034c6109be366004613f22565b611fe2565b3480156109cf57600080fd5b5061034c6109de366004613e1a565b61212e565b3480156109ef57600080fd5b5061034c6109fe36600461416a565b612198565b348015610a0f57600080fd5b5061034c610a1e366004614238565b6122ba565b348015610a2f57600080fd5b506103ce610a3e366004613c99565b6123f4565b348015610a4f57600080fd5b5061034c610a5e366004613c99565b612489565b348015610a6f57600080fd5b506103ce610a7e36600461437f565b612559565b60006001600160e01b03198216637965db0b60e01b1480610ab457506301ffc9a760e01b6001600160e01b03198316145b90505b919050565b610ace60015462010000900460ff1690565b15610af45760405162461bcd60e51b8152600401610aeb9061486d565b60405180910390fd5b610aff8483836125a1565b6001600160a01b03841660009081526009602052604081205460025492945091610b2e90879085878987611d8b565b60408051828152602081018990529081018690526001600160a01b03871660608201526080810184905260a081018590529091507f17c61cb89b62a3f29f5b150e3489c7a796ac4dc95fd73af14faa2c8086a324b49060c0015b60405180910390a16001600160a01b0385166000908152600960205260408120805491610bb483614a27565b9190505550505050505050565b610bcc6000336119ca565b610be85760405162461bcd60e51b8152600401610aeb90614897565b6000838152600760208181526040808420868552928301909152909120805460ff19168315801591909117909155610c4c57604051839085907fdd4dbf80f57aa5115a1e07abb36e4de565879d4de5bd15b3803d666fe1d8486390600090a3610c7a565b604051839085907f86c512831f7a2aad3f56b4169c161be1028776ab950c72e26237a0310ded560690600090a35b50505050565b6000610c928888600254888a89611d8b565b60035460405163f91aa31760e01b81529192506001600160a01b03169063f91aa31790610cc7908490879087906004016146ee565b602060405180830381600087803b158015610ce157600080fd5b505af1158015610cf5573d6000803e3d6000fd5b505050506040513d601f19601f82011682018060405250810190610d199190613e4c565b610d355760405162461bcd60e51b8152600401610aeb9061483f565b610d5f8189888860008060405180604001604052806002815260200161060f60f31b815250612866565b5050505050505050565b610d746000336119ca565b610d905760405162461bcd60e51b8152600401610aeb90614897565b600680546001600160a01b0319166001600160a01b0392909216919091179055565b60058181548110610dc257600080fd5b600091825260209091200154905081565b610dde6000336119ca565b610dfa5760405162461bcd60e51b8152600401610aeb90614897565b600480546001600160a01b0319166001600160a01b0383169081179091556040519081527fa9543b36462a5e2c2259a14d72a8bd4e2342eaf9d7c828e9fb86921b3aa3eb5f906020015b60405180910390a150565b600082815260208190526040902060010154610e6c905b336107fc565b610ed05760405162461bcd60e51b815260206004820152602f60248201527f416363657373436f6e74726f6c3a2073656e646572206d75737420626520616e60448201526e0818591b5a5b881d1bc819dc985b9d608a1b6064820152608401610aeb565b610eda8282612c24565b5050565b6000610ef08888600254888a89611d8b565b60035460405163f91aa31760e01b81529192506001600160a01b03169063f91aa31790610f25908490879087906004016146ee565b602060405180830381600087803b158015610f3f57600080fd5b505af1158015610f53573d6000803e3d6000fd5b505050506040513d601f19601f82011682018060405250810190610f779190613e4c565b610f935760405162461bcd60e51b8152600401610aeb906148c4565b610d5f8189888860008060405180604001604052806002815260200161060f60f31b815250612ca8565b6001600160a01b038116331461102d5760405162461bcd60e51b815260206004820152602f60248201527f416363657373436f6e74726f6c3a2063616e206f6e6c792072656e6f756e636560448201526e103937b632b9903337b91039b2b63360891b6064820152608401610aeb565b610eda8282612fce565b6110426000336119ca565b61105e5760405162461bcd60e51b8152600401610aeb90614897565b6000938452600760205260409093206002810192909255600382015560060155565b61108b6000336119ca565b6110a75760405162461bcd60e51b8152600401610aeb90614897565b6110b960015462010000900460ff1690565b6110fc5760405162461bcd60e51b815260206004820152601460248201527314185d5cd8589b194e881b9bdd081c185d5cd95960621b6044820152606401610aeb565b611104613033565b565b60006111188989600254898b8a611d8b565b60ff8084166000908152600a60209081526040918290208251808401909352546001600160a01b0381168352600160a01b900490921615159181018290529192506111755760405162461bcd60e51b8152600401610aeb906148f1565b805160405163f91aa31760e01b81526001600160a01b039091169063f91aa317906111a8908590899089906004016146ee565b602060405180830381600087803b1580156111c257600080fd5b505af11580156111d6573d6000803e3d6000fd5b505050506040513d601f19601f820116820180604052508101906111fa9190613e4c565b6112165760405162461bcd60e51b8152600401610aeb9061483f565b611240828b8a8a60008060405180604001604052806002815260200161060f60f31b815250612866565b50505050505050505050565b6112576000336119ca565b6112735760405162461bcd60e51b8152600401610aeb90614897565b6000611281600254886119f3565b9050611295818860025489898989896130ca565b50505050505050565b6112b060015462010000900460ff1690565b156112cd5760405162461bcd60e51b8152600401610aeb9061486d565b6112d8848383613299565b6001600160a01b0384166000908152600960205260408120546002549294509161130790879085878987611d8b565b60408051828152602081018990529081018690526001600160a01b03871660608201526080810184905260a081018590529091507fb8cc5195d548dc2781227c496b92d3736cd56d7f32b28971c9ae1e9eb0badf959060c001610b88565b600061137a8c8c6002548c8e8d8b8b8b612559565b60ff8084166000908152600a60209081526040918290208251808401909352546001600160a01b0381168352600160a01b900490921615159181018290529192506113d75760405162461bcd60e51b8152600401610aeb906147f7565b805160405163f91aa31760e01b81526001600160a01b039091169063f91aa3179061140a9085908c908c906004016146ee565b602060405180830381600087803b15801561142457600080fd5b505af1158015611438573d6000803e3d6000fd5b505050506040513d601f19601f8201168201806040525081019061145c9190613e4c565b6114785760405162461bcd60e51b8152600401610aeb906148c4565b611487828e8d8d8a8a8a612ca8565b50505050505050505050505050565b6006546001600160a01b031633146114eb5760405162461bcd60e51b815260206004820152601860248201527764656669436f6e74726f6c6c65723a2062616420726f6c6560401b6044820152606401610aeb565b60006114f9600254846119f3565b60008181526007602052604090208054919250906001600160a01b031615610c7a576006548154610c7a916001600160a01b03918216911630866135b4565b6115436000336119ca565b61155f5760405162461bcd60e51b8152600401610aeb90614897565b60045460ff600160a01b9091048116908316106115cc5760405162461bcd60e51b815260206004820152602560248201527f6d616e6167654f6c6441676772656761746f723a2076657273696f6e20746f6f604482015264040d0d2ced60db1b6064820152608401610aeb565b60ff9091166000908152600a602052604090208054911515600160a01b0260ff60a01b19909216919091179055565b61160d60015462010000900460ff1690565b1561162a5760405162461bcd60e51b8152600401610aeb9061486d565b8161166f5760405162461bcd60e51b81526020600482015260156024820152746175746f53656e643a2066656520746f6f206c6f7760581b6044820152606401610aeb565b61167a8786866125a1565b9450818510156116cc5760405162461bcd60e51b815260206004820152601f60248201527f6175746f53656e643a2070726f706f7365642066656520746f6f2068696768006044820152606401610aeb565b6116d682866149e4565b6001600160a01b03871660009081526009602052604081205460025492975091611708908a90888a8c878b8b8b612559565b90507fd6a26970ca5b3bad18e3f990daa2e30f9bffdd9933a65c8dfa45dbb963cb6811818a898b868b8a8a60405161174798979695949392919061478f565b60405180910390a16001600160a01b038816600090815260096020526040812080549161177383614a27565b9190505550505050505050505050565b600154610100900460ff168061179c575060015460ff16155b6117ff5760405162461bcd60e51b815260206004820152602e60248201527f496e697469616c697a61626c653a20636f6e747261637420697320616c72656160448201526d191e481a5b9a5d1a585b1a5e995960921b6064820152608401610aeb565b600154610100900460ff16158015611829576001805460ff1961ff00199091166101001716811790555b611839898989898989898961361f565b801561184b576001805461ff00191690555b505050505050505050565b6118616000336119ca565b61187d5760405162461bcd60e51b8152600401610aeb90614897565b600083815260076020526040902060048101548211156118df5760405162461bcd60e51b815260206004820152601b60248201527f77697468647261774665653a206e6f7420656e6f7567682066656500000000006044820152606401610aeb565b818160040160008282546118f391906149e4565b90915550506002546001820154148015611915575080546001600160a01b0316155b15611956576040516001600160a01b0384169083156108fc029084906000818181858888f19350505050158015611950573d6000803e3d6000fd5b50610c7a565b8054610c7a906001600160a01b031684846136a3565b6119776000336119ca565b6119935760405162461bcd60e51b8152600401610aeb90614897565b6119a560015462010000900460ff1690565b156119c25760405162461bcd60e51b8152600401610aeb9061486d565b6111046136d8565b6000918252602082815260408084206001600160a01b0393909316845291905290205460ff1690565b60008282604051602001611a2392919091825260601b6bffffffffffffffffffffffff1916602082015260340190565b60405160208183030381529060405280519060200120905092915050565b6000611a568b8b6002548b8d8c8a8a8a612559565b60035460405163f91aa31760e01b81529192506001600160a01b03169063f91aa31790611a8b9084908a908a906004016146ee565b602060405180830381600087803b158015611aa557600080fd5b505af1158015611ab9573d6000803e3d6000fd5b505050506040513d601f19601f82011682018060405250810190611add9190613e4c565b611af95760405162461bcd60e51b8152600401610aeb9061483f565b611b08818c8b8b888888612866565b5050505050505050505050565b611b206000336119ca565b611b3c5760405162461bcd60e51b8152600401610aeb90614897565b6000838152600760205260408120905b8351811015611bf457828181518110611b7557634e487b7160e01b600052603260045260246000fd5b6020026020010151826007016000868481518110611ba357634e487b7160e01b600052603260045260246000fd5b60209081029190910181015182528181019290925260409081016000208351815460ff1916901515178155918301516001830155919091015160029091015580611bec81614a27565b915050611b4c565b5050505050565b6006546001600160a01b03163314611c505760405162461bcd60e51b815260206004820152601860248201527764656669436f6e74726f6c6c65723a2062616420726f6c6560401b6044820152606401610aeb565b6000611c5e600254846119f3565b6000818152600760205260408120600681015460058201549394509092670de0b6b3a764000091611c8e916149c5565b611c9891906149a5565b8254909150600090611cb2906001600160a01b03166123f4565b905080611cbf868461498d565b11611d185760405162461bcd60e51b8152602060048201526024808201527f7265717565737452657365727665733a206e6f7420656e6f75676820726573656044820152637276657360e01b6064820152608401610aeb565b82546001600160a01b0316611d67576006546040516001600160a01b039091169086156108fc029087906000818181858888f19350505050158015611d61573d6000803e3d6000fd5b50611d83565b6006548354611d83916001600160a01b039182169116876136a3565b505050505050565b60408051602080820198909852808201969096526060808701959095526080860193909352921b6bffffffffffffffffffffffff191660a084015260b4808401929092528051808403909201825260d4909201909152805191012090565b611e0f604051806060016040528060001515815260200160008152602001600081525090565b506000918252600760208181526040808520938552929091018152918190208151606081018352815460ff1615158152600182015493810193909352600201549082015290565b600082815260208190526040902060010154611e7190610e66565b61102d5760405162461bcd60e51b815260206004820152603060248201527f416363657373436f6e74726f6c3a2073656e646572206d75737420626520616e60448201526f2061646d696e20746f207265766f6b6560801b6064820152608401610aeb565b611ee16000336119ca565b611efd5760405162461bcd60e51b8152600401610aeb90614897565b6000611f09878a6119f3565b905061184b81898989898989896130ca565b6000611f308b8b6002548b8d8c8a8a8a612559565b60035460405163f91aa31760e01b81529192506001600160a01b03169063f91aa31790611f659084908a908a906004016146ee565b602060405180830381600087803b158015611f7f57600080fd5b505af1158015611f93573d6000803e3d6000fd5b505050506040513d601f19601f82011682018060405250810190611fb79190613e4c565b611fd35760405162461bcd60e51b8152600401610aeb906148c4565b611b08818c8b8b888888612ca8565b611ff460015462010000900460ff1690565b156120115760405162461bcd60e51b8152600401610aeb9061486d565b816120565760405162461bcd60e51b81526020600482015260156024820152746175746f4275726e3a2066656520746f6f206c6f7760581b6044820152606401610aeb565b612061878686613299565b9450818510156120b35760405162461bcd60e51b815260206004820152601f60248201527f6175746f4275726e3a2070726f706f7365642066656520746f6f2068696768006044820152606401610aeb565b6120bd82866149e4565b6001600160a01b038716600090815260096020526040812054600254929750916120ef908a90888a8c878b8b8b612559565b90507f36a268c961c097e1f744d1ce89408dd36212025f95204538cd463fba9e22cada818a898b868b8a8a60405161174798979695949392919061478f565b6121396000336119ca565b6121555760405162461bcd60e51b8152600401610aeb90614897565b8051612168906005906020840190613a61565b507fc96689ced54dda42d1f32f295881474112291c08120448bec2f7b10f5297e88f81604051610e4491906146aa565b60006121ad8c8c6002548c8e8d8b8b8b612559565b60ff8084166000908152600a60209081526040918290208251808401909352546001600160a01b0381168352600160a01b9004909216151591810182905291925061220a5760405162461bcd60e51b8152600401610aeb906148f1565b805160405163f91aa31760e01b81526001600160a01b039091169063f91aa3179061223d9085908c908c906004016146ee565b602060405180830381600087803b15801561225757600080fd5b505af115801561226b573d6000803e3d6000fd5b505050506040513d601f19601f8201168201806040525081019061228f9190613e4c565b6122ab5760405162461bcd60e51b8152600401610aeb9061483f565b611487828e8d8d8a8a8a612866565b60006122cc8989600254898b8a611d8b565b60ff8084166000908152600a60209081526040918290208251808401909352546001600160a01b0381168352600160a01b900490921615159181018290529192506123295760405162461bcd60e51b8152600401610aeb906147f7565b805160405163f91aa31760e01b81526001600160a01b039091169063f91aa3179061235c908590899089906004016146ee565b602060405180830381600087803b15801561237657600080fd5b505af115801561238a573d6000803e3d6000fd5b505050506040513d601f19601f820116820180604052508101906123ae9190613e4c565b6123ca5760405162461bcd60e51b8152600401610aeb906148c4565b611240828b8a8a60008060405180604001604052806002815260200161060f60f31b815250612ca8565b60006001600160a01b03821661240b575047610ab7565b6040516370a0823160e01b81523060048201526001600160a01b038316906370a082319060240160206040518083038186803b15801561244a57600080fd5b505afa15801561245e573d6000803e3d6000fd5b505050506040513d601f19601f820116820180604052508101906124829190614441565b9050610ab7565b6124946000336119ca565b6124b05760405162461bcd60e51b8152600401610aeb90614897565b604080518082018252600380546001600160a01b039081168352600160208085019182526004805460ff600160a01b9182900481166000908152600a909452979092209551865493511515830260ff60a01b199186166001600160a01b03199586161791909116179095558354928716929091169190911790915581540490911690601461253d83614a42565b91906101000a81548160ff021916908360ff1602179055505050565b600089898989898989898960405160200161257c999897969594939291906145ab565b6040516020818303038152906040528051906020012090509998505050505050505050565b600083815260076020818152604080842085855292830182528084208151606081018352815460ff1615158152600180830154948201949094526002918201549281019290925254918301549091146126355760405162461bcd60e51b815260206004820152601660248201527539b2b7321d103737ba103730ba34bb329031b430b4b760511b6044820152606401610aeb565b80516126835760405162461bcd60e51b815260206004820152601860248201527f73656e643a2077726f6e672074617267656420636861696e00000000000000006044820152606401610aeb565b81600201548510156126ce5760405162461bcd60e51b815260206004820152601460248201527373656e643a20616d6f756e7420746f6f206c6f7760601b6044820152606401610aeb565b816003015485111561271a5760405162461bcd60e51b81526020600482015260156024820152740e6cadcc87440c2dadeeadce840e8dede40d0d2ced605b1b6044820152606401610aeb565b81546001600160a01b0316612775573485146127705760405162461bcd60e51b81526020600482015260156024820152740e6cadcc87440c2dadeeadce840dad2e6dac2e8c6d605b1b6044820152606401610aeb565b61278c565b815461278c906001600160a01b03163330886135b4565b6000670de0b6b3a76400008260400151876127a791906149c5565b6127b191906149a5565b82602001516127c0919061498d565b9050801561283f57808610156128185760405162461bcd60e51b815260206004820152601b60248201527f73656e643a20616d6f756e74206e6f7420636f766572206665657300000000006044820152606401610aeb565b8083600401600082825461282c919061498d565b9091555061283c905081876149e4565b95505b85836005016000828254612853919061498d565b90915550869450505050505b9392505050565b60008681526007602052604090206002546001820154146128c95760405162461bcd60e51b815260206004820152601960248201527f636c61696d3a2077726f6e672074617267657420636861696e000000000000006044820152606401610aeb565b60008881526008602052604090205460ff161561291e5760405162461bcd60e51b815260206004820152601360248201527218db185a5b4e88185b1c9958591e481d5cd959606a1b6044820152606401610aeb565b6000888152600860205260408120805460ff1916600117905560058201805487929061294b9084906149e4565b9091555061295b90508186613748565b80546001600160a01b0316612aa8578215612a6b57604051339084156108fc029085906000818181858888f1935050505015801561299d573d6000803e3d6000fd5b506004805460405163c435b14b60e01b81526000926001600160a01b039092169163c435b14b9189916129d6918a918d918a9101614675565b6020604051808303818588803b1580156129ef57600080fd5b505af1158015612a03573d6000803e3d6000fd5b50505050506040513d601f19601f82011682018060405250810190612a289190613e4c565b604080518b815282151560208201529192507f36c8142a7dcbbfde02c55b345b75761d6761eb241d6c504a0df77c0730b52fe9910160405180910390a150612aa3565b6040516001600160a01b0387169086156108fc029087906000818181858888f19350505050158015612aa1573d6000803e3d6000fd5b505b612bc6565b8215612bb0578054612ac4906001600160a01b031633856136a3565b6004548154612ae0916001600160a01b039182169116876136a3565b600480548254604051633bab642f60e01b81526000936001600160a01b0393841693633bab642f93612b1b939116918a918d918a9101614637565b602060405180830381600087803b158015612b3557600080fd5b505af1158015612b49573d6000803e3d6000fd5b505050506040513d601f19601f82011682018060405250810190612b6d9190613e4c565b604080518b815282151560208201529192507f36c8142a7dcbbfde02c55b345b75761d6761eb241d6c504a0df77c0730b52fe9910160405180910390a150612bc6565b8054612bc6906001600160a01b031687876136a3565b60408051898152602081018790526001600160a01b03881691810191909152606081018890527fabe3bed2a8590dd123c1a018888bce6142d526741bed65dfe570fb223525c6a4906080015b60405180910390a15050505050505050565b612c2e82826119ca565b610eda576000828152602081815260408083206001600160a01b03851684529091529020805460ff19166001179055612c643390565b6001600160a01b0316816001600160a01b0316837f2f8788117e7eff1d82e926ec794901d17c78024a50270940304540a733656f0d60405160405180910390a45050565b60008781526008602052604090205460ff1615612cfc5760405162461bcd60e51b81526020600482015260126024820152711b5a5b9d0e88185b1c9958591e481d5cd95960721b6044820152606401610aeb565b60008681526007602090815260408083208a84526008909252909120805460ff19166001908117909155600254908201541415612d735760405162461bcd60e51b815260206004820152601560248201527436b4b73a1d1034b9903730ba34bb329031b430b4b760591b6044820152606401610aeb565b8215612f185780546040516340c10f1960e01b8152336004820152602481018590526001600160a01b03909116906340c10f1990604401600060405180830381600087803b158015612dc457600080fd5b505af1158015612dd8573d6000803e3d6000fd5b50508254600480546040516340c10f1960e01b81526001600160a01b0391821692810192909252602482018a905290911692506340c10f199150604401600060405180830381600087803b158015612e2f57600080fd5b505af1158015612e43573d6000803e3d6000fd5b5050600480548454604051633bab642f60e01b8152600095506001600160a01b039283169450633bab642f93612e8393909216918a918d918a9101614637565b602060405180830381600087803b158015612e9d57600080fd5b505af1158015612eb1573d6000803e3d6000fd5b505050506040513d601f19601f82011682018060405250810190612ed59190613e4c565b604080518b815282151560208201529192507f36c8142a7dcbbfde02c55b345b75761d6761eb241d6c504a0df77c0730b52fe9910160405180910390a150612f7e565b80546040516340c10f1960e01b81526001600160a01b03888116600483015260248201889052909116906340c10f1990604401600060405180830381600087803b158015612f6557600080fd5b505af1158015612f79573d6000803e3d6000fd5b505050505b60408051898152602081018790526001600160a01b03881691810191909152606081018890527f5918a95fd00afb5898499bd5beade1619e98655d2b4ff6e0f6a4347f0a69c12790608001612c12565b612fd882826119ca565b15610eda576000828152602081815260408083206001600160a01b0385168085529252808320805460ff1916905551339285917ff6391f5c32d9c69d2a47ea670b442974b53935d1edc7fd64eb21e047a839171b9190a45050565b61304560015462010000900460ff1690565b6130885760405162461bcd60e51b815260206004820152601460248201527314185d5cd8589b194e881b9bdd081c185d5cd95960621b6044820152606401610aeb565b6001805462ff0000191690556040513381527f5db9ee0a495bf2e6ff9c91a7834c1ba4fdd244a5e8aa4e537bd38aeae4b073aa906020015b60405180910390a1565b805182511461312a5760405162461bcd60e51b815260206004820152602660248201527f5f61646441737365743a2077726f6e6720636861696e20737570706f7274206c604482015265656e6774687360d01b6064820152608401610aeb565b600088815260076020526040812080546001600160a01b0319166001600160a01b038a161781556001810188905560028101879055600381018690556006810185905590805b845181101561323e5784818151811061319957634e487b7160e01b600052603260045260246000fd5b602002602001015191508381815181106131c357634e487b7160e01b600052603260045260246000fd5b602090810291909101810151600084815260078601835260408082208351815460ff1916901515178155938301516001850155918201516002909301929092555183918d917fdd4dbf80f57aa5115a1e07abb36e4de565879d4de5bd15b3803d666fe1d848639190a38061323681614a27565b915050613170565b5087896001600160a01b03168b7f7c33f0d8ed76eeed3663e9bc2346d5d0d43847e247f615a54ac02b20741724968a89604051613285929190918252602082015260400190565b60405180910390a450505050505050505050565b600083815260076020818152604080842085855292830182528084208151606081018352815460ff1615158152600180830154948201949094526002918201549281019290925254918301549091141561332a5760405162461bcd60e51b8152602060048201526012602482015271189d5c9b8e881b985d1a5d9948185cdcd95d60721b6044820152606401610aeb565b80516133785760405162461bcd60e51b815260206004820152601860248201527f6275726e3a2077726f6e672074617267656420636861696e00000000000000006044820152606401610aeb565b81600201548510156133c35760405162461bcd60e51b81526020600482015260146024820152736275726e3a20616d6f756e7420746f6f206c6f7760601b6044820152606401610aeb565b816003015485111561340f5760405162461bcd60e51b81526020600482015260156024820152740c4eae4dc7440c2dadeeadce840e8dede40d0d2ced605b1b6044820152606401610aeb565b81546040516323b872dd60e01b8152336004820152306024820152604481018790526001600160a01b039091169081906323b872dd90606401602060405180830381600087803b15801561346257600080fd5b505af1158015613476573d6000803e3d6000fd5b505050506040513d601f19601f8201168201806040525081019061349a9190613e4c565b506000670de0b6b3a76400008360400151886134b691906149c5565b6134c091906149a5565b83602001516134cf919061498d565b9050801561354e57808710156135275760405162461bcd60e51b815260206004820152601b60248201527f6275726e3a20616d6f756e74206e6f7420636f766572206665657300000000006044820152606401610aeb565b8084600401600082825461353b919061498d565b9091555061354b905081886149e4565b96505b604051630852cd8d60e31b8152600481018890526001600160a01b038316906342966c6890602401600060405180830381600087803b15801561359057600080fd5b505af11580156135a4573d6000803e3d6000fd5b50989a9950505050505050505050565b6040516001600160a01b0380851660248301528316604482015260648101829052610c7a9085906323b872dd60e01b906084015b60408051601f198184030181529190526020810180516001600160e01b03166001600160e01b031990931692909217909152613817565b466002819055600061363182826119f3565b90506136468160006002548d8d8d8b8b6130ca565b600380546001600160a01b03808a166001600160a01b03199283161790925560048054928916929091169190911790558451613689906005906020880190613a61565b506006546001600160a01b03169250611240600033610ed0565b6040516001600160a01b0383166024820152604481018290526136d390849063a9059cbb60e01b906064016135e8565b505050565b6136ea60015462010000900460ff1690565b156137075760405162461bcd60e51b8152600401610aeb9061486d565b6001805462ff00001916620100001790556040513381527f62e78cea01bee320cd4e420270b5ea74000d11b0c9f74754ebdbfc544b05a258906020016130c0565b6000670de0b6b3a76400008360060154846005015461376791906149c5565b61377191906149a5565b835490915060009061378b906001600160a01b03166123f4565b9050600083831161379c578361379e565b825b905081811115611bf4576137b282826149e4565b60065486546040516309e62b9160e01b81526001600160a01b0391821660048201526024810184905292935016906309e62b9190604401600060405180830381600087803b15801561380357600080fd5b505af115801561184b573d6000803e3d6000fd5b600061386c826040518060400160405280602081526020017f5361666545524332303a206c6f772d6c6576656c2063616c6c206661696c6564815250856001600160a01b03166138e99092919063ffffffff16565b8051909150156136d3578080602001905181019061388a9190613e4c565b6136d35760405162461bcd60e51b815260206004820152602a60248201527f5361666545524332303a204552433230206f7065726174696f6e20646964206e6044820152691bdd081cdd58d8d9595960b21b6064820152608401610aeb565b60606138f88484600085613900565b949350505050565b6060824710156139615760405162461bcd60e51b815260206004820152602660248201527f416464726573733a20696e73756666696369656e742062616c616e636520666f6044820152651c8818d85b1b60d21b6064820152608401610aeb565b843b6139af5760405162461bcd60e51b815260206004820152601d60248201527f416464726573733a2063616c6c20746f206e6f6e2d636f6e74726163740000006044820152606401610aeb565b600080866001600160a01b031685876040516139cb919061461b565b60006040518083038185875af1925050503d8060008114613a08576040519150601f19603f3d011682016040523d82523d6000602084013e613a0d565b606091505b5091509150613a1d828286613a28565b979650505050505050565b60608315613a3757508161285f565b825115613a475782518084602001fd5b8160405162461bcd60e51b8152600401610aeb91906147e4565b828054828255906000526020600020908101928215613a9c579160200282015b82811115613a9c578251825591602001919060010190613a81565b50613aa8929150613aac565b5090565b5b80821115613aa85760008155600101613aad565b8035610ab781614a8e565b60008083601f840112613add578182fd5b5081356001600160401b03811115613af3578182fd5b6020830191508360208083028501011115613b0d57600080fd5b9250929050565b600082601f830112613b24578081fd5b81356020613b39613b348361496a565b61493a565b82815281810190858301606080860288018501891015613b57578687fd5b865b86811015613ba95781838b031215613b6f578788fd5b613b788261493a565b8335613b8381614aa6565b815283870135878201526040808501359082015285529385019391810191600101613b59565b509198975050505050505050565b600082601f830112613bc7578081fd5b81356020613bd7613b348361496a565b8281528181019085830183850287018401881015613bf3578586fd5b855b85811015613c1157813584529284019290840190600101613bf5565b5090979650505050505050565b600082601f830112613c2e578081fd5b81356001600160401b03811115613c4757613c47614a78565b613c5a601f8201601f191660200161493a565b818152846020838601011115613c6e578283fd5b816020850160208301379081016020019190915292915050565b803560ff81168114610ab757600080fd5b600060208284031215613caa578081fd5b813561285f81614a8e565b600080600080600080600080610100898b031215613cd1578384fd5b8835613cdc81614a8e565b97506020890135613cec81614a8e565b965060408901359550606089013594506080890135935060a0890135925060c08901356001600160401b0380821115613d23578384fd5b613d2f8c838d01613bb7565b935060e08b0135915080821115613d44578283fd5b50613d518b828c01613b14565b9150509295985092959890939650565b60008060408385031215613d73578182fd5b8235613d7e81614a8e565b946020939093013593505050565b60008060008060008060c08789031215613da4578182fd5b8635613daf81614a8e565b955060208701359450604087013593506060870135925060808701356001600160401b0380821115613ddf578384fd5b613deb8a838b01613bb7565b935060a0890135915080821115613e00578283fd5b50613e0d89828a01613b14565b9150509295509295509295565b600060208284031215613e2b578081fd5b81356001600160401b03811115613e40578182fd5b6138f884828501613bb7565b600060208284031215613e5d578081fd5b815161285f81614aa6565b600060208284031215613e79578081fd5b5035919050565b60008060408385031215613e92578182fd5b823591506020830135613ea481614a8e565b809150509250929050565b600080600060608486031215613ec3578081fd5b833592506020840135613ed581614a8e565b929592945050506040919091013590565b60008060008060808587031215613efb578182fd5b843593506020850135613f0d81614a8e565b93969395505050506040820135916060013590565b600080600080600080600060e0888a031215613f3c578081fd5b873596506020880135613f4e81614a8e565b955060408801359450606088013593506080880135613f6c81614a8e565b925060a0880135915060c08801356001600160401b03811115613f8d578182fd5b613f998a828b01613c1e565b91505092959891949750929550565b600080600060608486031215613fbc578081fd5b8335925060208401356001600160401b0380821115613fd9578283fd5b613fe587838801613bb7565b93506040860135915080821115613ffa578283fd5b5061400786828701613b14565b9150509250925092565b60008060408385031215614023578182fd5b50508035926020909101359150565b600080600080600080600060c0888a03121561404c578081fd5b8735965060208801359550604088013561406581614a8e565b9450606088013593506080880135925060a08801356001600160401b0381111561408d578182fd5b6140998a828b01613acc565b989b979a50959850939692959293505050565b6000806000806000806000806000806101208b8d0312156140cb578384fd5b8a35995060208b0135985060408b01356140e481614a8e565b975060608b0135965060808b0135955060a08b01356001600160401b038082111561410d578586fd5b6141198e838f01613acc565b909750955060c08d0135915061412e82614a8e565b90935060e08c013592506101008c0135908082111561414b578283fd5b506141588d828e01613c1e565b9150509295989b9194979a5092959850565b60008060008060008060008060008060006101408c8e03121561418b578485fd5b8b359a5060208c013599506141a260408d01613ac1565b985060608c0135975060808c013596506001600160401b038060a08e013511156141ca578586fd5b6141da8e60a08f01358f01613acc565b90975095506141eb60c08e01613ac1565b945060e08d01359350806101008e01351115614205578182fd5b506142178d6101008e01358e01613c1e565b91506142266101208d01613c88565b90509295989b509295989b9093969950565b60008060008060008060008060e0898b031215614253578182fd5b8835975060208901359650604089013561426c81614a8e565b9550606089013594506080890135935060a08901356001600160401b03811115614294578283fd5b6142a08b828c01613acc565b90945092506142b3905060c08a01613c88565b90509295985092959890939650565b6000806000606084860312156142d6578081fd5b833592506020840135915060408401356142ef81614aa6565b809150509250925092565b6000806000806080858703121561430f578182fd5b5050823594602084013594506040840135936060013592509050565b60008060008060008060c08789031215614343578384fd5b86359550602087013594506040870135935060608701359250608087013561436a81614a8e565b8092505060a087013590509295509295509295565b60008060008060008060008060006101208a8c03121561439d578283fd5b8935985060208a0135975060408a0135965060608a0135955060808a01356143c481614a8e565b945060a08a0135935060c08a01356143db81614a8e565b925060e08a013591506101008a01356001600160401b038111156143fd578182fd5b6144098c828d01613c1e565b9150509295985092959850929598565b60006020828403121561442a578081fd5b81356001600160e01b03198116811461285f578182fd5b600060208284031215614452578081fd5b5051919050565b600080600080600080600080610100898b031215614475578182fd5b883597506020890135965060408901359550606089013561449581614a8e565b945060808901356144a581614a8e565b935060a08901356001600160401b03808211156144c0578384fd5b6144cc8c838d01613bb7565b945060c08b01359150808211156144e1578384fd5b506144ee8b828c01613b14565b92505060e08901356144ff81614a8e565b809150509295985092959890939650565b600060208284031215614521578081fd5b61285f82613c88565b6000806040838503121561453c578182fd5b61454583613c88565b91506020830135613ea481614aa6565b60008284528282602086013780602084860101526020601f19601f85011685010190509392505050565b600081518084526145978160208601602086016149fb565b601f01601f19169290920160200192915050565b60008a82528960208301528860408301528760608301526bffffffffffffffffffffffff19808860601b166080840152866094840152808660601b1660b4840152508360c883015282516146068160e88501602087016149fb565b9190910160e8019a9950505050505050505050565b6000825161462d8184602087016149fb565b9190910192915050565b6001600160a01b03858116825284811660208301528316604082015260806060820181905260009061466b9083018461457f565b9695505050505050565b6001600160a01b038481168252831660208201526060604082018190526000906146a19083018461457f565b95945050505050565b6020808252825182820181905260009190848201906040850190845b818110156146e2578351835292840192918401916001016146c6565b50909695505050505050565b6000604082018583526020604081850152818583526060850190506060828702860101925086845b8781101561478157868503605f190183528135368a9003601e1901811261473b578687fd5b890180356001600160401b03811115614752578788fd5b8036038b1315614760578788fd5b61476d8782888501614555565b965050509183019190830190600101614716565b509298975050505050505050565b60006101008a835289602084015288604084015260018060a01b03881660608401528660808401528560a08401528460c08401528060e08401526147d58184018561457f565b9b9a5050505050505050505050565b60006020825261285f602083018461457f565b60208082526028908201527f6d696e74576974684f6c6441676772656761746f723a20696e76616c6964416760408201526733b932b3b0ba37b960c11b606082015260800190565b60208082526014908201527318db185a5b4e881b9bdd0818dbdb999a5c9b595960621b604082015260600190565b60208082526010908201526f14185d5cd8589b194e881c185d5cd95960821b604082015260600190565b6020808252601390820152726f6e6c7941646d696e3a2062616420726f6c6560681b604082015260600190565b6020808252601390820152721b5a5b9d0e881b9bdd0818dbdb999a5c9b5959606a1b604082015260600190565b60208082526029908201527f6d696e74576974684f6c6441676772656761746f723a20696e76616c6964206160408201526833b3b932b3b0ba37b960b91b606082015260800190565b604051601f8201601f191681016001600160401b038111828210171561496257614962614a78565b604052919050565b60006001600160401b0382111561498357614983614a78565b5060209081020190565b600082198211156149a0576149a0614a62565b500190565b6000826149c057634e487b7160e01b81526012600452602481fd5b500490565b60008160001904831182151516156149df576149df614a62565b500290565b6000828210156149f6576149f6614a62565b500390565b60005b83811015614a165781810151838201526020016149fe565b83811115610c7a5750506000910152565b6000600019821415614a3b57614a3b614a62565b5060010190565b600060ff821660ff811415614a5957614a59614a62565b60010192915050565b634e487b7160e01b600052601160045260246000fd5b634e487b7160e01b600052604160045260246000fd5b6001600160a01b0381168114614aa357600080fd5b50565b8015158114614aa357600080fdfea26469706673582212207973e06277443bfba522aae94c3926fac46982fd3b8b5147838cfc780ea1031564736f6c63430008020033",
  "immutableReferences": {},
  "source": "// SPDX-License-Identifier: MIT\npragma solidity ^0.8.2;\n\nimport \"@openzeppelin/contracts/token/ERC20/IERC20.sol\";\nimport \"@openzeppelin/contracts/token/ERC20/utils/SafeERC20.sol\";\nimport \"../interfaces/IWhiteLightVerifier.sol\";\nimport \"../interfaces/IWhiteLightDebridge.sol\";\nimport \"./WhiteDebridge.sol\";\n\ncontract WhiteLightDebridge is WhiteDebridge, IWhiteLightDebridge {\n    using SafeERC20 for IERC20;\n\n    /// @dev Constructor that initializes the most important configurations.\n    /// @param _minAmount Minimal amount of current chain token to be wrapped.\n    /// @param _maxAmount Maximum amount of current chain token to be wrapped.\n    /// @param _minReserves Minimal reserve ratio.\n    /// @param _aggregator Submission aggregator address.\n    /// @param _supportedChainIds Chain ids where native token of the current chain can be wrapped.\n    function initialize(\n        uint256 _minAmount,\n        uint256 _maxAmount,\n        uint256 _minReserves,\n        address _aggregator,\n        address _callProxy,\n        uint256[] memory _supportedChainIds,\n        ChainSupportInfo[] memory _chainSupportInfo,\n        IDefiController _defiController\n    ) public payable initializer {\n        super._initialize(\n            _minAmount,\n            _maxAmount,\n            _minReserves,\n            _aggregator,\n            _callProxy,\n            _supportedChainIds,\n            _chainSupportInfo,\n            _defiController\n        );\n    }\n\n    /// @dev Mints wrapped asset on the current chain.\n    /// @param _debridgeId Asset identifier.\n    /// @param _receiver Receiver address.\n    /// @param _amount Amount of the transfered asset (note: without applyed fee).\n    /// @param _nonce Submission id.\n    /// @param _signatures Array of oracles signatures.\n    /// @param _fallbackAddress Receiver of the tokens if the call fails.\n    /// @param _executionFee Fee paid to the transaction executor.\n    /// @param _data Chain id of the target chain.\n    function autoMint(\n        bytes32 _debridgeId,\n        uint256 _chainIdFrom,\n        address _receiver,\n        uint256 _amount,\n        uint256 _nonce,\n        bytes[] calldata _signatures,\n        address _fallbackAddress,\n        uint256 _executionFee,\n        bytes memory _data\n    ) external {\n        bytes32 submissionId =\n            getAutoSubmisionId(\n                _debridgeId,\n                _chainIdFrom,\n                chainId,\n                _amount,\n                _receiver,\n                _nonce,\n                _fallbackAddress,\n                _executionFee,\n                _data\n            );\n        require(\n            IWhiteLightVerifier(aggregator).submit(submissionId, _signatures),\n            \"mint: not confirmed\"\n        );\n        _mint(\n            submissionId,\n            _debridgeId,\n            _receiver,\n            _amount,\n            _fallbackAddress,\n            _executionFee,\n            _data\n        );\n    }\n\n    /// @dev Mints wrapped asset on the current chain.\n    /// @param _debridgeId Asset identifier.\n    /// @param _receiver Receiver address.\n    /// @param _amount Amount of the transfered asset (note: without applyed fee).\n    /// @param _nonce Submission id.\n    /// @param _signatures Array of oracles signatures.\n    /// @param _fallbackAddress Receiver of the tokens if the call fails.\n    /// @param _executionFee Fee paid to the transaction executor.\n    /// @param _data Chain id of the target chain.\n    function autoMintWithOldAggregator(\n        bytes32 _debridgeId,\n        uint256 _chainIdFrom,\n        address _receiver,\n        uint256 _amount,\n        uint256 _nonce,\n        bytes[] calldata _signatures,\n        address _fallbackAddress,\n        uint256 _executionFee,\n        bytes memory _data,\n        uint8 _aggregatorVersion\n    ) external {\n        bytes32 submissionId =\n            getAutoSubmisionId(\n                _debridgeId,\n                _chainIdFrom,\n                chainId,\n                _amount,\n                _receiver,\n                _nonce,\n                _fallbackAddress,\n                _executionFee,\n                _data\n            );\n        AggregatorInfo memory aggregatorInfo =\n            getOldAggregator[_aggregatorVersion];\n        require(\n            aggregatorInfo.isValid,\n            \"mintWithOldAggregator: invalidAggregator\"\n        );\n        require(\n            IWhiteLightVerifier(aggregatorInfo.aggregator).submit(\n                submissionId,\n                _signatures\n            ),\n            \"mint: not confirmed\"\n        );\n        _mint(\n            submissionId,\n            _debridgeId,\n            _receiver,\n            _amount,\n            _fallbackAddress,\n            _executionFee,\n            _data\n        );\n    }\n\n    /// @dev Mints wrapped asset on the current chain.\n    /// @param _debridgeId Asset identifier.\n    /// @param _receiver Receiver address.\n    /// @param _amount Amount of the transfered asset (note: without applyed fee).\n    /// @param _nonce Submission id.\n    /// @param _signatures Array of oracles signatures.\n    function mint(\n        bytes32 _debridgeId,\n        uint256 _chainIdFrom,\n        address _receiver,\n        uint256 _amount,\n        uint256 _nonce,\n        bytes[] calldata _signatures\n    ) external override {\n        bytes32 submissionId =\n            getSubmisionId(\n                _debridgeId,\n                _chainIdFrom,\n                chainId,\n                _amount,\n                _receiver,\n                _nonce\n            );\n        require(\n            IWhiteLightVerifier(aggregator).submit(submissionId, _signatures),\n            \"mint: not confirmed\"\n        );\n        _mint(\n            submissionId,\n            _debridgeId,\n            _receiver,\n            _amount,\n            address(0),\n            0,\n            \"0x\"\n        );\n    }\n\n    /// @dev Mints wrapped asset on the current chain.\n    /// @param _debridgeId Asset identifier.\n    /// @param _receiver Receiver address.\n    /// @param _amount Amount of the transfered asset (note: without applyed fee).\n    /// @param _nonce Submission id.\n    /// @param _signatures Array of oracles signatures.\n    /// @param _aggregatorVersion Aggregator version.\n    function mintWithOldAggregator(\n        bytes32 _debridgeId,\n        uint256 _chainIdFrom,\n        address _receiver,\n        uint256 _amount,\n        uint256 _nonce,\n        bytes[] calldata _signatures,\n        uint8 _aggregatorVersion\n    ) external override {\n        bytes32 submissionId =\n            getSubmisionId(\n                _debridgeId,\n                _chainIdFrom,\n                chainId,\n                _amount,\n                _receiver,\n                _nonce\n            );\n        AggregatorInfo memory aggregatorInfo =\n            getOldAggregator[_aggregatorVersion];\n        require(\n            aggregatorInfo.isValid,\n            \"mintWithOldAggregator: invalidAggregator\"\n        );\n        require(\n            IWhiteLightVerifier(aggregatorInfo.aggregator).submit(\n                submissionId,\n                _signatures\n            ),\n            \"mint: not confirmed\"\n        );\n        _mint(\n            submissionId,\n            _debridgeId,\n            _receiver,\n            _amount,\n            address(0),\n            0,\n            \"0x\"\n        );\n    }\n\n    /// @dev Unlock the asset on the current chain and transfer to receiver.\n    /// @param _debridgeId Asset identifier.\n    /// @param _receiver Receiver address.\n    /// @param _amount Amount of the transfered asset (note: the fee can be applyed).\n    /// @param _nonce Submission id.\n    /// @param _signatures Array of oracles signatures.\n    function claim(\n        bytes32 _debridgeId,\n        uint256 _chainIdFrom,\n        address _receiver,\n        uint256 _amount,\n        uint256 _nonce,\n        bytes[] calldata _signatures\n    ) external override {\n        bytes32 submissionId =\n            getSubmisionId(\n                _debridgeId,\n                _chainIdFrom,\n                chainId,\n                _amount,\n                _receiver,\n                _nonce\n            );\n        require(\n            IWhiteLightVerifier(aggregator).submit(submissionId, _signatures),\n            \"claim: not confirmed\"\n        );\n        _claim(\n            submissionId,\n            _debridgeId,\n            _receiver,\n            _amount,\n            address(0),\n            0,\n            \"0x\"\n        );\n    }\n\n    /// @dev Unlock the asset on the current chain and transfer to receiver.\n    /// @param _debridgeId Asset identifier.\n    /// @param _receiver Receiver address.\n    /// @param _amount Amount of the transfered asset (note: the fee can be applyed).\n    /// @param _nonce Submission id.\n    /// @param _signatures Array of oracles signatures.\n    /// @param _fallbackAddress Receiver of the tokens if the call fails.\n    /// @param _executionFee Fee paid to the transaction executor.\n    /// @param _data Chain id of the target chain.\n    function autoClaim(\n        bytes32 _debridgeId,\n        uint256 _chainIdFrom,\n        address _receiver,\n        uint256 _amount,\n        uint256 _nonce,\n        bytes[] calldata _signatures,\n        address _fallbackAddress,\n        uint256 _executionFee,\n        bytes memory _data\n    ) external {\n        bytes32 submissionId =\n            getAutoSubmisionId(\n                _debridgeId,\n                _chainIdFrom,\n                chainId,\n                _amount,\n                _receiver,\n                _nonce,\n                _fallbackAddress,\n                _executionFee,\n                _data\n            );\n        require(\n            IWhiteLightVerifier(aggregator).submit(submissionId, _signatures),\n            \"claim: not confirmed\"\n        );\n        _claim(\n            submissionId,\n            _debridgeId,\n            _receiver,\n            _amount,\n            _fallbackAddress,\n            _executionFee,\n            _data\n        );\n    }\n\n    /// @dev Unlock the asset on the current chain and transfer to receiver.\n    /// @param _debridgeId Asset identifier.\n    /// @param _receiver Receiver address.\n    /// @param _amount Amount of the transfered asset (note: the fee can be applyed).\n    /// @param _nonce Submission id.\n    /// @param _signatures Array of oracles signatures.\n    /// @param _fallbackAddress Receiver of the tokens if the call fails.\n    /// @param _executionFee Fee paid to the transaction executor.\n    /// @param _data Chain id of the target chain.\n    function autoClaimWithOldAggregator(\n        bytes32 _debridgeId,\n        uint256 _chainIdFrom,\n        address _receiver,\n        uint256 _amount,\n        uint256 _nonce,\n        bytes[] calldata _signatures,\n        address _fallbackAddress,\n        uint256 _executionFee,\n        bytes memory _data,\n        uint8 _aggregatorVersion\n    ) external {\n        bytes32 submissionId =\n            getAutoSubmisionId(\n                _debridgeId,\n                _chainIdFrom,\n                chainId,\n                _amount,\n                _receiver,\n                _nonce,\n                _fallbackAddress,\n                _executionFee,\n                _data\n            );\n        AggregatorInfo memory aggregatorInfo =\n            getOldAggregator[_aggregatorVersion];\n        require(\n            aggregatorInfo.isValid,\n            \"mintWithOldAggregator: invalid aggregator\"\n        );\n        require(\n            IWhiteLightVerifier(aggregatorInfo.aggregator).submit(\n                submissionId,\n                _signatures\n            ),\n            \"claim: not confirmed\"\n        );\n        _claim(\n            submissionId,\n            _debridgeId,\n            _receiver,\n            _amount,\n            _fallbackAddress,\n            _executionFee,\n            _data\n        );\n    }\n\n    /// @dev Unlock the asset on the current chain and transfer to receiver.\n    /// @param _debridgeId Asset identifier.\n    /// @param _receiver Receiver address.\n    /// @param _amount Amount of the transfered asset (note: the fee can be applyed).\n    /// @param _nonce Submission id.\n    /// @param _signatures Array of oracles signatures.\n    /// @param _aggregatorVersion Aggregator version.\n    function claimWithOldAggregator(\n        bytes32 _debridgeId,\n        uint256 _chainIdFrom,\n        address _receiver,\n        uint256 _amount,\n        uint256 _nonce,\n        bytes[] calldata _signatures,\n        uint8 _aggregatorVersion\n    ) external override {\n        bytes32 submissionId =\n            getSubmisionId(\n                _debridgeId,\n                _chainIdFrom,\n                chainId,\n                _amount,\n                _receiver,\n                _nonce\n            );\n        AggregatorInfo memory aggregatorInfo =\n            getOldAggregator[_aggregatorVersion];\n        require(\n            aggregatorInfo.isValid,\n            \"mintWithOldAggregator: invalid aggregator\"\n        );\n        require(\n            IWhiteLightVerifier(aggregatorInfo.aggregator).submit(\n                submissionId,\n                _signatures\n            ),\n            \"claim: not confirmed\"\n        );\n        _claim(\n            submissionId,\n            _debridgeId,\n            _receiver,\n            _amount,\n            address(0),\n            0,\n            \"0x\"\n        );\n    }\n}\n",
  "sourcePath": "/Users/kstasi/Documents/side/debridge-contracts/contracts/transfers/WhiteLightDebridge.sol",
  "compiler": {
    "name": "solc",
    "version": "0.8.2+commit.661d1103.Emscripten.clang"
  },
  "schemaVersion": "3.3.4",
  "updatedAt": "2021-05-09T11:11:42.132Z",
  "networkType": "ethereum",
  "devdoc": {
    "kind": "dev",
    "methods": {
      "addExternalAsset(address,address,uint256,uint256,uint256,uint256,uint256[],(bool,uint256,uint256)[])": {
        "details": "Add support for the asset from the other chain, deploy new wrapped asset.",
        "params": {
          "_chainId": "Current chain id.",
          "_maxAmount": "Maximum amount of current chain token to be wrapped.",
          "_minAmount": "Minimal amount of the asset to be wrapped.",
          "_minReserves": "Minimal reserve ration.",
          "_supportedChainIds": "Chain ids where the token of the current chain can be transfered.",
          "_tokenAddress": "Address of the asset on the other chain.",
          "_wrappedAssetAddress": "Wrapped asset address."
        }
      },
      "addNativeAsset(address,uint256,uint256,uint256,uint256[],(bool,uint256,uint256)[])": {
        "details": "Add support for the asset on the current chain.",
        "params": {
          "_maxAmount": "Maximum amount of current chain token to be wrapped.",
          "_minAmount": "Minimal amount of current chain token to be wrapped.",
          "_minReserves": "Minimal reserve ration.",
          "_supportedChainIds": "Chain ids where native token of the current chain can be wrapped.",
          "_tokenAddress": "Address of the asset on the current chain."
        }
      },
      "autoBurn(bytes32,address,uint256,uint256,address,uint256,bytes)": {
        "details": "Burns wrapped asset and allowss to claim it on the other chain.",
        "params": {
          "_amount": "Amount of the transfered asset (note: the fee can be applyed).",
          "_chainIdTo": "Chain id of the target chain.",
          "_data": "Chain id of the target chain.",
          "_debridgeId": "Asset identifier.",
          "_executionFee": "Fee paid to the transaction executor.",
          "_fallbackAddress": "Receiver of the tokens if the call fails.",
          "_receiver": "Receiver address."
        }
      },
      "autoClaim(bytes32,uint256,address,uint256,uint256,bytes[],address,uint256,bytes)": {
        "details": "Unlock the asset on the current chain and transfer to receiver.",
        "params": {
          "_amount": "Amount of the transfered asset (note: the fee can be applyed).",
          "_data": "Chain id of the target chain.",
          "_debridgeId": "Asset identifier.",
          "_executionFee": "Fee paid to the transaction executor.",
          "_fallbackAddress": "Receiver of the tokens if the call fails.",
          "_nonce": "Submission id.",
          "_receiver": "Receiver address.",
          "_signatures": "Array of oracles signatures."
        }
      },
      "autoClaimWithOldAggregator(bytes32,uint256,address,uint256,uint256,bytes[],address,uint256,bytes,uint8)": {
        "details": "Unlock the asset on the current chain and transfer to receiver.",
        "params": {
          "_amount": "Amount of the transfered asset (note: the fee can be applyed).",
          "_data": "Chain id of the target chain.",
          "_debridgeId": "Asset identifier.",
          "_executionFee": "Fee paid to the transaction executor.",
          "_fallbackAddress": "Receiver of the tokens if the call fails.",
          "_nonce": "Submission id.",
          "_receiver": "Receiver address.",
          "_signatures": "Array of oracles signatures."
        }
      },
      "autoMint(bytes32,uint256,address,uint256,uint256,bytes[],address,uint256,bytes)": {
        "details": "Mints wrapped asset on the current chain.",
        "params": {
          "_amount": "Amount of the transfered asset (note: without applyed fee).",
          "_data": "Chain id of the target chain.",
          "_debridgeId": "Asset identifier.",
          "_executionFee": "Fee paid to the transaction executor.",
          "_fallbackAddress": "Receiver of the tokens if the call fails.",
          "_nonce": "Submission id.",
          "_receiver": "Receiver address.",
          "_signatures": "Array of oracles signatures."
        }
      },
      "autoMintWithOldAggregator(bytes32,uint256,address,uint256,uint256,bytes[],address,uint256,bytes,uint8)": {
        "details": "Mints wrapped asset on the current chain.",
        "params": {
          "_amount": "Amount of the transfered asset (note: without applyed fee).",
          "_data": "Chain id of the target chain.",
          "_debridgeId": "Asset identifier.",
          "_executionFee": "Fee paid to the transaction executor.",
          "_fallbackAddress": "Receiver of the tokens if the call fails.",
          "_nonce": "Submission id.",
          "_receiver": "Receiver address.",
          "_signatures": "Array of oracles signatures."
        }
      },
      "autoSend(bytes32,address,uint256,uint256,address,uint256,bytes)": {
        "details": "Locks asset on the chain and enables minting on the other chain.",
        "params": {
          "_amount": "Amount to be transfered (note: the fee can be applyed).",
          "_chainIdTo": "Chain id of the target chain.",
          "_data": "Chain id of the target chain.",
          "_debridgeId": "Asset identifier.",
          "_executionFee": "Fee paid to the transaction executor.",
          "_fallbackAddress": "Receiver of the tokens if the call fails.",
          "_receiver": "Receiver address."
        }
      },
      "burn(bytes32,address,uint256,uint256)": {
        "details": "Burns wrapped asset and allowss to claim it on the other chain.",
        "params": {
          "_amount": "Amount of the transfered asset (note: the fee can be applyed).",
          "_chainIdTo": "Chain id of the target chain.",
          "_debridgeId": "Asset identifier.",
          "_receiver": "Receiver address."
        }
      },
      "claim(bytes32,uint256,address,uint256,uint256,bytes[])": {
        "details": "Unlock the asset on the current chain and transfer to receiver.",
        "params": {
          "_amount": "Amount of the transfered asset (note: the fee can be applyed).",
          "_debridgeId": "Asset identifier.",
          "_nonce": "Submission id.",
          "_receiver": "Receiver address.",
          "_signatures": "Array of oracles signatures."
        }
      },
      "claimWithOldAggregator(bytes32,uint256,address,uint256,uint256,bytes[],uint8)": {
        "details": "Unlock the asset on the current chain and transfer to receiver.",
        "params": {
          "_aggregatorVersion": "Aggregator version.",
          "_amount": "Amount of the transfered asset (note: the fee can be applyed).",
          "_debridgeId": "Asset identifier.",
          "_nonce": "Submission id.",
          "_receiver": "Receiver address.",
          "_signatures": "Array of oracles signatures."
        }
      },
      "getAutoSubmisionId(bytes32,uint256,uint256,uint256,address,uint256,address,uint256,bytes)": {
        "details": "Calculate submission id for auto claimable transfer.",
        "params": {
          "_amount": "Amount of the transfered asset (note: the fee can be applyed).",
          "_chainIdFrom": "Chain identifier of the chain where tokens are sent from.",
          "_chainIdTo": "Chain identifier of the chain where tokens are sent to.",
          "_data": "Chain id of the target chain.",
          "_debridgeId": "Asset identifier.",
          "_executionFee": "Fee paid to the transaction executor.",
          "_fallbackAddress": "Receiver of the tokens if the call fails.",
          "_nonce": "Submission id.",
          "_receiver": "Receiver address."
        }
      },
      "getBalance(address)": {
        "details": "Get the balance.",
        "params": {
          "_tokenAddress": "Address of the asset on the other chain."
        }
      },
      "getChainIdSupport(bytes32,uint256)": {
        "details": "Check if transfer to chain is supported.",
        "params": {
          "_chainId": "Chain identifier.",
          "_debridgeId": "Asset identifier."
        }
      },
      "getDebridgeId(uint256,address)": {
        "details": "Calculates asset identifier.",
        "params": {
          "_chainId": "Current chain id.",
          "_tokenAddress": "Address of the asset on the other chain."
        }
      },
      "getRoleAdmin(bytes32)": {
        "details": "Returns the admin role that controls `role`. See {grantRole} and {revokeRole}. To change a role's admin, use {_setRoleAdmin}."
      },
      "getSubmisionId(bytes32,uint256,uint256,uint256,address,uint256)": {
        "details": "Calculate submission id.",
        "params": {
          "_amount": "Amount of the transfered asset (note: the fee can be applyed).",
          "_chainIdFrom": "Chain identifier of the chain where tokens are sent from.",
          "_chainIdTo": "Chain identifier of the chain where tokens are sent to.",
          "_debridgeId": "Asset identifier.",
          "_nonce": "Submission id.",
          "_receiver": "Receiver address."
        }
      },
      "grantRole(bytes32,address)": {
        "details": "Grants `role` to `account`. If `account` had not been already granted `role`, emits a {RoleGranted} event. Requirements: - the caller must have ``role``'s admin role."
      },
      "hasRole(bytes32,address)": {
        "details": "Returns `true` if `account` has been granted `role`."
      },
      "initialize(uint256,uint256,uint256,address,address,uint256[],(bool,uint256,uint256)[],address)": {
        "details": "Constructor that initializes the most important configurations.",
        "params": {
          "_aggregator": "Submission aggregator address.",
          "_maxAmount": "Maximum amount of current chain token to be wrapped.",
          "_minAmount": "Minimal amount of current chain token to be wrapped.",
          "_minReserves": "Minimal reserve ratio.",
          "_supportedChainIds": "Chain ids where native token of the current chain can be wrapped."
        }
      },
      "manageOldAggregator(uint8,bool)": {
        "details": "Set aggregator address.",
        "params": {
          "_aggregatorVersion": "Submission aggregator address.",
          "_isValid": "Is valid."
        }
      },
      "mint(bytes32,uint256,address,uint256,uint256,bytes[])": {
        "details": "Mints wrapped asset on the current chain.",
        "params": {
          "_amount": "Amount of the transfered asset (note: without applyed fee).",
          "_debridgeId": "Asset identifier.",
          "_nonce": "Submission id.",
          "_receiver": "Receiver address.",
          "_signatures": "Array of oracles signatures."
        }
      },
      "mintWithOldAggregator(bytes32,uint256,address,uint256,uint256,bytes[],uint8)": {
        "details": "Mints wrapped asset on the current chain.",
        "params": {
          "_aggregatorVersion": "Aggregator version.",
          "_amount": "Amount of the transfered asset (note: without applyed fee).",
          "_debridgeId": "Asset identifier.",
          "_nonce": "Submission id.",
          "_receiver": "Receiver address.",
          "_signatures": "Array of oracles signatures."
        }
      },
      "pause()": {
        "details": "Stop all transfers."
      },
      "paused()": {
        "details": "Returns true if the contract is paused, and false otherwise."
      },
      "renounceRole(bytes32,address)": {
        "details": "Revokes `role` from the calling account. Roles are often managed via {grantRole} and {revokeRole}: this function's purpose is to provide a mechanism for accounts to lose their privileges if they are compromised (such as when a trusted device is misplaced). If the calling account had been granted `role`, emits a {RoleRevoked} event. Requirements: - the caller must be `account`."
      },
      "requestReserves(address,uint256)": {
        "details": "Request the assets to be used in defi protocol.",
        "params": {
          "_amount": "Amount of tokens to request.",
          "_tokenAddress": "Asset address."
        }
      },
      "returnReserves(address,uint256)": {
        "details": "Return the assets that were used in defi protocol.",
        "params": {
          "_amount": "Amount of tokens to claim.",
          "_tokenAddress": "Asset address."
        }
      },
      "revokeRole(bytes32,address)": {
        "details": "Revokes `role` from `account`. If `account` had been granted `role`, emits a {RoleRevoked} event. Requirements: - the caller must have ``role``'s admin role."
      },
      "send(bytes32,address,uint256,uint256)": {
        "details": "Locks asset on the chain and enables minting on the other chain.",
        "params": {
          "_amount": "Amount to be transfered (note: the fee can be applyed).",
          "_chainIdTo": "Chain id of the target chain.",
          "_debridgeId": "Asset identifier.",
          "_receiver": "Receiver address."
        }
      },
      "setAggregator(address)": {
        "details": "Set aggregator address.",
        "params": {
          "_aggregator": "Submission aggregator address."
        }
      },
      "setCallProxy(address)": {
        "details": "Set proxy address.",
        "params": {
          "_callProxy": "Address of the proxy that executes external calls."
        }
      },
      "setChainIdSupport(bytes32,uint256,bool)": {
        "details": "Set support for the chains where the token can be transfered.",
        "params": {
          "_chainId": "Current chain id.",
          "_debridgeId": "Asset identifier.",
          "_isSupported": "Whether the token is transferable to the other chain."
        }
      },
      "setChainIds(uint256[])": {
        "details": "Set support for the chains.",
        "params": {
          "_chainIds": "All supported chain ids."
        }
      },
      "setDefiController(address)": {
        "details": "Set defi controoler.",
        "params": {
          "_defiController": "Defi controller address address."
        }
      },
      "supportsInterface(bytes4)": {
        "details": "See {IERC165-supportsInterface}."
      },
      "unpause()": {
        "details": "Allow transfers."
      },
      "updateAsset(bytes32,uint256,uint256,uint256)": {
        "details": "Add support for the asset.",
        "params": {
          "_debridgeId": "Asset identifier.",
          "_maxAmount": "Maximum amount of current chain token to be wrapped.",
          "_minAmount": "Minimal amount of the asset to be wrapped.",
          "_minReserves": "Minimal reserve ration."
        }
      },
      "updateAsset(bytes32,uint256[],(bool,uint256,uint256)[])": {
        "details": "Update asset's fees.",
        "params": {
          "_chainSupportInfo": "Cahin support info.",
          "_debridgeId": "Asset identifier.",
          "_supportedChainIds": "Chain identifiers."
        }
      },
      "withdrawFee(bytes32,address,uint256)": {
        "details": "Withdraw fees.",
        "params": {
          "_amount": "Amount of tokens to withdraw.",
          "_debridgeId": "Asset identifier.",
          "_receiver": "Receiver address."
        }
      }
    },
    "version": 1
  },
  "userdoc": {
    "kind": "user",
    "methods": {},
    "version": 1
  }
}