{
  "contractName": "WhiteLightAggregator",
  "abi": [
    {
      "inputs": [
        {
          "internalType": "uint256",
          "name": "_minConfirmations",
          "type": "uint256"
        },
        {
          "internalType": "uint128",
          "name": "_payment",
          "type": "uint128"
        },
        {
          "internalType": "contract IERC20",
          "name": "_link",
          "type": "address"
        }
      ],
      "stateMutability": "nonpayable",
      "type": "constructor"
    },
    {
      "anonymous": false,
      "inputs": [
        {
          "indexed": false,
          "internalType": "bytes32",
          "name": "submissionId",
          "type": "bytes32"
        },
        {
          "indexed": false,
          "internalType": "address",
          "name": "operator",
          "type": "address"
        }
      ],
      "name": "Confirmed",
      "type": "event"
    },
    {
      "anonymous": false,
      "inputs": [
        {
          "indexed": true,
          "internalType": "bytes32",
          "name": "role",
          "type": "bytes32"
        },
        {
          "indexed": true,
          "internalType": "bytes32",
          "name": "previousAdminRole",
          "type": "bytes32"
        },
        {
          "indexed": true,
          "internalType": "bytes32",
          "name": "newAdminRole",
          "type": "bytes32"
        }
      ],
      "name": "RoleAdminChanged",
      "type": "event"
    },
    {
      "anonymous": false,
      "inputs": [
        {
          "indexed": true,
          "internalType": "bytes32",
          "name": "role",
          "type": "bytes32"
        },
        {
          "indexed": true,
          "internalType": "address",
          "name": "account",
          "type": "address"
        },
        {
          "indexed": true,
          "internalType": "address",
          "name": "sender",
          "type": "address"
        }
      ],
      "name": "RoleGranted",
      "type": "event"
    },
    {
      "anonymous": false,
      "inputs": [
        {
          "indexed": true,
          "internalType": "bytes32",
          "name": "role",
          "type": "bytes32"
        },
        {
          "indexed": true,
          "internalType": "address",
          "name": "account",
          "type": "address"
        },
        {
          "indexed": true,
          "internalType": "address",
          "name": "sender",
          "type": "address"
        }
      ],
      "name": "RoleRevoked",
      "type": "event"
    },
    {
      "anonymous": false,
      "inputs": [
        {
          "indexed": false,
          "internalType": "bytes32",
          "name": "submissionId",
          "type": "bytes32"
        }
      ],
      "name": "SubmissionApproved",
      "type": "event"
    },
    {
      "inputs": [],
      "name": "DEFAULT_ADMIN_ROLE",
      "outputs": [
        {
          "internalType": "bytes32",
          "name": "",
          "type": "bytes32"
        }
      ],
      "stateMutability": "view",
      "type": "function"
    },
    {
      "inputs": [],
      "name": "ORACLE_ROLE",
      "outputs": [
        {
          "internalType": "bytes32",
          "name": "",
          "type": "bytes32"
        }
      ],
      "stateMutability": "view",
      "type": "function"
    },
    {
      "inputs": [
        {
          "internalType": "address",
          "name": "_oracle",
          "type": "address"
        },
        {
          "internalType": "address",
          "name": "_admin",
          "type": "address"
        }
      ],
      "name": "addOracle",
      "outputs": [],
      "stateMutability": "nonpayable",
      "type": "function"
    },
    {
      "inputs": [],
      "name": "allocatedFunds",
      "outputs": [
        {
          "internalType": "uint256",
          "name": "",
          "type": "uint256"
        }
      ],
      "stateMutability": "view",
      "type": "function"
    },
    {
      "inputs": [],
      "name": "availableFunds",
      "outputs": [
        {
          "internalType": "uint256",
          "name": "",
          "type": "uint256"
        }
      ],
      "stateMutability": "view",
      "type": "function"
    },
    {
      "inputs": [
        {
          "internalType": "address",
          "name": "",
          "type": "address"
        }
      ],
      "name": "getOracleInfo",
      "outputs": [
        {
          "internalType": "uint256",
          "name": "withdrawable",
          "type": "uint256"
        },
        {
          "internalType": "address",
          "name": "admin",
          "type": "address"
        }
      ],
      "stateMutability": "view",
      "type": "function"
    },
    {
      "inputs": [
        {
          "internalType": "bytes32",
          "name": "role",
          "type": "bytes32"
        }
      ],
      "name": "getRoleAdmin",
      "outputs": [
        {
          "internalType": "bytes32",
          "name": "",
          "type": "bytes32"
        }
      ],
      "stateMutability": "view",
      "type": "function"
    },
    {
      "inputs": [
        {
          "internalType": "bytes32",
          "name": "",
          "type": "bytes32"
        }
      ],
      "name": "getSubmissionInfo",
      "outputs": [
        {
          "internalType": "bool",
          "name": "confirmed",
          "type": "bool"
        },
        {
          "internalType": "uint256",
          "name": "confirmations",
          "type": "uint256"
        }
      ],
      "stateMutability": "view",
      "type": "function"
    },
    {
      "inputs": [
        {
          "internalType": "address",
          "name": "_oracle",
          "type": "address"
        }
      ],
      "name": "getWithdrawable",
      "outputs": [
        {
          "internalType": "uint256",
          "name": "",
          "type": "uint256"
        }
      ],
      "stateMutability": "view",
      "type": "function"
    },
    {
      "inputs": [
        {
          "internalType": "bytes32",
          "name": "role",
          "type": "bytes32"
        },
        {
          "internalType": "address",
          "name": "account",
          "type": "address"
        }
      ],
      "name": "grantRole",
      "outputs": [],
      "stateMutability": "nonpayable",
      "type": "function"
    },
    {
      "inputs": [
        {
          "internalType": "bytes32",
          "name": "role",
          "type": "bytes32"
        },
        {
          "internalType": "address",
          "name": "account",
          "type": "address"
        }
      ],
      "name": "hasRole",
      "outputs": [
        {
          "internalType": "bool",
          "name": "",
          "type": "bool"
        }
      ],
      "stateMutability": "view",
      "type": "function"
    },
    {
      "inputs": [],
      "name": "link",
      "outputs": [
        {
          "internalType": "contract IERC20",
          "name": "",
          "type": "address"
        }
      ],
      "stateMutability": "view",
      "type": "function"
    },
    {
      "inputs": [],
      "name": "minConfirmations",
      "outputs": [
        {
          "internalType": "uint256",
          "name": "",
          "type": "uint256"
        }
      ],
      "stateMutability": "view",
      "type": "function"
    },
    {
      "inputs": [
        {
          "internalType": "address",
          "name": "",
          "type": "address"
        },
        {
          "internalType": "uint256",
          "name": "",
          "type": "uint256"
        },
        {
          "internalType": "bytes",
          "name": "_data",
          "type": "bytes"
        }
      ],
      "name": "onTokenTransfer",
      "outputs": [],
      "stateMutability": "nonpayable",
      "type": "function"
    },
    {
      "inputs": [],
      "name": "payment",
      "outputs": [
        {
          "internalType": "uint256",
          "name": "",
          "type": "uint256"
        }
      ],
      "stateMutability": "view",
      "type": "function"
    },
    {
      "inputs": [
        {
          "internalType": "address",
          "name": "_oracle",
          "type": "address"
        }
      ],
      "name": "removeOracle",
      "outputs": [],
      "stateMutability": "nonpayable",
      "type": "function"
    },
    {
      "inputs": [
        {
          "internalType": "bytes32",
          "name": "role",
          "type": "bytes32"
        },
        {
          "internalType": "address",
          "name": "account",
          "type": "address"
        }
      ],
      "name": "renounceRole",
      "outputs": [],
      "stateMutability": "nonpayable",
      "type": "function"
    },
    {
      "inputs": [
        {
          "internalType": "bytes32",
          "name": "role",
          "type": "bytes32"
        },
        {
          "internalType": "address",
          "name": "account",
          "type": "address"
        }
      ],
      "name": "revokeRole",
      "outputs": [],
      "stateMutability": "nonpayable",
      "type": "function"
    },
    {
      "inputs": [
        {
          "internalType": "uint256",
          "name": "_minConfirmations",
          "type": "uint256"
        }
      ],
      "name": "setMinConfirmations",
      "outputs": [],
      "stateMutability": "nonpayable",
      "type": "function"
    },
    {
      "inputs": [
        {
          "internalType": "uint128",
          "name": "_payment",
          "type": "uint128"
        }
      ],
      "name": "setPayment",
      "outputs": [],
      "stateMutability": "nonpayable",
      "type": "function"
    },
    {
      "inputs": [
        {
          "internalType": "bytes4",
          "name": "interfaceId",
          "type": "bytes4"
        }
      ],
      "name": "supportsInterface",
      "outputs": [
        {
          "internalType": "bool",
          "name": "",
          "type": "bool"
        }
      ],
      "stateMutability": "view",
      "type": "function"
    },
    {
      "inputs": [],
      "name": "updateAvailableFunds",
      "outputs": [],
      "stateMutability": "nonpayable",
      "type": "function"
    },
    {
      "inputs": [
        {
          "internalType": "address",
          "name": "_oracle",
          "type": "address"
        },
        {
          "internalType": "address",
          "name": "_newOracle",
          "type": "address"
        }
      ],
      "name": "updateOracleAddress",
      "outputs": [],
      "stateMutability": "nonpayable",
      "type": "function"
    },
    {
      "inputs": [
        {
          "internalType": "address",
          "name": "_oracle",
          "type": "address"
        },
        {
          "internalType": "address",
          "name": "_newOracleAdmin",
          "type": "address"
        }
      ],
      "name": "updateOracleAdmin",
      "outputs": [],
      "stateMutability": "nonpayable",
      "type": "function"
    },
    {
      "inputs": [
        {
          "internalType": "address",
          "name": "_recipient",
          "type": "address"
        },
        {
          "internalType": "uint256",
          "name": "_amount",
          "type": "uint256"
        }
      ],
      "name": "withdrawFunds",
      "outputs": [],
      "stateMutability": "nonpayable",
      "type": "function"
    },
    {
      "inputs": [
        {
          "internalType": "address",
          "name": "_oracle",
          "type": "address"
        },
        {
          "internalType": "address",
          "name": "_recipient",
          "type": "address"
        },
        {
          "internalType": "uint256",
          "name": "_amount",
          "type": "uint256"
        }
      ],
      "name": "withdrawPayment",
      "outputs": [],
      "stateMutability": "nonpayable",
      "type": "function"
    },
    {
      "inputs": [
        {
          "internalType": "bytes32[]",
          "name": "_submissionIds",
          "type": "bytes32[]"
        },
        {
          "internalType": "bytes[]",
          "name": "_signatures",
          "type": "bytes[]"
        }
      ],
      "name": "submitMany",
      "outputs": [],
      "stateMutability": "nonpayable",
      "type": "function"
    },
    {
      "inputs": [
        {
          "internalType": "bytes32",
          "name": "_submissionId",
          "type": "bytes32"
        },
        {
          "internalType": "bytes",
          "name": "_signature",
          "type": "bytes"
        }
      ],
      "name": "submit",
      "outputs": [],
      "stateMutability": "nonpayable",
      "type": "function"
    },
    {
      "inputs": [
        {
          "internalType": "bytes32",
          "name": "_submissionId",
          "type": "bytes32"
        }
      ],
      "name": "isSubmissionConfirmed",
      "outputs": [
        {
          "internalType": "bool",
          "name": "",
          "type": "bool"
        }
      ],
      "stateMutability": "view",
      "type": "function"
    },
    {
      "inputs": [
        {
          "internalType": "bytes32",
          "name": "_submissionId",
          "type": "bytes32"
        }
      ],
      "name": "getUnsignedMsg",
      "outputs": [
        {
          "internalType": "bytes32",
          "name": "",
          "type": "bytes32"
        }
      ],
      "stateMutability": "pure",
      "type": "function"
    },
    {
      "inputs": [
        {
          "internalType": "bytes",
          "name": "_signature",
          "type": "bytes"
        }
      ],
      "name": "splitSignature",
      "outputs": [
        {
          "internalType": "bytes32",
          "name": "r",
          "type": "bytes32"
        },
        {
          "internalType": "bytes32",
          "name": "s",
          "type": "bytes32"
        },
        {
          "internalType": "uint8",
          "name": "v",
          "type": "uint8"
        }
      ],
      "stateMutability": "pure",
      "type": "function"
    }
  ],
  "bytecode": "0x60806040523480156200001157600080fd5b5060405162001b9c38038062001b9c833981016040819052620000349162000159565b60018390556001600160801b038216600455600580546001600160a01b0319166001600160a01b03831617905582828262000071600033620000a9565b6200009d7f68e79a7bf1e0bc45d0a330c573bc367f9cf464fd326078812f301165fbda4ef133620000a9565b505050505050620001b5565b620000b58282620000b9565b5050565b6000828152602081815260408083206001600160a01b038516845290915290205460ff16620000b5576000828152602081815260408083206001600160a01b03851684529091529020805460ff19166001179055620001153390565b6001600160a01b0316816001600160a01b0316837f2f8788117e7eff1d82e926ec794901d17c78024a50270940304540a733656f0d60405160405180910390a45050565b6000806000606084860312156200016e578283fd5b835160208501519093506001600160801b03811681146200018d578283fd5b60408501519092506001600160a01b0381168114620001aa578182fd5b809150509250925092565b6119d780620001c56000396000f3fe608060405234801561001057600080fd5b50600436106101e55760003560e01c80634fbca33e1161010f578063c3d990ee116100a2578063e75a592611610071578063e75a5926146104a5578063e7c4393e146104b8578063f0ca4adb146104c1578063fdc85fc4146104d4576101e5565b8063c3d990ee14610463578063d282165514610476578063d4cc54e414610489578063d547741f14610492576101e5565b8063a4c0ed36116100de578063a4c0ed36146103bf578063a7bb5803146103d2578063bfdb6b0414610403578063c107532914610450576101e5565b80634fbca33e1461037e57806382313e501461039157806391d14854146103a4578063a217fddf146103b7576101e5565b806332cc6ae61161018757806342f6487a1161015657806342f6487a1461035157806346fcff4c1461035a57806348f6179c146103635780634f8fc3b514610376576101e5565b806332cc6ae6146102ef57806336568abe146103185780633d3d77141461032b5780633d5376fa1461033e576101e5565b80631c4695f4116101c35780631c4695f414610279578063248a9ca3146102a45780632f2ff15d146102c75780632f99e4da146102dc576101e5565b806301ffc9a7146101ea57806307e2cea5146102125780630e3b90a914610235575b600080fd5b6101fd6101f836600461177e565b6104e7565b60405190151581526020015b60405180910390f35b61022760008051602061198283398151915281565b604051908152602001610209565b610262610243366004611709565b6007602052600090815260409020805460019091015460ff9091169082565b604080519215158352602083019190915201610209565b60055461028c906001600160a01b031681565b6040516001600160a01b039091168152602001610209565b6102276102b2366004611709565b60009081526020819052604090206001015490565b6102da6102d5366004611721565b610520565b005b6101fd6102ea366004611709565b6105b4565b6102276102fd3660046114f9565b6001600160a01b031660009081526006602052604090205490565b6102da610326366004611721565b6105e7565b6102da61033936600461154c565b610661565b6102da61034c366004611743565b610842565b61022760045481565b61022760035481565b6102da61037136600461151a565b610880565b6102da61094d565b6102da61038c366004611632565b6109da565b6102da61039f3660046117e1565b610af7565b6101fd6103b2366004611721565b610b2c565b610227600081565b6102da6103cd3660046115b0565b610b55565b6103e56103e03660046117a6565b610c05565b60408051938452602084019290925260ff1690820152606001610209565b6104336104113660046114f9565b600660205260009081526040902080546001909101546001600160a01b031682565b604080519283526001600160a01b03909116602083015201610209565b6102da61045e366004611587565b610c8a565b610227610471366004611709565b610ddd565b6102da610484366004611709565b610e30565b61022760025481565b6102da6104a0366004611721565b610e5c565b6102da6104b336600461151a565b610edc565b61022760015481565b6102da6104cf36600461151a565b610f8b565b6102da6104e23660046114f9565b610fca565b60006001600160e01b03198216637965db0b60e01b148061051857506301ffc9a760e01b6001600160e01b03198316145b90505b919050565b60008281526020819052604090206001015461053d905b336103b2565b6105a65760405162461bcd60e51b815260206004820152602f60248201527f416363657373436f6e74726f6c3a2073656e646572206d75737420626520616e60448201526e0818591b5a5b881d1bc819dc985b9d608a1b60648201526084015b60405180910390fd5b6105b0828261100c565b5050565b60008181526007602052604081205460ff1680610518575050600180546000928352600760205260409092200154101590565b6001600160a01b03811633146106575760405162461bcd60e51b815260206004820152602f60248201527f416363657373436f6e74726f6c3a2063616e206f6e6c792072656e6f756e636560448201526e103937b632b9903337b91039b2b63360891b606482015260840161059d565b6105b08282611090565b6001600160a01b038381166000908152600660205260409020600101541633146106dd5760405162461bcd60e51b815260206004820152602760248201527f77697468647261775061796d656e743a206f6e6c792063616c6c61626c6520626044820152663c9030b236b4b760c91b606482015260840161059d565b6001600160a01b0383166000908152600660205260409020548181101561075f5760405162461bcd60e51b815260206004820152603060248201527f77697468647261775061796d656e743a20696e73756666696369656e7420776960448201526f74686472617761626c652066756e647360801b606482015260840161059d565b61076982826118e8565b6001600160a01b038516600090815260066020526040812091909155600280548492906107979084906118e8565b909155505060055460405163a9059cbb60e01b81526001600160a01b038581166004830152602482018590529091169063a9059cbb90604401602060405180830381600087803b1580156107ea57600080fd5b505af11580156107fe573d6000803e3d6000fd5b505050506040513d601f19601f8201168201806040525081019061082291906116e9565b61083c57634e487b7160e01b600052600160045260246000fd5b50505050565b61085a60008051602061198283398151915233610b2c565b6108765760405162461bcd60e51b815260040161059d9061184d565b6105b082826110f5565b6001600160a01b038281166000908152600660205260409020600101541633146109005760405162461bcd60e51b815260206004820152602b60248201527f7570646174654f7261636c65416464726573733a206f6e6c792063616c6c616260448201526a363290313c9030b236b4b760a91b606482015260840161059d565b6001600160a01b0390811660009081526006602052604080822060018082018054336001600160a01b03199182161790915595909416835290822080549091559081550180549091169055565b6002546005546040516370a0823160e01b81523060048201526001600160a01b03909116906370a082319060240160206040518083038186803b15801561099357600080fd5b505afa1580156109a7573d6000803e3d6000fd5b505050506040513d601f19601f820116820180604052508101906109cb9190611808565b6109d591906118e8565b600355565b6109f260008051602061198283398151915233610b2c565b610a0e5760405162461bcd60e51b815260040161059d9061184d565b8051825114610a7c5760405162461bcd60e51b815260206004820152603460248201527f7375626d69744d616e793a207369676e61747572657320616e64207375626d696044820152730e6e6d2dedc40c6deeadce840dad2e6dac2e8c6d60631b606482015260840161059d565b60005b8251811015610af257610ae0838281518110610aab57634e487b7160e01b600052603260045260246000fd5b6020026020010151838381518110610ad357634e487b7160e01b600052603260045260246000fd5b60200260200101516110f5565b80610aea8161193a565b915050610a7f565b505050565b610b02600033610b2c565b610b1e5760405162461bcd60e51b815260040161059d90611820565b6001600160801b0316600455565b6000918252602082815260408084206001600160a01b0393909316845291905290205460ff1690565b6005546001600160a01b03163314610baf5760405162461bcd60e51b815260206004820152601d60248201527f6f6e546f6b656e5472616e736665723a206e6f7420746865204c696e6b000000604482015260640161059d565b8015610bfd5760405162461bcd60e51b815260206004820181905260248201527f7472616e7366657220646f65736e2774206163636570742063616c6c64617461604482015260640161059d565b61083c61094d565b60008060008351604114610c6c5760405162461bcd60e51b815260206004820152602860248201527f73706c69745369676e61747572653a20696e76616c6964207369676e617475726044820152670ca40d8cadccee8d60c31b606482015260840161059d565b50505060208101516040820151606090920151909260009190911a90565b610c95600033610b2c565b610cb15760405162461bcd60e51b815260040161059d90611820565b806003541015610d035760405162461bcd60e51b815260206004820152601a60248201527f696e73756666696369656e7420726573657276652066756e6473000000000000604482015260640161059d565b60055460405163a9059cbb60e01b81526001600160a01b038481166004830152602482018490529091169063a9059cbb90604401602060405180830381600087803b158015610d5157600080fd5b505af1158015610d65573d6000803e3d6000fd5b505050506040513d601f19601f82011682018060405250810190610d8991906116e9565b610dd55760405162461bcd60e51b815260206004820152601e60248201527f776974686472617746756e64733a207472616e73666572206661696c65640000604482015260640161059d565b6105b061094d565b6040517f19457468657265756d205369676e6564204d6573736167653a0a3332000000006020820152603c8101829052600090605c01604051602081830303815290604052805190602001209050919050565b610e3b600033610b2c565b610e575760405162461bcd60e51b815260040161059d90611820565b600155565b600082815260208190526040902060010154610e7790610537565b6106575760405162461bcd60e51b815260206004820152603060248201527f416363657373436f6e74726f6c3a2073656e646572206d75737420626520616e60448201526f2061646d696e20746f207265766f6b6560801b606482015260840161059d565b6001600160a01b03828116600090815260066020526040902060010154163314610f5a5760405162461bcd60e51b815260206004820152602960248201527f7570646174654f7261636c6541646d696e3a206f6e6c792063616c6c61626c6560448201526810313c9030b236b4b760b91b606482015260840161059d565b6001600160a01b03918216600090815260066020526040902060010180546001600160a01b03191691909216179055565b610f96600033610b2c565b610fb25760405162461bcd60e51b815260040161059d90611820565b610f5a60008051602061198283398151915283610520565b610fd5600033610b2c565b610ff15760405162461bcd60e51b815260040161059d90611820565b61100960008051602061198283398151915282610e5c565b50565b6110168282610b2c565b6105b0576000828152602081815260408083206001600160a01b03851684529091529020805460ff1916600117905561104c3390565b6001600160a01b0316816001600160a01b0316837f2f8788117e7eff1d82e926ec794901d17c78024a50270940304540a733656f0d60405160405180910390a45050565b61109a8282610b2c565b156105b0576000828152602081815260408083206001600160a01b0385168085529252808320805460ff1916905551339285917ff6391f5c32d9c69d2a47ea670b442974b53935d1edc7fd64eb21e047a839171b9190a45050565b6000828152600760209081526040808320338452600381019092529091205460ff16156111645760405162461bcd60e51b815260206004820152601960248201527f7375626d69743a207375626d697474656420616c726561647900000000000000604482015260640161059d565b600080600061117285610c05565b925092509250600061118387610ddd565b6040805160008082526020820180845284905260ff86169282019290925260608101879052608081018690529192509060019060a0016020604051602081039080840390855afa1580156111db573d6000803e3d6000fd5b5050604051601f190151915050336001600160a01b038216146112105760405162461bcd60e51b815260040161059d9061184d565b600186600101600082825461122591906118d0565b909155505060028601805460018101825560009182526020918290208951611255939190920191908a0190611377565b503360009081526003870160205260409020805460ff19166001908117909155805490870154106112c657855460ff191660011786556040517f2a6b4960c287d4d53a338f9c9a9f830f37e7b66e67a0a958f68be89a4eeb939d906112bd908a815260200190565b60405180910390a15b6112cf33611311565b604080518981523360208201527fd4964a7cd99f5c1fa8f2420fb5e1d3bd26eadf16e2658cf2e29a67dfda38601e910160405180910390a15050505050505050565b6004546003600082825461132591906118e8565b90915550506004546002805460009061133f9084906118d0565b90915550506004546001600160a01b0382166000908152600660205260408120805490919061136f9084906118d0565b909155505050565b828054611383906118ff565b90600052602060002090601f0160209004810192826113a557600085556113eb565b82601f106113be57805160ff19168380011785556113eb565b828001600101855582156113eb579182015b828111156113eb5782518255916020019190600101906113d0565b506113f79291506113fb565b5090565b5b808211156113f757600081556001016113fc565b80356001600160a01b038116811461051b57600080fd5b600082601f830112611437578081fd5b8135602061144c611447836118ac565b61187b565b82815281810190858301855b858110156114815761146f898684358b010161148e565b84529284019290840190600101611458565b5090979650505050505050565b600082601f83011261149e578081fd5b813567ffffffffffffffff8111156114b8576114b861196b565b6114cb601f8201601f191660200161187b565b8181528460208386010111156114df578283fd5b816020850160208301379081016020019190915292915050565b60006020828403121561150a578081fd5b61151382611410565b9392505050565b6000806040838503121561152c578081fd5b61153583611410565b915061154360208401611410565b90509250929050565b600080600060608486031215611560578081fd5b61156984611410565b925061157760208501611410565b9150604084013590509250925092565b60008060408385031215611599578182fd5b6115a283611410565b946020939093013593505050565b600080600080606085870312156115c5578081fd5b6115ce85611410565b935060208501359250604085013567ffffffffffffffff808211156115f1578283fd5b818701915087601f830112611604578283fd5b813581811115611612578384fd5b886020828501011115611623578384fd5b95989497505060200194505050565b60008060408385031215611644578182fd5b823567ffffffffffffffff8082111561165b578384fd5b818501915085601f83011261166e578384fd5b8135602061167e611447836118ac565b82815281810190858301838502870184018b101561169a578889fd5b8896505b848710156116bc57803583526001969096019591830191830161169e565b50965050860135925050808211156116d2578283fd5b506116df85828601611427565b9150509250929050565b6000602082840312156116fa578081fd5b81518015158114611513578182fd5b60006020828403121561171a578081fd5b5035919050565b60008060408385031215611733578182fd5b8235915061154360208401611410565b60008060408385031215611755578182fd5b82359150602083013567ffffffffffffffff811115611772578182fd5b6116df8582860161148e565b60006020828403121561178f578081fd5b81356001600160e01b031981168114611513578182fd5b6000602082840312156117b7578081fd5b813567ffffffffffffffff8111156117cd578182fd5b6117d98482850161148e565b949350505050565b6000602082840312156117f2578081fd5b81356001600160801b0381168114611513578182fd5b600060208284031215611819578081fd5b5051919050565b6020808252601390820152726f6e6c7941646d696e3a2062616420726f6c6560681b604082015260600190565b6020808252601490820152736f6e6c794f7261636c653a2062616420726f6c6560601b604082015260600190565b604051601f8201601f1916810167ffffffffffffffff811182821017156118a4576118a461196b565b604052919050565b600067ffffffffffffffff8211156118c6576118c661196b565b5060209081020190565b600082198211156118e3576118e3611955565b500190565b6000828210156118fa576118fa611955565b500390565b60028104600182168061191357607f821691505b6020821081141561193457634e487b7160e01b600052602260045260246000fd5b50919050565b600060001982141561194e5761194e611955565b5060010190565b634e487b7160e01b600052601160045260246000fd5b634e487b7160e01b600052604160045260246000fdfe68e79a7bf1e0bc45d0a330c573bc367f9cf464fd326078812f301165fbda4ef1a2646970667358221220c28ecc389939e5d312753e7e9f45de9f5408919c1c86ffcf3d23fa31d55646e964736f6c63430008020033",
  "immutableReferences": {},
  "source": "// SPDX-License-Identifier: MIT\npragma solidity ^0.8.2;\n\nimport \"@openzeppelin/contracts/access/AccessControl.sol\";\nimport \"@openzeppelin/contracts/token/ERC20/IERC20.sol\";\nimport \"./Aggregator.sol\";\nimport \"../interfaces/IWhiteLightAggregator.sol\";\n\ncontract WhiteLightAggregator is Aggregator, IWhiteLightAggregator {\n    struct SubmissionInfo {\n        bool confirmed; // whether is confirmed\n        uint256 confirmations; // received confirmations count\n        bytes[] signatures;\n        mapping(address => bool) hasVerified; // verifier => has already voted\n    }\n\n    mapping(bytes32 => SubmissionInfo) public getSubmissionInfo; // mint id => submission info\n\n    event Confirmed(bytes32 submissionId, address operator); // emitted once the submission is confirmed by one oracle\n    event SubmissionApproved(bytes32 submissionId); // emitted once the submission is confirmed by min required aount of oracles\n\n    /// @dev Constructor that initializes the most important configurations.\n    /// @param _minConfirmations Minimal required confirmations.\n    /// @param _payment Oracle reward.\n    /// @param _link Link token to pay to oracles.\n    constructor(\n        uint256 _minConfirmations,\n        uint128 _payment,\n        IERC20 _link\n    ) Aggregator(_minConfirmations, _payment, _link) {}\n\n    /// @dev Confirms few transfer requests.\n    /// @param _submissionIds Submission identifiers.\n    /// @param _signatures Oracles signature.\n    function submitMany(\n        bytes32[] memory _submissionIds,\n        bytes[] memory _signatures\n    ) external override onlyOracle {\n        require(\n            _submissionIds.length == _signatures.length,\n            \"submitMany: signatures and submission count mismatch\"\n        );\n        for (uint256 i; i < _submissionIds.length; i++) {\n            _submit(_submissionIds[i], _signatures[i]);\n        }\n    }\n\n    /// @dev Confirms the transfer request.\n    /// @param _submissionId Submission identifier.\n    /// @param _signature Oracle's signature.\n    function submit(bytes32 _submissionId, bytes memory _signature)\n        external\n        override\n        onlyOracle\n    {\n        _submit(_submissionId, _signature);\n    }\n\n    /// @dev Confirms single transfer request.\n    /// @param _submissionId Submission identifier.\n    /// @param _signature Oracle's signature.\n    function _submit(bytes32 _submissionId, bytes memory _signature) internal {\n        SubmissionInfo storage submissionInfo =\n            getSubmissionInfo[_submissionId];\n        require(\n            !submissionInfo.hasVerified[msg.sender],\n            \"submit: submitted already\"\n        );\n        (bytes32 r, bytes32 s, uint8 v) = splitSignature(_signature);\n        bytes32 unsignedMsg = getUnsignedMsg(_submissionId);\n        address oracle = ecrecover(unsignedMsg, v, r, s);\n        require(msg.sender == oracle, \"onlyOracle: bad role\");\n        submissionInfo.confirmations += 1;\n        submissionInfo.signatures.push(_signature);\n        submissionInfo.hasVerified[msg.sender] = true;\n        if (submissionInfo.confirmations >= minConfirmations) {\n            submissionInfo.confirmed = true;\n            emit SubmissionApproved(_submissionId);\n        }\n        _payOracle(msg.sender);\n        emit Confirmed(_submissionId, msg.sender);\n    }\n\n    /// @dev Returns whether transfer request is confirmed.\n    /// @param _submissionId Submission identifier.\n    /// @return Whether transfer request is confirmed.\n    function isSubmissionConfirmed(bytes32 _submissionId)\n        external\n        view\n        override\n        returns (bool)\n    {\n        return\n            getSubmissionInfo[_submissionId].confirmed ||\n            getSubmissionInfo[_submissionId].confirmations >= minConfirmations;\n    }\n\n    /// @dev Prepares raw msg that was signed by the oracle.\n    /// @param _submissionId Submission identifier.\n    function getUnsignedMsg(bytes32 _submissionId)\n        public\n        pure\n        returns (bytes32)\n    {\n        return\n            keccak256(\n                abi.encodePacked(\n                    \"\\x19Ethereum Signed Message:\\n32\",\n                    _submissionId\n                )\n            );\n    }\n\n    /// @dev Splits signature bytes to r,s,v components.\n    /// @param _signature Signature bytes in format r+s+v.\n    function splitSignature(bytes memory _signature)\n        public\n        pure\n        returns (\n            bytes32 r,\n            bytes32 s,\n            uint8 v\n        )\n    {\n        require(\n            _signature.length == 65,\n            \"splitSignature: invalid signature length\"\n        );\n        assembly {\n            r := mload(add(_signature, 32))\n            s := mload(add(_signature, 64))\n            v := byte(0, mload(add(_signature, 96)))\n        }\n    }\n}\n",
  "sourcePath": "/Users/kstasi/Documents/side/debridge-contracts/contracts/chainlink/WhiteLightAggregator.sol",
  "compiler": {
    "name": "solc",
    "version": "0.8.2+commit.661d1103.Emscripten.clang"
  },
  "schemaVersion": "3.3.4",
  "updatedAt": "2021-05-28T05:59:06.965Z",
  "devdoc": {
    "kind": "dev",
    "methods": {
      "addOracle(address,address)": {
        "details": "Add new oracle.",
        "params": {
          "_admin": "Admin address.",
          "_oracle": "Oracle address."
        }
      },
      "constructor": {
        "details": "Constructor that initializes the most important configurations.",
        "params": {
          "_link": "Link token to pay to oracles.",
          "_minConfirmations": "Minimal required confirmations.",
          "_payment": "Oracle reward."
        }
      },
      "getRoleAdmin(bytes32)": {
        "details": "Returns the admin role that controls `role`. See {grantRole} and {revokeRole}. To change a role's admin, use {_setRoleAdmin}."
      },
      "getUnsignedMsg(bytes32)": {
        "details": "Prepares raw msg that was signed by the oracle.",
        "params": {
          "_submissionId": "Submission identifier."
        }
      },
      "getWithdrawable(address)": {
        "details": "Return's oracle reward.",
        "params": {
          "_oracle": "Oracle address."
        },
        "returns": {
          "_0": "Oracle rewards."
        }
      },
      "grantRole(bytes32,address)": {
        "details": "Grants `role` to `account`. If `account` had not been already granted `role`, emits a {RoleGranted} event. Requirements: - the caller must have ``role``'s admin role."
      },
      "hasRole(bytes32,address)": {
        "details": "Returns `true` if `account` has been granted `role`."
      },
      "isSubmissionConfirmed(bytes32)": {
        "details": "Returns whether transfer request is confirmed.",
        "params": {
          "_submissionId": "Submission identifier."
        },
        "returns": {
          "_0": "Whether transfer request is confirmed."
        }
      },
      "onTokenTransfer(address,uint256,bytes)": {
        "details": "Updates link balance.",
        "params": {
          "_data": "Call data."
        }
      },
      "removeOracle(address)": {
        "details": "Remove oracle.",
        "params": {
          "_oracle": "Oracle address."
        }
      },
      "renounceRole(bytes32,address)": {
        "details": "Revokes `role` from the calling account. Roles are often managed via {grantRole} and {revokeRole}: this function's purpose is to provide a mechanism for accounts to lose their privileges if they are compromised (such as when a trusted device is misplaced). If the calling account had been granted `role`, emits a {RoleRevoked} event. Requirements: - the caller must be `account`."
      },
      "revokeRole(bytes32,address)": {
        "details": "Revokes `role` from `account`. If `account` had been granted `role`, emits a {RoleRevoked} event. Requirements: - the caller must have ``role``'s admin role."
      },
      "setMinConfirmations(uint256)": {
        "details": "Sets minimal required confirmations.",
        "params": {
          "_minConfirmations": "Minimal required confirmations."
        }
      },
      "setPayment(uint128)": {
        "details": "Sets new oracle reward.",
        "params": {
          "_payment": "Oracle reward."
        }
      },
      "splitSignature(bytes)": {
        "details": "Splits signature bytes to r,s,v components.",
        "params": {
          "_signature": "Signature bytes in format r+s+v."
        }
      },
      "submit(bytes32,bytes)": {
        "details": "Confirms the transfer request.",
        "params": {
          "_signature": "Oracle's signature.",
          "_submissionId": "Submission identifier."
        }
      },
      "submitMany(bytes32[],bytes[])": {
        "details": "Confirms few transfer requests.",
        "params": {
          "_signatures": "Oracles signature.",
          "_submissionIds": "Submission identifiers."
        }
      },
      "supportsInterface(bytes4)": {
        "details": "See {IERC165-supportsInterface}."
      },
      "updateAvailableFunds()": {
        "details": "Updates available rewards to be distributed."
      },
      "updateOracleAddress(address,address)": {
        "details": "Updates oracle's address.",
        "params": {
          "_newOracle": "New oracle address.",
          "_oracle": "Oracle address."
        }
      },
      "updateOracleAdmin(address,address)": {
        "details": "Updates oracle's admin address.",
        "params": {
          "_newOracleAdmin": "New oracle address.",
          "_oracle": "Oracle address."
        }
      },
      "withdrawFunds(address,uint256)": {
        "details": "Withdraws earned LINK's.",
        "params": {
          "_amount": "Amount to withdraw.",
          "_recipient": "Reward's recepient."
        }
      },
      "withdrawPayment(address,address,uint256)": {
        "details": "Withdraws oracle reward.",
        "params": {
          "_amount": "Amount to withdraw.",
          "_oracle": "Oracle address.",
          "_recipient": "Recepient reward."
        }
      }
    },
    "version": 1
  },
  "userdoc": {
    "kind": "user",
    "methods": {},
    "version": 1
  }
}