{
  "contractName": "WhiteFullAggregator",
  "abi": [
    {
      "inputs": [
        {
          "internalType": "uint256",
          "name": "_minConfirmations",
          "type": "uint256"
        },
        {
          "internalType": "uint128",
          "name": "_payment",
          "type": "uint128"
        },
        {
          "internalType": "contract IERC20",
          "name": "_link",
          "type": "address"
        }
      ],
      "stateMutability": "nonpayable",
      "type": "constructor"
    },
    {
      "anonymous": false,
      "inputs": [
        {
          "indexed": false,
          "internalType": "bytes32",
          "name": "submissionId",
          "type": "bytes32"
        },
        {
          "indexed": false,
          "internalType": "address",
          "name": "operator",
          "type": "address"
        }
      ],
      "name": "Confirmed",
      "type": "event"
    },
    {
      "anonymous": false,
      "inputs": [
        {
          "indexed": true,
          "internalType": "bytes32",
          "name": "role",
          "type": "bytes32"
        },
        {
          "indexed": true,
          "internalType": "bytes32",
          "name": "previousAdminRole",
          "type": "bytes32"
        },
        {
          "indexed": true,
          "internalType": "bytes32",
          "name": "newAdminRole",
          "type": "bytes32"
        }
      ],
      "name": "RoleAdminChanged",
      "type": "event"
    },
    {
      "anonymous": false,
      "inputs": [
        {
          "indexed": true,
          "internalType": "bytes32",
          "name": "role",
          "type": "bytes32"
        },
        {
          "indexed": true,
          "internalType": "address",
          "name": "account",
          "type": "address"
        },
        {
          "indexed": true,
          "internalType": "address",
          "name": "sender",
          "type": "address"
        }
      ],
      "name": "RoleGranted",
      "type": "event"
    },
    {
      "anonymous": false,
      "inputs": [
        {
          "indexed": true,
          "internalType": "bytes32",
          "name": "role",
          "type": "bytes32"
        },
        {
          "indexed": true,
          "internalType": "address",
          "name": "account",
          "type": "address"
        },
        {
          "indexed": true,
          "internalType": "address",
          "name": "sender",
          "type": "address"
        }
      ],
      "name": "RoleRevoked",
      "type": "event"
    },
    {
      "anonymous": false,
      "inputs": [
        {
          "indexed": false,
          "internalType": "bytes32",
          "name": "submissionId",
          "type": "bytes32"
        }
      ],
      "name": "SubmissionApproved",
      "type": "event"
    },
    {
      "inputs": [],
      "name": "DEFAULT_ADMIN_ROLE",
      "outputs": [
        {
          "internalType": "bytes32",
          "name": "",
          "type": "bytes32"
        }
      ],
      "stateMutability": "view",
      "type": "function"
    },
    {
      "inputs": [],
      "name": "ORACLE_ROLE",
      "outputs": [
        {
          "internalType": "bytes32",
          "name": "",
          "type": "bytes32"
        }
      ],
      "stateMutability": "view",
      "type": "function"
    },
    {
      "inputs": [
        {
          "internalType": "address",
          "name": "_oracle",
          "type": "address"
        },
        {
          "internalType": "address",
          "name": "_admin",
          "type": "address"
        }
      ],
      "name": "addOracle",
      "outputs": [],
      "stateMutability": "nonpayable",
      "type": "function"
    },
    {
      "inputs": [],
      "name": "allocatedFunds",
      "outputs": [
        {
          "internalType": "uint256",
          "name": "",
          "type": "uint256"
        }
      ],
      "stateMutability": "view",
      "type": "function"
    },
    {
      "inputs": [],
      "name": "availableFunds",
      "outputs": [
        {
          "internalType": "uint256",
          "name": "",
          "type": "uint256"
        }
      ],
      "stateMutability": "view",
      "type": "function"
    },
    {
      "inputs": [
        {
          "internalType": "address",
          "name": "",
          "type": "address"
        }
      ],
      "name": "getOracleInfo",
      "outputs": [
        {
          "internalType": "uint256",
          "name": "withdrawable",
          "type": "uint256"
        },
        {
          "internalType": "address",
          "name": "admin",
          "type": "address"
        }
      ],
      "stateMutability": "view",
      "type": "function"
    },
    {
      "inputs": [
        {
          "internalType": "bytes32",
          "name": "role",
          "type": "bytes32"
        }
      ],
      "name": "getRoleAdmin",
      "outputs": [
        {
          "internalType": "bytes32",
          "name": "",
          "type": "bytes32"
        }
      ],
      "stateMutability": "view",
      "type": "function"
    },
    {
      "inputs": [
        {
          "internalType": "bytes32",
          "name": "",
          "type": "bytes32"
        }
      ],
      "name": "getSubmissionInfo",
      "outputs": [
        {
          "internalType": "bool",
          "name": "confirmed",
          "type": "bool"
        },
        {
          "internalType": "uint256",
          "name": "confirmations",
          "type": "uint256"
        }
      ],
      "stateMutability": "view",
      "type": "function"
    },
    {
      "inputs": [
        {
          "internalType": "bytes32",
          "name": "role",
          "type": "bytes32"
        },
        {
          "internalType": "address",
          "name": "account",
          "type": "address"
        }
      ],
      "name": "grantRole",
      "outputs": [],
      "stateMutability": "nonpayable",
      "type": "function"
    },
    {
      "inputs": [
        {
          "internalType": "bytes32",
          "name": "role",
          "type": "bytes32"
        },
        {
          "internalType": "address",
          "name": "account",
          "type": "address"
        }
      ],
      "name": "hasRole",
      "outputs": [
        {
          "internalType": "bool",
          "name": "",
          "type": "bool"
        }
      ],
      "stateMutability": "view",
      "type": "function"
    },
    {
      "inputs": [],
      "name": "link",
      "outputs": [
        {
          "internalType": "contract IERC20",
          "name": "",
          "type": "address"
        }
      ],
      "stateMutability": "view",
      "type": "function"
    },
    {
      "inputs": [],
      "name": "minConfirmations",
      "outputs": [
        {
          "internalType": "uint256",
          "name": "",
          "type": "uint256"
        }
      ],
      "stateMutability": "view",
      "type": "function"
    },
    {
      "inputs": [
        {
          "internalType": "address",
          "name": "",
          "type": "address"
        },
        {
          "internalType": "uint256",
          "name": "",
          "type": "uint256"
        },
        {
          "internalType": "bytes",
          "name": "_data",
          "type": "bytes"
        }
      ],
      "name": "onTokenTransfer",
      "outputs": [],
      "stateMutability": "nonpayable",
      "type": "function"
    },
    {
      "inputs": [],
      "name": "payment",
      "outputs": [
        {
          "internalType": "uint256",
          "name": "",
          "type": "uint256"
        }
      ],
      "stateMutability": "view",
      "type": "function"
    },
    {
      "inputs": [
        {
          "internalType": "address",
          "name": "_oracle",
          "type": "address"
        }
      ],
      "name": "removeOracle",
      "outputs": [],
      "stateMutability": "nonpayable",
      "type": "function"
    },
    {
      "inputs": [
        {
          "internalType": "bytes32",
          "name": "role",
          "type": "bytes32"
        },
        {
          "internalType": "address",
          "name": "account",
          "type": "address"
        }
      ],
      "name": "renounceRole",
      "outputs": [],
      "stateMutability": "nonpayable",
      "type": "function"
    },
    {
      "inputs": [
        {
          "internalType": "bytes32",
          "name": "role",
          "type": "bytes32"
        },
        {
          "internalType": "address",
          "name": "account",
          "type": "address"
        }
      ],
      "name": "revokeRole",
      "outputs": [],
      "stateMutability": "nonpayable",
      "type": "function"
    },
    {
      "inputs": [
        {
          "internalType": "uint256",
          "name": "_minConfirmations",
          "type": "uint256"
        }
      ],
      "name": "setMinConfirmations",
      "outputs": [],
      "stateMutability": "nonpayable",
      "type": "function"
    },
    {
      "inputs": [
        {
          "internalType": "uint128",
          "name": "_payment",
          "type": "uint128"
        }
      ],
      "name": "setPayment",
      "outputs": [],
      "stateMutability": "nonpayable",
      "type": "function"
    },
    {
      "inputs": [
        {
          "internalType": "bytes4",
          "name": "interfaceId",
          "type": "bytes4"
        }
      ],
      "name": "supportsInterface",
      "outputs": [
        {
          "internalType": "bool",
          "name": "",
          "type": "bool"
        }
      ],
      "stateMutability": "view",
      "type": "function"
    },
    {
      "inputs": [],
      "name": "updateAvailableFunds",
      "outputs": [],
      "stateMutability": "nonpayable",
      "type": "function"
    },
    {
      "inputs": [
        {
          "internalType": "address",
          "name": "_oracle",
          "type": "address"
        },
        {
          "internalType": "address",
          "name": "_newOracleAdmin",
          "type": "address"
        }
      ],
      "name": "updateOracleAddminAddress",
      "outputs": [],
      "stateMutability": "nonpayable",
      "type": "function"
    },
    {
      "inputs": [
        {
          "internalType": "address",
          "name": "_oracle",
          "type": "address"
        },
        {
          "internalType": "address",
          "name": "_newOracle",
          "type": "address"
        }
      ],
      "name": "updateOracleAddress",
      "outputs": [],
      "stateMutability": "nonpayable",
      "type": "function"
    },
    {
      "inputs": [
        {
          "internalType": "address",
          "name": "_recipient",
          "type": "address"
        },
        {
          "internalType": "uint256",
          "name": "_amount",
          "type": "uint256"
        }
      ],
      "name": "withdrawFunds",
      "outputs": [],
      "stateMutability": "nonpayable",
      "type": "function"
    },
    {
      "inputs": [
        {
          "internalType": "address",
          "name": "_oracle",
          "type": "address"
        },
        {
          "internalType": "address",
          "name": "_recipient",
          "type": "address"
        },
        {
          "internalType": "uint256",
          "name": "_amount",
          "type": "uint256"
        }
      ],
      "name": "withdrawPayment",
      "outputs": [],
      "stateMutability": "nonpayable",
      "type": "function"
    },
    {
      "inputs": [
        {
          "internalType": "address",
          "name": "_oracle",
          "type": "address"
        }
      ],
      "name": "withdrawablePayment",
      "outputs": [
        {
          "internalType": "uint256",
          "name": "",
          "type": "uint256"
        }
      ],
      "stateMutability": "view",
      "type": "function"
    },
    {
      "inputs": [
        {
          "internalType": "bytes32",
          "name": "_submissionId",
          "type": "bytes32"
        }
      ],
      "name": "submit",
      "outputs": [],
      "stateMutability": "nonpayable",
      "type": "function"
    },
    {
      "inputs": [
        {
          "internalType": "bytes32",
          "name": "_submissionId",
          "type": "bytes32"
        }
      ],
      "name": "isSubmissionConfirmed",
      "outputs": [
        {
          "internalType": "bool",
          "name": "",
          "type": "bool"
        }
      ],
      "stateMutability": "view",
      "type": "function"
    }
  ],
  "bytecode": "0x60806040523480156200001157600080fd5b50604051620014cc380380620014cc833981016040819052620000349162000159565b60018390556001600160801b038216600455600580546001600160a01b0319166001600160a01b03831617905582828262000071600033620000a9565b6200009d7f68e79a7bf1e0bc45d0a330c573bc367f9cf464fd326078812f301165fbda4ef133620000a9565b505050505050620001b5565b620000b58282620000b9565b5050565b6000828152602081815260408083206001600160a01b038516845290915290205460ff16620000b5576000828152602081815260408083206001600160a01b03851684529091529020805460ff19166001179055620001153390565b6001600160a01b0316816001600160a01b0316837f2f8788117e7eff1d82e926ec794901d17c78024a50270940304540a733656f0d60405160405180910390a45050565b6000806000606084860312156200016e578283fd5b835160208501519093506001600160801b03811681146200018d578283fd5b60408501519092506001600160a01b0381168114620001aa578182fd5b809150509250925092565b61130780620001c56000396000f3fe608060405234801561001057600080fd5b50600436106101c45760003560e01c806391d14854116100f9578063d4cc54e411610097578063e2e4031711610071578063e2e4031714610427578063e7c4393e14610450578063f0ca4adb14610459578063fdc85fc41461046c576101c4565b8063d4cc54e4146103f8578063d547741f14610401578063d9caa3d214610414576101c4565b8063a4c0ed36116100d3578063a4c0ed3614610372578063bfdb6b0414610385578063c1075329146103d2578063d2821655146103e5576101c4565b806391d14854146103445780639e4bea1014610357578063a217fddf1461036a576101c4565b806336568abe1161016657806346fcff4c1161014057806346fcff4c1461030d57806348f6179c146103165780634f8fc3b51461032957806382313e5014610331576101c4565b806336568abe146102de5780633d3d7714146102f157806342f6487a14610304576101c4565b80631c4695f4116101a25780631c4695f414610258578063248a9ca3146102835780632f2ff15d146102a65780632f99e4da146102bb576101c4565b806301ffc9a7146101c957806307e2cea5146101f15780630e3b90a914610214575b600080fd5b6101dc6101d73660046111d8565b61047f565b60405190151581526020015b60405180910390f35b6102066000805160206112b283398151915281565b6040519081526020016101e8565b61024161022236600461119e565b6007602052600090815260409020805460019091015460ff9091169082565b6040805192151583526020830191909152016101e8565b60055461026b906001600160a01b031681565b6040516001600160a01b0390911681526020016101e8565b61020661029136600461119e565b60009081526020819052604090206001015490565b6102b96102b43660046111b6565b6104b8565b005b6101dc6102c936600461119e565b60009081526007602052604090205460ff1690565b6102b96102ec3660046111b6565b61054c565b6102b96102ff366004611098565b6105c6565b61020660045481565b61020660035481565b6102b9610324366004611066565b6107a7565b6102b9610874565b6102b961033f366004611200565b610901565b6101dc6103523660046111b6565b610936565b6102b9610365366004611066565b61095f565b610206600081565b6102b96103803660046110fc565b610a16565b6103b5610393366004611045565b600660205260009081526040902080546001909101546001600160a01b031682565b604080519283526001600160a01b039091166020830152016101e8565b6102b96103e03660046110d3565b610ac6565b6102b96103f336600461119e565b610c19565b61020660025481565b6102b961040f3660046111b6565b610c45565b6102b961042236600461119e565b610cc5565b610206610435366004611045565b6001600160a01b031660009081526006602052604090205490565b61020660015481565b6102b9610467366004611066565b610e5e565b6102b961047a366004611045565b610e9d565b60006001600160e01b03198216637965db0b60e01b14806104b057506301ffc9a760e01b6001600160e01b03198316145b90505b919050565b6000828152602081905260409020600101546104d5905b33610352565b61053e5760405162461bcd60e51b815260206004820152602f60248201527f416363657373436f6e74726f6c3a2073656e646572206d75737420626520616e60448201526e0818591b5a5b881d1bc819dc985b9d608a1b60648201526084015b60405180910390fd5b6105488282610edf565b5050565b6001600160a01b03811633146105bc5760405162461bcd60e51b815260206004820152602f60248201527f416363657373436f6e74726f6c3a2063616e206f6e6c792072656e6f756e636560448201526e103937b632b9903337b91039b2b63360891b6064820152608401610535565b6105488282610f63565b6001600160a01b038381166000908152600660205260409020600101541633146106425760405162461bcd60e51b815260206004820152602760248201527f77697468647261775061796d656e743a206f6e6c792063616c6c61626c6520626044820152663c9030b236b4b760c91b6064820152608401610535565b6001600160a01b038316600090815260066020526040902054818110156106c45760405162461bcd60e51b815260206004820152603060248201527f77697468647261775061796d656e743a20696e73756666696369656e7420776960448201526f74686472617761626c652066756e647360801b6064820152608401610535565b6106ce8282611284565b6001600160a01b038516600090815260066020526040812091909155600280548492906106fc908490611284565b909155505060055460405163a9059cbb60e01b81526001600160a01b038581166004830152602482018590529091169063a9059cbb90604401602060405180830381600087803b15801561074f57600080fd5b505af1158015610763573d6000803e3d6000fd5b505050506040513d601f19601f82011682018060405250810190610787919061117e565b6107a157634e487b7160e01b600052600160045260246000fd5b50505050565b6001600160a01b038281166000908152600660205260409020600101541633146108275760405162461bcd60e51b815260206004820152602b60248201527f7570646174654f7261636c65416464726573733a206f6e6c792063616c6c616260448201526a363290313c9030b236b4b760a91b6064820152608401610535565b6001600160a01b0390811660009081526006602052604080822060018082018054336001600160a01b03199182161790915595909416835290822080549091559081550180549091169055565b6002546005546040516370a0823160e01b81523060048201526001600160a01b03909116906370a082319060240160206040518083038186803b1580156108ba57600080fd5b505afa1580156108ce573d6000803e3d6000fd5b505050506040513d601f19601f820116820180604052508101906108f29190611227565b6108fc9190611284565b600355565b61090c600033610936565b6109285760405162461bcd60e51b81526004016105359061123f565b6001600160801b0316600455565b6000918252602082815260408084206001600160a01b0393909316845291905290205460ff1690565b6001600160a01b038281166000908152600660205260409020600101541633146109e55760405162461bcd60e51b815260206004820152603160248201527f7570646174654f7261636c654164646d696e416464726573733a206f6e6c792060448201527031b0b63630b1363290313c9030b236b4b760791b6064820152608401610535565b6001600160a01b03918216600090815260066020526040902060010180546001600160a01b03191691909216179055565b6005546001600160a01b03163314610a705760405162461bcd60e51b815260206004820152601d60248201527f6f6e546f6b656e5472616e736665723a206e6f7420746865204c696e6b0000006044820152606401610535565b8015610abe5760405162461bcd60e51b815260206004820181905260248201527f7472616e7366657220646f65736e2774206163636570742063616c6c646174616044820152606401610535565b6107a1610874565b610ad1600033610936565b610aed5760405162461bcd60e51b81526004016105359061123f565b806003541015610b3f5760405162461bcd60e51b815260206004820152601a60248201527f696e73756666696369656e7420726573657276652066756e64730000000000006044820152606401610535565b60055460405163a9059cbb60e01b81526001600160a01b038481166004830152602482018490529091169063a9059cbb90604401602060405180830381600087803b158015610b8d57600080fd5b505af1158015610ba1573d6000803e3d6000fd5b505050506040513d601f19601f82011682018060405250810190610bc5919061117e565b610c115760405162461bcd60e51b815260206004820152601e60248201527f776974686472617746756e64733a207472616e73666572206661696c656400006044820152606401610535565b610548610874565b610c24600033610936565b610c405760405162461bcd60e51b81526004016105359061123f565b600155565b600082815260208190526040902060010154610c60906104cf565b6105bc5760405162461bcd60e51b815260206004820152603060248201527f416363657373436f6e74726f6c3a2073656e646572206d75737420626520616e60448201526f2061646d696e20746f207265766f6b6560801b6064820152608401610535565b610cdd6000805160206112b283398151915233610936565b610d205760405162461bcd60e51b81526020600482015260146024820152736f6e6c794f7261636c653a2062616420726f6c6560601b6044820152606401610535565b6000818152600760209081526040808320338452600281019092529091205460ff1615610d8f5760405162461bcd60e51b815260206004820152601960248201527f7375626d69743a207375626d697474656420616c7265616479000000000000006044820152606401610535565b6001816001016000828254610da4919061126c565b90915550503360009081526002820160205260409020805460ff1916600190811790915580549082015410610e1957805460ff191660011781556040517f2a6b4960c287d4d53a338f9c9a9f830f37e7b66e67a0a958f68be89a4eeb939d90610e109084815260200190565b60405180910390a15b610e2233610fc8565b604080518381523360208201527fd4964a7cd99f5c1fa8f2420fb5e1d3bd26eadf16e2658cf2e29a67dfda38601e910160405180910390a15050565b610e69600033610936565b610e855760405162461bcd60e51b81526004016105359061123f565b6109e56000805160206112b2833981519152836104b8565b610ea8600033610936565b610ec45760405162461bcd60e51b81526004016105359061123f565b610edc6000805160206112b283398151915282610c45565b50565b610ee98282610936565b610548576000828152602081815260408083206001600160a01b03851684529091529020805460ff19166001179055610f1f3390565b6001600160a01b0316816001600160a01b0316837f2f8788117e7eff1d82e926ec794901d17c78024a50270940304540a733656f0d60405160405180910390a45050565b610f6d8282610936565b15610548576000828152602081815260408083206001600160a01b0385168085529252808320805460ff1916905551339285917ff6391f5c32d9c69d2a47ea670b442974b53935d1edc7fd64eb21e047a839171b9190a45050565b60045460036000828254610fdc9190611284565b909155505060045460028054600090610ff690849061126c565b90915550506004546001600160a01b0382166000908152600660205260408120805490919061102690849061126c565b909155505050565b80356001600160a01b03811681146104b357600080fd5b600060208284031215611056578081fd5b61105f8261102e565b9392505050565b60008060408385031215611078578081fd5b6110818361102e565b915061108f6020840161102e565b90509250929050565b6000806000606084860312156110ac578081fd5b6110b58461102e565b92506110c36020850161102e565b9150604084013590509250925092565b600080604083850312156110e5578182fd5b6110ee8361102e565b946020939093013593505050565b60008060008060608587031215611111578081fd5b61111a8561102e565b935060208501359250604085013567ffffffffffffffff8082111561113d578283fd5b818701915087601f830112611150578283fd5b81358181111561115e578384fd5b88602082850101111561116f578384fd5b95989497505060200194505050565b60006020828403121561118f578081fd5b8151801515811461105f578182fd5b6000602082840312156111af578081fd5b5035919050565b600080604083850312156111c8578182fd5b8235915061108f6020840161102e565b6000602082840312156111e9578081fd5b81356001600160e01b03198116811461105f578182fd5b600060208284031215611211578081fd5b81356001600160801b038116811461105f578182fd5b600060208284031215611238578081fd5b5051919050565b6020808252601390820152726f6e6c7941646d696e3a2062616420726f6c6560681b604082015260600190565b6000821982111561127f5761127f61129b565b500190565b6000828210156112965761129661129b565b500390565b634e487b7160e01b600052601160045260246000fdfe68e79a7bf1e0bc45d0a330c573bc367f9cf464fd326078812f301165fbda4ef1a2646970667358221220a0e7deee670d327448c29ff261441e9f9b37118057277fb3aff587d7da72c7f764736f6c63430008020033",
  "immutableReferences": {},
  "source": "// SPDX-License-Identifier: MIT\npragma solidity ^0.8.2;\n\nimport \"@openzeppelin/contracts/access/AccessControl.sol\";\nimport \"@openzeppelin/contracts/token/ERC20/IERC20.sol\";\nimport \"./Aggregator.sol\";\nimport \"../interfaces/IWhiteAggregator.sol\";\n\ncontract WhiteFullAggregator is Aggregator, IWhiteAggregator {\n    struct SubmissionInfo {\n        bool confirmed; // whether is confirmed\n        uint256 confirmations; // received confirmations count\n        mapping(address => bool) hasVerified; // verifier => has already voted\n    }\n\n    mapping(bytes32 => SubmissionInfo) public getSubmissionInfo; // mint id => submission info\n\n    event Confirmed(bytes32 submissionId, address operator); // emitted once the submission is confirmed\n    event SubmissionApproved(bytes32 submissionId); // emitted once the submission is confirmed\n\n    /// @dev Constructor that initializes the most important configurations.\n    /// @param _minConfirmations Minimal required confirmations.\n    /// @param _payment Oracle reward.\n    /// @param _link Link token to pay to oracles.\n    constructor(\n        uint256 _minConfirmations,\n        uint128 _payment,\n        IERC20 _link\n    ) Aggregator(_minConfirmations, _payment, _link) {}\n\n    /// @dev Confirms the mint request.\n    /// @param _submissionId Submission identifier.\n    function submit(bytes32 _submissionId) external override onlyOracle {\n        SubmissionInfo storage mintInfo = getSubmissionInfo[_submissionId];\n        require(!mintInfo.hasVerified[msg.sender], \"submit: submitted already\");\n        mintInfo.confirmations += 1;\n        mintInfo.hasVerified[msg.sender] = true;\n        if (mintInfo.confirmations >= minConfirmations) {\n            mintInfo.confirmed = true;\n            emit SubmissionApproved(_submissionId);\n        }\n        _payOracle(msg.sender);\n        emit Confirmed(_submissionId, msg.sender);\n    }\n\n    /// @dev Returns whether burnnt request is confirmed.\n    /// @param _submissionId Submission identifier.\n    /// @return Whether burnnt request is confirmed.\n    function isSubmissionConfirmed(bytes32 _submissionId)\n        external\n        view\n        override\n        returns (bool)\n    {\n        return getSubmissionInfo[_submissionId].confirmed;\n    }\n}\n",
  "sourcePath": "/Users/kstasi/Documents/side/debridge-contracts/contracts/chainlink/WhiteFullAggregator.sol",
  "compiler": {
    "name": "solc",
    "version": "0.8.2+commit.661d1103.Emscripten.clang"
  },
  "schemaVersion": "3.3.4",
  "updatedAt": "2021-04-27T06:19:41.282Z",
  "devdoc": {
    "kind": "dev",
    "methods": {
      "addOracle(address,address)": {
        "details": "Add new oracle.",
        "params": {
          "_admin": "Admin address.",
          "_oracle": "Oracle address."
        }
      },
      "constructor": {
        "details": "Constructor that initializes the most important configurations.",
        "params": {
          "_link": "Link token to pay to oracles.",
          "_minConfirmations": "Minimal required confirmations.",
          "_payment": "Oracle reward."
        }
      },
      "getRoleAdmin(bytes32)": {
        "details": "Returns the admin role that controls `role`. See {grantRole} and {revokeRole}. To change a role's admin, use {_setRoleAdmin}."
      },
      "grantRole(bytes32,address)": {
        "details": "Grants `role` to `account`. If `account` had not been already granted `role`, emits a {RoleGranted} event. Requirements: - the caller must have ``role``'s admin role."
      },
      "hasRole(bytes32,address)": {
        "details": "Returns `true` if `account` has been granted `role`."
      },
      "isSubmissionConfirmed(bytes32)": {
        "details": "Returns whether burnnt request is confirmed.",
        "params": {
          "_submissionId": "Submission identifier."
        },
        "returns": {
          "_0": "Whether burnnt request is confirmed."
        }
      },
      "removeOracle(address)": {
        "details": "Remove oracle.",
        "params": {
          "_oracle": "Oracle address."
        }
      },
      "renounceRole(bytes32,address)": {
        "details": "Revokes `role` from the calling account. Roles are often managed via {grantRole} and {revokeRole}: this function's purpose is to provide a mechanism for accounts to lose their privileges if they are compromised (such as when a trusted device is misplaced). If the calling account had been granted `role`, emits a {RoleRevoked} event. Requirements: - the caller must be `account`."
      },
      "revokeRole(bytes32,address)": {
        "details": "Revokes `role` from `account`. If `account` had been granted `role`, emits a {RoleRevoked} event. Requirements: - the caller must have ``role``'s admin role."
      },
      "setMinConfirmations(uint256)": {
        "details": "Sets minimal required confirmations.",
        "params": {
          "_minConfirmations": "Minimal required confirmations."
        }
      },
      "setPayment(uint128)": {
        "details": "Sets new oracle reward.",
        "params": {
          "_payment": "Oracle reward."
        }
      },
      "submit(bytes32)": {
        "details": "Confirms the mint request.",
        "params": {
          "_submissionId": "Submission identifier."
        }
      },
      "supportsInterface(bytes4)": {
        "details": "See {IERC165-supportsInterface}."
      },
      "updateAvailableFunds()": {
        "details": "Updates available rewards to be distributed."
      },
      "updateOracleAddminAddress(address,address)": {
        "details": "Updates oracle's admin address.",
        "params": {
          "_newOracleAdmin": "Oracle address.",
          "_oracle": "Oracle address."
        }
      },
      "updateOracleAddress(address,address)": {
        "details": "Updates oracle's address.",
        "params": {
          "_newOracle": "Oracle address.",
          "_oracle": "Oracle address."
        }
      },
      "withdrawFunds(address,uint256)": {
        "details": "Withdraws available LINK's.",
        "params": {
          "_amount": "Amount to withdraw.",
          "_recipient": "Recepient reward."
        }
      },
      "withdrawPayment(address,address,uint256)": {
        "details": "Withdraws oracle reward.",
        "params": {
          "_amount": "Amount to withdraw.",
          "_oracle": "Oracle address.",
          "_recipient": "Recepient reward."
        }
      },
      "withdrawablePayment(address)": {
        "details": "Withdraws oracle reward.",
        "params": {
          "_oracle": "Oracle address."
        },
        "returns": {
          "_0": "Oracle rewards."
        }
      }
    },
    "version": 1
  },
  "userdoc": {
    "kind": "user",
    "methods": {},
    "version": 1
  }
}