{
  "contractName": "WhiteLightDebridge",
  "abi": [
    {
      "inputs": [
        {
          "internalType": "uint256",
          "name": "_minAmount",
          "type": "uint256"
        },
        {
          "internalType": "uint256",
          "name": "_transferFee",
          "type": "uint256"
        },
        {
          "internalType": "uint256",
          "name": "_minReserves",
          "type": "uint256"
        },
        {
          "internalType": "address",
          "name": "_aggregator",
          "type": "address"
        },
        {
          "internalType": "uint256[]",
          "name": "_supportedChainIds",
          "type": "uint256[]"
        },
        {
          "internalType": "contract IDefiController",
          "name": "_defiController",
          "type": "address"
        }
      ],
      "stateMutability": "nonpayable",
      "type": "constructor"
    },
    {
      "anonymous": false,
      "inputs": [
        {
          "indexed": false,
          "internalType": "bytes32",
          "name": "submissionId",
          "type": "bytes32"
        },
        {
          "indexed": false,
          "internalType": "bytes32",
          "name": "debridgeId",
          "type": "bytes32"
        },
        {
          "indexed": false,
          "internalType": "uint256",
          "name": "amount",
          "type": "uint256"
        },
        {
          "indexed": false,
          "internalType": "address",
          "name": "receiver",
          "type": "address"
        },
        {
          "indexed": false,
          "internalType": "uint256",
          "name": "nonce",
          "type": "uint256"
        },
        {
          "indexed": false,
          "internalType": "uint256",
          "name": "chainIdTo",
          "type": "uint256"
        }
      ],
      "name": "Burnt",
      "type": "event"
    },
    {
      "anonymous": false,
      "inputs": [
        {
          "indexed": true,
          "internalType": "bytes32",
          "name": "debridgeId",
          "type": "bytes32"
        },
        {
          "indexed": true,
          "internalType": "uint256",
          "name": "chainId",
          "type": "uint256"
        }
      ],
      "name": "ChainSupportAdded",
      "type": "event"
    },
    {
      "anonymous": false,
      "inputs": [
        {
          "indexed": true,
          "internalType": "bytes32",
          "name": "debridgeId",
          "type": "bytes32"
        },
        {
          "indexed": true,
          "internalType": "uint256",
          "name": "chainId",
          "type": "uint256"
        }
      ],
      "name": "ChainSupportRemoved",
      "type": "event"
    },
    {
      "anonymous": false,
      "inputs": [
        {
          "indexed": false,
          "internalType": "bytes32",
          "name": "submissionId",
          "type": "bytes32"
        },
        {
          "indexed": false,
          "internalType": "uint256",
          "name": "amount",
          "type": "uint256"
        },
        {
          "indexed": false,
          "internalType": "address",
          "name": "receiver",
          "type": "address"
        },
        {
          "indexed": false,
          "internalType": "bytes32",
          "name": "debridgeId",
          "type": "bytes32"
        }
      ],
      "name": "Claimed",
      "type": "event"
    },
    {
      "anonymous": false,
      "inputs": [
        {
          "indexed": false,
          "internalType": "bytes32",
          "name": "submissionId",
          "type": "bytes32"
        },
        {
          "indexed": false,
          "internalType": "uint256",
          "name": "amount",
          "type": "uint256"
        },
        {
          "indexed": false,
          "internalType": "address",
          "name": "receiver",
          "type": "address"
        },
        {
          "indexed": false,
          "internalType": "bytes32",
          "name": "debridgeId",
          "type": "bytes32"
        }
      ],
      "name": "Minted",
      "type": "event"
    },
    {
      "anonymous": false,
      "inputs": [
        {
          "indexed": true,
          "internalType": "bytes32",
          "name": "debridgeId",
          "type": "bytes32"
        },
        {
          "indexed": true,
          "internalType": "address",
          "name": "tokenAddress",
          "type": "address"
        },
        {
          "indexed": true,
          "internalType": "uint256",
          "name": "chainId",
          "type": "uint256"
        },
        {
          "indexed": false,
          "internalType": "uint256",
          "name": "minAmount",
          "type": "uint256"
        },
        {
          "indexed": false,
          "internalType": "uint256",
          "name": "transferFee",
          "type": "uint256"
        },
        {
          "indexed": false,
          "internalType": "uint256",
          "name": "minReserves",
          "type": "uint256"
        }
      ],
      "name": "PairAdded",
      "type": "event"
    },
    {
      "anonymous": false,
      "inputs": [
        {
          "indexed": true,
          "internalType": "bytes32",
          "name": "role",
          "type": "bytes32"
        },
        {
          "indexed": true,
          "internalType": "bytes32",
          "name": "previousAdminRole",
          "type": "bytes32"
        },
        {
          "indexed": true,
          "internalType": "bytes32",
          "name": "newAdminRole",
          "type": "bytes32"
        }
      ],
      "name": "RoleAdminChanged",
      "type": "event"
    },
    {
      "anonymous": false,
      "inputs": [
        {
          "indexed": true,
          "internalType": "bytes32",
          "name": "role",
          "type": "bytes32"
        },
        {
          "indexed": true,
          "internalType": "address",
          "name": "account",
          "type": "address"
        },
        {
          "indexed": true,
          "internalType": "address",
          "name": "sender",
          "type": "address"
        }
      ],
      "name": "RoleGranted",
      "type": "event"
    },
    {
      "anonymous": false,
      "inputs": [
        {
          "indexed": true,
          "internalType": "bytes32",
          "name": "role",
          "type": "bytes32"
        },
        {
          "indexed": true,
          "internalType": "address",
          "name": "account",
          "type": "address"
        },
        {
          "indexed": true,
          "internalType": "address",
          "name": "sender",
          "type": "address"
        }
      ],
      "name": "RoleRevoked",
      "type": "event"
    },
    {
      "anonymous": false,
      "inputs": [
        {
          "indexed": false,
          "internalType": "bytes32",
          "name": "submissionId",
          "type": "bytes32"
        },
        {
          "indexed": false,
          "internalType": "bytes32",
          "name": "debridgeId",
          "type": "bytes32"
        },
        {
          "indexed": false,
          "internalType": "uint256",
          "name": "amount",
          "type": "uint256"
        },
        {
          "indexed": false,
          "internalType": "address",
          "name": "receiver",
          "type": "address"
        },
        {
          "indexed": false,
          "internalType": "uint256",
          "name": "nonce",
          "type": "uint256"
        },
        {
          "indexed": false,
          "internalType": "uint256",
          "name": "chainIdTo",
          "type": "uint256"
        }
      ],
      "name": "Sent",
      "type": "event"
    },
    {
      "inputs": [],
      "name": "DEFAULT_ADMIN_ROLE",
      "outputs": [
        {
          "internalType": "bytes32",
          "name": "",
          "type": "bytes32"
        }
      ],
      "stateMutability": "view",
      "type": "function",
      "constant": true
    },
    {
      "inputs": [],
      "name": "DENOMINATOR",
      "outputs": [
        {
          "internalType": "uint256",
          "name": "",
          "type": "uint256"
        }
      ],
      "stateMutability": "view",
      "type": "function",
      "constant": true
    },
    {
      "inputs": [
        {
          "internalType": "address",
          "name": "_tokenAddress",
          "type": "address"
        },
        {
          "internalType": "uint256",
          "name": "_chainId",
          "type": "uint256"
        },
        {
          "internalType": "uint256",
          "name": "_minAmount",
          "type": "uint256"
        },
        {
          "internalType": "uint256",
          "name": "_transferFee",
          "type": "uint256"
        },
        {
          "internalType": "uint256",
          "name": "_minReserves",
          "type": "uint256"
        },
        {
          "internalType": "uint256[]",
          "name": "_supportedChainIds",
          "type": "uint256[]"
        },
        {
          "internalType": "string",
          "name": "_name",
          "type": "string"
        },
        {
          "internalType": "string",
          "name": "_symbol",
          "type": "string"
        }
      ],
      "name": "addExternalAsset",
      "outputs": [],
      "stateMutability": "nonpayable",
      "type": "function"
    },
    {
      "inputs": [
        {
          "internalType": "address",
          "name": "_tokenAddress",
          "type": "address"
        },
        {
          "internalType": "uint256",
          "name": "_minAmount",
          "type": "uint256"
        },
        {
          "internalType": "uint256",
          "name": "_transferFee",
          "type": "uint256"
        },
        {
          "internalType": "uint256",
          "name": "_minReserves",
          "type": "uint256"
        },
        {
          "internalType": "uint256[]",
          "name": "_supportedChainIds",
          "type": "uint256[]"
        }
      ],
      "name": "addNativeAsset",
      "outputs": [],
      "stateMutability": "nonpayable",
      "type": "function"
    },
    {
      "inputs": [],
      "name": "aggregator",
      "outputs": [
        {
          "internalType": "address",
          "name": "",
          "type": "address"
        }
      ],
      "stateMutability": "view",
      "type": "function",
      "constant": true
    },
    {
      "inputs": [],
      "name": "aggregatorAddr",
      "outputs": [
        {
          "internalType": "address",
          "name": "",
          "type": "address"
        }
      ],
      "stateMutability": "view",
      "type": "function",
      "constant": true
    },
    {
      "inputs": [
        {
          "internalType": "bytes32",
          "name": "_debridgeId",
          "type": "bytes32"
        },
        {
          "internalType": "address",
          "name": "_receiver",
          "type": "address"
        },
        {
          "internalType": "uint256",
          "name": "_amount",
          "type": "uint256"
        }
      ],
      "name": "burn",
      "outputs": [],
      "stateMutability": "nonpayable",
      "type": "function"
    },
    {
      "inputs": [],
      "name": "chainId",
      "outputs": [
        {
          "internalType": "uint256",
          "name": "",
          "type": "uint256"
        }
      ],
      "stateMutability": "view",
      "type": "function",
      "constant": true
    },
    {
      "inputs": [],
      "name": "defiController",
      "outputs": [
        {
          "internalType": "contract IDefiController",
          "name": "",
          "type": "address"
        }
      ],
      "stateMutability": "view",
      "type": "function",
      "constant": true
    },
    {
      "inputs": [
        {
          "internalType": "address",
          "name": "_tokenAddress",
          "type": "address"
        }
      ],
      "name": "getBalance",
      "outputs": [
        {
          "internalType": "uint256",
          "name": "",
          "type": "uint256"
        }
      ],
      "stateMutability": "view",
      "type": "function",
      "constant": true
    },
    {
      "inputs": [
        {
          "internalType": "bytes32",
          "name": "",
          "type": "bytes32"
        }
      ],
      "name": "getDebridge",
      "outputs": [
        {
          "internalType": "address",
          "name": "tokenAddress",
          "type": "address"
        },
        {
          "internalType": "uint256",
          "name": "chainId",
          "type": "uint256"
        },
        {
          "internalType": "uint256",
          "name": "minAmount",
          "type": "uint256"
        },
        {
          "internalType": "uint256",
          "name": "transferFee",
          "type": "uint256"
        },
        {
          "internalType": "uint256",
          "name": "collectedFees",
          "type": "uint256"
        },
        {
          "internalType": "uint256",
          "name": "balance",
          "type": "uint256"
        },
        {
          "internalType": "uint256",
          "name": "minReserves",
          "type": "uint256"
        }
      ],
      "stateMutability": "view",
      "type": "function",
      "constant": true
    },
    {
      "inputs": [
        {
          "internalType": "uint256",
          "name": "_chainId",
          "type": "uint256"
        },
        {
          "internalType": "address",
          "name": "_tokenAddress",
          "type": "address"
        }
      ],
      "name": "getDebridgeId",
      "outputs": [
        {
          "internalType": "bytes32",
          "name": "",
          "type": "bytes32"
        }
      ],
      "stateMutability": "pure",
      "type": "function",
      "constant": true
    },
    {
      "inputs": [
        {
          "internalType": "bytes32",
          "name": "role",
          "type": "bytes32"
        }
      ],
      "name": "getRoleAdmin",
      "outputs": [
        {
          "internalType": "bytes32",
          "name": "",
          "type": "bytes32"
        }
      ],
      "stateMutability": "view",
      "type": "function",
      "constant": true
    },
    {
      "inputs": [
        {
          "internalType": "bytes32",
          "name": "_debridgeId",
          "type": "bytes32"
        },
        {
          "internalType": "uint256",
          "name": "_amount",
          "type": "uint256"
        },
        {
          "internalType": "address",
          "name": "_receiver",
          "type": "address"
        },
        {
          "internalType": "uint256",
          "name": "_nonce",
          "type": "uint256"
        }
      ],
      "name": "getSubmisionId",
      "outputs": [
        {
          "internalType": "bytes32",
          "name": "",
          "type": "bytes32"
        }
      ],
      "stateMutability": "pure",
      "type": "function",
      "constant": true
    },
    {
      "inputs": [
        {
          "internalType": "bytes32",
          "name": "_debridgeId",
          "type": "bytes32"
        }
      ],
      "name": "getSupportedChainIds",
      "outputs": [
        {
          "internalType": "uint256[]",
          "name": "",
          "type": "uint256[]"
        }
      ],
      "stateMutability": "view",
      "type": "function",
      "constant": true
    },
    {
      "inputs": [
        {
          "internalType": "address",
          "name": "",
          "type": "address"
        }
      ],
      "name": "getUserNonce",
      "outputs": [
        {
          "internalType": "uint256",
          "name": "",
          "type": "uint256"
        }
      ],
      "stateMutability": "view",
      "type": "function",
      "constant": true
    },
    {
      "inputs": [
        {
          "internalType": "bytes32",
          "name": "role",
          "type": "bytes32"
        },
        {
          "internalType": "address",
          "name": "account",
          "type": "address"
        }
      ],
      "name": "grantRole",
      "outputs": [],
      "stateMutability": "nonpayable",
      "type": "function"
    },
    {
      "inputs": [
        {
          "internalType": "bytes32",
          "name": "role",
          "type": "bytes32"
        },
        {
          "internalType": "address",
          "name": "account",
          "type": "address"
        }
      ],
      "name": "hasRole",
      "outputs": [
        {
          "internalType": "bool",
          "name": "",
          "type": "bool"
        }
      ],
      "stateMutability": "view",
      "type": "function",
      "constant": true
    },
    {
      "inputs": [
        {
          "internalType": "bytes32",
          "name": "",
          "type": "bytes32"
        }
      ],
      "name": "isSubmissionUsed",
      "outputs": [
        {
          "internalType": "bool",
          "name": "",
          "type": "bool"
        }
      ],
      "stateMutability": "view",
      "type": "function",
      "constant": true
    },
    {
      "inputs": [
        {
          "internalType": "bytes32",
          "name": "role",
          "type": "bytes32"
        },
        {
          "internalType": "address",
          "name": "account",
          "type": "address"
        }
      ],
      "name": "renounceRole",
      "outputs": [],
      "stateMutability": "nonpayable",
      "type": "function"
    },
    {
      "inputs": [
        {
          "internalType": "address",
          "name": "_tokenAddress",
          "type": "address"
        },
        {
          "internalType": "uint256",
          "name": "_amount",
          "type": "uint256"
        }
      ],
      "name": "requestReserves",
      "outputs": [],
      "stateMutability": "nonpayable",
      "type": "function"
    },
    {
      "inputs": [
        {
          "internalType": "address",
          "name": "_tokenAddress",
          "type": "address"
        },
        {
          "internalType": "uint256",
          "name": "_amount",
          "type": "uint256"
        }
      ],
      "name": "returnReserves",
      "outputs": [],
      "stateMutability": "payable",
      "type": "function",
      "payable": true
    },
    {
      "inputs": [
        {
          "internalType": "bytes32",
          "name": "role",
          "type": "bytes32"
        },
        {
          "internalType": "address",
          "name": "account",
          "type": "address"
        }
      ],
      "name": "revokeRole",
      "outputs": [],
      "stateMutability": "nonpayable",
      "type": "function"
    },
    {
      "inputs": [
        {
          "internalType": "bytes32",
          "name": "_debridgeId",
          "type": "bytes32"
        },
        {
          "internalType": "address",
          "name": "_receiver",
          "type": "address"
        },
        {
          "internalType": "uint256",
          "name": "_amount",
          "type": "uint256"
        },
        {
          "internalType": "uint256",
          "name": "_chainIdTo",
          "type": "uint256"
        }
      ],
      "name": "send",
      "outputs": [],
      "stateMutability": "payable",
      "type": "function",
      "payable": true
    },
    {
      "inputs": [
        {
          "internalType": "address",
          "name": "_aggregator",
          "type": "address"
        }
      ],
      "name": "setAggregator",
      "outputs": [],
      "stateMutability": "nonpayable",
      "type": "function"
    },
    {
      "inputs": [
        {
          "internalType": "bytes32",
          "name": "_debridgeId",
          "type": "bytes32"
        },
        {
          "internalType": "uint256",
          "name": "_chainId",
          "type": "uint256"
        },
        {
          "internalType": "bool",
          "name": "_isSupported",
          "type": "bool"
        }
      ],
      "name": "setChainIdSupport",
      "outputs": [],
      "stateMutability": "nonpayable",
      "type": "function"
    },
    {
      "inputs": [
        {
          "internalType": "contract IDefiController",
          "name": "_defiController",
          "type": "address"
        }
      ],
      "name": "setDefiController",
      "outputs": [],
      "stateMutability": "nonpayable",
      "type": "function"
    },
    {
      "inputs": [
        {
          "internalType": "bytes4",
          "name": "interfaceId",
          "type": "bytes4"
        }
      ],
      "name": "supportsInterface",
      "outputs": [
        {
          "internalType": "bool",
          "name": "",
          "type": "bool"
        }
      ],
      "stateMutability": "view",
      "type": "function",
      "constant": true
    },
    {
      "inputs": [
        {
          "internalType": "bytes32",
          "name": "_debridgeId",
          "type": "bytes32"
        },
        {
          "internalType": "address",
          "name": "_receiver",
          "type": "address"
        },
        {
          "internalType": "uint256",
          "name": "_amount",
          "type": "uint256"
        }
      ],
      "name": "withdrawFee",
      "outputs": [],
      "stateMutability": "nonpayable",
      "type": "function"
    },
    {
      "inputs": [
        {
          "internalType": "bytes32",
          "name": "_debridgeId",
          "type": "bytes32"
        },
        {
          "internalType": "address",
          "name": "_receiver",
          "type": "address"
        },
        {
          "internalType": "uint256",
          "name": "_amount",
          "type": "uint256"
        },
        {
          "internalType": "uint256",
          "name": "_nonce",
          "type": "uint256"
        },
        {
          "internalType": "bytes[2][]",
          "name": "_trxData",
          "type": "bytes[2][]"
        }
      ],
      "name": "mint",
      "outputs": [],
      "stateMutability": "nonpayable",
      "type": "function"
    },
    {
      "inputs": [
        {
          "internalType": "bytes32",
          "name": "_debridgeId",
          "type": "bytes32"
        },
        {
          "internalType": "address",
          "name": "_receiver",
          "type": "address"
        },
        {
          "internalType": "uint256",
          "name": "_amount",
          "type": "uint256"
        },
        {
          "internalType": "uint256",
          "name": "_nonce",
          "type": "uint256"
        },
        {
          "internalType": "bytes[2][]",
          "name": "_trxData",
          "type": "bytes[2][]"
        }
      ],
      "name": "claim",
      "outputs": [],
      "stateMutability": "nonpayable",
      "type": "function"
    }
  ],
  "bytecode": "0x60806040523480156200001157600080fd5b506040516200467838038062004678833981016040819052620000349162000312565b4660018190558690869086908690869086906000620000548282620000b7565b9050620000708160006001548b8b8b8a6200010160201b60201c565b600280546001600160a01b0319166001600160a01b0387811691909117909155600354169250620000a360003362000250565b505050505050505050505050505062000479565b60008282604051602001620000e392919091825260601b6001600160601b031916602082015260340190565b60405160208183030381529060405280519060200120905092915050565b600087815260046020526040812080546001600160a01b0319166001600160a01b0389161781556001810187905560028101869055600381018590556006810184905590805b8351811015620001f4578381815181106200017257634e487b7160e01b600052603260045260246000fd5b60209081029190910181015160008181526008860183526040808220805460ff1916600190811790915560078801805491820181558352938220909301829055915190935083918c917fdd4dbf80f57aa5115a1e07abb36e4de565879d4de5bd15b3803d666fe1d848639190a380620001eb8162000422565b91505062000147565b50604080518781526020810187905290810185905287906001600160a01b038a16908b907ff6f4e2b9c6425dc5e0ebbec27bfdc06bece97c248400c189c656fe08259cd4659060600160405180910390a4505050505050505050565b6200025c828262000260565b5050565b6000828152602081815260408083206001600160a01b038516845290915290205460ff166200025c576000828152602081815260408083206001600160a01b03851684529091529020805460ff19166001179055620002bc3390565b6001600160a01b0316816001600160a01b0316837f2f8788117e7eff1d82e926ec794901d17c78024a50270940304540a733656f0d60405160405180910390a45050565b80516200030d8162000460565b919050565b60008060008060008060c087890312156200032b578182fd5b8651955060208088015195506040880151945060608801516200034e8162000460565b60808901519094506001600160401b03808211156200036b578485fd5b818a0191508a601f8301126200037f578485fd5b8151818111156200039457620003946200044a565b838102604051601f19603f83011681018181108582111715620003bb57620003bb6200044a565b604052828152858101935084860182860187018f1015620003da578889fd5b8895505b83861015620003fe578051855260019590950194938601938601620003de565b508097505050505050506200041660a0880162000300565b90509295509295509295565b60006000198214156200044357634e487b7160e01b81526011600452602481fd5b5060010190565b634e487b7160e01b600052604160045260246000fd5b6001600160a01b03811681146200047657600080fd5b50565b6141ef80620004896000396000f3fe608060405260043610620002065760003560e01c80636b063d65116200011b578063a217fddf11620000a3578063d547741f116200006d578063d547741f14620006a4578063e82637f614620006c9578063f8b2cb4f14620006ee578063f9120af614620007135762000206565b8063a217fddf146200061e578063b41eced51462000635578063bc23a2c0146200065a578063be7f2184146200067f5762000206565b8063918f867411620000e5578063918f8674146200059e57806391d1485414620005bc5780639682b90914620005e15780639a8a059214620006065762000206565b80636b063d65146200050c57806382762600146200052357806383d3f95d14620005455780638a2034cc146200056a5762000206565b80632f2ff15d116200019f57806357cf07ca116200016957806357cf07ca14620003dc5780635fe582b5146200048257806365ac9f7814620004a75780636834e3a814620004db5762000206565b80632f2ff15d146200034b578063346a9074146200037057806336568abe146200039557806346144c8f14620003ba5762000206565b8063106f432f11620001e1578063106f432f1462000283578063245a7bfc14620002a8578063248a9ca314620002e35780632a68394914620003265762000206565b806301ffc9a7146200020b578063031ac61314620002455780630a0e5e9a146200025e575b600080fd5b3480156200021857600080fd5b50620002306200022a36600462002609565b62000738565b60405190151581526020015b60405180910390f35b6200025c62000256366004620024a9565b62000772565b005b3480156200026b57600080fd5b506200025c6200027d366004620025ce565b62000a31565b3480156200029057600080fd5b506200025c620002a23660046200227f565b62000af8565b348015620002b557600080fd5b50600254620002ca906001600160a01b031681565b6040516001600160a01b0390911681526020016200023c565b348015620002f057600080fd5b50620003176200030236600462002424565b60009081526020819052604090206001015490565b6040519081526020016200023c565b3480156200033357600080fd5b506200025c620003453660046200233d565b62000b46565b3480156200035857600080fd5b506200025c6200036a3660046200243d565b62000bde565b3480156200037d57600080fd5b506200025c6200038f3660046200246f565b62000c73565b348015620003a257600080fd5b506200025c620003b43660046200243d565b62000eca565b348015620003c757600080fd5b50600354620002ca906001600160a01b031681565b348015620003e957600080fd5b5062000442620003fb36600462002424565b600460208190526000918252604090912080546001820154600283015460038401549484015460058501546006909501546001600160a01b03909416959294919390919087565b604080516001600160a01b0390981688526020880196909652948601939093526060850191909152608084015260a083015260c082015260e0016200023c565b3480156200048f57600080fd5b506200025c620004a1366004620024e8565b62000f48565b348015620004b457600080fd5b5062000230620004c636600462002424565b60056020526000908152604090205460ff1681565b348015620004e857600080fd5b5062000317620004fa3660046200227f565b60066020526000908152604090205481565b6200025c6200051d3660046200229e565b62001040565b3480156200053057600080fd5b50600754620002ca906001600160a01b031681565b3480156200055257600080fd5b506200025c620005643660046200246f565b620010e9565b3480156200057757600080fd5b506200058f6200058936600462002424565b62001251565b6040516200023c9190620026c2565b348015620005ab57600080fd5b5062000317670de0b6b3a764000081565b348015620005c957600080fd5b5062000230620005db3660046200243d565b620012b8565b348015620005ee57600080fd5b5062000317620006003660046200243d565b620012e1565b3480156200061357600080fd5b506200031760015481565b3480156200062b57600080fd5b5062000317600081565b3480156200064257600080fd5b506200025c62000654366004620024e8565b62001330565b3480156200066757600080fd5b5062000317620006793660046200258d565b62001420565b3480156200068c57600080fd5b506200025c6200069e3660046200229e565b62001476565b348015620006b157600080fd5b506200025c620006c33660046200243d565b62001619565b348015620006d657600080fd5b506200025c620006e8366004620022cc565b6200169d565b348015620006fb57600080fd5b50620003176200070d3660046200227f565b620016ee565b3480156200072057600080fd5b506200025c620007323660046200227f565b6200178a565b60006001600160e01b03198216637965db0b60e01b14806200076a57506301ffc9a760e01b6001600160e01b03198316145b90505b919050565b6000848152600460205260409020600180549082015414620007d45760405162461bcd60e51b815260206004820152601660248201527539b2b7321d103737ba103730ba34bb329031b430b4b760511b60448201526064015b60405180910390fd5b600082815260088201602052604090205460ff16620008365760405162461bcd60e51b815260206004820152601860248201527f73656e643a2077726f6e672074617267656420636861696e00000000000000006044820152606401620007cb565b8060020154831015620008835760405162461bcd60e51b815260206004820152601460248201527373656e643a20616d6f756e7420746f6f206c6f7760601b6044820152606401620007cb565b80546001600160a01b0316620008e257348314620008dc5760405162461bcd60e51b81526020600482015260156024820152740e6cadcc87440c2dadeeadce840dad2e6dac2e8c6d605b1b6044820152606401620007cb565b620008fb565b8054620008fb906001600160a01b0316333086620017d8565b6000670de0b6b3a7640000826003015485620009189190620028e1565b620009249190620028c0565b90508015620009585780826004016000828254620009439190620028a5565b90915550620009559050818562002903565b93505b838260050160008282546200096e9190620028a5565b90915550506001600160a01b038516600090815260066020526040812054906200099b8887898562001420565b60408051828152602081018b90529081018890526001600160a01b03891660608201526080810184905260a081018790529091507f17c61cb89b62a3f29f5b150e3489c7a796ac4dc95fd73af14faa2c8086a324b49060c00160405180910390a16001600160a01b038716600090815260066020526040812080549162000a22836200294c565b91905055505050505050505050565b62000a3e600033620012b8565b62000a5d5760405162461bcd60e51b8152600401620007cb9062002844565b600083815260046020908152604080832085845260088101909252909120805460ff1916831580159190911790915562000ac457604051839085907fdd4dbf80f57aa5115a1e07abb36e4de565879d4de5bd15b3803d666fe1d8486390600090a362000af2565b604051839085907f86c512831f7a2aad3f56b4169c161be1028776ab950c72e26237a0310ded560690600090a35b50505050565b62000b05600033620012b8565b62000b245760405162461bcd60e51b8152600401620007cb9062002844565b600380546001600160a01b0319166001600160a01b0392909216919091179055565b62000b53600033620012b8565b62000b725760405162461bcd60e51b8152600401620007cb9062002844565b600062000b80888a620012e1565b90506000838360405162000b949062002167565b62000ba192919062002812565b604051809103906000f08015801562000bbe573d6000803e3d6000fd5b50905062000bd282828b8b8b8b8b62001845565b50505050505050505050565b60008281526020819052604090206001015462000bfd905b33620005db565b62000c635760405162461bcd60e51b815260206004820152602f60248201527f416363657373436f6e74726f6c3a2073656e646572206d75737420626520616e60448201526e0818591b5a5b881d1bc819dc985b9d608a1b6064820152608401620007cb565b62000c6f828262001994565b5050565b60008381526004602052604090206001805490820154141562000cce5760405162461bcd60e51b8152602060048201526012602482015271189d5c9b8e881b985d1a5d9948185cdcd95d60721b6044820152606401620007cb565b806002015482101562000d1b5760405162461bcd60e51b81526020600482015260146024820152736275726e3a20616d6f756e7420746f6f206c6f7760601b6044820152606401620007cb565b80546040516323b872dd60e01b8152336004820152306024820152604481018490526001600160a01b039091169081906323b872dd90606401602060405180830381600087803b15801562000d6f57600080fd5b505af115801562000d84573d6000803e3d6000fd5b505050506040513d601f19601f8201168201806040525081019062000daa919062002405565b50604051630852cd8d60e31b8152600481018490526001600160a01b038216906342966c6890602401600060405180830381600087803b15801562000dee57600080fd5b505af115801562000e03573d6000803e3d6000fd5b5050506001600160a01b038516600090815260066020526040812054915062000e2f8786888562001420565b600185015460408051838152602081018b90529081018890526001600160a01b03891660608201526080810185905260a08101919091529091507fb8cc5195d548dc2781227c496b92d3736cd56d7f32b28971c9ae1e9eb0badf959060c00160405180910390a16001600160a01b038616600090815260066020526040812080549162000ebc836200294c565b919050555050505050505050565b6001600160a01b038116331462000f3c5760405162461bcd60e51b815260206004820152602f60248201527f416363657373436f6e74726f6c3a2063616e206f6e6c792072656e6f756e636560448201526e103937b632b9903337b91039b2b63360891b6064820152608401620007cb565b62000c6f828262001a1c565b600062000f588786888762001420565b60025460405163578d837760e01b81529192506001600160a01b03169063578d83779062000f8f9084908790879060040162002708565b602060405180830381600087803b15801562000faa57600080fd5b505af115801562000fbf573d6000803e3d6000fd5b505050506040513d601f19601f8201168201806040525081019062000fe5919062002405565b620010295760405162461bcd60e51b81526020600482015260136024820152721b5a5b9d0e881b9bdd0818dbdb999a5c9b5959606a1b6044820152606401620007cb565b620010378188888862001a84565b50505050505050565b6003546001600160a01b03163314620010975760405162461bcd60e51b815260206004820152601860248201527764656669436f6e74726f6c6c65723a2062616420726f6c6560401b6044820152606401620007cb565b6000620010a760015484620012e1565b60008181526004602052604090208054919250906001600160a01b03161562000af257600354815462000af2916001600160a01b0391821691163086620017d8565b620010f6600033620012b8565b620011155760405162461bcd60e51b8152600401620007cb9062002844565b60008381526004602052604090206001805490820154146200117a5760405162461bcd60e51b815260206004820152601f60248201527f77697468647261774665653a2077726f6e672074617267657420636861696e006044820152606401620007cb565b8181600401541015620011d05760405162461bcd60e51b815260206004820152601b60248201527f77697468647261774665653a206e6f7420656e6f7567682066656500000000006044820152606401620007cb565b81816004016000828254620011e6919062002903565b909155505080546001600160a01b031662001239576040516001600160a01b0384169083156108fc029084906000818181858888f1935050505015801562001232573d6000803e3d6000fd5b5062000af2565b805462000af2906001600160a01b0316848462001bd0565b600081815260046020908152604091829020600701805483518184028101840190945280845260609392830182828015620012ac57602002820191906000526020600020905b81548152602001906001019080831162001297575b50505050509050919050565b6000918252602082815260408084206001600160a01b0393909316845291905290205460ff1690565b600082826040516020016200131292919091825260601b6bffffffffffffffffffffffff1916602082015260340190565b60405160208183030381529060405280519060200120905092915050565b6000620013408786888762001420565b600254604051634a41e6d960e01b81529192506001600160a01b031690634a41e6d990620013779084908790879060040162002708565b602060405180830381600087803b1580156200139257600080fd5b505af1158015620013a7573d6000803e3d6000fd5b505050506040513d601f19601f82011682018060405250810190620013cd919062002405565b620014125760405162461bcd60e51b815260206004820152601460248201527318db185a5b4e881b9bdd0818dbdb999a5c9b595960621b6044820152606401620007cb565b620010378188888862001c07565b6040805160208101869052908101849052606083811b6bffffffffffffffffffffffff19169082015260748101829052600090609401604051602081830303815290604052805190602001209050949350505050565b6003546001600160a01b03163314620014cd5760405162461bcd60e51b815260206004820152601860248201527764656669436f6e74726f6c6c65723a2062616420726f6c6560401b6044820152606401620007cb565b6000620014dd60015484620012e1565b6000818152600460205260408120600681015460058201549394509092670de0b6b3a7640000916200150f91620028e1565b6200151b9190620028c0565b825490915060009062001537906001600160a01b0316620016ee565b905080620015468684620028a5565b11620015a15760405162461bcd60e51b8152602060048201526024808201527f7265717565737452657365727665733a206e6f7420656e6f75676820726573656044820152637276657360e01b6064820152608401620007cb565b82546001600160a01b0316620015f3576003546040516001600160a01b039091169086156108fc029087906000818181858888f19350505050158015620015ec573d6000803e3d6000fd5b5062001611565b600354835462001611916001600160a01b0391821691168762001bd0565b505050505050565b600082815260208190526040902060010154620016369062000bf6565b62000f3c5760405162461bcd60e51b815260206004820152603060248201527f416363657373436f6e74726f6c3a2073656e646572206d75737420626520616e60448201526f2061646d696e20746f207265766f6b6560801b6064820152608401620007cb565b620016aa600033620012b8565b620016c95760405162461bcd60e51b8152600401620007cb9062002844565b6000620016d960015487620012e1565b90506200161181876001548888888862001845565b60006001600160a01b038216620017075750476200076d565b6040516370a0823160e01b81523060048201526001600160a01b038316906370a082319060240160206040518083038186803b1580156200174757600080fd5b505afa1580156200175c573d6000803e3d6000fd5b505050506040513d601f19601f8201168201806040525081019062001782919062002633565b90506200076d565b62001797600033620012b8565b620017b65760405162461bcd60e51b8152600401620007cb9062002844565b600280546001600160a01b0319166001600160a01b0392909216919091179055565b6040516001600160a01b038085166024830152831660448201526064810182905262000af29085906323b872dd60e01b906084015b60408051601f198184030181529190526020810180516001600160e01b03166001600160e01b03199093169290921790915262001e1b565b600087815260046020526040812080546001600160a01b0319166001600160a01b0389161781556001810187905560028101869055600381018590556006810184905590805b83518110156200193857838181518110620018b657634e487b7160e01b600052603260045260246000fd5b60209081029190910181015160008181526008860183526040808220805460ff1916600190811790915560078801805491820181558352938220909301829055915190935083918c917fdd4dbf80f57aa5115a1e07abb36e4de565879d4de5bd15b3803d666fe1d848639190a3806200192f816200294c565b9150506200188b565b50604080518781526020810187905290810185905287906001600160a01b038a16908b907ff6f4e2b9c6425dc5e0ebbec27bfdc06bece97c248400c189c656fe08259cd4659060600160405180910390a4505050505050505050565b620019a08282620012b8565b62000c6f576000828152602081815260408083206001600160a01b03851684529091529020805460ff19166001179055620019d83390565b6001600160a01b0316816001600160a01b0316837f2f8788117e7eff1d82e926ec794901d17c78024a50270940304540a733656f0d60405160405180910390a45050565b62001a288282620012b8565b1562000c6f576000828152602081815260408083206001600160a01b0385168085529252808320805460ff1916905551339285917ff6391f5c32d9c69d2a47ea670b442974b53935d1edc7fd64eb21e047a839171b9190a45050565b60008481526005602052604090205460ff161562001ada5760405162461bcd60e51b81526020600482015260126024820152711b5a5b9d0e88185b1c9958591e481d5cd95960721b6044820152606401620007cb565b6000838152600460208181526040808420888552600590925292839020805460ff19166001179055805492516340c10f1960e01b815290926001600160a01b0316916340c10f199162001b459187918791016001600160a01b03929092168252602082015260400190565b600060405180830381600087803b15801562001b6057600080fd5b505af115801562001b75573d6000803e3d6000fd5b505060408051888152602081018690526001600160a01b038716818301526060810188905290517f5918a95fd00afb5898499bd5beade1619e98655d2b4ff6e0f6a4347f0a69c1279350908190036080019150a15050505050565b6040516001600160a01b03831660248201526044810182905262001c0290849063a9059cbb60e01b906064016200180d565b505050565b600083815260046020526040902060018054908201541462001c6c5760405162461bcd60e51b815260206004820152601960248201527f636c61696d3a2077726f6e672074617267657420636861696e000000000000006044820152606401620007cb565b60008581526005602052604090205460ff161562001cc35760405162461bcd60e51b815260206004820152601360248201527218db185a5b4e88185b1c9958591e481d5cd959606a1b6044820152606401620007cb565b6000858152600560205260408120805460ff191660011790556003820154670de0b6b3a76400009062001cf79085620028e1565b62001d039190620028c0565b90508282600501600082825462001d1b919062002903565b9091555050801562001d52578082600401600082825462001d3d9190620028a5565b9091555062001d4f9050818462002903565b92505b62001d5e828462001ef4565b81546001600160a01b031662001dac576040516001600160a01b0385169084156108fc029085906000818181858888f1935050505015801562001da5573d6000803e3d6000fd5b5062001dc4565b815462001dc4906001600160a01b0316858562001bd0565b60408051878152602081018590526001600160a01b038616818301526060810187905290517fabe3bed2a8590dd123c1a018888bce6142d526741bed65dfe570fb223525c6a49181900360800190a1505050505050565b600062001e72826040518060400160405280602081526020017f5361666545524332303a206c6f772d6c6576656c2063616c6c206661696c6564815250856001600160a01b031662001fdc9092919063ffffffff16565b80519091501562001c02578080602001905181019062001e93919062002405565b62001c025760405162461bcd60e51b815260206004820152602a60248201527f5361666545524332303a204552433230206f7065726174696f6e20646964206e6044820152691bdd081cdd58d8d9595960b21b6064820152608401620007cb565b6000670de0b6b3a76400008360060154846005015462001f159190620028e1565b62001f219190620028c0565b835490915060009062001f3d906001600160a01b0316620016ee565b9050600083831162001f50578362001f52565b825b90508181111562001fd55762001f69828262002903565b60035486546040516309e62b9160e01b81526001600160a01b0391821660048201526024810184905292935016906309e62b9190604401600060405180830381600087803b15801562001fbb57600080fd5b505af115801562001fd0573d6000803e3d6000fd5b505050505b5050505050565b606062001fed848460008562001ff7565b90505b9392505050565b6060824710156200205a5760405162461bcd60e51b815260206004820152602660248201527f416464726573733a20696e73756666696369656e742062616c616e636520666f6044820152651c8818d85b1b60d21b6064820152608401620007cb565b843b620020aa5760405162461bcd60e51b815260206004820152601d60248201527f416464726573733a2063616c6c20746f206e6f6e2d636f6e74726163740000006044820152606401620007cb565b600080866001600160a01b03168587604051620020c89190620026a4565b60006040518083038185875af1925050503d806000811462002107576040519150601f19603f3d011682016040523d82523d6000602084013e6200210c565b606091505b50915091506200211e82828662002129565b979650505050505050565b606083156200213a57508162001ff0565b8251156200214b5782518084602001fd5b8160405162461bcd60e51b8152600401620007cb9190620027fd565b6117fb80620029bf83390190565b80356200076d8162002996565b600082601f83011262002193578081fd5b8135602067ffffffffffffffff821115620021b257620021b262002980565b808202620021c282820162002871565b838152828101908684018388018501891015620021dd578687fd5b8693505b8584101562002201578035835260019390930192918401918401620021e1565b50979650505050505050565b600082601f8301126200221e578081fd5b813567ffffffffffffffff8111156200223b576200223b62002980565b62002250601f8201601f191660200162002871565b81815284602083860101111562002265578283fd5b816020850160208301379081016020019190915292915050565b60006020828403121562002291578081fd5b813562001ff08162002996565b60008060408385031215620022b1578081fd5b8235620022be8162002996565b946020939093013593505050565b600080600080600060a08688031215620022e4578081fd5b8535620022f18162002996565b9450602086013593506040860135925060608601359150608086013567ffffffffffffffff81111562002322578182fd5b620023308882890162002182565b9150509295509295909350565b600080600080600080600080610100898b0312156200235a578283fd5b620023658962002175565b97506020890135965060408901359550606089013594506080890135935060a089013567ffffffffffffffff808211156200239e578485fd5b620023ac8c838d0162002182565b945060c08b0135915080821115620023c2578384fd5b620023d08c838d016200220d565b935060e08b0135915080821115620023e6578283fd5b50620023f58b828c016200220d565b9150509295985092959890939650565b60006020828403121562002417578081fd5b815162001ff081620029af565b60006020828403121562002436578081fd5b5035919050565b6000806040838503121562002450578182fd5b823591506020830135620024648162002996565b809150509250929050565b60008060006060848603121562002484578283fd5b833592506020840135620024988162002996565b929592945050506040919091013590565b60008060008060808587031215620024bf578384fd5b843593506020850135620024d38162002996565b93969395505050506040820135916060013590565b60008060008060008060a0878903121562002501578384fd5b863595506020870135620025158162002996565b94506040870135935060608701359250608087013567ffffffffffffffff8082111562002540578384fd5b818901915089601f83011262002554578384fd5b81358181111562002563578485fd5b8a6020808302850101111562002577578485fd5b6020830194508093505050509295509295509295565b60008060008060808587031215620025a3578182fd5b84359350602085013592506040850135620025be8162002996565b9396929550929360600135925050565b600080600060608486031215620025e3578081fd5b83359250602084013591506040840135620025fe81620029af565b809150509250925092565b6000602082840312156200261b578081fd5b81356001600160e01b03198116811462001ff0578182fd5b60006020828403121562002645578081fd5b5051919050565b60008284528282602086013780602084860101526020601f19601f85011685010190509392505050565b60008151808452620026908160208601602086016200291d565b601f01601f19169290920160200192915050565b60008251620026b88184602087016200291d565b9190910192915050565b6020808252825182820181905260009190848201906040850190845b81811015620026fc57835183529284019291840191600101620026de565b50909695505050505050565b6000604080830186845260208281860152818683526060860190506060828802870101925087855b88811015620027ee57878503605f190183528135368b9003603e1901811262002757578788fd5b8a0185878101828a36829003601e19015b6002821015620027d5578a84038552823581811262002785578d8efd5b8601803567ffffffffffffffff8111156200279e578e8ffd5b803603881315620027ad578e8ffd5b620027bc86828e85016200264c565b968c019695505050918901916001919091019062002768565b5091985050509385019350509083019060010162002730565b50929998505050505050505050565b60006020825262001ff0602083018462002676565b60006040825262002827604083018562002676565b82810360208401526200283b818562002676565b95945050505050565b6020808252601390820152726f6e6c7941646d696e3a2062616420726f6c6560681b604082015260600190565b604051601f8201601f1916810167ffffffffffffffff811182821017156200289d576200289d62002980565b604052919050565b60008219821115620028bb57620028bb6200296a565b500190565b600082620028dc57634e487b7160e01b81526012600452602481fd5b500490565b6000816000190483118215151615620028fe57620028fe6200296a565b500290565b6000828210156200291857620029186200296a565b500390565b60005b838110156200293a57818101518382015260200162002920565b8381111562000af25750506000910152565b60006000198214156200296357620029636200296a565b5060010190565b634e487b7160e01b600052601160045260246000fd5b634e487b7160e01b600052604160045260246000fd5b6001600160a01b0381168114620029ac57600080fd5b50565b8015158114620029ac57600080fdfe60806040523480156200001157600080fd5b50604051620017fb380380620017fb83398101604081905262000034916200034c565b8151829082906200004d906004906020850190620001f3565b50805162000063906005906020840190620001f3565b50620000759150600090503362000143565b620000a17f9f2df0fed2c77648de5860a4cc508cd0818c85b8b8a1ab4ceeef8d981c8956a63362000143565b50805160209182012060408051808201825260018152603160f81b9084015280517f8b73c3c69bb8fe3d512ecc4cf759cc79239f7b179b0ffacaa9a75d522b39400f81850152808201929092527fc89efdaa54c0f20c7adf612882df0950f5a951637e0307cdcb4c672f298b8bc660608301524660808301523060a0808401919091528151808403909101815260c09092019052805191012060065562000406565b6200014f828262000153565b5050565b6000828152602081815260408083206001600160a01b038516845290915290205460ff166200014f576000828152602081815260408083206001600160a01b03851684529091529020805460ff19166001179055620001af3390565b6001600160a01b0316816001600160a01b0316837f2f8788117e7eff1d82e926ec794901d17c78024a50270940304540a733656f0d60405160405180910390a45050565b8280546200020190620003b3565b90600052602060002090601f01602090048101928262000225576000855562000270565b82601f106200024057805160ff191683800117855562000270565b8280016001018555821562000270579182015b828111156200027057825182559160200191906001019062000253565b506200027e92915062000282565b5090565b5b808211156200027e576000815560010162000283565b600082601f830112620002aa578081fd5b81516001600160401b0380821115620002c757620002c7620003f0565b604051601f8301601f19908116603f01168101908282118183101715620002f257620002f2620003f0565b816040528381526020925086838588010111156200030e578485fd5b8491505b8382101562000331578582018301518183018401529082019062000312565b838211156200034257848385830101525b9695505050505050565b600080604083850312156200035f578182fd5b82516001600160401b038082111562000376578384fd5b620003848683870162000299565b935060208501519150808211156200039a578283fd5b50620003a98582860162000299565b9150509250929050565b600281046001821680620003c857607f821691505b60208210811415620003ea57634e487b7160e01b600052602260045260246000fd5b50919050565b634e487b7160e01b600052604160045260246000fd5b6113e580620004166000396000f3fe608060405234801561001057600080fd5b50600436106101735760003560e01c806340c10f19116100de578063a217fddf11610097578063d505accf11610071578063d505accf14610342578063d539139314610355578063d547741f1461037c578063dd62ed3e1461038f57610173565b8063a217fddf14610314578063a457c2d71461031c578063a9059cbb1461032f57610173565b806340c10f191461028a57806342966c681461029d57806370a08231146102b05780637ecebe00146102d957806391d14854146102f957806395d89b411461030c57610173565b80632f2ff15d116101305780632f2ff15d1461021057806330adf81f14610225578063313ce5671461024c5780633644e5151461025b57806336568abe14610264578063395093511461027757610173565b806301ffc9a71461017857806306fdde03146101a0578063095ea7b3146101b557806318160ddd146101c857806323b872dd146101da578063248a9ca3146101ed575b600080fd5b61018b610186366004611299565b6103c8565b60405190151581526020015b60405180910390f35b6101a8610401565b60405161019791906112c1565b61018b6101c3366004611236565b610493565b6003545b604051908152602001610197565b61018b6101e836600461118a565b6104a9565b6101cc6101fb36600461125f565b60009081526020819052604090206001015490565b61022361021e366004611277565b61055f565b005b6101cc7f6e71edae12b1b97f4d1f60370fef10105fa2faae0126114a169c64845d6126c981565b60405160128152602001610197565b6101cc60065481565b610223610272366004611277565b6105ee565b61018b610285366004611236565b610668565b610223610298366004611236565b61069f565b6102236102ab36600461125f565b61071a565b6101cc6102be366004611137565b6001600160a01b031660009081526001602052604090205490565b6101cc6102e7366004611137565b60076020526000908152604090205481565b61018b610307366004611277565b610798565b6101a86107c1565b6101cc600081565b61018b61032a366004611236565b6107d0565b61018b61033d366004611236565b61086b565b6102236103503660046111c5565b610878565b6101cc7f9f2df0fed2c77648de5860a4cc508cd0818c85b8b8a1ab4ceeef8d981c8956a681565b61022361038a366004611277565b610a8c565b6101cc61039d366004611158565b6001600160a01b03918216600090815260026020908152604080832093909416825291909152205490565b60006001600160e01b03198216637965db0b60e01b14806103f957506301ffc9a760e01b6001600160e01b03198316145b90505b919050565b60606004805461041090611343565b80601f016020809104026020016040519081016040528092919081815260200182805461043c90611343565b80156104895780601f1061045e57610100808354040283529160200191610489565b820191906000526020600020905b81548152906001019060200180831161046c57829003601f168201915b5050505050905090565b60006104a0338484610b0c565b50600192915050565b60006104b6848484610c31565b6001600160a01b0384166000908152600260209081526040808320338452909152902054828110156105405760405162461bcd60e51b815260206004820152602860248201527f45524332303a207472616e7366657220616d6f756e74206578636565647320616044820152676c6c6f77616e636560c01b60648201526084015b60405180910390fd5b610554853361054f868561132c565b610b0c565b506001949350505050565b60008281526020819052604090206001015461057c905b33610307565b6105e05760405162461bcd60e51b815260206004820152602f60248201527f416363657373436f6e74726f6c3a2073656e646572206d75737420626520616e60448201526e0818591b5a5b881d1bc819dc985b9d608a1b6064820152608401610537565b6105ea8282610e09565b5050565b6001600160a01b038116331461065e5760405162461bcd60e51b815260206004820152602f60248201527f416363657373436f6e74726f6c3a2063616e206f6e6c792072656e6f756e636560448201526e103937b632b9903337b91039b2b63360891b6064820152608401610537565b6105ea8282610e8d565b3360008181526002602090815260408083206001600160a01b038716845290915281205490916104a091859061054f908690611314565b6106c97f9f2df0fed2c77648de5860a4cc508cd0818c85b8b8a1ab4ceeef8d981c8956a633610798565b6107105760405162461bcd60e51b81526020600482015260186024820152776f6e6c7941676772656761746f723a2062616420726f6c6560401b6044820152606401610537565b6105ea8282610ef2565b6107447f9f2df0fed2c77648de5860a4cc508cd0818c85b8b8a1ab4ceeef8d981c8956a633610798565b61078b5760405162461bcd60e51b81526020600482015260186024820152776f6e6c7941676772656761746f723a2062616420726f6c6560401b6044820152606401610537565b6107953382610fd1565b50565b6000918252602082815260408084206001600160a01b0393909316845291905290205460ff1690565b60606005805461041090611343565b3360009081526002602090815260408083206001600160a01b0386168452909152812054828110156108525760405162461bcd60e51b815260206004820152602560248201527f45524332303a2064656372656173656420616c6c6f77616e63652062656c6f77604482015264207a65726f60d81b6064820152608401610537565b610861338561054f868561132c565b5060019392505050565b60006104a0338484610c31565b428410156108bd5760405162461bcd60e51b8152602060048201526012602482015271155b9a5cddd85c158c8e881156141254915160721b6044820152606401610537565b6006546001600160a01b038816600090815260076020526040812080549192917f6e71edae12b1b97f4d1f60370fef10105fa2faae0126114a169c64845d6126c9918b918b918b9190876109108361137e565b909155506040805160208101969096526001600160a01b0394851690860152929091166060840152608083015260a082015260c0810187905260e0016040516020818303038152906040528051906020012060405160200161098992919061190160f01b81526002810192909252602282015260420190565b60408051601f198184030181528282528051602091820120600080855291840180845281905260ff88169284019290925260608301869052608083018590529092509060019060a0016020604051602081039080840390855afa1580156109f4573d6000803e3d6000fd5b5050604051601f1901519150506001600160a01b03811615801590610a2a5750886001600160a01b0316816001600160a01b0316145b610a765760405162461bcd60e51b815260206004820152601960248201527f7065726d69743a20696e76616c6964207369676e6174757265000000000000006044820152606401610537565b610a81898989610b0c565b505050505050505050565b600082815260208190526040902060010154610aa790610576565b61065e5760405162461bcd60e51b815260206004820152603060248201527f416363657373436f6e74726f6c3a2073656e646572206d75737420626520616e60448201526f2061646d696e20746f207265766f6b6560801b6064820152608401610537565b6001600160a01b038316610b6e5760405162461bcd60e51b8152602060048201526024808201527f45524332303a20617070726f76652066726f6d20746865207a65726f206164646044820152637265737360e01b6064820152608401610537565b6001600160a01b038216610bcf5760405162461bcd60e51b815260206004820152602260248201527f45524332303a20617070726f766520746f20746865207a65726f206164647265604482015261737360f01b6064820152608401610537565b6001600160a01b0383811660008181526002602090815260408083209487168084529482529182902085905590518481527f8c5be1e5ebec7d5bd14f71427d1e84f3dd0314c0f7b2291e5b200ac8c7c3b92591015b60405180910390a3505050565b6001600160a01b038316610c955760405162461bcd60e51b815260206004820152602560248201527f45524332303a207472616e736665722066726f6d20746865207a65726f206164604482015264647265737360d81b6064820152608401610537565b6001600160a01b038216610cf75760405162461bcd60e51b815260206004820152602360248201527f45524332303a207472616e7366657220746f20746865207a65726f206164647260448201526265737360e81b6064820152608401610537565b6001600160a01b03831660009081526001602052604090205481811015610d6f5760405162461bcd60e51b815260206004820152602660248201527f45524332303a207472616e7366657220616d6f756e7420657863656564732062604482015265616c616e636560d01b6064820152608401610537565b610d79828261132c565b6001600160a01b038086166000908152600160205260408082209390935590851681529081208054849290610daf908490611314565b92505081905550826001600160a01b0316846001600160a01b03167fddf252ad1be2c89b69c2b068fc378daa952ba7f163c4a11628f55a4df523b3ef84604051610dfb91815260200190565b60405180910390a350505050565b610e138282610798565b6105ea576000828152602081815260408083206001600160a01b03851684529091529020805460ff19166001179055610e493390565b6001600160a01b0316816001600160a01b0316837f2f8788117e7eff1d82e926ec794901d17c78024a50270940304540a733656f0d60405160405180910390a45050565b610e978282610798565b156105ea576000828152602081815260408083206001600160a01b0385168085529252808320805460ff1916905551339285917ff6391f5c32d9c69d2a47ea670b442974b53935d1edc7fd64eb21e047a839171b9190a45050565b6001600160a01b038216610f485760405162461bcd60e51b815260206004820152601f60248201527f45524332303a206d696e7420746f20746865207a65726f2061646472657373006044820152606401610537565b8060036000828254610f5a9190611314565b90915550506001600160a01b03821660009081526001602052604081208054839290610f87908490611314565b90915550506040518181526001600160a01b038316906000907fddf252ad1be2c89b69c2b068fc378daa952ba7f163c4a11628f55a4df523b3ef9060200160405180910390a35050565b6001600160a01b0382166110315760405162461bcd60e51b815260206004820152602160248201527f45524332303a206275726e2066726f6d20746865207a65726f206164647265736044820152607360f81b6064820152608401610537565b6001600160a01b038216600090815260016020526040902054818110156110a55760405162461bcd60e51b815260206004820152602260248201527f45524332303a206275726e20616d6f756e7420657863656564732062616c616e604482015261636560f01b6064820152608401610537565b6110af828261132c565b6001600160a01b038416600090815260016020526040812091909155600380548492906110dd90849061132c565b90915550506040518281526000906001600160a01b038516907fddf252ad1be2c89b69c2b068fc378daa952ba7f163c4a11628f55a4df523b3ef90602001610c24565b80356001600160a01b03811681146103fc57600080fd5b600060208284031215611148578081fd5b61115182611120565b9392505050565b6000806040838503121561116a578081fd5b61117383611120565b915061118160208401611120565b90509250929050565b60008060006060848603121561119e578081fd5b6111a784611120565b92506111b560208501611120565b9150604084013590509250925092565b600080600080600080600060e0888a0312156111df578283fd5b6111e888611120565b96506111f660208901611120565b95506040880135945060608801359350608088013560ff81168114611219578384fd5b9699959850939692959460a0840135945060c09093013592915050565b60008060408385031215611248578182fd5b61125183611120565b946020939093013593505050565b600060208284031215611270578081fd5b5035919050565b60008060408385031215611289578182fd5b8235915061118160208401611120565b6000602082840312156112aa578081fd5b81356001600160e01b031981168114611151578182fd5b6000602080835283518082850152825b818110156112ed578581018301518582016040015282016112d1565b818111156112fe5783604083870101525b50601f01601f1916929092016040019392505050565b6000821982111561132757611327611399565b500190565b60008282101561133e5761133e611399565b500390565b60028104600182168061135757607f821691505b6020821081141561137857634e487b7160e01b600052602260045260246000fd5b50919050565b600060001982141561139257611392611399565b5060010190565b634e487b7160e01b600052601160045260246000fdfea26469706673582212206e2a1e7e2b5546fe4beba2fc926f82b77c4d1cbd108d393f74195c9f151464f464736f6c63430008020033a264697066735822122099194892a357662d3a17670e72fe2bb8ebf2fd9c295ec95da14893717fff1cc764736f6c63430008020033",
  "immutableReferences": {},
  "source": "// SPDX-License-Identifier: MIT\npragma solidity ^0.8.2;\n\nimport \"@openzeppelin/contracts/token/ERC20/IERC20.sol\";\nimport \"@openzeppelin/contracts/token/ERC20/utils/SafeERC20.sol\";\nimport \"../interfaces/IWhiteLightAggregator.sol\";\nimport \"../interfaces/IWhiteLightDebridge.sol\";\nimport \"./WhiteDebridge.sol\";\n\ncontract WhiteLightDebridge is WhiteDebridge, IWhiteLightDebridge {\n    using SafeERC20 for IERC20;\n\n    address public aggregatorAddr;\n\n    /// @dev Constructor that initializes the most important configurations.\n    /// @param _minAmount Minimal amount of current chain token to be wrapped.\n    /// @param _transferFee Transfer fee rate.\n    /// @param _minReserves Minimal reserve ratio.\n    /// @param _aggregator Submission aggregator address.\n    /// @param _supportedChainIds Chain ids where native token of the current chain can be wrapped.\n    constructor(\n        uint256 _minAmount,\n        uint256 _transferFee,\n        uint256 _minReserves,\n        address _aggregator,\n        uint256[] memory _supportedChainIds,\n        IDefiController _defiController\n    )\n        WhiteDebridge(\n            _minAmount,\n            _transferFee,\n            _minReserves,\n            _aggregator,\n            _supportedChainIds,\n            _defiController\n        )\n    {}\n\n    /// @dev Mints wrapped asset on the current chain.\n    /// @param _debridgeId Asset identifier.\n    /// @param _receiver Receiver address.\n    /// @param _amount Amount of the transfered asset (note: without applyed fee).\n    /// @param _nonce Submission id.\n    /// @param _trxData Array of transactions by oracles of 2 elements - payload up to the receiver address and the signature bytes.\n    function mint(\n        bytes32 _debridgeId,\n        address _receiver,\n        uint256 _amount,\n        uint256 _nonce,\n        bytes[2][] calldata _trxData\n    ) external override {\n        bytes32 mintId =\n            getSubmisionId(_debridgeId, _amount, _receiver, _nonce);\n        require(\n            IWhiteLightAggregator(aggregator).submitMint(mintId, _trxData),\n            \"mint: not confirmed\"\n        );\n        _mint(mintId, _debridgeId, _receiver, _amount);\n    }\n\n    /// @dev Unlock the asset on the current chain and transfer to receiver.\n    /// @param _debridgeId Asset identifier.\n    /// @param _receiver Receiver address.\n    /// @param _amount Amount of the transfered asset (note: the fee can be applyed).\n    /// @param _nonce Submission id.\n    /// @param _trxData Array of transactions by oracles of 2 elements - payload up to the receiver address and the signature bytes.\n    function claim(\n        bytes32 _debridgeId,\n        address _receiver,\n        uint256 _amount,\n        uint256 _nonce,\n        bytes[2][] calldata _trxData\n    ) external override {\n        bytes32 burntId =\n            getSubmisionId(_debridgeId, _amount, _receiver, _nonce);\n        require(\n            IWhiteLightAggregator(aggregator).submitBurn(burntId, _trxData),\n            \"claim: not confirmed\"\n        );\n        _claim(burntId, _debridgeId, _receiver, _amount);\n    }\n}\n",
  "sourcePath": "/Users/kstasi/Documents/side/debridge-contracts/contracts/transfers/WhiteLightDebridge.sol",
  "compiler": {
    "name": "solc",
    "version": "0.8.2+commit.661d1103.Emscripten.clang"
  },
  "schemaVersion": "3.3.4",
  "updatedAt": "2021-04-15T13:57:59.839Z",
  "networkType": "ethereum",
  "devdoc": {
    "kind": "dev",
    "methods": {
      "addExternalAsset(address,uint256,uint256,uint256,uint256,uint256[],string,string)": {
        "details": "Add support for the asset from the other chain, deploy new wrapped asset.",
        "params": {
          "_chainId": "Current chain id.",
          "_minAmount": "Minimal amount of the asset to be wrapped.",
          "_minReserves": "Minimal reserve ration.",
          "_name": "Wrapped asset name.",
          "_supportedChainIds": "Chain ids where the token of the current chain can be transfered.",
          "_symbol": "Wrapped asset symbol.",
          "_tokenAddress": "Address of the asset on the other chain.",
          "_transferFee": "Transfer fee rate."
        }
      },
      "addNativeAsset(address,uint256,uint256,uint256,uint256[])": {
        "details": "Add support for the asset on the current chain.",
        "params": {
          "_minAmount": "Minimal amount of current chain token to be wrapped.",
          "_minReserves": "Minimal reserve ration.",
          "_supportedChainIds": "Chain ids where native token of the current chain can be wrapped.",
          "_tokenAddress": "Address of the asset on the current chain.",
          "_transferFee": "Transfer fee rate."
        }
      },
      "burn(bytes32,address,uint256)": {
        "details": "Burns wrapped asset and allowss to claim it on the other chain.",
        "params": {
          "_amount": "Amount of the transfered asset (note: the fee can be applyed).",
          "_debridgeId": "Asset identifier.",
          "_receiver": "Receiver address."
        }
      },
      "claim(bytes32,address,uint256,uint256,bytes[2][])": {
        "details": "Unlock the asset on the current chain and transfer to receiver.",
        "params": {
          "_amount": "Amount of the transfered asset (note: the fee can be applyed).",
          "_debridgeId": "Asset identifier.",
          "_nonce": "Submission id.",
          "_receiver": "Receiver address.",
          "_trxData": "Array of transactions by oracles of 2 elements - payload up to the receiver address and the signature bytes."
        }
      },
      "constructor": {
        "details": "Constructor that initializes the most important configurations.",
        "params": {
          "_aggregator": "Submission aggregator address.",
          "_minAmount": "Minimal amount of current chain token to be wrapped.",
          "_minReserves": "Minimal reserve ratio.",
          "_supportedChainIds": "Chain ids where native token of the current chain can be wrapped.",
          "_transferFee": "Transfer fee rate."
        }
      },
      "getBalance(address)": {
        "details": "Check the balance.",
        "params": {
          "_tokenAddress": "Address of the asset on the other chain."
        }
      },
      "getDebridgeId(uint256,address)": {
        "details": "Calculates asset identifier.",
        "params": {
          "_chainId": "Current chain id.",
          "_tokenAddress": "Address of the asset on the other chain."
        }
      },
      "getRoleAdmin(bytes32)": {
        "details": "Returns the admin role that controls `role`. See {grantRole} and {revokeRole}. To change a role's admin, use {_setRoleAdmin}."
      },
      "getSubmisionId(bytes32,uint256,address,uint256)": {
        "details": "Calculate submission id.",
        "params": {
          "_amount": "Amount of the transfered asset (note: the fee can be applyed).",
          "_debridgeId": "Asset identifier.",
          "_nonce": "Submission id.",
          "_receiver": "Receiver address."
        }
      },
      "getSupportedChainIds(bytes32)": {
        "details": "Get all supported chain ids.",
        "params": {
          "_debridgeId": "Asset identifier."
        }
      },
      "grantRole(bytes32,address)": {
        "details": "Grants `role` to `account`. If `account` had not been already granted `role`, emits a {RoleGranted} event. Requirements: - the caller must have ``role``'s admin role."
      },
      "hasRole(bytes32,address)": {
        "details": "Returns `true` if `account` has been granted `role`."
      },
      "mint(bytes32,address,uint256,uint256,bytes[2][])": {
        "details": "Mints wrapped asset on the current chain.",
        "params": {
          "_amount": "Amount of the transfered asset (note: without applyed fee).",
          "_debridgeId": "Asset identifier.",
          "_nonce": "Submission id.",
          "_receiver": "Receiver address.",
          "_trxData": "Array of transactions by oracles of 2 elements - payload up to the receiver address and the signature bytes."
        }
      },
      "renounceRole(bytes32,address)": {
        "details": "Revokes `role` from the calling account. Roles are often managed via {grantRole} and {revokeRole}: this function's purpose is to provide a mechanism for accounts to lose their privileges if they are compromised (such as when a trusted device is misplaced). If the calling account had been granted `role`, emits a {RoleRevoked} event. Requirements: - the caller must be `account`."
      },
      "requestReserves(address,uint256)": {
        "details": "Request the assets to be used in defi protocol.",
        "params": {
          "_amount": "Amount of tokens to request.",
          "_tokenAddress": "Asset address."
        }
      },
      "returnReserves(address,uint256)": {
        "details": "Return the assets that were used in defi protocol.",
        "params": {
          "_amount": "Amount of tokens to claim.",
          "_tokenAddress": "Asset address."
        }
      },
      "revokeRole(bytes32,address)": {
        "details": "Revokes `role` from `account`. If `account` had been granted `role`, emits a {RoleRevoked} event. Requirements: - the caller must have ``role``'s admin role."
      },
      "send(bytes32,address,uint256,uint256)": {
        "details": "Locks asset on the chain and enables minting on the other chain.",
        "params": {
          "_amount": "Amount to be transfered (note: the fee can be applyed).",
          "_chainIdTo": "Chain id of the target chain.",
          "_debridgeId": "Asset identifier.",
          "_receiver": "Receiver address."
        }
      },
      "setAggregator(address)": {
        "details": "Set aggregator address.",
        "params": {
          "_aggregator": "Submission aggregator address."
        }
      },
      "setChainIdSupport(bytes32,uint256,bool)": {
        "details": "Set support for the chains where the token can be transfered.",
        "params": {
          "_chainId": "Current chain id.",
          "_debridgeId": "Asset identifier.",
          "_isSupported": "Whether the token is transferable to the other chain."
        }
      },
      "setDefiController(address)": {
        "details": "Set defi controoler.",
        "params": {
          "_defiController": "Defi controller address address."
        }
      },
      "supportsInterface(bytes4)": {
        "details": "See {IERC165-supportsInterface}."
      },
      "withdrawFee(bytes32,address,uint256)": {
        "details": "Withdraw fees.",
        "params": {
          "_amount": "Amount of tokens to withdraw.",
          "_debridgeId": "Asset identifier.",
          "_receiver": "Receiver address."
        }
      }
    },
    "version": 1
  },
  "userdoc": {
    "kind": "user",
    "methods": {},
    "version": 1
  }
}