{
  "contractName": "WhiteLightDebridge",
  "abi": [
    {
      "anonymous": false,
      "inputs": [
        {
          "indexed": false,
          "internalType": "bytes32",
          "name": "submissionId",
          "type": "bytes32"
        },
        {
          "indexed": false,
          "internalType": "bytes32",
          "name": "debridgeId",
          "type": "bytes32"
        },
        {
          "indexed": false,
          "internalType": "uint256",
          "name": "amount",
          "type": "uint256"
        },
        {
          "indexed": false,
          "internalType": "address",
          "name": "receiver",
          "type": "address"
        },
        {
          "indexed": false,
          "internalType": "uint256",
          "name": "nonce",
          "type": "uint256"
        },
        {
          "indexed": false,
          "internalType": "uint256",
          "name": "chainIdTo",
          "type": "uint256"
        }
      ],
      "name": "Burnt",
      "type": "event"
    },
    {
      "anonymous": false,
      "inputs": [
        {
          "indexed": true,
          "internalType": "bytes32",
          "name": "debridgeId",
          "type": "bytes32"
        },
        {
          "indexed": true,
          "internalType": "uint256",
          "name": "chainId",
          "type": "uint256"
        }
      ],
      "name": "ChainSupportAdded",
      "type": "event"
    },
    {
      "anonymous": false,
      "inputs": [
        {
          "indexed": true,
          "internalType": "bytes32",
          "name": "debridgeId",
          "type": "bytes32"
        },
        {
          "indexed": true,
          "internalType": "uint256",
          "name": "chainId",
          "type": "uint256"
        }
      ],
      "name": "ChainSupportRemoved",
      "type": "event"
    },
    {
      "anonymous": false,
      "inputs": [
        {
          "indexed": false,
          "internalType": "bytes32",
          "name": "submissionId",
          "type": "bytes32"
        },
        {
          "indexed": false,
          "internalType": "uint256",
          "name": "amount",
          "type": "uint256"
        },
        {
          "indexed": false,
          "internalType": "address",
          "name": "receiver",
          "type": "address"
        },
        {
          "indexed": false,
          "internalType": "bytes32",
          "name": "debridgeId",
          "type": "bytes32"
        }
      ],
      "name": "Claimed",
      "type": "event"
    },
    {
      "anonymous": false,
      "inputs": [
        {
          "indexed": false,
          "internalType": "bytes32",
          "name": "submissionId",
          "type": "bytes32"
        },
        {
          "indexed": false,
          "internalType": "uint256",
          "name": "amount",
          "type": "uint256"
        },
        {
          "indexed": false,
          "internalType": "address",
          "name": "receiver",
          "type": "address"
        },
        {
          "indexed": false,
          "internalType": "bytes32",
          "name": "debridgeId",
          "type": "bytes32"
        }
      ],
      "name": "Minted",
      "type": "event"
    },
    {
      "anonymous": false,
      "inputs": [
        {
          "indexed": true,
          "internalType": "bytes32",
          "name": "debridgeId",
          "type": "bytes32"
        },
        {
          "indexed": true,
          "internalType": "address",
          "name": "tokenAddress",
          "type": "address"
        },
        {
          "indexed": true,
          "internalType": "uint256",
          "name": "chainId",
          "type": "uint256"
        },
        {
          "indexed": false,
          "internalType": "uint256",
          "name": "minAmount",
          "type": "uint256"
        },
        {
          "indexed": false,
          "internalType": "uint256",
          "name": "fixedFee",
          "type": "uint256"
        },
        {
          "indexed": false,
          "internalType": "uint256",
          "name": "transferFee",
          "type": "uint256"
        },
        {
          "indexed": false,
          "internalType": "uint256",
          "name": "minReserves",
          "type": "uint256"
        }
      ],
      "name": "PairAdded",
      "type": "event"
    },
    {
      "anonymous": false,
      "inputs": [
        {
          "indexed": false,
          "internalType": "address",
          "name": "account",
          "type": "address"
        }
      ],
      "name": "Paused",
      "type": "event"
    },
    {
      "anonymous": false,
      "inputs": [
        {
          "indexed": true,
          "internalType": "bytes32",
          "name": "role",
          "type": "bytes32"
        },
        {
          "indexed": true,
          "internalType": "bytes32",
          "name": "previousAdminRole",
          "type": "bytes32"
        },
        {
          "indexed": true,
          "internalType": "bytes32",
          "name": "newAdminRole",
          "type": "bytes32"
        }
      ],
      "name": "RoleAdminChanged",
      "type": "event"
    },
    {
      "anonymous": false,
      "inputs": [
        {
          "indexed": true,
          "internalType": "bytes32",
          "name": "role",
          "type": "bytes32"
        },
        {
          "indexed": true,
          "internalType": "address",
          "name": "account",
          "type": "address"
        },
        {
          "indexed": true,
          "internalType": "address",
          "name": "sender",
          "type": "address"
        }
      ],
      "name": "RoleGranted",
      "type": "event"
    },
    {
      "anonymous": false,
      "inputs": [
        {
          "indexed": true,
          "internalType": "bytes32",
          "name": "role",
          "type": "bytes32"
        },
        {
          "indexed": true,
          "internalType": "address",
          "name": "account",
          "type": "address"
        },
        {
          "indexed": true,
          "internalType": "address",
          "name": "sender",
          "type": "address"
        }
      ],
      "name": "RoleRevoked",
      "type": "event"
    },
    {
      "anonymous": false,
      "inputs": [
        {
          "indexed": false,
          "internalType": "bytes32",
          "name": "submissionId",
          "type": "bytes32"
        },
        {
          "indexed": false,
          "internalType": "bytes32",
          "name": "debridgeId",
          "type": "bytes32"
        },
        {
          "indexed": false,
          "internalType": "uint256",
          "name": "amount",
          "type": "uint256"
        },
        {
          "indexed": false,
          "internalType": "address",
          "name": "receiver",
          "type": "address"
        },
        {
          "indexed": false,
          "internalType": "uint256",
          "name": "nonce",
          "type": "uint256"
        },
        {
          "indexed": false,
          "internalType": "uint256",
          "name": "chainIdTo",
          "type": "uint256"
        }
      ],
      "name": "Sent",
      "type": "event"
    },
    {
      "anonymous": false,
      "inputs": [
        {
          "indexed": false,
          "internalType": "address",
          "name": "account",
          "type": "address"
        }
      ],
      "name": "Unpaused",
      "type": "event"
    },
    {
      "inputs": [],
      "name": "DEFAULT_ADMIN_ROLE",
      "outputs": [
        {
          "internalType": "bytes32",
          "name": "",
          "type": "bytes32"
        }
      ],
      "stateMutability": "view",
      "type": "function"
    },
    {
      "inputs": [],
      "name": "DENOMINATOR",
      "outputs": [
        {
          "internalType": "uint256",
          "name": "",
          "type": "uint256"
        }
      ],
      "stateMutability": "view",
      "type": "function"
    },
    {
      "inputs": [
        {
          "internalType": "address",
          "name": "_tokenAddress",
          "type": "address"
        },
        {
          "internalType": "address",
          "name": "_wrappedAssetAddress",
          "type": "address"
        },
        {
          "internalType": "uint256",
          "name": "_chainId",
          "type": "uint256"
        },
        {
          "internalType": "uint256",
          "name": "_minAmount",
          "type": "uint256"
        },
        {
          "internalType": "uint256",
          "name": "_fixedFee",
          "type": "uint256"
        },
        {
          "internalType": "uint256",
          "name": "_transferFee",
          "type": "uint256"
        },
        {
          "internalType": "uint256",
          "name": "_minReserves",
          "type": "uint256"
        },
        {
          "internalType": "uint256[]",
          "name": "_supportedChainIds",
          "type": "uint256[]"
        }
      ],
      "name": "addExternalAsset",
      "outputs": [],
      "stateMutability": "nonpayable",
      "type": "function"
    },
    {
      "inputs": [
        {
          "internalType": "address",
          "name": "_tokenAddress",
          "type": "address"
        },
        {
          "internalType": "uint256",
          "name": "_minAmount",
          "type": "uint256"
        },
        {
          "internalType": "uint256",
          "name": "_fixedFee",
          "type": "uint256"
        },
        {
          "internalType": "uint256",
          "name": "_transferFee",
          "type": "uint256"
        },
        {
          "internalType": "uint256",
          "name": "_minReserves",
          "type": "uint256"
        },
        {
          "internalType": "uint256[]",
          "name": "_supportedChainIds",
          "type": "uint256[]"
        }
      ],
      "name": "addNativeAsset",
      "outputs": [],
      "stateMutability": "nonpayable",
      "type": "function"
    },
    {
      "inputs": [],
      "name": "aggregator",
      "outputs": [
        {
          "internalType": "address",
          "name": "",
          "type": "address"
        }
      ],
      "stateMutability": "view",
      "type": "function"
    },
    {
      "inputs": [],
      "name": "aggregatorVersion",
      "outputs": [
        {
          "internalType": "uint8",
          "name": "",
          "type": "uint8"
        }
      ],
      "stateMutability": "view",
      "type": "function"
    },
    {
      "inputs": [
        {
          "internalType": "bytes32",
          "name": "_debridgeId",
          "type": "bytes32"
        },
        {
          "internalType": "address",
          "name": "_receiver",
          "type": "address"
        },
        {
          "internalType": "uint256",
          "name": "_amount",
          "type": "uint256"
        },
        {
          "internalType": "uint256",
          "name": "_chainIdTo",
          "type": "uint256"
        }
      ],
      "name": "burn",
      "outputs": [],
      "stateMutability": "nonpayable",
      "type": "function"
    },
    {
      "inputs": [],
      "name": "chainId",
      "outputs": [
        {
          "internalType": "uint256",
          "name": "",
          "type": "uint256"
        }
      ],
      "stateMutability": "view",
      "type": "function"
    },
    {
      "inputs": [],
      "name": "defiController",
      "outputs": [
        {
          "internalType": "contract IDefiController",
          "name": "",
          "type": "address"
        }
      ],
      "stateMutability": "view",
      "type": "function"
    },
    {
      "inputs": [
        {
          "internalType": "address",
          "name": "_tokenAddress",
          "type": "address"
        }
      ],
      "name": "getBalance",
      "outputs": [
        {
          "internalType": "uint256",
          "name": "",
          "type": "uint256"
        }
      ],
      "stateMutability": "view",
      "type": "function"
    },
    {
      "inputs": [
        {
          "internalType": "bytes32",
          "name": "",
          "type": "bytes32"
        }
      ],
      "name": "getDebridge",
      "outputs": [
        {
          "internalType": "address",
          "name": "tokenAddress",
          "type": "address"
        },
        {
          "internalType": "uint256",
          "name": "chainId",
          "type": "uint256"
        },
        {
          "internalType": "uint256",
          "name": "minAmount",
          "type": "uint256"
        },
        {
          "internalType": "uint256",
          "name": "fixedFee",
          "type": "uint256"
        },
        {
          "internalType": "uint256",
          "name": "transferFee",
          "type": "uint256"
        },
        {
          "internalType": "uint256",
          "name": "collectedFees",
          "type": "uint256"
        },
        {
          "internalType": "uint256",
          "name": "balance",
          "type": "uint256"
        },
        {
          "internalType": "uint256",
          "name": "minReserves",
          "type": "uint256"
        }
      ],
      "stateMutability": "view",
      "type": "function"
    },
    {
      "inputs": [
        {
          "internalType": "uint256",
          "name": "_chainId",
          "type": "uint256"
        },
        {
          "internalType": "address",
          "name": "_tokenAddress",
          "type": "address"
        }
      ],
      "name": "getDebridgeId",
      "outputs": [
        {
          "internalType": "bytes32",
          "name": "",
          "type": "bytes32"
        }
      ],
      "stateMutability": "pure",
      "type": "function"
    },
    {
      "inputs": [
        {
          "internalType": "uint8",
          "name": "",
          "type": "uint8"
        }
      ],
      "name": "getOldAggregator",
      "outputs": [
        {
          "internalType": "address",
          "name": "aggregator",
          "type": "address"
        },
        {
          "internalType": "bool",
          "name": "isValid",
          "type": "bool"
        }
      ],
      "stateMutability": "view",
      "type": "function"
    },
    {
      "inputs": [
        {
          "internalType": "bytes32",
          "name": "role",
          "type": "bytes32"
        }
      ],
      "name": "getRoleAdmin",
      "outputs": [
        {
          "internalType": "bytes32",
          "name": "",
          "type": "bytes32"
        }
      ],
      "stateMutability": "view",
      "type": "function"
    },
    {
      "inputs": [
        {
          "internalType": "bytes32",
          "name": "_debridgeId",
          "type": "bytes32"
        },
        {
          "internalType": "uint256",
          "name": "_chainIdTo",
          "type": "uint256"
        },
        {
          "internalType": "uint256",
          "name": "_amount",
          "type": "uint256"
        },
        {
          "internalType": "address",
          "name": "_receiver",
          "type": "address"
        },
        {
          "internalType": "uint256",
          "name": "_nonce",
          "type": "uint256"
        }
      ],
      "name": "getSubmisionId",
      "outputs": [
        {
          "internalType": "bytes32",
          "name": "",
          "type": "bytes32"
        }
      ],
      "stateMutability": "pure",
      "type": "function"
    },
    {
      "inputs": [
        {
          "internalType": "bytes32",
          "name": "_debridgeId",
          "type": "bytes32"
        }
      ],
      "name": "getSupportedChainIds",
      "outputs": [
        {
          "internalType": "uint256[]",
          "name": "",
          "type": "uint256[]"
        }
      ],
      "stateMutability": "view",
      "type": "function"
    },
    {
      "inputs": [
        {
          "internalType": "address",
          "name": "",
          "type": "address"
        }
      ],
      "name": "getUserNonce",
      "outputs": [
        {
          "internalType": "uint256",
          "name": "",
          "type": "uint256"
        }
      ],
      "stateMutability": "view",
      "type": "function"
    },
    {
      "inputs": [
        {
          "internalType": "bytes32",
          "name": "role",
          "type": "bytes32"
        },
        {
          "internalType": "address",
          "name": "account",
          "type": "address"
        }
      ],
      "name": "grantRole",
      "outputs": [],
      "stateMutability": "nonpayable",
      "type": "function"
    },
    {
      "inputs": [
        {
          "internalType": "bytes32",
          "name": "role",
          "type": "bytes32"
        },
        {
          "internalType": "address",
          "name": "account",
          "type": "address"
        }
      ],
      "name": "hasRole",
      "outputs": [
        {
          "internalType": "bool",
          "name": "",
          "type": "bool"
        }
      ],
      "stateMutability": "view",
      "type": "function"
    },
    {
      "inputs": [
        {
          "internalType": "bytes32",
          "name": "",
          "type": "bytes32"
        }
      ],
      "name": "isSubmissionUsed",
      "outputs": [
        {
          "internalType": "bool",
          "name": "",
          "type": "bool"
        }
      ],
      "stateMutability": "view",
      "type": "function"
    },
    {
      "inputs": [
        {
          "internalType": "uint8",
          "name": "_aggregatorVersion",
          "type": "uint8"
        },
        {
          "internalType": "bool",
          "name": "_isValid",
          "type": "bool"
        }
      ],
      "name": "manageOldAggregator",
      "outputs": [],
      "stateMutability": "nonpayable",
      "type": "function"
    },
    {
      "inputs": [],
      "name": "pause",
      "outputs": [],
      "stateMutability": "nonpayable",
      "type": "function"
    },
    {
      "inputs": [],
      "name": "paused",
      "outputs": [
        {
          "internalType": "bool",
          "name": "",
          "type": "bool"
        }
      ],
      "stateMutability": "view",
      "type": "function"
    },
    {
      "inputs": [
        {
          "internalType": "bytes32",
          "name": "role",
          "type": "bytes32"
        },
        {
          "internalType": "address",
          "name": "account",
          "type": "address"
        }
      ],
      "name": "renounceRole",
      "outputs": [],
      "stateMutability": "nonpayable",
      "type": "function"
    },
    {
      "inputs": [
        {
          "internalType": "address",
          "name": "_tokenAddress",
          "type": "address"
        },
        {
          "internalType": "uint256",
          "name": "_amount",
          "type": "uint256"
        }
      ],
      "name": "requestReserves",
      "outputs": [],
      "stateMutability": "nonpayable",
      "type": "function"
    },
    {
      "inputs": [
        {
          "internalType": "address",
          "name": "_tokenAddress",
          "type": "address"
        },
        {
          "internalType": "uint256",
          "name": "_amount",
          "type": "uint256"
        }
      ],
      "name": "returnReserves",
      "outputs": [],
      "stateMutability": "payable",
      "type": "function"
    },
    {
      "inputs": [
        {
          "internalType": "bytes32",
          "name": "role",
          "type": "bytes32"
        },
        {
          "internalType": "address",
          "name": "account",
          "type": "address"
        }
      ],
      "name": "revokeRole",
      "outputs": [],
      "stateMutability": "nonpayable",
      "type": "function"
    },
    {
      "inputs": [
        {
          "internalType": "bytes32",
          "name": "_debridgeId",
          "type": "bytes32"
        },
        {
          "internalType": "address",
          "name": "_receiver",
          "type": "address"
        },
        {
          "internalType": "uint256",
          "name": "_amount",
          "type": "uint256"
        },
        {
          "internalType": "uint256",
          "name": "_chainIdTo",
          "type": "uint256"
        }
      ],
      "name": "send",
      "outputs": [],
      "stateMutability": "payable",
      "type": "function"
    },
    {
      "inputs": [
        {
          "internalType": "address",
          "name": "_aggregator",
          "type": "address"
        }
      ],
      "name": "setAggregator",
      "outputs": [],
      "stateMutability": "nonpayable",
      "type": "function"
    },
    {
      "inputs": [
        {
          "internalType": "bytes32",
          "name": "_debridgeId",
          "type": "bytes32"
        },
        {
          "internalType": "uint256",
          "name": "_chainId",
          "type": "uint256"
        },
        {
          "internalType": "bool",
          "name": "_isSupported",
          "type": "bool"
        }
      ],
      "name": "setChainIdSupport",
      "outputs": [],
      "stateMutability": "nonpayable",
      "type": "function"
    },
    {
      "inputs": [
        {
          "internalType": "contract IDefiController",
          "name": "_defiController",
          "type": "address"
        }
      ],
      "name": "setDefiController",
      "outputs": [],
      "stateMutability": "nonpayable",
      "type": "function"
    },
    {
      "inputs": [
        {
          "internalType": "bytes4",
          "name": "interfaceId",
          "type": "bytes4"
        }
      ],
      "name": "supportsInterface",
      "outputs": [
        {
          "internalType": "bool",
          "name": "",
          "type": "bool"
        }
      ],
      "stateMutability": "view",
      "type": "function"
    },
    {
      "inputs": [],
      "name": "unpause",
      "outputs": [],
      "stateMutability": "nonpayable",
      "type": "function"
    },
    {
      "inputs": [
        {
          "internalType": "bytes32",
          "name": "_debridgeId",
          "type": "bytes32"
        },
        {
          "internalType": "uint256",
          "name": "_minAmount",
          "type": "uint256"
        },
        {
          "internalType": "uint256",
          "name": "_fixedFee",
          "type": "uint256"
        },
        {
          "internalType": "uint256",
          "name": "_transferFee",
          "type": "uint256"
        },
        {
          "internalType": "uint256",
          "name": "_minReserves",
          "type": "uint256"
        }
      ],
      "name": "updateAsset",
      "outputs": [],
      "stateMutability": "nonpayable",
      "type": "function"
    },
    {
      "inputs": [
        {
          "internalType": "bytes32",
          "name": "_debridgeId",
          "type": "bytes32"
        },
        {
          "internalType": "address",
          "name": "_receiver",
          "type": "address"
        },
        {
          "internalType": "uint256",
          "name": "_amount",
          "type": "uint256"
        }
      ],
      "name": "withdrawFee",
      "outputs": [],
      "stateMutability": "nonpayable",
      "type": "function"
    },
    {
      "inputs": [
        {
          "internalType": "uint256",
          "name": "_minAmount",
          "type": "uint256"
        },
        {
          "internalType": "uint256",
          "name": "_fixedFee",
          "type": "uint256"
        },
        {
          "internalType": "uint256",
          "name": "_transferFee",
          "type": "uint256"
        },
        {
          "internalType": "uint256",
          "name": "_minReserves",
          "type": "uint256"
        },
        {
          "internalType": "address",
          "name": "_aggregator",
          "type": "address"
        },
        {
          "internalType": "uint256[]",
          "name": "_supportedChainIds",
          "type": "uint256[]"
        },
        {
          "internalType": "contract IDefiController",
          "name": "_defiController",
          "type": "address"
        }
      ],
      "name": "initialize",
      "outputs": [],
      "stateMutability": "payable",
      "type": "function"
    },
    {
      "inputs": [
        {
          "internalType": "bytes32",
          "name": "_debridgeId",
          "type": "bytes32"
        },
        {
          "internalType": "address",
          "name": "_receiver",
          "type": "address"
        },
        {
          "internalType": "uint256",
          "name": "_amount",
          "type": "uint256"
        },
        {
          "internalType": "uint256",
          "name": "_nonce",
          "type": "uint256"
        },
        {
          "internalType": "bytes[2][]",
          "name": "_trxData",
          "type": "bytes[2][]"
        }
      ],
      "name": "mint",
      "outputs": [],
      "stateMutability": "nonpayable",
      "type": "function"
    },
    {
      "inputs": [
        {
          "internalType": "bytes32",
          "name": "_debridgeId",
          "type": "bytes32"
        },
        {
          "internalType": "address",
          "name": "_receiver",
          "type": "address"
        },
        {
          "internalType": "uint256",
          "name": "_amount",
          "type": "uint256"
        },
        {
          "internalType": "uint256",
          "name": "_nonce",
          "type": "uint256"
        },
        {
          "internalType": "bytes[2][]",
          "name": "_trxData",
          "type": "bytes[2][]"
        },
        {
          "internalType": "uint8",
          "name": "_aggregatorVersion",
          "type": "uint8"
        }
      ],
      "name": "mintWithOldAggregator",
      "outputs": [],
      "stateMutability": "nonpayable",
      "type": "function"
    },
    {
      "inputs": [
        {
          "internalType": "bytes32",
          "name": "_debridgeId",
          "type": "bytes32"
        },
        {
          "internalType": "address",
          "name": "_receiver",
          "type": "address"
        },
        {
          "internalType": "uint256",
          "name": "_amount",
          "type": "uint256"
        },
        {
          "internalType": "uint256",
          "name": "_nonce",
          "type": "uint256"
        },
        {
          "internalType": "bytes[2][]",
          "name": "_trxData",
          "type": "bytes[2][]"
        }
      ],
      "name": "claim",
      "outputs": [],
      "stateMutability": "nonpayable",
      "type": "function"
    },
    {
      "inputs": [
        {
          "internalType": "bytes32",
          "name": "_debridgeId",
          "type": "bytes32"
        },
        {
          "internalType": "address",
          "name": "_receiver",
          "type": "address"
        },
        {
          "internalType": "uint256",
          "name": "_amount",
          "type": "uint256"
        },
        {
          "internalType": "uint256",
          "name": "_nonce",
          "type": "uint256"
        },
        {
          "internalType": "bytes[2][]",
          "name": "_trxData",
          "type": "bytes[2][]"
        },
        {
          "internalType": "uint8",
          "name": "_aggregatorVersion",
          "type": "uint8"
        }
      ],
      "name": "claimWithOldAggregator",
      "outputs": [],
      "stateMutability": "nonpayable",
      "type": "function"
    }
  ],
  "bytecode": "0x608060405234801561001057600080fd5b50613358806100206000396000f3fe60806040526004361061023b5760003560e01c80636b7cbb691161012e5780639a8a0592116100ab578063d311f6561161006f578063d311f6561461078f578063d547741f146107c2578063f8b2cb4f146107e2578063f9120af614610802578063fe67b0b8146108225761023b565b80639a8a059214610704578063a217fddf1461071a578063accf708b1461072f578063b41eced51461074f578063be7f21841461076f5761023b565b80638456cb59116100f25780638456cb59146106665780638a2034cc1461067b578063918f8674146106a857806391d14854146106c45780639682b909146106e45761023b565b80636b7cbb69146105925780637454f331146105b257806378e17e2e146105d257806383d3f95d146105e5578063841b162b146106055761023b565b806346144c8f116101bc57806365ac9f781161018057806365ac9f78146104e257806365f3b0c7146105125780636834e3a81461053257806369fad9b81461055f5780636b063d651461057f5761023b565b806346144c8f146103b55780635352e983146103d557806357cf07ca146103f55780635c975abb146104a35780635fe582b5146104c25761023b565b8063245a7bfc11610203578063245a7bfc146102ea578063248a9ca3146103225780632f2ff15d1461036057806336568abe146103805780633f4ba83a146103a05761023b565b806301ffc9a714610240578063031ac61314610275578063084826e11461028a5780630a0e5e9a146102aa578063106f432f146102ca575b600080fd5b34801561024c57600080fd5b5061026061025b366004612eee565b610842565b60405190151581526020015b60405180910390f35b610288610283366004612d05565b61087b565b005b34801561029657600080fd5b506102886102a5366004612db2565b610bb3565b3480156102b657600080fd5b506102886102c5366004612e34565b610d42565b3480156102d657600080fd5b506102886102e5366004612b20565b610e02565b3480156102f657600080fd5b5060035461030a906001600160a01b031681565b6040516001600160a01b03909116815260200161026c565b34801561032e57600080fd5b5061035261033d366004612c87565b60009081526020819052604090206001015490565b60405190815260200161026c565b34801561036c57600080fd5b5061028861037b366004612c9f565b610e4b565b34801561038c57600080fd5b5061028861039b366004612c9f565b610eda565b3480156103ac57600080fd5b50610288610f54565b3480156103c157600080fd5b5060045461030a906001600160a01b031681565b3480156103e157600080fd5b506102886103f0366004612d05565b610fda565b34801561040157600080fd5b5061045e610410366004612c87565b6005602081905260009182526040909120805460018201546002830154600384015460048501549585015460068601546007909601546001600160a01b039095169693959294919392909188565b604080516001600160a01b0390991689526020890197909752958701949094526060860192909252608085015260a084015260c083015260e08201526101000161026c565b3480156104af57600080fd5b5061026060015462010000900460ff1690565b3480156104ce57600080fd5b506102886104dd366004612d41565b611302565b3480156104ee57600080fd5b506102606104fd366004612c87565b60066020526000908152604090205460ff1681565b34801561051e57600080fd5b5061028861052d366004612eb4565b6113f1565b34801561053e57600080fd5b5061035261054d366004612b20565b60076020526000908152604090205481565b34801561056b57600080fd5b5061028861057a366004612bf8565b611442565b61028861058d366004612bcd565b61148b565b34801561059e57600080fd5b506102886105ad366004612fd1565b61152d565b3480156105be57600080fd5b506103526105cd366004612e6c565b6115f0565b6102886105e0366004612f2e565b61164e565b3480156105f157600080fd5b50610288610600366004612cce565b61171f565b34801561061157600080fd5b50610647610620366004612fb7565b6008602052600090815260409020546001600160a01b03811690600160a01b900460ff1682565b604080516001600160a01b03909316835290151560208301520161026c565b34801561067257600080fd5b50610288611837565b34801561068757600080fd5b5061069b610696366004612c87565b611895565b60405161026c9190613042565b3480156106b457600080fd5b50610352670de0b6b3a764000081565b3480156106d057600080fd5b506102606106df366004612c9f565b6118fa565b3480156106f057600080fd5b506103526106ff366004612c9f565b611923565b34801561071057600080fd5b5061035260025481565b34801561072657600080fd5b50610352600081565b34801561073b57600080fd5b5061028861074a366004612b3c565b611971565b34801561075b57600080fd5b5061028861076a366004612d41565b6119b6565b34801561077b57600080fd5b5061028861078a366004612bcd565b611a9d565b34801561079b57600080fd5b506003546107b090600160a01b900460ff1681565b60405160ff909116815260200161026c565b3480156107ce57600080fd5b506102886107dd366004612c9f565b611c2d565b3480156107ee57600080fd5b506103526107fd366004612b20565b611cad565b34801561080e57600080fd5b5061028861081d366004612b20565b611d42565b34801561082e57600080fd5b5061028861083d366004612db2565b611e0c565b60006001600160e01b03198216637965db0b60e01b148061087357506301ffc9a760e01b6001600160e01b03198316145b90505b919050565b61088d60015462010000900460ff1690565b156108b35760405162461bcd60e51b81526004016108aa906131a4565b60405180910390fd5b600084815260056020526040902060025460018201541461090f5760405162461bcd60e51b815260206004820152601660248201527539b2b7321d103737ba103730ba34bb329031b430b4b760511b60448201526064016108aa565b600082815260098201602052604090205460ff1661096f5760405162461bcd60e51b815260206004820152601860248201527f73656e643a2077726f6e672074617267656420636861696e000000000000000060448201526064016108aa565b80600201548310156109ba5760405162461bcd60e51b815260206004820152601460248201527373656e643a20616d6f756e7420746f6f206c6f7760601b60448201526064016108aa565b80546001600160a01b0316610a1557348314610a105760405162461bcd60e51b81526020600482015260156024820152740e6cadcc87440c2dadeeadce840dad2e6dac2e8c6d605b1b60448201526064016108aa565b610a2c565b8054610a2c906001600160a01b0316333086611f8e565b6000670de0b6b3a7640000826004015485610a479190613233565b610a519190613213565b8260030154610a6091906131fb565b90508015610adf5780841015610ab85760405162461bcd60e51b815260206004820152601b60248201527f73656e643a20616d6f756e74206e6f7420636f7665722066656573000000000060448201526064016108aa565b80826005016000828254610acc91906131fb565b90915550610adc90508185613252565b93505b83826006016000828254610af391906131fb565b90915550506001600160a01b03851660009081526007602052604081205490610b1f8886888a866115f0565b60408051828152602081018b90529081018890526001600160a01b03891660608201526080810184905260a081018790529091507f17c61cb89b62a3f29f5b150e3489c7a796ac4dc95fd73af14faa2c8086a324b49060c00160405180910390a16001600160a01b0387166000908152600760205260408120805491610ba483613295565b91905055505050505050505050565b6000610bc488600254888a896115f0565b60ff8084166000908152600860209081526040918290208251808401909352546001600160a01b0381168352600160a01b90049092161515918101829052919250610c635760405162461bcd60e51b815260206004820152602960248201527f6d696e74576974684f6c6441676772656761746f723a20696e76616c6964206160448201526833b3b932b3b0ba37b960b91b60648201526084016108aa565b8051604051631e49005360e11b81526001600160a01b0390911690633c9200a690610c9690859089908990600401613086565b602060405180830381600087803b158015610cb057600080fd5b505af1158015610cc4573d6000803e3d6000fd5b505050506040513d601f19601f82011682018060405250810190610ce89190612c6b565b610d2b5760405162461bcd60e51b815260206004820152601460248201527318db185a5b4e881b9bdd0818dbdb999a5c9b595960621b60448201526064016108aa565b610d37828a8a8a611ff9565b505050505050505050565b610d4d6000336118fa565b610d695760405162461bcd60e51b81526004016108aa906131ce565b600083815260056020908152604080832085845260098101909252909120805460ff19168315801591909117909155610dce57604051839085907fdd4dbf80f57aa5115a1e07abb36e4de565879d4de5bd15b3803d666fe1d8486390600090a3610dfc565b604051839085907f86c512831f7a2aad3f56b4169c161be1028776ab950c72e26237a0310ded560690600090a35b50505050565b610e0d6000336118fa565b610e295760405162461bcd60e51b81526004016108aa906131ce565b600480546001600160a01b0319166001600160a01b0392909216919091179055565b600082815260208190526040902060010154610e68905b336106df565b610ecc5760405162461bcd60e51b815260206004820152602f60248201527f416363657373436f6e74726f6c3a2073656e646572206d75737420626520616e60448201526e0818591b5a5b881d1bc819dc985b9d608a1b60648201526084016108aa565b610ed682826121aa565b5050565b6001600160a01b0381163314610f4a5760405162461bcd60e51b815260206004820152602f60248201527f416363657373436f6e74726f6c3a2063616e206f6e6c792072656e6f756e636560448201526e103937b632b9903337b91039b2b63360891b60648201526084016108aa565b610ed6828261222e565b610f5f6000336118fa565b610f7b5760405162461bcd60e51b81526004016108aa906131ce565b610f8d60015462010000900460ff1690565b610fd05760405162461bcd60e51b815260206004820152601460248201527314185d5cd8589b194e881b9bdd081c185d5cd95960621b60448201526064016108aa565b610fd8612293565b565b610fec60015462010000900460ff1690565b156110095760405162461bcd60e51b81526004016108aa906131a4565b6000848152600560205260409020600254600182015414156110625760405162461bcd60e51b8152602060048201526012602482015271189d5c9b8e881b985d1a5d9948185cdcd95d60721b60448201526064016108aa565b80600201548310156110ad5760405162461bcd60e51b81526020600482015260146024820152736275726e3a20616d6f756e7420746f6f206c6f7760601b60448201526064016108aa565b80546040516323b872dd60e01b8152336004820152306024820152604481018590526001600160a01b039091169081906323b872dd90606401602060405180830381600087803b15801561110057600080fd5b505af1158015611114573d6000803e3d6000fd5b505050506040513d601f19601f820116820180604052508101906111389190612c6b565b506000670de0b6b3a76400008360040154866111549190613233565b61115e9190613213565b836003015461116d91906131fb565b905080156111ec57808510156111c55760405162461bcd60e51b815260206004820152601b60248201527f6275726e3a20616d6f756e74206e6f7420636f7665722066656573000000000060448201526064016108aa565b808360050160008282546111d991906131fb565b909155506111e990508186613252565b94505b604051630852cd8d60e31b8152600481018690526001600160a01b038316906342966c6890602401600060405180830381600087803b15801561122e57600080fd5b505af1158015611242573d6000803e3d6000fd5b5050506001600160a01b038716600090815260076020526040812054915061126d8987898b866115f0565b60408051828152602081018c90529081018990526001600160a01b038a1660608201526080810184905260a081018890529091507fb8cc5195d548dc2781227c496b92d3736cd56d7f32b28971c9ae1e9eb0badf959060c00160405180910390a16001600160a01b03881660009081526007602052604081208054916112f283613295565b9190505550505050505050505050565b6000611313876002548789886115f0565b600354604051631e49005360e11b81529192506001600160a01b031690633c9200a69061134890849087908790600401613086565b602060405180830381600087803b15801561136257600080fd5b505af1158015611376573d6000803e3d6000fd5b505050506040513d601f19601f8201168201806040525081019061139a9190612c6b565b6113dc5760405162461bcd60e51b81526020600482015260136024820152721b5a5b9d0e881b9bdd0818dbdb999a5c9b5959606a1b60448201526064016108aa565b6113e88188888861232a565b50505050505050565b6113fc6000336118fa565b6114185760405162461bcd60e51b81526004016108aa906131ce565b60009485526005602052604090942060028101939093556003830191909155600482015560070155565b61144d6000336118fa565b6114695760405162461bcd60e51b81526004016108aa906131ce565b600061147760025488611923565b90506113e8818860025489898989896124ab565b6004546001600160a01b031633146114e05760405162461bcd60e51b815260206004820152601860248201527764656669436f6e74726f6c6c65723a2062616420726f6c6560401b60448201526064016108aa565b60006114ee60025484611923565b60008181526005602052604090208054919250906001600160a01b031615610dfc576004548154610dfc916001600160a01b0391821691163086611f8e565b6115386000336118fa565b6115545760405162461bcd60e51b81526004016108aa906131ce565b60035460ff600160a01b9091048116908316106115c15760405162461bcd60e51b815260206004820152602560248201527f6d616e6167654f6c6441676772656761746f723a2076657273696f6e20746f6f604482015264040d0d2ced60db1b60648201526084016108aa565b60ff90911660009081526008602052604090208054911515600160a01b0260ff60a01b19909216919091179055565b6040805160208101879052908101859052606080820185905283901b6bffffffffffffffffffffffff191660808201526094810182905260009060b40160405160208183030381529060405280519060200120905095945050505050565b600154610100900460ff1680611667575060015460ff16155b6116ca5760405162461bcd60e51b815260206004820152602e60248201527f496e697469616c697a61626c653a20636f6e747261637420697320616c72656160448201526d191e481a5b9a5d1a585b1a5e995960921b60648201526084016108aa565b600154610100900460ff161580156116f4576001805460ff1961ff00199091166101001716811790555b61170388888888888888612604565b8015611715576001805461ff00191690555b5050505050505050565b61172a6000336118fa565b6117465760405162461bcd60e51b81526004016108aa906131ce565b6000838152600560208190526040909120908101548211156117aa5760405162461bcd60e51b815260206004820152601b60248201527f77697468647261774665653a206e6f7420656e6f75676820666565000000000060448201526064016108aa565b818160050160008282546117be9190613252565b909155505060025460018201541480156117e0575080546001600160a01b0316155b15611821576040516001600160a01b0384169083156108fc029084906000818181858888f1935050505015801561181b573d6000803e3d6000fd5b50610dfc565b8054610dfc906001600160a01b0316848461265c565b6118426000336118fa565b61185e5760405162461bcd60e51b81526004016108aa906131ce565b61187060015462010000900460ff1690565b1561188d5760405162461bcd60e51b81526004016108aa906131a4565b610fd8612691565b6000818152600560209081526040918290206008018054835181840281018401909452808452606093928301828280156118ee57602002820191906000526020600020905b8154815260200190600101908083116118da575b50505050509050919050565b6000918252602082815260408084206001600160a01b0393909316845291905290205460ff1690565b6000828260405160200161195392919091825260601b6bffffffffffffffffffffffff1916602082015260340190565b60405160208183030381529060405280519060200120905092915050565b61197c6000336118fa565b6119985760405162461bcd60e51b81526004016108aa906131ce565b60006119a4878a611923565b9050610d3781898989898989896124ab565b60006119c7876002548789886115f0565b600354604051631e49005360e11b81529192506001600160a01b031690633c9200a6906119fc90849087908790600401613086565b602060405180830381600087803b158015611a1657600080fd5b505af1158015611a2a573d6000803e3d6000fd5b505050506040513d601f19601f82011682018060405250810190611a4e9190612c6b565b611a915760405162461bcd60e51b815260206004820152601460248201527318db185a5b4e881b9bdd0818dbdb999a5c9b595960621b60448201526064016108aa565b6113e881888888611ff9565b6004546001600160a01b03163314611af25760405162461bcd60e51b815260206004820152601860248201527764656669436f6e74726f6c6c65723a2062616420726f6c6560401b60448201526064016108aa565b6000611b0060025484611923565b6000818152600560205260408120600781015460068201549394509092670de0b6b3a764000091611b3091613233565b611b3a9190613213565b8254909150600090611b54906001600160a01b0316611cad565b905080611b6186846131fb565b11611bba5760405162461bcd60e51b8152602060048201526024808201527f7265717565737452657365727665733a206e6f7420656e6f75676820726573656044820152637276657360e01b60648201526084016108aa565b82546001600160a01b0316611c09576004546040516001600160a01b039091169086156108fc029087906000818181858888f19350505050158015611c03573d6000803e3d6000fd5b50611c25565b6004548354611c25916001600160a01b0391821691168761265c565b505050505050565b600082815260208190526040902060010154611c4890610e62565b610f4a5760405162461bcd60e51b815260206004820152603060248201527f416363657373436f6e74726f6c3a2073656e646572206d75737420626520616e60448201526f2061646d696e20746f207265766f6b6560801b60648201526084016108aa565b60006001600160a01b038216611cc4575047610876565b6040516370a0823160e01b81523060048201526001600160a01b038316906370a082319060240160206040518083038186803b158015611d0357600080fd5b505afa158015611d17573d6000803e3d6000fd5b505050506040513d601f19601f82011682018060405250810190611d3b9190612f16565b9050610876565b611d4d6000336118fa565b611d695760405162461bcd60e51b81526004016108aa906131ce565b604080518082018252600380546001600160a01b0380821684526001602080860191825260ff600160a01b948590048116600090815260089092529690209451855491511515840260ff60a01b199184166001600160a01b0319938416179190911617909455825490861693169290921780825591909104909116906014611df0836132b0565b91906101000a81548160ff021916908360ff1602179055505050565b6000611e1d88600254888a896115f0565b60ff8084166000908152600860209081526040918290208251808401909352546001600160a01b0381168352600160a01b90049092161515918101829052919250611ebb5760405162461bcd60e51b815260206004820152602860248201527f6d696e74576974684f6c6441676772656761746f723a20696e76616c6964416760448201526733b932b3b0ba37b960c11b60648201526084016108aa565b8051604051631e49005360e11b81526001600160a01b0390911690633c9200a690611eee90859089908990600401613086565b602060405180830381600087803b158015611f0857600080fd5b505af1158015611f1c573d6000803e3d6000fd5b505050506040513d601f19601f82011682018060405250810190611f409190612c6b565b611f825760405162461bcd60e51b81526020600482015260136024820152721b5a5b9d0e881b9bdd0818dbdb999a5c9b5959606a1b60448201526064016108aa565b610d37828a8a8a61232a565b6040516001600160a01b0380851660248301528316604482015260648101829052610dfc9085906323b872dd60e01b906084015b60408051601f198184030181529190526020810180516001600160e01b03166001600160e01b031990931692909217909152612701565b600083815260056020526040902060025460018201541461205c5760405162461bcd60e51b815260206004820152601960248201527f636c61696d3a2077726f6e672074617267657420636861696e0000000000000060448201526064016108aa565b60008581526006602052604090205460ff16156120b15760405162461bcd60e51b815260206004820152601360248201527218db185a5b4e88185b1c9958591e481d5cd959606a1b60448201526064016108aa565b60008581526006602081905260408220805460ff19166001179055820180548492906120de908490613252565b909155506120ee905081836127d3565b80546001600160a01b0316612139576040516001600160a01b0384169083156108fc029084906000818181858888f19350505050158015612133573d6000803e3d6000fd5b5061214f565b805461214f906001600160a01b0316848461265c565b60408051868152602081018490526001600160a01b03851691810191909152606081018590527fabe3bed2a8590dd123c1a018888bce6142d526741bed65dfe570fb223525c6a4906080015b60405180910390a15050505050565b6121b482826118fa565b610ed6576000828152602081815260408083206001600160a01b03851684529091529020805460ff191660011790556121ea3390565b6001600160a01b0316816001600160a01b0316837f2f8788117e7eff1d82e926ec794901d17c78024a50270940304540a733656f0d60405160405180910390a45050565b61223882826118fa565b15610ed6576000828152602081815260408083206001600160a01b0385168085529252808320805460ff1916905551339285917ff6391f5c32d9c69d2a47ea670b442974b53935d1edc7fd64eb21e047a839171b9190a45050565b6122a560015462010000900460ff1690565b6122e85760405162461bcd60e51b815260206004820152601460248201527314185d5cd8589b194e881b9bdd081c185d5cd95960621b60448201526064016108aa565b6001805462ff0000191690556040513381527f5db9ee0a495bf2e6ff9c91a7834c1ba4fdd244a5e8aa4e537bd38aeae4b073aa906020015b60405180910390a1565b60008481526006602052604090205460ff161561237e5760405162461bcd60e51b81526020600482015260126024820152711b5a5b9d0e88185b1c9958591e481d5cd95960721b60448201526064016108aa565b60008381526005602090815260408083208784526006909252909120805460ff191660019081179091556002549082015414156123f55760405162461bcd60e51b815260206004820152601560248201527436b4b73a1d1034b9903730ba34bb329031b430b4b760591b60448201526064016108aa565b80546040516340c10f1960e01b81526001600160a01b03858116600483015260248201859052909116906340c10f1990604401600060405180830381600087803b15801561244257600080fd5b505af1158015612456573d6000803e3d6000fd5b505060408051888152602081018690526001600160a01b03871691810191909152606081018790527f5918a95fd00afb5898499bd5beade1619e98655d2b4ff6e0f6a4347f0a69c1279250608001905061219b565b600088815260056020526040812080546001600160a01b0319166001600160a01b038a16178155600181018890556002810187905560038101869055600481018590556007810184905590805b83518110156125a05783818151811061252157634e487b7160e01b600052603260045260246000fd5b60209081029190910181015160008181526009860183526040808220805460ff1916600190811790915560088801805491820181558352938220909301829055915190935083918d917fdd4dbf80f57aa5115a1e07abb36e4de565879d4de5bd15b3803d666fe1d848639190a38061259881613295565b9150506124f8565b5060408051888152602081018890529081018690526060810185905288906001600160a01b038b16908c907fd942912aeb558da46e785c7a8abcd48c74853b5c29c54a9a350a389d9d2345549060800160405180910390a450505050505050505050565b46600281905560006126168282611923565b905061262b8160006002548c8c8c8c8b6124ab565b600380546001600160a01b0319166001600160a01b0387811691909117909155600454169250610d37600033610ecc565b6040516001600160a01b03831660248201526044810182905261268c90849063a9059cbb60e01b90606401611fc2565b505050565b6126a360015462010000900460ff1690565b156126c05760405162461bcd60e51b81526004016108aa906131a4565b6001805462ff00001916620100001790556040513381527f62e78cea01bee320cd4e420270b5ea74000d11b0c9f74754ebdbfc544b05a25890602001612320565b6000612756826040518060400160405280602081526020017f5361666545524332303a206c6f772d6c6576656c2063616c6c206661696c6564815250856001600160a01b03166128af9092919063ffffffff16565b80519091501561268c57808060200190518101906127749190612c6b565b61268c5760405162461bcd60e51b815260206004820152602a60248201527f5361666545524332303a204552433230206f7065726174696f6e20646964206e6044820152691bdd081cdd58d8d9595960b21b60648201526084016108aa565b6000670de0b6b3a7640000836007015484600601546127f29190613233565b6127fc9190613213565b8354909150600090612816906001600160a01b0316611cad565b905060008383116128275783612829565b825b9050818111156128a85761283d8282613252565b6004805487546040516309e62b9160e01b81526001600160a01b03918216938101939093526024830184905292935091909116906309e62b9190604401600060405180830381600087803b15801561289457600080fd5b505af1158015610d37573d6000803e3d6000fd5b5050505050565b60606128be84846000856128c8565b90505b9392505050565b6060824710156129295760405162461bcd60e51b815260206004820152602660248201527f416464726573733a20696e73756666696369656e742062616c616e636520666f6044820152651c8818d85b1b60d21b60648201526084016108aa565b843b6129775760405162461bcd60e51b815260206004820152601d60248201527f416464726573733a2063616c6c20746f206e6f6e2d636f6e747261637400000060448201526064016108aa565b600080866001600160a01b031685876040516129939190613026565b60006040518083038185875af1925050503d80600081146129d0576040519150601f19603f3d011682016040523d82523d6000602084013e6129d5565b606091505b50915091506129e58282866129f0565b979650505050505050565b606083156129ff5750816128c1565b825115612a0f5782518084602001fd5b8160405162461bcd60e51b81526004016108aa9190613171565b60008083601f840112612a3a578081fd5b50813567ffffffffffffffff811115612a51578182fd5b6020830191508360208083028501011115612a6b57600080fd5b9250929050565b600082601f830112612a82578081fd5b8135602067ffffffffffffffff80831115612a9f57612a9f6132e6565b818302604051601f19603f83011681018181108482111715612ac357612ac36132e6565b60405284815283810192508684018288018501891015612ae1578687fd5b8692505b85831015612b03578035845292840192600192909201918401612ae5565b50979650505050505050565b803560ff8116811461087657600080fd5b600060208284031215612b31578081fd5b81356128c1816132fc565b600080600080600080600080610100898b031215612b58578384fd5b8835612b63816132fc565b97506020890135612b73816132fc565b965060408901359550606089013594506080890135935060a0890135925060c0890135915060e089013567ffffffffffffffff811115612bb1578182fd5b612bbd8b828c01612a72565b9150509295985092959890939650565b60008060408385031215612bdf578182fd5b8235612bea816132fc565b946020939093013593505050565b60008060008060008060c08789031215612c10578182fd5b8635612c1b816132fc565b95506020870135945060408701359350606087013592506080870135915060a087013567ffffffffffffffff811115612c52578182fd5b612c5e89828a01612a72565b9150509295509295509295565b600060208284031215612c7c578081fd5b81516128c181613314565b600060208284031215612c98578081fd5b5035919050565b60008060408385031215612cb1578182fd5b823591506020830135612cc3816132fc565b809150509250929050565b600080600060608486031215612ce2578283fd5b833592506020840135612cf4816132fc565b929592945050506040919091013590565b60008060008060808587031215612d1a578384fd5b843593506020850135612d2c816132fc565b93969395505050506040820135916060013590565b60008060008060008060a08789031215612d59578384fd5b863595506020870135612d6b816132fc565b94506040870135935060608701359250608087013567ffffffffffffffff811115612d94578283fd5b612da089828a01612a29565b979a9699509497509295939492505050565b600080600080600080600060c0888a031215612dcc578081fd5b873596506020880135612dde816132fc565b95506040880135945060608801359350608088013567ffffffffffffffff811115612e07578182fd5b612e138a828b01612a29565b9094509250612e26905060a08901612b0f565b905092959891949750929550565b600080600060608486031215612e48578081fd5b83359250602084013591506040840135612e6181613314565b809150509250925092565b600080600080600060a08688031215612e83578283fd5b8535945060208601359350604086013592506060860135612ea3816132fc565b949793965091946080013592915050565b600080600080600060a08688031215612ecb578283fd5b505083359560208501359550604085013594606081013594506080013592509050565b600060208284031215612eff578081fd5b81356001600160e01b0319811681146128c1578182fd5b600060208284031215612f27578081fd5b5051919050565b600080600080600080600060e0888a031215612f48578081fd5b873596506020880135955060408801359450606088013593506080880135612f6f816132fc565b925060a088013567ffffffffffffffff811115612f8a578182fd5b612f968a828b01612a72565b92505060c0880135612fa7816132fc565b8091505092959891949750929550565b600060208284031215612fc8578081fd5b6128c182612b0f565b60008060408385031215612fe3578182fd5b612fec83612b0f565b91506020830135612cc381613314565b60008284528282602086013780602084860101526020601f19601f85011685010190509392505050565b60008251613038818460208701613269565b9190910192915050565b6020808252825182820181905260009190848201906040850190845b8181101561307a5783518352928401929184019160010161305e565b50909695505050505050565b6000604080830186845260208281860152818683526060860190506060828802870101925087855b8881101561316257878503605f190183528135368b9003603e190181126130d3578788fd5b8a0185878101828a36829003601e19015b600282101561314a578a8403855282358181126130ff578d8efd5b8601803567ffffffffffffffff811115613117578e8ffd5b803603881315613125578e8ffd5b61313286828e8501612ffc565b968c01969550505091890191600191909101906130e4565b509198505050938501935050908301906001016130ae565b50929998505050505050505050565b6000602082528251806020840152613190816040850160208701613269565b601f01601f19169190910160400192915050565b60208082526010908201526f14185d5cd8589b194e881c185d5cd95960821b604082015260600190565b6020808252601390820152726f6e6c7941646d696e3a2062616420726f6c6560681b604082015260600190565b6000821982111561320e5761320e6132d0565b500190565b60008261322e57634e487b7160e01b81526012600452602481fd5b500490565b600081600019048311821515161561324d5761324d6132d0565b500290565b600082821015613264576132646132d0565b500390565b60005b8381101561328457818101518382015260200161326c565b83811115610dfc5750506000910152565b60006000198214156132a9576132a96132d0565b5060010190565b600060ff821660ff8114156132c7576132c76132d0565b60010192915050565b634e487b7160e01b600052601160045260246000fd5b634e487b7160e01b600052604160045260246000fd5b6001600160a01b038116811461331157600080fd5b50565b801515811461331157600080fdfea2646970667358221220464c363c6476dd14dfb6c81526cb7ce0eec1bc16409b071499ab03c3d56db88964736f6c63430008020033",
  "immutableReferences": {},
  "source": "// SPDX-License-Identifier: MIT\npragma solidity ^0.8.2;\n\nimport \"@openzeppelin/contracts/token/ERC20/IERC20.sol\";\nimport \"@openzeppelin/contracts/token/ERC20/utils/SafeERC20.sol\";\nimport \"../interfaces/IWhiteLightAggregator.sol\";\nimport \"../interfaces/IWhiteLightDebridge.sol\";\nimport \"./WhiteDebridge.sol\";\n\ncontract WhiteLightDebridge is WhiteDebridge, IWhiteLightDebridge {\n    using SafeERC20 for IERC20;\n\n    /// @dev Constructor that initializes the most important configurations.\n    /// @param _minAmount Minimal amount of current chain token to be wrapped.\n    /// @param _fixedFee Fixed transfer fee rate.\n    /// @param _transferFee Transfer fee rate.\n    /// @param _minReserves Minimal reserve ratio.\n    /// @param _aggregator Submission aggregator address.\n    /// @param _supportedChainIds Chain ids where native token of the current chain can be wrapped.\n    function initialize(\n        uint256 _minAmount,\n        uint256 _fixedFee,\n        uint256 _transferFee,\n        uint256 _minReserves,\n        address _aggregator,\n        uint256[] memory _supportedChainIds,\n        IDefiController _defiController\n    ) public payable initializer {\n        super._initialize(\n            _minAmount,\n            _fixedFee,\n            _transferFee,\n            _minReserves,\n            _aggregator,\n            _supportedChainIds,\n            _defiController\n        );\n    }\n\n    /// @dev Mints wrapped asset on the current chain.\n    /// @param _debridgeId Asset identifier.\n    /// @param _receiver Receiver address.\n    /// @param _amount Amount of the transfered asset (note: without applyed fee).\n    /// @param _nonce Submission id.\n    /// @param _trxData Array of transactions by oracles of 2 elements - payload up to the receiver address and the signature bytes.\n    function mint(\n        bytes32 _debridgeId,\n        address _receiver,\n        uint256 _amount,\n        uint256 _nonce,\n        bytes[2][] calldata _trxData\n    ) external override {\n        bytes32 submissionId =\n            getSubmisionId(_debridgeId, chainId, _amount, _receiver, _nonce);\n        require(\n            IWhiteLightAggregator(aggregator).submit(submissionId, _trxData),\n            \"mint: not confirmed\"\n        );\n        _mint(submissionId, _debridgeId, _receiver, _amount);\n    }\n\n    /// @dev Mints wrapped asset on the current chain.\n    /// @param _debridgeId Asset identifier.\n    /// @param _receiver Receiver address.\n    /// @param _amount Amount of the transfered asset (note: without applyed fee).\n    /// @param _nonce Submission id.\n    /// @param _trxData Array of transactions by oracles of 2 elements - payload up to the receiver address and the signature bytes.\n    /// @param _aggregatorVersion Aggregator version.\n    function mintWithOldAggregator(\n        bytes32 _debridgeId,\n        address _receiver,\n        uint256 _amount,\n        uint256 _nonce,\n        bytes[2][] calldata _trxData,\n        uint8 _aggregatorVersion\n    ) external override {\n        bytes32 submissionId =\n            getSubmisionId(_debridgeId, chainId, _amount, _receiver, _nonce);\n        AggregatorInfo memory aggregatorInfo =\n            getOldAggregator[_aggregatorVersion];\n        require(\n            aggregatorInfo.isValid,\n            \"mintWithOldAggregator: invalidAggregator\"\n        );\n        require(\n            IWhiteLightAggregator(aggregatorInfo.aggregator).submit(\n                submissionId,\n                _trxData\n            ),\n            \"mint: not confirmed\"\n        );\n        _mint(submissionId, _debridgeId, _receiver, _amount);\n    }\n\n    /// @dev Unlock the asset on the current chain and transfer to receiver.\n    /// @param _debridgeId Asset identifier.\n    /// @param _receiver Receiver address.\n    /// @param _amount Amount of the transfered asset (note: the fee can be applyed).\n    /// @param _nonce Submission id.\n    /// @param _trxData Array of transactions by oracles of 2 elements - payload up to the receiver address and the signature bytes.\n    function claim(\n        bytes32 _debridgeId,\n        address _receiver,\n        uint256 _amount,\n        uint256 _nonce,\n        bytes[2][] calldata _trxData\n    ) external override {\n        bytes32 submissionId =\n            getSubmisionId(_debridgeId, chainId, _amount, _receiver, _nonce);\n        require(\n            IWhiteLightAggregator(aggregator).submit(submissionId, _trxData),\n            \"claim: not confirmed\"\n        );\n        _claim(submissionId, _debridgeId, _receiver, _amount);\n    }\n\n    /// @dev Unlock the asset on the current chain and transfer to receiver.\n    /// @param _debridgeId Asset identifier.\n    /// @param _receiver Receiver address.\n    /// @param _amount Amount of the transfered asset (note: the fee can be applyed).\n    /// @param _nonce Submission id.\n    /// @param _trxData Array of transactions by oracles of 2 elements - payload up to the receiver address and the signature bytes.\n    /// @param _aggregatorVersion Aggregator version.\n    function claimWithOldAggregator(\n        bytes32 _debridgeId,\n        address _receiver,\n        uint256 _amount,\n        uint256 _nonce,\n        bytes[2][] calldata _trxData,\n        uint8 _aggregatorVersion\n    ) external override {\n        bytes32 submissionId =\n            getSubmisionId(_debridgeId, chainId, _amount, _receiver, _nonce);\n        AggregatorInfo memory aggregatorInfo =\n            getOldAggregator[_aggregatorVersion];\n        require(\n            aggregatorInfo.isValid,\n            \"mintWithOldAggregator: invalid aggregator\"\n        );\n        require(\n            IWhiteLightAggregator(aggregatorInfo.aggregator).submit(\n                submissionId,\n                _trxData\n            ),\n            \"claim: not confirmed\"\n        );\n        _claim(submissionId, _debridgeId, _receiver, _amount);\n    }\n}\n",
  "sourcePath": "/Users/kstasi/Documents/side/debridge-contracts/contracts/transfers/WhiteLightDebridge.sol",
  "compiler": {
    "name": "solc",
    "version": "0.8.2+commit.661d1103.Emscripten.clang"
  },
  "schemaVersion": "3.3.4",
  "updatedAt": "2021-04-24T05:28:34.312Z",
  "devdoc": {
    "kind": "dev",
    "methods": {
      "addExternalAsset(address,address,uint256,uint256,uint256,uint256,uint256,uint256[])": {
        "details": "Add support for the asset from the other chain, deploy new wrapped asset.",
        "params": {
          "_chainId": "Current chain id.",
          "_fixedFee": "Transfer fee rate.",
          "_minAmount": "Minimal amount of the asset to be wrapped.",
          "_minReserves": "Minimal reserve ration.",
          "_supportedChainIds": "Chain ids where the token of the current chain can be transfered.",
          "_tokenAddress": "Address of the asset on the other chain.",
          "_transferFee": "Transfer fee rate.",
          "_wrappedAssetAddress": "Wrapped asset address."
        }
      },
      "addNativeAsset(address,uint256,uint256,uint256,uint256,uint256[])": {
        "details": "Add support for the asset on the current chain.",
        "params": {
          "_fixedFee": "Transfer fee rate.",
          "_minAmount": "Minimal amount of current chain token to be wrapped.",
          "_minReserves": "Minimal reserve ration.",
          "_supportedChainIds": "Chain ids where native token of the current chain can be wrapped.",
          "_tokenAddress": "Address of the asset on the current chain.",
          "_transferFee": "Transfer fee rate."
        }
      },
      "burn(bytes32,address,uint256,uint256)": {
        "details": "Burns wrapped asset and allowss to claim it on the other chain.",
        "params": {
          "_amount": "Amount of the transfered asset (note: the fee can be applyed).",
          "_chainIdTo": "Chain id of the target chain.",
          "_debridgeId": "Asset identifier.",
          "_receiver": "Receiver address."
        }
      },
      "claim(bytes32,address,uint256,uint256,bytes[2][])": {
        "details": "Unlock the asset on the current chain and transfer to receiver.",
        "params": {
          "_amount": "Amount of the transfered asset (note: the fee can be applyed).",
          "_debridgeId": "Asset identifier.",
          "_nonce": "Submission id.",
          "_receiver": "Receiver address.",
          "_trxData": "Array of transactions by oracles of 2 elements - payload up to the receiver address and the signature bytes."
        }
      },
      "claimWithOldAggregator(bytes32,address,uint256,uint256,bytes[2][],uint8)": {
        "details": "Unlock the asset on the current chain and transfer to receiver.",
        "params": {
          "_aggregatorVersion": "Aggregator version.",
          "_amount": "Amount of the transfered asset (note: the fee can be applyed).",
          "_debridgeId": "Asset identifier.",
          "_nonce": "Submission id.",
          "_receiver": "Receiver address.",
          "_trxData": "Array of transactions by oracles of 2 elements - payload up to the receiver address and the signature bytes."
        }
      },
      "getBalance(address)": {
        "details": "Check the balance.",
        "params": {
          "_tokenAddress": "Address of the asset on the other chain."
        }
      },
      "getDebridgeId(uint256,address)": {
        "details": "Calculates asset identifier.",
        "params": {
          "_chainId": "Current chain id.",
          "_tokenAddress": "Address of the asset on the other chain."
        }
      },
      "getRoleAdmin(bytes32)": {
        "details": "Returns the admin role that controls `role`. See {grantRole} and {revokeRole}. To change a role's admin, use {_setRoleAdmin}."
      },
      "getSubmisionId(bytes32,uint256,uint256,address,uint256)": {
        "details": "Calculate submission id.",
        "params": {
          "_amount": "Amount of the transfered asset (note: the fee can be applyed).",
          "_debridgeId": "Asset identifier.",
          "_nonce": "Submission id.",
          "_receiver": "Receiver address."
        }
      },
      "getSupportedChainIds(bytes32)": {
        "details": "Get all supported chain ids.",
        "params": {
          "_debridgeId": "Asset identifier."
        }
      },
      "grantRole(bytes32,address)": {
        "details": "Grants `role` to `account`. If `account` had not been already granted `role`, emits a {RoleGranted} event. Requirements: - the caller must have ``role``'s admin role."
      },
      "hasRole(bytes32,address)": {
        "details": "Returns `true` if `account` has been granted `role`."
      },
      "initialize(uint256,uint256,uint256,uint256,address,uint256[],address)": {
        "details": "Constructor that initializes the most important configurations.",
        "params": {
          "_aggregator": "Submission aggregator address.",
          "_fixedFee": "Fixed transfer fee rate.",
          "_minAmount": "Minimal amount of current chain token to be wrapped.",
          "_minReserves": "Minimal reserve ratio.",
          "_supportedChainIds": "Chain ids where native token of the current chain can be wrapped.",
          "_transferFee": "Transfer fee rate."
        }
      },
      "manageOldAggregator(uint8,bool)": {
        "details": "Set aggregator address.",
        "params": {
          "_aggregatorVersion": "Submission aggregator address.",
          "_isValid": "Is valid."
        }
      },
      "mint(bytes32,address,uint256,uint256,bytes[2][])": {
        "details": "Mints wrapped asset on the current chain.",
        "params": {
          "_amount": "Amount of the transfered asset (note: without applyed fee).",
          "_debridgeId": "Asset identifier.",
          "_nonce": "Submission id.",
          "_receiver": "Receiver address.",
          "_trxData": "Array of transactions by oracles of 2 elements - payload up to the receiver address and the signature bytes."
        }
      },
      "mintWithOldAggregator(bytes32,address,uint256,uint256,bytes[2][],uint8)": {
        "details": "Mints wrapped asset on the current chain.",
        "params": {
          "_aggregatorVersion": "Aggregator version.",
          "_amount": "Amount of the transfered asset (note: without applyed fee).",
          "_debridgeId": "Asset identifier.",
          "_nonce": "Submission id.",
          "_receiver": "Receiver address.",
          "_trxData": "Array of transactions by oracles of 2 elements - payload up to the receiver address and the signature bytes."
        }
      },
      "pause()": {
        "details": "Stop all transfers."
      },
      "paused()": {
        "details": "Returns true if the contract is paused, and false otherwise."
      },
      "renounceRole(bytes32,address)": {
        "details": "Revokes `role` from the calling account. Roles are often managed via {grantRole} and {revokeRole}: this function's purpose is to provide a mechanism for accounts to lose their privileges if they are compromised (such as when a trusted device is misplaced). If the calling account had been granted `role`, emits a {RoleRevoked} event. Requirements: - the caller must be `account`."
      },
      "requestReserves(address,uint256)": {
        "details": "Request the assets to be used in defi protocol.",
        "params": {
          "_amount": "Amount of tokens to request.",
          "_tokenAddress": "Asset address."
        }
      },
      "returnReserves(address,uint256)": {
        "details": "Return the assets that were used in defi protocol.",
        "params": {
          "_amount": "Amount of tokens to claim.",
          "_tokenAddress": "Asset address."
        }
      },
      "revokeRole(bytes32,address)": {
        "details": "Revokes `role` from `account`. If `account` had been granted `role`, emits a {RoleRevoked} event. Requirements: - the caller must have ``role``'s admin role."
      },
      "send(bytes32,address,uint256,uint256)": {
        "details": "Locks asset on the chain and enables minting on the other chain.",
        "params": {
          "_amount": "Amount to be transfered (note: the fee can be applyed).",
          "_chainIdTo": "Chain id of the target chain.",
          "_debridgeId": "Asset identifier.",
          "_receiver": "Receiver address."
        }
      },
      "setAggregator(address)": {
        "details": "Set aggregator address.",
        "params": {
          "_aggregator": "Submission aggregator address."
        }
      },
      "setChainIdSupport(bytes32,uint256,bool)": {
        "details": "Set support for the chains where the token can be transfered.",
        "params": {
          "_chainId": "Current chain id.",
          "_debridgeId": "Asset identifier.",
          "_isSupported": "Whether the token is transferable to the other chain."
        }
      },
      "setDefiController(address)": {
        "details": "Set defi controoler.",
        "params": {
          "_defiController": "Defi controller address address."
        }
      },
      "supportsInterface(bytes4)": {
        "details": "See {IERC165-supportsInterface}."
      },
      "unpause()": {
        "details": "Allow transfers."
      },
      "updateAsset(bytes32,uint256,uint256,uint256,uint256)": {
        "details": "Add support for the asset.",
        "params": {
          "_debridgeId": "Asset identifier.",
          "_fixedFee": "Fixed transfer fee rate.",
          "_minAmount": "Minimal amount of the asset to be wrapped.",
          "_minReserves": "Minimal reserve ration.",
          "_transferFee": "Transfer fee rate."
        }
      },
      "withdrawFee(bytes32,address,uint256)": {
        "details": "Withdraw fees.",
        "params": {
          "_amount": "Amount of tokens to withdraw.",
          "_debridgeId": "Asset identifier.",
          "_receiver": "Receiver address."
        }
      }
    },
    "version": 1
  },
  "userdoc": {
    "kind": "user",
    "methods": {},
    "version": 1
  }
}