{
  "contractName": "WhiteLightDebridge",
  "abi": [
    {
      "anonymous": false,
      "inputs": [
        {
          "indexed": false,
          "internalType": "bytes32",
          "name": "submissionId",
          "type": "bytes32"
        },
        {
          "indexed": false,
          "internalType": "bytes32",
          "name": "debridgeId",
          "type": "bytes32"
        },
        {
          "indexed": false,
          "internalType": "uint256",
          "name": "amount",
          "type": "uint256"
        },
        {
          "indexed": false,
          "internalType": "address",
          "name": "receiver",
          "type": "address"
        },
        {
          "indexed": false,
          "internalType": "uint256",
          "name": "nonce",
          "type": "uint256"
        },
        {
          "indexed": false,
          "internalType": "uint256",
          "name": "chainIdTo",
          "type": "uint256"
        },
        {
          "indexed": false,
          "internalType": "uint256",
          "name": "claimFee",
          "type": "uint256"
        },
        {
          "indexed": false,
          "internalType": "bytes",
          "name": "data",
          "type": "bytes"
        }
      ],
      "name": "AutoBurnt",
      "type": "event"
    },
    {
      "anonymous": false,
      "inputs": [
        {
          "indexed": false,
          "internalType": "bytes32",
          "name": "submissionId",
          "type": "bytes32"
        },
        {
          "indexed": false,
          "internalType": "bool",
          "name": "success",
          "type": "bool"
        }
      ],
      "name": "AutoRequestExecuted",
      "type": "event"
    },
    {
      "anonymous": false,
      "inputs": [
        {
          "indexed": false,
          "internalType": "bytes32",
          "name": "submissionId",
          "type": "bytes32"
        },
        {
          "indexed": false,
          "internalType": "bytes32",
          "name": "debridgeId",
          "type": "bytes32"
        },
        {
          "indexed": false,
          "internalType": "uint256",
          "name": "amount",
          "type": "uint256"
        },
        {
          "indexed": false,
          "internalType": "address",
          "name": "receiver",
          "type": "address"
        },
        {
          "indexed": false,
          "internalType": "uint256",
          "name": "nonce",
          "type": "uint256"
        },
        {
          "indexed": false,
          "internalType": "uint256",
          "name": "chainIdTo",
          "type": "uint256"
        },
        {
          "indexed": false,
          "internalType": "uint256",
          "name": "claimFee",
          "type": "uint256"
        },
        {
          "indexed": false,
          "internalType": "bytes",
          "name": "data",
          "type": "bytes"
        }
      ],
      "name": "AutoSent",
      "type": "event"
    },
    {
      "anonymous": false,
      "inputs": [
        {
          "indexed": false,
          "internalType": "bytes32",
          "name": "submissionId",
          "type": "bytes32"
        },
        {
          "indexed": false,
          "internalType": "bytes32",
          "name": "debridgeId",
          "type": "bytes32"
        },
        {
          "indexed": false,
          "internalType": "uint256",
          "name": "amount",
          "type": "uint256"
        },
        {
          "indexed": false,
          "internalType": "address",
          "name": "receiver",
          "type": "address"
        },
        {
          "indexed": false,
          "internalType": "uint256",
          "name": "nonce",
          "type": "uint256"
        },
        {
          "indexed": false,
          "internalType": "uint256",
          "name": "chainIdTo",
          "type": "uint256"
        }
      ],
      "name": "Burnt",
      "type": "event"
    },
    {
      "anonymous": false,
      "inputs": [
        {
          "indexed": false,
          "internalType": "address",
          "name": "callProxy",
          "type": "address"
        }
      ],
      "name": "CallProxyUpdated",
      "type": "event"
    },
    {
      "anonymous": false,
      "inputs": [
        {
          "indexed": true,
          "internalType": "bytes32",
          "name": "debridgeId",
          "type": "bytes32"
        },
        {
          "indexed": true,
          "internalType": "uint256",
          "name": "chainId",
          "type": "uint256"
        }
      ],
      "name": "ChainSupportAdded",
      "type": "event"
    },
    {
      "anonymous": false,
      "inputs": [
        {
          "indexed": true,
          "internalType": "bytes32",
          "name": "debridgeId",
          "type": "bytes32"
        },
        {
          "indexed": true,
          "internalType": "uint256",
          "name": "chainId",
          "type": "uint256"
        }
      ],
      "name": "ChainSupportRemoved",
      "type": "event"
    },
    {
      "anonymous": false,
      "inputs": [
        {
          "indexed": false,
          "internalType": "uint256[]",
          "name": "chainIds",
          "type": "uint256[]"
        }
      ],
      "name": "ChainsSupportUpdated",
      "type": "event"
    },
    {
      "anonymous": false,
      "inputs": [
        {
          "indexed": false,
          "internalType": "bytes32",
          "name": "submissionId",
          "type": "bytes32"
        },
        {
          "indexed": false,
          "internalType": "uint256",
          "name": "amount",
          "type": "uint256"
        },
        {
          "indexed": false,
          "internalType": "address",
          "name": "receiver",
          "type": "address"
        },
        {
          "indexed": false,
          "internalType": "bytes32",
          "name": "debridgeId",
          "type": "bytes32"
        }
      ],
      "name": "Claimed",
      "type": "event"
    },
    {
      "anonymous": false,
      "inputs": [
        {
          "indexed": false,
          "internalType": "bytes32",
          "name": "submissionId",
          "type": "bytes32"
        },
        {
          "indexed": false,
          "internalType": "uint256",
          "name": "amount",
          "type": "uint256"
        },
        {
          "indexed": false,
          "internalType": "address",
          "name": "receiver",
          "type": "address"
        },
        {
          "indexed": false,
          "internalType": "bytes32",
          "name": "debridgeId",
          "type": "bytes32"
        }
      ],
      "name": "Minted",
      "type": "event"
    },
    {
      "anonymous": false,
      "inputs": [
        {
          "indexed": true,
          "internalType": "bytes32",
          "name": "debridgeId",
          "type": "bytes32"
        },
        {
          "indexed": true,
          "internalType": "address",
          "name": "tokenAddress",
          "type": "address"
        },
        {
          "indexed": true,
          "internalType": "uint256",
          "name": "chainId",
          "type": "uint256"
        },
        {
          "indexed": false,
          "internalType": "uint256",
          "name": "minAmount",
          "type": "uint256"
        },
        {
          "indexed": false,
          "internalType": "uint256",
          "name": "maxAmount",
          "type": "uint256"
        },
        {
          "indexed": false,
          "internalType": "uint256",
          "name": "minReserves",
          "type": "uint256"
        }
      ],
      "name": "PairAdded",
      "type": "event"
    },
    {
      "anonymous": false,
      "inputs": [
        {
          "indexed": false,
          "internalType": "address",
          "name": "account",
          "type": "address"
        }
      ],
      "name": "Paused",
      "type": "event"
    },
    {
      "anonymous": false,
      "inputs": [
        {
          "indexed": true,
          "internalType": "bytes32",
          "name": "role",
          "type": "bytes32"
        },
        {
          "indexed": true,
          "internalType": "bytes32",
          "name": "previousAdminRole",
          "type": "bytes32"
        },
        {
          "indexed": true,
          "internalType": "bytes32",
          "name": "newAdminRole",
          "type": "bytes32"
        }
      ],
      "name": "RoleAdminChanged",
      "type": "event"
    },
    {
      "anonymous": false,
      "inputs": [
        {
          "indexed": true,
          "internalType": "bytes32",
          "name": "role",
          "type": "bytes32"
        },
        {
          "indexed": true,
          "internalType": "address",
          "name": "account",
          "type": "address"
        },
        {
          "indexed": true,
          "internalType": "address",
          "name": "sender",
          "type": "address"
        }
      ],
      "name": "RoleGranted",
      "type": "event"
    },
    {
      "anonymous": false,
      "inputs": [
        {
          "indexed": true,
          "internalType": "bytes32",
          "name": "role",
          "type": "bytes32"
        },
        {
          "indexed": true,
          "internalType": "address",
          "name": "account",
          "type": "address"
        },
        {
          "indexed": true,
          "internalType": "address",
          "name": "sender",
          "type": "address"
        }
      ],
      "name": "RoleRevoked",
      "type": "event"
    },
    {
      "anonymous": false,
      "inputs": [
        {
          "indexed": false,
          "internalType": "bytes32",
          "name": "submissionId",
          "type": "bytes32"
        },
        {
          "indexed": false,
          "internalType": "bytes32",
          "name": "debridgeId",
          "type": "bytes32"
        },
        {
          "indexed": false,
          "internalType": "uint256",
          "name": "amount",
          "type": "uint256"
        },
        {
          "indexed": false,
          "internalType": "address",
          "name": "receiver",
          "type": "address"
        },
        {
          "indexed": false,
          "internalType": "uint256",
          "name": "nonce",
          "type": "uint256"
        },
        {
          "indexed": false,
          "internalType": "uint256",
          "name": "chainIdTo",
          "type": "uint256"
        }
      ],
      "name": "Sent",
      "type": "event"
    },
    {
      "anonymous": false,
      "inputs": [
        {
          "indexed": false,
          "internalType": "address",
          "name": "account",
          "type": "address"
        }
      ],
      "name": "Unpaused",
      "type": "event"
    },
    {
      "inputs": [],
      "name": "DEFAULT_ADMIN_ROLE",
      "outputs": [
        {
          "internalType": "bytes32",
          "name": "",
          "type": "bytes32"
        }
      ],
      "stateMutability": "view",
      "type": "function"
    },
    {
      "inputs": [],
      "name": "DENOMINATOR",
      "outputs": [
        {
          "internalType": "uint256",
          "name": "",
          "type": "uint256"
        }
      ],
      "stateMutability": "view",
      "type": "function"
    },
    {
      "inputs": [
        {
          "internalType": "address",
          "name": "_tokenAddress",
          "type": "address"
        },
        {
          "internalType": "address",
          "name": "_wrappedAssetAddress",
          "type": "address"
        },
        {
          "internalType": "uint256",
          "name": "_chainId",
          "type": "uint256"
        },
        {
          "internalType": "uint256",
          "name": "_minAmount",
          "type": "uint256"
        },
        {
          "internalType": "uint256",
          "name": "_maxAmount",
          "type": "uint256"
        },
        {
          "internalType": "uint256",
          "name": "_minReserves",
          "type": "uint256"
        },
        {
          "internalType": "uint256[]",
          "name": "_supportedChainIds",
          "type": "uint256[]"
        },
        {
          "components": [
            {
              "internalType": "bool",
              "name": "isSupported",
              "type": "bool"
            },
            {
              "internalType": "uint256",
              "name": "fixedFee",
              "type": "uint256"
            },
            {
              "internalType": "uint256",
              "name": "transferFee",
              "type": "uint256"
            }
          ],
          "internalType": "struct IWhiteDebridge.ChainSupportInfo[]",
          "name": "_chainSupportInfo",
          "type": "tuple[]"
        }
      ],
      "name": "addExternalAsset",
      "outputs": [],
      "stateMutability": "nonpayable",
      "type": "function"
    },
    {
      "inputs": [
        {
          "internalType": "address",
          "name": "_tokenAddress",
          "type": "address"
        },
        {
          "internalType": "uint256",
          "name": "_minAmount",
          "type": "uint256"
        },
        {
          "internalType": "uint256",
          "name": "_maxAmount",
          "type": "uint256"
        },
        {
          "internalType": "uint256",
          "name": "_minReserves",
          "type": "uint256"
        },
        {
          "internalType": "uint256[]",
          "name": "_supportedChainIds",
          "type": "uint256[]"
        },
        {
          "components": [
            {
              "internalType": "bool",
              "name": "isSupported",
              "type": "bool"
            },
            {
              "internalType": "uint256",
              "name": "fixedFee",
              "type": "uint256"
            },
            {
              "internalType": "uint256",
              "name": "transferFee",
              "type": "uint256"
            }
          ],
          "internalType": "struct IWhiteDebridge.ChainSupportInfo[]",
          "name": "_chainSupportInfo",
          "type": "tuple[]"
        }
      ],
      "name": "addNativeAsset",
      "outputs": [],
      "stateMutability": "nonpayable",
      "type": "function"
    },
    {
      "inputs": [],
      "name": "aggregator",
      "outputs": [
        {
          "internalType": "address",
          "name": "",
          "type": "address"
        }
      ],
      "stateMutability": "view",
      "type": "function"
    },
    {
      "inputs": [],
      "name": "aggregatorVersion",
      "outputs": [
        {
          "internalType": "uint8",
          "name": "",
          "type": "uint8"
        }
      ],
      "stateMutability": "view",
      "type": "function"
    },
    {
      "inputs": [
        {
          "internalType": "bytes32",
          "name": "_debridgeId",
          "type": "bytes32"
        },
        {
          "internalType": "address",
          "name": "_receiver",
          "type": "address"
        },
        {
          "internalType": "uint256",
          "name": "_amount",
          "type": "uint256"
        },
        {
          "internalType": "uint256",
          "name": "_chainIdTo",
          "type": "uint256"
        },
        {
          "internalType": "address",
          "name": "_fallbackAddress",
          "type": "address"
        },
        {
          "internalType": "uint256",
          "name": "_executionFee",
          "type": "uint256"
        },
        {
          "internalType": "bytes",
          "name": "_data",
          "type": "bytes"
        },
        {
          "internalType": "uint256",
          "name": "_deadline",
          "type": "uint256"
        },
        {
          "internalType": "bytes",
          "name": "_signature",
          "type": "bytes"
        }
      ],
      "name": "autoBurn",
      "outputs": [],
      "stateMutability": "nonpayable",
      "type": "function"
    },
    {
      "inputs": [
        {
          "internalType": "bytes32",
          "name": "_debridgeId",
          "type": "bytes32"
        },
        {
          "internalType": "address",
          "name": "_receiver",
          "type": "address"
        },
        {
          "internalType": "uint256",
          "name": "_amount",
          "type": "uint256"
        },
        {
          "internalType": "uint256",
          "name": "_chainIdTo",
          "type": "uint256"
        },
        {
          "internalType": "address",
          "name": "_fallbackAddress",
          "type": "address"
        },
        {
          "internalType": "uint256",
          "name": "_executionFee",
          "type": "uint256"
        },
        {
          "internalType": "bytes",
          "name": "_data",
          "type": "bytes"
        }
      ],
      "name": "autoSend",
      "outputs": [],
      "stateMutability": "payable",
      "type": "function"
    },
    {
      "inputs": [
        {
          "internalType": "bytes32",
          "name": "_debridgeId",
          "type": "bytes32"
        },
        {
          "internalType": "address",
          "name": "_receiver",
          "type": "address"
        },
        {
          "internalType": "uint256",
          "name": "_amount",
          "type": "uint256"
        },
        {
          "internalType": "uint256",
          "name": "_chainIdTo",
          "type": "uint256"
        },
        {
          "internalType": "uint256",
          "name": "_deadline",
          "type": "uint256"
        },
        {
          "internalType": "bytes",
          "name": "_signature",
          "type": "bytes"
        }
      ],
      "name": "burn",
      "outputs": [],
      "stateMutability": "nonpayable",
      "type": "function"
    },
    {
      "inputs": [],
      "name": "callProxy",
      "outputs": [
        {
          "internalType": "address",
          "name": "",
          "type": "address"
        }
      ],
      "stateMutability": "view",
      "type": "function"
    },
    {
      "inputs": [],
      "name": "chainId",
      "outputs": [
        {
          "internalType": "uint256",
          "name": "",
          "type": "uint256"
        }
      ],
      "stateMutability": "view",
      "type": "function"
    },
    {
      "inputs": [
        {
          "internalType": "uint256",
          "name": "",
          "type": "uint256"
        }
      ],
      "name": "chainIds",
      "outputs": [
        {
          "internalType": "uint256",
          "name": "",
          "type": "uint256"
        }
      ],
      "stateMutability": "view",
      "type": "function"
    },
    {
      "inputs": [],
      "name": "defiController",
      "outputs": [
        {
          "internalType": "contract IDefiController",
          "name": "",
          "type": "address"
        }
      ],
      "stateMutability": "view",
      "type": "function"
    },
    {
      "inputs": [
        {
          "internalType": "bytes32",
          "name": "_debridgeId",
          "type": "bytes32"
        },
        {
          "internalType": "uint256",
          "name": "_chainIdFrom",
          "type": "uint256"
        },
        {
          "internalType": "uint256",
          "name": "_chainIdTo",
          "type": "uint256"
        },
        {
          "internalType": "uint256",
          "name": "_amount",
          "type": "uint256"
        },
        {
          "internalType": "address",
          "name": "_receiver",
          "type": "address"
        },
        {
          "internalType": "uint256",
          "name": "_nonce",
          "type": "uint256"
        },
        {
          "internalType": "address",
          "name": "_fallbackAddress",
          "type": "address"
        },
        {
          "internalType": "uint256",
          "name": "_executionFee",
          "type": "uint256"
        },
        {
          "internalType": "bytes",
          "name": "_data",
          "type": "bytes"
        }
      ],
      "name": "getAutoSubmisionId",
      "outputs": [
        {
          "internalType": "bytes32",
          "name": "",
          "type": "bytes32"
        }
      ],
      "stateMutability": "pure",
      "type": "function"
    },
    {
      "inputs": [
        {
          "internalType": "address",
          "name": "_tokenAddress",
          "type": "address"
        }
      ],
      "name": "getBalance",
      "outputs": [
        {
          "internalType": "uint256",
          "name": "",
          "type": "uint256"
        }
      ],
      "stateMutability": "view",
      "type": "function"
    },
    {
      "inputs": [
        {
          "internalType": "bytes32",
          "name": "_debridgeId",
          "type": "bytes32"
        },
        {
          "internalType": "uint256",
          "name": "_chainId",
          "type": "uint256"
        }
      ],
      "name": "getChainIdSupport",
      "outputs": [
        {
          "components": [
            {
              "internalType": "bool",
              "name": "isSupported",
              "type": "bool"
            },
            {
              "internalType": "uint256",
              "name": "fixedFee",
              "type": "uint256"
            },
            {
              "internalType": "uint256",
              "name": "transferFee",
              "type": "uint256"
            }
          ],
          "internalType": "struct IWhiteDebridge.ChainSupportInfo",
          "name": "",
          "type": "tuple"
        }
      ],
      "stateMutability": "view",
      "type": "function"
    },
    {
      "inputs": [
        {
          "internalType": "bytes32",
          "name": "",
          "type": "bytes32"
        }
      ],
      "name": "getDebridge",
      "outputs": [
        {
          "internalType": "address",
          "name": "tokenAddress",
          "type": "address"
        },
        {
          "internalType": "uint256",
          "name": "chainId",
          "type": "uint256"
        },
        {
          "internalType": "uint256",
          "name": "minAmount",
          "type": "uint256"
        },
        {
          "internalType": "uint256",
          "name": "maxAmount",
          "type": "uint256"
        },
        {
          "internalType": "uint256",
          "name": "collectedFees",
          "type": "uint256"
        },
        {
          "internalType": "uint256",
          "name": "balance",
          "type": "uint256"
        },
        {
          "internalType": "uint256",
          "name": "minReserves",
          "type": "uint256"
        }
      ],
      "stateMutability": "view",
      "type": "function"
    },
    {
      "inputs": [
        {
          "internalType": "uint256",
          "name": "_chainId",
          "type": "uint256"
        },
        {
          "internalType": "address",
          "name": "_tokenAddress",
          "type": "address"
        }
      ],
      "name": "getDebridgeId",
      "outputs": [
        {
          "internalType": "bytes32",
          "name": "",
          "type": "bytes32"
        }
      ],
      "stateMutability": "pure",
      "type": "function"
    },
    {
      "inputs": [
        {
          "internalType": "uint8",
          "name": "",
          "type": "uint8"
        }
      ],
      "name": "getOldAggregator",
      "outputs": [
        {
          "internalType": "address",
          "name": "aggregator",
          "type": "address"
        },
        {
          "internalType": "bool",
          "name": "isValid",
          "type": "bool"
        }
      ],
      "stateMutability": "view",
      "type": "function"
    },
    {
      "inputs": [
        {
          "internalType": "bytes32",
          "name": "role",
          "type": "bytes32"
        }
      ],
      "name": "getRoleAdmin",
      "outputs": [
        {
          "internalType": "bytes32",
          "name": "",
          "type": "bytes32"
        }
      ],
      "stateMutability": "view",
      "type": "function"
    },
    {
      "inputs": [
        {
          "internalType": "bytes32",
          "name": "_debridgeId",
          "type": "bytes32"
        },
        {
          "internalType": "uint256",
          "name": "_chainIdFrom",
          "type": "uint256"
        },
        {
          "internalType": "uint256",
          "name": "_chainIdTo",
          "type": "uint256"
        },
        {
          "internalType": "uint256",
          "name": "_amount",
          "type": "uint256"
        },
        {
          "internalType": "address",
          "name": "_receiver",
          "type": "address"
        },
        {
          "internalType": "uint256",
          "name": "_nonce",
          "type": "uint256"
        }
      ],
      "name": "getSubmisionId",
      "outputs": [
        {
          "internalType": "bytes32",
          "name": "",
          "type": "bytes32"
        }
      ],
      "stateMutability": "pure",
      "type": "function"
    },
    {
      "inputs": [
        {
          "internalType": "address",
          "name": "",
          "type": "address"
        }
      ],
      "name": "getUserNonce",
      "outputs": [
        {
          "internalType": "uint256",
          "name": "",
          "type": "uint256"
        }
      ],
      "stateMutability": "view",
      "type": "function"
    },
    {
      "inputs": [
        {
          "internalType": "bytes32",
          "name": "role",
          "type": "bytes32"
        },
        {
          "internalType": "address",
          "name": "account",
          "type": "address"
        }
      ],
      "name": "grantRole",
      "outputs": [],
      "stateMutability": "nonpayable",
      "type": "function"
    },
    {
      "inputs": [
        {
          "internalType": "bytes32",
          "name": "role",
          "type": "bytes32"
        },
        {
          "internalType": "address",
          "name": "account",
          "type": "address"
        }
      ],
      "name": "hasRole",
      "outputs": [
        {
          "internalType": "bool",
          "name": "",
          "type": "bool"
        }
      ],
      "stateMutability": "view",
      "type": "function"
    },
    {
      "inputs": [
        {
          "internalType": "bytes32",
          "name": "",
          "type": "bytes32"
        }
      ],
      "name": "isSubmissionUsed",
      "outputs": [
        {
          "internalType": "bool",
          "name": "",
          "type": "bool"
        }
      ],
      "stateMutability": "view",
      "type": "function"
    },
    {
      "inputs": [
        {
          "internalType": "uint8",
          "name": "_aggregatorVersion",
          "type": "uint8"
        },
        {
          "internalType": "bool",
          "name": "_isValid",
          "type": "bool"
        }
      ],
      "name": "manageOldAggregator",
      "outputs": [],
      "stateMutability": "nonpayable",
      "type": "function"
    },
    {
      "inputs": [],
      "name": "pause",
      "outputs": [],
      "stateMutability": "nonpayable",
      "type": "function"
    },
    {
      "inputs": [],
      "name": "paused",
      "outputs": [
        {
          "internalType": "bool",
          "name": "",
          "type": "bool"
        }
      ],
      "stateMutability": "view",
      "type": "function"
    },
    {
      "inputs": [
        {
          "internalType": "bytes32",
          "name": "role",
          "type": "bytes32"
        },
        {
          "internalType": "address",
          "name": "account",
          "type": "address"
        }
      ],
      "name": "renounceRole",
      "outputs": [],
      "stateMutability": "nonpayable",
      "type": "function"
    },
    {
      "inputs": [
        {
          "internalType": "address",
          "name": "_tokenAddress",
          "type": "address"
        },
        {
          "internalType": "uint256",
          "name": "_amount",
          "type": "uint256"
        }
      ],
      "name": "requestReserves",
      "outputs": [],
      "stateMutability": "nonpayable",
      "type": "function"
    },
    {
      "inputs": [
        {
          "internalType": "address",
          "name": "_tokenAddress",
          "type": "address"
        },
        {
          "internalType": "uint256",
          "name": "_amount",
          "type": "uint256"
        }
      ],
      "name": "returnReserves",
      "outputs": [],
      "stateMutability": "payable",
      "type": "function"
    },
    {
      "inputs": [
        {
          "internalType": "bytes32",
          "name": "role",
          "type": "bytes32"
        },
        {
          "internalType": "address",
          "name": "account",
          "type": "address"
        }
      ],
      "name": "revokeRole",
      "outputs": [],
      "stateMutability": "nonpayable",
      "type": "function"
    },
    {
      "inputs": [
        {
          "internalType": "bytes32",
          "name": "_debridgeId",
          "type": "bytes32"
        },
        {
          "internalType": "address",
          "name": "_receiver",
          "type": "address"
        },
        {
          "internalType": "uint256",
          "name": "_amount",
          "type": "uint256"
        },
        {
          "internalType": "uint256",
          "name": "_chainIdTo",
          "type": "uint256"
        }
      ],
      "name": "send",
      "outputs": [],
      "stateMutability": "payable",
      "type": "function"
    },
    {
      "inputs": [
        {
          "internalType": "address",
          "name": "_aggregator",
          "type": "address"
        }
      ],
      "name": "setAggregator",
      "outputs": [],
      "stateMutability": "nonpayable",
      "type": "function"
    },
    {
      "inputs": [
        {
          "internalType": "address",
          "name": "_callProxy",
          "type": "address"
        }
      ],
      "name": "setCallProxy",
      "outputs": [],
      "stateMutability": "nonpayable",
      "type": "function"
    },
    {
      "inputs": [
        {
          "internalType": "bytes32",
          "name": "_debridgeId",
          "type": "bytes32"
        },
        {
          "internalType": "uint256",
          "name": "_chainId",
          "type": "uint256"
        },
        {
          "internalType": "bool",
          "name": "_isSupported",
          "type": "bool"
        }
      ],
      "name": "setChainIdSupport",
      "outputs": [],
      "stateMutability": "nonpayable",
      "type": "function"
    },
    {
      "inputs": [
        {
          "internalType": "uint256[]",
          "name": "_chainIds",
          "type": "uint256[]"
        }
      ],
      "name": "setChainIds",
      "outputs": [],
      "stateMutability": "nonpayable",
      "type": "function"
    },
    {
      "inputs": [
        {
          "internalType": "contract IDefiController",
          "name": "_defiController",
          "type": "address"
        }
      ],
      "name": "setDefiController",
      "outputs": [],
      "stateMutability": "nonpayable",
      "type": "function"
    },
    {
      "inputs": [
        {
          "internalType": "bytes",
          "name": "_signature",
          "type": "bytes"
        }
      ],
      "name": "splitSignature",
      "outputs": [
        {
          "internalType": "bytes32",
          "name": "r",
          "type": "bytes32"
        },
        {
          "internalType": "bytes32",
          "name": "s",
          "type": "bytes32"
        },
        {
          "internalType": "uint8",
          "name": "v",
          "type": "uint8"
        }
      ],
      "stateMutability": "pure",
      "type": "function"
    },
    {
      "inputs": [
        {
          "internalType": "bytes4",
          "name": "interfaceId",
          "type": "bytes4"
        }
      ],
      "name": "supportsInterface",
      "outputs": [
        {
          "internalType": "bool",
          "name": "",
          "type": "bool"
        }
      ],
      "stateMutability": "view",
      "type": "function"
    },
    {
      "inputs": [],
      "name": "unpause",
      "outputs": [],
      "stateMutability": "nonpayable",
      "type": "function"
    },
    {
      "inputs": [
        {
          "internalType": "bytes32",
          "name": "_debridgeId",
          "type": "bytes32"
        },
        {
          "internalType": "uint256",
          "name": "_minAmount",
          "type": "uint256"
        },
        {
          "internalType": "uint256",
          "name": "_maxAmount",
          "type": "uint256"
        },
        {
          "internalType": "uint256",
          "name": "_minReserves",
          "type": "uint256"
        }
      ],
      "name": "updateAsset",
      "outputs": [],
      "stateMutability": "nonpayable",
      "type": "function"
    },
    {
      "inputs": [
        {
          "internalType": "bytes32",
          "name": "_debridgeId",
          "type": "bytes32"
        },
        {
          "internalType": "uint256[]",
          "name": "_supportedChainIds",
          "type": "uint256[]"
        },
        {
          "components": [
            {
              "internalType": "bool",
              "name": "isSupported",
              "type": "bool"
            },
            {
              "internalType": "uint256",
              "name": "fixedFee",
              "type": "uint256"
            },
            {
              "internalType": "uint256",
              "name": "transferFee",
              "type": "uint256"
            }
          ],
          "internalType": "struct IWhiteDebridge.ChainSupportInfo[]",
          "name": "_chainSupportInfo",
          "type": "tuple[]"
        }
      ],
      "name": "updateAsset",
      "outputs": [],
      "stateMutability": "nonpayable",
      "type": "function"
    },
    {
      "inputs": [
        {
          "internalType": "bytes32",
          "name": "_debridgeId",
          "type": "bytes32"
        },
        {
          "internalType": "address",
          "name": "_receiver",
          "type": "address"
        },
        {
          "internalType": "uint256",
          "name": "_amount",
          "type": "uint256"
        }
      ],
      "name": "withdrawFee",
      "outputs": [],
      "stateMutability": "nonpayable",
      "type": "function"
    },
    {
      "inputs": [
        {
          "internalType": "uint256",
          "name": "_minAmount",
          "type": "uint256"
        },
        {
          "internalType": "uint256",
          "name": "_maxAmount",
          "type": "uint256"
        },
        {
          "internalType": "uint256",
          "name": "_minReserves",
          "type": "uint256"
        },
        {
          "internalType": "address",
          "name": "_aggregator",
          "type": "address"
        },
        {
          "internalType": "address",
          "name": "_callProxy",
          "type": "address"
        },
        {
          "internalType": "uint256[]",
          "name": "_supportedChainIds",
          "type": "uint256[]"
        },
        {
          "components": [
            {
              "internalType": "bool",
              "name": "isSupported",
              "type": "bool"
            },
            {
              "internalType": "uint256",
              "name": "fixedFee",
              "type": "uint256"
            },
            {
              "internalType": "uint256",
              "name": "transferFee",
              "type": "uint256"
            }
          ],
          "internalType": "struct IWhiteDebridge.ChainSupportInfo[]",
          "name": "_chainSupportInfo",
          "type": "tuple[]"
        },
        {
          "internalType": "contract IDefiController",
          "name": "_defiController",
          "type": "address"
        }
      ],
      "name": "initialize",
      "outputs": [],
      "stateMutability": "payable",
      "type": "function"
    },
    {
      "inputs": [
        {
          "internalType": "bytes32",
          "name": "_debridgeId",
          "type": "bytes32"
        },
        {
          "internalType": "uint256",
          "name": "_chainIdFrom",
          "type": "uint256"
        },
        {
          "internalType": "address",
          "name": "_receiver",
          "type": "address"
        },
        {
          "internalType": "uint256",
          "name": "_amount",
          "type": "uint256"
        },
        {
          "internalType": "uint256",
          "name": "_nonce",
          "type": "uint256"
        },
        {
          "internalType": "bytes[]",
          "name": "_signatures",
          "type": "bytes[]"
        },
        {
          "internalType": "address",
          "name": "_fallbackAddress",
          "type": "address"
        },
        {
          "internalType": "uint256",
          "name": "_executionFee",
          "type": "uint256"
        },
        {
          "internalType": "bytes",
          "name": "_data",
          "type": "bytes"
        }
      ],
      "name": "autoMint",
      "outputs": [],
      "stateMutability": "nonpayable",
      "type": "function"
    },
    {
      "inputs": [
        {
          "internalType": "bytes32",
          "name": "_debridgeId",
          "type": "bytes32"
        },
        {
          "internalType": "uint256",
          "name": "_chainIdFrom",
          "type": "uint256"
        },
        {
          "internalType": "address",
          "name": "_receiver",
          "type": "address"
        },
        {
          "internalType": "uint256",
          "name": "_amount",
          "type": "uint256"
        },
        {
          "internalType": "uint256",
          "name": "_nonce",
          "type": "uint256"
        },
        {
          "internalType": "bytes[]",
          "name": "_signatures",
          "type": "bytes[]"
        },
        {
          "internalType": "address",
          "name": "_fallbackAddress",
          "type": "address"
        },
        {
          "internalType": "uint256",
          "name": "_executionFee",
          "type": "uint256"
        },
        {
          "internalType": "bytes",
          "name": "_data",
          "type": "bytes"
        },
        {
          "internalType": "uint8",
          "name": "_aggregatorVersion",
          "type": "uint8"
        }
      ],
      "name": "autoMintWithOldAggregator",
      "outputs": [],
      "stateMutability": "nonpayable",
      "type": "function"
    },
    {
      "inputs": [
        {
          "internalType": "bytes32",
          "name": "_debridgeId",
          "type": "bytes32"
        },
        {
          "internalType": "uint256",
          "name": "_chainIdFrom",
          "type": "uint256"
        },
        {
          "internalType": "address",
          "name": "_receiver",
          "type": "address"
        },
        {
          "internalType": "uint256",
          "name": "_amount",
          "type": "uint256"
        },
        {
          "internalType": "uint256",
          "name": "_nonce",
          "type": "uint256"
        },
        {
          "internalType": "bytes[]",
          "name": "_signatures",
          "type": "bytes[]"
        }
      ],
      "name": "mint",
      "outputs": [],
      "stateMutability": "nonpayable",
      "type": "function"
    },
    {
      "inputs": [
        {
          "internalType": "bytes32",
          "name": "_debridgeId",
          "type": "bytes32"
        },
        {
          "internalType": "uint256",
          "name": "_chainIdFrom",
          "type": "uint256"
        },
        {
          "internalType": "address",
          "name": "_receiver",
          "type": "address"
        },
        {
          "internalType": "uint256",
          "name": "_amount",
          "type": "uint256"
        },
        {
          "internalType": "uint256",
          "name": "_nonce",
          "type": "uint256"
        },
        {
          "internalType": "bytes[]",
          "name": "_signatures",
          "type": "bytes[]"
        },
        {
          "internalType": "uint8",
          "name": "_aggregatorVersion",
          "type": "uint8"
        }
      ],
      "name": "mintWithOldAggregator",
      "outputs": [],
      "stateMutability": "nonpayable",
      "type": "function"
    },
    {
      "inputs": [
        {
          "internalType": "bytes32",
          "name": "_debridgeId",
          "type": "bytes32"
        },
        {
          "internalType": "uint256",
          "name": "_chainIdFrom",
          "type": "uint256"
        },
        {
          "internalType": "address",
          "name": "_receiver",
          "type": "address"
        },
        {
          "internalType": "uint256",
          "name": "_amount",
          "type": "uint256"
        },
        {
          "internalType": "uint256",
          "name": "_nonce",
          "type": "uint256"
        },
        {
          "internalType": "bytes[]",
          "name": "_signatures",
          "type": "bytes[]"
        }
      ],
      "name": "claim",
      "outputs": [],
      "stateMutability": "nonpayable",
      "type": "function"
    },
    {
      "inputs": [
        {
          "internalType": "bytes32",
          "name": "_debridgeId",
          "type": "bytes32"
        },
        {
          "internalType": "uint256",
          "name": "_chainIdFrom",
          "type": "uint256"
        },
        {
          "internalType": "address",
          "name": "_receiver",
          "type": "address"
        },
        {
          "internalType": "uint256",
          "name": "_amount",
          "type": "uint256"
        },
        {
          "internalType": "uint256",
          "name": "_nonce",
          "type": "uint256"
        },
        {
          "internalType": "bytes[]",
          "name": "_signatures",
          "type": "bytes[]"
        },
        {
          "internalType": "address",
          "name": "_fallbackAddress",
          "type": "address"
        },
        {
          "internalType": "uint256",
          "name": "_executionFee",
          "type": "uint256"
        },
        {
          "internalType": "bytes",
          "name": "_data",
          "type": "bytes"
        }
      ],
      "name": "autoClaim",
      "outputs": [],
      "stateMutability": "nonpayable",
      "type": "function"
    },
    {
      "inputs": [
        {
          "internalType": "bytes32",
          "name": "_debridgeId",
          "type": "bytes32"
        },
        {
          "internalType": "uint256",
          "name": "_chainIdFrom",
          "type": "uint256"
        },
        {
          "internalType": "address",
          "name": "_receiver",
          "type": "address"
        },
        {
          "internalType": "uint256",
          "name": "_amount",
          "type": "uint256"
        },
        {
          "internalType": "uint256",
          "name": "_nonce",
          "type": "uint256"
        },
        {
          "internalType": "bytes[]",
          "name": "_signatures",
          "type": "bytes[]"
        },
        {
          "internalType": "address",
          "name": "_fallbackAddress",
          "type": "address"
        },
        {
          "internalType": "uint256",
          "name": "_executionFee",
          "type": "uint256"
        },
        {
          "internalType": "bytes",
          "name": "_data",
          "type": "bytes"
        },
        {
          "internalType": "uint8",
          "name": "_aggregatorVersion",
          "type": "uint8"
        }
      ],
      "name": "autoClaimWithOldAggregator",
      "outputs": [],
      "stateMutability": "nonpayable",
      "type": "function"
    },
    {
      "inputs": [
        {
          "internalType": "bytes32",
          "name": "_debridgeId",
          "type": "bytes32"
        },
        {
          "internalType": "uint256",
          "name": "_chainIdFrom",
          "type": "uint256"
        },
        {
          "internalType": "address",
          "name": "_receiver",
          "type": "address"
        },
        {
          "internalType": "uint256",
          "name": "_amount",
          "type": "uint256"
        },
        {
          "internalType": "uint256",
          "name": "_nonce",
          "type": "uint256"
        },
        {
          "internalType": "bytes[]",
          "name": "_signatures",
          "type": "bytes[]"
        },
        {
          "internalType": "uint8",
          "name": "_aggregatorVersion",
          "type": "uint8"
        }
      ],
      "name": "claimWithOldAggregator",
      "outputs": [],
      "stateMutability": "nonpayable",
      "type": "function"
    }
  ],
  "bytecode": "0x608060405234801561001057600080fd5b50614e2e806100206000396000f3fe60806040526004361061031a5760003560e01c806376d8e49d116101ab578063b4ebd560116100f7578063d9deec4d11610095578063f30d9ea41161006f578063f30d9ea414610a5c578063f8b2cb4f14610a7c578063f9120af614610a9c578063f9e032c414610abc5761031a565b8063d9deec4d146109fc578063e562904d14610a1c578063f00966ec14610a3c5761031a565b8063d1e39513116100d1578063d1e3951314610945578063d311f65614610989578063d547741f146109bc578063d8339b7e146109dc5761031a565b8063b4ebd560146108e5578063be7f218414610905578063bf3d7341146109255761031a565b806391d1485411610164578063a217fddf1161013e578063a217fddf14610852578063a7bb580314610867578063a867566c146108a5578063b4ccbfd3146108c55761031a565b806391d14854146107fc5780639682b9091461081c5780639a8a05921461083c5761031a565b806376d8e49d146107245780637d2112871461073757806383d3f95d1461074a578063841b162b1461076a5780638456cb59146107cb578063918f8674146107e05761031a565b806336568abe1161026a57806357cf07ca1161022357806365ac9f78116101fd57806365ac9f78146106945780636834e3a8146106c45780636b063d65146106f15780636b7cbb69146107045761031a565b806357cf07ca146105b4578063598a2a4f146106555780635c975abb146106755761031a565b806336568abe146104ff5780633bd477211461051f5780633f4ba83a1461053f57806340768e1f146105545780634219b07d1461057457806346144c8f146105945761031a565b8063245a7bfc116102d75780632b0d0a8b116102b15780632b0d0a8b1461047f5780632da688ac1461049f5780632f2ff15d146104bf57806334497b09146104df5761031a565b8063245a7bfc146103f7578063248a9ca31461042f5780632a489cbe1461045f5761031a565b806301ffc9a71461031f578063031ac613146103545780630a0e5e9a146103695780630c71531d14610389578063106f432f146103a957806321d93090146103c9575b600080fd5b34801561032b57600080fd5b5061033f61033a36600461472b565b610adc565b60405190151581526020015b60405180910390f35b6103676103623660046140ed565b610b15565b005b34801561037557600080fd5b506103676103843660046145e4565b610c19565b34801561039557600080fd5b506103676103a4366004614354565b610cd8565b3480156103b557600080fd5b506103676103c4366004613ea0565b610dc1565b3480156103d557600080fd5b506103e96103e436600461406f565b610e0a565b60405190815260200161034b565b34801561040357600080fd5b50600354610417906001600160a01b031681565b6040516001600160a01b03909116815260200161034b565b34801561043b57600080fd5b506103e961044a36600461406f565b60009081526020819052604090206001015490565b34801561046b57600080fd5b5061036761047a3660046141af565b610e2b565b34801561048b57600080fd5b5061036761049a366004613ea0565b610fb7565b3480156104ab57600080fd5b50600454610417906001600160a01b031681565b3480156104cb57600080fd5b506103676104da366004614087565b611033565b3480156104eb57600080fd5b506103676104fa366004614354565b6110c2565b34801561050b57600080fd5b5061036761051a366004614087565b6111a1565b34801561052b57600080fd5b5061036761053a36600461461c565b61121b565b34801561054b57600080fd5b50610367611264565b34801561056057600080fd5b5061036761056f36600461455a565b6112ea565b34801561058057600080fd5b5061036761058f366004613f93565b611430565b3480156105a057600080fd5b50600654610417906001600160a01b031681565b3480156105c057600080fd5b506106166105cf36600461406f565b60076020526000908152604090208054600182015460028301546003840154600485015460058601546006909601546001600160a01b039095169593949293919290919087565b604080516001600160a01b0390981688526020880196909652948601939093526060850191909152608084015260a083015260c082015260e00161034b565b34801561066157600080fd5b5061036761067036600461448c565b611482565b34801561068157600080fd5b5061033f60015462010000900460ff1690565b3480156106a057600080fd5b5061033f6106af36600461406f565b60086020526000908152604090205460ff1681565b3480156106d057600080fd5b506103e96106df366004613ea0565b60096020526000908152604090205481565b6103676106ff366004613f68565b6115b3565b34801561071057600080fd5b5061036761071f36600461486e565b611655565b610367610732366004614129565b611718565b61036761074536600461479d565b6118a0565b34801561075657600080fd5b506103676107653660046140b6565b611973565b34801561077657600080fd5b506107ac610785366004614854565b600a602052600090815260409020546001600160a01b03811690600160a01b900460ff1682565b604080516001600160a01b03909316835290151560208301520161034b565b3480156107d757600080fd5b50610367611a89565b3480156107ec57600080fd5b506103e9670de0b6b3a764000081565b34801561080857600080fd5b5061033f610817366004614087565b611ae7565b34801561082857600080fd5b506103e9610837366004614087565b611b10565b34801561084857600080fd5b506103e960025481565b34801561085e57600080fd5b506103e9600081565b34801561087357600080fd5b50610887610882366004614753565b611b5e565b60408051938452602084019290925260ff169082015260600161034b565b3480156108b157600080fd5b506103676108c03660046143ce565b611be3565b3480156108d157600080fd5b506103676108e03660046142ca565b611cb7565b3480156108f157600080fd5b50610367610900366004614265565b611d9d565b34801561091157600080fd5b50610367610920366004613f68565b611e9c565b34801561093157600080fd5b506103e961094036600461464d565b61202c565b34801561095157600080fd5b50610965610960366004614333565b61208a565b6040805182511515815260208084015190820152918101519082015260600161034b565b34801561099557600080fd5b506004546109aa90600160a01b900460ff1681565b60405160ff909116815260200161034b565b3480156109c857600080fd5b506103676109d7366004614087565b6120f7565b3480156109e857600080fd5b506103676109f7366004613ebc565b612177565b348015610a0857600080fd5b50610367610a173660046143ce565b6121bc565b348015610a2857600080fd5b50610367610a37366004614021565b612283565b348015610a4857600080fd5b50610367610a5736600461448c565b6122ed565b348015610a6857600080fd5b50610367610a7736600461455a565b61240f565b348015610a8857600080fd5b506103e9610a97366004613ea0565b612549565b348015610aa857600080fd5b50610367610ab7366004613ea0565b6125de565b348015610ac857600080fd5b506103e9610ad73660046146a1565b6126ae565b60006001600160e01b03198216637965db0b60e01b1480610b0d57506301ffc9a760e01b6001600160e01b03198316145b90505b919050565b610b2760015462010000900460ff1690565b15610b4d5760405162461bcd60e51b8152600401610b4490614bb1565b60405180910390fd5b610b588483836126f6565b6001600160a01b03841660009081526009602052604081205460025492945091610b879087908587898761202c565b60408051828152602081018990529081018690526001600160a01b03871660608201526080810184905260a081018590529091507f17c61cb89b62a3f29f5b150e3489c7a796ac4dc95fd73af14faa2c8086a324b49060c00160405180910390a16001600160a01b0385166000908152600960205260408120805491610c0c83614d6b565b9190505550505050505050565b610c24600033611ae7565b610c405760405162461bcd60e51b8152600401610b4490614bdb565b6000838152600760208181526040808420868552928301909152909120805460ff19168315801591909117909155610ca457604051839085907fdd4dbf80f57aa5115a1e07abb36e4de565879d4de5bd15b3803d666fe1d8486390600090a3610cd2565b604051839085907f86c512831f7a2aad3f56b4169c161be1028776ab950c72e26237a0310ded560690600090a35b50505050565b6000610cea8888600254888a8961202c565b60035460405163f91aa31760e01b81529192506001600160a01b03169063f91aa31790610d1f90849087908790600401614a32565b602060405180830381600087803b158015610d3957600080fd5b505af1158015610d4d573d6000803e3d6000fd5b505050506040513d601f19601f82011682018060405250810190610d719190614053565b610d8d5760405162461bcd60e51b8152600401610b4490614b83565b610db78189888860008060405180604001604052806002815260200161060f60f31b8152506129bb565b5050505050505050565b610dcc600033611ae7565b610de85760405162461bcd60e51b8152600401610b4490614bdb565b600680546001600160a01b0319166001600160a01b0392909216919091179055565b60058181548110610e1a57600080fd5b600091825260209091200154905081565b610e3d60015462010000900460ff1690565b15610e5a5760405162461bcd60e51b8152600401610b4490614bb1565b83610e9f5760405162461bcd60e51b81526020600482015260156024820152746175746f4275726e3a2066656520746f6f206c6f7760581b6044820152606401610b44565b610eac8988888585612d79565b965083871015610efe5760405162461bcd60e51b815260206004820152601f60248201527f6175746f4275726e3a2070726f706f7365642066656520746f6f2068696768006044820152606401610b44565b610f088488614d28565b6001600160a01b03891660009081526009602052604081205460025492995091610f3a908c908a8c8e878d8d8d6126ae565b90507f36a268c961c097e1f744d1ce89408dd36212025f95204538cd463fba9e22cada818c8b8d868d8c8c604051610f79989796959493929190614ad3565b60405180910390a16001600160a01b038a166000908152600960205260408120805491610fa583614d6b565b91905055505050505050505050505050565b610fc2600033611ae7565b610fde5760405162461bcd60e51b8152600401610b4490614bdb565b600480546001600160a01b0319166001600160a01b0383169081179091556040519081527fa9543b36462a5e2c2259a14d72a8bd4e2342eaf9d7c828e9fb86921b3aa3eb5f906020015b60405180910390a150565b600082815260208190526040902060010154611050905b33610817565b6110b45760405162461bcd60e51b815260206004820152602f60248201527f416363657373436f6e74726f6c3a2073656e646572206d75737420626520616e60448201526e0818591b5a5b881d1bc819dc985b9d608a1b6064820152608401610b44565b6110be8282613144565b5050565b60006110d48888600254888a8961202c565b60035460405163f91aa31760e01b81529192506001600160a01b03169063f91aa3179061110990849087908790600401614a32565b602060405180830381600087803b15801561112357600080fd5b505af1158015611137573d6000803e3d6000fd5b505050506040513d601f19601f8201168201806040525081019061115b9190614053565b6111775760405162461bcd60e51b8152600401610b4490614c08565b610db78189888860008060405180604001604052806002815260200161060f60f31b8152506131c8565b6001600160a01b03811633146112115760405162461bcd60e51b815260206004820152602f60248201527f416363657373436f6e74726f6c3a2063616e206f6e6c792072656e6f756e636560448201526e103937b632b9903337b91039b2b63360891b6064820152608401610b44565b6110be82826134ee565b611226600033611ae7565b6112425760405162461bcd60e51b8152600401610b4490614bdb565b6000938452600760205260409093206002810192909255600382015560060155565b61126f600033611ae7565b61128b5760405162461bcd60e51b8152600401610b4490614bdb565b61129d60015462010000900460ff1690565b6112e05760405162461bcd60e51b815260206004820152601460248201527314185d5cd8589b194e881b9bdd081c185d5cd95960621b6044820152606401610b44565b6112e8613553565b565b60006112fc8989600254898b8a61202c565b60ff8084166000908152600a60209081526040918290208251808401909352546001600160a01b0381168352600160a01b900490921615159181018290529192506113595760405162461bcd60e51b8152600401610b4490614c35565b805160405163f91aa31760e01b81526001600160a01b039091169063f91aa3179061138c90859089908990600401614a32565b602060405180830381600087803b1580156113a657600080fd5b505af11580156113ba573d6000803e3d6000fd5b505050506040513d601f19601f820116820180604052508101906113de9190614053565b6113fa5760405162461bcd60e51b8152600401610b4490614b83565b611424828b8a8a60008060405180604001604052806002815260200161060f60f31b8152506129bb565b50505050505050505050565b61143b600033611ae7565b6114575760405162461bcd60e51b8152600401610b4490614bdb565b600061146560025488611b10565b9050611479818860025489898989896135ea565b50505050505050565b60006114978c8c6002548c8e8d8b8b8b6126ae565b60ff8084166000908152600a60209081526040918290208251808401909352546001600160a01b0381168352600160a01b900490921615159181018290529192506114f45760405162461bcd60e51b8152600401610b4490614b3b565b805160405163f91aa31760e01b81526001600160a01b039091169063f91aa317906115279085908c908c90600401614a32565b602060405180830381600087803b15801561154157600080fd5b505af1158015611555573d6000803e3d6000fd5b505050506040513d601f19601f820116820180604052508101906115799190614053565b6115955760405162461bcd60e51b8152600401610b4490614c08565b6115a4828e8d8d8a8a8a6131c8565b50505050505050505050505050565b6006546001600160a01b031633146116085760405162461bcd60e51b815260206004820152601860248201527764656669436f6e74726f6c6c65723a2062616420726f6c6560401b6044820152606401610b44565b600061161660025484611b10565b60008181526007602052604090208054919250906001600160a01b031615610cd2576006548154610cd2916001600160a01b03918216911630866137bb565b611660600033611ae7565b61167c5760405162461bcd60e51b8152600401610b4490614bdb565b60045460ff600160a01b9091048116908316106116e95760405162461bcd60e51b815260206004820152602560248201527f6d616e6167654f6c6441676772656761746f723a2076657273696f6e20746f6f604482015264040d0d2ced60db1b6064820152608401610b44565b60ff9091166000908152600a602052604090208054911515600160a01b0260ff60a01b19909216919091179055565b61172a60015462010000900460ff1690565b156117475760405162461bcd60e51b8152600401610b4490614bb1565b8161178c5760405162461bcd60e51b81526020600482015260156024820152746175746f53656e643a2066656520746f6f206c6f7760581b6044820152606401610b44565b6117978786866126f6565b9450818510156117e95760405162461bcd60e51b815260206004820152601f60248201527f6175746f53656e643a2070726f706f7365642066656520746f6f2068696768006044820152606401610b44565b6117f38286614d28565b6001600160a01b03871660009081526009602052604081205460025492975091611825908a90888a8c878b8b8b6126ae565b90507fd6a26970ca5b3bad18e3f990daa2e30f9bffdd9933a65c8dfa45dbb963cb6811818a898b868b8a8a604051611864989796959493929190614ad3565b60405180910390a16001600160a01b038816600090815260096020526040812080549161189083614d6b565b9190505550505050505050505050565b600154610100900460ff16806118b9575060015460ff16155b61191c5760405162461bcd60e51b815260206004820152602e60248201527f496e697469616c697a61626c653a20636f6e747261637420697320616c72656160448201526d191e481a5b9a5d1a585b1a5e995960921b6064820152608401610b44565b600154610100900460ff16158015611946576001805460ff1961ff00199091166101001716811790555b6119568989898989898989613826565b8015611968576001805461ff00191690555b505050505050505050565b61197e600033611ae7565b61199a5760405162461bcd60e51b8152600401610b4490614bdb565b600083815260076020526040902060048101548211156119fc5760405162461bcd60e51b815260206004820152601b60248201527f77697468647261774665653a206e6f7420656e6f7567682066656500000000006044820152606401610b44565b81816004016000828254611a109190614d28565b90915550506002546001820154148015611a32575080546001600160a01b0316155b15611a73576040516001600160a01b0384169083156108fc029084906000818181858888f19350505050158015611a6d573d6000803e3d6000fd5b50610cd2565b8054610cd2906001600160a01b031684846138aa565b611a94600033611ae7565b611ab05760405162461bcd60e51b8152600401610b4490614bdb565b611ac260015462010000900460ff1690565b15611adf5760405162461bcd60e51b8152600401610b4490614bb1565b6112e86138df565b6000918252602082815260408084206001600160a01b0393909316845291905290205460ff1690565b60008282604051602001611b4092919091825260601b6bffffffffffffffffffffffff1916602082015260340190565b60405160208183030381529060405280519060200120905092915050565b60008060008351604114611bc55760405162461bcd60e51b815260206004820152602860248201527f73706c69745369676e61747572653a20696e76616c6964207369676e617475726044820152670ca40d8cadccee8d60c31b6064820152608401610b44565b50505060208101516040820151606090920151909260009190911a90565b6000611bf88b8b6002548b8d8c8a8a8a6126ae565b60035460405163f91aa31760e01b81529192506001600160a01b03169063f91aa31790611c2d9084908a908a90600401614a32565b602060405180830381600087803b158015611c4757600080fd5b505af1158015611c5b573d6000803e3d6000fd5b505050506040513d601f19601f82011682018060405250810190611c7f9190614053565b611c9b5760405162461bcd60e51b8152600401610b4490614b83565b611caa818c8b8b8888886129bb565b5050505050505050505050565b611cc2600033611ae7565b611cde5760405162461bcd60e51b8152600401610b4490614bdb565b6000838152600760205260408120905b8351811015611d9657828181518110611d1757634e487b7160e01b600052603260045260246000fd5b6020026020010151826007016000868481518110611d4557634e487b7160e01b600052603260045260246000fd5b60209081029190910181015182528181019290925260409081016000208351815460ff1916901515178155918301516001830155919091015160029091015580611d8e81614d6b565b915050611cee565b5050505050565b611daf60015462010000900460ff1690565b15611dcc5760405162461bcd60e51b8152600401610b4490614bb1565b611dd98685858585612d79565b6001600160a01b03861660009081526009602052604081205460025492965091611e0890899087898b8761202c565b60408051828152602081018b90529081018890526001600160a01b03891660608201526080810184905260a081018790529091507fb8cc5195d548dc2781227c496b92d3736cd56d7f32b28971c9ae1e9eb0badf959060c00160405180910390a16001600160a01b0387166000908152600960205260408120805491611e8d83614d6b565b91905055505050505050505050565b6006546001600160a01b03163314611ef15760405162461bcd60e51b815260206004820152601860248201527764656669436f6e74726f6c6c65723a2062616420726f6c6560401b6044820152606401610b44565b6000611eff60025484611b10565b6000818152600760205260408120600681015460058201549394509092670de0b6b3a764000091611f2f91614d09565b611f399190614ce9565b8254909150600090611f53906001600160a01b0316612549565b905080611f608684614cd1565b11611fb95760405162461bcd60e51b8152602060048201526024808201527f7265717565737452657365727665733a206e6f7420656e6f75676820726573656044820152637276657360e01b6064820152608401610b44565b82546001600160a01b0316612008576006546040516001600160a01b039091169086156108fc029087906000818181858888f19350505050158015612002573d6000803e3d6000fd5b50612024565b6006548354612024916001600160a01b039182169116876138aa565b505050505050565b60408051602080820198909852808201969096526060808701959095526080860193909352921b6bffffffffffffffffffffffff191660a084015260b4808401929092528051808403909201825260d4909201909152805191012090565b6120b0604051806060016040528060001515815260200160008152602001600081525090565b506000918252600760208181526040808520938552929091018152918190208151606081018352815460ff1615158152600182015493810193909352600201549082015290565b6000828152602081905260409020600101546121129061104a565b6112115760405162461bcd60e51b815260206004820152603060248201527f416363657373436f6e74726f6c3a2073656e646572206d75737420626520616e60448201526f2061646d696e20746f207265766f6b6560801b6064820152608401610b44565b612182600033611ae7565b61219e5760405162461bcd60e51b8152600401610b4490614bdb565b60006121aa878a611b10565b905061196881898989898989896135ea565b60006121d18b8b6002548b8d8c8a8a8a6126ae565b60035460405163f91aa31760e01b81529192506001600160a01b03169063f91aa317906122069084908a908a90600401614a32565b602060405180830381600087803b15801561222057600080fd5b505af1158015612234573d6000803e3d6000fd5b505050506040513d601f19601f820116820180604052508101906122589190614053565b6122745760405162461bcd60e51b8152600401610b4490614c08565b611caa818c8b8b8888886131c8565b61228e600033611ae7565b6122aa5760405162461bcd60e51b8152600401610b4490614bdb565b80516122bd906005906020840190613c68565b507fc96689ced54dda42d1f32f295881474112291c08120448bec2f7b10f5297e88f8160405161102891906149ee565b60006123028c8c6002548c8e8d8b8b8b6126ae565b60ff8084166000908152600a60209081526040918290208251808401909352546001600160a01b0381168352600160a01b9004909216151591810182905291925061235f5760405162461bcd60e51b8152600401610b4490614c35565b805160405163f91aa31760e01b81526001600160a01b039091169063f91aa317906123929085908c908c90600401614a32565b602060405180830381600087803b1580156123ac57600080fd5b505af11580156123c0573d6000803e3d6000fd5b505050506040513d601f19601f820116820180604052508101906123e49190614053565b6124005760405162461bcd60e51b8152600401610b4490614b83565b6115a4828e8d8d8a8a8a6129bb565b60006124218989600254898b8a61202c565b60ff8084166000908152600a60209081526040918290208251808401909352546001600160a01b0381168352600160a01b9004909216151591810182905291925061247e5760405162461bcd60e51b8152600401610b4490614b3b565b805160405163f91aa31760e01b81526001600160a01b039091169063f91aa317906124b190859089908990600401614a32565b602060405180830381600087803b1580156124cb57600080fd5b505af11580156124df573d6000803e3d6000fd5b505050506040513d601f19601f820116820180604052508101906125039190614053565b61251f5760405162461bcd60e51b8152600401610b4490614c08565b611424828b8a8a60008060405180604001604052806002815260200161060f60f31b8152506131c8565b60006001600160a01b038216612560575047610b10565b6040516370a0823160e01b81523060048201526001600160a01b038316906370a082319060240160206040518083038186803b15801561259f57600080fd5b505afa1580156125b3573d6000803e3d6000fd5b505050506040513d601f19601f820116820180604052508101906125d79190614785565b9050610b10565b6125e9600033611ae7565b6126055760405162461bcd60e51b8152600401610b4490614bdb565b604080518082018252600380546001600160a01b039081168352600160208085019182526004805460ff600160a01b9182900481166000908152600a909452979092209551865493511515830260ff60a01b199186166001600160a01b03199586161791909116179095558354928716929091169190911790915581540490911690601461269283614d86565b91906101000a81548160ff021916908360ff1602179055505050565b60008989898989898989896040516020016126d1999897969594939291906148ef565b6040516020818303038152906040528051906020012090509998505050505050505050565b600083815260076020818152604080842085855292830182528084208151606081018352815460ff16151581526001808301549482019490945260029182015492810192909252549183015490911461278a5760405162461bcd60e51b815260206004820152601660248201527539b2b7321d103737ba103730ba34bb329031b430b4b760511b6044820152606401610b44565b80516127d85760405162461bcd60e51b815260206004820152601860248201527f73656e643a2077726f6e672074617267656420636861696e00000000000000006044820152606401610b44565b81600201548510156128235760405162461bcd60e51b815260206004820152601460248201527373656e643a20616d6f756e7420746f6f206c6f7760601b6044820152606401610b44565b816003015485111561286f5760405162461bcd60e51b81526020600482015260156024820152740e6cadcc87440c2dadeeadce840e8dede40d0d2ced605b1b6044820152606401610b44565b81546001600160a01b03166128ca573485146128c55760405162461bcd60e51b81526020600482015260156024820152740e6cadcc87440c2dadeeadce840dad2e6dac2e8c6d605b1b6044820152606401610b44565b6128e1565b81546128e1906001600160a01b03163330886137bb565b6000670de0b6b3a76400008260400151876128fc9190614d09565b6129069190614ce9565b82602001516129159190614cd1565b90508015612994578086101561296d5760405162461bcd60e51b815260206004820152601b60248201527f73656e643a20616d6f756e74206e6f7420636f766572206665657300000000006044820152606401610b44565b808360040160008282546129819190614cd1565b9091555061299190508187614d28565b95505b858360050160008282546129a89190614cd1565b90915550869450505050505b9392505050565b6000868152600760205260409020600254600182015414612a1e5760405162461bcd60e51b815260206004820152601960248201527f636c61696d3a2077726f6e672074617267657420636861696e000000000000006044820152606401610b44565b60008881526008602052604090205460ff1615612a735760405162461bcd60e51b815260206004820152601360248201527218db185a5b4e88185b1c9958591e481d5cd959606a1b6044820152606401610b44565b6000888152600860205260408120805460ff19166001179055600582018054879290612aa0908490614d28565b90915550612ab09050818661394f565b80546001600160a01b0316612bfd578215612bc057604051339084156108fc029085906000818181858888f19350505050158015612af2573d6000803e3d6000fd5b506004805460405163c435b14b60e01b81526000926001600160a01b039092169163c435b14b918991612b2b918a918d918a91016149b9565b6020604051808303818588803b158015612b4457600080fd5b505af1158015612b58573d6000803e3d6000fd5b50505050506040513d601f19601f82011682018060405250810190612b7d9190614053565b604080518b815282151560208201529192507f36c8142a7dcbbfde02c55b345b75761d6761eb241d6c504a0df77c0730b52fe9910160405180910390a150612bf8565b6040516001600160a01b0387169086156108fc029087906000818181858888f19350505050158015612bf6573d6000803e3d6000fd5b505b612d1b565b8215612d05578054612c19906001600160a01b031633856138aa565b6004548154612c35916001600160a01b039182169116876138aa565b600480548254604051633bab642f60e01b81526000936001600160a01b0393841693633bab642f93612c70939116918a918d918a910161497b565b602060405180830381600087803b158015612c8a57600080fd5b505af1158015612c9e573d6000803e3d6000fd5b505050506040513d601f19601f82011682018060405250810190612cc29190614053565b604080518b815282151560208201529192507f36c8142a7dcbbfde02c55b345b75761d6761eb241d6c504a0df77c0730b52fe9910160405180910390a150612d1b565b8054612d1b906001600160a01b031687876138aa565b60408051898152602081018790526001600160a01b03881691810191909152606081018890527fabe3bed2a8590dd123c1a018888bce6142d526741bed65dfe570fb223525c6a4906080015b60405180910390a15050505050505050565b600085815260076020818152604080842087855292830182528084208151606081018352815460ff16151581526001808301549482019490945260029182015492810192909252549183015490911415612e0a5760405162461bcd60e51b8152602060048201526012602482015271189d5c9b8e881b985d1a5d9948185cdcd95d60721b6044820152606401610b44565b8051612e585760405162461bcd60e51b815260206004820152601860248201527f6275726e3a2077726f6e672074617267656420636861696e00000000000000006044820152606401610b44565b8160020154871015612ea35760405162461bcd60e51b81526020600482015260146024820152736275726e3a20616d6f756e7420746f6f206c6f7760601b6044820152606401610b44565b8160030154871115612eef5760405162461bcd60e51b81526020600482015260156024820152740c4eae4dc7440c2dadeeadce840e8dede40d0d2ced605b1b6044820152606401610b44565b815484516001600160a01b039091169015612fa2576000806000612f1288611b5e565b60405163d505accf60e01b8152336004820152306024820152604481018f9052606481018d905260ff8216608482015260a4810184905260c4810183905292955090935091506001600160a01b0385169063d505accf9060e401600060405180830381600087803b158015612f8657600080fd5b505af1158015612f9a573d6000803e3d6000fd5b505050505050505b6040516323b872dd60e01b8152336004820152306024820152604481018990526001600160a01b038216906323b872dd90606401602060405180830381600087803b158015612ff057600080fd5b505af1158015613004573d6000803e3d6000fd5b505050506040513d601f19601f820116820180604052508101906130289190614053565b506000670de0b6b3a764000083604001518a6130449190614d09565b61304e9190614ce9565b836020015161305d9190614cd1565b905080156130dc57808910156130b55760405162461bcd60e51b815260206004820152601b60248201527f6275726e3a20616d6f756e74206e6f7420636f766572206665657300000000006044820152606401610b44565b808460040160008282546130c99190614cd1565b909155506130d99050818a614d28565b98505b604051630852cd8d60e31b8152600481018a90526001600160a01b038316906342966c6890602401600060405180830381600087803b15801561311e57600080fd5b505af1158015613132573d6000803e3d6000fd5b509a9c9b505050505050505050505050565b61314e8282611ae7565b6110be576000828152602081815260408083206001600160a01b03851684529091529020805460ff191660011790556131843390565b6001600160a01b0316816001600160a01b0316837f2f8788117e7eff1d82e926ec794901d17c78024a50270940304540a733656f0d60405160405180910390a45050565b60008781526008602052604090205460ff161561321c5760405162461bcd60e51b81526020600482015260126024820152711b5a5b9d0e88185b1c9958591e481d5cd95960721b6044820152606401610b44565b60008681526007602090815260408083208a84526008909252909120805460ff191660019081179091556002549082015414156132935760405162461bcd60e51b815260206004820152601560248201527436b4b73a1d1034b9903730ba34bb329031b430b4b760591b6044820152606401610b44565b82156134385780546040516340c10f1960e01b8152336004820152602481018590526001600160a01b03909116906340c10f1990604401600060405180830381600087803b1580156132e457600080fd5b505af11580156132f8573d6000803e3d6000fd5b50508254600480546040516340c10f1960e01b81526001600160a01b0391821692810192909252602482018a905290911692506340c10f199150604401600060405180830381600087803b15801561334f57600080fd5b505af1158015613363573d6000803e3d6000fd5b5050600480548454604051633bab642f60e01b8152600095506001600160a01b039283169450633bab642f936133a393909216918a918d918a910161497b565b602060405180830381600087803b1580156133bd57600080fd5b505af11580156133d1573d6000803e3d6000fd5b505050506040513d601f19601f820116820180604052508101906133f59190614053565b604080518b815282151560208201529192507f36c8142a7dcbbfde02c55b345b75761d6761eb241d6c504a0df77c0730b52fe9910160405180910390a15061349e565b80546040516340c10f1960e01b81526001600160a01b03888116600483015260248201889052909116906340c10f1990604401600060405180830381600087803b15801561348557600080fd5b505af1158015613499573d6000803e3d6000fd5b505050505b60408051898152602081018790526001600160a01b03881691810191909152606081018890527f5918a95fd00afb5898499bd5beade1619e98655d2b4ff6e0f6a4347f0a69c12790608001612d67565b6134f88282611ae7565b156110be576000828152602081815260408083206001600160a01b0385168085529252808320805460ff1916905551339285917ff6391f5c32d9c69d2a47ea670b442974b53935d1edc7fd64eb21e047a839171b9190a45050565b61356560015462010000900460ff1690565b6135a85760405162461bcd60e51b815260206004820152601460248201527314185d5cd8589b194e881b9bdd081c185d5cd95960621b6044820152606401610b44565b6001805462ff0000191690556040513381527f5db9ee0a495bf2e6ff9c91a7834c1ba4fdd244a5e8aa4e537bd38aeae4b073aa906020015b60405180910390a1565b805182511461364a5760405162461bcd60e51b815260206004820152602660248201527f5f61646441737365743a2077726f6e6720636861696e20737570706f7274206c604482015265656e6774687360d01b6064820152608401610b44565b600088815260076020526040812080546001600160a01b0319166001600160a01b038a161781556001810188905560028101879055600381018690556006810185905590805b845181101561375e578481815181106136b957634e487b7160e01b600052603260045260246000fd5b602002602001015191508381815181106136e357634e487b7160e01b600052603260045260246000fd5b602090810291909101810151600084815260078601835260408082208351815460ff1916901515178155938301516001850155918201516002909301929092555183918d917fdd4dbf80f57aa5115a1e07abb36e4de565879d4de5bd15b3803d666fe1d848639190a38061375681614d6b565b915050613690565b50604080518881526020810188905290810186905288906001600160a01b038b16908c907ff6f4e2b9c6425dc5e0ebbec27bfdc06bece97c248400c189c656fe08259cd4659060600160405180910390a450505050505050505050565b6040516001600160a01b0380851660248301528316604482015260648101829052610cd29085906323b872dd60e01b906084015b60408051601f198184030181529190526020810180516001600160e01b03166001600160e01b031990931692909217909152613a1e565b46600281905560006138388282611b10565b905061384d8160006002548d8d8d8b8b6135ea565b600380546001600160a01b03808a166001600160a01b03199283161790925560048054928916929091169190911790558451613890906005906020880190613c68565b506006546001600160a01b031692506114246000336110b4565b6040516001600160a01b0383166024820152604481018290526138da90849063a9059cbb60e01b906064016137ef565b505050565b6138f160015462010000900460ff1690565b1561390e5760405162461bcd60e51b8152600401610b4490614bb1565b6001805462ff00001916620100001790556040513381527f62e78cea01bee320cd4e420270b5ea74000d11b0c9f74754ebdbfc544b05a258906020016135e0565b6000670de0b6b3a76400008360060154846005015461396e9190614d09565b6139789190614ce9565b8354909150600090613992906001600160a01b0316612549565b905060008383116139a357836139a5565b825b905081811115611d96576139b98282614d28565b60065486546040516309e62b9160e01b81526001600160a01b0391821660048201526024810184905292935016906309e62b9190604401600060405180830381600087803b158015613a0a57600080fd5b505af1158015611968573d6000803e3d6000fd5b6000613a73826040518060400160405280602081526020017f5361666545524332303a206c6f772d6c6576656c2063616c6c206661696c6564815250856001600160a01b0316613af09092919063ffffffff16565b8051909150156138da5780806020019051810190613a919190614053565b6138da5760405162461bcd60e51b815260206004820152602a60248201527f5361666545524332303a204552433230206f7065726174696f6e20646964206e6044820152691bdd081cdd58d8d9595960b21b6064820152608401610b44565b6060613aff8484600085613b07565b949350505050565b606082471015613b685760405162461bcd60e51b815260206004820152602660248201527f416464726573733a20696e73756666696369656e742062616c616e636520666f6044820152651c8818d85b1b60d21b6064820152608401610b44565b843b613bb65760405162461bcd60e51b815260206004820152601d60248201527f416464726573733a2063616c6c20746f206e6f6e2d636f6e74726163740000006044820152606401610b44565b600080866001600160a01b03168587604051613bd2919061495f565b60006040518083038185875af1925050503d8060008114613c0f576040519150601f19603f3d011682016040523d82523d6000602084013e613c14565b606091505b5091509150613c24828286613c2f565b979650505050505050565b60608315613c3e5750816129b4565b825115613c4e5782518084602001fd5b8160405162461bcd60e51b8152600401610b449190614b28565b828054828255906000526020600020908101928215613ca3579160200282015b82811115613ca3578251825591602001919060010190613c88565b50613caf929150613cb3565b5090565b5b80821115613caf5760008155600101613cb4565b8035610b1081614dd2565b60008083601f840112613ce4578182fd5b5081356001600160401b03811115613cfa578182fd5b6020830191508360208083028501011115613d1457600080fd5b9250929050565b600082601f830112613d2b578081fd5b81356020613d40613d3b83614cae565b614c7e565b82815281810190858301606080860288018501891015613d5e578687fd5b865b86811015613db05781838b031215613d76578788fd5b613d7f82614c7e565b8335613d8a81614dea565b815283870135878201526040808501359082015285529385019391810191600101613d60565b509198975050505050505050565b600082601f830112613dce578081fd5b81356020613dde613d3b83614cae565b8281528181019085830183850287018401881015613dfa578586fd5b855b85811015613e1857813584529284019290840190600101613dfc565b5090979650505050505050565b600082601f830112613e35578081fd5b81356001600160401b03811115613e4e57613e4e614dbc565b613e61601f8201601f1916602001614c7e565b818152846020838601011115613e75578283fd5b816020850160208301379081016020019190915292915050565b803560ff81168114610b1057600080fd5b600060208284031215613eb1578081fd5b81356129b481614dd2565b600080600080600080600080610100898b031215613ed8578384fd5b8835613ee381614dd2565b97506020890135613ef381614dd2565b965060408901359550606089013594506080890135935060a0890135925060c08901356001600160401b0380821115613f2a578384fd5b613f368c838d01613dbe565b935060e08b0135915080821115613f4b578283fd5b50613f588b828c01613d1b565b9150509295985092959890939650565b60008060408385031215613f7a578182fd5b8235613f8581614dd2565b946020939093013593505050565b60008060008060008060c08789031215613fab578182fd5b8635613fb681614dd2565b955060208701359450604087013593506060870135925060808701356001600160401b0380821115613fe6578384fd5b613ff28a838b01613dbe565b935060a0890135915080821115614007578283fd5b5061401489828a01613d1b565b9150509295509295509295565b600060208284031215614032578081fd5b81356001600160401b03811115614047578182fd5b613aff84828501613dbe565b600060208284031215614064578081fd5b81516129b481614dea565b600060208284031215614080578081fd5b5035919050565b60008060408385031215614099578182fd5b8235915060208301356140ab81614dd2565b809150509250929050565b6000806000606084860312156140ca578081fd5b8335925060208401356140dc81614dd2565b929592945050506040919091013590565b60008060008060808587031215614102578182fd5b84359350602085013561411481614dd2565b93969395505050506040820135916060013590565b600080600080600080600060e0888a031215614143578081fd5b87359650602088013561415581614dd2565b95506040880135945060608801359350608088013561417381614dd2565b925060a0880135915060c08801356001600160401b03811115614194578182fd5b6141a08a828b01613e25565b91505092959891949750929550565b60008060008060008060008060006101208a8c0312156141cd578283fd5b8935985060208a01356141df81614dd2565b975060408a0135965060608a0135955060808a01356141fd81614dd2565b945060a08a0135935060c08a01356001600160401b038082111561421f578485fd5b61422b8d838e01613e25565b945060e08c013593506101008c0135915080821115614248578283fd5b506142558c828d01613e25565b9150509295985092959850929598565b60008060008060008060c0878903121561427d578384fd5b86359550602087013561428f81614dd2565b945060408701359350606087013592506080870135915060a08701356001600160401b038111156142be578182fd5b61401489828a01613e25565b6000806000606084860312156142de578081fd5b8335925060208401356001600160401b03808211156142fb578283fd5b61430787838801613dbe565b9350604086013591508082111561431c578283fd5b5061432986828701613d1b565b9150509250925092565b60008060408385031215614345578182fd5b50508035926020909101359150565b600080600080600080600060c0888a03121561436e578081fd5b8735965060208801359550604088013561438781614dd2565b9450606088013593506080880135925060a08801356001600160401b038111156143af578182fd5b6143bb8a828b01613cd3565b989b979a50959850939692959293505050565b6000806000806000806000806000806101208b8d0312156143ed578384fd5b8a35995060208b0135985060408b013561440681614dd2565b975060608b0135965060808b0135955060a08b01356001600160401b038082111561442f578586fd5b61443b8e838f01613cd3565b909750955060c08d0135915061445082614dd2565b90935060e08c013592506101008c0135908082111561446d578283fd5b5061447a8d828e01613e25565b9150509295989b9194979a5092959850565b60008060008060008060008060008060006101408c8e0312156144ad578485fd5b8b359a5060208c013599506144c460408d01613cc8565b985060608c0135975060808c013596506001600160401b038060a08e013511156144ec578586fd5b6144fc8e60a08f01358f01613cd3565b909750955061450d60c08e01613cc8565b945060e08d01359350806101008e01351115614527578182fd5b506145398d6101008e01358e01613e25565b91506145486101208d01613e8f565b90509295989b509295989b9093969950565b60008060008060008060008060e0898b031215614575578182fd5b8835975060208901359650604089013561458e81614dd2565b9550606089013594506080890135935060a08901356001600160401b038111156145b6578283fd5b6145c28b828c01613cd3565b90945092506145d5905060c08a01613e8f565b90509295985092959890939650565b6000806000606084860312156145f8578081fd5b8335925060208401359150604084013561461181614dea565b809150509250925092565b60008060008060808587031215614631578182fd5b5050823594602084013594506040840135936060013592509050565b60008060008060008060c08789031215614665578384fd5b86359550602087013594506040870135935060608701359250608087013561468c81614dd2565b8092505060a087013590509295509295509295565b60008060008060008060008060006101208a8c0312156146bf578283fd5b8935985060208a0135975060408a0135965060608a0135955060808a01356146e681614dd2565b945060a08a0135935060c08a01356146fd81614dd2565b925060e08a013591506101008a01356001600160401b0381111561471f578182fd5b6142558c828d01613e25565b60006020828403121561473c578081fd5b81356001600160e01b0319811681146129b4578182fd5b600060208284031215614764578081fd5b81356001600160401b03811115614779578182fd5b613aff84828501613e25565b600060208284031215614796578081fd5b5051919050565b600080600080600080600080610100898b0312156147b9578182fd5b88359750602089013596506040890135955060608901356147d981614dd2565b945060808901356147e981614dd2565b935060a08901356001600160401b0380821115614804578384fd5b6148108c838d01613dbe565b945060c08b0135915080821115614825578384fd5b506148328b828c01613d1b565b92505060e089013561484381614dd2565b809150509295985092959890939650565b600060208284031215614865578081fd5b6129b482613e8f565b60008060408385031215614880578182fd5b61488983613e8f565b915060208301356140ab81614dea565b60008284528282602086013780602084860101526020601f19601f85011685010190509392505050565b600081518084526148db816020860160208601614d3f565b601f01601f19169290920160200192915050565b60008a82528960208301528860408301528760608301526bffffffffffffffffffffffff19808860601b166080840152866094840152808660601b1660b4840152508360c8830152825161494a8160e8850160208701614d3f565b9190910160e8019a9950505050505050505050565b60008251614971818460208701614d3f565b9190910192915050565b6001600160a01b0385811682528481166020830152831660408201526080606082018190526000906149af908301846148c3565b9695505050505050565b6001600160a01b038481168252831660208201526060604082018190526000906149e5908301846148c3565b95945050505050565b6020808252825182820181905260009190848201906040850190845b81811015614a2657835183529284019291840191600101614a0a565b50909695505050505050565b6000604082018583526020604081850152818583526060850190506060828702860101925086845b87811015614ac557868503605f190183528135368a9003601e19018112614a7f578687fd5b890180356001600160401b03811115614a96578788fd5b8036038b1315614aa4578788fd5b614ab18782888501614899565b965050509183019190830190600101614a5a565b509298975050505050505050565b60006101008a835289602084015288604084015260018060a01b03881660608401528660808401528560a08401528460c08401528060e0840152614b19818401856148c3565b9b9a5050505050505050505050565b6000602082526129b460208301846148c3565b60208082526028908201527f6d696e74576974684f6c6441676772656761746f723a20696e76616c6964416760408201526733b932b3b0ba37b960c11b606082015260800190565b60208082526014908201527318db185a5b4e881b9bdd0818dbdb999a5c9b595960621b604082015260600190565b60208082526010908201526f14185d5cd8589b194e881c185d5cd95960821b604082015260600190565b6020808252601390820152726f6e6c7941646d696e3a2062616420726f6c6560681b604082015260600190565b6020808252601390820152721b5a5b9d0e881b9bdd0818dbdb999a5c9b5959606a1b604082015260600190565b60208082526029908201527f6d696e74576974684f6c6441676772656761746f723a20696e76616c6964206160408201526833b3b932b3b0ba37b960b91b606082015260800190565b604051601f8201601f191681016001600160401b0381118282101715614ca657614ca6614dbc565b604052919050565b60006001600160401b03821115614cc757614cc7614dbc565b5060209081020190565b60008219821115614ce457614ce4614da6565b500190565b600082614d0457634e487b7160e01b81526012600452602481fd5b500490565b6000816000190483118215151615614d2357614d23614da6565b500290565b600082821015614d3a57614d3a614da6565b500390565b60005b83811015614d5a578181015183820152602001614d42565b83811115610cd25750506000910152565b6000600019821415614d7f57614d7f614da6565b5060010190565b600060ff821660ff811415614d9d57614d9d614da6565b60010192915050565b634e487b7160e01b600052601160045260246000fd5b634e487b7160e01b600052604160045260246000fd5b6001600160a01b0381168114614de757600080fd5b50565b8015158114614de757600080fdfea2646970667358221220a5228e72c68cc59fe90cbffb20cd315eb37326c88790a638da47cfddaf615e5a64736f6c63430008020033",
  "immutableReferences": {},
  "source": "// SPDX-License-Identifier: MIT\r\npragma solidity ^0.8.2;\r\n\r\nimport \"@openzeppelin/contracts/token/ERC20/IERC20.sol\";\r\nimport \"@openzeppelin/contracts/token/ERC20/utils/SafeERC20.sol\";\r\nimport \"../interfaces/IWhiteLightVerifier.sol\";\r\nimport \"../interfaces/IWhiteLightDebridge.sol\";\r\nimport \"./WhiteDebridge.sol\";\r\n\r\ncontract WhiteLightDebridge is WhiteDebridge, IWhiteLightDebridge {\r\n    using SafeERC20 for IERC20;\r\n\r\n    /// @dev Constructor that initializes the most important configurations.\r\n    /// @param _minAmount Minimal amount of current chain token to be wrapped.\r\n    /// @param _maxAmount Maximum amount of current chain token to be wrapped.\r\n    /// @param _minReserves Minimal reserve ratio.\r\n    /// @param _aggregator Submission aggregator address.\r\n    /// @param _supportedChainIds Chain ids where native token of the current chain can be wrapped.\r\n    function initialize(\r\n        uint256 _minAmount,\r\n        uint256 _maxAmount,\r\n        uint256 _minReserves,\r\n        address _aggregator,\r\n        address _callProxy,\r\n        uint256[] memory _supportedChainIds,\r\n        ChainSupportInfo[] memory _chainSupportInfo,\r\n        IDefiController _defiController\r\n    ) public payable initializer {\r\n        super._initialize(\r\n            _minAmount,\r\n            _maxAmount,\r\n            _minReserves,\r\n            _aggregator,\r\n            _callProxy,\r\n            _supportedChainIds,\r\n            _chainSupportInfo,\r\n            _defiController\r\n        );\r\n    }\r\n\r\n    /// @dev Mints wrapped asset on the current chain.\r\n    /// @param _debridgeId Asset identifier.\r\n    /// @param _receiver Receiver address.\r\n    /// @param _amount Amount of the transfered asset (note: without applyed fee).\r\n    /// @param _nonce Submission id.\r\n    /// @param _signatures Array of oracles signatures.\r\n    /// @param _fallbackAddress Receiver of the tokens if the call fails.\r\n    /// @param _executionFee Fee paid to the transaction executor.\r\n    /// @param _data Chain id of the target chain.\r\n    function autoMint(\r\n        bytes32 _debridgeId,\r\n        uint256 _chainIdFrom,\r\n        address _receiver,\r\n        uint256 _amount,\r\n        uint256 _nonce,\r\n        bytes[] calldata _signatures,\r\n        address _fallbackAddress,\r\n        uint256 _executionFee,\r\n        bytes memory _data\r\n    ) external {\r\n        bytes32 submissionId =\r\n            getAutoSubmisionId(\r\n                _debridgeId,\r\n                _chainIdFrom,\r\n                chainId,\r\n                _amount,\r\n                _receiver,\r\n                _nonce,\r\n                _fallbackAddress,\r\n                _executionFee,\r\n                _data\r\n            );\r\n        require(\r\n            IWhiteLightVerifier(aggregator).submit(submissionId, _signatures),\r\n            \"mint: not confirmed\"\r\n        );\r\n        _mint(\r\n            submissionId,\r\n            _debridgeId,\r\n            _receiver,\r\n            _amount,\r\n            _fallbackAddress,\r\n            _executionFee,\r\n            _data\r\n        );\r\n    }\r\n\r\n    /// @dev Mints wrapped asset on the current chain.\r\n    /// @param _debridgeId Asset identifier.\r\n    /// @param _receiver Receiver address.\r\n    /// @param _amount Amount of the transfered asset (note: without applyed fee).\r\n    /// @param _nonce Submission id.\r\n    /// @param _signatures Array of oracles signatures.\r\n    /// @param _fallbackAddress Receiver of the tokens if the call fails.\r\n    /// @param _executionFee Fee paid to the transaction executor.\r\n    /// @param _data Chain id of the target chain.\r\n    function autoMintWithOldAggregator(\r\n        bytes32 _debridgeId,\r\n        uint256 _chainIdFrom,\r\n        address _receiver,\r\n        uint256 _amount,\r\n        uint256 _nonce,\r\n        bytes[] calldata _signatures,\r\n        address _fallbackAddress,\r\n        uint256 _executionFee,\r\n        bytes memory _data,\r\n        uint8 _aggregatorVersion\r\n    ) external {\r\n        bytes32 submissionId =\r\n            getAutoSubmisionId(\r\n                _debridgeId,\r\n                _chainIdFrom,\r\n                chainId,\r\n                _amount,\r\n                _receiver,\r\n                _nonce,\r\n                _fallbackAddress,\r\n                _executionFee,\r\n                _data\r\n            );\r\n        AggregatorInfo memory aggregatorInfo =\r\n            getOldAggregator[_aggregatorVersion];\r\n        require(\r\n            aggregatorInfo.isValid,\r\n            \"mintWithOldAggregator: invalidAggregator\"\r\n        );\r\n        require(\r\n            IWhiteLightVerifier(aggregatorInfo.aggregator).submit(\r\n                submissionId,\r\n                _signatures\r\n            ),\r\n            \"mint: not confirmed\"\r\n        );\r\n        _mint(\r\n            submissionId,\r\n            _debridgeId,\r\n            _receiver,\r\n            _amount,\r\n            _fallbackAddress,\r\n            _executionFee,\r\n            _data\r\n        );\r\n    }\r\n\r\n    /// @dev Mints wrapped asset on the current chain.\r\n    /// @param _debridgeId Asset identifier.\r\n    /// @param _receiver Receiver address.\r\n    /// @param _amount Amount of the transfered asset (note: without applyed fee).\r\n    /// @param _nonce Submission id.\r\n    /// @param _signatures Array of oracles signatures.\r\n    function mint(\r\n        bytes32 _debridgeId,\r\n        uint256 _chainIdFrom,\r\n        address _receiver,\r\n        uint256 _amount,\r\n        uint256 _nonce,\r\n        bytes[] calldata _signatures\r\n    ) external override {\r\n        bytes32 submissionId =\r\n            getSubmisionId(\r\n                _debridgeId,\r\n                _chainIdFrom,\r\n                chainId,\r\n                _amount,\r\n                _receiver,\r\n                _nonce\r\n            );\r\n        require(\r\n            IWhiteLightVerifier(aggregator).submit(submissionId, _signatures),\r\n            \"mint: not confirmed\"\r\n        );\r\n        _mint(\r\n            submissionId,\r\n            _debridgeId,\r\n            _receiver,\r\n            _amount,\r\n            address(0),\r\n            0,\r\n            \"0x\"\r\n        );\r\n    }\r\n\r\n    /// @dev Mints wrapped asset on the current chain.\r\n    /// @param _debridgeId Asset identifier.\r\n    /// @param _receiver Receiver address.\r\n    /// @param _amount Amount of the transfered asset (note: without applyed fee).\r\n    /// @param _nonce Submission id.\r\n    /// @param _signatures Array of oracles signatures.\r\n    /// @param _aggregatorVersion Aggregator version.\r\n    function mintWithOldAggregator(\r\n        bytes32 _debridgeId,\r\n        uint256 _chainIdFrom,\r\n        address _receiver,\r\n        uint256 _amount,\r\n        uint256 _nonce,\r\n        bytes[] calldata _signatures,\r\n        uint8 _aggregatorVersion\r\n    ) external override {\r\n        bytes32 submissionId =\r\n            getSubmisionId(\r\n                _debridgeId,\r\n                _chainIdFrom,\r\n                chainId,\r\n                _amount,\r\n                _receiver,\r\n                _nonce\r\n            );\r\n        AggregatorInfo memory aggregatorInfo =\r\n            getOldAggregator[_aggregatorVersion];\r\n        require(\r\n            aggregatorInfo.isValid,\r\n            \"mintWithOldAggregator: invalidAggregator\"\r\n        );\r\n        require(\r\n            IWhiteLightVerifier(aggregatorInfo.aggregator).submit(\r\n                submissionId,\r\n                _signatures\r\n            ),\r\n            \"mint: not confirmed\"\r\n        );\r\n        _mint(\r\n            submissionId,\r\n            _debridgeId,\r\n            _receiver,\r\n            _amount,\r\n            address(0),\r\n            0,\r\n            \"0x\"\r\n        );\r\n    }\r\n\r\n    /// @dev Unlock the asset on the current chain and transfer to receiver.\r\n    /// @param _debridgeId Asset identifier.\r\n    /// @param _receiver Receiver address.\r\n    /// @param _amount Amount of the transfered asset (note: the fee can be applyed).\r\n    /// @param _nonce Submission id.\r\n    /// @param _signatures Array of oracles signatures.\r\n    function claim(\r\n        bytes32 _debridgeId,\r\n        uint256 _chainIdFrom,\r\n        address _receiver,\r\n        uint256 _amount,\r\n        uint256 _nonce,\r\n        bytes[] calldata _signatures\r\n    ) external override {\r\n        bytes32 submissionId =\r\n            getSubmisionId(\r\n                _debridgeId,\r\n                _chainIdFrom,\r\n                chainId,\r\n                _amount,\r\n                _receiver,\r\n                _nonce\r\n            );\r\n        require(\r\n            IWhiteLightVerifier(aggregator).submit(submissionId, _signatures),\r\n            \"claim: not confirmed\"\r\n        );\r\n        _claim(\r\n            submissionId,\r\n            _debridgeId,\r\n            _receiver,\r\n            _amount,\r\n            address(0),\r\n            0,\r\n            \"0x\"\r\n        );\r\n    }\r\n\r\n    /// @dev Unlock the asset on the current chain and transfer to receiver.\r\n    /// @param _debridgeId Asset identifier.\r\n    /// @param _receiver Receiver address.\r\n    /// @param _amount Amount of the transfered asset (note: the fee can be applyed).\r\n    /// @param _nonce Submission id.\r\n    /// @param _signatures Array of oracles signatures.\r\n    /// @param _fallbackAddress Receiver of the tokens if the call fails.\r\n    /// @param _executionFee Fee paid to the transaction executor.\r\n    /// @param _data Chain id of the target chain.\r\n    function autoClaim(\r\n        bytes32 _debridgeId,\r\n        uint256 _chainIdFrom,\r\n        address _receiver,\r\n        uint256 _amount,\r\n        uint256 _nonce,\r\n        bytes[] calldata _signatures,\r\n        address _fallbackAddress,\r\n        uint256 _executionFee,\r\n        bytes memory _data\r\n    ) external {\r\n        bytes32 submissionId =\r\n            getAutoSubmisionId(\r\n                _debridgeId,\r\n                _chainIdFrom,\r\n                chainId,\r\n                _amount,\r\n                _receiver,\r\n                _nonce,\r\n                _fallbackAddress,\r\n                _executionFee,\r\n                _data\r\n            );\r\n        require(\r\n            IWhiteLightVerifier(aggregator).submit(submissionId, _signatures),\r\n            \"claim: not confirmed\"\r\n        );\r\n        _claim(\r\n            submissionId,\r\n            _debridgeId,\r\n            _receiver,\r\n            _amount,\r\n            _fallbackAddress,\r\n            _executionFee,\r\n            _data\r\n        );\r\n    }\r\n\r\n    /// @dev Unlock the asset on the current chain and transfer to receiver.\r\n    /// @param _debridgeId Asset identifier.\r\n    /// @param _receiver Receiver address.\r\n    /// @param _amount Amount of the transfered asset (note: the fee can be applyed).\r\n    /// @param _nonce Submission id.\r\n    /// @param _signatures Array of oracles signatures.\r\n    /// @param _fallbackAddress Receiver of the tokens if the call fails.\r\n    /// @param _executionFee Fee paid to the transaction executor.\r\n    /// @param _data Chain id of the target chain.\r\n    function autoClaimWithOldAggregator(\r\n        bytes32 _debridgeId,\r\n        uint256 _chainIdFrom,\r\n        address _receiver,\r\n        uint256 _amount,\r\n        uint256 _nonce,\r\n        bytes[] calldata _signatures,\r\n        address _fallbackAddress,\r\n        uint256 _executionFee,\r\n        bytes memory _data,\r\n        uint8 _aggregatorVersion\r\n    ) external {\r\n        bytes32 submissionId =\r\n            getAutoSubmisionId(\r\n                _debridgeId,\r\n                _chainIdFrom,\r\n                chainId,\r\n                _amount,\r\n                _receiver,\r\n                _nonce,\r\n                _fallbackAddress,\r\n                _executionFee,\r\n                _data\r\n            );\r\n        AggregatorInfo memory aggregatorInfo =\r\n            getOldAggregator[_aggregatorVersion];\r\n        require(\r\n            aggregatorInfo.isValid,\r\n            \"mintWithOldAggregator: invalid aggregator\"\r\n        );\r\n        require(\r\n            IWhiteLightVerifier(aggregatorInfo.aggregator).submit(\r\n                submissionId,\r\n                _signatures\r\n            ),\r\n            \"claim: not confirmed\"\r\n        );\r\n        _claim(\r\n            submissionId,\r\n            _debridgeId,\r\n            _receiver,\r\n            _amount,\r\n            _fallbackAddress,\r\n            _executionFee,\r\n            _data\r\n        );\r\n    }\r\n\r\n    /// @dev Unlock the asset on the current chain and transfer to receiver.\r\n    /// @param _debridgeId Asset identifier.\r\n    /// @param _receiver Receiver address.\r\n    /// @param _amount Amount of the transfered asset (note: the fee can be applyed).\r\n    /// @param _nonce Submission id.\r\n    /// @param _signatures Array of oracles signatures.\r\n    /// @param _aggregatorVersion Aggregator version.\r\n    function claimWithOldAggregator(\r\n        bytes32 _debridgeId,\r\n        uint256 _chainIdFrom,\r\n        address _receiver,\r\n        uint256 _amount,\r\n        uint256 _nonce,\r\n        bytes[] calldata _signatures,\r\n        uint8 _aggregatorVersion\r\n    ) external override {\r\n        bytes32 submissionId =\r\n            getSubmisionId(\r\n                _debridgeId,\r\n                _chainIdFrom,\r\n                chainId,\r\n                _amount,\r\n                _receiver,\r\n                _nonce\r\n            );\r\n        AggregatorInfo memory aggregatorInfo =\r\n            getOldAggregator[_aggregatorVersion];\r\n        require(\r\n            aggregatorInfo.isValid,\r\n            \"mintWithOldAggregator: invalid aggregator\"\r\n        );\r\n        require(\r\n            IWhiteLightVerifier(aggregatorInfo.aggregator).submit(\r\n                submissionId,\r\n                _signatures\r\n            ),\r\n            \"claim: not confirmed\"\r\n        );\r\n        _claim(\r\n            submissionId,\r\n            _debridgeId,\r\n            _receiver,\r\n            _amount,\r\n            address(0),\r\n            0,\r\n            \"0x\"\r\n        );\r\n    }\r\n}\r\n",
  "sourcePath": "D:/Ethereum/Debridge/debridge-contracts-v1/contracts/transfers/WhiteLightDebridge.sol",
  "compiler": {
    "name": "solc",
    "version": "0.8.2+commit.661d1103.Emscripten.clang"
  },
  "schemaVersion": "3.3.4",
  "updatedAt": "2021-06-09T12:38:17.662Z",
  "devdoc": {
    "kind": "dev",
    "methods": {
      "addExternalAsset(address,address,uint256,uint256,uint256,uint256,uint256[],(bool,uint256,uint256)[])": {
        "details": "Add support for the asset from the other chain, deploy new wrapped asset.",
        "params": {
          "_chainId": "Current chain id.",
          "_maxAmount": "Maximum amount of current chain token to be wrapped.",
          "_minAmount": "Minimal amount of the asset to be wrapped.",
          "_minReserves": "Minimal reserve ration.",
          "_supportedChainIds": "Chain ids where the token of the current chain can be transfered.",
          "_tokenAddress": "Address of the asset on the other chain.",
          "_wrappedAssetAddress": "Wrapped asset address."
        }
      },
      "addNativeAsset(address,uint256,uint256,uint256,uint256[],(bool,uint256,uint256)[])": {
        "details": "Add support for the asset on the current chain.",
        "params": {
          "_maxAmount": "Maximum amount of current chain token to be wrapped.",
          "_minAmount": "Minimal amount of current chain token to be wrapped.",
          "_minReserves": "Minimal reserve ration.",
          "_supportedChainIds": "Chain ids where native token of the current chain can be wrapped.",
          "_tokenAddress": "Address of the asset on the current chain."
        }
      },
      "autoBurn(bytes32,address,uint256,uint256,address,uint256,bytes,uint256,bytes)": {
        "details": "Burns wrapped asset and allowss to claim it on the other chain.",
        "params": {
          "_amount": "Amount of the transfered asset (note: the fee can be applyed).",
          "_chainIdTo": "Chain id of the target chain.",
          "_data": "Chain id of the target chain.",
          "_debridgeId": "Asset identifier.",
          "_executionFee": "Fee paid to the transaction executor.",
          "_fallbackAddress": "Receiver of the tokens if the call fails.",
          "_receiver": "Receiver address."
        }
      },
      "autoClaim(bytes32,uint256,address,uint256,uint256,bytes[],address,uint256,bytes)": {
        "details": "Unlock the asset on the current chain and transfer to receiver.",
        "params": {
          "_amount": "Amount of the transfered asset (note: the fee can be applyed).",
          "_data": "Chain id of the target chain.",
          "_debridgeId": "Asset identifier.",
          "_executionFee": "Fee paid to the transaction executor.",
          "_fallbackAddress": "Receiver of the tokens if the call fails.",
          "_nonce": "Submission id.",
          "_receiver": "Receiver address.",
          "_signatures": "Array of oracles signatures."
        }
      },
      "autoClaimWithOldAggregator(bytes32,uint256,address,uint256,uint256,bytes[],address,uint256,bytes,uint8)": {
        "details": "Unlock the asset on the current chain and transfer to receiver.",
        "params": {
          "_amount": "Amount of the transfered asset (note: the fee can be applyed).",
          "_data": "Chain id of the target chain.",
          "_debridgeId": "Asset identifier.",
          "_executionFee": "Fee paid to the transaction executor.",
          "_fallbackAddress": "Receiver of the tokens if the call fails.",
          "_nonce": "Submission id.",
          "_receiver": "Receiver address.",
          "_signatures": "Array of oracles signatures."
        }
      },
      "autoMint(bytes32,uint256,address,uint256,uint256,bytes[],address,uint256,bytes)": {
        "details": "Mints wrapped asset on the current chain.",
        "params": {
          "_amount": "Amount of the transfered asset (note: without applyed fee).",
          "_data": "Chain id of the target chain.",
          "_debridgeId": "Asset identifier.",
          "_executionFee": "Fee paid to the transaction executor.",
          "_fallbackAddress": "Receiver of the tokens if the call fails.",
          "_nonce": "Submission id.",
          "_receiver": "Receiver address.",
          "_signatures": "Array of oracles signatures."
        }
      },
      "autoMintWithOldAggregator(bytes32,uint256,address,uint256,uint256,bytes[],address,uint256,bytes,uint8)": {
        "details": "Mints wrapped asset on the current chain.",
        "params": {
          "_amount": "Amount of the transfered asset (note: without applyed fee).",
          "_data": "Chain id of the target chain.",
          "_debridgeId": "Asset identifier.",
          "_executionFee": "Fee paid to the transaction executor.",
          "_fallbackAddress": "Receiver of the tokens if the call fails.",
          "_nonce": "Submission id.",
          "_receiver": "Receiver address.",
          "_signatures": "Array of oracles signatures."
        }
      },
      "autoSend(bytes32,address,uint256,uint256,address,uint256,bytes)": {
        "details": "Locks asset on the chain and enables minting on the other chain.",
        "params": {
          "_amount": "Amount to be transfered (note: the fee can be applyed).",
          "_chainIdTo": "Chain id of the target chain.",
          "_data": "Chain id of the target chain.",
          "_debridgeId": "Asset identifier.",
          "_executionFee": "Fee paid to the transaction executor.",
          "_fallbackAddress": "Receiver of the tokens if the call fails.",
          "_receiver": "Receiver address."
        }
      },
      "burn(bytes32,address,uint256,uint256,uint256,bytes)": {
        "details": "Burns wrapped asset and allowss to claim it on the other chain.",
        "params": {
          "_amount": "Amount of the transfered asset (note: the fee can be applyed).",
          "_chainIdTo": "Chain id of the target chain.",
          "_debridgeId": "Asset identifier.",
          "_receiver": "Receiver address."
        }
      },
      "claim(bytes32,uint256,address,uint256,uint256,bytes[])": {
        "details": "Unlock the asset on the current chain and transfer to receiver.",
        "params": {
          "_amount": "Amount of the transfered asset (note: the fee can be applyed).",
          "_debridgeId": "Asset identifier.",
          "_nonce": "Submission id.",
          "_receiver": "Receiver address.",
          "_signatures": "Array of oracles signatures."
        }
      },
      "claimWithOldAggregator(bytes32,uint256,address,uint256,uint256,bytes[],uint8)": {
        "details": "Unlock the asset on the current chain and transfer to receiver.",
        "params": {
          "_aggregatorVersion": "Aggregator version.",
          "_amount": "Amount of the transfered asset (note: the fee can be applyed).",
          "_debridgeId": "Asset identifier.",
          "_nonce": "Submission id.",
          "_receiver": "Receiver address.",
          "_signatures": "Array of oracles signatures."
        }
      },
      "getAutoSubmisionId(bytes32,uint256,uint256,uint256,address,uint256,address,uint256,bytes)": {
        "details": "Calculate submission id for auto claimable transfer.",
        "params": {
          "_amount": "Amount of the transfered asset (note: the fee can be applyed).",
          "_chainIdFrom": "Chain identifier of the chain where tokens are sent from.",
          "_chainIdTo": "Chain identifier of the chain where tokens are sent to.",
          "_data": "Chain id of the target chain.",
          "_debridgeId": "Asset identifier.",
          "_executionFee": "Fee paid to the transaction executor.",
          "_fallbackAddress": "Receiver of the tokens if the call fails.",
          "_nonce": "Submission id.",
          "_receiver": "Receiver address."
        }
      },
      "getBalance(address)": {
        "details": "Get the balance.",
        "params": {
          "_tokenAddress": "Address of the asset on the other chain."
        }
      },
      "getChainIdSupport(bytes32,uint256)": {
        "details": "Check if transfer to chain is supported.",
        "params": {
          "_chainId": "Chain identifier.",
          "_debridgeId": "Asset identifier."
        }
      },
      "getDebridgeId(uint256,address)": {
        "details": "Calculates asset identifier.",
        "params": {
          "_chainId": "Current chain id.",
          "_tokenAddress": "Address of the asset on the other chain."
        }
      },
      "getRoleAdmin(bytes32)": {
        "details": "Returns the admin role that controls `role`. See {grantRole} and {revokeRole}. To change a role's admin, use {_setRoleAdmin}."
      },
      "getSubmisionId(bytes32,uint256,uint256,uint256,address,uint256)": {
        "details": "Calculate submission id.",
        "params": {
          "_amount": "Amount of the transfered asset (note: the fee can be applyed).",
          "_chainIdFrom": "Chain identifier of the chain where tokens are sent from.",
          "_chainIdTo": "Chain identifier of the chain where tokens are sent to.",
          "_debridgeId": "Asset identifier.",
          "_nonce": "Submission id.",
          "_receiver": "Receiver address."
        }
      },
      "grantRole(bytes32,address)": {
        "details": "Grants `role` to `account`. If `account` had not been already granted `role`, emits a {RoleGranted} event. Requirements: - the caller must have ``role``'s admin role."
      },
      "hasRole(bytes32,address)": {
        "details": "Returns `true` if `account` has been granted `role`."
      },
      "initialize(uint256,uint256,uint256,address,address,uint256[],(bool,uint256,uint256)[],address)": {
        "details": "Constructor that initializes the most important configurations.",
        "params": {
          "_aggregator": "Submission aggregator address.",
          "_maxAmount": "Maximum amount of current chain token to be wrapped.",
          "_minAmount": "Minimal amount of current chain token to be wrapped.",
          "_minReserves": "Minimal reserve ratio.",
          "_supportedChainIds": "Chain ids where native token of the current chain can be wrapped."
        }
      },
      "manageOldAggregator(uint8,bool)": {
        "details": "Set aggregator address.",
        "params": {
          "_aggregatorVersion": "Submission aggregator address.",
          "_isValid": "Is valid."
        }
      },
      "mint(bytes32,uint256,address,uint256,uint256,bytes[])": {
        "details": "Mints wrapped asset on the current chain.",
        "params": {
          "_amount": "Amount of the transfered asset (note: without applyed fee).",
          "_debridgeId": "Asset identifier.",
          "_nonce": "Submission id.",
          "_receiver": "Receiver address.",
          "_signatures": "Array of oracles signatures."
        }
      },
      "mintWithOldAggregator(bytes32,uint256,address,uint256,uint256,bytes[],uint8)": {
        "details": "Mints wrapped asset on the current chain.",
        "params": {
          "_aggregatorVersion": "Aggregator version.",
          "_amount": "Amount of the transfered asset (note: without applyed fee).",
          "_debridgeId": "Asset identifier.",
          "_nonce": "Submission id.",
          "_receiver": "Receiver address.",
          "_signatures": "Array of oracles signatures."
        }
      },
      "pause()": {
        "details": "Stop all transfers."
      },
      "paused()": {
        "details": "Returns true if the contract is paused, and false otherwise."
      },
      "renounceRole(bytes32,address)": {
        "details": "Revokes `role` from the calling account. Roles are often managed via {grantRole} and {revokeRole}: this function's purpose is to provide a mechanism for accounts to lose their privileges if they are compromised (such as when a trusted device is misplaced). If the calling account had been granted `role`, emits a {RoleRevoked} event. Requirements: - the caller must be `account`."
      },
      "requestReserves(address,uint256)": {
        "details": "Request the assets to be used in defi protocol.",
        "params": {
          "_amount": "Amount of tokens to request.",
          "_tokenAddress": "Asset address."
        }
      },
      "returnReserves(address,uint256)": {
        "details": "Return the assets that were used in defi protocol.",
        "params": {
          "_amount": "Amount of tokens to claim.",
          "_tokenAddress": "Asset address."
        }
      },
      "revokeRole(bytes32,address)": {
        "details": "Revokes `role` from `account`. If `account` had been granted `role`, emits a {RoleRevoked} event. Requirements: - the caller must have ``role``'s admin role."
      },
      "send(bytes32,address,uint256,uint256)": {
        "details": "Locks asset on the chain and enables minting on the other chain.",
        "params": {
          "_amount": "Amount to be transfered (note: the fee can be applyed).",
          "_chainIdTo": "Chain id of the target chain.",
          "_debridgeId": "Asset identifier.",
          "_receiver": "Receiver address."
        }
      },
      "setAggregator(address)": {
        "details": "Set aggregator address.",
        "params": {
          "_aggregator": "Submission aggregator address."
        }
      },
      "setCallProxy(address)": {
        "details": "Set proxy address.",
        "params": {
          "_callProxy": "Address of the proxy that executes external calls."
        }
      },
      "setChainIdSupport(bytes32,uint256,bool)": {
        "details": "Set support for the chains where the token can be transfered.",
        "params": {
          "_chainId": "Current chain id.",
          "_debridgeId": "Asset identifier.",
          "_isSupported": "Whether the token is transferable to the other chain."
        }
      },
      "setChainIds(uint256[])": {
        "details": "Set support for the chains.",
        "params": {
          "_chainIds": "All supported chain ids."
        }
      },
      "setDefiController(address)": {
        "details": "Set defi controoler.",
        "params": {
          "_defiController": "Defi controller address address."
        }
      },
      "splitSignature(bytes)": {
        "details": "Splits signature bytes to r,s,v components.",
        "params": {
          "_signature": "Signature bytes in format r+s+v."
        }
      },
      "supportsInterface(bytes4)": {
        "details": "See {IERC165-supportsInterface}."
      },
      "unpause()": {
        "details": "Allow transfers."
      },
      "updateAsset(bytes32,uint256,uint256,uint256)": {
        "details": "Add support for the asset.",
        "params": {
          "_debridgeId": "Asset identifier.",
          "_maxAmount": "Maximum amount of current chain token to be wrapped.",
          "_minAmount": "Minimal amount of the asset to be wrapped.",
          "_minReserves": "Minimal reserve ration."
        }
      },
      "updateAsset(bytes32,uint256[],(bool,uint256,uint256)[])": {
        "details": "Update asset's fees.",
        "params": {
          "_chainSupportInfo": "Cahin support info.",
          "_debridgeId": "Asset identifier.",
          "_supportedChainIds": "Chain identifiers."
        }
      },
      "withdrawFee(bytes32,address,uint256)": {
        "details": "Withdraw fees.",
        "params": {
          "_amount": "Amount of tokens to withdraw.",
          "_debridgeId": "Asset identifier.",
          "_receiver": "Receiver address."
        }
      }
    },
    "version": 1
  },
  "userdoc": {
    "kind": "user",
    "methods": {},
    "version": 1
  }
}