{
  "contractName": "WhiteDebridge",
  "abi": [
    {
      "inputs": [
        {
          "internalType": "uint256",
          "name": "_chainId",
          "type": "uint256"
        },
        {
          "internalType": "uint256",
          "name": "_minAmount",
          "type": "uint256"
        },
        {
          "internalType": "uint256",
          "name": "_transferFee",
          "type": "uint256"
        },
        {
          "internalType": "uint256[]",
          "name": "_supportedChainIds",
          "type": "uint256[]"
        }
      ],
      "stateMutability": "nonpayable",
      "type": "constructor"
    },
    {
      "anonymous": false,
      "inputs": [
        {
          "indexed": false,
          "internalType": "uint256",
          "name": "nonce",
          "type": "uint256"
        },
        {
          "indexed": false,
          "internalType": "uint256",
          "name": "amount",
          "type": "uint256"
        },
        {
          "indexed": false,
          "internalType": "address",
          "name": "receiver",
          "type": "address"
        },
        {
          "indexed": false,
          "internalType": "bytes32",
          "name": "debridgeId",
          "type": "bytes32"
        },
        {
          "indexed": false,
          "internalType": "uint256",
          "name": "chainIdTo",
          "type": "uint256"
        }
      ],
      "name": "Burnt",
      "type": "event"
    },
    {
      "anonymous": false,
      "inputs": [
        {
          "indexed": false,
          "internalType": "uint256",
          "name": "amount",
          "type": "uint256"
        },
        {
          "indexed": false,
          "internalType": "address",
          "name": "receiver",
          "type": "address"
        },
        {
          "indexed": false,
          "internalType": "bytes32",
          "name": "debridgeId",
          "type": "bytes32"
        }
      ],
      "name": "Claimed",
      "type": "event"
    },
    {
      "anonymous": false,
      "inputs": [
        {
          "indexed": false,
          "internalType": "uint256",
          "name": "amount",
          "type": "uint256"
        },
        {
          "indexed": false,
          "internalType": "address",
          "name": "receiver",
          "type": "address"
        },
        {
          "indexed": false,
          "internalType": "bytes32",
          "name": "debridgeId",
          "type": "bytes32"
        }
      ],
      "name": "Minted",
      "type": "event"
    },
    {
      "anonymous": false,
      "inputs": [
        {
          "indexed": true,
          "internalType": "bytes32",
          "name": "role",
          "type": "bytes32"
        },
        {
          "indexed": true,
          "internalType": "bytes32",
          "name": "previousAdminRole",
          "type": "bytes32"
        },
        {
          "indexed": true,
          "internalType": "bytes32",
          "name": "newAdminRole",
          "type": "bytes32"
        }
      ],
      "name": "RoleAdminChanged",
      "type": "event"
    },
    {
      "anonymous": false,
      "inputs": [
        {
          "indexed": true,
          "internalType": "bytes32",
          "name": "role",
          "type": "bytes32"
        },
        {
          "indexed": true,
          "internalType": "address",
          "name": "account",
          "type": "address"
        },
        {
          "indexed": true,
          "internalType": "address",
          "name": "sender",
          "type": "address"
        }
      ],
      "name": "RoleGranted",
      "type": "event"
    },
    {
      "anonymous": false,
      "inputs": [
        {
          "indexed": true,
          "internalType": "bytes32",
          "name": "role",
          "type": "bytes32"
        },
        {
          "indexed": true,
          "internalType": "address",
          "name": "account",
          "type": "address"
        },
        {
          "indexed": true,
          "internalType": "address",
          "name": "sender",
          "type": "address"
        }
      ],
      "name": "RoleRevoked",
      "type": "event"
    },
    {
      "anonymous": false,
      "inputs": [
        {
          "indexed": false,
          "internalType": "uint256",
          "name": "nonce",
          "type": "uint256"
        },
        {
          "indexed": false,
          "internalType": "uint256",
          "name": "amount",
          "type": "uint256"
        },
        {
          "indexed": false,
          "internalType": "address",
          "name": "receiver",
          "type": "address"
        },
        {
          "indexed": false,
          "internalType": "bytes32",
          "name": "debridgeId",
          "type": "bytes32"
        },
        {
          "indexed": false,
          "internalType": "uint256",
          "name": "chainIdTo",
          "type": "uint256"
        }
      ],
      "name": "Sent",
      "type": "event"
    },
    {
      "inputs": [],
      "name": "AGGREGATOR_ROLE",
      "outputs": [
        {
          "internalType": "bytes32",
          "name": "",
          "type": "bytes32"
        }
      ],
      "stateMutability": "view",
      "type": "function"
    },
    {
      "inputs": [],
      "name": "DEFAULT_ADMIN_ROLE",
      "outputs": [
        {
          "internalType": "bytes32",
          "name": "",
          "type": "bytes32"
        }
      ],
      "stateMutability": "view",
      "type": "function"
    },
    {
      "inputs": [],
      "name": "DENOMINATOR",
      "outputs": [
        {
          "internalType": "uint256",
          "name": "",
          "type": "uint256"
        }
      ],
      "stateMutability": "view",
      "type": "function"
    },
    {
      "inputs": [],
      "name": "chainId",
      "outputs": [
        {
          "internalType": "uint256",
          "name": "",
          "type": "uint256"
        }
      ],
      "stateMutability": "view",
      "type": "function"
    },
    {
      "inputs": [],
      "name": "collectedFees",
      "outputs": [
        {
          "internalType": "uint256",
          "name": "",
          "type": "uint256"
        }
      ],
      "stateMutability": "view",
      "type": "function"
    },
    {
      "inputs": [
        {
          "internalType": "bytes32",
          "name": "",
          "type": "bytes32"
        }
      ],
      "name": "getDebridge",
      "outputs": [
        {
          "internalType": "address",
          "name": "tokenAddress",
          "type": "address"
        },
        {
          "internalType": "uint256",
          "name": "chainId",
          "type": "uint256"
        },
        {
          "internalType": "uint256",
          "name": "minAmount",
          "type": "uint256"
        },
        {
          "internalType": "uint256",
          "name": "transferFee",
          "type": "uint256"
        }
      ],
      "stateMutability": "view",
      "type": "function"
    },
    {
      "inputs": [
        {
          "internalType": "bytes32",
          "name": "role",
          "type": "bytes32"
        }
      ],
      "name": "getRoleAdmin",
      "outputs": [
        {
          "internalType": "bytes32",
          "name": "",
          "type": "bytes32"
        }
      ],
      "stateMutability": "view",
      "type": "function"
    },
    {
      "inputs": [
        {
          "internalType": "bytes32",
          "name": "role",
          "type": "bytes32"
        },
        {
          "internalType": "address",
          "name": "account",
          "type": "address"
        }
      ],
      "name": "grantRole",
      "outputs": [],
      "stateMutability": "nonpayable",
      "type": "function"
    },
    {
      "inputs": [
        {
          "internalType": "bytes32",
          "name": "role",
          "type": "bytes32"
        },
        {
          "internalType": "address",
          "name": "account",
          "type": "address"
        }
      ],
      "name": "hasRole",
      "outputs": [
        {
          "internalType": "bool",
          "name": "",
          "type": "bool"
        }
      ],
      "stateMutability": "view",
      "type": "function"
    },
    {
      "inputs": [],
      "name": "nonce",
      "outputs": [
        {
          "internalType": "uint256",
          "name": "",
          "type": "uint256"
        }
      ],
      "stateMutability": "view",
      "type": "function"
    },
    {
      "inputs": [
        {
          "internalType": "bytes32",
          "name": "role",
          "type": "bytes32"
        },
        {
          "internalType": "address",
          "name": "account",
          "type": "address"
        }
      ],
      "name": "renounceRole",
      "outputs": [],
      "stateMutability": "nonpayable",
      "type": "function"
    },
    {
      "inputs": [
        {
          "internalType": "bytes32",
          "name": "role",
          "type": "bytes32"
        },
        {
          "internalType": "address",
          "name": "account",
          "type": "address"
        }
      ],
      "name": "revokeRole",
      "outputs": [],
      "stateMutability": "nonpayable",
      "type": "function"
    },
    {
      "inputs": [
        {
          "internalType": "bytes4",
          "name": "interfaceId",
          "type": "bytes4"
        }
      ],
      "name": "supportsInterface",
      "outputs": [
        {
          "internalType": "bool",
          "name": "",
          "type": "bool"
        }
      ],
      "stateMutability": "view",
      "type": "function"
    },
    {
      "inputs": [
        {
          "internalType": "address",
          "name": "_tokenAddress",
          "type": "address"
        },
        {
          "internalType": "address",
          "name": "_receiver",
          "type": "address"
        },
        {
          "internalType": "uint256",
          "name": "_amount",
          "type": "uint256"
        },
        {
          "internalType": "uint256",
          "name": "_chainIdTo",
          "type": "uint256"
        }
      ],
      "name": "send",
      "outputs": [],
      "stateMutability": "payable",
      "type": "function"
    },
    {
      "inputs": [
        {
          "internalType": "bytes32",
          "name": "_debridgeId",
          "type": "bytes32"
        },
        {
          "internalType": "address",
          "name": "_receiver",
          "type": "address"
        },
        {
          "internalType": "uint256",
          "name": "_amount",
          "type": "uint256"
        }
      ],
      "name": "claim",
      "outputs": [],
      "stateMutability": "nonpayable",
      "type": "function"
    },
    {
      "inputs": [
        {
          "internalType": "bytes32",
          "name": "_debridgeId",
          "type": "bytes32"
        },
        {
          "internalType": "address",
          "name": "_receiver",
          "type": "address"
        },
        {
          "internalType": "uint256",
          "name": "_amount",
          "type": "uint256"
        }
      ],
      "name": "burn",
      "outputs": [],
      "stateMutability": "nonpayable",
      "type": "function"
    },
    {
      "inputs": [
        {
          "internalType": "bytes32",
          "name": "_debridgeId",
          "type": "bytes32"
        },
        {
          "internalType": "address",
          "name": "_receiver",
          "type": "address"
        },
        {
          "internalType": "uint256",
          "name": "_amount",
          "type": "uint256"
        }
      ],
      "name": "mint",
      "outputs": [],
      "stateMutability": "nonpayable",
      "type": "function"
    },
    {
      "inputs": [
        {
          "internalType": "address",
          "name": "_tokenAddress",
          "type": "address"
        },
        {
          "internalType": "uint256",
          "name": "_minAmount",
          "type": "uint256"
        },
        {
          "internalType": "uint256",
          "name": "_transferFee",
          "type": "uint256"
        },
        {
          "internalType": "uint256[]",
          "name": "_supportedChainIds",
          "type": "uint256[]"
        }
      ],
      "name": "addNativelAsset",
      "outputs": [],
      "stateMutability": "nonpayable",
      "type": "function"
    },
    {
      "inputs": [
        {
          "internalType": "bytes32",
          "name": "_debridgeId",
          "type": "bytes32"
        },
        {
          "internalType": "uint256",
          "name": "_chainId",
          "type": "uint256"
        },
        {
          "internalType": "bool",
          "name": "_isSupported",
          "type": "bool"
        }
      ],
      "name": "setChainIdSupport",
      "outputs": [],
      "stateMutability": "nonpayable",
      "type": "function"
    },
    {
      "inputs": [
        {
          "internalType": "bytes32",
          "name": "_debridgeId",
          "type": "bytes32"
        },
        {
          "internalType": "uint256",
          "name": "_chainId",
          "type": "uint256"
        },
        {
          "internalType": "uint256",
          "name": "_minAmount",
          "type": "uint256"
        },
        {
          "internalType": "uint256",
          "name": "_transferFee",
          "type": "uint256"
        },
        {
          "internalType": "uint256[]",
          "name": "_supportedChainIds",
          "type": "uint256[]"
        },
        {
          "internalType": "string",
          "name": "_name",
          "type": "string"
        },
        {
          "internalType": "string",
          "name": "_symbol",
          "type": "string"
        }
      ],
      "name": "addExternalAsset",
      "outputs": [],
      "stateMutability": "nonpayable",
      "type": "function"
    },
    {
      "inputs": [
        {
          "internalType": "address",
          "name": "_aggregator",
          "type": "address"
        }
      ],
      "name": "addAggregator",
      "outputs": [],
      "stateMutability": "nonpayable",
      "type": "function"
    },
    {
      "inputs": [
        {
          "internalType": "address",
          "name": "_aggregator",
          "type": "address"
        }
      ],
      "name": "removeAggregator",
      "outputs": [],
      "stateMutability": "nonpayable",
      "type": "function"
    }
  ],
  "bytecode": "0x60806040523480156200001157600080fd5b5060405162005e0338038062005e0383398181016040528101906200003791906200044c565b8360018190555060008460006040516020016200005692919062000507565b60405160208183030381529060405280519060200120905062000087816000600154878787620000d960201b60201c565b6200009c6000801b336200021a60201b60201c565b620000ce7fb3c3f8258c2780bffb0b444bbeed42fe51cc1a89779df0a97a43a56e08602e19336200021a60201b60201c565b505050505062000719565b6000600460008881526020019081526020016000209050858160000160006101000a81548173ffffffffffffffffffffffffffffffffffffffff021916908373ffffffffffffffffffffffffffffffffffffffff1602179055508481600101819055508381600201819055508281600301819055506001816004016000600154815260200190815260200160002060006101000a81548160ff02191690831515021790555060005b825181101562000210576001826004016000858481518110620001cd577f4e487b7100000000000000000000000000000000000000000000000000000000600052603260045260246000fd5b6020026020010151815260200190815260200160002060006101000a81548160ff0219169083151502179055508080620002079062000603565b91505062000181565b5050505050505050565b6200022c82826200023060201b60201c565b5050565b6200024282826200032160201b60201c565b6200031d57600160008084815260200190815260200160002060000160008373ffffffffffffffffffffffffffffffffffffffff1673ffffffffffffffffffffffffffffffffffffffff16815260200190815260200160002060006101000a81548160ff021916908315150217905550620002c26200038b60201b60201c565b73ffffffffffffffffffffffffffffffffffffffff168173ffffffffffffffffffffffffffffffffffffffff16837f2f8788117e7eff1d82e926ec794901d17c78024a50270940304540a733656f0d60405160405180910390a45b5050565b600080600084815260200190815260200160002060000160008373ffffffffffffffffffffffffffffffffffffffff1673ffffffffffffffffffffffffffffffffffffffff16815260200190815260200160002060009054906101000a900460ff16905092915050565b600033905090565b6000620003aa620003a48462000560565b62000537565b90508083825260208201905082856020860282011115620003ca57600080fd5b60005b85811015620003fe5781620003e3888262000435565b845260208401935060208301925050600181019050620003cd565b5050509392505050565b600082601f8301126200041a57600080fd5b81516200042c84826020860162000393565b91505092915050565b6000815190506200044681620006ff565b92915050565b600080600080608085870312156200046357600080fd5b6000620004738782880162000435565b9450506020620004868782880162000435565b9350506040620004998782880162000435565b925050606085015167ffffffffffffffff811115620004b757600080fd5b620004c58782880162000408565b91505092959194509250565b620004e6620004e0826200058f565b62000651565b82525050565b62000501620004fb82620005c3565b62000679565b82525050565b6000620005158285620004ec565b602082019150620005278284620004d1565b6014820191508190509392505050565b60006200054362000556565b9050620005518282620005cd565b919050565b6000604051905090565b600067ffffffffffffffff8211156200057e576200057d620006b2565b5b602082029050602081019050919050565b60006200059c82620005a3565b9050919050565b600073ffffffffffffffffffffffffffffffffffffffff82169050919050565b6000819050919050565b620005d882620006e1565b810181811067ffffffffffffffff82111715620005fa57620005f9620006b2565b5b80604052505050565b60006200061082620005c3565b91507fffffffffffffffffffffffffffffffffffffffffffffffffffffffffffffffff82141562000646576200064562000683565b5b600182019050919050565b60006200065e8262000665565b9050919050565b60006200067282620006f2565b9050919050565b6000819050919050565b7f4e487b7100000000000000000000000000000000000000000000000000000000600052601160045260246000fd5b7f4e487b7100000000000000000000000000000000000000000000000000000000600052604160045260246000fd5b6000601f19601f8301169050919050565b60008160601b9050919050565b6200070a81620005c3565b81146200071657600080fd5b50565b6156da80620007296000396000f3fe608060405260043610620001525760003560e01c80636520b00911620000bb57806391d14854116200007957806391d14854146200047457806398e5d7e214620004b85780639a8a059214620004e6578063a217fddf1462000516578063affed0e01462000546578063d547741f14620005765762000152565b80636520b009146200038a5780637ed9db5914620003b85780638c651f1114620003e65780639003adfe1462000414578063918f867414620004445762000152565b80633225b10b11620001155780633225b10b1462000269578063346a9074146200029957806336568abe14620002c75780633dc28cf114620002f557806357cf07ca14620003155780635e35206c146200035c5762000152565b806301ffc9a714620001575780630a0e5e9a146200019b57806317bb58e314620001c9578063248a9ca314620001f75780632f2ff15d146200023b575b600080fd5b3480156200016457600080fd5b506200018360048036038101906200017d9190620020ec565b620005a4565b60405162000192919062002505565b60405180910390f35b348015620001a857600080fd5b50620001c76004803603810190620001c1919062001f9e565b62000621565b005b348015620001d657600080fd5b50620001f56004803603810190620001ef919062001e2a565b620006bc565b005b3480156200020457600080fd5b506200022360048036038101906200021d919062001edb565b62000757565b60405162000232919062002522565b60405180910390f35b3480156200024857600080fd5b5062000267600480360381019062000261919062001f07565b62000776565b005b3480156200027657600080fd5b5062000281620007e7565b60405162000290919062002522565b60405180910390f35b348015620002a657600080fd5b50620002c56004803603810190620002bf919062001f48565b6200080b565b005b348015620002d457600080fd5b50620002f36004803603810190620002ed919062001f07565b62000a40565b005b6200031360048036038101906200030d919062001dbe565b62000aca565b005b3480156200032257600080fd5b506200034160048036038101906200033b919062001edb565b62000d9f565b604051620003539493929190620024b8565b60405180910390f35b3480156200036957600080fd5b5062000388600480360381019062000382919062001ff4565b62000def565b005b3480156200039757600080fd5b50620003b66004803603810190620003b0919062001d92565b62000e99565b005b348015620003c557600080fd5b50620003e46004803603810190620003de919062001f48565b62000f19565b005b348015620003f357600080fd5b506200041260048036038101906200040c919062001d92565b620010d8565b005b3480156200042157600080fd5b506200042c62001158565b6040516200043b919062002758565b60405180910390f35b3480156200045157600080fd5b506200045c6200115e565b6040516200046b919062002758565b60405180910390f35b3480156200048157600080fd5b50620004a060048036038101906200049a919062001f07565b6200116a565b604051620004af919062002505565b60405180910390f35b348015620004c557600080fd5b50620004e46004803603810190620004de919062001f48565b620011d4565b005b348015620004f357600080fd5b50620004fe62001443565b6040516200050d919062002758565b60405180910390f35b3480156200052357600080fd5b506200052e62001449565b6040516200053d919062002522565b60405180910390f35b3480156200055357600080fd5b506200055e62001450565b6040516200056d919062002758565b60405180910390f35b3480156200058357600080fd5b50620005a260048036038101906200059c919062001f07565b62001456565b005b60007f7965db0b000000000000000000000000000000000000000000000000000000007bffffffffffffffffffffffffffffffffffffffffffffffffffffffff1916827bffffffffffffffffffffffffffffffffffffffffffffffffffffffff191614806200061a57506200061982620014c7565b5b9050919050565b620006306000801b336200116a565b62000672576040517f08c379a000000000000000000000000000000000000000000000000000000000815260040162000669906200266a565b60405180910390fd5b60006004600085815260200190815260200160002090508181600401600085815260200190815260200160002060006101000a81548160ff02191690831515021790555050505050565b620006cb6000801b336200116a565b6200070d576040517f08c379a000000000000000000000000000000000000000000000000000000000815260040162000704906200266a565b60405180910390fd5b600060015485604051602001620007269291906200241e565b60405160208183030381529060405280519060200120905062000750818660015487878762001531565b5050505050565b6000806000838152602001908152602001600020600101549050919050565b62000795620007858362000757565b6200078f62001672565b6200116a565b620007d7576040517f08c379a0000000000000000000000000000000000000000000000000000000008152600401620007ce906200259e565b60405180910390fd5b620007e382826200167a565b5050565b7fb3c3f8258c2780bffb0b444bbeed42fe51cc1a89779df0a97a43a56e08602e1981565b6000600460008581526020019081526020016000209050600154816001015414156200086e576040517f08c379a0000000000000000000000000000000000000000000000000000000008152600401620008659062002648565b60405180910390fd5b80600201548211620008b7576040517f08c379a0000000000000000000000000000000000000000000000000000000008152600401620008ae90620025c0565b60405180910390fd5b60008160000160009054906101000a900473ffffffffffffffffffffffffffffffffffffffff1690508073ffffffffffffffffffffffffffffffffffffffff166323b872dd3330866040518463ffffffff1660e01b81526004016200091f939291906200244e565b602060405180830381600087803b1580156200093a57600080fd5b505af11580156200094f573d6000803e3d6000fd5b505050506040513d601f19601f8201168201806040525081019062000975919062001eaf565b506000670de0b6b3a764000083600301548562000993919062002964565b6200099f91906200292c565b90506000811115620009d7578060026000828254620009bf9190620028cf565b925050819055508084620009d49190620029c5565b93505b7f578aa4f877c4cba40982a0b6e2e6410f5835025a1a41a2e31599513d667086f9600354858789876001015460405162000a16959493929190620027b2565b60405180910390a16003600081548092919062000a339062002afb565b9190505550505050505050565b62000a4a62001672565b73ffffffffffffffffffffffffffffffffffffffff168173ffffffffffffffffffffffffffffffffffffffff161462000aba576040517f08c379a000000000000000000000000000000000000000000000000000000000815260040162000ab19062002714565b60405180910390fd5b62000ac682826200175f565b5050565b60006001548560405160200162000ae39291906200241e565b604051602081830303815290604052805190602001209050600060046000838152602001908152602001600020905080600401600084815260200190815260200160002060009054906101000a900460ff1662000b77576040517f08c379a000000000000000000000000000000000000000000000000000000000815260040162000b6e90620026ae565b60405180910390fd5b806004016000600154815260200190815260200160002060009054906101000a900460ff1662000bde576040517f08c379a000000000000000000000000000000000000000000000000000000000815260040162000bd590620026ae565b60405180910390fd5b8060020154841162000c27576040517f08c379a000000000000000000000000000000000000000000000000000000000815260040162000c1e9062002604565b60405180910390fd5b600073ffffffffffffffffffffffffffffffffffffffff168673ffffffffffffffffffffffffffffffffffffffff16141562000ca85734841462000ca2576040517f08c379a000000000000000000000000000000000000000000000000000000000815260040162000c9990620026f2565b60405180910390fd5b62000cd8565b62000cd73330868973ffffffffffffffffffffffffffffffffffffffff1662001845909392919063ffffffff16565b5b6000670de0b6b3a764000082600301548662000cf5919062002964565b62000d0191906200292c565b9050600081111562000d3957806002600082825462000d219190620028cf565b92505081905550808562000d369190620029c5565b94505b7f6ace0c34c6bd77582a31959f7b3e9372dd69daa51e1fa0f597380992815a6c1e6003548688868860405162000d74959493929190620027b2565b60405180910390a16003600081548092919062000d919062002afb565b919050555050505050505050565b60046020528060005260406000206000915090508060000160009054906101000a900473ffffffffffffffffffffffffffffffffffffffff16908060010154908060020154908060030154905084565b62000dfe6000801b336200116a565b62000e40576040517f08c379a000000000000000000000000000000000000000000000000000000000815260040162000e37906200266a565b60405180910390fd5b6000828260405162000e529062001be6565b62000e5f92919062002563565b604051809103906000f08015801562000e7c573d6000803e3d6000fd5b50905062000e8f88828989898962001531565b5050505050505050565b62000ea86000801b336200116a565b62000eea576040517f08c379a000000000000000000000000000000000000000000000000000000000815260040162000ee1906200266a565b60405180910390fd5b62000f167fb3c3f8258c2780bffb0b444bbeed42fe51cc1a89779df0a97a43a56e08602e198262000776565b50565b62000f457fb3c3f8258c2780bffb0b444bbeed42fe51cc1a89779df0a97a43a56e08602e19336200116a565b62000f87576040517f08c379a000000000000000000000000000000000000000000000000000000000815260040162000f7e9062002736565b60405180910390fd5b60006004600085815260200190815260200160002090508060000160009054906101000a900473ffffffffffffffffffffffffffffffffffffffff1673ffffffffffffffffffffffffffffffffffffffff166340c10f1984846040518363ffffffff1660e01b815260040162000fff9291906200248b565b600060405180830381600087803b1580156200101a57600080fd5b505af11580156200102f573d6000803e3d6000fd5b505050506000670de0b6b3a764000082600301548462001050919062002964565b6200105c91906200292c565b90506000811115620010945780600260008282546200107c9190620028cf565b925050819055508083620010919190620029c5565b92505b7f735d687607ce9e35b73121f5b238c4cd2854db103741adba51d670bb706051cc838587604051620010c99392919062002775565b60405180910390a15050505050565b620010e76000801b336200116a565b62001129576040517f08c379a000000000000000000000000000000000000000000000000000000000815260040162001120906200266a565b60405180910390fd5b620011557fb3c3f8258c2780bffb0b444bbeed42fe51cc1a89779df0a97a43a56e08602e198262001456565b50565b60025481565b670de0b6b3a764000081565b600080600084815260200190815260200160002060000160008373ffffffffffffffffffffffffffffffffffffffff1673ffffffffffffffffffffffffffffffffffffffff16815260200190815260200160002060009054906101000a900460ff16905092915050565b620012007fb3c3f8258c2780bffb0b444bbeed42fe51cc1a89779df0a97a43a56e08602e19336200116a565b62001242576040517f08c379a0000000000000000000000000000000000000000000000000000000008152600401620012399062002736565b60405180910390fd5b6000600460008581526020019081526020016000209050600154816001015414620012a4576040517f08c379a00000000000000000000000000000000000000000000000000000000081526004016200129b90620026ae565b60405180910390fd5b600073ffffffffffffffffffffffffffffffffffffffff168160000160009054906101000a900473ffffffffffffffffffffffffffffffffffffffff1673ffffffffffffffffffffffffffffffffffffffff1614156200134c578273ffffffffffffffffffffffffffffffffffffffff166108fc839081150290604051600060405180830381858888f1935050505015801562001345573d6000803e3d6000fd5b506200139e565b6200139d83838360000160009054906101000a900473ffffffffffffffffffffffffffffffffffffffff1673ffffffffffffffffffffffffffffffffffffffff16620018d29092919063ffffffff16565b5b6000670de0b6b3a7640000826003015484620013bb919062002964565b620013c791906200292c565b90506000811115620013ff578060026000828254620013e79190620028cf565b925050819055508083620013fc9190620029c5565b92505b7fbcb8b73e5a89971ee294cc3d2f51a084375b679f88047211b28c5344acb53df5838587604051620014349392919062002775565b60405180910390a15050505050565b60015481565b6000801b81565b60035481565b62001475620014658362000757565b6200146f62001672565b6200116a565b620014b7576040517f08c379a0000000000000000000000000000000000000000000000000000000008152600401620014ae9062002626565b60405180910390fd5b620014c382826200175f565b5050565b60007f01ffc9a7000000000000000000000000000000000000000000000000000000007bffffffffffffffffffffffffffffffffffffffffffffffffffffffff1916827bffffffffffffffffffffffffffffffffffffffffffffffffffffffff1916149050919050565b6000600460008881526020019081526020016000209050858160000160006101000a81548173ffffffffffffffffffffffffffffffffffffffff021916908373ffffffffffffffffffffffffffffffffffffffff1602179055508481600101819055508381600201819055508281600301819055506001816004016000600154815260200190815260200160002060006101000a81548160ff02191690831515021790555060005b82518110156200166857600182600401600085848151811062001625577f4e487b7100000000000000000000000000000000000000000000000000000000600052603260045260246000fd5b6020026020010151815260200190815260200160002060006101000a81548160ff02191690831515021790555080806200165f9062002afb565b915050620015d9565b5050505050505050565b600033905090565b6200168682826200116a565b6200175b57600160008084815260200190815260200160002060000160008373ffffffffffffffffffffffffffffffffffffffff1673ffffffffffffffffffffffffffffffffffffffff16815260200190815260200160002060006101000a81548160ff0219169083151502179055506200170062001672565b73ffffffffffffffffffffffffffffffffffffffff168173ffffffffffffffffffffffffffffffffffffffff16837f2f8788117e7eff1d82e926ec794901d17c78024a50270940304540a733656f0d60405160405180910390a45b5050565b6200176b82826200116a565b156200184157600080600084815260200190815260200160002060000160008373ffffffffffffffffffffffffffffffffffffffff1673ffffffffffffffffffffffffffffffffffffffff16815260200190815260200160002060006101000a81548160ff021916908315150217905550620017e662001672565b73ffffffffffffffffffffffffffffffffffffffff168173ffffffffffffffffffffffffffffffffffffffff16837ff6391f5c32d9c69d2a47ea670b442974b53935d1edc7fd64eb21e047a839171b60405160405180910390a45b5050565b620018cc846323b872dd60e01b85858560405160240162001869939291906200244e565b604051602081830303815290604052907bffffffffffffffffffffffffffffffffffffffffffffffffffffffff19166020820180517bffffffffffffffffffffffffffffffffffffffffffffffffffffffff83818316178352505050506200195c565b50505050565b620019578363a9059cbb60e01b8484604051602401620018f49291906200248b565b604051602081830303815290604052907bffffffffffffffffffffffffffffffffffffffffffffffffffffffff19166020820180517bffffffffffffffffffffffffffffffffffffffffffffffffffffffff83818316178352505050506200195c565b505050565b6000620019c0826040518060400160405280602081526020017f5361666545524332303a206c6f772d6c6576656c2063616c6c206661696c65648152508573ffffffffffffffffffffffffffffffffffffffff1662001a2b9092919063ffffffff16565b905060008151111562001a265780806020019051810190620019e3919062001eaf565b62001a25576040517f08c379a000000000000000000000000000000000000000000000000000000000815260040162001a1c90620026d0565b60405180910390fd5b5b505050565b606062001a3c848460008562001a45565b90509392505050565b60608247101562001a8d576040517f08c379a000000000000000000000000000000000000000000000000000000000815260040162001a8490620025e2565b60405180910390fd5b62001a988562001b67565b62001ada576040517f08c379a000000000000000000000000000000000000000000000000000000000815260040162001ad1906200268c565b60405180910390fd5b6000808673ffffffffffffffffffffffffffffffffffffffff16858760405162001b05919062002405565b60006040518083038185875af1925050503d806000811462001b44576040519150601f19603f3d011682016040523d82523d6000602084013e62001b49565b606091505b509150915062001b5b82828662001b7a565b92505050949350505050565b600080823b905060008111915050919050565b6060831562001b8c5782905062001bdf565b60008351111562001ba05782518084602001fd5b816040517f08c379a000000000000000000000000000000000000000000000000000000000815260040162001bd691906200253f565b60405180910390fd5b9392505050565b6127298062002f7c83390190565b600062001c0b62001c058462002838565b6200280f565b9050808382526020820190508285602086028201111562001c2b57600080fd5b60005b8581101562001c5f578162001c44888262001d7b565b84526020840193506020830192505060018101905062001c2e565b5050509392505050565b600062001c8062001c7a8462002867565b6200280f565b90508281526020810184848401111562001c9957600080fd5b62001ca684828562002a80565b509392505050565b60008135905062001cbf8162002ef9565b92915050565b600082601f83011262001cd757600080fd5b813562001ce984826020860162001bf4565b91505092915050565b60008135905062001d038162002f13565b92915050565b60008151905062001d1a8162002f13565b92915050565b60008135905062001d318162002f2d565b92915050565b60008135905062001d488162002f47565b92915050565b600082601f83011262001d6057600080fd5b813562001d7284826020860162001c69565b91505092915050565b60008135905062001d8c8162002f61565b92915050565b60006020828403121562001da557600080fd5b600062001db58482850162001cae565b91505092915050565b6000806000806080858703121562001dd557600080fd5b600062001de58782880162001cae565b945050602062001df88782880162001cae565b935050604062001e0b8782880162001d7b565b925050606062001e1e8782880162001d7b565b91505092959194509250565b6000806000806080858703121562001e4157600080fd5b600062001e518782880162001cae565b945050602062001e648782880162001d7b565b935050604062001e778782880162001d7b565b925050606085013567ffffffffffffffff81111562001e9557600080fd5b62001ea38782880162001cc5565b91505092959194509250565b60006020828403121562001ec257600080fd5b600062001ed28482850162001d09565b91505092915050565b60006020828403121562001eee57600080fd5b600062001efe8482850162001d20565b91505092915050565b6000806040838503121562001f1b57600080fd5b600062001f2b8582860162001d20565b925050602062001f3e8582860162001cae565b9150509250929050565b60008060006060848603121562001f5e57600080fd5b600062001f6e8682870162001d20565b935050602062001f818682870162001cae565b925050604062001f948682870162001d7b565b9150509250925092565b60008060006060848603121562001fb457600080fd5b600062001fc48682870162001d20565b935050602062001fd78682870162001d7b565b925050604062001fea8682870162001cf2565b9150509250925092565b600080600080600080600060e0888a0312156200201057600080fd5b6000620020208a828b0162001d20565b9750506020620020338a828b0162001d7b565b9650506040620020468a828b0162001d7b565b9550506060620020598a828b0162001d7b565b945050608088013567ffffffffffffffff8111156200207757600080fd5b620020858a828b0162001cc5565b93505060a088013567ffffffffffffffff811115620020a357600080fd5b620020b18a828b0162001d4e565b92505060c088013567ffffffffffffffff811115620020cf57600080fd5b620020dd8a828b0162001d4e565b91505092959891949750929550565b600060208284031215620020ff57600080fd5b60006200210f8482850162001d37565b91505092915050565b620021238162002a00565b82525050565b6200213e620021388262002a00565b62002b49565b82525050565b6200214f8162002a14565b82525050565b620021608162002a20565b82525050565b600062002173826200289d565b6200217f8185620028b3565b93506200219181856020860162002a8f565b80840191505092915050565b6000620021aa82620028a8565b620021b68185620028be565b9350620021c881856020860162002a8f565b620021d38162002c08565b840191505092915050565b6000620021ed602f83620028be565b9150620021fa8262002c26565b604082019050919050565b600062002214601483620028be565b9150620022218262002c75565b602082019050919050565b60006200223b602683620028be565b9150620022488262002c9e565b604082019050919050565b600062002262601483620028be565b91506200226f8262002ced565b602082019050919050565b600062002289603083620028be565b9150620022968262002d16565b604082019050919050565b6000620022b0601383620028be565b9150620022bd8262002d65565b602082019050919050565b6000620022d7601383620028be565b9150620022e48262002d8e565b602082019050919050565b6000620022fe601d83620028be565b91506200230b8262002db7565b602082019050919050565b600062002325601f83620028be565b9150620023328262002de0565b602082019050919050565b60006200234c602a83620028be565b9150620023598262002e09565b604082019050919050565b600062002373601583620028be565b9150620023808262002e58565b602082019050919050565b60006200239a602f83620028be565b9150620023a78262002e81565b604082019050919050565b6000620023c1601883620028be565b9150620023ce8262002ed0565b602082019050919050565b620023e48162002a76565b82525050565b620023ff620023f98262002a76565b62002b71565b82525050565b600062002413828462002166565b915081905092915050565b60006200242c8285620023ea565b6020820191506200243e828462002129565b6014820191508190509392505050565b600060608201905062002465600083018662002118565b62002474602083018562002118565b620024836040830184620023d9565b949350505050565b6000604082019050620024a2600083018562002118565b620024b16020830184620023d9565b9392505050565b6000608082019050620024cf600083018762002118565b620024de6020830186620023d9565b620024ed6040830185620023d9565b620024fc6060830184620023d9565b95945050505050565b60006020820190506200251c600083018462002144565b92915050565b600060208201905062002539600083018462002155565b92915050565b600060208201905081810360008301526200255b81846200219d565b905092915050565b600060408201905081810360008301526200257f81856200219d565b905081810360208301526200259581846200219d565b90509392505050565b60006020820190508181036000830152620025b981620021de565b9050919050565b60006020820190508181036000830152620025db8162002205565b9050919050565b60006020820190508181036000830152620025fd816200222c565b9050919050565b600060208201905081810360008301526200261f8162002253565b9050919050565b6000602082019050818103600083015262002641816200227a565b9050919050565b600060208201905081810360008301526200266381620022a1565b9050919050565b600060208201905081810360008301526200268581620022c8565b9050919050565b60006020820190508181036000830152620026a781620022ef565b9050919050565b60006020820190508181036000830152620026c98162002316565b9050919050565b60006020820190508181036000830152620026eb816200233d565b9050919050565b600060208201905081810360008301526200270d8162002364565b9050919050565b600060208201905081810360008301526200272f816200238b565b9050919050565b600060208201905081810360008301526200275181620023b2565b9050919050565b60006020820190506200276f6000830184620023d9565b92915050565b60006060820190506200278c6000830186620023d9565b6200279b602083018562002118565b620027aa604083018462002155565b949350505050565b600060a082019050620027c96000830188620023d9565b620027d86020830187620023d9565b620027e7604083018662002118565b620027f6606083018562002155565b620028056080830184620023d9565b9695505050505050565b60006200281b6200282e565b905062002829828262002ac5565b919050565b6000604051905090565b600067ffffffffffffffff82111562002856576200285562002bd9565b5b602082029050602081019050919050565b600067ffffffffffffffff82111562002885576200288462002bd9565b5b620028908262002c08565b9050602081019050919050565b600081519050919050565b600081519050919050565b600081905092915050565b600082825260208201905092915050565b6000620028dc8262002a76565b9150620028e98362002a76565b9250827fffffffffffffffffffffffffffffffffffffffffffffffffffffffffffffffff0382111562002921576200292062002b7b565b5b828201905092915050565b6000620029398262002a76565b9150620029468362002a76565b92508262002959576200295862002baa565b5b828204905092915050565b6000620029718262002a76565b91506200297e8362002a76565b9250817fffffffffffffffffffffffffffffffffffffffffffffffffffffffffffffffff0483118215151615620029ba57620029b962002b7b565b5b828202905092915050565b6000620029d28262002a76565b9150620029df8362002a76565b925082821015620029f557620029f462002b7b565b5b828203905092915050565b600062002a0d8262002a56565b9050919050565b60008115159050919050565b6000819050919050565b60007fffffffff0000000000000000000000000000000000000000000000000000000082169050919050565b600073ffffffffffffffffffffffffffffffffffffffff82169050919050565b6000819050919050565b82818337600083830152505050565b60005b8381101562002aaf57808201518184015260208101905062002a92565b8381111562002abf576000848401525b50505050565b62002ad08262002c08565b810181811067ffffffffffffffff8211171562002af25762002af162002bd9565b5b80604052505050565b600062002b088262002a76565b91507fffffffffffffffffffffffffffffffffffffffffffffffffffffffffffffffff82141562002b3e5762002b3d62002b7b565b5b600182019050919050565b600062002b568262002b5d565b9050919050565b600062002b6a8262002c19565b9050919050565b6000819050919050565b7f4e487b7100000000000000000000000000000000000000000000000000000000600052601160045260246000fd5b7f4e487b7100000000000000000000000000000000000000000000000000000000600052601260045260246000fd5b7f4e487b7100000000000000000000000000000000000000000000000000000000600052604160045260246000fd5b6000601f19601f8301169050919050565b60008160601b9050919050565b7f416363657373436f6e74726f6c3a2073656e646572206d75737420626520616e60008201527f2061646d696e20746f206772616e740000000000000000000000000000000000602082015250565b7f6275726e3a20616d6f756e7420746f6f206c6f77000000000000000000000000600082015250565b7f416464726573733a20696e73756666696369656e742062616c616e636520666f60008201527f722063616c6c0000000000000000000000000000000000000000000000000000602082015250565b7f73656e643a20616d6f756e7420746f6f206c6f77000000000000000000000000600082015250565b7f416363657373436f6e74726f6c3a2073656e646572206d75737420626520616e60008201527f2061646d696e20746f207265766f6b6500000000000000000000000000000000602082015250565b7f6275726e3a2077726f6e6720636861696e496400000000000000000000000000600082015250565b7f6f6e6c7941646d696e3a2062616420726f6c6500000000000000000000000000600082015250565b7f416464726573733a2063616c6c20746f206e6f6e2d636f6e7472616374000000600082015250565b7f73656e643a2077726f6e67207461726765642074617267657420636861696e00600082015250565b7f5361666545524332303a204552433230206f7065726174696f6e20646964206e60008201527f6f74207375636365656400000000000000000000000000000000000000000000602082015250565b7f73656e643a20616d6f756e74206d69736d617463680000000000000000000000600082015250565b7f416363657373436f6e74726f6c3a2063616e206f6e6c792072656e6f756e636560008201527f20726f6c657320666f722073656c660000000000000000000000000000000000602082015250565b7f6f6e6c7941676772656761746f723a2062616420726f6c650000000000000000600082015250565b62002f048162002a00565b811462002f1057600080fd5b50565b62002f1e8162002a14565b811462002f2a57600080fd5b50565b62002f388162002a20565b811462002f4457600080fd5b50565b62002f528162002a2a565b811462002f5e57600080fd5b50565b62002f6c8162002a76565b811462002f7857600080fd5b5056fe60806040523480156200001157600080fd5b506040516200272938038062002729833981810160405281019062000037919062000197565b818181600490805190602001906200005192919062000075565b5080600590805190602001906200006a92919062000075565b50505050506200037a565b82805462000083906200029f565b90600052602060002090601f016020900481019282620000a75760008555620000f3565b82601f10620000c257805160ff1916838001178555620000f3565b82800160010185558215620000f3579182015b82811115620000f2578251825591602001919060010190620000d5565b5b50905062000102919062000106565b5090565b5b808211156200012157600081600090555060010162000107565b5090565b60006200013c620001368462000233565b6200020a565b9050828152602081018484840111156200015557600080fd5b6200016284828562000269565b509392505050565b600082601f8301126200017c57600080fd5b81516200018e84826020860162000125565b91505092915050565b60008060408385031215620001ab57600080fd5b600083015167ffffffffffffffff811115620001c657600080fd5b620001d4858286016200016a565b925050602083015167ffffffffffffffff811115620001f257600080fd5b62000200858286016200016a565b9150509250929050565b60006200021662000229565b9050620002248282620002d5565b919050565b6000604051905090565b600067ffffffffffffffff8211156200025157620002506200033a565b5b6200025c8262000369565b9050602081019050919050565b60005b83811015620002895780820151818401526020810190506200026c565b8381111562000299576000848401525b50505050565b60006002820490506001821680620002b857607f821691505b60208210811415620002cf57620002ce6200030b565b5b50919050565b620002e08262000369565b810181811067ffffffffffffffff821117156200030257620003016200033a565b5b80604052505050565b7f4e487b7100000000000000000000000000000000000000000000000000000000600052602260045260246000fd5b7f4e487b7100000000000000000000000000000000000000000000000000000000600052604160045260246000fd5b6000601f19601f8301169050919050565b61239f806200038a6000396000f3fe608060405234801561001057600080fd5b50600436106101375760003560e01c806340c10f19116100b8578063a217fddf1161007c578063a217fddf14610374578063a457c2d714610392578063a9059cbb146103c2578063d5391393146103f2578063d547741f14610410578063dd62ed3e1461042c57610137565b806340c10f19146102be57806342966c68146102da57806370a08231146102f657806391d148541461032657806395d89b411461035657610137565b8063248a9ca3116100ff578063248a9ca3146102085780632f2ff15d14610238578063313ce5671461025457806336568abe14610272578063395093511461028e57610137565b806301ffc9a71461013c57806306fdde031461016c578063095ea7b31461018a57806318160ddd146101ba57806323b872dd146101d8575b600080fd5b61015660048036038101906101519190611803565b61045c565b6040516101639190611ab4565b60405180910390f35b6101746104d6565b6040516101819190611aea565b60405180910390f35b6101a4600480360381019061019f9190611762565b610568565b6040516101b19190611ab4565b60405180910390f35b6101c2610586565b6040516101cf9190611ccc565b60405180910390f35b6101f260048036038101906101ed9190611713565b610590565b6040516101ff9190611ab4565b60405180910390f35b610222600480360381019061021d919061179e565b610691565b60405161022f9190611acf565b60405180910390f35b610252600480360381019061024d91906117c7565b6106b0565b005b61025c610716565b6040516102699190611ce7565b60405180910390f35b61028c600480360381019061028791906117c7565b61071f565b005b6102a860048036038101906102a39190611762565b6107a2565b6040516102b59190611ab4565b60405180910390f35b6102d860048036038101906102d39190611762565b61084e565b005b6102f460048036038101906102ef919061182c565b6108c5565b005b610310600480360381019061030b91906116ae565b61093b565b60405161031d9190611ccc565b60405180910390f35b610340600480360381019061033b91906117c7565b610984565b60405161034d9190611ab4565b60405180910390f35b61035e6109ee565b60405161036b9190611aea565b60405180910390f35b61037c610a80565b6040516103899190611acf565b60405180910390f35b6103ac60048036038101906103a79190611762565b610a87565b6040516103b99190611ab4565b60405180910390f35b6103dc60048036038101906103d79190611762565b610b7b565b6040516103e99190611ab4565b60405180910390f35b6103fa610b99565b6040516104079190611acf565b60405180910390f35b61042a600480360381019061042591906117c7565b610bbd565b005b610446600480360381019061044191906116d7565b610c23565b6040516104539190611ccc565b60405180910390f35b60007f7965db0b000000000000000000000000000000000000000000000000000000007bffffffffffffffffffffffffffffffffffffffffffffffffffffffff1916827bffffffffffffffffffffffffffffffffffffffffffffffffffffffff191614806104cf57506104ce82610caa565b5b9050919050565b6060600480546104e590611e66565b80601f016020809104026020016040519081016040528092919081815260200182805461051190611e66565b801561055e5780601f106105335761010080835404028352916020019161055e565b820191906000526020600020905b81548152906001019060200180831161054157829003601f168201915b5050505050905090565b600061057c610575610d14565b8484610d1c565b6001905092915050565b6000600354905090565b600061059d848484610ee7565b6000600260008673ffffffffffffffffffffffffffffffffffffffff1673ffffffffffffffffffffffffffffffffffffffff16815260200190815260200160002060006105e8610d14565b73ffffffffffffffffffffffffffffffffffffffff1673ffffffffffffffffffffffffffffffffffffffff16815260200190815260200160002054905082811015610668576040517f08c379a000000000000000000000000000000000000000000000000000000000815260040161065f90611bcc565b60405180910390fd5b61068585610674610d14565b85846106809190611d74565b610d1c565b60019150509392505050565b6000806000838152602001908152602001600020600101549050919050565b6106c96106bc83610691565b6106c4610d14565b610984565b610708576040517f08c379a00000000000000000000000000000000000000000000000000000000081526004016106ff90611b2c565b60405180910390fd5b6107128282611169565b5050565b60006012905090565b610727610d14565b73ffffffffffffffffffffffffffffffffffffffff168173ffffffffffffffffffffffffffffffffffffffff1614610794576040517f08c379a000000000000000000000000000000000000000000000000000000000815260040161078b90611c6c565b60405180910390fd5b61079e8282611249565b5050565b60006108446107af610d14565b8484600260006107bd610d14565b73ffffffffffffffffffffffffffffffffffffffff1673ffffffffffffffffffffffffffffffffffffffff16815260200190815260200160002060008873ffffffffffffffffffffffffffffffffffffffff1673ffffffffffffffffffffffffffffffffffffffff1681526020019081526020016000205461083f9190611d1e565b610d1c565b6001905092915050565b6108787f9f2df0fed2c77648de5860a4cc508cd0818c85b8b8a1ab4ceeef8d981c8956a633610984565b6108b7576040517f08c379a00000000000000000000000000000000000000000000000000000000081526004016108ae90611c8c565b60405180910390fd5b6108c1828261132a565b5050565b6108ef7f9f2df0fed2c77648de5860a4cc508cd0818c85b8b8a1ab4ceeef8d981c8956a633610984565b61092e576040517f08c379a000000000000000000000000000000000000000000000000000000000815260040161092590611c8c565b60405180910390fd5b610938338261147f565b50565b6000600160008373ffffffffffffffffffffffffffffffffffffffff1673ffffffffffffffffffffffffffffffffffffffff168152602001908152602001600020549050919050565b600080600084815260200190815260200160002060000160008373ffffffffffffffffffffffffffffffffffffffff1673ffffffffffffffffffffffffffffffffffffffff16815260200190815260200160002060009054906101000a900460ff16905092915050565b6060600580546109fd90611e66565b80601f0160208091040260200160405190810160405280929190818152602001828054610a2990611e66565b8015610a765780601f10610a4b57610100808354040283529160200191610a76565b820191906000526020600020905b815481529060010190602001808311610a5957829003601f168201915b5050505050905090565b6000801b81565b60008060026000610a96610d14565b73ffffffffffffffffffffffffffffffffffffffff1673ffffffffffffffffffffffffffffffffffffffff16815260200190815260200160002060008573ffffffffffffffffffffffffffffffffffffffff1673ffffffffffffffffffffffffffffffffffffffff16815260200190815260200160002054905082811015610b53576040517f08c379a0000000000000000000000000000000000000000000000000000000008152600401610b4a90611c4c565b60405180910390fd5b610b70610b5e610d14565b858584610b6b9190611d74565b610d1c565b600191505092915050565b6000610b8f610b88610d14565b8484610ee7565b6001905092915050565b7f9f2df0fed2c77648de5860a4cc508cd0818c85b8b8a1ab4ceeef8d981c8956a681565b610bd6610bc983610691565b610bd1610d14565b610984565b610c15576040517f08c379a0000000000000000000000000000000000000000000000000000000008152600401610c0c90611bac565b60405180910390fd5b610c1f8282611249565b5050565b6000600260008473ffffffffffffffffffffffffffffffffffffffff1673ffffffffffffffffffffffffffffffffffffffff16815260200190815260200160002060008373ffffffffffffffffffffffffffffffffffffffff1673ffffffffffffffffffffffffffffffffffffffff16815260200190815260200160002054905092915050565b60007f01ffc9a7000000000000000000000000000000000000000000000000000000007bffffffffffffffffffffffffffffffffffffffffffffffffffffffff1916827bffffffffffffffffffffffffffffffffffffffffffffffffffffffff1916149050919050565b600033905090565b600073ffffffffffffffffffffffffffffffffffffffff168373ffffffffffffffffffffffffffffffffffffffff161415610d8c576040517f08c379a0000000000000000000000000000000000000000000000000000000008152600401610d8390611c2c565b60405180910390fd5b600073ffffffffffffffffffffffffffffffffffffffff168273ffffffffffffffffffffffffffffffffffffffff161415610dfc576040517f08c379a0000000000000000000000000000000000000000000000000000000008152600401610df390611b6c565b60405180910390fd5b80600260008573ffffffffffffffffffffffffffffffffffffffff1673ffffffffffffffffffffffffffffffffffffffff16815260200190815260200160002060008473ffffffffffffffffffffffffffffffffffffffff1673ffffffffffffffffffffffffffffffffffffffff168152602001908152602001600020819055508173ffffffffffffffffffffffffffffffffffffffff168373ffffffffffffffffffffffffffffffffffffffff167f8c5be1e5ebec7d5bd14f71427d1e84f3dd0314c0f7b2291e5b200ac8c7c3b92583604051610eda9190611ccc565b60405180910390a3505050565b600073ffffffffffffffffffffffffffffffffffffffff168373ffffffffffffffffffffffffffffffffffffffff161415610f57576040517f08c379a0000000000000000000000000000000000000000000000000000000008152600401610f4e90611c0c565b60405180910390fd5b600073ffffffffffffffffffffffffffffffffffffffff168273ffffffffffffffffffffffffffffffffffffffff161415610fc7576040517f08c379a0000000000000000000000000000000000000000000000000000000008152600401610fbe90611b0c565b60405180910390fd5b610fd2838383611655565b6000600160008573ffffffffffffffffffffffffffffffffffffffff1673ffffffffffffffffffffffffffffffffffffffff16815260200190815260200160002054905081811015611059576040517f08c379a000000000000000000000000000000000000000000000000000000000815260040161105090611b8c565b60405180910390fd5b81816110659190611d74565b600160008673ffffffffffffffffffffffffffffffffffffffff1673ffffffffffffffffffffffffffffffffffffffff1681526020019081526020016000208190555081600160008573ffffffffffffffffffffffffffffffffffffffff1673ffffffffffffffffffffffffffffffffffffffff16815260200190815260200160002060008282546110f79190611d1e565b925050819055508273ffffffffffffffffffffffffffffffffffffffff168473ffffffffffffffffffffffffffffffffffffffff167fddf252ad1be2c89b69c2b068fc378daa952ba7f163c4a11628f55a4df523b3ef8460405161115b9190611ccc565b60405180910390a350505050565b6111738282610984565b61124557600160008084815260200190815260200160002060000160008373ffffffffffffffffffffffffffffffffffffffff1673ffffffffffffffffffffffffffffffffffffffff16815260200190815260200160002060006101000a81548160ff0219169083151502179055506111ea610d14565b73ffffffffffffffffffffffffffffffffffffffff168173ffffffffffffffffffffffffffffffffffffffff16837f2f8788117e7eff1d82e926ec794901d17c78024a50270940304540a733656f0d60405160405180910390a45b5050565b6112538282610984565b1561132657600080600084815260200190815260200160002060000160008373ffffffffffffffffffffffffffffffffffffffff1673ffffffffffffffffffffffffffffffffffffffff16815260200190815260200160002060006101000a81548160ff0219169083151502179055506112cb610d14565b73ffffffffffffffffffffffffffffffffffffffff168173ffffffffffffffffffffffffffffffffffffffff16837ff6391f5c32d9c69d2a47ea670b442974b53935d1edc7fd64eb21e047a839171b60405160405180910390a45b5050565b600073ffffffffffffffffffffffffffffffffffffffff168273ffffffffffffffffffffffffffffffffffffffff16141561139a576040517f08c379a000000000000000000000000000000000000000000000000000000000815260040161139190611cac565b60405180910390fd5b6113a660008383611655565b80600360008282546113b89190611d1e565b9250508190555080600160008473ffffffffffffffffffffffffffffffffffffffff1673ffffffffffffffffffffffffffffffffffffffff168152602001908152602001600020600082825461140e9190611d1e565b925050819055508173ffffffffffffffffffffffffffffffffffffffff16600073ffffffffffffffffffffffffffffffffffffffff167fddf252ad1be2c89b69c2b068fc378daa952ba7f163c4a11628f55a4df523b3ef836040516114739190611ccc565b60405180910390a35050565b600073ffffffffffffffffffffffffffffffffffffffff168273ffffffffffffffffffffffffffffffffffffffff1614156114ef576040517f08c379a00000000000000000000000000000000000000000000000000000000081526004016114e690611bec565b60405180910390fd5b6114fb82600083611655565b6000600160008473ffffffffffffffffffffffffffffffffffffffff1673ffffffffffffffffffffffffffffffffffffffff16815260200190815260200160002054905081811015611582576040517f08c379a000000000000000000000000000000000000000000000000000000000815260040161157990611b4c565b60405180910390fd5b818161158e9190611d74565b600160008573ffffffffffffffffffffffffffffffffffffffff1673ffffffffffffffffffffffffffffffffffffffff1681526020019081526020016000208190555081600360008282546115e39190611d74565b92505081905550600073ffffffffffffffffffffffffffffffffffffffff168373ffffffffffffffffffffffffffffffffffffffff167fddf252ad1be2c89b69c2b068fc378daa952ba7f163c4a11628f55a4df523b3ef846040516116489190611ccc565b60405180910390a3505050565b505050565b6000813590506116698161230d565b92915050565b60008135905061167e81612324565b92915050565b6000813590506116938161233b565b92915050565b6000813590506116a881612352565b92915050565b6000602082840312156116c057600080fd5b60006116ce8482850161165a565b91505092915050565b600080604083850312156116ea57600080fd5b60006116f88582860161165a565b92505060206117098582860161165a565b9150509250929050565b60008060006060848603121561172857600080fd5b60006117368682870161165a565b93505060206117478682870161165a565b925050604061175886828701611699565b9150509250925092565b6000806040838503121561177557600080fd5b60006117838582860161165a565b925050602061179485828601611699565b9150509250929050565b6000602082840312156117b057600080fd5b60006117be8482850161166f565b91505092915050565b600080604083850312156117da57600080fd5b60006117e88582860161166f565b92505060206117f98582860161165a565b9150509250929050565b60006020828403121561181557600080fd5b600061182384828501611684565b91505092915050565b60006020828403121561183e57600080fd5b600061184c84828501611699565b91505092915050565b61185e81611dba565b82525050565b61186d81611dc6565b82525050565b600061187e82611d02565b6118888185611d0d565b9350611898818560208601611e33565b6118a181611ef6565b840191505092915050565b60006118b9602383611d0d565b91506118c482611f07565b604082019050919050565b60006118dc602f83611d0d565b91506118e782611f56565b604082019050919050565b60006118ff602283611d0d565b915061190a82611fa5565b604082019050919050565b6000611922602283611d0d565b915061192d82611ff4565b604082019050919050565b6000611945602683611d0d565b915061195082612043565b604082019050919050565b6000611968603083611d0d565b915061197382612092565b604082019050919050565b600061198b602883611d0d565b9150611996826120e1565b604082019050919050565b60006119ae602183611d0d565b91506119b982612130565b604082019050919050565b60006119d1602583611d0d565b91506119dc8261217f565b604082019050919050565b60006119f4602483611d0d565b91506119ff826121ce565b604082019050919050565b6000611a17602583611d0d565b9150611a228261221d565b604082019050919050565b6000611a3a602f83611d0d565b9150611a458261226c565b604082019050919050565b6000611a5d601883611d0d565b9150611a68826122bb565b602082019050919050565b6000611a80601f83611d0d565b9150611a8b826122e4565b602082019050919050565b611a9f81611e1c565b82525050565b611aae81611e26565b82525050565b6000602082019050611ac96000830184611855565b92915050565b6000602082019050611ae46000830184611864565b92915050565b60006020820190508181036000830152611b048184611873565b905092915050565b60006020820190508181036000830152611b25816118ac565b9050919050565b60006020820190508181036000830152611b45816118cf565b9050919050565b60006020820190508181036000830152611b65816118f2565b9050919050565b60006020820190508181036000830152611b8581611915565b9050919050565b60006020820190508181036000830152611ba581611938565b9050919050565b60006020820190508181036000830152611bc58161195b565b9050919050565b60006020820190508181036000830152611be58161197e565b9050919050565b60006020820190508181036000830152611c05816119a1565b9050919050565b60006020820190508181036000830152611c25816119c4565b9050919050565b60006020820190508181036000830152611c45816119e7565b9050919050565b60006020820190508181036000830152611c6581611a0a565b9050919050565b60006020820190508181036000830152611c8581611a2d565b9050919050565b60006020820190508181036000830152611ca581611a50565b9050919050565b60006020820190508181036000830152611cc581611a73565b9050919050565b6000602082019050611ce16000830184611a96565b92915050565b6000602082019050611cfc6000830184611aa5565b92915050565b600081519050919050565b600082825260208201905092915050565b6000611d2982611e1c565b9150611d3483611e1c565b9250827fffffffffffffffffffffffffffffffffffffffffffffffffffffffffffffffff03821115611d6957611d68611e98565b5b828201905092915050565b6000611d7f82611e1c565b9150611d8a83611e1c565b925082821015611d9d57611d9c611e98565b5b828203905092915050565b6000611db382611dfc565b9050919050565b60008115159050919050565b6000819050919050565b60007fffffffff0000000000000000000000000000000000000000000000000000000082169050919050565b600073ffffffffffffffffffffffffffffffffffffffff82169050919050565b6000819050919050565b600060ff82169050919050565b60005b83811015611e51578082015181840152602081019050611e36565b83811115611e60576000848401525b50505050565b60006002820490506001821680611e7e57607f821691505b60208210811415611e9257611e91611ec7565b5b50919050565b7f4e487b7100000000000000000000000000000000000000000000000000000000600052601160045260246000fd5b7f4e487b7100000000000000000000000000000000000000000000000000000000600052602260045260246000fd5b6000601f19601f8301169050919050565b7f45524332303a207472616e7366657220746f20746865207a65726f206164647260008201527f6573730000000000000000000000000000000000000000000000000000000000602082015250565b7f416363657373436f6e74726f6c3a2073656e646572206d75737420626520616e60008201527f2061646d696e20746f206772616e740000000000000000000000000000000000602082015250565b7f45524332303a206275726e20616d6f756e7420657863656564732062616c616e60008201527f6365000000000000000000000000000000000000000000000000000000000000602082015250565b7f45524332303a20617070726f766520746f20746865207a65726f20616464726560008201527f7373000000000000000000000000000000000000000000000000000000000000602082015250565b7f45524332303a207472616e7366657220616d6f756e742065786365656473206260008201527f616c616e63650000000000000000000000000000000000000000000000000000602082015250565b7f416363657373436f6e74726f6c3a2073656e646572206d75737420626520616e60008201527f2061646d696e20746f207265766f6b6500000000000000000000000000000000602082015250565b7f45524332303a207472616e7366657220616d6f756e742065786365656473206160008201527f6c6c6f77616e6365000000000000000000000000000000000000000000000000602082015250565b7f45524332303a206275726e2066726f6d20746865207a65726f2061646472657360008201527f7300000000000000000000000000000000000000000000000000000000000000602082015250565b7f45524332303a207472616e736665722066726f6d20746865207a65726f20616460008201527f6472657373000000000000000000000000000000000000000000000000000000602082015250565b7f45524332303a20617070726f76652066726f6d20746865207a65726f2061646460008201527f7265737300000000000000000000000000000000000000000000000000000000602082015250565b7f45524332303a2064656372656173656420616c6c6f77616e63652062656c6f7760008201527f207a65726f000000000000000000000000000000000000000000000000000000602082015250565b7f416363657373436f6e74726f6c3a2063616e206f6e6c792072656e6f756e636560008201527f20726f6c657320666f722073656c660000000000000000000000000000000000602082015250565b7f6f6e6c7941676772656761746f723a2062616420726f6c650000000000000000600082015250565b7f45524332303a206d696e7420746f20746865207a65726f206164647265737300600082015250565b61231681611da8565b811461232157600080fd5b50565b61232d81611dc6565b811461233857600080fd5b50565b61234481611dd0565b811461234f57600080fd5b50565b61235b81611e1c565b811461236657600080fd5b5056fea264697066735822122007cd3277e675c5e05d581a8ba3cb86407c02b52d020adca5f263709b7c91676464736f6c63430008020033a26469706673582212203c506eda013fb0695a3b604aed032a0a36887c4f418ea93738d08e91c7efc08b64736f6c63430008020033",
  "immutableReferences": {},
  "source": "// SPDX-License-Identifier: MIT\npragma solidity ^0.8.2;\n\nimport \"@openzeppelin/contracts/token/ERC20/ERC20.sol\";\nimport \"@openzeppelin/contracts/token/ERC20/IERC20.sol\";\nimport \"@openzeppelin/contracts/token/ERC20/utils/SafeERC20.sol\";\nimport \"@openzeppelin/contracts/access/AccessControl.sol\";\nimport \"../interfaces/IWhiteDebridge.sol\";\nimport \"../periphery/WrappedAsset.sol\";\n\ncontract WhiteDebridge is AccessControl, IWhiteDebridge {\n    using SafeERC20 for IERC20;\n\n    struct DebridgeInfo {\n        address tokenAddress; // asset address on the current chain\n        uint256 chainId; // native chain id\n        uint256 minAmount; // minimal amount to transfer\n        uint256 transferFee; // transfer fee rate\n        mapping(uint256 => bool) isSupported; // wheter the chain for the asset is supported\n    }\n\n    uint256 public constant DENOMINATOR = 1e18;\n    bytes32 public constant AGGREGATOR_ROLE = keccak256(\"AGGREGATOR_ROLE\");\n    uint256 public chainId;\n    uint256 public collectedFees;\n    uint256 public nonce;\n    mapping(bytes32 => DebridgeInfo) public getDebridge; // debridgeId (i.e. hash(native chainId, native tokenAddress)) => token\n\n    event Sent(\n        uint256 nonce,\n        uint256 amount,\n        address receiver,\n        bytes32 debridgeId,\n        uint256 chainIdTo\n    );\n    event Minted(uint256 amount, address receiver, bytes32 debridgeId);\n    event Burnt(\n        uint256 nonce,\n        uint256 amount,\n        address receiver,\n        bytes32 debridgeId,\n        uint256 chainIdTo\n    );\n    event Claimed(uint256 amount, address receiver, bytes32 debridgeId);\n\n    modifier onlyAggregator {\n        require(\n            hasRole(AGGREGATOR_ROLE, msg.sender),\n            \"onlyAggregator: bad role\"\n        );\n        _;\n    }\n    modifier onlyAdmin {\n        require(hasRole(DEFAULT_ADMIN_ROLE, msg.sender), \"onlyAdmin: bad role\");\n        _;\n    }\n\n    constructor(\n        uint256 _chainId,\n        uint256 _minAmount,\n        uint256 _transferFee,\n        uint256[] memory _supportedChainIds\n    ) {\n        chainId = _chainId;\n        bytes32 debridgeId = keccak256(abi.encodePacked(_chainId, address(0)));\n        _addAsset(\n            debridgeId,\n            address(0),\n            chainId,\n            _minAmount,\n            _transferFee,\n            _supportedChainIds\n        );\n        _setupRole(DEFAULT_ADMIN_ROLE, msg.sender);\n        _setupRole(AGGREGATOR_ROLE, msg.sender);\n    }\n\n    function send(\n        address _tokenAddress,\n        address _receiver,\n        uint256 _amount,\n        uint256 _chainIdTo\n    ) external payable override {\n        bytes32 debridgeId =\n            keccak256(abi.encodePacked(chainId, _tokenAddress));\n        DebridgeInfo storage debridge = getDebridge[debridgeId];\n        require(\n            debridge.isSupported[_chainIdTo],\n            \"send: wrong targed target chain\"\n        );\n        require(\n            debridge.isSupported[chainId],\n            \"send: wrong targed target chain\"\n        );\n        require(_amount > debridge.minAmount, \"send: amount too low\");\n        if (_tokenAddress == address(0)) {\n            require(_amount == msg.value, \"send: amount mismatch\");\n        } else {\n            IERC20(_tokenAddress).safeTransferFrom(\n                msg.sender,\n                address(this),\n                _amount\n            );\n        }\n        uint256 transferFee = (_amount * debridge.transferFee) / DENOMINATOR;\n        if (transferFee > 0) {\n            collectedFees += transferFee;\n            _amount -= transferFee;\n        }\n        emit Sent(nonce, _amount, _receiver, debridgeId, _chainIdTo);\n        nonce++;\n    }\n\n    function claim(\n        bytes32 _debridgeId,\n        address _receiver,\n        uint256 _amount\n    ) external override onlyAggregator() {\n        DebridgeInfo storage debridge = getDebridge[_debridgeId];\n        require(debridge.chainId == chainId, \"send: wrong targed target chain\");\n        if (debridge.tokenAddress == address(0)) {\n            payable(_receiver).transfer(_amount);\n        } else {\n            IERC20(debridge.tokenAddress).safeTransfer(_receiver, _amount);\n        }\n        uint256 transferFee = (_amount * debridge.transferFee) / DENOMINATOR;\n        if (transferFee > 0) {\n            collectedFees += transferFee;\n            _amount -= transferFee;\n        }\n        emit Claimed(_amount, _receiver, _debridgeId);\n    }\n\n    function burn(\n        bytes32 _debridgeId,\n        address _receiver,\n        uint256 _amount\n    ) external override {\n        DebridgeInfo storage debridge = getDebridge[_debridgeId];\n        require(debridge.chainId != chainId, \"burn: wrong chainId\");\n        require(_amount > debridge.minAmount, \"burn: amount too low\");\n        IWrappedAsset wrappedAsset = IWrappedAsset(debridge.tokenAddress);\n        wrappedAsset.transferFrom(msg.sender, address(this), _amount);\n        uint256 transferFee = (_amount * debridge.transferFee) / DENOMINATOR;\n        if (transferFee > 0) {\n            collectedFees += transferFee;\n            _amount -= transferFee;\n        }\n        emit Burnt(nonce, _amount, _receiver, _debridgeId, debridge.chainId);\n        nonce++;\n    }\n\n    function mint(\n        bytes32 _debridgeId,\n        address _receiver,\n        uint256 _amount\n    ) external override onlyAggregator() {\n        DebridgeInfo storage debridge = getDebridge[_debridgeId];\n        IWrappedAsset(debridge.tokenAddress).mint(_receiver, _amount);\n        uint256 transferFee = (_amount * debridge.transferFee) / DENOMINATOR;\n        if (transferFee > 0) {\n            collectedFees += transferFee;\n            _amount -= transferFee;\n        }\n        emit Minted(_amount, _receiver, _debridgeId);\n    }\n\n    function addNativelAsset(\n        address _tokenAddress,\n        uint256 _minAmount,\n        uint256 _transferFee,\n        uint256[] memory _supportedChainIds\n    ) external override onlyAdmin() {\n        bytes32 debridgeId =\n            keccak256(abi.encodePacked(chainId, _tokenAddress));\n        _addAsset(\n            debridgeId,\n            _tokenAddress,\n            chainId,\n            _minAmount,\n            _transferFee,\n            _supportedChainIds\n        );\n    }\n\n    function setChainIdSupport(\n        bytes32 _debridgeId,\n        uint256 _chainId,\n        bool _isSupported\n    ) external override onlyAdmin() {\n        DebridgeInfo storage debridge = getDebridge[_debridgeId];\n        debridge.isSupported[_chainId] = _isSupported;\n    }\n\n    function addExternalAsset(\n        bytes32 _debridgeId,\n        uint256 _chainId,\n        uint256 _minAmount,\n        uint256 _transferFee,\n        uint256[] memory _supportedChainIds,\n        string memory _name,\n        string memory _symbol\n    ) external override onlyAdmin() {\n        address tokenAddress = address(new WrappedAsset(_name, _symbol));\n        _addAsset(\n            _debridgeId,\n            tokenAddress,\n            _chainId,\n            _minAmount,\n            _transferFee,\n            _supportedChainIds\n        );\n    }\n\n    function addAggregator(address _aggregator) external onlyAdmin() {\n        grantRole(AGGREGATOR_ROLE, _aggregator);\n    }\n\n    function removeAggregator(address _aggregator) external onlyAdmin() {\n        revokeRole(AGGREGATOR_ROLE, _aggregator);\n    }\n\n    function _addAsset(\n        bytes32 _debridgeId,\n        address _tokenAddress,\n        uint256 _chainId,\n        uint256 _minAmount,\n        uint256 _transferFee,\n        uint256[] memory _supportedChainIds\n    ) internal {\n        DebridgeInfo storage debridge = getDebridge[_debridgeId];\n        debridge.tokenAddress = _tokenAddress;\n        debridge.chainId = _chainId;\n        debridge.minAmount = _minAmount;\n        debridge.transferFee = _transferFee;\n        debridge.isSupported[chainId] = true;\n        for (uint256 i = 0; i < _supportedChainIds.length; i++) {\n            debridge.isSupported[_supportedChainIds[i]] = true;\n        }\n    }\n}\n",
  "sourcePath": "/Users/kstasi/Documents/work/debridge-contracts/contracts/transfers/WhiteDebridge.sol",
  "compiler": {
    "name": "solc",
    "version": "0.8.2+commit.661d1103.Emscripten.clang"
  },
  "schemaVersion": "3.3.4",
  "updatedAt": "2021-03-16T21:18:10.112Z",
  "devdoc": {
    "kind": "dev",
    "methods": {
      "getRoleAdmin(bytes32)": {
        "details": "Returns the admin role that controls `role`. See {grantRole} and {revokeRole}. To change a role's admin, use {_setRoleAdmin}."
      },
      "grantRole(bytes32,address)": {
        "details": "Grants `role` to `account`. If `account` had not been already granted `role`, emits a {RoleGranted} event. Requirements: - the caller must have ``role``'s admin role."
      },
      "hasRole(bytes32,address)": {
        "details": "Returns `true` if `account` has been granted `role`."
      },
      "renounceRole(bytes32,address)": {
        "details": "Revokes `role` from the calling account. Roles are often managed via {grantRole} and {revokeRole}: this function's purpose is to provide a mechanism for accounts to lose their privileges if they are compromised (such as when a trusted device is misplaced). If the calling account had been granted `role`, emits a {RoleRevoked} event. Requirements: - the caller must be `account`."
      },
      "revokeRole(bytes32,address)": {
        "details": "Revokes `role` from `account`. If `account` had been granted `role`, emits a {RoleRevoked} event. Requirements: - the caller must have ``role``'s admin role."
      },
      "supportsInterface(bytes4)": {
        "details": "See {IERC165-supportsInterface}."
      }
    },
    "version": 1
  },
  "userdoc": {
    "kind": "user",
    "methods": {},
    "version": 1
  }
}