{
  "contractName": "WhiteLightDebridge",
  "abi": [
    {
      "inputs": [
        {
          "internalType": "uint256",
          "name": "_minAmount",
          "type": "uint256"
        },
        {
          "internalType": "uint256",
          "name": "_transferFee",
          "type": "uint256"
        },
        {
          "internalType": "uint256",
          "name": "_minReserves",
          "type": "uint256"
        },
        {
          "internalType": "address",
          "name": "_aggregator",
          "type": "address"
        },
        {
          "internalType": "uint256[]",
          "name": "_supportedChainIds",
          "type": "uint256[]"
        },
        {
          "internalType": "contract IDefiController",
          "name": "_defiController",
          "type": "address"
        }
      ],
      "stateMutability": "nonpayable",
      "type": "constructor"
    },
    {
      "anonymous": false,
      "inputs": [
        {
          "indexed": false,
          "internalType": "bytes32",
          "name": "submissionId",
          "type": "bytes32"
        },
        {
          "indexed": false,
          "internalType": "bytes32",
          "name": "debridgeId",
          "type": "bytes32"
        },
        {
          "indexed": false,
          "internalType": "uint256",
          "name": "amount",
          "type": "uint256"
        },
        {
          "indexed": false,
          "internalType": "address",
          "name": "receiver",
          "type": "address"
        },
        {
          "indexed": false,
          "internalType": "uint256",
          "name": "nonce",
          "type": "uint256"
        },
        {
          "indexed": false,
          "internalType": "uint256",
          "name": "chainIdTo",
          "type": "uint256"
        }
      ],
      "name": "Burnt",
      "type": "event"
    },
    {
      "anonymous": false,
      "inputs": [
        {
          "indexed": true,
          "internalType": "bytes32",
          "name": "debridgeId",
          "type": "bytes32"
        },
        {
          "indexed": true,
          "internalType": "uint256",
          "name": "chainId",
          "type": "uint256"
        }
      ],
      "name": "ChainSupportAdded",
      "type": "event"
    },
    {
      "anonymous": false,
      "inputs": [
        {
          "indexed": true,
          "internalType": "bytes32",
          "name": "debridgeId",
          "type": "bytes32"
        },
        {
          "indexed": true,
          "internalType": "uint256",
          "name": "chainId",
          "type": "uint256"
        }
      ],
      "name": "ChainSupportRemoved",
      "type": "event"
    },
    {
      "anonymous": false,
      "inputs": [
        {
          "indexed": false,
          "internalType": "bytes32",
          "name": "submissionId",
          "type": "bytes32"
        },
        {
          "indexed": false,
          "internalType": "uint256",
          "name": "amount",
          "type": "uint256"
        },
        {
          "indexed": false,
          "internalType": "address",
          "name": "receiver",
          "type": "address"
        },
        {
          "indexed": false,
          "internalType": "bytes32",
          "name": "debridgeId",
          "type": "bytes32"
        }
      ],
      "name": "Claimed",
      "type": "event"
    },
    {
      "anonymous": false,
      "inputs": [
        {
          "indexed": false,
          "internalType": "bytes32",
          "name": "submissionId",
          "type": "bytes32"
        },
        {
          "indexed": false,
          "internalType": "uint256",
          "name": "amount",
          "type": "uint256"
        },
        {
          "indexed": false,
          "internalType": "address",
          "name": "receiver",
          "type": "address"
        },
        {
          "indexed": false,
          "internalType": "bytes32",
          "name": "debridgeId",
          "type": "bytes32"
        }
      ],
      "name": "Minted",
      "type": "event"
    },
    {
      "anonymous": false,
      "inputs": [
        {
          "indexed": true,
          "internalType": "bytes32",
          "name": "debridgeId",
          "type": "bytes32"
        },
        {
          "indexed": true,
          "internalType": "address",
          "name": "tokenAddress",
          "type": "address"
        },
        {
          "indexed": true,
          "internalType": "uint256",
          "name": "chainId",
          "type": "uint256"
        },
        {
          "indexed": false,
          "internalType": "uint256",
          "name": "minAmount",
          "type": "uint256"
        },
        {
          "indexed": false,
          "internalType": "uint256",
          "name": "transferFee",
          "type": "uint256"
        },
        {
          "indexed": false,
          "internalType": "uint256",
          "name": "minReserves",
          "type": "uint256"
        }
      ],
      "name": "PairAdded",
      "type": "event"
    },
    {
      "anonymous": false,
      "inputs": [
        {
          "indexed": true,
          "internalType": "bytes32",
          "name": "role",
          "type": "bytes32"
        },
        {
          "indexed": true,
          "internalType": "bytes32",
          "name": "previousAdminRole",
          "type": "bytes32"
        },
        {
          "indexed": true,
          "internalType": "bytes32",
          "name": "newAdminRole",
          "type": "bytes32"
        }
      ],
      "name": "RoleAdminChanged",
      "type": "event"
    },
    {
      "anonymous": false,
      "inputs": [
        {
          "indexed": true,
          "internalType": "bytes32",
          "name": "role",
          "type": "bytes32"
        },
        {
          "indexed": true,
          "internalType": "address",
          "name": "account",
          "type": "address"
        },
        {
          "indexed": true,
          "internalType": "address",
          "name": "sender",
          "type": "address"
        }
      ],
      "name": "RoleGranted",
      "type": "event"
    },
    {
      "anonymous": false,
      "inputs": [
        {
          "indexed": true,
          "internalType": "bytes32",
          "name": "role",
          "type": "bytes32"
        },
        {
          "indexed": true,
          "internalType": "address",
          "name": "account",
          "type": "address"
        },
        {
          "indexed": true,
          "internalType": "address",
          "name": "sender",
          "type": "address"
        }
      ],
      "name": "RoleRevoked",
      "type": "event"
    },
    {
      "anonymous": false,
      "inputs": [
        {
          "indexed": false,
          "internalType": "bytes32",
          "name": "submissionId",
          "type": "bytes32"
        },
        {
          "indexed": false,
          "internalType": "bytes32",
          "name": "debridgeId",
          "type": "bytes32"
        },
        {
          "indexed": false,
          "internalType": "uint256",
          "name": "amount",
          "type": "uint256"
        },
        {
          "indexed": false,
          "internalType": "address",
          "name": "receiver",
          "type": "address"
        },
        {
          "indexed": false,
          "internalType": "uint256",
          "name": "nonce",
          "type": "uint256"
        },
        {
          "indexed": false,
          "internalType": "uint256",
          "name": "chainIdTo",
          "type": "uint256"
        }
      ],
      "name": "Sent",
      "type": "event"
    },
    {
      "inputs": [],
      "name": "DEFAULT_ADMIN_ROLE",
      "outputs": [
        {
          "internalType": "bytes32",
          "name": "",
          "type": "bytes32"
        }
      ],
      "stateMutability": "view",
      "type": "function"
    },
    {
      "inputs": [],
      "name": "DENOMINATOR",
      "outputs": [
        {
          "internalType": "uint256",
          "name": "",
          "type": "uint256"
        }
      ],
      "stateMutability": "view",
      "type": "function"
    },
    {
      "inputs": [
        {
          "internalType": "address",
          "name": "_tokenAddress",
          "type": "address"
        },
        {
          "internalType": "address",
          "name": "_wrappedAssetAddress",
          "type": "address"
        },
        {
          "internalType": "uint256",
          "name": "_chainId",
          "type": "uint256"
        },
        {
          "internalType": "uint256",
          "name": "_minAmount",
          "type": "uint256"
        },
        {
          "internalType": "uint256",
          "name": "_transferFee",
          "type": "uint256"
        },
        {
          "internalType": "uint256",
          "name": "_minReserves",
          "type": "uint256"
        },
        {
          "internalType": "uint256[]",
          "name": "_supportedChainIds",
          "type": "uint256[]"
        }
      ],
      "name": "addExternalAsset",
      "outputs": [],
      "stateMutability": "nonpayable",
      "type": "function"
    },
    {
      "inputs": [
        {
          "internalType": "address",
          "name": "_tokenAddress",
          "type": "address"
        },
        {
          "internalType": "uint256",
          "name": "_minAmount",
          "type": "uint256"
        },
        {
          "internalType": "uint256",
          "name": "_transferFee",
          "type": "uint256"
        },
        {
          "internalType": "uint256",
          "name": "_minReserves",
          "type": "uint256"
        },
        {
          "internalType": "uint256[]",
          "name": "_supportedChainIds",
          "type": "uint256[]"
        }
      ],
      "name": "addNativeAsset",
      "outputs": [],
      "stateMutability": "nonpayable",
      "type": "function"
    },
    {
      "inputs": [],
      "name": "aggregator",
      "outputs": [
        {
          "internalType": "address",
          "name": "",
          "type": "address"
        }
      ],
      "stateMutability": "view",
      "type": "function"
    },
    {
      "inputs": [],
      "name": "aggregatorAddr",
      "outputs": [
        {
          "internalType": "address",
          "name": "",
          "type": "address"
        }
      ],
      "stateMutability": "view",
      "type": "function"
    },
    {
      "inputs": [
        {
          "internalType": "bytes32",
          "name": "_debridgeId",
          "type": "bytes32"
        },
        {
          "internalType": "address",
          "name": "_receiver",
          "type": "address"
        },
        {
          "internalType": "uint256",
          "name": "_amount",
          "type": "uint256"
        }
      ],
      "name": "burn",
      "outputs": [],
      "stateMutability": "nonpayable",
      "type": "function"
    },
    {
      "inputs": [],
      "name": "chainId",
      "outputs": [
        {
          "internalType": "uint256",
          "name": "",
          "type": "uint256"
        }
      ],
      "stateMutability": "view",
      "type": "function"
    },
    {
      "inputs": [],
      "name": "defiController",
      "outputs": [
        {
          "internalType": "contract IDefiController",
          "name": "",
          "type": "address"
        }
      ],
      "stateMutability": "view",
      "type": "function"
    },
    {
      "inputs": [
        {
          "internalType": "address",
          "name": "_tokenAddress",
          "type": "address"
        }
      ],
      "name": "getBalance",
      "outputs": [
        {
          "internalType": "uint256",
          "name": "",
          "type": "uint256"
        }
      ],
      "stateMutability": "view",
      "type": "function"
    },
    {
      "inputs": [
        {
          "internalType": "bytes32",
          "name": "",
          "type": "bytes32"
        }
      ],
      "name": "getDebridge",
      "outputs": [
        {
          "internalType": "address",
          "name": "tokenAddress",
          "type": "address"
        },
        {
          "internalType": "uint256",
          "name": "chainId",
          "type": "uint256"
        },
        {
          "internalType": "uint256",
          "name": "minAmount",
          "type": "uint256"
        },
        {
          "internalType": "uint256",
          "name": "transferFee",
          "type": "uint256"
        },
        {
          "internalType": "uint256",
          "name": "collectedFees",
          "type": "uint256"
        },
        {
          "internalType": "uint256",
          "name": "balance",
          "type": "uint256"
        },
        {
          "internalType": "uint256",
          "name": "minReserves",
          "type": "uint256"
        }
      ],
      "stateMutability": "view",
      "type": "function"
    },
    {
      "inputs": [
        {
          "internalType": "uint256",
          "name": "_chainId",
          "type": "uint256"
        },
        {
          "internalType": "address",
          "name": "_tokenAddress",
          "type": "address"
        }
      ],
      "name": "getDebridgeId",
      "outputs": [
        {
          "internalType": "bytes32",
          "name": "",
          "type": "bytes32"
        }
      ],
      "stateMutability": "pure",
      "type": "function"
    },
    {
      "inputs": [
        {
          "internalType": "bytes32",
          "name": "role",
          "type": "bytes32"
        }
      ],
      "name": "getRoleAdmin",
      "outputs": [
        {
          "internalType": "bytes32",
          "name": "",
          "type": "bytes32"
        }
      ],
      "stateMutability": "view",
      "type": "function"
    },
    {
      "inputs": [
        {
          "internalType": "bytes32",
          "name": "_debridgeId",
          "type": "bytes32"
        },
        {
          "internalType": "uint256",
          "name": "_amount",
          "type": "uint256"
        },
        {
          "internalType": "address",
          "name": "_receiver",
          "type": "address"
        },
        {
          "internalType": "uint256",
          "name": "_nonce",
          "type": "uint256"
        }
      ],
      "name": "getSubmisionId",
      "outputs": [
        {
          "internalType": "bytes32",
          "name": "",
          "type": "bytes32"
        }
      ],
      "stateMutability": "pure",
      "type": "function"
    },
    {
      "inputs": [
        {
          "internalType": "bytes32",
          "name": "_debridgeId",
          "type": "bytes32"
        }
      ],
      "name": "getSupportedChainIds",
      "outputs": [
        {
          "internalType": "uint256[]",
          "name": "",
          "type": "uint256[]"
        }
      ],
      "stateMutability": "view",
      "type": "function"
    },
    {
      "inputs": [
        {
          "internalType": "address",
          "name": "",
          "type": "address"
        }
      ],
      "name": "getUserNonce",
      "outputs": [
        {
          "internalType": "uint256",
          "name": "",
          "type": "uint256"
        }
      ],
      "stateMutability": "view",
      "type": "function"
    },
    {
      "inputs": [
        {
          "internalType": "bytes32",
          "name": "role",
          "type": "bytes32"
        },
        {
          "internalType": "address",
          "name": "account",
          "type": "address"
        }
      ],
      "name": "grantRole",
      "outputs": [],
      "stateMutability": "nonpayable",
      "type": "function"
    },
    {
      "inputs": [
        {
          "internalType": "bytes32",
          "name": "role",
          "type": "bytes32"
        },
        {
          "internalType": "address",
          "name": "account",
          "type": "address"
        }
      ],
      "name": "hasRole",
      "outputs": [
        {
          "internalType": "bool",
          "name": "",
          "type": "bool"
        }
      ],
      "stateMutability": "view",
      "type": "function"
    },
    {
      "inputs": [
        {
          "internalType": "bytes32",
          "name": "",
          "type": "bytes32"
        }
      ],
      "name": "isSubmissionUsed",
      "outputs": [
        {
          "internalType": "bool",
          "name": "",
          "type": "bool"
        }
      ],
      "stateMutability": "view",
      "type": "function"
    },
    {
      "inputs": [
        {
          "internalType": "bytes32",
          "name": "role",
          "type": "bytes32"
        },
        {
          "internalType": "address",
          "name": "account",
          "type": "address"
        }
      ],
      "name": "renounceRole",
      "outputs": [],
      "stateMutability": "nonpayable",
      "type": "function"
    },
    {
      "inputs": [
        {
          "internalType": "address",
          "name": "_tokenAddress",
          "type": "address"
        },
        {
          "internalType": "uint256",
          "name": "_amount",
          "type": "uint256"
        }
      ],
      "name": "requestReserves",
      "outputs": [],
      "stateMutability": "nonpayable",
      "type": "function"
    },
    {
      "inputs": [
        {
          "internalType": "address",
          "name": "_tokenAddress",
          "type": "address"
        },
        {
          "internalType": "uint256",
          "name": "_amount",
          "type": "uint256"
        }
      ],
      "name": "returnReserves",
      "outputs": [],
      "stateMutability": "payable",
      "type": "function"
    },
    {
      "inputs": [
        {
          "internalType": "bytes32",
          "name": "role",
          "type": "bytes32"
        },
        {
          "internalType": "address",
          "name": "account",
          "type": "address"
        }
      ],
      "name": "revokeRole",
      "outputs": [],
      "stateMutability": "nonpayable",
      "type": "function"
    },
    {
      "inputs": [
        {
          "internalType": "bytes32",
          "name": "_debridgeId",
          "type": "bytes32"
        },
        {
          "internalType": "address",
          "name": "_receiver",
          "type": "address"
        },
        {
          "internalType": "uint256",
          "name": "_amount",
          "type": "uint256"
        },
        {
          "internalType": "uint256",
          "name": "_chainIdTo",
          "type": "uint256"
        }
      ],
      "name": "send",
      "outputs": [],
      "stateMutability": "payable",
      "type": "function"
    },
    {
      "inputs": [
        {
          "internalType": "address",
          "name": "_aggregator",
          "type": "address"
        }
      ],
      "name": "setAggregator",
      "outputs": [],
      "stateMutability": "nonpayable",
      "type": "function"
    },
    {
      "inputs": [
        {
          "internalType": "bytes32",
          "name": "_debridgeId",
          "type": "bytes32"
        },
        {
          "internalType": "uint256",
          "name": "_chainId",
          "type": "uint256"
        },
        {
          "internalType": "bool",
          "name": "_isSupported",
          "type": "bool"
        }
      ],
      "name": "setChainIdSupport",
      "outputs": [],
      "stateMutability": "nonpayable",
      "type": "function"
    },
    {
      "inputs": [
        {
          "internalType": "contract IDefiController",
          "name": "_defiController",
          "type": "address"
        }
      ],
      "name": "setDefiController",
      "outputs": [],
      "stateMutability": "nonpayable",
      "type": "function"
    },
    {
      "inputs": [
        {
          "internalType": "bytes4",
          "name": "interfaceId",
          "type": "bytes4"
        }
      ],
      "name": "supportsInterface",
      "outputs": [
        {
          "internalType": "bool",
          "name": "",
          "type": "bool"
        }
      ],
      "stateMutability": "view",
      "type": "function"
    },
    {
      "inputs": [
        {
          "internalType": "bytes32",
          "name": "_debridgeId",
          "type": "bytes32"
        },
        {
          "internalType": "uint256",
          "name": "_minAmount",
          "type": "uint256"
        },
        {
          "internalType": "uint256",
          "name": "_transferFee",
          "type": "uint256"
        },
        {
          "internalType": "uint256",
          "name": "_minReserves",
          "type": "uint256"
        }
      ],
      "name": "updateAsset",
      "outputs": [],
      "stateMutability": "nonpayable",
      "type": "function"
    },
    {
      "inputs": [
        {
          "internalType": "bytes32",
          "name": "_debridgeId",
          "type": "bytes32"
        },
        {
          "internalType": "address",
          "name": "_receiver",
          "type": "address"
        },
        {
          "internalType": "uint256",
          "name": "_amount",
          "type": "uint256"
        }
      ],
      "name": "withdrawFee",
      "outputs": [],
      "stateMutability": "nonpayable",
      "type": "function"
    },
    {
      "inputs": [
        {
          "internalType": "bytes32",
          "name": "_debridgeId",
          "type": "bytes32"
        },
        {
          "internalType": "address",
          "name": "_receiver",
          "type": "address"
        },
        {
          "internalType": "uint256",
          "name": "_amount",
          "type": "uint256"
        },
        {
          "internalType": "uint256",
          "name": "_nonce",
          "type": "uint256"
        },
        {
          "internalType": "bytes[2][]",
          "name": "_trxData",
          "type": "bytes[2][]"
        }
      ],
      "name": "mint",
      "outputs": [],
      "stateMutability": "nonpayable",
      "type": "function"
    },
    {
      "inputs": [
        {
          "internalType": "bytes32",
          "name": "_debridgeId",
          "type": "bytes32"
        },
        {
          "internalType": "address",
          "name": "_receiver",
          "type": "address"
        },
        {
          "internalType": "uint256",
          "name": "_amount",
          "type": "uint256"
        },
        {
          "internalType": "uint256",
          "name": "_nonce",
          "type": "uint256"
        },
        {
          "internalType": "bytes[2][]",
          "name": "_trxData",
          "type": "bytes[2][]"
        }
      ],
      "name": "claim",
      "outputs": [],
      "stateMutability": "nonpayable",
      "type": "function"
    }
  ],
  "bytecode": "0x60806040523480156200001157600080fd5b5060405162002bba38038062002bba833981016040819052620000349162000312565b4660018190558690869086908690869086906000620000548282620000b7565b9050620000708160006001548b8b8b8a6200010160201b60201c565b600280546001600160a01b0319166001600160a01b0387811691909117909155600354169250620000a360003362000250565b505050505050505050505050505062000479565b60008282604051602001620000e392919091825260601b6001600160601b031916602082015260340190565b60405160208183030381529060405280519060200120905092915050565b600087815260046020526040812080546001600160a01b0319166001600160a01b0389161781556001810187905560028101869055600381018590556006810184905590805b8351811015620001f4578381815181106200017257634e487b7160e01b600052603260045260246000fd5b60209081029190910181015160008181526008860183526040808220805460ff1916600190811790915560078801805491820181558352938220909301829055915190935083918c917fdd4dbf80f57aa5115a1e07abb36e4de565879d4de5bd15b3803d666fe1d848639190a380620001eb8162000422565b91505062000147565b50604080518781526020810187905290810185905287906001600160a01b038a16908b907ff6f4e2b9c6425dc5e0ebbec27bfdc06bece97c248400c189c656fe08259cd4659060600160405180910390a4505050505050505050565b6200025c828262000260565b5050565b6000828152602081815260408083206001600160a01b038516845290915290205460ff166200025c576000828152602081815260408083206001600160a01b03851684529091529020805460ff19166001179055620002bc3390565b6001600160a01b0316816001600160a01b0316837f2f8788117e7eff1d82e926ec794901d17c78024a50270940304540a733656f0d60405160405180910390a45050565b80516200030d8162000460565b919050565b60008060008060008060c087890312156200032b578182fd5b8651955060208088015195506040880151945060608801516200034e8162000460565b60808901519094506001600160401b03808211156200036b578485fd5b818a0191508a601f8301126200037f578485fd5b8151818111156200039457620003946200044a565b838102604051601f19603f83011681018181108582111715620003bb57620003bb6200044a565b604052828152858101935084860182860187018f1015620003da578889fd5b8895505b83861015620003fe578051855260019590950194938601938601620003de565b508097505050505050506200041660a0880162000300565b90509295509295509295565b60006000198214156200044357634e487b7160e01b81526011600452602481fd5b5060010190565b634e487b7160e01b600052604160045260246000fd5b6001600160a01b03811681146200047657600080fd5b50565b61273180620004896000396000f3fe6080604052600436106101e35760003560e01c80638276260011610102578063b41eced511610095578063d547741f11610064578063d547741f1461062d578063e82637f61461064d578063f8b2cb4f1461066d578063f9120af61461068d576101e3565b8063b41eced5146105ad578063bc23a2c0146105cd578063be7f2184146105ed578063ce4aa2471461060d576101e3565b806391d14854116100d157806391d14854146105425780639682b909146105625780639a8a059214610582578063a217fddf14610598576101e3565b806382762600146104b957806383d3f95d146104d95780638a2034cc146104f9578063918f867414610526576101e3565b806336568abe1161017a5780635fe582b5116101495780635fe582b51461042957806365ac9f78146104495780636834e3a8146104795780636b063d65146104a6576101e3565b806336568abe146103285780633bd477211461034857806346144c8f1461036857806357cf07ca14610388576101e3565b8063245a7bfc116101b6578063245a7bfc14610272578063248a9ca3146102aa5780632f2ff15d146102e8578063346a907414610308576101e3565b806301ffc9a7146101e8578063031ac6131461021d5780630a0e5e9a14610232578063106f432f14610252575b600080fd5b3480156101f457600080fd5b506102086102033660046123df565b6106ad565b60405190151581526020015b60405180910390f35b61023061022b36600461225e565b6106e6565b005b34801561023e57600080fd5b5061023061024d366004612376565b61098b565b34801561025e57600080fd5b5061023061026d36600461208b565b610a4b565b34801561027e57600080fd5b50600254610292906001600160a01b031681565b6040516001600160a01b039091168152602001610214565b3480156102b657600080fd5b506102da6102c53660046121e0565b60009081526020819052604090206001015490565b604051908152602001610214565b3480156102f457600080fd5b506102306103033660046121f8565b610a94565b34801561031457600080fd5b50610230610323366004612227565b610b23565b34801561033457600080fd5b506102306103433660046121f8565b610d6c565b34801561035457600080fd5b506102306103633660046123ae565b610de6565b34801561037457600080fd5b50600354610292906001600160a01b031681565b34801561039457600080fd5b506103ea6103a33660046121e0565b600460208190526000918252604090912080546001820154600283015460038401549484015460058501546006909501546001600160a01b03909416959294919390919087565b604080516001600160a01b0390981688526020880196909652948601939093526060850191909152608084015260a083015260c082015260e001610214565b34801561043557600080fd5b5061023061044436600461229a565b610e2f565b34801561045557600080fd5b506102086104643660046121e0565b60056020526000908152604090205460ff1681565b34801561048557600080fd5b506102da61049436600461208b565b60066020526000908152604090205481565b6102306104b436600461212e565b610f1b565b3480156104c557600080fd5b50600754610292906001600160a01b031681565b3480156104e557600080fd5b506102306104f4366004612227565b610fbd565b34801561050557600080fd5b506105196105143660046121e0565b611115565b6040516102149190612465565b34801561053257600080fd5b506102da670de0b6b3a764000081565b34801561054e57600080fd5b5061020861055d3660046121f8565b61117a565b34801561056e57600080fd5b506102da61057d3660046121f8565b6111a3565b34801561058e57600080fd5b506102da60015481565b3480156105a457600080fd5b506102da600081565b3480156105b957600080fd5b506102306105c836600461229a565b6111f1565b3480156105d957600080fd5b506102da6105e8366004612338565b6112d5565b3480156105f957600080fd5b5061023061060836600461212e565b61132b565b34801561061957600080fd5b506102306106283660046120a7565b6114bb565b34801561063957600080fd5b506102306106483660046121f8565b611509565b34801561065957600080fd5b50610230610668366004612159565b611589565b34801561067957600080fd5b506102da61068836600461208b565b6115d1565b34801561069957600080fd5b506102306106a836600461208b565b611666565b60006001600160e01b03198216637965db0b60e01b14806106de57506301ffc9a760e01b6001600160e01b03198316145b90505b919050565b60008481526004602052604090206001805490820154146107475760405162461bcd60e51b815260206004820152601660248201527539b2b7321d103737ba103730ba34bb329031b430b4b760511b60448201526064015b60405180910390fd5b600082815260088201602052604090205460ff166107a75760405162461bcd60e51b815260206004820152601860248201527f73656e643a2077726f6e672074617267656420636861696e0000000000000000604482015260640161073e565b80600201548310156107f25760405162461bcd60e51b815260206004820152601460248201527373656e643a20616d6f756e7420746f6f206c6f7760601b604482015260640161073e565b80546001600160a01b031661084d573483146108485760405162461bcd60e51b81526020600482015260156024820152740e6cadcc87440c2dadeeadce840dad2e6dac2e8c6d605b1b604482015260640161073e565b610864565b8054610864906001600160a01b03163330866116af565b6000670de0b6b3a764000082600301548561087f919061262c565b610889919061260c565b905080156108b857808260040160008282546108a591906125f4565b909155506108b59050818561264b565b93505b838260050160008282546108cc91906125f4565b90915550506001600160a01b038516600090815260066020526040812054906108f7888789856112d5565b60408051828152602081018b90529081018890526001600160a01b03891660608201526080810184905260a081018790529091507f17c61cb89b62a3f29f5b150e3489c7a796ac4dc95fd73af14faa2c8086a324b49060c00160405180910390a16001600160a01b038716600090815260066020526040812080549161097c8361268e565b91905055505050505050505050565b61099660003361117a565b6109b25760405162461bcd60e51b815260040161073e906125c7565b600083815260046020908152604080832085845260088101909252909120805460ff19168315801591909117909155610a1757604051839085907fdd4dbf80f57aa5115a1e07abb36e4de565879d4de5bd15b3803d666fe1d8486390600090a3610a45565b604051839085907f86c512831f7a2aad3f56b4169c161be1028776ab950c72e26237a0310ded560690600090a35b50505050565b610a5660003361117a565b610a725760405162461bcd60e51b815260040161073e906125c7565b600380546001600160a01b0319166001600160a01b0392909216919091179055565b600082815260208190526040902060010154610ab1905b3361055d565b610b155760405162461bcd60e51b815260206004820152602f60248201527f416363657373436f6e74726f6c3a2073656e646572206d75737420626520616e60448201526e0818591b5a5b881d1bc819dc985b9d608a1b606482015260840161073e565b610b1f828261171a565b5050565b600083815260046020526040902060018054908201541415610b7c5760405162461bcd60e51b8152602060048201526012602482015271189d5c9b8e881b985d1a5d9948185cdcd95d60721b604482015260640161073e565b8060020154821015610bc75760405162461bcd60e51b81526020600482015260146024820152736275726e3a20616d6f756e7420746f6f206c6f7760601b604482015260640161073e565b80546040516323b872dd60e01b8152336004820152306024820152604481018490526001600160a01b039091169081906323b872dd90606401602060405180830381600087803b158015610c1a57600080fd5b505af1158015610c2e573d6000803e3d6000fd5b505050506040513d601f19601f82011682018060405250810190610c5291906121c4565b50604051630852cd8d60e31b8152600481018490526001600160a01b038216906342966c6890602401600060405180830381600087803b158015610c9557600080fd5b505af1158015610ca9573d6000803e3d6000fd5b5050506001600160a01b0385166000908152600660205260408120549150610cd3878688856112d5565b600185015460408051838152602081018b90529081018890526001600160a01b03891660608201526080810185905260a08101919091529091507fb8cc5195d548dc2781227c496b92d3736cd56d7f32b28971c9ae1e9eb0badf959060c00160405180910390a16001600160a01b0386166000908152600660205260408120805491610d5e8361268e565b919050555050505050505050565b6001600160a01b0381163314610ddc5760405162461bcd60e51b815260206004820152602f60248201527f416363657373436f6e74726f6c3a2063616e206f6e6c792072656e6f756e636560448201526e103937b632b9903337b91039b2b63360891b606482015260840161073e565b610b1f828261179e565b610df160003361117a565b610e0d5760405162461bcd60e51b815260040161073e906125c7565b6000938452600460205260409093206002810192909255600382015560060155565b6000610e3d878688876112d5565b60025460405163578d837760e01b81529192506001600160a01b03169063578d837790610e72908490879087906004016124a9565b602060405180830381600087803b158015610e8c57600080fd5b505af1158015610ea0573d6000803e3d6000fd5b505050506040513d601f19601f82011682018060405250810190610ec491906121c4565b610f065760405162461bcd60e51b81526020600482015260136024820152721b5a5b9d0e881b9bdd0818dbdb999a5c9b5959606a1b604482015260640161073e565b610f1281888888611803565b50505050505050565b6003546001600160a01b03163314610f705760405162461bcd60e51b815260206004820152601860248201527764656669436f6e74726f6c6c65723a2062616420726f6c6560401b604482015260640161073e565b6000610f7e600154846111a3565b60008181526004602052604090208054919250906001600160a01b031615610a45576003548154610a45916001600160a01b03918216911630866116af565b610fc860003361117a565b610fe45760405162461bcd60e51b815260040161073e906125c7565b60008381526004602052604090206001805490820154146110475760405162461bcd60e51b815260206004820152601f60248201527f77697468647261774665653a2077726f6e672074617267657420636861696e00604482015260640161073e565b818160040154101561109b5760405162461bcd60e51b815260206004820152601b60248201527f77697468647261774665653a206e6f7420656e6f756768206665650000000000604482015260640161073e565b818160040160008282546110af919061264b565b909155505080546001600160a01b03166110ff576040516001600160a01b0384169083156108fc029084906000818181858888f193505050501580156110f9573d6000803e3d6000fd5b50610a45565b8054610a45906001600160a01b0316848461194a565b60008181526004602090815260409182902060070180548351818402810184019094528084526060939283018282801561116e57602002820191906000526020600020905b81548152602001906001019080831161115a575b50505050509050919050565b6000918252602082815260408084206001600160a01b0393909316845291905290205460ff1690565b600082826040516020016111d392919091825260601b6bffffffffffffffffffffffff1916602082015260340190565b60405160208183030381529060405280519060200120905092915050565b60006111ff878688876112d5565b600254604051634a41e6d960e01b81529192506001600160a01b031690634a41e6d990611234908490879087906004016124a9565b602060405180830381600087803b15801561124e57600080fd5b505af1158015611262573d6000803e3d6000fd5b505050506040513d601f19601f8201168201806040525081019061128691906121c4565b6112c95760405162461bcd60e51b815260206004820152601460248201527318db185a5b4e881b9bdd0818dbdb999a5c9b595960621b604482015260640161073e565b610f128188888861197f565b6040805160208101869052908101849052606083811b6bffffffffffffffffffffffff19169082015260748101829052600090609401604051602081830303815290604052805190602001209050949350505050565b6003546001600160a01b031633146113805760405162461bcd60e51b815260206004820152601860248201527764656669436f6e74726f6c6c65723a2062616420726f6c6560401b604482015260640161073e565b600061138e600154846111a3565b6000818152600460205260408120600681015460058201549394509092670de0b6b3a7640000916113be9161262c565b6113c8919061260c565b82549091506000906113e2906001600160a01b03166115d1565b9050806113ef86846125f4565b116114485760405162461bcd60e51b8152602060048201526024808201527f7265717565737452657365727665733a206e6f7420656e6f75676820726573656044820152637276657360e01b606482015260840161073e565b82546001600160a01b0316611497576003546040516001600160a01b039091169086156108fc029087906000818181858888f19350505050158015611491573d6000803e3d6000fd5b506114b3565b60035483546114b3916001600160a01b0391821691168761194a565b505050505050565b6114c660003361117a565b6114e25760405162461bcd60e51b815260040161073e906125c7565b60006114ee86896111a3565b90506114ff81888888888888611b7d565b5050505050505050565b60008281526020819052604090206001015461152490610aab565b610ddc5760405162461bcd60e51b815260206004820152603060248201527f416363657373436f6e74726f6c3a2073656e646572206d75737420626520616e60448201526f2061646d696e20746f207265766f6b6560801b606482015260840161073e565b61159460003361117a565b6115b05760405162461bcd60e51b815260040161073e906125c7565b60006115be600154876111a3565b90506114b3818760015488888888611b7d565b60006001600160a01b0382166115e85750476106e1565b6040516370a0823160e01b81523060048201526001600160a01b038316906370a082319060240160206040518083038186803b15801561162757600080fd5b505afa15801561163b573d6000803e3d6000fd5b505050506040513d601f19601f8201168201806040525081019061165f9190612407565b90506106e1565b61167160003361117a565b61168d5760405162461bcd60e51b815260040161073e906125c7565b600280546001600160a01b0319166001600160a01b0392909216919091179055565b6040516001600160a01b0380851660248301528316604482015260648101829052610a459085906323b872dd60e01b906084015b60408051601f198184030181529190526020810180516001600160e01b03166001600160e01b031990931692909217909152611cc7565b611724828261117a565b610b1f576000828152602081815260408083206001600160a01b03851684529091529020805460ff1916600117905561175a3390565b6001600160a01b0316816001600160a01b0316837f2f8788117e7eff1d82e926ec794901d17c78024a50270940304540a733656f0d60405160405180910390a45050565b6117a8828261117a565b15610b1f576000828152602081815260408083206001600160a01b0385168085529252808320805460ff1916905551339285917ff6391f5c32d9c69d2a47ea670b442974b53935d1edc7fd64eb21e047a839171b9190a45050565b60008481526005602052604090205460ff16156118575760405162461bcd60e51b81526020600482015260126024820152711b5a5b9d0e88185b1c9958591e481d5cd95960721b604482015260640161073e565b6000838152600460208181526040808420888552600590925292839020805460ff19166001179055805492516340c10f1960e01b815290926001600160a01b0316916340c10f19916118c19187918791016001600160a01b03929092168252602082015260400190565b600060405180830381600087803b1580156118db57600080fd5b505af11580156118ef573d6000803e3d6000fd5b505060408051888152602081018690526001600160a01b038716818301526060810188905290517f5918a95fd00afb5898499bd5beade1619e98655d2b4ff6e0f6a4347f0a69c1279350908190036080019150a15050505050565b6040516001600160a01b03831660248201526044810182905261197a90849063a9059cbb60e01b906064016116e3565b505050565b60008381526004602052604090206001805490820154146119e25760405162461bcd60e51b815260206004820152601960248201527f636c61696d3a2077726f6e672074617267657420636861696e00000000000000604482015260640161073e565b60008581526005602052604090205460ff1615611a375760405162461bcd60e51b815260206004820152601360248201527218db185a5b4e88185b1c9958591e481d5cd959606a1b604482015260640161073e565b6000858152600560205260408120805460ff191660011790556003820154670de0b6b3a764000090611a69908561262c565b611a73919061260c565b905082826005016000828254611a89919061264b565b90915550508015611abb5780826004016000828254611aa891906125f4565b90915550611ab89050818461264b565b92505b611ac58284611d99565b81546001600160a01b0316611b10576040516001600160a01b0385169084156108fc029085906000818181858888f19350505050158015611b0a573d6000803e3d6000fd5b50611b26565b8154611b26906001600160a01b0316858561194a565b60408051878152602081018590526001600160a01b038616818301526060810187905290517fabe3bed2a8590dd123c1a018888bce6142d526741bed65dfe570fb223525c6a49181900360800190a1505050505050565b600087815260046020526040812080546001600160a01b0319166001600160a01b0389161781556001810187905560028101869055600381018590556006810184905590805b8351811015611c6b57838181518110611bec57634e487b7160e01b600052603260045260246000fd5b60209081029190910181015160008181526008860183526040808220805460ff1916600190811790915560078801805491820181558352938220909301829055915190935083918c917fdd4dbf80f57aa5115a1e07abb36e4de565879d4de5bd15b3803d666fe1d848639190a380611c638161268e565b915050611bc3565b50604080518781526020810187905290810185905287906001600160a01b038a16908b907ff6f4e2b9c6425dc5e0ebbec27bfdc06bece97c248400c189c656fe08259cd4659060600160405180910390a4505050505050505050565b6000611d1c826040518060400160405280602081526020017f5361666545524332303a206c6f772d6c6576656c2063616c6c206661696c6564815250856001600160a01b0316611e749092919063ffffffff16565b80519091501561197a5780806020019051810190611d3a91906121c4565b61197a5760405162461bcd60e51b815260206004820152602a60248201527f5361666545524332303a204552433230206f7065726174696f6e20646964206e6044820152691bdd081cdd58d8d9595960b21b606482015260840161073e565b6000670de0b6b3a764000083600601548460050154611db8919061262c565b611dc2919061260c565b8354909150600090611ddc906001600160a01b03166115d1565b90506000838311611ded5783611def565b825b905081811115611e6d57611e03828261264b565b60035486546040516309e62b9160e01b81526001600160a01b0391821660048201526024810184905292935016906309e62b9190604401600060405180830381600087803b158015611e5457600080fd5b505af1158015611e68573d6000803e3d6000fd5b505050505b5050505050565b6060611e838484600085611e8d565b90505b9392505050565b606082471015611eee5760405162461bcd60e51b815260206004820152602660248201527f416464726573733a20696e73756666696369656e742062616c616e636520666f6044820152651c8818d85b1b60d21b606482015260840161073e565b843b611f3c5760405162461bcd60e51b815260206004820152601d60248201527f416464726573733a2063616c6c20746f206e6f6e2d636f6e7472616374000000604482015260640161073e565b600080866001600160a01b03168587604051611f589190612449565b60006040518083038185875af1925050503d8060008114611f95576040519150601f19603f3d011682016040523d82523d6000602084013e611f9a565b606091505b5091509150611faa828286611fb5565b979650505050505050565b60608315611fc4575081611e86565b825115611fd45782518084602001fd5b8160405162461bcd60e51b815260040161073e9190612594565b600082601f830112611ffe578081fd5b8135602067ffffffffffffffff8083111561201b5761201b6126bf565b818302604051601f19603f8301168101818110848211171561203f5761203f6126bf565b6040528481528381019250868401828801850189101561205d578687fd5b8692505b8583101561207f578035845292840192600192909201918401612061565b50979650505050505050565b60006020828403121561209c578081fd5b8135611e86816126d5565b600080600080600080600060e0888a0312156120c1578283fd5b87356120cc816126d5565b965060208801356120dc816126d5565b955060408801359450606088013593506080880135925060a0880135915060c088013567ffffffffffffffff811115612113578182fd5b61211f8a828b01611fee565b91505092959891949750929550565b60008060408385031215612140578182fd5b823561214b816126d5565b946020939093013593505050565b600080600080600060a08688031215612170578081fd5b853561217b816126d5565b9450602086013593506040860135925060608601359150608086013567ffffffffffffffff8111156121ab578182fd5b6121b788828901611fee565b9150509295509295909350565b6000602082840312156121d5578081fd5b8151611e86816126ed565b6000602082840312156121f1578081fd5b5035919050565b6000806040838503121561220a578182fd5b82359150602083013561221c816126d5565b809150509250929050565b60008060006060848603121561223b578283fd5b83359250602084013561224d816126d5565b929592945050506040919091013590565b60008060008060808587031215612273578384fd5b843593506020850135612285816126d5565b93969395505050506040820135916060013590565b60008060008060008060a087890312156122b2578182fd5b8635955060208701356122c4816126d5565b94506040870135935060608701359250608087013567ffffffffffffffff808211156122ee578384fd5b818901915089601f830112612301578384fd5b81358181111561230f578485fd5b8a60208083028501011115612322578485fd5b6020830194508093505050509295509295509295565b6000806000806080858703121561234d578182fd5b84359350602085013592506040850135612366816126d5565b9396929550929360600135925050565b60008060006060848603121561238a578081fd5b833592506020840135915060408401356123a3816126ed565b809150509250925092565b600080600080608085870312156123c3578182fd5b5050823594602084013594506040840135936060013592509050565b6000602082840312156123f0578081fd5b81356001600160e01b031981168114611e86578182fd5b600060208284031215612418578081fd5b5051919050565b60008284528282602086013780602084860101526020601f19601f85011685010190509392505050565b6000825161245b818460208701612662565b9190910192915050565b6020808252825182820181905260009190848201906040850190845b8181101561249d57835183529284019291840191600101612481565b50909695505050505050565b6000604080830186845260208281860152818683526060860190506060828802870101925087855b8881101561258557878503605f190183528135368b9003603e190181126124f6578788fd5b8a0185878101828a36829003601e19015b600282101561256d578a840385528235818112612522578d8efd5b8601803567ffffffffffffffff81111561253a578e8ffd5b803603881315612548578e8ffd5b61255586828e850161241f565b968c0196955050509189019160019190910190612507565b509198505050938501935050908301906001016124d1565b50929998505050505050505050565b60006020825282518060208401526125b3816040850160208701612662565b601f01601f19169190910160400192915050565b6020808252601390820152726f6e6c7941646d696e3a2062616420726f6c6560681b604082015260600190565b60008219821115612607576126076126a9565b500190565b60008261262757634e487b7160e01b81526012600452602481fd5b500490565b6000816000190483118215151615612646576126466126a9565b500290565b60008282101561265d5761265d6126a9565b500390565b60005b8381101561267d578181015183820152602001612665565b83811115610a455750506000910152565b60006000198214156126a2576126a26126a9565b5060010190565b634e487b7160e01b600052601160045260246000fd5b634e487b7160e01b600052604160045260246000fd5b6001600160a01b03811681146126ea57600080fd5b50565b80151581146126ea57600080fdfea2646970667358221220aeff8fa632f6286da96f81433e752a66690a9cf6497f853c7330b8343053338464736f6c63430008020033",
  "immutableReferences": {},
  "source": "// SPDX-License-Identifier: MIT\npragma solidity ^0.8.2;\n\nimport \"@openzeppelin/contracts/token/ERC20/IERC20.sol\";\nimport \"@openzeppelin/contracts/token/ERC20/utils/SafeERC20.sol\";\nimport \"../interfaces/IWhiteLightAggregator.sol\";\nimport \"../interfaces/IWhiteLightDebridge.sol\";\nimport \"./WhiteDebridge.sol\";\n\ncontract WhiteLightDebridge is WhiteDebridge, IWhiteLightDebridge {\n    using SafeERC20 for IERC20;\n\n    address public aggregatorAddr;\n\n    /// @dev Constructor that initializes the most important configurations.\n    /// @param _minAmount Minimal amount of current chain token to be wrapped.\n    /// @param _transferFee Transfer fee rate.\n    /// @param _minReserves Minimal reserve ratio.\n    /// @param _aggregator Submission aggregator address.\n    /// @param _supportedChainIds Chain ids where native token of the current chain can be wrapped.\n    constructor(\n        uint256 _minAmount,\n        uint256 _transferFee,\n        uint256 _minReserves,\n        address _aggregator,\n        uint256[] memory _supportedChainIds,\n        IDefiController _defiController\n    )\n        WhiteDebridge(\n            _minAmount,\n            _transferFee,\n            _minReserves,\n            _aggregator,\n            _supportedChainIds,\n            _defiController\n        )\n    {}\n\n    /// @dev Mints wrapped asset on the current chain.\n    /// @param _debridgeId Asset identifier.\n    /// @param _receiver Receiver address.\n    /// @param _amount Amount of the transfered asset (note: without applyed fee).\n    /// @param _nonce Submission id.\n    /// @param _trxData Array of transactions by oracles of 2 elements - payload up to the receiver address and the signature bytes.\n    function mint(\n        bytes32 _debridgeId,\n        address _receiver,\n        uint256 _amount,\n        uint256 _nonce,\n        bytes[2][] calldata _trxData\n    ) external override {\n        bytes32 mintId =\n            getSubmisionId(_debridgeId, _amount, _receiver, _nonce);\n        require(\n            IWhiteLightAggregator(aggregator).submitMint(mintId, _trxData),\n            \"mint: not confirmed\"\n        );\n        _mint(mintId, _debridgeId, _receiver, _amount);\n    }\n\n    /// @dev Unlock the asset on the current chain and transfer to receiver.\n    /// @param _debridgeId Asset identifier.\n    /// @param _receiver Receiver address.\n    /// @param _amount Amount of the transfered asset (note: the fee can be applyed).\n    /// @param _nonce Submission id.\n    /// @param _trxData Array of transactions by oracles of 2 elements - payload up to the receiver address and the signature bytes.\n    function claim(\n        bytes32 _debridgeId,\n        address _receiver,\n        uint256 _amount,\n        uint256 _nonce,\n        bytes[2][] calldata _trxData\n    ) external override {\n        bytes32 burntId =\n            getSubmisionId(_debridgeId, _amount, _receiver, _nonce);\n        require(\n            IWhiteLightAggregator(aggregator).submitBurn(burntId, _trxData),\n            \"claim: not confirmed\"\n        );\n        _claim(burntId, _debridgeId, _receiver, _amount);\n    }\n}\n",
  "sourcePath": "/Users/kstasi/Documents/side/debridge-contracts/contracts/transfers/WhiteLightDebridge.sol",
  "compiler": {
    "name": "solc",
    "version": "0.8.2+commit.661d1103.Emscripten.clang"
  },
  "schemaVersion": "3.3.4",
  "updatedAt": "2021-04-16T18:39:27.121Z",
  "devdoc": {
    "kind": "dev",
    "methods": {
      "addExternalAsset(address,address,uint256,uint256,uint256,uint256,uint256[])": {
        "details": "Add support for the asset from the other chain, deploy new wrapped asset.",
        "params": {
          "_chainId": "Current chain id.",
          "_minAmount": "Minimal amount of the asset to be wrapped.",
          "_minReserves": "Minimal reserve ration.",
          "_supportedChainIds": "Chain ids where the token of the current chain can be transfered.",
          "_tokenAddress": "Address of the asset on the other chain.",
          "_transferFee": "Transfer fee rate.",
          "_wrappedAssetAddress": "Wrapped asset address."
        }
      },
      "addNativeAsset(address,uint256,uint256,uint256,uint256[])": {
        "details": "Add support for the asset on the current chain.",
        "params": {
          "_minAmount": "Minimal amount of current chain token to be wrapped.",
          "_minReserves": "Minimal reserve ration.",
          "_supportedChainIds": "Chain ids where native token of the current chain can be wrapped.",
          "_tokenAddress": "Address of the asset on the current chain.",
          "_transferFee": "Transfer fee rate."
        }
      },
      "burn(bytes32,address,uint256)": {
        "details": "Burns wrapped asset and allowss to claim it on the other chain.",
        "params": {
          "_amount": "Amount of the transfered asset (note: the fee can be applyed).",
          "_debridgeId": "Asset identifier.",
          "_receiver": "Receiver address."
        }
      },
      "claim(bytes32,address,uint256,uint256,bytes[2][])": {
        "details": "Unlock the asset on the current chain and transfer to receiver.",
        "params": {
          "_amount": "Amount of the transfered asset (note: the fee can be applyed).",
          "_debridgeId": "Asset identifier.",
          "_nonce": "Submission id.",
          "_receiver": "Receiver address.",
          "_trxData": "Array of transactions by oracles of 2 elements - payload up to the receiver address and the signature bytes."
        }
      },
      "constructor": {
        "details": "Constructor that initializes the most important configurations.",
        "params": {
          "_aggregator": "Submission aggregator address.",
          "_minAmount": "Minimal amount of current chain token to be wrapped.",
          "_minReserves": "Minimal reserve ratio.",
          "_supportedChainIds": "Chain ids where native token of the current chain can be wrapped.",
          "_transferFee": "Transfer fee rate."
        }
      },
      "getBalance(address)": {
        "details": "Check the balance.",
        "params": {
          "_tokenAddress": "Address of the asset on the other chain."
        }
      },
      "getDebridgeId(uint256,address)": {
        "details": "Calculates asset identifier.",
        "params": {
          "_chainId": "Current chain id.",
          "_tokenAddress": "Address of the asset on the other chain."
        }
      },
      "getRoleAdmin(bytes32)": {
        "details": "Returns the admin role that controls `role`. See {grantRole} and {revokeRole}. To change a role's admin, use {_setRoleAdmin}."
      },
      "getSubmisionId(bytes32,uint256,address,uint256)": {
        "details": "Calculate submission id.",
        "params": {
          "_amount": "Amount of the transfered asset (note: the fee can be applyed).",
          "_debridgeId": "Asset identifier.",
          "_nonce": "Submission id.",
          "_receiver": "Receiver address."
        }
      },
      "getSupportedChainIds(bytes32)": {
        "details": "Get all supported chain ids.",
        "params": {
          "_debridgeId": "Asset identifier."
        }
      },
      "grantRole(bytes32,address)": {
        "details": "Grants `role` to `account`. If `account` had not been already granted `role`, emits a {RoleGranted} event. Requirements: - the caller must have ``role``'s admin role."
      },
      "hasRole(bytes32,address)": {
        "details": "Returns `true` if `account` has been granted `role`."
      },
      "mint(bytes32,address,uint256,uint256,bytes[2][])": {
        "details": "Mints wrapped asset on the current chain.",
        "params": {
          "_amount": "Amount of the transfered asset (note: without applyed fee).",
          "_debridgeId": "Asset identifier.",
          "_nonce": "Submission id.",
          "_receiver": "Receiver address.",
          "_trxData": "Array of transactions by oracles of 2 elements - payload up to the receiver address and the signature bytes."
        }
      },
      "renounceRole(bytes32,address)": {
        "details": "Revokes `role` from the calling account. Roles are often managed via {grantRole} and {revokeRole}: this function's purpose is to provide a mechanism for accounts to lose their privileges if they are compromised (such as when a trusted device is misplaced). If the calling account had been granted `role`, emits a {RoleRevoked} event. Requirements: - the caller must be `account`."
      },
      "requestReserves(address,uint256)": {
        "details": "Request the assets to be used in defi protocol.",
        "params": {
          "_amount": "Amount of tokens to request.",
          "_tokenAddress": "Asset address."
        }
      },
      "returnReserves(address,uint256)": {
        "details": "Return the assets that were used in defi protocol.",
        "params": {
          "_amount": "Amount of tokens to claim.",
          "_tokenAddress": "Asset address."
        }
      },
      "revokeRole(bytes32,address)": {
        "details": "Revokes `role` from `account`. If `account` had been granted `role`, emits a {RoleRevoked} event. Requirements: - the caller must have ``role``'s admin role."
      },
      "send(bytes32,address,uint256,uint256)": {
        "details": "Locks asset on the chain and enables minting on the other chain.",
        "params": {
          "_amount": "Amount to be transfered (note: the fee can be applyed).",
          "_chainIdTo": "Chain id of the target chain.",
          "_debridgeId": "Asset identifier.",
          "_receiver": "Receiver address."
        }
      },
      "setAggregator(address)": {
        "details": "Set aggregator address.",
        "params": {
          "_aggregator": "Submission aggregator address."
        }
      },
      "setChainIdSupport(bytes32,uint256,bool)": {
        "details": "Set support for the chains where the token can be transfered.",
        "params": {
          "_chainId": "Current chain id.",
          "_debridgeId": "Asset identifier.",
          "_isSupported": "Whether the token is transferable to the other chain."
        }
      },
      "setDefiController(address)": {
        "details": "Set defi controoler.",
        "params": {
          "_defiController": "Defi controller address address."
        }
      },
      "supportsInterface(bytes4)": {
        "details": "See {IERC165-supportsInterface}."
      },
      "updateAsset(bytes32,uint256,uint256,uint256)": {
        "details": "Add support for the asset.",
        "params": {
          "_debridgeId": "Asset identifier.",
          "_minAmount": "Minimal amount of the asset to be wrapped.",
          "_minReserves": "Minimal reserve ration.",
          "_transferFee": "Transfer fee rate."
        }
      },
      "withdrawFee(bytes32,address,uint256)": {
        "details": "Withdraw fees.",
        "params": {
          "_amount": "Amount of tokens to withdraw.",
          "_debridgeId": "Asset identifier.",
          "_receiver": "Receiver address."
        }
      }
    },
    "version": 1
  },
  "userdoc": {
    "kind": "user",
    "methods": {},
    "version": 1
  }
}