{
  "contractName": "WhiteFullAggregator",
  "abi": [
    {
      "inputs": [
        {
          "internalType": "uint256",
          "name": "_minConfirmations",
          "type": "uint256"
        },
        {
          "internalType": "uint128",
          "name": "_payment",
          "type": "uint128"
        },
        {
          "internalType": "contract IERC20",
          "name": "_link",
          "type": "address"
        }
      ],
      "stateMutability": "nonpayable",
      "type": "constructor"
    },
    {
      "anonymous": false,
      "inputs": [
        {
          "indexed": false,
          "internalType": "bytes32",
          "name": "submissionId",
          "type": "bytes32"
        },
        {
          "indexed": false,
          "internalType": "address",
          "name": "operator",
          "type": "address"
        }
      ],
      "name": "Confirmed",
      "type": "event"
    },
    {
      "anonymous": false,
      "inputs": [
        {
          "indexed": true,
          "internalType": "bytes32",
          "name": "role",
          "type": "bytes32"
        },
        {
          "indexed": true,
          "internalType": "bytes32",
          "name": "previousAdminRole",
          "type": "bytes32"
        },
        {
          "indexed": true,
          "internalType": "bytes32",
          "name": "newAdminRole",
          "type": "bytes32"
        }
      ],
      "name": "RoleAdminChanged",
      "type": "event"
    },
    {
      "anonymous": false,
      "inputs": [
        {
          "indexed": true,
          "internalType": "bytes32",
          "name": "role",
          "type": "bytes32"
        },
        {
          "indexed": true,
          "internalType": "address",
          "name": "account",
          "type": "address"
        },
        {
          "indexed": true,
          "internalType": "address",
          "name": "sender",
          "type": "address"
        }
      ],
      "name": "RoleGranted",
      "type": "event"
    },
    {
      "anonymous": false,
      "inputs": [
        {
          "indexed": true,
          "internalType": "bytes32",
          "name": "role",
          "type": "bytes32"
        },
        {
          "indexed": true,
          "internalType": "address",
          "name": "account",
          "type": "address"
        },
        {
          "indexed": true,
          "internalType": "address",
          "name": "sender",
          "type": "address"
        }
      ],
      "name": "RoleRevoked",
      "type": "event"
    },
    {
      "anonymous": false,
      "inputs": [
        {
          "indexed": false,
          "internalType": "bytes32",
          "name": "submissionId",
          "type": "bytes32"
        }
      ],
      "name": "SubmissionApproved",
      "type": "event"
    },
    {
      "inputs": [],
      "name": "DEFAULT_ADMIN_ROLE",
      "outputs": [
        {
          "internalType": "bytes32",
          "name": "",
          "type": "bytes32"
        }
      ],
      "stateMutability": "view",
      "type": "function"
    },
    {
      "inputs": [],
      "name": "ORACLE_ROLE",
      "outputs": [
        {
          "internalType": "bytes32",
          "name": "",
          "type": "bytes32"
        }
      ],
      "stateMutability": "view",
      "type": "function"
    },
    {
      "inputs": [
        {
          "internalType": "address",
          "name": "_oracle",
          "type": "address"
        },
        {
          "internalType": "address",
          "name": "_admin",
          "type": "address"
        }
      ],
      "name": "addOracle",
      "outputs": [],
      "stateMutability": "nonpayable",
      "type": "function"
    },
    {
      "inputs": [],
      "name": "allocatedFunds",
      "outputs": [
        {
          "internalType": "uint256",
          "name": "",
          "type": "uint256"
        }
      ],
      "stateMutability": "view",
      "type": "function"
    },
    {
      "inputs": [],
      "name": "availableFunds",
      "outputs": [
        {
          "internalType": "uint256",
          "name": "",
          "type": "uint256"
        }
      ],
      "stateMutability": "view",
      "type": "function"
    },
    {
      "inputs": [
        {
          "internalType": "bytes32",
          "name": "",
          "type": "bytes32"
        }
      ],
      "name": "getBurntInfo",
      "outputs": [
        {
          "internalType": "bool",
          "name": "confirmed",
          "type": "bool"
        },
        {
          "internalType": "uint256",
          "name": "confirmations",
          "type": "uint256"
        }
      ],
      "stateMutability": "view",
      "type": "function"
    },
    {
      "inputs": [
        {
          "internalType": "bytes32",
          "name": "",
          "type": "bytes32"
        }
      ],
      "name": "getMintInfo",
      "outputs": [
        {
          "internalType": "bool",
          "name": "confirmed",
          "type": "bool"
        },
        {
          "internalType": "uint256",
          "name": "confirmations",
          "type": "uint256"
        }
      ],
      "stateMutability": "view",
      "type": "function"
    },
    {
      "inputs": [
        {
          "internalType": "address",
          "name": "",
          "type": "address"
        }
      ],
      "name": "getOracleInfo",
      "outputs": [
        {
          "internalType": "uint256",
          "name": "withdrawable",
          "type": "uint256"
        },
        {
          "internalType": "address",
          "name": "admin",
          "type": "address"
        }
      ],
      "stateMutability": "view",
      "type": "function"
    },
    {
      "inputs": [
        {
          "internalType": "bytes32",
          "name": "role",
          "type": "bytes32"
        }
      ],
      "name": "getRoleAdmin",
      "outputs": [
        {
          "internalType": "bytes32",
          "name": "",
          "type": "bytes32"
        }
      ],
      "stateMutability": "view",
      "type": "function"
    },
    {
      "inputs": [
        {
          "internalType": "bytes32",
          "name": "role",
          "type": "bytes32"
        },
        {
          "internalType": "address",
          "name": "account",
          "type": "address"
        }
      ],
      "name": "grantRole",
      "outputs": [],
      "stateMutability": "nonpayable",
      "type": "function"
    },
    {
      "inputs": [
        {
          "internalType": "bytes32",
          "name": "role",
          "type": "bytes32"
        },
        {
          "internalType": "address",
          "name": "account",
          "type": "address"
        }
      ],
      "name": "hasRole",
      "outputs": [
        {
          "internalType": "bool",
          "name": "",
          "type": "bool"
        }
      ],
      "stateMutability": "view",
      "type": "function"
    },
    {
      "inputs": [],
      "name": "link",
      "outputs": [
        {
          "internalType": "contract IERC20",
          "name": "",
          "type": "address"
        }
      ],
      "stateMutability": "view",
      "type": "function"
    },
    {
      "inputs": [],
      "name": "minConfirmations",
      "outputs": [
        {
          "internalType": "uint256",
          "name": "",
          "type": "uint256"
        }
      ],
      "stateMutability": "view",
      "type": "function"
    },
    {
      "inputs": [
        {
          "internalType": "address",
          "name": "",
          "type": "address"
        },
        {
          "internalType": "uint256",
          "name": "",
          "type": "uint256"
        },
        {
          "internalType": "bytes",
          "name": "_data",
          "type": "bytes"
        }
      ],
      "name": "onTokenTransfer",
      "outputs": [],
      "stateMutability": "nonpayable",
      "type": "function"
    },
    {
      "inputs": [],
      "name": "payment",
      "outputs": [
        {
          "internalType": "uint256",
          "name": "",
          "type": "uint256"
        }
      ],
      "stateMutability": "view",
      "type": "function"
    },
    {
      "inputs": [
        {
          "internalType": "address",
          "name": "_oracle",
          "type": "address"
        }
      ],
      "name": "removeOracle",
      "outputs": [],
      "stateMutability": "nonpayable",
      "type": "function"
    },
    {
      "inputs": [
        {
          "internalType": "bytes32",
          "name": "role",
          "type": "bytes32"
        },
        {
          "internalType": "address",
          "name": "account",
          "type": "address"
        }
      ],
      "name": "renounceRole",
      "outputs": [],
      "stateMutability": "nonpayable",
      "type": "function"
    },
    {
      "inputs": [
        {
          "internalType": "bytes32",
          "name": "role",
          "type": "bytes32"
        },
        {
          "internalType": "address",
          "name": "account",
          "type": "address"
        }
      ],
      "name": "revokeRole",
      "outputs": [],
      "stateMutability": "nonpayable",
      "type": "function"
    },
    {
      "inputs": [
        {
          "internalType": "uint256",
          "name": "_minConfirmations",
          "type": "uint256"
        }
      ],
      "name": "setMinConfirmations",
      "outputs": [],
      "stateMutability": "nonpayable",
      "type": "function"
    },
    {
      "inputs": [
        {
          "internalType": "uint128",
          "name": "_payment",
          "type": "uint128"
        }
      ],
      "name": "setPayment",
      "outputs": [],
      "stateMutability": "nonpayable",
      "type": "function"
    },
    {
      "inputs": [
        {
          "internalType": "bytes4",
          "name": "interfaceId",
          "type": "bytes4"
        }
      ],
      "name": "supportsInterface",
      "outputs": [
        {
          "internalType": "bool",
          "name": "",
          "type": "bool"
        }
      ],
      "stateMutability": "view",
      "type": "function"
    },
    {
      "inputs": [],
      "name": "updateAvailableFunds",
      "outputs": [],
      "stateMutability": "nonpayable",
      "type": "function"
    },
    {
      "inputs": [
        {
          "internalType": "address",
          "name": "_oracle",
          "type": "address"
        },
        {
          "internalType": "address",
          "name": "_newOracleAdmin",
          "type": "address"
        }
      ],
      "name": "updateOracleAddminAddress",
      "outputs": [],
      "stateMutability": "nonpayable",
      "type": "function"
    },
    {
      "inputs": [
        {
          "internalType": "address",
          "name": "_oracle",
          "type": "address"
        },
        {
          "internalType": "address",
          "name": "_newOracle",
          "type": "address"
        }
      ],
      "name": "updateOracleAddress",
      "outputs": [],
      "stateMutability": "nonpayable",
      "type": "function"
    },
    {
      "inputs": [
        {
          "internalType": "address",
          "name": "_recipient",
          "type": "address"
        },
        {
          "internalType": "uint256",
          "name": "_amount",
          "type": "uint256"
        }
      ],
      "name": "withdrawFunds",
      "outputs": [],
      "stateMutability": "nonpayable",
      "type": "function"
    },
    {
      "inputs": [
        {
          "internalType": "address",
          "name": "_oracle",
          "type": "address"
        },
        {
          "internalType": "address",
          "name": "_recipient",
          "type": "address"
        },
        {
          "internalType": "uint256",
          "name": "_amount",
          "type": "uint256"
        }
      ],
      "name": "withdrawPayment",
      "outputs": [],
      "stateMutability": "nonpayable",
      "type": "function"
    },
    {
      "inputs": [
        {
          "internalType": "address",
          "name": "_oracle",
          "type": "address"
        }
      ],
      "name": "withdrawablePayment",
      "outputs": [
        {
          "internalType": "uint256",
          "name": "",
          "type": "uint256"
        }
      ],
      "stateMutability": "view",
      "type": "function"
    },
    {
      "inputs": [
        {
          "internalType": "bytes32",
          "name": "_mintId",
          "type": "bytes32"
        }
      ],
      "name": "submitMint",
      "outputs": [],
      "stateMutability": "nonpayable",
      "type": "function"
    },
    {
      "inputs": [
        {
          "internalType": "bytes32",
          "name": "_burntId",
          "type": "bytes32"
        }
      ],
      "name": "submitBurn",
      "outputs": [],
      "stateMutability": "nonpayable",
      "type": "function"
    },
    {
      "inputs": [
        {
          "internalType": "bytes32",
          "name": "_mintId",
          "type": "bytes32"
        }
      ],
      "name": "isMintConfirmed",
      "outputs": [
        {
          "internalType": "bool",
          "name": "",
          "type": "bool"
        }
      ],
      "stateMutability": "view",
      "type": "function"
    },
    {
      "inputs": [
        {
          "internalType": "bytes32",
          "name": "_burntId",
          "type": "bytes32"
        }
      ],
      "name": "isBurntConfirmed",
      "outputs": [
        {
          "internalType": "bool",
          "name": "",
          "type": "bool"
        }
      ],
      "stateMutability": "view",
      "type": "function"
    }
  ],
  "bytecode": "0x60806040523480156200001157600080fd5b50604051620016dd380380620016dd833981016040819052620000349162000159565b60018390556001600160801b038216600455600580546001600160a01b0319166001600160a01b03831617905582828262000071600033620000a9565b6200009d7f68e79a7bf1e0bc45d0a330c573bc367f9cf464fd326078812f301165fbda4ef133620000a9565b505050505050620001b5565b620000b58282620000b9565b5050565b6000828152602081815260408083206001600160a01b038516845290915290205460ff16620000b5576000828152602081815260408083206001600160a01b03851684529091529020805460ff19166001179055620001153390565b6001600160a01b0316816001600160a01b0316837f2f8788117e7eff1d82e926ec794901d17c78024a50270940304540a733656f0d60405160405180910390a45050565b6000806000606084860312156200016e578283fd5b835160208501519093506001600160801b03811681146200018d578283fd5b60408501519092506001600160a01b0381168114620001aa578182fd5b809150509250925092565b61151880620001c56000396000f3fe608060405234801561001057600080fd5b50600436106101e55760003560e01c806391d148541161010f578063c4b56cd0116100a2578063e2e4031711610071578063e2e40317146104ab578063e7c4393e146104d4578063f0ca4adb146104dd578063fdc85fc4146104f0576101e5565b8063c4b56cd014610469578063d28216551461047c578063d4cc54e41461048f578063d547741f14610498576101e5565b8063a4c0ed36116100de578063a4c0ed36146103d3578063a61ece18146103e6578063bfdb6b0414610409578063c107532914610456576101e5565b806391d14854146103825780639e4bea1014610395578063a1e5c7b1146103a8578063a217fddf146103cb576101e5565b806336568abe1161018757806346fcff4c1161015657806346fcff4c1461034b57806348f6179c146103545780634f8fc3b51461036757806382313e501461036f576101e5565b806336568abe146102ef5780633d3d77141461030257806342f6487a1461031557806344914e461461031e576101e5565b80631c4695f4116101c35780631c4695f41461024a578063248a9ca3146102755780632f2ff15d146102985780633168f504146102ab576101e5565b806301ffc9a7146101ea57806307e2cea5146102125780630b29b94314610235575b600080fd5b6101fd6101f83660046113e9565b610503565b60405190151581526020015b60405180910390f35b6102276000805160206114c383398151915281565b604051908152602001610209565b6102486102433660046113af565b61053c565b005b60055461025d906001600160a01b031681565b6040516001600160a01b039091168152602001610209565b6102276102833660046113af565b60009081526020819052604090206001015490565b6102486102a63660046113c7565b6106d6565b6102d86102b93660046113af565b6008602052600090815260409020805460019091015460ff9091169082565b604080519215158352602083019190915201610209565b6102486102fd3660046113c7565b610765565b6102486103103660046112a9565b6107df565b61022760045481565b6102d861032c3660046113af565b6007602052600090815260409020805460019091015460ff9091169082565b61022760035481565b610248610362366004611277565b6109c0565b610248610a8d565b61024861037d366004611411565b610b1a565b6101fd6103903660046113c7565b610b4f565b6102486103a3366004611277565b610b78565b6101fd6103b63660046113af565b60009081526007602052604090205460ff1690565b610227600081565b6102486103e136600461130d565b610c2f565b6101fd6103f43660046113af565b60009081526008602052604090205460ff1690565b610439610417366004611256565b600660205260009081526040902080546001909101546001600160a01b031682565b604080519283526001600160a01b03909116602083015201610209565b6102486104643660046112e4565b610cdf565b6102486104773660046113af565b610e32565b61024861048a3660046113af565b610fc3565b61022760025481565b6102486104a63660046113c7565b610fef565b6102276104b9366004611256565b6001600160a01b031660009081526006602052604090205490565b61022760015481565b6102486104eb366004611277565b61106f565b6102486104fe366004611256565b6110ae565b60006001600160e01b03198216637965db0b60e01b148061053457506301ffc9a760e01b6001600160e01b03198316145b90505b919050565b6105546000805160206114c383398151915233610b4f565b61059c5760405162461bcd60e51b81526020600482015260146024820152736f6e6c794f7261636c653a2062616420726f6c6560601b60448201526064015b60405180910390fd5b6000818152600760209081526040808320338452600281019092529091205460ff16156106075760405162461bcd60e51b81526020600482015260196024820152787375626d69743a207375626d697474656420616c726561647960381b6044820152606401610593565b600181600101600082825461061c919061147d565b90915550503360009081526002820160205260409020805460ff191660019081179091558054908201541061069157805460ff191660011781556040517f2a6b4960c287d4d53a338f9c9a9f830f37e7b66e67a0a958f68be89a4eeb939d906106889084815260200190565b60405180910390a15b61069a336110f0565b604080518381523360208201527fd4964a7cd99f5c1fa8f2420fb5e1d3bd26eadf16e2658cf2e29a67dfda38601e910160405180910390a15050565b6000828152602081905260409020600101546106f3905b33610390565b6107575760405162461bcd60e51b815260206004820152602f60248201527f416363657373436f6e74726f6c3a2073656e646572206d75737420626520616e60448201526e0818591b5a5b881d1bc819dc985b9d608a1b6064820152608401610593565b6107618282611156565b5050565b6001600160a01b03811633146107d55760405162461bcd60e51b815260206004820152602f60248201527f416363657373436f6e74726f6c3a2063616e206f6e6c792072656e6f756e636560448201526e103937b632b9903337b91039b2b63360891b6064820152608401610593565b61076182826111da565b6001600160a01b0383811660009081526006602052604090206001015416331461085b5760405162461bcd60e51b815260206004820152602760248201527f77697468647261775061796d656e743a206f6e6c792063616c6c61626c6520626044820152663c9030b236b4b760c91b6064820152608401610593565b6001600160a01b038316600090815260066020526040902054818110156108dd5760405162461bcd60e51b815260206004820152603060248201527f77697468647261775061796d656e743a20696e73756666696369656e7420776960448201526f74686472617761626c652066756e647360801b6064820152608401610593565b6108e78282611495565b6001600160a01b03851660009081526006602052604081209190915560028054849290610915908490611495565b909155505060055460405163a9059cbb60e01b81526001600160a01b038581166004830152602482018590529091169063a9059cbb90604401602060405180830381600087803b15801561096857600080fd5b505af115801561097c573d6000803e3d6000fd5b505050506040513d601f19601f820116820180604052508101906109a0919061138f565b6109ba57634e487b7160e01b600052600160045260246000fd5b50505050565b6001600160a01b03828116600090815260066020526040902060010154163314610a405760405162461bcd60e51b815260206004820152602b60248201527f7570646174654f7261636c65416464726573733a206f6e6c792063616c6c616260448201526a363290313c9030b236b4b760a91b6064820152608401610593565b6001600160a01b0390811660009081526006602052604080822060018082018054336001600160a01b03199182161790915595909416835290822080549091559081550180549091169055565b6002546005546040516370a0823160e01b81523060048201526001600160a01b03909116906370a082319060240160206040518083038186803b158015610ad357600080fd5b505afa158015610ae7573d6000803e3d6000fd5b505050506040513d601f19601f82011682018060405250810190610b0b9190611438565b610b159190611495565b600355565b610b25600033610b4f565b610b415760405162461bcd60e51b815260040161059390611450565b6001600160801b0316600455565b6000918252602082815260408084206001600160a01b0393909316845291905290205460ff1690565b6001600160a01b03828116600090815260066020526040902060010154163314610bfe5760405162461bcd60e51b815260206004820152603160248201527f7570646174654f7261636c654164646d696e416464726573733a206f6e6c792060448201527031b0b63630b1363290313c9030b236b4b760791b6064820152608401610593565b6001600160a01b03918216600090815260066020526040902060010180546001600160a01b03191691909216179055565b6005546001600160a01b03163314610c895760405162461bcd60e51b815260206004820152601d60248201527f6f6e546f6b656e5472616e736665723a206e6f7420746865204c696e6b0000006044820152606401610593565b8015610cd75760405162461bcd60e51b815260206004820181905260248201527f7472616e7366657220646f65736e2774206163636570742063616c6c646174616044820152606401610593565b6109ba610a8d565b610cea600033610b4f565b610d065760405162461bcd60e51b815260040161059390611450565b806003541015610d585760405162461bcd60e51b815260206004820152601a60248201527f696e73756666696369656e7420726573657276652066756e64730000000000006044820152606401610593565b60055460405163a9059cbb60e01b81526001600160a01b038481166004830152602482018490529091169063a9059cbb90604401602060405180830381600087803b158015610da657600080fd5b505af1158015610dba573d6000803e3d6000fd5b505050506040513d601f19601f82011682018060405250810190610dde919061138f565b610e2a5760405162461bcd60e51b815260206004820152601e60248201527f776974686472617746756e64733a207472616e73666572206661696c656400006044820152606401610593565b610761610a8d565b610e4a6000805160206114c383398151915233610b4f565b610e8d5760405162461bcd60e51b81526020600482015260146024820152736f6e6c794f7261636c653a2062616420726f6c6560601b6044820152606401610593565b6000818152600860209081526040808320338452600281019092529091205460ff1615610ef85760405162461bcd60e51b81526020600482015260196024820152787375626d69743a207375626d697474656420616c726561647960381b6044820152606401610593565b6001816001016000828254610f0d919061147d565b90915550503360009081526002820160205260409020805460ff1916600190811790915580549082015410610f8257805460ff191660011781556040517f2a6b4960c287d4d53a338f9c9a9f830f37e7b66e67a0a958f68be89a4eeb939d90610f799084815260200190565b60405180910390a15b604080518381523360208201527fd4964a7cd99f5c1fa8f2420fb5e1d3bd26eadf16e2658cf2e29a67dfda38601e910160405180910390a1610761336110f0565b610fce600033610b4f565b610fea5760405162461bcd60e51b815260040161059390611450565b600155565b60008281526020819052604090206001015461100a906106ed565b6107d55760405162461bcd60e51b815260206004820152603060248201527f416363657373436f6e74726f6c3a2073656e646572206d75737420626520616e60448201526f2061646d696e20746f207265766f6b6560801b6064820152608401610593565b61107a600033610b4f565b6110965760405162461bcd60e51b815260040161059390611450565b610bfe6000805160206114c3833981519152836106d6565b6110b9600033610b4f565b6110d55760405162461bcd60e51b815260040161059390611450565b6110ed6000805160206114c383398151915282610fef565b50565b600454600360008282546111049190611495565b90915550506004546002805460009061111e90849061147d565b90915550506004546001600160a01b0382166000908152600660205260408120805490919061114e90849061147d565b909155505050565b6111608282610b4f565b610761576000828152602081815260408083206001600160a01b03851684529091529020805460ff191660011790556111963390565b6001600160a01b0316816001600160a01b0316837f2f8788117e7eff1d82e926ec794901d17c78024a50270940304540a733656f0d60405160405180910390a45050565b6111e48282610b4f565b15610761576000828152602081815260408083206001600160a01b0385168085529252808320805460ff1916905551339285917ff6391f5c32d9c69d2a47ea670b442974b53935d1edc7fd64eb21e047a839171b9190a45050565b80356001600160a01b038116811461053757600080fd5b600060208284031215611267578081fd5b6112708261123f565b9392505050565b60008060408385031215611289578081fd5b6112928361123f565b91506112a06020840161123f565b90509250929050565b6000806000606084860312156112bd578081fd5b6112c68461123f565b92506112d46020850161123f565b9150604084013590509250925092565b600080604083850312156112f6578182fd5b6112ff8361123f565b946020939093013593505050565b60008060008060608587031215611322578081fd5b61132b8561123f565b935060208501359250604085013567ffffffffffffffff8082111561134e578283fd5b818701915087601f830112611361578283fd5b81358181111561136f578384fd5b886020828501011115611380578384fd5b95989497505060200194505050565b6000602082840312156113a0578081fd5b81518015158114611270578182fd5b6000602082840312156113c0578081fd5b5035919050565b600080604083850312156113d9578182fd5b823591506112a06020840161123f565b6000602082840312156113fa578081fd5b81356001600160e01b031981168114611270578182fd5b600060208284031215611422578081fd5b81356001600160801b0381168114611270578182fd5b600060208284031215611449578081fd5b5051919050565b6020808252601390820152726f6e6c7941646d696e3a2062616420726f6c6560681b604082015260600190565b60008219821115611490576114906114ac565b500190565b6000828210156114a7576114a76114ac565b500390565b634e487b7160e01b600052601160045260246000fdfe68e79a7bf1e0bc45d0a330c573bc367f9cf464fd326078812f301165fbda4ef1a264697066735822122026c183d3a685e930d16fcab271fe725c6f98bbbcd7d8757e68437c34dce74a6c64736f6c63430008020033",
  "immutableReferences": {},
  "source": "// SPDX-License-Identifier: MIT\npragma solidity ^0.8.2;\n\nimport \"@openzeppelin/contracts/access/AccessControl.sol\";\nimport \"@openzeppelin/contracts/token/ERC20/IERC20.sol\";\nimport \"./Aggregator.sol\";\nimport \"../interfaces/IWhiteAggregator.sol\";\n\ncontract WhiteFullAggregator is Aggregator, IWhiteAggregator {\n    struct SubmissionInfo {\n        bool confirmed; // whether is confirmed\n        uint256 confirmations; // received confirmations count\n        mapping(address => bool) hasVerified; // verifier => has already voted\n    }\n\n    mapping(bytes32 => SubmissionInfo) public getMintInfo; // mint id => submission info\n    mapping(bytes32 => SubmissionInfo) public getBurntInfo; // burnt id => submission info\n\n    event Confirmed(bytes32 submissionId, address operator); // emitted once the submission is confirmed\n    event SubmissionApproved(bytes32 submissionId); // emitted once the submission is confirmed\n\n    /// @dev Constructor that initializes the most important configurations.\n    /// @param _minConfirmations Minimal required confirmations.\n    /// @param _payment Oracle reward.\n    /// @param _link Link token to pay to oracles.\n    constructor(\n        uint256 _minConfirmations,\n        uint128 _payment,\n        IERC20 _link\n    ) Aggregator(_minConfirmations, _payment, _link) {}\n\n    /// @dev Confirms the mint request.\n    /// @param _mintId Submission identifier.\n    function submitMint(bytes32 _mintId) external override onlyOracle {\n        SubmissionInfo storage mintInfo = getMintInfo[_mintId];\n        require(!mintInfo.hasVerified[msg.sender], \"submit: submitted already\");\n        mintInfo.confirmations += 1;\n        mintInfo.hasVerified[msg.sender] = true;\n        if (mintInfo.confirmations >= minConfirmations) {\n            mintInfo.confirmed = true;\n            emit SubmissionApproved(_mintId);\n        }\n        _payOracle(msg.sender);\n        emit Confirmed(_mintId, msg.sender);\n    }\n\n    /// @dev Confirms the burnnt request.\n    /// @param _burntId Submission identifier.\n    function submitBurn(bytes32 _burntId) external override onlyOracle {\n        SubmissionInfo storage burnInfo = getBurntInfo[_burntId];\n        require(!burnInfo.hasVerified[msg.sender], \"submit: submitted already\");\n        burnInfo.confirmations += 1;\n        burnInfo.hasVerified[msg.sender] = true;\n        if (burnInfo.confirmations >= minConfirmations) {\n            burnInfo.confirmed = true;\n            emit SubmissionApproved(_burntId);\n        }\n        emit Confirmed(_burntId, msg.sender);\n        _payOracle(msg.sender);\n    }\n\n    /// @dev Returns whether mint request is confirmed.\n    /// @param _mintId Submission identifier.\n    /// @return Whether mint request is confirmed.\n    function isMintConfirmed(bytes32 _mintId)\n        external\n        view\n        override\n        returns (bool)\n    {\n        return getMintInfo[_mintId].confirmed;\n    }\n\n    /// @dev Returns whether burnnt request is confirmed.\n    /// @param _burntId Submission identifier.\n    /// @return Whether burnnt request is confirmed.\n    function isBurntConfirmed(bytes32 _burntId)\n        external\n        view\n        override\n        returns (bool)\n    {\n        return getBurntInfo[_burntId].confirmed;\n    }\n}\n",
  "sourcePath": "/Users/kstasi/Documents/side/debridge-contracts/contracts/chainlink/WhiteFullAggregator.sol",
  "compiler": {
    "name": "solc",
    "version": "0.8.2+commit.661d1103.Emscripten.clang"
  },
  "schemaVersion": "3.3.4",
  "updatedAt": "2021-04-20T17:23:44.052Z",
  "devdoc": {
    "kind": "dev",
    "methods": {
      "addOracle(address,address)": {
        "details": "Add new oracle.",
        "params": {
          "_admin": "Admin address.",
          "_oracle": "Oracle address."
        }
      },
      "constructor": {
        "details": "Constructor that initializes the most important configurations.",
        "params": {
          "_link": "Link token to pay to oracles.",
          "_minConfirmations": "Minimal required confirmations.",
          "_payment": "Oracle reward."
        }
      },
      "getRoleAdmin(bytes32)": {
        "details": "Returns the admin role that controls `role`. See {grantRole} and {revokeRole}. To change a role's admin, use {_setRoleAdmin}."
      },
      "grantRole(bytes32,address)": {
        "details": "Grants `role` to `account`. If `account` had not been already granted `role`, emits a {RoleGranted} event. Requirements: - the caller must have ``role``'s admin role."
      },
      "hasRole(bytes32,address)": {
        "details": "Returns `true` if `account` has been granted `role`."
      },
      "isBurntConfirmed(bytes32)": {
        "details": "Returns whether burnnt request is confirmed.",
        "params": {
          "_burntId": "Submission identifier."
        },
        "returns": {
          "_0": "Whether burnnt request is confirmed."
        }
      },
      "isMintConfirmed(bytes32)": {
        "details": "Returns whether mint request is confirmed.",
        "params": {
          "_mintId": "Submission identifier."
        },
        "returns": {
          "_0": "Whether mint request is confirmed."
        }
      },
      "removeOracle(address)": {
        "details": "Remove oracle.",
        "params": {
          "_oracle": "Oracle address."
        }
      },
      "renounceRole(bytes32,address)": {
        "details": "Revokes `role` from the calling account. Roles are often managed via {grantRole} and {revokeRole}: this function's purpose is to provide a mechanism for accounts to lose their privileges if they are compromised (such as when a trusted device is misplaced). If the calling account had been granted `role`, emits a {RoleRevoked} event. Requirements: - the caller must be `account`."
      },
      "revokeRole(bytes32,address)": {
        "details": "Revokes `role` from `account`. If `account` had been granted `role`, emits a {RoleRevoked} event. Requirements: - the caller must have ``role``'s admin role."
      },
      "setMinConfirmations(uint256)": {
        "details": "Sets minimal required confirmations.",
        "params": {
          "_minConfirmations": "Minimal required confirmations."
        }
      },
      "setPayment(uint128)": {
        "details": "Sets new oracle reward.",
        "params": {
          "_payment": "Oracle reward."
        }
      },
      "submitBurn(bytes32)": {
        "details": "Confirms the burnnt request.",
        "params": {
          "_burntId": "Submission identifier."
        }
      },
      "submitMint(bytes32)": {
        "details": "Confirms the mint request.",
        "params": {
          "_mintId": "Submission identifier."
        }
      },
      "supportsInterface(bytes4)": {
        "details": "See {IERC165-supportsInterface}."
      },
      "updateAvailableFunds()": {
        "details": "Updates available rewards to be distributed."
      },
      "updateOracleAddminAddress(address,address)": {
        "details": "Updates oracle's admin address.",
        "params": {
          "_newOracleAdmin": "Oracle address.",
          "_oracle": "Oracle address."
        }
      },
      "updateOracleAddress(address,address)": {
        "details": "Updates oracle's address.",
        "params": {
          "_newOracle": "Oracle address.",
          "_oracle": "Oracle address."
        }
      },
      "withdrawFunds(address,uint256)": {
        "details": "Withdraws available LINK's.",
        "params": {
          "_amount": "Amount to withdraw.",
          "_recipient": "Recepient reward."
        }
      },
      "withdrawPayment(address,address,uint256)": {
        "details": "Withdraws oracle reward.",
        "params": {
          "_amount": "Amount to withdraw.",
          "_oracle": "Oracle address.",
          "_recipient": "Recepient reward."
        }
      },
      "withdrawablePayment(address)": {
        "details": "Withdraws oracle reward.",
        "params": {
          "_oracle": "Oracle address."
        },
        "returns": {
          "_0": "Oracle rewards."
        }
      }
    },
    "version": 1
  },
  "userdoc": {
    "kind": "user",
    "methods": {},
    "version": 1
  }
}