{
  "contractName": "WhiteLightDebridge",
  "abi": [
    {
      "anonymous": false,
      "inputs": [
        {
          "indexed": false,
          "internalType": "bytes32",
          "name": "submissionId",
          "type": "bytes32"
        },
        {
          "indexed": false,
          "internalType": "bytes32",
          "name": "debridgeId",
          "type": "bytes32"
        },
        {
          "indexed": false,
          "internalType": "uint256",
          "name": "amount",
          "type": "uint256"
        },
        {
          "indexed": false,
          "internalType": "address",
          "name": "receiver",
          "type": "address"
        },
        {
          "indexed": false,
          "internalType": "uint256",
          "name": "nonce",
          "type": "uint256"
        },
        {
          "indexed": false,
          "internalType": "uint256",
          "name": "chainIdTo",
          "type": "uint256"
        }
      ],
      "name": "Burnt",
      "type": "event"
    },
    {
      "anonymous": false,
      "inputs": [
        {
          "indexed": true,
          "internalType": "bytes32",
          "name": "debridgeId",
          "type": "bytes32"
        },
        {
          "indexed": true,
          "internalType": "uint256",
          "name": "chainId",
          "type": "uint256"
        }
      ],
      "name": "ChainSupportAdded",
      "type": "event"
    },
    {
      "anonymous": false,
      "inputs": [
        {
          "indexed": true,
          "internalType": "bytes32",
          "name": "debridgeId",
          "type": "bytes32"
        },
        {
          "indexed": true,
          "internalType": "uint256",
          "name": "chainId",
          "type": "uint256"
        }
      ],
      "name": "ChainSupportRemoved",
      "type": "event"
    },
    {
      "anonymous": false,
      "inputs": [
        {
          "indexed": false,
          "internalType": "bytes32",
          "name": "submissionId",
          "type": "bytes32"
        },
        {
          "indexed": false,
          "internalType": "uint256",
          "name": "amount",
          "type": "uint256"
        },
        {
          "indexed": false,
          "internalType": "address",
          "name": "receiver",
          "type": "address"
        },
        {
          "indexed": false,
          "internalType": "bytes32",
          "name": "debridgeId",
          "type": "bytes32"
        }
      ],
      "name": "Claimed",
      "type": "event"
    },
    {
      "anonymous": false,
      "inputs": [
        {
          "indexed": false,
          "internalType": "bytes32",
          "name": "submissionId",
          "type": "bytes32"
        },
        {
          "indexed": false,
          "internalType": "uint256",
          "name": "amount",
          "type": "uint256"
        },
        {
          "indexed": false,
          "internalType": "address",
          "name": "receiver",
          "type": "address"
        },
        {
          "indexed": false,
          "internalType": "bytes32",
          "name": "debridgeId",
          "type": "bytes32"
        }
      ],
      "name": "Minted",
      "type": "event"
    },
    {
      "anonymous": false,
      "inputs": [
        {
          "indexed": true,
          "internalType": "bytes32",
          "name": "debridgeId",
          "type": "bytes32"
        },
        {
          "indexed": true,
          "internalType": "address",
          "name": "tokenAddress",
          "type": "address"
        },
        {
          "indexed": true,
          "internalType": "uint256",
          "name": "chainId",
          "type": "uint256"
        },
        {
          "indexed": false,
          "internalType": "uint256",
          "name": "minAmount",
          "type": "uint256"
        },
        {
          "indexed": false,
          "internalType": "uint256",
          "name": "transferFee",
          "type": "uint256"
        },
        {
          "indexed": false,
          "internalType": "uint256",
          "name": "minReserves",
          "type": "uint256"
        }
      ],
      "name": "PairAdded",
      "type": "event"
    },
    {
      "anonymous": false,
      "inputs": [
        {
          "indexed": true,
          "internalType": "bytes32",
          "name": "role",
          "type": "bytes32"
        },
        {
          "indexed": true,
          "internalType": "bytes32",
          "name": "previousAdminRole",
          "type": "bytes32"
        },
        {
          "indexed": true,
          "internalType": "bytes32",
          "name": "newAdminRole",
          "type": "bytes32"
        }
      ],
      "name": "RoleAdminChanged",
      "type": "event"
    },
    {
      "anonymous": false,
      "inputs": [
        {
          "indexed": true,
          "internalType": "bytes32",
          "name": "role",
          "type": "bytes32"
        },
        {
          "indexed": true,
          "internalType": "address",
          "name": "account",
          "type": "address"
        },
        {
          "indexed": true,
          "internalType": "address",
          "name": "sender",
          "type": "address"
        }
      ],
      "name": "RoleGranted",
      "type": "event"
    },
    {
      "anonymous": false,
      "inputs": [
        {
          "indexed": true,
          "internalType": "bytes32",
          "name": "role",
          "type": "bytes32"
        },
        {
          "indexed": true,
          "internalType": "address",
          "name": "account",
          "type": "address"
        },
        {
          "indexed": true,
          "internalType": "address",
          "name": "sender",
          "type": "address"
        }
      ],
      "name": "RoleRevoked",
      "type": "event"
    },
    {
      "anonymous": false,
      "inputs": [
        {
          "indexed": false,
          "internalType": "bytes32",
          "name": "submissionId",
          "type": "bytes32"
        },
        {
          "indexed": false,
          "internalType": "bytes32",
          "name": "debridgeId",
          "type": "bytes32"
        },
        {
          "indexed": false,
          "internalType": "uint256",
          "name": "amount",
          "type": "uint256"
        },
        {
          "indexed": false,
          "internalType": "address",
          "name": "receiver",
          "type": "address"
        },
        {
          "indexed": false,
          "internalType": "uint256",
          "name": "nonce",
          "type": "uint256"
        },
        {
          "indexed": false,
          "internalType": "uint256",
          "name": "chainIdTo",
          "type": "uint256"
        }
      ],
      "name": "Sent",
      "type": "event"
    },
    {
      "inputs": [],
      "name": "DEFAULT_ADMIN_ROLE",
      "outputs": [
        {
          "internalType": "bytes32",
          "name": "",
          "type": "bytes32"
        }
      ],
      "stateMutability": "view",
      "type": "function"
    },
    {
      "inputs": [],
      "name": "DENOMINATOR",
      "outputs": [
        {
          "internalType": "uint256",
          "name": "",
          "type": "uint256"
        }
      ],
      "stateMutability": "view",
      "type": "function"
    },
    {
      "inputs": [
        {
          "internalType": "address",
          "name": "_tokenAddress",
          "type": "address"
        },
        {
          "internalType": "address",
          "name": "_wrappedAssetAddress",
          "type": "address"
        },
        {
          "internalType": "uint256",
          "name": "_chainId",
          "type": "uint256"
        },
        {
          "internalType": "uint256",
          "name": "_minAmount",
          "type": "uint256"
        },
        {
          "internalType": "uint256",
          "name": "_transferFee",
          "type": "uint256"
        },
        {
          "internalType": "uint256",
          "name": "_minReserves",
          "type": "uint256"
        },
        {
          "internalType": "uint256[]",
          "name": "_supportedChainIds",
          "type": "uint256[]"
        }
      ],
      "name": "addExternalAsset",
      "outputs": [],
      "stateMutability": "nonpayable",
      "type": "function"
    },
    {
      "inputs": [
        {
          "internalType": "address",
          "name": "_tokenAddress",
          "type": "address"
        },
        {
          "internalType": "uint256",
          "name": "_minAmount",
          "type": "uint256"
        },
        {
          "internalType": "uint256",
          "name": "_transferFee",
          "type": "uint256"
        },
        {
          "internalType": "uint256",
          "name": "_minReserves",
          "type": "uint256"
        },
        {
          "internalType": "uint256[]",
          "name": "_supportedChainIds",
          "type": "uint256[]"
        }
      ],
      "name": "addNativeAsset",
      "outputs": [],
      "stateMutability": "nonpayable",
      "type": "function"
    },
    {
      "inputs": [],
      "name": "aggregator",
      "outputs": [
        {
          "internalType": "address",
          "name": "",
          "type": "address"
        }
      ],
      "stateMutability": "view",
      "type": "function"
    },
    {
      "inputs": [],
      "name": "aggregatorAddr",
      "outputs": [
        {
          "internalType": "address",
          "name": "",
          "type": "address"
        }
      ],
      "stateMutability": "view",
      "type": "function"
    },
    {
      "inputs": [
        {
          "internalType": "bytes32",
          "name": "_debridgeId",
          "type": "bytes32"
        },
        {
          "internalType": "address",
          "name": "_receiver",
          "type": "address"
        },
        {
          "internalType": "uint256",
          "name": "_amount",
          "type": "uint256"
        }
      ],
      "name": "burn",
      "outputs": [],
      "stateMutability": "nonpayable",
      "type": "function"
    },
    {
      "inputs": [],
      "name": "chainId",
      "outputs": [
        {
          "internalType": "uint256",
          "name": "",
          "type": "uint256"
        }
      ],
      "stateMutability": "view",
      "type": "function"
    },
    {
      "inputs": [],
      "name": "defiController",
      "outputs": [
        {
          "internalType": "contract IDefiController",
          "name": "",
          "type": "address"
        }
      ],
      "stateMutability": "view",
      "type": "function"
    },
    {
      "inputs": [
        {
          "internalType": "address",
          "name": "_tokenAddress",
          "type": "address"
        }
      ],
      "name": "getBalance",
      "outputs": [
        {
          "internalType": "uint256",
          "name": "",
          "type": "uint256"
        }
      ],
      "stateMutability": "view",
      "type": "function"
    },
    {
      "inputs": [
        {
          "internalType": "bytes32",
          "name": "",
          "type": "bytes32"
        }
      ],
      "name": "getDebridge",
      "outputs": [
        {
          "internalType": "address",
          "name": "tokenAddress",
          "type": "address"
        },
        {
          "internalType": "uint256",
          "name": "chainId",
          "type": "uint256"
        },
        {
          "internalType": "uint256",
          "name": "minAmount",
          "type": "uint256"
        },
        {
          "internalType": "uint256",
          "name": "transferFee",
          "type": "uint256"
        },
        {
          "internalType": "uint256",
          "name": "collectedFees",
          "type": "uint256"
        },
        {
          "internalType": "uint256",
          "name": "balance",
          "type": "uint256"
        },
        {
          "internalType": "uint256",
          "name": "minReserves",
          "type": "uint256"
        }
      ],
      "stateMutability": "view",
      "type": "function"
    },
    {
      "inputs": [
        {
          "internalType": "uint256",
          "name": "_chainId",
          "type": "uint256"
        },
        {
          "internalType": "address",
          "name": "_tokenAddress",
          "type": "address"
        }
      ],
      "name": "getDebridgeId",
      "outputs": [
        {
          "internalType": "bytes32",
          "name": "",
          "type": "bytes32"
        }
      ],
      "stateMutability": "pure",
      "type": "function"
    },
    {
      "inputs": [
        {
          "internalType": "bytes32",
          "name": "role",
          "type": "bytes32"
        }
      ],
      "name": "getRoleAdmin",
      "outputs": [
        {
          "internalType": "bytes32",
          "name": "",
          "type": "bytes32"
        }
      ],
      "stateMutability": "view",
      "type": "function"
    },
    {
      "inputs": [
        {
          "internalType": "bytes32",
          "name": "_debridgeId",
          "type": "bytes32"
        },
        {
          "internalType": "uint256",
          "name": "_chainIdTo",
          "type": "uint256"
        },
        {
          "internalType": "uint256",
          "name": "_amount",
          "type": "uint256"
        },
        {
          "internalType": "address",
          "name": "_receiver",
          "type": "address"
        },
        {
          "internalType": "uint256",
          "name": "_nonce",
          "type": "uint256"
        }
      ],
      "name": "getSubmisionId",
      "outputs": [
        {
          "internalType": "bytes32",
          "name": "",
          "type": "bytes32"
        }
      ],
      "stateMutability": "pure",
      "type": "function"
    },
    {
      "inputs": [
        {
          "internalType": "bytes32",
          "name": "_debridgeId",
          "type": "bytes32"
        }
      ],
      "name": "getSupportedChainIds",
      "outputs": [
        {
          "internalType": "uint256[]",
          "name": "",
          "type": "uint256[]"
        }
      ],
      "stateMutability": "view",
      "type": "function"
    },
    {
      "inputs": [
        {
          "internalType": "address",
          "name": "",
          "type": "address"
        }
      ],
      "name": "getUserNonce",
      "outputs": [
        {
          "internalType": "uint256",
          "name": "",
          "type": "uint256"
        }
      ],
      "stateMutability": "view",
      "type": "function"
    },
    {
      "inputs": [
        {
          "internalType": "bytes32",
          "name": "role",
          "type": "bytes32"
        },
        {
          "internalType": "address",
          "name": "account",
          "type": "address"
        }
      ],
      "name": "grantRole",
      "outputs": [],
      "stateMutability": "nonpayable",
      "type": "function"
    },
    {
      "inputs": [
        {
          "internalType": "bytes32",
          "name": "role",
          "type": "bytes32"
        },
        {
          "internalType": "address",
          "name": "account",
          "type": "address"
        }
      ],
      "name": "hasRole",
      "outputs": [
        {
          "internalType": "bool",
          "name": "",
          "type": "bool"
        }
      ],
      "stateMutability": "view",
      "type": "function"
    },
    {
      "inputs": [
        {
          "internalType": "bytes32",
          "name": "",
          "type": "bytes32"
        }
      ],
      "name": "isSubmissionUsed",
      "outputs": [
        {
          "internalType": "bool",
          "name": "",
          "type": "bool"
        }
      ],
      "stateMutability": "view",
      "type": "function"
    },
    {
      "inputs": [
        {
          "internalType": "bytes32",
          "name": "role",
          "type": "bytes32"
        },
        {
          "internalType": "address",
          "name": "account",
          "type": "address"
        }
      ],
      "name": "renounceRole",
      "outputs": [],
      "stateMutability": "nonpayable",
      "type": "function"
    },
    {
      "inputs": [
        {
          "internalType": "address",
          "name": "_tokenAddress",
          "type": "address"
        },
        {
          "internalType": "uint256",
          "name": "_amount",
          "type": "uint256"
        }
      ],
      "name": "requestReserves",
      "outputs": [],
      "stateMutability": "nonpayable",
      "type": "function"
    },
    {
      "inputs": [
        {
          "internalType": "address",
          "name": "_tokenAddress",
          "type": "address"
        },
        {
          "internalType": "uint256",
          "name": "_amount",
          "type": "uint256"
        }
      ],
      "name": "returnReserves",
      "outputs": [],
      "stateMutability": "payable",
      "type": "function"
    },
    {
      "inputs": [
        {
          "internalType": "bytes32",
          "name": "role",
          "type": "bytes32"
        },
        {
          "internalType": "address",
          "name": "account",
          "type": "address"
        }
      ],
      "name": "revokeRole",
      "outputs": [],
      "stateMutability": "nonpayable",
      "type": "function"
    },
    {
      "inputs": [
        {
          "internalType": "bytes32",
          "name": "_debridgeId",
          "type": "bytes32"
        },
        {
          "internalType": "address",
          "name": "_receiver",
          "type": "address"
        },
        {
          "internalType": "uint256",
          "name": "_amount",
          "type": "uint256"
        },
        {
          "internalType": "uint256",
          "name": "_chainIdTo",
          "type": "uint256"
        }
      ],
      "name": "send",
      "outputs": [],
      "stateMutability": "payable",
      "type": "function"
    },
    {
      "inputs": [
        {
          "internalType": "address",
          "name": "_aggregator",
          "type": "address"
        }
      ],
      "name": "setAggregator",
      "outputs": [],
      "stateMutability": "nonpayable",
      "type": "function"
    },
    {
      "inputs": [
        {
          "internalType": "bytes32",
          "name": "_debridgeId",
          "type": "bytes32"
        },
        {
          "internalType": "uint256",
          "name": "_chainId",
          "type": "uint256"
        },
        {
          "internalType": "bool",
          "name": "_isSupported",
          "type": "bool"
        }
      ],
      "name": "setChainIdSupport",
      "outputs": [],
      "stateMutability": "nonpayable",
      "type": "function"
    },
    {
      "inputs": [
        {
          "internalType": "contract IDefiController",
          "name": "_defiController",
          "type": "address"
        }
      ],
      "name": "setDefiController",
      "outputs": [],
      "stateMutability": "nonpayable",
      "type": "function"
    },
    {
      "inputs": [
        {
          "internalType": "bytes4",
          "name": "interfaceId",
          "type": "bytes4"
        }
      ],
      "name": "supportsInterface",
      "outputs": [
        {
          "internalType": "bool",
          "name": "",
          "type": "bool"
        }
      ],
      "stateMutability": "view",
      "type": "function"
    },
    {
      "inputs": [
        {
          "internalType": "bytes32",
          "name": "_debridgeId",
          "type": "bytes32"
        },
        {
          "internalType": "uint256",
          "name": "_minAmount",
          "type": "uint256"
        },
        {
          "internalType": "uint256",
          "name": "_transferFee",
          "type": "uint256"
        },
        {
          "internalType": "uint256",
          "name": "_minReserves",
          "type": "uint256"
        }
      ],
      "name": "updateAsset",
      "outputs": [],
      "stateMutability": "nonpayable",
      "type": "function"
    },
    {
      "inputs": [
        {
          "internalType": "bytes32",
          "name": "_debridgeId",
          "type": "bytes32"
        },
        {
          "internalType": "address",
          "name": "_receiver",
          "type": "address"
        },
        {
          "internalType": "uint256",
          "name": "_amount",
          "type": "uint256"
        }
      ],
      "name": "withdrawFee",
      "outputs": [],
      "stateMutability": "nonpayable",
      "type": "function"
    },
    {
      "inputs": [
        {
          "internalType": "uint256",
          "name": "_minAmount",
          "type": "uint256"
        },
        {
          "internalType": "uint256",
          "name": "_transferFee",
          "type": "uint256"
        },
        {
          "internalType": "uint256",
          "name": "_minReserves",
          "type": "uint256"
        },
        {
          "internalType": "address",
          "name": "_aggregator",
          "type": "address"
        },
        {
          "internalType": "uint256[]",
          "name": "_supportedChainIds",
          "type": "uint256[]"
        },
        {
          "internalType": "contract IDefiController",
          "name": "_defiController",
          "type": "address"
        }
      ],
      "name": "initialize",
      "outputs": [],
      "stateMutability": "payable",
      "type": "function"
    },
    {
      "inputs": [
        {
          "internalType": "bytes32",
          "name": "_debridgeId",
          "type": "bytes32"
        },
        {
          "internalType": "address",
          "name": "_receiver",
          "type": "address"
        },
        {
          "internalType": "uint256",
          "name": "_amount",
          "type": "uint256"
        },
        {
          "internalType": "uint256",
          "name": "_nonce",
          "type": "uint256"
        },
        {
          "internalType": "bytes[2][]",
          "name": "_trxData",
          "type": "bytes[2][]"
        }
      ],
      "name": "mint",
      "outputs": [],
      "stateMutability": "nonpayable",
      "type": "function"
    },
    {
      "inputs": [
        {
          "internalType": "bytes32",
          "name": "_debridgeId",
          "type": "bytes32"
        },
        {
          "internalType": "address",
          "name": "_receiver",
          "type": "address"
        },
        {
          "internalType": "uint256",
          "name": "_amount",
          "type": "uint256"
        },
        {
          "internalType": "uint256",
          "name": "_nonce",
          "type": "uint256"
        },
        {
          "internalType": "bytes[2][]",
          "name": "_trxData",
          "type": "bytes[2][]"
        }
      ],
      "name": "claim",
      "outputs": [],
      "stateMutability": "nonpayable",
      "type": "function"
    }
  ],
  "bytecode": "0x608060405234801561001057600080fd5b50612933806100206000396000f3fe6080604052600436106101ee5760003560e01c80637454f3311161010d578063a217fddf116100a0578063d547741f1161006f578063d547741f14610639578063e82637f614610659578063f30de9b014610679578063f8b2cb4f1461068c578063f9120af6146106ac576101ee565b8063a217fddf146105c4578063b41eced5146105d9578063be7f2184146105f9578063ce4aa24714610619576101ee565b8063918f8674116100dc578063918f86741461055257806391d148541461056e5780639682b9091461058e5780639a8a0592146105ae576101ee565b80637454f331146104c557806382762600146104e557806383d3f95d146105055780638a2034cc14610525576101ee565b806336568abe116101855780635fe582b5116101545780635fe582b51461043557806365ac9f78146104555780636834e3a8146104855780636b063d65146104b2576101ee565b806336568abe146103335780633bd477211461035357806346144c8f1461037357806357cf07ca14610393576101ee565b8063245a7bfc116101c1578063245a7bfc1461027d578063248a9ca3146102b55780632f2ff15d146102f3578063346a907414610313576101ee565b806301ffc9a7146101f3578063031ac613146102285780630a0e5e9a1461023d578063106f432f1461025d575b600080fd5b3480156101ff57600080fd5b5061021361020e366004612563565b6106cc565b60405190151581526020015b60405180910390f35b61023b6102363660046123d8565b610705565b005b34801561024957600080fd5b5061023b6102583660046124b2565b6109b3565b34801561026957600080fd5b5061023b610278366004612205565b610a73565b34801561028957600080fd5b5060035461029d906001600160a01b031681565b6040516001600160a01b03909116815260200161021f565b3480156102c157600080fd5b506102e56102d036600461235a565b60009081526020819052604090206001015490565b60405190815260200161021f565b3480156102ff57600080fd5b5061023b61030e366004612372565b610abc565b34801561031f57600080fd5b5061023b61032e3660046123a1565b610b4b565b34801561033f57600080fd5b5061023b61034e366004612372565b610d9c565b34801561035f57600080fd5b5061023b61036e366004612532565b610e16565b34801561037f57600080fd5b5060045461029d906001600160a01b031681565b34801561039f57600080fd5b506103f66103ae36600461235a565b600560208190526000918252604090912080546001820154600283015460038401546004850154958501546006909501546001600160a01b0390941695929491939092919087565b604080516001600160a01b0390981688526020880196909652948601939093526060850191909152608084015260a083015260c082015260e00161021f565b34801561044157600080fd5b5061023b610450366004612414565b610e5f565b34801561046157600080fd5b5061021361047036600461235a565b60066020526000908152604090205460ff1681565b34801561049157600080fd5b506102e56104a0366004612205565b60076020526000908152604090205481565b61023b6104c03660046122a8565b610f5d565b3480156104d157600080fd5b506102e56104e03660046124ea565b610fff565b3480156104f157600080fd5b5060085461029d906001600160a01b031681565b34801561051157600080fd5b5061023b6105203660046123a1565b61105d565b34801561053157600080fd5b5061054561054036600461235a565b6111b5565b60405161021f9190612667565b34801561055e57600080fd5b506102e5670de0b6b3a764000081565b34801561057a57600080fd5b50610213610589366004612372565b61121a565b34801561059a57600080fd5b506102e56105a9366004612372565b611243565b3480156105ba57600080fd5b506102e560025481565b3480156105d057600080fd5b506102e5600081565b3480156105e557600080fd5b5061023b6105f4366004612414565b611291565b34801561060557600080fd5b5061023b6106143660046122a8565b611387565b34801561062557600080fd5b5061023b610634366004612221565b611517565b34801561064557600080fd5b5061023b610654366004612372565b611565565b34801561066557600080fd5b5061023b6106743660046122d3565b6115e5565b61023b6106873660046125a3565b61162d565b34801561069857600080fd5b506102e56106a7366004612205565b6116fb565b3480156106b857600080fd5b5061023b6106c7366004612205565b611790565b60006001600160e01b03198216637965db0b60e01b14806106fd57506301ffc9a760e01b6001600160e01b03198316145b90505b919050565b60008481526005602052604090206002546001820154146107665760405162461bcd60e51b815260206004820152601660248201527539b2b7321d103737ba103730ba34bb329031b430b4b760511b60448201526064015b60405180910390fd5b600082815260088201602052604090205460ff166107c65760405162461bcd60e51b815260206004820152601860248201527f73656e643a2077726f6e672074617267656420636861696e0000000000000000604482015260640161075d565b80600201548310156108115760405162461bcd60e51b815260206004820152601460248201527373656e643a20616d6f756e7420746f6f206c6f7760601b604482015260640161075d565b80546001600160a01b031661086c573483146108675760405162461bcd60e51b81526020600482015260156024820152740e6cadcc87440c2dadeeadce840dad2e6dac2e8c6d605b1b604482015260640161075d565b610883565b8054610883906001600160a01b03163330866117d9565b6000670de0b6b3a764000082600301548561089e919061282e565b6108a8919061280e565b905080156108d757808260040160008282546108c491906127f6565b909155506108d49050818561284d565b93505b838260050160008282546108eb91906127f6565b90915550506001600160a01b038516600090815260076020526040812054600184015490919061091f908990888a86610fff565b60408051828152602081018b90529081018890526001600160a01b03891660608201526080810184905260a081018790529091507f17c61cb89b62a3f29f5b150e3489c7a796ac4dc95fd73af14faa2c8086a324b49060c00160405180910390a16001600160a01b03871660009081526007602052604081208054916109a483612890565b91905055505050505050505050565b6109be60003361121a565b6109da5760405162461bcd60e51b815260040161075d906127c9565b600083815260056020908152604080832085845260088101909252909120805460ff19168315801591909117909155610a3f57604051839085907fdd4dbf80f57aa5115a1e07abb36e4de565879d4de5bd15b3803d666fe1d8486390600090a3610a6d565b604051839085907f86c512831f7a2aad3f56b4169c161be1028776ab950c72e26237a0310ded560690600090a35b50505050565b610a7e60003361121a565b610a9a5760405162461bcd60e51b815260040161075d906127c9565b600480546001600160a01b0319166001600160a01b0392909216919091179055565b600082815260208190526040902060010154610ad9905b33610589565b610b3d5760405162461bcd60e51b815260206004820152602f60248201527f416363657373436f6e74726f6c3a2073656e646572206d75737420626520616e60448201526e0818591b5a5b881d1bc819dc985b9d608a1b606482015260840161075d565b610b478282611844565b5050565b600083815260056020526040902060025460018201541415610ba45760405162461bcd60e51b8152602060048201526012602482015271189d5c9b8e881b985d1a5d9948185cdcd95d60721b604482015260640161075d565b8060020154821015610bef5760405162461bcd60e51b81526020600482015260146024820152736275726e3a20616d6f756e7420746f6f206c6f7760601b604482015260640161075d565b80546040516323b872dd60e01b8152336004820152306024820152604481018490526001600160a01b039091169081906323b872dd90606401602060405180830381600087803b158015610c4257600080fd5b505af1158015610c56573d6000803e3d6000fd5b505050506040513d601f19601f82011682018060405250810190610c7a919061233e565b50604051630852cd8d60e31b8152600481018490526001600160a01b038216906342966c6890602401600060405180830381600087803b158015610cbd57600080fd5b505af1158015610cd1573d6000803e3d6000fd5b5050506001600160a01b0385166000908152600760205260408120546001850154909250610d03908890878986610fff565b600185015460408051838152602081018b90529081018890526001600160a01b03891660608201526080810185905260a08101919091529091507fb8cc5195d548dc2781227c496b92d3736cd56d7f32b28971c9ae1e9eb0badf959060c00160405180910390a16001600160a01b0386166000908152600760205260408120805491610d8e83612890565b919050555050505050505050565b6001600160a01b0381163314610e0c5760405162461bcd60e51b815260206004820152602f60248201527f416363657373436f6e74726f6c3a2063616e206f6e6c792072656e6f756e636560448201526e103937b632b9903337b91039b2b63360891b606482015260840161075d565b610b4782826118c8565b610e2160003361121a565b610e3d5760405162461bcd60e51b815260040161075d906127c9565b6000938452600560205260409093206002810192909255600382015560060155565b600086815260056020526040812060010154610e7f908890878988610fff565b60035460405163578d837760e01b81529192506001600160a01b03169063578d837790610eb4908490879087906004016126ab565b602060405180830381600087803b158015610ece57600080fd5b505af1158015610ee2573d6000803e3d6000fd5b505050506040513d601f19601f82011682018060405250810190610f06919061233e565b610f485760405162461bcd60e51b81526020600482015260136024820152721b5a5b9d0e881b9bdd0818dbdb999a5c9b5959606a1b604482015260640161075d565b610f548188888861192d565b50505050505050565b6004546001600160a01b03163314610fb25760405162461bcd60e51b815260206004820152601860248201527764656669436f6e74726f6c6c65723a2062616420726f6c6560401b604482015260640161075d565b6000610fc060025484611243565b60008181526005602052604090208054919250906001600160a01b031615610a6d576004548154610a6d916001600160a01b03918216911630866117d9565b6040805160208101879052908101859052606080820185905283901b6bffffffffffffffffffffffff191660808201526094810182905260009060b40160405160208183030381529060405280519060200120905095945050505050565b61106860003361121a565b6110845760405162461bcd60e51b815260040161075d906127c9565b60008381526005602052604090206002546001820154146110e75760405162461bcd60e51b815260206004820152601f60248201527f77697468647261774665653a2077726f6e672074617267657420636861696e00604482015260640161075d565b818160040154101561113b5760405162461bcd60e51b815260206004820152601b60248201527f77697468647261774665653a206e6f7420656e6f756768206665650000000000604482015260640161075d565b8181600401600082825461114f919061284d565b909155505080546001600160a01b031661119f576040516001600160a01b0384169083156108fc029084906000818181858888f19350505050158015611199573d6000803e3d6000fd5b50610a6d565b8054610a6d906001600160a01b03168484611a67565b60008181526005602090815260409182902060070180548351818402810184019094528084526060939283018282801561120e57602002820191906000526020600020905b8154815260200190600101908083116111fa575b50505050509050919050565b6000918252602082815260408084206001600160a01b0393909316845291905290205460ff1690565b6000828260405160200161127392919091825260601b6bffffffffffffffffffffffff1916602082015260340190565b60405160208183030381529060405280519060200120905092915050565b6000868152600560205260408120600101546112b1908890878988610fff565b600354604051634a41e6d960e01b81529192506001600160a01b031690634a41e6d9906112e6908490879087906004016126ab565b602060405180830381600087803b15801561130057600080fd5b505af1158015611314573d6000803e3d6000fd5b505050506040513d601f19601f82011682018060405250810190611338919061233e565b61137b5760405162461bcd60e51b815260206004820152601460248201527318db185a5b4e881b9bdd0818dbdb999a5c9b595960621b604482015260640161075d565b610f5481888888611a9c565b6004546001600160a01b031633146113dc5760405162461bcd60e51b815260206004820152601860248201527764656669436f6e74726f6c6c65723a2062616420726f6c6560401b604482015260640161075d565b60006113ea60025484611243565b6000818152600560208190526040822060068101549181015493945092670de0b6b3a76400009161141a9161282e565b611424919061280e565b825490915060009061143e906001600160a01b03166116fb565b90508061144b86846127f6565b116114a45760405162461bcd60e51b8152602060048201526024808201527f7265717565737452657365727665733a206e6f7420656e6f75676820726573656044820152637276657360e01b606482015260840161075d565b82546001600160a01b03166114f3576004546040516001600160a01b039091169086156108fc029087906000818181858888f193505050501580156114ed573d6000803e3d6000fd5b5061150f565b600454835461150f916001600160a01b03918216911687611a67565b505050505050565b61152260003361121a565b61153e5760405162461bcd60e51b815260040161075d906127c9565b600061154a8689611243565b905061155b81888888888888611c9a565b5050505050505050565b60008281526020819052604090206001015461158090610ad3565b610e0c5760405162461bcd60e51b815260206004820152603060248201527f416363657373436f6e74726f6c3a2073656e646572206d75737420626520616e60448201526f2061646d696e20746f207265766f6b6560801b606482015260840161075d565b6115f060003361121a565b61160c5760405162461bcd60e51b815260040161075d906127c9565b600061161a60025487611243565b905061150f818760025488888888611c9a565b600154610100900460ff1680611646575060015460ff16155b6116a95760405162461bcd60e51b815260206004820152602e60248201527f496e697469616c697a61626c653a20636f6e747261637420697320616c72656160448201526d191e481a5b9a5d1a585b1a5e995960921b606482015260840161075d565b600154610100900460ff161580156116d3576001805460ff1961ff00199091166101001716811790555b6116e1878787878787611de4565b8015610f54576001805461ff001916905550505050505050565b60006001600160a01b038216611712575047610700565b6040516370a0823160e01b81523060048201526001600160a01b038316906370a082319060240160206040518083038186803b15801561175157600080fd5b505afa158015611765573d6000803e3d6000fd5b505050506040513d601f19601f82011682018060405250810190611789919061258b565b9050610700565b61179b60003361121a565b6117b75760405162461bcd60e51b815260040161075d906127c9565b600380546001600160a01b0319166001600160a01b0392909216919091179055565b6040516001600160a01b0380851660248301528316604482015260648101829052610a6d9085906323b872dd60e01b906084015b60408051601f198184030181529190526020810180516001600160e01b03166001600160e01b031990931692909217909152611e3b565b61184e828261121a565b610b47576000828152602081815260408083206001600160a01b03851684529091529020805460ff191660011790556118843390565b6001600160a01b0316816001600160a01b0316837f2f8788117e7eff1d82e926ec794901d17c78024a50270940304540a733656f0d60405160405180910390a45050565b6118d2828261121a565b15610b47576000828152602081815260408083206001600160a01b0385168085529252808320805460ff1916905551339285917ff6391f5c32d9c69d2a47ea670b442974b53935d1edc7fd64eb21e047a839171b9190a45050565b60008481526006602052604090205460ff16156119815760405162461bcd60e51b81526020600482015260126024820152711b5a5b9d0e88185b1c9958591e481d5cd95960721b604482015260640161075d565b6000838152600560209081526040808320878452600690925291829020805460ff19166001179055805491516340c10f1960e01b81526001600160a01b03858116600483015260248201859052919291909116906340c10f1990604401600060405180830381600087803b1580156119f857600080fd5b505af1158015611a0c573d6000803e3d6000fd5b505060408051888152602081018690526001600160a01b038716818301526060810188905290517f5918a95fd00afb5898499bd5beade1619e98655d2b4ff6e0f6a4347f0a69c1279350908190036080019150a15050505050565b6040516001600160a01b038316602482015260448101829052611a9790849063a9059cbb60e01b9060640161180d565b505050565b6000838152600560205260409020600254600182015414611aff5760405162461bcd60e51b815260206004820152601960248201527f636c61696d3a2077726f6e672074617267657420636861696e00000000000000604482015260640161075d565b60008581526006602052604090205460ff1615611b545760405162461bcd60e51b815260206004820152601360248201527218db185a5b4e88185b1c9958591e481d5cd959606a1b604482015260640161075d565b6000858152600660205260408120805460ff191660011790556003820154670de0b6b3a764000090611b86908561282e565b611b90919061280e565b905082826005016000828254611ba6919061284d565b90915550508015611bd85780826004016000828254611bc591906127f6565b90915550611bd59050818461284d565b92505b611be28284611f0d565b81546001600160a01b0316611c2d576040516001600160a01b0385169084156108fc029085906000818181858888f19350505050158015611c27573d6000803e3d6000fd5b50611c43565b8154611c43906001600160a01b03168585611a67565b60408051878152602081018590526001600160a01b038616818301526060810187905290517fabe3bed2a8590dd123c1a018888bce6142d526741bed65dfe570fb223525c6a49181900360800190a1505050505050565b600087815260056020526040812080546001600160a01b0319166001600160a01b0389161781556001810187905560028101869055600381018590556006810184905590805b8351811015611d8857838181518110611d0957634e487b7160e01b600052603260045260246000fd5b60209081029190910181015160008181526008860183526040808220805460ff1916600190811790915560078801805491820181558352938220909301829055915190935083918c917fdd4dbf80f57aa5115a1e07abb36e4de565879d4de5bd15b3803d666fe1d848639190a380611d8081612890565b915050611ce0565b50604080518781526020810187905290810185905287906001600160a01b038a16908b907ff6f4e2b9c6425dc5e0ebbec27bfdc06bece97c248400c189c656fe08259cd4659060600160405180910390a4505050505050505050565b4660028190556000611df68282611243565b9050611e0a8160006002548b8b8b8a611c9a565b600380546001600160a01b0319166001600160a01b038781169190911790915560045416925061155b600033610b3d565b6000611e90826040518060400160405280602081526020017f5361666545524332303a206c6f772d6c6576656c2063616c6c206661696c6564815250856001600160a01b0316611fee9092919063ffffffff16565b805190915015611a975780806020019051810190611eae919061233e565b611a975760405162461bcd60e51b815260206004820152602a60248201527f5361666545524332303a204552433230206f7065726174696f6e20646964206e6044820152691bdd081cdd58d8d9595960b21b606482015260840161075d565b6000670de0b6b3a764000083600601548460050154611f2c919061282e565b611f36919061280e565b8354909150600090611f50906001600160a01b03166116fb565b90506000838311611f615783611f63565b825b905081811115611fe757611f77828261284d565b6004805487546040516309e62b9160e01b81526001600160a01b03918216938101939093526024830184905292935091909116906309e62b9190604401600060405180830381600087803b158015611fce57600080fd5b505af1158015611fe2573d6000803e3d6000fd5b505050505b5050505050565b6060611ffd8484600085612007565b90505b9392505050565b6060824710156120685760405162461bcd60e51b815260206004820152602660248201527f416464726573733a20696e73756666696369656e742062616c616e636520666f6044820152651c8818d85b1b60d21b606482015260840161075d565b843b6120b65760405162461bcd60e51b815260206004820152601d60248201527f416464726573733a2063616c6c20746f206e6f6e2d636f6e7472616374000000604482015260640161075d565b600080866001600160a01b031685876040516120d2919061264b565b60006040518083038185875af1925050503d806000811461210f576040519150601f19603f3d011682016040523d82523d6000602084013e612114565b606091505b509150915061212482828661212f565b979650505050505050565b6060831561213e575081612000565b82511561214e5782518084602001fd5b8160405162461bcd60e51b815260040161075d9190612796565b600082601f830112612178578081fd5b8135602067ffffffffffffffff80831115612195576121956128c1565b818302604051601f19603f830116810181811084821117156121b9576121b96128c1565b604052848152838101925086840182880185018910156121d7578687fd5b8692505b858310156121f95780358452928401926001929092019184016121db565b50979650505050505050565b600060208284031215612216578081fd5b8135612000816128d7565b600080600080600080600060e0888a03121561223b578283fd5b8735612246816128d7565b96506020880135612256816128d7565b955060408801359450606088013593506080880135925060a0880135915060c088013567ffffffffffffffff81111561228d578182fd5b6122998a828b01612168565b91505092959891949750929550565b600080604083850312156122ba578182fd5b82356122c5816128d7565b946020939093013593505050565b600080600080600060a086880312156122ea578081fd5b85356122f5816128d7565b9450602086013593506040860135925060608601359150608086013567ffffffffffffffff811115612325578182fd5b61233188828901612168565b9150509295509295909350565b60006020828403121561234f578081fd5b8151612000816128ef565b60006020828403121561236b578081fd5b5035919050565b60008060408385031215612384578182fd5b823591506020830135612396816128d7565b809150509250929050565b6000806000606084860312156123b5578283fd5b8335925060208401356123c7816128d7565b929592945050506040919091013590565b600080600080608085870312156123ed578384fd5b8435935060208501356123ff816128d7565b93969395505050506040820135916060013590565b60008060008060008060a0878903121561242c578182fd5b86359550602087013561243e816128d7565b94506040870135935060608701359250608087013567ffffffffffffffff80821115612468578384fd5b818901915089601f83011261247b578384fd5b813581811115612489578485fd5b8a6020808302850101111561249c578485fd5b6020830194508093505050509295509295509295565b6000806000606084860312156124c6578081fd5b833592506020840135915060408401356124df816128ef565b809150509250925092565b600080600080600060a08688031215612501578283fd5b8535945060208601359350604086013592506060860135612521816128d7565b949793965091946080013592915050565b60008060008060808587031215612547578182fd5b5050823594602084013594506040840135936060013592509050565b600060208284031215612574578081fd5b81356001600160e01b031981168114612000578182fd5b60006020828403121561259c578081fd5b5051919050565b60008060008060008060c087890312156125bb578384fd5b86359550602087013594506040870135935060608701356125db816128d7565b9250608087013567ffffffffffffffff8111156125f6578283fd5b61260289828a01612168565b92505060a0870135612613816128d7565b809150509295509295509295565b60008284528282602086013780602084860101526020601f19601f85011685010190509392505050565b6000825161265d818460208701612864565b9190910192915050565b6020808252825182820181905260009190848201906040850190845b8181101561269f57835183529284019291840191600101612683565b50909695505050505050565b6000604080830186845260208281860152818683526060860190506060828802870101925087855b8881101561278757878503605f190183528135368b9003603e190181126126f8578788fd5b8a0185878101828a36829003601e19015b600282101561276f578a840385528235818112612724578d8efd5b8601803567ffffffffffffffff81111561273c578e8ffd5b80360388131561274a578e8ffd5b61275786828e8501612621565b968c0196955050509189019160019190910190612709565b509198505050938501935050908301906001016126d3565b50929998505050505050505050565b60006020825282518060208401526127b5816040850160208701612864565b601f01601f19169190910160400192915050565b6020808252601390820152726f6e6c7941646d696e3a2062616420726f6c6560681b604082015260600190565b60008219821115612809576128096128ab565b500190565b60008261282957634e487b7160e01b81526012600452602481fd5b500490565b6000816000190483118215151615612848576128486128ab565b500290565b60008282101561285f5761285f6128ab565b500390565b60005b8381101561287f578181015183820152602001612867565b83811115610a6d5750506000910152565b60006000198214156128a4576128a46128ab565b5060010190565b634e487b7160e01b600052601160045260246000fd5b634e487b7160e01b600052604160045260246000fd5b6001600160a01b03811681146128ec57600080fd5b50565b80151581146128ec57600080fdfea264697066735822122077b246ae45bd939ec05847e74538ba7798e849b074a45365431c9948127e91b364736f6c63430008020033",
  "immutableReferences": {},
  "source": "// SPDX-License-Identifier: MIT\npragma solidity ^0.8.2;\n\nimport \"@openzeppelin/contracts/token/ERC20/IERC20.sol\";\nimport \"@openzeppelin/contracts/token/ERC20/utils/SafeERC20.sol\";\nimport \"../interfaces/IWhiteLightAggregator.sol\";\nimport \"../interfaces/IWhiteLightDebridge.sol\";\nimport \"./WhiteDebridge.sol\";\n\ncontract WhiteLightDebridge is WhiteDebridge, IWhiteLightDebridge {\n    using SafeERC20 for IERC20;\n\n    address public aggregatorAddr;\n\n    /// @dev Constructor that initializes the most important configurations.\n    /// @param _minAmount Minimal amount of current chain token to be wrapped.\n    /// @param _transferFee Transfer fee rate.\n    /// @param _minReserves Minimal reserve ratio.\n    /// @param _aggregator Submission aggregator address.\n    /// @param _supportedChainIds Chain ids where native token of the current chain can be wrapped.\n    function initialize(\n        uint256 _minAmount,\n        uint256 _transferFee,\n        uint256 _minReserves,\n        address _aggregator,\n        uint256[] memory _supportedChainIds,\n        IDefiController _defiController\n    ) public payable initializer {\n        super._initialize(\n            _minAmount,\n            _transferFee,\n            _minReserves,\n            _aggregator,\n            _supportedChainIds,\n            _defiController\n        );\n    }\n\n    /// @dev Mints wrapped asset on the current chain.\n    /// @param _debridgeId Asset identifier.\n    /// @param _receiver Receiver address.\n    /// @param _amount Amount of the transfered asset (note: without applyed fee).\n    /// @param _nonce Submission id.\n    /// @param _trxData Array of transactions by oracles of 2 elements - payload up to the receiver address and the signature bytes.\n    function mint(\n        bytes32 _debridgeId,\n        address _receiver,\n        uint256 _amount,\n        uint256 _nonce,\n        bytes[2][] calldata _trxData\n    ) external override {\n        bytes32 mintId =\n            getSubmisionId(\n                _debridgeId,\n                getDebridge[_debridgeId].chainId,\n                _amount,\n                _receiver,\n                _nonce\n            );\n        require(\n            IWhiteLightAggregator(aggregator).submitMint(mintId, _trxData),\n            \"mint: not confirmed\"\n        );\n        _mint(mintId, _debridgeId, _receiver, _amount);\n    }\n\n    /// @dev Unlock the asset on the current chain and transfer to receiver.\n    /// @param _debridgeId Asset identifier.\n    /// @param _receiver Receiver address.\n    /// @param _amount Amount of the transfered asset (note: the fee can be applyed).\n    /// @param _nonce Submission id.\n    /// @param _trxData Array of transactions by oracles of 2 elements - payload up to the receiver address and the signature bytes.\n    function claim(\n        bytes32 _debridgeId,\n        address _receiver,\n        uint256 _amount,\n        uint256 _nonce,\n        bytes[2][] calldata _trxData\n    ) external override {\n        bytes32 burntId =\n            getSubmisionId(\n                _debridgeId,\n                getDebridge[_debridgeId].chainId,\n                _amount,\n                _receiver,\n                _nonce\n            );\n        require(\n            IWhiteLightAggregator(aggregator).submitBurn(burntId, _trxData),\n            \"claim: not confirmed\"\n        );\n        _claim(burntId, _debridgeId, _receiver, _amount);\n    }\n}\n",
  "sourcePath": "/Users/kstasi/Documents/side/debridge-contracts/contracts/transfers/WhiteLightDebridge.sol",
  "compiler": {
    "name": "solc",
    "version": "0.8.2+commit.661d1103.Emscripten.clang"
  },
  "schemaVersion": "3.3.4",
  "updatedAt": "2021-04-19T11:07:06.200Z",
  "devdoc": {
    "kind": "dev",
    "methods": {
      "addExternalAsset(address,address,uint256,uint256,uint256,uint256,uint256[])": {
        "details": "Add support for the asset from the other chain, deploy new wrapped asset.",
        "params": {
          "_chainId": "Current chain id.",
          "_minAmount": "Minimal amount of the asset to be wrapped.",
          "_minReserves": "Minimal reserve ration.",
          "_supportedChainIds": "Chain ids where the token of the current chain can be transfered.",
          "_tokenAddress": "Address of the asset on the other chain.",
          "_transferFee": "Transfer fee rate.",
          "_wrappedAssetAddress": "Wrapped asset address."
        }
      },
      "addNativeAsset(address,uint256,uint256,uint256,uint256[])": {
        "details": "Add support for the asset on the current chain.",
        "params": {
          "_minAmount": "Minimal amount of current chain token to be wrapped.",
          "_minReserves": "Minimal reserve ration.",
          "_supportedChainIds": "Chain ids where native token of the current chain can be wrapped.",
          "_tokenAddress": "Address of the asset on the current chain.",
          "_transferFee": "Transfer fee rate."
        }
      },
      "burn(bytes32,address,uint256)": {
        "details": "Burns wrapped asset and allowss to claim it on the other chain.",
        "params": {
          "_amount": "Amount of the transfered asset (note: the fee can be applyed).",
          "_debridgeId": "Asset identifier.",
          "_receiver": "Receiver address."
        }
      },
      "claim(bytes32,address,uint256,uint256,bytes[2][])": {
        "details": "Unlock the asset on the current chain and transfer to receiver.",
        "params": {
          "_amount": "Amount of the transfered asset (note: the fee can be applyed).",
          "_debridgeId": "Asset identifier.",
          "_nonce": "Submission id.",
          "_receiver": "Receiver address.",
          "_trxData": "Array of transactions by oracles of 2 elements - payload up to the receiver address and the signature bytes."
        }
      },
      "getBalance(address)": {
        "details": "Check the balance.",
        "params": {
          "_tokenAddress": "Address of the asset on the other chain."
        }
      },
      "getDebridgeId(uint256,address)": {
        "details": "Calculates asset identifier.",
        "params": {
          "_chainId": "Current chain id.",
          "_tokenAddress": "Address of the asset on the other chain."
        }
      },
      "getRoleAdmin(bytes32)": {
        "details": "Returns the admin role that controls `role`. See {grantRole} and {revokeRole}. To change a role's admin, use {_setRoleAdmin}."
      },
      "getSubmisionId(bytes32,uint256,uint256,address,uint256)": {
        "details": "Calculate submission id.",
        "params": {
          "_amount": "Amount of the transfered asset (note: the fee can be applyed).",
          "_debridgeId": "Asset identifier.",
          "_nonce": "Submission id.",
          "_receiver": "Receiver address."
        }
      },
      "getSupportedChainIds(bytes32)": {
        "details": "Get all supported chain ids.",
        "params": {
          "_debridgeId": "Asset identifier."
        }
      },
      "grantRole(bytes32,address)": {
        "details": "Grants `role` to `account`. If `account` had not been already granted `role`, emits a {RoleGranted} event. Requirements: - the caller must have ``role``'s admin role."
      },
      "hasRole(bytes32,address)": {
        "details": "Returns `true` if `account` has been granted `role`."
      },
      "initialize(uint256,uint256,uint256,address,uint256[],address)": {
        "details": "Constructor that initializes the most important configurations.",
        "params": {
          "_aggregator": "Submission aggregator address.",
          "_minAmount": "Minimal amount of current chain token to be wrapped.",
          "_minReserves": "Minimal reserve ratio.",
          "_supportedChainIds": "Chain ids where native token of the current chain can be wrapped.",
          "_transferFee": "Transfer fee rate."
        }
      },
      "mint(bytes32,address,uint256,uint256,bytes[2][])": {
        "details": "Mints wrapped asset on the current chain.",
        "params": {
          "_amount": "Amount of the transfered asset (note: without applyed fee).",
          "_debridgeId": "Asset identifier.",
          "_nonce": "Submission id.",
          "_receiver": "Receiver address.",
          "_trxData": "Array of transactions by oracles of 2 elements - payload up to the receiver address and the signature bytes."
        }
      },
      "renounceRole(bytes32,address)": {
        "details": "Revokes `role` from the calling account. Roles are often managed via {grantRole} and {revokeRole}: this function's purpose is to provide a mechanism for accounts to lose their privileges if they are compromised (such as when a trusted device is misplaced). If the calling account had been granted `role`, emits a {RoleRevoked} event. Requirements: - the caller must be `account`."
      },
      "requestReserves(address,uint256)": {
        "details": "Request the assets to be used in defi protocol.",
        "params": {
          "_amount": "Amount of tokens to request.",
          "_tokenAddress": "Asset address."
        }
      },
      "returnReserves(address,uint256)": {
        "details": "Return the assets that were used in defi protocol.",
        "params": {
          "_amount": "Amount of tokens to claim.",
          "_tokenAddress": "Asset address."
        }
      },
      "revokeRole(bytes32,address)": {
        "details": "Revokes `role` from `account`. If `account` had been granted `role`, emits a {RoleRevoked} event. Requirements: - the caller must have ``role``'s admin role."
      },
      "send(bytes32,address,uint256,uint256)": {
        "details": "Locks asset on the chain and enables minting on the other chain.",
        "params": {
          "_amount": "Amount to be transfered (note: the fee can be applyed).",
          "_chainIdTo": "Chain id of the target chain.",
          "_debridgeId": "Asset identifier.",
          "_receiver": "Receiver address."
        }
      },
      "setAggregator(address)": {
        "details": "Set aggregator address.",
        "params": {
          "_aggregator": "Submission aggregator address."
        }
      },
      "setChainIdSupport(bytes32,uint256,bool)": {
        "details": "Set support for the chains where the token can be transfered.",
        "params": {
          "_chainId": "Current chain id.",
          "_debridgeId": "Asset identifier.",
          "_isSupported": "Whether the token is transferable to the other chain."
        }
      },
      "setDefiController(address)": {
        "details": "Set defi controoler.",
        "params": {
          "_defiController": "Defi controller address address."
        }
      },
      "supportsInterface(bytes4)": {
        "details": "See {IERC165-supportsInterface}."
      },
      "updateAsset(bytes32,uint256,uint256,uint256)": {
        "details": "Add support for the asset.",
        "params": {
          "_debridgeId": "Asset identifier.",
          "_minAmount": "Minimal amount of the asset to be wrapped.",
          "_minReserves": "Minimal reserve ration.",
          "_transferFee": "Transfer fee rate."
        }
      },
      "withdrawFee(bytes32,address,uint256)": {
        "details": "Withdraw fees.",
        "params": {
          "_amount": "Amount of tokens to withdraw.",
          "_debridgeId": "Asset identifier.",
          "_receiver": "Receiver address."
        }
      }
    },
    "version": 1
  },
  "userdoc": {
    "kind": "user",
    "methods": {},
    "version": 1
  }
}