{
  "contractName": "WhiteLightDebridge",
  "abi": [
    {
      "anonymous": false,
      "inputs": [
        {
          "indexed": false,
          "internalType": "bytes32",
          "name": "submissionId",
          "type": "bytes32"
        },
        {
          "indexed": false,
          "internalType": "bytes32",
          "name": "debridgeId",
          "type": "bytes32"
        },
        {
          "indexed": false,
          "internalType": "uint256",
          "name": "amount",
          "type": "uint256"
        },
        {
          "indexed": false,
          "internalType": "address",
          "name": "receiver",
          "type": "address"
        },
        {
          "indexed": false,
          "internalType": "uint256",
          "name": "nonce",
          "type": "uint256"
        },
        {
          "indexed": false,
          "internalType": "uint256",
          "name": "chainIdTo",
          "type": "uint256"
        }
      ],
      "name": "Burnt",
      "type": "event"
    },
    {
      "anonymous": false,
      "inputs": [
        {
          "indexed": true,
          "internalType": "bytes32",
          "name": "debridgeId",
          "type": "bytes32"
        },
        {
          "indexed": true,
          "internalType": "uint256",
          "name": "chainId",
          "type": "uint256"
        }
      ],
      "name": "ChainSupportAdded",
      "type": "event"
    },
    {
      "anonymous": false,
      "inputs": [
        {
          "indexed": true,
          "internalType": "bytes32",
          "name": "debridgeId",
          "type": "bytes32"
        },
        {
          "indexed": true,
          "internalType": "uint256",
          "name": "chainId",
          "type": "uint256"
        }
      ],
      "name": "ChainSupportRemoved",
      "type": "event"
    },
    {
      "anonymous": false,
      "inputs": [
        {
          "indexed": false,
          "internalType": "bytes32",
          "name": "submissionId",
          "type": "bytes32"
        },
        {
          "indexed": false,
          "internalType": "uint256",
          "name": "amount",
          "type": "uint256"
        },
        {
          "indexed": false,
          "internalType": "address",
          "name": "receiver",
          "type": "address"
        },
        {
          "indexed": false,
          "internalType": "bytes32",
          "name": "debridgeId",
          "type": "bytes32"
        }
      ],
      "name": "Claimed",
      "type": "event"
    },
    {
      "anonymous": false,
      "inputs": [
        {
          "indexed": false,
          "internalType": "bytes32",
          "name": "submissionId",
          "type": "bytes32"
        },
        {
          "indexed": false,
          "internalType": "uint256",
          "name": "amount",
          "type": "uint256"
        },
        {
          "indexed": false,
          "internalType": "address",
          "name": "receiver",
          "type": "address"
        },
        {
          "indexed": false,
          "internalType": "bytes32",
          "name": "debridgeId",
          "type": "bytes32"
        }
      ],
      "name": "Minted",
      "type": "event"
    },
    {
      "anonymous": false,
      "inputs": [
        {
          "indexed": true,
          "internalType": "bytes32",
          "name": "debridgeId",
          "type": "bytes32"
        },
        {
          "indexed": true,
          "internalType": "address",
          "name": "tokenAddress",
          "type": "address"
        },
        {
          "indexed": true,
          "internalType": "uint256",
          "name": "chainId",
          "type": "uint256"
        },
        {
          "indexed": false,
          "internalType": "uint256",
          "name": "minAmount",
          "type": "uint256"
        },
        {
          "indexed": false,
          "internalType": "uint256",
          "name": "fixedFee",
          "type": "uint256"
        },
        {
          "indexed": false,
          "internalType": "uint256",
          "name": "transferFee",
          "type": "uint256"
        },
        {
          "indexed": false,
          "internalType": "uint256",
          "name": "minReserves",
          "type": "uint256"
        }
      ],
      "name": "PairAdded",
      "type": "event"
    },
    {
      "anonymous": false,
      "inputs": [
        {
          "indexed": false,
          "internalType": "address",
          "name": "account",
          "type": "address"
        }
      ],
      "name": "Paused",
      "type": "event"
    },
    {
      "anonymous": false,
      "inputs": [
        {
          "indexed": true,
          "internalType": "bytes32",
          "name": "role",
          "type": "bytes32"
        },
        {
          "indexed": true,
          "internalType": "bytes32",
          "name": "previousAdminRole",
          "type": "bytes32"
        },
        {
          "indexed": true,
          "internalType": "bytes32",
          "name": "newAdminRole",
          "type": "bytes32"
        }
      ],
      "name": "RoleAdminChanged",
      "type": "event"
    },
    {
      "anonymous": false,
      "inputs": [
        {
          "indexed": true,
          "internalType": "bytes32",
          "name": "role",
          "type": "bytes32"
        },
        {
          "indexed": true,
          "internalType": "address",
          "name": "account",
          "type": "address"
        },
        {
          "indexed": true,
          "internalType": "address",
          "name": "sender",
          "type": "address"
        }
      ],
      "name": "RoleGranted",
      "type": "event"
    },
    {
      "anonymous": false,
      "inputs": [
        {
          "indexed": true,
          "internalType": "bytes32",
          "name": "role",
          "type": "bytes32"
        },
        {
          "indexed": true,
          "internalType": "address",
          "name": "account",
          "type": "address"
        },
        {
          "indexed": true,
          "internalType": "address",
          "name": "sender",
          "type": "address"
        }
      ],
      "name": "RoleRevoked",
      "type": "event"
    },
    {
      "anonymous": false,
      "inputs": [
        {
          "indexed": false,
          "internalType": "bytes32",
          "name": "submissionId",
          "type": "bytes32"
        },
        {
          "indexed": false,
          "internalType": "bytes32",
          "name": "debridgeId",
          "type": "bytes32"
        },
        {
          "indexed": false,
          "internalType": "uint256",
          "name": "amount",
          "type": "uint256"
        },
        {
          "indexed": false,
          "internalType": "address",
          "name": "receiver",
          "type": "address"
        },
        {
          "indexed": false,
          "internalType": "uint256",
          "name": "nonce",
          "type": "uint256"
        },
        {
          "indexed": false,
          "internalType": "uint256",
          "name": "chainIdTo",
          "type": "uint256"
        }
      ],
      "name": "Sent",
      "type": "event"
    },
    {
      "anonymous": false,
      "inputs": [
        {
          "indexed": false,
          "internalType": "address",
          "name": "account",
          "type": "address"
        }
      ],
      "name": "Unpaused",
      "type": "event"
    },
    {
      "inputs": [],
      "name": "DEFAULT_ADMIN_ROLE",
      "outputs": [
        {
          "internalType": "bytes32",
          "name": "",
          "type": "bytes32"
        }
      ],
      "stateMutability": "view",
      "type": "function"
    },
    {
      "inputs": [],
      "name": "DENOMINATOR",
      "outputs": [
        {
          "internalType": "uint256",
          "name": "",
          "type": "uint256"
        }
      ],
      "stateMutability": "view",
      "type": "function"
    },
    {
      "inputs": [
        {
          "internalType": "address",
          "name": "_tokenAddress",
          "type": "address"
        },
        {
          "internalType": "address",
          "name": "_wrappedAssetAddress",
          "type": "address"
        },
        {
          "internalType": "uint256",
          "name": "_chainId",
          "type": "uint256"
        },
        {
          "internalType": "uint256",
          "name": "_minAmount",
          "type": "uint256"
        },
        {
          "internalType": "uint256",
          "name": "_fixedFee",
          "type": "uint256"
        },
        {
          "internalType": "uint256",
          "name": "_transferFee",
          "type": "uint256"
        },
        {
          "internalType": "uint256",
          "name": "_minReserves",
          "type": "uint256"
        },
        {
          "internalType": "uint256[]",
          "name": "_supportedChainIds",
          "type": "uint256[]"
        }
      ],
      "name": "addExternalAsset",
      "outputs": [],
      "stateMutability": "nonpayable",
      "type": "function"
    },
    {
      "inputs": [
        {
          "internalType": "address",
          "name": "_tokenAddress",
          "type": "address"
        },
        {
          "internalType": "uint256",
          "name": "_minAmount",
          "type": "uint256"
        },
        {
          "internalType": "uint256",
          "name": "_fixedFee",
          "type": "uint256"
        },
        {
          "internalType": "uint256",
          "name": "_transferFee",
          "type": "uint256"
        },
        {
          "internalType": "uint256",
          "name": "_minReserves",
          "type": "uint256"
        },
        {
          "internalType": "uint256[]",
          "name": "_supportedChainIds",
          "type": "uint256[]"
        }
      ],
      "name": "addNativeAsset",
      "outputs": [],
      "stateMutability": "nonpayable",
      "type": "function"
    },
    {
      "inputs": [],
      "name": "aggregator",
      "outputs": [
        {
          "internalType": "address",
          "name": "",
          "type": "address"
        }
      ],
      "stateMutability": "view",
      "type": "function"
    },
    {
      "inputs": [],
      "name": "aggregatorVersion",
      "outputs": [
        {
          "internalType": "uint8",
          "name": "",
          "type": "uint8"
        }
      ],
      "stateMutability": "view",
      "type": "function"
    },
    {
      "inputs": [
        {
          "internalType": "bytes32",
          "name": "_debridgeId",
          "type": "bytes32"
        },
        {
          "internalType": "address",
          "name": "_receiver",
          "type": "address"
        },
        {
          "internalType": "uint256",
          "name": "_amount",
          "type": "uint256"
        },
        {
          "internalType": "uint256",
          "name": "_chainIdTo",
          "type": "uint256"
        }
      ],
      "name": "burn",
      "outputs": [],
      "stateMutability": "nonpayable",
      "type": "function"
    },
    {
      "inputs": [],
      "name": "chainId",
      "outputs": [
        {
          "internalType": "uint256",
          "name": "",
          "type": "uint256"
        }
      ],
      "stateMutability": "view",
      "type": "function"
    },
    {
      "inputs": [],
      "name": "defiController",
      "outputs": [
        {
          "internalType": "contract IDefiController",
          "name": "",
          "type": "address"
        }
      ],
      "stateMutability": "view",
      "type": "function"
    },
    {
      "inputs": [
        {
          "internalType": "address",
          "name": "_tokenAddress",
          "type": "address"
        }
      ],
      "name": "getBalance",
      "outputs": [
        {
          "internalType": "uint256",
          "name": "",
          "type": "uint256"
        }
      ],
      "stateMutability": "view",
      "type": "function"
    },
    {
      "inputs": [
        {
          "internalType": "bytes32",
          "name": "",
          "type": "bytes32"
        }
      ],
      "name": "getDebridge",
      "outputs": [
        {
          "internalType": "address",
          "name": "tokenAddress",
          "type": "address"
        },
        {
          "internalType": "uint256",
          "name": "chainId",
          "type": "uint256"
        },
        {
          "internalType": "uint256",
          "name": "minAmount",
          "type": "uint256"
        },
        {
          "internalType": "uint256",
          "name": "fixedFee",
          "type": "uint256"
        },
        {
          "internalType": "uint256",
          "name": "transferFee",
          "type": "uint256"
        },
        {
          "internalType": "uint256",
          "name": "collectedFees",
          "type": "uint256"
        },
        {
          "internalType": "uint256",
          "name": "balance",
          "type": "uint256"
        },
        {
          "internalType": "uint256",
          "name": "minReserves",
          "type": "uint256"
        }
      ],
      "stateMutability": "view",
      "type": "function"
    },
    {
      "inputs": [
        {
          "internalType": "uint256",
          "name": "_chainId",
          "type": "uint256"
        },
        {
          "internalType": "address",
          "name": "_tokenAddress",
          "type": "address"
        }
      ],
      "name": "getDebridgeId",
      "outputs": [
        {
          "internalType": "bytes32",
          "name": "",
          "type": "bytes32"
        }
      ],
      "stateMutability": "pure",
      "type": "function"
    },
    {
      "inputs": [
        {
          "internalType": "uint8",
          "name": "",
          "type": "uint8"
        }
      ],
      "name": "getOldAggregator",
      "outputs": [
        {
          "internalType": "address",
          "name": "aggregator",
          "type": "address"
        },
        {
          "internalType": "bool",
          "name": "isValid",
          "type": "bool"
        }
      ],
      "stateMutability": "view",
      "type": "function"
    },
    {
      "inputs": [
        {
          "internalType": "bytes32",
          "name": "role",
          "type": "bytes32"
        }
      ],
      "name": "getRoleAdmin",
      "outputs": [
        {
          "internalType": "bytes32",
          "name": "",
          "type": "bytes32"
        }
      ],
      "stateMutability": "view",
      "type": "function"
    },
    {
      "inputs": [
        {
          "internalType": "bytes32",
          "name": "_debridgeId",
          "type": "bytes32"
        },
        {
          "internalType": "uint256",
          "name": "_chainIdFrom",
          "type": "uint256"
        },
        {
          "internalType": "uint256",
          "name": "_chainIdTo",
          "type": "uint256"
        },
        {
          "internalType": "uint256",
          "name": "_amount",
          "type": "uint256"
        },
        {
          "internalType": "address",
          "name": "_receiver",
          "type": "address"
        },
        {
          "internalType": "uint256",
          "name": "_nonce",
          "type": "uint256"
        }
      ],
      "name": "getSubmisionId",
      "outputs": [
        {
          "internalType": "bytes32",
          "name": "",
          "type": "bytes32"
        }
      ],
      "stateMutability": "pure",
      "type": "function"
    },
    {
      "inputs": [
        {
          "internalType": "bytes32",
          "name": "_debridgeId",
          "type": "bytes32"
        }
      ],
      "name": "getSupportedChainIds",
      "outputs": [
        {
          "internalType": "uint256[]",
          "name": "",
          "type": "uint256[]"
        }
      ],
      "stateMutability": "view",
      "type": "function"
    },
    {
      "inputs": [
        {
          "internalType": "address",
          "name": "",
          "type": "address"
        }
      ],
      "name": "getUserNonce",
      "outputs": [
        {
          "internalType": "uint256",
          "name": "",
          "type": "uint256"
        }
      ],
      "stateMutability": "view",
      "type": "function"
    },
    {
      "inputs": [
        {
          "internalType": "bytes32",
          "name": "role",
          "type": "bytes32"
        },
        {
          "internalType": "address",
          "name": "account",
          "type": "address"
        }
      ],
      "name": "grantRole",
      "outputs": [],
      "stateMutability": "nonpayable",
      "type": "function"
    },
    {
      "inputs": [
        {
          "internalType": "bytes32",
          "name": "role",
          "type": "bytes32"
        },
        {
          "internalType": "address",
          "name": "account",
          "type": "address"
        }
      ],
      "name": "hasRole",
      "outputs": [
        {
          "internalType": "bool",
          "name": "",
          "type": "bool"
        }
      ],
      "stateMutability": "view",
      "type": "function"
    },
    {
      "inputs": [
        {
          "internalType": "bytes32",
          "name": "",
          "type": "bytes32"
        }
      ],
      "name": "isSubmissionUsed",
      "outputs": [
        {
          "internalType": "bool",
          "name": "",
          "type": "bool"
        }
      ],
      "stateMutability": "view",
      "type": "function"
    },
    {
      "inputs": [
        {
          "internalType": "uint8",
          "name": "_aggregatorVersion",
          "type": "uint8"
        },
        {
          "internalType": "bool",
          "name": "_isValid",
          "type": "bool"
        }
      ],
      "name": "manageOldAggregator",
      "outputs": [],
      "stateMutability": "nonpayable",
      "type": "function"
    },
    {
      "inputs": [],
      "name": "pause",
      "outputs": [],
      "stateMutability": "nonpayable",
      "type": "function"
    },
    {
      "inputs": [],
      "name": "paused",
      "outputs": [
        {
          "internalType": "bool",
          "name": "",
          "type": "bool"
        }
      ],
      "stateMutability": "view",
      "type": "function"
    },
    {
      "inputs": [
        {
          "internalType": "bytes32",
          "name": "role",
          "type": "bytes32"
        },
        {
          "internalType": "address",
          "name": "account",
          "type": "address"
        }
      ],
      "name": "renounceRole",
      "outputs": [],
      "stateMutability": "nonpayable",
      "type": "function"
    },
    {
      "inputs": [
        {
          "internalType": "address",
          "name": "_tokenAddress",
          "type": "address"
        },
        {
          "internalType": "uint256",
          "name": "_amount",
          "type": "uint256"
        }
      ],
      "name": "requestReserves",
      "outputs": [],
      "stateMutability": "nonpayable",
      "type": "function"
    },
    {
      "inputs": [
        {
          "internalType": "address",
          "name": "_tokenAddress",
          "type": "address"
        },
        {
          "internalType": "uint256",
          "name": "_amount",
          "type": "uint256"
        }
      ],
      "name": "returnReserves",
      "outputs": [],
      "stateMutability": "payable",
      "type": "function"
    },
    {
      "inputs": [
        {
          "internalType": "bytes32",
          "name": "role",
          "type": "bytes32"
        },
        {
          "internalType": "address",
          "name": "account",
          "type": "address"
        }
      ],
      "name": "revokeRole",
      "outputs": [],
      "stateMutability": "nonpayable",
      "type": "function"
    },
    {
      "inputs": [
        {
          "internalType": "bytes32",
          "name": "_debridgeId",
          "type": "bytes32"
        },
        {
          "internalType": "address",
          "name": "_receiver",
          "type": "address"
        },
        {
          "internalType": "uint256",
          "name": "_amount",
          "type": "uint256"
        },
        {
          "internalType": "uint256",
          "name": "_chainIdTo",
          "type": "uint256"
        }
      ],
      "name": "send",
      "outputs": [],
      "stateMutability": "payable",
      "type": "function"
    },
    {
      "inputs": [
        {
          "internalType": "address",
          "name": "_aggregator",
          "type": "address"
        }
      ],
      "name": "setAggregator",
      "outputs": [],
      "stateMutability": "nonpayable",
      "type": "function"
    },
    {
      "inputs": [
        {
          "internalType": "bytes32",
          "name": "_debridgeId",
          "type": "bytes32"
        },
        {
          "internalType": "uint256",
          "name": "_chainId",
          "type": "uint256"
        },
        {
          "internalType": "bool",
          "name": "_isSupported",
          "type": "bool"
        }
      ],
      "name": "setChainIdSupport",
      "outputs": [],
      "stateMutability": "nonpayable",
      "type": "function"
    },
    {
      "inputs": [
        {
          "internalType": "contract IDefiController",
          "name": "_defiController",
          "type": "address"
        }
      ],
      "name": "setDefiController",
      "outputs": [],
      "stateMutability": "nonpayable",
      "type": "function"
    },
    {
      "inputs": [
        {
          "internalType": "bytes4",
          "name": "interfaceId",
          "type": "bytes4"
        }
      ],
      "name": "supportsInterface",
      "outputs": [
        {
          "internalType": "bool",
          "name": "",
          "type": "bool"
        }
      ],
      "stateMutability": "view",
      "type": "function"
    },
    {
      "inputs": [],
      "name": "unpause",
      "outputs": [],
      "stateMutability": "nonpayable",
      "type": "function"
    },
    {
      "inputs": [
        {
          "internalType": "bytes32",
          "name": "_debridgeId",
          "type": "bytes32"
        },
        {
          "internalType": "uint256",
          "name": "_minAmount",
          "type": "uint256"
        },
        {
          "internalType": "uint256",
          "name": "_fixedFee",
          "type": "uint256"
        },
        {
          "internalType": "uint256",
          "name": "_transferFee",
          "type": "uint256"
        },
        {
          "internalType": "uint256",
          "name": "_minReserves",
          "type": "uint256"
        }
      ],
      "name": "updateAsset",
      "outputs": [],
      "stateMutability": "nonpayable",
      "type": "function"
    },
    {
      "inputs": [
        {
          "internalType": "bytes32",
          "name": "_debridgeId",
          "type": "bytes32"
        },
        {
          "internalType": "address",
          "name": "_receiver",
          "type": "address"
        },
        {
          "internalType": "uint256",
          "name": "_amount",
          "type": "uint256"
        }
      ],
      "name": "withdrawFee",
      "outputs": [],
      "stateMutability": "nonpayable",
      "type": "function"
    },
    {
      "inputs": [
        {
          "internalType": "uint256",
          "name": "_minAmount",
          "type": "uint256"
        },
        {
          "internalType": "uint256",
          "name": "_fixedFee",
          "type": "uint256"
        },
        {
          "internalType": "uint256",
          "name": "_transferFee",
          "type": "uint256"
        },
        {
          "internalType": "uint256",
          "name": "_minReserves",
          "type": "uint256"
        },
        {
          "internalType": "address",
          "name": "_aggregator",
          "type": "address"
        },
        {
          "internalType": "uint256[]",
          "name": "_supportedChainIds",
          "type": "uint256[]"
        },
        {
          "internalType": "contract IDefiController",
          "name": "_defiController",
          "type": "address"
        }
      ],
      "name": "initialize",
      "outputs": [],
      "stateMutability": "payable",
      "type": "function"
    },
    {
      "inputs": [
        {
          "internalType": "bytes32",
          "name": "_debridgeId",
          "type": "bytes32"
        },
        {
          "internalType": "uint256",
          "name": "_chainIdFrom",
          "type": "uint256"
        },
        {
          "internalType": "address",
          "name": "_receiver",
          "type": "address"
        },
        {
          "internalType": "uint256",
          "name": "_amount",
          "type": "uint256"
        },
        {
          "internalType": "uint256",
          "name": "_nonce",
          "type": "uint256"
        },
        {
          "internalType": "bytes[2][]",
          "name": "_trxData",
          "type": "bytes[2][]"
        }
      ],
      "name": "mint",
      "outputs": [],
      "stateMutability": "nonpayable",
      "type": "function"
    },
    {
      "inputs": [
        {
          "internalType": "bytes32",
          "name": "_debridgeId",
          "type": "bytes32"
        },
        {
          "internalType": "uint256",
          "name": "_chainIdFrom",
          "type": "uint256"
        },
        {
          "internalType": "address",
          "name": "_receiver",
          "type": "address"
        },
        {
          "internalType": "uint256",
          "name": "_amount",
          "type": "uint256"
        },
        {
          "internalType": "uint256",
          "name": "_nonce",
          "type": "uint256"
        },
        {
          "internalType": "bytes[2][]",
          "name": "_trxData",
          "type": "bytes[2][]"
        },
        {
          "internalType": "uint8",
          "name": "_aggregatorVersion",
          "type": "uint8"
        }
      ],
      "name": "mintWithOldAggregator",
      "outputs": [],
      "stateMutability": "nonpayable",
      "type": "function"
    },
    {
      "inputs": [
        {
          "internalType": "bytes32",
          "name": "_debridgeId",
          "type": "bytes32"
        },
        {
          "internalType": "uint256",
          "name": "_chainIdFrom",
          "type": "uint256"
        },
        {
          "internalType": "address",
          "name": "_receiver",
          "type": "address"
        },
        {
          "internalType": "uint256",
          "name": "_amount",
          "type": "uint256"
        },
        {
          "internalType": "uint256",
          "name": "_nonce",
          "type": "uint256"
        },
        {
          "internalType": "bytes[2][]",
          "name": "_trxData",
          "type": "bytes[2][]"
        }
      ],
      "name": "claim",
      "outputs": [],
      "stateMutability": "nonpayable",
      "type": "function"
    },
    {
      "inputs": [
        {
          "internalType": "bytes32",
          "name": "_debridgeId",
          "type": "bytes32"
        },
        {
          "internalType": "uint256",
          "name": "_chainIdFrom",
          "type": "uint256"
        },
        {
          "internalType": "address",
          "name": "_receiver",
          "type": "address"
        },
        {
          "internalType": "uint256",
          "name": "_amount",
          "type": "uint256"
        },
        {
          "internalType": "uint256",
          "name": "_nonce",
          "type": "uint256"
        },
        {
          "internalType": "bytes[2][]",
          "name": "_trxData",
          "type": "bytes[2][]"
        },
        {
          "internalType": "uint8",
          "name": "_aggregatorVersion",
          "type": "uint8"
        }
      ],
      "name": "claimWithOldAggregator",
      "outputs": [],
      "stateMutability": "nonpayable",
      "type": "function"
    }
  ],
  "bytecode": "0x608060405234801561001057600080fd5b50613394806100206000396000f3fe60806040526004361061023b5760003560e01c8063791c4a371161012e578063a217fddf116100ab578063d311f6561161006f578063d311f6561461078f578063d385a6bf146107c2578063d547741f146107e2578063f8b2cb4f14610802578063f9120af6146108225761023b565b8063a217fddf146106fa578063accf708b1461070f578063be7f21841461072f578063bf3d73411461074f578063c012ce7f1461076f5761023b565b8063918f8674116100f2578063918f86741461066857806391d14854146106845780639682b909146106a4578063994f3aef146106c45780639a8a0592146106e45761023b565b8063791c4a371461058557806383d3f95d146105a5578063841b162b146105c55780638456cb59146106265780638a2034cc1461063b5761023b565b80635352e983116101bc5780636834e3a8116101805780636834e3a8146104f257806369fad9b81461051f5780636b063d651461053f5780636b7cbb691461055257806378e17e2e146105725761023b565b80635352e983146103b557806357cf07ca146103d55780635c975abb1461048357806365ac9f78146104a257806365f3b0c7146104d25761023b565b8063248a9ca311610203578063248a9ca3146103025780632f2ff15d1461034057806336568abe146103605780633f4ba83a1461038057806346144c8f146103955761023b565b806301ffc9a714610240578063031ac613146102755780630a0e5e9a1461028a578063106f432f146102aa578063245a7bfc146102ca575b600080fd5b34801561024c57600080fd5b5061026061025b366004612f2a565b610842565b60405190151581526020015b60405180910390f35b610288610283366004612d22565b61087b565b005b34801561029657600080fd5b506102886102a5366004612e64565b610bba565b3480156102b657600080fd5b506102886102c5366004612b3d565b610c7a565b3480156102d657600080fd5b506003546102ea906001600160a01b031681565b6040516001600160a01b03909116815260200161026c565b34801561030e57600080fd5b5061033261031d366004612ca4565b60009081526020819052604090206001015490565b60405190815260200161026c565b34801561034c57600080fd5b5061028861035b366004612cbc565b610cc3565b34801561036c57600080fd5b5061028861037b366004612cbc565b610d52565b34801561038c57600080fd5b50610288610dcc565b3480156103a157600080fd5b506004546102ea906001600160a01b031681565b3480156103c157600080fd5b506102886103d0366004612d22565b610e52565b3480156103e157600080fd5b5061043e6103f0366004612ca4565b6005602081905260009182526040909120805460018201546002830154600384015460048501549585015460068601546007909601546001600160a01b039095169693959294919392909188565b604080516001600160a01b0390991689526020890197909752958701949094526060860192909252608085015260a084015260c083015260e08201526101000161026c565b34801561048f57600080fd5b5061026060015462010000900460ff1690565b3480156104ae57600080fd5b506102606104bd366004612ca4565b60066020526000908152604090205460ff1681565b3480156104de57600080fd5b506102886104ed366004612ef0565b611180565b3480156104fe57600080fd5b5061033261050d366004612b3d565b60076020526000908152604090205481565b34801561052b57600080fd5b5061028861053a366004612c15565b6111d1565b61028861054d366004612bea565b611223565b34801561055e57600080fd5b5061028861056d36600461300d565b6112c5565b610288610580366004612f6a565b611388565b34801561059157600080fd5b506102886105a0366004612d5e565b611459565b3480156105b157600080fd5b506102886105c0366004612ceb565b611541565b3480156105d157600080fd5b506106076105e0366004612ff3565b6008602052600090815260409020546001600160a01b03811690600160a01b900460ff1682565b604080516001600160a01b03909316835290151560208301520161026c565b34801561063257600080fd5b50610288611659565b34801561064757600080fd5b5061065b610656366004612ca4565b6116b7565b60405161026c919061307e565b34801561067457600080fd5b50610332670de0b6b3a764000081565b34801561069057600080fd5b5061026061069f366004612cbc565b61171c565b3480156106b057600080fd5b506103326106bf366004612cbc565b611745565b3480156106d057600080fd5b506102886106df366004612dd9565b611793565b3480156106f057600080fd5b5061033260025481565b34801561070657600080fd5b50610332600081565b34801561071b57600080fd5b5061028861072a366004612b59565b611924565b34801561073b57600080fd5b5061028861074a366004612bea565b611974565b34801561075b57600080fd5b5061033261076a366004612e9c565b611b04565b34801561077b57600080fd5b5061028861078a366004612dd9565b611b62565b34801561079b57600080fd5b506003546107b090600160a01b900460ff1681565b60405160ff909116815260200161026c565b3480156107ce57600080fd5b506102886107dd366004612d5e565b611ce5565b3480156107ee57600080fd5b506102886107fd366004612cbc565b611dcc565b34801561080e57600080fd5b5061033261081d366004612b3d565b611e4c565b34801561082e57600080fd5b5061028861083d366004612b3d565b611ee1565b60006001600160e01b03198216637965db0b60e01b148061087357506301ffc9a760e01b6001600160e01b03198316145b90505b919050565b61088d60015462010000900460ff1690565b156108b35760405162461bcd60e51b81526004016108aa906131e0565b60405180910390fd5b600084815260056020526040902060025460018201541461090f5760405162461bcd60e51b815260206004820152601660248201527539b2b7321d103737ba103730ba34bb329031b430b4b760511b60448201526064016108aa565b600082815260098201602052604090205460ff1661096f5760405162461bcd60e51b815260206004820152601860248201527f73656e643a2077726f6e672074617267656420636861696e000000000000000060448201526064016108aa565b80600201548310156109ba5760405162461bcd60e51b815260206004820152601460248201527373656e643a20616d6f756e7420746f6f206c6f7760601b60448201526064016108aa565b80546001600160a01b0316610a1557348314610a105760405162461bcd60e51b81526020600482015260156024820152740e6cadcc87440c2dadeeadce840dad2e6dac2e8c6d605b1b60448201526064016108aa565b610a2c565b8054610a2c906001600160a01b0316333086611fab565b6000670de0b6b3a7640000826004015485610a47919061326f565b610a51919061324f565b8260030154610a609190613237565b90508015610adf5780841015610ab85760405162461bcd60e51b815260206004820152601b60248201527f73656e643a20616d6f756e74206e6f7420636f7665722066656573000000000060448201526064016108aa565b80826005016000828254610acc9190613237565b90915550610adc9050818561328e565b93505b83826006016000828254610af39190613237565b90915550506001600160a01b038516600090815260076020526040812054600254909190610b2690899087898b87611b04565b60408051828152602081018b90529081018890526001600160a01b03891660608201526080810184905260a081018790529091507f17c61cb89b62a3f29f5b150e3489c7a796ac4dc95fd73af14faa2c8086a324b49060c00160405180910390a16001600160a01b0387166000908152600760205260408120805491610bab836132d1565b91905055505050505050505050565b610bc560003361171c565b610be15760405162461bcd60e51b81526004016108aa9061320a565b600083815260056020908152604080832085845260098101909252909120805460ff19168315801591909117909155610c4657604051839085907fdd4dbf80f57aa5115a1e07abb36e4de565879d4de5bd15b3803d666fe1d8486390600090a3610c74565b604051839085907f86c512831f7a2aad3f56b4169c161be1028776ab950c72e26237a0310ded560690600090a35b50505050565b610c8560003361171c565b610ca15760405162461bcd60e51b81526004016108aa9061320a565b600480546001600160a01b0319166001600160a01b0392909216919091179055565b600082815260208190526040902060010154610ce0905b3361069f565b610d445760405162461bcd60e51b815260206004820152602f60248201527f416363657373436f6e74726f6c3a2073656e646572206d75737420626520616e60448201526e0818591b5a5b881d1bc819dc985b9d608a1b60648201526084016108aa565b610d4e8282612016565b5050565b6001600160a01b0381163314610dc25760405162461bcd60e51b815260206004820152602f60248201527f416363657373436f6e74726f6c3a2063616e206f6e6c792072656e6f756e636560448201526e103937b632b9903337b91039b2b63360891b60648201526084016108aa565b610d4e828261209a565b610dd760003361171c565b610df35760405162461bcd60e51b81526004016108aa9061320a565b610e0560015462010000900460ff1690565b610e485760405162461bcd60e51b815260206004820152601460248201527314185d5cd8589b194e881b9bdd081c185d5cd95960621b60448201526064016108aa565b610e506120ff565b565b610e6460015462010000900460ff1690565b15610e815760405162461bcd60e51b81526004016108aa906131e0565b600084815260056020526040902060025460018201541415610eda5760405162461bcd60e51b8152602060048201526012602482015271189d5c9b8e881b985d1a5d9948185cdcd95d60721b60448201526064016108aa565b8060020154831015610f255760405162461bcd60e51b81526020600482015260146024820152736275726e3a20616d6f756e7420746f6f206c6f7760601b60448201526064016108aa565b80546040516323b872dd60e01b8152336004820152306024820152604481018590526001600160a01b039091169081906323b872dd90606401602060405180830381600087803b158015610f7857600080fd5b505af1158015610f8c573d6000803e3d6000fd5b505050506040513d601f19601f82011682018060405250810190610fb09190612c88565b506000670de0b6b3a7640000836004015486610fcc919061326f565b610fd6919061324f565b8360030154610fe59190613237565b90508015611064578085101561103d5760405162461bcd60e51b815260206004820152601b60248201527f6275726e3a20616d6f756e74206e6f7420636f7665722066656573000000000060448201526064016108aa565b808360050160008282546110519190613237565b909155506110619050818661328e565b94505b604051630852cd8d60e31b8152600481018690526001600160a01b038316906342966c6890602401600060405180830381600087803b1580156110a657600080fd5b505af11580156110ba573d6000803e3d6000fd5b5050506001600160a01b0387166000908152600760205260408120546002549092506110eb908a90888a8c87611b04565b60408051828152602081018c90529081018990526001600160a01b038a1660608201526080810184905260a081018890529091507fb8cc5195d548dc2781227c496b92d3736cd56d7f32b28971c9ae1e9eb0badf959060c00160405180910390a16001600160a01b0388166000908152600760205260408120805491611170836132d1565b9190505550505050505050505050565b61118b60003361171c565b6111a75760405162461bcd60e51b81526004016108aa9061320a565b60009485526005602052604090942060028101939093556003830191909155600482015560070155565b6111dc60003361171c565b6111f85760405162461bcd60e51b81526004016108aa9061320a565b600061120660025488611745565b905061121a81886002548989898989612196565b50505050505050565b6004546001600160a01b031633146112785760405162461bcd60e51b815260206004820152601860248201527764656669436f6e74726f6c6c65723a2062616420726f6c6560401b60448201526064016108aa565b600061128660025484611745565b60008181526005602052604090208054919250906001600160a01b031615610c74576004548154610c74916001600160a01b0391821691163086611fab565b6112d060003361171c565b6112ec5760405162461bcd60e51b81526004016108aa9061320a565b60035460ff600160a01b9091048116908316106113595760405162461bcd60e51b815260206004820152602560248201527f6d616e6167654f6c6441676772656761746f723a2076657273696f6e20746f6f604482015264040d0d2ced60db1b60648201526084016108aa565b60ff90911660009081526008602052604090208054911515600160a01b0260ff60a01b19909216919091179055565b600154610100900460ff16806113a1575060015460ff16155b6114045760405162461bcd60e51b815260206004820152602e60248201527f496e697469616c697a61626c653a20636f6e747261637420697320616c72656160448201526d191e481a5b9a5d1a585b1a5e995960921b60648201526084016108aa565b600154610100900460ff1615801561142e576001805460ff1961ff00199091166101001716811790555b61143d888888888888886122ef565b801561144f576001805461ff00191690555b5050505050505050565b600061146b8888600254888a89611b04565b600354604051631e49005360e11b81529192506001600160a01b031690633c9200a6906114a0908490879087906004016130c2565b602060405180830381600087803b1580156114ba57600080fd5b505af11580156114ce573d6000803e3d6000fd5b505050506040513d601f19601f820116820180604052508101906114f29190612c88565b6115355760405162461bcd60e51b815260206004820152601460248201527318db185a5b4e881b9bdd0818dbdb999a5c9b595960621b60448201526064016108aa565b61144f81898888612347565b61154c60003361171c565b6115685760405162461bcd60e51b81526004016108aa9061320a565b6000838152600560208190526040909120908101548211156115cc5760405162461bcd60e51b815260206004820152601b60248201527f77697468647261774665653a206e6f7420656e6f75676820666565000000000060448201526064016108aa565b818160050160008282546115e0919061328e565b90915550506002546001820154148015611602575080546001600160a01b0316155b15611643576040516001600160a01b0384169083156108fc029084906000818181858888f1935050505015801561163d573d6000803e3d6000fd5b50610c74565b8054610c74906001600160a01b031684846124f8565b61166460003361171c565b6116805760405162461bcd60e51b81526004016108aa9061320a565b61169260015462010000900460ff1690565b156116af5760405162461bcd60e51b81526004016108aa906131e0565b610e5061252d565b60008181526005602090815260409182902060080180548351818402810184019094528084526060939283018282801561171057602002820191906000526020600020905b8154815260200190600101908083116116fc575b50505050509050919050565b6000918252602082815260408084206001600160a01b0393909316845291905290205460ff1690565b6000828260405160200161177592919091825260601b6bffffffffffffffffffffffff1916602082015260340190565b60405160208183030381529060405280519060200120905092915050565b60006117a58989600254898b8a611b04565b60ff8084166000908152600860209081526040918290208251808401909352546001600160a01b0381168352600160a01b900490921615159181018290529192506118445760405162461bcd60e51b815260206004820152602960248201527f6d696e74576974684f6c6441676772656761746f723a20696e76616c6964206160448201526833b3b932b3b0ba37b960b91b60648201526084016108aa565b8051604051631e49005360e11b81526001600160a01b0390911690633c9200a690611877908590899089906004016130c2565b602060405180830381600087803b15801561189157600080fd5b505af11580156118a5573d6000803e3d6000fd5b505050506040513d601f19601f820116820180604052508101906118c99190612c88565b61190c5760405162461bcd60e51b815260206004820152601460248201527318db185a5b4e881b9bdd0818dbdb999a5c9b595960621b60448201526064016108aa565b611918828b8a8a612347565b50505050505050505050565b61192f60003361171c565b61194b5760405162461bcd60e51b81526004016108aa9061320a565b6000611957878a611745565b90506119698189898989898989612196565b505050505050505050565b6004546001600160a01b031633146119c95760405162461bcd60e51b815260206004820152601860248201527764656669436f6e74726f6c6c65723a2062616420726f6c6560401b60448201526064016108aa565b60006119d760025484611745565b6000818152600560205260408120600781015460068201549394509092670de0b6b3a764000091611a079161326f565b611a11919061324f565b8254909150600090611a2b906001600160a01b0316611e4c565b905080611a388684613237565b11611a915760405162461bcd60e51b8152602060048201526024808201527f7265717565737452657365727665733a206e6f7420656e6f75676820726573656044820152637276657360e01b60648201526084016108aa565b82546001600160a01b0316611ae0576004546040516001600160a01b039091169086156108fc029087906000818181858888f19350505050158015611ada573d6000803e3d6000fd5b50611afc565b6004548354611afc916001600160a01b039182169116876124f8565b505050505050565b60408051602080820198909852808201969096526060808701959095526080860193909352921b6bffffffffffffffffffffffff191660a084015260b4808401929092528051808403909201825260d4909201909152805191012090565b6000611b748989600254898b8a611b04565b60ff8084166000908152600860209081526040918290208251808401909352546001600160a01b0381168352600160a01b90049092161515918101829052919250611c125760405162461bcd60e51b815260206004820152602860248201527f6d696e74576974684f6c6441676772656761746f723a20696e76616c6964416760448201526733b932b3b0ba37b960c11b60648201526084016108aa565b8051604051631e49005360e11b81526001600160a01b0390911690633c9200a690611c45908590899089906004016130c2565b602060405180830381600087803b158015611c5f57600080fd5b505af1158015611c73573d6000803e3d6000fd5b505050506040513d601f19601f82011682018060405250810190611c979190612c88565b611cd95760405162461bcd60e51b81526020600482015260136024820152721b5a5b9d0e881b9bdd0818dbdb999a5c9b5959606a1b60448201526064016108aa565b611918828b8a8a61259d565b6000611cf78888600254888a89611b04565b600354604051631e49005360e11b81529192506001600160a01b031690633c9200a690611d2c908490879087906004016130c2565b602060405180830381600087803b158015611d4657600080fd5b505af1158015611d5a573d6000803e3d6000fd5b505050506040513d601f19601f82011682018060405250810190611d7e9190612c88565b611dc05760405162461bcd60e51b81526020600482015260136024820152721b5a5b9d0e881b9bdd0818dbdb999a5c9b5959606a1b60448201526064016108aa565b61144f8189888861259d565b600082815260208190526040902060010154611de790610cda565b610dc25760405162461bcd60e51b815260206004820152603060248201527f416363657373436f6e74726f6c3a2073656e646572206d75737420626520616e60448201526f2061646d696e20746f207265766f6b6560801b60648201526084016108aa565b60006001600160a01b038216611e63575047610876565b6040516370a0823160e01b81523060048201526001600160a01b038316906370a082319060240160206040518083038186803b158015611ea257600080fd5b505afa158015611eb6573d6000803e3d6000fd5b505050506040513d601f19601f82011682018060405250810190611eda9190612f52565b9050610876565b611eec60003361171c565b611f085760405162461bcd60e51b81526004016108aa9061320a565b604080518082018252600380546001600160a01b0380821684526001602080860191825260ff600160a01b948590048116600090815260089092529690209451855491511515840260ff60a01b199184166001600160a01b0319938416179190911617909455825490861693169290921780825591909104909116906014611f8f836132ec565b91906101000a81548160ff021916908360ff1602179055505050565b6040516001600160a01b0380851660248301528316604482015260648101829052610c749085906323b872dd60e01b906084015b60408051601f198184030181529190526020810180516001600160e01b03166001600160e01b03199093169290921790915261271e565b612020828261171c565b610d4e576000828152602081815260408083206001600160a01b03851684529091529020805460ff191660011790556120563390565b6001600160a01b0316816001600160a01b0316837f2f8788117e7eff1d82e926ec794901d17c78024a50270940304540a733656f0d60405160405180910390a45050565b6120a4828261171c565b15610d4e576000828152602081815260408083206001600160a01b0385168085529252808320805460ff1916905551339285917ff6391f5c32d9c69d2a47ea670b442974b53935d1edc7fd64eb21e047a839171b9190a45050565b61211160015462010000900460ff1690565b6121545760405162461bcd60e51b815260206004820152601460248201527314185d5cd8589b194e881b9bdd081c185d5cd95960621b60448201526064016108aa565b6001805462ff0000191690556040513381527f5db9ee0a495bf2e6ff9c91a7834c1ba4fdd244a5e8aa4e537bd38aeae4b073aa906020015b60405180910390a1565b600088815260056020526040812080546001600160a01b0319166001600160a01b038a16178155600181018890556002810187905560038101869055600481018590556007810184905590805b835181101561228b5783818151811061220c57634e487b7160e01b600052603260045260246000fd5b60209081029190910181015160008181526009860183526040808220805460ff1916600190811790915560088801805491820181558352938220909301829055915190935083918d917fdd4dbf80f57aa5115a1e07abb36e4de565879d4de5bd15b3803d666fe1d848639190a380612283816132d1565b9150506121e3565b5060408051888152602081018890529081018690526060810185905288906001600160a01b038b16908c907fd942912aeb558da46e785c7a8abcd48c74853b5c29c54a9a350a389d9d2345549060800160405180910390a450505050505050505050565b46600281905560006123018282611745565b90506123168160006002548c8c8c8c8b612196565b600380546001600160a01b0319166001600160a01b0387811691909117909155600454169250611969600033610d44565b60008381526005602052604090206002546001820154146123aa5760405162461bcd60e51b815260206004820152601960248201527f636c61696d3a2077726f6e672074617267657420636861696e0000000000000060448201526064016108aa565b60008581526006602052604090205460ff16156123ff5760405162461bcd60e51b815260206004820152601360248201527218db185a5b4e88185b1c9958591e481d5cd959606a1b60448201526064016108aa565b60008581526006602081905260408220805460ff191660011790558201805484929061242c90849061328e565b9091555061243c905081836127f0565b80546001600160a01b0316612487576040516001600160a01b0384169083156108fc029084906000818181858888f19350505050158015612481573d6000803e3d6000fd5b5061249d565b805461249d906001600160a01b031684846124f8565b60408051868152602081018490526001600160a01b03851691810191909152606081018590527fabe3bed2a8590dd123c1a018888bce6142d526741bed65dfe570fb223525c6a4906080015b60405180910390a15050505050565b6040516001600160a01b03831660248201526044810182905261252890849063a9059cbb60e01b90606401611fdf565b505050565b61253f60015462010000900460ff1690565b1561255c5760405162461bcd60e51b81526004016108aa906131e0565b6001805462ff00001916620100001790556040513381527f62e78cea01bee320cd4e420270b5ea74000d11b0c9f74754ebdbfc544b05a2589060200161218c565b60008481526006602052604090205460ff16156125f15760405162461bcd60e51b81526020600482015260126024820152711b5a5b9d0e88185b1c9958591e481d5cd95960721b60448201526064016108aa565b60008381526005602090815260408083208784526006909252909120805460ff191660019081179091556002549082015414156126685760405162461bcd60e51b815260206004820152601560248201527436b4b73a1d1034b9903730ba34bb329031b430b4b760591b60448201526064016108aa565b80546040516340c10f1960e01b81526001600160a01b03858116600483015260248201859052909116906340c10f1990604401600060405180830381600087803b1580156126b557600080fd5b505af11580156126c9573d6000803e3d6000fd5b505060408051888152602081018690526001600160a01b03871691810191909152606081018790527f5918a95fd00afb5898499bd5beade1619e98655d2b4ff6e0f6a4347f0a69c127925060800190506124e9565b6000612773826040518060400160405280602081526020017f5361666545524332303a206c6f772d6c6576656c2063616c6c206661696c6564815250856001600160a01b03166128cc9092919063ffffffff16565b80519091501561252857808060200190518101906127919190612c88565b6125285760405162461bcd60e51b815260206004820152602a60248201527f5361666545524332303a204552433230206f7065726174696f6e20646964206e6044820152691bdd081cdd58d8d9595960b21b60648201526084016108aa565b6000670de0b6b3a76400008360070154846006015461280f919061326f565b612819919061324f565b8354909150600090612833906001600160a01b0316611e4c565b905060008383116128445783612846565b825b9050818111156128c55761285a828261328e565b6004805487546040516309e62b9160e01b81526001600160a01b03918216938101939093526024830184905292935091909116906309e62b9190604401600060405180830381600087803b1580156128b157600080fd5b505af1158015611969573d6000803e3d6000fd5b5050505050565b60606128db84846000856128e5565b90505b9392505050565b6060824710156129465760405162461bcd60e51b815260206004820152602660248201527f416464726573733a20696e73756666696369656e742062616c616e636520666f6044820152651c8818d85b1b60d21b60648201526084016108aa565b843b6129945760405162461bcd60e51b815260206004820152601d60248201527f416464726573733a2063616c6c20746f206e6f6e2d636f6e747261637400000060448201526064016108aa565b600080866001600160a01b031685876040516129b09190613062565b60006040518083038185875af1925050503d80600081146129ed576040519150601f19603f3d011682016040523d82523d6000602084013e6129f2565b606091505b5091509150612a02828286612a0d565b979650505050505050565b60608315612a1c5750816128de565b825115612a2c5782518084602001fd5b8160405162461bcd60e51b81526004016108aa91906131ad565b60008083601f840112612a57578081fd5b50813567ffffffffffffffff811115612a6e578182fd5b6020830191508360208083028501011115612a8857600080fd5b9250929050565b600082601f830112612a9f578081fd5b8135602067ffffffffffffffff80831115612abc57612abc613322565b818302604051601f19603f83011681018181108482111715612ae057612ae0613322565b60405284815283810192508684018288018501891015612afe578687fd5b8692505b85831015612b20578035845292840192600192909201918401612b02565b50979650505050505050565b803560ff8116811461087657600080fd5b600060208284031215612b4e578081fd5b81356128de81613338565b600080600080600080600080610100898b031215612b75578384fd5b8835612b8081613338565b97506020890135612b9081613338565b965060408901359550606089013594506080890135935060a0890135925060c0890135915060e089013567ffffffffffffffff811115612bce578182fd5b612bda8b828c01612a8f565b9150509295985092959890939650565b60008060408385031215612bfc578182fd5b8235612c0781613338565b946020939093013593505050565b60008060008060008060c08789031215612c2d578182fd5b8635612c3881613338565b95506020870135945060408701359350606087013592506080870135915060a087013567ffffffffffffffff811115612c6f578182fd5b612c7b89828a01612a8f565b9150509295509295509295565b600060208284031215612c99578081fd5b81516128de81613350565b600060208284031215612cb5578081fd5b5035919050565b60008060408385031215612cce578182fd5b823591506020830135612ce081613338565b809150509250929050565b600080600060608486031215612cff578283fd5b833592506020840135612d1181613338565b929592945050506040919091013590565b60008060008060808587031215612d37578384fd5b843593506020850135612d4981613338565b93969395505050506040820135916060013590565b600080600080600080600060c0888a031215612d78578081fd5b87359650602088013595506040880135612d9181613338565b9450606088013593506080880135925060a088013567ffffffffffffffff811115612dba578182fd5b612dc68a828b01612a46565b989b979a50959850939692959293505050565b60008060008060008060008060e0898b031215612df4578182fd5b88359750602089013596506040890135612e0d81613338565b9550606089013594506080890135935060a089013567ffffffffffffffff811115612e36578283fd5b612e428b828c01612a46565b9094509250612e55905060c08a01612b2c565b90509295985092959890939650565b600080600060608486031215612e78578081fd5b83359250602084013591506040840135612e9181613350565b809150509250925092565b60008060008060008060c08789031215612eb4578384fd5b863595506020870135945060408701359350606087013592506080870135612edb81613338565b8092505060a087013590509295509295509295565b600080600080600060a08688031215612f07578283fd5b505083359560208501359550604085013594606081013594506080013592509050565b600060208284031215612f3b578081fd5b81356001600160e01b0319811681146128de578182fd5b600060208284031215612f63578081fd5b5051919050565b600080600080600080600060e0888a031215612f84578081fd5b873596506020880135955060408801359450606088013593506080880135612fab81613338565b925060a088013567ffffffffffffffff811115612fc6578182fd5b612fd28a828b01612a8f565b92505060c0880135612fe381613338565b8091505092959891949750929550565b600060208284031215613004578081fd5b6128de82612b2c565b6000806040838503121561301f578182fd5b61302883612b2c565b91506020830135612ce081613350565b60008284528282602086013780602084860101526020601f19601f85011685010190509392505050565b600082516130748184602087016132a5565b9190910192915050565b6020808252825182820181905260009190848201906040850190845b818110156130b65783518352928401929184019160010161309a565b50909695505050505050565b6000604080830186845260208281860152818683526060860190506060828802870101925087855b8881101561319e57878503605f190183528135368b9003603e1901811261310f578788fd5b8a0185878101828a36829003601e19015b6002821015613186578a84038552823581811261313b578d8efd5b8601803567ffffffffffffffff811115613153578e8ffd5b803603881315613161578e8ffd5b61316e86828e8501613038565b968c0196955050509189019160019190910190613120565b509198505050938501935050908301906001016130ea565b50929998505050505050505050565b60006020825282518060208401526131cc8160408501602087016132a5565b601f01601f19169190910160400192915050565b60208082526010908201526f14185d5cd8589b194e881c185d5cd95960821b604082015260600190565b6020808252601390820152726f6e6c7941646d696e3a2062616420726f6c6560681b604082015260600190565b6000821982111561324a5761324a61330c565b500190565b60008261326a57634e487b7160e01b81526012600452602481fd5b500490565b60008160001904831182151516156132895761328961330c565b500290565b6000828210156132a0576132a061330c565b500390565b60005b838110156132c05781810151838201526020016132a8565b83811115610c745750506000910152565b60006000198214156132e5576132e561330c565b5060010190565b600060ff821660ff8114156133035761330361330c565b60010192915050565b634e487b7160e01b600052601160045260246000fd5b634e487b7160e01b600052604160045260246000fd5b6001600160a01b038116811461334d57600080fd5b50565b801515811461334d57600080fdfea2646970667358221220434311e9a9e3f0e0024209a4482489fdf57bce86935007f5606b73ca85b327b064736f6c63430008020033",
  "immutableReferences": {},
  "source": "// SPDX-License-Identifier: MIT\npragma solidity ^0.8.2;\n\nimport \"@openzeppelin/contracts/token/ERC20/IERC20.sol\";\nimport \"@openzeppelin/contracts/token/ERC20/utils/SafeERC20.sol\";\nimport \"../interfaces/IWhiteLightAggregator.sol\";\nimport \"../interfaces/IWhiteLightDebridge.sol\";\nimport \"./WhiteDebridge.sol\";\n\ncontract WhiteLightDebridge is WhiteDebridge, IWhiteLightDebridge {\n    using SafeERC20 for IERC20;\n\n    /// @dev Constructor that initializes the most important configurations.\n    /// @param _minAmount Minimal amount of current chain token to be wrapped.\n    /// @param _fixedFee Fixed transfer fee rate.\n    /// @param _transferFee Transfer fee rate.\n    /// @param _minReserves Minimal reserve ratio.\n    /// @param _aggregator Submission aggregator address.\n    /// @param _supportedChainIds Chain ids where native token of the current chain can be wrapped.\n    function initialize(\n        uint256 _minAmount,\n        uint256 _fixedFee,\n        uint256 _transferFee,\n        uint256 _minReserves,\n        address _aggregator,\n        uint256[] memory _supportedChainIds,\n        IDefiController _defiController\n    ) public payable initializer {\n        super._initialize(\n            _minAmount,\n            _fixedFee,\n            _transferFee,\n            _minReserves,\n            _aggregator,\n            _supportedChainIds,\n            _defiController\n        );\n    }\n\n    /// @dev Mints wrapped asset on the current chain.\n    /// @param _debridgeId Asset identifier.\n    /// @param _receiver Receiver address.\n    /// @param _amount Amount of the transfered asset (note: without applyed fee).\n    /// @param _nonce Submission id.\n    /// @param _trxData Array of transactions by oracles of 2 elements - payload up to the receiver address and the signature bytes.\n    function mint(\n        bytes32 _debridgeId,\n        uint256 _chainIdFrom,\n        address _receiver,\n        uint256 _amount,\n        uint256 _nonce,\n        bytes[2][] calldata _trxData\n    ) external override {\n        bytes32 submissionId =\n            getSubmisionId(\n                _debridgeId,\n                _chainIdFrom,\n                chainId,\n                _amount,\n                _receiver,\n                _nonce\n            );\n        require(\n            IWhiteLightAggregator(aggregator).submit(submissionId, _trxData),\n            \"mint: not confirmed\"\n        );\n        _mint(submissionId, _debridgeId, _receiver, _amount);\n    }\n\n    /// @dev Mints wrapped asset on the current chain.\n    /// @param _debridgeId Asset identifier.\n    /// @param _receiver Receiver address.\n    /// @param _amount Amount of the transfered asset (note: without applyed fee).\n    /// @param _nonce Submission id.\n    /// @param _trxData Array of transactions by oracles of 2 elements - payload up to the receiver address and the signature bytes.\n    /// @param _aggregatorVersion Aggregator version.\n    function mintWithOldAggregator(\n        bytes32 _debridgeId,\n        uint256 _chainIdFrom,\n        address _receiver,\n        uint256 _amount,\n        uint256 _nonce,\n        bytes[2][] calldata _trxData,\n        uint8 _aggregatorVersion\n    ) external override {\n        bytes32 submissionId =\n            getSubmisionId(\n                _debridgeId,\n                _chainIdFrom,\n                chainId,\n                _amount,\n                _receiver,\n                _nonce\n            );\n        AggregatorInfo memory aggregatorInfo =\n            getOldAggregator[_aggregatorVersion];\n        require(\n            aggregatorInfo.isValid,\n            \"mintWithOldAggregator: invalidAggregator\"\n        );\n        require(\n            IWhiteLightAggregator(aggregatorInfo.aggregator).submit(\n                submissionId,\n                _trxData\n            ),\n            \"mint: not confirmed\"\n        );\n        _mint(submissionId, _debridgeId, _receiver, _amount);\n    }\n\n    /// @dev Unlock the asset on the current chain and transfer to receiver.\n    /// @param _debridgeId Asset identifier.\n    /// @param _receiver Receiver address.\n    /// @param _amount Amount of the transfered asset (note: the fee can be applyed).\n    /// @param _nonce Submission id.\n    /// @param _trxData Array of transactions by oracles of 2 elements - payload up to the receiver address and the signature bytes.\n    function claim(\n        bytes32 _debridgeId,\n        uint256 _chainIdFrom,\n        address _receiver,\n        uint256 _amount,\n        uint256 _nonce,\n        bytes[2][] calldata _trxData\n    ) external override {\n        bytes32 submissionId =\n            getSubmisionId(\n                _debridgeId,\n                _chainIdFrom,\n                chainId,\n                _amount,\n                _receiver,\n                _nonce\n            );\n        require(\n            IWhiteLightAggregator(aggregator).submit(submissionId, _trxData),\n            \"claim: not confirmed\"\n        );\n        _claim(submissionId, _debridgeId, _receiver, _amount);\n    }\n\n    /// @dev Unlock the asset on the current chain and transfer to receiver.\n    /// @param _debridgeId Asset identifier.\n    /// @param _receiver Receiver address.\n    /// @param _amount Amount of the transfered asset (note: the fee can be applyed).\n    /// @param _nonce Submission id.\n    /// @param _trxData Array of transactions by oracles of 2 elements - payload up to the receiver address and the signature bytes.\n    /// @param _aggregatorVersion Aggregator version.\n    function claimWithOldAggregator(\n        bytes32 _debridgeId,\n        uint256 _chainIdFrom,\n        address _receiver,\n        uint256 _amount,\n        uint256 _nonce,\n        bytes[2][] calldata _trxData,\n        uint8 _aggregatorVersion\n    ) external override {\n        bytes32 submissionId =\n            getSubmisionId(\n                _debridgeId,\n                _chainIdFrom,\n                chainId,\n                _amount,\n                _receiver,\n                _nonce\n            );\n        AggregatorInfo memory aggregatorInfo =\n            getOldAggregator[_aggregatorVersion];\n        require(\n            aggregatorInfo.isValid,\n            \"mintWithOldAggregator: invalid aggregator\"\n        );\n        require(\n            IWhiteLightAggregator(aggregatorInfo.aggregator).submit(\n                submissionId,\n                _trxData\n            ),\n            \"claim: not confirmed\"\n        );\n        _claim(submissionId, _debridgeId, _receiver, _amount);\n    }\n}\n",
  "sourcePath": "/Users/kstasi/Documents/side/debridge-contracts/contracts/transfers/WhiteLightDebridge.sol",
  "compiler": {
    "name": "solc",
    "version": "0.8.2+commit.661d1103.Emscripten.clang"
  },
  "schemaVersion": "3.3.4",
  "updatedAt": "2021-04-27T06:19:41.488Z",
  "devdoc": {
    "kind": "dev",
    "methods": {
      "addExternalAsset(address,address,uint256,uint256,uint256,uint256,uint256,uint256[])": {
        "details": "Add support for the asset from the other chain, deploy new wrapped asset.",
        "params": {
          "_chainId": "Current chain id.",
          "_fixedFee": "Transfer fee rate.",
          "_minAmount": "Minimal amount of the asset to be wrapped.",
          "_minReserves": "Minimal reserve ration.",
          "_supportedChainIds": "Chain ids where the token of the current chain can be transfered.",
          "_tokenAddress": "Address of the asset on the other chain.",
          "_transferFee": "Transfer fee rate.",
          "_wrappedAssetAddress": "Wrapped asset address."
        }
      },
      "addNativeAsset(address,uint256,uint256,uint256,uint256,uint256[])": {
        "details": "Add support for the asset on the current chain.",
        "params": {
          "_fixedFee": "Transfer fee rate.",
          "_minAmount": "Minimal amount of current chain token to be wrapped.",
          "_minReserves": "Minimal reserve ration.",
          "_supportedChainIds": "Chain ids where native token of the current chain can be wrapped.",
          "_tokenAddress": "Address of the asset on the current chain.",
          "_transferFee": "Transfer fee rate."
        }
      },
      "burn(bytes32,address,uint256,uint256)": {
        "details": "Burns wrapped asset and allowss to claim it on the other chain.",
        "params": {
          "_amount": "Amount of the transfered asset (note: the fee can be applyed).",
          "_chainIdTo": "Chain id of the target chain.",
          "_debridgeId": "Asset identifier.",
          "_receiver": "Receiver address."
        }
      },
      "claim(bytes32,uint256,address,uint256,uint256,bytes[2][])": {
        "details": "Unlock the asset on the current chain and transfer to receiver.",
        "params": {
          "_amount": "Amount of the transfered asset (note: the fee can be applyed).",
          "_debridgeId": "Asset identifier.",
          "_nonce": "Submission id.",
          "_receiver": "Receiver address.",
          "_trxData": "Array of transactions by oracles of 2 elements - payload up to the receiver address and the signature bytes."
        }
      },
      "claimWithOldAggregator(bytes32,uint256,address,uint256,uint256,bytes[2][],uint8)": {
        "details": "Unlock the asset on the current chain and transfer to receiver.",
        "params": {
          "_aggregatorVersion": "Aggregator version.",
          "_amount": "Amount of the transfered asset (note: the fee can be applyed).",
          "_debridgeId": "Asset identifier.",
          "_nonce": "Submission id.",
          "_receiver": "Receiver address.",
          "_trxData": "Array of transactions by oracles of 2 elements - payload up to the receiver address and the signature bytes."
        }
      },
      "getBalance(address)": {
        "details": "Check the balance.",
        "params": {
          "_tokenAddress": "Address of the asset on the other chain."
        }
      },
      "getDebridgeId(uint256,address)": {
        "details": "Calculates asset identifier.",
        "params": {
          "_chainId": "Current chain id.",
          "_tokenAddress": "Address of the asset on the other chain."
        }
      },
      "getRoleAdmin(bytes32)": {
        "details": "Returns the admin role that controls `role`. See {grantRole} and {revokeRole}. To change a role's admin, use {_setRoleAdmin}."
      },
      "getSubmisionId(bytes32,uint256,uint256,uint256,address,uint256)": {
        "details": "Calculate submission id.",
        "params": {
          "_amount": "Amount of the transfered asset (note: the fee can be applyed).",
          "_debridgeId": "Asset identifier.",
          "_nonce": "Submission id.",
          "_receiver": "Receiver address."
        }
      },
      "getSupportedChainIds(bytes32)": {
        "details": "Get all supported chain ids.",
        "params": {
          "_debridgeId": "Asset identifier."
        }
      },
      "grantRole(bytes32,address)": {
        "details": "Grants `role` to `account`. If `account` had not been already granted `role`, emits a {RoleGranted} event. Requirements: - the caller must have ``role``'s admin role."
      },
      "hasRole(bytes32,address)": {
        "details": "Returns `true` if `account` has been granted `role`."
      },
      "initialize(uint256,uint256,uint256,uint256,address,uint256[],address)": {
        "details": "Constructor that initializes the most important configurations.",
        "params": {
          "_aggregator": "Submission aggregator address.",
          "_fixedFee": "Fixed transfer fee rate.",
          "_minAmount": "Minimal amount of current chain token to be wrapped.",
          "_minReserves": "Minimal reserve ratio.",
          "_supportedChainIds": "Chain ids where native token of the current chain can be wrapped.",
          "_transferFee": "Transfer fee rate."
        }
      },
      "manageOldAggregator(uint8,bool)": {
        "details": "Set aggregator address.",
        "params": {
          "_aggregatorVersion": "Submission aggregator address.",
          "_isValid": "Is valid."
        }
      },
      "mint(bytes32,uint256,address,uint256,uint256,bytes[2][])": {
        "details": "Mints wrapped asset on the current chain.",
        "params": {
          "_amount": "Amount of the transfered asset (note: without applyed fee).",
          "_debridgeId": "Asset identifier.",
          "_nonce": "Submission id.",
          "_receiver": "Receiver address.",
          "_trxData": "Array of transactions by oracles of 2 elements - payload up to the receiver address and the signature bytes."
        }
      },
      "mintWithOldAggregator(bytes32,uint256,address,uint256,uint256,bytes[2][],uint8)": {
        "details": "Mints wrapped asset on the current chain.",
        "params": {
          "_aggregatorVersion": "Aggregator version.",
          "_amount": "Amount of the transfered asset (note: without applyed fee).",
          "_debridgeId": "Asset identifier.",
          "_nonce": "Submission id.",
          "_receiver": "Receiver address.",
          "_trxData": "Array of transactions by oracles of 2 elements - payload up to the receiver address and the signature bytes."
        }
      },
      "pause()": {
        "details": "Stop all transfers."
      },
      "paused()": {
        "details": "Returns true if the contract is paused, and false otherwise."
      },
      "renounceRole(bytes32,address)": {
        "details": "Revokes `role` from the calling account. Roles are often managed via {grantRole} and {revokeRole}: this function's purpose is to provide a mechanism for accounts to lose their privileges if they are compromised (such as when a trusted device is misplaced). If the calling account had been granted `role`, emits a {RoleRevoked} event. Requirements: - the caller must be `account`."
      },
      "requestReserves(address,uint256)": {
        "details": "Request the assets to be used in defi protocol.",
        "params": {
          "_amount": "Amount of tokens to request.",
          "_tokenAddress": "Asset address."
        }
      },
      "returnReserves(address,uint256)": {
        "details": "Return the assets that were used in defi protocol.",
        "params": {
          "_amount": "Amount of tokens to claim.",
          "_tokenAddress": "Asset address."
        }
      },
      "revokeRole(bytes32,address)": {
        "details": "Revokes `role` from `account`. If `account` had been granted `role`, emits a {RoleRevoked} event. Requirements: - the caller must have ``role``'s admin role."
      },
      "send(bytes32,address,uint256,uint256)": {
        "details": "Locks asset on the chain and enables minting on the other chain.",
        "params": {
          "_amount": "Amount to be transfered (note: the fee can be applyed).",
          "_chainIdTo": "Chain id of the target chain.",
          "_debridgeId": "Asset identifier.",
          "_receiver": "Receiver address."
        }
      },
      "setAggregator(address)": {
        "details": "Set aggregator address.",
        "params": {
          "_aggregator": "Submission aggregator address."
        }
      },
      "setChainIdSupport(bytes32,uint256,bool)": {
        "details": "Set support for the chains where the token can be transfered.",
        "params": {
          "_chainId": "Current chain id.",
          "_debridgeId": "Asset identifier.",
          "_isSupported": "Whether the token is transferable to the other chain."
        }
      },
      "setDefiController(address)": {
        "details": "Set defi controoler.",
        "params": {
          "_defiController": "Defi controller address address."
        }
      },
      "supportsInterface(bytes4)": {
        "details": "See {IERC165-supportsInterface}."
      },
      "unpause()": {
        "details": "Allow transfers."
      },
      "updateAsset(bytes32,uint256,uint256,uint256,uint256)": {
        "details": "Add support for the asset.",
        "params": {
          "_debridgeId": "Asset identifier.",
          "_fixedFee": "Fixed transfer fee rate.",
          "_minAmount": "Minimal amount of the asset to be wrapped.",
          "_minReserves": "Minimal reserve ration.",
          "_transferFee": "Transfer fee rate."
        }
      },
      "withdrawFee(bytes32,address,uint256)": {
        "details": "Withdraw fees.",
        "params": {
          "_amount": "Amount of tokens to withdraw.",
          "_debridgeId": "Asset identifier.",
          "_receiver": "Receiver address."
        }
      }
    },
    "version": 1
  },
  "userdoc": {
    "kind": "user",
    "methods": {},
    "version": 1
  }
}