{
  "contractName": "WhiteLightAggregator",
  "abi": [
    {
      "inputs": [
        {
          "internalType": "uint256",
          "name": "_minConfirmations",
          "type": "uint256"
        },
        {
          "internalType": "bytes[2]",
          "name": "_utilityBytes",
          "type": "bytes[2]"
        },
        {
          "internalType": "bytes",
          "name": "_versionBytes",
          "type": "bytes"
        }
      ],
      "stateMutability": "nonpayable",
      "type": "constructor"
    },
    {
      "anonymous": false,
      "inputs": [
        {
          "indexed": false,
          "internalType": "bytes32",
          "name": "submissionId",
          "type": "bytes32"
        },
        {
          "indexed": false,
          "internalType": "address",
          "name": "operator",
          "type": "address"
        }
      ],
      "name": "Confirmed",
      "type": "event"
    },
    {
      "anonymous": false,
      "inputs": [
        {
          "indexed": true,
          "internalType": "bytes32",
          "name": "role",
          "type": "bytes32"
        },
        {
          "indexed": true,
          "internalType": "bytes32",
          "name": "previousAdminRole",
          "type": "bytes32"
        },
        {
          "indexed": true,
          "internalType": "bytes32",
          "name": "newAdminRole",
          "type": "bytes32"
        }
      ],
      "name": "RoleAdminChanged",
      "type": "event"
    },
    {
      "anonymous": false,
      "inputs": [
        {
          "indexed": true,
          "internalType": "bytes32",
          "name": "role",
          "type": "bytes32"
        },
        {
          "indexed": true,
          "internalType": "address",
          "name": "account",
          "type": "address"
        },
        {
          "indexed": true,
          "internalType": "address",
          "name": "sender",
          "type": "address"
        }
      ],
      "name": "RoleGranted",
      "type": "event"
    },
    {
      "anonymous": false,
      "inputs": [
        {
          "indexed": true,
          "internalType": "bytes32",
          "name": "role",
          "type": "bytes32"
        },
        {
          "indexed": true,
          "internalType": "address",
          "name": "account",
          "type": "address"
        },
        {
          "indexed": true,
          "internalType": "address",
          "name": "sender",
          "type": "address"
        }
      ],
      "name": "RoleRevoked",
      "type": "event"
    },
    {
      "anonymous": false,
      "inputs": [
        {
          "indexed": false,
          "internalType": "bytes32",
          "name": "submissionId",
          "type": "bytes32"
        }
      ],
      "name": "SubmissionApproved",
      "type": "event"
    },
    {
      "inputs": [],
      "name": "DEFAULT_ADMIN_ROLE",
      "outputs": [
        {
          "internalType": "bytes32",
          "name": "",
          "type": "bytes32"
        }
      ],
      "stateMutability": "view",
      "type": "function",
      "constant": true
    },
    {
      "inputs": [],
      "name": "ORACLE_ROLE",
      "outputs": [
        {
          "internalType": "bytes32",
          "name": "",
          "type": "bytes32"
        }
      ],
      "stateMutability": "view",
      "type": "function",
      "constant": true
    },
    {
      "inputs": [
        {
          "internalType": "bytes32",
          "name": "role",
          "type": "bytes32"
        }
      ],
      "name": "getRoleAdmin",
      "outputs": [
        {
          "internalType": "bytes32",
          "name": "",
          "type": "bytes32"
        }
      ],
      "stateMutability": "view",
      "type": "function",
      "constant": true
    },
    {
      "inputs": [
        {
          "internalType": "bytes32",
          "name": "",
          "type": "bytes32"
        }
      ],
      "name": "getSubmissionInfo",
      "outputs": [
        {
          "internalType": "bool",
          "name": "confirmed",
          "type": "bool"
        },
        {
          "internalType": "uint256",
          "name": "confirmations",
          "type": "uint256"
        }
      ],
      "stateMutability": "view",
      "type": "function",
      "constant": true
    },
    {
      "inputs": [
        {
          "internalType": "bytes32",
          "name": "role",
          "type": "bytes32"
        },
        {
          "internalType": "address",
          "name": "account",
          "type": "address"
        }
      ],
      "name": "grantRole",
      "outputs": [],
      "stateMutability": "nonpayable",
      "type": "function"
    },
    {
      "inputs": [
        {
          "internalType": "bytes32",
          "name": "role",
          "type": "bytes32"
        },
        {
          "internalType": "address",
          "name": "account",
          "type": "address"
        }
      ],
      "name": "hasRole",
      "outputs": [
        {
          "internalType": "bool",
          "name": "",
          "type": "bool"
        }
      ],
      "stateMutability": "view",
      "type": "function",
      "constant": true
    },
    {
      "inputs": [],
      "name": "minConfirmations",
      "outputs": [
        {
          "internalType": "uint256",
          "name": "",
          "type": "uint256"
        }
      ],
      "stateMutability": "view",
      "type": "function",
      "constant": true
    },
    {
      "inputs": [
        {
          "internalType": "bytes32",
          "name": "role",
          "type": "bytes32"
        },
        {
          "internalType": "address",
          "name": "account",
          "type": "address"
        }
      ],
      "name": "renounceRole",
      "outputs": [],
      "stateMutability": "nonpayable",
      "type": "function"
    },
    {
      "inputs": [
        {
          "internalType": "bytes32",
          "name": "role",
          "type": "bytes32"
        },
        {
          "internalType": "address",
          "name": "account",
          "type": "address"
        }
      ],
      "name": "revokeRole",
      "outputs": [],
      "stateMutability": "nonpayable",
      "type": "function"
    },
    {
      "inputs": [
        {
          "internalType": "bytes4",
          "name": "interfaceId",
          "type": "bytes4"
        }
      ],
      "name": "supportsInterface",
      "outputs": [
        {
          "internalType": "bool",
          "name": "",
          "type": "bool"
        }
      ],
      "stateMutability": "view",
      "type": "function",
      "constant": true
    },
    {
      "inputs": [
        {
          "internalType": "uint256",
          "name": "",
          "type": "uint256"
        }
      ],
      "name": "utilityBytes",
      "outputs": [
        {
          "internalType": "bytes",
          "name": "",
          "type": "bytes"
        }
      ],
      "stateMutability": "view",
      "type": "function",
      "constant": true
    },
    {
      "inputs": [],
      "name": "versionBytes",
      "outputs": [
        {
          "internalType": "bytes",
          "name": "",
          "type": "bytes"
        }
      ],
      "stateMutability": "view",
      "type": "function",
      "constant": true
    },
    {
      "inputs": [
        {
          "internalType": "bytes32",
          "name": "_submissionId",
          "type": "bytes32"
        },
        {
          "internalType": "bytes[2][]",
          "name": "_trxData",
          "type": "bytes[2][]"
        }
      ],
      "name": "submit",
      "outputs": [
        {
          "internalType": "bool",
          "name": "",
          "type": "bool"
        }
      ],
      "stateMutability": "nonpayable",
      "type": "function"
    },
    {
      "inputs": [
        {
          "internalType": "bytes[2]",
          "name": "_utilityBytes",
          "type": "bytes[2]"
        }
      ],
      "name": "setUtilityBytes",
      "outputs": [],
      "stateMutability": "nonpayable",
      "type": "function"
    },
    {
      "inputs": [
        {
          "internalType": "bytes",
          "name": "_versionBytes",
          "type": "bytes"
        }
      ],
      "name": "setVersionBytes",
      "outputs": [],
      "stateMutability": "nonpayable",
      "type": "function"
    },
    {
      "inputs": [
        {
          "internalType": "uint256",
          "name": "_minConfirmations",
          "type": "uint256"
        }
      ],
      "name": "setMinConfirmations",
      "outputs": [],
      "stateMutability": "nonpayable",
      "type": "function"
    },
    {
      "inputs": [
        {
          "internalType": "address",
          "name": "_oracle",
          "type": "address"
        }
      ],
      "name": "addOracle",
      "outputs": [],
      "stateMutability": "nonpayable",
      "type": "function"
    },
    {
      "inputs": [
        {
          "internalType": "address",
          "name": "_oracle",
          "type": "address"
        }
      ],
      "name": "removeOracle",
      "outputs": [],
      "stateMutability": "nonpayable",
      "type": "function"
    },
    {
      "inputs": [
        {
          "internalType": "bytes32",
          "name": "_submissionId",
          "type": "bytes32"
        }
      ],
      "name": "isSubmissionConfirmed",
      "outputs": [
        {
          "internalType": "bool",
          "name": "",
          "type": "bool"
        }
      ],
      "stateMutability": "view",
      "type": "function",
      "constant": true
    },
    {
      "inputs": [
        {
          "internalType": "bytes",
          "name": "_payloadPart",
          "type": "bytes"
        },
        {
          "internalType": "bytes",
          "name": "_method",
          "type": "bytes"
        },
        {
          "internalType": "bytes32",
          "name": "_submissionId",
          "type": "bytes32"
        }
      ],
      "name": "getUnsignedTrx",
      "outputs": [
        {
          "internalType": "bytes",
          "name": "",
          "type": "bytes"
        }
      ],
      "stateMutability": "view",
      "type": "function",
      "constant": true
    },
    {
      "inputs": [
        {
          "internalType": "bytes",
          "name": "_signature",
          "type": "bytes"
        }
      ],
      "name": "splitSignature",
      "outputs": [
        {
          "internalType": "bytes32",
          "name": "r",
          "type": "bytes32"
        },
        {
          "internalType": "bytes32",
          "name": "s",
          "type": "bytes32"
        },
        {
          "internalType": "uint8",
          "name": "v",
          "type": "uint8"
        }
      ],
      "stateMutability": "pure",
      "type": "function",
      "constant": true
    }
  ],
  "bytecode": "0x60806040523480156200001157600080fd5b506040516200172f3803806200172f833981016040819052620000349162000314565b6001839055620000476002838162000124565b5080516200005d9060049060208401906200017b565b506200006b60003362000074565b50505062000454565b62000080828262000084565b5050565b6000828152602081815260408083206001600160a01b038516845290915290205460ff1662000080576000828152602081815260408083206001600160a01b03851684529091529020805460ff19166001179055620000e03390565b6001600160a01b0316816001600160a01b0316837f2f8788117e7eff1d82e926ec794901d17c78024a50270940304540a733656f0d60405160405180910390a45050565b826002810192821562000169579160200282015b82811115620001695782518051620001589184916020909101906200017b565b509160200191906001019062000138565b506200017792915062000206565b5090565b828054620001899062000401565b90600052602060002090601f016020900481019282620001ad5760008555620001f8565b82601f10620001c857805160ff1916838001178555620001f8565b82800160010185558215620001f8579182015b82811115620001f8578251825591602001919060010190620001db565b506200017792915062000227565b80821115620001775760006200021d82826200023e565b5060010162000206565b5b8082111562000177576000815560010162000228565b5080546200024c9062000401565b6000825580601f1062000260575062000280565b601f01602090049060005260206000209081019062000280919062000227565b50565b600082601f83011262000294578081fd5b81516001600160401b03811115620002b057620002b06200043e565b6020620002c6601f8301601f19168201620003ce565b8281528582848701011115620002da578384fd5b835b83811015620002f9578581018301518282018401528201620002dc565b838111156200030a57848385840101525b5095945050505050565b60008060006060848603121562000329578283fd5b8351602080860151919450906001600160401b03808211156200034a578485fd5b818701915087601f8301126200035e578485fd5b6200036a6040620003ce565b8083875b60028110156200039a57620003878c8351880162000283565b845292860192908601906001016200036e565b5050604089015190965093505080831115620003b4578384fd5b5050620003c48682870162000283565b9150509250925092565b604051601f8201601f191681016001600160401b0381118282101715620003f957620003f96200043e565b604052919050565b6002810460018216806200041657607f821691505b602082108114156200043857634e487b7160e01b600052602260045260246000fd5b50919050565b634e487b7160e01b600052604160045260246000fd5b6112cb80620004646000396000f3fe608060405234801561001057600080fd5b50600436106101375760003560e01c8063a217fddf116100b8578063d547741f1161007c578063d547741f146102e6578063d652b702146102f9578063dd2e79761461030c578063df5dd1a51461031f578063e7c4393e14610332578063fdc85fc41461033b57610137565b8063a217fddf1461027f578063a7bb580314610287578063b7827f8a146102b8578063ba3ee3d7146102cb578063d2821655146102d357610137565b80632f2ff15d116100ff5780632f2ff15d1461020e5780632f99e4da1461022357806336568abe146102465780633c9200a61461025957806391d148541461026c57610137565b806301ffc9a71461013c57806307e2cea5146101645780630e3b90a91461018757806314d21857146101cb578063248a9ca3146101eb575b600080fd5b61014f61014a366004610f57565b61034e565b60405190151581526020015b60405180910390f35b61017960008051602061127683398151915281565b60405190815260200161015b565b6101b4610195366004610e6b565b6005602052600090815260409020805460019091015460ff9091169082565b60408051921515835260208301919091520161015b565b6101de6101d9366004610e6b565b610387565b60405161015b919061111a565b6101796101f9366004610e6b565b60009081526020819052604090206001015490565b61022161021c366004610e83565b610427565b005b61014f610231366004610e6b565b60009081526005602052604090205460ff1690565b610221610254366004610e83565b6104bb565b61014f610267366004610eae565b610535565b61014f61027a366004610e83565b610863565b610179600081565b61029a610295366004610f7f565b61088c565b60408051938452602084019290925260ff169082015260600161015b565b6101de6102c6366004610fb2565b610911565b6101de61096b565b6102216102e1366004610e6b565b610978565b6102216102f4366004610e83565b6109a4565b610221610307366004610f7f565b610a24565b61022161031a366004610e30565b610a5e565b61022161032d366004610e0f565b610a91565b61017960015481565b610221610349366004610e0f565b610ad3565b60006001600160e01b03198216637965db0b60e01b148061037f57506301ffc9a760e01b6001600160e01b03198316145b90505b919050565b6002816002811061039757600080fd5b0180549091506103a6906111f3565b80601f01602080910402602001604051908101604052809291908181526020018280546103d2906111f3565b801561041f5780601f106103f45761010080835404028352916020019161041f565b820191906000526020600020905b81548152906001019060200180831161040257829003601f168201915b505050505081565b600082815260208190526040902060010154610444905b3361027a565b6104ad5760405162461bcd60e51b815260206004820152602f60248201527f416363657373436f6e74726f6c3a2073656e646572206d75737420626520616e60448201526e0818591b5a5b881d1bc819dc985b9d608a1b60648201526084015b60405180910390fd5b6104b78282610b12565b5050565b6001600160a01b038116331461052b5760405162461bcd60e51b815260206004820152602f60248201527f416363657373436f6e74726f6c3a2063616e206f6e6c792072656e6f756e636560448201526e103937b632b9903337b91039b2b63360891b60648201526084016104a4565b6104b78282610b96565b6000828152600560205260408120815b83518110156108555760008060006105a887858151811061057657634e487b7160e01b600052603260045260246000fd5b602002602001015160016002811061059e57634e487b7160e01b600052603260045260246000fd5b602002015161088c565b92509250925060006106238886815181106105d357634e487b7160e01b600052603260045260246000fd5b60200260200101516000600281106105fb57634e487b7160e01b600052603260045260246000fd5b6020020151604051806040016040528060048152602001636ce551e960e11b8152508b610911565b90506000600182805190602001208487876040516000815260200160405260405161066a949392919093845260ff9290921660208401526040830152606082015260800190565b6020604051602081039080840390855afa15801561068c573d6000803e3d6000fd5b5050506020604051035190506106b060008051602061127683398151915282610863565b6106f35760405162461bcd60e51b81526020600482015260146024820152736f6e6c794f7261636c653a2062616420726f6c6560601b60448201526064016104a4565b6001600160a01b038116600090815260028801602052604090205460ff161561075e5760405162461bcd60e51b815260206004820152601960248201527f7375626d69743a207375626d697474656420616c72656164790000000000000060448201526064016104a4565b600187600101600082825461077391906111ab565b90915550506001600160a01b0381166000818152600289016020908152604091829020805460ff1916600117905581518d8152908101929092527fd4964a7cd99f5c1fa8f2420fb5e1d3bd26eadf16e2658cf2e29a67dfda38601e910160405180910390a160015487600101541061083d57865460ff191660011787556040517f2a6b4960c287d4d53a338f9c9a9f830f37e7b66e67a0a958f68be89a4eeb939d90610822908c815260200190565b60405180910390a15050935460ff16945061085d9350505050565b5050505050808061084d9061122e565b915050610545565b505460ff1690505b92915050565b6000918252602082815260408084206001600160a01b0393909316845291905290205460ff1690565b600080600083516041146108f35760405162461bcd60e51b815260206004820152602860248201527f73706c69745369676e61747572653a20696e76616c6964207369676e617475726044820152670ca40d8cadccee8d60c31b60648201526084016104a4565b50505060208101516040820151606090920151909260009190911a90565b6060836002600001848460405160200161092d91815260200190565b60408051808303601f1901815290829052610953949392916004906003906020016110b4565b60405160208183030381529060405290509392505050565b600480546103a6906111f3565b610983600033610863565b61099f5760405162461bcd60e51b81526004016104a49061114d565b600155565b6000828152602081905260409020600101546109bf9061043e565b61052b5760405162461bcd60e51b815260206004820152603060248201527f416363657373436f6e74726f6c3a2073656e646572206d75737420626520616e60448201526f2061646d696e20746f207265766f6b6560801b60648201526084016104a4565b610a2f600033610863565b610a4b5760405162461bcd60e51b81526004016104a49061114d565b80516104b7906004906020840190610bfb565b610a69600033610863565b610a855760405162461bcd60e51b81526004016104a49061114d565b6104b760028281610c7f565b610a9c600033610863565b610ab85760405162461bcd60e51b81526004016104a49061114d565b610ad060008051602061127683398151915282610427565b50565b610ade600033610863565b610afa5760405162461bcd60e51b81526004016104a49061114d565b610ad0600080516020611276833981519152826109a4565b610b1c8282610863565b6104b7576000828152602081815260408083206001600160a01b03851684529091529020805460ff19166001179055610b523390565b6001600160a01b0316816001600160a01b0316837f2f8788117e7eff1d82e926ec794901d17c78024a50270940304540a733656f0d60405160405180910390a45050565b610ba08282610863565b156104b7576000828152602081815260408083206001600160a01b0385168085529252808320805460ff1916905551339285917ff6391f5c32d9c69d2a47ea670b442974b53935d1edc7fd64eb21e047a839171b9190a45050565b828054610c07906111f3565b90600052602060002090601f016020900481019282610c295760008555610c6f565b82601f10610c4257805160ff1916838001178555610c6f565b82800160010185558215610c6f579182015b82811115610c6f578251825591602001919060010190610c54565b50610c7b929150610ccb565b5090565b8260028101928215610cbf579160200282015b82811115610cbf5782518051610caf918491602090910190610bfb565b5091602001919060010190610c92565b50610c7b929150610ce0565b5b80821115610c7b5760008155600101610ccc565b80821115610c7b576000610cf48282610cfd565b50600101610ce0565b508054610d09906111f3565b6000825580601f10610d1b5750610ad0565b601f016020900490600052602060002090810190610ad09190610ccb565b80356001600160a01b038116811461038257600080fd5b600082601f830112610d60578081fd5b610d6a604061117a565b8083835b6002811015610d9957610d848783358801610da4565b84526020938401939190910190600101610d6e565b509095945050505050565b600082601f830112610db4578081fd5b813567ffffffffffffffff811115610dce57610dce61125f565b610de1601f8201601f191660200161117a565b818152846020838601011115610df5578283fd5b816020850160208301379081016020019190915292915050565b600060208284031215610e20578081fd5b610e2982610d39565b9392505050565b600060208284031215610e41578081fd5b813567ffffffffffffffff811115610e57578182fd5b610e6384828501610d50565b949350505050565b600060208284031215610e7c578081fd5b5035919050565b60008060408385031215610e95578081fd5b82359150610ea560208401610d39565b90509250929050565b60008060408385031215610ec0578182fd5b8235915060208084013567ffffffffffffffff80821115610edf578384fd5b818601915086601f830112610ef2578384fd5b813581811115610f0457610f0461125f565b610f11848583020161117a565b8181528481019250838501865b83811015610f4757610f358b888435890101610d50565b85529386019390860190600101610f1e565b5096999098509650505050505050565b600060208284031215610f68578081fd5b81356001600160e01b031981168114610e29578182fd5b600060208284031215610f90578081fd5b813567ffffffffffffffff811115610fa6578182fd5b610e6384828501610da4565b600080600060608486031215610fc6578081fd5b833567ffffffffffffffff80821115610fdd578283fd5b610fe987838801610da4565b94506020860135915080821115610ffe578283fd5b5061100b86828701610da4565b925050604084013590509250925092565b80546000906002810460018083168061103657607f831692505b602080841082141561105657634e487b7160e01b86526022600452602486fd5b81801561106a576001811461107b576110a8565b60ff198616895284890196506110a8565b60008881526020902060005b868110156110a05781548b820152908501908301611087565b505084890196505b50505050505092915050565b600087516110c6818460208c016111c3565b6110d28184018961101c565b905086516110e4818360208b016111c3565b86519101906110f7818360208a016111c3565b61110c6111068284018861101c565b8661101c565b9a9950505050505050505050565b60006020825282518060208401526111398160408501602087016111c3565b601f01601f19169190910160400192915050565b6020808252601390820152726f6e6c7941646d696e3a2062616420726f6c6560681b604082015260600190565b604051601f8201601f1916810167ffffffffffffffff811182821017156111a3576111a361125f565b604052919050565b600082198211156111be576111be611249565b500190565b60005b838110156111de5781810151838201526020016111c6565b838111156111ed576000848401525b50505050565b60028104600182168061120757607f821691505b6020821081141561122857634e487b7160e01b600052602260045260246000fd5b50919050565b600060001982141561124257611242611249565b5060010190565b634e487b7160e01b600052601160045260246000fd5b634e487b7160e01b600052604160045260246000fdfe68e79a7bf1e0bc45d0a330c573bc367f9cf464fd326078812f301165fbda4ef1a26469706673582212205a12678e58302bd6898fdbb05c8ff45ba2121cd460df1a2bf3e1a3569d5595c964736f6c63430008020033",
  "immutableReferences": {},
  "source": "// SPDX-License-Identifier: MIT\npragma solidity ^0.8.2;\n\nimport \"@openzeppelin/contracts/access/AccessControl.sol\";\nimport \"@openzeppelin/contracts/token/ERC20/IERC20.sol\";\nimport \"../interfaces/IWhiteLightAggregator.sol\";\n\ncontract WhiteLightAggregator is AccessControl, IWhiteLightAggregator {\n    bytes32 public constant ORACLE_ROLE = keccak256(\"ORACLE_ROLE\"); // role allowed to submit the data\n    uint256 public minConfirmations; // minimal required confimations\n    bytes[2] public utilityBytes; // the part of the transaction payload;\n    bytes public versionBytes; // chain id of the network where the confirmations are collected + v\n\n    modifier onlyAdmin {\n        require(hasRole(DEFAULT_ADMIN_ROLE, msg.sender), \"onlyAdmin: bad role\");\n        _;\n    }\n\n    struct SubmissionInfo {\n        bool confirmed; // whether is confirmed\n        uint256 confirmations; // received confirmations count\n        mapping(address => bool) hasVerified; // verifier => has already voted\n    }\n\n    mapping(bytes32 => SubmissionInfo) public getSubmissionInfo; // mint id => submission info\n\n    event Confirmed(bytes32 submissionId, address operator); // emitted once the submission is confirmed\n    event SubmissionApproved(bytes32 submissionId); // emitted once the submission is confirmed\n\n    /// @dev Constructor that initializes the most important configurations.\n    /// @param _minConfirmations Minimal required confirmations.\n    /// @param _utilityBytes Utility bytes to be inserted into the transaction payload.\n    /// @param _versionBytes The bytes that identify the chain where confirmations are sent + v.\n    constructor(\n        uint256 _minConfirmations,\n        bytes[2] memory _utilityBytes,\n        bytes memory _versionBytes\n    ) {\n        minConfirmations = _minConfirmations;\n        utilityBytes = _utilityBytes;\n        versionBytes = _versionBytes;\n        _setupRole(DEFAULT_ADMIN_ROLE, msg.sender);\n    }\n\n    /// @dev Confirms the mint request.\n    /// @param _submissionId Submission identifier.\n    /// @param _trxData Array of transactions by oracles of 2 elements - payload up to the receiver address and the signature bytes.\n    function submit(bytes32 _submissionId, bytes[2][] memory _trxData)\n        external\n        override\n        returns (bool)\n    {\n        SubmissionInfo storage submissionInfo =\n            getSubmissionInfo[_submissionId];\n        for (uint256 i = 0; i < _trxData.length; i++) {\n            (bytes32 r, bytes32 s, uint8 v) = splitSignature(_trxData[i][1]);\n            bytes memory unsignedTrx =\n                getUnsignedTrx(_trxData[i][0], hex\"d9caa3d2\", _submissionId);\n            address oracle = ecrecover(keccak256(unsignedTrx), v, r, s);\n            require(hasRole(ORACLE_ROLE, oracle), \"onlyOracle: bad role\");\n            require(\n                !submissionInfo.hasVerified[oracle],\n                \"submit: submitted already\"\n            );\n            submissionInfo.confirmations += 1;\n            submissionInfo.hasVerified[oracle] = true;\n            emit Confirmed(_submissionId, oracle);\n            if (submissionInfo.confirmations >= minConfirmations) {\n                submissionInfo.confirmed = true;\n                emit SubmissionApproved(_submissionId);\n                return submissionInfo.confirmed;\n            }\n        }\n        return submissionInfo.confirmed;\n    }\n\n    /* ADMIN */\n\n    /// @dev Sets utility bytes.\n    /// @param _utilityBytes Utility bytes to be inserted into the transaction payload.\n    function setUtilityBytes(bytes[2] memory _utilityBytes) external onlyAdmin {\n        utilityBytes = _utilityBytes;\n    }\n\n    /// @dev Sets version bytes.\n    /// @param _versionBytes The bytes that identify the chain where confirmations are sent + v.\n    function setVersionBytes(bytes memory _versionBytes) external onlyAdmin {\n        versionBytes = _versionBytes;\n    }\n\n    /// @dev Sets minimal required confirmations.\n    /// @param _minConfirmations Minimal required confirmations.\n    function setMinConfirmations(uint256 _minConfirmations) external onlyAdmin {\n        minConfirmations = _minConfirmations;\n    }\n\n    /// @dev Add new oracle.\n    /// @param _oracle Oracle address.\n    function addOracle(address _oracle) external onlyAdmin {\n        grantRole(ORACLE_ROLE, _oracle);\n    }\n\n    /// @dev Remove oracle.\n    /// @param _oracle Oracle address.\n    function removeOracle(address _oracle) external onlyAdmin {\n        revokeRole(ORACLE_ROLE, _oracle);\n    }\n\n    /* VIEW */\n\n    /// @dev Returns whether mint request is confirmed.\n    /// @param _submissionId Submission identifier.\n    /// @return Whether mint request is confirmed.\n    function isSubmissionConfirmed(bytes32 _submissionId)\n        external\n        view\n        override\n        returns (bool)\n    {\n        return getSubmissionInfo[_submissionId].confirmed;\n    }\n\n    /// @dev Prepares raw transacton that was signed by the oracle.\n    /// @param _payloadPart First part of the transaction; rlp encoded (nonce + gasprice + startgas) + length of the next rlp encoded element (recipient).\n    /// @param _method The function identifier called by the oracle for the confirmation.\n    /// @param _submissionId Submission identifier.\n    function getUnsignedTrx(\n        bytes memory _payloadPart,\n        bytes memory _method,\n        bytes32 _submissionId\n    ) public view returns (bytes memory) {\n        return\n            abi.encodePacked(\n                _payloadPart,\n                utilityBytes[0],\n                _method,\n                abi.encodePacked(_submissionId),\n                versionBytes, // NOTE: the byte must contain the chaind + v\n                utilityBytes[1]\n            );\n    }\n\n    /// @dev Splits signature bytes to r,s,v components.\n    /// @param _signature Signature bytes in format r+s+v.\n    function splitSignature(bytes memory _signature)\n        public\n        pure\n        returns (\n            bytes32 r,\n            bytes32 s,\n            uint8 v\n        )\n    {\n        require(\n            _signature.length == 65,\n            \"splitSignature: invalid signature length\"\n        );\n\n        assembly {\n            r := mload(add(_signature, 32))\n            s := mload(add(_signature, 64))\n            v := byte(0, mload(add(_signature, 96)))\n        }\n    }\n}\n",
  "sourcePath": "/Users/kstasi/Documents/side/debridge-contracts/contracts/chainlink/WhiteLightAggregator.sol",
  "compiler": {
    "name": "solc",
    "version": "0.8.2+commit.661d1103.Emscripten.clang"
  },
  "schemaVersion": "3.3.4",
  "updatedAt": "2021-04-24T07:38:30.180Z",
  "networkType": "ethereum",
  "devdoc": {
    "kind": "dev",
    "methods": {
      "addOracle(address)": {
        "details": "Add new oracle.",
        "params": {
          "_oracle": "Oracle address."
        }
      },
      "constructor": {
        "details": "Constructor that initializes the most important configurations.",
        "params": {
          "_minConfirmations": "Minimal required confirmations.",
          "_utilityBytes": "Utility bytes to be inserted into the transaction payload.",
          "_versionBytes": "The bytes that identify the chain where confirmations are sent + v."
        }
      },
      "getRoleAdmin(bytes32)": {
        "details": "Returns the admin role that controls `role`. See {grantRole} and {revokeRole}. To change a role's admin, use {_setRoleAdmin}."
      },
      "getUnsignedTrx(bytes,bytes,bytes32)": {
        "details": "Prepares raw transacton that was signed by the oracle.",
        "params": {
          "_method": "The function identifier called by the oracle for the confirmation.",
          "_payloadPart": "First part of the transaction; rlp encoded (nonce + gasprice + startgas) + length of the next rlp encoded element (recipient).",
          "_submissionId": "Submission identifier."
        }
      },
      "grantRole(bytes32,address)": {
        "details": "Grants `role` to `account`. If `account` had not been already granted `role`, emits a {RoleGranted} event. Requirements: - the caller must have ``role``'s admin role."
      },
      "hasRole(bytes32,address)": {
        "details": "Returns `true` if `account` has been granted `role`."
      },
      "isSubmissionConfirmed(bytes32)": {
        "details": "Returns whether mint request is confirmed.",
        "params": {
          "_submissionId": "Submission identifier."
        },
        "returns": {
          "_0": "Whether mint request is confirmed."
        }
      },
      "removeOracle(address)": {
        "details": "Remove oracle.",
        "params": {
          "_oracle": "Oracle address."
        }
      },
      "renounceRole(bytes32,address)": {
        "details": "Revokes `role` from the calling account. Roles are often managed via {grantRole} and {revokeRole}: this function's purpose is to provide a mechanism for accounts to lose their privileges if they are compromised (such as when a trusted device is misplaced). If the calling account had been granted `role`, emits a {RoleRevoked} event. Requirements: - the caller must be `account`."
      },
      "revokeRole(bytes32,address)": {
        "details": "Revokes `role` from `account`. If `account` had been granted `role`, emits a {RoleRevoked} event. Requirements: - the caller must have ``role``'s admin role."
      },
      "setMinConfirmations(uint256)": {
        "details": "Sets minimal required confirmations.",
        "params": {
          "_minConfirmations": "Minimal required confirmations."
        }
      },
      "setUtilityBytes(bytes[2])": {
        "details": "Sets utility bytes.",
        "params": {
          "_utilityBytes": "Utility bytes to be inserted into the transaction payload."
        }
      },
      "setVersionBytes(bytes)": {
        "details": "Sets version bytes.",
        "params": {
          "_versionBytes": "The bytes that identify the chain where confirmations are sent + v."
        }
      },
      "splitSignature(bytes)": {
        "details": "Splits signature bytes to r,s,v components.",
        "params": {
          "_signature": "Signature bytes in format r+s+v."
        }
      },
      "submit(bytes32,bytes[2][])": {
        "details": "Confirms the mint request.",
        "params": {
          "_submissionId": "Submission identifier.",
          "_trxData": "Array of transactions by oracles of 2 elements - payload up to the receiver address and the signature bytes."
        }
      },
      "supportsInterface(bytes4)": {
        "details": "See {IERC165-supportsInterface}."
      }
    },
    "version": 1
  },
  "userdoc": {
    "kind": "user",
    "methods": {},
    "version": 1
  }
}