{
  "contractName": "WhiteDebridge",
  "abi": [
    {
      "inputs": [
        {
          "internalType": "uint256",
          "name": "_chainId",
          "type": "uint256"
        },
        {
          "internalType": "uint256",
          "name": "_minAmount",
          "type": "uint256"
        },
        {
          "internalType": "uint256",
          "name": "_transferFee",
          "type": "uint256"
        },
        {
          "internalType": "contract IWhiteAggregator",
          "name": "_aggregator",
          "type": "address"
        },
        {
          "internalType": "uint256[]",
          "name": "_supportedChainIds",
          "type": "uint256[]"
        }
      ],
      "stateMutability": "nonpayable",
      "type": "constructor"
    },
    {
      "anonymous": false,
      "inputs": [
        {
          "indexed": false,
          "internalType": "bytes32",
          "name": "burntId",
          "type": "bytes32"
        },
        {
          "indexed": false,
          "internalType": "bytes32",
          "name": "debridgeId",
          "type": "bytes32"
        },
        {
          "indexed": false,
          "internalType": "uint256",
          "name": "amount",
          "type": "uint256"
        },
        {
          "indexed": false,
          "internalType": "address",
          "name": "receiver",
          "type": "address"
        },
        {
          "indexed": false,
          "internalType": "uint256",
          "name": "nonce",
          "type": "uint256"
        },
        {
          "indexed": false,
          "internalType": "uint256",
          "name": "chainIdTo",
          "type": "uint256"
        }
      ],
      "name": "Burnt",
      "type": "event"
    },
    {
      "anonymous": false,
      "inputs": [
        {
          "indexed": false,
          "internalType": "uint256",
          "name": "amount",
          "type": "uint256"
        },
        {
          "indexed": false,
          "internalType": "address",
          "name": "receiver",
          "type": "address"
        },
        {
          "indexed": false,
          "internalType": "bytes32",
          "name": "debridgeId",
          "type": "bytes32"
        }
      ],
      "name": "Claimed",
      "type": "event"
    },
    {
      "anonymous": false,
      "inputs": [
        {
          "indexed": false,
          "internalType": "uint256",
          "name": "amount",
          "type": "uint256"
        },
        {
          "indexed": false,
          "internalType": "address",
          "name": "receiver",
          "type": "address"
        },
        {
          "indexed": false,
          "internalType": "bytes32",
          "name": "debridgeId",
          "type": "bytes32"
        }
      ],
      "name": "Minted",
      "type": "event"
    },
    {
      "anonymous": false,
      "inputs": [
        {
          "indexed": true,
          "internalType": "bytes32",
          "name": "role",
          "type": "bytes32"
        },
        {
          "indexed": true,
          "internalType": "bytes32",
          "name": "previousAdminRole",
          "type": "bytes32"
        },
        {
          "indexed": true,
          "internalType": "bytes32",
          "name": "newAdminRole",
          "type": "bytes32"
        }
      ],
      "name": "RoleAdminChanged",
      "type": "event"
    },
    {
      "anonymous": false,
      "inputs": [
        {
          "indexed": true,
          "internalType": "bytes32",
          "name": "role",
          "type": "bytes32"
        },
        {
          "indexed": true,
          "internalType": "address",
          "name": "account",
          "type": "address"
        },
        {
          "indexed": true,
          "internalType": "address",
          "name": "sender",
          "type": "address"
        }
      ],
      "name": "RoleGranted",
      "type": "event"
    },
    {
      "anonymous": false,
      "inputs": [
        {
          "indexed": true,
          "internalType": "bytes32",
          "name": "role",
          "type": "bytes32"
        },
        {
          "indexed": true,
          "internalType": "address",
          "name": "account",
          "type": "address"
        },
        {
          "indexed": true,
          "internalType": "address",
          "name": "sender",
          "type": "address"
        }
      ],
      "name": "RoleRevoked",
      "type": "event"
    },
    {
      "anonymous": false,
      "inputs": [
        {
          "indexed": false,
          "internalType": "bytes32",
          "name": "sentId",
          "type": "bytes32"
        },
        {
          "indexed": false,
          "internalType": "bytes32",
          "name": "debridgeId",
          "type": "bytes32"
        },
        {
          "indexed": false,
          "internalType": "uint256",
          "name": "amount",
          "type": "uint256"
        },
        {
          "indexed": false,
          "internalType": "address",
          "name": "receiver",
          "type": "address"
        },
        {
          "indexed": false,
          "internalType": "uint256",
          "name": "nonce",
          "type": "uint256"
        },
        {
          "indexed": false,
          "internalType": "uint256",
          "name": "chainIdTo",
          "type": "uint256"
        }
      ],
      "name": "Sent",
      "type": "event"
    },
    {
      "inputs": [],
      "name": "DEFAULT_ADMIN_ROLE",
      "outputs": [
        {
          "internalType": "bytes32",
          "name": "",
          "type": "bytes32"
        }
      ],
      "stateMutability": "view",
      "type": "function",
      "constant": true
    },
    {
      "inputs": [],
      "name": "DENOMINATOR",
      "outputs": [
        {
          "internalType": "uint256",
          "name": "",
          "type": "uint256"
        }
      ],
      "stateMutability": "view",
      "type": "function",
      "constant": true
    },
    {
      "inputs": [],
      "name": "aggregator",
      "outputs": [
        {
          "internalType": "contract IWhiteAggregator",
          "name": "",
          "type": "address"
        }
      ],
      "stateMutability": "view",
      "type": "function",
      "constant": true
    },
    {
      "inputs": [],
      "name": "chainId",
      "outputs": [
        {
          "internalType": "uint256",
          "name": "",
          "type": "uint256"
        }
      ],
      "stateMutability": "view",
      "type": "function",
      "constant": true
    },
    {
      "inputs": [],
      "name": "collectedFees",
      "outputs": [
        {
          "internalType": "uint256",
          "name": "",
          "type": "uint256"
        }
      ],
      "stateMutability": "view",
      "type": "function",
      "constant": true
    },
    {
      "inputs": [
        {
          "internalType": "bytes32",
          "name": "",
          "type": "bytes32"
        }
      ],
      "name": "getDebridge",
      "outputs": [
        {
          "internalType": "address",
          "name": "tokenAddress",
          "type": "address"
        },
        {
          "internalType": "uint256",
          "name": "chainId",
          "type": "uint256"
        },
        {
          "internalType": "uint256",
          "name": "minAmount",
          "type": "uint256"
        },
        {
          "internalType": "uint256",
          "name": "transferFee",
          "type": "uint256"
        }
      ],
      "stateMutability": "view",
      "type": "function",
      "constant": true
    },
    {
      "inputs": [
        {
          "internalType": "bytes32",
          "name": "role",
          "type": "bytes32"
        }
      ],
      "name": "getRoleAdmin",
      "outputs": [
        {
          "internalType": "bytes32",
          "name": "",
          "type": "bytes32"
        }
      ],
      "stateMutability": "view",
      "type": "function",
      "constant": true
    },
    {
      "inputs": [
        {
          "internalType": "bytes32",
          "name": "role",
          "type": "bytes32"
        },
        {
          "internalType": "address",
          "name": "account",
          "type": "address"
        }
      ],
      "name": "grantRole",
      "outputs": [],
      "stateMutability": "nonpayable",
      "type": "function"
    },
    {
      "inputs": [
        {
          "internalType": "bytes32",
          "name": "role",
          "type": "bytes32"
        },
        {
          "internalType": "address",
          "name": "account",
          "type": "address"
        }
      ],
      "name": "hasRole",
      "outputs": [
        {
          "internalType": "bool",
          "name": "",
          "type": "bool"
        }
      ],
      "stateMutability": "view",
      "type": "function",
      "constant": true
    },
    {
      "inputs": [
        {
          "internalType": "bytes32",
          "name": "",
          "type": "bytes32"
        }
      ],
      "name": "isSubmissionUsed",
      "outputs": [
        {
          "internalType": "bool",
          "name": "",
          "type": "bool"
        }
      ],
      "stateMutability": "view",
      "type": "function",
      "constant": true
    },
    {
      "inputs": [],
      "name": "nonce",
      "outputs": [
        {
          "internalType": "uint256",
          "name": "",
          "type": "uint256"
        }
      ],
      "stateMutability": "view",
      "type": "function",
      "constant": true
    },
    {
      "inputs": [
        {
          "internalType": "bytes32",
          "name": "role",
          "type": "bytes32"
        },
        {
          "internalType": "address",
          "name": "account",
          "type": "address"
        }
      ],
      "name": "renounceRole",
      "outputs": [],
      "stateMutability": "nonpayable",
      "type": "function"
    },
    {
      "inputs": [
        {
          "internalType": "bytes32",
          "name": "role",
          "type": "bytes32"
        },
        {
          "internalType": "address",
          "name": "account",
          "type": "address"
        }
      ],
      "name": "revokeRole",
      "outputs": [],
      "stateMutability": "nonpayable",
      "type": "function"
    },
    {
      "inputs": [
        {
          "internalType": "bytes4",
          "name": "interfaceId",
          "type": "bytes4"
        }
      ],
      "name": "supportsInterface",
      "outputs": [
        {
          "internalType": "bool",
          "name": "",
          "type": "bool"
        }
      ],
      "stateMutability": "view",
      "type": "function",
      "constant": true
    },
    {
      "inputs": [
        {
          "internalType": "address",
          "name": "_tokenAddress",
          "type": "address"
        },
        {
          "internalType": "address",
          "name": "_receiver",
          "type": "address"
        },
        {
          "internalType": "uint256",
          "name": "_amount",
          "type": "uint256"
        },
        {
          "internalType": "uint256",
          "name": "_chainIdTo",
          "type": "uint256"
        }
      ],
      "name": "send",
      "outputs": [],
      "stateMutability": "payable",
      "type": "function",
      "payable": true
    },
    {
      "inputs": [
        {
          "internalType": "bytes32",
          "name": "_debridgeId",
          "type": "bytes32"
        },
        {
          "internalType": "uint256",
          "name": "_amount",
          "type": "uint256"
        },
        {
          "internalType": "address",
          "name": "_receiver",
          "type": "address"
        },
        {
          "internalType": "uint256",
          "name": "_nonce",
          "type": "uint256"
        }
      ],
      "name": "claim",
      "outputs": [],
      "stateMutability": "nonpayable",
      "type": "function"
    },
    {
      "inputs": [
        {
          "internalType": "bytes32",
          "name": "_debridgeId",
          "type": "bytes32"
        },
        {
          "internalType": "address",
          "name": "_receiver",
          "type": "address"
        },
        {
          "internalType": "uint256",
          "name": "_amount",
          "type": "uint256"
        }
      ],
      "name": "burn",
      "outputs": [],
      "stateMutability": "nonpayable",
      "type": "function"
    },
    {
      "inputs": [
        {
          "internalType": "bytes32",
          "name": "_debridgeId",
          "type": "bytes32"
        },
        {
          "internalType": "uint256",
          "name": "_amount",
          "type": "uint256"
        },
        {
          "internalType": "address",
          "name": "_receiver",
          "type": "address"
        },
        {
          "internalType": "uint256",
          "name": "_nonce",
          "type": "uint256"
        }
      ],
      "name": "mint",
      "outputs": [],
      "stateMutability": "nonpayable",
      "type": "function"
    },
    {
      "inputs": [
        {
          "internalType": "address",
          "name": "_tokenAddress",
          "type": "address"
        },
        {
          "internalType": "uint256",
          "name": "_minAmount",
          "type": "uint256"
        },
        {
          "internalType": "uint256",
          "name": "_transferFee",
          "type": "uint256"
        },
        {
          "internalType": "uint256[]",
          "name": "_supportedChainIds",
          "type": "uint256[]"
        }
      ],
      "name": "addNativelAsset",
      "outputs": [],
      "stateMutability": "nonpayable",
      "type": "function"
    },
    {
      "inputs": [
        {
          "internalType": "bytes32",
          "name": "_debridgeId",
          "type": "bytes32"
        },
        {
          "internalType": "uint256",
          "name": "_chainId",
          "type": "uint256"
        },
        {
          "internalType": "bool",
          "name": "_isSupported",
          "type": "bool"
        }
      ],
      "name": "setChainIdSupport",
      "outputs": [],
      "stateMutability": "nonpayable",
      "type": "function"
    },
    {
      "inputs": [
        {
          "internalType": "bytes32",
          "name": "_debridgeId",
          "type": "bytes32"
        },
        {
          "internalType": "uint256",
          "name": "_chainId",
          "type": "uint256"
        },
        {
          "internalType": "uint256",
          "name": "_minAmount",
          "type": "uint256"
        },
        {
          "internalType": "uint256",
          "name": "_transferFee",
          "type": "uint256"
        },
        {
          "internalType": "uint256[]",
          "name": "_supportedChainIds",
          "type": "uint256[]"
        },
        {
          "internalType": "string",
          "name": "_name",
          "type": "string"
        },
        {
          "internalType": "string",
          "name": "_symbol",
          "type": "string"
        }
      ],
      "name": "addExternalAsset",
      "outputs": [],
      "stateMutability": "nonpayable",
      "type": "function"
    },
    {
      "inputs": [
        {
          "internalType": "contract IWhiteAggregator",
          "name": "_aggregator",
          "type": "address"
        }
      ],
      "name": "setAggregator",
      "outputs": [],
      "stateMutability": "nonpayable",
      "type": "function"
    },
    {
      "inputs": [
        {
          "internalType": "uint256",
          "name": "_chainId",
          "type": "uint256"
        },
        {
          "internalType": "address",
          "name": "_tokenAddress",
          "type": "address"
        }
      ],
      "name": "getDebridgeId",
      "outputs": [
        {
          "internalType": "bytes32",
          "name": "",
          "type": "bytes32"
        }
      ],
      "stateMutability": "pure",
      "type": "function",
      "constant": true
    },
    {
      "inputs": [
        {
          "internalType": "bytes32",
          "name": "_debridgeId",
          "type": "bytes32"
        },
        {
          "internalType": "uint256",
          "name": "_amount",
          "type": "uint256"
        },
        {
          "internalType": "address",
          "name": "_receiver",
          "type": "address"
        },
        {
          "internalType": "uint256",
          "name": "_nonce",
          "type": "uint256"
        }
      ],
      "name": "getSubmisionId",
      "outputs": [
        {
          "internalType": "bytes32",
          "name": "",
          "type": "bytes32"
        }
      ],
      "stateMutability": "pure",
      "type": "function",
      "constant": true
    }
  ],
  "bytecode": "0x60806040523480156200001157600080fd5b50604051620065ef380380620065ef83398181016040528101906200003791906200048f565b84600181905550600062000053866000620000d060201b60201c565b90506200006e8160006001548888876200010560201b60201c565b82600460006101000a81548173ffffffffffffffffffffffffffffffffffffffff021916908373ffffffffffffffffffffffffffffffffffffffff160217905550620000c46000801b336200024660201b60201c565b505050505050620007a0565b60008282604051602001620000e792919062000560565b60405160208183030381529060405280519060200120905092915050565b6000600560008881526020019081526020016000209050858160000160006101000a81548173ffffffffffffffffffffffffffffffffffffffff021916908373ffffffffffffffffffffffffffffffffffffffff1602179055508481600101819055508381600201819055508281600301819055506001816004016000600154815260200190815260200160002060006101000a81548160ff02191690831515021790555060005b82518110156200023c576001826004016000858481518110620001f9577f4e487b7100000000000000000000000000000000000000000000000000000000600052603260045260246000fd5b6020026020010151815260200190815260200160002060006101000a81548160ff0219169083151502179055508080620002339062000670565b915050620001ad565b5050505050505050565b6200025882826200025c60201b60201c565b5050565b6200026e82826200034d60201b60201c565b6200034957600160008084815260200190815260200160002060000160008373ffffffffffffffffffffffffffffffffffffffff1673ffffffffffffffffffffffffffffffffffffffff16815260200190815260200160002060006101000a81548160ff021916908315150217905550620002ee620003b760201b60201c565b73ffffffffffffffffffffffffffffffffffffffff168173ffffffffffffffffffffffffffffffffffffffff16837f2f8788117e7eff1d82e926ec794901d17c78024a50270940304540a733656f0d60405160405180910390a45b5050565b600080600084815260200190815260200160002060000160008373ffffffffffffffffffffffffffffffffffffffff1673ffffffffffffffffffffffffffffffffffffffff16815260200190815260200160002060009054906101000a900460ff16905092915050565b600033905090565b6000620003d6620003d084620005b9565b62000590565b90508083825260208201905082856020860282011115620003f657600080fd5b60005b858110156200042a57816200040f888262000478565b845260208401935060208301925050600181019050620003f9565b5050509392505050565b600082601f8301126200044657600080fd5b815162000458848260208601620003bf565b91505092915050565b60008151905062000472816200076c565b92915050565b600081519050620004898162000786565b92915050565b600080600080600060a08688031215620004a857600080fd5b6000620004b88882890162000478565b9550506020620004cb8882890162000478565b9450506040620004de8882890162000478565b9350506060620004f18882890162000461565b925050608086015167ffffffffffffffff8111156200050f57600080fd5b6200051d8882890162000434565b9150509295509295909350565b6200053f6200053982620005e8565b620006be565b82525050565b6200055a620005548262000630565b620006e6565b82525050565b60006200056e828562000545565b6020820191506200058082846200052a565b6014820191508190509392505050565b60006200059c620005af565b9050620005aa82826200063a565b919050565b6000604051905090565b600067ffffffffffffffff821115620005d757620005d66200071f565b5b602082029050602081019050919050565b6000620005f58262000610565b9050919050565b60006200060982620005e8565b9050919050565b600073ffffffffffffffffffffffffffffffffffffffff82169050919050565b6000819050919050565b62000645826200074e565b810181811067ffffffffffffffff821117156200066757620006666200071f565b5b80604052505050565b60006200067d8262000630565b91507fffffffffffffffffffffffffffffffffffffffffffffffffffffffffffffffff821415620006b357620006b2620006f0565b5b600182019050919050565b6000620006cb82620006d2565b9050919050565b6000620006df826200075f565b9050919050565b6000819050919050565b7f4e487b7100000000000000000000000000000000000000000000000000000000600052601160045260246000fd5b7f4e487b7100000000000000000000000000000000000000000000000000000000600052604160045260246000fd5b6000601f19601f8301169050919050565b60008160601b9050919050565b6200077781620005fc565b81146200078357600080fd5b50565b620007918162000630565b81146200079d57600080fd5b50565b615e3f80620007b06000396000f3fe6080604052600436106200016a5760003560e01c80639003adfe11620000c7578063a217fddf1162000079578063a217fddf146200052c578063affed0e0146200055c578063bc23a2c0146200058c578063c3c37fbc14620005d0578063d547741f14620005fe578063f9120af6146200062c576200016a565b80639003adfe14620003e6578063918f8674146200041657806391d1485414620004465780639682b909146200048a5780639a8a059214620004ce578063a1b1c40914620004fe576200016a565b8063346a90741162000121578063346a907414620002b157806336568abe14620002df5780633dc28cf1146200030d57806357cf07ca146200032d5780635e35206c146200037457806365ac9f7814620003a2576200016a565b806301ffc9a7146200016f5780630a0e5e9a14620001b357806317bb58e314620001e1578063245a7bfc146200020f578063248a9ca3146200023f5780632f2ff15d1462000283575b600080fd5b3480156200017c57600080fd5b506200019b60048036038101906200019591906200234d565b6200065a565b604051620001aa9190620028f1565b60405180910390f35b348015620001c057600080fd5b50620001df6004803603810190620001d99190620021ff565b620006d7565b005b348015620001ee57600080fd5b506200020d60048036038101906200020791906200201f565b62000772565b005b3480156200021c57600080fd5b5062000227620007ee565b60405162000236919062002998565b60405180910390f35b3480156200024c57600080fd5b506200026b6004803603810190620002659190620020d0565b62000814565b6040516200027a91906200290e565b60405180910390f35b3480156200029057600080fd5b50620002af6004803603810190620002a99190620020fc565b62000833565b005b348015620002be57600080fd5b50620002dd6004803603810190620002d791906200213d565b620008a4565b005b348015620002ec57600080fd5b506200030b6004803603810190620003059190620020fc565b62000af0565b005b6200032b600480360381019062000325919062001fb3565b62000b7a565b005b3480156200033a57600080fd5b50620003596004803603810190620003539190620020d0565b62000e47565b6040516200036b9493929190620028a4565b60405180910390f35b3480156200038157600080fd5b50620003a060048036038101906200039a919062002255565b62000e97565b005b348015620003af57600080fd5b50620003ce6004803603810190620003c89190620020d0565b62000f41565b604051620003dd9190620028f1565b60405180910390f35b348015620003f357600080fd5b50620003fe62000f61565b6040516200040d919062002c56565b60405180910390f35b3480156200042357600080fd5b506200042e62000f67565b6040516200043d919062002c56565b60405180910390f35b3480156200045357600080fd5b506200047260048036038101906200046c9190620020fc565b62000f73565b604051620004819190620028f1565b60405180910390f35b3480156200049757600080fd5b50620004b66004803603810190620004b09190620023a5565b62000fdd565b604051620004c591906200290e565b60405180910390f35b348015620004db57600080fd5b50620004e662001012565b604051620004f5919062002c56565b60405180910390f35b3480156200050b57600080fd5b506200052a600480360381019062000524919062002193565b62001018565b005b3480156200053957600080fd5b50620005446200129e565b6040516200055391906200290e565b60405180910390f35b3480156200056957600080fd5b5062000574620012a5565b60405162000583919062002c56565b60405180910390f35b3480156200059957600080fd5b50620005b86004803603810190620005b2919062002193565b620012ab565b604051620005c791906200290e565b60405180910390f35b348015620005dd57600080fd5b50620005fc6004803603810190620005f6919062002193565b620012e6565b005b3480156200060b57600080fd5b506200062a6004803603810190620006249190620020fc565b6200161c565b005b3480156200063957600080fd5b5062000658600480360381019062000652919062002379565b6200168d565b005b60007f7965db0b000000000000000000000000000000000000000000000000000000007bffffffffffffffffffffffffffffffffffffffffffffffffffffffff1916827bffffffffffffffffffffffffffffffffffffffffffffffffffffffff19161480620006d05750620006cf82620016d1565b5b9050919050565b620006e66000801b3362000f73565b62000728576040517f08c379a00000000000000000000000000000000000000000000000000000000081526004016200071f9062002b46565b60405180910390fd5b60006005600085815260200190815260200160002090508181600401600085815260200190815260200160002060006101000a81548160ff02191690831515021790555050505050565b620007816000801b3362000f73565b620007c3576040517f08c379a0000000000000000000000000000000000000000000000000000000008152600401620007ba9062002b46565b60405180910390fd5b6000620007d36001548662000fdd565b9050620007e781866001548787876200173b565b5050505050565b600460009054906101000a900473ffffffffffffffffffffffffffffffffffffffff1681565b6000806000838152602001908152602001600020600101549050919050565b62000852620008428362000814565b6200084c6200187c565b62000f73565b62000894576040517f08c379a00000000000000000000000000000000000000000000000000000000081526004016200088b9062002a14565b60405180910390fd5b620008a0828262001884565b5050565b60006005600085815260200190815260200160002090506001548160010154141562000907576040517f08c379a0000000000000000000000000000000000000000000000000000000008152600401620008fe9062002b24565b60405180910390fd5b8060020154821162000950576040517f08c379a0000000000000000000000000000000000000000000000000000000008152600401620009479062002a58565b60405180910390fd5b60008160000160009054906101000a900473ffffffffffffffffffffffffffffffffffffffff1690508073ffffffffffffffffffffffffffffffffffffffff166323b872dd3330866040518463ffffffff1660e01b8152600401620009b8939291906200283a565b602060405180830381600087803b158015620009d357600080fd5b505af1158015620009e8573d6000803e3d6000fd5b505050506040513d601f19601f8201168201806040525081019062000a0e9190620020a4565b506000670de0b6b3a764000083600301548562000a2c919062002e05565b62000a38919062002dcd565b9050600081111562000a7057806002600082825462000a58919062002d70565b92505081905550808462000a6d919062002e66565b93505b600062000a82878688600354620012ab565b90507fb8cc5195d548dc2781227c496b92d3736cd56d7f32b28971c9ae1e9eb0badf9581888789600354896001015460405162000ac5969594939291906200292b565b60405180910390a16003600081548092919062000ae29062002fd8565b919050555050505050505050565b62000afa6200187c565b73ffffffffffffffffffffffffffffffffffffffff168173ffffffffffffffffffffffffffffffffffffffff161462000b6a576040517f08c379a000000000000000000000000000000000000000000000000000000000815260040162000b619062002c34565b60405180910390fd5b62000b76828262001969565b5050565b600062000b8a6001548662000fdd565b9050600060056000838152602001908152602001600020905080600401600084815260200190815260200160002060009054906101000a900460ff1662000c08576040517f08c379a000000000000000000000000000000000000000000000000000000000815260040162000bff9062002bac565b60405180910390fd5b806004016000600154815260200190815260200160002060009054906101000a900460ff1662000c6f576040517f08c379a000000000000000000000000000000000000000000000000000000000815260040162000c669062002bac565b60405180910390fd5b8060020154841162000cb8576040517f08c379a000000000000000000000000000000000000000000000000000000000815260040162000caf9062002ae0565b60405180910390fd5b600073ffffffffffffffffffffffffffffffffffffffff168673ffffffffffffffffffffffffffffffffffffffff16141562000d395734841462000d33576040517f08c379a000000000000000000000000000000000000000000000000000000000815260040162000d2a9062002c12565b60405180910390fd5b62000d69565b62000d683330868973ffffffffffffffffffffffffffffffffffffffff1662001a4f909392919063ffffffff16565b5b6000670de0b6b3a764000082600301548662000d86919062002e05565b62000d92919062002dcd565b9050600081111562000dca57806002600082825462000db2919062002d70565b92505081905550808562000dc7919062002e66565b94505b600062000ddc848789600354620012ab565b90507f17c61cb89b62a3f29f5b150e3489c7a796ac4dc95fd73af14faa2c8086a324b48185888a6003548a60405162000e1b969594939291906200292b565b60405180910390a16003600081548092919062000e389062002fd8565b91905055505050505050505050565b60056020528060005260406000206000915090508060000160009054906101000a900473ffffffffffffffffffffffffffffffffffffffff16908060010154908060020154908060030154905084565b62000ea66000801b3362000f73565b62000ee8576040517f08c379a000000000000000000000000000000000000000000000000000000000815260040162000edf9062002b46565b60405180910390fd5b6000828260405162000efa9062001df0565b62000f07929190620029d9565b604051809103906000f08015801562000f24573d6000803e3d6000fd5b50905062000f378882898989896200173b565b5050505050505050565b60066020528060005260406000206000915054906101000a900460ff1681565b60025481565b670de0b6b3a764000081565b600080600084815260200190815260200160002060000160008373ffffffffffffffffffffffffffffffffffffffff1673ffffffffffffffffffffffffffffffffffffffff16815260200190815260200160002060009054906101000a900460ff16905092915050565b6000828260405160200162000ff49291906200280a565b60405160208183030381529060405280519060200120905092915050565b60015481565b60006200102885858585620012ab565b9050600460009054906101000a900473ffffffffffffffffffffffffffffffffffffffff1673ffffffffffffffffffffffffffffffffffffffff1663a1e5c7b1826040518263ffffffff1660e01b81526004016200108791906200290e565b60206040518083038186803b158015620010a057600080fd5b505afa158015620010b5573d6000803e3d6000fd5b505050506040513d601f19601f82011682018060405250810190620010db9190620020a4565b6200111d576040517f08c379a0000000000000000000000000000000000000000000000000000000008152600401620011149062002b8a565b60405180910390fd5b6006600082815260200190815260200160002060009054906101000a900460ff161562001181576040517f08c379a0000000000000000000000000000000000000000000000000000000008152600401620011789062002abe565b60405180910390fd5b600060056000878152602001908152602001600020905060016006600084815260200190815260200160002060006101000a81548160ff0219169083151502179055508060000160009054906101000a900473ffffffffffffffffffffffffffffffffffffffff1673ffffffffffffffffffffffffffffffffffffffff166340c10f1985876040518363ffffffff1660e01b81526004016200122592919062002877565b600060405180830381600087803b1580156200124057600080fd5b505af115801562001255573d6000803e3d6000fd5b505050507f735d687607ce9e35b73121f5b238c4cd2854db103741adba51d670bb706051cc8585886040516200128e9392919062002c73565b60405180910390a1505050505050565b6000801b81565b60035481565b600084848484604051602001620012c694939291906200279b565b604051602081830303815290604052805190602001209050949350505050565b6000620012f685858585620012ab565b9050600460009054906101000a900473ffffffffffffffffffffffffffffffffffffffff1673ffffffffffffffffffffffffffffffffffffffff1663a61ece18826040518263ffffffff1660e01b81526004016200135591906200290e565b60206040518083038186803b1580156200136e57600080fd5b505afa15801562001383573d6000803e3d6000fd5b505050506040513d601f19601f82011682018060405250810190620013a99190620020a4565b620013eb576040517f08c379a0000000000000000000000000000000000000000000000000000000008152600401620013e29062002a9c565b60405180910390fd5b60006005600087815260200190815260200160002090506001548160010154146200144d576040517f08c379a0000000000000000000000000000000000000000000000000000000008152600401620014449062002bce565b60405180910390fd5b6006600083815260200190815260200160002060009054906101000a900460ff1615620014b1576040517f08c379a0000000000000000000000000000000000000000000000000000000008152600401620014a89062002a36565b60405180910390fd5b60016006600084815260200190815260200160002060006101000a81548160ff021916908315150217905550600073ffffffffffffffffffffffffffffffffffffffff168160000160009054906101000a900473ffffffffffffffffffffffffffffffffffffffff1673ffffffffffffffffffffffffffffffffffffffff16141562001585578373ffffffffffffffffffffffffffffffffffffffff166108fc869081150290604051600060405180830381858888f193505050501580156200157e573d6000803e3d6000fd5b50620015d7565b620015d684868360000160009054906101000a900473ffffffffffffffffffffffffffffffffffffffff1673ffffffffffffffffffffffffffffffffffffffff1662001adc9092919063ffffffff16565b5b7fbcb8b73e5a89971ee294cc3d2f51a084375b679f88047211b28c5344acb53df58585886040516200160c9392919062002c73565b60405180910390a1505050505050565b6200163b6200162b8362000814565b620016356200187c565b62000f73565b6200167d576040517f08c379a0000000000000000000000000000000000000000000000000000000008152600401620016749062002b02565b60405180910390fd5b62001689828262001969565b5050565b80600460006101000a81548173ffffffffffffffffffffffffffffffffffffffff021916908373ffffffffffffffffffffffffffffffffffffffff16021790555050565b60007f01ffc9a7000000000000000000000000000000000000000000000000000000007bffffffffffffffffffffffffffffffffffffffffffffffffffffffff1916827bffffffffffffffffffffffffffffffffffffffffffffffffffffffff1916149050919050565b6000600560008881526020019081526020016000209050858160000160006101000a81548173ffffffffffffffffffffffffffffffffffffffff021916908373ffffffffffffffffffffffffffffffffffffffff1602179055508481600101819055508381600201819055508281600301819055506001816004016000600154815260200190815260200160002060006101000a81548160ff02191690831515021790555060005b8251811015620018725760018260040160008584815181106200182f577f4e487b7100000000000000000000000000000000000000000000000000000000600052603260045260246000fd5b6020026020010151815260200190815260200160002060006101000a81548160ff0219169083151502179055508080620018699062002fd8565b915050620017e3565b5050505050505050565b600033905090565b62001890828262000f73565b6200196557600160008084815260200190815260200160002060000160008373ffffffffffffffffffffffffffffffffffffffff1673ffffffffffffffffffffffffffffffffffffffff16815260200190815260200160002060006101000a81548160ff0219169083151502179055506200190a6200187c565b73ffffffffffffffffffffffffffffffffffffffff168173ffffffffffffffffffffffffffffffffffffffff16837f2f8788117e7eff1d82e926ec794901d17c78024a50270940304540a733656f0d60405160405180910390a45b5050565b62001975828262000f73565b1562001a4b57600080600084815260200190815260200160002060000160008373ffffffffffffffffffffffffffffffffffffffff1673ffffffffffffffffffffffffffffffffffffffff16815260200190815260200160002060006101000a81548160ff021916908315150217905550620019f06200187c565b73ffffffffffffffffffffffffffffffffffffffff168173ffffffffffffffffffffffffffffffffffffffff16837ff6391f5c32d9c69d2a47ea670b442974b53935d1edc7fd64eb21e047a839171b60405160405180910390a45b5050565b62001ad6846323b872dd60e01b85858560405160240162001a73939291906200283a565b604051602081830303815290604052907bffffffffffffffffffffffffffffffffffffffffffffffffffffffff19166020820180517bffffffffffffffffffffffffffffffffffffffffffffffffffffffff838183161783525050505062001b66565b50505050565b62001b618363a9059cbb60e01b848460405160240162001afe92919062002877565b604051602081830303815290604052907bffffffffffffffffffffffffffffffffffffffffffffffffffffffff19166020820180517bffffffffffffffffffffffffffffffffffffffffffffffffffffffff838183161783525050505062001b66565b505050565b600062001bca826040518060400160405280602081526020017f5361666545524332303a206c6f772d6c6576656c2063616c6c206661696c65648152508573ffffffffffffffffffffffffffffffffffffffff1662001c359092919063ffffffff16565b905060008151111562001c30578080602001905181019062001bed9190620020a4565b62001c2f576040517f08c379a000000000000000000000000000000000000000000000000000000000815260040162001c269062002bf0565b60405180910390fd5b5b505050565b606062001c46848460008562001c4f565b90509392505050565b60608247101562001c97576040517f08c379a000000000000000000000000000000000000000000000000000000000815260040162001c8e9062002a7a565b60405180910390fd5b62001ca28562001d71565b62001ce4576040517f08c379a000000000000000000000000000000000000000000000000000000000815260040162001cdb9062002b68565b60405180910390fd5b6000808673ffffffffffffffffffffffffffffffffffffffff16858760405162001d0f9190620027f1565b60006040518083038185875af1925050503d806000811462001d4e576040519150601f19603f3d011682016040523d82523d6000602084013e62001d53565b606091505b509150915062001d6582828662001d84565b92505050949350505050565b600080823b905060008111915050919050565b6060831562001d965782905062001de9565b60008351111562001daa5782518084602001fd5b816040517f08c379a000000000000000000000000000000000000000000000000000000000815260040162001de09190620029b5565b60405180910390fd5b9392505050565b6128e9806200352183390190565b600062001e1562001e0f8462002cd9565b62002cb0565b9050808382526020820190508285602086028201111562001e3557600080fd5b60005b8581101562001e69578162001e4e888262001f9c565b84526020840193506020830192505060018101905062001e38565b5050509392505050565b600062001e8a62001e848462002d08565b62002cb0565b90508281526020810184848401111562001ea357600080fd5b62001eb084828562002f5d565b509392505050565b60008135905062001ec98162003484565b92915050565b600082601f83011262001ee157600080fd5b813562001ef384826020860162001dfe565b91505092915050565b60008135905062001f0d816200349e565b92915050565b60008151905062001f24816200349e565b92915050565b60008135905062001f3b81620034b8565b92915050565b60008135905062001f5281620034d2565b92915050565b60008135905062001f6981620034ec565b92915050565b600082601f83011262001f8157600080fd5b813562001f9384826020860162001e73565b91505092915050565b60008135905062001fad8162003506565b92915050565b6000806000806080858703121562001fca57600080fd5b600062001fda8782880162001eb8565b945050602062001fed8782880162001eb8565b9350506040620020008782880162001f9c565b9250506060620020138782880162001f9c565b91505092959194509250565b600080600080608085870312156200203657600080fd5b6000620020468782880162001eb8565b9450506020620020598782880162001f9c565b93505060406200206c8782880162001f9c565b925050606085013567ffffffffffffffff8111156200208a57600080fd5b620020988782880162001ecf565b91505092959194509250565b600060208284031215620020b757600080fd5b6000620020c78482850162001f13565b91505092915050565b600060208284031215620020e357600080fd5b6000620020f38482850162001f2a565b91505092915050565b600080604083850312156200211057600080fd5b6000620021208582860162001f2a565b9250506020620021338582860162001eb8565b9150509250929050565b6000806000606084860312156200215357600080fd5b6000620021638682870162001f2a565b9350506020620021768682870162001eb8565b9250506040620021898682870162001f9c565b9150509250925092565b60008060008060808587031215620021aa57600080fd5b6000620021ba8782880162001f2a565b9450506020620021cd8782880162001f9c565b9350506040620021e08782880162001eb8565b9250506060620021f38782880162001f9c565b91505092959194509250565b6000806000606084860312156200221557600080fd5b6000620022258682870162001f2a565b9350506020620022388682870162001f9c565b92505060406200224b8682870162001efc565b9150509250925092565b600080600080600080600060e0888a0312156200227157600080fd5b6000620022818a828b0162001f2a565b9750506020620022948a828b0162001f9c565b9650506040620022a78a828b0162001f9c565b9550506060620022ba8a828b0162001f9c565b945050608088013567ffffffffffffffff811115620022d857600080fd5b620022e68a828b0162001ecf565b93505060a088013567ffffffffffffffff8111156200230457600080fd5b620023128a828b0162001f6f565b92505060c088013567ffffffffffffffff8111156200233057600080fd5b6200233e8a828b0162001f6f565b91505092959891949750929550565b6000602082840312156200236057600080fd5b6000620023708482850162001f41565b91505092915050565b6000602082840312156200238c57600080fd5b60006200239c8482850162001f58565b91505092915050565b60008060408385031215620023b957600080fd5b6000620023c98582860162001f9c565b9250506020620023dc8582860162001eb8565b9150509250929050565b620023f18162002ea1565b82525050565b6200240c620024068262002ea1565b62003026565b82525050565b6200241d8162002eb5565b82525050565b6200242e8162002ec1565b82525050565b62002449620024438262002ec1565b6200303a565b82525050565b60006200245c8262002d3e565b62002468818562002d54565b93506200247a81856020860162002f6c565b80840191505092915050565b620024918162002f35565b82525050565b6000620024a48262002d49565b620024b0818562002d5f565b9350620024c281856020860162002f6c565b620024cd81620030ef565b840191505092915050565b6000620024e7602f8362002d5f565b9150620024f4826200310d565b604082019050919050565b60006200250e60138362002d5f565b91506200251b826200315c565b602082019050919050565b60006200253560148362002d5f565b9150620025428262003185565b602082019050919050565b60006200255c60268362002d5f565b91506200256982620031ae565b604082019050919050565b60006200258360148362002d5f565b91506200259082620031fd565b602082019050919050565b6000620025aa60128362002d5f565b9150620025b78262003226565b602082019050919050565b6000620025d160148362002d5f565b9150620025de826200324f565b602082019050919050565b6000620025f860308362002d5f565b9150620026058262003278565b604082019050919050565b60006200261f60138362002d5f565b91506200262c82620032c7565b602082019050919050565b60006200264660138362002d5f565b91506200265382620032f0565b602082019050919050565b60006200266d601d8362002d5f565b91506200267a8262003319565b602082019050919050565b60006200269460138362002d5f565b9150620026a18262003342565b602082019050919050565b6000620026bb601f8362002d5f565b9150620026c8826200336b565b602082019050919050565b6000620026e260208362002d5f565b9150620026ef8262003394565b602082019050919050565b600062002709602a8362002d5f565b91506200271682620033bd565b604082019050919050565b60006200273060158362002d5f565b91506200273d826200340c565b602082019050919050565b600062002757602f8362002d5f565b9150620027648262003435565b604082019050919050565b6200277a8162002f2b565b82525050565b620027956200278f8262002f2b565b62003058565b82525050565b6000620027a9828762002434565b602082019150620027bb828662002780565b602082019150620027cd8285620023f7565b601482019150620027df828462002780565b60208201915081905095945050505050565b6000620027ff82846200244f565b915081905092915050565b600062002818828562002780565b6020820191506200282a8284620023f7565b6014820191508190509392505050565b6000606082019050620028516000830186620023e6565b620028606020830185620023e6565b6200286f60408301846200276f565b949350505050565b60006040820190506200288e6000830185620023e6565b6200289d60208301846200276f565b9392505050565b6000608082019050620028bb6000830187620023e6565b620028ca60208301866200276f565b620028d960408301856200276f565b620028e860608301846200276f565b95945050505050565b600060208201905062002908600083018462002412565b92915050565b600060208201905062002925600083018462002423565b92915050565b600060c08201905062002942600083018962002423565b62002951602083018862002423565b6200296060408301876200276f565b6200296f6060830186620023e6565b6200297e60808301856200276f565b6200298d60a08301846200276f565b979650505050505050565b6000602082019050620029af600083018462002486565b92915050565b60006020820190508181036000830152620029d1818462002497565b905092915050565b60006040820190508181036000830152620029f5818562002497565b9050818103602083015262002a0b818462002497565b90509392505050565b6000602082019050818103600083015262002a2f81620024d8565b9050919050565b6000602082019050818103600083015262002a5181620024ff565b9050919050565b6000602082019050818103600083015262002a738162002526565b9050919050565b6000602082019050818103600083015262002a95816200254d565b9050919050565b6000602082019050818103600083015262002ab78162002574565b9050919050565b6000602082019050818103600083015262002ad9816200259b565b9050919050565b6000602082019050818103600083015262002afb81620025c2565b9050919050565b6000602082019050818103600083015262002b1d81620025e9565b9050919050565b6000602082019050818103600083015262002b3f8162002610565b9050919050565b6000602082019050818103600083015262002b618162002637565b9050919050565b6000602082019050818103600083015262002b83816200265e565b9050919050565b6000602082019050818103600083015262002ba58162002685565b9050919050565b6000602082019050818103600083015262002bc781620026ac565b9050919050565b6000602082019050818103600083015262002be981620026d3565b9050919050565b6000602082019050818103600083015262002c0b81620026fa565b9050919050565b6000602082019050818103600083015262002c2d8162002721565b9050919050565b6000602082019050818103600083015262002c4f8162002748565b9050919050565b600060208201905062002c6d60008301846200276f565b92915050565b600060608201905062002c8a60008301866200276f565b62002c996020830185620023e6565b62002ca8604083018462002423565b949350505050565b600062002cbc62002ccf565b905062002cca828262002fa2565b919050565b6000604051905090565b600067ffffffffffffffff82111562002cf75762002cf6620030c0565b5b602082029050602081019050919050565b600067ffffffffffffffff82111562002d265762002d25620030c0565b5b62002d3182620030ef565b9050602081019050919050565b600081519050919050565b600081519050919050565b600081905092915050565b600082825260208201905092915050565b600062002d7d8262002f2b565b915062002d8a8362002f2b565b9250827fffffffffffffffffffffffffffffffffffffffffffffffffffffffffffffffff0382111562002dc25762002dc162003062565b5b828201905092915050565b600062002dda8262002f2b565b915062002de78362002f2b565b92508262002dfa5762002df962003091565b5b828204905092915050565b600062002e128262002f2b565b915062002e1f8362002f2b565b9250817fffffffffffffffffffffffffffffffffffffffffffffffffffffffffffffffff048311821515161562002e5b5762002e5a62003062565b5b828202905092915050565b600062002e738262002f2b565b915062002e808362002f2b565b92508282101562002e965762002e9562003062565b5b828203905092915050565b600062002eae8262002f0b565b9050919050565b60008115159050919050565b6000819050919050565b60007fffffffff0000000000000000000000000000000000000000000000000000000082169050919050565b600062002f048262002ea1565b9050919050565b600073ffffffffffffffffffffffffffffffffffffffff82169050919050565b6000819050919050565b600062002f428262002f49565b9050919050565b600062002f568262002f0b565b9050919050565b82818337600083830152505050565b60005b8381101562002f8c57808201518184015260208101905062002f6f565b8381111562002f9c576000848401525b50505050565b62002fad82620030ef565b810181811067ffffffffffffffff8211171562002fcf5762002fce620030c0565b5b80604052505050565b600062002fe58262002f2b565b91507fffffffffffffffffffffffffffffffffffffffffffffffffffffffffffffffff8214156200301b576200301a62003062565b5b600182019050919050565b6000620030338262003044565b9050919050565b6000819050919050565b6000620030518262003100565b9050919050565b6000819050919050565b7f4e487b7100000000000000000000000000000000000000000000000000000000600052601160045260246000fd5b7f4e487b7100000000000000000000000000000000000000000000000000000000600052601260045260246000fd5b7f4e487b7100000000000000000000000000000000000000000000000000000000600052604160045260246000fd5b6000601f19601f8301169050919050565b60008160601b9050919050565b7f416363657373436f6e74726f6c3a2073656e646572206d75737420626520616e60008201527f2061646d696e20746f206772616e740000000000000000000000000000000000602082015250565b7f636c61696d3a20616c7265616479207573656400000000000000000000000000600082015250565b7f6275726e3a20616d6f756e7420746f6f206c6f77000000000000000000000000600082015250565b7f416464726573733a20696e73756666696369656e742062616c616e636520666f60008201527f722063616c6c0000000000000000000000000000000000000000000000000000602082015250565b7f636c61696d3a206e6f7420636f6e6669726d6564000000000000000000000000600082015250565b7f6d696e743a20616c726561647920757365640000000000000000000000000000600082015250565b7f73656e643a20616d6f756e7420746f6f206c6f77000000000000000000000000600082015250565b7f416363657373436f6e74726f6c3a2073656e646572206d75737420626520616e60008201527f2061646d696e20746f207265766f6b6500000000000000000000000000000000602082015250565b7f6275726e3a2077726f6e6720636861696e496400000000000000000000000000600082015250565b7f6f6e6c7941646d696e3a2062616420726f6c6500000000000000000000000000600082015250565b7f416464726573733a2063616c6c20746f206e6f6e2d636f6e7472616374000000600082015250565b7f6d696e743a206e6f7420636f6e6669726d656400000000000000000000000000600082015250565b7f73656e643a2077726f6e67207461726765642074617267657420636861696e00600082015250565b7f636c61696d3a2077726f6e67207461726765642074617267657420636861696e600082015250565b7f5361666545524332303a204552433230206f7065726174696f6e20646964206e60008201527f6f74207375636365656400000000000000000000000000000000000000000000602082015250565b7f73656e643a20616d6f756e74206d69736d617463680000000000000000000000600082015250565b7f416363657373436f6e74726f6c3a2063616e206f6e6c792072656e6f756e636560008201527f20726f6c657320666f722073656c660000000000000000000000000000000000602082015250565b6200348f8162002ea1565b81146200349b57600080fd5b50565b620034a98162002eb5565b8114620034b557600080fd5b50565b620034c38162002ec1565b8114620034cf57600080fd5b50565b620034dd8162002ecb565b8114620034e957600080fd5b50565b620034f78162002ef7565b81146200350357600080fd5b50565b620035118162002f2b565b81146200351d57600080fd5b5056fe60806040523480156200001157600080fd5b50604051620028e9380380620028e9833981810160405281019062000037919062000357565b818181600490805190602001906200005192919062000235565b5080600590805190602001906200006a92919062000235565b505050620000826000801b33620000bc60201b60201c565b620000b47f9f2df0fed2c77648de5860a4cc508cd0818c85b8b8a1ab4ceeef8d981c8956a633620000bc60201b60201c565b50506200053a565b620000ce8282620000d260201b60201c565b5050565b620000e48282620001c360201b60201c565b620001bf57600160008084815260200190815260200160002060000160008373ffffffffffffffffffffffffffffffffffffffff1673ffffffffffffffffffffffffffffffffffffffff16815260200190815260200160002060006101000a81548160ff021916908315150217905550620001646200022d60201b60201c565b73ffffffffffffffffffffffffffffffffffffffff168173ffffffffffffffffffffffffffffffffffffffff16837f2f8788117e7eff1d82e926ec794901d17c78024a50270940304540a733656f0d60405160405180910390a45b5050565b600080600084815260200190815260200160002060000160008373ffffffffffffffffffffffffffffffffffffffff1673ffffffffffffffffffffffffffffffffffffffff16815260200190815260200160002060009054906101000a900460ff16905092915050565b600033905090565b82805462000243906200045f565b90600052602060002090601f016020900481019282620002675760008555620002b3565b82601f106200028257805160ff1916838001178555620002b3565b82800160010185558215620002b3579182015b82811115620002b257825182559160200191906001019062000295565b5b509050620002c29190620002c6565b5090565b5b80821115620002e1576000816000905550600101620002c7565b5090565b6000620002fc620002f684620003f3565b620003ca565b9050828152602081018484840111156200031557600080fd5b6200032284828562000429565b509392505050565b600082601f8301126200033c57600080fd5b81516200034e848260208601620002e5565b91505092915050565b600080604083850312156200036b57600080fd5b600083015167ffffffffffffffff8111156200038657600080fd5b62000394858286016200032a565b925050602083015167ffffffffffffffff811115620003b257600080fd5b620003c0858286016200032a565b9150509250929050565b6000620003d6620003e9565b9050620003e4828262000495565b919050565b6000604051905090565b600067ffffffffffffffff821115620004115762000410620004fa565b5b6200041c8262000529565b9050602081019050919050565b60005b83811015620004495780820151818401526020810190506200042c565b8381111562000459576000848401525b50505050565b600060028204905060018216806200047857607f821691505b602082108114156200048f576200048e620004cb565b5b50919050565b620004a08262000529565b810181811067ffffffffffffffff82111715620004c257620004c1620004fa565b5b80604052505050565b7f4e487b7100000000000000000000000000000000000000000000000000000000600052602260045260246000fd5b7f4e487b7100000000000000000000000000000000000000000000000000000000600052604160045260246000fd5b6000601f19601f8301169050919050565b61239f806200054a6000396000f3fe608060405234801561001057600080fd5b50600436106101375760003560e01c806340c10f19116100b8578063a217fddf1161007c578063a217fddf14610374578063a457c2d714610392578063a9059cbb146103c2578063d5391393146103f2578063d547741f14610410578063dd62ed3e1461042c57610137565b806340c10f19146102be57806342966c68146102da57806370a08231146102f657806391d148541461032657806395d89b411461035657610137565b8063248a9ca3116100ff578063248a9ca3146102085780632f2ff15d14610238578063313ce5671461025457806336568abe14610272578063395093511461028e57610137565b806301ffc9a71461013c57806306fdde031461016c578063095ea7b31461018a57806318160ddd146101ba57806323b872dd146101d8575b600080fd5b61015660048036038101906101519190611803565b61045c565b6040516101639190611ab4565b60405180910390f35b6101746104d6565b6040516101819190611aea565b60405180910390f35b6101a4600480360381019061019f9190611762565b610568565b6040516101b19190611ab4565b60405180910390f35b6101c2610586565b6040516101cf9190611ccc565b60405180910390f35b6101f260048036038101906101ed9190611713565b610590565b6040516101ff9190611ab4565b60405180910390f35b610222600480360381019061021d919061179e565b610691565b60405161022f9190611acf565b60405180910390f35b610252600480360381019061024d91906117c7565b6106b0565b005b61025c610716565b6040516102699190611ce7565b60405180910390f35b61028c600480360381019061028791906117c7565b61071f565b005b6102a860048036038101906102a39190611762565b6107a2565b6040516102b59190611ab4565b60405180910390f35b6102d860048036038101906102d39190611762565b61084e565b005b6102f460048036038101906102ef919061182c565b6108c5565b005b610310600480360381019061030b91906116ae565b61093b565b60405161031d9190611ccc565b60405180910390f35b610340600480360381019061033b91906117c7565b610984565b60405161034d9190611ab4565b60405180910390f35b61035e6109ee565b60405161036b9190611aea565b60405180910390f35b61037c610a80565b6040516103899190611acf565b60405180910390f35b6103ac60048036038101906103a79190611762565b610a87565b6040516103b99190611ab4565b60405180910390f35b6103dc60048036038101906103d79190611762565b610b7b565b6040516103e99190611ab4565b60405180910390f35b6103fa610b99565b6040516104079190611acf565b60405180910390f35b61042a600480360381019061042591906117c7565b610bbd565b005b610446600480360381019061044191906116d7565b610c23565b6040516104539190611ccc565b60405180910390f35b60007f7965db0b000000000000000000000000000000000000000000000000000000007bffffffffffffffffffffffffffffffffffffffffffffffffffffffff1916827bffffffffffffffffffffffffffffffffffffffffffffffffffffffff191614806104cf57506104ce82610caa565b5b9050919050565b6060600480546104e590611e66565b80601f016020809104026020016040519081016040528092919081815260200182805461051190611e66565b801561055e5780601f106105335761010080835404028352916020019161055e565b820191906000526020600020905b81548152906001019060200180831161054157829003601f168201915b5050505050905090565b600061057c610575610d14565b8484610d1c565b6001905092915050565b6000600354905090565b600061059d848484610ee7565b6000600260008673ffffffffffffffffffffffffffffffffffffffff1673ffffffffffffffffffffffffffffffffffffffff16815260200190815260200160002060006105e8610d14565b73ffffffffffffffffffffffffffffffffffffffff1673ffffffffffffffffffffffffffffffffffffffff16815260200190815260200160002054905082811015610668576040517f08c379a000000000000000000000000000000000000000000000000000000000815260040161065f90611bcc565b60405180910390fd5b61068585610674610d14565b85846106809190611d74565b610d1c565b60019150509392505050565b6000806000838152602001908152602001600020600101549050919050565b6106c96106bc83610691565b6106c4610d14565b610984565b610708576040517f08c379a00000000000000000000000000000000000000000000000000000000081526004016106ff90611b2c565b60405180910390fd5b6107128282611169565b5050565b60006012905090565b610727610d14565b73ffffffffffffffffffffffffffffffffffffffff168173ffffffffffffffffffffffffffffffffffffffff1614610794576040517f08c379a000000000000000000000000000000000000000000000000000000000815260040161078b90611c6c565b60405180910390fd5b61079e8282611249565b5050565b60006108446107af610d14565b8484600260006107bd610d14565b73ffffffffffffffffffffffffffffffffffffffff1673ffffffffffffffffffffffffffffffffffffffff16815260200190815260200160002060008873ffffffffffffffffffffffffffffffffffffffff1673ffffffffffffffffffffffffffffffffffffffff1681526020019081526020016000205461083f9190611d1e565b610d1c565b6001905092915050565b6108787f9f2df0fed2c77648de5860a4cc508cd0818c85b8b8a1ab4ceeef8d981c8956a633610984565b6108b7576040517f08c379a00000000000000000000000000000000000000000000000000000000081526004016108ae90611c8c565b60405180910390fd5b6108c1828261132a565b5050565b6108ef7f9f2df0fed2c77648de5860a4cc508cd0818c85b8b8a1ab4ceeef8d981c8956a633610984565b61092e576040517f08c379a000000000000000000000000000000000000000000000000000000000815260040161092590611c8c565b60405180910390fd5b610938338261147f565b50565b6000600160008373ffffffffffffffffffffffffffffffffffffffff1673ffffffffffffffffffffffffffffffffffffffff168152602001908152602001600020549050919050565b600080600084815260200190815260200160002060000160008373ffffffffffffffffffffffffffffffffffffffff1673ffffffffffffffffffffffffffffffffffffffff16815260200190815260200160002060009054906101000a900460ff16905092915050565b6060600580546109fd90611e66565b80601f0160208091040260200160405190810160405280929190818152602001828054610a2990611e66565b8015610a765780601f10610a4b57610100808354040283529160200191610a76565b820191906000526020600020905b815481529060010190602001808311610a5957829003601f168201915b5050505050905090565b6000801b81565b60008060026000610a96610d14565b73ffffffffffffffffffffffffffffffffffffffff1673ffffffffffffffffffffffffffffffffffffffff16815260200190815260200160002060008573ffffffffffffffffffffffffffffffffffffffff1673ffffffffffffffffffffffffffffffffffffffff16815260200190815260200160002054905082811015610b53576040517f08c379a0000000000000000000000000000000000000000000000000000000008152600401610b4a90611c4c565b60405180910390fd5b610b70610b5e610d14565b858584610b6b9190611d74565b610d1c565b600191505092915050565b6000610b8f610b88610d14565b8484610ee7565b6001905092915050565b7f9f2df0fed2c77648de5860a4cc508cd0818c85b8b8a1ab4ceeef8d981c8956a681565b610bd6610bc983610691565b610bd1610d14565b610984565b610c15576040517f08c379a0000000000000000000000000000000000000000000000000000000008152600401610c0c90611bac565b60405180910390fd5b610c1f8282611249565b5050565b6000600260008473ffffffffffffffffffffffffffffffffffffffff1673ffffffffffffffffffffffffffffffffffffffff16815260200190815260200160002060008373ffffffffffffffffffffffffffffffffffffffff1673ffffffffffffffffffffffffffffffffffffffff16815260200190815260200160002054905092915050565b60007f01ffc9a7000000000000000000000000000000000000000000000000000000007bffffffffffffffffffffffffffffffffffffffffffffffffffffffff1916827bffffffffffffffffffffffffffffffffffffffffffffffffffffffff1916149050919050565b600033905090565b600073ffffffffffffffffffffffffffffffffffffffff168373ffffffffffffffffffffffffffffffffffffffff161415610d8c576040517f08c379a0000000000000000000000000000000000000000000000000000000008152600401610d8390611c2c565b60405180910390fd5b600073ffffffffffffffffffffffffffffffffffffffff168273ffffffffffffffffffffffffffffffffffffffff161415610dfc576040517f08c379a0000000000000000000000000000000000000000000000000000000008152600401610df390611b6c565b60405180910390fd5b80600260008573ffffffffffffffffffffffffffffffffffffffff1673ffffffffffffffffffffffffffffffffffffffff16815260200190815260200160002060008473ffffffffffffffffffffffffffffffffffffffff1673ffffffffffffffffffffffffffffffffffffffff168152602001908152602001600020819055508173ffffffffffffffffffffffffffffffffffffffff168373ffffffffffffffffffffffffffffffffffffffff167f8c5be1e5ebec7d5bd14f71427d1e84f3dd0314c0f7b2291e5b200ac8c7c3b92583604051610eda9190611ccc565b60405180910390a3505050565b600073ffffffffffffffffffffffffffffffffffffffff168373ffffffffffffffffffffffffffffffffffffffff161415610f57576040517f08c379a0000000000000000000000000000000000000000000000000000000008152600401610f4e90611c0c565b60405180910390fd5b600073ffffffffffffffffffffffffffffffffffffffff168273ffffffffffffffffffffffffffffffffffffffff161415610fc7576040517f08c379a0000000000000000000000000000000000000000000000000000000008152600401610fbe90611b0c565b60405180910390fd5b610fd2838383611655565b6000600160008573ffffffffffffffffffffffffffffffffffffffff1673ffffffffffffffffffffffffffffffffffffffff16815260200190815260200160002054905081811015611059576040517f08c379a000000000000000000000000000000000000000000000000000000000815260040161105090611b8c565b60405180910390fd5b81816110659190611d74565b600160008673ffffffffffffffffffffffffffffffffffffffff1673ffffffffffffffffffffffffffffffffffffffff1681526020019081526020016000208190555081600160008573ffffffffffffffffffffffffffffffffffffffff1673ffffffffffffffffffffffffffffffffffffffff16815260200190815260200160002060008282546110f79190611d1e565b925050819055508273ffffffffffffffffffffffffffffffffffffffff168473ffffffffffffffffffffffffffffffffffffffff167fddf252ad1be2c89b69c2b068fc378daa952ba7f163c4a11628f55a4df523b3ef8460405161115b9190611ccc565b60405180910390a350505050565b6111738282610984565b61124557600160008084815260200190815260200160002060000160008373ffffffffffffffffffffffffffffffffffffffff1673ffffffffffffffffffffffffffffffffffffffff16815260200190815260200160002060006101000a81548160ff0219169083151502179055506111ea610d14565b73ffffffffffffffffffffffffffffffffffffffff168173ffffffffffffffffffffffffffffffffffffffff16837f2f8788117e7eff1d82e926ec794901d17c78024a50270940304540a733656f0d60405160405180910390a45b5050565b6112538282610984565b1561132657600080600084815260200190815260200160002060000160008373ffffffffffffffffffffffffffffffffffffffff1673ffffffffffffffffffffffffffffffffffffffff16815260200190815260200160002060006101000a81548160ff0219169083151502179055506112cb610d14565b73ffffffffffffffffffffffffffffffffffffffff168173ffffffffffffffffffffffffffffffffffffffff16837ff6391f5c32d9c69d2a47ea670b442974b53935d1edc7fd64eb21e047a839171b60405160405180910390a45b5050565b600073ffffffffffffffffffffffffffffffffffffffff168273ffffffffffffffffffffffffffffffffffffffff16141561139a576040517f08c379a000000000000000000000000000000000000000000000000000000000815260040161139190611cac565b60405180910390fd5b6113a660008383611655565b80600360008282546113b89190611d1e565b9250508190555080600160008473ffffffffffffffffffffffffffffffffffffffff1673ffffffffffffffffffffffffffffffffffffffff168152602001908152602001600020600082825461140e9190611d1e565b925050819055508173ffffffffffffffffffffffffffffffffffffffff16600073ffffffffffffffffffffffffffffffffffffffff167fddf252ad1be2c89b69c2b068fc378daa952ba7f163c4a11628f55a4df523b3ef836040516114739190611ccc565b60405180910390a35050565b600073ffffffffffffffffffffffffffffffffffffffff168273ffffffffffffffffffffffffffffffffffffffff1614156114ef576040517f08c379a00000000000000000000000000000000000000000000000000000000081526004016114e690611bec565b60405180910390fd5b6114fb82600083611655565b6000600160008473ffffffffffffffffffffffffffffffffffffffff1673ffffffffffffffffffffffffffffffffffffffff16815260200190815260200160002054905081811015611582576040517f08c379a000000000000000000000000000000000000000000000000000000000815260040161157990611b4c565b60405180910390fd5b818161158e9190611d74565b600160008573ffffffffffffffffffffffffffffffffffffffff1673ffffffffffffffffffffffffffffffffffffffff1681526020019081526020016000208190555081600360008282546115e39190611d74565b92505081905550600073ffffffffffffffffffffffffffffffffffffffff168373ffffffffffffffffffffffffffffffffffffffff167fddf252ad1be2c89b69c2b068fc378daa952ba7f163c4a11628f55a4df523b3ef846040516116489190611ccc565b60405180910390a3505050565b505050565b6000813590506116698161230d565b92915050565b60008135905061167e81612324565b92915050565b6000813590506116938161233b565b92915050565b6000813590506116a881612352565b92915050565b6000602082840312156116c057600080fd5b60006116ce8482850161165a565b91505092915050565b600080604083850312156116ea57600080fd5b60006116f88582860161165a565b92505060206117098582860161165a565b9150509250929050565b60008060006060848603121561172857600080fd5b60006117368682870161165a565b93505060206117478682870161165a565b925050604061175886828701611699565b9150509250925092565b6000806040838503121561177557600080fd5b60006117838582860161165a565b925050602061179485828601611699565b9150509250929050565b6000602082840312156117b057600080fd5b60006117be8482850161166f565b91505092915050565b600080604083850312156117da57600080fd5b60006117e88582860161166f565b92505060206117f98582860161165a565b9150509250929050565b60006020828403121561181557600080fd5b600061182384828501611684565b91505092915050565b60006020828403121561183e57600080fd5b600061184c84828501611699565b91505092915050565b61185e81611dba565b82525050565b61186d81611dc6565b82525050565b600061187e82611d02565b6118888185611d0d565b9350611898818560208601611e33565b6118a181611ef6565b840191505092915050565b60006118b9602383611d0d565b91506118c482611f07565b604082019050919050565b60006118dc602f83611d0d565b91506118e782611f56565b604082019050919050565b60006118ff602283611d0d565b915061190a82611fa5565b604082019050919050565b6000611922602283611d0d565b915061192d82611ff4565b604082019050919050565b6000611945602683611d0d565b915061195082612043565b604082019050919050565b6000611968603083611d0d565b915061197382612092565b604082019050919050565b600061198b602883611d0d565b9150611996826120e1565b604082019050919050565b60006119ae602183611d0d565b91506119b982612130565b604082019050919050565b60006119d1602583611d0d565b91506119dc8261217f565b604082019050919050565b60006119f4602483611d0d565b91506119ff826121ce565b604082019050919050565b6000611a17602583611d0d565b9150611a228261221d565b604082019050919050565b6000611a3a602f83611d0d565b9150611a458261226c565b604082019050919050565b6000611a5d601883611d0d565b9150611a68826122bb565b602082019050919050565b6000611a80601f83611d0d565b9150611a8b826122e4565b602082019050919050565b611a9f81611e1c565b82525050565b611aae81611e26565b82525050565b6000602082019050611ac96000830184611855565b92915050565b6000602082019050611ae46000830184611864565b92915050565b60006020820190508181036000830152611b048184611873565b905092915050565b60006020820190508181036000830152611b25816118ac565b9050919050565b60006020820190508181036000830152611b45816118cf565b9050919050565b60006020820190508181036000830152611b65816118f2565b9050919050565b60006020820190508181036000830152611b8581611915565b9050919050565b60006020820190508181036000830152611ba581611938565b9050919050565b60006020820190508181036000830152611bc58161195b565b9050919050565b60006020820190508181036000830152611be58161197e565b9050919050565b60006020820190508181036000830152611c05816119a1565b9050919050565b60006020820190508181036000830152611c25816119c4565b9050919050565b60006020820190508181036000830152611c45816119e7565b9050919050565b60006020820190508181036000830152611c6581611a0a565b9050919050565b60006020820190508181036000830152611c8581611a2d565b9050919050565b60006020820190508181036000830152611ca581611a50565b9050919050565b60006020820190508181036000830152611cc581611a73565b9050919050565b6000602082019050611ce16000830184611a96565b92915050565b6000602082019050611cfc6000830184611aa5565b92915050565b600081519050919050565b600082825260208201905092915050565b6000611d2982611e1c565b9150611d3483611e1c565b9250827fffffffffffffffffffffffffffffffffffffffffffffffffffffffffffffffff03821115611d6957611d68611e98565b5b828201905092915050565b6000611d7f82611e1c565b9150611d8a83611e1c565b925082821015611d9d57611d9c611e98565b5b828203905092915050565b6000611db382611dfc565b9050919050565b60008115159050919050565b6000819050919050565b60007fffffffff0000000000000000000000000000000000000000000000000000000082169050919050565b600073ffffffffffffffffffffffffffffffffffffffff82169050919050565b6000819050919050565b600060ff82169050919050565b60005b83811015611e51578082015181840152602081019050611e36565b83811115611e60576000848401525b50505050565b60006002820490506001821680611e7e57607f821691505b60208210811415611e9257611e91611ec7565b5b50919050565b7f4e487b7100000000000000000000000000000000000000000000000000000000600052601160045260246000fd5b7f4e487b7100000000000000000000000000000000000000000000000000000000600052602260045260246000fd5b6000601f19601f8301169050919050565b7f45524332303a207472616e7366657220746f20746865207a65726f206164647260008201527f6573730000000000000000000000000000000000000000000000000000000000602082015250565b7f416363657373436f6e74726f6c3a2073656e646572206d75737420626520616e60008201527f2061646d696e20746f206772616e740000000000000000000000000000000000602082015250565b7f45524332303a206275726e20616d6f756e7420657863656564732062616c616e60008201527f6365000000000000000000000000000000000000000000000000000000000000602082015250565b7f45524332303a20617070726f766520746f20746865207a65726f20616464726560008201527f7373000000000000000000000000000000000000000000000000000000000000602082015250565b7f45524332303a207472616e7366657220616d6f756e742065786365656473206260008201527f616c616e63650000000000000000000000000000000000000000000000000000602082015250565b7f416363657373436f6e74726f6c3a2073656e646572206d75737420626520616e60008201527f2061646d696e20746f207265766f6b6500000000000000000000000000000000602082015250565b7f45524332303a207472616e7366657220616d6f756e742065786365656473206160008201527f6c6c6f77616e6365000000000000000000000000000000000000000000000000602082015250565b7f45524332303a206275726e2066726f6d20746865207a65726f2061646472657360008201527f7300000000000000000000000000000000000000000000000000000000000000602082015250565b7f45524332303a207472616e736665722066726f6d20746865207a65726f20616460008201527f6472657373000000000000000000000000000000000000000000000000000000602082015250565b7f45524332303a20617070726f76652066726f6d20746865207a65726f2061646460008201527f7265737300000000000000000000000000000000000000000000000000000000602082015250565b7f45524332303a2064656372656173656420616c6c6f77616e63652062656c6f7760008201527f207a65726f000000000000000000000000000000000000000000000000000000602082015250565b7f416363657373436f6e74726f6c3a2063616e206f6e6c792072656e6f756e636560008201527f20726f6c657320666f722073656c660000000000000000000000000000000000602082015250565b7f6f6e6c7941676772656761746f723a2062616420726f6c650000000000000000600082015250565b7f45524332303a206d696e7420746f20746865207a65726f206164647265737300600082015250565b61231681611da8565b811461232157600080fd5b50565b61232d81611dc6565b811461233857600080fd5b50565b61234481611dd0565b811461234f57600080fd5b50565b61235b81611e1c565b811461236657600080fd5b5056fea2646970667358221220499a4fd8120fd3eaeb7c9ed1f096d792589488798dab3684fbe969ec785df34d64736f6c63430008020033a26469706673582212209cad1a20df2d79c9aa98c82642544f2b2a9c4328623a4a8c846c39f5b89b4f6c64736f6c63430008020033",
  "immutableReferences": {},
  "source": "// SPDX-License-Identifier: MIT\npragma solidity ^0.8.2;\n\nimport \"@openzeppelin/contracts/token/ERC20/ERC20.sol\";\nimport \"@openzeppelin/contracts/token/ERC20/IERC20.sol\";\nimport \"@openzeppelin/contracts/token/ERC20/utils/SafeERC20.sol\";\nimport \"@openzeppelin/contracts/access/AccessControl.sol\";\nimport \"../interfaces/IWhiteDebridge.sol\";\nimport \"../interfaces/IWhiteAggregator.sol\";\nimport \"../periphery/WrappedAsset.sol\";\n\ncontract WhiteDebridge is AccessControl, IWhiteDebridge {\n    using SafeERC20 for IERC20;\n\n    struct DebridgeInfo {\n        address tokenAddress; // asset address on the current chain\n        uint256 chainId; // native chain id\n        uint256 minAmount; // minimal amount to transfer\n        uint256 transferFee; // transfer fee rate\n        mapping(uint256 => bool) isSupported; // wheter the chain for the asset is supported\n    }\n\n    uint256 public constant DENOMINATOR = 1e18;\n    uint256 public chainId;\n    uint256 public collectedFees;\n    uint256 public nonce;\n    IWhiteAggregator public aggregator;\n    mapping(bytes32 => DebridgeInfo) public getDebridge; // debridgeId (i.e. hash(native chainId, native tokenAddress)) => token\n    mapping(bytes32 => bool) public isSubmissionUsed; // debridgeId (i.e. hash(native chainId, native tokenAddress)) => token\n\n    event Sent(\n        bytes32 sentId,\n        bytes32 debridgeId,\n        uint256 amount,\n        address receiver,\n        uint256 nonce,\n        uint256 chainIdTo\n    );\n    event Minted(uint256 amount, address receiver, bytes32 debridgeId);\n    event Burnt(\n        bytes32 burntId,\n        bytes32 debridgeId,\n        uint256 amount,\n        address receiver,\n        uint256 nonce,\n        uint256 chainIdTo\n    );\n    event Claimed(uint256 amount, address receiver, bytes32 debridgeId);\n\n    modifier onlyAggregator {\n        require(address(aggregator) == msg.sender, \"onlyAggregator: bad role\");\n        _;\n    }\n    modifier onlyAdmin {\n        require(hasRole(DEFAULT_ADMIN_ROLE, msg.sender), \"onlyAdmin: bad role\");\n        _;\n    }\n\n    constructor(\n        uint256 _chainId,\n        uint256 _minAmount,\n        uint256 _transferFee,\n        IWhiteAggregator _aggregator,\n        uint256[] memory _supportedChainIds\n    ) {\n        chainId = _chainId;\n        bytes32 debridgeId = getDebridgeId(_chainId, address(0));\n        _addAsset(\n            debridgeId,\n            address(0),\n            chainId,\n            _minAmount,\n            _transferFee,\n            _supportedChainIds\n        );\n        aggregator = _aggregator;\n        _setupRole(DEFAULT_ADMIN_ROLE, msg.sender);\n    }\n\n    function send(\n        address _tokenAddress,\n        address _receiver,\n        uint256 _amount,\n        uint256 _chainIdTo\n    ) external payable override {\n        bytes32 debridgeId = getDebridgeId(chainId, _tokenAddress);\n        DebridgeInfo storage debridge = getDebridge[debridgeId];\n        require(\n            debridge.isSupported[_chainIdTo],\n            \"send: wrong targed target chain\"\n        );\n        require(\n            debridge.isSupported[chainId],\n            \"send: wrong targed target chain\"\n        );\n        require(_amount > debridge.minAmount, \"send: amount too low\");\n        if (_tokenAddress == address(0)) {\n            require(_amount == msg.value, \"send: amount mismatch\");\n        } else {\n            IERC20(_tokenAddress).safeTransferFrom(\n                msg.sender,\n                address(this),\n                _amount\n            );\n        }\n        uint256 transferFee = (_amount * debridge.transferFee) / DENOMINATOR;\n        if (transferFee > 0) {\n            collectedFees += transferFee;\n            _amount -= transferFee;\n        }\n        bytes32 sentId = getSubmisionId(debridgeId, _amount, _receiver, nonce);\n        emit Sent(sentId, debridgeId, _amount, _receiver, nonce, _chainIdTo);\n        nonce++;\n    }\n\n    function claim(\n        bytes32 _debridgeId,\n        uint256 _amount,\n        address _receiver,\n        uint256 _nonce\n    ) external override {\n        bytes32 burntId =\n            getSubmisionId(_debridgeId, _amount, _receiver, _nonce);\n        require(aggregator.isBurntConfirmed(burntId), \"claim: not confirmed\");\n        DebridgeInfo storage debridge = getDebridge[_debridgeId];\n        require(\n            debridge.chainId == chainId,\n            \"claim: wrong targed target chain\"\n        );\n        require(!isSubmissionUsed[burntId], \"claim: already used\");\n        isSubmissionUsed[burntId] = true;\n        if (debridge.tokenAddress == address(0)) {\n            payable(_receiver).transfer(_amount);\n        } else {\n            IERC20(debridge.tokenAddress).safeTransfer(_receiver, _amount);\n        }\n        emit Claimed(_amount, _receiver, _debridgeId);\n    }\n\n    function burn(\n        bytes32 _debridgeId,\n        address _receiver,\n        uint256 _amount\n    ) external override {\n        DebridgeInfo storage debridge = getDebridge[_debridgeId];\n        require(debridge.chainId != chainId, \"burn: wrong chainId\");\n        require(_amount > debridge.minAmount, \"burn: amount too low\");\n        IWrappedAsset wrappedAsset = IWrappedAsset(debridge.tokenAddress);\n        wrappedAsset.transferFrom(msg.sender, address(this), _amount);\n        uint256 transferFee = (_amount * debridge.transferFee) / DENOMINATOR;\n        if (transferFee > 0) {\n            collectedFees += transferFee;\n            _amount -= transferFee;\n        }\n        bytes32 burntId =\n            getSubmisionId(_debridgeId, _amount, _receiver, nonce);\n        emit Burnt(\n            burntId,\n            _debridgeId,\n            _amount,\n            _receiver,\n            nonce,\n            debridge.chainId\n        );\n        nonce++;\n    }\n\n    function mint(\n        bytes32 _debridgeId,\n        uint256 _amount,\n        address _receiver,\n        uint256 _nonce\n    ) external override {\n        bytes32 mintId =\n            getSubmisionId(_debridgeId, _amount, _receiver, _nonce);\n        require(aggregator.isMintConfirmed(mintId), \"mint: not confirmed\");\n        require(!isSubmissionUsed[mintId], \"mint: already used\");\n        DebridgeInfo storage debridge = getDebridge[_debridgeId];\n        isSubmissionUsed[mintId] = true;\n        IWrappedAsset(debridge.tokenAddress).mint(_receiver, _amount);\n        emit Minted(_amount, _receiver, _debridgeId);\n    }\n\n    function addNativelAsset(\n        address _tokenAddress,\n        uint256 _minAmount,\n        uint256 _transferFee,\n        uint256[] memory _supportedChainIds\n    ) external override onlyAdmin() {\n        bytes32 debridgeId = getDebridgeId(chainId, _tokenAddress);\n        _addAsset(\n            debridgeId,\n            _tokenAddress,\n            chainId,\n            _minAmount,\n            _transferFee,\n            _supportedChainIds\n        );\n    }\n\n    function setChainIdSupport(\n        bytes32 _debridgeId,\n        uint256 _chainId,\n        bool _isSupported\n    ) external override onlyAdmin() {\n        DebridgeInfo storage debridge = getDebridge[_debridgeId];\n        debridge.isSupported[_chainId] = _isSupported;\n    }\n\n    function addExternalAsset(\n        bytes32 _debridgeId,\n        uint256 _chainId,\n        uint256 _minAmount,\n        uint256 _transferFee,\n        uint256[] memory _supportedChainIds,\n        string memory _name,\n        string memory _symbol\n    ) external override onlyAdmin() {\n        address tokenAddress = address(new WrappedAsset(_name, _symbol));\n        _addAsset(\n            _debridgeId,\n            tokenAddress,\n            _chainId,\n            _minAmount,\n            _transferFee,\n            _supportedChainIds\n        );\n    }\n\n    function setAggregator(IWhiteAggregator _aggregator) external {\n        aggregator = _aggregator;\n    }\n\n    function _addAsset(\n        bytes32 _debridgeId,\n        address _tokenAddress,\n        uint256 _chainId,\n        uint256 _minAmount,\n        uint256 _transferFee,\n        uint256[] memory _supportedChainIds\n    ) internal {\n        DebridgeInfo storage debridge = getDebridge[_debridgeId];\n        debridge.tokenAddress = _tokenAddress;\n        debridge.chainId = _chainId;\n        debridge.minAmount = _minAmount;\n        debridge.transferFee = _transferFee;\n        debridge.isSupported[chainId] = true;\n        for (uint256 i = 0; i < _supportedChainIds.length; i++) {\n            debridge.isSupported[_supportedChainIds[i]] = true;\n        }\n    }\n\n    function getDebridgeId(uint256 _chainId, address _tokenAddress)\n        public\n        pure\n        returns (bytes32)\n    {\n        return keccak256(abi.encodePacked(_chainId, _tokenAddress));\n    }\n\n    function getSubmisionId(\n        bytes32 _debridgeId,\n        uint256 _amount,\n        address _receiver,\n        uint256 _nonce\n    ) public pure returns (bytes32) {\n        return\n            keccak256(\n                abi.encodePacked(_debridgeId, _amount, _receiver, _nonce)\n            );\n    }\n}\n",
  "sourcePath": "/Users/kstasi/Documents/work/debridge-contracts/contracts/transfers/WhiteDebridge.sol",
  "compiler": {
    "name": "solc",
    "version": "0.8.2+commit.661d1103.Emscripten.clang"
  },
  "schemaVersion": "3.3.4",
  "updatedAt": "2021-03-18T15:25:42.875Z",
  "networkType": "ethereum",
  "devdoc": {
    "kind": "dev",
    "methods": {
      "getRoleAdmin(bytes32)": {
        "details": "Returns the admin role that controls `role`. See {grantRole} and {revokeRole}. To change a role's admin, use {_setRoleAdmin}."
      },
      "grantRole(bytes32,address)": {
        "details": "Grants `role` to `account`. If `account` had not been already granted `role`, emits a {RoleGranted} event. Requirements: - the caller must have ``role``'s admin role."
      },
      "hasRole(bytes32,address)": {
        "details": "Returns `true` if `account` has been granted `role`."
      },
      "renounceRole(bytes32,address)": {
        "details": "Revokes `role` from the calling account. Roles are often managed via {grantRole} and {revokeRole}: this function's purpose is to provide a mechanism for accounts to lose their privileges if they are compromised (such as when a trusted device is misplaced). If the calling account had been granted `role`, emits a {RoleRevoked} event. Requirements: - the caller must be `account`."
      },
      "revokeRole(bytes32,address)": {
        "details": "Revokes `role` from `account`. If `account` had been granted `role`, emits a {RoleRevoked} event. Requirements: - the caller must have ``role``'s admin role."
      },
      "supportsInterface(bytes4)": {
        "details": "See {IERC165-supportsInterface}."
      }
    },
    "version": 1
  },
  "userdoc": {
    "kind": "user",
    "methods": {},
    "version": 1
  }
}