{
  "contractName": "WhiteFullNFTDebridge",
  "abi": [
    {
      "anonymous": false,
      "inputs": [
        {
          "indexed": false,
          "internalType": "bytes32",
          "name": "submissionId",
          "type": "bytes32"
        },
        {
          "indexed": false,
          "internalType": "bool",
          "name": "success",
          "type": "bool"
        }
      ],
      "name": "AutoRequestExecuted",
      "type": "event"
    },
    {
      "anonymous": false,
      "inputs": [
        {
          "indexed": false,
          "internalType": "bytes32",
          "name": "submissionId",
          "type": "bytes32"
        },
        {
          "indexed": false,
          "internalType": "bytes32",
          "name": "debridgeId",
          "type": "bytes32"
        },
        {
          "indexed": false,
          "internalType": "uint256",
          "name": "tokenId",
          "type": "uint256"
        },
        {
          "indexed": false,
          "internalType": "address",
          "name": "receiver",
          "type": "address"
        },
        {
          "indexed": false,
          "internalType": "uint256",
          "name": "nonce",
          "type": "uint256"
        },
        {
          "indexed": false,
          "internalType": "uint256",
          "name": "chainIdTo",
          "type": "uint256"
        }
      ],
      "name": "Burnt",
      "type": "event"
    },
    {
      "anonymous": false,
      "inputs": [
        {
          "indexed": false,
          "internalType": "address",
          "name": "callProxy",
          "type": "address"
        }
      ],
      "name": "CallProxyUpdated",
      "type": "event"
    },
    {
      "anonymous": false,
      "inputs": [
        {
          "indexed": true,
          "internalType": "bytes32",
          "name": "debridgeId",
          "type": "bytes32"
        },
        {
          "indexed": true,
          "internalType": "uint256",
          "name": "chainId",
          "type": "uint256"
        }
      ],
      "name": "ChainSupportAdded",
      "type": "event"
    },
    {
      "anonymous": false,
      "inputs": [
        {
          "indexed": true,
          "internalType": "bytes32",
          "name": "debridgeId",
          "type": "bytes32"
        },
        {
          "indexed": true,
          "internalType": "uint256",
          "name": "chainId",
          "type": "uint256"
        }
      ],
      "name": "ChainSupportRemoved",
      "type": "event"
    },
    {
      "anonymous": false,
      "inputs": [
        {
          "indexed": false,
          "internalType": "uint256[]",
          "name": "chainIds",
          "type": "uint256[]"
        }
      ],
      "name": "ChainsSupportUpdated",
      "type": "event"
    },
    {
      "anonymous": false,
      "inputs": [
        {
          "indexed": false,
          "internalType": "bytes32",
          "name": "submissionId",
          "type": "bytes32"
        },
        {
          "indexed": false,
          "internalType": "uint256",
          "name": "tokenId",
          "type": "uint256"
        },
        {
          "indexed": false,
          "internalType": "address",
          "name": "receiver",
          "type": "address"
        },
        {
          "indexed": false,
          "internalType": "bytes32",
          "name": "debridgeId",
          "type": "bytes32"
        }
      ],
      "name": "Claimed",
      "type": "event"
    },
    {
      "anonymous": false,
      "inputs": [
        {
          "indexed": false,
          "internalType": "bytes32",
          "name": "submissionId",
          "type": "bytes32"
        },
        {
          "indexed": false,
          "internalType": "uint256",
          "name": "tokenId",
          "type": "uint256"
        },
        {
          "indexed": false,
          "internalType": "address",
          "name": "receiver",
          "type": "address"
        },
        {
          "indexed": false,
          "internalType": "bytes32",
          "name": "debridgeId",
          "type": "bytes32"
        }
      ],
      "name": "Minted",
      "type": "event"
    },
    {
      "anonymous": false,
      "inputs": [
        {
          "indexed": true,
          "internalType": "bytes32",
          "name": "debridgeId",
          "type": "bytes32"
        },
        {
          "indexed": true,
          "internalType": "address",
          "name": "tokenAddress",
          "type": "address"
        },
        {
          "indexed": true,
          "internalType": "uint256",
          "name": "chainId",
          "type": "uint256"
        }
      ],
      "name": "PairAdded",
      "type": "event"
    },
    {
      "anonymous": false,
      "inputs": [
        {
          "indexed": false,
          "internalType": "address",
          "name": "account",
          "type": "address"
        }
      ],
      "name": "Paused",
      "type": "event"
    },
    {
      "anonymous": false,
      "inputs": [
        {
          "indexed": true,
          "internalType": "bytes32",
          "name": "role",
          "type": "bytes32"
        },
        {
          "indexed": true,
          "internalType": "bytes32",
          "name": "previousAdminRole",
          "type": "bytes32"
        },
        {
          "indexed": true,
          "internalType": "bytes32",
          "name": "newAdminRole",
          "type": "bytes32"
        }
      ],
      "name": "RoleAdminChanged",
      "type": "event"
    },
    {
      "anonymous": false,
      "inputs": [
        {
          "indexed": true,
          "internalType": "bytes32",
          "name": "role",
          "type": "bytes32"
        },
        {
          "indexed": true,
          "internalType": "address",
          "name": "account",
          "type": "address"
        },
        {
          "indexed": true,
          "internalType": "address",
          "name": "sender",
          "type": "address"
        }
      ],
      "name": "RoleGranted",
      "type": "event"
    },
    {
      "anonymous": false,
      "inputs": [
        {
          "indexed": true,
          "internalType": "bytes32",
          "name": "role",
          "type": "bytes32"
        },
        {
          "indexed": true,
          "internalType": "address",
          "name": "account",
          "type": "address"
        },
        {
          "indexed": true,
          "internalType": "address",
          "name": "sender",
          "type": "address"
        }
      ],
      "name": "RoleRevoked",
      "type": "event"
    },
    {
      "anonymous": false,
      "inputs": [
        {
          "indexed": false,
          "internalType": "bytes32",
          "name": "submissionID",
          "type": "bytes32"
        },
        {
          "indexed": false,
          "internalType": "bytes32",
          "name": "debridgeID",
          "type": "bytes32"
        },
        {
          "indexed": false,
          "internalType": "uint256",
          "name": "tokenId",
          "type": "uint256"
        },
        {
          "indexed": false,
          "internalType": "address",
          "name": "receiver",
          "type": "address"
        },
        {
          "indexed": false,
          "internalType": "uint256",
          "name": "nonce",
          "type": "uint256"
        },
        {
          "indexed": false,
          "internalType": "uint256",
          "name": "chainIdTo",
          "type": "uint256"
        }
      ],
      "name": "Sent",
      "type": "event"
    },
    {
      "anonymous": false,
      "inputs": [
        {
          "indexed": false,
          "internalType": "address",
          "name": "account",
          "type": "address"
        }
      ],
      "name": "Unpaused",
      "type": "event"
    },
    {
      "inputs": [],
      "name": "DEFAULT_ADMIN_ROLE",
      "outputs": [
        {
          "internalType": "bytes32",
          "name": "",
          "type": "bytes32"
        }
      ],
      "stateMutability": "view",
      "type": "function"
    },
    {
      "inputs": [],
      "name": "DENOMINATOR",
      "outputs": [
        {
          "internalType": "uint256",
          "name": "",
          "type": "uint256"
        }
      ],
      "stateMutability": "view",
      "type": "function"
    },
    {
      "inputs": [
        {
          "internalType": "address",
          "name": "_tokenAddress",
          "type": "address"
        },
        {
          "internalType": "address",
          "name": "_wrappedAssetAddress",
          "type": "address"
        },
        {
          "internalType": "uint256",
          "name": "_chainId",
          "type": "uint256"
        },
        {
          "internalType": "uint256[]",
          "name": "_supportedChainIds",
          "type": "uint256[]"
        },
        {
          "components": [
            {
              "internalType": "bool",
              "name": "isSupported",
              "type": "bool"
            },
            {
              "internalType": "uint256",
              "name": "fixedFee",
              "type": "uint256"
            }
          ],
          "internalType": "struct IWhiteNFTDebridge.ChainSupportInfo[]",
          "name": "_chainSupportInfo",
          "type": "tuple[]"
        }
      ],
      "name": "addExternalAsset",
      "outputs": [],
      "stateMutability": "nonpayable",
      "type": "function"
    },
    {
      "inputs": [
        {
          "internalType": "address",
          "name": "_tokenAddress",
          "type": "address"
        },
        {
          "internalType": "uint256[]",
          "name": "_supportedChainIds",
          "type": "uint256[]"
        },
        {
          "components": [
            {
              "internalType": "bool",
              "name": "isSupported",
              "type": "bool"
            },
            {
              "internalType": "uint256",
              "name": "fixedFee",
              "type": "uint256"
            }
          ],
          "internalType": "struct IWhiteNFTDebridge.ChainSupportInfo[]",
          "name": "_chainSupportInfo",
          "type": "tuple[]"
        }
      ],
      "name": "addNativeAsset",
      "outputs": [],
      "stateMutability": "nonpayable",
      "type": "function"
    },
    {
      "inputs": [],
      "name": "aggregator",
      "outputs": [
        {
          "internalType": "address",
          "name": "",
          "type": "address"
        }
      ],
      "stateMutability": "view",
      "type": "function"
    },
    {
      "inputs": [],
      "name": "aggregatorVersion",
      "outputs": [
        {
          "internalType": "uint8",
          "name": "",
          "type": "uint8"
        }
      ],
      "stateMutability": "view",
      "type": "function"
    },
    {
      "inputs": [
        {
          "internalType": "bytes32",
          "name": "_debridgeId",
          "type": "bytes32"
        },
        {
          "internalType": "address",
          "name": "_receiver",
          "type": "address"
        },
        {
          "internalType": "uint256",
          "name": "_tokenId",
          "type": "uint256"
        },
        {
          "internalType": "uint256",
          "name": "_chainIdTo",
          "type": "uint256"
        },
        {
          "internalType": "uint256",
          "name": "_deadline",
          "type": "uint256"
        },
        {
          "internalType": "bytes",
          "name": "_signature",
          "type": "bytes"
        }
      ],
      "name": "burn",
      "outputs": [],
      "stateMutability": "nonpayable",
      "type": "function"
    },
    {
      "inputs": [],
      "name": "callProxy",
      "outputs": [
        {
          "internalType": "address",
          "name": "",
          "type": "address"
        }
      ],
      "stateMutability": "view",
      "type": "function"
    },
    {
      "inputs": [],
      "name": "chainId",
      "outputs": [
        {
          "internalType": "uint256",
          "name": "",
          "type": "uint256"
        }
      ],
      "stateMutability": "view",
      "type": "function"
    },
    {
      "inputs": [
        {
          "internalType": "uint256",
          "name": "",
          "type": "uint256"
        }
      ],
      "name": "chainIds",
      "outputs": [
        {
          "internalType": "uint256",
          "name": "",
          "type": "uint256"
        }
      ],
      "stateMutability": "view",
      "type": "function"
    },
    {
      "inputs": [],
      "name": "feeProxy",
      "outputs": [
        {
          "internalType": "contract IFeeProxy",
          "name": "",
          "type": "address"
        }
      ],
      "stateMutability": "view",
      "type": "function"
    },
    {
      "inputs": [],
      "name": "feeToken",
      "outputs": [
        {
          "internalType": "address",
          "name": "",
          "type": "address"
        }
      ],
      "stateMutability": "view",
      "type": "function"
    },
    {
      "inputs": [
        {
          "internalType": "bytes32",
          "name": "_debridgeId",
          "type": "bytes32"
        },
        {
          "internalType": "uint256",
          "name": "_chainId",
          "type": "uint256"
        }
      ],
      "name": "getChainIdSupport",
      "outputs": [
        {
          "components": [
            {
              "internalType": "bool",
              "name": "isSupported",
              "type": "bool"
            },
            {
              "internalType": "uint256",
              "name": "fixedFee",
              "type": "uint256"
            }
          ],
          "internalType": "struct IWhiteNFTDebridge.ChainSupportInfo",
          "name": "",
          "type": "tuple"
        }
      ],
      "stateMutability": "view",
      "type": "function"
    },
    {
      "inputs": [
        {
          "internalType": "bytes32",
          "name": "",
          "type": "bytes32"
        }
      ],
      "name": "getDebridge",
      "outputs": [
        {
          "internalType": "address",
          "name": "tokenAddress",
          "type": "address"
        },
        {
          "internalType": "uint256",
          "name": "chainId",
          "type": "uint256"
        },
        {
          "internalType": "uint256",
          "name": "collectedFees",
          "type": "uint256"
        }
      ],
      "stateMutability": "view",
      "type": "function"
    },
    {
      "inputs": [
        {
          "internalType": "uint256",
          "name": "_chainId",
          "type": "uint256"
        },
        {
          "internalType": "address",
          "name": "_tokenAddress",
          "type": "address"
        }
      ],
      "name": "getDebridgeId",
      "outputs": [
        {
          "internalType": "bytes32",
          "name": "",
          "type": "bytes32"
        }
      ],
      "stateMutability": "pure",
      "type": "function"
    },
    {
      "inputs": [
        {
          "internalType": "uint8",
          "name": "",
          "type": "uint8"
        }
      ],
      "name": "getOldAggregator",
      "outputs": [
        {
          "internalType": "address",
          "name": "aggregator",
          "type": "address"
        },
        {
          "internalType": "bool",
          "name": "isValid",
          "type": "bool"
        }
      ],
      "stateMutability": "view",
      "type": "function"
    },
    {
      "inputs": [
        {
          "internalType": "bytes32",
          "name": "_debridgeId",
          "type": "bytes32"
        },
        {
          "internalType": "uint256",
          "name": "_tokenId",
          "type": "uint256"
        }
      ],
      "name": "getOwnerOfToken",
      "outputs": [
        {
          "internalType": "address",
          "name": "",
          "type": "address"
        }
      ],
      "stateMutability": "view",
      "type": "function"
    },
    {
      "inputs": [
        {
          "internalType": "bytes32",
          "name": "role",
          "type": "bytes32"
        }
      ],
      "name": "getRoleAdmin",
      "outputs": [
        {
          "internalType": "bytes32",
          "name": "",
          "type": "bytes32"
        }
      ],
      "stateMutability": "view",
      "type": "function"
    },
    {
      "inputs": [
        {
          "internalType": "bytes32",
          "name": "_debridgeId",
          "type": "bytes32"
        },
        {
          "internalType": "uint256",
          "name": "_chainIdFrom",
          "type": "uint256"
        },
        {
          "internalType": "uint256",
          "name": "_chainIdTo",
          "type": "uint256"
        },
        {
          "internalType": "uint256",
          "name": "_tokenId",
          "type": "uint256"
        },
        {
          "internalType": "address",
          "name": "_receiver",
          "type": "address"
        },
        {
          "internalType": "uint256",
          "name": "_nonce",
          "type": "uint256"
        }
      ],
      "name": "getSubmisionId",
      "outputs": [
        {
          "internalType": "bytes32",
          "name": "",
          "type": "bytes32"
        }
      ],
      "stateMutability": "pure",
      "type": "function"
    },
    {
      "inputs": [
        {
          "internalType": "address",
          "name": "",
          "type": "address"
        }
      ],
      "name": "getUserNonce",
      "outputs": [
        {
          "internalType": "uint256",
          "name": "",
          "type": "uint256"
        }
      ],
      "stateMutability": "view",
      "type": "function"
    },
    {
      "inputs": [
        {
          "internalType": "bytes32",
          "name": "role",
          "type": "bytes32"
        },
        {
          "internalType": "address",
          "name": "account",
          "type": "address"
        }
      ],
      "name": "grantRole",
      "outputs": [],
      "stateMutability": "nonpayable",
      "type": "function"
    },
    {
      "inputs": [
        {
          "internalType": "bytes32",
          "name": "role",
          "type": "bytes32"
        },
        {
          "internalType": "address",
          "name": "account",
          "type": "address"
        }
      ],
      "name": "hasRole",
      "outputs": [
        {
          "internalType": "bool",
          "name": "",
          "type": "bool"
        }
      ],
      "stateMutability": "view",
      "type": "function"
    },
    {
      "inputs": [
        {
          "internalType": "bytes32",
          "name": "",
          "type": "bytes32"
        }
      ],
      "name": "isSubmissionUsed",
      "outputs": [
        {
          "internalType": "bool",
          "name": "",
          "type": "bool"
        }
      ],
      "stateMutability": "view",
      "type": "function"
    },
    {
      "inputs": [
        {
          "internalType": "uint8",
          "name": "_aggregatorVersion",
          "type": "uint8"
        },
        {
          "internalType": "bool",
          "name": "_isValid",
          "type": "bool"
        }
      ],
      "name": "manageOldAggregator",
      "outputs": [],
      "stateMutability": "nonpayable",
      "type": "function"
    },
    {
      "inputs": [],
      "name": "pause",
      "outputs": [],
      "stateMutability": "nonpayable",
      "type": "function"
    },
    {
      "inputs": [],
      "name": "paused",
      "outputs": [
        {
          "internalType": "bool",
          "name": "",
          "type": "bool"
        }
      ],
      "stateMutability": "view",
      "type": "function"
    },
    {
      "inputs": [
        {
          "internalType": "bytes32",
          "name": "role",
          "type": "bytes32"
        },
        {
          "internalType": "address",
          "name": "account",
          "type": "address"
        }
      ],
      "name": "renounceRole",
      "outputs": [],
      "stateMutability": "nonpayable",
      "type": "function"
    },
    {
      "inputs": [
        {
          "internalType": "bytes32",
          "name": "role",
          "type": "bytes32"
        },
        {
          "internalType": "address",
          "name": "account",
          "type": "address"
        }
      ],
      "name": "revokeRole",
      "outputs": [],
      "stateMutability": "nonpayable",
      "type": "function"
    },
    {
      "inputs": [
        {
          "internalType": "bytes32",
          "name": "_debridgeId",
          "type": "bytes32"
        },
        {
          "internalType": "address",
          "name": "_receiver",
          "type": "address"
        },
        {
          "internalType": "uint256",
          "name": "_tokenId",
          "type": "uint256"
        },
        {
          "internalType": "uint256",
          "name": "_chainIdTo",
          "type": "uint256"
        }
      ],
      "name": "send",
      "outputs": [],
      "stateMutability": "payable",
      "type": "function"
    },
    {
      "inputs": [
        {
          "internalType": "address",
          "name": "_aggregator",
          "type": "address"
        }
      ],
      "name": "setAggregator",
      "outputs": [],
      "stateMutability": "nonpayable",
      "type": "function"
    },
    {
      "inputs": [
        {
          "internalType": "address",
          "name": "_callProxy",
          "type": "address"
        }
      ],
      "name": "setCallProxy",
      "outputs": [],
      "stateMutability": "nonpayable",
      "type": "function"
    },
    {
      "inputs": [
        {
          "internalType": "bytes32",
          "name": "_debridgeId",
          "type": "bytes32"
        },
        {
          "internalType": "uint256",
          "name": "_chainId",
          "type": "uint256"
        },
        {
          "internalType": "bool",
          "name": "_isSupported",
          "type": "bool"
        }
      ],
      "name": "setChainIdSupport",
      "outputs": [],
      "stateMutability": "nonpayable",
      "type": "function"
    },
    {
      "inputs": [
        {
          "internalType": "uint256[]",
          "name": "_chainIds",
          "type": "uint256[]"
        }
      ],
      "name": "setChainIds",
      "outputs": [],
      "stateMutability": "nonpayable",
      "type": "function"
    },
    {
      "inputs": [
        {
          "internalType": "bytes",
          "name": "_signature",
          "type": "bytes"
        }
      ],
      "name": "splitSignature",
      "outputs": [
        {
          "internalType": "bytes32",
          "name": "r",
          "type": "bytes32"
        },
        {
          "internalType": "bytes32",
          "name": "s",
          "type": "bytes32"
        },
        {
          "internalType": "uint8",
          "name": "v",
          "type": "uint8"
        }
      ],
      "stateMutability": "pure",
      "type": "function"
    },
    {
      "inputs": [
        {
          "internalType": "bytes4",
          "name": "interfaceId",
          "type": "bytes4"
        }
      ],
      "name": "supportsInterface",
      "outputs": [
        {
          "internalType": "bool",
          "name": "",
          "type": "bool"
        }
      ],
      "stateMutability": "view",
      "type": "function"
    },
    {
      "inputs": [],
      "name": "unpause",
      "outputs": [],
      "stateMutability": "nonpayable",
      "type": "function"
    },
    {
      "inputs": [
        {
          "internalType": "bytes32",
          "name": "_debridgeId",
          "type": "bytes32"
        },
        {
          "internalType": "uint256[]",
          "name": "_supportedChainIds",
          "type": "uint256[]"
        },
        {
          "components": [
            {
              "internalType": "bool",
              "name": "isSupported",
              "type": "bool"
            },
            {
              "internalType": "uint256",
              "name": "fixedFee",
              "type": "uint256"
            }
          ],
          "internalType": "struct IWhiteNFTDebridge.ChainSupportInfo[]",
          "name": "_chainSupportInfo",
          "type": "tuple[]"
        }
      ],
      "name": "updateAsset",
      "outputs": [],
      "stateMutability": "nonpayable",
      "type": "function"
    },
    {
      "inputs": [
        {
          "internalType": "bytes32",
          "name": "_debridgeId",
          "type": "bytes32"
        },
        {
          "internalType": "address",
          "name": "_receiver",
          "type": "address"
        },
        {
          "internalType": "uint256",
          "name": "_amount",
          "type": "uint256"
        }
      ],
      "name": "withdrawFee",
      "outputs": [],
      "stateMutability": "nonpayable",
      "type": "function"
    },
    {
      "inputs": [
        {
          "internalType": "address",
          "name": "_aggregator",
          "type": "address"
        },
        {
          "internalType": "address",
          "name": "_callProxy",
          "type": "address"
        },
        {
          "internalType": "address",
          "name": "_feeToken",
          "type": "address"
        },
        {
          "internalType": "contract IFeeProxy",
          "name": "_feeProxy",
          "type": "address"
        }
      ],
      "name": "initialize",
      "outputs": [],
      "stateMutability": "nonpayable",
      "type": "function"
    },
    {
      "inputs": [
        {
          "internalType": "bytes32",
          "name": "_debridgeId",
          "type": "bytes32"
        },
        {
          "internalType": "uint256",
          "name": "_chainIdFrom",
          "type": "uint256"
        },
        {
          "internalType": "address",
          "name": "_receiver",
          "type": "address"
        },
        {
          "internalType": "uint256",
          "name": "_tokenId",
          "type": "uint256"
        },
        {
          "internalType": "uint256",
          "name": "_nonce",
          "type": "uint256"
        }
      ],
      "name": "mint",
      "outputs": [],
      "stateMutability": "nonpayable",
      "type": "function"
    },
    {
      "inputs": [
        {
          "internalType": "bytes32",
          "name": "_debridgeId",
          "type": "bytes32"
        },
        {
          "internalType": "uint256",
          "name": "_chainIdFrom",
          "type": "uint256"
        },
        {
          "internalType": "address",
          "name": "_receiver",
          "type": "address"
        },
        {
          "internalType": "uint256",
          "name": "_tokenId",
          "type": "uint256"
        },
        {
          "internalType": "uint256",
          "name": "_nonce",
          "type": "uint256"
        },
        {
          "internalType": "uint8",
          "name": "_aggregatorVersion",
          "type": "uint8"
        }
      ],
      "name": "mintWithOldAggregator",
      "outputs": [],
      "stateMutability": "nonpayable",
      "type": "function"
    },
    {
      "inputs": [
        {
          "internalType": "bytes32",
          "name": "_debridgeId",
          "type": "bytes32"
        },
        {
          "internalType": "uint256",
          "name": "_chainIdFrom",
          "type": "uint256"
        },
        {
          "internalType": "address",
          "name": "_receiver",
          "type": "address"
        },
        {
          "internalType": "uint256",
          "name": "_tokenId",
          "type": "uint256"
        },
        {
          "internalType": "uint256",
          "name": "_nonce",
          "type": "uint256"
        }
      ],
      "name": "claim",
      "outputs": [],
      "stateMutability": "nonpayable",
      "type": "function"
    },
    {
      "inputs": [
        {
          "internalType": "bytes32",
          "name": "_debridgeId",
          "type": "bytes32"
        },
        {
          "internalType": "uint256",
          "name": "_chainIdFrom",
          "type": "uint256"
        },
        {
          "internalType": "address",
          "name": "_receiver",
          "type": "address"
        },
        {
          "internalType": "uint256",
          "name": "_tokenId",
          "type": "uint256"
        },
        {
          "internalType": "uint256",
          "name": "_nonce",
          "type": "uint256"
        },
        {
          "internalType": "uint8",
          "name": "_aggregatorVersion",
          "type": "uint8"
        }
      ],
      "name": "claimWithOldAggregator",
      "outputs": [],
      "stateMutability": "nonpayable",
      "type": "function"
    },
    {
      "inputs": [
        {
          "internalType": "bytes32",
          "name": "_debridgeId",
          "type": "bytes32"
        },
        {
          "internalType": "uint256",
          "name": "_amount",
          "type": "uint256"
        }
      ],
      "name": "fundAggregator",
      "outputs": [],
      "stateMutability": "nonpayable",
      "type": "function"
    },
    {
      "inputs": [
        {
          "internalType": "contract IFeeProxy",
          "name": "_feeProxy",
          "type": "address"
        }
      ],
      "name": "setFeeProxy",
      "outputs": [],
      "stateMutability": "nonpayable",
      "type": "function"
    },
    {
      "inputs": [
        {
          "internalType": "address",
          "name": "_feeToken",
          "type": "address"
        }
      ],
      "name": "setFeeToken",
      "outputs": [],
      "stateMutability": "nonpayable",
      "type": "function"
    }
  ],
  "bytecode": "0x608060405234801561001057600080fd5b506135f4806100206000396000f3fe60806040526004361061027d5760003560e01c8063749871551161014f578063b4ebd560116100c1578063d547741f1161007a578063d547741f146108ce578063df05f8f5146108ee578063e083400e1461090e578063e562904d14610953578063f8c8765e14610973578063f9120af6146109935761027d565b8063b4ebd56014610799578063ba9f7776146107b9578063bf3d7341146107d9578063c7a0f643146107f9578063d1e3951314610819578063d311f6561461089b5761027d565b8063918f867411610113578063918f8674146106d457806391d14854146106f05780639682b909146107105780639a8a059214610730578063a217fddf14610746578063a7bb58031461075b5761027d565b806374987155146105fe5780637681af991461061e57806383d3f95d1461063e578063841b162b1461065e5780638456cb59146106bf5761027d565b80632f2ff15d116101f35780635bd5a95e116101ac5780635bd5a95e146105225780635c975abb14610542578063647846a51461056157806365ac9f78146105815780636834e3a8146105b15780636b7cbb69146105de5761027d565b80632f2ff15d1461042257806336568abe146104425780633f4ba83a146104625780634adc479c1461047757806353f3be851461049757806357cf07ca146104b75761027d565b8063245a7bfc11610245578063245a7bfc1461033a578063248a9ca31461037257806325be0be1146103a25780632b0d0a8b146103c25780632da688ac146103e25780632daa9ac9146104025761027d565b806301ffc9a714610282578063031ac613146102b75780630a0e5e9a146102cc57806315cce224146102ec57806321d930901461030c575b600080fd5b34801561028e57600080fd5b506102a261029d36600461328b565b6109b3565b60405190151581526020015b60405180910390f35b6102ca6102c536600461305c565b6109ec565b005b3480156102d857600080fd5b506102ca6102e73660046131ff565b610aef565b3480156102f857600080fd5b506102ca610307366004612df1565b610baf565b34801561031857600080fd5b5061032c610327366004612fde565b610bf8565b6040519081526020016102ae565b34801561034657600080fd5b5060035461035a906001600160a01b031681565b6040516001600160a01b0390911681526020016102ae565b34801561037e57600080fd5b5061032c61038d366004612fde565b60009081526020819052604090206001015490565b3480156103ae57600080fd5b506102ca6103bd366004612df1565b610c19565b3480156103ce57600080fd5b506102ca6103dd366004612df1565b610c62565b3480156103ee57600080fd5b5060045461035a906001600160a01b031681565b34801561040e57600080fd5b506102ca61041d366004612e84565b610cde565b34801561042e57600080fd5b506102ca61043d366004612ff6565b610d28565b34801561044e57600080fd5b506102ca61045d366004612ff6565b610db7565b34801561046e57600080fd5b506102ca610e31565b34801561048357600080fd5b506102ca61049236600461315e565b610eb7565b3480156104a357600080fd5b506102ca6104b236600461315e565b610fc3565b3480156104c357600080fd5b506104fd6104d2366004612fde565b6007602052600090815260409020805460018201546002909201546001600160a01b03909116919083565b604080516001600160a01b0390941684526020840192909252908201526060016102ae565b34801561052e57600080fd5b506102ca61053d36600461313d565b6110d0565b34801561054e57600080fd5b506102a260015462010000900460ff1690565b34801561056d57600080fd5b5060055461035a906001600160a01b031681565b34801561058d57600080fd5b506102a261059c366004612fde565b60086020526000908152604090205460ff1681565b3480156105bd57600080fd5b5061032c6105cc366004612df1565b60096020526000908152604090205481565b3480156105ea57600080fd5b506102ca6105f9366004613300565b611273565b34801561060a57600080fd5b506102ca6106193660046131a6565b611336565b34801561062a57600080fd5b506102ca61063936600461310b565b611479565b34801561064a57600080fd5b506102ca610659366004613025565b611552565b34801561066a57600080fd5b506106a06106793660046132e6565b600a602052600090815260409020546001600160a01b03811690600160a01b900460ff1682565b604080516001600160a01b0390931683529015156020830152016102ae565b3480156106cb57600080fd5b506102ca61160b565b3480156106e057600080fd5b5061032c670de0b6b3a764000081565b3480156106fc57600080fd5b506102a261070b366004612ff6565b611669565b34801561071c57600080fd5b5061032c61072b366004612ff6565b611692565b34801561073c57600080fd5b5061032c60025481565b34801561075257600080fd5b5061032c600081565b34801561076757600080fd5b5061077b6107763660046132b3565b6116e0565b60408051938452602084019290925260ff16908201526060016102ae565b3480156107a557600080fd5b506102ca6107b4366004613098565b611765565b3480156107c557600080fd5b50600b5461035a906001600160a01b031681565b3480156107e557600080fd5b5061032c6107f4366004613237565b611863565b34801561080557600080fd5b506102ca610814366004612f14565b6118c1565b34801561082557600080fd5b5061087e61083436600461313d565b604080518082018252600080825260209182018190529384526007815281842092845260049092018252918290208251808401909352805460ff1615158352600101549082015290565b6040805182511515815260209283015192810192909252016102ae565b3480156108a757600080fd5b506005546108bc90600160a01b900460ff1681565b60405160ff90911681526020016102ae565b3480156108da57600080fd5b506102ca6108e9366004612ff6565b611907565b3480156108fa57600080fd5b506102ca6109093660046131a6565b611987565b34801561091a57600080fd5b5061035a61092936600461313d565b6000918252600760209081526040808420928452600390920190529020546001600160a01b031690565b34801561095f57600080fd5b506102ca61096e366004612f87565b611abf565b34801561097f57600080fd5b506102ca61098e366004612e29565b611b29565b34801561099f57600080fd5b506102ca6109ae366004612df1565b611c0d565b60006001600160e01b03198216637965db0b60e01b14806109e457506301ffc9a760e01b6001600160e01b03198316145b90505b919050565b6109fe60015462010000900460ff1690565b15610a245760405162461bcd60e51b8152600401610a1b9061342a565b60405180910390fd5b610a2f848383611cdd565b6001600160a01b038316600090815260096020526040812054600254909190610a5d90879085878987611863565b60408051828152602081018990529081018690526001600160a01b03871660608201526080810184905260a081018590529091507f17c61cb89b62a3f29f5b150e3489c7a796ac4dc95fd73af14faa2c8086a324b49060c00160405180910390a16001600160a01b0385166000908152600960205260408120805491610ae283613531565b9190505550505050505050565b610afa600033611669565b610b165760405162461bcd60e51b8152600401610a1b90613454565b600083815260076020908152604080832085845260048101909252909120805460ff19168315801591909117909155610b7b57604051839085907fdd4dbf80f57aa5115a1e07abb36e4de565879d4de5bd15b3803d666fe1d8486390600090a3610ba9565b604051839085907f86c512831f7a2aad3f56b4169c161be1028776ab950c72e26237a0310ded560690600090a35b50505050565b610bba600033611669565b610bd65760405162461bcd60e51b8152600401610a1b90613454565b600580546001600160a01b0319166001600160a01b0392909216919091179055565b60068181548110610c0857600080fd5b600091825260209091200154905081565b610c24600033611669565b610c405760405162461bcd60e51b8152600401610a1b90613454565b600b80546001600160a01b0319166001600160a01b0392909216919091179055565b610c6d600033611669565b610c895760405162461bcd60e51b8152600401610a1b90613454565b600480546001600160a01b0319166001600160a01b0383169081179091556040519081527fa9543b36462a5e2c2259a14d72a8bd4e2342eaf9d7c828e9fb86921b3aa3eb5f906020015b60405180910390a150565b610ce9600033611669565b610d055760405162461bcd60e51b8152600401610a1b90613454565b6000610d118487611692565b9050610d208186868686611f02565b505050505050565b600082815260208190526040902060010154610d45905b3361070b565b610da95760405162461bcd60e51b815260206004820152602f60248201527f416363657373436f6e74726f6c3a2073656e646572206d75737420626520616e60448201526e0818591b5a5b881d1bc819dc985b9d608a1b6064820152608401610a1b565b610db3828261209c565b5050565b6001600160a01b0381163314610e275760405162461bcd60e51b815260206004820152602f60248201527f416363657373436f6e74726f6c3a2063616e206f6e6c792072656e6f756e636560448201526e103937b632b9903337b91039b2b63360891b6064820152608401610a1b565b610db38282612120565b610e3c600033611669565b610e585760405162461bcd60e51b8152600401610a1b90613454565b610e6a60015462010000900460ff1690565b610ead5760405162461bcd60e51b815260206004820152601460248201527314185d5cd8589b194e881b9bdd081c185d5cd95960621b6044820152606401610a1b565b610eb5612185565b565b610ec960015462010000900460ff1690565b15610ee65760405162461bcd60e51b8152600401610a1b9061342a565b6000610ef88686600254868887611863565b6003546040516317ccf26d60e11b8152600481018390529192506001600160a01b031690632f99e4da9060240160206040518083038186803b158015610f3d57600080fd5b505afa158015610f51573d6000803e3d6000fd5b505050506040513d601f19601f82011682018060405250810190610f759190612fc2565b610fb75760405162461bcd60e51b81526020600482015260136024820152721b5a5b9d0e881b9bdd0818dbdb999a5c9b5959606a1b6044820152606401610a1b565b610d208187868661221c565b610fd560015462010000900460ff1690565b15610ff25760405162461bcd60e51b8152600401610a1b9061342a565b60006110048686600254868887611863565b6003546040516317ccf26d60e11b8152600481018390529192506001600160a01b031690632f99e4da9060240160206040518083038186803b15801561104957600080fd5b505afa15801561105d573d6000803e3d6000fd5b505050506040513d601f19601f820116820180604052508101906110819190612fc2565b6110c45760405162461bcd60e51b815260206004820152601460248201527318db185a5b4e881b9bdd0818dbdb999a5c9b595960621b6044820152606401610a1b565b610d20818786866123c7565b6110db600033611669565b6110f75760405162461bcd60e51b8152600401610a1b90613454565b600082815260076020526040902060028101548211156111595760405162461bcd60e51b815260206004820152601e60248201527f66756e6441676772656761746f723a206e6f7420656e6f7567682066656500006044820152606401610a1b565b8181600201600082825461116d91906134ee565b9091555050600554600b5460405163a9059cbb60e01b81526001600160a01b0391821660048201526024810185905291169063a9059cbb90604401602060405180830381600087803b1580156111c257600080fd5b505af11580156111d6573d6000803e3d6000fd5b505050506040513d601f19601f820116820180604052508101906111fa9190612fc2565b50600b54600554600354604051631acd461560e31b81526001600160a01b03928316600482015260248101869052908216604482015291169063d66a30a890606401600060405180830381600087803b15801561125657600080fd5b505af115801561126a573d6000803e3d6000fd5b50505050505050565b61127e600033611669565b61129a5760405162461bcd60e51b8152600401610a1b90613454565b60055460ff600160a01b9091048116908316106113075760405162461bcd60e51b815260206004820152602560248201527f6d616e6167654f6c6441676772656761746f723a2076657273696f6e20746f6f604482015264040d0d2ced60db1b6064820152608401610a1b565b60ff9091166000908152600a602052604090208054911515600160a01b0260ff60a01b19909216919091179055565b60006113488787600254878988611863565b60ff8084166000908152600a60209081526040918290208251808401909352546001600160a01b0381168352600160a01b900490921615159181018290529192506113a55760405162461bcd60e51b8152600401610a1b906133e2565b80516040516317ccf26d60e11b8152600481018490526001600160a01b0390911690632f99e4da9060240160206040518083038186803b1580156113e857600080fd5b505afa1580156113fc573d6000803e3d6000fd5b505050506040513d601f19601f820116820180604052508101906114209190612fc2565b6114635760405162461bcd60e51b815260206004820152601460248201527318db185a5b4e881b9bdd0818dbdb999a5c9b595960621b6044820152606401610a1b565b61146f828988886123c7565b5050505050505050565b611484600033611669565b6114a05760405162461bcd60e51b8152600401610a1b90613454565b6000838152600760205260408120905b835181101561154b578281815181106114d957634e487b7160e01b600052603260045260246000fd5b602002602001015182600401600086848151811061150757634e487b7160e01b600052603260045260246000fd5b6020908102919091018101518252818101929092526040016000208251815460ff19169015151781559101516001909101558061154381613531565b9150506114b0565b5050505050565b61155d600033611669565b6115795760405162461bcd60e51b8152600401610a1b90613454565b600083815260076020526040902060028101548211156115db5760405162461bcd60e51b815260206004820152601b60248201527f77697468647261774665653a206e6f7420656e6f7567682066656500000000006044820152606401610a1b565b818160020160008282546115ef91906134ee565b9091555050600554610ba9906001600160a01b03168484612576565b611616600033611669565b6116325760405162461bcd60e51b8152600401610a1b90613454565b61164460015462010000900460ff1690565b156116615760405162461bcd60e51b8152600401610a1b9061342a565b610eb56125de565b6000918252602082815260408084206001600160a01b0393909316845291905290205460ff1690565b600082826040516020016116c292919091825260601b6bffffffffffffffffffffffff1916602082015260340190565b60405160208183030381529060405280519060200120905092915050565b600080600083516041146117475760405162461bcd60e51b815260206004820152602860248201527f73706c69745369676e61747572653a20696e76616c6964207369676e617475726044820152670ca40d8cadccee8d60c31b6064820152608401610a1b565b50505060208101516040820151606090920151909260009190911a90565b61177760015462010000900460ff1690565b156117945760405162461bcd60e51b8152600401610a1b9061342a565b6117a1868585858561264e565b6001600160a01b0385166000908152600960205260408120546002549091906117cf90899087898b87611863565b60408051828152602081018b90529081018890526001600160a01b03891660608201526080810184905260a081018790529091507fb8cc5195d548dc2781227c496b92d3736cd56d7f32b28971c9ae1e9eb0badf959060c00160405180910390a16001600160a01b038716600090815260096020526040812080549161185483613531565b91905055505050505050505050565b60408051602080820198909852808201969096526060808701959095526080860193909352921b6bffffffffffffffffffffffff191660a084015260b4808401929092528051808403909201825260d4909201909152805191012090565b6118cc600033611669565b6118e85760405162461bcd60e51b8152600401610a1b90613454565b60006118f660025485611692565b9050610ba981856002548686611f02565b60008281526020819052604090206001015461192290610d3f565b610e275760405162461bcd60e51b815260206004820152603060248201527f416363657373436f6e74726f6c3a2073656e646572206d75737420626520616e60448201526f2061646d696e20746f207265766f6b6560801b6064820152608401610a1b565b60006119998787600254878988611863565b60ff8084166000908152600a60209081526040918290208251808401909352546001600160a01b0381168352600160a01b900490921615159181018290529192506119f65760405162461bcd60e51b8152600401610a1b906133e2565b80516040516317ccf26d60e11b8152600481018490526001600160a01b0390911690632f99e4da9060240160206040518083038186803b158015611a3957600080fd5b505afa158015611a4d573d6000803e3d6000fd5b505050506040513d601f19601f82011682018060405250810190611a719190612fc2565b611ab35760405162461bcd60e51b81526020600482015260136024820152721b5a5b9d0e881b9bdd0818dbdb999a5c9b5959606a1b6044820152606401610a1b565b61146f8289888861221c565b611aca600033611669565b611ae65760405162461bcd60e51b8152600401610a1b90613454565b8051611af9906006906020840190612c15565b507fc96689ced54dda42d1f32f295881474112291c08120448bec2f7b10f5297e88f81604051610cd3919061336b565b600154610100900460ff1680611b42575060015460ff16155b611ba55760405162461bcd60e51b815260206004820152602e60248201527f496e697469616c697a61626c653a20636f6e747261637420697320616c72656160448201526d191e481a5b9a5d1a585b1a5e995960921b6064820152608401610a1b565b600154610100900460ff16158015611bcf576001805460ff1961ff00199091166101001716811790555b611bda85858561295a565b600b80546001600160a01b0319166001600160a01b038416179055801561154b576001805461ff00191690555050505050565b611c18600033611669565b611c345760405162461bcd60e51b8152600401610a1b90613454565b604080518082018252600380546001600160a01b039081168352600160208085019182526005805460ff600160a01b9182900481166000908152600a909452979092209551865493511515830260ff60a01b199186166001600160a01b031995861617919091161790955583549287169290911691909117909155815404909116906014611cc18361354c565b91906101000a81548160ff021916908360ff1602179055505050565b6000838152600760209081526040808320848452600481018352928190208151808301909252805460ff16151582526001908101549282019290925260025491830154909114611d685760405162461bcd60e51b815260206004820152601660248201527539b2b7321d103737ba103730ba34bb329031b430b4b760511b6044820152606401610a1b565b8051611db65760405162461bcd60e51b815260206004820152601860248201527f73656e643a2077726f6e672074617267656420636861696e00000000000000006044820152606401610a1b565b81546040516323b872dd60e01b81526001600160a01b03909116906323b872dd90611de990339030908990600401613347565b600060405180830381600087803b158015611e0357600080fd5b505af1158015611e17573d6000803e3d6000fd5b505083546040516331a9108f60e11b8152600481018890526001600160a01b039091169250636352211e915060240160206040518083038186803b158015611e5e57600080fd5b505afa158015611e72573d6000803e3d6000fd5b505050506040513d601f19601f82011682018060405250810190611e969190612e0d565b6000858152600384016020908152604090912080546001600160a01b0319166001600160a01b0393909316929092179091558101518015610d205780836002016000828254611ee591906134d6565b9091555050600554610d20906001600160a01b03163330846129a8565b8051825114611f625760405162461bcd60e51b815260206004820152602660248201527f5f61646441737365743a2077726f6e6720636861696e20737570706f7274206c604482015265656e6774687360d01b6064820152608401610a1b565b600085815260076020526040812080546001600160a01b0319166001600160a01b0387161781556001810185905590805b845181101561205a57848181518110611fbc57634e487b7160e01b600052603260045260246000fd5b60200260200101519150838181518110611fe657634e487b7160e01b600052603260045260246000fd5b602090810291909101810151600084815260048601835260408082208351815460ff19169015151781559290930151600190920191909155905183918a917fdd4dbf80f57aa5115a1e07abb36e4de565879d4de5bd15b3803d666fe1d848639190a38061205281613531565b915050611f93565b5084866001600160a01b0316887f1335c6c6bd39a6b4e4170d61cb0488815edb91ebc4b021606ed5599fb482949460405160405180910390a450505050505050565b6120a68282611669565b610db3576000828152602081815260408083206001600160a01b03851684529091529020805460ff191660011790556120dc3390565b6001600160a01b0316816001600160a01b0316837f2f8788117e7eff1d82e926ec794901d17c78024a50270940304540a733656f0d60405160405180910390a45050565b61212a8282611669565b15610db3576000828152602081815260408083206001600160a01b0385168085529252808320805460ff1916905551339285917ff6391f5c32d9c69d2a47ea670b442974b53935d1edc7fd64eb21e047a839171b9190a45050565b61219760015462010000900460ff1690565b6121da5760405162461bcd60e51b815260206004820152601460248201527314185d5cd8589b194e881b9bdd081c185d5cd95960621b6044820152606401610a1b565b6001805462ff0000191690556040513381527f5db9ee0a495bf2e6ff9c91a7834c1ba4fdd244a5e8aa4e537bd38aeae4b073aa906020015b60405180910390a1565b60008481526008602052604090205460ff16156122705760405162461bcd60e51b81526020600482015260126024820152711b5a5b9d0e88185b1c9958591e481d5cd95960721b6044820152606401610a1b565b60008381526007602090815260408083208784526008909252909120805460ff191660019081179091556002549082015414156122e75760405162461bcd60e51b815260206004820152601560248201527436b4b73a1d1034b9903730ba34bb329031b430b4b760591b6044820152606401610a1b565b80546040516340c10f1960e01b81526001600160a01b03858116600483015260248201859052909116906340c10f1990604401600060405180830381600087803b15801561233457600080fd5b505af1158015612348573d6000803e3d6000fd5b505050600083815260038301602090815260409182902080546001600160a01b0388166001600160a01b031990911681179091558251898152918201869052818301526060810187905290517f5918a95fd00afb5898499bd5beade1619e98655d2b4ff6e0f6a4347f0a69c12792509081900360800190a15050505050565b600083815260076020526040902060025460018201541461242a5760405162461bcd60e51b815260206004820152601960248201527f636c61696d3a2077726f6e672074617267657420636861696e000000000000006044820152606401610a1b565b60008581526008602052604090205460ff161561247f5760405162461bcd60e51b815260206004820152601360248201527218db185a5b4e88185b1c9958591e481d5cd959606a1b6044820152606401610a1b565b6000858152600860209081526040808320805460ff19166001179055848352600384019091529081902080546001600160a01b0319169055815490516323b872dd60e01b81526001600160a01b03919091169081906323b872dd906124ec90309088908890600401613347565b600060405180830381600087803b15801561250657600080fd5b505af115801561251a573d6000803e3d6000fd5b505060408051898152602081018790526001600160a01b038816818301526060810189905290517fabe3bed2a8590dd123c1a018888bce6142d526741bed65dfe570fb223525c6a49350908190036080019150a1505050505050565b6040516001600160a01b0383166024820152604481018290526125d990849063a9059cbb60e01b906064015b60408051601f198184030181529190526020810180516001600160e01b03166001600160e01b0319909316929092179091526129c9565b505050565b6125f060015462010000900460ff1690565b1561260d5760405162461bcd60e51b8152600401610a1b9061342a565b6001805462ff00001916620100001790556040513381527f62e78cea01bee320cd4e420270b5ea74000d11b0c9f74754ebdbfc544b05a25890602001612212565b6000858152600760209081526040808320868452600481018352928190208151808301909252805460ff16151582526001908101549282019290925260025491830154909114156126d65760405162461bcd60e51b8152602060048201526012602482015271189d5c9b8e881b985d1a5d9948185cdcd95d60721b6044820152606401610a1b565b80516127245760405162461bcd60e51b815260206004820152601860248201527f6275726e3a2077726f6e672074617267656420636861696e00000000000000006044820152606401610a1b565b60008681526003830160205260409020546001600160a01b031661278a5760405162461bcd60e51b815260206004820152601760248201527f6275726e3a20746f6b656e4964206e6f742065786973740000000000000000006044820152606401610a1b565b815483516001600160a01b0390911690156128375760008060006127ad876116e0565b604051637ac2ff7b60e01b8152306004820152602481018e9052604481018c905260ff821660648201526084810184905260a4810183905292955090935091506001600160a01b03851690637ac2ff7b9060c401600060405180830381600087803b15801561281b57600080fd5b505af115801561282f573d6000803e3d6000fd5b505050505050505b6040516323b872dd60e01b81526001600160a01b038216906323b872dd9061286790339030908c90600401613347565b600060405180830381600087803b15801561288157600080fd5b505af1158015612895573d6000803e3d6000fd5b5050506000888152600385016020908152604090912080546001600160a01b0319169055830151905080156128f557808460020160008282546128d891906134d6565b90915550506005546128f5906001600160a01b03163330846129a8565b604051630852cd8d60e31b8152600481018990526001600160a01b038316906342966c6890602401600060405180830381600087803b15801561293757600080fd5b505af115801561294b573d6000803e3d6000fd5b50505050505050505050505050565b466002819055600380546001600160a01b038087166001600160a01b031992831617909255600480548684169083161790556005805492851692909116919091179055610ba9600033610da9565b610ba9846323b872dd60e01b8585856040516024016125a293929190613347565b6000612a1e826040518060400160405280602081526020017f5361666545524332303a206c6f772d6c6576656c2063616c6c206661696c6564815250856001600160a01b0316612a9b9092919063ffffffff16565b8051909150156125d95780806020019051810190612a3c9190612fc2565b6125d95760405162461bcd60e51b815260206004820152602a60248201527f5361666545524332303a204552433230206f7065726174696f6e20646964206e6044820152691bdd081cdd58d8d9595960b21b6064820152608401610a1b565b6060612aaa8484600085612ab4565b90505b9392505050565b606082471015612b155760405162461bcd60e51b815260206004820152602660248201527f416464726573733a20696e73756666696369656e742062616c616e636520666f6044820152651c8818d85b1b60d21b6064820152608401610a1b565b843b612b635760405162461bcd60e51b815260206004820152601d60248201527f416464726573733a2063616c6c20746f206e6f6e2d636f6e74726163740000006044820152606401610a1b565b600080866001600160a01b03168587604051612b7f919061332b565b60006040518083038185875af1925050503d8060008114612bbc576040519150601f19603f3d011682016040523d82523d6000602084013e612bc1565b606091505b5091509150612bd1828286612bdc565b979650505050505050565b60608315612beb575081612aad565b825115612bfb5782518084602001fd5b8160405162461bcd60e51b8152600401610a1b91906133af565b828054828255906000526020600020908101928215612c50579160200282015b82811115612c50578251825591602001919060010190612c35565b50612c5c929150612c60565b5090565b5b80821115612c5c5760008155600101612c61565b600082601f830112612c85578081fd5b81356020612c9a612c95836134b2565b613481565b82815281810190858301604080860288018501891015612cb8578687fd5b865b86811015612d005781838b031215612cd0578788fd5b612cd982613481565b8335612ce4816135b0565b8152838701358782015285529385019391810191600101612cba565b509198975050505050505050565b600082601f830112612d1e578081fd5b81356020612d2e612c95836134b2565b8281528181019085830183850287018401881015612d4a578586fd5b855b85811015612d6857813584529284019290840190600101612d4c565b5090979650505050505050565b600082601f830112612d85578081fd5b813567ffffffffffffffff811115612d9f57612d9f613582565b612db2601f8201601f1916602001613481565b818152846020838601011115612dc6578283fd5b816020850160208301379081016020019190915292915050565b803560ff811681146109e757600080fd5b600060208284031215612e02578081fd5b8135612aad81613598565b600060208284031215612e1e578081fd5b8151612aad81613598565b60008060008060808587031215612e3e578283fd5b8435612e4981613598565b93506020850135612e5981613598565b92506040850135612e6981613598565b91506060850135612e7981613598565b939692955090935050565b600080600080600060a08688031215612e9b578081fd5b8535612ea681613598565b94506020860135612eb681613598565b935060408601359250606086013567ffffffffffffffff80821115612ed9578283fd5b612ee589838a01612d0e565b93506080880135915080821115612efa578283fd5b50612f0788828901612c75565b9150509295509295909350565b600080600060608486031215612f28578283fd5b8335612f3381613598565b9250602084013567ffffffffffffffff80821115612f4f578384fd5b612f5b87838801612d0e565b93506040860135915080821115612f70578283fd5b50612f7d86828701612c75565b9150509250925092565b600060208284031215612f98578081fd5b813567ffffffffffffffff811115612fae578182fd5b612fba84828501612d0e565b949350505050565b600060208284031215612fd3578081fd5b8151612aad816135b0565b600060208284031215612fef578081fd5b5035919050565b60008060408385031215613008578182fd5b82359150602083013561301a81613598565b809150509250929050565b600080600060608486031215613039578081fd5b83359250602084013561304b81613598565b929592945050506040919091013590565b60008060008060808587031215613071578182fd5b84359350602085013561308381613598565b93969395505050506040820135916060013590565b60008060008060008060c087890312156130b0578384fd5b8635955060208701356130c281613598565b945060408701359350606087013592506080870135915060a087013567ffffffffffffffff8111156130f2578182fd5b6130fe89828a01612d75565b9150509295509295509295565b60008060006060848603121561311f578081fd5b83359250602084013567ffffffffffffffff80821115612f4f578283fd5b6000806040838503121561314f578182fd5b50508035926020909101359150565b600080600080600060a08688031215613175578283fd5b8535945060208601359350604086013561318e81613598565b94979396509394606081013594506080013592915050565b60008060008060008060c087890312156131be578384fd5b863595506020870135945060408701356131d781613598565b935060608701359250608087013591506131f360a08801612de0565b90509295509295509295565b600080600060608486031215613213578081fd5b8335925060208401359150604084013561322c816135b0565b809150509250925092565b60008060008060008060c0878903121561324f578384fd5b86359550602087013594506040870135935060608701359250608087013561327681613598565b8092505060a087013590509295509295509295565b60006020828403121561329c578081fd5b81356001600160e01b031981168114612aad578182fd5b6000602082840312156132c4578081fd5b813567ffffffffffffffff8111156132da578182fd5b612fba84828501612d75565b6000602082840312156132f7578081fd5b612aad82612de0565b60008060408385031215613312578182fd5b61331b83612de0565b9150602083013561301a816135b0565b6000825161333d818460208701613505565b9190910192915050565b6001600160a01b039384168152919092166020820152604081019190915260600190565b6020808252825182820181905260009190848201906040850190845b818110156133a357835183529284019291840191600101613387565b50909695505050505050565b60006020825282518060208401526133ce816040850160208701613505565b601f01601f19169190910160400192915050565b60208082526028908201527f6d696e74576974684f6c6441676772656761746f723a20696e76616c6964416760408201526733b932b3b0ba37b960c11b606082015260800190565b60208082526010908201526f14185d5cd8589b194e881c185d5cd95960821b604082015260600190565b6020808252601390820152726f6e6c7941646d696e3a2062616420726f6c6560681b604082015260600190565b604051601f8201601f1916810167ffffffffffffffff811182821017156134aa576134aa613582565b604052919050565b600067ffffffffffffffff8211156134cc576134cc613582565b5060209081020190565b600082198211156134e9576134e961356c565b500190565b6000828210156135005761350061356c565b500390565b60005b83811015613520578181015183820152602001613508565b83811115610ba95750506000910152565b60006000198214156135455761354561356c565b5060010190565b600060ff821660ff8114156135635761356361356c565b60010192915050565b634e487b7160e01b600052601160045260246000fd5b634e487b7160e01b600052604160045260246000fd5b6001600160a01b03811681146135ad57600080fd5b50565b80151581146135ad57600080fdfea26469706673582212202670afd20bef36023df2bec03113adc2cd77aba234fc05e82447a1f7db6214c064736f6c63430008020033",
  "immutableReferences": {},
  "source": "// SPDX-License-Identifier: MIT\r\npragma solidity ^0.8.2;\r\n\r\nimport \"@openzeppelin/contracts/token/ERC721/ERC721.sol\";\r\nimport \"@openzeppelin/contracts/token/ERC721/IERC721.sol\";\r\nimport \"@openzeppelin/contracts/token/ERC20/IERC20.sol\";\r\nimport \"@openzeppelin/contracts/token/ERC20/utils/SafeERC20.sol\";\r\nimport \"@openzeppelin/contracts/access/AccessControl.sol\";\r\nimport \"../interfaces/IWhiteNFTDebridge.sol\";\r\nimport \"../interfaces/IFeeProxy.sol\";\r\nimport \"../interfaces/IWhiteFullNFTDebridge.sol\";\r\nimport \"../interfaces/IWhiteFullAggregator.sol\";\r\nimport \"../periphery/WrappedNFT.sol\";\r\nimport \"./WhiteNFTDebridge.sol\";\r\n\r\ncontract WhiteFullNFTDebridge is WhiteNFTDebridge, IWhiteFullNFTDebridge {\r\n    using SafeERC20 for IERC20;\r\n\r\n    IFeeProxy public feeProxy; // proxy to convert the collected fees into Link's\r\n    /// @dev Constructor that initializes the most important configurations.\r\n    /// @param _aggregator Submission aggregator address.\r\n    function initialize(\r\n        address _aggregator,\r\n        address _callProxy,\r\n        address _feeToken,\r\n        IFeeProxy _feeProxy\r\n    ) public initializer {\r\n        super._initialize(\r\n            _aggregator,\r\n            _callProxy,\r\n            _feeToken\r\n        );\r\n        feeProxy = _feeProxy;\r\n    }\r\n\r\n    /// @dev Mints wrapped asset on the current chain.\r\n    /// @param _debridgeId Asset identifier.\r\n    /// @param _receiver Receiver address.\r\n    /// @param _tokenId Amount of the transfered asset (note: without applyed fee).\r\n    /// @param _nonce Submission id.\r\n    function mint(\r\n        bytes32 _debridgeId,\r\n        uint256 _chainIdFrom,\r\n        address _receiver,\r\n        uint256 _tokenId,\r\n        uint256 _nonce\r\n    ) external override whenNotPaused() {\r\n        bytes32 submissionId =\r\n            getSubmisionId(\r\n                _debridgeId,\r\n                _chainIdFrom,\r\n                chainId,\r\n                _tokenId,\r\n                _receiver,\r\n                _nonce\r\n            );\r\n        require(\r\n            IWhiteFullAggregator(aggregator).isSubmissionConfirmed(\r\n                submissionId\r\n            ),\r\n            \"mint: not confirmed\"\r\n        );\r\n        _mint(\r\n            submissionId,\r\n            _debridgeId,\r\n            _receiver,\r\n            _tokenId\r\n            );\r\n    }\r\n\r\n    /// @dev Mints wrapped asset on the current chain.\r\n    /// @param _debridgeId Asset identifier.\r\n    /// @param _receiver Receiver address.\r\n    /// @param _tokenId Amount of the transfered asset (note: without applyed fee).\r\n    /// @param _nonce Submission id.\r\n    /// @param _aggregatorVersion Aggregator version.\r\n    function mintWithOldAggregator(\r\n        bytes32 _debridgeId,\r\n        uint256 _chainIdFrom,\r\n        address _receiver,\r\n        uint256 _tokenId,\r\n        uint256 _nonce,\r\n        uint8 _aggregatorVersion\r\n    ) external override {\r\n        bytes32 submissionId =\r\n            getSubmisionId(\r\n                _debridgeId,\r\n                _chainIdFrom,\r\n                chainId,\r\n                _tokenId,\r\n                _receiver,\r\n                _nonce\r\n            );\r\n        AggregatorInfo memory aggregatorInfo =\r\n            getOldAggregator[_aggregatorVersion];\r\n        require(\r\n            aggregatorInfo.isValid,\r\n            \"mintWithOldAggregator: invalidAggregator\"\r\n        );\r\n        require(\r\n            IWhiteFullAggregator(aggregatorInfo.aggregator)\r\n                .isSubmissionConfirmed(submissionId),\r\n            \"mint: not confirmed\"\r\n        );\r\n        _mint(\r\n            submissionId,\r\n            _debridgeId,\r\n            _receiver,\r\n            _tokenId\r\n        );\r\n    }\r\n\r\n    /**\r\n     * @dev Unlock the asset on the current chain and return to receiver\r\n     * @param _debridgeId Asset identifier\r\n     * @param _receiver Receiver address\r\n     * @param _tokenId Id of token to be transferred\r\n     * @param _nonce Submission id\r\n     */\r\n    function claim(\r\n        bytes32 _debridgeId,\r\n        uint256 _chainIdFrom,\r\n        address _receiver,\r\n        uint256 _tokenId,\r\n        uint256 _nonce\r\n    ) external whenNotPaused() {\r\n        bytes32 submissionId =\r\n            getSubmisionId(\r\n                _debridgeId,\r\n                _chainIdFrom,\r\n                chainId,\r\n                _tokenId,\r\n                _receiver,\r\n                _nonce\r\n            );\r\n        require(\r\n            IWhiteFullAggregator(aggregator).isSubmissionConfirmed(\r\n                submissionId\r\n            ),\r\n            \"claim: not confirmed\"\r\n        );\r\n        _claim(\r\n            submissionId,\r\n            _debridgeId,\r\n            _receiver,\r\n            _tokenId\r\n        );\r\n    }\r\n\r\n    /**\r\n     * @dev Unlock the asset on the current chain and return to receiver\r\n     * @param _debridgeId Asset identifier\r\n     * @param _receiver Receiver address\r\n     * @param _tokenId Id of token to be transferred\r\n     * @param _nonce Submission id.\r\n     * @param _aggregatorVersion Aggregator version\r\n     */\r\n    function claimWithOldAggregator(\r\n        bytes32 _debridgeId,\r\n        uint256 _chainIdFrom,\r\n        address _receiver,\r\n        uint256 _tokenId,\r\n        uint256 _nonce,\r\n        uint8 _aggregatorVersion\r\n    ) external {\r\n        bytes32 submissionId =\r\n            getSubmisionId(\r\n                _debridgeId,\r\n                _chainIdFrom,\r\n                chainId,\r\n                _tokenId,\r\n                _receiver,\r\n                _nonce\r\n            );\r\n        AggregatorInfo memory aggregatorInfo =\r\n            getOldAggregator[_aggregatorVersion];\r\n        require(\r\n            aggregatorInfo.isValid,\r\n            \"mintWithOldAggregator: invalidAggregator\"\r\n        );\r\n        require(\r\n            IWhiteFullAggregator(aggregatorInfo.aggregator)\r\n                .isSubmissionConfirmed(submissionId),\r\n            \"claim: not confirmed\"\r\n        );\r\n\r\n        _claim(\r\n            submissionId,\r\n            _debridgeId,\r\n            _receiver,\r\n            _tokenId\r\n        );\r\n    }\r\n\r\n    /* ADMIN */\r\n\r\n    /// @dev Fund aggregator.\r\n    /// @param _debridgeId Asset identifier.\r\n    /// @param _amount Submission aggregator address.\r\n    function fundAggregator(bytes32 _debridgeId, uint256 _amount)\r\n        external\r\n        override\r\n        onlyAdmin()\r\n    {\r\n        DebridgeInfo storage debridge = getDebridge[_debridgeId];\r\n        require(\r\n            debridge.collectedFees >= _amount,\r\n            \"fundAggregator: not enough fee\"\r\n        );\r\n        debridge.collectedFees -= _amount;\r\n        IERC20(feeToken).transfer(address(feeProxy), _amount);\r\n        feeProxy.swapToLink(feeToken, _amount, aggregator);\r\n    }\r\n\r\n    /// @dev Set fee converter proxy.\r\n    /// @param _feeProxy Fee proxy address.\r\n    function setFeeProxy(IFeeProxy _feeProxy) external onlyAdmin() {\r\n        feeProxy = _feeProxy;\r\n    }\r\n\r\n    /// @dev Set wrapped native asset address.\r\n    /// @param _feeToken Weth address.\r\n    function setFeeToken(address _feeToken) external onlyAdmin() {\r\n        feeToken = _feeToken;\r\n    }\r\n}",
  "sourcePath": "D:/Ethereum/Debridge/debridge-contracts-v1/contracts/transfers/WhiteFullNFTDebridge.sol",
  "compiler": {
    "name": "solc",
    "version": "0.8.2+commit.661d1103.Emscripten.clang"
  },
  "schemaVersion": "3.3.4",
  "updatedAt": "2021-06-08T16:02:58.226Z",
  "devdoc": {
    "kind": "dev",
    "methods": {
      "addExternalAsset(address,address,uint256,uint256[],(bool,uint256)[])": {
        "details": "Add support for the asset from the other chain, deploy new wrapped asset.",
        "params": {
          "_chainId": "Current chain id.",
          "_supportedChainIds": "Chain ids where the token of the current chain can be transfered.",
          "_tokenAddress": "Address of the asset on the other chain.",
          "_wrappedAssetAddress": "Wrapped asset address."
        }
      },
      "addNativeAsset(address,uint256[],(bool,uint256)[])": {
        "details": "Add support for the asset on the current chain.",
        "params": {
          "_supportedChainIds": "Chain ids where native token of the current chain can be wrapped.",
          "_tokenAddress": "Address of the asset on the current chain."
        }
      },
      "burn(bytes32,address,uint256,uint256,uint256,bytes)": {
        "details": "Burns wrapped asset and allowss to claim it on the other chain.",
        "params": {
          "_chainIdTo": "Chain id of the target chain.",
          "_debridgeId": "Asset identifier.",
          "_receiver": "Receiver address.",
          "_tokenId": "Id of token to be transfered"
        }
      },
      "claim(bytes32,uint256,address,uint256,uint256)": {
        "details": "Unlock the asset on the current chain and return to receiver",
        "params": {
          "_debridgeId": "Asset identifier",
          "_nonce": "Submission id",
          "_receiver": "Receiver address",
          "_tokenId": "Id of token to be transferred"
        }
      },
      "claimWithOldAggregator(bytes32,uint256,address,uint256,uint256,uint8)": {
        "details": "Unlock the asset on the current chain and return to receiver",
        "params": {
          "_aggregatorVersion": "Aggregator version",
          "_debridgeId": "Asset identifier",
          "_nonce": "Submission id.",
          "_receiver": "Receiver address",
          "_tokenId": "Id of token to be transferred"
        }
      },
      "fundAggregator(bytes32,uint256)": {
        "details": "Fund aggregator.",
        "params": {
          "_amount": "Submission aggregator address.",
          "_debridgeId": "Asset identifier."
        }
      },
      "getChainIdSupport(bytes32,uint256)": {
        "details": "Check if transfer to chain is supported.",
        "params": {
          "_chainId": "Chain identifier.",
          "_debridgeId": "Asset identifier."
        }
      },
      "getDebridgeId(uint256,address)": {
        "details": "Calculates asset identifier.",
        "params": {
          "_chainId": "Current chain id.",
          "_tokenAddress": "Address of the asset on the other chain."
        }
      },
      "getOwnerOfToken(bytes32,uint256)": {
        "details": "get owner of token",
        "params": {
          "_debridgeId": "Asset identifier.",
          "_tokenId": "Chain identifier."
        }
      },
      "getRoleAdmin(bytes32)": {
        "details": "Returns the admin role that controls `role`. See {grantRole} and {revokeRole}. To change a role's admin, use {_setRoleAdmin}."
      },
      "getSubmisionId(bytes32,uint256,uint256,uint256,address,uint256)": {
        "details": "Calculate submission id.",
        "params": {
          "_chainIdFrom": "Chain identifier of the chain where tokens are sent from.",
          "_chainIdTo": "Chain identifier of the chain where tokens are sent to.",
          "_debridgeId": "Asset identifier.",
          "_nonce": "Submission id.",
          "_receiver": "Receiver address.",
          "_tokenId": "Id of token to be transfered"
        }
      },
      "grantRole(bytes32,address)": {
        "details": "Grants `role` to `account`. If `account` had not been already granted `role`, emits a {RoleGranted} event. Requirements: - the caller must have ``role``'s admin role."
      },
      "hasRole(bytes32,address)": {
        "details": "Returns `true` if `account` has been granted `role`."
      },
      "initialize(address,address,address,address)": {
        "details": "Constructor that initializes the most important configurations.",
        "params": {
          "_aggregator": "Submission aggregator address."
        }
      },
      "manageOldAggregator(uint8,bool)": {
        "details": "Set aggregator address.",
        "params": {
          "_aggregatorVersion": "Submission aggregator address.",
          "_isValid": "Is valid."
        }
      },
      "mint(bytes32,uint256,address,uint256,uint256)": {
        "details": "Mints wrapped asset on the current chain.",
        "params": {
          "_debridgeId": "Asset identifier.",
          "_nonce": "Submission id.",
          "_receiver": "Receiver address.",
          "_tokenId": "Amount of the transfered asset (note: without applyed fee)."
        }
      },
      "mintWithOldAggregator(bytes32,uint256,address,uint256,uint256,uint8)": {
        "details": "Mints wrapped asset on the current chain.",
        "params": {
          "_aggregatorVersion": "Aggregator version.",
          "_debridgeId": "Asset identifier.",
          "_nonce": "Submission id.",
          "_receiver": "Receiver address.",
          "_tokenId": "Amount of the transfered asset (note: without applyed fee)."
        }
      },
      "pause()": {
        "details": "Stop all transfers."
      },
      "paused()": {
        "details": "Returns true if the contract is paused, and false otherwise."
      },
      "renounceRole(bytes32,address)": {
        "details": "Revokes `role` from the calling account. Roles are often managed via {grantRole} and {revokeRole}: this function's purpose is to provide a mechanism for accounts to lose their privileges if they are compromised (such as when a trusted device is misplaced). If the calling account had been granted `role`, emits a {RoleRevoked} event. Requirements: - the caller must be `account`."
      },
      "revokeRole(bytes32,address)": {
        "details": "Revokes `role` from `account`. If `account` had been granted `role`, emits a {RoleRevoked} event. Requirements: - the caller must have ``role``'s admin role."
      },
      "send(bytes32,address,uint256,uint256)": {
        "details": "Locks asset on the chain and enables minting on the other chain.",
        "params": {
          "_chainIdTo": "Chain id of the target chain.",
          "_debridgeId": "Asset identifier.",
          "_receiver": "Receiver address.",
          "_tokenId": "Id of token to be transfered"
        }
      },
      "setAggregator(address)": {
        "details": "Set aggregator address.",
        "params": {
          "_aggregator": "Submission aggregator address."
        }
      },
      "setCallProxy(address)": {
        "details": "Set proxy address.",
        "params": {
          "_callProxy": "Address of the proxy that executes external calls."
        }
      },
      "setChainIdSupport(bytes32,uint256,bool)": {
        "details": "Set support for the chains where the token can be transfered.",
        "params": {
          "_chainId": "Current chain id.",
          "_debridgeId": "Asset identifier.",
          "_isSupported": "Whether the token is transferable to the other chain."
        }
      },
      "setChainIds(uint256[])": {
        "details": "Set support for the chains.",
        "params": {
          "_chainIds": "All supported chain ids."
        }
      },
      "setFeeProxy(address)": {
        "details": "Set fee converter proxy.",
        "params": {
          "_feeProxy": "Fee proxy address."
        }
      },
      "setFeeToken(address)": {
        "details": "Set wrapped native asset address.",
        "params": {
          "_feeToken": "Weth address."
        }
      },
      "splitSignature(bytes)": {
        "details": "Splits signature bytes to r,s,v components.",
        "params": {
          "_signature": "Signature bytes in format r+s+v."
        }
      },
      "supportsInterface(bytes4)": {
        "details": "See {IERC165-supportsInterface}."
      },
      "unpause()": {
        "details": "Allow transfers."
      },
      "updateAsset(bytes32,uint256[],(bool,uint256)[])": {
        "details": "Update asset's fees.",
        "params": {
          "_chainSupportInfo": "Cahin support info.",
          "_debridgeId": "Asset identifier.",
          "_supportedChainIds": "Chain identifiers."
        }
      },
      "withdrawFee(bytes32,address,uint256)": {
        "details": "Withdraw fees.",
        "params": {
          "_amount": "Amount of tokens to withdraw.",
          "_debridgeId": "Asset identifier.",
          "_receiver": "Receiver address."
        }
      }
    },
    "version": 1
  },
  "userdoc": {
    "kind": "user",
    "methods": {},
    "version": 1
  }
}