{
  "contractName": "WhiteFullAggregator",
  "abi": [
    {
      "inputs": [
        {
          "internalType": "uint256",
          "name": "_minConfirmations",
          "type": "uint256"
        },
        {
          "internalType": "uint128",
          "name": "_payment",
          "type": "uint128"
        },
        {
          "internalType": "contract IERC20",
          "name": "_link",
          "type": "address"
        }
      ],
      "stateMutability": "nonpayable",
      "type": "constructor"
    },
    {
      "anonymous": false,
      "inputs": [
        {
          "indexed": false,
          "internalType": "bytes32",
          "name": "submissionId",
          "type": "bytes32"
        },
        {
          "indexed": false,
          "internalType": "address",
          "name": "operator",
          "type": "address"
        }
      ],
      "name": "Confirmed",
      "type": "event"
    },
    {
      "anonymous": false,
      "inputs": [
        {
          "indexed": true,
          "internalType": "bytes32",
          "name": "role",
          "type": "bytes32"
        },
        {
          "indexed": true,
          "internalType": "bytes32",
          "name": "previousAdminRole",
          "type": "bytes32"
        },
        {
          "indexed": true,
          "internalType": "bytes32",
          "name": "newAdminRole",
          "type": "bytes32"
        }
      ],
      "name": "RoleAdminChanged",
      "type": "event"
    },
    {
      "anonymous": false,
      "inputs": [
        {
          "indexed": true,
          "internalType": "bytes32",
          "name": "role",
          "type": "bytes32"
        },
        {
          "indexed": true,
          "internalType": "address",
          "name": "account",
          "type": "address"
        },
        {
          "indexed": true,
          "internalType": "address",
          "name": "sender",
          "type": "address"
        }
      ],
      "name": "RoleGranted",
      "type": "event"
    },
    {
      "anonymous": false,
      "inputs": [
        {
          "indexed": true,
          "internalType": "bytes32",
          "name": "role",
          "type": "bytes32"
        },
        {
          "indexed": true,
          "internalType": "address",
          "name": "account",
          "type": "address"
        },
        {
          "indexed": true,
          "internalType": "address",
          "name": "sender",
          "type": "address"
        }
      ],
      "name": "RoleRevoked",
      "type": "event"
    },
    {
      "anonymous": false,
      "inputs": [
        {
          "indexed": false,
          "internalType": "bytes32",
          "name": "submissionId",
          "type": "bytes32"
        }
      ],
      "name": "SubmissionApproved",
      "type": "event"
    },
    {
      "inputs": [],
      "name": "DEFAULT_ADMIN_ROLE",
      "outputs": [
        {
          "internalType": "bytes32",
          "name": "",
          "type": "bytes32"
        }
      ],
      "stateMutability": "view",
      "type": "function"
    },
    {
      "inputs": [],
      "name": "ORACLE_ROLE",
      "outputs": [
        {
          "internalType": "bytes32",
          "name": "",
          "type": "bytes32"
        }
      ],
      "stateMutability": "view",
      "type": "function"
    },
    {
      "inputs": [
        {
          "internalType": "address",
          "name": "_oracle",
          "type": "address"
        },
        {
          "internalType": "address",
          "name": "_admin",
          "type": "address"
        }
      ],
      "name": "addOracle",
      "outputs": [],
      "stateMutability": "nonpayable",
      "type": "function"
    },
    {
      "inputs": [],
      "name": "allocatedFunds",
      "outputs": [
        {
          "internalType": "uint256",
          "name": "",
          "type": "uint256"
        }
      ],
      "stateMutability": "view",
      "type": "function"
    },
    {
      "inputs": [],
      "name": "availableFunds",
      "outputs": [
        {
          "internalType": "uint256",
          "name": "",
          "type": "uint256"
        }
      ],
      "stateMutability": "view",
      "type": "function"
    },
    {
      "inputs": [
        {
          "internalType": "address",
          "name": "",
          "type": "address"
        }
      ],
      "name": "getOracleInfo",
      "outputs": [
        {
          "internalType": "uint256",
          "name": "withdrawable",
          "type": "uint256"
        },
        {
          "internalType": "address",
          "name": "admin",
          "type": "address"
        }
      ],
      "stateMutability": "view",
      "type": "function"
    },
    {
      "inputs": [
        {
          "internalType": "bytes32",
          "name": "role",
          "type": "bytes32"
        }
      ],
      "name": "getRoleAdmin",
      "outputs": [
        {
          "internalType": "bytes32",
          "name": "",
          "type": "bytes32"
        }
      ],
      "stateMutability": "view",
      "type": "function"
    },
    {
      "inputs": [
        {
          "internalType": "bytes32",
          "name": "",
          "type": "bytes32"
        }
      ],
      "name": "getSubmissionInfo",
      "outputs": [
        {
          "internalType": "bool",
          "name": "confirmed",
          "type": "bool"
        },
        {
          "internalType": "uint256",
          "name": "confirmations",
          "type": "uint256"
        }
      ],
      "stateMutability": "view",
      "type": "function"
    },
    {
      "inputs": [
        {
          "internalType": "address",
          "name": "_oracle",
          "type": "address"
        }
      ],
      "name": "getWithdrawable",
      "outputs": [
        {
          "internalType": "uint256",
          "name": "",
          "type": "uint256"
        }
      ],
      "stateMutability": "view",
      "type": "function"
    },
    {
      "inputs": [
        {
          "internalType": "bytes32",
          "name": "role",
          "type": "bytes32"
        },
        {
          "internalType": "address",
          "name": "account",
          "type": "address"
        }
      ],
      "name": "grantRole",
      "outputs": [],
      "stateMutability": "nonpayable",
      "type": "function"
    },
    {
      "inputs": [
        {
          "internalType": "bytes32",
          "name": "role",
          "type": "bytes32"
        },
        {
          "internalType": "address",
          "name": "account",
          "type": "address"
        }
      ],
      "name": "hasRole",
      "outputs": [
        {
          "internalType": "bool",
          "name": "",
          "type": "bool"
        }
      ],
      "stateMutability": "view",
      "type": "function"
    },
    {
      "inputs": [],
      "name": "link",
      "outputs": [
        {
          "internalType": "contract IERC20",
          "name": "",
          "type": "address"
        }
      ],
      "stateMutability": "view",
      "type": "function"
    },
    {
      "inputs": [],
      "name": "minConfirmations",
      "outputs": [
        {
          "internalType": "uint256",
          "name": "",
          "type": "uint256"
        }
      ],
      "stateMutability": "view",
      "type": "function"
    },
    {
      "inputs": [
        {
          "internalType": "address",
          "name": "",
          "type": "address"
        },
        {
          "internalType": "uint256",
          "name": "",
          "type": "uint256"
        },
        {
          "internalType": "bytes",
          "name": "_data",
          "type": "bytes"
        }
      ],
      "name": "onTokenTransfer",
      "outputs": [],
      "stateMutability": "nonpayable",
      "type": "function"
    },
    {
      "inputs": [],
      "name": "payment",
      "outputs": [
        {
          "internalType": "uint256",
          "name": "",
          "type": "uint256"
        }
      ],
      "stateMutability": "view",
      "type": "function"
    },
    {
      "inputs": [
        {
          "internalType": "address",
          "name": "_oracle",
          "type": "address"
        }
      ],
      "name": "removeOracle",
      "outputs": [],
      "stateMutability": "nonpayable",
      "type": "function"
    },
    {
      "inputs": [
        {
          "internalType": "bytes32",
          "name": "role",
          "type": "bytes32"
        },
        {
          "internalType": "address",
          "name": "account",
          "type": "address"
        }
      ],
      "name": "renounceRole",
      "outputs": [],
      "stateMutability": "nonpayable",
      "type": "function"
    },
    {
      "inputs": [
        {
          "internalType": "bytes32",
          "name": "role",
          "type": "bytes32"
        },
        {
          "internalType": "address",
          "name": "account",
          "type": "address"
        }
      ],
      "name": "revokeRole",
      "outputs": [],
      "stateMutability": "nonpayable",
      "type": "function"
    },
    {
      "inputs": [
        {
          "internalType": "uint256",
          "name": "_minConfirmations",
          "type": "uint256"
        }
      ],
      "name": "setMinConfirmations",
      "outputs": [],
      "stateMutability": "nonpayable",
      "type": "function"
    },
    {
      "inputs": [
        {
          "internalType": "uint128",
          "name": "_payment",
          "type": "uint128"
        }
      ],
      "name": "setPayment",
      "outputs": [],
      "stateMutability": "nonpayable",
      "type": "function"
    },
    {
      "inputs": [
        {
          "internalType": "bytes4",
          "name": "interfaceId",
          "type": "bytes4"
        }
      ],
      "name": "supportsInterface",
      "outputs": [
        {
          "internalType": "bool",
          "name": "",
          "type": "bool"
        }
      ],
      "stateMutability": "view",
      "type": "function"
    },
    {
      "inputs": [],
      "name": "updateAvailableFunds",
      "outputs": [],
      "stateMutability": "nonpayable",
      "type": "function"
    },
    {
      "inputs": [
        {
          "internalType": "address",
          "name": "_oracle",
          "type": "address"
        },
        {
          "internalType": "address",
          "name": "_newOracle",
          "type": "address"
        }
      ],
      "name": "updateOracleAddress",
      "outputs": [],
      "stateMutability": "nonpayable",
      "type": "function"
    },
    {
      "inputs": [
        {
          "internalType": "address",
          "name": "_oracle",
          "type": "address"
        },
        {
          "internalType": "address",
          "name": "_newOracleAdmin",
          "type": "address"
        }
      ],
      "name": "updateOracleAdmin",
      "outputs": [],
      "stateMutability": "nonpayable",
      "type": "function"
    },
    {
      "inputs": [
        {
          "internalType": "address",
          "name": "_recipient",
          "type": "address"
        },
        {
          "internalType": "uint256",
          "name": "_amount",
          "type": "uint256"
        }
      ],
      "name": "withdrawFunds",
      "outputs": [],
      "stateMutability": "nonpayable",
      "type": "function"
    },
    {
      "inputs": [
        {
          "internalType": "address",
          "name": "_oracle",
          "type": "address"
        },
        {
          "internalType": "address",
          "name": "_recipient",
          "type": "address"
        },
        {
          "internalType": "uint256",
          "name": "_amount",
          "type": "uint256"
        }
      ],
      "name": "withdrawPayment",
      "outputs": [],
      "stateMutability": "nonpayable",
      "type": "function"
    },
    {
      "inputs": [
        {
          "internalType": "bytes32[]",
          "name": "_submissionIds",
          "type": "bytes32[]"
        }
      ],
      "name": "submitMany",
      "outputs": [],
      "stateMutability": "nonpayable",
      "type": "function"
    },
    {
      "inputs": [
        {
          "internalType": "bytes32",
          "name": "_submissionId",
          "type": "bytes32"
        }
      ],
      "name": "submit",
      "outputs": [],
      "stateMutability": "nonpayable",
      "type": "function"
    },
    {
      "inputs": [
        {
          "internalType": "bytes32",
          "name": "_submissionId",
          "type": "bytes32"
        }
      ],
      "name": "isSubmissionConfirmed",
      "outputs": [
        {
          "internalType": "bool",
          "name": "",
          "type": "bool"
        }
      ],
      "stateMutability": "view",
      "type": "function"
    }
  ],
  "bytecode": "0x60806040523480156200001157600080fd5b50604051620016a7380380620016a7833981016040819052620000349162000159565b60018390556001600160801b038216600455600580546001600160a01b0319166001600160a01b03831617905582828262000071600033620000a9565b6200009d7f68e79a7bf1e0bc45d0a330c573bc367f9cf464fd326078812f301165fbda4ef133620000a9565b505050505050620001b5565b620000b58282620000b9565b5050565b6000828152602081815260408083206001600160a01b038516845290915290205460ff16620000b5576000828152602081815260408083206001600160a01b03851684529091529020805460ff19166001179055620001153390565b6001600160a01b0316816001600160a01b0316837f2f8788117e7eff1d82e926ec794901d17c78024a50270940304540a733656f0d60405160405180910390a45050565b6000806000606084860312156200016e578283fd5b835160208501519093506001600160801b03811681146200018d578283fd5b60408501519092506001600160a01b0381168114620001aa578182fd5b809150509250925092565b6114e280620001c56000396000f3fe608060405234801561001057600080fd5b50600436106101cf5760003560e01c806382313e5011610104578063d2821655116100a2578063e75a592611610071578063e75a59261461044b578063e7c4393e1461045e578063f0ca4adb14610467578063fdc85fc41461047a576101cf565b8063d282165514610409578063d4cc54e41461041c578063d547741f14610425578063d9caa3d214610438576101cf565b8063a217fddf116100de578063a217fddf1461038e578063a4c0ed3614610396578063bfdb6b04146103a9578063c1075329146103f6576101cf565b806382313e501461035557806391d148541461036857806397daa4f71461037b576101cf565b806332cc6ae61161017157806342f6487a1161014b57806342f6487a1461032857806346fcff4c1461033157806348f6179c1461033a5780634f8fc3b51461034d576101cf565b806332cc6ae6146102d957806336568abe146103025780633d3d771414610315576101cf565b80631c4695f4116101ad5780631c4695f414610263578063248a9ca31461028e5780632f2ff15d146102b15780632f99e4da146102c6576101cf565b806301ffc9a7146101d457806307e2cea5146101fc5780630e3b90a91461021f575b600080fd5b6101e76101e2366004611382565b61048d565b60405190151581526020015b60405180910390f35b61021160008051602061148d83398151915281565b6040519081526020016101f3565b61024c61022d366004611348565b6007602052600090815260409020805460019091015460ff9091169082565b6040805192151583526020830191909152016101f3565b600554610276906001600160a01b031681565b6040516001600160a01b0390911681526020016101f3565b61021161029c366004611348565b60009081526020819052604090206001015490565b6102c46102bf366004611360565b6104c6565b005b6101e76102d4366004611348565b61055a565b6102116102e7366004611130565b6001600160a01b031660009081526006602052604090205490565b6102c4610310366004611360565b61058d565b6102c4610323366004611183565b610607565b61021160045481565b61021160035481565b6102c4610348366004611151565b6107e8565b6102c46108b5565b6102c46103633660046113aa565b610942565b6101e7610376366004611360565b610977565b6102c4610389366004611269565b6109a0565b610211600081565b6102c46103a43660046111e7565b610a49565b6103d96103b7366004611130565b600660205260009081526040902080546001909101546001600160a01b031682565b604080519283526001600160a01b039091166020830152016101f3565b6102c46104043660046111be565b610af9565b6102c4610417366004611348565b610c4c565b61021160025481565b6102c4610433366004611360565b610c78565b6102c4610446366004611348565b610cf8565b6102c4610459366004611151565b610d5f565b61021160015481565b6102c4610475366004611151565b610e0e565b6102c4610488366004611130565b610e4d565b60006001600160e01b03198216637965db0b60e01b14806104be57506301ffc9a760e01b6001600160e01b03198316145b90505b919050565b6000828152602081905260409020600101546104e3905b33610376565b61054c5760405162461bcd60e51b815260206004820152602f60248201527f416363657373436f6e74726f6c3a2073656e646572206d75737420626520616e60448201526e0818591b5a5b881d1bc819dc985b9d608a1b60648201526084015b60405180910390fd5b6105568282610e8c565b5050565b60008181526007602052604081205460ff16806104be575050600180546000928352600760205260409092200154101590565b6001600160a01b03811633146105fd5760405162461bcd60e51b815260206004820152602f60248201527f416363657373436f6e74726f6c3a2063616e206f6e6c792072656e6f756e636560448201526e103937b632b9903337b91039b2b63360891b6064820152608401610543565b6105568282610f10565b6001600160a01b038381166000908152600660205260409020600101541633146106835760405162461bcd60e51b815260206004820152602760248201527f77697468647261775061796d656e743a206f6e6c792063616c6c61626c6520626044820152663c9030b236b4b760c91b6064820152608401610543565b6001600160a01b038316600090815260066020526040902054818110156107055760405162461bcd60e51b815260206004820152603060248201527f77697468647261775061796d656e743a20696e73756666696369656e7420776960448201526f74686472617761626c652066756e647360801b6064820152608401610543565b61070f828261142e565b6001600160a01b0385166000908152600660205260408120919091556002805484929061073d90849061142e565b909155505060055460405163a9059cbb60e01b81526001600160a01b038581166004830152602482018590529091169063a9059cbb90604401602060405180830381600087803b15801561079057600080fd5b505af11580156107a4573d6000803e3d6000fd5b505050506040513d601f19601f820116820180604052508101906107c89190611328565b6107e257634e487b7160e01b600052600160045260246000fd5b50505050565b6001600160a01b038281166000908152600660205260409020600101541633146108685760405162461bcd60e51b815260206004820152602b60248201527f7570646174654f7261636c65416464726573733a206f6e6c792063616c6c616260448201526a363290313c9030b236b4b760a91b6064820152608401610543565b6001600160a01b0390811660009081526006602052604080822060018082018054336001600160a01b03199182161790915595909416835290822080549091559081550180549091169055565b6002546005546040516370a0823160e01b81523060048201526001600160a01b03909116906370a082319060240160206040518083038186803b1580156108fb57600080fd5b505afa15801561090f573d6000803e3d6000fd5b505050506040513d601f19601f8201168201806040525081019061093391906113d1565b61093d919061142e565b600355565b61094d600033610977565b6109695760405162461bcd60e51b8152600401610543906113e9565b6001600160801b0316600455565b6000918252602082815260408084206001600160a01b0393909316845291905290205460ff1690565b6109b860008051602061148d83398151915233610977565b6109fb5760405162461bcd60e51b81526020600482015260146024820152736f6e6c794f7261636c653a2062616420726f6c6560601b6044820152606401610543565b60005b815181101561055657610a37828281518110610a2a57634e487b7160e01b600052603260045260246000fd5b6020026020010151610f75565b80610a4181611445565b9150506109fe565b6005546001600160a01b03163314610aa35760405162461bcd60e51b815260206004820152601d60248201527f6f6e546f6b656e5472616e736665723a206e6f7420746865204c696e6b0000006044820152606401610543565b8015610af15760405162461bcd60e51b815260206004820181905260248201527f7472616e7366657220646f65736e2774206163636570742063616c6c646174616044820152606401610543565b6107e26108b5565b610b04600033610977565b610b205760405162461bcd60e51b8152600401610543906113e9565b806003541015610b725760405162461bcd60e51b815260206004820152601a60248201527f696e73756666696369656e7420726573657276652066756e64730000000000006044820152606401610543565b60055460405163a9059cbb60e01b81526001600160a01b038481166004830152602482018490529091169063a9059cbb90604401602060405180830381600087803b158015610bc057600080fd5b505af1158015610bd4573d6000803e3d6000fd5b505050506040513d601f19601f82011682018060405250810190610bf89190611328565b610c445760405162461bcd60e51b815260206004820152601e60248201527f776974686472617746756e64733a207472616e73666572206661696c656400006044820152606401610543565b6105566108b5565b610c57600033610977565b610c735760405162461bcd60e51b8152600401610543906113e9565b600155565b600082815260208190526040902060010154610c93906104dd565b6105fd5760405162461bcd60e51b815260206004820152603060248201527f416363657373436f6e74726f6c3a2073656e646572206d75737420626520616e60448201526f2061646d696e20746f207265766f6b6560801b6064820152608401610543565b610d1060008051602061148d83398151915233610977565b610d535760405162461bcd60e51b81526020600482015260146024820152736f6e6c794f7261636c653a2062616420726f6c6560601b6044820152606401610543565b610d5c81610f75565b50565b6001600160a01b03828116600090815260066020526040902060010154163314610ddd5760405162461bcd60e51b815260206004820152602960248201527f7570646174654f7261636c6541646d696e3a206f6e6c792063616c6c61626c6560448201526810313c9030b236b4b760b91b6064820152608401610543565b6001600160a01b03918216600090815260066020526040902060010180546001600160a01b03191691909216179055565b610e19600033610977565b610e355760405162461bcd60e51b8152600401610543906113e9565b610ddd60008051602061148d833981519152836104c6565b610e58600033610977565b610e745760405162461bcd60e51b8152600401610543906113e9565b610d5c60008051602061148d83398151915282610c78565b610e968282610977565b610556576000828152602081815260408083206001600160a01b03851684529091529020805460ff19166001179055610ecc3390565b6001600160a01b0316816001600160a01b0316837f2f8788117e7eff1d82e926ec794901d17c78024a50270940304540a733656f0d60405160405180910390a45050565b610f1a8282610977565b15610556576000828152602081815260408083206001600160a01b0385168085529252808320805460ff1916905551339285917ff6391f5c32d9c69d2a47ea670b442974b53935d1edc7fd64eb21e047a839171b9190a45050565b6000818152600760209081526040808320338452600281019092529091205460ff1615610fe45760405162461bcd60e51b815260206004820152601960248201527f7375626d69743a207375626d697474656420616c7265616479000000000000006044820152606401610543565b6001816001016000828254610ff99190611416565b90915550503360009081526002820160205260409020805460ff191660019081179091558054908201541061106e57805460ff191660011781556040517f2a6b4960c287d4d53a338f9c9a9f830f37e7b66e67a0a958f68be89a4eeb939d906110659084815260200190565b60405180910390a15b611077336110b3565b604080518381523360208201527fd4964a7cd99f5c1fa8f2420fb5e1d3bd26eadf16e2658cf2e29a67dfda38601e910160405180910390a15050565b600454600360008282546110c7919061142e565b9091555050600454600280546000906110e1908490611416565b90915550506004546001600160a01b03821660009081526006602052604081208054909190611111908490611416565b909155505050565b80356001600160a01b03811681146104c157600080fd5b600060208284031215611141578081fd5b61114a82611119565b9392505050565b60008060408385031215611163578081fd5b61116c83611119565b915061117a60208401611119565b90509250929050565b600080600060608486031215611197578081fd5b6111a084611119565b92506111ae60208501611119565b9150604084013590509250925092565b600080604083850312156111d0578182fd5b6111d983611119565b946020939093013593505050565b600080600080606085870312156111fc578081fd5b61120585611119565b935060208501359250604085013567ffffffffffffffff80821115611228578283fd5b818701915087601f83011261123b578283fd5b813581811115611249578384fd5b88602082850101111561125a578384fd5b95989497505060200194505050565b6000602080838503121561127b578182fd5b823567ffffffffffffffff80821115611292578384fd5b818501915085601f8301126112a5578384fd5b8135818111156112b7576112b7611476565b838102604051601f19603f830116810181811085821117156112db576112db611476565b604052828152858101935084860182860187018a10156112f9578788fd5b8795505b8386101561131b5780358552600195909501949386019386016112fd565b5098975050505050505050565b600060208284031215611339578081fd5b8151801515811461114a578182fd5b600060208284031215611359578081fd5b5035919050565b60008060408385031215611372578182fd5b8235915061117a60208401611119565b600060208284031215611393578081fd5b81356001600160e01b03198116811461114a578182fd5b6000602082840312156113bb578081fd5b81356001600160801b038116811461114a578182fd5b6000602082840312156113e2578081fd5b5051919050565b6020808252601390820152726f6e6c7941646d696e3a2062616420726f6c6560681b604082015260600190565b6000821982111561142957611429611460565b500190565b60008282101561144057611440611460565b500390565b600060001982141561145957611459611460565b5060010190565b634e487b7160e01b600052601160045260246000fd5b634e487b7160e01b600052604160045260246000fdfe68e79a7bf1e0bc45d0a330c573bc367f9cf464fd326078812f301165fbda4ef1a264697066735822122034e7c8e5db9535a253bb607f35b0116bb79c327d6e49a5dcf89ee0f77d25fe0264736f6c63430008020033",
  "immutableReferences": {},
  "source": "// SPDX-License-Identifier: MIT\r\npragma solidity ^0.8.2;\r\n\r\nimport \"@openzeppelin/contracts/access/AccessControl.sol\";\r\nimport \"@openzeppelin/contracts/token/ERC20/IERC20.sol\";\r\nimport \"./Aggregator.sol\";\r\nimport \"../interfaces/IWhiteFullAggregator.sol\";\r\n\r\ncontract WhiteFullAggregator is Aggregator, IWhiteFullAggregator {\r\n    struct SubmissionInfo {\r\n        bool confirmed; // whether is confirmed\r\n        uint256 confirmations; // received confirmations count\r\n        mapping(address => bool) hasVerified; // verifier => has already voted\r\n    }\r\n\r\n    mapping(bytes32 => SubmissionInfo) public getSubmissionInfo; // mint id => submission info\r\n\r\n    event Confirmed(bytes32 submissionId, address operator); // emitted once the submission is confirmed by one oracle\r\n    event SubmissionApproved(bytes32 submissionId); // emitted once the submission is confirmed by min required aount of oracles\r\n\r\n    /// @dev Constructor that initializes the most important configurations.\r\n    /// @param _minConfirmations Minimal required confirmations.\r\n    /// @param _payment Oracle reward.\r\n    /// @param _link Link token to pay to oracles.\r\n    constructor(\r\n        uint256 _minConfirmations,\r\n        uint128 _payment,\r\n        IERC20 _link\r\n    ) Aggregator(_minConfirmations, _payment, _link) {}\r\n\r\n    /// @dev Confirms few transfer requests.\r\n    /// @param _submissionIds Submission identifiers.\r\n    function submitMany(bytes32[] memory _submissionIds)\r\n        external\r\n        override\r\n        onlyOracle\r\n    {\r\n        for (uint256 i; i < _submissionIds.length; i++) {\r\n            _submit(_submissionIds[i]);\r\n        }\r\n    }\r\n\r\n    /// @dev Confirms the transfer request.\r\n    /// @param _submissionId Submission identifier.\r\n    function submit(bytes32 _submissionId) external override onlyOracle {\r\n        _submit(_submissionId);\r\n    }\r\n\r\n    /// @dev Confirms single transfer request.\r\n    /// @param _submissionId Submission identifier.\r\n    function _submit(bytes32 _submissionId) internal {\r\n        SubmissionInfo storage submissionInfo =\r\n            getSubmissionInfo[_submissionId];\r\n        require(\r\n            !submissionInfo.hasVerified[msg.sender],\r\n            \"submit: submitted already\"\r\n        );\r\n        submissionInfo.confirmations += 1;\r\n        submissionInfo.hasVerified[msg.sender] = true;\r\n        if (submissionInfo.confirmations >= minConfirmations) {\r\n            submissionInfo.confirmed = true;\r\n            emit SubmissionApproved(_submissionId);\r\n        }\r\n        _payOracle(msg.sender);\r\n        emit Confirmed(_submissionId, msg.sender);\r\n    }\r\n\r\n    /// @dev Returns whether transfer request is confirmed.\r\n    /// @param _submissionId Submission identifier.\r\n    /// @return Whether transfer request is confirmed.\r\n    function isSubmissionConfirmed(bytes32 _submissionId)\r\n        external\r\n        view\r\n        override\r\n        returns (bool)\r\n    {\r\n        return\r\n            getSubmissionInfo[_submissionId].confirmed ||\r\n            getSubmissionInfo[_submissionId].confirmations >= minConfirmations;\r\n    }\r\n}\r\n",
  "sourcePath": "D:/Ethereum/Debridge/debridge-contracts-v1/contracts/chainlink/WhiteFullAggregator.sol",
  "compiler": {
    "name": "solc",
    "version": "0.8.2+commit.661d1103.Emscripten.clang"
  },
  "schemaVersion": "3.3.4",
  "updatedAt": "2021-06-15T07:17:29.198Z",
  "devdoc": {
    "kind": "dev",
    "methods": {
      "addOracle(address,address)": {
        "details": "Add new oracle.",
        "params": {
          "_admin": "Admin address.",
          "_oracle": "Oracle address."
        }
      },
      "constructor": {
        "details": "Constructor that initializes the most important configurations.",
        "params": {
          "_link": "Link token to pay to oracles.",
          "_minConfirmations": "Minimal required confirmations.",
          "_payment": "Oracle reward."
        }
      },
      "getRoleAdmin(bytes32)": {
        "details": "Returns the admin role that controls `role`. See {grantRole} and {revokeRole}. To change a role's admin, use {_setRoleAdmin}."
      },
      "getWithdrawable(address)": {
        "details": "Return's oracle reward.",
        "params": {
          "_oracle": "Oracle address."
        },
        "returns": {
          "_0": "Oracle rewards."
        }
      },
      "grantRole(bytes32,address)": {
        "details": "Grants `role` to `account`. If `account` had not been already granted `role`, emits a {RoleGranted} event. Requirements: - the caller must have ``role``'s admin role."
      },
      "hasRole(bytes32,address)": {
        "details": "Returns `true` if `account` has been granted `role`."
      },
      "isSubmissionConfirmed(bytes32)": {
        "details": "Returns whether transfer request is confirmed.",
        "params": {
          "_submissionId": "Submission identifier."
        },
        "returns": {
          "_0": "Whether transfer request is confirmed."
        }
      },
      "onTokenTransfer(address,uint256,bytes)": {
        "details": "Updates link balance.",
        "params": {
          "_data": "Call data."
        }
      },
      "removeOracle(address)": {
        "details": "Remove oracle.",
        "params": {
          "_oracle": "Oracle address."
        }
      },
      "renounceRole(bytes32,address)": {
        "details": "Revokes `role` from the calling account. Roles are often managed via {grantRole} and {revokeRole}: this function's purpose is to provide a mechanism for accounts to lose their privileges if they are compromised (such as when a trusted device is misplaced). If the calling account had been granted `role`, emits a {RoleRevoked} event. Requirements: - the caller must be `account`."
      },
      "revokeRole(bytes32,address)": {
        "details": "Revokes `role` from `account`. If `account` had been granted `role`, emits a {RoleRevoked} event. Requirements: - the caller must have ``role``'s admin role."
      },
      "setMinConfirmations(uint256)": {
        "details": "Sets minimal required confirmations.",
        "params": {
          "_minConfirmations": "Minimal required confirmations."
        }
      },
      "setPayment(uint128)": {
        "details": "Sets new oracle reward.",
        "params": {
          "_payment": "Oracle reward."
        }
      },
      "submit(bytes32)": {
        "details": "Confirms the transfer request.",
        "params": {
          "_submissionId": "Submission identifier."
        }
      },
      "submitMany(bytes32[])": {
        "details": "Confirms few transfer requests.",
        "params": {
          "_submissionIds": "Submission identifiers."
        }
      },
      "supportsInterface(bytes4)": {
        "details": "See {IERC165-supportsInterface}."
      },
      "updateAvailableFunds()": {
        "details": "Updates available rewards to be distributed."
      },
      "updateOracleAddress(address,address)": {
        "details": "Updates oracle's address.",
        "params": {
          "_newOracle": "New oracle address.",
          "_oracle": "Oracle address."
        }
      },
      "updateOracleAdmin(address,address)": {
        "details": "Updates oracle's admin address.",
        "params": {
          "_newOracleAdmin": "New oracle address.",
          "_oracle": "Oracle address."
        }
      },
      "withdrawFunds(address,uint256)": {
        "details": "Withdraws earned LINK's.",
        "params": {
          "_amount": "Amount to withdraw.",
          "_recipient": "Reward's recepient."
        }
      },
      "withdrawPayment(address,address,uint256)": {
        "details": "Withdraws oracle reward.",
        "params": {
          "_amount": "Amount to withdraw.",
          "_oracle": "Oracle address.",
          "_recipient": "Recepient reward."
        }
      }
    },
    "version": 1
  },
  "userdoc": {
    "kind": "user",
    "methods": {},
    "version": 1
  }
}