{
  "contractName": "WhiteLightDebridge",
  "abi": [
    {
      "anonymous": false,
      "inputs": [
        {
          "indexed": false,
          "internalType": "bytes32",
          "name": "submissionId",
          "type": "bytes32"
        },
        {
          "indexed": false,
          "internalType": "bytes32",
          "name": "debridgeId",
          "type": "bytes32"
        },
        {
          "indexed": false,
          "internalType": "uint256",
          "name": "amount",
          "type": "uint256"
        },
        {
          "indexed": false,
          "internalType": "address",
          "name": "receiver",
          "type": "address"
        },
        {
          "indexed": false,
          "internalType": "uint256",
          "name": "nonce",
          "type": "uint256"
        },
        {
          "indexed": false,
          "internalType": "uint256",
          "name": "chainIdTo",
          "type": "uint256"
        }
      ],
      "name": "Burnt",
      "type": "event"
    },
    {
      "anonymous": false,
      "inputs": [
        {
          "indexed": true,
          "internalType": "bytes32",
          "name": "debridgeId",
          "type": "bytes32"
        },
        {
          "indexed": true,
          "internalType": "uint256",
          "name": "chainId",
          "type": "uint256"
        }
      ],
      "name": "ChainSupportAdded",
      "type": "event"
    },
    {
      "anonymous": false,
      "inputs": [
        {
          "indexed": true,
          "internalType": "bytes32",
          "name": "debridgeId",
          "type": "bytes32"
        },
        {
          "indexed": true,
          "internalType": "uint256",
          "name": "chainId",
          "type": "uint256"
        }
      ],
      "name": "ChainSupportRemoved",
      "type": "event"
    },
    {
      "anonymous": false,
      "inputs": [
        {
          "indexed": false,
          "internalType": "bytes32",
          "name": "submissionId",
          "type": "bytes32"
        },
        {
          "indexed": false,
          "internalType": "uint256",
          "name": "amount",
          "type": "uint256"
        },
        {
          "indexed": false,
          "internalType": "address",
          "name": "receiver",
          "type": "address"
        },
        {
          "indexed": false,
          "internalType": "bytes32",
          "name": "debridgeId",
          "type": "bytes32"
        }
      ],
      "name": "Claimed",
      "type": "event"
    },
    {
      "anonymous": false,
      "inputs": [
        {
          "indexed": false,
          "internalType": "bytes32",
          "name": "submissionId",
          "type": "bytes32"
        },
        {
          "indexed": false,
          "internalType": "uint256",
          "name": "amount",
          "type": "uint256"
        },
        {
          "indexed": false,
          "internalType": "address",
          "name": "receiver",
          "type": "address"
        },
        {
          "indexed": false,
          "internalType": "bytes32",
          "name": "debridgeId",
          "type": "bytes32"
        }
      ],
      "name": "Minted",
      "type": "event"
    },
    {
      "anonymous": false,
      "inputs": [
        {
          "indexed": true,
          "internalType": "bytes32",
          "name": "debridgeId",
          "type": "bytes32"
        },
        {
          "indexed": true,
          "internalType": "address",
          "name": "tokenAddress",
          "type": "address"
        },
        {
          "indexed": true,
          "internalType": "uint256",
          "name": "chainId",
          "type": "uint256"
        },
        {
          "indexed": false,
          "internalType": "uint256",
          "name": "minAmount",
          "type": "uint256"
        },
        {
          "indexed": false,
          "internalType": "uint256",
          "name": "transferFee",
          "type": "uint256"
        },
        {
          "indexed": false,
          "internalType": "uint256",
          "name": "minReserves",
          "type": "uint256"
        }
      ],
      "name": "PairAdded",
      "type": "event"
    },
    {
      "anonymous": false,
      "inputs": [
        {
          "indexed": true,
          "internalType": "bytes32",
          "name": "role",
          "type": "bytes32"
        },
        {
          "indexed": true,
          "internalType": "bytes32",
          "name": "previousAdminRole",
          "type": "bytes32"
        },
        {
          "indexed": true,
          "internalType": "bytes32",
          "name": "newAdminRole",
          "type": "bytes32"
        }
      ],
      "name": "RoleAdminChanged",
      "type": "event"
    },
    {
      "anonymous": false,
      "inputs": [
        {
          "indexed": true,
          "internalType": "bytes32",
          "name": "role",
          "type": "bytes32"
        },
        {
          "indexed": true,
          "internalType": "address",
          "name": "account",
          "type": "address"
        },
        {
          "indexed": true,
          "internalType": "address",
          "name": "sender",
          "type": "address"
        }
      ],
      "name": "RoleGranted",
      "type": "event"
    },
    {
      "anonymous": false,
      "inputs": [
        {
          "indexed": true,
          "internalType": "bytes32",
          "name": "role",
          "type": "bytes32"
        },
        {
          "indexed": true,
          "internalType": "address",
          "name": "account",
          "type": "address"
        },
        {
          "indexed": true,
          "internalType": "address",
          "name": "sender",
          "type": "address"
        }
      ],
      "name": "RoleRevoked",
      "type": "event"
    },
    {
      "anonymous": false,
      "inputs": [
        {
          "indexed": false,
          "internalType": "bytes32",
          "name": "submissionId",
          "type": "bytes32"
        },
        {
          "indexed": false,
          "internalType": "bytes32",
          "name": "debridgeId",
          "type": "bytes32"
        },
        {
          "indexed": false,
          "internalType": "uint256",
          "name": "amount",
          "type": "uint256"
        },
        {
          "indexed": false,
          "internalType": "address",
          "name": "receiver",
          "type": "address"
        },
        {
          "indexed": false,
          "internalType": "uint256",
          "name": "nonce",
          "type": "uint256"
        },
        {
          "indexed": false,
          "internalType": "uint256",
          "name": "chainIdTo",
          "type": "uint256"
        }
      ],
      "name": "Sent",
      "type": "event"
    },
    {
      "inputs": [],
      "name": "DEFAULT_ADMIN_ROLE",
      "outputs": [
        {
          "internalType": "bytes32",
          "name": "",
          "type": "bytes32"
        }
      ],
      "stateMutability": "view",
      "type": "function",
      "constant": true
    },
    {
      "inputs": [],
      "name": "DENOMINATOR",
      "outputs": [
        {
          "internalType": "uint256",
          "name": "",
          "type": "uint256"
        }
      ],
      "stateMutability": "view",
      "type": "function",
      "constant": true
    },
    {
      "inputs": [
        {
          "internalType": "address",
          "name": "_tokenAddress",
          "type": "address"
        },
        {
          "internalType": "address",
          "name": "_wrappedAssetAddress",
          "type": "address"
        },
        {
          "internalType": "uint256",
          "name": "_chainId",
          "type": "uint256"
        },
        {
          "internalType": "uint256",
          "name": "_minAmount",
          "type": "uint256"
        },
        {
          "internalType": "uint256",
          "name": "_transferFee",
          "type": "uint256"
        },
        {
          "internalType": "uint256",
          "name": "_minReserves",
          "type": "uint256"
        },
        {
          "internalType": "uint256[]",
          "name": "_supportedChainIds",
          "type": "uint256[]"
        }
      ],
      "name": "addExternalAsset",
      "outputs": [],
      "stateMutability": "nonpayable",
      "type": "function"
    },
    {
      "inputs": [
        {
          "internalType": "address",
          "name": "_tokenAddress",
          "type": "address"
        },
        {
          "internalType": "uint256",
          "name": "_minAmount",
          "type": "uint256"
        },
        {
          "internalType": "uint256",
          "name": "_transferFee",
          "type": "uint256"
        },
        {
          "internalType": "uint256",
          "name": "_minReserves",
          "type": "uint256"
        },
        {
          "internalType": "uint256[]",
          "name": "_supportedChainIds",
          "type": "uint256[]"
        }
      ],
      "name": "addNativeAsset",
      "outputs": [],
      "stateMutability": "nonpayable",
      "type": "function"
    },
    {
      "inputs": [],
      "name": "aggregator",
      "outputs": [
        {
          "internalType": "address",
          "name": "",
          "type": "address"
        }
      ],
      "stateMutability": "view",
      "type": "function",
      "constant": true
    },
    {
      "inputs": [],
      "name": "aggregatorAddr",
      "outputs": [
        {
          "internalType": "address",
          "name": "",
          "type": "address"
        }
      ],
      "stateMutability": "view",
      "type": "function",
      "constant": true
    },
    {
      "inputs": [
        {
          "internalType": "bytes32",
          "name": "_debridgeId",
          "type": "bytes32"
        },
        {
          "internalType": "address",
          "name": "_receiver",
          "type": "address"
        },
        {
          "internalType": "uint256",
          "name": "_amount",
          "type": "uint256"
        }
      ],
      "name": "burn",
      "outputs": [],
      "stateMutability": "nonpayable",
      "type": "function"
    },
    {
      "inputs": [],
      "name": "chainId",
      "outputs": [
        {
          "internalType": "uint256",
          "name": "",
          "type": "uint256"
        }
      ],
      "stateMutability": "view",
      "type": "function",
      "constant": true
    },
    {
      "inputs": [],
      "name": "defiController",
      "outputs": [
        {
          "internalType": "contract IDefiController",
          "name": "",
          "type": "address"
        }
      ],
      "stateMutability": "view",
      "type": "function",
      "constant": true
    },
    {
      "inputs": [
        {
          "internalType": "address",
          "name": "_tokenAddress",
          "type": "address"
        }
      ],
      "name": "getBalance",
      "outputs": [
        {
          "internalType": "uint256",
          "name": "",
          "type": "uint256"
        }
      ],
      "stateMutability": "view",
      "type": "function",
      "constant": true
    },
    {
      "inputs": [
        {
          "internalType": "bytes32",
          "name": "",
          "type": "bytes32"
        }
      ],
      "name": "getDebridge",
      "outputs": [
        {
          "internalType": "address",
          "name": "tokenAddress",
          "type": "address"
        },
        {
          "internalType": "uint256",
          "name": "chainId",
          "type": "uint256"
        },
        {
          "internalType": "uint256",
          "name": "minAmount",
          "type": "uint256"
        },
        {
          "internalType": "uint256",
          "name": "transferFee",
          "type": "uint256"
        },
        {
          "internalType": "uint256",
          "name": "collectedFees",
          "type": "uint256"
        },
        {
          "internalType": "uint256",
          "name": "balance",
          "type": "uint256"
        },
        {
          "internalType": "uint256",
          "name": "minReserves",
          "type": "uint256"
        }
      ],
      "stateMutability": "view",
      "type": "function",
      "constant": true
    },
    {
      "inputs": [
        {
          "internalType": "uint256",
          "name": "_chainId",
          "type": "uint256"
        },
        {
          "internalType": "address",
          "name": "_tokenAddress",
          "type": "address"
        }
      ],
      "name": "getDebridgeId",
      "outputs": [
        {
          "internalType": "bytes32",
          "name": "",
          "type": "bytes32"
        }
      ],
      "stateMutability": "pure",
      "type": "function",
      "constant": true
    },
    {
      "inputs": [
        {
          "internalType": "bytes32",
          "name": "role",
          "type": "bytes32"
        }
      ],
      "name": "getRoleAdmin",
      "outputs": [
        {
          "internalType": "bytes32",
          "name": "",
          "type": "bytes32"
        }
      ],
      "stateMutability": "view",
      "type": "function",
      "constant": true
    },
    {
      "inputs": [
        {
          "internalType": "bytes32",
          "name": "_debridgeId",
          "type": "bytes32"
        },
        {
          "internalType": "uint256",
          "name": "_amount",
          "type": "uint256"
        },
        {
          "internalType": "address",
          "name": "_receiver",
          "type": "address"
        },
        {
          "internalType": "uint256",
          "name": "_nonce",
          "type": "uint256"
        }
      ],
      "name": "getSubmisionId",
      "outputs": [
        {
          "internalType": "bytes32",
          "name": "",
          "type": "bytes32"
        }
      ],
      "stateMutability": "pure",
      "type": "function",
      "constant": true
    },
    {
      "inputs": [
        {
          "internalType": "bytes32",
          "name": "_debridgeId",
          "type": "bytes32"
        }
      ],
      "name": "getSupportedChainIds",
      "outputs": [
        {
          "internalType": "uint256[]",
          "name": "",
          "type": "uint256[]"
        }
      ],
      "stateMutability": "view",
      "type": "function",
      "constant": true
    },
    {
      "inputs": [
        {
          "internalType": "address",
          "name": "",
          "type": "address"
        }
      ],
      "name": "getUserNonce",
      "outputs": [
        {
          "internalType": "uint256",
          "name": "",
          "type": "uint256"
        }
      ],
      "stateMutability": "view",
      "type": "function",
      "constant": true
    },
    {
      "inputs": [
        {
          "internalType": "bytes32",
          "name": "role",
          "type": "bytes32"
        },
        {
          "internalType": "address",
          "name": "account",
          "type": "address"
        }
      ],
      "name": "grantRole",
      "outputs": [],
      "stateMutability": "nonpayable",
      "type": "function"
    },
    {
      "inputs": [
        {
          "internalType": "bytes32",
          "name": "role",
          "type": "bytes32"
        },
        {
          "internalType": "address",
          "name": "account",
          "type": "address"
        }
      ],
      "name": "hasRole",
      "outputs": [
        {
          "internalType": "bool",
          "name": "",
          "type": "bool"
        }
      ],
      "stateMutability": "view",
      "type": "function",
      "constant": true
    },
    {
      "inputs": [
        {
          "internalType": "bytes32",
          "name": "",
          "type": "bytes32"
        }
      ],
      "name": "isSubmissionUsed",
      "outputs": [
        {
          "internalType": "bool",
          "name": "",
          "type": "bool"
        }
      ],
      "stateMutability": "view",
      "type": "function",
      "constant": true
    },
    {
      "inputs": [
        {
          "internalType": "bytes32",
          "name": "role",
          "type": "bytes32"
        },
        {
          "internalType": "address",
          "name": "account",
          "type": "address"
        }
      ],
      "name": "renounceRole",
      "outputs": [],
      "stateMutability": "nonpayable",
      "type": "function"
    },
    {
      "inputs": [
        {
          "internalType": "address",
          "name": "_tokenAddress",
          "type": "address"
        },
        {
          "internalType": "uint256",
          "name": "_amount",
          "type": "uint256"
        }
      ],
      "name": "requestReserves",
      "outputs": [],
      "stateMutability": "nonpayable",
      "type": "function"
    },
    {
      "inputs": [
        {
          "internalType": "address",
          "name": "_tokenAddress",
          "type": "address"
        },
        {
          "internalType": "uint256",
          "name": "_amount",
          "type": "uint256"
        }
      ],
      "name": "returnReserves",
      "outputs": [],
      "stateMutability": "payable",
      "type": "function",
      "payable": true
    },
    {
      "inputs": [
        {
          "internalType": "bytes32",
          "name": "role",
          "type": "bytes32"
        },
        {
          "internalType": "address",
          "name": "account",
          "type": "address"
        }
      ],
      "name": "revokeRole",
      "outputs": [],
      "stateMutability": "nonpayable",
      "type": "function"
    },
    {
      "inputs": [
        {
          "internalType": "bytes32",
          "name": "_debridgeId",
          "type": "bytes32"
        },
        {
          "internalType": "address",
          "name": "_receiver",
          "type": "address"
        },
        {
          "internalType": "uint256",
          "name": "_amount",
          "type": "uint256"
        },
        {
          "internalType": "uint256",
          "name": "_chainIdTo",
          "type": "uint256"
        }
      ],
      "name": "send",
      "outputs": [],
      "stateMutability": "payable",
      "type": "function",
      "payable": true
    },
    {
      "inputs": [
        {
          "internalType": "address",
          "name": "_aggregator",
          "type": "address"
        }
      ],
      "name": "setAggregator",
      "outputs": [],
      "stateMutability": "nonpayable",
      "type": "function"
    },
    {
      "inputs": [
        {
          "internalType": "bytes32",
          "name": "_debridgeId",
          "type": "bytes32"
        },
        {
          "internalType": "uint256",
          "name": "_chainId",
          "type": "uint256"
        },
        {
          "internalType": "bool",
          "name": "_isSupported",
          "type": "bool"
        }
      ],
      "name": "setChainIdSupport",
      "outputs": [],
      "stateMutability": "nonpayable",
      "type": "function"
    },
    {
      "inputs": [
        {
          "internalType": "contract IDefiController",
          "name": "_defiController",
          "type": "address"
        }
      ],
      "name": "setDefiController",
      "outputs": [],
      "stateMutability": "nonpayable",
      "type": "function"
    },
    {
      "inputs": [
        {
          "internalType": "bytes4",
          "name": "interfaceId",
          "type": "bytes4"
        }
      ],
      "name": "supportsInterface",
      "outputs": [
        {
          "internalType": "bool",
          "name": "",
          "type": "bool"
        }
      ],
      "stateMutability": "view",
      "type": "function",
      "constant": true
    },
    {
      "inputs": [
        {
          "internalType": "bytes32",
          "name": "_debridgeId",
          "type": "bytes32"
        },
        {
          "internalType": "uint256",
          "name": "_minAmount",
          "type": "uint256"
        },
        {
          "internalType": "uint256",
          "name": "_transferFee",
          "type": "uint256"
        },
        {
          "internalType": "uint256",
          "name": "_minReserves",
          "type": "uint256"
        }
      ],
      "name": "updateAsset",
      "outputs": [],
      "stateMutability": "nonpayable",
      "type": "function"
    },
    {
      "inputs": [
        {
          "internalType": "bytes32",
          "name": "_debridgeId",
          "type": "bytes32"
        },
        {
          "internalType": "address",
          "name": "_receiver",
          "type": "address"
        },
        {
          "internalType": "uint256",
          "name": "_amount",
          "type": "uint256"
        }
      ],
      "name": "withdrawFee",
      "outputs": [],
      "stateMutability": "nonpayable",
      "type": "function"
    },
    {
      "inputs": [
        {
          "internalType": "uint256",
          "name": "_minAmount",
          "type": "uint256"
        },
        {
          "internalType": "uint256",
          "name": "_transferFee",
          "type": "uint256"
        },
        {
          "internalType": "uint256",
          "name": "_minReserves",
          "type": "uint256"
        },
        {
          "internalType": "address",
          "name": "_aggregator",
          "type": "address"
        },
        {
          "internalType": "uint256[]",
          "name": "_supportedChainIds",
          "type": "uint256[]"
        },
        {
          "internalType": "contract IDefiController",
          "name": "_defiController",
          "type": "address"
        }
      ],
      "name": "initialize",
      "outputs": [],
      "stateMutability": "payable",
      "type": "function",
      "payable": true
    },
    {
      "inputs": [
        {
          "internalType": "bytes32",
          "name": "_debridgeId",
          "type": "bytes32"
        },
        {
          "internalType": "address",
          "name": "_receiver",
          "type": "address"
        },
        {
          "internalType": "uint256",
          "name": "_amount",
          "type": "uint256"
        },
        {
          "internalType": "uint256",
          "name": "_nonce",
          "type": "uint256"
        },
        {
          "internalType": "bytes[2][]",
          "name": "_trxData",
          "type": "bytes[2][]"
        }
      ],
      "name": "mint",
      "outputs": [],
      "stateMutability": "nonpayable",
      "type": "function"
    },
    {
      "inputs": [
        {
          "internalType": "bytes32",
          "name": "_debridgeId",
          "type": "bytes32"
        },
        {
          "internalType": "address",
          "name": "_receiver",
          "type": "address"
        },
        {
          "internalType": "uint256",
          "name": "_amount",
          "type": "uint256"
        },
        {
          "internalType": "uint256",
          "name": "_nonce",
          "type": "uint256"
        },
        {
          "internalType": "bytes[2][]",
          "name": "_trxData",
          "type": "bytes[2][]"
        }
      ],
      "name": "claim",
      "outputs": [],
      "stateMutability": "nonpayable",
      "type": "function"
    }
  ],
  "bytecode": "0x608060405234801561001057600080fd5b506128ec806100206000396000f3fe6080604052600436106101ee5760003560e01c8063827626001161010d578063b41eced5116100a0578063d547741f1161006f578063d547741f14610639578063e82637f614610659578063f30de9b014610679578063f8b2cb4f1461068c578063f9120af6146106ac576101ee565b8063b41eced5146105b9578063bc23a2c0146105d9578063be7f2184146105f9578063ce4aa24714610619576101ee565b806391d14854116100dc57806391d148541461054e5780639682b9091461056e5780639a8a05921461058e578063a217fddf146105a4576101ee565b806382762600146104c557806383d3f95d146104e55780638a2034cc14610505578063918f867414610532576101ee565b806336568abe116101855780635fe582b5116101545780635fe582b51461043557806365ac9f78146104555780636834e3a8146104855780636b063d65146104b2576101ee565b806336568abe146103335780633bd477211461035357806346144c8f1461037357806357cf07ca14610393576101ee565b8063245a7bfc116101c1578063245a7bfc1461027d578063248a9ca3146102b55780632f2ff15d146102f3578063346a907414610313576101ee565b806301ffc9a7146101f3578063031ac613146102285780630a0e5e9a1461023d578063106f432f1461025d575b600080fd5b3480156101ff57600080fd5b5061021361020e36600461251c565b6106cc565b60405190151581526020015b60405180910390f35b61023b61023636600461239b565b610705565b005b34801561024957600080fd5b5061023b6102583660046124b3565b6109aa565b34801561026957600080fd5b5061023b6102783660046121c8565b610a6a565b34801561028957600080fd5b5060035461029d906001600160a01b031681565b6040516001600160a01b03909116815260200161021f565b3480156102c157600080fd5b506102e56102d036600461231d565b60009081526020819052604090206001015490565b60405190815260200161021f565b3480156102ff57600080fd5b5061023b61030e366004612335565b610ab3565b34801561031f57600080fd5b5061023b61032e366004612364565b610b42565b34801561033f57600080fd5b5061023b61034e366004612335565b610d8b565b34801561035f57600080fd5b5061023b61036e3660046124eb565b610e05565b34801561037f57600080fd5b5060045461029d906001600160a01b031681565b34801561039f57600080fd5b506103f66103ae36600461231d565b600560208190526000918252604090912080546001820154600283015460038401546004850154958501546006909501546001600160a01b0390941695929491939092919087565b604080516001600160a01b0390981688526020880196909652948601939093526060850191909152608084015260a083015260c082015260e00161021f565b34801561044157600080fd5b5061023b6104503660046123d7565b610e4e565b34801561046157600080fd5b5061021361047036600461231d565b60066020526000908152604090205460ff1681565b34801561049157600080fd5b506102e56104a03660046121c8565b60076020526000908152604090205481565b61023b6104c036600461226b565b610f3a565b3480156104d157600080fd5b5060085461029d906001600160a01b031681565b3480156104f157600080fd5b5061023b610500366004612364565b610fdc565b34801561051157600080fd5b5061052561052036600461231d565b611134565b60405161021f9190612620565b34801561053e57600080fd5b506102e5670de0b6b3a764000081565b34801561055a57600080fd5b50610213610569366004612335565b611199565b34801561057a57600080fd5b506102e5610589366004612335565b6111c2565b34801561059a57600080fd5b506102e560025481565b3480156105b057600080fd5b506102e5600081565b3480156105c557600080fd5b5061023b6105d43660046123d7565b611210565b3480156105e557600080fd5b506102e56105f4366004612475565b6112f4565b34801561060557600080fd5b5061023b61061436600461226b565b61134a565b34801561062557600080fd5b5061023b6106343660046121e4565b6114da565b34801561064557600080fd5b5061023b610654366004612335565b611528565b34801561066557600080fd5b5061023b610674366004612296565b6115a8565b61023b61068736600461255c565b6115f0565b34801561069857600080fd5b506102e56106a73660046121c8565b6116be565b3480156106b857600080fd5b5061023b6106c73660046121c8565b611753565b60006001600160e01b03198216637965db0b60e01b14806106fd57506301ffc9a760e01b6001600160e01b03198316145b90505b919050565b60008481526005602052604090206002546001820154146107665760405162461bcd60e51b815260206004820152601660248201527539b2b7321d103737ba103730ba34bb329031b430b4b760511b60448201526064015b60405180910390fd5b600082815260088201602052604090205460ff166107c65760405162461bcd60e51b815260206004820152601860248201527f73656e643a2077726f6e672074617267656420636861696e0000000000000000604482015260640161075d565b80600201548310156108115760405162461bcd60e51b815260206004820152601460248201527373656e643a20616d6f756e7420746f6f206c6f7760601b604482015260640161075d565b80546001600160a01b031661086c573483146108675760405162461bcd60e51b81526020600482015260156024820152740e6cadcc87440c2dadeeadce840dad2e6dac2e8c6d605b1b604482015260640161075d565b610883565b8054610883906001600160a01b031633308661179c565b6000670de0b6b3a764000082600301548561089e91906127e7565b6108a891906127c7565b905080156108d757808260040160008282546108c491906127af565b909155506108d490508185612806565b93505b838260050160008282546108eb91906127af565b90915550506001600160a01b03851660009081526007602052604081205490610916888789856112f4565b60408051828152602081018b90529081018890526001600160a01b03891660608201526080810184905260a081018790529091507f17c61cb89b62a3f29f5b150e3489c7a796ac4dc95fd73af14faa2c8086a324b49060c00160405180910390a16001600160a01b038716600090815260076020526040812080549161099b83612849565b91905055505050505050505050565b6109b5600033611199565b6109d15760405162461bcd60e51b815260040161075d90612782565b600083815260056020908152604080832085845260088101909252909120805460ff19168315801591909117909155610a3657604051839085907fdd4dbf80f57aa5115a1e07abb36e4de565879d4de5bd15b3803d666fe1d8486390600090a3610a64565b604051839085907f86c512831f7a2aad3f56b4169c161be1028776ab950c72e26237a0310ded560690600090a35b50505050565b610a75600033611199565b610a915760405162461bcd60e51b815260040161075d90612782565b600480546001600160a01b0319166001600160a01b0392909216919091179055565b600082815260208190526040902060010154610ad0905b33610569565b610b345760405162461bcd60e51b815260206004820152602f60248201527f416363657373436f6e74726f6c3a2073656e646572206d75737420626520616e60448201526e0818591b5a5b881d1bc819dc985b9d608a1b606482015260840161075d565b610b3e8282611807565b5050565b600083815260056020526040902060025460018201541415610b9b5760405162461bcd60e51b8152602060048201526012602482015271189d5c9b8e881b985d1a5d9948185cdcd95d60721b604482015260640161075d565b8060020154821015610be65760405162461bcd60e51b81526020600482015260146024820152736275726e3a20616d6f756e7420746f6f206c6f7760601b604482015260640161075d565b80546040516323b872dd60e01b8152336004820152306024820152604481018490526001600160a01b039091169081906323b872dd90606401602060405180830381600087803b158015610c3957600080fd5b505af1158015610c4d573d6000803e3d6000fd5b505050506040513d601f19601f82011682018060405250810190610c719190612301565b50604051630852cd8d60e31b8152600481018490526001600160a01b038216906342966c6890602401600060405180830381600087803b158015610cb457600080fd5b505af1158015610cc8573d6000803e3d6000fd5b5050506001600160a01b0385166000908152600760205260408120549150610cf2878688856112f4565b600185015460408051838152602081018b90529081018890526001600160a01b03891660608201526080810185905260a08101919091529091507fb8cc5195d548dc2781227c496b92d3736cd56d7f32b28971c9ae1e9eb0badf959060c00160405180910390a16001600160a01b0386166000908152600760205260408120805491610d7d83612849565b919050555050505050505050565b6001600160a01b0381163314610dfb5760405162461bcd60e51b815260206004820152602f60248201527f416363657373436f6e74726f6c3a2063616e206f6e6c792072656e6f756e636560448201526e103937b632b9903337b91039b2b63360891b606482015260840161075d565b610b3e828261188b565b610e10600033611199565b610e2c5760405162461bcd60e51b815260040161075d90612782565b6000938452600560205260409093206002810192909255600382015560060155565b6000610e5c878688876112f4565b60035460405163578d837760e01b81529192506001600160a01b03169063578d837790610e9190849087908790600401612664565b602060405180830381600087803b158015610eab57600080fd5b505af1158015610ebf573d6000803e3d6000fd5b505050506040513d601f19601f82011682018060405250810190610ee39190612301565b610f255760405162461bcd60e51b81526020600482015260136024820152721b5a5b9d0e881b9bdd0818dbdb999a5c9b5959606a1b604482015260640161075d565b610f31818888886118f0565b50505050505050565b6004546001600160a01b03163314610f8f5760405162461bcd60e51b815260206004820152601860248201527764656669436f6e74726f6c6c65723a2062616420726f6c6560401b604482015260640161075d565b6000610f9d600254846111c2565b60008181526005602052604090208054919250906001600160a01b031615610a64576004548154610a64916001600160a01b039182169116308661179c565b610fe7600033611199565b6110035760405162461bcd60e51b815260040161075d90612782565b60008381526005602052604090206002546001820154146110665760405162461bcd60e51b815260206004820152601f60248201527f77697468647261774665653a2077726f6e672074617267657420636861696e00604482015260640161075d565b81816004015410156110ba5760405162461bcd60e51b815260206004820152601b60248201527f77697468647261774665653a206e6f7420656e6f756768206665650000000000604482015260640161075d565b818160040160008282546110ce9190612806565b909155505080546001600160a01b031661111e576040516001600160a01b0384169083156108fc029084906000818181858888f19350505050158015611118573d6000803e3d6000fd5b50610a64565b8054610a64906001600160a01b03168484611a2a565b60008181526005602090815260409182902060070180548351818402810184019094528084526060939283018282801561118d57602002820191906000526020600020905b815481526020019060010190808311611179575b50505050509050919050565b6000918252602082815260408084206001600160a01b0393909316845291905290205460ff1690565b600082826040516020016111f292919091825260601b6bffffffffffffffffffffffff1916602082015260340190565b60405160208183030381529060405280519060200120905092915050565b600061121e878688876112f4565b600354604051634a41e6d960e01b81529192506001600160a01b031690634a41e6d99061125390849087908790600401612664565b602060405180830381600087803b15801561126d57600080fd5b505af1158015611281573d6000803e3d6000fd5b505050506040513d601f19601f820116820180604052508101906112a59190612301565b6112e85760405162461bcd60e51b815260206004820152601460248201527318db185a5b4e881b9bdd0818dbdb999a5c9b595960621b604482015260640161075d565b610f3181888888611a5f565b6040805160208101869052908101849052606083811b6bffffffffffffffffffffffff19169082015260748101829052600090609401604051602081830303815290604052805190602001209050949350505050565b6004546001600160a01b0316331461139f5760405162461bcd60e51b815260206004820152601860248201527764656669436f6e74726f6c6c65723a2062616420726f6c6560401b604482015260640161075d565b60006113ad600254846111c2565b6000818152600560208190526040822060068101549181015493945092670de0b6b3a7640000916113dd916127e7565b6113e791906127c7565b8254909150600090611401906001600160a01b03166116be565b90508061140e86846127af565b116114675760405162461bcd60e51b8152602060048201526024808201527f7265717565737452657365727665733a206e6f7420656e6f75676820726573656044820152637276657360e01b606482015260840161075d565b82546001600160a01b03166114b6576004546040516001600160a01b039091169086156108fc029087906000818181858888f193505050501580156114b0573d6000803e3d6000fd5b506114d2565b60045483546114d2916001600160a01b03918216911687611a2a565b505050505050565b6114e5600033611199565b6115015760405162461bcd60e51b815260040161075d90612782565b600061150d86896111c2565b905061151e81888888888888611c5d565b5050505050505050565b60008281526020819052604090206001015461154390610aca565b610dfb5760405162461bcd60e51b815260206004820152603060248201527f416363657373436f6e74726f6c3a2073656e646572206d75737420626520616e60448201526f2061646d696e20746f207265766f6b6560801b606482015260840161075d565b6115b3600033611199565b6115cf5760405162461bcd60e51b815260040161075d90612782565b60006115dd600254876111c2565b90506114d2818760025488888888611c5d565b600154610100900460ff1680611609575060015460ff16155b61166c5760405162461bcd60e51b815260206004820152602e60248201527f496e697469616c697a61626c653a20636f6e747261637420697320616c72656160448201526d191e481a5b9a5d1a585b1a5e995960921b606482015260840161075d565b600154610100900460ff16158015611696576001805460ff1961ff00199091166101001716811790555b6116a4878787878787611da7565b8015610f31576001805461ff001916905550505050505050565b60006001600160a01b0382166116d5575047610700565b6040516370a0823160e01b81523060048201526001600160a01b038316906370a082319060240160206040518083038186803b15801561171457600080fd5b505afa158015611728573d6000803e3d6000fd5b505050506040513d601f19601f8201168201806040525081019061174c9190612544565b9050610700565b61175e600033611199565b61177a5760405162461bcd60e51b815260040161075d90612782565b600380546001600160a01b0319166001600160a01b0392909216919091179055565b6040516001600160a01b0380851660248301528316604482015260648101829052610a649085906323b872dd60e01b906084015b60408051601f198184030181529190526020810180516001600160e01b03166001600160e01b031990931692909217909152611dfe565b6118118282611199565b610b3e576000828152602081815260408083206001600160a01b03851684529091529020805460ff191660011790556118473390565b6001600160a01b0316816001600160a01b0316837f2f8788117e7eff1d82e926ec794901d17c78024a50270940304540a733656f0d60405160405180910390a45050565b6118958282611199565b15610b3e576000828152602081815260408083206001600160a01b0385168085529252808320805460ff1916905551339285917ff6391f5c32d9c69d2a47ea670b442974b53935d1edc7fd64eb21e047a839171b9190a45050565b60008481526006602052604090205460ff16156119445760405162461bcd60e51b81526020600482015260126024820152711b5a5b9d0e88185b1c9958591e481d5cd95960721b604482015260640161075d565b6000838152600560209081526040808320878452600690925291829020805460ff19166001179055805491516340c10f1960e01b81526001600160a01b03858116600483015260248201859052919291909116906340c10f1990604401600060405180830381600087803b1580156119bb57600080fd5b505af11580156119cf573d6000803e3d6000fd5b505060408051888152602081018690526001600160a01b038716818301526060810188905290517f5918a95fd00afb5898499bd5beade1619e98655d2b4ff6e0f6a4347f0a69c1279350908190036080019150a15050505050565b6040516001600160a01b038316602482015260448101829052611a5a90849063a9059cbb60e01b906064016117d0565b505050565b6000838152600560205260409020600254600182015414611ac25760405162461bcd60e51b815260206004820152601960248201527f636c61696d3a2077726f6e672074617267657420636861696e00000000000000604482015260640161075d565b60008581526006602052604090205460ff1615611b175760405162461bcd60e51b815260206004820152601360248201527218db185a5b4e88185b1c9958591e481d5cd959606a1b604482015260640161075d565b6000858152600660205260408120805460ff191660011790556003820154670de0b6b3a764000090611b4990856127e7565b611b5391906127c7565b905082826005016000828254611b699190612806565b90915550508015611b9b5780826004016000828254611b8891906127af565b90915550611b9890508184612806565b92505b611ba58284611ed0565b81546001600160a01b0316611bf0576040516001600160a01b0385169084156108fc029085906000818181858888f19350505050158015611bea573d6000803e3d6000fd5b50611c06565b8154611c06906001600160a01b03168585611a2a565b60408051878152602081018590526001600160a01b038616818301526060810187905290517fabe3bed2a8590dd123c1a018888bce6142d526741bed65dfe570fb223525c6a49181900360800190a1505050505050565b600087815260056020526040812080546001600160a01b0319166001600160a01b0389161781556001810187905560028101869055600381018590556006810184905590805b8351811015611d4b57838181518110611ccc57634e487b7160e01b600052603260045260246000fd5b60209081029190910181015160008181526008860183526040808220805460ff1916600190811790915560078801805491820181558352938220909301829055915190935083918c917fdd4dbf80f57aa5115a1e07abb36e4de565879d4de5bd15b3803d666fe1d848639190a380611d4381612849565b915050611ca3565b50604080518781526020810187905290810185905287906001600160a01b038a16908b907ff6f4e2b9c6425dc5e0ebbec27bfdc06bece97c248400c189c656fe08259cd4659060600160405180910390a4505050505050505050565b4660028190556000611db982826111c2565b9050611dcd8160006002548b8b8b8a611c5d565b600380546001600160a01b0319166001600160a01b038781169190911790915560045416925061151e600033610b34565b6000611e53826040518060400160405280602081526020017f5361666545524332303a206c6f772d6c6576656c2063616c6c206661696c6564815250856001600160a01b0316611fb19092919063ffffffff16565b805190915015611a5a5780806020019051810190611e719190612301565b611a5a5760405162461bcd60e51b815260206004820152602a60248201527f5361666545524332303a204552433230206f7065726174696f6e20646964206e6044820152691bdd081cdd58d8d9595960b21b606482015260840161075d565b6000670de0b6b3a764000083600601548460050154611eef91906127e7565b611ef991906127c7565b8354909150600090611f13906001600160a01b03166116be565b90506000838311611f245783611f26565b825b905081811115611faa57611f3a8282612806565b6004805487546040516309e62b9160e01b81526001600160a01b03918216938101939093526024830184905292935091909116906309e62b9190604401600060405180830381600087803b158015611f9157600080fd5b505af1158015611fa5573d6000803e3d6000fd5b505050505b5050505050565b6060611fc08484600085611fca565b90505b9392505050565b60608247101561202b5760405162461bcd60e51b815260206004820152602660248201527f416464726573733a20696e73756666696369656e742062616c616e636520666f6044820152651c8818d85b1b60d21b606482015260840161075d565b843b6120795760405162461bcd60e51b815260206004820152601d60248201527f416464726573733a2063616c6c20746f206e6f6e2d636f6e7472616374000000604482015260640161075d565b600080866001600160a01b031685876040516120959190612604565b60006040518083038185875af1925050503d80600081146120d2576040519150601f19603f3d011682016040523d82523d6000602084013e6120d7565b606091505b50915091506120e78282866120f2565b979650505050505050565b60608315612101575081611fc3565b8251156121115782518084602001fd5b8160405162461bcd60e51b815260040161075d919061274f565b600082601f83011261213b578081fd5b8135602067ffffffffffffffff808311156121585761215861287a565b818302604051601f19603f8301168101818110848211171561217c5761217c61287a565b6040528481528381019250868401828801850189101561219a578687fd5b8692505b858310156121bc57803584529284019260019290920191840161219e565b50979650505050505050565b6000602082840312156121d9578081fd5b8135611fc381612890565b600080600080600080600060e0888a0312156121fe578283fd5b873561220981612890565b9650602088013561221981612890565b955060408801359450606088013593506080880135925060a0880135915060c088013567ffffffffffffffff811115612250578182fd5b61225c8a828b0161212b565b91505092959891949750929550565b6000806040838503121561227d578182fd5b823561228881612890565b946020939093013593505050565b600080600080600060a086880312156122ad578081fd5b85356122b881612890565b9450602086013593506040860135925060608601359150608086013567ffffffffffffffff8111156122e8578182fd5b6122f48882890161212b565b9150509295509295909350565b600060208284031215612312578081fd5b8151611fc3816128a8565b60006020828403121561232e578081fd5b5035919050565b60008060408385031215612347578182fd5b82359150602083013561235981612890565b809150509250929050565b600080600060608486031215612378578283fd5b83359250602084013561238a81612890565b929592945050506040919091013590565b600080600080608085870312156123b0578384fd5b8435935060208501356123c281612890565b93969395505050506040820135916060013590565b60008060008060008060a087890312156123ef578182fd5b86359550602087013561240181612890565b94506040870135935060608701359250608087013567ffffffffffffffff8082111561242b578384fd5b818901915089601f83011261243e578384fd5b81358181111561244c578485fd5b8a6020808302850101111561245f578485fd5b6020830194508093505050509295509295509295565b6000806000806080858703121561248a578182fd5b843593506020850135925060408501356124a381612890565b9396929550929360600135925050565b6000806000606084860312156124c7578081fd5b833592506020840135915060408401356124e0816128a8565b809150509250925092565b60008060008060808587031215612500578182fd5b5050823594602084013594506040840135936060013592509050565b60006020828403121561252d578081fd5b81356001600160e01b031981168114611fc3578182fd5b600060208284031215612555578081fd5b5051919050565b60008060008060008060c08789031215612574578384fd5b863595506020870135945060408701359350606087013561259481612890565b9250608087013567ffffffffffffffff8111156125af578283fd5b6125bb89828a0161212b565b92505060a08701356125cc81612890565b809150509295509295509295565b60008284528282602086013780602084860101526020601f19601f85011685010190509392505050565b6000825161261681846020870161281d565b9190910192915050565b6020808252825182820181905260009190848201906040850190845b818110156126585783518352928401929184019160010161263c565b50909695505050505050565b6000604080830186845260208281860152818683526060860190506060828802870101925087855b8881101561274057878503605f190183528135368b9003603e190181126126b1578788fd5b8a0185878101828a36829003601e19015b6002821015612728578a8403855282358181126126dd578d8efd5b8601803567ffffffffffffffff8111156126f5578e8ffd5b803603881315612703578e8ffd5b61271086828e85016125da565b968c01969550505091890191600191909101906126c2565b5091985050509385019350509083019060010161268c565b50929998505050505050505050565b600060208252825180602084015261276e81604085016020870161281d565b601f01601f19169190910160400192915050565b6020808252601390820152726f6e6c7941646d696e3a2062616420726f6c6560681b604082015260600190565b600082198211156127c2576127c2612864565b500190565b6000826127e257634e487b7160e01b81526012600452602481fd5b500490565b600081600019048311821515161561280157612801612864565b500290565b60008282101561281857612818612864565b500390565b60005b83811015612838578181015183820152602001612820565b83811115610a645750506000910152565b600060001982141561285d5761285d612864565b5060010190565b634e487b7160e01b600052601160045260246000fd5b634e487b7160e01b600052604160045260246000fd5b6001600160a01b03811681146128a557600080fd5b50565b80151581146128a557600080fdfea2646970667358221220d2f6c9f87dda2e9094db40ea7d46039186121ca293968b704ccfe7563da471b264736f6c63430008020033",
  "immutableReferences": {},
  "source": "// SPDX-License-Identifier: MIT\npragma solidity ^0.8.2;\n\nimport \"@openzeppelin/contracts/token/ERC20/IERC20.sol\";\nimport \"@openzeppelin/contracts/token/ERC20/utils/SafeERC20.sol\";\nimport \"../interfaces/IWhiteLightAggregator.sol\";\nimport \"../interfaces/IWhiteLightDebridge.sol\";\nimport \"./WhiteDebridge.sol\";\n\ncontract WhiteLightDebridge is WhiteDebridge, IWhiteLightDebridge {\n    using SafeERC20 for IERC20;\n\n    address public aggregatorAddr;\n\n    /// @dev Constructor that initializes the most important configurations.\n    /// @param _minAmount Minimal amount of current chain token to be wrapped.\n    /// @param _transferFee Transfer fee rate.\n    /// @param _minReserves Minimal reserve ratio.\n    /// @param _aggregator Submission aggregator address.\n    /// @param _supportedChainIds Chain ids where native token of the current chain can be wrapped.\n    function initialize(\n        uint256 _minAmount,\n        uint256 _transferFee,\n        uint256 _minReserves,\n        address _aggregator,\n        uint256[] memory _supportedChainIds,\n        IDefiController _defiController\n    ) public payable initializer {\n        super._initialize(\n            _minAmount,\n            _transferFee,\n            _minReserves,\n            _aggregator,\n            _supportedChainIds,\n            _defiController\n        );\n    }\n\n    /// @dev Mints wrapped asset on the current chain.\n    /// @param _debridgeId Asset identifier.\n    /// @param _receiver Receiver address.\n    /// @param _amount Amount of the transfered asset (note: without applyed fee).\n    /// @param _nonce Submission id.\n    /// @param _trxData Array of transactions by oracles of 2 elements - payload up to the receiver address and the signature bytes.\n    function mint(\n        bytes32 _debridgeId,\n        address _receiver,\n        uint256 _amount,\n        uint256 _nonce,\n        bytes[2][] calldata _trxData\n    ) external override {\n        bytes32 mintId =\n            getSubmisionId(_debridgeId, _amount, _receiver, _nonce);\n        require(\n            IWhiteLightAggregator(aggregator).submitMint(mintId, _trxData),\n            \"mint: not confirmed\"\n        );\n        _mint(mintId, _debridgeId, _receiver, _amount);\n    }\n\n    /// @dev Unlock the asset on the current chain and transfer to receiver.\n    /// @param _debridgeId Asset identifier.\n    /// @param _receiver Receiver address.\n    /// @param _amount Amount of the transfered asset (note: the fee can be applyed).\n    /// @param _nonce Submission id.\n    /// @param _trxData Array of transactions by oracles of 2 elements - payload up to the receiver address and the signature bytes.\n    function claim(\n        bytes32 _debridgeId,\n        address _receiver,\n        uint256 _amount,\n        uint256 _nonce,\n        bytes[2][] calldata _trxData\n    ) external override {\n        bytes32 burntId =\n            getSubmisionId(_debridgeId, _amount, _receiver, _nonce);\n        require(\n            IWhiteLightAggregator(aggregator).submitBurn(burntId, _trxData),\n            \"claim: not confirmed\"\n        );\n        _claim(burntId, _debridgeId, _receiver, _amount);\n    }\n}\n",
  "sourcePath": "/Users/kstasi/Documents/side/debridge-contracts/contracts/transfers/WhiteLightDebridge.sol",
  "compiler": {
    "name": "solc",
    "version": "0.8.2+commit.661d1103.Emscripten.clang"
  },
  "schemaVersion": "3.3.4",
  "updatedAt": "2021-04-19T08:28:58.663Z",
  "networkType": "ethereum",
  "devdoc": {
    "kind": "dev",
    "methods": {
      "addExternalAsset(address,address,uint256,uint256,uint256,uint256,uint256[])": {
        "details": "Add support for the asset from the other chain, deploy new wrapped asset.",
        "params": {
          "_chainId": "Current chain id.",
          "_minAmount": "Minimal amount of the asset to be wrapped.",
          "_minReserves": "Minimal reserve ration.",
          "_supportedChainIds": "Chain ids where the token of the current chain can be transfered.",
          "_tokenAddress": "Address of the asset on the other chain.",
          "_transferFee": "Transfer fee rate.",
          "_wrappedAssetAddress": "Wrapped asset address."
        }
      },
      "addNativeAsset(address,uint256,uint256,uint256,uint256[])": {
        "details": "Add support for the asset on the current chain.",
        "params": {
          "_minAmount": "Minimal amount of current chain token to be wrapped.",
          "_minReserves": "Minimal reserve ration.",
          "_supportedChainIds": "Chain ids where native token of the current chain can be wrapped.",
          "_tokenAddress": "Address of the asset on the current chain.",
          "_transferFee": "Transfer fee rate."
        }
      },
      "burn(bytes32,address,uint256)": {
        "details": "Burns wrapped asset and allowss to claim it on the other chain.",
        "params": {
          "_amount": "Amount of the transfered asset (note: the fee can be applyed).",
          "_debridgeId": "Asset identifier.",
          "_receiver": "Receiver address."
        }
      },
      "claim(bytes32,address,uint256,uint256,bytes[2][])": {
        "details": "Unlock the asset on the current chain and transfer to receiver.",
        "params": {
          "_amount": "Amount of the transfered asset (note: the fee can be applyed).",
          "_debridgeId": "Asset identifier.",
          "_nonce": "Submission id.",
          "_receiver": "Receiver address.",
          "_trxData": "Array of transactions by oracles of 2 elements - payload up to the receiver address and the signature bytes."
        }
      },
      "getBalance(address)": {
        "details": "Check the balance.",
        "params": {
          "_tokenAddress": "Address of the asset on the other chain."
        }
      },
      "getDebridgeId(uint256,address)": {
        "details": "Calculates asset identifier.",
        "params": {
          "_chainId": "Current chain id.",
          "_tokenAddress": "Address of the asset on the other chain."
        }
      },
      "getRoleAdmin(bytes32)": {
        "details": "Returns the admin role that controls `role`. See {grantRole} and {revokeRole}. To change a role's admin, use {_setRoleAdmin}."
      },
      "getSubmisionId(bytes32,uint256,address,uint256)": {
        "details": "Calculate submission id.",
        "params": {
          "_amount": "Amount of the transfered asset (note: the fee can be applyed).",
          "_debridgeId": "Asset identifier.",
          "_nonce": "Submission id.",
          "_receiver": "Receiver address."
        }
      },
      "getSupportedChainIds(bytes32)": {
        "details": "Get all supported chain ids.",
        "params": {
          "_debridgeId": "Asset identifier."
        }
      },
      "grantRole(bytes32,address)": {
        "details": "Grants `role` to `account`. If `account` had not been already granted `role`, emits a {RoleGranted} event. Requirements: - the caller must have ``role``'s admin role."
      },
      "hasRole(bytes32,address)": {
        "details": "Returns `true` if `account` has been granted `role`."
      },
      "initialize(uint256,uint256,uint256,address,uint256[],address)": {
        "details": "Constructor that initializes the most important configurations.",
        "params": {
          "_aggregator": "Submission aggregator address.",
          "_minAmount": "Minimal amount of current chain token to be wrapped.",
          "_minReserves": "Minimal reserve ratio.",
          "_supportedChainIds": "Chain ids where native token of the current chain can be wrapped.",
          "_transferFee": "Transfer fee rate."
        }
      },
      "mint(bytes32,address,uint256,uint256,bytes[2][])": {
        "details": "Mints wrapped asset on the current chain.",
        "params": {
          "_amount": "Amount of the transfered asset (note: without applyed fee).",
          "_debridgeId": "Asset identifier.",
          "_nonce": "Submission id.",
          "_receiver": "Receiver address.",
          "_trxData": "Array of transactions by oracles of 2 elements - payload up to the receiver address and the signature bytes."
        }
      },
      "renounceRole(bytes32,address)": {
        "details": "Revokes `role` from the calling account. Roles are often managed via {grantRole} and {revokeRole}: this function's purpose is to provide a mechanism for accounts to lose their privileges if they are compromised (such as when a trusted device is misplaced). If the calling account had been granted `role`, emits a {RoleRevoked} event. Requirements: - the caller must be `account`."
      },
      "requestReserves(address,uint256)": {
        "details": "Request the assets to be used in defi protocol.",
        "params": {
          "_amount": "Amount of tokens to request.",
          "_tokenAddress": "Asset address."
        }
      },
      "returnReserves(address,uint256)": {
        "details": "Return the assets that were used in defi protocol.",
        "params": {
          "_amount": "Amount of tokens to claim.",
          "_tokenAddress": "Asset address."
        }
      },
      "revokeRole(bytes32,address)": {
        "details": "Revokes `role` from `account`. If `account` had been granted `role`, emits a {RoleRevoked} event. Requirements: - the caller must have ``role``'s admin role."
      },
      "send(bytes32,address,uint256,uint256)": {
        "details": "Locks asset on the chain and enables minting on the other chain.",
        "params": {
          "_amount": "Amount to be transfered (note: the fee can be applyed).",
          "_chainIdTo": "Chain id of the target chain.",
          "_debridgeId": "Asset identifier.",
          "_receiver": "Receiver address."
        }
      },
      "setAggregator(address)": {
        "details": "Set aggregator address.",
        "params": {
          "_aggregator": "Submission aggregator address."
        }
      },
      "setChainIdSupport(bytes32,uint256,bool)": {
        "details": "Set support for the chains where the token can be transfered.",
        "params": {
          "_chainId": "Current chain id.",
          "_debridgeId": "Asset identifier.",
          "_isSupported": "Whether the token is transferable to the other chain."
        }
      },
      "setDefiController(address)": {
        "details": "Set defi controoler.",
        "params": {
          "_defiController": "Defi controller address address."
        }
      },
      "supportsInterface(bytes4)": {
        "details": "See {IERC165-supportsInterface}."
      },
      "updateAsset(bytes32,uint256,uint256,uint256)": {
        "details": "Add support for the asset.",
        "params": {
          "_debridgeId": "Asset identifier.",
          "_minAmount": "Minimal amount of the asset to be wrapped.",
          "_minReserves": "Minimal reserve ration.",
          "_transferFee": "Transfer fee rate."
        }
      },
      "withdrawFee(bytes32,address,uint256)": {
        "details": "Withdraw fees.",
        "params": {
          "_amount": "Amount of tokens to withdraw.",
          "_debridgeId": "Asset identifier.",
          "_receiver": "Receiver address."
        }
      }
    },
    "version": 1
  },
  "userdoc": {
    "kind": "user",
    "methods": {},
    "version": 1
  }
}