{
  "contractName": "WhiteFullDebridge",
  "abi": [
    {
      "anonymous": false,
      "inputs": [
        {
          "indexed": false,
          "internalType": "bytes32",
          "name": "submissionId",
          "type": "bytes32"
        },
        {
          "indexed": false,
          "internalType": "bytes32",
          "name": "debridgeId",
          "type": "bytes32"
        },
        {
          "indexed": false,
          "internalType": "uint256",
          "name": "amount",
          "type": "uint256"
        },
        {
          "indexed": false,
          "internalType": "address",
          "name": "receiver",
          "type": "address"
        },
        {
          "indexed": false,
          "internalType": "uint256",
          "name": "nonce",
          "type": "uint256"
        },
        {
          "indexed": false,
          "internalType": "uint256",
          "name": "chainIdTo",
          "type": "uint256"
        }
      ],
      "name": "Burnt",
      "type": "event"
    },
    {
      "anonymous": false,
      "inputs": [
        {
          "indexed": true,
          "internalType": "bytes32",
          "name": "debridgeId",
          "type": "bytes32"
        },
        {
          "indexed": true,
          "internalType": "uint256",
          "name": "chainId",
          "type": "uint256"
        }
      ],
      "name": "ChainSupportAdded",
      "type": "event"
    },
    {
      "anonymous": false,
      "inputs": [
        {
          "indexed": true,
          "internalType": "bytes32",
          "name": "debridgeId",
          "type": "bytes32"
        },
        {
          "indexed": true,
          "internalType": "uint256",
          "name": "chainId",
          "type": "uint256"
        }
      ],
      "name": "ChainSupportRemoved",
      "type": "event"
    },
    {
      "anonymous": false,
      "inputs": [
        {
          "indexed": false,
          "internalType": "bytes32",
          "name": "submissionId",
          "type": "bytes32"
        },
        {
          "indexed": false,
          "internalType": "uint256",
          "name": "amount",
          "type": "uint256"
        },
        {
          "indexed": false,
          "internalType": "address",
          "name": "receiver",
          "type": "address"
        },
        {
          "indexed": false,
          "internalType": "bytes32",
          "name": "debridgeId",
          "type": "bytes32"
        }
      ],
      "name": "Claimed",
      "type": "event"
    },
    {
      "anonymous": false,
      "inputs": [
        {
          "indexed": false,
          "internalType": "bytes32",
          "name": "submissionId",
          "type": "bytes32"
        },
        {
          "indexed": false,
          "internalType": "uint256",
          "name": "amount",
          "type": "uint256"
        },
        {
          "indexed": false,
          "internalType": "address",
          "name": "receiver",
          "type": "address"
        },
        {
          "indexed": false,
          "internalType": "bytes32",
          "name": "debridgeId",
          "type": "bytes32"
        }
      ],
      "name": "Minted",
      "type": "event"
    },
    {
      "anonymous": false,
      "inputs": [
        {
          "indexed": true,
          "internalType": "bytes32",
          "name": "debridgeId",
          "type": "bytes32"
        },
        {
          "indexed": true,
          "internalType": "address",
          "name": "tokenAddress",
          "type": "address"
        },
        {
          "indexed": true,
          "internalType": "uint256",
          "name": "chainId",
          "type": "uint256"
        },
        {
          "indexed": false,
          "internalType": "uint256",
          "name": "minAmount",
          "type": "uint256"
        },
        {
          "indexed": false,
          "internalType": "uint256",
          "name": "transferFee",
          "type": "uint256"
        },
        {
          "indexed": false,
          "internalType": "uint256",
          "name": "minReserves",
          "type": "uint256"
        }
      ],
      "name": "PairAdded",
      "type": "event"
    },
    {
      "anonymous": false,
      "inputs": [
        {
          "indexed": true,
          "internalType": "bytes32",
          "name": "role",
          "type": "bytes32"
        },
        {
          "indexed": true,
          "internalType": "bytes32",
          "name": "previousAdminRole",
          "type": "bytes32"
        },
        {
          "indexed": true,
          "internalType": "bytes32",
          "name": "newAdminRole",
          "type": "bytes32"
        }
      ],
      "name": "RoleAdminChanged",
      "type": "event"
    },
    {
      "anonymous": false,
      "inputs": [
        {
          "indexed": true,
          "internalType": "bytes32",
          "name": "role",
          "type": "bytes32"
        },
        {
          "indexed": true,
          "internalType": "address",
          "name": "account",
          "type": "address"
        },
        {
          "indexed": true,
          "internalType": "address",
          "name": "sender",
          "type": "address"
        }
      ],
      "name": "RoleGranted",
      "type": "event"
    },
    {
      "anonymous": false,
      "inputs": [
        {
          "indexed": true,
          "internalType": "bytes32",
          "name": "role",
          "type": "bytes32"
        },
        {
          "indexed": true,
          "internalType": "address",
          "name": "account",
          "type": "address"
        },
        {
          "indexed": true,
          "internalType": "address",
          "name": "sender",
          "type": "address"
        }
      ],
      "name": "RoleRevoked",
      "type": "event"
    },
    {
      "anonymous": false,
      "inputs": [
        {
          "indexed": false,
          "internalType": "bytes32",
          "name": "submissionId",
          "type": "bytes32"
        },
        {
          "indexed": false,
          "internalType": "bytes32",
          "name": "debridgeId",
          "type": "bytes32"
        },
        {
          "indexed": false,
          "internalType": "uint256",
          "name": "amount",
          "type": "uint256"
        },
        {
          "indexed": false,
          "internalType": "address",
          "name": "receiver",
          "type": "address"
        },
        {
          "indexed": false,
          "internalType": "uint256",
          "name": "nonce",
          "type": "uint256"
        },
        {
          "indexed": false,
          "internalType": "uint256",
          "name": "chainIdTo",
          "type": "uint256"
        }
      ],
      "name": "Sent",
      "type": "event"
    },
    {
      "inputs": [],
      "name": "DEFAULT_ADMIN_ROLE",
      "outputs": [
        {
          "internalType": "bytes32",
          "name": "",
          "type": "bytes32"
        }
      ],
      "stateMutability": "view",
      "type": "function",
      "constant": true
    },
    {
      "inputs": [],
      "name": "DENOMINATOR",
      "outputs": [
        {
          "internalType": "uint256",
          "name": "",
          "type": "uint256"
        }
      ],
      "stateMutability": "view",
      "type": "function",
      "constant": true
    },
    {
      "inputs": [
        {
          "internalType": "address",
          "name": "_tokenAddress",
          "type": "address"
        },
        {
          "internalType": "address",
          "name": "_wrappedAssetAddress",
          "type": "address"
        },
        {
          "internalType": "uint256",
          "name": "_chainId",
          "type": "uint256"
        },
        {
          "internalType": "uint256",
          "name": "_minAmount",
          "type": "uint256"
        },
        {
          "internalType": "uint256",
          "name": "_transferFee",
          "type": "uint256"
        },
        {
          "internalType": "uint256",
          "name": "_minReserves",
          "type": "uint256"
        },
        {
          "internalType": "uint256[]",
          "name": "_supportedChainIds",
          "type": "uint256[]"
        }
      ],
      "name": "addExternalAsset",
      "outputs": [],
      "stateMutability": "nonpayable",
      "type": "function"
    },
    {
      "inputs": [
        {
          "internalType": "address",
          "name": "_tokenAddress",
          "type": "address"
        },
        {
          "internalType": "uint256",
          "name": "_minAmount",
          "type": "uint256"
        },
        {
          "internalType": "uint256",
          "name": "_transferFee",
          "type": "uint256"
        },
        {
          "internalType": "uint256",
          "name": "_minReserves",
          "type": "uint256"
        },
        {
          "internalType": "uint256[]",
          "name": "_supportedChainIds",
          "type": "uint256[]"
        }
      ],
      "name": "addNativeAsset",
      "outputs": [],
      "stateMutability": "nonpayable",
      "type": "function"
    },
    {
      "inputs": [],
      "name": "aggregator",
      "outputs": [
        {
          "internalType": "address",
          "name": "",
          "type": "address"
        }
      ],
      "stateMutability": "view",
      "type": "function",
      "constant": true
    },
    {
      "inputs": [],
      "name": "aggregatorVersion",
      "outputs": [
        {
          "internalType": "uint8",
          "name": "",
          "type": "uint8"
        }
      ],
      "stateMutability": "view",
      "type": "function",
      "constant": true
    },
    {
      "inputs": [
        {
          "internalType": "bytes32",
          "name": "_debridgeId",
          "type": "bytes32"
        },
        {
          "internalType": "address",
          "name": "_receiver",
          "type": "address"
        },
        {
          "internalType": "uint256",
          "name": "_amount",
          "type": "uint256"
        },
        {
          "internalType": "uint256",
          "name": "_chainIdTo",
          "type": "uint256"
        }
      ],
      "name": "burn",
      "outputs": [],
      "stateMutability": "nonpayable",
      "type": "function"
    },
    {
      "inputs": [],
      "name": "chainId",
      "outputs": [
        {
          "internalType": "uint256",
          "name": "",
          "type": "uint256"
        }
      ],
      "stateMutability": "view",
      "type": "function",
      "constant": true
    },
    {
      "inputs": [],
      "name": "defiController",
      "outputs": [
        {
          "internalType": "contract IDefiController",
          "name": "",
          "type": "address"
        }
      ],
      "stateMutability": "view",
      "type": "function",
      "constant": true
    },
    {
      "inputs": [],
      "name": "feeProxy",
      "outputs": [
        {
          "internalType": "contract IFeeProxy",
          "name": "",
          "type": "address"
        }
      ],
      "stateMutability": "view",
      "type": "function",
      "constant": true
    },
    {
      "inputs": [
        {
          "internalType": "address",
          "name": "_tokenAddress",
          "type": "address"
        }
      ],
      "name": "getBalance",
      "outputs": [
        {
          "internalType": "uint256",
          "name": "",
          "type": "uint256"
        }
      ],
      "stateMutability": "view",
      "type": "function",
      "constant": true
    },
    {
      "inputs": [
        {
          "internalType": "bytes32",
          "name": "",
          "type": "bytes32"
        }
      ],
      "name": "getDebridge",
      "outputs": [
        {
          "internalType": "address",
          "name": "tokenAddress",
          "type": "address"
        },
        {
          "internalType": "uint256",
          "name": "chainId",
          "type": "uint256"
        },
        {
          "internalType": "uint256",
          "name": "minAmount",
          "type": "uint256"
        },
        {
          "internalType": "uint256",
          "name": "transferFee",
          "type": "uint256"
        },
        {
          "internalType": "uint256",
          "name": "collectedFees",
          "type": "uint256"
        },
        {
          "internalType": "uint256",
          "name": "balance",
          "type": "uint256"
        },
        {
          "internalType": "uint256",
          "name": "minReserves",
          "type": "uint256"
        }
      ],
      "stateMutability": "view",
      "type": "function",
      "constant": true
    },
    {
      "inputs": [
        {
          "internalType": "uint256",
          "name": "_chainId",
          "type": "uint256"
        },
        {
          "internalType": "address",
          "name": "_tokenAddress",
          "type": "address"
        }
      ],
      "name": "getDebridgeId",
      "outputs": [
        {
          "internalType": "bytes32",
          "name": "",
          "type": "bytes32"
        }
      ],
      "stateMutability": "pure",
      "type": "function",
      "constant": true
    },
    {
      "inputs": [
        {
          "internalType": "uint8",
          "name": "",
          "type": "uint8"
        }
      ],
      "name": "getOldAggregator",
      "outputs": [
        {
          "internalType": "address",
          "name": "aggregator",
          "type": "address"
        },
        {
          "internalType": "bool",
          "name": "isValid",
          "type": "bool"
        }
      ],
      "stateMutability": "view",
      "type": "function",
      "constant": true
    },
    {
      "inputs": [
        {
          "internalType": "bytes32",
          "name": "role",
          "type": "bytes32"
        }
      ],
      "name": "getRoleAdmin",
      "outputs": [
        {
          "internalType": "bytes32",
          "name": "",
          "type": "bytes32"
        }
      ],
      "stateMutability": "view",
      "type": "function",
      "constant": true
    },
    {
      "inputs": [
        {
          "internalType": "bytes32",
          "name": "_debridgeId",
          "type": "bytes32"
        },
        {
          "internalType": "uint256",
          "name": "_chainIdTo",
          "type": "uint256"
        },
        {
          "internalType": "uint256",
          "name": "_amount",
          "type": "uint256"
        },
        {
          "internalType": "address",
          "name": "_receiver",
          "type": "address"
        },
        {
          "internalType": "uint256",
          "name": "_nonce",
          "type": "uint256"
        }
      ],
      "name": "getSubmisionId",
      "outputs": [
        {
          "internalType": "bytes32",
          "name": "",
          "type": "bytes32"
        }
      ],
      "stateMutability": "pure",
      "type": "function",
      "constant": true
    },
    {
      "inputs": [
        {
          "internalType": "bytes32",
          "name": "_debridgeId",
          "type": "bytes32"
        }
      ],
      "name": "getSupportedChainIds",
      "outputs": [
        {
          "internalType": "uint256[]",
          "name": "",
          "type": "uint256[]"
        }
      ],
      "stateMutability": "view",
      "type": "function",
      "constant": true
    },
    {
      "inputs": [
        {
          "internalType": "address",
          "name": "",
          "type": "address"
        }
      ],
      "name": "getUserNonce",
      "outputs": [
        {
          "internalType": "uint256",
          "name": "",
          "type": "uint256"
        }
      ],
      "stateMutability": "view",
      "type": "function",
      "constant": true
    },
    {
      "inputs": [
        {
          "internalType": "bytes32",
          "name": "role",
          "type": "bytes32"
        },
        {
          "internalType": "address",
          "name": "account",
          "type": "address"
        }
      ],
      "name": "grantRole",
      "outputs": [],
      "stateMutability": "nonpayable",
      "type": "function"
    },
    {
      "inputs": [
        {
          "internalType": "bytes32",
          "name": "role",
          "type": "bytes32"
        },
        {
          "internalType": "address",
          "name": "account",
          "type": "address"
        }
      ],
      "name": "hasRole",
      "outputs": [
        {
          "internalType": "bool",
          "name": "",
          "type": "bool"
        }
      ],
      "stateMutability": "view",
      "type": "function",
      "constant": true
    },
    {
      "inputs": [
        {
          "internalType": "bytes32",
          "name": "",
          "type": "bytes32"
        }
      ],
      "name": "isSubmissionUsed",
      "outputs": [
        {
          "internalType": "bool",
          "name": "",
          "type": "bool"
        }
      ],
      "stateMutability": "view",
      "type": "function",
      "constant": true
    },
    {
      "inputs": [
        {
          "internalType": "uint8",
          "name": "_aggregatorVersion",
          "type": "uint8"
        },
        {
          "internalType": "bool",
          "name": "_isValid",
          "type": "bool"
        }
      ],
      "name": "manageOldAggregator",
      "outputs": [],
      "stateMutability": "nonpayable",
      "type": "function"
    },
    {
      "inputs": [
        {
          "internalType": "bytes32",
          "name": "role",
          "type": "bytes32"
        },
        {
          "internalType": "address",
          "name": "account",
          "type": "address"
        }
      ],
      "name": "renounceRole",
      "outputs": [],
      "stateMutability": "nonpayable",
      "type": "function"
    },
    {
      "inputs": [
        {
          "internalType": "address",
          "name": "_tokenAddress",
          "type": "address"
        },
        {
          "internalType": "uint256",
          "name": "_amount",
          "type": "uint256"
        }
      ],
      "name": "requestReserves",
      "outputs": [],
      "stateMutability": "nonpayable",
      "type": "function"
    },
    {
      "inputs": [
        {
          "internalType": "address",
          "name": "_tokenAddress",
          "type": "address"
        },
        {
          "internalType": "uint256",
          "name": "_amount",
          "type": "uint256"
        }
      ],
      "name": "returnReserves",
      "outputs": [],
      "stateMutability": "payable",
      "type": "function",
      "payable": true
    },
    {
      "inputs": [
        {
          "internalType": "bytes32",
          "name": "role",
          "type": "bytes32"
        },
        {
          "internalType": "address",
          "name": "account",
          "type": "address"
        }
      ],
      "name": "revokeRole",
      "outputs": [],
      "stateMutability": "nonpayable",
      "type": "function"
    },
    {
      "inputs": [
        {
          "internalType": "bytes32",
          "name": "_debridgeId",
          "type": "bytes32"
        },
        {
          "internalType": "address",
          "name": "_receiver",
          "type": "address"
        },
        {
          "internalType": "uint256",
          "name": "_amount",
          "type": "uint256"
        },
        {
          "internalType": "uint256",
          "name": "_chainIdTo",
          "type": "uint256"
        }
      ],
      "name": "send",
      "outputs": [],
      "stateMutability": "payable",
      "type": "function",
      "payable": true
    },
    {
      "inputs": [
        {
          "internalType": "address",
          "name": "_aggregator",
          "type": "address"
        }
      ],
      "name": "setAggregator",
      "outputs": [],
      "stateMutability": "nonpayable",
      "type": "function"
    },
    {
      "inputs": [
        {
          "internalType": "bytes32",
          "name": "_debridgeId",
          "type": "bytes32"
        },
        {
          "internalType": "uint256",
          "name": "_chainId",
          "type": "uint256"
        },
        {
          "internalType": "bool",
          "name": "_isSupported",
          "type": "bool"
        }
      ],
      "name": "setChainIdSupport",
      "outputs": [],
      "stateMutability": "nonpayable",
      "type": "function"
    },
    {
      "inputs": [
        {
          "internalType": "contract IDefiController",
          "name": "_defiController",
          "type": "address"
        }
      ],
      "name": "setDefiController",
      "outputs": [],
      "stateMutability": "nonpayable",
      "type": "function"
    },
    {
      "inputs": [
        {
          "internalType": "bytes4",
          "name": "interfaceId",
          "type": "bytes4"
        }
      ],
      "name": "supportsInterface",
      "outputs": [
        {
          "internalType": "bool",
          "name": "",
          "type": "bool"
        }
      ],
      "stateMutability": "view",
      "type": "function",
      "constant": true
    },
    {
      "inputs": [
        {
          "internalType": "bytes32",
          "name": "_debridgeId",
          "type": "bytes32"
        },
        {
          "internalType": "uint256",
          "name": "_minAmount",
          "type": "uint256"
        },
        {
          "internalType": "uint256",
          "name": "_transferFee",
          "type": "uint256"
        },
        {
          "internalType": "uint256",
          "name": "_minReserves",
          "type": "uint256"
        }
      ],
      "name": "updateAsset",
      "outputs": [],
      "stateMutability": "nonpayable",
      "type": "function"
    },
    {
      "inputs": [],
      "name": "weth",
      "outputs": [
        {
          "internalType": "contract IWETH",
          "name": "",
          "type": "address"
        }
      ],
      "stateMutability": "view",
      "type": "function",
      "constant": true
    },
    {
      "inputs": [
        {
          "internalType": "bytes32",
          "name": "_debridgeId",
          "type": "bytes32"
        },
        {
          "internalType": "address",
          "name": "_receiver",
          "type": "address"
        },
        {
          "internalType": "uint256",
          "name": "_amount",
          "type": "uint256"
        }
      ],
      "name": "withdrawFee",
      "outputs": [],
      "stateMutability": "nonpayable",
      "type": "function"
    },
    {
      "inputs": [
        {
          "internalType": "uint256",
          "name": "_minAmount",
          "type": "uint256"
        },
        {
          "internalType": "uint256",
          "name": "_transferFee",
          "type": "uint256"
        },
        {
          "internalType": "uint256",
          "name": "_minReserves",
          "type": "uint256"
        },
        {
          "internalType": "address",
          "name": "_aggregator",
          "type": "address"
        },
        {
          "internalType": "uint256[]",
          "name": "_supportedChainIds",
          "type": "uint256[]"
        },
        {
          "internalType": "contract IWETH",
          "name": "_weth",
          "type": "address"
        },
        {
          "internalType": "contract IFeeProxy",
          "name": "_feeProxy",
          "type": "address"
        },
        {
          "internalType": "contract IDefiController",
          "name": "_defiController",
          "type": "address"
        }
      ],
      "name": "initialize",
      "outputs": [],
      "stateMutability": "payable",
      "type": "function",
      "payable": true
    },
    {
      "inputs": [
        {
          "internalType": "bytes32",
          "name": "_debridgeId",
          "type": "bytes32"
        },
        {
          "internalType": "address",
          "name": "_receiver",
          "type": "address"
        },
        {
          "internalType": "uint256",
          "name": "_amount",
          "type": "uint256"
        },
        {
          "internalType": "uint256",
          "name": "_nonce",
          "type": "uint256"
        }
      ],
      "name": "mint",
      "outputs": [],
      "stateMutability": "nonpayable",
      "type": "function"
    },
    {
      "inputs": [
        {
          "internalType": "bytes32",
          "name": "_debridgeId",
          "type": "bytes32"
        },
        {
          "internalType": "address",
          "name": "_receiver",
          "type": "address"
        },
        {
          "internalType": "uint256",
          "name": "_amount",
          "type": "uint256"
        },
        {
          "internalType": "uint256",
          "name": "_nonce",
          "type": "uint256"
        },
        {
          "internalType": "uint8",
          "name": "_aggregatorVersion",
          "type": "uint8"
        }
      ],
      "name": "mintWithOldAggregator",
      "outputs": [],
      "stateMutability": "nonpayable",
      "type": "function"
    },
    {
      "inputs": [
        {
          "internalType": "bytes32",
          "name": "_debridgeId",
          "type": "bytes32"
        },
        {
          "internalType": "address",
          "name": "_receiver",
          "type": "address"
        },
        {
          "internalType": "uint256",
          "name": "_amount",
          "type": "uint256"
        },
        {
          "internalType": "uint256",
          "name": "_nonce",
          "type": "uint256"
        }
      ],
      "name": "claim",
      "outputs": [],
      "stateMutability": "nonpayable",
      "type": "function"
    },
    {
      "inputs": [
        {
          "internalType": "bytes32",
          "name": "_debridgeId",
          "type": "bytes32"
        },
        {
          "internalType": "address",
          "name": "_receiver",
          "type": "address"
        },
        {
          "internalType": "uint256",
          "name": "_amount",
          "type": "uint256"
        },
        {
          "internalType": "uint256",
          "name": "_nonce",
          "type": "uint256"
        },
        {
          "internalType": "uint8",
          "name": "_aggregatorVersion",
          "type": "uint8"
        }
      ],
      "name": "claimWithOldAggregator",
      "outputs": [],
      "stateMutability": "nonpayable",
      "type": "function"
    },
    {
      "inputs": [
        {
          "internalType": "bytes32",
          "name": "_debridgeId",
          "type": "bytes32"
        },
        {
          "internalType": "uint256",
          "name": "_amount",
          "type": "uint256"
        }
      ],
      "name": "fundAggregator",
      "outputs": [],
      "stateMutability": "nonpayable",
      "type": "function"
    },
    {
      "inputs": [
        {
          "internalType": "contract IFeeProxy",
          "name": "_feeProxy",
          "type": "address"
        }
      ],
      "name": "setFeeProxy",
      "outputs": [],
      "stateMutability": "nonpayable",
      "type": "function"
    },
    {
      "inputs": [
        {
          "internalType": "contract IWETH",
          "name": "_weth",
          "type": "address"
        }
      ],
      "name": "setWeth",
      "outputs": [],
      "stateMutability": "nonpayable",
      "type": "function"
    }
  ],
  "bytecode": "0x608060405234801561001057600080fd5b506131c6806100206000396000f3fe6080604052600436106102515760003560e01c806383d3f95d11610139578063b8d1452f116100b6578063d547741f1161007a578063d547741f146107f0578063d784983a14610810578063e82637f614610830578063f8b2cb4f14610850578063f9120af614610870578063f9d82ea31461089057610251565b8063b8d1452f1461073d578063ba9f77761461075d578063be7f21841461077d578063ce4aa2471461079d578063d311f656146107bd57610251565b806391d14854116100fd57806391d14854146106b25780639682b909146106d25780639a8a0592146106f25780639e70290114610708578063a217fddf1461072857610251565b806383d3f95d146105c8578063841b162b146105e857806388168b39146106495780638a2034cc14610669578063918f86741461069657610251565b80633fc8cef3116101d257806365ac9f781161019657806365ac9f78146104f857806366e1aef5146105285780636834e3a8146105485780636b063d65146105755780636b7cbb69146105885780637454f331146105a857610251565b80633fc8cef3146103d657806346144c8f146103f65780635352e9831461041657806357cf07ca146104365780635bd5a95e146104d857610251565b8063248a9ca311610219578063248a9ca31461031857806325be0be1146103565780632f2ff15d1461037657806336568abe146103965780633bd47721146103b657610251565b806301ffc9a714610256578063031ac6131461028b5780630a0e5e9a146102a0578063106f432f146102c0578063245a7bfc146102e0575b600080fd5b34801561026257600080fd5b50610276610271366004612e37565b6108a3565b60405190151581526020015b60405180910390f35b61029e610299366004612cd8565b6108dc565b005b3480156102ac57600080fd5b5061029e6102bb366004612d86565b610b82565b3480156102cc57600080fd5b5061029e6102db366004612b05565b610c42565b3480156102ec57600080fd5b50600354610300906001600160a01b031681565b6040516001600160a01b039091168152602001610282565b34801561032457600080fd5b50610348610333366004612c5a565b60009081526020819052604090206001015490565b604051908152602001610282565b34801561036257600080fd5b5061029e610371366004612b05565b610c8b565b34801561038257600080fd5b5061029e610391366004612c72565b610cd4565b3480156103a257600080fd5b5061029e6103b1366004612c72565b610d63565b3480156103c257600080fd5b5061029e6103d1366004612e06565b610ddd565b3480156103e257600080fd5b50600a54610300906001600160a01b031681565b34801561040257600080fd5b50600454610300906001600160a01b031681565b34801561042257600080fd5b5061029e610431366004612cd8565b610e26565b34801561044257600080fd5b50610499610451366004612c5a565b600560208190526000918252604090912080546001820154600283015460038401546004850154958501546006909501546001600160a01b0390941695929491939092919087565b604080516001600160a01b0390981688526020880196909652948601939093526060850191909152608084015260a083015260c082015260e001610282565b3480156104e457600080fd5b5061029e6104f3366004612d65565b6110c0565b34801561050457600080fd5b50610276610513366004612c5a565b60066020526000908152604090205460ff1681565b34801561053457600080fd5b5061029e610543366004612cd8565b611370565b34801561055457600080fd5b50610348610563366004612b05565b60076020526000908152604090205481565b61029e610583366004612ba8565b611463565b34801561059457600080fd5b5061029e6105a3366004612f36565b611505565b3480156105b457600080fd5b506103486105c3366004612dbe565b6115c8565b3480156105d457600080fd5b5061029e6105e3366004612ca1565b611626565b3480156105f457600080fd5b5061062a610603366004612f1c565b6008602052600090815260409020546001600160a01b03811690600160a01b900460ff1682565b604080516001600160a01b039093168352901515602083015201610282565b34801561065557600080fd5b5061029e610664366004612d14565b61173c565b34801561067557600080fd5b50610689610684366004612c5a565b611883565b6040516102829190612f7d565b3480156106a257600080fd5b50610348670de0b6b3a764000081565b3480156106be57600080fd5b506102766106cd366004612c72565b6118e8565b3480156106de57600080fd5b506103486106ed366004612c72565b611911565b3480156106fe57600080fd5b5061034860025481565b34801561071457600080fd5b5061029e610723366004612cd8565b61195f565b34801561073457600080fd5b50610348600081565b34801561074957600080fd5b5061029e610758366004612b05565b611a4a565b34801561076957600080fd5b50600954610300906001600160a01b031681565b34801561078957600080fd5b5061029e610798366004612ba8565b611a93565b3480156107a957600080fd5b5061029e6107b8366004612b21565b611c23565b3480156107c957600080fd5b506003546107de90600160a01b900460ff1681565b60405160ff9091168152602001610282565b3480156107fc57600080fd5b5061029e61080b366004612c72565b611c71565b34801561081c57600080fd5b5061029e61082b366004612d14565b611cf1565b34801561083c57600080fd5b5061029e61084b366004612bd3565b611e37565b34801561085c57600080fd5b5061034861086b366004612b05565b611e7f565b34801561087c57600080fd5b5061029e61088b366004612b05565b611f14565b61029e61089e366004612e77565b611fde565b60006001600160e01b03198216637965db0b60e01b14806108d457506301ffc9a760e01b6001600160e01b03198316145b90505b919050565b600084815260056020526040902060025460018201541461093d5760405162461bcd60e51b815260206004820152601660248201527539b2b7321d103737ba103730ba34bb329031b430b4b760511b60448201526064015b60405180910390fd5b600082815260088201602052604090205460ff1661099d5760405162461bcd60e51b815260206004820152601860248201527f73656e643a2077726f6e672074617267656420636861696e00000000000000006044820152606401610934565b80600201548310156109e85760405162461bcd60e51b815260206004820152601460248201527373656e643a20616d6f756e7420746f6f206c6f7760601b6044820152606401610934565b80546001600160a01b0316610a4357348314610a3e5760405162461bcd60e51b81526020600482015260156024820152740e6cadcc87440c2dadeeadce840dad2e6dac2e8c6d605b1b6044820152606401610934565b610a5a565b8054610a5a906001600160a01b03163330866120df565b6000670de0b6b3a7640000826003015485610a7591906130a1565b610a7f9190613081565b90508015610aae5780826004016000828254610a9b9190613069565b90915550610aab905081856130c0565b93505b83826005016000828254610ac29190613069565b90915550506001600160a01b03851660009081526007602052604081205490610aee8886888a866115c8565b60408051828152602081018b90529081018890526001600160a01b03891660608201526080810184905260a081018790529091507f17c61cb89b62a3f29f5b150e3489c7a796ac4dc95fd73af14faa2c8086a324b49060c00160405180910390a16001600160a01b0387166000908152600760205260408120805491610b7383613103565b91905055505050505050505050565b610b8d6000336118e8565b610ba95760405162461bcd60e51b81526004016109349061303c565b600083815260056020908152604080832085845260088101909252909120805460ff19168315801591909117909155610c0e57604051839085907fdd4dbf80f57aa5115a1e07abb36e4de565879d4de5bd15b3803d666fe1d8486390600090a3610c3c565b604051839085907f86c512831f7a2aad3f56b4169c161be1028776ab950c72e26237a0310ded560690600090a35b50505050565b610c4d6000336118e8565b610c695760405162461bcd60e51b81526004016109349061303c565b600480546001600160a01b0319166001600160a01b0392909216919091179055565b610c966000336118e8565b610cb25760405162461bcd60e51b81526004016109349061303c565b600980546001600160a01b0319166001600160a01b0392909216919091179055565b600082815260208190526040902060010154610cf1905b336106cd565b610d555760405162461bcd60e51b815260206004820152602f60248201527f416363657373436f6e74726f6c3a2073656e646572206d75737420626520616e60448201526e0818591b5a5b881d1bc819dc985b9d608a1b6064820152608401610934565b610d5f828261214a565b5050565b6001600160a01b0381163314610dd35760405162461bcd60e51b815260206004820152602f60248201527f416363657373436f6e74726f6c3a2063616e206f6e6c792072656e6f756e636560448201526e103937b632b9903337b91039b2b63360891b6064820152608401610934565b610d5f82826121ce565b610de86000336118e8565b610e045760405162461bcd60e51b81526004016109349061303c565b6000938452600560205260409093206002810192909255600382015560060155565b600084815260056020526040902060025460018201541415610e7f5760405162461bcd60e51b8152602060048201526012602482015271189d5c9b8e881b985d1a5d9948185cdcd95d60721b6044820152606401610934565b8060020154831015610eca5760405162461bcd60e51b81526020600482015260146024820152736275726e3a20616d6f756e7420746f6f206c6f7760601b6044820152606401610934565b80546040516323b872dd60e01b8152336004820152306024820152604481018590526001600160a01b039091169081906323b872dd90606401602060405180830381600087803b158015610f1d57600080fd5b505af1158015610f31573d6000803e3d6000fd5b505050506040513d601f19601f82011682018060405250810190610f559190612c3e565b506000670de0b6b3a7640000836003015486610f7191906130a1565b610f7b9190613081565b90508015610faa5780836004016000828254610f979190613069565b90915550610fa7905081866130c0565b94505b604051630852cd8d60e31b8152600481018690526001600160a01b038316906342966c6890602401600060405180830381600087803b158015610fec57600080fd5b505af1158015611000573d6000803e3d6000fd5b5050506001600160a01b038716600090815260076020526040812054915061102b8987898b866115c8565b60408051828152602081018c90529081018990526001600160a01b038a1660608201526080810184905260a081018890529091507fb8cc5195d548dc2781227c496b92d3736cd56d7f32b28971c9ae1e9eb0badf959060c00160405180910390a16001600160a01b03881660009081526007602052604081208054916110b083613103565b9190505550505050505050505050565b6110cb6000336118e8565b6110e75760405162461bcd60e51b81526004016109349061303c565b600082815260056020526040902060048101548211156111495760405162461bcd60e51b815260206004820152601e60248201527f66756e6441676772656761746f723a206e6f7420656e6f7567682066656500006044820152606401610934565b8181600401600082825461115d91906130c0565b909155505080546001600160a01b03166112dc57600a60009054906101000a90046001600160a01b03166001600160a01b031663d0e30db0836040518263ffffffff1660e01b81526004016000604051808303818588803b1580156111c157600080fd5b505af11580156111d5573d6000803e3d6000fd5b5050600a5460095460405163a9059cbb60e01b81526001600160a01b039182166004820152602481018890529116935063a9059cbb92506044019050602060405180830381600087803b15801561122b57600080fd5b505af115801561123f573d6000803e3d6000fd5b505050506040513d601f19601f820116820180604052508101906112639190612c3e565b50600954600a54600354604051631acd461560e31b81526001600160a01b03928316600482015260248101869052908216604482015291169063d66a30a890606401600060405180830381600087803b1580156112bf57600080fd5b505af11580156112d3573d6000803e3d6000fd5b5050505061136b565b60095481546112f8916001600160a01b03918216911684612233565b6009548154600354604051631acd461560e31b81526001600160a01b03928316600482015260248101869052908216604482015291169063d66a30a890606401600060405180830381600087803b15801561135257600080fd5b505af1158015611366573d6000803e3d6000fd5b505050505b505050565b6000848152600560205260408120600101546113909086908587866115c8565b6003546040516314c3d9c360e31b8152600481018390529192506001600160a01b03169063a61ece189060240160206040518083038186803b1580156113d557600080fd5b505afa1580156113e9573d6000803e3d6000fd5b505050506040513d601f19601f8201168201806040525081019061140d9190612c3e565b6114505760405162461bcd60e51b815260206004820152601460248201527318db185a5b4e881b9bdd0818dbdb999a5c9b595960621b6044820152606401610934565b61145c81868686612263565b5050505050565b6004546001600160a01b031633146114b85760405162461bcd60e51b815260206004820152601860248201527764656669436f6e74726f6c6c65723a2062616420726f6c6560401b6044820152606401610934565b60006114c660025484611911565b60008181526005602052604090208054919250906001600160a01b031615610c3c576004548154610c3c916001600160a01b03918216911630866120df565b6115106000336118e8565b61152c5760405162461bcd60e51b81526004016109349061303c565b60035460ff600160a01b9091048116908316106115995760405162461bcd60e51b815260206004820152602560248201527f6d616e6167654f6c6441676772656761746f723a2076657273696f6e20746f6f604482015264040d0d2ced60db1b6064820152608401610934565b60ff90911660009081526008602052604090208054911515600160a01b0260ff60a01b19909216919091179055565b6040805160208101879052908101859052606080820185905283901b6bffffffffffffffffffffffff191660808201526094810182905260009060b40160405160208183030381529060405280519060200120905095945050505050565b6116316000336118e8565b61164d5760405162461bcd60e51b81526004016109349061303c565b600083815260056020526040902060048101548211156116af5760405162461bcd60e51b815260206004820152601b60248201527f77697468647261774665653a206e6f7420656e6f7567682066656500000000006044820152606401610934565b818160040160008282546116c391906130c0565b909155505060025460018201541480156116e5575080546001600160a01b0316155b15611726576040516001600160a01b0384169083156108fc029084906000818181858888f19350505050158015611720573d6000803e3d6000fd5b50610c3c565b8054610c3c906001600160a01b03168484612233565b60008581526005602052604081206001015461175c9087908688876115c8565b60ff8084166000908152600860209081526040918290208251808401909352546001600160a01b0381168352600160a01b900490921615159181018290529192506117b95760405162461bcd60e51b815260040161093490612ff4565b80516040516314c3d9c360e31b8152600481018490526001600160a01b039091169063a61ece189060240160206040518083038186803b1580156117fc57600080fd5b505afa158015611810573d6000803e3d6000fd5b505050506040513d601f19601f820116820180604052508101906118349190612c3e565b6118775760405162461bcd60e51b815260206004820152601460248201527318db185a5b4e881b9bdd0818dbdb999a5c9b595960621b6044820152606401610934565b61136682888888612263565b6000818152600560209081526040918290206007018054835181840281018401909452808452606093928301828280156118dc57602002820191906000526020600020905b8154815260200190600101908083116118c8575b50505050509050919050565b6000918252602082815260408084206001600160a01b0393909316845291905290205460ff1690565b6000828260405160200161194192919091825260601b6bffffffffffffffffffffffff1916602082015260340190565b60405160208183030381529060405280519060200120905092915050565b60008481526005602052604081206001015461197f9086908587866115c8565b60035460405163a1e5c7b160e01b8152600481018390529192506001600160a01b03169063a1e5c7b19060240160206040518083038186803b1580156119c457600080fd5b505afa1580156119d8573d6000803e3d6000fd5b505050506040513d601f19601f820116820180604052508101906119fc9190612c3e565b611a3e5760405162461bcd60e51b81526020600482015260136024820152721b5a5b9d0e881b9bdd0818dbdb999a5c9b5959606a1b6044820152606401610934565b61145c81868686612414565b611a556000336118e8565b611a715760405162461bcd60e51b81526004016109349061303c565b600a80546001600160a01b0319166001600160a01b0392909216919091179055565b6004546001600160a01b03163314611ae85760405162461bcd60e51b815260206004820152601860248201527764656669436f6e74726f6c6c65723a2062616420726f6c6560401b6044820152606401610934565b6000611af660025484611911565b6000818152600560208190526040822060068101549181015493945092670de0b6b3a764000091611b26916130a1565b611b309190613081565b8254909150600090611b4a906001600160a01b0316611e7f565b905080611b578684613069565b11611bb05760405162461bcd60e51b8152602060048201526024808201527f7265717565737452657365727665733a206e6f7420656e6f75676820726573656044820152637276657360e01b6064820152608401610934565b82546001600160a01b0316611bff576004546040516001600160a01b039091169086156108fc029087906000818181858888f19350505050158015611bf9573d6000803e3d6000fd5b50611c1b565b6004548354611c1b916001600160a01b03918216911687612233565b505050505050565b611c2e6000336118e8565b611c4a5760405162461bcd60e51b81526004016109349061303c565b6000611c568689611911565b9050611c6781888888888888612595565b5050505050505050565b600082815260208190526040902060010154611c8c90610ceb565b610dd35760405162461bcd60e51b815260206004820152603060248201527f416363657373436f6e74726f6c3a2073656e646572206d75737420626520616e60448201526f2061646d696e20746f207265766f6b6560801b6064820152608401610934565b600085815260056020526040812060010154611d119087908688876115c8565b60ff8084166000908152600860209081526040918290208251808401909352546001600160a01b0381168352600160a01b90049092161515918101829052919250611d6e5760405162461bcd60e51b815260040161093490612ff4565b805160405163a1e5c7b160e01b8152600481018490526001600160a01b039091169063a1e5c7b19060240160206040518083038186803b158015611db157600080fd5b505afa158015611dc5573d6000803e3d6000fd5b505050506040513d601f19601f82011682018060405250810190611de99190612c3e565b611e2b5760405162461bcd60e51b81526020600482015260136024820152721b5a5b9d0e881b9bdd0818dbdb999a5c9b5959606a1b6044820152606401610934565b61136682888888612414565b611e426000336118e8565b611e5e5760405162461bcd60e51b81526004016109349061303c565b6000611e6c60025487611911565b9050611c1b818760025488888888612595565b60006001600160a01b038216611e965750476108d7565b6040516370a0823160e01b81523060048201526001600160a01b038316906370a082319060240160206040518083038186803b158015611ed557600080fd5b505afa158015611ee9573d6000803e3d6000fd5b505050506040513d601f19601f82011682018060405250810190611f0d9190612e5f565b90506108d7565b611f1f6000336118e8565b611f3b5760405162461bcd60e51b81526004016109349061303c565b604080518082018252600380546001600160a01b0380821684526001602080860191825260ff600160a01b948590048116600090815260089092529690209451855491511515840260ff60a01b199184166001600160a01b0319938416179190911617909455825490861693169290921780825591909104909116906014611fc28361311e565b91906101000a81548160ff021916908360ff1602179055505050565b600154610100900460ff1680611ff7575060015460ff16155b61205a5760405162461bcd60e51b815260206004820152602e60248201527f496e697469616c697a61626c653a20636f6e747261637420697320616c72656160448201526d191e481a5b9a5d1a585b1a5e995960921b6064820152608401610934565b600154610100900460ff16158015612084576001805460ff1961ff00199091166101001716811790555b6120928989898989876126df565b600a80546001600160a01b038087166001600160a01b031992831617909255600980549286169290911691909117905580156120d4576001805461ff00191690555b505050505050505050565b6040516001600160a01b0380851660248301528316604482015260648101829052610c3c9085906323b872dd60e01b906084015b60408051601f198184030181529190526020810180516001600160e01b03166001600160e01b031990931692909217909152612736565b61215482826118e8565b610d5f576000828152602081815260408083206001600160a01b03851684529091529020805460ff1916600117905561218a3390565b6001600160a01b0316816001600160a01b0316837f2f8788117e7eff1d82e926ec794901d17c78024a50270940304540a733656f0d60405160405180910390a45050565b6121d882826118e8565b15610d5f576000828152602081815260408083206001600160a01b0385168085529252808320805460ff1916905551339285917ff6391f5c32d9c69d2a47ea670b442974b53935d1edc7fd64eb21e047a839171b9190a45050565b6040516001600160a01b03831660248201526044810182905261136b90849063a9059cbb60e01b90606401612113565b60008381526005602052604090206002546001820154146122c65760405162461bcd60e51b815260206004820152601960248201527f636c61696d3a2077726f6e672074617267657420636861696e000000000000006044820152606401610934565b60008581526006602052604090205460ff161561231b5760405162461bcd60e51b815260206004820152601360248201527218db185a5b4e88185b1c9958591e481d5cd959606a1b6044820152606401610934565b6000858152600660205260408120805460ff191660011790556005820180548492906123489084906130c0565b9091555061235890508183612808565b80546001600160a01b03166123a3576040516001600160a01b0384169083156108fc029084906000818181858888f1935050505015801561239d573d6000803e3d6000fd5b506123b9565b80546123b9906001600160a01b03168484612233565b60408051868152602081018490526001600160a01b03851691810191909152606081018590527fabe3bed2a8590dd123c1a018888bce6142d526741bed65dfe570fb223525c6a4906080015b60405180910390a15050505050565b60008481526006602052604090205460ff16156124685760405162461bcd60e51b81526020600482015260126024820152711b5a5b9d0e88185b1c9958591e481d5cd95960721b6044820152606401610934565b60008381526005602090815260408083208784526006909252909120805460ff191660019081179091556002549082015414156124df5760405162461bcd60e51b815260206004820152601560248201527436b4b73a1d1034b9903730ba34bb329031b430b4b760591b6044820152606401610934565b80546040516340c10f1960e01b81526001600160a01b03858116600483015260248201859052909116906340c10f1990604401600060405180830381600087803b15801561252c57600080fd5b505af1158015612540573d6000803e3d6000fd5b505060408051888152602081018690526001600160a01b03871691810191909152606081018790527f5918a95fd00afb5898499bd5beade1619e98655d2b4ff6e0f6a4347f0a69c12792506080019050612405565b600087815260056020526040812080546001600160a01b0319166001600160a01b0389161781556001810187905560028101869055600381018590556006810184905590805b83518110156126835783818151811061260457634e487b7160e01b600052603260045260246000fd5b60209081029190910181015160008181526008860183526040808220805460ff1916600190811790915560078801805491820181558352938220909301829055915190935083918c917fdd4dbf80f57aa5115a1e07abb36e4de565879d4de5bd15b3803d666fe1d848639190a38061267b81613103565b9150506125db565b50604080518781526020810187905290810185905287906001600160a01b038a16908b907ff6f4e2b9c6425dc5e0ebbec27bfdc06bece97c248400c189c656fe08259cd4659060600160405180910390a4505050505050505050565b46600281905560006126f18282611911565b90506127058160006002548b8b8b8a612595565b600380546001600160a01b0319166001600160a01b0387811691909117909155600454169250611c67600033610d55565b600061278b826040518060400160405280602081526020017f5361666545524332303a206c6f772d6c6576656c2063616c6c206661696c6564815250856001600160a01b03166128dd9092919063ffffffff16565b80519091501561136b57808060200190518101906127a99190612c3e565b61136b5760405162461bcd60e51b815260206004820152602a60248201527f5361666545524332303a204552433230206f7065726174696f6e20646964206e6044820152691bdd081cdd58d8d9595960b21b6064820152608401610934565b6000670de0b6b3a76400008360060154846005015461282791906130a1565b6128319190613081565b835490915060009061284b906001600160a01b0316611e7f565b9050600083831161285c578361285e565b825b90508181111561145c5761287282826130c0565b6004805487546040516309e62b9160e01b81526001600160a01b03918216938101939093526024830184905292935091909116906309e62b9190604401600060405180830381600087803b1580156128c957600080fd5b505af11580156120d4573d6000803e3d6000fd5b60606128ec84846000856128f6565b90505b9392505050565b6060824710156129575760405162461bcd60e51b815260206004820152602660248201527f416464726573733a20696e73756666696369656e742062616c616e636520666f6044820152651c8818d85b1b60d21b6064820152608401610934565b843b6129a55760405162461bcd60e51b815260206004820152601d60248201527f416464726573733a2063616c6c20746f206e6f6e2d636f6e74726163740000006044820152606401610934565b600080866001600160a01b031685876040516129c19190612f61565b60006040518083038185875af1925050503d80600081146129fe576040519150601f19603f3d011682016040523d82523d6000602084013e612a03565b606091505b5091509150612a13828286612a1e565b979650505050505050565b60608315612a2d5750816128ef565b825115612a3d5782518084602001fd5b8160405162461bcd60e51b81526004016109349190612fc1565b600082601f830112612a67578081fd5b8135602067ffffffffffffffff80831115612a8457612a84613154565b818302604051601f19603f83011681018181108482111715612aa857612aa8613154565b60405284815283810192508684018288018501891015612ac6578687fd5b8692505b85831015612ae8578035845292840192600192909201918401612aca565b50979650505050505050565b803560ff811681146108d757600080fd5b600060208284031215612b16578081fd5b81356128ef8161316a565b600080600080600080600060e0888a031215612b3b578283fd5b8735612b468161316a565b96506020880135612b568161316a565b955060408801359450606088013593506080880135925060a0880135915060c088013567ffffffffffffffff811115612b8d578182fd5b612b998a828b01612a57565b91505092959891949750929550565b60008060408385031215612bba578182fd5b8235612bc58161316a565b946020939093013593505050565b600080600080600060a08688031215612bea578081fd5b8535612bf58161316a565b9450602086013593506040860135925060608601359150608086013567ffffffffffffffff811115612c25578182fd5b612c3188828901612a57565b9150509295509295909350565b600060208284031215612c4f578081fd5b81516128ef81613182565b600060208284031215612c6b578081fd5b5035919050565b60008060408385031215612c84578182fd5b823591506020830135612c968161316a565b809150509250929050565b600080600060608486031215612cb5578283fd5b833592506020840135612cc78161316a565b929592945050506040919091013590565b60008060008060808587031215612ced578384fd5b843593506020850135612cff8161316a565b93969395505050506040820135916060013590565b600080600080600060a08688031215612d2b578283fd5b853594506020860135612d3d8161316a565b93506040860135925060608601359150612d5960808701612af4565b90509295509295909350565b60008060408385031215612d77578182fd5b50508035926020909101359150565b600080600060608486031215612d9a578081fd5b83359250602084013591506040840135612db381613182565b809150509250925092565b600080600080600060a08688031215612dd5578283fd5b8535945060208601359350604086013592506060860135612df58161316a565b949793965091946080013592915050565b60008060008060808587031215612e1b578182fd5b5050823594602084013594506040840135936060013592509050565b600060208284031215612e48578081fd5b81356001600160e01b0319811681146128ef578182fd5b600060208284031215612e70578081fd5b5051919050565b600080600080600080600080610100898b031215612e93578182fd5b8835975060208901359650604089013595506060890135612eb38161316a565b9450608089013567ffffffffffffffff811115612ece578283fd5b612eda8b828c01612a57565b94505060a0890135612eeb8161316a565b925060c0890135612efb8161316a565b915060e0890135612f0b8161316a565b809150509295985092959890939650565b600060208284031215612f2d578081fd5b6128ef82612af4565b60008060408385031215612f48578182fd5b612f5183612af4565b91506020830135612c9681613182565b60008251612f738184602087016130d7565b9190910192915050565b6020808252825182820181905260009190848201906040850190845b81811015612fb557835183529284019291840191600101612f99565b50909695505050505050565b6000602082528251806020840152612fe08160408501602087016130d7565b601f01601f19169190910160400192915050565b60208082526028908201527f6d696e74576974684f6c6441676772656761746f723a20696e76616c6964416760408201526733b932b3b0ba37b960c11b606082015260800190565b6020808252601390820152726f6e6c7941646d696e3a2062616420726f6c6560681b604082015260600190565b6000821982111561307c5761307c61313e565b500190565b60008261309c57634e487b7160e01b81526012600452602481fd5b500490565b60008160001904831182151516156130bb576130bb61313e565b500290565b6000828210156130d2576130d261313e565b500390565b60005b838110156130f25781810151838201526020016130da565b83811115610c3c5750506000910152565b60006000198214156131175761311761313e565b5060010190565b600060ff821660ff8114156131355761313561313e565b60010192915050565b634e487b7160e01b600052601160045260246000fd5b634e487b7160e01b600052604160045260246000fd5b6001600160a01b038116811461317f57600080fd5b50565b801515811461317f57600080fdfea26469706673582212200820fcb02840ce71b9665fda66a737f5e0f89ba24eac6e6a595d7df291e5488664736f6c63430008020033",
  "immutableReferences": {},
  "source": "// SPDX-License-Identifier: MIT\npragma solidity ^0.8.2;\n\nimport \"@openzeppelin/contracts/token/ERC20/ERC20.sol\";\nimport \"@openzeppelin/contracts/token/ERC20/IERC20.sol\";\nimport \"@openzeppelin/contracts/token/ERC20/utils/SafeERC20.sol\";\nimport \"@openzeppelin/contracts/access/AccessControl.sol\";\nimport \"../interfaces/IWhiteDebridge.sol\";\nimport \"../interfaces/IFeeProxy.sol\";\nimport \"../interfaces/IWETH.sol\";\nimport \"../interfaces/IWhiteFullDebridge.sol\";\nimport \"../interfaces/IDefiController.sol\";\nimport \"../interfaces/IWhiteAggregator.sol\";\nimport \"../periphery/WrappedAsset.sol\";\nimport \"./WhiteDebridge.sol\";\n\ncontract WhiteFullDebridge is WhiteDebridge, IWhiteFullDebridge {\n    using SafeERC20 for IERC20;\n\n    IFeeProxy public feeProxy; // proxy to convert the collected fees into Link's\n    IWETH public weth; // wrapped native token contract\n\n    /// @dev Constructor that initializes the most important configurations.\n    /// @param _minAmount Minimal amount of current chain token to be wrapped.\n    /// @param _transferFee Transfer fee rate.\n    /// @param _minReserves Minimal reserve ratio.\n    /// @param _aggregator Submission aggregator address.\n    /// @param _supportedChainIds Chain ids where native token of the current chain can be wrapped.\n    function initialize(\n        uint256 _minAmount,\n        uint256 _transferFee,\n        uint256 _minReserves,\n        address _aggregator,\n        uint256[] memory _supportedChainIds,\n        IWETH _weth,\n        IFeeProxy _feeProxy,\n        IDefiController _defiController\n    ) public payable initializer {\n        super._initialize(\n            _minAmount,\n            _transferFee,\n            _minReserves,\n            _aggregator,\n            _supportedChainIds,\n            _defiController\n        );\n        weth = _weth;\n        feeProxy = _feeProxy;\n    }\n\n    /// @dev Mints wrapped asset on the current chain.\n    /// @param _debridgeId Asset identifier.\n    /// @param _receiver Receiver address.\n    /// @param _amount Amount of the transfered asset (note: without applyed fee).\n    /// @param _nonce Submission id.\n    function mint(\n        bytes32 _debridgeId,\n        address _receiver,\n        uint256 _amount,\n        uint256 _nonce\n    ) external override {\n        bytes32 mintId =\n            getSubmisionId(\n                _debridgeId,\n                getDebridge[_debridgeId].chainId,\n                _amount,\n                _receiver,\n                _nonce\n            );\n        require(\n            IWhiteAggregator(aggregator).isMintConfirmed(mintId),\n            \"mint: not confirmed\"\n        );\n        _mint(mintId, _debridgeId, _receiver, _amount);\n    }\n\n    /// @dev Mints wrapped asset on the current chain.\n    /// @param _debridgeId Asset identifier.\n    /// @param _receiver Receiver address.\n    /// @param _amount Amount of the transfered asset (note: without applyed fee).\n    /// @param _nonce Submission id.\n    /// @param _aggregatorVersion Aggregator version.\n    function mintWithOldAggregator(\n        bytes32 _debridgeId,\n        address _receiver,\n        uint256 _amount,\n        uint256 _nonce,\n        uint8 _aggregatorVersion\n    ) external override {\n        bytes32 mintId =\n            getSubmisionId(\n                _debridgeId,\n                getDebridge[_debridgeId].chainId,\n                _amount,\n                _receiver,\n                _nonce\n            );\n        AggregatorInfo memory aggregatorInfo =\n            getOldAggregator[_aggregatorVersion];\n        require(\n            aggregatorInfo.isValid,\n            \"mintWithOldAggregator: invalidAggregator\"\n        );\n        require(\n            IWhiteAggregator(aggregatorInfo.aggregator).isMintConfirmed(mintId),\n            \"mint: not confirmed\"\n        );\n        _mint(mintId, _debridgeId, _receiver, _amount);\n    }\n\n    /// @dev Unlock the asset on the current chain and transfer to receiver.\n    /// @param _debridgeId Asset identifier.\n    /// @param _receiver Receiver address.\n    /// @param _amount Amount of the transfered asset (note: the fee can be applyed).\n    /// @param _nonce Submission id.\n    function claim(\n        bytes32 _debridgeId,\n        address _receiver,\n        uint256 _amount,\n        uint256 _nonce\n    ) external override {\n        bytes32 burntId =\n            getSubmisionId(\n                _debridgeId,\n                getDebridge[_debridgeId].chainId,\n                _amount,\n                _receiver,\n                _nonce\n            );\n        require(\n            IWhiteAggregator(aggregator).isBurntConfirmed(burntId),\n            \"claim: not confirmed\"\n        );\n        _claim(burntId, _debridgeId, _receiver, _amount);\n    }\n\n    /// @dev Unlock the asset on the current chain and transfer to receiver.\n    /// @param _debridgeId Asset identifier.\n    /// @param _receiver Receiver address.\n    /// @param _amount Amount of the transfered asset (note: the fee can be applyed).\n    /// @param _nonce Submission id.\n    /// @param _aggregatorVersion Aggregator version.\n    function claimWithOldAggregator(\n        bytes32 _debridgeId,\n        address _receiver,\n        uint256 _amount,\n        uint256 _nonce,\n        uint8 _aggregatorVersion\n    ) external override {\n        bytes32 burntId =\n            getSubmisionId(\n                _debridgeId,\n                getDebridge[_debridgeId].chainId,\n                _amount,\n                _receiver,\n                _nonce\n            );\n        AggregatorInfo memory aggregatorInfo =\n            getOldAggregator[_aggregatorVersion];\n        require(\n            aggregatorInfo.isValid,\n            \"mintWithOldAggregator: invalidAggregator\"\n        );\n        require(\n            IWhiteAggregator(aggregatorInfo.aggregator).isBurntConfirmed(\n                burntId\n            ),\n            \"claim: not confirmed\"\n        );\n        _claim(burntId, _debridgeId, _receiver, _amount);\n    }\n\n    /* ADMIN */\n\n    /// @dev Fund aggregator.\n    /// @param _debridgeId Asset identifier.\n    /// @param _amount Submission aggregator address.\n    function fundAggregator(bytes32 _debridgeId, uint256 _amount)\n        external\n        onlyAdmin()\n    {\n        DebridgeInfo storage debridge = getDebridge[_debridgeId];\n        require(\n            debridge.collectedFees >= _amount,\n            \"fundAggregator: not enough fee\"\n        );\n        debridge.collectedFees -= _amount;\n        if (debridge.tokenAddress == address(0)) {\n            weth.deposit{value: _amount}();\n            weth.transfer(address(feeProxy), _amount);\n            feeProxy.swapToLink(address(weth), _amount, aggregator);\n        } else {\n            IERC20(debridge.tokenAddress).safeTransfer(\n                address(feeProxy),\n                _amount\n            );\n            feeProxy.swapToLink(debridge.tokenAddress, _amount, aggregator);\n        }\n    }\n\n    /// @dev Set fee converter proxy.\n    /// @param _feeProxy Fee proxy address.\n    function setFeeProxy(IFeeProxy _feeProxy) external onlyAdmin() {\n        feeProxy = _feeProxy;\n    }\n\n    /// @dev Set wrapped native asset address.\n    /// @param _weth Weth address.\n    function setWeth(IWETH _weth) external onlyAdmin() {\n        weth = _weth;\n    }\n}\n",
  "sourcePath": "/Users/kstasi/Documents/side/debridge-contracts/contracts/transfers/WhiteFullDebridge.sol",
  "compiler": {
    "name": "solc",
    "version": "0.8.2+commit.661d1103.Emscripten.clang"
  },
  "schemaVersion": "3.3.4",
  "updatedAt": "2021-04-21T18:16:48.591Z",
  "networkType": "ethereum",
  "devdoc": {
    "kind": "dev",
    "methods": {
      "addExternalAsset(address,address,uint256,uint256,uint256,uint256,uint256[])": {
        "details": "Add support for the asset from the other chain, deploy new wrapped asset.",
        "params": {
          "_chainId": "Current chain id.",
          "_minAmount": "Minimal amount of the asset to be wrapped.",
          "_minReserves": "Minimal reserve ration.",
          "_supportedChainIds": "Chain ids where the token of the current chain can be transfered.",
          "_tokenAddress": "Address of the asset on the other chain.",
          "_transferFee": "Transfer fee rate.",
          "_wrappedAssetAddress": "Wrapped asset address."
        }
      },
      "addNativeAsset(address,uint256,uint256,uint256,uint256[])": {
        "details": "Add support for the asset on the current chain.",
        "params": {
          "_minAmount": "Minimal amount of current chain token to be wrapped.",
          "_minReserves": "Minimal reserve ration.",
          "_supportedChainIds": "Chain ids where native token of the current chain can be wrapped.",
          "_tokenAddress": "Address of the asset on the current chain.",
          "_transferFee": "Transfer fee rate."
        }
      },
      "burn(bytes32,address,uint256,uint256)": {
        "details": "Burns wrapped asset and allowss to claim it on the other chain.",
        "params": {
          "_amount": "Amount of the transfered asset (note: the fee can be applyed).",
          "_chainIdTo": "Chain id of the target chain.",
          "_debridgeId": "Asset identifier.",
          "_receiver": "Receiver address."
        }
      },
      "claim(bytes32,address,uint256,uint256)": {
        "details": "Unlock the asset on the current chain and transfer to receiver.",
        "params": {
          "_amount": "Amount of the transfered asset (note: the fee can be applyed).",
          "_debridgeId": "Asset identifier.",
          "_nonce": "Submission id.",
          "_receiver": "Receiver address."
        }
      },
      "claimWithOldAggregator(bytes32,address,uint256,uint256,uint8)": {
        "details": "Unlock the asset on the current chain and transfer to receiver.",
        "params": {
          "_aggregatorVersion": "Aggregator version.",
          "_amount": "Amount of the transfered asset (note: the fee can be applyed).",
          "_debridgeId": "Asset identifier.",
          "_nonce": "Submission id.",
          "_receiver": "Receiver address."
        }
      },
      "fundAggregator(bytes32,uint256)": {
        "details": "Fund aggregator.",
        "params": {
          "_amount": "Submission aggregator address.",
          "_debridgeId": "Asset identifier."
        }
      },
      "getBalance(address)": {
        "details": "Check the balance.",
        "params": {
          "_tokenAddress": "Address of the asset on the other chain."
        }
      },
      "getDebridgeId(uint256,address)": {
        "details": "Calculates asset identifier.",
        "params": {
          "_chainId": "Current chain id.",
          "_tokenAddress": "Address of the asset on the other chain."
        }
      },
      "getRoleAdmin(bytes32)": {
        "details": "Returns the admin role that controls `role`. See {grantRole} and {revokeRole}. To change a role's admin, use {_setRoleAdmin}."
      },
      "getSubmisionId(bytes32,uint256,uint256,address,uint256)": {
        "details": "Calculate submission id.",
        "params": {
          "_amount": "Amount of the transfered asset (note: the fee can be applyed).",
          "_debridgeId": "Asset identifier.",
          "_nonce": "Submission id.",
          "_receiver": "Receiver address."
        }
      },
      "getSupportedChainIds(bytes32)": {
        "details": "Get all supported chain ids.",
        "params": {
          "_debridgeId": "Asset identifier."
        }
      },
      "grantRole(bytes32,address)": {
        "details": "Grants `role` to `account`. If `account` had not been already granted `role`, emits a {RoleGranted} event. Requirements: - the caller must have ``role``'s admin role."
      },
      "hasRole(bytes32,address)": {
        "details": "Returns `true` if `account` has been granted `role`."
      },
      "initialize(uint256,uint256,uint256,address,uint256[],address,address,address)": {
        "details": "Constructor that initializes the most important configurations.",
        "params": {
          "_aggregator": "Submission aggregator address.",
          "_minAmount": "Minimal amount of current chain token to be wrapped.",
          "_minReserves": "Minimal reserve ratio.",
          "_supportedChainIds": "Chain ids where native token of the current chain can be wrapped.",
          "_transferFee": "Transfer fee rate."
        }
      },
      "manageOldAggregator(uint8,bool)": {
        "details": "Set aggregator address.",
        "params": {
          "_aggregatorVersion": "Submission aggregator address.",
          "_isValid": "Is valid."
        }
      },
      "mint(bytes32,address,uint256,uint256)": {
        "details": "Mints wrapped asset on the current chain.",
        "params": {
          "_amount": "Amount of the transfered asset (note: without applyed fee).",
          "_debridgeId": "Asset identifier.",
          "_nonce": "Submission id.",
          "_receiver": "Receiver address."
        }
      },
      "mintWithOldAggregator(bytes32,address,uint256,uint256,uint8)": {
        "details": "Mints wrapped asset on the current chain.",
        "params": {
          "_aggregatorVersion": "Aggregator version.",
          "_amount": "Amount of the transfered asset (note: without applyed fee).",
          "_debridgeId": "Asset identifier.",
          "_nonce": "Submission id.",
          "_receiver": "Receiver address."
        }
      },
      "renounceRole(bytes32,address)": {
        "details": "Revokes `role` from the calling account. Roles are often managed via {grantRole} and {revokeRole}: this function's purpose is to provide a mechanism for accounts to lose their privileges if they are compromised (such as when a trusted device is misplaced). If the calling account had been granted `role`, emits a {RoleRevoked} event. Requirements: - the caller must be `account`."
      },
      "requestReserves(address,uint256)": {
        "details": "Request the assets to be used in defi protocol.",
        "params": {
          "_amount": "Amount of tokens to request.",
          "_tokenAddress": "Asset address."
        }
      },
      "returnReserves(address,uint256)": {
        "details": "Return the assets that were used in defi protocol.",
        "params": {
          "_amount": "Amount of tokens to claim.",
          "_tokenAddress": "Asset address."
        }
      },
      "revokeRole(bytes32,address)": {
        "details": "Revokes `role` from `account`. If `account` had been granted `role`, emits a {RoleRevoked} event. Requirements: - the caller must have ``role``'s admin role."
      },
      "send(bytes32,address,uint256,uint256)": {
        "details": "Locks asset on the chain and enables minting on the other chain.",
        "params": {
          "_amount": "Amount to be transfered (note: the fee can be applyed).",
          "_chainIdTo": "Chain id of the target chain.",
          "_debridgeId": "Asset identifier.",
          "_receiver": "Receiver address."
        }
      },
      "setAggregator(address)": {
        "details": "Set aggregator address.",
        "params": {
          "_aggregator": "Submission aggregator address."
        }
      },
      "setChainIdSupport(bytes32,uint256,bool)": {
        "details": "Set support for the chains where the token can be transfered.",
        "params": {
          "_chainId": "Current chain id.",
          "_debridgeId": "Asset identifier.",
          "_isSupported": "Whether the token is transferable to the other chain."
        }
      },
      "setDefiController(address)": {
        "details": "Set defi controoler.",
        "params": {
          "_defiController": "Defi controller address address."
        }
      },
      "setFeeProxy(address)": {
        "details": "Set fee converter proxy.",
        "params": {
          "_feeProxy": "Fee proxy address."
        }
      },
      "setWeth(address)": {
        "details": "Set wrapped native asset address.",
        "params": {
          "_weth": "Weth address."
        }
      },
      "supportsInterface(bytes4)": {
        "details": "See {IERC165-supportsInterface}."
      },
      "updateAsset(bytes32,uint256,uint256,uint256)": {
        "details": "Add support for the asset.",
        "params": {
          "_debridgeId": "Asset identifier.",
          "_minAmount": "Minimal amount of the asset to be wrapped.",
          "_minReserves": "Minimal reserve ration.",
          "_transferFee": "Transfer fee rate."
        }
      },
      "withdrawFee(bytes32,address,uint256)": {
        "details": "Withdraw fees.",
        "params": {
          "_amount": "Amount of tokens to withdraw.",
          "_debridgeId": "Asset identifier.",
          "_receiver": "Receiver address."
        }
      }
    },
    "version": 1
  },
  "userdoc": {
    "kind": "user",
    "methods": {},
    "version": 1
  }
}