{
  "contractName": "WhiteLightDebridge",
  "abi": [
    {
      "anonymous": false,
      "inputs": [
        {
          "indexed": false,
          "internalType": "bytes32",
          "name": "submissionId",
          "type": "bytes32"
        },
        {
          "indexed": false,
          "internalType": "bytes32",
          "name": "debridgeId",
          "type": "bytes32"
        },
        {
          "indexed": false,
          "internalType": "uint256",
          "name": "amount",
          "type": "uint256"
        },
        {
          "indexed": false,
          "internalType": "address",
          "name": "receiver",
          "type": "address"
        },
        {
          "indexed": false,
          "internalType": "uint256",
          "name": "nonce",
          "type": "uint256"
        },
        {
          "indexed": false,
          "internalType": "uint256",
          "name": "chainIdTo",
          "type": "uint256"
        },
        {
          "indexed": false,
          "internalType": "uint256",
          "name": "claimFee",
          "type": "uint256"
        },
        {
          "indexed": false,
          "internalType": "bytes",
          "name": "data",
          "type": "bytes"
        }
      ],
      "name": "AutoBurnt",
      "type": "event"
    },
    {
      "anonymous": false,
      "inputs": [
        {
          "indexed": false,
          "internalType": "bytes32",
          "name": "submissionId",
          "type": "bytes32"
        },
        {
          "indexed": false,
          "internalType": "bool",
          "name": "success",
          "type": "bool"
        }
      ],
      "name": "AutoRequestExecuted",
      "type": "event"
    },
    {
      "anonymous": false,
      "inputs": [
        {
          "indexed": false,
          "internalType": "bytes32",
          "name": "submissionId",
          "type": "bytes32"
        },
        {
          "indexed": false,
          "internalType": "bytes32",
          "name": "debridgeId",
          "type": "bytes32"
        },
        {
          "indexed": false,
          "internalType": "uint256",
          "name": "amount",
          "type": "uint256"
        },
        {
          "indexed": false,
          "internalType": "address",
          "name": "receiver",
          "type": "address"
        },
        {
          "indexed": false,
          "internalType": "uint256",
          "name": "nonce",
          "type": "uint256"
        },
        {
          "indexed": false,
          "internalType": "uint256",
          "name": "chainIdTo",
          "type": "uint256"
        },
        {
          "indexed": false,
          "internalType": "uint256",
          "name": "claimFee",
          "type": "uint256"
        },
        {
          "indexed": false,
          "internalType": "bytes",
          "name": "data",
          "type": "bytes"
        }
      ],
      "name": "AutoSent",
      "type": "event"
    },
    {
      "anonymous": false,
      "inputs": [
        {
          "indexed": false,
          "internalType": "bytes32",
          "name": "submissionId",
          "type": "bytes32"
        },
        {
          "indexed": false,
          "internalType": "bytes32",
          "name": "debridgeId",
          "type": "bytes32"
        },
        {
          "indexed": false,
          "internalType": "uint256",
          "name": "amount",
          "type": "uint256"
        },
        {
          "indexed": false,
          "internalType": "address",
          "name": "receiver",
          "type": "address"
        },
        {
          "indexed": false,
          "internalType": "uint256",
          "name": "nonce",
          "type": "uint256"
        },
        {
          "indexed": false,
          "internalType": "uint256",
          "name": "chainIdTo",
          "type": "uint256"
        }
      ],
      "name": "Burnt",
      "type": "event"
    },
    {
      "anonymous": false,
      "inputs": [
        {
          "indexed": false,
          "internalType": "address",
          "name": "callProxy",
          "type": "address"
        }
      ],
      "name": "CallProxyUpdated",
      "type": "event"
    },
    {
      "anonymous": false,
      "inputs": [
        {
          "indexed": true,
          "internalType": "bytes32",
          "name": "debridgeId",
          "type": "bytes32"
        },
        {
          "indexed": true,
          "internalType": "uint256",
          "name": "chainId",
          "type": "uint256"
        }
      ],
      "name": "ChainSupportAdded",
      "type": "event"
    },
    {
      "anonymous": false,
      "inputs": [
        {
          "indexed": true,
          "internalType": "bytes32",
          "name": "debridgeId",
          "type": "bytes32"
        },
        {
          "indexed": true,
          "internalType": "uint256",
          "name": "chainId",
          "type": "uint256"
        }
      ],
      "name": "ChainSupportRemoved",
      "type": "event"
    },
    {
      "anonymous": false,
      "inputs": [
        {
          "indexed": false,
          "internalType": "uint256[]",
          "name": "chainIds",
          "type": "uint256[]"
        }
      ],
      "name": "ChainsSupportUpdated",
      "type": "event"
    },
    {
      "anonymous": false,
      "inputs": [
        {
          "indexed": false,
          "internalType": "bytes32",
          "name": "submissionId",
          "type": "bytes32"
        },
        {
          "indexed": false,
          "internalType": "uint256",
          "name": "amount",
          "type": "uint256"
        },
        {
          "indexed": false,
          "internalType": "address",
          "name": "receiver",
          "type": "address"
        },
        {
          "indexed": false,
          "internalType": "bytes32",
          "name": "debridgeId",
          "type": "bytes32"
        }
      ],
      "name": "Claimed",
      "type": "event"
    },
    {
      "anonymous": false,
      "inputs": [
        {
          "indexed": false,
          "internalType": "bytes32",
          "name": "submissionId",
          "type": "bytes32"
        },
        {
          "indexed": false,
          "internalType": "uint256",
          "name": "amount",
          "type": "uint256"
        },
        {
          "indexed": false,
          "internalType": "address",
          "name": "receiver",
          "type": "address"
        },
        {
          "indexed": false,
          "internalType": "bytes32",
          "name": "debridgeId",
          "type": "bytes32"
        }
      ],
      "name": "Minted",
      "type": "event"
    },
    {
      "anonymous": false,
      "inputs": [
        {
          "indexed": true,
          "internalType": "bytes32",
          "name": "debridgeId",
          "type": "bytes32"
        },
        {
          "indexed": true,
          "internalType": "address",
          "name": "tokenAddress",
          "type": "address"
        },
        {
          "indexed": true,
          "internalType": "uint256",
          "name": "chainId",
          "type": "uint256"
        },
        {
          "indexed": false,
          "internalType": "uint256",
          "name": "minAmount",
          "type": "uint256"
        },
        {
          "indexed": false,
          "internalType": "uint256",
          "name": "minReserves",
          "type": "uint256"
        }
      ],
      "name": "PairAdded",
      "type": "event"
    },
    {
      "anonymous": false,
      "inputs": [
        {
          "indexed": false,
          "internalType": "address",
          "name": "account",
          "type": "address"
        }
      ],
      "name": "Paused",
      "type": "event"
    },
    {
      "anonymous": false,
      "inputs": [
        {
          "indexed": true,
          "internalType": "bytes32",
          "name": "role",
          "type": "bytes32"
        },
        {
          "indexed": true,
          "internalType": "bytes32",
          "name": "previousAdminRole",
          "type": "bytes32"
        },
        {
          "indexed": true,
          "internalType": "bytes32",
          "name": "newAdminRole",
          "type": "bytes32"
        }
      ],
      "name": "RoleAdminChanged",
      "type": "event"
    },
    {
      "anonymous": false,
      "inputs": [
        {
          "indexed": true,
          "internalType": "bytes32",
          "name": "role",
          "type": "bytes32"
        },
        {
          "indexed": true,
          "internalType": "address",
          "name": "account",
          "type": "address"
        },
        {
          "indexed": true,
          "internalType": "address",
          "name": "sender",
          "type": "address"
        }
      ],
      "name": "RoleGranted",
      "type": "event"
    },
    {
      "anonymous": false,
      "inputs": [
        {
          "indexed": true,
          "internalType": "bytes32",
          "name": "role",
          "type": "bytes32"
        },
        {
          "indexed": true,
          "internalType": "address",
          "name": "account",
          "type": "address"
        },
        {
          "indexed": true,
          "internalType": "address",
          "name": "sender",
          "type": "address"
        }
      ],
      "name": "RoleRevoked",
      "type": "event"
    },
    {
      "anonymous": false,
      "inputs": [
        {
          "indexed": false,
          "internalType": "bytes32",
          "name": "submissionId",
          "type": "bytes32"
        },
        {
          "indexed": false,
          "internalType": "bytes32",
          "name": "debridgeId",
          "type": "bytes32"
        },
        {
          "indexed": false,
          "internalType": "uint256",
          "name": "amount",
          "type": "uint256"
        },
        {
          "indexed": false,
          "internalType": "address",
          "name": "receiver",
          "type": "address"
        },
        {
          "indexed": false,
          "internalType": "uint256",
          "name": "nonce",
          "type": "uint256"
        },
        {
          "indexed": false,
          "internalType": "uint256",
          "name": "chainIdTo",
          "type": "uint256"
        }
      ],
      "name": "Sent",
      "type": "event"
    },
    {
      "anonymous": false,
      "inputs": [
        {
          "indexed": false,
          "internalType": "address",
          "name": "account",
          "type": "address"
        }
      ],
      "name": "Unpaused",
      "type": "event"
    },
    {
      "inputs": [],
      "name": "DEFAULT_ADMIN_ROLE",
      "outputs": [
        {
          "internalType": "bytes32",
          "name": "",
          "type": "bytes32"
        }
      ],
      "stateMutability": "view",
      "type": "function",
      "constant": true
    },
    {
      "inputs": [],
      "name": "DENOMINATOR",
      "outputs": [
        {
          "internalType": "uint256",
          "name": "",
          "type": "uint256"
        }
      ],
      "stateMutability": "view",
      "type": "function",
      "constant": true
    },
    {
      "inputs": [
        {
          "internalType": "address",
          "name": "_tokenAddress",
          "type": "address"
        },
        {
          "internalType": "address",
          "name": "_wrappedAssetAddress",
          "type": "address"
        },
        {
          "internalType": "uint256",
          "name": "_chainId",
          "type": "uint256"
        },
        {
          "internalType": "uint256",
          "name": "_minAmount",
          "type": "uint256"
        },
        {
          "internalType": "uint256",
          "name": "_minReserves",
          "type": "uint256"
        },
        {
          "internalType": "uint256[]",
          "name": "_supportedChainIds",
          "type": "uint256[]"
        },
        {
          "components": [
            {
              "internalType": "bool",
              "name": "isSupported",
              "type": "bool"
            },
            {
              "internalType": "uint256",
              "name": "fixedFee",
              "type": "uint256"
            },
            {
              "internalType": "uint256",
              "name": "transferFee",
              "type": "uint256"
            }
          ],
          "internalType": "struct IWhiteDebridge.ChainSupportInfo[]",
          "name": "_chainSupportInfo",
          "type": "tuple[]"
        }
      ],
      "name": "addExternalAsset",
      "outputs": [],
      "stateMutability": "nonpayable",
      "type": "function"
    },
    {
      "inputs": [
        {
          "internalType": "address",
          "name": "_tokenAddress",
          "type": "address"
        },
        {
          "internalType": "uint256",
          "name": "_minAmount",
          "type": "uint256"
        },
        {
          "internalType": "uint256",
          "name": "_minReserves",
          "type": "uint256"
        },
        {
          "internalType": "uint256[]",
          "name": "_supportedChainIds",
          "type": "uint256[]"
        },
        {
          "components": [
            {
              "internalType": "bool",
              "name": "isSupported",
              "type": "bool"
            },
            {
              "internalType": "uint256",
              "name": "fixedFee",
              "type": "uint256"
            },
            {
              "internalType": "uint256",
              "name": "transferFee",
              "type": "uint256"
            }
          ],
          "internalType": "struct IWhiteDebridge.ChainSupportInfo[]",
          "name": "_chainSupportInfo",
          "type": "tuple[]"
        }
      ],
      "name": "addNativeAsset",
      "outputs": [],
      "stateMutability": "nonpayable",
      "type": "function"
    },
    {
      "inputs": [],
      "name": "aggregator",
      "outputs": [
        {
          "internalType": "address",
          "name": "",
          "type": "address"
        }
      ],
      "stateMutability": "view",
      "type": "function",
      "constant": true
    },
    {
      "inputs": [],
      "name": "aggregatorVersion",
      "outputs": [
        {
          "internalType": "uint8",
          "name": "",
          "type": "uint8"
        }
      ],
      "stateMutability": "view",
      "type": "function",
      "constant": true
    },
    {
      "inputs": [
        {
          "internalType": "bytes32",
          "name": "_debridgeId",
          "type": "bytes32"
        },
        {
          "internalType": "address",
          "name": "_receiver",
          "type": "address"
        },
        {
          "internalType": "uint256",
          "name": "_amount",
          "type": "uint256"
        },
        {
          "internalType": "uint256",
          "name": "_chainIdTo",
          "type": "uint256"
        },
        {
          "internalType": "address",
          "name": "_fallbackAddress",
          "type": "address"
        },
        {
          "internalType": "uint256",
          "name": "_executionFee",
          "type": "uint256"
        },
        {
          "internalType": "bytes",
          "name": "_data",
          "type": "bytes"
        }
      ],
      "name": "autoBurn",
      "outputs": [],
      "stateMutability": "nonpayable",
      "type": "function"
    },
    {
      "inputs": [
        {
          "internalType": "bytes32",
          "name": "_debridgeId",
          "type": "bytes32"
        },
        {
          "internalType": "address",
          "name": "_receiver",
          "type": "address"
        },
        {
          "internalType": "uint256",
          "name": "_amount",
          "type": "uint256"
        },
        {
          "internalType": "uint256",
          "name": "_chainIdTo",
          "type": "uint256"
        },
        {
          "internalType": "address",
          "name": "_fallbackAddress",
          "type": "address"
        },
        {
          "internalType": "uint256",
          "name": "_executionFee",
          "type": "uint256"
        },
        {
          "internalType": "bytes",
          "name": "_data",
          "type": "bytes"
        }
      ],
      "name": "autoSend",
      "outputs": [],
      "stateMutability": "payable",
      "type": "function",
      "payable": true
    },
    {
      "inputs": [
        {
          "internalType": "bytes32",
          "name": "_debridgeId",
          "type": "bytes32"
        },
        {
          "internalType": "address",
          "name": "_receiver",
          "type": "address"
        },
        {
          "internalType": "uint256",
          "name": "_amount",
          "type": "uint256"
        },
        {
          "internalType": "uint256",
          "name": "_chainIdTo",
          "type": "uint256"
        }
      ],
      "name": "burn",
      "outputs": [],
      "stateMutability": "nonpayable",
      "type": "function"
    },
    {
      "inputs": [],
      "name": "callProxy",
      "outputs": [
        {
          "internalType": "address",
          "name": "",
          "type": "address"
        }
      ],
      "stateMutability": "view",
      "type": "function",
      "constant": true
    },
    {
      "inputs": [],
      "name": "chainId",
      "outputs": [
        {
          "internalType": "uint256",
          "name": "",
          "type": "uint256"
        }
      ],
      "stateMutability": "view",
      "type": "function",
      "constant": true
    },
    {
      "inputs": [
        {
          "internalType": "uint256",
          "name": "",
          "type": "uint256"
        }
      ],
      "name": "chainIds",
      "outputs": [
        {
          "internalType": "uint256",
          "name": "",
          "type": "uint256"
        }
      ],
      "stateMutability": "view",
      "type": "function",
      "constant": true
    },
    {
      "inputs": [],
      "name": "defiController",
      "outputs": [
        {
          "internalType": "contract IDefiController",
          "name": "",
          "type": "address"
        }
      ],
      "stateMutability": "view",
      "type": "function",
      "constant": true
    },
    {
      "inputs": [
        {
          "internalType": "bytes32",
          "name": "_debridgeId",
          "type": "bytes32"
        },
        {
          "internalType": "uint256",
          "name": "_chainIdFrom",
          "type": "uint256"
        },
        {
          "internalType": "uint256",
          "name": "_chainIdTo",
          "type": "uint256"
        },
        {
          "internalType": "uint256",
          "name": "_amount",
          "type": "uint256"
        },
        {
          "internalType": "address",
          "name": "_receiver",
          "type": "address"
        },
        {
          "internalType": "uint256",
          "name": "_nonce",
          "type": "uint256"
        },
        {
          "internalType": "address",
          "name": "_fallbackAddress",
          "type": "address"
        },
        {
          "internalType": "uint256",
          "name": "_executionFee",
          "type": "uint256"
        },
        {
          "internalType": "bytes",
          "name": "_data",
          "type": "bytes"
        }
      ],
      "name": "getAutoSubmisionId",
      "outputs": [
        {
          "internalType": "bytes32",
          "name": "",
          "type": "bytes32"
        }
      ],
      "stateMutability": "pure",
      "type": "function",
      "constant": true
    },
    {
      "inputs": [
        {
          "internalType": "address",
          "name": "_tokenAddress",
          "type": "address"
        }
      ],
      "name": "getBalance",
      "outputs": [
        {
          "internalType": "uint256",
          "name": "",
          "type": "uint256"
        }
      ],
      "stateMutability": "view",
      "type": "function",
      "constant": true
    },
    {
      "inputs": [
        {
          "internalType": "bytes32",
          "name": "_debridgeId",
          "type": "bytes32"
        },
        {
          "internalType": "uint256",
          "name": "_chainId",
          "type": "uint256"
        }
      ],
      "name": "getChainIdSupport",
      "outputs": [
        {
          "components": [
            {
              "internalType": "bool",
              "name": "isSupported",
              "type": "bool"
            },
            {
              "internalType": "uint256",
              "name": "fixedFee",
              "type": "uint256"
            },
            {
              "internalType": "uint256",
              "name": "transferFee",
              "type": "uint256"
            }
          ],
          "internalType": "struct IWhiteDebridge.ChainSupportInfo",
          "name": "",
          "type": "tuple"
        }
      ],
      "stateMutability": "view",
      "type": "function",
      "constant": true
    },
    {
      "inputs": [
        {
          "internalType": "bytes32",
          "name": "",
          "type": "bytes32"
        }
      ],
      "name": "getDebridge",
      "outputs": [
        {
          "internalType": "address",
          "name": "tokenAddress",
          "type": "address"
        },
        {
          "internalType": "uint256",
          "name": "chainId",
          "type": "uint256"
        },
        {
          "internalType": "uint256",
          "name": "minAmount",
          "type": "uint256"
        },
        {
          "internalType": "uint256",
          "name": "collectedFees",
          "type": "uint256"
        },
        {
          "internalType": "uint256",
          "name": "balance",
          "type": "uint256"
        },
        {
          "internalType": "uint256",
          "name": "minReserves",
          "type": "uint256"
        }
      ],
      "stateMutability": "view",
      "type": "function",
      "constant": true
    },
    {
      "inputs": [
        {
          "internalType": "uint256",
          "name": "_chainId",
          "type": "uint256"
        },
        {
          "internalType": "address",
          "name": "_tokenAddress",
          "type": "address"
        }
      ],
      "name": "getDebridgeId",
      "outputs": [
        {
          "internalType": "bytes32",
          "name": "",
          "type": "bytes32"
        }
      ],
      "stateMutability": "pure",
      "type": "function",
      "constant": true
    },
    {
      "inputs": [
        {
          "internalType": "uint8",
          "name": "",
          "type": "uint8"
        }
      ],
      "name": "getOldAggregator",
      "outputs": [
        {
          "internalType": "address",
          "name": "aggregator",
          "type": "address"
        },
        {
          "internalType": "bool",
          "name": "isValid",
          "type": "bool"
        }
      ],
      "stateMutability": "view",
      "type": "function",
      "constant": true
    },
    {
      "inputs": [
        {
          "internalType": "bytes32",
          "name": "role",
          "type": "bytes32"
        }
      ],
      "name": "getRoleAdmin",
      "outputs": [
        {
          "internalType": "bytes32",
          "name": "",
          "type": "bytes32"
        }
      ],
      "stateMutability": "view",
      "type": "function",
      "constant": true
    },
    {
      "inputs": [
        {
          "internalType": "bytes32",
          "name": "_debridgeId",
          "type": "bytes32"
        },
        {
          "internalType": "uint256",
          "name": "_chainIdFrom",
          "type": "uint256"
        },
        {
          "internalType": "uint256",
          "name": "_chainIdTo",
          "type": "uint256"
        },
        {
          "internalType": "uint256",
          "name": "_amount",
          "type": "uint256"
        },
        {
          "internalType": "address",
          "name": "_receiver",
          "type": "address"
        },
        {
          "internalType": "uint256",
          "name": "_nonce",
          "type": "uint256"
        }
      ],
      "name": "getSubmisionId",
      "outputs": [
        {
          "internalType": "bytes32",
          "name": "",
          "type": "bytes32"
        }
      ],
      "stateMutability": "pure",
      "type": "function",
      "constant": true
    },
    {
      "inputs": [
        {
          "internalType": "address",
          "name": "",
          "type": "address"
        }
      ],
      "name": "getUserNonce",
      "outputs": [
        {
          "internalType": "uint256",
          "name": "",
          "type": "uint256"
        }
      ],
      "stateMutability": "view",
      "type": "function",
      "constant": true
    },
    {
      "inputs": [
        {
          "internalType": "bytes32",
          "name": "role",
          "type": "bytes32"
        },
        {
          "internalType": "address",
          "name": "account",
          "type": "address"
        }
      ],
      "name": "grantRole",
      "outputs": [],
      "stateMutability": "nonpayable",
      "type": "function"
    },
    {
      "inputs": [
        {
          "internalType": "bytes32",
          "name": "role",
          "type": "bytes32"
        },
        {
          "internalType": "address",
          "name": "account",
          "type": "address"
        }
      ],
      "name": "hasRole",
      "outputs": [
        {
          "internalType": "bool",
          "name": "",
          "type": "bool"
        }
      ],
      "stateMutability": "view",
      "type": "function",
      "constant": true
    },
    {
      "inputs": [
        {
          "internalType": "bytes32",
          "name": "",
          "type": "bytes32"
        }
      ],
      "name": "isSubmissionUsed",
      "outputs": [
        {
          "internalType": "bool",
          "name": "",
          "type": "bool"
        }
      ],
      "stateMutability": "view",
      "type": "function",
      "constant": true
    },
    {
      "inputs": [
        {
          "internalType": "uint8",
          "name": "_aggregatorVersion",
          "type": "uint8"
        },
        {
          "internalType": "bool",
          "name": "_isValid",
          "type": "bool"
        }
      ],
      "name": "manageOldAggregator",
      "outputs": [],
      "stateMutability": "nonpayable",
      "type": "function"
    },
    {
      "inputs": [],
      "name": "pause",
      "outputs": [],
      "stateMutability": "nonpayable",
      "type": "function"
    },
    {
      "inputs": [],
      "name": "paused",
      "outputs": [
        {
          "internalType": "bool",
          "name": "",
          "type": "bool"
        }
      ],
      "stateMutability": "view",
      "type": "function",
      "constant": true
    },
    {
      "inputs": [
        {
          "internalType": "bytes32",
          "name": "role",
          "type": "bytes32"
        },
        {
          "internalType": "address",
          "name": "account",
          "type": "address"
        }
      ],
      "name": "renounceRole",
      "outputs": [],
      "stateMutability": "nonpayable",
      "type": "function"
    },
    {
      "inputs": [
        {
          "internalType": "address",
          "name": "_tokenAddress",
          "type": "address"
        },
        {
          "internalType": "uint256",
          "name": "_amount",
          "type": "uint256"
        }
      ],
      "name": "requestReserves",
      "outputs": [],
      "stateMutability": "nonpayable",
      "type": "function"
    },
    {
      "inputs": [
        {
          "internalType": "address",
          "name": "_tokenAddress",
          "type": "address"
        },
        {
          "internalType": "uint256",
          "name": "_amount",
          "type": "uint256"
        }
      ],
      "name": "returnReserves",
      "outputs": [],
      "stateMutability": "payable",
      "type": "function",
      "payable": true
    },
    {
      "inputs": [
        {
          "internalType": "bytes32",
          "name": "role",
          "type": "bytes32"
        },
        {
          "internalType": "address",
          "name": "account",
          "type": "address"
        }
      ],
      "name": "revokeRole",
      "outputs": [],
      "stateMutability": "nonpayable",
      "type": "function"
    },
    {
      "inputs": [
        {
          "internalType": "bytes32",
          "name": "_debridgeId",
          "type": "bytes32"
        },
        {
          "internalType": "address",
          "name": "_receiver",
          "type": "address"
        },
        {
          "internalType": "uint256",
          "name": "_amount",
          "type": "uint256"
        },
        {
          "internalType": "uint256",
          "name": "_chainIdTo",
          "type": "uint256"
        }
      ],
      "name": "send",
      "outputs": [],
      "stateMutability": "payable",
      "type": "function",
      "payable": true
    },
    {
      "inputs": [
        {
          "internalType": "address",
          "name": "_aggregator",
          "type": "address"
        }
      ],
      "name": "setAggregator",
      "outputs": [],
      "stateMutability": "nonpayable",
      "type": "function"
    },
    {
      "inputs": [
        {
          "internalType": "address",
          "name": "_callProxy",
          "type": "address"
        }
      ],
      "name": "setCallProxy",
      "outputs": [],
      "stateMutability": "nonpayable",
      "type": "function"
    },
    {
      "inputs": [
        {
          "internalType": "bytes32",
          "name": "_debridgeId",
          "type": "bytes32"
        },
        {
          "internalType": "uint256",
          "name": "_chainId",
          "type": "uint256"
        },
        {
          "internalType": "bool",
          "name": "_isSupported",
          "type": "bool"
        }
      ],
      "name": "setChainIdSupport",
      "outputs": [],
      "stateMutability": "nonpayable",
      "type": "function"
    },
    {
      "inputs": [
        {
          "internalType": "uint256[]",
          "name": "_chainIds",
          "type": "uint256[]"
        }
      ],
      "name": "setChainIds",
      "outputs": [],
      "stateMutability": "nonpayable",
      "type": "function"
    },
    {
      "inputs": [
        {
          "internalType": "contract IDefiController",
          "name": "_defiController",
          "type": "address"
        }
      ],
      "name": "setDefiController",
      "outputs": [],
      "stateMutability": "nonpayable",
      "type": "function"
    },
    {
      "inputs": [
        {
          "internalType": "bytes4",
          "name": "interfaceId",
          "type": "bytes4"
        }
      ],
      "name": "supportsInterface",
      "outputs": [
        {
          "internalType": "bool",
          "name": "",
          "type": "bool"
        }
      ],
      "stateMutability": "view",
      "type": "function",
      "constant": true
    },
    {
      "inputs": [],
      "name": "unpause",
      "outputs": [],
      "stateMutability": "nonpayable",
      "type": "function"
    },
    {
      "inputs": [
        {
          "internalType": "bytes32",
          "name": "_debridgeId",
          "type": "bytes32"
        },
        {
          "internalType": "uint256",
          "name": "_minAmount",
          "type": "uint256"
        },
        {
          "internalType": "uint256",
          "name": "_minReserves",
          "type": "uint256"
        }
      ],
      "name": "updateAsset",
      "outputs": [],
      "stateMutability": "nonpayable",
      "type": "function"
    },
    {
      "inputs": [
        {
          "internalType": "bytes32",
          "name": "_debridgeId",
          "type": "bytes32"
        },
        {
          "internalType": "uint256[]",
          "name": "_supportedChainIds",
          "type": "uint256[]"
        },
        {
          "components": [
            {
              "internalType": "bool",
              "name": "isSupported",
              "type": "bool"
            },
            {
              "internalType": "uint256",
              "name": "fixedFee",
              "type": "uint256"
            },
            {
              "internalType": "uint256",
              "name": "transferFee",
              "type": "uint256"
            }
          ],
          "internalType": "struct IWhiteDebridge.ChainSupportInfo[]",
          "name": "_chainSupportInfo",
          "type": "tuple[]"
        }
      ],
      "name": "updateAsset",
      "outputs": [],
      "stateMutability": "nonpayable",
      "type": "function"
    },
    {
      "inputs": [
        {
          "internalType": "bytes32",
          "name": "_debridgeId",
          "type": "bytes32"
        },
        {
          "internalType": "address",
          "name": "_receiver",
          "type": "address"
        },
        {
          "internalType": "uint256",
          "name": "_amount",
          "type": "uint256"
        }
      ],
      "name": "withdrawFee",
      "outputs": [],
      "stateMutability": "nonpayable",
      "type": "function"
    },
    {
      "inputs": [
        {
          "internalType": "uint256",
          "name": "_minAmount",
          "type": "uint256"
        },
        {
          "internalType": "uint256",
          "name": "_minReserves",
          "type": "uint256"
        },
        {
          "internalType": "address",
          "name": "_aggregator",
          "type": "address"
        },
        {
          "internalType": "address",
          "name": "_callProxy",
          "type": "address"
        },
        {
          "internalType": "uint256[]",
          "name": "_supportedChainIds",
          "type": "uint256[]"
        },
        {
          "components": [
            {
              "internalType": "bool",
              "name": "isSupported",
              "type": "bool"
            },
            {
              "internalType": "uint256",
              "name": "fixedFee",
              "type": "uint256"
            },
            {
              "internalType": "uint256",
              "name": "transferFee",
              "type": "uint256"
            }
          ],
          "internalType": "struct IWhiteDebridge.ChainSupportInfo[]",
          "name": "_chainSupportInfo",
          "type": "tuple[]"
        },
        {
          "internalType": "contract IDefiController",
          "name": "_defiController",
          "type": "address"
        }
      ],
      "name": "initialize",
      "outputs": [],
      "stateMutability": "payable",
      "type": "function",
      "payable": true
    },
    {
      "inputs": [
        {
          "internalType": "bytes32",
          "name": "_debridgeId",
          "type": "bytes32"
        },
        {
          "internalType": "uint256",
          "name": "_chainIdFrom",
          "type": "uint256"
        },
        {
          "internalType": "address",
          "name": "_receiver",
          "type": "address"
        },
        {
          "internalType": "uint256",
          "name": "_amount",
          "type": "uint256"
        },
        {
          "internalType": "uint256",
          "name": "_nonce",
          "type": "uint256"
        },
        {
          "internalType": "bytes[2][]",
          "name": "_trxData",
          "type": "bytes[2][]"
        },
        {
          "internalType": "address",
          "name": "_fallbackAddress",
          "type": "address"
        },
        {
          "internalType": "uint256",
          "name": "_executionFee",
          "type": "uint256"
        },
        {
          "internalType": "bytes",
          "name": "_data",
          "type": "bytes"
        }
      ],
      "name": "autoMint",
      "outputs": [],
      "stateMutability": "nonpayable",
      "type": "function"
    },
    {
      "inputs": [
        {
          "internalType": "bytes32",
          "name": "_debridgeId",
          "type": "bytes32"
        },
        {
          "internalType": "uint256",
          "name": "_chainIdFrom",
          "type": "uint256"
        },
        {
          "internalType": "address",
          "name": "_receiver",
          "type": "address"
        },
        {
          "internalType": "uint256",
          "name": "_amount",
          "type": "uint256"
        },
        {
          "internalType": "uint256",
          "name": "_nonce",
          "type": "uint256"
        },
        {
          "internalType": "bytes[2][]",
          "name": "_trxData",
          "type": "bytes[2][]"
        },
        {
          "internalType": "address",
          "name": "_fallbackAddress",
          "type": "address"
        },
        {
          "internalType": "uint256",
          "name": "_executionFee",
          "type": "uint256"
        },
        {
          "internalType": "bytes",
          "name": "_data",
          "type": "bytes"
        },
        {
          "internalType": "uint8",
          "name": "_aggregatorVersion",
          "type": "uint8"
        }
      ],
      "name": "autoMintWithOldAggregator",
      "outputs": [],
      "stateMutability": "nonpayable",
      "type": "function"
    },
    {
      "inputs": [
        {
          "internalType": "bytes32",
          "name": "_debridgeId",
          "type": "bytes32"
        },
        {
          "internalType": "uint256",
          "name": "_chainIdFrom",
          "type": "uint256"
        },
        {
          "internalType": "address",
          "name": "_receiver",
          "type": "address"
        },
        {
          "internalType": "uint256",
          "name": "_amount",
          "type": "uint256"
        },
        {
          "internalType": "uint256",
          "name": "_nonce",
          "type": "uint256"
        },
        {
          "internalType": "bytes[2][]",
          "name": "_trxData",
          "type": "bytes[2][]"
        }
      ],
      "name": "mint",
      "outputs": [],
      "stateMutability": "nonpayable",
      "type": "function"
    },
    {
      "inputs": [
        {
          "internalType": "bytes32",
          "name": "_debridgeId",
          "type": "bytes32"
        },
        {
          "internalType": "uint256",
          "name": "_chainIdFrom",
          "type": "uint256"
        },
        {
          "internalType": "address",
          "name": "_receiver",
          "type": "address"
        },
        {
          "internalType": "uint256",
          "name": "_amount",
          "type": "uint256"
        },
        {
          "internalType": "uint256",
          "name": "_nonce",
          "type": "uint256"
        },
        {
          "internalType": "bytes[2][]",
          "name": "_trxData",
          "type": "bytes[2][]"
        },
        {
          "internalType": "uint8",
          "name": "_aggregatorVersion",
          "type": "uint8"
        }
      ],
      "name": "mintWithOldAggregator",
      "outputs": [],
      "stateMutability": "nonpayable",
      "type": "function"
    },
    {
      "inputs": [
        {
          "internalType": "bytes32",
          "name": "_debridgeId",
          "type": "bytes32"
        },
        {
          "internalType": "uint256",
          "name": "_chainIdFrom",
          "type": "uint256"
        },
        {
          "internalType": "address",
          "name": "_receiver",
          "type": "address"
        },
        {
          "internalType": "uint256",
          "name": "_amount",
          "type": "uint256"
        },
        {
          "internalType": "uint256",
          "name": "_nonce",
          "type": "uint256"
        },
        {
          "internalType": "bytes[2][]",
          "name": "_trxData",
          "type": "bytes[2][]"
        }
      ],
      "name": "claim",
      "outputs": [],
      "stateMutability": "nonpayable",
      "type": "function"
    },
    {
      "inputs": [
        {
          "internalType": "bytes32",
          "name": "_debridgeId",
          "type": "bytes32"
        },
        {
          "internalType": "uint256",
          "name": "_chainIdFrom",
          "type": "uint256"
        },
        {
          "internalType": "address",
          "name": "_receiver",
          "type": "address"
        },
        {
          "internalType": "uint256",
          "name": "_amount",
          "type": "uint256"
        },
        {
          "internalType": "uint256",
          "name": "_nonce",
          "type": "uint256"
        },
        {
          "internalType": "bytes[2][]",
          "name": "_trxData",
          "type": "bytes[2][]"
        },
        {
          "internalType": "address",
          "name": "_fallbackAddress",
          "type": "address"
        },
        {
          "internalType": "uint256",
          "name": "_executionFee",
          "type": "uint256"
        },
        {
          "internalType": "bytes",
          "name": "_data",
          "type": "bytes"
        }
      ],
      "name": "autoClaim",
      "outputs": [],
      "stateMutability": "nonpayable",
      "type": "function"
    },
    {
      "inputs": [
        {
          "internalType": "bytes32",
          "name": "_debridgeId",
          "type": "bytes32"
        },
        {
          "internalType": "uint256",
          "name": "_chainIdFrom",
          "type": "uint256"
        },
        {
          "internalType": "address",
          "name": "_receiver",
          "type": "address"
        },
        {
          "internalType": "uint256",
          "name": "_amount",
          "type": "uint256"
        },
        {
          "internalType": "uint256",
          "name": "_nonce",
          "type": "uint256"
        },
        {
          "internalType": "bytes[2][]",
          "name": "_trxData",
          "type": "bytes[2][]"
        },
        {
          "internalType": "address",
          "name": "_fallbackAddress",
          "type": "address"
        },
        {
          "internalType": "uint256",
          "name": "_executionFee",
          "type": "uint256"
        },
        {
          "internalType": "bytes",
          "name": "_data",
          "type": "bytes"
        },
        {
          "internalType": "uint8",
          "name": "_aggregatorVersion",
          "type": "uint8"
        }
      ],
      "name": "autoClaimWithOldAggregator",
      "outputs": [],
      "stateMutability": "nonpayable",
      "type": "function"
    },
    {
      "inputs": [
        {
          "internalType": "bytes32",
          "name": "_debridgeId",
          "type": "bytes32"
        },
        {
          "internalType": "uint256",
          "name": "_chainIdFrom",
          "type": "uint256"
        },
        {
          "internalType": "address",
          "name": "_receiver",
          "type": "address"
        },
        {
          "internalType": "uint256",
          "name": "_amount",
          "type": "uint256"
        },
        {
          "internalType": "uint256",
          "name": "_nonce",
          "type": "uint256"
        },
        {
          "internalType": "bytes[2][]",
          "name": "_trxData",
          "type": "bytes[2][]"
        },
        {
          "internalType": "uint8",
          "name": "_aggregatorVersion",
          "type": "uint8"
        }
      ],
      "name": "claimWithOldAggregator",
      "outputs": [],
      "stateMutability": "nonpayable",
      "type": "function"
    }
  ],
  "bytecode": "0x608060405234801561001057600080fd5b50614a44806100206000396000f3fe6080604052600436106102ff5760003560e01c8063791c4a3711610190578063bea37c03116100dc578063d547741f11610095578063f7750bb41161006f578063f7750bb4146109f3578063f8b2cb4f14610a13578063f9120af614610a33578063f9e032c414610a53576102ff565b8063d547741f14610993578063e3024c15146109b3578063e562904d146109d3576102ff565b8063bea37c031461089c578063bf3d7341146108bc578063c012ce7f146108dc578063d1e39513146108fc578063d311f65614610940578063d385a6bf14610973576102ff565b80639682b90911610149578063a217fddf11610123578063a217fddf14610827578063b163a07c1461083c578063b4ccbfd31461085c578063be7f21841461087c576102ff565b80639682b909146107d1578063994f3aef146107f15780639a8a059214610811576102ff565b8063791c4a37146106df57806383d3f95d146106ff578063841b162b1461071f5780638456cb5914610780578063918f86741461079557806391d14854146107b1576102ff565b806336568abe1161024f5780635c975abb116102085780636b063d65116101e25780636b063d65146106795780636b7cbb691461068c5780636cbb1f05146106ac57806376d8e49d146106cc576102ff565b80635c975abb146105fd57806365ac9f781461061c5780636834e3a81461064c576102ff565b806336568abe146104d75780633f4ba83a146104f757806346144c8f1461050c5780634f30d8861461052c5780635352e9831461054c57806357cf07ca1461056c576102ff565b806321d93090116102bc5780632b0d0a8b116102965780632b0d0a8b146104575780632c440e56146104775780632da688ac146104975780632f2ff15d146104b7576102ff565b806321d93090146103c1578063245a7bfc146103ef578063248a9ca314610427576102ff565b806301ffc9a714610304578063031ac613146103395780630a0e5e9a1461034e5780630bbdf4ef1461036e578063106f432f1461038e57806317d449a2146103ae575b600080fd5b34801561031057600080fd5b5061032461031f366004614334565b610a73565b60405190151581526020015b60405180910390f35b61034c610347366004613e16565b610aac565b005b34801561035a57600080fd5b5061034c6103693660046141e3565b610bb1565b34801561037a57600080fd5b5061034c61038936600461421b565b610c71565b34801561039a57600080fd5b5061034c6103a9366004613bdb565b610cb5565b61034c6103bc366004614374565b610cfe565b3480156103cd57600080fd5b506103e16103dc366004613d98565b610dcf565b604051908152602001610330565b3480156103fb57600080fd5b5060035461040f906001600160a01b031681565b6040516001600160a01b039091168152602001610330565b34801561043357600080fd5b506103e1610442366004613d98565b60009081526020819052604090206001015490565b34801561046357600080fd5b5061034c610472366004613bdb565b610df0565b34801561048357600080fd5b5061034c610492366004613bf7565b610e6c565b3480156104a357600080fd5b5060045461040f906001600160a01b031681565b3480156104c357600080fd5b5061034c6104d2366004613db0565b610eb0565b3480156104e357600080fd5b5061034c6104f2366004613db0565b610f3f565b34801561050357600080fd5b5061034c610fb9565b34801561051857600080fd5b5060065461040f906001600160a01b031681565b34801561053857600080fd5b5061034c610547366004613fcd565b61103f565b34801561055857600080fd5b5061034c610567366004613e16565b611113565b34801561057857600080fd5b506105c6610587366004613d98565b6007602052600090815260409020805460018201546002830154600384015460048501546005909501546001600160a01b039094169492939192909186565b604080516001600160a01b0390971687526020870195909552938501929092526060840152608083015260a082015260c001610330565b34801561060957600080fd5b5061032460015462010000900460ff1690565b34801561062857600080fd5b50610324610637366004613d98565b60086020526000908152604090205460ff1681565b34801561065857600080fd5b506103e1610667366004613bdb565b60096020526000908152604090205481565b61034c610687366004613c99565b6111da565b34801561069857600080fd5b5061034c6106a736600461443b565b61127c565b3480156106b857600080fd5b5061034c6106c7366004613cc4565b61133f565b61034c6106da366004613e52565b61138f565b3480156106eb57600080fd5b5061034c6106fa366004613f53565b611517565b34801561070b57600080fd5b5061034c61071a366004613ddf565b6115f6565b34801561072b57600080fd5b5061076161073a366004614421565b600a602052600090815260409020546001600160a01b03811690600160a01b900460ff1682565b604080516001600160a01b039093168352901515602083015201610330565b34801561078c57600080fd5b5061034c61170c565b3480156107a157600080fd5b506103e1670de0b6b3a764000081565b3480156107bd57600080fd5b506103246107cc366004613db0565b61176a565b3480156107dd57600080fd5b506103e16107ec366004613db0565b611793565b3480156107fd57600080fd5b5061034c61080c366004614159565b6117e1565b34801561081d57600080fd5b506103e160025481565b34801561083357600080fd5b506103e1600081565b34801561084857600080fd5b5061034c610857366004613fcd565b611927565b34801561086857600080fd5b5061034c610877366004613ec9565b6119ee565b34801561088857600080fd5b5061034c610897366004613c99565b611ad4565b3480156108a857600080fd5b5061034c6108b736600461408b565b611c5c565b3480156108c857600080fd5b506103e16108d7366004614246565b611d8d565b3480156108e857600080fd5b5061034c6108f7366004614159565b611deb565b34801561090857600080fd5b5061091c610917366004613f32565b611f25565b60408051825115158152602080840151908201529181015190820152606001610330565b34801561094c57600080fd5b5060045461096190600160a01b900460ff1681565b60405160ff9091168152602001610330565b34801561097f57600080fd5b5061034c61098e366004613f53565b611f93565b34801561099f57600080fd5b5061034c6109ae366004613db0565b612072565b3480156109bf57600080fd5b5061034c6109ce366004613e52565b6120f2565b3480156109df57600080fd5b5061034c6109ee366004613d4a565b61223e565b3480156109ff57600080fd5b5061034c610a0e36600461408b565b6122a8565b348015610a1f57600080fd5b506103e1610a2e366004613bdb565b6123ca565b348015610a3f57600080fd5b5061034c610a4e366004613bdb565b61245f565b348015610a5f57600080fd5b506103e1610a6e36600461429a565b61252f565b60006001600160e01b03198216637965db0b60e01b1480610aa457506301ffc9a760e01b6001600160e01b03198316145b90505b919050565b610abe60015462010000900460ff1690565b15610ae45760405162461bcd60e51b8152600401610adb906147c7565b60405180910390fd5b610aef848383612577565b6001600160a01b03841660009081526009602052604081205460025492945091610b1e90879085878987611d8d565b60408051828152602081018990529081018690526001600160a01b03871660608201526080810184905260a081018590529091507f17c61cb89b62a3f29f5b150e3489c7a796ac4dc95fd73af14faa2c8086a324b49060c0015b60405180910390a16001600160a01b0385166000908152600960205260408120805491610ba483614981565b9190505550505050505050565b610bbc60003361176a565b610bd85760405162461bcd60e51b8152600401610adb906147f1565b600083815260076020908152604080832085845260068101909252909120805460ff19168315801591909117909155610c3d57604051839085907fdd4dbf80f57aa5115a1e07abb36e4de565879d4de5bd15b3803d666fe1d8486390600090a3610c6b565b604051839085907f86c512831f7a2aad3f56b4169c161be1028776ab950c72e26237a0310ded560690600090a35b50505050565b610c7c60003361176a565b610c985760405162461bcd60e51b8152600401610adb906147f1565b600092835260076020526040909220600281019190915560050155565b610cc060003361176a565b610cdc5760405162461bcd60e51b8152600401610adb906147f1565b600680546001600160a01b0319166001600160a01b0392909216919091179055565b600154610100900460ff1680610d17575060015460ff16155b610d7a5760405162461bcd60e51b815260206004820152602e60248201527f496e697469616c697a61626c653a20636f6e747261637420697320616c72656160448201526d191e481a5b9a5d1a585b1a5e995960921b6064820152608401610adb565b600154610100900460ff16158015610da4576001805460ff1961ff00199091166101001716811790555b610db3888888888888886127f1565b8015610dc5576001805461ff00191690555b5050505050505050565b60058181548110610ddf57600080fd5b600091825260209091200154905081565b610dfb60003361176a565b610e175760405162461bcd60e51b8152600401610adb906147f1565b600480546001600160a01b0319166001600160a01b0383169081179091556040519081527fa9543b36462a5e2c2259a14d72a8bd4e2342eaf9d7c828e9fb86921b3aa3eb5f906020015b60405180910390a150565b610e7760003361176a565b610e935760405162461bcd60e51b8152600401610adb906147f1565b6000610e9f8689611793565b9050610dc58188888888888861287f565b600082815260208190526040902060010154610ecd905b336107cc565b610f315760405162461bcd60e51b815260206004820152602f60248201527f416363657373436f6e74726f6c3a2073656e646572206d75737420626520616e60448201526e0818591b5a5b881d1bc819dc985b9d608a1b6064820152608401610adb565b610f3b8282612a46565b5050565b6001600160a01b0381163314610faf5760405162461bcd60e51b815260206004820152602f60248201527f416363657373436f6e74726f6c3a2063616e206f6e6c792072656e6f756e636560448201526e103937b632b9903337b91039b2b63360891b6064820152608401610adb565b610f3b8282612aca565b610fc460003361176a565b610fe05760405162461bcd60e51b8152600401610adb906147f1565b610ff260015462010000900460ff1690565b6110355760405162461bcd60e51b815260206004820152601460248201527314185d5cd8589b194e881b9bdd081c185d5cd95960621b6044820152606401610adb565b61103d612b2f565b565b60006110548b8b6002548b8d8c8a8a8a61252f565b600354604051631e49005360e11b81529192506001600160a01b031690633c9200a6906110899084908a908a906004016145ff565b602060405180830381600087803b1580156110a357600080fd5b505af11580156110b7573d6000803e3d6000fd5b505050506040513d601f19601f820116820180604052508101906110db9190613d7c565b6110f75760405162461bcd60e51b8152600401610adb9061481e565b611106818c8b8b888888612bc6565b5050505050505050505050565b61112560015462010000900460ff1690565b156111425760405162461bcd60e51b8152600401610adb906147c7565b61114d848383612efa565b6001600160a01b0384166000908152600960205260408120546002549294509161117c90879085878987611d8d565b60408051828152602081018990529081018690526001600160a01b03871660608201526080810184905260a081018590529091507fb8cc5195d548dc2781227c496b92d3736cd56d7f32b28971c9ae1e9eb0badf959060c001610b78565b6006546001600160a01b0316331461122f5760405162461bcd60e51b815260206004820152601860248201527764656669436f6e74726f6c6c65723a2062616420726f6c6560401b6044820152606401610adb565b600061123d60025484611793565b60008181526007602052604090208054919250906001600160a01b031615610c6b576006548154610c6b916001600160a01b03918216911630866131ca565b61128760003361176a565b6112a35760405162461bcd60e51b8152600401610adb906147f1565b60045460ff600160a01b9091048116908316106113105760405162461bcd60e51b815260206004820152602560248201527f6d616e6167654f6c6441676772656761746f723a2076657273696f6e20746f6f604482015264040d0d2ced60db1b6064820152608401610adb565b60ff9091166000908152600a602052604090208054911515600160a01b0260ff60a01b19909216919091179055565b61134a60003361176a565b6113665760405162461bcd60e51b8152600401610adb906147f1565b600061137460025487611793565b905061138781876002548888888861287f565b505050505050565b6113a160015462010000900460ff1690565b156113be5760405162461bcd60e51b8152600401610adb906147c7565b816114035760405162461bcd60e51b81526020600482015260156024820152746175746f53656e643a2066656520746f6f206c6f7760581b6044820152606401610adb565b61140e878686612577565b9450818510156114605760405162461bcd60e51b815260206004820152601f60248201527f6175746f53656e643a2070726f706f7365642066656520746f6f2068696768006044820152606401610adb565b61146a828661493e565b6001600160a01b0387166000908152600960205260408120546002549297509161149c908a90888a8c878b8b8b61252f565b90507fd6a26970ca5b3bad18e3f990daa2e30f9bffdd9933a65c8dfa45dbb963cb6811818a898b868b8a8a6040516114db9897969594939291906146e9565b60405180910390a16001600160a01b038816600090815260096020526040812080549161150783614981565b9190505550505050505050505050565b60006115298888600254888a89611d8d565b600354604051631e49005360e11b81529192506001600160a01b031690633c9200a69061155e908490879087906004016145ff565b602060405180830381600087803b15801561157857600080fd5b505af115801561158c573d6000803e3d6000fd5b505050506040513d601f19601f820116820180604052508101906115b09190613d7c565b6115cc5760405162461bcd60e51b8152600401610adb90614799565b610dc58189888860008060405180604001604052806002815260200161060f60f31b815250613235565b61160160003361176a565b61161d5760405162461bcd60e51b8152600401610adb906147f1565b6000838152600760205260409020600381015482111561167f5760405162461bcd60e51b815260206004820152601b60248201527f77697468647261774665653a206e6f7420656e6f7567682066656500000000006044820152606401610adb565b81816003016000828254611693919061493e565b909155505060025460018201541480156116b5575080546001600160a01b0316155b156116f6576040516001600160a01b0384169083156108fc029084906000818181858888f193505050501580156116f0573d6000803e3d6000fd5b50610c6b565b8054610c6b906001600160a01b031684846135e5565b61171760003361176a565b6117335760405162461bcd60e51b8152600401610adb906147f1565b61174560015462010000900460ff1690565b156117625760405162461bcd60e51b8152600401610adb906147c7565b61103d61361a565b6000918252602082815260408084206001600160a01b0393909316845291905290205460ff1690565b600082826040516020016117c392919091825260601b6bffffffffffffffffffffffff1916602082015260340190565b60405160208183030381529060405280519060200120905092915050565b60006117f38989600254898b8a611d8d565b60ff8084166000908152600a60209081526040918290208251808401909352546001600160a01b0381168352600160a01b900490921615159181018290529192506118505760405162461bcd60e51b8152600401610adb9061484b565b8051604051631e49005360e11b81526001600160a01b0390911690633c9200a690611883908590899089906004016145ff565b602060405180830381600087803b15801561189d57600080fd5b505af11580156118b1573d6000803e3d6000fd5b505050506040513d601f19601f820116820180604052508101906118d59190613d7c565b6118f15760405162461bcd60e51b8152600401610adb90614799565b61191b828b8a8a60008060405180604001604052806002815260200161060f60f31b815250613235565b50505050505050505050565b600061193c8b8b6002548b8d8c8a8a8a61252f565b600354604051631e49005360e11b81529192506001600160a01b031690633c9200a6906119719084908a908a906004016145ff565b602060405180830381600087803b15801561198b57600080fd5b505af115801561199f573d6000803e3d6000fd5b505050506040513d601f19601f820116820180604052508101906119c39190613d7c565b6119df5760405162461bcd60e51b8152600401610adb90614799565b611106818c8b8b888888613235565b6119f960003361176a565b611a155760405162461bcd60e51b8152600401610adb906147f1565b6000838152600760205260408120905b8351811015611acd57828181518110611a4e57634e487b7160e01b600052603260045260246000fd5b6020026020010151826006016000868481518110611a7c57634e487b7160e01b600052603260045260246000fd5b60209081029190910181015182528181019290925260409081016000208351815460ff1916901515178155918301516001830155919091015160029091015580611ac581614981565b915050611a25565b5050505050565b6006546001600160a01b03163314611b295760405162461bcd60e51b815260206004820152601860248201527764656669436f6e74726f6c6c65723a2062616420726f6c6560401b6044820152606401610adb565b6000611b3760025484611793565b6000818152600760205260408120600581015460048201549394509092670de0b6b3a764000091611b679161491f565b611b7191906148ff565b8254909150600090611b8b906001600160a01b03166123ca565b905080611b9886846148e7565b11611bf15760405162461bcd60e51b8152602060048201526024808201527f7265717565737452657365727665733a206e6f7420656e6f75676820726573656044820152637276657360e01b6064820152608401610adb565b82546001600160a01b0316611c40576006546040516001600160a01b039091169086156108fc029087906000818181858888f19350505050158015611c3a573d6000803e3d6000fd5b50611387565b6006548354611387916001600160a01b039182169116876135e5565b6000611c718c8c6002548c8e8d8b8b8b61252f565b60ff8084166000908152600a60209081526040918290208251808401909352546001600160a01b0381168352600160a01b90049092161515918101829052919250611cce5760405162461bcd60e51b8152600401610adb90614751565b8051604051631e49005360e11b81526001600160a01b0390911690633c9200a690611d019085908c908c906004016145ff565b602060405180830381600087803b158015611d1b57600080fd5b505af1158015611d2f573d6000803e3d6000fd5b505050506040513d601f19601f82011682018060405250810190611d539190613d7c565b611d6f5760405162461bcd60e51b8152600401610adb9061481e565b611d7e828e8d8d8a8a8a612bc6565b50505050505050505050505050565b60408051602080820198909852808201969096526060808701959095526080860193909352921b6bffffffffffffffffffffffff191660a084015260b4808401929092528051808403909201825260d4909201909152805191012090565b6000611dfd8989600254898b8a611d8d565b60ff8084166000908152600a60209081526040918290208251808401909352546001600160a01b0381168352600160a01b90049092161515918101829052919250611e5a5760405162461bcd60e51b8152600401610adb90614751565b8051604051631e49005360e11b81526001600160a01b0390911690633c9200a690611e8d908590899089906004016145ff565b602060405180830381600087803b158015611ea757600080fd5b505af1158015611ebb573d6000803e3d6000fd5b505050506040513d601f19601f82011682018060405250810190611edf9190613d7c565b611efb5760405162461bcd60e51b8152600401610adb9061481e565b61191b828b8a8a60008060405180604001604052806002815260200161060f60f31b815250612bc6565b611f4b604051806060016040528060001515815260200160008152602001600081525090565b50600091825260076020908152604080842092845260069092018152918190208151606081018352815460ff1615158152600182015493810193909352600201549082015290565b6000611fa58888600254888a89611d8d565b600354604051631e49005360e11b81529192506001600160a01b031690633c9200a690611fda908490879087906004016145ff565b602060405180830381600087803b158015611ff457600080fd5b505af1158015612008573d6000803e3d6000fd5b505050506040513d601f19601f8201168201806040525081019061202c9190613d7c565b6120485760405162461bcd60e51b8152600401610adb9061481e565b610dc58189888860008060405180604001604052806002815260200161060f60f31b815250612bc6565b60008281526020819052604090206001015461208d90610ec7565b610faf5760405162461bcd60e51b815260206004820152603060248201527f416363657373436f6e74726f6c3a2073656e646572206d75737420626520616e60448201526f2061646d696e20746f207265766f6b6560801b6064820152608401610adb565b61210460015462010000900460ff1690565b156121215760405162461bcd60e51b8152600401610adb906147c7565b816121665760405162461bcd60e51b81526020600482015260156024820152746175746f4275726e3a2066656520746f6f206c6f7760581b6044820152606401610adb565b612171878686612efa565b9450818510156121c35760405162461bcd60e51b815260206004820152601f60248201527f6175746f4275726e3a2070726f706f7365642066656520746f6f2068696768006044820152606401610adb565b6121cd828661493e565b6001600160a01b038716600090815260096020526040812054600254929750916121ff908a90888a8c878b8b8b61252f565b90507f36a268c961c097e1f744d1ce89408dd36212025f95204538cd463fba9e22cada818a898b868b8a8a6040516114db9897969594939291906146e9565b61224960003361176a565b6122655760405162461bcd60e51b8152600401610adb906147f1565b80516122789060059060208401906139a3565b507fc96689ced54dda42d1f32f295881474112291c08120448bec2f7b10f5297e88f81604051610e6191906145bb565b60006122bd8c8c6002548c8e8d8b8b8b61252f565b60ff8084166000908152600a60209081526040918290208251808401909352546001600160a01b0381168352600160a01b9004909216151591810182905291925061231a5760405162461bcd60e51b8152600401610adb9061484b565b8051604051631e49005360e11b81526001600160a01b0390911690633c9200a69061234d9085908c908c906004016145ff565b602060405180830381600087803b15801561236757600080fd5b505af115801561237b573d6000803e3d6000fd5b505050506040513d601f19601f8201168201806040525081019061239f9190613d7c565b6123bb5760405162461bcd60e51b8152600401610adb90614799565b611d7e828e8d8d8a8a8a613235565b60006001600160a01b0382166123e1575047610aa7565b6040516370a0823160e01b81523060048201526001600160a01b038316906370a082319060240160206040518083038186803b15801561242057600080fd5b505afa158015612434573d6000803e3d6000fd5b505050506040513d601f19601f82011682018060405250810190612458919061435c565b9050610aa7565b61246a60003361176a565b6124865760405162461bcd60e51b8152600401610adb906147f1565b604080518082018252600380546001600160a01b039081168352600160208085019182526004805460ff600160a01b9182900481166000908152600a909452979092209551865493511515830260ff60a01b199186166001600160a01b0319958616179190911617909555835492871692909116919091179091558154049091169060146125138361499c565b91906101000a81548160ff021916908360ff1602179055505050565b6000898989898989898989604051602001612552999897969594939291906144bc565b6040516020818303038152906040528051906020012090509998505050505050505050565b60008381526007602090815260408083208484526006810183528184208251606081018452815460ff16151581526001808301549582019590955260029182015493810193909352549281015490921461260c5760405162461bcd60e51b815260206004820152601660248201527539b2b7321d103737ba103730ba34bb329031b430b4b760511b6044820152606401610adb565b805161265a5760405162461bcd60e51b815260206004820152601860248201527f73656e643a2077726f6e672074617267656420636861696e00000000000000006044820152606401610adb565b81600201548510156126a55760405162461bcd60e51b815260206004820152601460248201527373656e643a20616d6f756e7420746f6f206c6f7760601b6044820152606401610adb565b81546001600160a01b0316612700573485146126fb5760405162461bcd60e51b81526020600482015260156024820152740e6cadcc87440c2dadeeadce840dad2e6dac2e8c6d605b1b6044820152606401610adb565b612717565b8154612717906001600160a01b03163330886131ca565b6000670de0b6b3a7640000826040015187612732919061491f565b61273c91906148ff565b826020015161274b91906148e7565b905080156127ca57808610156127a35760405162461bcd60e51b815260206004820152601b60248201527f73656e643a20616d6f756e74206e6f7420636f766572206665657300000000006044820152606401610adb565b808360030160008282546127b791906148e7565b909155506127c79050818761493e565b95505b858360040160008282546127de91906148e7565b90915550869450505050505b9392505050565b46600281905560006128038282611793565b90506128178160006002548c8c8a8a61287f565b600380546001600160a01b03808a166001600160a01b0319928316179092556004805492891692909116919091179055845161285a9060059060208801906139a3565b506006546001600160a01b03169250612874600033610f31565b505050505050505050565b80518251146128df5760405162461bcd60e51b815260206004820152602660248201527f5f61646441737365743a2077726f6e6720636861696e20737570706f7274206c604482015265656e6774687360d01b6064820152608401610adb565b600087815260076020526040812080546001600160a01b0319166001600160a01b03891617815560018101879055600281018690556005810185905590805b84518110156129ec5784818151811061294757634e487b7160e01b600052603260045260246000fd5b6020026020010151915083818151811061297157634e487b7160e01b600052603260045260246000fd5b602090810291909101810151600084815260068601835260408082208351815460ff1916901515178155938301516001850155918201516002909301929092555183918c917fdd4dbf80f57aa5115a1e07abb36e4de565879d4de5bd15b3803d666fe1d848639190a3806129e481614981565b91505061291e565b5086886001600160a01b03168a7f7c33f0d8ed76eeed3663e9bc2346d5d0d43847e247f615a54ac02b20741724968989604051612a33929190918252602082015260400190565b60405180910390a4505050505050505050565b612a50828261176a565b610f3b576000828152602081815260408083206001600160a01b03851684529091529020805460ff19166001179055612a863390565b6001600160a01b0316816001600160a01b0316837f2f8788117e7eff1d82e926ec794901d17c78024a50270940304540a733656f0d60405160405180910390a45050565b612ad4828261176a565b15610f3b576000828152602081815260408083206001600160a01b0385168085529252808320805460ff1916905551339285917ff6391f5c32d9c69d2a47ea670b442974b53935d1edc7fd64eb21e047a839171b9190a45050565b612b4160015462010000900460ff1690565b612b845760405162461bcd60e51b815260206004820152601460248201527314185d5cd8589b194e881b9bdd081c185d5cd95960621b6044820152606401610adb565b6001805462ff0000191690556040513381527f5db9ee0a495bf2e6ff9c91a7834c1ba4fdd244a5e8aa4e537bd38aeae4b073aa906020015b60405180910390a1565b60008781526008602052604090205460ff1615612c1a5760405162461bcd60e51b81526020600482015260126024820152711b5a5b9d0e88185b1c9958591e481d5cd95960721b6044820152606401610adb565b60008681526007602090815260408083208a84526008909252909120805460ff19166001908117909155600254908201541415612c915760405162461bcd60e51b815260206004820152601560248201527436b4b73a1d1034b9903730ba34bb329031b430b4b760591b6044820152606401610adb565b8215612e365780546040516340c10f1960e01b8152336004820152602481018590526001600160a01b03909116906340c10f1990604401600060405180830381600087803b158015612ce257600080fd5b505af1158015612cf6573d6000803e3d6000fd5b50508254600480546040516340c10f1960e01b81526001600160a01b0391821692810192909252602482018a905290911692506340c10f199150604401600060405180830381600087803b158015612d4d57600080fd5b505af1158015612d61573d6000803e3d6000fd5b5050600480548454604051633bab642f60e01b8152600095506001600160a01b039283169450633bab642f93612da193909216918a918d918a9101614548565b602060405180830381600087803b158015612dbb57600080fd5b505af1158015612dcf573d6000803e3d6000fd5b505050506040513d601f19601f82011682018060405250810190612df39190613d7c565b604080518b815282151560208201529192507f36c8142a7dcbbfde02c55b345b75761d6761eb241d6c504a0df77c0730b52fe9910160405180910390a150612e9c565b80546040516340c10f1960e01b81526001600160a01b03888116600483015260248201889052909116906340c10f1990604401600060405180830381600087803b158015612e8357600080fd5b505af1158015612e97573d6000803e3d6000fd5b505050505b60408051898152602081018790526001600160a01b03881691810191909152606081018890527f5918a95fd00afb5898499bd5beade1619e98655d2b4ff6e0f6a4347f0a69c127906080015b60405180910390a15050505050505050565b60008381526007602090815260408083208484526006810183528184208251606081018452815460ff16151581526001808301549582019590955260029182015493810193909352549281015490921415612f8c5760405162461bcd60e51b8152602060048201526012602482015271189d5c9b8e881b985d1a5d9948185cdcd95d60721b6044820152606401610adb565b8051612fda5760405162461bcd60e51b815260206004820152601860248201527f6275726e3a2077726f6e672074617267656420636861696e00000000000000006044820152606401610adb565b81600201548510156130255760405162461bcd60e51b81526020600482015260146024820152736275726e3a20616d6f756e7420746f6f206c6f7760601b6044820152606401610adb565b81546040516323b872dd60e01b8152336004820152306024820152604481018790526001600160a01b039091169081906323b872dd90606401602060405180830381600087803b15801561307857600080fd5b505af115801561308c573d6000803e3d6000fd5b505050506040513d601f19601f820116820180604052508101906130b09190613d7c565b506000670de0b6b3a76400008360400151886130cc919061491f565b6130d691906148ff565b83602001516130e591906148e7565b90508015613164578087101561313d5760405162461bcd60e51b815260206004820152601b60248201527f6275726e3a20616d6f756e74206e6f7420636f766572206665657300000000006044820152606401610adb565b8084600301600082825461315191906148e7565b909155506131619050818861493e565b96505b604051630852cd8d60e31b8152600481018890526001600160a01b038316906342966c6890602401600060405180830381600087803b1580156131a657600080fd5b505af11580156131ba573d6000803e3d6000fd5b50989a9950505050505050505050565b6040516001600160a01b0380851660248301528316604482015260648101829052610c6b9085906323b872dd60e01b906084015b60408051601f198184030181529190526020810180516001600160e01b03166001600160e01b03199093169290921790915261368a565b60008681526007602052604090206002546001820154146132985760405162461bcd60e51b815260206004820152601960248201527f636c61696d3a2077726f6e672074617267657420636861696e000000000000006044820152606401610adb565b60008881526008602052604090205460ff16156132ed5760405162461bcd60e51b815260206004820152601360248201527218db185a5b4e88185b1c9958591e481d5cd959606a1b6044820152606401610adb565b6000888152600860205260408120805460ff1916600117905560048201805487929061331a90849061493e565b9091555061332a9050818661375c565b80546001600160a01b031661347757821561343a57604051339084156108fc029085906000818181858888f1935050505015801561336c573d6000803e3d6000fd5b506004805460405163c435b14b60e01b81526000926001600160a01b039092169163c435b14b9189916133a5918a918d918a9101614586565b6020604051808303818588803b1580156133be57600080fd5b505af11580156133d2573d6000803e3d6000fd5b50505050506040513d601f19601f820116820180604052508101906133f79190613d7c565b604080518b815282151560208201529192507f36c8142a7dcbbfde02c55b345b75761d6761eb241d6c504a0df77c0730b52fe9910160405180910390a150613472565b6040516001600160a01b0387169086156108fc029087906000818181858888f19350505050158015613470573d6000803e3d6000fd5b505b613595565b821561357f578054613493906001600160a01b031633856135e5565b60045481546134af916001600160a01b039182169116876135e5565b600480548254604051633bab642f60e01b81526000936001600160a01b0393841693633bab642f936134ea939116918a918d918a9101614548565b602060405180830381600087803b15801561350457600080fd5b505af1158015613518573d6000803e3d6000fd5b505050506040513d601f19601f8201168201806040525081019061353c9190613d7c565b604080518b815282151560208201529192507f36c8142a7dcbbfde02c55b345b75761d6761eb241d6c504a0df77c0730b52fe9910160405180910390a150613595565b8054613595906001600160a01b031687876135e5565b60408051898152602081018790526001600160a01b03881691810191909152606081018890527fabe3bed2a8590dd123c1a018888bce6142d526741bed65dfe570fb223525c6a490608001612ee8565b6040516001600160a01b03831660248201526044810182905261361590849063a9059cbb60e01b906064016131fe565b505050565b61362c60015462010000900460ff1690565b156136495760405162461bcd60e51b8152600401610adb906147c7565b6001805462ff00001916620100001790556040513381527f62e78cea01bee320cd4e420270b5ea74000d11b0c9f74754ebdbfc544b05a25890602001612bbc565b60006136df826040518060400160405280602081526020017f5361666545524332303a206c6f772d6c6576656c2063616c6c206661696c6564815250856001600160a01b031661382b9092919063ffffffff16565b80519091501561361557808060200190518101906136fd9190613d7c565b6136155760405162461bcd60e51b815260206004820152602a60248201527f5361666545524332303a204552433230206f7065726174696f6e20646964206e6044820152691bdd081cdd58d8d9595960b21b6064820152608401610adb565b6000670de0b6b3a76400008360050154846004015461377b919061491f565b61378591906148ff565b835490915060009061379f906001600160a01b03166123ca565b905060008383116137b057836137b2565b825b905081811115611acd576137c6828261493e565b60065486546040516309e62b9160e01b81526001600160a01b0391821660048201526024810184905292935016906309e62b9190604401600060405180830381600087803b15801561381757600080fd5b505af1158015612874573d6000803e3d6000fd5b606061383a8484600085613842565b949350505050565b6060824710156138a35760405162461bcd60e51b815260206004820152602660248201527f416464726573733a20696e73756666696369656e742062616c616e636520666f6044820152651c8818d85b1b60d21b6064820152608401610adb565b843b6138f15760405162461bcd60e51b815260206004820152601d60248201527f416464726573733a2063616c6c20746f206e6f6e2d636f6e74726163740000006044820152606401610adb565b600080866001600160a01b0316858760405161390d919061452c565b60006040518083038185875af1925050503d806000811461394a576040519150601f19603f3d011682016040523d82523d6000602084013e61394f565b606091505b509150915061395f82828661396a565b979650505050505050565b606083156139795750816127ea565b8251156139895782518084602001fd5b8160405162461bcd60e51b8152600401610adb919061473e565b8280548282559060005260206000209081019282156139de579160200282015b828111156139de5782518255916020019190600101906139c3565b506139ea9291506139ee565b5090565b5b808211156139ea57600081556001016139ef565b8035610aa7816149e8565b60008083601f840112613a1f578182fd5b5081356001600160401b03811115613a35578182fd5b6020830191508360208083028501011115613a4f57600080fd5b9250929050565b600082601f830112613a66578081fd5b81356020613a7b613a76836148c4565b614894565b82815281810190858301606080860288018501891015613a99578687fd5b865b86811015613aeb5781838b031215613ab1578788fd5b613aba82614894565b8335613ac581614a00565b815283870135878201526040808501359082015285529385019391810191600101613a9b565b509198975050505050505050565b600082601f830112613b09578081fd5b81356020613b19613a76836148c4565b8281528181019085830183850287018401881015613b35578586fd5b855b85811015613b5357813584529284019290840190600101613b37565b5090979650505050505050565b600082601f830112613b70578081fd5b81356001600160401b03811115613b8957613b896149d2565b613b9c601f8201601f1916602001614894565b818152846020838601011115613bb0578283fd5b816020850160208301379081016020019190915292915050565b803560ff81168114610aa757600080fd5b600060208284031215613bec578081fd5b81356127ea816149e8565b600080600080600080600060e0888a031215613c11578283fd5b8735613c1c816149e8565b96506020880135613c2c816149e8565b955060408801359450606088013593506080880135925060a08801356001600160401b0380821115613c5c578384fd5b613c688b838c01613af9565b935060c08a0135915080821115613c7d578283fd5b50613c8a8a828b01613a56565b91505092959891949750929550565b60008060408385031215613cab578182fd5b8235613cb6816149e8565b946020939093013593505050565b600080600080600060a08688031215613cdb578081fd5b8535613ce6816149e8565b9450602086013593506040860135925060608601356001600160401b0380821115613d0f578283fd5b613d1b89838a01613af9565b93506080880135915080821115613d30578283fd5b50613d3d88828901613a56565b9150509295509295909350565b600060208284031215613d5b578081fd5b81356001600160401b03811115613d70578182fd5b61383a84828501613af9565b600060208284031215613d8d578081fd5b81516127ea81614a00565b600060208284031215613da9578081fd5b5035919050565b60008060408385031215613dc2578182fd5b823591506020830135613dd4816149e8565b809150509250929050565b600080600060608486031215613df3578081fd5b833592506020840135613e05816149e8565b929592945050506040919091013590565b60008060008060808587031215613e2b578182fd5b843593506020850135613e3d816149e8565b93969395505050506040820135916060013590565b600080600080600080600060e0888a031215613e6c578081fd5b873596506020880135613e7e816149e8565b955060408801359450606088013593506080880135613e9c816149e8565b925060a0880135915060c08801356001600160401b03811115613ebd578182fd5b613c8a8a828b01613b60565b600080600060608486031215613edd578081fd5b8335925060208401356001600160401b0380821115613efa578283fd5b613f0687838801613af9565b93506040860135915080821115613f1b578283fd5b50613f2886828701613a56565b9150509250925092565b60008060408385031215613f44578182fd5b50508035926020909101359150565b600080600080600080600060c0888a031215613f6d578081fd5b87359650602088013595506040880135613f86816149e8565b9450606088013593506080880135925060a08801356001600160401b03811115613fae578182fd5b613fba8a828b01613a0e565b989b979a50959850939692959293505050565b6000806000806000806000806000806101208b8d031215613fec578384fd5b8a35995060208b0135985060408b0135614005816149e8565b975060608b0135965060808b0135955060a08b01356001600160401b038082111561402e578586fd5b61403a8e838f01613a0e565b909750955060c08d0135915061404f826149e8565b90935060e08c013592506101008c0135908082111561406c578283fd5b506140798d828e01613b60565b9150509295989b9194979a5092959850565b60008060008060008060008060008060006101408c8e0312156140ac578485fd5b8b359a5060208c013599506140c360408d01613a03565b985060608c0135975060808c013596506001600160401b038060a08e013511156140eb578586fd5b6140fb8e60a08f01358f01613a0e565b909750955061410c60c08e01613a03565b945060e08d01359350806101008e01351115614126578182fd5b506141388d6101008e01358e01613b60565b91506141476101208d01613bca565b90509295989b509295989b9093969950565b60008060008060008060008060e0898b031215614174578182fd5b8835975060208901359650604089013561418d816149e8565b9550606089013594506080890135935060a08901356001600160401b038111156141b5578283fd5b6141c18b828c01613a0e565b90945092506141d4905060c08a01613bca565b90509295985092959890939650565b6000806000606084860312156141f7578081fd5b8335925060208401359150604084013561421081614a00565b809150509250925092565b60008060006060848603121561422f578081fd5b505081359360208301359350604090920135919050565b60008060008060008060c0878903121561425e578384fd5b863595506020870135945060408701359350606087013592506080870135614285816149e8565b8092505060a087013590509295509295509295565b60008060008060008060008060006101208a8c0312156142b8578283fd5b8935985060208a0135975060408a0135965060608a0135955060808a01356142df816149e8565b945060a08a0135935060c08a01356142f6816149e8565b925060e08a013591506101008a01356001600160401b03811115614318578182fd5b6143248c828d01613b60565b9150509295985092959850929598565b600060208284031215614345578081fd5b81356001600160e01b0319811681146127ea578182fd5b60006020828403121561436d578081fd5b5051919050565b600080600080600080600060e0888a03121561438e578081fd5b873596506020880135955060408801356143a7816149e8565b945060608801356143b7816149e8565b935060808801356001600160401b03808211156143d2578283fd5b6143de8b838c01613af9565b945060a08a01359150808211156143f3578283fd5b506144008a828b01613a56565b92505060c0880135614411816149e8565b8091505092959891949750929550565b600060208284031215614432578081fd5b6127ea82613bca565b6000806040838503121561444d578182fd5b61445683613bca565b91506020830135613dd481614a00565b60008284528282602086013780602084860101526020601f19601f85011685010190509392505050565b600081518084526144a8816020860160208601614955565b601f01601f19169290920160200192915050565b60008a82528960208301528860408301528760608301526bffffffffffffffffffffffff19808860601b166080840152866094840152808660601b1660b4840152508360c883015282516145178160e8850160208701614955565b9190910160e8019a9950505050505050505050565b6000825161453e818460208701614955565b9190910192915050565b6001600160a01b03858116825284811660208301528316604082015260806060820181905260009061457c90830184614490565b9695505050505050565b6001600160a01b038481168252831660208201526060604082018190526000906145b290830184614490565b95945050505050565b6020808252825182820181905260009190848201906040850190845b818110156145f3578351835292840192918401916001016145d7565b50909695505050505050565b6000604080830186845260208281860152818683526060860190506060828802870101925087855b888110156146da57878503605f190183528135368b9003603e1901811261464c578788fd5b8a0185878101828a36829003601e19015b60028210156146c2578a840385528235818112614678578d8efd5b860180356001600160401b0381111561468f578e8ffd5b80360388131561469d578e8ffd5b6146aa86828e8501614466565b968c019695505050918901916001919091019061465d565b50919850505093850193505090830190600101614627565b50929998505050505050505050565b60006101008a835289602084015288604084015260018060a01b03881660608401528660808401528560a08401528460c08401528060e084015261472f81840185614490565b9b9a5050505050505050505050565b6000602082526127ea6020830184614490565b60208082526028908201527f6d696e74576974684f6c6441676772656761746f723a20696e76616c6964416760408201526733b932b3b0ba37b960c11b606082015260800190565b60208082526014908201527318db185a5b4e881b9bdd0818dbdb999a5c9b595960621b604082015260600190565b60208082526010908201526f14185d5cd8589b194e881c185d5cd95960821b604082015260600190565b6020808252601390820152726f6e6c7941646d696e3a2062616420726f6c6560681b604082015260600190565b6020808252601390820152721b5a5b9d0e881b9bdd0818dbdb999a5c9b5959606a1b604082015260600190565b60208082526029908201527f6d696e74576974684f6c6441676772656761746f723a20696e76616c6964206160408201526833b3b932b3b0ba37b960b91b606082015260800190565b604051601f8201601f191681016001600160401b03811182821017156148bc576148bc6149d2565b604052919050565b60006001600160401b038211156148dd576148dd6149d2565b5060209081020190565b600082198211156148fa576148fa6149bc565b500190565b60008261491a57634e487b7160e01b81526012600452602481fd5b500490565b6000816000190483118215151615614939576149396149bc565b500290565b600082821015614950576149506149bc565b500390565b60005b83811015614970578181015183820152602001614958565b83811115610c6b5750506000910152565b6000600019821415614995576149956149bc565b5060010190565b600060ff821660ff8114156149b3576149b36149bc565b60010192915050565b634e487b7160e01b600052601160045260246000fd5b634e487b7160e01b600052604160045260246000fd5b6001600160a01b03811681146149fd57600080fd5b50565b80151581146149fd57600080fdfea2646970667358221220dbb9ffceedf91ee0ef9839ba7c49c351eccbfd9f7c5b659b3bc872f374f7b90464736f6c63430008020033",
  "immutableReferences": {},
  "source": "// SPDX-License-Identifier: MIT\npragma solidity ^0.8.2;\n\nimport \"@openzeppelin/contracts/token/ERC20/IERC20.sol\";\nimport \"@openzeppelin/contracts/token/ERC20/utils/SafeERC20.sol\";\nimport \"../interfaces/IWhiteLightAggregator.sol\";\nimport \"../interfaces/IWhiteLightDebridge.sol\";\nimport \"./WhiteDebridge.sol\";\n\ncontract WhiteLightDebridge is WhiteDebridge, IWhiteLightDebridge {\n    using SafeERC20 for IERC20;\n\n    /// @dev Constructor that initializes the most important configurations.\n    /// @param _minAmount Minimal amount of current chain token to be wrapped.\n    /// @param _minReserves Minimal reserve ratio.\n    /// @param _aggregator Submission aggregator address.\n    /// @param _supportedChainIds Chain ids where native token of the current chain can be wrapped.\n    function initialize(\n        uint256 _minAmount,\n        uint256 _minReserves,\n        address _aggregator,\n        address _callProxy,\n        uint256[] memory _supportedChainIds,\n        ChainSupportInfo[] memory _chainSupportInfo,\n        IDefiController _defiController\n    ) public payable initializer {\n        super._initialize(\n            _minAmount,\n            _minReserves,\n            _aggregator,\n            _callProxy,\n            _supportedChainIds,\n            _chainSupportInfo,\n            _defiController\n        );\n    }\n\n    /// @dev Mints wrapped asset on the current chain.\n    /// @param _debridgeId Asset identifier.\n    /// @param _receiver Receiver address.\n    /// @param _amount Amount of the transfered asset (note: without applyed fee).\n    /// @param _nonce Submission id.\n    /// @param _trxData Array of transactions by oracles of 2 elements - payload up to the receiver address and the signature bytes.\n    /// @param _fallbackAddress Receiver of the tokens if the call fails.\n    /// @param _executionFee Fee paid to the transaction executor.\n    /// @param _data Chain id of the target chain.\n    function autoMint(\n        bytes32 _debridgeId,\n        uint256 _chainIdFrom,\n        address _receiver,\n        uint256 _amount,\n        uint256 _nonce,\n        bytes[2][] calldata _trxData,\n        address _fallbackAddress,\n        uint256 _executionFee,\n        bytes memory _data\n    ) external {\n        bytes32 submissionId =\n            getAutoSubmisionId(\n                _debridgeId,\n                _chainIdFrom,\n                chainId,\n                _amount,\n                _receiver,\n                _nonce,\n                _fallbackAddress,\n                _executionFee,\n                _data\n            );\n        require(\n            IWhiteLightAggregator(aggregator).submit(submissionId, _trxData),\n            \"mint: not confirmed\"\n        );\n        _mint(\n            submissionId,\n            _debridgeId,\n            _receiver,\n            _amount,\n            _fallbackAddress,\n            _executionFee,\n            _data\n        );\n    }\n\n    /// @dev Mints wrapped asset on the current chain.\n    /// @param _debridgeId Asset identifier.\n    /// @param _receiver Receiver address.\n    /// @param _amount Amount of the transfered asset (note: without applyed fee).\n    /// @param _nonce Submission id.\n    /// @param _trxData Array of transactions by oracles of 2 elements - payload up to the receiver address and the signature bytes.\n    /// @param _fallbackAddress Receiver of the tokens if the call fails.\n    /// @param _executionFee Fee paid to the transaction executor.\n    /// @param _data Chain id of the target chain.\n    function autoMintWithOldAggregator(\n        bytes32 _debridgeId,\n        uint256 _chainIdFrom,\n        address _receiver,\n        uint256 _amount,\n        uint256 _nonce,\n        bytes[2][] calldata _trxData,\n        address _fallbackAddress,\n        uint256 _executionFee,\n        bytes memory _data,\n        uint8 _aggregatorVersion\n    ) external {\n        bytes32 submissionId =\n            getAutoSubmisionId(\n                _debridgeId,\n                _chainIdFrom,\n                chainId,\n                _amount,\n                _receiver,\n                _nonce,\n                _fallbackAddress,\n                _executionFee,\n                _data\n            );\n        AggregatorInfo memory aggregatorInfo =\n            getOldAggregator[_aggregatorVersion];\n        require(\n            aggregatorInfo.isValid,\n            \"mintWithOldAggregator: invalidAggregator\"\n        );\n        require(\n            IWhiteLightAggregator(aggregatorInfo.aggregator).submit(\n                submissionId,\n                _trxData\n            ),\n            \"mint: not confirmed\"\n        );\n        _mint(\n            submissionId,\n            _debridgeId,\n            _receiver,\n            _amount,\n            _fallbackAddress,\n            _executionFee,\n            _data\n        );\n    }\n\n    /// @dev Mints wrapped asset on the current chain.\n    /// @param _debridgeId Asset identifier.\n    /// @param _receiver Receiver address.\n    /// @param _amount Amount of the transfered asset (note: without applyed fee).\n    /// @param _nonce Submission id.\n    /// @param _trxData Array of transactions by oracles of 2 elements - payload up to the receiver address and the signature bytes.\n    function mint(\n        bytes32 _debridgeId,\n        uint256 _chainIdFrom,\n        address _receiver,\n        uint256 _amount,\n        uint256 _nonce,\n        bytes[2][] calldata _trxData\n    ) external override {\n        bytes32 submissionId =\n            getSubmisionId(\n                _debridgeId,\n                _chainIdFrom,\n                chainId,\n                _amount,\n                _receiver,\n                _nonce\n            );\n        require(\n            IWhiteLightAggregator(aggregator).submit(submissionId, _trxData),\n            \"mint: not confirmed\"\n        );\n        _mint(\n            submissionId,\n            _debridgeId,\n            _receiver,\n            _amount,\n            address(0),\n            0,\n            \"0x\"\n        );\n    }\n\n    /// @dev Mints wrapped asset on the current chain.\n    /// @param _debridgeId Asset identifier.\n    /// @param _receiver Receiver address.\n    /// @param _amount Amount of the transfered asset (note: without applyed fee).\n    /// @param _nonce Submission id.\n    /// @param _trxData Array of transactions by oracles of 2 elements - payload up to the receiver address and the signature bytes.\n    /// @param _aggregatorVersion Aggregator version.\n    function mintWithOldAggregator(\n        bytes32 _debridgeId,\n        uint256 _chainIdFrom,\n        address _receiver,\n        uint256 _amount,\n        uint256 _nonce,\n        bytes[2][] calldata _trxData,\n        uint8 _aggregatorVersion\n    ) external override {\n        bytes32 submissionId =\n            getSubmisionId(\n                _debridgeId,\n                _chainIdFrom,\n                chainId,\n                _amount,\n                _receiver,\n                _nonce\n            );\n        AggregatorInfo memory aggregatorInfo =\n            getOldAggregator[_aggregatorVersion];\n        require(\n            aggregatorInfo.isValid,\n            \"mintWithOldAggregator: invalidAggregator\"\n        );\n        require(\n            IWhiteLightAggregator(aggregatorInfo.aggregator).submit(\n                submissionId,\n                _trxData\n            ),\n            \"mint: not confirmed\"\n        );\n        _mint(\n            submissionId,\n            _debridgeId,\n            _receiver,\n            _amount,\n            address(0),\n            0,\n            \"0x\"\n        );\n    }\n\n    /// @dev Unlock the asset on the current chain and transfer to receiver.\n    /// @param _debridgeId Asset identifier.\n    /// @param _receiver Receiver address.\n    /// @param _amount Amount of the transfered asset (note: the fee can be applyed).\n    /// @param _nonce Submission id.\n    /// @param _trxData Array of transactions by oracles of 2 elements - payload up to the receiver address and the signature bytes.\n    function claim(\n        bytes32 _debridgeId,\n        uint256 _chainIdFrom,\n        address _receiver,\n        uint256 _amount,\n        uint256 _nonce,\n        bytes[2][] calldata _trxData\n    ) external override {\n        bytes32 submissionId =\n            getSubmisionId(\n                _debridgeId,\n                _chainIdFrom,\n                chainId,\n                _amount,\n                _receiver,\n                _nonce\n            );\n        require(\n            IWhiteLightAggregator(aggregator).submit(submissionId, _trxData),\n            \"claim: not confirmed\"\n        );\n        _claim(\n            submissionId,\n            _debridgeId,\n            _receiver,\n            _amount,\n            address(0),\n            0,\n            \"0x\"\n        );\n    }\n\n    /// @dev Unlock the asset on the current chain and transfer to receiver.\n    /// @param _debridgeId Asset identifier.\n    /// @param _receiver Receiver address.\n    /// @param _amount Amount of the transfered asset (note: the fee can be applyed).\n    /// @param _nonce Submission id.\n    /// @param _trxData Array of transactions by oracles of 2 elements - payload up to the receiver address and the signature bytes.\n    /// @param _fallbackAddress Receiver of the tokens if the call fails.\n    /// @param _executionFee Fee paid to the transaction executor.\n    /// @param _data Chain id of the target chain.\n    function autoClaim(\n        bytes32 _debridgeId,\n        uint256 _chainIdFrom,\n        address _receiver,\n        uint256 _amount,\n        uint256 _nonce,\n        bytes[2][] calldata _trxData,\n        address _fallbackAddress,\n        uint256 _executionFee,\n        bytes memory _data\n    ) external {\n        bytes32 submissionId =\n            getAutoSubmisionId(\n                _debridgeId,\n                _chainIdFrom,\n                chainId,\n                _amount,\n                _receiver,\n                _nonce,\n                _fallbackAddress,\n                _executionFee,\n                _data\n            );\n        require(\n            IWhiteLightAggregator(aggregator).submit(submissionId, _trxData),\n            \"claim: not confirmed\"\n        );\n        _claim(\n            submissionId,\n            _debridgeId,\n            _receiver,\n            _amount,\n            _fallbackAddress,\n            _executionFee,\n            _data\n        );\n    }\n\n    /// @dev Unlock the asset on the current chain and transfer to receiver.\n    /// @param _debridgeId Asset identifier.\n    /// @param _receiver Receiver address.\n    /// @param _amount Amount of the transfered asset (note: the fee can be applyed).\n    /// @param _nonce Submission id.\n    /// @param _trxData Array of transactions by oracles of 2 elements - payload up to the receiver address and the signature bytes.\n    /// @param _fallbackAddress Receiver of the tokens if the call fails.\n    /// @param _executionFee Fee paid to the transaction executor.\n    /// @param _data Chain id of the target chain.\n    function autoClaimWithOldAggregator(\n        bytes32 _debridgeId,\n        uint256 _chainIdFrom,\n        address _receiver,\n        uint256 _amount,\n        uint256 _nonce,\n        bytes[2][] calldata _trxData,\n        address _fallbackAddress,\n        uint256 _executionFee,\n        bytes memory _data,\n        uint8 _aggregatorVersion\n    ) external {\n        bytes32 submissionId =\n            getAutoSubmisionId(\n                _debridgeId,\n                _chainIdFrom,\n                chainId,\n                _amount,\n                _receiver,\n                _nonce,\n                _fallbackAddress,\n                _executionFee,\n                _data\n            );\n        AggregatorInfo memory aggregatorInfo =\n            getOldAggregator[_aggregatorVersion];\n        require(\n            aggregatorInfo.isValid,\n            \"mintWithOldAggregator: invalid aggregator\"\n        );\n        require(\n            IWhiteLightAggregator(aggregatorInfo.aggregator).submit(\n                submissionId,\n                _trxData\n            ),\n            \"claim: not confirmed\"\n        );\n        _claim(\n            submissionId,\n            _debridgeId,\n            _receiver,\n            _amount,\n            _fallbackAddress,\n            _executionFee,\n            _data\n        );\n    }\n\n    /// @dev Unlock the asset on the current chain and transfer to receiver.\n    /// @param _debridgeId Asset identifier.\n    /// @param _receiver Receiver address.\n    /// @param _amount Amount of the transfered asset (note: the fee can be applyed).\n    /// @param _nonce Submission id.\n    /// @param _trxData Array of transactions by oracles of 2 elements - payload up to the receiver address and the signature bytes.\n    /// @param _aggregatorVersion Aggregator version.\n    function claimWithOldAggregator(\n        bytes32 _debridgeId,\n        uint256 _chainIdFrom,\n        address _receiver,\n        uint256 _amount,\n        uint256 _nonce,\n        bytes[2][] calldata _trxData,\n        uint8 _aggregatorVersion\n    ) external override {\n        bytes32 submissionId =\n            getSubmisionId(\n                _debridgeId,\n                _chainIdFrom,\n                chainId,\n                _amount,\n                _receiver,\n                _nonce\n            );\n        AggregatorInfo memory aggregatorInfo =\n            getOldAggregator[_aggregatorVersion];\n        require(\n            aggregatorInfo.isValid,\n            \"mintWithOldAggregator: invalid aggregator\"\n        );\n        require(\n            IWhiteLightAggregator(aggregatorInfo.aggregator).submit(\n                submissionId,\n                _trxData\n            ),\n            \"claim: not confirmed\"\n        );\n        _claim(\n            submissionId,\n            _debridgeId,\n            _receiver,\n            _amount,\n            address(0),\n            0,\n            \"0x\"\n        );\n    }\n}\n",
  "sourcePath": "/Users/kstasi/Documents/side/debridge-contracts/contracts/transfers/WhiteLightDebridge.sol",
  "compiler": {
    "name": "solc",
    "version": "0.8.2+commit.661d1103.Emscripten.clang"
  },
  "schemaVersion": "3.3.4",
  "updatedAt": "2021-05-09T06:55:57.528Z",
  "networkType": "ethereum",
  "devdoc": {
    "kind": "dev",
    "methods": {
      "addExternalAsset(address,address,uint256,uint256,uint256,uint256[],(bool,uint256,uint256)[])": {
        "details": "Add support for the asset from the other chain, deploy new wrapped asset.",
        "params": {
          "_chainId": "Current chain id.",
          "_minAmount": "Minimal amount of the asset to be wrapped.",
          "_minReserves": "Minimal reserve ration.",
          "_supportedChainIds": "Chain ids where the token of the current chain can be transfered.",
          "_tokenAddress": "Address of the asset on the other chain.",
          "_wrappedAssetAddress": "Wrapped asset address."
        }
      },
      "addNativeAsset(address,uint256,uint256,uint256[],(bool,uint256,uint256)[])": {
        "details": "Add support for the asset on the current chain.",
        "params": {
          "_minAmount": "Minimal amount of current chain token to be wrapped.",
          "_minReserves": "Minimal reserve ration.",
          "_supportedChainIds": "Chain ids where native token of the current chain can be wrapped.",
          "_tokenAddress": "Address of the asset on the current chain."
        }
      },
      "autoBurn(bytes32,address,uint256,uint256,address,uint256,bytes)": {
        "details": "Burns wrapped asset and allowss to claim it on the other chain.",
        "params": {
          "_amount": "Amount of the transfered asset (note: the fee can be applyed).",
          "_chainIdTo": "Chain id of the target chain.",
          "_data": "Chain id of the target chain.",
          "_debridgeId": "Asset identifier.",
          "_executionFee": "Fee paid to the transaction executor.",
          "_fallbackAddress": "Receiver of the tokens if the call fails.",
          "_receiver": "Receiver address."
        }
      },
      "autoClaim(bytes32,uint256,address,uint256,uint256,bytes[2][],address,uint256,bytes)": {
        "details": "Unlock the asset on the current chain and transfer to receiver.",
        "params": {
          "_amount": "Amount of the transfered asset (note: the fee can be applyed).",
          "_data": "Chain id of the target chain.",
          "_debridgeId": "Asset identifier.",
          "_executionFee": "Fee paid to the transaction executor.",
          "_fallbackAddress": "Receiver of the tokens if the call fails.",
          "_nonce": "Submission id.",
          "_receiver": "Receiver address.",
          "_trxData": "Array of transactions by oracles of 2 elements - payload up to the receiver address and the signature bytes."
        }
      },
      "autoClaimWithOldAggregator(bytes32,uint256,address,uint256,uint256,bytes[2][],address,uint256,bytes,uint8)": {
        "details": "Unlock the asset on the current chain and transfer to receiver.",
        "params": {
          "_amount": "Amount of the transfered asset (note: the fee can be applyed).",
          "_data": "Chain id of the target chain.",
          "_debridgeId": "Asset identifier.",
          "_executionFee": "Fee paid to the transaction executor.",
          "_fallbackAddress": "Receiver of the tokens if the call fails.",
          "_nonce": "Submission id.",
          "_receiver": "Receiver address.",
          "_trxData": "Array of transactions by oracles of 2 elements - payload up to the receiver address and the signature bytes."
        }
      },
      "autoMint(bytes32,uint256,address,uint256,uint256,bytes[2][],address,uint256,bytes)": {
        "details": "Mints wrapped asset on the current chain.",
        "params": {
          "_amount": "Amount of the transfered asset (note: without applyed fee).",
          "_data": "Chain id of the target chain.",
          "_debridgeId": "Asset identifier.",
          "_executionFee": "Fee paid to the transaction executor.",
          "_fallbackAddress": "Receiver of the tokens if the call fails.",
          "_nonce": "Submission id.",
          "_receiver": "Receiver address.",
          "_trxData": "Array of transactions by oracles of 2 elements - payload up to the receiver address and the signature bytes."
        }
      },
      "autoMintWithOldAggregator(bytes32,uint256,address,uint256,uint256,bytes[2][],address,uint256,bytes,uint8)": {
        "details": "Mints wrapped asset on the current chain.",
        "params": {
          "_amount": "Amount of the transfered asset (note: without applyed fee).",
          "_data": "Chain id of the target chain.",
          "_debridgeId": "Asset identifier.",
          "_executionFee": "Fee paid to the transaction executor.",
          "_fallbackAddress": "Receiver of the tokens if the call fails.",
          "_nonce": "Submission id.",
          "_receiver": "Receiver address.",
          "_trxData": "Array of transactions by oracles of 2 elements - payload up to the receiver address and the signature bytes."
        }
      },
      "autoSend(bytes32,address,uint256,uint256,address,uint256,bytes)": {
        "details": "Locks asset on the chain and enables minting on the other chain.",
        "params": {
          "_amount": "Amount to be transfered (note: the fee can be applyed).",
          "_chainIdTo": "Chain id of the target chain.",
          "_data": "Chain id of the target chain.",
          "_debridgeId": "Asset identifier.",
          "_executionFee": "Fee paid to the transaction executor.",
          "_fallbackAddress": "Receiver of the tokens if the call fails.",
          "_receiver": "Receiver address."
        }
      },
      "burn(bytes32,address,uint256,uint256)": {
        "details": "Burns wrapped asset and allowss to claim it on the other chain.",
        "params": {
          "_amount": "Amount of the transfered asset (note: the fee can be applyed).",
          "_chainIdTo": "Chain id of the target chain.",
          "_debridgeId": "Asset identifier.",
          "_receiver": "Receiver address."
        }
      },
      "claim(bytes32,uint256,address,uint256,uint256,bytes[2][])": {
        "details": "Unlock the asset on the current chain and transfer to receiver.",
        "params": {
          "_amount": "Amount of the transfered asset (note: the fee can be applyed).",
          "_debridgeId": "Asset identifier.",
          "_nonce": "Submission id.",
          "_receiver": "Receiver address.",
          "_trxData": "Array of transactions by oracles of 2 elements - payload up to the receiver address and the signature bytes."
        }
      },
      "claimWithOldAggregator(bytes32,uint256,address,uint256,uint256,bytes[2][],uint8)": {
        "details": "Unlock the asset on the current chain and transfer to receiver.",
        "params": {
          "_aggregatorVersion": "Aggregator version.",
          "_amount": "Amount of the transfered asset (note: the fee can be applyed).",
          "_debridgeId": "Asset identifier.",
          "_nonce": "Submission id.",
          "_receiver": "Receiver address.",
          "_trxData": "Array of transactions by oracles of 2 elements - payload up to the receiver address and the signature bytes."
        }
      },
      "getAutoSubmisionId(bytes32,uint256,uint256,uint256,address,uint256,address,uint256,bytes)": {
        "details": "Calculate submission id for auto claimable transfer.",
        "params": {
          "_amount": "Amount of the transfered asset (note: the fee can be applyed).",
          "_chainIdFrom": "Chain identifier of the chain where tokens are sent from.",
          "_chainIdTo": "Chain identifier of the chain where tokens are sent to.",
          "_data": "Chain id of the target chain.",
          "_debridgeId": "Asset identifier.",
          "_executionFee": "Fee paid to the transaction executor.",
          "_fallbackAddress": "Receiver of the tokens if the call fails.",
          "_nonce": "Submission id.",
          "_receiver": "Receiver address."
        }
      },
      "getBalance(address)": {
        "details": "Get the balance.",
        "params": {
          "_tokenAddress": "Address of the asset on the other chain."
        }
      },
      "getChainIdSupport(bytes32,uint256)": {
        "details": "Check if transfer to chain is supported.",
        "params": {
          "_chainId": "Chain identifier.",
          "_debridgeId": "Asset identifier."
        }
      },
      "getDebridgeId(uint256,address)": {
        "details": "Calculates asset identifier.",
        "params": {
          "_chainId": "Current chain id.",
          "_tokenAddress": "Address of the asset on the other chain."
        }
      },
      "getRoleAdmin(bytes32)": {
        "details": "Returns the admin role that controls `role`. See {grantRole} and {revokeRole}. To change a role's admin, use {_setRoleAdmin}."
      },
      "getSubmisionId(bytes32,uint256,uint256,uint256,address,uint256)": {
        "details": "Calculate submission id.",
        "params": {
          "_amount": "Amount of the transfered asset (note: the fee can be applyed).",
          "_chainIdFrom": "Chain identifier of the chain where tokens are sent from.",
          "_chainIdTo": "Chain identifier of the chain where tokens are sent to.",
          "_debridgeId": "Asset identifier.",
          "_nonce": "Submission id.",
          "_receiver": "Receiver address."
        }
      },
      "grantRole(bytes32,address)": {
        "details": "Grants `role` to `account`. If `account` had not been already granted `role`, emits a {RoleGranted} event. Requirements: - the caller must have ``role``'s admin role."
      },
      "hasRole(bytes32,address)": {
        "details": "Returns `true` if `account` has been granted `role`."
      },
      "initialize(uint256,uint256,address,address,uint256[],(bool,uint256,uint256)[],address)": {
        "details": "Constructor that initializes the most important configurations.",
        "params": {
          "_aggregator": "Submission aggregator address.",
          "_minAmount": "Minimal amount of current chain token to be wrapped.",
          "_minReserves": "Minimal reserve ratio.",
          "_supportedChainIds": "Chain ids where native token of the current chain can be wrapped."
        }
      },
      "manageOldAggregator(uint8,bool)": {
        "details": "Set aggregator address.",
        "params": {
          "_aggregatorVersion": "Submission aggregator address.",
          "_isValid": "Is valid."
        }
      },
      "mint(bytes32,uint256,address,uint256,uint256,bytes[2][])": {
        "details": "Mints wrapped asset on the current chain.",
        "params": {
          "_amount": "Amount of the transfered asset (note: without applyed fee).",
          "_debridgeId": "Asset identifier.",
          "_nonce": "Submission id.",
          "_receiver": "Receiver address.",
          "_trxData": "Array of transactions by oracles of 2 elements - payload up to the receiver address and the signature bytes."
        }
      },
      "mintWithOldAggregator(bytes32,uint256,address,uint256,uint256,bytes[2][],uint8)": {
        "details": "Mints wrapped asset on the current chain.",
        "params": {
          "_aggregatorVersion": "Aggregator version.",
          "_amount": "Amount of the transfered asset (note: without applyed fee).",
          "_debridgeId": "Asset identifier.",
          "_nonce": "Submission id.",
          "_receiver": "Receiver address.",
          "_trxData": "Array of transactions by oracles of 2 elements - payload up to the receiver address and the signature bytes."
        }
      },
      "pause()": {
        "details": "Stop all transfers."
      },
      "paused()": {
        "details": "Returns true if the contract is paused, and false otherwise."
      },
      "renounceRole(bytes32,address)": {
        "details": "Revokes `role` from the calling account. Roles are often managed via {grantRole} and {revokeRole}: this function's purpose is to provide a mechanism for accounts to lose their privileges if they are compromised (such as when a trusted device is misplaced). If the calling account had been granted `role`, emits a {RoleRevoked} event. Requirements: - the caller must be `account`."
      },
      "requestReserves(address,uint256)": {
        "details": "Request the assets to be used in defi protocol.",
        "params": {
          "_amount": "Amount of tokens to request.",
          "_tokenAddress": "Asset address."
        }
      },
      "returnReserves(address,uint256)": {
        "details": "Return the assets that were used in defi protocol.",
        "params": {
          "_amount": "Amount of tokens to claim.",
          "_tokenAddress": "Asset address."
        }
      },
      "revokeRole(bytes32,address)": {
        "details": "Revokes `role` from `account`. If `account` had been granted `role`, emits a {RoleRevoked} event. Requirements: - the caller must have ``role``'s admin role."
      },
      "send(bytes32,address,uint256,uint256)": {
        "details": "Locks asset on the chain and enables minting on the other chain.",
        "params": {
          "_amount": "Amount to be transfered (note: the fee can be applyed).",
          "_chainIdTo": "Chain id of the target chain.",
          "_debridgeId": "Asset identifier.",
          "_receiver": "Receiver address."
        }
      },
      "setAggregator(address)": {
        "details": "Set aggregator address.",
        "params": {
          "_aggregator": "Submission aggregator address."
        }
      },
      "setCallProxy(address)": {
        "details": "Set proxy address.",
        "params": {
          "_callProxy": "Address of the proxy that executes external calls."
        }
      },
      "setChainIdSupport(bytes32,uint256,bool)": {
        "details": "Set support for the chains where the token can be transfered.",
        "params": {
          "_chainId": "Current chain id.",
          "_debridgeId": "Asset identifier.",
          "_isSupported": "Whether the token is transferable to the other chain."
        }
      },
      "setChainIds(uint256[])": {
        "details": "Set support for the chains.",
        "params": {
          "_chainIds": "All supported chain ids."
        }
      },
      "setDefiController(address)": {
        "details": "Set defi controoler.",
        "params": {
          "_defiController": "Defi controller address address."
        }
      },
      "supportsInterface(bytes4)": {
        "details": "See {IERC165-supportsInterface}."
      },
      "unpause()": {
        "details": "Allow transfers."
      },
      "updateAsset(bytes32,uint256,uint256)": {
        "details": "Add support for the asset.",
        "params": {
          "_debridgeId": "Asset identifier.",
          "_minAmount": "Minimal amount of the asset to be wrapped.",
          "_minReserves": "Minimal reserve ration."
        }
      },
      "updateAsset(bytes32,uint256[],(bool,uint256,uint256)[])": {
        "details": "Update asset's fees.",
        "params": {
          "_chainSupportInfo": "Cahin support info.",
          "_debridgeId": "Asset identifier.",
          "_supportedChainIds": "Chain identifiers."
        }
      },
      "withdrawFee(bytes32,address,uint256)": {
        "details": "Withdraw fees.",
        "params": {
          "_amount": "Amount of tokens to withdraw.",
          "_debridgeId": "Asset identifier.",
          "_receiver": "Receiver address."
        }
      }
    },
    "version": 1
  },
  "userdoc": {
    "kind": "user",
    "methods": {},
    "version": 1
  }
}