{
  "contractName": "WhiteLightNFTDebridge",
  "abi": [
    {
      "anonymous": false,
      "inputs": [
        {
          "indexed": false,
          "internalType": "bytes32",
          "name": "submissionId",
          "type": "bytes32"
        },
        {
          "indexed": false,
          "internalType": "bool",
          "name": "success",
          "type": "bool"
        }
      ],
      "name": "AutoRequestExecuted",
      "type": "event"
    },
    {
      "anonymous": false,
      "inputs": [
        {
          "indexed": false,
          "internalType": "bytes32",
          "name": "submissionId",
          "type": "bytes32"
        },
        {
          "indexed": false,
          "internalType": "bytes32",
          "name": "debridgeId",
          "type": "bytes32"
        },
        {
          "indexed": false,
          "internalType": "uint256",
          "name": "tokenId",
          "type": "uint256"
        },
        {
          "indexed": false,
          "internalType": "address",
          "name": "receiver",
          "type": "address"
        },
        {
          "indexed": false,
          "internalType": "uint256",
          "name": "nonce",
          "type": "uint256"
        },
        {
          "indexed": false,
          "internalType": "uint256",
          "name": "chainIdTo",
          "type": "uint256"
        }
      ],
      "name": "Burnt",
      "type": "event"
    },
    {
      "anonymous": false,
      "inputs": [
        {
          "indexed": false,
          "internalType": "address",
          "name": "callProxy",
          "type": "address"
        }
      ],
      "name": "CallProxyUpdated",
      "type": "event"
    },
    {
      "anonymous": false,
      "inputs": [
        {
          "indexed": true,
          "internalType": "bytes32",
          "name": "debridgeId",
          "type": "bytes32"
        },
        {
          "indexed": true,
          "internalType": "uint256",
          "name": "chainId",
          "type": "uint256"
        }
      ],
      "name": "ChainSupportAdded",
      "type": "event"
    },
    {
      "anonymous": false,
      "inputs": [
        {
          "indexed": true,
          "internalType": "bytes32",
          "name": "debridgeId",
          "type": "bytes32"
        },
        {
          "indexed": true,
          "internalType": "uint256",
          "name": "chainId",
          "type": "uint256"
        }
      ],
      "name": "ChainSupportRemoved",
      "type": "event"
    },
    {
      "anonymous": false,
      "inputs": [
        {
          "indexed": false,
          "internalType": "uint256[]",
          "name": "chainIds",
          "type": "uint256[]"
        }
      ],
      "name": "ChainsSupportUpdated",
      "type": "event"
    },
    {
      "anonymous": false,
      "inputs": [
        {
          "indexed": false,
          "internalType": "bytes32",
          "name": "submissionId",
          "type": "bytes32"
        },
        {
          "indexed": false,
          "internalType": "uint256",
          "name": "tokenId",
          "type": "uint256"
        },
        {
          "indexed": false,
          "internalType": "address",
          "name": "receiver",
          "type": "address"
        },
        {
          "indexed": false,
          "internalType": "bytes32",
          "name": "debridgeId",
          "type": "bytes32"
        }
      ],
      "name": "Claimed",
      "type": "event"
    },
    {
      "anonymous": false,
      "inputs": [
        {
          "indexed": false,
          "internalType": "bytes32",
          "name": "submissionId",
          "type": "bytes32"
        },
        {
          "indexed": false,
          "internalType": "uint256",
          "name": "tokenId",
          "type": "uint256"
        },
        {
          "indexed": false,
          "internalType": "address",
          "name": "receiver",
          "type": "address"
        },
        {
          "indexed": false,
          "internalType": "bytes32",
          "name": "debridgeId",
          "type": "bytes32"
        }
      ],
      "name": "Minted",
      "type": "event"
    },
    {
      "anonymous": false,
      "inputs": [
        {
          "indexed": true,
          "internalType": "bytes32",
          "name": "debridgeId",
          "type": "bytes32"
        },
        {
          "indexed": true,
          "internalType": "address",
          "name": "tokenAddress",
          "type": "address"
        },
        {
          "indexed": true,
          "internalType": "uint256",
          "name": "chainId",
          "type": "uint256"
        }
      ],
      "name": "PairAdded",
      "type": "event"
    },
    {
      "anonymous": false,
      "inputs": [
        {
          "indexed": false,
          "internalType": "address",
          "name": "account",
          "type": "address"
        }
      ],
      "name": "Paused",
      "type": "event"
    },
    {
      "anonymous": false,
      "inputs": [
        {
          "indexed": true,
          "internalType": "bytes32",
          "name": "role",
          "type": "bytes32"
        },
        {
          "indexed": true,
          "internalType": "bytes32",
          "name": "previousAdminRole",
          "type": "bytes32"
        },
        {
          "indexed": true,
          "internalType": "bytes32",
          "name": "newAdminRole",
          "type": "bytes32"
        }
      ],
      "name": "RoleAdminChanged",
      "type": "event"
    },
    {
      "anonymous": false,
      "inputs": [
        {
          "indexed": true,
          "internalType": "bytes32",
          "name": "role",
          "type": "bytes32"
        },
        {
          "indexed": true,
          "internalType": "address",
          "name": "account",
          "type": "address"
        },
        {
          "indexed": true,
          "internalType": "address",
          "name": "sender",
          "type": "address"
        }
      ],
      "name": "RoleGranted",
      "type": "event"
    },
    {
      "anonymous": false,
      "inputs": [
        {
          "indexed": true,
          "internalType": "bytes32",
          "name": "role",
          "type": "bytes32"
        },
        {
          "indexed": true,
          "internalType": "address",
          "name": "account",
          "type": "address"
        },
        {
          "indexed": true,
          "internalType": "address",
          "name": "sender",
          "type": "address"
        }
      ],
      "name": "RoleRevoked",
      "type": "event"
    },
    {
      "anonymous": false,
      "inputs": [
        {
          "indexed": false,
          "internalType": "bytes32",
          "name": "submissionID",
          "type": "bytes32"
        },
        {
          "indexed": false,
          "internalType": "bytes32",
          "name": "debridgeID",
          "type": "bytes32"
        },
        {
          "indexed": false,
          "internalType": "uint256",
          "name": "tokenId",
          "type": "uint256"
        },
        {
          "indexed": false,
          "internalType": "address",
          "name": "receiver",
          "type": "address"
        },
        {
          "indexed": false,
          "internalType": "uint256",
          "name": "nonce",
          "type": "uint256"
        },
        {
          "indexed": false,
          "internalType": "uint256",
          "name": "chainIdTo",
          "type": "uint256"
        }
      ],
      "name": "Sent",
      "type": "event"
    },
    {
      "anonymous": false,
      "inputs": [
        {
          "indexed": false,
          "internalType": "address",
          "name": "account",
          "type": "address"
        }
      ],
      "name": "Unpaused",
      "type": "event"
    },
    {
      "inputs": [],
      "name": "DEFAULT_ADMIN_ROLE",
      "outputs": [
        {
          "internalType": "bytes32",
          "name": "",
          "type": "bytes32"
        }
      ],
      "stateMutability": "view",
      "type": "function"
    },
    {
      "inputs": [],
      "name": "DENOMINATOR",
      "outputs": [
        {
          "internalType": "uint256",
          "name": "",
          "type": "uint256"
        }
      ],
      "stateMutability": "view",
      "type": "function"
    },
    {
      "inputs": [
        {
          "internalType": "address",
          "name": "_tokenAddress",
          "type": "address"
        },
        {
          "internalType": "address",
          "name": "_wrappedAssetAddress",
          "type": "address"
        },
        {
          "internalType": "uint256",
          "name": "_chainId",
          "type": "uint256"
        },
        {
          "internalType": "uint256[]",
          "name": "_supportedChainIds",
          "type": "uint256[]"
        },
        {
          "components": [
            {
              "internalType": "bool",
              "name": "isSupported",
              "type": "bool"
            },
            {
              "internalType": "uint256",
              "name": "fixedFee",
              "type": "uint256"
            }
          ],
          "internalType": "struct IWhiteNFTDebridge.ChainSupportInfo[]",
          "name": "_chainSupportInfo",
          "type": "tuple[]"
        }
      ],
      "name": "addExternalAsset",
      "outputs": [],
      "stateMutability": "nonpayable",
      "type": "function"
    },
    {
      "inputs": [
        {
          "internalType": "address",
          "name": "_tokenAddress",
          "type": "address"
        },
        {
          "internalType": "uint256[]",
          "name": "_supportedChainIds",
          "type": "uint256[]"
        },
        {
          "components": [
            {
              "internalType": "bool",
              "name": "isSupported",
              "type": "bool"
            },
            {
              "internalType": "uint256",
              "name": "fixedFee",
              "type": "uint256"
            }
          ],
          "internalType": "struct IWhiteNFTDebridge.ChainSupportInfo[]",
          "name": "_chainSupportInfo",
          "type": "tuple[]"
        }
      ],
      "name": "addNativeAsset",
      "outputs": [],
      "stateMutability": "nonpayable",
      "type": "function"
    },
    {
      "inputs": [],
      "name": "aggregator",
      "outputs": [
        {
          "internalType": "address",
          "name": "",
          "type": "address"
        }
      ],
      "stateMutability": "view",
      "type": "function"
    },
    {
      "inputs": [],
      "name": "aggregatorVersion",
      "outputs": [
        {
          "internalType": "uint8",
          "name": "",
          "type": "uint8"
        }
      ],
      "stateMutability": "view",
      "type": "function"
    },
    {
      "inputs": [
        {
          "internalType": "bytes32",
          "name": "_debridgeId",
          "type": "bytes32"
        },
        {
          "internalType": "address",
          "name": "_receiver",
          "type": "address"
        },
        {
          "internalType": "uint256",
          "name": "_tokenId",
          "type": "uint256"
        },
        {
          "internalType": "uint256",
          "name": "_chainIdTo",
          "type": "uint256"
        },
        {
          "internalType": "uint256",
          "name": "_deadline",
          "type": "uint256"
        },
        {
          "internalType": "bytes",
          "name": "_signature",
          "type": "bytes"
        }
      ],
      "name": "burn",
      "outputs": [],
      "stateMutability": "nonpayable",
      "type": "function"
    },
    {
      "inputs": [],
      "name": "callProxy",
      "outputs": [
        {
          "internalType": "address",
          "name": "",
          "type": "address"
        }
      ],
      "stateMutability": "view",
      "type": "function"
    },
    {
      "inputs": [],
      "name": "chainId",
      "outputs": [
        {
          "internalType": "uint256",
          "name": "",
          "type": "uint256"
        }
      ],
      "stateMutability": "view",
      "type": "function"
    },
    {
      "inputs": [
        {
          "internalType": "uint256",
          "name": "",
          "type": "uint256"
        }
      ],
      "name": "chainIds",
      "outputs": [
        {
          "internalType": "uint256",
          "name": "",
          "type": "uint256"
        }
      ],
      "stateMutability": "view",
      "type": "function"
    },
    {
      "inputs": [],
      "name": "feeToken",
      "outputs": [
        {
          "internalType": "contract IERC20",
          "name": "",
          "type": "address"
        }
      ],
      "stateMutability": "view",
      "type": "function"
    },
    {
      "inputs": [
        {
          "internalType": "bytes32",
          "name": "_debridgeId",
          "type": "bytes32"
        },
        {
          "internalType": "uint256",
          "name": "_chainId",
          "type": "uint256"
        }
      ],
      "name": "getChainIdSupport",
      "outputs": [
        {
          "components": [
            {
              "internalType": "bool",
              "name": "isSupported",
              "type": "bool"
            },
            {
              "internalType": "uint256",
              "name": "fixedFee",
              "type": "uint256"
            }
          ],
          "internalType": "struct IWhiteNFTDebridge.ChainSupportInfo",
          "name": "",
          "type": "tuple"
        }
      ],
      "stateMutability": "view",
      "type": "function"
    },
    {
      "inputs": [
        {
          "internalType": "bytes32",
          "name": "",
          "type": "bytes32"
        }
      ],
      "name": "getDebridge",
      "outputs": [
        {
          "internalType": "address",
          "name": "tokenAddress",
          "type": "address"
        },
        {
          "internalType": "uint256",
          "name": "chainId",
          "type": "uint256"
        },
        {
          "internalType": "uint256",
          "name": "collectedFees",
          "type": "uint256"
        }
      ],
      "stateMutability": "view",
      "type": "function"
    },
    {
      "inputs": [
        {
          "internalType": "uint256",
          "name": "_chainId",
          "type": "uint256"
        },
        {
          "internalType": "address",
          "name": "_tokenAddress",
          "type": "address"
        }
      ],
      "name": "getDebridgeId",
      "outputs": [
        {
          "internalType": "bytes32",
          "name": "",
          "type": "bytes32"
        }
      ],
      "stateMutability": "pure",
      "type": "function"
    },
    {
      "inputs": [
        {
          "internalType": "uint8",
          "name": "",
          "type": "uint8"
        }
      ],
      "name": "getOldAggregator",
      "outputs": [
        {
          "internalType": "address",
          "name": "aggregator",
          "type": "address"
        },
        {
          "internalType": "bool",
          "name": "isValid",
          "type": "bool"
        }
      ],
      "stateMutability": "view",
      "type": "function"
    },
    {
      "inputs": [
        {
          "internalType": "bytes32",
          "name": "_debridgeId",
          "type": "bytes32"
        },
        {
          "internalType": "uint256",
          "name": "_tokenId",
          "type": "uint256"
        }
      ],
      "name": "getOwnerOfToken",
      "outputs": [
        {
          "internalType": "address",
          "name": "",
          "type": "address"
        }
      ],
      "stateMutability": "view",
      "type": "function"
    },
    {
      "inputs": [
        {
          "internalType": "bytes32",
          "name": "role",
          "type": "bytes32"
        }
      ],
      "name": "getRoleAdmin",
      "outputs": [
        {
          "internalType": "bytes32",
          "name": "",
          "type": "bytes32"
        }
      ],
      "stateMutability": "view",
      "type": "function"
    },
    {
      "inputs": [
        {
          "internalType": "bytes32",
          "name": "_debridgeId",
          "type": "bytes32"
        },
        {
          "internalType": "uint256",
          "name": "_chainIdFrom",
          "type": "uint256"
        },
        {
          "internalType": "uint256",
          "name": "_chainIdTo",
          "type": "uint256"
        },
        {
          "internalType": "uint256",
          "name": "_tokenId",
          "type": "uint256"
        },
        {
          "internalType": "address",
          "name": "_receiver",
          "type": "address"
        },
        {
          "internalType": "uint256",
          "name": "_nonce",
          "type": "uint256"
        }
      ],
      "name": "getSubmisionId",
      "outputs": [
        {
          "internalType": "bytes32",
          "name": "",
          "type": "bytes32"
        }
      ],
      "stateMutability": "pure",
      "type": "function"
    },
    {
      "inputs": [
        {
          "internalType": "address",
          "name": "",
          "type": "address"
        }
      ],
      "name": "getUserNonce",
      "outputs": [
        {
          "internalType": "uint256",
          "name": "",
          "type": "uint256"
        }
      ],
      "stateMutability": "view",
      "type": "function"
    },
    {
      "inputs": [
        {
          "internalType": "bytes32",
          "name": "role",
          "type": "bytes32"
        },
        {
          "internalType": "address",
          "name": "account",
          "type": "address"
        }
      ],
      "name": "grantRole",
      "outputs": [],
      "stateMutability": "nonpayable",
      "type": "function"
    },
    {
      "inputs": [
        {
          "internalType": "bytes32",
          "name": "role",
          "type": "bytes32"
        },
        {
          "internalType": "address",
          "name": "account",
          "type": "address"
        }
      ],
      "name": "hasRole",
      "outputs": [
        {
          "internalType": "bool",
          "name": "",
          "type": "bool"
        }
      ],
      "stateMutability": "view",
      "type": "function"
    },
    {
      "inputs": [
        {
          "internalType": "bytes32",
          "name": "",
          "type": "bytes32"
        }
      ],
      "name": "isSubmissionUsed",
      "outputs": [
        {
          "internalType": "bool",
          "name": "",
          "type": "bool"
        }
      ],
      "stateMutability": "view",
      "type": "function"
    },
    {
      "inputs": [
        {
          "internalType": "uint8",
          "name": "_aggregatorVersion",
          "type": "uint8"
        },
        {
          "internalType": "bool",
          "name": "_isValid",
          "type": "bool"
        }
      ],
      "name": "manageOldAggregator",
      "outputs": [],
      "stateMutability": "nonpayable",
      "type": "function"
    },
    {
      "inputs": [],
      "name": "pause",
      "outputs": [],
      "stateMutability": "nonpayable",
      "type": "function"
    },
    {
      "inputs": [],
      "name": "paused",
      "outputs": [
        {
          "internalType": "bool",
          "name": "",
          "type": "bool"
        }
      ],
      "stateMutability": "view",
      "type": "function"
    },
    {
      "inputs": [
        {
          "internalType": "bytes32",
          "name": "role",
          "type": "bytes32"
        },
        {
          "internalType": "address",
          "name": "account",
          "type": "address"
        }
      ],
      "name": "renounceRole",
      "outputs": [],
      "stateMutability": "nonpayable",
      "type": "function"
    },
    {
      "inputs": [
        {
          "internalType": "bytes32",
          "name": "role",
          "type": "bytes32"
        },
        {
          "internalType": "address",
          "name": "account",
          "type": "address"
        }
      ],
      "name": "revokeRole",
      "outputs": [],
      "stateMutability": "nonpayable",
      "type": "function"
    },
    {
      "inputs": [
        {
          "internalType": "bytes32",
          "name": "_debridgeId",
          "type": "bytes32"
        },
        {
          "internalType": "address",
          "name": "_receiver",
          "type": "address"
        },
        {
          "internalType": "uint256",
          "name": "_tokenId",
          "type": "uint256"
        },
        {
          "internalType": "uint256",
          "name": "_chainIdTo",
          "type": "uint256"
        }
      ],
      "name": "send",
      "outputs": [],
      "stateMutability": "payable",
      "type": "function"
    },
    {
      "inputs": [
        {
          "internalType": "address",
          "name": "_aggregator",
          "type": "address"
        }
      ],
      "name": "setAggregator",
      "outputs": [],
      "stateMutability": "nonpayable",
      "type": "function"
    },
    {
      "inputs": [
        {
          "internalType": "address",
          "name": "_callProxy",
          "type": "address"
        }
      ],
      "name": "setCallProxy",
      "outputs": [],
      "stateMutability": "nonpayable",
      "type": "function"
    },
    {
      "inputs": [
        {
          "internalType": "bytes32",
          "name": "_debridgeId",
          "type": "bytes32"
        },
        {
          "internalType": "uint256",
          "name": "_chainId",
          "type": "uint256"
        },
        {
          "internalType": "bool",
          "name": "_isSupported",
          "type": "bool"
        }
      ],
      "name": "setChainIdSupport",
      "outputs": [],
      "stateMutability": "nonpayable",
      "type": "function"
    },
    {
      "inputs": [
        {
          "internalType": "uint256[]",
          "name": "_chainIds",
          "type": "uint256[]"
        }
      ],
      "name": "setChainIds",
      "outputs": [],
      "stateMutability": "nonpayable",
      "type": "function"
    },
    {
      "inputs": [
        {
          "internalType": "contract IERC20",
          "name": "_feeToken",
          "type": "address"
        }
      ],
      "name": "setFeeToken",
      "outputs": [],
      "stateMutability": "nonpayable",
      "type": "function"
    },
    {
      "inputs": [
        {
          "internalType": "bytes",
          "name": "_signature",
          "type": "bytes"
        }
      ],
      "name": "splitSignature",
      "outputs": [
        {
          "internalType": "bytes32",
          "name": "r",
          "type": "bytes32"
        },
        {
          "internalType": "bytes32",
          "name": "s",
          "type": "bytes32"
        },
        {
          "internalType": "uint8",
          "name": "v",
          "type": "uint8"
        }
      ],
      "stateMutability": "pure",
      "type": "function"
    },
    {
      "inputs": [
        {
          "internalType": "bytes4",
          "name": "interfaceId",
          "type": "bytes4"
        }
      ],
      "name": "supportsInterface",
      "outputs": [
        {
          "internalType": "bool",
          "name": "",
          "type": "bool"
        }
      ],
      "stateMutability": "view",
      "type": "function"
    },
    {
      "inputs": [],
      "name": "unpause",
      "outputs": [],
      "stateMutability": "nonpayable",
      "type": "function"
    },
    {
      "inputs": [
        {
          "internalType": "bytes32",
          "name": "_debridgeId",
          "type": "bytes32"
        },
        {
          "internalType": "uint256[]",
          "name": "_supportedChainIds",
          "type": "uint256[]"
        },
        {
          "components": [
            {
              "internalType": "bool",
              "name": "isSupported",
              "type": "bool"
            },
            {
              "internalType": "uint256",
              "name": "fixedFee",
              "type": "uint256"
            }
          ],
          "internalType": "struct IWhiteNFTDebridge.ChainSupportInfo[]",
          "name": "_chainSupportInfo",
          "type": "tuple[]"
        }
      ],
      "name": "updateAsset",
      "outputs": [],
      "stateMutability": "nonpayable",
      "type": "function"
    },
    {
      "inputs": [
        {
          "internalType": "bytes32",
          "name": "_debridgeId",
          "type": "bytes32"
        },
        {
          "internalType": "address",
          "name": "_receiver",
          "type": "address"
        },
        {
          "internalType": "uint256",
          "name": "_amount",
          "type": "uint256"
        }
      ],
      "name": "withdrawFee",
      "outputs": [],
      "stateMutability": "nonpayable",
      "type": "function"
    },
    {
      "inputs": [
        {
          "internalType": "address",
          "name": "_aggregator",
          "type": "address"
        },
        {
          "internalType": "address",
          "name": "_callProxy",
          "type": "address"
        },
        {
          "internalType": "contract IERC20",
          "name": "_feeToken",
          "type": "address"
        }
      ],
      "name": "initialize",
      "outputs": [],
      "stateMutability": "nonpayable",
      "type": "function"
    },
    {
      "inputs": [
        {
          "internalType": "bytes32",
          "name": "_debridgeId",
          "type": "bytes32"
        },
        {
          "internalType": "uint256",
          "name": "_chainIdFrom",
          "type": "uint256"
        },
        {
          "internalType": "address",
          "name": "_receiver",
          "type": "address"
        },
        {
          "internalType": "uint256",
          "name": "_tokenId",
          "type": "uint256"
        },
        {
          "internalType": "uint256",
          "name": "_nonce",
          "type": "uint256"
        },
        {
          "internalType": "bytes[]",
          "name": "_signatures",
          "type": "bytes[]"
        }
      ],
      "name": "mint",
      "outputs": [],
      "stateMutability": "nonpayable",
      "type": "function"
    },
    {
      "inputs": [
        {
          "internalType": "bytes32",
          "name": "_debridgeId",
          "type": "bytes32"
        },
        {
          "internalType": "uint256",
          "name": "_chainIdFrom",
          "type": "uint256"
        },
        {
          "internalType": "address",
          "name": "_receiver",
          "type": "address"
        },
        {
          "internalType": "uint256",
          "name": "_tokenId",
          "type": "uint256"
        },
        {
          "internalType": "uint256",
          "name": "_nonce",
          "type": "uint256"
        },
        {
          "internalType": "bytes[]",
          "name": "_signatures",
          "type": "bytes[]"
        },
        {
          "internalType": "uint8",
          "name": "_aggregatorVersion",
          "type": "uint8"
        }
      ],
      "name": "mintWithOldAggregator",
      "outputs": [],
      "stateMutability": "nonpayable",
      "type": "function"
    },
    {
      "inputs": [
        {
          "internalType": "bytes32",
          "name": "_debridgeId",
          "type": "bytes32"
        },
        {
          "internalType": "uint256",
          "name": "_chainIdFrom",
          "type": "uint256"
        },
        {
          "internalType": "address",
          "name": "_receiver",
          "type": "address"
        },
        {
          "internalType": "uint256",
          "name": "_tokenId",
          "type": "uint256"
        },
        {
          "internalType": "uint256",
          "name": "_nonce",
          "type": "uint256"
        },
        {
          "internalType": "bytes[]",
          "name": "_signatures",
          "type": "bytes[]"
        }
      ],
      "name": "claim",
      "outputs": [],
      "stateMutability": "nonpayable",
      "type": "function"
    },
    {
      "inputs": [
        {
          "internalType": "bytes32",
          "name": "_debridgeId",
          "type": "bytes32"
        },
        {
          "internalType": "uint256",
          "name": "_chainIdFrom",
          "type": "uint256"
        },
        {
          "internalType": "address",
          "name": "_receiver",
          "type": "address"
        },
        {
          "internalType": "uint256",
          "name": "_tokenId",
          "type": "uint256"
        },
        {
          "internalType": "uint256",
          "name": "_nonce",
          "type": "uint256"
        },
        {
          "internalType": "bytes[]",
          "name": "_signatures",
          "type": "bytes[]"
        },
        {
          "internalType": "uint8",
          "name": "_aggregatorVersion",
          "type": "uint8"
        }
      ],
      "name": "claimWithOldAggregator",
      "outputs": [],
      "stateMutability": "nonpayable",
      "type": "function"
    }
  ],
  "bytecode": "0x608060405234801561001057600080fd5b506134cd806100206000396000f3fe60806040526004361061025c5760003560e01c80636b7cbb6911610144578063b4ebd560116100b6578063d311f6561161007a578063d311f6561461083a578063d547741f1461086d578063e083400e1461088d578063e562904d146108d2578063f30d9ea4146108f2578063f9120af6146109125761025c565b8063b4ebd56014610738578063bf3d734114610758578063c0c53b8b14610778578063c7a0f64314610798578063d1e39513146107b85761025c565b8063918f867411610108578063918f86741461067357806391d148541461068f5780639682b909146106af5780639a8a0592146106cf578063a217fddf146106e5578063a7bb5803146106fa5761025c565b80636b7cbb691461059d5780637681af99146105bd57806383d3f95d146105dd578063841b162b146105fd5780638456cb591461065e5761025c565b80632daa9ac9116101dd57806340768e1f116101a157806340768e1f1461047657806357cf07ca146104965780635c975abb14610501578063647846a51461052057806365ac9f78146105405780636834e3a8146105705761025c565b80632daa9ac9146103e15780632f2ff15d1461040157806334497b091461042157806336568abe146104415780633f4ba83a146104615761025c565b806321d930901161022457806321d930901461030b578063245a7bfc14610339578063248a9ca3146103715780632b0d0a8b146103a15780632da688ac146103c15761025c565b806301ffc9a714610261578063031ac613146102965780630a0e5e9a146102ab5780630c71531d146102cb57806315cce224146102eb575b600080fd5b34801561026d57600080fd5b5061028161027c3660046130e4565b610932565b60405190151581526020015b60405180910390f35b6102a96102a4366004612e5f565b61096b565b005b3480156102b757600080fd5b506102a96102c6366004613063565b610a6e565b3480156102d757600080fd5b506102a96102e6366004612f5f565b610b2e565b3480156102f757600080fd5b506102a9610306366004612c08565b610c20565b34801561031757600080fd5b5061032b610326366004612de1565b610c69565b60405190815260200161028d565b34801561034557600080fd5b50600354610359906001600160a01b031681565b6040516001600160a01b03909116815260200161028d565b34801561037d57600080fd5b5061032b61038c366004612de1565b60009081526020819052604090206001015490565b3480156103ad57600080fd5b506102a96103bc366004612c08565b610c8a565b3480156103cd57600080fd5b50600454610359906001600160a01b031681565b3480156103ed57600080fd5b506102a96103fc366004612c8a565b610d06565b34801561040d57600080fd5b506102a961041c366004612df9565b610d50565b34801561042d57600080fd5b506102a961043c366004612f5f565b610ddf565b34801561044d57600080fd5b506102a961045c366004612df9565b610ec6565b34801561046d57600080fd5b506102a9610f40565b34801561048257600080fd5b506102a9610491366004612fd9565b610fc6565b3480156104a257600080fd5b506104dc6104b1366004612de1565b6007602052600090815260409020805460018201546002909201546001600160a01b03909116919083565b604080516001600160a01b03909416845260208401929092529082015260600161028d565b34801561050d57600080fd5b5061028160015462010000900460ff1690565b34801561052c57600080fd5b50600554610359906001600160a01b031681565b34801561054c57600080fd5b5061028161055b366004612de1565b60086020526000908152604090205460ff1681565b34801561057c57600080fd5b5061032b61058b366004612c08565b60096020526000908152604090205481565b3480156105a957600080fd5b506102a96105b8366004613158565b611157565b3480156105c957600080fd5b506102a96105d8366004612f0d565b61121a565b3480156105e957600080fd5b506102a96105f8366004612e28565b6112f3565b34801561060957600080fd5b5061063f61061836600461313e565b600a602052600090815260409020546001600160a01b03811690600160a01b900460ff1682565b604080516001600160a01b03909316835290151560208301520161028d565b34801561066a57600080fd5b506102a96113ac565b34801561067f57600080fd5b5061032b670de0b6b3a764000081565b34801561069b57600080fd5b506102816106aa366004612df9565b61140a565b3480156106bb57600080fd5b5061032b6106ca366004612df9565b611433565b3480156106db57600080fd5b5061032b60025481565b3480156106f157600080fd5b5061032b600081565b34801561070657600080fd5b5061071a61071536600461310c565b611481565b60408051938452602084019290925260ff169082015260600161028d565b34801561074457600080fd5b506102a9610753366004612e9b565b611506565b34801561076457600080fd5b5061032b610773366004613090565b611604565b34801561078457600080fd5b506102a9610793366004612c40565b611662565b3480156107a457600080fd5b506102a96107b3366004612d19565b61172a565b3480156107c457600080fd5b5061081d6107d3366004612f3e565b604080518082018252600080825260209182018190529384526007815281842092845260049092018252918290208251808401909352805460ff1615158352600101549082015290565b60408051825115158152602092830151928101929092520161028d565b34801561084657600080fd5b5060055461085b90600160a01b900460ff1681565b60405160ff909116815260200161028d565b34801561087957600080fd5b506102a9610888366004612df9565b611770565b34801561089957600080fd5b506103596108a8366004612f3e565b6000918252600760209081526040808420928452600390920190529020546001600160a01b031690565b3480156108de57600080fd5b506102a96108ed366004612d8b565b6117f0565b3480156108fe57600080fd5b506102a961090d366004612fd9565b61185a565b34801561091e57600080fd5b506102a961092d366004612c08565b6119dd565b60006001600160e01b03198216637965db0b60e01b148061096357506301ffc9a760e01b6001600160e01b03198316145b90505b919050565b61097d60015462010000900460ff1690565b156109a35760405162461bcd60e51b815260040161099a90613305565b60405180910390fd5b6109ae848383611aad565b6001600160a01b0383166000908152600960205260408120546002549091906109dc90879085878987611604565b60408051828152602081018990529081018690526001600160a01b03871660608201526080810184905260a081018590529091507f17c61cb89b62a3f29f5b150e3489c7a796ac4dc95fd73af14faa2c8086a324b49060c00160405180910390a16001600160a01b0385166000908152600960205260408120805491610a618361340a565b9190505550505050505050565b610a7960003361140a565b610a955760405162461bcd60e51b815260040161099a9061332f565b600083815260076020908152604080832085845260048101909252909120805460ff19168315801591909117909155610afa57604051839085907fdd4dbf80f57aa5115a1e07abb36e4de565879d4de5bd15b3803d666fe1d8486390600090a3610b28565b604051839085907f86c512831f7a2aad3f56b4169c161be1028776ab950c72e26237a0310ded560690600090a35b50505050565b6000610b408888600254888a89611604565b60035460405163f91aa31760e01b81529192506001600160a01b03169063f91aa31790610b7590849087908790600401613231565b602060405180830381600087803b158015610b8f57600080fd5b505af1158015610ba3573d6000803e3d6000fd5b505050506040513d601f19601f82011682018060405250810190610bc79190612dc5565b610c0a5760405162461bcd60e51b815260206004820152601460248201527318db185a5b4e881b9bdd0818dbdb999a5c9b595960621b604482015260640161099a565b610c1681898888611cd2565b5050505050505050565b610c2b60003361140a565b610c475760405162461bcd60e51b815260040161099a9061332f565b600580546001600160a01b0319166001600160a01b0392909216919091179055565b60068181548110610c7957600080fd5b600091825260209091200154905081565b610c9560003361140a565b610cb15760405162461bcd60e51b815260040161099a9061332f565b600480546001600160a01b0319166001600160a01b0383169081179091556040519081527fa9543b36462a5e2c2259a14d72a8bd4e2342eaf9d7c828e9fb86921b3aa3eb5f906020015b60405180910390a150565b610d1160003361140a565b610d2d5760405162461bcd60e51b815260040161099a9061332f565b6000610d398487611433565b9050610d488186868686611e81565b505050505050565b600082815260208190526040902060010154610d6d905b336106aa565b610dd15760405162461bcd60e51b815260206004820152602f60248201527f416363657373436f6e74726f6c3a2073656e646572206d75737420626520616e60448201526e0818591b5a5b881d1bc819dc985b9d608a1b606482015260840161099a565b610ddb828261201b565b5050565b6000610df18888600254888a89611604565b60035460405163f91aa31760e01b81529192506001600160a01b03169063f91aa31790610e2690849087908790600401613231565b602060405180830381600087803b158015610e4057600080fd5b505af1158015610e54573d6000803e3d6000fd5b505050506040513d601f19601f82011682018060405250810190610e789190612dc5565b610eba5760405162461bcd60e51b81526020600482015260136024820152721b5a5b9d0e881b9bdd0818dbdb999a5c9b5959606a1b604482015260640161099a565b610c168189888861209f565b6001600160a01b0381163314610f365760405162461bcd60e51b815260206004820152602f60248201527f416363657373436f6e74726f6c3a2063616e206f6e6c792072656e6f756e636560448201526e103937b632b9903337b91039b2b63360891b606482015260840161099a565b610ddb828261224a565b610f4b60003361140a565b610f675760405162461bcd60e51b815260040161099a9061332f565b610f7960015462010000900460ff1690565b610fbc5760405162461bcd60e51b815260206004820152601460248201527314185d5cd8589b194e881b9bdd081c185d5cd95960621b604482015260640161099a565b610fc46122af565b565b6000610fd88989600254898b8a611604565b60ff8084166000908152600a60209081526040918290208251808401909352546001600160a01b0381168352600160a01b900490921615159181018290529192506110775760405162461bcd60e51b815260206004820152602960248201527f6d696e74576974684f6c6441676772656761746f723a20696e76616c6964206160448201526833b3b932b3b0ba37b960b91b606482015260840161099a565b805160405163f91aa31760e01b81526001600160a01b039091169063f91aa317906110aa90859089908990600401613231565b602060405180830381600087803b1580156110c457600080fd5b505af11580156110d8573d6000803e3d6000fd5b505050506040513d601f19601f820116820180604052508101906110fc9190612dc5565b61113f5760405162461bcd60e51b815260206004820152601460248201527318db185a5b4e881b9bdd0818dbdb999a5c9b595960621b604482015260640161099a565b61114b828b8a8a611cd2565b50505050505050505050565b61116260003361140a565b61117e5760405162461bcd60e51b815260040161099a9061332f565b60055460ff600160a01b9091048116908316106111eb5760405162461bcd60e51b815260206004820152602560248201527f6d616e6167654f6c6441676772656761746f723a2076657273696f6e20746f6f604482015264040d0d2ced60db1b606482015260840161099a565b60ff9091166000908152600a602052604090208054911515600160a01b0260ff60a01b19909216919091179055565b61122560003361140a565b6112415760405162461bcd60e51b815260040161099a9061332f565b6000838152600760205260408120905b83518110156112ec5782818151811061127a57634e487b7160e01b600052603260045260246000fd5b60200260200101518260040160008684815181106112a857634e487b7160e01b600052603260045260246000fd5b6020908102919091018101518252818101929092526040016000208251815460ff1916901515178155910151600190910155806112e48161340a565b915050611251565b5050505050565b6112fe60003361140a565b61131a5760405162461bcd60e51b815260040161099a9061332f565b6000838152600760205260409020600281015482111561137c5760405162461bcd60e51b815260206004820152601b60248201527f77697468647261774665653a206e6f7420656e6f756768206665650000000000604482015260640161099a565b8181600201600082825461139091906133c7565b9091555050600554610b28906001600160a01b03168484612346565b6113b760003361140a565b6113d35760405162461bcd60e51b815260040161099a9061332f565b6113e560015462010000900460ff1690565b156114025760405162461bcd60e51b815260040161099a90613305565b610fc46123ae565b6000918252602082815260408084206001600160a01b0393909316845291905290205460ff1690565b6000828260405160200161146392919091825260601b6bffffffffffffffffffffffff1916602082015260340190565b60405160208183030381529060405280519060200120905092915050565b600080600083516041146114e85760405162461bcd60e51b815260206004820152602860248201527f73706c69745369676e61747572653a20696e76616c6964207369676e617475726044820152670ca40d8cadccee8d60c31b606482015260840161099a565b50505060208101516040820151606090920151909260009190911a90565b61151860015462010000900460ff1690565b156115355760405162461bcd60e51b815260040161099a90613305565b611542868585858561241e565b6001600160a01b03851660009081526009602052604081205460025490919061157090899087898b87611604565b60408051828152602081018b90529081018890526001600160a01b03891660608201526080810184905260a081018790529091507fb8cc5195d548dc2781227c496b92d3736cd56d7f32b28971c9ae1e9eb0badf959060c00160405180910390a16001600160a01b03871660009081526009602052604081208054916115f58361340a565b91905055505050505050505050565b60408051602080820198909852808201969096526060808701959095526080860193909352921b6bffffffffffffffffffffffff191660a084015260b4808401929092528051808403909201825260d4909201909152805191012090565b600154610100900460ff168061167b575060015460ff16155b6116de5760405162461bcd60e51b815260206004820152602e60248201527f496e697469616c697a61626c653a20636f6e747261637420697320616c72656160448201526d191e481a5b9a5d1a585b1a5e995960921b606482015260840161099a565b600154610100900460ff16158015611708576001805460ff1961ff00199091166101001716811790555b61171384848461272a565b8015610b28576001805461ff001916905550505050565b61173560003361140a565b6117515760405162461bcd60e51b815260040161099a9061332f565b600061175f60025485611433565b9050610b2881856002548686611e81565b60008281526020819052604090206001015461178b90610d67565b610f365760405162461bcd60e51b815260206004820152603060248201527f416363657373436f6e74726f6c3a2073656e646572206d75737420626520616e60448201526f2061646d696e20746f207265766f6b6560801b606482015260840161099a565b6117fb60003361140a565b6118175760405162461bcd60e51b815260040161099a9061332f565b805161182a9060069060208401906129e5565b507fc96689ced54dda42d1f32f295881474112291c08120448bec2f7b10f5297e88f81604051610cfb91906131ed565b600061186c8989600254898b8a611604565b60ff8084166000908152600a60209081526040918290208251808401909352546001600160a01b0381168352600160a01b9004909216151591810182905291925061190a5760405162461bcd60e51b815260206004820152602860248201527f6d696e74576974684f6c6441676772656761746f723a20696e76616c6964416760448201526733b932b3b0ba37b960c11b606482015260840161099a565b805160405163f91aa31760e01b81526001600160a01b039091169063f91aa3179061193d90859089908990600401613231565b602060405180830381600087803b15801561195757600080fd5b505af115801561196b573d6000803e3d6000fd5b505050506040513d601f19601f8201168201806040525081019061198f9190612dc5565b6119d15760405162461bcd60e51b81526020600482015260136024820152721b5a5b9d0e881b9bdd0818dbdb999a5c9b5959606a1b604482015260640161099a565b61114b828b8a8a61209f565b6119e860003361140a565b611a045760405162461bcd60e51b815260040161099a9061332f565b604080518082018252600380546001600160a01b039081168352600160208085019182526005805460ff600160a01b9182900481166000908152600a909452979092209551865493511515830260ff60a01b199186166001600160a01b031995861617919091161790955583549287169290911691909117909155815404909116906014611a9183613425565b91906101000a81548160ff021916908360ff1602179055505050565b6000838152600760209081526040808320848452600481018352928190208151808301909252805460ff16151582526001908101549282019290925260025491830154909114611b385760405162461bcd60e51b815260206004820152601660248201527539b2b7321d103737ba103730ba34bb329031b430b4b760511b604482015260640161099a565b8051611b865760405162461bcd60e51b815260206004820152601860248201527f73656e643a2077726f6e672074617267656420636861696e0000000000000000604482015260640161099a565b81546040516323b872dd60e01b81526001600160a01b03909116906323b872dd90611bb9903390309089906004016131c9565b600060405180830381600087803b158015611bd357600080fd5b505af1158015611be7573d6000803e3d6000fd5b505083546040516331a9108f60e11b8152600481018890526001600160a01b039091169250636352211e915060240160206040518083038186803b158015611c2e57600080fd5b505afa158015611c42573d6000803e3d6000fd5b505050506040513d601f19601f82011682018060405250810190611c669190612c24565b6000858152600384016020908152604090912080546001600160a01b0319166001600160a01b0393909316929092179091558101518015610d485780836002016000828254611cb591906133af565b9091555050600554610d48906001600160a01b0316333084612778565b6000838152600760205260409020600254600182015414611d355760405162461bcd60e51b815260206004820152601960248201527f636c61696d3a2077726f6e672074617267657420636861696e00000000000000604482015260640161099a565b60008581526008602052604090205460ff1615611d8a5760405162461bcd60e51b815260206004820152601360248201527218db185a5b4e88185b1c9958591e481d5cd959606a1b604482015260640161099a565b6000858152600860209081526040808320805460ff19166001179055848352600384019091529081902080546001600160a01b0319169055815490516323b872dd60e01b81526001600160a01b03919091169081906323b872dd90611df7903090889088906004016131c9565b600060405180830381600087803b158015611e1157600080fd5b505af1158015611e25573d6000803e3d6000fd5b505060408051898152602081018790526001600160a01b038816818301526060810189905290517fabe3bed2a8590dd123c1a018888bce6142d526741bed65dfe570fb223525c6a49350908190036080019150a1505050505050565b8051825114611ee15760405162461bcd60e51b815260206004820152602660248201527f5f61646441737365743a2077726f6e6720636861696e20737570706f7274206c604482015265656e6774687360d01b606482015260840161099a565b600085815260076020526040812080546001600160a01b0319166001600160a01b0387161781556001810185905590805b8451811015611fd957848181518110611f3b57634e487b7160e01b600052603260045260246000fd5b60200260200101519150838181518110611f6557634e487b7160e01b600052603260045260246000fd5b602090810291909101810151600084815260048601835260408082208351815460ff19169015151781559290930151600190920191909155905183918a917fdd4dbf80f57aa5115a1e07abb36e4de565879d4de5bd15b3803d666fe1d848639190a380611fd18161340a565b915050611f12565b5084866001600160a01b0316887f1335c6c6bd39a6b4e4170d61cb0488815edb91ebc4b021606ed5599fb482949460405160405180910390a450505050505050565b612025828261140a565b610ddb576000828152602081815260408083206001600160a01b03851684529091529020805460ff1916600117905561205b3390565b6001600160a01b0316816001600160a01b0316837f2f8788117e7eff1d82e926ec794901d17c78024a50270940304540a733656f0d60405160405180910390a45050565b60008481526008602052604090205460ff16156120f35760405162461bcd60e51b81526020600482015260126024820152711b5a5b9d0e88185b1c9958591e481d5cd95960721b604482015260640161099a565b60008381526007602090815260408083208784526008909252909120805460ff1916600190811790915560025490820154141561216a5760405162461bcd60e51b815260206004820152601560248201527436b4b73a1d1034b9903730ba34bb329031b430b4b760591b604482015260640161099a565b80546040516340c10f1960e01b81526001600160a01b03858116600483015260248201859052909116906340c10f1990604401600060405180830381600087803b1580156121b757600080fd5b505af11580156121cb573d6000803e3d6000fd5b505050600083815260038301602090815260409182902080546001600160a01b0388166001600160a01b031990911681179091558251898152918201869052818301526060810187905290517f5918a95fd00afb5898499bd5beade1619e98655d2b4ff6e0f6a4347f0a69c12792509081900360800190a15050505050565b612254828261140a565b15610ddb576000828152602081815260408083206001600160a01b0385168085529252808320805460ff1916905551339285917ff6391f5c32d9c69d2a47ea670b442974b53935d1edc7fd64eb21e047a839171b9190a45050565b6122c160015462010000900460ff1690565b6123045760405162461bcd60e51b815260206004820152601460248201527314185d5cd8589b194e881b9bdd081c185d5cd95960621b604482015260640161099a565b6001805462ff0000191690556040513381527f5db9ee0a495bf2e6ff9c91a7834c1ba4fdd244a5e8aa4e537bd38aeae4b073aa906020015b60405180910390a1565b6040516001600160a01b0383166024820152604481018290526123a990849063a9059cbb60e01b906064015b60408051601f198184030181529190526020810180516001600160e01b03166001600160e01b031990931692909217909152612799565b505050565b6123c060015462010000900460ff1690565b156123dd5760405162461bcd60e51b815260040161099a90613305565b6001805462ff00001916620100001790556040513381527f62e78cea01bee320cd4e420270b5ea74000d11b0c9f74754ebdbfc544b05a2589060200161233c565b6000858152600760209081526040808320868452600481018352928190208151808301909252805460ff16151582526001908101549282019290925260025491830154909114156124a65760405162461bcd60e51b8152602060048201526012602482015271189d5c9b8e881b985d1a5d9948185cdcd95d60721b604482015260640161099a565b80516124f45760405162461bcd60e51b815260206004820152601860248201527f6275726e3a2077726f6e672074617267656420636861696e0000000000000000604482015260640161099a565b60008681526003830160205260409020546001600160a01b031661255a5760405162461bcd60e51b815260206004820152601760248201527f6275726e3a20746f6b656e4964206e6f74206578697374000000000000000000604482015260640161099a565b815483516001600160a01b03909116901561260757600080600061257d87611481565b604051637ac2ff7b60e01b8152306004820152602481018e9052604481018c905260ff821660648201526084810184905260a4810183905292955090935091506001600160a01b03851690637ac2ff7b9060c401600060405180830381600087803b1580156125eb57600080fd5b505af11580156125ff573d6000803e3d6000fd5b505050505050505b6040516323b872dd60e01b81526001600160a01b038216906323b872dd9061263790339030908c906004016131c9565b600060405180830381600087803b15801561265157600080fd5b505af1158015612665573d6000803e3d6000fd5b5050506000888152600385016020908152604090912080546001600160a01b0319169055830151905080156126c557808460020160008282546126a891906133af565b90915550506005546126c5906001600160a01b0316333084612778565b604051630852cd8d60e31b8152600481018990526001600160a01b038316906342966c6890602401600060405180830381600087803b15801561270757600080fd5b505af115801561271b573d6000803e3d6000fd5b50505050505050505050505050565b466002819055600380546001600160a01b038087166001600160a01b031992831617909255600480548684169083161790556005805492851692909116919091179055610b28600033610dd1565b610b28846323b872dd60e01b858585604051602401612372939291906131c9565b60006127ee826040518060400160405280602081526020017f5361666545524332303a206c6f772d6c6576656c2063616c6c206661696c6564815250856001600160a01b031661286b9092919063ffffffff16565b8051909150156123a9578080602001905181019061280c9190612dc5565b6123a95760405162461bcd60e51b815260206004820152602a60248201527f5361666545524332303a204552433230206f7065726174696f6e20646964206e6044820152691bdd081cdd58d8d9595960b21b606482015260840161099a565b606061287a8484600085612884565b90505b9392505050565b6060824710156128e55760405162461bcd60e51b815260206004820152602660248201527f416464726573733a20696e73756666696369656e742062616c616e636520666f6044820152651c8818d85b1b60d21b606482015260840161099a565b843b6129335760405162461bcd60e51b815260206004820152601d60248201527f416464726573733a2063616c6c20746f206e6f6e2d636f6e7472616374000000604482015260640161099a565b600080866001600160a01b0316858760405161294f91906131ad565b60006040518083038185875af1925050503d806000811461298c576040519150601f19603f3d011682016040523d82523d6000602084013e612991565b606091505b50915091506129a18282866129ac565b979650505050505050565b606083156129bb57508161287d565b8251156129cb5782518084602001fd5b8160405162461bcd60e51b815260040161099a91906132d2565b828054828255906000526020600020908101928215612a20579160200282015b82811115612a20578251825591602001919060010190612a05565b50612a2c929150612a30565b5090565b5b80821115612a2c5760008155600101612a31565b60008083601f840112612a56578182fd5b5081356001600160401b03811115612a6c578182fd5b6020830191508360208083028501011115612a8657600080fd5b9250929050565b600082601f830112612a9d578081fd5b81356020612ab2612aad8361338c565b61335c565b82815281810190858301604080860288018501891015612ad0578687fd5b865b86811015612b185781838b031215612ae8578788fd5b612af18261335c565b8335612afc81613489565b8152838701358782015285529385019391810191600101612ad2565b509198975050505050505050565b600082601f830112612b36578081fd5b81356020612b46612aad8361338c565b8281528181019085830183850287018401881015612b62578586fd5b855b85811015612b8057813584529284019290840190600101612b64565b5090979650505050505050565b600082601f830112612b9d578081fd5b81356001600160401b03811115612bb657612bb661345b565b612bc9601f8201601f191660200161335c565b818152846020838601011115612bdd578283fd5b816020850160208301379081016020019190915292915050565b803560ff8116811461096657600080fd5b600060208284031215612c19578081fd5b813561287d81613471565b600060208284031215612c35578081fd5b815161287d81613471565b600080600060608486031215612c54578182fd5b8335612c5f81613471565b92506020840135612c6f81613471565b91506040840135612c7f81613471565b809150509250925092565b600080600080600060a08688031215612ca1578081fd5b8535612cac81613471565b94506020860135612cbc81613471565b93506040860135925060608601356001600160401b0380821115612cde578283fd5b612cea89838a01612b26565b93506080880135915080821115612cff578283fd5b50612d0c88828901612a8d565b9150509295509295909350565b600080600060608486031215612d2d578283fd5b8335612d3881613471565b925060208401356001600160401b0380821115612d53578384fd5b612d5f87838801612b26565b93506040860135915080821115612d74578283fd5b50612d8186828701612a8d565b9150509250925092565b600060208284031215612d9c578081fd5b81356001600160401b03811115612db1578182fd5b612dbd84828501612b26565b949350505050565b600060208284031215612dd6578081fd5b815161287d81613489565b600060208284031215612df2578081fd5b5035919050565b60008060408385031215612e0b578182fd5b823591506020830135612e1d81613471565b809150509250929050565b600080600060608486031215612e3c578081fd5b833592506020840135612e4e81613471565b929592945050506040919091013590565b60008060008060808587031215612e74578182fd5b843593506020850135612e8681613471565b93969395505050506040820135916060013590565b60008060008060008060c08789031215612eb3578384fd5b863595506020870135612ec581613471565b945060408701359350606087013592506080870135915060a08701356001600160401b03811115612ef4578182fd5b612f0089828a01612b8d565b9150509295509295509295565b600080600060608486031215612f21578081fd5b8335925060208401356001600160401b0380821115612d53578283fd5b60008060408385031215612f50578182fd5b50508035926020909101359150565b600080600080600080600060c0888a031215612f79578485fd5b87359650602088013595506040880135612f9281613471565b9450606088013593506080880135925060a08801356001600160401b03811115612fba578182fd5b612fc68a828b01612a45565b989b979a50959850939692959293505050565b60008060008060008060008060e0898b031215612ff4578182fd5b8835975060208901359650604089013561300d81613471565b9550606089013594506080890135935060a08901356001600160401b03811115613035578283fd5b6130418b828c01612a45565b9094509250613054905060c08a01612bf7565b90509295985092959890939650565b600080600060608486031215613077578081fd5b83359250602084013591506040840135612c7f81613489565b60008060008060008060c087890312156130a8578384fd5b8635955060208701359450604087013593506060870135925060808701356130cf81613471565b8092505060a087013590509295509295509295565b6000602082840312156130f5578081fd5b81356001600160e01b03198116811461287d578182fd5b60006020828403121561311d578081fd5b81356001600160401b03811115613132578182fd5b612dbd84828501612b8d565b60006020828403121561314f578081fd5b61287d82612bf7565b6000806040838503121561316a578182fd5b61317383612bf7565b91506020830135612e1d81613489565b60008284528282602086013780602084860101526020601f19601f85011685010190509392505050565b600082516131bf8184602087016133de565b9190910192915050565b6001600160a01b039384168152919092166020820152604081019190915260600190565b6020808252825182820181905260009190848201906040850190845b8181101561322557835183529284019291840191600101613209565b50909695505050505050565b6000604082018583526020604081850152818583526060850190506060828702860101925086845b878110156132c457868503605f190183528135368a9003601e1901811261327e578687fd5b890180356001600160401b03811115613295578788fd5b8036038b13156132a3578788fd5b6132b08782888501613183565b965050509183019190830190600101613259565b509298975050505050505050565b60006020825282518060208401526132f18160408501602087016133de565b601f01601f19169190910160400192915050565b60208082526010908201526f14185d5cd8589b194e881c185d5cd95960821b604082015260600190565b6020808252601390820152726f6e6c7941646d696e3a2062616420726f6c6560681b604082015260600190565b604051601f8201601f191681016001600160401b03811182821017156133845761338461345b565b604052919050565b60006001600160401b038211156133a5576133a561345b565b5060209081020190565b600082198211156133c2576133c2613445565b500190565b6000828210156133d9576133d9613445565b500390565b60005b838110156133f95781810151838201526020016133e1565b83811115610b285750506000910152565b600060001982141561341e5761341e613445565b5060010190565b600060ff821660ff81141561343c5761343c613445565b60010192915050565b634e487b7160e01b600052601160045260246000fd5b634e487b7160e01b600052604160045260246000fd5b6001600160a01b038116811461348657600080fd5b50565b801515811461348657600080fdfea26469706673582212206e8bd0b4c729320c70bab9d8ee6a736b5d1cda54996136a409195af9232b7f1a64736f6c63430008020033",
  "immutableReferences": {},
  "source": "// SPDX-License-Identifier: MIT\r\npragma solidity ^0.8.2;\r\n\r\nimport \"../interfaces/IWhiteLightVerifier.sol\";\r\nimport \"../interfaces/IWhiteLightNFTDebridge.sol\";\r\nimport \"./WhiteNFTDebridge.sol\";\r\n\r\ncontract WhiteLightNFTDebridge is WhiteNFTDebridge, IWhiteLightNFTDebridge {\r\n    /// @dev Constructor that initializes the most important configurations.\r\n    /// @param _aggregator Submission aggregator address.\r\n    function initialize(\r\n        address _aggregator,\r\n        address _callProxy,\r\n        IERC20 _feeToken\r\n    ) public initializer {\r\n        super._initialize(\r\n            _aggregator,\r\n            _callProxy,\r\n            _feeToken\r\n        );\r\n    }\r\n\r\n    /// @dev Mints wrapped asset on the current chain.\r\n    /// @param _debridgeId Asset identifier.\r\n    /// @param _receiver Receiver address.\r\n    /// @param _tokenId id of token to be transfered asset (note: without applyed fee).\r\n    /// @param _nonce Submission id.\r\n    /// @param _signatures Array of oracles signatures.\r\n    function mint(\r\n        bytes32 _debridgeId,\r\n        uint256 _chainIdFrom,\r\n        address _receiver,\r\n        uint256 _tokenId,\r\n        uint256 _nonce,\r\n        bytes[] calldata _signatures\r\n    ) external override {\r\n        bytes32 submissionId =\r\n            getSubmisionId(\r\n                _debridgeId,\r\n                _chainIdFrom,\r\n                chainId,\r\n                _tokenId,\r\n                _receiver,\r\n                _nonce\r\n            );\r\n        require(\r\n            IWhiteLightVerifier(aggregator).submit(submissionId, _signatures),\r\n            \"mint: not confirmed\"\r\n        );\r\n        _mint(\r\n            submissionId,\r\n            _debridgeId,\r\n            _receiver,\r\n            _tokenId\r\n        );\r\n    }\r\n\r\n    /// @dev Mints wrapped asset on the current chain.\r\n    /// @param _debridgeId Asset identifier.\r\n    /// @param _receiver Receiver address.\r\n    /// @param _tokenId Id of token to be transfered asset (note: without applyed fee).\r\n    /// @param _nonce Submission id.\r\n    /// @param _signatures Array of oracles signatures.\r\n    /// @param _aggregatorVersion Aggregator version.\r\n    function mintWithOldAggregator(\r\n        bytes32 _debridgeId,\r\n        uint256 _chainIdFrom,\r\n        address _receiver,\r\n        uint256 _tokenId,\r\n        uint256 _nonce,\r\n        bytes[] calldata _signatures,\r\n        uint8 _aggregatorVersion\r\n    ) external override {\r\n        bytes32 submissionId =\r\n            getSubmisionId(\r\n                _debridgeId,\r\n                _chainIdFrom,\r\n                chainId,\r\n                _tokenId,\r\n                _receiver,\r\n                _nonce\r\n            );\r\n        AggregatorInfo memory aggregatorInfo =\r\n            getOldAggregator[_aggregatorVersion];\r\n        require(\r\n            aggregatorInfo.isValid,\r\n            \"mintWithOldAggregator: invalidAggregator\"\r\n        );\r\n        require(\r\n            IWhiteLightVerifier(aggregatorInfo.aggregator).submit(\r\n                submissionId,\r\n                _signatures\r\n            ),\r\n            \"mint: not confirmed\"\r\n        );\r\n        _mint(\r\n            submissionId,\r\n            _debridgeId,\r\n            _receiver,\r\n            _tokenId\r\n        );\r\n    }\r\n\r\n    /**\r\n     * @dev Unlock the asset on the current chain and transfer to receiver.\r\n     * @param _debridgeId Asset identifier.\r\n     * @param _receiver Receiver address.\r\n     * @param _tokenId Id of token to be transferred\r\n     * @param _nonce Submission id\r\n     * @param _signatures Array of oracles signatures\r\n     */\r\n    function claim(\r\n        bytes32 _debridgeId,\r\n        uint256 _chainIdFrom,\r\n        address _receiver,\r\n        uint256 _tokenId,\r\n        uint256 _nonce,\r\n        bytes[] calldata _signatures\r\n    ) external {\r\n        bytes32 submissionId =\r\n            getSubmisionId(\r\n                _debridgeId,\r\n                _chainIdFrom,\r\n                chainId,\r\n                _tokenId,\r\n                _receiver,\r\n                _nonce\r\n            );\r\n        require(\r\n            IWhiteLightVerifier(aggregator).submit(submissionId, _signatures),\r\n            \"claim: not confirmed\"\r\n        );\r\n        _claim(\r\n            submissionId,\r\n            _debridgeId,\r\n            _receiver,\r\n            _tokenId\r\n        );\r\n    }\r\n\r\n    /** \r\n     * @dev Unlock the asset on the current chain and transfer to receiver.\r\n     * @param _debridgeId Asset identifier.\r\n     * @param _receiver Receiver address.\r\n     * @param _tokenId Id of token to be tranferred\r\n     * @param _nonce Submission id.\r\n     * @param _signatures Array of oracles signatures.\r\n     * @param _aggregatorVersion Aggregator version.\r\n     */\r\n    function claimWithOldAggregator(\r\n        bytes32 _debridgeId,\r\n        uint256 _chainIdFrom,\r\n        address _receiver,\r\n        uint256 _tokenId,\r\n        uint256 _nonce,\r\n        bytes[] calldata _signatures,\r\n        uint8 _aggregatorVersion\r\n    ) external {\r\n         bytes32 submissionId =\r\n            getSubmisionId(\r\n                _debridgeId,\r\n                _chainIdFrom,\r\n                chainId,\r\n                _tokenId,\r\n                _receiver,\r\n                _nonce\r\n            );\r\n        AggregatorInfo memory aggregatorInfo =\r\n            getOldAggregator[_aggregatorVersion];\r\n        require(\r\n            aggregatorInfo.isValid,\r\n            \"mintWithOldAggregator: invalid aggregator\"\r\n        );\r\n        require(\r\n            IWhiteLightVerifier(aggregatorInfo.aggregator).submit(\r\n                submissionId,\r\n                _signatures\r\n            ),\r\n            \"claim: not confirmed\"\r\n        );\r\n        _claim(\r\n            submissionId,\r\n            _debridgeId,\r\n            _receiver,\r\n            _tokenId\r\n        );\r\n    }\r\n}",
  "sourcePath": "D:/Ethereum/Debridge/debridge-contracts-v1/contracts/transfers/WhiteLightNFTDebridge.sol",
  "compiler": {
    "name": "solc",
    "version": "0.8.2+commit.661d1103.Emscripten.clang"
  },
  "schemaVersion": "3.3.4",
  "updatedAt": "2021-06-09T13:12:09.466Z",
  "devdoc": {
    "kind": "dev",
    "methods": {
      "addExternalAsset(address,address,uint256,uint256[],(bool,uint256)[])": {
        "details": "Add support for the asset from the other chain, deploy new wrapped asset.",
        "params": {
          "_chainId": "Current chain id.",
          "_supportedChainIds": "Chain ids where the token of the current chain can be transfered.",
          "_tokenAddress": "Address of the asset on the other chain.",
          "_wrappedAssetAddress": "Wrapped asset address."
        }
      },
      "addNativeAsset(address,uint256[],(bool,uint256)[])": {
        "details": "Add support for the asset on the current chain.",
        "params": {
          "_supportedChainIds": "Chain ids where native token of the current chain can be wrapped.",
          "_tokenAddress": "Address of the asset on the current chain."
        }
      },
      "burn(bytes32,address,uint256,uint256,uint256,bytes)": {
        "details": "Burns wrapped asset and allowss to claim it on the other chain.",
        "params": {
          "_chainIdTo": "Chain id of the target chain.",
          "_debridgeId": "Asset identifier.",
          "_receiver": "Receiver address.",
          "_tokenId": "Id of token to be transfered"
        }
      },
      "claim(bytes32,uint256,address,uint256,uint256,bytes[])": {
        "details": "Unlock the asset on the current chain and transfer to receiver.",
        "params": {
          "_debridgeId": "Asset identifier.",
          "_nonce": "Submission id",
          "_receiver": "Receiver address.",
          "_signatures": "Array of oracles signatures",
          "_tokenId": "Id of token to be transferred"
        }
      },
      "claimWithOldAggregator(bytes32,uint256,address,uint256,uint256,bytes[],uint8)": {
        "details": "Unlock the asset on the current chain and transfer to receiver.",
        "params": {
          "_aggregatorVersion": "Aggregator version.",
          "_debridgeId": "Asset identifier.",
          "_nonce": "Submission id.",
          "_receiver": "Receiver address.",
          "_signatures": "Array of oracles signatures.",
          "_tokenId": "Id of token to be tranferred"
        }
      },
      "getChainIdSupport(bytes32,uint256)": {
        "details": "Check if transfer to chain is supported.",
        "params": {
          "_chainId": "Chain identifier.",
          "_debridgeId": "Asset identifier."
        }
      },
      "getDebridgeId(uint256,address)": {
        "details": "Calculates asset identifier.",
        "params": {
          "_chainId": "Current chain id.",
          "_tokenAddress": "Address of the asset on the other chain."
        }
      },
      "getOwnerOfToken(bytes32,uint256)": {
        "details": "get owner of token",
        "params": {
          "_debridgeId": "Asset identifier.",
          "_tokenId": "Chain identifier."
        }
      },
      "getRoleAdmin(bytes32)": {
        "details": "Returns the admin role that controls `role`. See {grantRole} and {revokeRole}. To change a role's admin, use {_setRoleAdmin}."
      },
      "getSubmisionId(bytes32,uint256,uint256,uint256,address,uint256)": {
        "details": "Calculate submission id.",
        "params": {
          "_chainIdFrom": "Chain identifier of the chain where tokens are sent from.",
          "_chainIdTo": "Chain identifier of the chain where tokens are sent to.",
          "_debridgeId": "Asset identifier.",
          "_nonce": "Submission id.",
          "_receiver": "Receiver address.",
          "_tokenId": "Id of token to be transfered"
        }
      },
      "grantRole(bytes32,address)": {
        "details": "Grants `role` to `account`. If `account` had not been already granted `role`, emits a {RoleGranted} event. Requirements: - the caller must have ``role``'s admin role."
      },
      "hasRole(bytes32,address)": {
        "details": "Returns `true` if `account` has been granted `role`."
      },
      "initialize(address,address,address)": {
        "details": "Constructor that initializes the most important configurations.",
        "params": {
          "_aggregator": "Submission aggregator address."
        }
      },
      "manageOldAggregator(uint8,bool)": {
        "details": "Set aggregator address.",
        "params": {
          "_aggregatorVersion": "Submission aggregator address.",
          "_isValid": "Is valid."
        }
      },
      "mint(bytes32,uint256,address,uint256,uint256,bytes[])": {
        "details": "Mints wrapped asset on the current chain.",
        "params": {
          "_debridgeId": "Asset identifier.",
          "_nonce": "Submission id.",
          "_receiver": "Receiver address.",
          "_signatures": "Array of oracles signatures.",
          "_tokenId": "id of token to be transfered asset (note: without applyed fee)."
        }
      },
      "mintWithOldAggregator(bytes32,uint256,address,uint256,uint256,bytes[],uint8)": {
        "details": "Mints wrapped asset on the current chain.",
        "params": {
          "_aggregatorVersion": "Aggregator version.",
          "_debridgeId": "Asset identifier.",
          "_nonce": "Submission id.",
          "_receiver": "Receiver address.",
          "_signatures": "Array of oracles signatures.",
          "_tokenId": "Id of token to be transfered asset (note: without applyed fee)."
        }
      },
      "pause()": {
        "details": "Stop all transfers."
      },
      "paused()": {
        "details": "Returns true if the contract is paused, and false otherwise."
      },
      "renounceRole(bytes32,address)": {
        "details": "Revokes `role` from the calling account. Roles are often managed via {grantRole} and {revokeRole}: this function's purpose is to provide a mechanism for accounts to lose their privileges if they are compromised (such as when a trusted device is misplaced). If the calling account had been granted `role`, emits a {RoleRevoked} event. Requirements: - the caller must be `account`."
      },
      "revokeRole(bytes32,address)": {
        "details": "Revokes `role` from `account`. If `account` had been granted `role`, emits a {RoleRevoked} event. Requirements: - the caller must have ``role``'s admin role."
      },
      "send(bytes32,address,uint256,uint256)": {
        "details": "Locks asset on the chain and enables minting on the other chain.",
        "params": {
          "_chainIdTo": "Chain id of the target chain.",
          "_debridgeId": "Asset identifier.",
          "_receiver": "Receiver address.",
          "_tokenId": "Id of token to be transfered"
        }
      },
      "setAggregator(address)": {
        "details": "Set aggregator address.",
        "params": {
          "_aggregator": "Submission aggregator address."
        }
      },
      "setCallProxy(address)": {
        "details": "Set proxy address.",
        "params": {
          "_callProxy": "Address of the proxy that executes external calls."
        }
      },
      "setChainIdSupport(bytes32,uint256,bool)": {
        "details": "Set support for the chains where the token can be transfered.",
        "params": {
          "_chainId": "Current chain id.",
          "_debridgeId": "Asset identifier.",
          "_isSupported": "Whether the token is transferable to the other chain."
        }
      },
      "setChainIds(uint256[])": {
        "details": "Set support for the chains.",
        "params": {
          "_chainIds": "All supported chain ids."
        }
      },
      "setFeeToken(address)": {
        "details": "Set wrapped native asset address.",
        "params": {
          "_feeToken": "Weth address."
        }
      },
      "splitSignature(bytes)": {
        "details": "Splits signature bytes to r,s,v components.",
        "params": {
          "_signature": "Signature bytes in format r+s+v."
        }
      },
      "supportsInterface(bytes4)": {
        "details": "See {IERC165-supportsInterface}."
      },
      "unpause()": {
        "details": "Allow transfers."
      },
      "updateAsset(bytes32,uint256[],(bool,uint256)[])": {
        "details": "Update asset's fees.",
        "params": {
          "_chainSupportInfo": "Cahin support info.",
          "_debridgeId": "Asset identifier.",
          "_supportedChainIds": "Chain identifiers."
        }
      },
      "withdrawFee(bytes32,address,uint256)": {
        "details": "Withdraw fees.",
        "params": {
          "_amount": "Amount of tokens to withdraw.",
          "_debridgeId": "Asset identifier.",
          "_receiver": "Receiver address."
        }
      }
    },
    "version": 1
  },
  "userdoc": {
    "kind": "user",
    "methods": {},
    "version": 1
  }
}