{
  "contractName": "WithdrawalAggregator",
  "abi": [
    {
      "inputs": [
        {
          "internalType": "uint256",
          "name": "_minConfirmations",
          "type": "uint256"
        },
        {
          "internalType": "uint128",
          "name": "_payment",
          "type": "uint128"
        },
        {
          "internalType": "contract IERC20",
          "name": "_link",
          "type": "address"
        }
      ],
      "stateMutability": "nonpayable",
      "type": "constructor"
    },
    {
      "anonymous": false,
      "inputs": [
        {
          "indexed": false,
          "internalType": "bytes32",
          "name": "debridgeId",
          "type": "bytes32"
        },
        {
          "indexed": false,
          "internalType": "bytes32",
          "name": "commitment",
          "type": "bytes32"
        }
      ],
      "name": "Broadcasted",
      "type": "event"
    },
    {
      "anonymous": false,
      "inputs": [
        {
          "indexed": false,
          "internalType": "bytes32",
          "name": "commitment",
          "type": "bytes32"
        },
        {
          "indexed": false,
          "internalType": "bytes32",
          "name": "debridgeId",
          "type": "bytes32"
        },
        {
          "indexed": false,
          "internalType": "address",
          "name": "operator",
          "type": "address"
        }
      ],
      "name": "Confirmed",
      "type": "event"
    },
    {
      "anonymous": false,
      "inputs": [
        {
          "indexed": true,
          "internalType": "bytes32",
          "name": "role",
          "type": "bytes32"
        },
        {
          "indexed": true,
          "internalType": "bytes32",
          "name": "previousAdminRole",
          "type": "bytes32"
        },
        {
          "indexed": true,
          "internalType": "bytes32",
          "name": "newAdminRole",
          "type": "bytes32"
        }
      ],
      "name": "RoleAdminChanged",
      "type": "event"
    },
    {
      "anonymous": false,
      "inputs": [
        {
          "indexed": true,
          "internalType": "bytes32",
          "name": "role",
          "type": "bytes32"
        },
        {
          "indexed": true,
          "internalType": "address",
          "name": "account",
          "type": "address"
        },
        {
          "indexed": true,
          "internalType": "address",
          "name": "sender",
          "type": "address"
        }
      ],
      "name": "RoleGranted",
      "type": "event"
    },
    {
      "anonymous": false,
      "inputs": [
        {
          "indexed": true,
          "internalType": "bytes32",
          "name": "role",
          "type": "bytes32"
        },
        {
          "indexed": true,
          "internalType": "address",
          "name": "account",
          "type": "address"
        },
        {
          "indexed": true,
          "internalType": "address",
          "name": "sender",
          "type": "address"
        }
      ],
      "name": "RoleRevoked",
      "type": "event"
    },
    {
      "inputs": [],
      "name": "DEFAULT_ADMIN_ROLE",
      "outputs": [
        {
          "internalType": "bytes32",
          "name": "",
          "type": "bytes32"
        }
      ],
      "stateMutability": "view",
      "type": "function"
    },
    {
      "inputs": [],
      "name": "ORACLE_ROLE",
      "outputs": [
        {
          "internalType": "bytes32",
          "name": "",
          "type": "bytes32"
        }
      ],
      "stateMutability": "view",
      "type": "function"
    },
    {
      "inputs": [],
      "name": "allocatedFunds",
      "outputs": [
        {
          "internalType": "uint256",
          "name": "",
          "type": "uint256"
        }
      ],
      "stateMutability": "view",
      "type": "function"
    },
    {
      "inputs": [],
      "name": "availableFunds",
      "outputs": [
        {
          "internalType": "uint256",
          "name": "",
          "type": "uint256"
        }
      ],
      "stateMutability": "view",
      "type": "function"
    },
    {
      "inputs": [
        {
          "internalType": "bytes32",
          "name": "",
          "type": "bytes32"
        }
      ],
      "name": "getDebridge",
      "outputs": [
        {
          "internalType": "contract ILightDarkDebridge",
          "name": "",
          "type": "address"
        }
      ],
      "stateMutability": "view",
      "type": "function"
    },
    {
      "inputs": [
        {
          "internalType": "bytes32",
          "name": "role",
          "type": "bytes32"
        }
      ],
      "name": "getRoleAdmin",
      "outputs": [
        {
          "internalType": "bytes32",
          "name": "",
          "type": "bytes32"
        }
      ],
      "stateMutability": "view",
      "type": "function"
    },
    {
      "inputs": [
        {
          "internalType": "address",
          "name": "",
          "type": "address"
        }
      ],
      "name": "getRracleInfo",
      "outputs": [
        {
          "internalType": "uint128",
          "name": "withdrawable",
          "type": "uint128"
        },
        {
          "internalType": "address",
          "name": "admin",
          "type": "address"
        },
        {
          "internalType": "address",
          "name": "pendingAdmin",
          "type": "address"
        }
      ],
      "stateMutability": "view",
      "type": "function"
    },
    {
      "inputs": [
        {
          "internalType": "bytes32",
          "name": "",
          "type": "bytes32"
        }
      ],
      "name": "getWithdrawalInfo",
      "outputs": [
        {
          "internalType": "bool",
          "name": "broadcasted",
          "type": "bool"
        },
        {
          "internalType": "uint256",
          "name": "confirmations",
          "type": "uint256"
        },
        {
          "internalType": "bytes32",
          "name": "debridgeId",
          "type": "bytes32"
        },
        {
          "internalType": "bytes32",
          "name": "nullifierHash",
          "type": "bytes32"
        },
        {
          "internalType": "address",
          "name": "recipient",
          "type": "address"
        },
        {
          "internalType": "address",
          "name": "relayer",
          "type": "address"
        },
        {
          "internalType": "uint256",
          "name": "fee",
          "type": "uint256"
        },
        {
          "internalType": "uint256",
          "name": "refund",
          "type": "uint256"
        }
      ],
      "stateMutability": "view",
      "type": "function"
    },
    {
      "inputs": [
        {
          "internalType": "bytes32",
          "name": "role",
          "type": "bytes32"
        },
        {
          "internalType": "address",
          "name": "account",
          "type": "address"
        }
      ],
      "name": "grantRole",
      "outputs": [],
      "stateMutability": "nonpayable",
      "type": "function"
    },
    {
      "inputs": [
        {
          "internalType": "bytes32",
          "name": "role",
          "type": "bytes32"
        },
        {
          "internalType": "address",
          "name": "account",
          "type": "address"
        }
      ],
      "name": "hasRole",
      "outputs": [
        {
          "internalType": "bool",
          "name": "",
          "type": "bool"
        }
      ],
      "stateMutability": "view",
      "type": "function"
    },
    {
      "inputs": [],
      "name": "link",
      "outputs": [
        {
          "internalType": "contract IERC20",
          "name": "",
          "type": "address"
        }
      ],
      "stateMutability": "view",
      "type": "function"
    },
    {
      "inputs": [],
      "name": "minConfirmations",
      "outputs": [
        {
          "internalType": "uint256",
          "name": "",
          "type": "uint256"
        }
      ],
      "stateMutability": "view",
      "type": "function"
    },
    {
      "inputs": [
        {
          "internalType": "address",
          "name": "",
          "type": "address"
        },
        {
          "internalType": "uint256",
          "name": "",
          "type": "uint256"
        },
        {
          "internalType": "bytes",
          "name": "_data",
          "type": "bytes"
        }
      ],
      "name": "onTokenTransfer",
      "outputs": [],
      "stateMutability": "nonpayable",
      "type": "function"
    },
    {
      "inputs": [],
      "name": "payment",
      "outputs": [
        {
          "internalType": "uint128",
          "name": "",
          "type": "uint128"
        }
      ],
      "stateMutability": "view",
      "type": "function"
    },
    {
      "inputs": [
        {
          "internalType": "bytes32",
          "name": "role",
          "type": "bytes32"
        },
        {
          "internalType": "address",
          "name": "account",
          "type": "address"
        }
      ],
      "name": "renounceRole",
      "outputs": [],
      "stateMutability": "nonpayable",
      "type": "function"
    },
    {
      "inputs": [
        {
          "internalType": "bytes32",
          "name": "role",
          "type": "bytes32"
        },
        {
          "internalType": "address",
          "name": "account",
          "type": "address"
        }
      ],
      "name": "revokeRole",
      "outputs": [],
      "stateMutability": "nonpayable",
      "type": "function"
    },
    {
      "inputs": [
        {
          "internalType": "uint256",
          "name": "_minConfirmations",
          "type": "uint256"
        }
      ],
      "name": "setMinConfirmations",
      "outputs": [],
      "stateMutability": "nonpayable",
      "type": "function"
    },
    {
      "inputs": [
        {
          "internalType": "uint128",
          "name": "_payment",
          "type": "uint128"
        }
      ],
      "name": "setPayment",
      "outputs": [],
      "stateMutability": "nonpayable",
      "type": "function"
    },
    {
      "inputs": [
        {
          "internalType": "bytes4",
          "name": "interfaceId",
          "type": "bytes4"
        }
      ],
      "name": "supportsInterface",
      "outputs": [
        {
          "internalType": "bool",
          "name": "",
          "type": "bool"
        }
      ],
      "stateMutability": "view",
      "type": "function"
    },
    {
      "inputs": [],
      "name": "updateAvailableFunds",
      "outputs": [],
      "stateMutability": "nonpayable",
      "type": "function"
    },
    {
      "inputs": [
        {
          "internalType": "address",
          "name": "_recipient",
          "type": "address"
        },
        {
          "internalType": "uint256",
          "name": "_amount",
          "type": "uint256"
        }
      ],
      "name": "withdrawFunds",
      "outputs": [],
      "stateMutability": "nonpayable",
      "type": "function"
    },
    {
      "inputs": [
        {
          "internalType": "address",
          "name": "_oracle",
          "type": "address"
        },
        {
          "internalType": "address",
          "name": "_recipient",
          "type": "address"
        },
        {
          "internalType": "uint256",
          "name": "_amount",
          "type": "uint256"
        }
      ],
      "name": "withdrawPayment",
      "outputs": [],
      "stateMutability": "nonpayable",
      "type": "function"
    },
    {
      "inputs": [
        {
          "internalType": "address",
          "name": "_oracle",
          "type": "address"
        }
      ],
      "name": "withdrawablePayment",
      "outputs": [
        {
          "internalType": "uint256",
          "name": "",
          "type": "uint256"
        }
      ],
      "stateMutability": "view",
      "type": "function"
    },
    {
      "inputs": [
        {
          "internalType": "bytes32",
          "name": "_debridgeId",
          "type": "bytes32"
        },
        {
          "internalType": "bytes32",
          "name": "_nullifierHash",
          "type": "bytes32"
        },
        {
          "internalType": "uint256",
          "name": "_fee",
          "type": "uint256"
        },
        {
          "internalType": "uint256",
          "name": "_refund",
          "type": "uint256"
        },
        {
          "internalType": "address payable",
          "name": "_recipient",
          "type": "address"
        },
        {
          "internalType": "address payable",
          "name": "_relayer",
          "type": "address"
        }
      ],
      "name": "submit",
      "outputs": [],
      "stateMutability": "nonpayable",
      "type": "function"
    },
    {
      "inputs": [
        {
          "internalType": "bytes32",
          "name": "_debridgeId",
          "type": "bytes32"
        },
        {
          "internalType": "contract ILightDarkDebridge",
          "name": "_debridge",
          "type": "address"
        }
      ],
      "name": "setDebridge",
      "outputs": [],
      "stateMutability": "nonpayable",
      "type": "function"
    }
  ],
  "bytecode": "0x60806040523480156200001157600080fd5b5060405162002b2438038062002b2483398181016040528101906200003791906200029a565b8282828260018190555081600460006101000a8154816fffffffffffffffffffffffffffffffff02191690836fffffffffffffffffffffffffffffffff16021790555080600560006101000a81548173ffffffffffffffffffffffffffffffffffffffff021916908373ffffffffffffffffffffffffffffffffffffffff160217905550620000d06000801b33620000dc60201b60201c565b505050505050620003ac565b620000ee8282620000f260201b60201c565b5050565b620001048282620001e360201b60201c565b620001df57600160008084815260200190815260200160002060000160008373ffffffffffffffffffffffffffffffffffffffff1673ffffffffffffffffffffffffffffffffffffffff16815260200190815260200160002060006101000a81548160ff021916908315150217905550620001846200024d60201b60201c565b73ffffffffffffffffffffffffffffffffffffffff168173ffffffffffffffffffffffffffffffffffffffff16837f2f8788117e7eff1d82e926ec794901d17c78024a50270940304540a733656f0d60405160405180910390a45b5050565b600080600084815260200190815260200160002060000160008373ffffffffffffffffffffffffffffffffffffffff1673ffffffffffffffffffffffffffffffffffffffff16815260200190815260200160002060009054906101000a900460ff16905092915050565b600033905090565b60008151905062000266816200035e565b92915050565b6000815190506200027d8162000378565b92915050565b600081519050620002948162000392565b92915050565b600080600060608486031215620002b057600080fd5b6000620002c08682870162000283565b9350506020620002d3868287016200026c565b9250506040620002e68682870162000255565b9150509250925092565b6000620002fd8262000334565b9050919050565b60006200031182620002f0565b9050919050565b60006fffffffffffffffffffffffffffffffff82169050919050565b600073ffffffffffffffffffffffffffffffffffffffff82169050919050565b6000819050919050565b620003698162000304565b81146200037557600080fd5b50565b620003838162000318565b81146200038f57600080fd5b50565b6200039d8162000354565b8114620003a957600080fd5b50565b61276880620003bc6000396000f3fe608060405234801561001057600080fd5b50600436106101735760003560e01c806357cf07ca116100de578063c107532911610097578063d547741f11610071578063d547741f1461043f578063dd6db3281461045b578063e2e4031714610477578063e7c4393e146104a757610173565b8063c1075329146103e9578063d282165514610405578063d4cc54e41461042157610173565b806357cf07ca146102fc578063740a7a9e1461032c57806382313e501461036357806391d148541461037f578063a217fddf146103af578063a4c0ed36146103cd57610173565b806336568abe1161013057806336568abe146102625780633d3d77141461027e57806342f6487a1461029a57806346fcff4c146102b85780634f8fc3b5146102d657806351be6ad7146102e057610173565b806301ffc9a71461017857806307e2cea5146101a85780631c4695f4146101c6578063248a9ca3146101e45780632dd6b35c146102145780632f2ff15d14610246575b600080fd5b610192600480360381019061018d9190611b24565b6104c5565b60405161019f9190611eff565b60405180910390f35b6101b061053f565b6040516101bd9190611f98565b60405180910390f35b6101ce610563565b6040516101db9190611fb3565b60405180910390f35b6101fe60048036038101906101f991906119fa565b610589565b60405161020b9190611f98565b60405180910390f35b61022e600480360381019061022991906118b1565b6105a8565b60405161023d93929190612164565b60405180910390f35b610260600480360381019061025b9190611a23565b61062e565b005b61027c60048036038101906102779190611a23565b610694565b005b610298600480360381019061029391906118da565b610717565b005b6102a2610a60565b6040516102af9190612149565b60405180910390f35b6102c0610a82565b6040516102cd919061219b565b60405180910390f35b6102de610a88565b005b6102fa60048036038101906102f59190611ae8565b610b48565b005b610316600480360381019061031191906119fa565b610bea565b6040516103239190611fce565b60405180910390f35b610346600480360381019061034191906119fa565b610c1d565b60405161035a989796959493929190611f1a565b60405180910390f35b61037d60048036038101906103789190611b4d565b610cb2565b005b61039960048036038101906103949190611a23565b610d3a565b6040516103a69190611eff565b60405180910390f35b6103b7610da4565b6040516103c49190611f98565b60405180910390f35b6103e760048036038101906103e29190611965565b610dab565b005b61040360048036038101906103fe9190611929565b610dff565b005b61041f600480360381019061041a9190611b76565b610f8a565b005b610429610fe0565b604051610436919061219b565b60405180910390f35b61045960048036038101906104549190611a23565b610fe6565b005b61047560048036038101906104709190611a5f565b61104c565b005b610491600480360381019061048c91906118b1565b6113a1565b60405161049e919061219b565b60405180910390f35b6104af61141b565b6040516104bc919061219b565b60405180910390f35b60007f7965db0b000000000000000000000000000000000000000000000000000000007bffffffffffffffffffffffffffffffffffffffffffffffffffffffff1916827bffffffffffffffffffffffffffffffffffffffffffffffffffffffff19161480610538575061053782611421565b5b9050919050565b7f68e79a7bf1e0bc45d0a330c573bc367f9cf464fd326078812f301165fbda4ef181565b600560009054906101000a900473ffffffffffffffffffffffffffffffffffffffff1681565b6000806000838152602001908152602001600020600101549050919050565b60066020528060005260406000206000915090508060000160009054906101000a90046fffffffffffffffffffffffffffffffff16908060010160009054906101000a900473ffffffffffffffffffffffffffffffffffffffff16908060020160009054906101000a900473ffffffffffffffffffffffffffffffffffffffff16905083565b61064761063a83610589565b61064261148b565b610d3a565b610686576040517f08c379a000000000000000000000000000000000000000000000000000000000815260040161067d90611fe9565b60405180910390fd5b6106908282611493565b5050565b61069c61148b565b73ffffffffffffffffffffffffffffffffffffffff168173ffffffffffffffffffffffffffffffffffffffff1614610709576040517f08c379a000000000000000000000000000000000000000000000000000000000815260040161070090612129565b60405180910390fd5b6107138282611573565b5050565b3373ffffffffffffffffffffffffffffffffffffffff16600660008573ffffffffffffffffffffffffffffffffffffffff1673ffffffffffffffffffffffffffffffffffffffff16815260200190815260200160002060010160009054906101000a900473ffffffffffffffffffffffffffffffffffffffff1673ffffffffffffffffffffffffffffffffffffffff16146107e7576040517f08c379a00000000000000000000000000000000000000000000000000000000081526004016107de906120c9565b60405180910390fd5b60008190506000600660008673ffffffffffffffffffffffffffffffffffffffff1673ffffffffffffffffffffffffffffffffffffffff16815260200190815260200160002060000160009054906101000a90046fffffffffffffffffffffffffffffffff169050816fffffffffffffffffffffffffffffffff16816fffffffffffffffffffffffffffffffff1610156108b6576040517f08c379a00000000000000000000000000000000000000000000000000000000081526004016108ad90612009565b60405180910390fd5b81816108c29190612263565b600660008773ffffffffffffffffffffffffffffffffffffffff1673ffffffffffffffffffffffffffffffffffffffff16815260200190815260200160002060000160006101000a8154816fffffffffffffffffffffffffffffffff02191690836fffffffffffffffffffffffffffffffff160217905550816fffffffffffffffffffffffffffffffff166002600082825461095e9190612297565b92505081905550600560009054906101000a900473ffffffffffffffffffffffffffffffffffffffff1673ffffffffffffffffffffffffffffffffffffffff1663a9059cbb85846fffffffffffffffffffffffffffffffff166040518363ffffffff1660e01b81526004016109d4929190611ed6565b602060405180830381600087803b1580156109ee57600080fd5b505af1158015610a02573d6000803e3d6000fd5b505050506040513d601f19601f82011682018060405250810190610a2691906119d1565b610a59577f4e487b7100000000000000000000000000000000000000000000000000000000600052600160045260246000fd5b5050505050565b600460009054906101000a90046fffffffffffffffffffffffffffffffff1681565b60035481565b600254600560009054906101000a900473ffffffffffffffffffffffffffffffffffffffff1673ffffffffffffffffffffffffffffffffffffffff166370a08231306040518263ffffffff1660e01b8152600401610ae69190611e76565b60206040518083038186803b158015610afe57600080fd5b505afa158015610b12573d6000803e3d6000fd5b505050506040513d601f19601f82011682018060405250810190610b369190611b9f565b610b409190612297565b600381905550565b610b556000801b33610d3a565b610b94576040517f08c379a0000000000000000000000000000000000000000000000000000000008152600401610b8b906120e9565b60405180910390fd5b806008600084815260200190815260200160002060006101000a81548173ffffffffffffffffffffffffffffffffffffffff021916908373ffffffffffffffffffffffffffffffffffffffff1602179055505050565b60086020528060005260406000206000915054906101000a900473ffffffffffffffffffffffffffffffffffffffff1681565b60076020528060005260406000206000915090508060000160009054906101000a900460ff16908060010154908060020154908060030154908060040160009054906101000a900473ffffffffffffffffffffffffffffffffffffffff16908060050160009054906101000a900473ffffffffffffffffffffffffffffffffffffffff16908060060154908060070154905088565b610cbf6000801b33610d3a565b610cfe576040517f08c379a0000000000000000000000000000000000000000000000000000000008152600401610cf5906120e9565b60405180910390fd5b80600460006101000a8154816fffffffffffffffffffffffffffffffff02191690836fffffffffffffffffffffffffffffffff16021790555050565b600080600084815260200190815260200160002060000160008373ffffffffffffffffffffffffffffffffffffffff1673ffffffffffffffffffffffffffffffffffffffff16815260200190815260200160002060009054906101000a900460ff16905092915050565b6000801b81565b60008282905014610df1576040517f08c379a0000000000000000000000000000000000000000000000000000000008152600401610de890612069565b60405180910390fd5b610df9610a88565b50505050565b610e0c6000801b33610d3a565b610e4b576040517f08c379a0000000000000000000000000000000000000000000000000000000008152600401610e42906120e9565b60405180910390fd5b806003541015610e90576040517f08c379a0000000000000000000000000000000000000000000000000000000008152600401610e87906120a9565b60405180910390fd5b600560009054906101000a900473ffffffffffffffffffffffffffffffffffffffff1673ffffffffffffffffffffffffffffffffffffffff1663a9059cbb83836040518363ffffffff1660e01b8152600401610eed929190611ed6565b602060405180830381600087803b158015610f0757600080fd5b505af1158015610f1b573d6000803e3d6000fd5b505050506040513d601f19601f82011682018060405250810190610f3f91906119d1565b610f7e576040517f08c379a0000000000000000000000000000000000000000000000000000000008152600401610f7590612049565b60405180910390fd5b610f86610a88565b5050565b610f976000801b33610d3a565b610fd6576040517f08c379a0000000000000000000000000000000000000000000000000000000008152600401610fcd906120e9565b60405180910390fd5b8060018190555050565b60025481565b610fff610ff283610589565b610ffa61148b565b610d3a565b61103e576040517f08c379a000000000000000000000000000000000000000000000000000000000815260040161103590612089565b60405180910390fd5b6110488282611573565b5050565b6110767f68e79a7bf1e0bc45d0a330c573bc367f9cf464fd326078812f301165fbda4ef133610d3a565b6110b5576040517f08c379a00000000000000000000000000000000000000000000000000000000081526004016110ac90612109565b60405180910390fd5b60008686868686866040516020016110d296959493929190611e06565b60405160208183030381529060405280519060200120905060006007600083815260200190815260200160002090508060080160003373ffffffffffffffffffffffffffffffffffffffff1673ffffffffffffffffffffffffffffffffffffffff16815260200190815260200160002060009054906101000a900460ff1615611190576040517f08c379a000000000000000000000000000000000000000000000000000000000815260040161118790612029565b60405180910390fd5b60008160010154141561124857878160020181905550868160030181905550858160060181905550848160070181905550838160040160006101000a81548173ffffffffffffffffffffffffffffffffffffffff021916908373ffffffffffffffffffffffffffffffffffffffff160217905550828160050160006101000a81548173ffffffffffffffffffffffffffffffffffffffff021916908373ffffffffffffffffffffffffffffffffffffffff1602179055505b600181600101600082825461125d919061220d565b9250508190555060018160080160003373ffffffffffffffffffffffffffffffffffffffff1673ffffffffffffffffffffffffffffffffffffffff16815260200190815260200160002060006101000a81548160ff0219169083151502179055506001548160010154141561138e576008600089815260200190815260200160002060009054906101000a900473ffffffffffffffffffffffffffffffffffffffff1673ffffffffffffffffffffffffffffffffffffffff16637bfe950c858589896040518563ffffffff1660e01b815260040161133e9493929190611e91565b600060405180830381600087803b15801561135857600080fd5b505af115801561136c573d6000803e3d6000fd5b5050505060018160000160006101000a81548160ff0219169083151502179055505b61139733611654565b5050505050505050565b6000600660008373ffffffffffffffffffffffffffffffffffffffff1673ffffffffffffffffffffffffffffffffffffffff16815260200190815260200160002060000160009054906101000a90046fffffffffffffffffffffffffffffffff166fffffffffffffffffffffffffffffffff169050919050565b60015481565b60007f01ffc9a7000000000000000000000000000000000000000000000000000000007bffffffffffffffffffffffffffffffffffffffffffffffffffffffff1916827bffffffffffffffffffffffffffffffffffffffffffffffffffffffff1916149050919050565b600033905090565b61149d8282610d3a565b61156f57600160008084815260200190815260200160002060000160008373ffffffffffffffffffffffffffffffffffffffff1673ffffffffffffffffffffffffffffffffffffffff16815260200190815260200160002060006101000a81548160ff02191690831515021790555061151461148b565b73ffffffffffffffffffffffffffffffffffffffff168173ffffffffffffffffffffffffffffffffffffffff16837f2f8788117e7eff1d82e926ec794901d17c78024a50270940304540a733656f0d60405160405180910390a45b5050565b61157d8282610d3a565b1561165057600080600084815260200190815260200160002060000160008373ffffffffffffffffffffffffffffffffffffffff1673ffffffffffffffffffffffffffffffffffffffff16815260200190815260200160002060006101000a81548160ff0219169083151502179055506115f561148b565b73ffffffffffffffffffffffffffffffffffffffff168173ffffffffffffffffffffffffffffffffffffffff16837ff6391f5c32d9c69d2a47ea670b442974b53935d1edc7fd64eb21e047a839171b60405160405180910390a45b5050565b600460009054906101000a90046fffffffffffffffffffffffffffffffff166fffffffffffffffffffffffffffffffff16600360008282546116969190612297565b92505081905550600460009054906101000a90046fffffffffffffffffffffffffffffffff166fffffffffffffffffffffffffffffffff16600260008282546116df919061220d565b92505081905550600460009054906101000a90046fffffffffffffffffffffffffffffffff16600660008373ffffffffffffffffffffffffffffffffffffffff1673ffffffffffffffffffffffffffffffffffffffff16815260200190815260200160002060000160008282829054906101000a90046fffffffffffffffffffffffffffffffff1661177191906121c7565b92506101000a8154816fffffffffffffffffffffffffffffffff02191690836fffffffffffffffffffffffffffffffff16021790555050565b6000813590506117b98161267a565b92915050565b6000813590506117ce81612691565b92915050565b6000815190506117e3816126a8565b92915050565b6000813590506117f8816126bf565b92915050565b60008135905061180d816126d6565b92915050565b60008083601f84011261182557600080fd5b8235905067ffffffffffffffff81111561183e57600080fd5b60208301915083600182028301111561185657600080fd5b9250929050565b60008135905061186c816126ed565b92915050565b60008135905061188181612704565b92915050565b6000813590506118968161271b565b92915050565b6000815190506118ab8161271b565b92915050565b6000602082840312156118c357600080fd5b60006118d1848285016117aa565b91505092915050565b6000806000606084860312156118ef57600080fd5b60006118fd868287016117aa565b935050602061190e868287016117aa565b925050604061191f86828701611887565b9150509250925092565b6000806040838503121561193c57600080fd5b600061194a858286016117aa565b925050602061195b85828601611887565b9150509250929050565b6000806000806060858703121561197b57600080fd5b6000611989878288016117aa565b945050602061199a87828801611887565b935050604085013567ffffffffffffffff8111156119b757600080fd5b6119c387828801611813565b925092505092959194509250565b6000602082840312156119e357600080fd5b60006119f1848285016117d4565b91505092915050565b600060208284031215611a0c57600080fd5b6000611a1a848285016117e9565b91505092915050565b60008060408385031215611a3657600080fd5b6000611a44858286016117e9565b9250506020611a55858286016117aa565b9150509250929050565b60008060008060008060c08789031215611a7857600080fd5b6000611a8689828a016117e9565b9650506020611a9789828a016117e9565b9550506040611aa889828a01611887565b9450506060611ab989828a01611887565b9350506080611aca89828a016117bf565b92505060a0611adb89828a016117bf565b9150509295509295509295565b60008060408385031215611afb57600080fd5b6000611b09858286016117e9565b9250506020611b1a8582860161185d565b9150509250929050565b600060208284031215611b3657600080fd5b6000611b44848285016117fe565b91505092915050565b600060208284031215611b5f57600080fd5b6000611b6d84828501611872565b91505092915050565b600060208284031215611b8857600080fd5b6000611b9684828501611887565b91505092915050565b600060208284031215611bb157600080fd5b6000611bbf8482850161189c565b91505092915050565b611bd1816122dd565b82525050565b611be8611be3826122dd565b6123d1565b82525050565b611bf7816122cb565b82525050565b611c06816122ef565b82525050565b611c15816122fb565b82525050565b611c2c611c27826122fb565b6123e3565b82525050565b611c3b81612389565b82525050565b611c4a816123ad565b82525050565b6000611c5d602f836121b6565b9150611c6882612445565b604082019050919050565b6000611c80601f836121b6565b9150611c8b82612494565b602082019050919050565b6000611ca36019836121b6565b9150611cae826124bd565b602082019050919050565b6000611cc6601e836121b6565b9150611cd1826124e6565b602082019050919050565b6000611ce96020836121b6565b9150611cf48261250f565b602082019050919050565b6000611d0c6030836121b6565b9150611d1782612538565b604082019050919050565b6000611d2f601a836121b6565b9150611d3a82612587565b602082019050919050565b6000611d526016836121b6565b9150611d5d826125b0565b602082019050919050565b6000611d756013836121b6565b9150611d80826125d9565b602082019050919050565b6000611d986014836121b6565b9150611da382612602565b602082019050919050565b6000611dbb602f836121b6565b9150611dc68261262b565b604082019050919050565b611dda81612343565b82525050565b611de98161237f565b82525050565b611e00611dfb8261237f565b6123ff565b82525050565b6000611e128289611c1b565b602082019150611e228288611c1b565b602082019150611e328287611def565b602082019150611e428286611def565b602082019150611e528285611bd7565b601482019150611e628284611bd7565b601482019150819050979650505050505050565b6000602082019050611e8b6000830184611bee565b92915050565b6000608082019050611ea66000830187611bc8565b611eb36020830186611bc8565b611ec06040830185611de0565b611ecd6060830184611de0565b95945050505050565b6000604082019050611eeb6000830185611bee565b611ef86020830184611de0565b9392505050565b6000602082019050611f146000830184611bfd565b92915050565b600061010082019050611f30600083018b611bfd565b611f3d602083018a611de0565b611f4a6040830189611c0c565b611f576060830188611c0c565b611f646080830187611bee565b611f7160a0830186611bee565b611f7e60c0830185611de0565b611f8b60e0830184611de0565b9998505050505050505050565b6000602082019050611fad6000830184611c0c565b92915050565b6000602082019050611fc86000830184611c32565b92915050565b6000602082019050611fe36000830184611c41565b92915050565b6000602082019050818103600083015261200281611c50565b9050919050565b6000602082019050818103600083015261202281611c73565b9050919050565b6000602082019050818103600083015261204281611c96565b9050919050565b6000602082019050818103600083015261206281611cb9565b9050919050565b6000602082019050818103600083015261208281611cdc565b9050919050565b600060208201905081810360008301526120a281611cff565b9050919050565b600060208201905081810360008301526120c281611d22565b9050919050565b600060208201905081810360008301526120e281611d45565b9050919050565b6000602082019050818103600083015261210281611d68565b9050919050565b6000602082019050818103600083015261212281611d8b565b9050919050565b6000602082019050818103600083015261214281611dae565b9050919050565b600060208201905061215e6000830184611dd1565b92915050565b60006060820190506121796000830186611dd1565b6121866020830185611bee565b6121936040830184611bee565b949350505050565b60006020820190506121b06000830184611de0565b92915050565b600082825260208201905092915050565b60006121d282612343565b91506121dd83612343565b9250826fffffffffffffffffffffffffffffffff0382111561220257612201612409565b5b828201905092915050565b60006122188261237f565b91506122238361237f565b9250827fffffffffffffffffffffffffffffffffffffffffffffffffffffffffffffffff0382111561225857612257612409565b5b828201905092915050565b600061226e82612343565b915061227983612343565b92508282101561228c5761228b612409565b5b828203905092915050565b60006122a28261237f565b91506122ad8361237f565b9250828210156122c0576122bf612409565b5b828203905092915050565b60006122d68261235f565b9050919050565b60006122e88261235f565b9050919050565b60008115159050919050565b6000819050919050565b60007fffffffff0000000000000000000000000000000000000000000000000000000082169050919050565b600061233c826122cb565b9050919050565b60006fffffffffffffffffffffffffffffffff82169050919050565b600073ffffffffffffffffffffffffffffffffffffffff82169050919050565b6000819050919050565b60006123948261239b565b9050919050565b60006123a68261235f565b9050919050565b60006123b8826123bf565b9050919050565b60006123ca8261235f565b9050919050565b60006123dc826123ed565b9050919050565b6000819050919050565b60006123f882612438565b9050919050565b6000819050919050565b7f4e487b7100000000000000000000000000000000000000000000000000000000600052601160045260246000fd5b60008160601b9050919050565b7f416363657373436f6e74726f6c3a2073656e646572206d75737420626520616e60008201527f2061646d696e20746f206772616e740000000000000000000000000000000000602082015250565b7f696e73756666696369656e7420776974686472617761626c652066756e647300600082015250565b7f7375626d69743a207375626d697474656420616c726561647900000000000000600082015250565b7f776974686472617746756e64733a207472616e73666572206661696c65640000600082015250565b7f7472616e7366657220646f65736e2774206163636570742063616c6c64617461600082015250565b7f416363657373436f6e74726f6c3a2073656e646572206d75737420626520616e60008201527f2061646d696e20746f207265766f6b6500000000000000000000000000000000602082015250565b7f696e73756666696369656e7420726573657276652066756e6473000000000000600082015250565b7f6f6e6c792063616c6c61626c652062792061646d696e00000000000000000000600082015250565b7f6f6e6c7941646d696e3a2062616420726f6c6500000000000000000000000000600082015250565b7f6f6e6c794f7261636c653a2062616420726f6c65000000000000000000000000600082015250565b7f416363657373436f6e74726f6c3a2063616e206f6e6c792072656e6f756e636560008201527f20726f6c657320666f722073656c660000000000000000000000000000000000602082015250565b612683816122cb565b811461268e57600080fd5b50565b61269a816122dd565b81146126a557600080fd5b50565b6126b1816122ef565b81146126bc57600080fd5b50565b6126c8816122fb565b81146126d357600080fd5b50565b6126df81612305565b81146126ea57600080fd5b50565b6126f681612331565b811461270157600080fd5b50565b61270d81612343565b811461271857600080fd5b50565b6127248161237f565b811461272f57600080fd5b5056fea26469706673582212200d4e266e04822e68229a3b01a0f0eeb23a7d20d21096502b00b9aae46d3e28a264736f6c63430008020033",
  "immutableReferences": {},
  "source": "// SPDX-License-Identifier: MIT\npragma solidity ^0.8.2;\n\nimport \"@openzeppelin/contracts/access/AccessControl.sol\";\nimport \"@openzeppelin/contracts/token/ERC20/IERC20.sol\";\nimport \"../interfaces/ILightDarkDebridge.sol\";\nimport \"./Aggregator.sol\";\n\ncontract WithdrawalAggregator is Aggregator {\n    struct WithdrawalInfo {\n        bool broadcasted;\n        uint256 confirmations;\n        bytes32 debridgeId; // hash(chainId, tokenAddress, amount)\n        bytes32 nullifierHash;\n        address recipient;\n        address relayer;\n        uint256 fee;\n        uint256 refund;\n        mapping(address => bool) hasVerified;\n    }\n\n    mapping(bytes32 => WithdrawalInfo) public getWithdrawalInfo;\n    mapping(bytes32 => ILightDarkDebridge) public getDebridge;\n\n    event Confirmed(bytes32 commitment, bytes32 debridgeId, address operator);\n    event Broadcasted(bytes32 debridgeId, bytes32 commitment);\n\n    constructor(\n        uint256 _minConfirmations,\n        uint128 _payment,\n        IERC20 _link\n    ) Aggregator(_minConfirmations, _payment, _link) {}\n\n    function submit(\n        bytes32 _debridgeId,\n        bytes32 _nullifierHash,\n        uint256 _fee,\n        uint256 _refund,\n        address payable _recipient,\n        address payable _relayer\n    ) external onlyOracle {\n        bytes32 withdrawalId =\n            keccak256(\n                abi.encodePacked(\n                    _debridgeId,\n                    _nullifierHash,\n                    _fee,\n                    _refund,\n                    _recipient,\n                    _relayer\n                )\n            );\n        WithdrawalInfo storage withdrawalInfo = getWithdrawalInfo[withdrawalId];\n        require(\n            !withdrawalInfo.hasVerified[msg.sender],\n            \"submit: submitted already\"\n        );\n        if (withdrawalInfo.confirmations == 0) {\n            withdrawalInfo.debridgeId = _debridgeId;\n            withdrawalInfo.nullifierHash = _nullifierHash;\n            withdrawalInfo.fee = _fee;\n            withdrawalInfo.refund = _refund;\n            withdrawalInfo.recipient = _recipient;\n            withdrawalInfo.relayer = _relayer;\n        }\n        withdrawalInfo.confirmations += 1;\n        withdrawalInfo.hasVerified[msg.sender] = true;\n        if (withdrawalInfo.confirmations == minConfirmations) {\n            getDebridge[_debridgeId].withdraw(\n                _recipient,\n                _relayer,\n                _fee,\n                _refund\n            );\n            withdrawalInfo.broadcasted = true;\n        }\n        _payOracle(msg.sender);\n    }\n\n    function setDebridge(bytes32 _debridgeId, ILightDarkDebridge _debridge)\n        external\n        onlyAdmin\n    {\n        getDebridge[_debridgeId] = _debridge;\n    }\n}\n",
  "sourcePath": "/Users/kstasi/Documents/work/debridge-contracts/contracts/chainlink/WithdrawalAggregator.sol",
  "compiler": {
    "name": "solc",
    "version": "0.8.2+commit.661d1103.Emscripten.clang"
  },
  "schemaVersion": "3.3.4",
  "updatedAt": "2021-03-16T21:18:10.067Z",
  "devdoc": {
    "kind": "dev",
    "methods": {
      "getRoleAdmin(bytes32)": {
        "details": "Returns the admin role that controls `role`. See {grantRole} and {revokeRole}. To change a role's admin, use {_setRoleAdmin}."
      },
      "grantRole(bytes32,address)": {
        "details": "Grants `role` to `account`. If `account` had not been already granted `role`, emits a {RoleGranted} event. Requirements: - the caller must have ``role``'s admin role."
      },
      "hasRole(bytes32,address)": {
        "details": "Returns `true` if `account` has been granted `role`."
      },
      "renounceRole(bytes32,address)": {
        "details": "Revokes `role` from the calling account. Roles are often managed via {grantRole} and {revokeRole}: this function's purpose is to provide a mechanism for accounts to lose their privileges if they are compromised (such as when a trusted device is misplaced). If the calling account had been granted `role`, emits a {RoleRevoked} event. Requirements: - the caller must be `account`."
      },
      "revokeRole(bytes32,address)": {
        "details": "Revokes `role` from `account`. If `account` had been granted `role`, emits a {RoleRevoked} event. Requirements: - the caller must have ``role``'s admin role."
      },
      "supportsInterface(bytes4)": {
        "details": "See {IERC165-supportsInterface}."
      }
    },
    "version": 1
  },
  "userdoc": {
    "kind": "user",
    "methods": {},
    "version": 1
  }
}