{
  "contractName": "WithdrawalAggregator",
  "abi": [
    {
      "inputs": [
        {
          "internalType": "uint256",
          "name": "_minConfirmations",
          "type": "uint256"
        },
        {
          "internalType": "uint128",
          "name": "_payment",
          "type": "uint128"
        },
        {
          "internalType": "contract IERC20",
          "name": "_link",
          "type": "address"
        }
      ],
      "stateMutability": "nonpayable",
      "type": "constructor"
    },
    {
      "anonymous": false,
      "inputs": [
        {
          "indexed": false,
          "internalType": "bytes32",
          "name": "debridgeId",
          "type": "bytes32"
        },
        {
          "indexed": false,
          "internalType": "bytes32",
          "name": "commitment",
          "type": "bytes32"
        }
      ],
      "name": "Broadcasted",
      "type": "event"
    },
    {
      "anonymous": false,
      "inputs": [
        {
          "indexed": false,
          "internalType": "bytes32",
          "name": "commitment",
          "type": "bytes32"
        },
        {
          "indexed": false,
          "internalType": "bytes32",
          "name": "debridgeId",
          "type": "bytes32"
        },
        {
          "indexed": false,
          "internalType": "address",
          "name": "operator",
          "type": "address"
        }
      ],
      "name": "Confirmed",
      "type": "event"
    },
    {
      "anonymous": false,
      "inputs": [
        {
          "indexed": true,
          "internalType": "bytes32",
          "name": "role",
          "type": "bytes32"
        },
        {
          "indexed": true,
          "internalType": "bytes32",
          "name": "previousAdminRole",
          "type": "bytes32"
        },
        {
          "indexed": true,
          "internalType": "bytes32",
          "name": "newAdminRole",
          "type": "bytes32"
        }
      ],
      "name": "RoleAdminChanged",
      "type": "event"
    },
    {
      "anonymous": false,
      "inputs": [
        {
          "indexed": true,
          "internalType": "bytes32",
          "name": "role",
          "type": "bytes32"
        },
        {
          "indexed": true,
          "internalType": "address",
          "name": "account",
          "type": "address"
        },
        {
          "indexed": true,
          "internalType": "address",
          "name": "sender",
          "type": "address"
        }
      ],
      "name": "RoleGranted",
      "type": "event"
    },
    {
      "anonymous": false,
      "inputs": [
        {
          "indexed": true,
          "internalType": "bytes32",
          "name": "role",
          "type": "bytes32"
        },
        {
          "indexed": true,
          "internalType": "address",
          "name": "account",
          "type": "address"
        },
        {
          "indexed": true,
          "internalType": "address",
          "name": "sender",
          "type": "address"
        }
      ],
      "name": "RoleRevoked",
      "type": "event"
    },
    {
      "inputs": [],
      "name": "DEFAULT_ADMIN_ROLE",
      "outputs": [
        {
          "internalType": "bytes32",
          "name": "",
          "type": "bytes32"
        }
      ],
      "stateMutability": "view",
      "type": "function"
    },
    {
      "inputs": [],
      "name": "ORACLE_ROLE",
      "outputs": [
        {
          "internalType": "bytes32",
          "name": "",
          "type": "bytes32"
        }
      ],
      "stateMutability": "view",
      "type": "function"
    },
    {
      "inputs": [
        {
          "internalType": "address",
          "name": "_aggregator",
          "type": "address"
        }
      ],
      "name": "addOracle",
      "outputs": [],
      "stateMutability": "nonpayable",
      "type": "function"
    },
    {
      "inputs": [],
      "name": "allocatedFunds",
      "outputs": [
        {
          "internalType": "uint256",
          "name": "",
          "type": "uint256"
        }
      ],
      "stateMutability": "view",
      "type": "function"
    },
    {
      "inputs": [],
      "name": "availableFunds",
      "outputs": [
        {
          "internalType": "uint256",
          "name": "",
          "type": "uint256"
        }
      ],
      "stateMutability": "view",
      "type": "function"
    },
    {
      "inputs": [
        {
          "internalType": "bytes32",
          "name": "",
          "type": "bytes32"
        }
      ],
      "name": "getDebridge",
      "outputs": [
        {
          "internalType": "contract ILightDarkDebridge",
          "name": "",
          "type": "address"
        }
      ],
      "stateMutability": "view",
      "type": "function"
    },
    {
      "inputs": [
        {
          "internalType": "bytes32",
          "name": "role",
          "type": "bytes32"
        }
      ],
      "name": "getRoleAdmin",
      "outputs": [
        {
          "internalType": "bytes32",
          "name": "",
          "type": "bytes32"
        }
      ],
      "stateMutability": "view",
      "type": "function"
    },
    {
      "inputs": [
        {
          "internalType": "address",
          "name": "",
          "type": "address"
        }
      ],
      "name": "getRracleInfo",
      "outputs": [
        {
          "internalType": "uint128",
          "name": "withdrawable",
          "type": "uint128"
        },
        {
          "internalType": "address",
          "name": "admin",
          "type": "address"
        },
        {
          "internalType": "address",
          "name": "pendingAdmin",
          "type": "address"
        }
      ],
      "stateMutability": "view",
      "type": "function"
    },
    {
      "inputs": [
        {
          "internalType": "bytes32",
          "name": "",
          "type": "bytes32"
        }
      ],
      "name": "getWithdrawalInfo",
      "outputs": [
        {
          "internalType": "bool",
          "name": "broadcasted",
          "type": "bool"
        },
        {
          "internalType": "uint256",
          "name": "confirmations",
          "type": "uint256"
        },
        {
          "internalType": "bytes32",
          "name": "debridgeId",
          "type": "bytes32"
        },
        {
          "internalType": "bytes32",
          "name": "nullifierHash",
          "type": "bytes32"
        },
        {
          "internalType": "address",
          "name": "recipient",
          "type": "address"
        },
        {
          "internalType": "address",
          "name": "relayer",
          "type": "address"
        },
        {
          "internalType": "uint256",
          "name": "fee",
          "type": "uint256"
        },
        {
          "internalType": "uint256",
          "name": "refund",
          "type": "uint256"
        }
      ],
      "stateMutability": "view",
      "type": "function"
    },
    {
      "inputs": [
        {
          "internalType": "bytes32",
          "name": "role",
          "type": "bytes32"
        },
        {
          "internalType": "address",
          "name": "account",
          "type": "address"
        }
      ],
      "name": "grantRole",
      "outputs": [],
      "stateMutability": "nonpayable",
      "type": "function"
    },
    {
      "inputs": [
        {
          "internalType": "bytes32",
          "name": "role",
          "type": "bytes32"
        },
        {
          "internalType": "address",
          "name": "account",
          "type": "address"
        }
      ],
      "name": "hasRole",
      "outputs": [
        {
          "internalType": "bool",
          "name": "",
          "type": "bool"
        }
      ],
      "stateMutability": "view",
      "type": "function"
    },
    {
      "inputs": [],
      "name": "link",
      "outputs": [
        {
          "internalType": "contract IERC20",
          "name": "",
          "type": "address"
        }
      ],
      "stateMutability": "view",
      "type": "function"
    },
    {
      "inputs": [],
      "name": "minConfirmations",
      "outputs": [
        {
          "internalType": "uint256",
          "name": "",
          "type": "uint256"
        }
      ],
      "stateMutability": "view",
      "type": "function"
    },
    {
      "inputs": [
        {
          "internalType": "address",
          "name": "",
          "type": "address"
        },
        {
          "internalType": "uint256",
          "name": "",
          "type": "uint256"
        },
        {
          "internalType": "bytes",
          "name": "_data",
          "type": "bytes"
        }
      ],
      "name": "onTokenTransfer",
      "outputs": [],
      "stateMutability": "nonpayable",
      "type": "function"
    },
    {
      "inputs": [],
      "name": "payment",
      "outputs": [
        {
          "internalType": "uint128",
          "name": "",
          "type": "uint128"
        }
      ],
      "stateMutability": "view",
      "type": "function"
    },
    {
      "inputs": [
        {
          "internalType": "address",
          "name": "_aggregator",
          "type": "address"
        }
      ],
      "name": "removeOracle",
      "outputs": [],
      "stateMutability": "nonpayable",
      "type": "function"
    },
    {
      "inputs": [
        {
          "internalType": "bytes32",
          "name": "role",
          "type": "bytes32"
        },
        {
          "internalType": "address",
          "name": "account",
          "type": "address"
        }
      ],
      "name": "renounceRole",
      "outputs": [],
      "stateMutability": "nonpayable",
      "type": "function"
    },
    {
      "inputs": [
        {
          "internalType": "bytes32",
          "name": "role",
          "type": "bytes32"
        },
        {
          "internalType": "address",
          "name": "account",
          "type": "address"
        }
      ],
      "name": "revokeRole",
      "outputs": [],
      "stateMutability": "nonpayable",
      "type": "function"
    },
    {
      "inputs": [
        {
          "internalType": "uint256",
          "name": "_minConfirmations",
          "type": "uint256"
        }
      ],
      "name": "setMinConfirmations",
      "outputs": [],
      "stateMutability": "nonpayable",
      "type": "function"
    },
    {
      "inputs": [
        {
          "internalType": "uint128",
          "name": "_payment",
          "type": "uint128"
        }
      ],
      "name": "setPayment",
      "outputs": [],
      "stateMutability": "nonpayable",
      "type": "function"
    },
    {
      "inputs": [
        {
          "internalType": "bytes4",
          "name": "interfaceId",
          "type": "bytes4"
        }
      ],
      "name": "supportsInterface",
      "outputs": [
        {
          "internalType": "bool",
          "name": "",
          "type": "bool"
        }
      ],
      "stateMutability": "view",
      "type": "function"
    },
    {
      "inputs": [],
      "name": "updateAvailableFunds",
      "outputs": [],
      "stateMutability": "nonpayable",
      "type": "function"
    },
    {
      "inputs": [
        {
          "internalType": "address",
          "name": "_recipient",
          "type": "address"
        },
        {
          "internalType": "uint256",
          "name": "_amount",
          "type": "uint256"
        }
      ],
      "name": "withdrawFunds",
      "outputs": [],
      "stateMutability": "nonpayable",
      "type": "function"
    },
    {
      "inputs": [
        {
          "internalType": "address",
          "name": "_oracle",
          "type": "address"
        },
        {
          "internalType": "address",
          "name": "_recipient",
          "type": "address"
        },
        {
          "internalType": "uint256",
          "name": "_amount",
          "type": "uint256"
        }
      ],
      "name": "withdrawPayment",
      "outputs": [],
      "stateMutability": "nonpayable",
      "type": "function"
    },
    {
      "inputs": [
        {
          "internalType": "address",
          "name": "_oracle",
          "type": "address"
        }
      ],
      "name": "withdrawablePayment",
      "outputs": [
        {
          "internalType": "uint256",
          "name": "",
          "type": "uint256"
        }
      ],
      "stateMutability": "view",
      "type": "function"
    },
    {
      "inputs": [
        {
          "internalType": "bytes32",
          "name": "_debridgeId",
          "type": "bytes32"
        },
        {
          "internalType": "bytes32",
          "name": "_nullifierHash",
          "type": "bytes32"
        },
        {
          "internalType": "uint256",
          "name": "_fee",
          "type": "uint256"
        },
        {
          "internalType": "uint256",
          "name": "_refund",
          "type": "uint256"
        },
        {
          "internalType": "address payable",
          "name": "_recipient",
          "type": "address"
        },
        {
          "internalType": "address payable",
          "name": "_relayer",
          "type": "address"
        }
      ],
      "name": "submit",
      "outputs": [],
      "stateMutability": "nonpayable",
      "type": "function"
    },
    {
      "inputs": [
        {
          "internalType": "bytes32",
          "name": "_debridgeId",
          "type": "bytes32"
        },
        {
          "internalType": "contract ILightDarkDebridge",
          "name": "_debridge",
          "type": "address"
        }
      ],
      "name": "setDebridge",
      "outputs": [],
      "stateMutability": "nonpayable",
      "type": "function"
    }
  ],
  "bytecode": "0x60806040523480156200001157600080fd5b5060405162002c6838038062002c688339818101604052810190620000379190620002cc565b8282828260018190555081600460006101000a8154816fffffffffffffffffffffffffffffffff02191690836fffffffffffffffffffffffffffffffff16021790555080600560006101000a81548173ffffffffffffffffffffffffffffffffffffffff021916908373ffffffffffffffffffffffffffffffffffffffff160217905550620000d06000801b336200010e60201b60201c565b620001027f68e79a7bf1e0bc45d0a330c573bc367f9cf464fd326078812f301165fbda4ef1336200010e60201b60201c565b505050505050620003de565b6200012082826200012460201b60201c565b5050565b6200013682826200021560201b60201c565b6200021157600160008084815260200190815260200160002060000160008373ffffffffffffffffffffffffffffffffffffffff1673ffffffffffffffffffffffffffffffffffffffff16815260200190815260200160002060006101000a81548160ff021916908315150217905550620001b66200027f60201b60201c565b73ffffffffffffffffffffffffffffffffffffffff168173ffffffffffffffffffffffffffffffffffffffff16837f2f8788117e7eff1d82e926ec794901d17c78024a50270940304540a733656f0d60405160405180910390a45b5050565b600080600084815260200190815260200160002060000160008373ffffffffffffffffffffffffffffffffffffffff1673ffffffffffffffffffffffffffffffffffffffff16815260200190815260200160002060009054906101000a900460ff16905092915050565b600033905090565b600081519050620002988162000390565b92915050565b600081519050620002af81620003aa565b92915050565b600081519050620002c681620003c4565b92915050565b600080600060608486031215620002e257600080fd5b6000620002f286828701620002b5565b935050602062000305868287016200029e565b9250506040620003188682870162000287565b9150509250925092565b60006200032f8262000366565b9050919050565b6000620003438262000322565b9050919050565b60006fffffffffffffffffffffffffffffffff82169050919050565b600073ffffffffffffffffffffffffffffffffffffffff82169050919050565b6000819050919050565b6200039b8162000336565b8114620003a757600080fd5b50565b620003b5816200034a565b8114620003c157600080fd5b50565b620003cf8162000386565b8114620003db57600080fd5b50565b61287a80620003ee6000396000f3fe608060405234801561001057600080fd5b50600436106101a95760003560e01c8063740a7a9e116100f9578063d4cc54e411610097578063df5dd1a511610071578063df5dd1a5146104ad578063e2e40317146104c9578063e7c4393e146104f9578063fdc85fc414610517576101a9565b8063d4cc54e414610457578063d547741f14610475578063dd6db32814610491576101a9565b8063a217fddf116100d3578063a217fddf146103e5578063a4c0ed3614610403578063c10753291461041f578063d28216551461043b576101a9565b8063740a7a9e1461036257806382313e501461039957806391d14854146103b5576101a9565b806336568abe1161016657806346fcff4c1161014057806346fcff4c146102ee5780634f8fc3b51461030c57806351be6ad71461031657806357cf07ca14610332576101a9565b806336568abe146102985780633d3d7714146102b457806342f6487a146102d0576101a9565b806301ffc9a7146101ae57806307e2cea5146101de5780631c4695f4146101fc578063248a9ca31461021a5780632dd6b35c1461024a5780632f2ff15d1461027c575b600080fd5b6101c860048036038101906101c39190611c36565b610533565b6040516101d59190612011565b60405180910390f35b6101e66105ad565b6040516101f391906120aa565b60405180910390f35b6102046105d1565b60405161021191906120c5565b60405180910390f35b610234600480360381019061022f9190611b0c565b6105f7565b60405161024191906120aa565b60405180910390f35b610264600480360381019061025f91906119c3565b610616565b60405161027393929190612276565b60405180910390f35b61029660048036038101906102919190611b35565b61069c565b005b6102b260048036038101906102ad9190611b35565b610702565b005b6102ce60048036038101906102c991906119ec565b610785565b005b6102d8610ace565b6040516102e5919061225b565b60405180910390f35b6102f6610af0565b60405161030391906122ad565b60405180910390f35b610314610af6565b005b610330600480360381019061032b9190611bfa565b610bb6565b005b61034c60048036038101906103479190611b0c565b610c58565b60405161035991906120e0565b60405180910390f35b61037c60048036038101906103779190611b0c565b610c8b565b60405161039098979695949392919061202c565b60405180910390f35b6103b360048036038101906103ae9190611c5f565b610d20565b005b6103cf60048036038101906103ca9190611b35565b610da8565b6040516103dc9190612011565b60405180910390f35b6103ed610e12565b6040516103fa91906120aa565b60405180910390f35b61041d60048036038101906104189190611a77565b610e19565b005b61043960048036038101906104349190611a3b565b610eb7565b005b61045560048036038101906104509190611c88565b611042565b005b61045f611098565b60405161046c91906122ad565b60405180910390f35b61048f600480360381019061048a9190611b35565b61109e565b005b6104ab60048036038101906104a69190611b71565b611104565b005b6104c760048036038101906104c291906119c3565b611459565b005b6104e360048036038101906104de91906119c3565b611486565b6040516104f091906122ad565b60405180910390f35b610501611500565b60405161050e91906122ad565b60405180910390f35b610531600480360381019061052c91906119c3565b611506565b005b60007f7965db0b000000000000000000000000000000000000000000000000000000007bffffffffffffffffffffffffffffffffffffffffffffffffffffffff1916827bffffffffffffffffffffffffffffffffffffffffffffffffffffffff191614806105a657506105a582611533565b5b9050919050565b7f68e79a7bf1e0bc45d0a330c573bc367f9cf464fd326078812f301165fbda4ef181565b600560009054906101000a900473ffffffffffffffffffffffffffffffffffffffff1681565b6000806000838152602001908152602001600020600101549050919050565b60066020528060005260406000206000915090508060000160009054906101000a90046fffffffffffffffffffffffffffffffff16908060010160009054906101000a900473ffffffffffffffffffffffffffffffffffffffff16908060020160009054906101000a900473ffffffffffffffffffffffffffffffffffffffff16905083565b6106b56106a8836105f7565b6106b061159d565b610da8565b6106f4576040517f08c379a00000000000000000000000000000000000000000000000000000000081526004016106eb906120fb565b60405180910390fd5b6106fe82826115a5565b5050565b61070a61159d565b73ffffffffffffffffffffffffffffffffffffffff168173ffffffffffffffffffffffffffffffffffffffff1614610777576040517f08c379a000000000000000000000000000000000000000000000000000000000815260040161076e9061223b565b60405180910390fd5b6107818282611685565b5050565b3373ffffffffffffffffffffffffffffffffffffffff16600660008573ffffffffffffffffffffffffffffffffffffffff1673ffffffffffffffffffffffffffffffffffffffff16815260200190815260200160002060010160009054906101000a900473ffffffffffffffffffffffffffffffffffffffff1673ffffffffffffffffffffffffffffffffffffffff1614610855576040517f08c379a000000000000000000000000000000000000000000000000000000000815260040161084c906121db565b60405180910390fd5b60008190506000600660008673ffffffffffffffffffffffffffffffffffffffff1673ffffffffffffffffffffffffffffffffffffffff16815260200190815260200160002060000160009054906101000a90046fffffffffffffffffffffffffffffffff169050816fffffffffffffffffffffffffffffffff16816fffffffffffffffffffffffffffffffff161015610924576040517f08c379a000000000000000000000000000000000000000000000000000000000815260040161091b9061211b565b60405180910390fd5b81816109309190612375565b600660008773ffffffffffffffffffffffffffffffffffffffff1673ffffffffffffffffffffffffffffffffffffffff16815260200190815260200160002060000160006101000a8154816fffffffffffffffffffffffffffffffff02191690836fffffffffffffffffffffffffffffffff160217905550816fffffffffffffffffffffffffffffffff16600260008282546109cc91906123a9565b92505081905550600560009054906101000a900473ffffffffffffffffffffffffffffffffffffffff1673ffffffffffffffffffffffffffffffffffffffff1663a9059cbb85846fffffffffffffffffffffffffffffffff166040518363ffffffff1660e01b8152600401610a42929190611fe8565b602060405180830381600087803b158015610a5c57600080fd5b505af1158015610a70573d6000803e3d6000fd5b505050506040513d601f19601f82011682018060405250810190610a949190611ae3565b610ac7577f4e487b7100000000000000000000000000000000000000000000000000000000600052600160045260246000fd5b5050505050565b600460009054906101000a90046fffffffffffffffffffffffffffffffff1681565b60035481565b600254600560009054906101000a900473ffffffffffffffffffffffffffffffffffffffff1673ffffffffffffffffffffffffffffffffffffffff166370a08231306040518263ffffffff1660e01b8152600401610b549190611f88565b60206040518083038186803b158015610b6c57600080fd5b505afa158015610b80573d6000803e3d6000fd5b505050506040513d601f19601f82011682018060405250810190610ba49190611cb1565b610bae91906123a9565b600381905550565b610bc36000801b33610da8565b610c02576040517f08c379a0000000000000000000000000000000000000000000000000000000008152600401610bf9906121fb565b60405180910390fd5b806008600084815260200190815260200160002060006101000a81548173ffffffffffffffffffffffffffffffffffffffff021916908373ffffffffffffffffffffffffffffffffffffffff1602179055505050565b60086020528060005260406000206000915054906101000a900473ffffffffffffffffffffffffffffffffffffffff1681565b60076020528060005260406000206000915090508060000160009054906101000a900460ff16908060010154908060020154908060030154908060040160009054906101000a900473ffffffffffffffffffffffffffffffffffffffff16908060050160009054906101000a900473ffffffffffffffffffffffffffffffffffffffff16908060060154908060070154905088565b610d2d6000801b33610da8565b610d6c576040517f08c379a0000000000000000000000000000000000000000000000000000000008152600401610d63906121fb565b60405180910390fd5b80600460006101000a8154816fffffffffffffffffffffffffffffffff02191690836fffffffffffffffffffffffffffffffff16021790555050565b600080600084815260200190815260200160002060000160008373ffffffffffffffffffffffffffffffffffffffff1673ffffffffffffffffffffffffffffffffffffffff16815260200190815260200160002060009054906101000a900460ff16905092915050565b6000801b81565b600560009054906101000a900473ffffffffffffffffffffffffffffffffffffffff1673ffffffffffffffffffffffffffffffffffffffff163373ffffffffffffffffffffffffffffffffffffffff1614610ea9576040517f08c379a0000000000000000000000000000000000000000000000000000000008152600401610ea0906121bb565b60405180910390fd5b610eb1610af6565b50505050565b610ec46000801b33610da8565b610f03576040517f08c379a0000000000000000000000000000000000000000000000000000000008152600401610efa906121fb565b60405180910390fd5b806003541015610f48576040517f08c379a0000000000000000000000000000000000000000000000000000000008152600401610f3f9061219b565b60405180910390fd5b600560009054906101000a900473ffffffffffffffffffffffffffffffffffffffff1673ffffffffffffffffffffffffffffffffffffffff1663a9059cbb83836040518363ffffffff1660e01b8152600401610fa5929190611fe8565b602060405180830381600087803b158015610fbf57600080fd5b505af1158015610fd3573d6000803e3d6000fd5b505050506040513d601f19601f82011682018060405250810190610ff79190611ae3565b611036576040517f08c379a000000000000000000000000000000000000000000000000000000000815260040161102d9061215b565b60405180910390fd5b61103e610af6565b5050565b61104f6000801b33610da8565b61108e576040517f08c379a0000000000000000000000000000000000000000000000000000000008152600401611085906121fb565b60405180910390fd5b8060018190555050565b60025481565b6110b76110aa836105f7565b6110b261159d565b610da8565b6110f6576040517f08c379a00000000000000000000000000000000000000000000000000000000081526004016110ed9061217b565b60405180910390fd5b6111008282611685565b5050565b61112e7f68e79a7bf1e0bc45d0a330c573bc367f9cf464fd326078812f301165fbda4ef133610da8565b61116d576040517f08c379a00000000000000000000000000000000000000000000000000000000081526004016111649061221b565b60405180910390fd5b600086868686868660405160200161118a96959493929190611f18565b60405160208183030381529060405280519060200120905060006007600083815260200190815260200160002090508060080160003373ffffffffffffffffffffffffffffffffffffffff1673ffffffffffffffffffffffffffffffffffffffff16815260200190815260200160002060009054906101000a900460ff1615611248576040517f08c379a000000000000000000000000000000000000000000000000000000000815260040161123f9061213b565b60405180910390fd5b60008160010154141561130057878160020181905550868160030181905550858160060181905550848160070181905550838160040160006101000a81548173ffffffffffffffffffffffffffffffffffffffff021916908373ffffffffffffffffffffffffffffffffffffffff160217905550828160050160006101000a81548173ffffffffffffffffffffffffffffffffffffffff021916908373ffffffffffffffffffffffffffffffffffffffff1602179055505b6001816001016000828254611315919061231f565b9250508190555060018160080160003373ffffffffffffffffffffffffffffffffffffffff1673ffffffffffffffffffffffffffffffffffffffff16815260200190815260200160002060006101000a81548160ff02191690831515021790555060015481600101541415611446576008600089815260200190815260200160002060009054906101000a900473ffffffffffffffffffffffffffffffffffffffff1673ffffffffffffffffffffffffffffffffffffffff16637bfe950c858589896040518563ffffffff1660e01b81526004016113f69493929190611fa3565b600060405180830381600087803b15801561141057600080fd5b505af1158015611424573d6000803e3d6000fd5b5050505060018160000160006101000a81548160ff0219169083151502179055505b61144f33611766565b5050505050505050565b6114837f68e79a7bf1e0bc45d0a330c573bc367f9cf464fd326078812f301165fbda4ef18261069c565b50565b6000600660008373ffffffffffffffffffffffffffffffffffffffff1673ffffffffffffffffffffffffffffffffffffffff16815260200190815260200160002060000160009054906101000a90046fffffffffffffffffffffffffffffffff166fffffffffffffffffffffffffffffffff169050919050565b60015481565b6115307f68e79a7bf1e0bc45d0a330c573bc367f9cf464fd326078812f301165fbda4ef18261109e565b50565b60007f01ffc9a7000000000000000000000000000000000000000000000000000000007bffffffffffffffffffffffffffffffffffffffffffffffffffffffff1916827bffffffffffffffffffffffffffffffffffffffffffffffffffffffff1916149050919050565b600033905090565b6115af8282610da8565b61168157600160008084815260200190815260200160002060000160008373ffffffffffffffffffffffffffffffffffffffff1673ffffffffffffffffffffffffffffffffffffffff16815260200190815260200160002060006101000a81548160ff02191690831515021790555061162661159d565b73ffffffffffffffffffffffffffffffffffffffff168173ffffffffffffffffffffffffffffffffffffffff16837f2f8788117e7eff1d82e926ec794901d17c78024a50270940304540a733656f0d60405160405180910390a45b5050565b61168f8282610da8565b1561176257600080600084815260200190815260200160002060000160008373ffffffffffffffffffffffffffffffffffffffff1673ffffffffffffffffffffffffffffffffffffffff16815260200190815260200160002060006101000a81548160ff02191690831515021790555061170761159d565b73ffffffffffffffffffffffffffffffffffffffff168173ffffffffffffffffffffffffffffffffffffffff16837ff6391f5c32d9c69d2a47ea670b442974b53935d1edc7fd64eb21e047a839171b60405160405180910390a45b5050565b600460009054906101000a90046fffffffffffffffffffffffffffffffff166fffffffffffffffffffffffffffffffff16600360008282546117a891906123a9565b92505081905550600460009054906101000a90046fffffffffffffffffffffffffffffffff166fffffffffffffffffffffffffffffffff16600260008282546117f1919061231f565b92505081905550600460009054906101000a90046fffffffffffffffffffffffffffffffff16600660008373ffffffffffffffffffffffffffffffffffffffff1673ffffffffffffffffffffffffffffffffffffffff16815260200190815260200160002060000160008282829054906101000a90046fffffffffffffffffffffffffffffffff1661188391906122d9565b92506101000a8154816fffffffffffffffffffffffffffffffff02191690836fffffffffffffffffffffffffffffffff16021790555050565b6000813590506118cb8161278c565b92915050565b6000813590506118e0816127a3565b92915050565b6000815190506118f5816127ba565b92915050565b60008135905061190a816127d1565b92915050565b60008135905061191f816127e8565b92915050565b60008083601f84011261193757600080fd5b8235905067ffffffffffffffff81111561195057600080fd5b60208301915083600182028301111561196857600080fd5b9250929050565b60008135905061197e816127ff565b92915050565b60008135905061199381612816565b92915050565b6000813590506119a88161282d565b92915050565b6000815190506119bd8161282d565b92915050565b6000602082840312156119d557600080fd5b60006119e3848285016118bc565b91505092915050565b600080600060608486031215611a0157600080fd5b6000611a0f868287016118bc565b9350506020611a20868287016118bc565b9250506040611a3186828701611999565b9150509250925092565b60008060408385031215611a4e57600080fd5b6000611a5c858286016118bc565b9250506020611a6d85828601611999565b9150509250929050565b60008060008060608587031215611a8d57600080fd5b6000611a9b878288016118bc565b9450506020611aac87828801611999565b935050604085013567ffffffffffffffff811115611ac957600080fd5b611ad587828801611925565b925092505092959194509250565b600060208284031215611af557600080fd5b6000611b03848285016118e6565b91505092915050565b600060208284031215611b1e57600080fd5b6000611b2c848285016118fb565b91505092915050565b60008060408385031215611b4857600080fd5b6000611b56858286016118fb565b9250506020611b67858286016118bc565b9150509250929050565b60008060008060008060c08789031215611b8a57600080fd5b6000611b9889828a016118fb565b9650506020611ba989828a016118fb565b9550506040611bba89828a01611999565b9450506060611bcb89828a01611999565b9350506080611bdc89828a016118d1565b92505060a0611bed89828a016118d1565b9150509295509295509295565b60008060408385031215611c0d57600080fd5b6000611c1b858286016118fb565b9250506020611c2c8582860161196f565b9150509250929050565b600060208284031215611c4857600080fd5b6000611c5684828501611910565b91505092915050565b600060208284031215611c7157600080fd5b6000611c7f84828501611984565b91505092915050565b600060208284031215611c9a57600080fd5b6000611ca884828501611999565b91505092915050565b600060208284031215611cc357600080fd5b6000611cd1848285016119ae565b91505092915050565b611ce3816123ef565b82525050565b611cfa611cf5826123ef565b6124e3565b82525050565b611d09816123dd565b82525050565b611d1881612401565b82525050565b611d278161240d565b82525050565b611d3e611d398261240d565b6124f5565b82525050565b611d4d8161249b565b82525050565b611d5c816124bf565b82525050565b6000611d6f602f836122c8565b9150611d7a82612557565b604082019050919050565b6000611d92601f836122c8565b9150611d9d826125a6565b602082019050919050565b6000611db56019836122c8565b9150611dc0826125cf565b602082019050919050565b6000611dd8601e836122c8565b9150611de3826125f8565b602082019050919050565b6000611dfb6030836122c8565b9150611e0682612621565b604082019050919050565b6000611e1e601a836122c8565b9150611e2982612670565b602082019050919050565b6000611e41601d836122c8565b9150611e4c82612699565b602082019050919050565b6000611e646016836122c8565b9150611e6f826126c2565b602082019050919050565b6000611e876013836122c8565b9150611e92826126eb565b602082019050919050565b6000611eaa6014836122c8565b9150611eb582612714565b602082019050919050565b6000611ecd602f836122c8565b9150611ed88261273d565b604082019050919050565b611eec81612455565b82525050565b611efb81612491565b82525050565b611f12611f0d82612491565b612511565b82525050565b6000611f248289611d2d565b602082019150611f348288611d2d565b602082019150611f448287611f01565b602082019150611f548286611f01565b602082019150611f648285611ce9565b601482019150611f748284611ce9565b601482019150819050979650505050505050565b6000602082019050611f9d6000830184611d00565b92915050565b6000608082019050611fb86000830187611cda565b611fc56020830186611cda565b611fd26040830185611ef2565b611fdf6060830184611ef2565b95945050505050565b6000604082019050611ffd6000830185611d00565b61200a6020830184611ef2565b9392505050565b60006020820190506120266000830184611d0f565b92915050565b600061010082019050612042600083018b611d0f565b61204f602083018a611ef2565b61205c6040830189611d1e565b6120696060830188611d1e565b6120766080830187611d00565b61208360a0830186611d00565b61209060c0830185611ef2565b61209d60e0830184611ef2565b9998505050505050505050565b60006020820190506120bf6000830184611d1e565b92915050565b60006020820190506120da6000830184611d44565b92915050565b60006020820190506120f56000830184611d53565b92915050565b6000602082019050818103600083015261211481611d62565b9050919050565b6000602082019050818103600083015261213481611d85565b9050919050565b6000602082019050818103600083015261215481611da8565b9050919050565b6000602082019050818103600083015261217481611dcb565b9050919050565b6000602082019050818103600083015261219481611dee565b9050919050565b600060208201905081810360008301526121b481611e11565b9050919050565b600060208201905081810360008301526121d481611e34565b9050919050565b600060208201905081810360008301526121f481611e57565b9050919050565b6000602082019050818103600083015261221481611e7a565b9050919050565b6000602082019050818103600083015261223481611e9d565b9050919050565b6000602082019050818103600083015261225481611ec0565b9050919050565b60006020820190506122706000830184611ee3565b92915050565b600060608201905061228b6000830186611ee3565b6122986020830185611d00565b6122a56040830184611d00565b949350505050565b60006020820190506122c26000830184611ef2565b92915050565b600082825260208201905092915050565b60006122e482612455565b91506122ef83612455565b9250826fffffffffffffffffffffffffffffffff038211156123145761231361251b565b5b828201905092915050565b600061232a82612491565b915061233583612491565b9250827fffffffffffffffffffffffffffffffffffffffffffffffffffffffffffffffff0382111561236a5761236961251b565b5b828201905092915050565b600061238082612455565b915061238b83612455565b92508282101561239e5761239d61251b565b5b828203905092915050565b60006123b482612491565b91506123bf83612491565b9250828210156123d2576123d161251b565b5b828203905092915050565b60006123e882612471565b9050919050565b60006123fa82612471565b9050919050565b60008115159050919050565b6000819050919050565b60007fffffffff0000000000000000000000000000000000000000000000000000000082169050919050565b600061244e826123dd565b9050919050565b60006fffffffffffffffffffffffffffffffff82169050919050565b600073ffffffffffffffffffffffffffffffffffffffff82169050919050565b6000819050919050565b60006124a6826124ad565b9050919050565b60006124b882612471565b9050919050565b60006124ca826124d1565b9050919050565b60006124dc82612471565b9050919050565b60006124ee826124ff565b9050919050565b6000819050919050565b600061250a8261254a565b9050919050565b6000819050919050565b7f4e487b7100000000000000000000000000000000000000000000000000000000600052601160045260246000fd5b60008160601b9050919050565b7f416363657373436f6e74726f6c3a2073656e646572206d75737420626520616e60008201527f2061646d696e20746f206772616e740000000000000000000000000000000000602082015250565b7f696e73756666696369656e7420776974686472617761626c652066756e647300600082015250565b7f7375626d69743a207375626d697474656420616c726561647900000000000000600082015250565b7f776974686472617746756e64733a207472616e73666572206661696c65640000600082015250565b7f416363657373436f6e74726f6c3a2073656e646572206d75737420626520616e60008201527f2061646d696e20746f207265766f6b6500000000000000000000000000000000602082015250565b7f696e73756666696369656e7420726573657276652066756e6473000000000000600082015250565b7f6f6e546f6b656e5472616e736665723a206e6f7420746865204c696e6b000000600082015250565b7f6f6e6c792063616c6c61626c652062792061646d696e00000000000000000000600082015250565b7f6f6e6c7941646d696e3a2062616420726f6c6500000000000000000000000000600082015250565b7f6f6e6c794f7261636c653a2062616420726f6c65000000000000000000000000600082015250565b7f416363657373436f6e74726f6c3a2063616e206f6e6c792072656e6f756e636560008201527f20726f6c657320666f722073656c660000000000000000000000000000000000602082015250565b612795816123dd565b81146127a057600080fd5b50565b6127ac816123ef565b81146127b757600080fd5b50565b6127c381612401565b81146127ce57600080fd5b50565b6127da8161240d565b81146127e557600080fd5b50565b6127f181612417565b81146127fc57600080fd5b50565b61280881612443565b811461281357600080fd5b50565b61281f81612455565b811461282a57600080fd5b50565b61283681612491565b811461284157600080fd5b5056fea2646970667358221220b83b359a34d01efd48cdbe320c43a38bcc5ca0c1b0c2b4504bcb92e9cd3d090f64736f6c63430008020033",
  "immutableReferences": {},
  "source": "// SPDX-License-Identifier: MIT\npragma solidity ^0.8.2;\n\nimport \"@openzeppelin/contracts/access/AccessControl.sol\";\nimport \"@openzeppelin/contracts/token/ERC20/IERC20.sol\";\nimport \"../interfaces/ILightDarkDebridge.sol\";\nimport \"./Aggregator.sol\";\n\ncontract WithdrawalAggregator is Aggregator {\n    struct WithdrawalInfo {\n        bool broadcasted;\n        uint256 confirmations;\n        bytes32 debridgeId; // hash(chainId, tokenAddress, amount)\n        bytes32 nullifierHash;\n        address recipient;\n        address relayer;\n        uint256 fee;\n        uint256 refund;\n        mapping(address => bool) hasVerified;\n    }\n\n    mapping(bytes32 => WithdrawalInfo) public getWithdrawalInfo;\n    mapping(bytes32 => ILightDarkDebridge) public getDebridge;\n\n    event Confirmed(bytes32 commitment, bytes32 debridgeId, address operator);\n    event Broadcasted(bytes32 debridgeId, bytes32 commitment);\n\n    constructor(\n        uint256 _minConfirmations,\n        uint128 _payment,\n        IERC20 _link\n    ) Aggregator(_minConfirmations, _payment, _link) {}\n\n    function submit(\n        bytes32 _debridgeId,\n        bytes32 _nullifierHash,\n        uint256 _fee,\n        uint256 _refund,\n        address payable _recipient,\n        address payable _relayer\n    ) external onlyOracle {\n        bytes32 withdrawalId =\n            keccak256(\n                abi.encodePacked(\n                    _debridgeId,\n                    _nullifierHash,\n                    _fee,\n                    _refund,\n                    _recipient,\n                    _relayer\n                )\n            );\n        WithdrawalInfo storage withdrawalInfo = getWithdrawalInfo[withdrawalId];\n        require(\n            !withdrawalInfo.hasVerified[msg.sender],\n            \"submit: submitted already\"\n        );\n        if (withdrawalInfo.confirmations == 0) {\n            withdrawalInfo.debridgeId = _debridgeId;\n            withdrawalInfo.nullifierHash = _nullifierHash;\n            withdrawalInfo.fee = _fee;\n            withdrawalInfo.refund = _refund;\n            withdrawalInfo.recipient = _recipient;\n            withdrawalInfo.relayer = _relayer;\n        }\n        withdrawalInfo.confirmations += 1;\n        withdrawalInfo.hasVerified[msg.sender] = true;\n        if (withdrawalInfo.confirmations == minConfirmations) {\n            getDebridge[_debridgeId].withdraw(\n                _recipient,\n                _relayer,\n                _fee,\n                _refund\n            );\n            withdrawalInfo.broadcasted = true;\n        }\n        _payOracle(msg.sender);\n    }\n\n    function setDebridge(bytes32 _debridgeId, ILightDarkDebridge _debridge)\n        external\n        onlyAdmin\n    {\n        getDebridge[_debridgeId] = _debridge;\n    }\n}\n",
  "sourcePath": "/Users/kstasi/Documents/work/debridge-contracts/contracts/chainlink/WithdrawalAggregator.sol",
  "compiler": {
    "name": "solc",
    "version": "0.8.2+commit.661d1103.Emscripten.clang"
  },
  "schemaVersion": "3.3.4",
  "updatedAt": "2021-03-18T13:27:24.998Z",
  "devdoc": {
    "kind": "dev",
    "methods": {
      "getRoleAdmin(bytes32)": {
        "details": "Returns the admin role that controls `role`. See {grantRole} and {revokeRole}. To change a role's admin, use {_setRoleAdmin}."
      },
      "grantRole(bytes32,address)": {
        "details": "Grants `role` to `account`. If `account` had not been already granted `role`, emits a {RoleGranted} event. Requirements: - the caller must have ``role``'s admin role."
      },
      "hasRole(bytes32,address)": {
        "details": "Returns `true` if `account` has been granted `role`."
      },
      "renounceRole(bytes32,address)": {
        "details": "Revokes `role` from the calling account. Roles are often managed via {grantRole} and {revokeRole}: this function's purpose is to provide a mechanism for accounts to lose their privileges if they are compromised (such as when a trusted device is misplaced). If the calling account had been granted `role`, emits a {RoleRevoked} event. Requirements: - the caller must be `account`."
      },
      "revokeRole(bytes32,address)": {
        "details": "Revokes `role` from `account`. If `account` had been granted `role`, emits a {RoleRevoked} event. Requirements: - the caller must have ``role``'s admin role."
      },
      "supportsInterface(bytes4)": {
        "details": "See {IERC165-supportsInterface}."
      }
    },
    "version": 1
  },
  "userdoc": {
    "kind": "user",
    "methods": {},
    "version": 1
  }
}