{
  "contractName": "WithdrawalAggregator",
  "abi": [
    {
      "inputs": [
        {
          "internalType": "uint256",
          "name": "_minConfirmations",
          "type": "uint256"
        },
        {
          "internalType": "uint128",
          "name": "_payment",
          "type": "uint128"
        },
        {
          "internalType": "contract IERC20",
          "name": "_link",
          "type": "address"
        }
      ],
      "stateMutability": "nonpayable",
      "type": "constructor"
    },
    {
      "anonymous": false,
      "inputs": [
        {
          "indexed": false,
          "internalType": "bytes32",
          "name": "debridgeId",
          "type": "bytes32"
        },
        {
          "indexed": false,
          "internalType": "bytes32",
          "name": "commitment",
          "type": "bytes32"
        }
      ],
      "name": "Broadcasted",
      "type": "event"
    },
    {
      "anonymous": false,
      "inputs": [
        {
          "indexed": false,
          "internalType": "bytes32",
          "name": "commitment",
          "type": "bytes32"
        },
        {
          "indexed": false,
          "internalType": "bytes32",
          "name": "debridgeId",
          "type": "bytes32"
        },
        {
          "indexed": false,
          "internalType": "address",
          "name": "operator",
          "type": "address"
        }
      ],
      "name": "Confirmed",
      "type": "event"
    },
    {
      "anonymous": false,
      "inputs": [
        {
          "indexed": true,
          "internalType": "bytes32",
          "name": "role",
          "type": "bytes32"
        },
        {
          "indexed": true,
          "internalType": "bytes32",
          "name": "previousAdminRole",
          "type": "bytes32"
        },
        {
          "indexed": true,
          "internalType": "bytes32",
          "name": "newAdminRole",
          "type": "bytes32"
        }
      ],
      "name": "RoleAdminChanged",
      "type": "event"
    },
    {
      "anonymous": false,
      "inputs": [
        {
          "indexed": true,
          "internalType": "bytes32",
          "name": "role",
          "type": "bytes32"
        },
        {
          "indexed": true,
          "internalType": "address",
          "name": "account",
          "type": "address"
        },
        {
          "indexed": true,
          "internalType": "address",
          "name": "sender",
          "type": "address"
        }
      ],
      "name": "RoleGranted",
      "type": "event"
    },
    {
      "anonymous": false,
      "inputs": [
        {
          "indexed": true,
          "internalType": "bytes32",
          "name": "role",
          "type": "bytes32"
        },
        {
          "indexed": true,
          "internalType": "address",
          "name": "account",
          "type": "address"
        },
        {
          "indexed": true,
          "internalType": "address",
          "name": "sender",
          "type": "address"
        }
      ],
      "name": "RoleRevoked",
      "type": "event"
    },
    {
      "inputs": [],
      "name": "DEFAULT_ADMIN_ROLE",
      "outputs": [
        {
          "internalType": "bytes32",
          "name": "",
          "type": "bytes32"
        }
      ],
      "stateMutability": "view",
      "type": "function"
    },
    {
      "inputs": [],
      "name": "ORACLE_ROLE",
      "outputs": [
        {
          "internalType": "bytes32",
          "name": "",
          "type": "bytes32"
        }
      ],
      "stateMutability": "view",
      "type": "function"
    },
    {
      "inputs": [
        {
          "internalType": "address",
          "name": "_oracle",
          "type": "address"
        },
        {
          "internalType": "address",
          "name": "_admin",
          "type": "address"
        }
      ],
      "name": "addOracle",
      "outputs": [],
      "stateMutability": "nonpayable",
      "type": "function"
    },
    {
      "inputs": [],
      "name": "allocatedFunds",
      "outputs": [
        {
          "internalType": "uint256",
          "name": "",
          "type": "uint256"
        }
      ],
      "stateMutability": "view",
      "type": "function"
    },
    {
      "inputs": [],
      "name": "availableFunds",
      "outputs": [
        {
          "internalType": "uint256",
          "name": "",
          "type": "uint256"
        }
      ],
      "stateMutability": "view",
      "type": "function"
    },
    {
      "inputs": [
        {
          "internalType": "bytes32",
          "name": "",
          "type": "bytes32"
        }
      ],
      "name": "getDebridge",
      "outputs": [
        {
          "internalType": "contract ILightDarkDebridge",
          "name": "",
          "type": "address"
        }
      ],
      "stateMutability": "view",
      "type": "function"
    },
    {
      "inputs": [
        {
          "internalType": "address",
          "name": "",
          "type": "address"
        }
      ],
      "name": "getOracleInfo",
      "outputs": [
        {
          "internalType": "uint256",
          "name": "withdrawable",
          "type": "uint256"
        },
        {
          "internalType": "address",
          "name": "admin",
          "type": "address"
        }
      ],
      "stateMutability": "view",
      "type": "function"
    },
    {
      "inputs": [
        {
          "internalType": "bytes32",
          "name": "role",
          "type": "bytes32"
        }
      ],
      "name": "getRoleAdmin",
      "outputs": [
        {
          "internalType": "bytes32",
          "name": "",
          "type": "bytes32"
        }
      ],
      "stateMutability": "view",
      "type": "function"
    },
    {
      "inputs": [
        {
          "internalType": "bytes32",
          "name": "",
          "type": "bytes32"
        }
      ],
      "name": "getWithdrawalInfo",
      "outputs": [
        {
          "internalType": "bool",
          "name": "broadcasted",
          "type": "bool"
        },
        {
          "internalType": "uint256",
          "name": "confirmations",
          "type": "uint256"
        },
        {
          "internalType": "bytes32",
          "name": "debridgeId",
          "type": "bytes32"
        },
        {
          "internalType": "bytes32",
          "name": "nullifierHash",
          "type": "bytes32"
        },
        {
          "internalType": "address",
          "name": "recipient",
          "type": "address"
        },
        {
          "internalType": "address",
          "name": "relayer",
          "type": "address"
        },
        {
          "internalType": "uint256",
          "name": "fee",
          "type": "uint256"
        },
        {
          "internalType": "uint256",
          "name": "refund",
          "type": "uint256"
        }
      ],
      "stateMutability": "view",
      "type": "function"
    },
    {
      "inputs": [
        {
          "internalType": "bytes32",
          "name": "role",
          "type": "bytes32"
        },
        {
          "internalType": "address",
          "name": "account",
          "type": "address"
        }
      ],
      "name": "grantRole",
      "outputs": [],
      "stateMutability": "nonpayable",
      "type": "function"
    },
    {
      "inputs": [
        {
          "internalType": "bytes32",
          "name": "role",
          "type": "bytes32"
        },
        {
          "internalType": "address",
          "name": "account",
          "type": "address"
        }
      ],
      "name": "hasRole",
      "outputs": [
        {
          "internalType": "bool",
          "name": "",
          "type": "bool"
        }
      ],
      "stateMutability": "view",
      "type": "function"
    },
    {
      "inputs": [],
      "name": "link",
      "outputs": [
        {
          "internalType": "contract IERC20",
          "name": "",
          "type": "address"
        }
      ],
      "stateMutability": "view",
      "type": "function"
    },
    {
      "inputs": [],
      "name": "minConfirmations",
      "outputs": [
        {
          "internalType": "uint256",
          "name": "",
          "type": "uint256"
        }
      ],
      "stateMutability": "view",
      "type": "function"
    },
    {
      "inputs": [
        {
          "internalType": "address",
          "name": "",
          "type": "address"
        },
        {
          "internalType": "uint256",
          "name": "",
          "type": "uint256"
        },
        {
          "internalType": "bytes",
          "name": "_data",
          "type": "bytes"
        }
      ],
      "name": "onTokenTransfer",
      "outputs": [],
      "stateMutability": "nonpayable",
      "type": "function"
    },
    {
      "inputs": [],
      "name": "payment",
      "outputs": [
        {
          "internalType": "uint256",
          "name": "",
          "type": "uint256"
        }
      ],
      "stateMutability": "view",
      "type": "function"
    },
    {
      "inputs": [
        {
          "internalType": "address",
          "name": "_oracle",
          "type": "address"
        }
      ],
      "name": "removeOracle",
      "outputs": [],
      "stateMutability": "nonpayable",
      "type": "function"
    },
    {
      "inputs": [
        {
          "internalType": "bytes32",
          "name": "role",
          "type": "bytes32"
        },
        {
          "internalType": "address",
          "name": "account",
          "type": "address"
        }
      ],
      "name": "renounceRole",
      "outputs": [],
      "stateMutability": "nonpayable",
      "type": "function"
    },
    {
      "inputs": [
        {
          "internalType": "bytes32",
          "name": "role",
          "type": "bytes32"
        },
        {
          "internalType": "address",
          "name": "account",
          "type": "address"
        }
      ],
      "name": "revokeRole",
      "outputs": [],
      "stateMutability": "nonpayable",
      "type": "function"
    },
    {
      "inputs": [
        {
          "internalType": "uint256",
          "name": "_minConfirmations",
          "type": "uint256"
        }
      ],
      "name": "setMinConfirmations",
      "outputs": [],
      "stateMutability": "nonpayable",
      "type": "function"
    },
    {
      "inputs": [
        {
          "internalType": "uint128",
          "name": "_payment",
          "type": "uint128"
        }
      ],
      "name": "setPayment",
      "outputs": [],
      "stateMutability": "nonpayable",
      "type": "function"
    },
    {
      "inputs": [
        {
          "internalType": "bytes4",
          "name": "interfaceId",
          "type": "bytes4"
        }
      ],
      "name": "supportsInterface",
      "outputs": [
        {
          "internalType": "bool",
          "name": "",
          "type": "bool"
        }
      ],
      "stateMutability": "view",
      "type": "function"
    },
    {
      "inputs": [],
      "name": "updateAvailableFunds",
      "outputs": [],
      "stateMutability": "nonpayable",
      "type": "function"
    },
    {
      "inputs": [
        {
          "internalType": "address",
          "name": "_recipient",
          "type": "address"
        },
        {
          "internalType": "uint256",
          "name": "_amount",
          "type": "uint256"
        }
      ],
      "name": "withdrawFunds",
      "outputs": [],
      "stateMutability": "nonpayable",
      "type": "function"
    },
    {
      "inputs": [
        {
          "internalType": "address",
          "name": "_oracle",
          "type": "address"
        },
        {
          "internalType": "address",
          "name": "_recipient",
          "type": "address"
        },
        {
          "internalType": "uint256",
          "name": "_amount",
          "type": "uint256"
        }
      ],
      "name": "withdrawPayment",
      "outputs": [],
      "stateMutability": "nonpayable",
      "type": "function"
    },
    {
      "inputs": [
        {
          "internalType": "address",
          "name": "_oracle",
          "type": "address"
        }
      ],
      "name": "withdrawablePayment",
      "outputs": [
        {
          "internalType": "uint256",
          "name": "",
          "type": "uint256"
        }
      ],
      "stateMutability": "view",
      "type": "function"
    },
    {
      "inputs": [
        {
          "internalType": "bytes32",
          "name": "_debridgeId",
          "type": "bytes32"
        },
        {
          "internalType": "bytes32",
          "name": "_nullifierHash",
          "type": "bytes32"
        },
        {
          "internalType": "uint256",
          "name": "_fee",
          "type": "uint256"
        },
        {
          "internalType": "uint256",
          "name": "_refund",
          "type": "uint256"
        },
        {
          "internalType": "address payable",
          "name": "_recipient",
          "type": "address"
        },
        {
          "internalType": "address payable",
          "name": "_relayer",
          "type": "address"
        }
      ],
      "name": "submit",
      "outputs": [],
      "stateMutability": "nonpayable",
      "type": "function"
    },
    {
      "inputs": [
        {
          "internalType": "bytes32",
          "name": "_debridgeId",
          "type": "bytes32"
        },
        {
          "internalType": "contract ILightDarkDebridge",
          "name": "_debridge",
          "type": "address"
        }
      ],
      "name": "setDebridge",
      "outputs": [],
      "stateMutability": "nonpayable",
      "type": "function"
    }
  ],
  "bytecode": "0x60806040523480156200001157600080fd5b506040516200154338038062001543833981016040819052620000349162000159565b60018390556001600160801b038216600455600580546001600160a01b0319166001600160a01b03831617905582828262000071600033620000a9565b6200009d7f68e79a7bf1e0bc45d0a330c573bc367f9cf464fd326078812f301165fbda4ef133620000a9565b505050505050620001b5565b620000b58282620000b9565b5050565b6000828152602081815260408083206001600160a01b038516845290915290205460ff16620000b5576000828152602081815260408083206001600160a01b03851684529091529020805460ff19166001179055620001153390565b6001600160a01b0316816001600160a01b0316837f2f8788117e7eff1d82e926ec794901d17c78024a50270940304540a733656f0d60405160405180910390a45050565b6000806000606084860312156200016e578283fd5b835160208501519093506001600160801b03811681146200018d578283fd5b60408501519092506001600160a01b0381168114620001aa578182fd5b809150509250925092565b61137e80620001c56000396000f3fe608060405234801561001057600080fd5b50600436106101a95760003560e01c806382313e50116100f9578063d4cc54e411610097578063e2e4031711610071578063e2e4031714610466578063e7c4393e1461048f578063f0ca4adb14610498578063fdc85fc4146104ab576101a9565b8063d4cc54e414610437578063d547741f14610440578063dd6db32814610453576101a9565b8063a4c0ed36116100d3578063a4c0ed36146103b1578063bfdb6b04146103c4578063c107532914610411578063d282165514610424576101a9565b806382313e501461038357806391d1485414610396578063a217fddf146103a9576101a9565b80633d3d7714116101665780634f8fc3b5116101405780634f8fc3b51461029457806351be6ad71461029c57806357cf07ca146102af578063740a7a9e146102d8576101a9565b80633d3d77141461026f57806342f6487a1461028257806346fcff4c1461028b576101a9565b806301ffc9a7146101ae57806307e2cea5146101d65780631c4695f4146101f9578063248a9ca3146102245780632f2ff15d1461024757806336568abe1461025c575b600080fd5b6101c16101bc36600461123a565b6104be565b60405190151581526020015b60405180910390f35b6101eb60008051602061132983398151915281565b6040519081526020016101cd565b60055461020c906001600160a01b031681565b6040516001600160a01b0390911681526020016101cd565b6101eb6102323660046111a1565b60009081526020819052604090206001015490565b61025a6102553660046111b9565b6104f5565b005b61025a61026a3660046111b9565b610589565b61025a61027d366004611092565b610603565b6101eb60045481565b6101eb60035481565b61025a6107e4565b61025a6102aa3660046111b9565b610871565b61020c6102bd3660046111a1565b6008602052600090815260409020546001600160a01b031681565b61033a6102e63660046111a1565b60076020819052600091825260409091208054600182015460028301546003840154600485015460058601546006870154969097015460ff909516969395929491936001600160a01b039182169391169188565b60408051981515895260208901979097529587019490945260608601929092526001600160a01b0390811660808601521660a084015260c083015260e0820152610100016101cd565b61025a610391366004611262565b6108c6565b6101c16103a43660046111b9565b6108fb565b6101eb600081565b61025a6103bf3660046110fd565b610924565b6103f46103d2366004611037565b600660205260009081526040902080546001909101546001600160a01b031682565b604080519283526001600160a01b039091166020830152016101cd565b61025a61041f3660046110d2565b6109d4565b61025a6104323660046111a1565b610b27565b6101eb60025481565b61025a61044e3660046111b9565b610b53565b61025a6104613660046111dd565b610bd3565b6101eb610474366004611037565b6001600160a01b031660009081526006602052604090205490565b6101eb60015481565b61025a6104a636600461105a565b610e36565b61025a6104b9366004611037565b610ea6565b60006001600160e01b03198216637965db0b60e01b14806104ef57506301ffc9a760e01b6001600160e01b03198316145b92915050565b600082815260208190526040902060010154610512905b336103a4565b61057b5760405162461bcd60e51b815260206004820152602f60248201527f416363657373436f6e74726f6c3a2073656e646572206d75737420626520616e60448201526e0818591b5a5b881d1bc819dc985b9d608a1b60648201526084015b60405180910390fd5b6105858282610ee8565b5050565b6001600160a01b03811633146105f95760405162461bcd60e51b815260206004820152602f60248201527f416363657373436f6e74726f6c3a2063616e206f6e6c792072656e6f756e636560448201526e103937b632b9903337b91039b2b63360891b6064820152608401610572565b6105858282610f6c565b6001600160a01b0383811660009081526006602052604090206001015416331461067f5760405162461bcd60e51b815260206004820152602760248201527f77697468647261775061796d656e743a206f6e6c792063616c6c61626c6520626044820152663c9030b236b4b760c91b6064820152608401610572565b6001600160a01b038316600090815260066020526040902054818110156107015760405162461bcd60e51b815260206004820152603060248201527f77697468647261775061796d656e743a20696e73756666696369656e7420776960448201526f74686472617761626c652066756e647360801b6064820152608401610572565b61070b82826112e6565b6001600160a01b038516600090815260066020526040812091909155600280548492906107399084906112e6565b909155505060055460405163a9059cbb60e01b81526001600160a01b038581166004830152602482018590529091169063a9059cbb90604401602060405180830381600087803b15801561078c57600080fd5b505af11580156107a0573d6000803e3d6000fd5b505050506040513d601f19601f820116820180604052508101906107c49190611181565b6107de57634e487b7160e01b600052600160045260246000fd5b50505050565b6002546005546040516370a0823160e01b81523060048201526001600160a01b03909116906370a082319060240160206040518083038186803b15801561082a57600080fd5b505afa15801561083e573d6000803e3d6000fd5b505050506040513d601f19601f820116820180604052508101906108629190611289565b61086c91906112e6565b600355565b61087c6000336108fb565b6108985760405162461bcd60e51b8152600401610572906112a1565b60009182526008602052604090912080546001600160a01b0319166001600160a01b03909216919091179055565b6108d16000336108fb565b6108ed5760405162461bcd60e51b8152600401610572906112a1565b6001600160801b0316600455565b6000918252602082815260408084206001600160a01b0393909316845291905290205460ff1690565b6005546001600160a01b0316331461097e5760405162461bcd60e51b815260206004820152601d60248201527f6f6e546f6b656e5472616e736665723a206e6f7420746865204c696e6b0000006044820152606401610572565b80156109cc5760405162461bcd60e51b815260206004820181905260248201527f7472616e7366657220646f65736e2774206163636570742063616c6c646174616044820152606401610572565b6107de6107e4565b6109df6000336108fb565b6109fb5760405162461bcd60e51b8152600401610572906112a1565b806003541015610a4d5760405162461bcd60e51b815260206004820152601a60248201527f696e73756666696369656e7420726573657276652066756e64730000000000006044820152606401610572565b60055460405163a9059cbb60e01b81526001600160a01b038481166004830152602482018490529091169063a9059cbb90604401602060405180830381600087803b158015610a9b57600080fd5b505af1158015610aaf573d6000803e3d6000fd5b505050506040513d601f19601f82011682018060405250810190610ad39190611181565b610b1f5760405162461bcd60e51b815260206004820152601e60248201527f776974686472617746756e64733a207472616e73666572206661696c656400006044820152606401610572565b6105856107e4565b610b326000336108fb565b610b4e5760405162461bcd60e51b8152600401610572906112a1565b600155565b600082815260208190526040902060010154610b6e9061050c565b6105f95760405162461bcd60e51b815260206004820152603060248201527f416363657373436f6e74726f6c3a2073656e646572206d75737420626520616e60448201526f2061646d696e20746f207265766f6b6560801b6064820152608401610572565b610beb600080516020611329833981519152336108fb565b610c2e5760405162461bcd60e51b81526020600482015260146024820152736f6e6c794f7261636c653a2062616420726f6c6560601b6044820152606401610572565b6040805160208082018990528183018890526060808301889052608083018790526bffffffffffffffffffffffff1986821b811660a08501529085901b1660b4830152825180830360a801815260c8909201835281519181019190912060008181526007835283812033825260088101909352929092205460ff1615610cf65760405162461bcd60e51b815260206004820152601960248201527f7375626d69743a207375626d697474656420616c7265616479000000000000006044820152606401610572565b6001810154610d5057600281018890556003810187905560068101869055600781018590556004810180546001600160a01b038087166001600160a01b031992831617909255600583018054928616929091169190911790555b6001816001016000828254610d6591906112ce565b90915550503360009081526008820160205260409020805460ff191660019081179091558054908201541415610e235760008881526008602052604090819020549051631effa54360e21b81526001600160a01b0386811660048301528581166024830152604482018990526064820188905290911690637bfe950c90608401600060405180830381600087803b158015610dff57600080fd5b505af1158015610e13573d6000803e3d6000fd5b5050825460ff1916600117835550505b610e2c33610fd1565b5050505050505050565b610e416000336108fb565b610e5d5760405162461bcd60e51b8152600401610572906112a1565b610e75600080516020611329833981519152836104f5565b6001600160a01b03918216600090815260066020526040902060010180546001600160a01b03191691909216179055565b610eb16000336108fb565b610ecd5760405162461bcd60e51b8152600401610572906112a1565b610ee560008051602061132983398151915282610b53565b50565b610ef282826108fb565b610585576000828152602081815260408083206001600160a01b03851684529091529020805460ff19166001179055610f283390565b6001600160a01b0316816001600160a01b0316837f2f8788117e7eff1d82e926ec794901d17c78024a50270940304540a733656f0d60405160405180910390a45050565b610f7682826108fb565b15610585576000828152602081815260408083206001600160a01b0385168085529252808320805460ff1916905551339285917ff6391f5c32d9c69d2a47ea670b442974b53935d1edc7fd64eb21e047a839171b9190a45050565b60045460036000828254610fe591906112e6565b909155505060045460028054600090610fff9084906112ce565b90915550506004546001600160a01b0382166000908152600660205260408120805490919061102f9084906112ce565b909155505050565b600060208284031215611048578081fd5b813561105381611313565b9392505050565b6000806040838503121561106c578081fd5b823561107781611313565b9150602083013561108781611313565b809150509250929050565b6000806000606084860312156110a6578081fd5b83356110b181611313565b925060208401356110c181611313565b929592945050506040919091013590565b600080604083850312156110e4578182fd5b82356110ef81611313565b946020939093013593505050565b60008060008060608587031215611112578081fd5b843561111d81611313565b935060208501359250604085013567ffffffffffffffff80821115611140578283fd5b818701915087601f830112611153578283fd5b813581811115611161578384fd5b886020828501011115611172578384fd5b95989497505060200194505050565b600060208284031215611192578081fd5b81518015158114611053578182fd5b6000602082840312156111b2578081fd5b5035919050565b600080604083850312156111cb578182fd5b82359150602083013561108781611313565b60008060008060008060c087890312156111f5578182fd5b86359550602087013594506040870135935060608701359250608087013561121c81611313565b915060a087013561122c81611313565b809150509295509295509295565b60006020828403121561124b578081fd5b81356001600160e01b031981168114611053578182fd5b600060208284031215611273578081fd5b81356001600160801b0381168114611053578182fd5b60006020828403121561129a578081fd5b5051919050565b6020808252601390820152726f6e6c7941646d696e3a2062616420726f6c6560681b604082015260600190565b600082198211156112e1576112e16112fd565b500190565b6000828210156112f8576112f86112fd565b500390565b634e487b7160e01b600052601160045260246000fd5b6001600160a01b0381168114610ee557600080fdfe68e79a7bf1e0bc45d0a330c573bc367f9cf464fd326078812f301165fbda4ef1a26469706673582212206ddbef15b5468542f26d00c63650d56ce27157a4be9b44e490bf0a8fb5c523b064736f6c63430008020033",
  "immutableReferences": {},
  "source": "// SPDX-License-Identifier: MIT\npragma solidity ^0.8.2;\n\nimport \"@openzeppelin/contracts/access/AccessControl.sol\";\nimport \"@openzeppelin/contracts/token/ERC20/IERC20.sol\";\nimport \"../interfaces/ILightDarkDebridge.sol\";\nimport \"./Aggregator.sol\";\n\ncontract WithdrawalAggregator is Aggregator {\n    struct WithdrawalInfo {\n        bool broadcasted;\n        uint256 confirmations;\n        bytes32 debridgeId; // hash(chainId, tokenAddress, amount)\n        bytes32 nullifierHash;\n        address recipient;\n        address relayer;\n        uint256 fee;\n        uint256 refund;\n        mapping(address => bool) hasVerified;\n    }\n\n    mapping(bytes32 => WithdrawalInfo) public getWithdrawalInfo;\n    mapping(bytes32 => ILightDarkDebridge) public getDebridge;\n\n    event Confirmed(bytes32 commitment, bytes32 debridgeId, address operator);\n    event Broadcasted(bytes32 debridgeId, bytes32 commitment);\n\n    constructor(\n        uint256 _minConfirmations,\n        uint128 _payment,\n        IERC20 _link\n    ) Aggregator(_minConfirmations, _payment, _link) {}\n\n    function submit(\n        bytes32 _debridgeId,\n        bytes32 _nullifierHash,\n        uint256 _fee,\n        uint256 _refund,\n        address payable _recipient,\n        address payable _relayer\n    ) external onlyOracle {\n        bytes32 withdrawalId =\n            keccak256(\n                abi.encodePacked(\n                    _debridgeId,\n                    _nullifierHash,\n                    _fee,\n                    _refund,\n                    _recipient,\n                    _relayer\n                )\n            );\n        WithdrawalInfo storage withdrawalInfo = getWithdrawalInfo[withdrawalId];\n        require(\n            !withdrawalInfo.hasVerified[msg.sender],\n            \"submit: submitted already\"\n        );\n        if (withdrawalInfo.confirmations == 0) {\n            withdrawalInfo.debridgeId = _debridgeId;\n            withdrawalInfo.nullifierHash = _nullifierHash;\n            withdrawalInfo.fee = _fee;\n            withdrawalInfo.refund = _refund;\n            withdrawalInfo.recipient = _recipient;\n            withdrawalInfo.relayer = _relayer;\n        }\n        withdrawalInfo.confirmations += 1;\n        withdrawalInfo.hasVerified[msg.sender] = true;\n        if (withdrawalInfo.confirmations == minConfirmations) {\n            getDebridge[_debridgeId].withdraw(\n                _recipient,\n                _relayer,\n                _fee,\n                _refund\n            );\n            withdrawalInfo.broadcasted = true;\n        }\n        _payOracle(msg.sender);\n    }\n\n    function setDebridge(bytes32 _debridgeId, ILightDarkDebridge _debridge)\n        external\n        onlyAdmin\n    {\n        getDebridge[_debridgeId] = _debridge;\n    }\n}\n",
  "sourcePath": "/Users/kstasi/Documents/side/debridge-contracts/contracts/chainlink/WithdrawalAggregator.sol",
  "compiler": {
    "name": "solc",
    "version": "0.8.2+commit.661d1103.Emscripten.clang"
  },
  "schemaVersion": "3.3.4",
  "updatedAt": "2021-04-19T11:07:06.017Z",
  "devdoc": {
    "kind": "dev",
    "methods": {
      "addOracle(address,address)": {
        "details": "Add new oracle.",
        "params": {
          "_admin": "Admin address.",
          "_oracle": "Oracle address."
        }
      },
      "getRoleAdmin(bytes32)": {
        "details": "Returns the admin role that controls `role`. See {grantRole} and {revokeRole}. To change a role's admin, use {_setRoleAdmin}."
      },
      "grantRole(bytes32,address)": {
        "details": "Grants `role` to `account`. If `account` had not been already granted `role`, emits a {RoleGranted} event. Requirements: - the caller must have ``role``'s admin role."
      },
      "hasRole(bytes32,address)": {
        "details": "Returns `true` if `account` has been granted `role`."
      },
      "removeOracle(address)": {
        "details": "Remove oracle.",
        "params": {
          "_oracle": "Oracle address."
        }
      },
      "renounceRole(bytes32,address)": {
        "details": "Revokes `role` from the calling account. Roles are often managed via {grantRole} and {revokeRole}: this function's purpose is to provide a mechanism for accounts to lose their privileges if they are compromised (such as when a trusted device is misplaced). If the calling account had been granted `role`, emits a {RoleRevoked} event. Requirements: - the caller must be `account`."
      },
      "revokeRole(bytes32,address)": {
        "details": "Revokes `role` from `account`. If `account` had been granted `role`, emits a {RoleRevoked} event. Requirements: - the caller must have ``role``'s admin role."
      },
      "setMinConfirmations(uint256)": {
        "details": "Sets minimal required confirmations.",
        "params": {
          "_minConfirmations": "Minimal required confirmations."
        }
      },
      "setPayment(uint128)": {
        "details": "Sets new oracle reward.",
        "params": {
          "_payment": "Oracle reward."
        }
      },
      "supportsInterface(bytes4)": {
        "details": "See {IERC165-supportsInterface}."
      },
      "updateAvailableFunds()": {
        "details": "Updates available rewards to be distributed."
      },
      "withdrawFunds(address,uint256)": {
        "details": "Withdraws available LINK's.",
        "params": {
          "_amount": "Amount to withdraw.",
          "_recipient": "Recepient reward."
        }
      },
      "withdrawPayment(address,address,uint256)": {
        "details": "Withdraws oracle reward.",
        "params": {
          "_amount": "Amount to withdraw.",
          "_oracle": "Oracle address.",
          "_recipient": "Recepient reward."
        }
      },
      "withdrawablePayment(address)": {
        "details": "Withdraws oracle reward.",
        "params": {
          "_oracle": "Oracle address."
        },
        "returns": {
          "_0": "Oracle rewards."
        }
      }
    },
    "version": 1
  },
  "userdoc": {
    "kind": "user",
    "methods": {},
    "version": 1
  }
}