{
  "contractName": "WithdrawalAggregator",
  "abi": [
    {
      "inputs": [
        {
          "internalType": "uint256",
          "name": "_minConfirmations",
          "type": "uint256"
        },
        {
          "internalType": "uint128",
          "name": "_payment",
          "type": "uint128"
        },
        {
          "internalType": "contract IERC20",
          "name": "_link",
          "type": "address"
        }
      ],
      "stateMutability": "nonpayable",
      "type": "constructor"
    },
    {
      "anonymous": false,
      "inputs": [
        {
          "indexed": false,
          "internalType": "bytes32",
          "name": "debridgeId",
          "type": "bytes32"
        },
        {
          "indexed": false,
          "internalType": "bytes32",
          "name": "commitment",
          "type": "bytes32"
        }
      ],
      "name": "Broadcasted",
      "type": "event"
    },
    {
      "anonymous": false,
      "inputs": [
        {
          "indexed": false,
          "internalType": "bytes32",
          "name": "commitment",
          "type": "bytes32"
        },
        {
          "indexed": false,
          "internalType": "bytes32",
          "name": "debridgeId",
          "type": "bytes32"
        },
        {
          "indexed": false,
          "internalType": "address",
          "name": "operator",
          "type": "address"
        }
      ],
      "name": "Confirmed",
      "type": "event"
    },
    {
      "anonymous": false,
      "inputs": [
        {
          "indexed": true,
          "internalType": "bytes32",
          "name": "role",
          "type": "bytes32"
        },
        {
          "indexed": true,
          "internalType": "bytes32",
          "name": "previousAdminRole",
          "type": "bytes32"
        },
        {
          "indexed": true,
          "internalType": "bytes32",
          "name": "newAdminRole",
          "type": "bytes32"
        }
      ],
      "name": "RoleAdminChanged",
      "type": "event"
    },
    {
      "anonymous": false,
      "inputs": [
        {
          "indexed": true,
          "internalType": "bytes32",
          "name": "role",
          "type": "bytes32"
        },
        {
          "indexed": true,
          "internalType": "address",
          "name": "account",
          "type": "address"
        },
        {
          "indexed": true,
          "internalType": "address",
          "name": "sender",
          "type": "address"
        }
      ],
      "name": "RoleGranted",
      "type": "event"
    },
    {
      "anonymous": false,
      "inputs": [
        {
          "indexed": true,
          "internalType": "bytes32",
          "name": "role",
          "type": "bytes32"
        },
        {
          "indexed": true,
          "internalType": "address",
          "name": "account",
          "type": "address"
        },
        {
          "indexed": true,
          "internalType": "address",
          "name": "sender",
          "type": "address"
        }
      ],
      "name": "RoleRevoked",
      "type": "event"
    },
    {
      "inputs": [],
      "name": "DEFAULT_ADMIN_ROLE",
      "outputs": [
        {
          "internalType": "bytes32",
          "name": "",
          "type": "bytes32"
        }
      ],
      "stateMutability": "view",
      "type": "function"
    },
    {
      "inputs": [],
      "name": "ORACLE_ROLE",
      "outputs": [
        {
          "internalType": "bytes32",
          "name": "",
          "type": "bytes32"
        }
      ],
      "stateMutability": "view",
      "type": "function"
    },
    {
      "inputs": [
        {
          "internalType": "address",
          "name": "_oracle",
          "type": "address"
        },
        {
          "internalType": "address",
          "name": "_admin",
          "type": "address"
        }
      ],
      "name": "addOracle",
      "outputs": [],
      "stateMutability": "nonpayable",
      "type": "function"
    },
    {
      "inputs": [],
      "name": "allocatedFunds",
      "outputs": [
        {
          "internalType": "uint256",
          "name": "",
          "type": "uint256"
        }
      ],
      "stateMutability": "view",
      "type": "function"
    },
    {
      "inputs": [],
      "name": "availableFunds",
      "outputs": [
        {
          "internalType": "uint256",
          "name": "",
          "type": "uint256"
        }
      ],
      "stateMutability": "view",
      "type": "function"
    },
    {
      "inputs": [
        {
          "internalType": "bytes32",
          "name": "",
          "type": "bytes32"
        }
      ],
      "name": "getDebridge",
      "outputs": [
        {
          "internalType": "contract ILightDarkDebridge",
          "name": "",
          "type": "address"
        }
      ],
      "stateMutability": "view",
      "type": "function"
    },
    {
      "inputs": [
        {
          "internalType": "address",
          "name": "",
          "type": "address"
        }
      ],
      "name": "getOracleInfo",
      "outputs": [
        {
          "internalType": "uint256",
          "name": "withdrawable",
          "type": "uint256"
        },
        {
          "internalType": "address",
          "name": "admin",
          "type": "address"
        }
      ],
      "stateMutability": "view",
      "type": "function"
    },
    {
      "inputs": [
        {
          "internalType": "bytes32",
          "name": "role",
          "type": "bytes32"
        }
      ],
      "name": "getRoleAdmin",
      "outputs": [
        {
          "internalType": "bytes32",
          "name": "",
          "type": "bytes32"
        }
      ],
      "stateMutability": "view",
      "type": "function"
    },
    {
      "inputs": [
        {
          "internalType": "bytes32",
          "name": "",
          "type": "bytes32"
        }
      ],
      "name": "getWithdrawalInfo",
      "outputs": [
        {
          "internalType": "bool",
          "name": "broadcasted",
          "type": "bool"
        },
        {
          "internalType": "uint256",
          "name": "confirmations",
          "type": "uint256"
        },
        {
          "internalType": "bytes32",
          "name": "debridgeId",
          "type": "bytes32"
        },
        {
          "internalType": "bytes32",
          "name": "nullifierHash",
          "type": "bytes32"
        },
        {
          "internalType": "address",
          "name": "recipient",
          "type": "address"
        },
        {
          "internalType": "address",
          "name": "relayer",
          "type": "address"
        },
        {
          "internalType": "uint256",
          "name": "fee",
          "type": "uint256"
        },
        {
          "internalType": "uint256",
          "name": "refund",
          "type": "uint256"
        }
      ],
      "stateMutability": "view",
      "type": "function"
    },
    {
      "inputs": [
        {
          "internalType": "bytes32",
          "name": "role",
          "type": "bytes32"
        },
        {
          "internalType": "address",
          "name": "account",
          "type": "address"
        }
      ],
      "name": "grantRole",
      "outputs": [],
      "stateMutability": "nonpayable",
      "type": "function"
    },
    {
      "inputs": [
        {
          "internalType": "bytes32",
          "name": "role",
          "type": "bytes32"
        },
        {
          "internalType": "address",
          "name": "account",
          "type": "address"
        }
      ],
      "name": "hasRole",
      "outputs": [
        {
          "internalType": "bool",
          "name": "",
          "type": "bool"
        }
      ],
      "stateMutability": "view",
      "type": "function"
    },
    {
      "inputs": [],
      "name": "link",
      "outputs": [
        {
          "internalType": "contract IERC20",
          "name": "",
          "type": "address"
        }
      ],
      "stateMutability": "view",
      "type": "function"
    },
    {
      "inputs": [],
      "name": "minConfirmations",
      "outputs": [
        {
          "internalType": "uint256",
          "name": "",
          "type": "uint256"
        }
      ],
      "stateMutability": "view",
      "type": "function"
    },
    {
      "inputs": [
        {
          "internalType": "address",
          "name": "",
          "type": "address"
        },
        {
          "internalType": "uint256",
          "name": "",
          "type": "uint256"
        },
        {
          "internalType": "bytes",
          "name": "_data",
          "type": "bytes"
        }
      ],
      "name": "onTokenTransfer",
      "outputs": [],
      "stateMutability": "nonpayable",
      "type": "function"
    },
    {
      "inputs": [],
      "name": "payment",
      "outputs": [
        {
          "internalType": "uint256",
          "name": "",
          "type": "uint256"
        }
      ],
      "stateMutability": "view",
      "type": "function"
    },
    {
      "inputs": [
        {
          "internalType": "address",
          "name": "_oracle",
          "type": "address"
        }
      ],
      "name": "removeOracle",
      "outputs": [],
      "stateMutability": "nonpayable",
      "type": "function"
    },
    {
      "inputs": [
        {
          "internalType": "bytes32",
          "name": "role",
          "type": "bytes32"
        },
        {
          "internalType": "address",
          "name": "account",
          "type": "address"
        }
      ],
      "name": "renounceRole",
      "outputs": [],
      "stateMutability": "nonpayable",
      "type": "function"
    },
    {
      "inputs": [
        {
          "internalType": "bytes32",
          "name": "role",
          "type": "bytes32"
        },
        {
          "internalType": "address",
          "name": "account",
          "type": "address"
        }
      ],
      "name": "revokeRole",
      "outputs": [],
      "stateMutability": "nonpayable",
      "type": "function"
    },
    {
      "inputs": [
        {
          "internalType": "uint256",
          "name": "_minConfirmations",
          "type": "uint256"
        }
      ],
      "name": "setMinConfirmations",
      "outputs": [],
      "stateMutability": "nonpayable",
      "type": "function"
    },
    {
      "inputs": [
        {
          "internalType": "uint128",
          "name": "_payment",
          "type": "uint128"
        }
      ],
      "name": "setPayment",
      "outputs": [],
      "stateMutability": "nonpayable",
      "type": "function"
    },
    {
      "inputs": [
        {
          "internalType": "bytes4",
          "name": "interfaceId",
          "type": "bytes4"
        }
      ],
      "name": "supportsInterface",
      "outputs": [
        {
          "internalType": "bool",
          "name": "",
          "type": "bool"
        }
      ],
      "stateMutability": "view",
      "type": "function"
    },
    {
      "inputs": [],
      "name": "updateAvailableFunds",
      "outputs": [],
      "stateMutability": "nonpayable",
      "type": "function"
    },
    {
      "inputs": [
        {
          "internalType": "address",
          "name": "_recipient",
          "type": "address"
        },
        {
          "internalType": "uint256",
          "name": "_amount",
          "type": "uint256"
        }
      ],
      "name": "withdrawFunds",
      "outputs": [],
      "stateMutability": "nonpayable",
      "type": "function"
    },
    {
      "inputs": [
        {
          "internalType": "address",
          "name": "_oracle",
          "type": "address"
        },
        {
          "internalType": "address",
          "name": "_recipient",
          "type": "address"
        },
        {
          "internalType": "uint256",
          "name": "_amount",
          "type": "uint256"
        }
      ],
      "name": "withdrawPayment",
      "outputs": [],
      "stateMutability": "nonpayable",
      "type": "function"
    },
    {
      "inputs": [
        {
          "internalType": "address",
          "name": "_oracle",
          "type": "address"
        }
      ],
      "name": "withdrawablePayment",
      "outputs": [
        {
          "internalType": "uint256",
          "name": "",
          "type": "uint256"
        }
      ],
      "stateMutability": "view",
      "type": "function"
    },
    {
      "inputs": [
        {
          "internalType": "bytes32",
          "name": "_debridgeId",
          "type": "bytes32"
        },
        {
          "internalType": "bytes32",
          "name": "_nullifierHash",
          "type": "bytes32"
        },
        {
          "internalType": "uint256",
          "name": "_fee",
          "type": "uint256"
        },
        {
          "internalType": "uint256",
          "name": "_refund",
          "type": "uint256"
        },
        {
          "internalType": "address payable",
          "name": "_recipient",
          "type": "address"
        },
        {
          "internalType": "address payable",
          "name": "_relayer",
          "type": "address"
        }
      ],
      "name": "submit",
      "outputs": [],
      "stateMutability": "nonpayable",
      "type": "function"
    },
    {
      "inputs": [
        {
          "internalType": "bytes32",
          "name": "_debridgeId",
          "type": "bytes32"
        },
        {
          "internalType": "contract ILightDarkDebridge",
          "name": "_debridge",
          "type": "address"
        }
      ],
      "name": "setDebridge",
      "outputs": [],
      "stateMutability": "nonpayable",
      "type": "function"
    }
  ],
  "bytecode": "0x60806040523480156200001157600080fd5b506040516200188d3803806200188d833981016040819052620000349162000159565b60018390556001600160801b038216600455600580546001600160a01b0319166001600160a01b03831617905582828262000071600033620000a9565b6200009d7f68e79a7bf1e0bc45d0a330c573bc367f9cf464fd326078812f301165fbda4ef133620000a9565b505050505050620001b5565b620000b58282620000b9565b5050565b6000828152602081815260408083206001600160a01b038516845290915290205460ff16620000b5576000828152602081815260408083206001600160a01b03851684529091529020805460ff19166001179055620001153390565b6001600160a01b0316816001600160a01b0316837f2f8788117e7eff1d82e926ec794901d17c78024a50270940304540a733656f0d60405160405180910390a45050565b6000806000606084860312156200016e578283fd5b835160208501519093506001600160801b03811681146200018d578283fd5b60408501519092506001600160a01b0381168114620001aa578182fd5b809150509250925092565b6116c880620001c56000396000f3fe608060405234801561001057600080fd5b50600436106101b95760003560e01c806382313e50116100f9578063d4cc54e411610097578063e2e4031711610071578063e2e40317146104ac578063e7c4393e146104d5578063f0ca4adb146104de578063fdc85fc4146104f1576101b9565b8063d4cc54e41461047d578063d547741f14610486578063dd6db32814610499576101b9565b8063a4c0ed36116100d3578063a4c0ed36146103f7578063bfdb6b041461040a578063c107532914610457578063d28216551461046a576101b9565b806382313e50146103a557806391d14854146103b8578063a217fddf146103ef576101b9565b80633d3d7714116101665780634f8fc3b5116101405780634f8fc3b5146102b657806351be6ad7146102be57806357cf07ca146102d1578063740a7a9e146102fa576101b9565b80633d3d77141461029157806342f6487a146102a457806346fcff4c146102ad576101b9565b8063248a9ca311610197578063248a9ca3146102465780632f2ff15d1461026957806336568abe1461027e576101b9565b806301ffc9a7146101be57806307e2cea5146101e65780631c4695f41461021b575b600080fd5b6101d16101cc3660046115b0565b610504565b60405190151581526020015b60405180910390f35b61020d7f68e79a7bf1e0bc45d0a330c573bc367f9cf464fd326078812f301165fbda4ef181565b6040519081526020016101dd565b60055461022e906001600160a01b031681565b6040516001600160a01b0390911681526020016101dd565b61020d610254366004611517565b60009081526020819052604090206001015490565b61027c61027736600461152f565b61059d565b005b61027c61028c36600461152f565b61063f565b61027c61029f366004611408565b6106c7565b61020d60045481565b61020d60035481565b61027c6108cb565b61027c6102cc36600461152f565b610971565b61022e6102df366004611517565b6008602052600090815260409020546001600160a01b031681565b61035c610308366004611517565b60076020819052600091825260409091208054600182015460028301546003840154600485015460058601546006870154969097015460ff909516969395929491936001600160a01b039182169391169188565b60408051981515895260208901979097529587019490945260608601929092526001600160a01b0390811660808601521660a084015260c083015260e0820152610100016101dd565b61027c6103b33660046115f0565b610a20565b6101d16103c636600461152f565b6000918252602082815260408084206001600160a01b0393909316845291905290205460ff1690565b61020d600081565b61027c610405366004611473565b610aab565b61043a6104183660046113ad565b600660205260009081526040902080546001909101546001600160a01b031682565b604080519283526001600160a01b039091166020830152016101dd565b61027c610465366004611448565b610b5b565b61027c610478366004611517565b610cfb565b61020d60025481565b61027c61049436600461152f565b610d74565b61027c6104a7366004611553565b610e01565b61020d6104ba3660046113ad565b6001600160a01b031660009081526006602052604090205490565b61020d60015481565b61027c6104ec3660046113d0565b6110ad565b61027c6104ff3660046113ad565b611189565b60007fffffffff0000000000000000000000000000000000000000000000000000000082167f7965db0b00000000000000000000000000000000000000000000000000000000148061059757507f01ffc9a7000000000000000000000000000000000000000000000000000000007fffffffff000000000000000000000000000000000000000000000000000000008316145b92915050565b6000828152602081905260409020600101546105ba905b336103c6565b6106315760405162461bcd60e51b815260206004820152602f60248201527f416363657373436f6e74726f6c3a2073656e646572206d75737420626520616e60448201527f2061646d696e20746f206772616e74000000000000000000000000000000000060648201526084015b60405180910390fd5b61063b828261122a565b5050565b6001600160a01b03811633146106bd5760405162461bcd60e51b815260206004820152602f60248201527f416363657373436f6e74726f6c3a2063616e206f6e6c792072656e6f756e636560448201527f20726f6c657320666f722073656c6600000000000000000000000000000000006064820152608401610628565b61063b82826112c8565b6001600160a01b038381166000908152600660205260409020600101541633146107595760405162461bcd60e51b815260206004820152602760248201527f77697468647261775061796d656e743a206f6e6c792063616c6c61626c65206260448201527f792061646d696e000000000000000000000000000000000000000000000000006064820152608401610628565b6001600160a01b038316600090815260066020526040902054818110156107e85760405162461bcd60e51b815260206004820152603060248201527f77697468647261775061796d656e743a20696e73756666696369656e7420776960448201527f74686472617761626c652066756e6473000000000000000000000000000000006064820152608401610628565b6107f28282611650565b6001600160a01b03851660009081526006602052604081209190915560028054849290610820908490611650565b909155505060055460405163a9059cbb60e01b81526001600160a01b038581166004830152602482018590529091169063a9059cbb90604401602060405180830381600087803b15801561087357600080fd5b505af1158015610887573d6000803e3d6000fd5b505050506040513d601f19601f820116820180604052508101906108ab91906114f7565b6108c557634e487b7160e01b600052600160045260246000fd5b50505050565b6002546005546040517f70a082310000000000000000000000000000000000000000000000000000000081523060048201526001600160a01b03909116906370a082319060240160206040518083038186803b15801561092a57600080fd5b505afa15801561093e573d6000803e3d6000fd5b505050506040513d601f19601f820116820180604052508101906109629190611620565b61096c9190611650565b600355565b3360009081527fad3228b676f7d3cd4284a5443f17f1962b36e491b30a40b2405849e597ba5fb5602052604090205460ff166109e55760405162461bcd60e51b81526020600482015260136024820152726f6e6c7941646d696e3a2062616420726f6c6560681b6044820152606401610628565b600091825260086020526040909120805473ffffffffffffffffffffffffffffffffffffffff19166001600160a01b03909216919091179055565b3360009081527fad3228b676f7d3cd4284a5443f17f1962b36e491b30a40b2405849e597ba5fb5602052604090205460ff16610a945760405162461bcd60e51b81526020600482015260136024820152726f6e6c7941646d696e3a2062616420726f6c6560681b6044820152606401610628565b6fffffffffffffffffffffffffffffffff16600455565b6005546001600160a01b03163314610b055760405162461bcd60e51b815260206004820152601d60248201527f6f6e546f6b656e5472616e736665723a206e6f7420746865204c696e6b0000006044820152606401610628565b8015610b535760405162461bcd60e51b815260206004820181905260248201527f7472616e7366657220646f65736e2774206163636570742063616c6c646174616044820152606401610628565b6108c56108cb565b3360009081527fad3228b676f7d3cd4284a5443f17f1962b36e491b30a40b2405849e597ba5fb5602052604090205460ff16610bcf5760405162461bcd60e51b81526020600482015260136024820152726f6e6c7941646d696e3a2062616420726f6c6560681b6044820152606401610628565b806003541015610c215760405162461bcd60e51b815260206004820152601a60248201527f696e73756666696369656e7420726573657276652066756e64730000000000006044820152606401610628565b60055460405163a9059cbb60e01b81526001600160a01b038481166004830152602482018490529091169063a9059cbb90604401602060405180830381600087803b158015610c6f57600080fd5b505af1158015610c83573d6000803e3d6000fd5b505050506040513d601f19601f82011682018060405250810190610ca791906114f7565b610cf35760405162461bcd60e51b815260206004820152601e60248201527f776974686472617746756e64733a207472616e73666572206661696c656400006044820152606401610628565b61063b6108cb565b3360009081527fad3228b676f7d3cd4284a5443f17f1962b36e491b30a40b2405849e597ba5fb5602052604090205460ff16610d6f5760405162461bcd60e51b81526020600482015260136024820152726f6e6c7941646d696e3a2062616420726f6c6560681b6044820152606401610628565b600155565b600082815260208190526040902060010154610d8f906105b4565b6106bd5760405162461bcd60e51b815260206004820152603060248201527f416363657373436f6e74726f6c3a2073656e646572206d75737420626520616e60448201527f2061646d696e20746f207265766f6b65000000000000000000000000000000006064820152608401610628565b3360009081527fa629f6981c2f6895a67dc766e8e03ff72d04a413d0d8773a3ca56e9e474032c1602052604090205460ff16610e7f5760405162461bcd60e51b815260206004820152601460248201527f6f6e6c794f7261636c653a2062616420726f6c650000000000000000000000006044820152606401610628565b6040805160208082018990528183018890526060808301889052608083018790526bffffffffffffffffffffffff1986821b811660a08501529085901b1660b4830152825180830360a801815260c8909201835281519181019190912060008181526007835283812033825260088101909352929092205460ff1615610f475760405162461bcd60e51b815260206004820152601960248201527f7375626d69743a207375626d697474656420616c7265616479000000000000006044820152606401610628565b6001810154610fae57600281018890556003810187905560068101869055600781018590556004810180546001600160a01b0380871673ffffffffffffffffffffffffffffffffffffffff1992831617909255600583018054928616929091169190911790555b6001816001016000828254610fc39190611638565b90915550503360009081526008820160205260409020805460ff19166001908117909155805490820154141561109a57600088815260086020526040908190205490517f7bfe950c0000000000000000000000000000000000000000000000000000000081526001600160a01b0386811660048301528581166024830152604482018990526064820188905290911690637bfe950c90608401600060405180830381600087803b15801561107657600080fd5b505af115801561108a573d6000803e3d6000fd5b5050825460ff1916600117835550505b6110a333611347565b5050505050505050565b3360009081527fad3228b676f7d3cd4284a5443f17f1962b36e491b30a40b2405849e597ba5fb5602052604090205460ff166111215760405162461bcd60e51b81526020600482015260136024820152726f6e6c7941646d696e3a2062616420726f6c6560681b6044820152606401610628565b61114b7f68e79a7bf1e0bc45d0a330c573bc367f9cf464fd326078812f301165fbda4ef18361059d565b6001600160a01b039182166000908152600660205260409020600101805473ffffffffffffffffffffffffffffffffffffffff191691909216179055565b3360009081527fad3228b676f7d3cd4284a5443f17f1962b36e491b30a40b2405849e597ba5fb5602052604090205460ff166111fd5760405162461bcd60e51b81526020600482015260136024820152726f6e6c7941646d696e3a2062616420726f6c6560681b6044820152606401610628565b6112277f68e79a7bf1e0bc45d0a330c573bc367f9cf464fd326078812f301165fbda4ef182610d74565b50565b6000828152602081815260408083206001600160a01b038516845290915290205460ff1661063b576000828152602081815260408083206001600160a01b03851684529091529020805460ff191660011790556112843390565b6001600160a01b0316816001600160a01b0316837f2f8788117e7eff1d82e926ec794901d17c78024a50270940304540a733656f0d60405160405180910390a45050565b6000828152602081815260408083206001600160a01b038516845290915290205460ff161561063b576000828152602081815260408083206001600160a01b0385168085529252808320805460ff1916905551339285917ff6391f5c32d9c69d2a47ea670b442974b53935d1edc7fd64eb21e047a839171b9190a45050565b6004546003600082825461135b9190611650565b909155505060045460028054600090611375908490611638565b90915550506004546001600160a01b038216600090815260066020526040812080549091906113a5908490611638565b909155505050565b6000602082840312156113be578081fd5b81356113c98161167d565b9392505050565b600080604083850312156113e2578081fd5b82356113ed8161167d565b915060208301356113fd8161167d565b809150509250929050565b60008060006060848603121561141c578081fd5b83356114278161167d565b925060208401356114378161167d565b929592945050506040919091013590565b6000806040838503121561145a578182fd5b82356114658161167d565b946020939093013593505050565b60008060008060608587031215611488578081fd5b84356114938161167d565b935060208501359250604085013567ffffffffffffffff808211156114b6578283fd5b818701915087601f8301126114c9578283fd5b8135818111156114d7578384fd5b8860208285010111156114e8578384fd5b95989497505060200194505050565b600060208284031215611508578081fd5b815180151581146113c9578182fd5b600060208284031215611528578081fd5b5035919050565b60008060408385031215611541578182fd5b8235915060208301356113fd8161167d565b60008060008060008060c0878903121561156b578182fd5b8635955060208701359450604087013593506060870135925060808701356115928161167d565b915060a08701356115a28161167d565b809150509295509295509295565b6000602082840312156115c1578081fd5b81357fffffffff00000000000000000000000000000000000000000000000000000000811681146113c9578182fd5b600060208284031215611601578081fd5b81356fffffffffffffffffffffffffffffffff811681146113c9578182fd5b600060208284031215611631578081fd5b5051919050565b6000821982111561164b5761164b611667565b500190565b60008282101561166257611662611667565b500390565b634e487b7160e01b600052601160045260246000fd5b6001600160a01b038116811461122757600080fdfea264697066735822122027d99bd7caeaa308c6795cedda511a5c02e159f2f513ffd6e8e82db8a00ee8d764736f6c63430008020033",
  "immutableReferences": {},
  "source": "// SPDX-License-Identifier: MIT\npragma solidity ^0.8.2;\n\nimport \"@openzeppelin/contracts/access/AccessControl.sol\";\nimport \"@openzeppelin/contracts/token/ERC20/IERC20.sol\";\nimport \"../interfaces/ILightDarkDebridge.sol\";\nimport \"./Aggregator.sol\";\n\ncontract WithdrawalAggregator is Aggregator {\n    struct WithdrawalInfo {\n        bool broadcasted;\n        uint256 confirmations;\n        bytes32 debridgeId; // hash(chainId, tokenAddress, amount)\n        bytes32 nullifierHash;\n        address recipient;\n        address relayer;\n        uint256 fee;\n        uint256 refund;\n        mapping(address => bool) hasVerified;\n    }\n\n    mapping(bytes32 => WithdrawalInfo) public getWithdrawalInfo;\n    mapping(bytes32 => ILightDarkDebridge) public getDebridge;\n\n    event Confirmed(bytes32 commitment, bytes32 debridgeId, address operator);\n    event Broadcasted(bytes32 debridgeId, bytes32 commitment);\n\n    constructor(\n        uint256 _minConfirmations,\n        uint128 _payment,\n        IERC20 _link\n    ) Aggregator(_minConfirmations, _payment, _link) {}\n\n    function submit(\n        bytes32 _debridgeId,\n        bytes32 _nullifierHash,\n        uint256 _fee,\n        uint256 _refund,\n        address payable _recipient,\n        address payable _relayer\n    ) external onlyOracle {\n        bytes32 withdrawalId =\n            keccak256(\n                abi.encodePacked(\n                    _debridgeId,\n                    _nullifierHash,\n                    _fee,\n                    _refund,\n                    _recipient,\n                    _relayer\n                )\n            );\n        WithdrawalInfo storage withdrawalInfo = getWithdrawalInfo[withdrawalId];\n        require(\n            !withdrawalInfo.hasVerified[msg.sender],\n            \"submit: submitted already\"\n        );\n        if (withdrawalInfo.confirmations == 0) {\n            withdrawalInfo.debridgeId = _debridgeId;\n            withdrawalInfo.nullifierHash = _nullifierHash;\n            withdrawalInfo.fee = _fee;\n            withdrawalInfo.refund = _refund;\n            withdrawalInfo.recipient = _recipient;\n            withdrawalInfo.relayer = _relayer;\n        }\n        withdrawalInfo.confirmations += 1;\n        withdrawalInfo.hasVerified[msg.sender] = true;\n        if (withdrawalInfo.confirmations == minConfirmations) {\n            getDebridge[_debridgeId].withdraw(\n                _recipient,\n                _relayer,\n                _fee,\n                _refund\n            );\n            withdrawalInfo.broadcasted = true;\n        }\n        _payOracle(msg.sender);\n    }\n\n    function setDebridge(bytes32 _debridgeId, ILightDarkDebridge _debridge)\n        external\n        onlyAdmin\n    {\n        getDebridge[_debridgeId] = _debridge;\n    }\n}\n",
  "sourcePath": "/Users/kstasi/Documents/side/debridge-contracts/contracts/chainlink/WithdrawalAggregator.sol",
  "compiler": {
    "name": "solc",
    "version": "0.8.2+commit.661d1103.Emscripten.clang"
  },
  "schemaVersion": "3.3.4",
  "updatedAt": "2021-03-25T02:55:38.806Z",
  "devdoc": {
    "kind": "dev",
    "methods": {
      "addOracle(address,address)": {
        "details": "Add new oracle.",
        "params": {
          "_admin": "Admin address.",
          "_oracle": "Oracle address."
        }
      },
      "getRoleAdmin(bytes32)": {
        "details": "Returns the admin role that controls `role`. See {grantRole} and {revokeRole}. To change a role's admin, use {_setRoleAdmin}."
      },
      "grantRole(bytes32,address)": {
        "details": "Grants `role` to `account`. If `account` had not been already granted `role`, emits a {RoleGranted} event. Requirements: - the caller must have ``role``'s admin role."
      },
      "hasRole(bytes32,address)": {
        "details": "Returns `true` if `account` has been granted `role`."
      },
      "removeOracle(address)": {
        "details": "Remove oracle.",
        "params": {
          "_oracle": "Oracle address."
        }
      },
      "renounceRole(bytes32,address)": {
        "details": "Revokes `role` from the calling account. Roles are often managed via {grantRole} and {revokeRole}: this function's purpose is to provide a mechanism for accounts to lose their privileges if they are compromised (such as when a trusted device is misplaced). If the calling account had been granted `role`, emits a {RoleRevoked} event. Requirements: - the caller must be `account`."
      },
      "revokeRole(bytes32,address)": {
        "details": "Revokes `role` from `account`. If `account` had been granted `role`, emits a {RoleRevoked} event. Requirements: - the caller must have ``role``'s admin role."
      },
      "setMinConfirmations(uint256)": {
        "details": "Sets minimal required confirmations.",
        "params": {
          "_minConfirmations": "Minimal required confirmations."
        }
      },
      "setPayment(uint128)": {
        "details": "Sets new oracle reward.",
        "params": {
          "_payment": "Oracle reward."
        }
      },
      "supportsInterface(bytes4)": {
        "details": "See {IERC165-supportsInterface}."
      },
      "updateAvailableFunds()": {
        "details": "Updates available rewards to be distributed."
      },
      "withdrawFunds(address,uint256)": {
        "details": "Withdraws available LINK's.",
        "params": {
          "_amount": "Amount to withdraw.",
          "_recipient": "Recepient reward."
        }
      },
      "withdrawPayment(address,address,uint256)": {
        "details": "Withdraws oracle reward.",
        "params": {
          "_amount": "Amount to withdraw.",
          "_oracle": "Oracle address.",
          "_recipient": "Recepient reward."
        }
      },
      "withdrawablePayment(address)": {
        "details": "Withdraws oracle reward.",
        "params": {
          "_oracle": "Oracle address."
        },
        "returns": {
          "_0": "Oracle rewards."
        }
      }
    },
    "version": 1
  },
  "userdoc": {
    "kind": "user",
    "methods": {},
    "version": 1
  }
}