{
  "contractName": "WithdrawalAggregator",
  "abi": [
    {
      "inputs": [
        {
          "internalType": "uint256",
          "name": "_minConfirmations",
          "type": "uint256"
        },
        {
          "internalType": "uint128",
          "name": "_payment",
          "type": "uint128"
        },
        {
          "internalType": "contract IERC20",
          "name": "_link",
          "type": "address"
        }
      ],
      "stateMutability": "nonpayable",
      "type": "constructor"
    },
    {
      "anonymous": false,
      "inputs": [
        {
          "indexed": false,
          "internalType": "bytes32",
          "name": "debridgeId",
          "type": "bytes32"
        },
        {
          "indexed": false,
          "internalType": "bytes32",
          "name": "commitment",
          "type": "bytes32"
        }
      ],
      "name": "Broadcasted",
      "type": "event"
    },
    {
      "anonymous": false,
      "inputs": [
        {
          "indexed": false,
          "internalType": "bytes32",
          "name": "commitment",
          "type": "bytes32"
        },
        {
          "indexed": false,
          "internalType": "bytes32",
          "name": "debridgeId",
          "type": "bytes32"
        },
        {
          "indexed": false,
          "internalType": "address",
          "name": "operator",
          "type": "address"
        }
      ],
      "name": "Confirmed",
      "type": "event"
    },
    {
      "anonymous": false,
      "inputs": [
        {
          "indexed": true,
          "internalType": "bytes32",
          "name": "role",
          "type": "bytes32"
        },
        {
          "indexed": true,
          "internalType": "bytes32",
          "name": "previousAdminRole",
          "type": "bytes32"
        },
        {
          "indexed": true,
          "internalType": "bytes32",
          "name": "newAdminRole",
          "type": "bytes32"
        }
      ],
      "name": "RoleAdminChanged",
      "type": "event"
    },
    {
      "anonymous": false,
      "inputs": [
        {
          "indexed": true,
          "internalType": "bytes32",
          "name": "role",
          "type": "bytes32"
        },
        {
          "indexed": true,
          "internalType": "address",
          "name": "account",
          "type": "address"
        },
        {
          "indexed": true,
          "internalType": "address",
          "name": "sender",
          "type": "address"
        }
      ],
      "name": "RoleGranted",
      "type": "event"
    },
    {
      "anonymous": false,
      "inputs": [
        {
          "indexed": true,
          "internalType": "bytes32",
          "name": "role",
          "type": "bytes32"
        },
        {
          "indexed": true,
          "internalType": "address",
          "name": "account",
          "type": "address"
        },
        {
          "indexed": true,
          "internalType": "address",
          "name": "sender",
          "type": "address"
        }
      ],
      "name": "RoleRevoked",
      "type": "event"
    },
    {
      "inputs": [],
      "name": "DEFAULT_ADMIN_ROLE",
      "outputs": [
        {
          "internalType": "bytes32",
          "name": "",
          "type": "bytes32"
        }
      ],
      "stateMutability": "view",
      "type": "function"
    },
    {
      "inputs": [],
      "name": "ORACLE_ROLE",
      "outputs": [
        {
          "internalType": "bytes32",
          "name": "",
          "type": "bytes32"
        }
      ],
      "stateMutability": "view",
      "type": "function"
    },
    {
      "inputs": [
        {
          "internalType": "address",
          "name": "_oracle",
          "type": "address"
        },
        {
          "internalType": "address",
          "name": "_admin",
          "type": "address"
        }
      ],
      "name": "addOracle",
      "outputs": [],
      "stateMutability": "nonpayable",
      "type": "function"
    },
    {
      "inputs": [],
      "name": "allocatedFunds",
      "outputs": [
        {
          "internalType": "uint256",
          "name": "",
          "type": "uint256"
        }
      ],
      "stateMutability": "view",
      "type": "function"
    },
    {
      "inputs": [],
      "name": "availableFunds",
      "outputs": [
        {
          "internalType": "uint256",
          "name": "",
          "type": "uint256"
        }
      ],
      "stateMutability": "view",
      "type": "function"
    },
    {
      "inputs": [
        {
          "internalType": "bytes32",
          "name": "",
          "type": "bytes32"
        }
      ],
      "name": "getDebridge",
      "outputs": [
        {
          "internalType": "contract ILightDarkDebridge",
          "name": "",
          "type": "address"
        }
      ],
      "stateMutability": "view",
      "type": "function"
    },
    {
      "inputs": [
        {
          "internalType": "address",
          "name": "",
          "type": "address"
        }
      ],
      "name": "getOracleInfo",
      "outputs": [
        {
          "internalType": "uint256",
          "name": "withdrawable",
          "type": "uint256"
        },
        {
          "internalType": "address",
          "name": "admin",
          "type": "address"
        }
      ],
      "stateMutability": "view",
      "type": "function"
    },
    {
      "inputs": [
        {
          "internalType": "bytes32",
          "name": "role",
          "type": "bytes32"
        }
      ],
      "name": "getRoleAdmin",
      "outputs": [
        {
          "internalType": "bytes32",
          "name": "",
          "type": "bytes32"
        }
      ],
      "stateMutability": "view",
      "type": "function"
    },
    {
      "inputs": [
        {
          "internalType": "bytes32",
          "name": "",
          "type": "bytes32"
        }
      ],
      "name": "getWithdrawalInfo",
      "outputs": [
        {
          "internalType": "bool",
          "name": "broadcasted",
          "type": "bool"
        },
        {
          "internalType": "uint256",
          "name": "confirmations",
          "type": "uint256"
        },
        {
          "internalType": "bytes32",
          "name": "debridgeId",
          "type": "bytes32"
        },
        {
          "internalType": "bytes32",
          "name": "nullifierHash",
          "type": "bytes32"
        },
        {
          "internalType": "address",
          "name": "recipient",
          "type": "address"
        },
        {
          "internalType": "address",
          "name": "relayer",
          "type": "address"
        },
        {
          "internalType": "uint256",
          "name": "fee",
          "type": "uint256"
        },
        {
          "internalType": "uint256",
          "name": "refund",
          "type": "uint256"
        }
      ],
      "stateMutability": "view",
      "type": "function"
    },
    {
      "inputs": [
        {
          "internalType": "bytes32",
          "name": "role",
          "type": "bytes32"
        },
        {
          "internalType": "address",
          "name": "account",
          "type": "address"
        }
      ],
      "name": "grantRole",
      "outputs": [],
      "stateMutability": "nonpayable",
      "type": "function"
    },
    {
      "inputs": [
        {
          "internalType": "bytes32",
          "name": "role",
          "type": "bytes32"
        },
        {
          "internalType": "address",
          "name": "account",
          "type": "address"
        }
      ],
      "name": "hasRole",
      "outputs": [
        {
          "internalType": "bool",
          "name": "",
          "type": "bool"
        }
      ],
      "stateMutability": "view",
      "type": "function"
    },
    {
      "inputs": [],
      "name": "link",
      "outputs": [
        {
          "internalType": "contract IERC20",
          "name": "",
          "type": "address"
        }
      ],
      "stateMutability": "view",
      "type": "function"
    },
    {
      "inputs": [],
      "name": "minConfirmations",
      "outputs": [
        {
          "internalType": "uint256",
          "name": "",
          "type": "uint256"
        }
      ],
      "stateMutability": "view",
      "type": "function"
    },
    {
      "inputs": [
        {
          "internalType": "address",
          "name": "",
          "type": "address"
        },
        {
          "internalType": "uint256",
          "name": "",
          "type": "uint256"
        },
        {
          "internalType": "bytes",
          "name": "_data",
          "type": "bytes"
        }
      ],
      "name": "onTokenTransfer",
      "outputs": [],
      "stateMutability": "nonpayable",
      "type": "function"
    },
    {
      "inputs": [],
      "name": "payment",
      "outputs": [
        {
          "internalType": "uint256",
          "name": "",
          "type": "uint256"
        }
      ],
      "stateMutability": "view",
      "type": "function"
    },
    {
      "inputs": [
        {
          "internalType": "address",
          "name": "_oracle",
          "type": "address"
        }
      ],
      "name": "removeOracle",
      "outputs": [],
      "stateMutability": "nonpayable",
      "type": "function"
    },
    {
      "inputs": [
        {
          "internalType": "bytes32",
          "name": "role",
          "type": "bytes32"
        },
        {
          "internalType": "address",
          "name": "account",
          "type": "address"
        }
      ],
      "name": "renounceRole",
      "outputs": [],
      "stateMutability": "nonpayable",
      "type": "function"
    },
    {
      "inputs": [
        {
          "internalType": "bytes32",
          "name": "role",
          "type": "bytes32"
        },
        {
          "internalType": "address",
          "name": "account",
          "type": "address"
        }
      ],
      "name": "revokeRole",
      "outputs": [],
      "stateMutability": "nonpayable",
      "type": "function"
    },
    {
      "inputs": [
        {
          "internalType": "uint256",
          "name": "_minConfirmations",
          "type": "uint256"
        }
      ],
      "name": "setMinConfirmations",
      "outputs": [],
      "stateMutability": "nonpayable",
      "type": "function"
    },
    {
      "inputs": [
        {
          "internalType": "uint128",
          "name": "_payment",
          "type": "uint128"
        }
      ],
      "name": "setPayment",
      "outputs": [],
      "stateMutability": "nonpayable",
      "type": "function"
    },
    {
      "inputs": [
        {
          "internalType": "bytes4",
          "name": "interfaceId",
          "type": "bytes4"
        }
      ],
      "name": "supportsInterface",
      "outputs": [
        {
          "internalType": "bool",
          "name": "",
          "type": "bool"
        }
      ],
      "stateMutability": "view",
      "type": "function"
    },
    {
      "inputs": [],
      "name": "updateAvailableFunds",
      "outputs": [],
      "stateMutability": "nonpayable",
      "type": "function"
    },
    {
      "inputs": [
        {
          "internalType": "address",
          "name": "_oracle",
          "type": "address"
        },
        {
          "internalType": "address",
          "name": "_newOracleAdmin",
          "type": "address"
        }
      ],
      "name": "updateOracleAddminAddress",
      "outputs": [],
      "stateMutability": "nonpayable",
      "type": "function"
    },
    {
      "inputs": [
        {
          "internalType": "address",
          "name": "_oracle",
          "type": "address"
        },
        {
          "internalType": "address",
          "name": "_newOracle",
          "type": "address"
        }
      ],
      "name": "updateOracleAddress",
      "outputs": [],
      "stateMutability": "nonpayable",
      "type": "function"
    },
    {
      "inputs": [
        {
          "internalType": "address",
          "name": "_recipient",
          "type": "address"
        },
        {
          "internalType": "uint256",
          "name": "_amount",
          "type": "uint256"
        }
      ],
      "name": "withdrawFunds",
      "outputs": [],
      "stateMutability": "nonpayable",
      "type": "function"
    },
    {
      "inputs": [
        {
          "internalType": "address",
          "name": "_oracle",
          "type": "address"
        },
        {
          "internalType": "address",
          "name": "_recipient",
          "type": "address"
        },
        {
          "internalType": "uint256",
          "name": "_amount",
          "type": "uint256"
        }
      ],
      "name": "withdrawPayment",
      "outputs": [],
      "stateMutability": "nonpayable",
      "type": "function"
    },
    {
      "inputs": [
        {
          "internalType": "address",
          "name": "_oracle",
          "type": "address"
        }
      ],
      "name": "withdrawablePayment",
      "outputs": [
        {
          "internalType": "uint256",
          "name": "",
          "type": "uint256"
        }
      ],
      "stateMutability": "view",
      "type": "function"
    },
    {
      "inputs": [
        {
          "internalType": "bytes32",
          "name": "_debridgeId",
          "type": "bytes32"
        },
        {
          "internalType": "bytes32",
          "name": "_nullifierHash",
          "type": "bytes32"
        },
        {
          "internalType": "uint256",
          "name": "_fee",
          "type": "uint256"
        },
        {
          "internalType": "uint256",
          "name": "_refund",
          "type": "uint256"
        },
        {
          "internalType": "address payable",
          "name": "_recipient",
          "type": "address"
        },
        {
          "internalType": "address payable",
          "name": "_relayer",
          "type": "address"
        }
      ],
      "name": "submit",
      "outputs": [],
      "stateMutability": "nonpayable",
      "type": "function"
    },
    {
      "inputs": [
        {
          "internalType": "bytes32",
          "name": "_debridgeId",
          "type": "bytes32"
        },
        {
          "internalType": "contract ILightDarkDebridge",
          "name": "_debridge",
          "type": "address"
        }
      ],
      "name": "setDebridge",
      "outputs": [],
      "stateMutability": "nonpayable",
      "type": "function"
    }
  ],
  "bytecode": "0x60806040523480156200001157600080fd5b50604051620016e2380380620016e2833981016040819052620000349162000159565b60018390556001600160801b038216600455600580546001600160a01b0319166001600160a01b03831617905582828262000071600033620000a9565b6200009d7f68e79a7bf1e0bc45d0a330c573bc367f9cf464fd326078812f301165fbda4ef133620000a9565b505050505050620001b5565b620000b58282620000b9565b5050565b6000828152602081815260408083206001600160a01b038516845290915290205460ff16620000b5576000828152602081815260408083206001600160a01b03851684529091529020805460ff19166001179055620001153390565b6001600160a01b0316816001600160a01b0316837f2f8788117e7eff1d82e926ec794901d17c78024a50270940304540a733656f0d60405160405180910390a45050565b6000806000606084860312156200016e578283fd5b835160208501519093506001600160801b03811681146200018d578283fd5b60408501519092506001600160a01b0381168114620001aa578182fd5b809150509250925092565b61151d80620001c56000396000f3fe608060405234801561001057600080fd5b50600436106101cf5760003560e01c806382313e5011610104578063d2821655116100a2578063e2e4031711610071578063e2e40317146104b2578063e7c4393e146104db578063f0ca4adb146104e4578063fdc85fc4146104f7576101cf565b8063d282165514610470578063d4cc54e414610483578063d547741f1461048c578063dd6db3281461049f576101cf565b8063a217fddf116100de578063a217fddf146103f5578063a4c0ed36146103fd578063bfdb6b0414610410578063c10753291461045d576101cf565b806382313e50146103bc57806391d14854146103cf5780639e4bea10146103e2576101cf565b806342f6487a116101715780634f8fc3b51161014b5780634f8fc3b5146102cd57806351be6ad7146102d557806357cf07ca146102e8578063740a7a9e14610311576101cf565b806342f6487a146102a857806346fcff4c146102b157806348f6179c146102ba576101cf565b8063248a9ca3116101ad578063248a9ca31461024a5780632f2ff15d1461026d57806336568abe146102825780633d3d771414610295576101cf565b806301ffc9a7146101d457806307e2cea5146101fc5780631c4695f41461021f575b600080fd5b6101e76101e23660046113d9565b61050a565b60405190151581526020015b60405180910390f35b6102116000805160206114c883398151915281565b6040519081526020016101f3565b600554610232906001600160a01b031681565b6040516001600160a01b0390911681526020016101f3565b610211610258366004611340565b60009081526020819052604090206001015490565b61028061027b366004611358565b610541565b005b610280610290366004611358565b6105d5565b6102806102a3366004611231565b61064f565b61021160045481565b61021160035481565b6102806102c83660046111f9565b610830565b6102806108fd565b6102806102e3366004611358565b61098a565b6102326102f6366004611340565b6008602052600090815260409020546001600160a01b031681565b61037361031f366004611340565b60076020819052600091825260409091208054600182015460028301546003840154600485015460058601546006870154969097015460ff909516969395929491936001600160a01b039182169391169188565b60408051981515895260208901979097529587019490945260608601929092526001600160a01b0390811660808601521660a084015260c083015260e0820152610100016101f3565b6102806103ca366004611401565b6109df565b6101e76103dd366004611358565b610a14565b6102806103f03660046111f9565b610a3d565b610211600081565b61028061040b36600461129c565b610af4565b61044061041e3660046111d6565b600660205260009081526040902080546001909101546001600160a01b031682565b604080519283526001600160a01b039091166020830152016101f3565b61028061046b366004611271565b610ba4565b61028061047e366004611340565b610cf7565b61021160025481565b61028061049a366004611358565b610d23565b6102806104ad36600461137c565b610da3565b6102116104c03660046111d6565b6001600160a01b031660009081526006602052604090205490565b61021160015481565b6102806104f23660046111f9565b611006565b6102806105053660046111d6565b611045565b60006001600160e01b03198216637965db0b60e01b148061053b57506301ffc9a760e01b6001600160e01b03198316145b92915050565b60008281526020819052604090206001015461055e905b336103dd565b6105c75760405162461bcd60e51b815260206004820152602f60248201527f416363657373436f6e74726f6c3a2073656e646572206d75737420626520616e60448201526e0818591b5a5b881d1bc819dc985b9d608a1b60648201526084015b60405180910390fd5b6105d18282611087565b5050565b6001600160a01b03811633146106455760405162461bcd60e51b815260206004820152602f60248201527f416363657373436f6e74726f6c3a2063616e206f6e6c792072656e6f756e636560448201526e103937b632b9903337b91039b2b63360891b60648201526084016105be565b6105d1828261110b565b6001600160a01b038381166000908152600660205260409020600101541633146106cb5760405162461bcd60e51b815260206004820152602760248201527f77697468647261775061796d656e743a206f6e6c792063616c6c61626c6520626044820152663c9030b236b4b760c91b60648201526084016105be565b6001600160a01b0383166000908152600660205260409020548181101561074d5760405162461bcd60e51b815260206004820152603060248201527f77697468647261775061796d656e743a20696e73756666696369656e7420776960448201526f74686472617761626c652066756e647360801b60648201526084016105be565b6107578282611485565b6001600160a01b03851660009081526006602052604081209190915560028054849290610785908490611485565b909155505060055460405163a9059cbb60e01b81526001600160a01b038581166004830152602482018590529091169063a9059cbb90604401602060405180830381600087803b1580156107d857600080fd5b505af11580156107ec573d6000803e3d6000fd5b505050506040513d601f19601f820116820180604052508101906108109190611320565b61082a57634e487b7160e01b600052600160045260246000fd5b50505050565b6001600160a01b038281166000908152600660205260409020600101541633146108b05760405162461bcd60e51b815260206004820152602b60248201527f7570646174654f7261636c65416464726573733a206f6e6c792063616c6c616260448201526a363290313c9030b236b4b760a91b60648201526084016105be565b6001600160a01b0390811660009081526006602052604080822060018082018054336001600160a01b03199182161790915595909416835290822080549091559081550180549091169055565b6002546005546040516370a0823160e01b81523060048201526001600160a01b03909116906370a082319060240160206040518083038186803b15801561094357600080fd5b505afa158015610957573d6000803e3d6000fd5b505050506040513d601f19601f8201168201806040525081019061097b9190611428565b6109859190611485565b600355565b610995600033610a14565b6109b15760405162461bcd60e51b81526004016105be90611440565b60009182526008602052604090912080546001600160a01b0319166001600160a01b03909216919091179055565b6109ea600033610a14565b610a065760405162461bcd60e51b81526004016105be90611440565b6001600160801b0316600455565b6000918252602082815260408084206001600160a01b0393909316845291905290205460ff1690565b6001600160a01b03828116600090815260066020526040902060010154163314610ac35760405162461bcd60e51b815260206004820152603160248201527f7570646174654f7261636c654164646d696e416464726573733a206f6e6c792060448201527031b0b63630b1363290313c9030b236b4b760791b60648201526084016105be565b6001600160a01b03918216600090815260066020526040902060010180546001600160a01b03191691909216179055565b6005546001600160a01b03163314610b4e5760405162461bcd60e51b815260206004820152601d60248201527f6f6e546f6b656e5472616e736665723a206e6f7420746865204c696e6b00000060448201526064016105be565b8015610b9c5760405162461bcd60e51b815260206004820181905260248201527f7472616e7366657220646f65736e2774206163636570742063616c6c6461746160448201526064016105be565b61082a6108fd565b610baf600033610a14565b610bcb5760405162461bcd60e51b81526004016105be90611440565b806003541015610c1d5760405162461bcd60e51b815260206004820152601a60248201527f696e73756666696369656e7420726573657276652066756e647300000000000060448201526064016105be565b60055460405163a9059cbb60e01b81526001600160a01b038481166004830152602482018490529091169063a9059cbb90604401602060405180830381600087803b158015610c6b57600080fd5b505af1158015610c7f573d6000803e3d6000fd5b505050506040513d601f19601f82011682018060405250810190610ca39190611320565b610cef5760405162461bcd60e51b815260206004820152601e60248201527f776974686472617746756e64733a207472616e73666572206661696c6564000060448201526064016105be565b6105d16108fd565b610d02600033610a14565b610d1e5760405162461bcd60e51b81526004016105be90611440565b600155565b600082815260208190526040902060010154610d3e90610558565b6106455760405162461bcd60e51b815260206004820152603060248201527f416363657373436f6e74726f6c3a2073656e646572206d75737420626520616e60448201526f2061646d696e20746f207265766f6b6560801b60648201526084016105be565b610dbb6000805160206114c883398151915233610a14565b610dfe5760405162461bcd60e51b81526020600482015260146024820152736f6e6c794f7261636c653a2062616420726f6c6560601b60448201526064016105be565b6040805160208082018990528183018890526060808301889052608083018790526bffffffffffffffffffffffff1986821b811660a08501529085901b1660b4830152825180830360a801815260c8909201835281519181019190912060008181526007835283812033825260088101909352929092205460ff1615610ec65760405162461bcd60e51b815260206004820152601960248201527f7375626d69743a207375626d697474656420616c72656164790000000000000060448201526064016105be565b6001810154610f2057600281018890556003810187905560068101869055600781018590556004810180546001600160a01b038087166001600160a01b031992831617909255600583018054928616929091169190911790555b6001816001016000828254610f35919061146d565b90915550503360009081526008820160205260409020805460ff191660019081179091558054908201541415610ff35760008881526008602052604090819020549051631effa54360e21b81526001600160a01b0386811660048301528581166024830152604482018990526064820188905290911690637bfe950c90608401600060405180830381600087803b158015610fcf57600080fd5b505af1158015610fe3573d6000803e3d6000fd5b5050825460ff1916600117835550505b610ffc33611170565b5050505050505050565b611011600033610a14565b61102d5760405162461bcd60e51b81526004016105be90611440565b610ac36000805160206114c883398151915283610541565b611050600033610a14565b61106c5760405162461bcd60e51b81526004016105be90611440565b6110846000805160206114c883398151915282610d23565b50565b6110918282610a14565b6105d1576000828152602081815260408083206001600160a01b03851684529091529020805460ff191660011790556110c73390565b6001600160a01b0316816001600160a01b0316837f2f8788117e7eff1d82e926ec794901d17c78024a50270940304540a733656f0d60405160405180910390a45050565b6111158282610a14565b156105d1576000828152602081815260408083206001600160a01b0385168085529252808320805460ff1916905551339285917ff6391f5c32d9c69d2a47ea670b442974b53935d1edc7fd64eb21e047a839171b9190a45050565b600454600360008282546111849190611485565b90915550506004546002805460009061119e90849061146d565b90915550506004546001600160a01b038216600090815260066020526040812080549091906111ce90849061146d565b909155505050565b6000602082840312156111e7578081fd5b81356111f2816114b2565b9392505050565b6000806040838503121561120b578081fd5b8235611216816114b2565b91506020830135611226816114b2565b809150509250929050565b600080600060608486031215611245578081fd5b8335611250816114b2565b92506020840135611260816114b2565b929592945050506040919091013590565b60008060408385031215611283578182fd5b823561128e816114b2565b946020939093013593505050565b600080600080606085870312156112b1578081fd5b84356112bc816114b2565b935060208501359250604085013567ffffffffffffffff808211156112df578283fd5b818701915087601f8301126112f2578283fd5b813581811115611300578384fd5b886020828501011115611311578384fd5b95989497505060200194505050565b600060208284031215611331578081fd5b815180151581146111f2578182fd5b600060208284031215611351578081fd5b5035919050565b6000806040838503121561136a578182fd5b823591506020830135611226816114b2565b60008060008060008060c08789031215611394578182fd5b8635955060208701359450604087013593506060870135925060808701356113bb816114b2565b915060a08701356113cb816114b2565b809150509295509295509295565b6000602082840312156113ea578081fd5b81356001600160e01b0319811681146111f2578182fd5b600060208284031215611412578081fd5b81356001600160801b03811681146111f2578182fd5b600060208284031215611439578081fd5b5051919050565b6020808252601390820152726f6e6c7941646d696e3a2062616420726f6c6560681b604082015260600190565b600082198211156114805761148061149c565b500190565b6000828210156114975761149761149c565b500390565b634e487b7160e01b600052601160045260246000fd5b6001600160a01b038116811461108457600080fdfe68e79a7bf1e0bc45d0a330c573bc367f9cf464fd326078812f301165fbda4ef1a26469706673582212200c8e7c306339f36269c6a60fa935f879013d36b24639e9278e31d043789d570064736f6c63430008020033",
  "immutableReferences": {},
  "source": "// SPDX-License-Identifier: MIT\npragma solidity ^0.8.2;\n\nimport \"@openzeppelin/contracts/access/AccessControl.sol\";\nimport \"@openzeppelin/contracts/token/ERC20/IERC20.sol\";\nimport \"../interfaces/ILightDarkDebridge.sol\";\nimport \"./Aggregator.sol\";\n\ncontract WithdrawalAggregator is Aggregator {\n    struct WithdrawalInfo {\n        bool broadcasted;\n        uint256 confirmations;\n        bytes32 debridgeId; // hash(chainId, tokenAddress, amount)\n        bytes32 nullifierHash;\n        address recipient;\n        address relayer;\n        uint256 fee;\n        uint256 refund;\n        mapping(address => bool) hasVerified;\n    }\n\n    mapping(bytes32 => WithdrawalInfo) public getWithdrawalInfo;\n    mapping(bytes32 => ILightDarkDebridge) public getDebridge;\n\n    event Confirmed(bytes32 commitment, bytes32 debridgeId, address operator);\n    event Broadcasted(bytes32 debridgeId, bytes32 commitment);\n\n    constructor(\n        uint256 _minConfirmations,\n        uint128 _payment,\n        IERC20 _link\n    ) Aggregator(_minConfirmations, _payment, _link) {}\n\n    function submit(\n        bytes32 _debridgeId,\n        bytes32 _nullifierHash,\n        uint256 _fee,\n        uint256 _refund,\n        address payable _recipient,\n        address payable _relayer\n    ) external onlyOracle {\n        bytes32 withdrawalId =\n            keccak256(\n                abi.encodePacked(\n                    _debridgeId,\n                    _nullifierHash,\n                    _fee,\n                    _refund,\n                    _recipient,\n                    _relayer\n                )\n            );\n        WithdrawalInfo storage withdrawalInfo = getWithdrawalInfo[withdrawalId];\n        require(\n            !withdrawalInfo.hasVerified[msg.sender],\n            \"submit: submitted already\"\n        );\n        if (withdrawalInfo.confirmations == 0) {\n            withdrawalInfo.debridgeId = _debridgeId;\n            withdrawalInfo.nullifierHash = _nullifierHash;\n            withdrawalInfo.fee = _fee;\n            withdrawalInfo.refund = _refund;\n            withdrawalInfo.recipient = _recipient;\n            withdrawalInfo.relayer = _relayer;\n        }\n        withdrawalInfo.confirmations += 1;\n        withdrawalInfo.hasVerified[msg.sender] = true;\n        if (withdrawalInfo.confirmations == minConfirmations) {\n            getDebridge[_debridgeId].withdraw(\n                _recipient,\n                _relayer,\n                _fee,\n                _refund\n            );\n            withdrawalInfo.broadcasted = true;\n        }\n        _payOracle(msg.sender);\n    }\n\n    function setDebridge(bytes32 _debridgeId, ILightDarkDebridge _debridge)\n        external\n        onlyAdmin\n    {\n        getDebridge[_debridgeId] = _debridge;\n    }\n}\n",
  "sourcePath": "/Users/kstasi/Documents/side/debridge-contracts/contracts/chainlink/WithdrawalAggregator.sol",
  "compiler": {
    "name": "solc",
    "version": "0.8.2+commit.661d1103.Emscripten.clang"
  },
  "schemaVersion": "3.3.4",
  "updatedAt": "2021-04-27T06:19:41.309Z",
  "devdoc": {
    "kind": "dev",
    "methods": {
      "addOracle(address,address)": {
        "details": "Add new oracle.",
        "params": {
          "_admin": "Admin address.",
          "_oracle": "Oracle address."
        }
      },
      "getRoleAdmin(bytes32)": {
        "details": "Returns the admin role that controls `role`. See {grantRole} and {revokeRole}. To change a role's admin, use {_setRoleAdmin}."
      },
      "grantRole(bytes32,address)": {
        "details": "Grants `role` to `account`. If `account` had not been already granted `role`, emits a {RoleGranted} event. Requirements: - the caller must have ``role``'s admin role."
      },
      "hasRole(bytes32,address)": {
        "details": "Returns `true` if `account` has been granted `role`."
      },
      "removeOracle(address)": {
        "details": "Remove oracle.",
        "params": {
          "_oracle": "Oracle address."
        }
      },
      "renounceRole(bytes32,address)": {
        "details": "Revokes `role` from the calling account. Roles are often managed via {grantRole} and {revokeRole}: this function's purpose is to provide a mechanism for accounts to lose their privileges if they are compromised (such as when a trusted device is misplaced). If the calling account had been granted `role`, emits a {RoleRevoked} event. Requirements: - the caller must be `account`."
      },
      "revokeRole(bytes32,address)": {
        "details": "Revokes `role` from `account`. If `account` had been granted `role`, emits a {RoleRevoked} event. Requirements: - the caller must have ``role``'s admin role."
      },
      "setMinConfirmations(uint256)": {
        "details": "Sets minimal required confirmations.",
        "params": {
          "_minConfirmations": "Minimal required confirmations."
        }
      },
      "setPayment(uint128)": {
        "details": "Sets new oracle reward.",
        "params": {
          "_payment": "Oracle reward."
        }
      },
      "supportsInterface(bytes4)": {
        "details": "See {IERC165-supportsInterface}."
      },
      "updateAvailableFunds()": {
        "details": "Updates available rewards to be distributed."
      },
      "updateOracleAddminAddress(address,address)": {
        "details": "Updates oracle's admin address.",
        "params": {
          "_newOracleAdmin": "Oracle address.",
          "_oracle": "Oracle address."
        }
      },
      "updateOracleAddress(address,address)": {
        "details": "Updates oracle's address.",
        "params": {
          "_newOracle": "Oracle address.",
          "_oracle": "Oracle address."
        }
      },
      "withdrawFunds(address,uint256)": {
        "details": "Withdraws available LINK's.",
        "params": {
          "_amount": "Amount to withdraw.",
          "_recipient": "Recepient reward."
        }
      },
      "withdrawPayment(address,address,uint256)": {
        "details": "Withdraws oracle reward.",
        "params": {
          "_amount": "Amount to withdraw.",
          "_oracle": "Oracle address.",
          "_recipient": "Recepient reward."
        }
      },
      "withdrawablePayment(address)": {
        "details": "Withdraws oracle reward.",
        "params": {
          "_oracle": "Oracle address."
        },
        "returns": {
          "_0": "Oracle rewards."
        }
      }
    },
    "version": 1
  },
  "userdoc": {
    "kind": "user",
    "methods": {},
    "version": 1
  }
}