{
  "contractName": "WithdrawalAggregator",
  "abi": [
    {
      "inputs": [
        {
          "internalType": "uint256",
          "name": "_minConfirmations",
          "type": "uint256"
        },
        {
          "internalType": "uint128",
          "name": "_payment",
          "type": "uint128"
        },
        {
          "internalType": "contract IERC20",
          "name": "_link",
          "type": "address"
        }
      ],
      "stateMutability": "nonpayable",
      "type": "constructor"
    },
    {
      "anonymous": false,
      "inputs": [
        {
          "indexed": false,
          "internalType": "bytes32",
          "name": "debridgeId",
          "type": "bytes32"
        },
        {
          "indexed": false,
          "internalType": "bytes32",
          "name": "commitment",
          "type": "bytes32"
        }
      ],
      "name": "Broadcasted",
      "type": "event"
    },
    {
      "anonymous": false,
      "inputs": [
        {
          "indexed": false,
          "internalType": "bytes32",
          "name": "commitment",
          "type": "bytes32"
        },
        {
          "indexed": false,
          "internalType": "bytes32",
          "name": "debridgeId",
          "type": "bytes32"
        },
        {
          "indexed": false,
          "internalType": "address",
          "name": "operator",
          "type": "address"
        }
      ],
      "name": "Confirmed",
      "type": "event"
    },
    {
      "anonymous": false,
      "inputs": [
        {
          "indexed": true,
          "internalType": "bytes32",
          "name": "role",
          "type": "bytes32"
        },
        {
          "indexed": true,
          "internalType": "bytes32",
          "name": "previousAdminRole",
          "type": "bytes32"
        },
        {
          "indexed": true,
          "internalType": "bytes32",
          "name": "newAdminRole",
          "type": "bytes32"
        }
      ],
      "name": "RoleAdminChanged",
      "type": "event"
    },
    {
      "anonymous": false,
      "inputs": [
        {
          "indexed": true,
          "internalType": "bytes32",
          "name": "role",
          "type": "bytes32"
        },
        {
          "indexed": true,
          "internalType": "address",
          "name": "account",
          "type": "address"
        },
        {
          "indexed": true,
          "internalType": "address",
          "name": "sender",
          "type": "address"
        }
      ],
      "name": "RoleGranted",
      "type": "event"
    },
    {
      "anonymous": false,
      "inputs": [
        {
          "indexed": true,
          "internalType": "bytes32",
          "name": "role",
          "type": "bytes32"
        },
        {
          "indexed": true,
          "internalType": "address",
          "name": "account",
          "type": "address"
        },
        {
          "indexed": true,
          "internalType": "address",
          "name": "sender",
          "type": "address"
        }
      ],
      "name": "RoleRevoked",
      "type": "event"
    },
    {
      "inputs": [],
      "name": "DEFAULT_ADMIN_ROLE",
      "outputs": [
        {
          "internalType": "bytes32",
          "name": "",
          "type": "bytes32"
        }
      ],
      "stateMutability": "view",
      "type": "function"
    },
    {
      "inputs": [],
      "name": "ORACLE_ROLE",
      "outputs": [
        {
          "internalType": "bytes32",
          "name": "",
          "type": "bytes32"
        }
      ],
      "stateMutability": "view",
      "type": "function"
    },
    {
      "inputs": [
        {
          "internalType": "address",
          "name": "_oracle",
          "type": "address"
        }
      ],
      "name": "addOracle",
      "outputs": [],
      "stateMutability": "nonpayable",
      "type": "function"
    },
    {
      "inputs": [],
      "name": "allocatedFunds",
      "outputs": [
        {
          "internalType": "uint256",
          "name": "",
          "type": "uint256"
        }
      ],
      "stateMutability": "view",
      "type": "function"
    },
    {
      "inputs": [],
      "name": "availableFunds",
      "outputs": [
        {
          "internalType": "uint256",
          "name": "",
          "type": "uint256"
        }
      ],
      "stateMutability": "view",
      "type": "function"
    },
    {
      "inputs": [
        {
          "internalType": "bytes32",
          "name": "",
          "type": "bytes32"
        }
      ],
      "name": "getDebridge",
      "outputs": [
        {
          "internalType": "contract ILightDarkDebridge",
          "name": "",
          "type": "address"
        }
      ],
      "stateMutability": "view",
      "type": "function"
    },
    {
      "inputs": [
        {
          "internalType": "bytes32",
          "name": "role",
          "type": "bytes32"
        }
      ],
      "name": "getRoleAdmin",
      "outputs": [
        {
          "internalType": "bytes32",
          "name": "",
          "type": "bytes32"
        }
      ],
      "stateMutability": "view",
      "type": "function"
    },
    {
      "inputs": [
        {
          "internalType": "address",
          "name": "",
          "type": "address"
        }
      ],
      "name": "getRracleInfo",
      "outputs": [
        {
          "internalType": "uint128",
          "name": "withdrawable",
          "type": "uint128"
        },
        {
          "internalType": "address",
          "name": "admin",
          "type": "address"
        },
        {
          "internalType": "address",
          "name": "pendingAdmin",
          "type": "address"
        }
      ],
      "stateMutability": "view",
      "type": "function"
    },
    {
      "inputs": [
        {
          "internalType": "bytes32",
          "name": "",
          "type": "bytes32"
        }
      ],
      "name": "getWithdrawalInfo",
      "outputs": [
        {
          "internalType": "bool",
          "name": "broadcasted",
          "type": "bool"
        },
        {
          "internalType": "uint256",
          "name": "confirmations",
          "type": "uint256"
        },
        {
          "internalType": "bytes32",
          "name": "debridgeId",
          "type": "bytes32"
        },
        {
          "internalType": "bytes32",
          "name": "nullifierHash",
          "type": "bytes32"
        },
        {
          "internalType": "address",
          "name": "recipient",
          "type": "address"
        },
        {
          "internalType": "address",
          "name": "relayer",
          "type": "address"
        },
        {
          "internalType": "uint256",
          "name": "fee",
          "type": "uint256"
        },
        {
          "internalType": "uint256",
          "name": "refund",
          "type": "uint256"
        }
      ],
      "stateMutability": "view",
      "type": "function"
    },
    {
      "inputs": [
        {
          "internalType": "bytes32",
          "name": "role",
          "type": "bytes32"
        },
        {
          "internalType": "address",
          "name": "account",
          "type": "address"
        }
      ],
      "name": "grantRole",
      "outputs": [],
      "stateMutability": "nonpayable",
      "type": "function"
    },
    {
      "inputs": [
        {
          "internalType": "bytes32",
          "name": "role",
          "type": "bytes32"
        },
        {
          "internalType": "address",
          "name": "account",
          "type": "address"
        }
      ],
      "name": "hasRole",
      "outputs": [
        {
          "internalType": "bool",
          "name": "",
          "type": "bool"
        }
      ],
      "stateMutability": "view",
      "type": "function"
    },
    {
      "inputs": [],
      "name": "link",
      "outputs": [
        {
          "internalType": "contract IERC20",
          "name": "",
          "type": "address"
        }
      ],
      "stateMutability": "view",
      "type": "function"
    },
    {
      "inputs": [],
      "name": "minConfirmations",
      "outputs": [
        {
          "internalType": "uint256",
          "name": "",
          "type": "uint256"
        }
      ],
      "stateMutability": "view",
      "type": "function"
    },
    {
      "inputs": [
        {
          "internalType": "address",
          "name": "",
          "type": "address"
        },
        {
          "internalType": "uint256",
          "name": "",
          "type": "uint256"
        },
        {
          "internalType": "bytes",
          "name": "_data",
          "type": "bytes"
        }
      ],
      "name": "onTokenTransfer",
      "outputs": [],
      "stateMutability": "nonpayable",
      "type": "function"
    },
    {
      "inputs": [],
      "name": "payment",
      "outputs": [
        {
          "internalType": "uint128",
          "name": "",
          "type": "uint128"
        }
      ],
      "stateMutability": "view",
      "type": "function"
    },
    {
      "inputs": [
        {
          "internalType": "address",
          "name": "_oracle",
          "type": "address"
        }
      ],
      "name": "removeOracle",
      "outputs": [],
      "stateMutability": "nonpayable",
      "type": "function"
    },
    {
      "inputs": [
        {
          "internalType": "bytes32",
          "name": "role",
          "type": "bytes32"
        },
        {
          "internalType": "address",
          "name": "account",
          "type": "address"
        }
      ],
      "name": "renounceRole",
      "outputs": [],
      "stateMutability": "nonpayable",
      "type": "function"
    },
    {
      "inputs": [
        {
          "internalType": "bytes32",
          "name": "role",
          "type": "bytes32"
        },
        {
          "internalType": "address",
          "name": "account",
          "type": "address"
        }
      ],
      "name": "revokeRole",
      "outputs": [],
      "stateMutability": "nonpayable",
      "type": "function"
    },
    {
      "inputs": [
        {
          "internalType": "uint256",
          "name": "_minConfirmations",
          "type": "uint256"
        }
      ],
      "name": "setMinConfirmations",
      "outputs": [],
      "stateMutability": "nonpayable",
      "type": "function"
    },
    {
      "inputs": [
        {
          "internalType": "uint128",
          "name": "_payment",
          "type": "uint128"
        }
      ],
      "name": "setPayment",
      "outputs": [],
      "stateMutability": "nonpayable",
      "type": "function"
    },
    {
      "inputs": [
        {
          "internalType": "bytes4",
          "name": "interfaceId",
          "type": "bytes4"
        }
      ],
      "name": "supportsInterface",
      "outputs": [
        {
          "internalType": "bool",
          "name": "",
          "type": "bool"
        }
      ],
      "stateMutability": "view",
      "type": "function"
    },
    {
      "inputs": [],
      "name": "updateAvailableFunds",
      "outputs": [],
      "stateMutability": "nonpayable",
      "type": "function"
    },
    {
      "inputs": [
        {
          "internalType": "address",
          "name": "_recipient",
          "type": "address"
        },
        {
          "internalType": "uint256",
          "name": "_amount",
          "type": "uint256"
        }
      ],
      "name": "withdrawFunds",
      "outputs": [],
      "stateMutability": "nonpayable",
      "type": "function"
    },
    {
      "inputs": [
        {
          "internalType": "address",
          "name": "_oracle",
          "type": "address"
        },
        {
          "internalType": "address",
          "name": "_recipient",
          "type": "address"
        },
        {
          "internalType": "uint256",
          "name": "_amount",
          "type": "uint256"
        }
      ],
      "name": "withdrawPayment",
      "outputs": [],
      "stateMutability": "nonpayable",
      "type": "function"
    },
    {
      "inputs": [
        {
          "internalType": "address",
          "name": "_oracle",
          "type": "address"
        }
      ],
      "name": "withdrawablePayment",
      "outputs": [
        {
          "internalType": "uint256",
          "name": "",
          "type": "uint256"
        }
      ],
      "stateMutability": "view",
      "type": "function"
    },
    {
      "inputs": [
        {
          "internalType": "bytes32",
          "name": "_debridgeId",
          "type": "bytes32"
        },
        {
          "internalType": "bytes32",
          "name": "_nullifierHash",
          "type": "bytes32"
        },
        {
          "internalType": "uint256",
          "name": "_fee",
          "type": "uint256"
        },
        {
          "internalType": "uint256",
          "name": "_refund",
          "type": "uint256"
        },
        {
          "internalType": "address payable",
          "name": "_recipient",
          "type": "address"
        },
        {
          "internalType": "address payable",
          "name": "_relayer",
          "type": "address"
        }
      ],
      "name": "submit",
      "outputs": [],
      "stateMutability": "nonpayable",
      "type": "function"
    },
    {
      "inputs": [
        {
          "internalType": "bytes32",
          "name": "_debridgeId",
          "type": "bytes32"
        },
        {
          "internalType": "contract ILightDarkDebridge",
          "name": "_debridge",
          "type": "address"
        }
      ],
      "name": "setDebridge",
      "outputs": [],
      "stateMutability": "nonpayable",
      "type": "function"
    }
  ],
  "bytecode": "0x60806040523480156200001157600080fd5b506040516200183238038062001832833981016040819052620000349162000167565b6001839055600480546001600160801b0319166001600160801b038416179055600580546001600160a01b0319166001600160a01b0383161790558282826200007f600033620000b7565b620000ab7f68e79a7bf1e0bc45d0a330c573bc367f9cf464fd326078812f301165fbda4ef133620000b7565b505050505050620001c3565b620000c38282620000c7565b5050565b6000828152602081815260408083206001600160a01b038516845290915290205460ff16620000c3576000828152602081815260408083206001600160a01b03851684529091529020805460ff19166001179055620001233390565b6001600160a01b0316816001600160a01b0316837f2f8788117e7eff1d82e926ec794901d17c78024a50270940304540a733656f0d60405160405180910390a45050565b6000806000606084860312156200017c578283fd5b835160208501519093506001600160801b03811681146200019b578283fd5b60408501519092506001600160a01b0381168114620001b8578182fd5b809150509250925092565b61165f80620001d36000396000f3fe608060405234801561001057600080fd5b50600436106101b95760003560e01c8063740a7a9e116100f9578063d4cc54e411610097578063df5dd1a511610071578063df5dd1a5146104f5578063e2e4031714610508578063e7c4393e1461053a578063fdc85fc414610543576101b9565b8063d4cc54e4146104c6578063d547741f146104cf578063dd6db328146104e2576101b9565b8063a217fddf116100d3578063a217fddf14610485578063a4c0ed361461048d578063c1075329146104a0578063d2821655146104b3576101b9565b8063740a7a9e1461039057806382313e501461043b57806391d148541461044e576101b9565b806336568abe1161016657806346fcff4c1161014057806346fcff4c146103435780634f8fc3b51461034c57806351be6ad71461035457806357cf07ca14610367576101b9565b806336568abe146102f25780633d3d77141461030557806342f6487a14610318576101b9565b8063248a9ca311610197578063248a9ca3146102465780632dd6b35c146102695780632f2ff15d146102dd576101b9565b806301ffc9a7146101be57806307e2cea5146101e65780631c4695f41461021b575b600080fd5b6101d16101cc3660046114fd565b610556565b60405190151581526020015b60405180910390f35b61020d7f68e79a7bf1e0bc45d0a330c573bc367f9cf464fd326078812f301165fbda4ef181565b6040519081526020016101dd565b60055461022e906001600160a01b031681565b6040516001600160a01b0390911681526020016101dd565b61020d610254366004611459565b60009081526020819052604090206001015490565b6102ae610277366004611327565b6006602052600090815260409020805460018201546002909201546001600160801b03909116916001600160a01b03908116911683565b604080516001600160801b0390941684526001600160a01b0392831660208501529116908201526060016101dd565b6102f06102eb366004611471565b6105ef565b005b6102f0610300366004611471565b610691565b6102f061031336600461134a565b610719565b60045461032b906001600160801b031681565b6040516001600160801b0390911681526020016101dd565b61020d60035481565b6102f061090c565b6102f0610362366004611471565b6109b2565b61022e610375366004611459565b6008602052600090815260409020546001600160a01b031681565b6103f261039e366004611459565b60076020819052600091825260409091208054600182015460028301546003840154600485015460058601546006870154969097015460ff909516969395929491936001600160a01b039182169391169188565b60408051981515895260208901979097529587019490945260608601929092526001600160a01b0390811660808601521660a084015260c083015260e0820152610100016101dd565b6102f061044936600461153d565b610a61565b6101d161045c366004611471565b6000918252602082815260408084206001600160a01b0393909316845291905290205460ff1690565b61020d600081565b6102f061049b3660046113b5565b610b00565b6102f06104ae36600461138a565b610bb6565b6102f06104c1366004611459565b610d56565b61020d60025481565b6102f06104dd366004611471565b610dcf565b6102f06104f03660046114a0565b610e5c565b6102f0610503366004611327565b611108565b61020d610516366004611327565b6001600160a01b03166000908152600660205260409020546001600160801b031690565b61020d60015481565b6102f0610551366004611327565b611135565b60007fffffffff0000000000000000000000000000000000000000000000000000000082167f7965db0b0000000000000000000000000000000000000000000000000000000014806105e957507f01ffc9a7000000000000000000000000000000000000000000000000000000007fffffffff000000000000000000000000000000000000000000000000000000008316145b92915050565b60008281526020819052604090206001015461060c905b3361045c565b6106835760405162461bcd60e51b815260206004820152602f60248201527f416363657373436f6e74726f6c3a2073656e646572206d75737420626520616e60448201527f2061646d696e20746f206772616e74000000000000000000000000000000000060648201526084015b60405180910390fd5b61068d828261115f565b5050565b6001600160a01b038116331461070f5760405162461bcd60e51b815260206004820152602f60248201527f416363657373436f6e74726f6c3a2063616e206f6e6c792072656e6f756e636560448201527f20726f6c657320666f722073656c660000000000000000000000000000000000606482015260840161067a565b61068d82826111fd565b6001600160a01b038381166000908152600660205260409020600101541633146107855760405162461bcd60e51b815260206004820152601660248201527f6f6e6c792063616c6c61626c652062792061646d696e00000000000000000000604482015260640161067a565b6001600160a01b03831660009081526006602052604090205481906001600160801b039081169082168110156107fd5760405162461bcd60e51b815260206004820152601f60248201527f696e73756666696369656e7420776974686472617761626c652066756e647300604482015260640161067a565b61080782826115bf565b6001600160a01b038616600090815260066020526040812080546fffffffffffffffffffffffffffffffff19166001600160801b0393841617905560028054928516929091906108589084906115e7565b909155505060055460405163a9059cbb60e01b81526001600160a01b0386811660048301526001600160801b03851660248301529091169063a9059cbb90604401602060405180830381600087803b1580156108b357600080fd5b505af11580156108c7573d6000803e3d6000fd5b505050506040513d601f19601f820116820180604052508101906108eb9190611439565b61090557634e487b7160e01b600052600160045260246000fd5b5050505050565b6002546005546040517f70a082310000000000000000000000000000000000000000000000000000000081523060048201526001600160a01b03909116906370a082319060240160206040518083038186803b15801561096b57600080fd5b505afa15801561097f573d6000803e3d6000fd5b505050506040513d601f19601f820116820180604052508101906109a39190611564565b6109ad91906115e7565b600355565b3360009081527fad3228b676f7d3cd4284a5443f17f1962b36e491b30a40b2405849e597ba5fb5602052604090205460ff16610a265760405162461bcd60e51b81526020600482015260136024820152726f6e6c7941646d696e3a2062616420726f6c6560681b604482015260640161067a565b600091825260086020526040909120805473ffffffffffffffffffffffffffffffffffffffff19166001600160a01b03909216919091179055565b3360009081527fad3228b676f7d3cd4284a5443f17f1962b36e491b30a40b2405849e597ba5fb5602052604090205460ff16610ad55760405162461bcd60e51b81526020600482015260136024820152726f6e6c7941646d696e3a2062616420726f6c6560681b604482015260640161067a565b600480546fffffffffffffffffffffffffffffffff19166001600160801b0392909216919091179055565b6005546001600160a01b03163314610b5a5760405162461bcd60e51b815260206004820152601d60248201527f6f6e546f6b656e5472616e736665723a206e6f7420746865204c696e6b000000604482015260640161067a565b8015610ba85760405162461bcd60e51b815260206004820181905260248201527f7472616e7366657220646f65736e2774206163636570742063616c6c64617461604482015260640161067a565b610bb061090c565b50505050565b3360009081527fad3228b676f7d3cd4284a5443f17f1962b36e491b30a40b2405849e597ba5fb5602052604090205460ff16610c2a5760405162461bcd60e51b81526020600482015260136024820152726f6e6c7941646d696e3a2062616420726f6c6560681b604482015260640161067a565b806003541015610c7c5760405162461bcd60e51b815260206004820152601a60248201527f696e73756666696369656e7420726573657276652066756e6473000000000000604482015260640161067a565b60055460405163a9059cbb60e01b81526001600160a01b038481166004830152602482018490529091169063a9059cbb90604401602060405180830381600087803b158015610cca57600080fd5b505af1158015610cde573d6000803e3d6000fd5b505050506040513d601f19601f82011682018060405250810190610d029190611439565b610d4e5760405162461bcd60e51b815260206004820152601e60248201527f776974686472617746756e64733a207472616e73666572206661696c65640000604482015260640161067a565b61068d61090c565b3360009081527fad3228b676f7d3cd4284a5443f17f1962b36e491b30a40b2405849e597ba5fb5602052604090205460ff16610dca5760405162461bcd60e51b81526020600482015260136024820152726f6e6c7941646d696e3a2062616420726f6c6560681b604482015260640161067a565b600155565b600082815260208190526040902060010154610dea90610606565b61070f5760405162461bcd60e51b815260206004820152603060248201527f416363657373436f6e74726f6c3a2073656e646572206d75737420626520616e60448201527f2061646d696e20746f207265766f6b6500000000000000000000000000000000606482015260840161067a565b3360009081527fa629f6981c2f6895a67dc766e8e03ff72d04a413d0d8773a3ca56e9e474032c1602052604090205460ff16610eda5760405162461bcd60e51b815260206004820152601460248201527f6f6e6c794f7261636c653a2062616420726f6c65000000000000000000000000604482015260640161067a565b6040805160208082018990528183018890526060808301889052608083018790526bffffffffffffffffffffffff1986821b811660a08501529085901b1660b4830152825180830360a801815260c8909201835281519181019190912060008181526007835283812033825260088101909352929092205460ff1615610fa25760405162461bcd60e51b815260206004820152601960248201527f7375626d69743a207375626d697474656420616c726561647900000000000000604482015260640161067a565b600181015461100957600281018890556003810187905560068101869055600781018590556004810180546001600160a01b0380871673ffffffffffffffffffffffffffffffffffffffff1992831617909255600583018054928616929091169190911790555b600181600101600082825461101e91906115a7565b90915550503360009081526008820160205260409020805460ff1916600190811790915580549082015414156110f557600088815260086020526040908190205490517f7bfe950c0000000000000000000000000000000000000000000000000000000081526001600160a01b0386811660048301528581166024830152604482018990526064820188905290911690637bfe950c90608401600060405180830381600087803b1580156110d157600080fd5b505af11580156110e5573d6000803e3d6000fd5b5050825460ff1916600117835550505b6110fe3361127c565b5050505050505050565b6111327f68e79a7bf1e0bc45d0a330c573bc367f9cf464fd326078812f301165fbda4ef1826105ef565b50565b6111327f68e79a7bf1e0bc45d0a330c573bc367f9cf464fd326078812f301165fbda4ef182610dcf565b6000828152602081815260408083206001600160a01b038516845290915290205460ff1661068d576000828152602081815260408083206001600160a01b03851684529091529020805460ff191660011790556111b93390565b6001600160a01b0316816001600160a01b0316837f2f8788117e7eff1d82e926ec794901d17c78024a50270940304540a733656f0d60405160405180910390a45050565b6000828152602081815260408083206001600160a01b038516845290915290205460ff161561068d576000828152602081815260408083206001600160a01b0385168085529252808320805460ff1916905551339285917ff6391f5c32d9c69d2a47ea670b442974b53935d1edc7fd64eb21e047a839171b9190a45050565b600454600380546001600160801b039092169160009061129d9084906115e7565b9091555050600454600280546001600160801b03909216916000906112c39084906115a7565b90915550506004546001600160a01b038216600090815260066020526040812080546001600160801b03938416939192916113009185911661157c565b92506101000a8154816001600160801b0302191690836001600160801b0316021790555050565b600060208284031215611338578081fd5b813561134381611614565b9392505050565b60008060006060848603121561135e578182fd5b833561136981611614565b9250602084013561137981611614565b929592945050506040919091013590565b6000806040838503121561139c578182fd5b82356113a781611614565b946020939093013593505050565b600080600080606085870312156113ca578081fd5b84356113d581611614565b935060208501359250604085013567ffffffffffffffff808211156113f8578283fd5b818701915087601f83011261140b578283fd5b813581811115611419578384fd5b88602082850101111561142a578384fd5b95989497505060200194505050565b60006020828403121561144a578081fd5b81518015158114611343578182fd5b60006020828403121561146a578081fd5b5035919050565b60008060408385031215611483578182fd5b82359150602083013561149581611614565b809150509250929050565b60008060008060008060c087890312156114b8578182fd5b8635955060208701359450604087013593506060870135925060808701356114df81611614565b915060a08701356114ef81611614565b809150509295509295509295565b60006020828403121561150e578081fd5b81357fffffffff0000000000000000000000000000000000000000000000000000000081168114611343578182fd5b60006020828403121561154e578081fd5b81356001600160801b0381168114611343578182fd5b600060208284031215611575578081fd5b5051919050565b60006001600160801b0380831681851680830382111561159e5761159e6115fe565b01949350505050565b600082198211156115ba576115ba6115fe565b500190565b60006001600160801b03838116908316818110156115df576115df6115fe565b039392505050565b6000828210156115f9576115f96115fe565b500390565b634e487b7160e01b600052601160045260246000fd5b6001600160a01b038116811461113257600080fdfea264697066735822122030e9a9b5b1a117b490e17340bc253343eeb41f8cfb3688232687d9b51881b38b64736f6c63430008020033",
  "immutableReferences": {},
  "source": "// SPDX-License-Identifier: MIT\npragma solidity ^0.8.2;\n\nimport \"@openzeppelin/contracts/access/AccessControl.sol\";\nimport \"@openzeppelin/contracts/token/ERC20/IERC20.sol\";\nimport \"../interfaces/ILightDarkDebridge.sol\";\nimport \"./Aggregator.sol\";\n\ncontract WithdrawalAggregator is Aggregator {\n    struct WithdrawalInfo {\n        bool broadcasted;\n        uint256 confirmations;\n        bytes32 debridgeId; // hash(chainId, tokenAddress, amount)\n        bytes32 nullifierHash;\n        address recipient;\n        address relayer;\n        uint256 fee;\n        uint256 refund;\n        mapping(address => bool) hasVerified;\n    }\n\n    mapping(bytes32 => WithdrawalInfo) public getWithdrawalInfo;\n    mapping(bytes32 => ILightDarkDebridge) public getDebridge;\n\n    event Confirmed(bytes32 commitment, bytes32 debridgeId, address operator);\n    event Broadcasted(bytes32 debridgeId, bytes32 commitment);\n\n    constructor(\n        uint256 _minConfirmations,\n        uint128 _payment,\n        IERC20 _link\n    ) Aggregator(_minConfirmations, _payment, _link) {}\n\n    function submit(\n        bytes32 _debridgeId,\n        bytes32 _nullifierHash,\n        uint256 _fee,\n        uint256 _refund,\n        address payable _recipient,\n        address payable _relayer\n    ) external onlyOracle {\n        bytes32 withdrawalId =\n            keccak256(\n                abi.encodePacked(\n                    _debridgeId,\n                    _nullifierHash,\n                    _fee,\n                    _refund,\n                    _recipient,\n                    _relayer\n                )\n            );\n        WithdrawalInfo storage withdrawalInfo = getWithdrawalInfo[withdrawalId];\n        require(\n            !withdrawalInfo.hasVerified[msg.sender],\n            \"submit: submitted already\"\n        );\n        if (withdrawalInfo.confirmations == 0) {\n            withdrawalInfo.debridgeId = _debridgeId;\n            withdrawalInfo.nullifierHash = _nullifierHash;\n            withdrawalInfo.fee = _fee;\n            withdrawalInfo.refund = _refund;\n            withdrawalInfo.recipient = _recipient;\n            withdrawalInfo.relayer = _relayer;\n        }\n        withdrawalInfo.confirmations += 1;\n        withdrawalInfo.hasVerified[msg.sender] = true;\n        if (withdrawalInfo.confirmations == minConfirmations) {\n            getDebridge[_debridgeId].withdraw(\n                _recipient,\n                _relayer,\n                _fee,\n                _refund\n            );\n            withdrawalInfo.broadcasted = true;\n        }\n        _payOracle(msg.sender);\n    }\n\n    function setDebridge(bytes32 _debridgeId, ILightDarkDebridge _debridge)\n        external\n        onlyAdmin\n    {\n        getDebridge[_debridgeId] = _debridge;\n    }\n}\n",
  "sourcePath": "/Users/kstasi/Documents/work/debridge-contracts/contracts/chainlink/WithdrawalAggregator.sol",
  "compiler": {
    "name": "solc",
    "version": "0.8.2+commit.661d1103.Emscripten.clang"
  },
  "schemaVersion": "3.3.4",
  "updatedAt": "2021-03-20T14:42:58.919Z",
  "devdoc": {
    "kind": "dev",
    "methods": {
      "addOracle(address)": {
        "details": "Add new oracle.",
        "params": {
          "_oracle": "Oracle address."
        }
      },
      "getRoleAdmin(bytes32)": {
        "details": "Returns the admin role that controls `role`. See {grantRole} and {revokeRole}. To change a role's admin, use {_setRoleAdmin}."
      },
      "grantRole(bytes32,address)": {
        "details": "Grants `role` to `account`. If `account` had not been already granted `role`, emits a {RoleGranted} event. Requirements: - the caller must have ``role``'s admin role."
      },
      "hasRole(bytes32,address)": {
        "details": "Returns `true` if `account` has been granted `role`."
      },
      "removeOracle(address)": {
        "details": "Remove oracle.",
        "params": {
          "_oracle": "Oracle address."
        }
      },
      "renounceRole(bytes32,address)": {
        "details": "Revokes `role` from the calling account. Roles are often managed via {grantRole} and {revokeRole}: this function's purpose is to provide a mechanism for accounts to lose their privileges if they are compromised (such as when a trusted device is misplaced). If the calling account had been granted `role`, emits a {RoleRevoked} event. Requirements: - the caller must be `account`."
      },
      "revokeRole(bytes32,address)": {
        "details": "Revokes `role` from `account`. If `account` had been granted `role`, emits a {RoleRevoked} event. Requirements: - the caller must have ``role``'s admin role."
      },
      "setMinConfirmations(uint256)": {
        "details": "Sets minimal required confirmations.",
        "params": {
          "_minConfirmations": "Minimal required confirmations."
        }
      },
      "setPayment(uint128)": {
        "details": "Sets new oracle reward.",
        "params": {
          "_payment": "Oracle reward."
        }
      },
      "supportsInterface(bytes4)": {
        "details": "See {IERC165-supportsInterface}."
      },
      "updateAvailableFunds()": {
        "details": "Updates available rewards to be distributed."
      },
      "withdrawFunds(address,uint256)": {
        "details": "Withdraws available LINK's.",
        "params": {
          "_amount": "Amount to withdraw.",
          "_recipient": "Recepient reward."
        }
      },
      "withdrawPayment(address,address,uint256)": {
        "details": "Withdraws oracle reward.",
        "params": {
          "_amount": "Amount to withdraw.",
          "_oracle": "Oracle address.",
          "_recipient": "Recepient reward."
        }
      },
      "withdrawablePayment(address)": {
        "details": "Withdraws oracle reward.",
        "params": {
          "_oracle": "Oracle address."
        },
        "returns": {
          "_0": "Oracle rewards."
        }
      }
    },
    "version": 1
  },
  "userdoc": {
    "kind": "user",
    "methods": {},
    "version": 1
  }
}