{
  "contractName": "WrappedNFT",
  "abi": [
    {
      "inputs": [
        {
          "internalType": "string",
          "name": "_name",
          "type": "string"
        },
        {
          "internalType": "string",
          "name": "_symbol",
          "type": "string"
        },
        {
          "internalType": "address[]",
          "name": "_minters",
          "type": "address[]"
        }
      ],
      "stateMutability": "nonpayable",
      "type": "constructor"
    },
    {
      "anonymous": false,
      "inputs": [
        {
          "indexed": true,
          "internalType": "address",
          "name": "owner",
          "type": "address"
        },
        {
          "indexed": true,
          "internalType": "address",
          "name": "approved",
          "type": "address"
        },
        {
          "indexed": true,
          "internalType": "uint256",
          "name": "tokenId",
          "type": "uint256"
        }
      ],
      "name": "Approval",
      "type": "event"
    },
    {
      "anonymous": false,
      "inputs": [
        {
          "indexed": true,
          "internalType": "address",
          "name": "owner",
          "type": "address"
        },
        {
          "indexed": true,
          "internalType": "address",
          "name": "operator",
          "type": "address"
        },
        {
          "indexed": false,
          "internalType": "bool",
          "name": "approved",
          "type": "bool"
        }
      ],
      "name": "ApprovalForAll",
      "type": "event"
    },
    {
      "anonymous": false,
      "inputs": [
        {
          "indexed": true,
          "internalType": "bytes32",
          "name": "role",
          "type": "bytes32"
        },
        {
          "indexed": true,
          "internalType": "bytes32",
          "name": "previousAdminRole",
          "type": "bytes32"
        },
        {
          "indexed": true,
          "internalType": "bytes32",
          "name": "newAdminRole",
          "type": "bytes32"
        }
      ],
      "name": "RoleAdminChanged",
      "type": "event"
    },
    {
      "anonymous": false,
      "inputs": [
        {
          "indexed": true,
          "internalType": "bytes32",
          "name": "role",
          "type": "bytes32"
        },
        {
          "indexed": true,
          "internalType": "address",
          "name": "account",
          "type": "address"
        },
        {
          "indexed": true,
          "internalType": "address",
          "name": "sender",
          "type": "address"
        }
      ],
      "name": "RoleGranted",
      "type": "event"
    },
    {
      "anonymous": false,
      "inputs": [
        {
          "indexed": true,
          "internalType": "bytes32",
          "name": "role",
          "type": "bytes32"
        },
        {
          "indexed": true,
          "internalType": "address",
          "name": "account",
          "type": "address"
        },
        {
          "indexed": true,
          "internalType": "address",
          "name": "sender",
          "type": "address"
        }
      ],
      "name": "RoleRevoked",
      "type": "event"
    },
    {
      "anonymous": false,
      "inputs": [
        {
          "indexed": true,
          "internalType": "address",
          "name": "from",
          "type": "address"
        },
        {
          "indexed": true,
          "internalType": "address",
          "name": "to",
          "type": "address"
        },
        {
          "indexed": true,
          "internalType": "uint256",
          "name": "tokenId",
          "type": "uint256"
        }
      ],
      "name": "Transfer",
      "type": "event"
    },
    {
      "inputs": [],
      "name": "DEFAULT_ADMIN_ROLE",
      "outputs": [
        {
          "internalType": "bytes32",
          "name": "",
          "type": "bytes32"
        }
      ],
      "stateMutability": "view",
      "type": "function"
    },
    {
      "inputs": [],
      "name": "DOMAIN_SEPARATOR",
      "outputs": [
        {
          "internalType": "bytes32",
          "name": "",
          "type": "bytes32"
        }
      ],
      "stateMutability": "view",
      "type": "function"
    },
    {
      "inputs": [],
      "name": "MINTER_ROLE",
      "outputs": [
        {
          "internalType": "bytes32",
          "name": "",
          "type": "bytes32"
        }
      ],
      "stateMutability": "view",
      "type": "function"
    },
    {
      "inputs": [],
      "name": "PERMIT_TYPEHASH",
      "outputs": [
        {
          "internalType": "bytes32",
          "name": "",
          "type": "bytes32"
        }
      ],
      "stateMutability": "view",
      "type": "function"
    },
    {
      "inputs": [
        {
          "internalType": "address",
          "name": "to",
          "type": "address"
        },
        {
          "internalType": "uint256",
          "name": "tokenId",
          "type": "uint256"
        }
      ],
      "name": "approve",
      "outputs": [],
      "stateMutability": "nonpayable",
      "type": "function"
    },
    {
      "inputs": [
        {
          "internalType": "address",
          "name": "owner",
          "type": "address"
        }
      ],
      "name": "balanceOf",
      "outputs": [
        {
          "internalType": "uint256",
          "name": "",
          "type": "uint256"
        }
      ],
      "stateMutability": "view",
      "type": "function"
    },
    {
      "inputs": [],
      "name": "baseURI",
      "outputs": [
        {
          "internalType": "string",
          "name": "",
          "type": "string"
        }
      ],
      "stateMutability": "view",
      "type": "function"
    },
    {
      "inputs": [
        {
          "internalType": "uint256",
          "name": "tokenId",
          "type": "uint256"
        }
      ],
      "name": "getApproved",
      "outputs": [
        {
          "internalType": "address",
          "name": "",
          "type": "address"
        }
      ],
      "stateMutability": "view",
      "type": "function"
    },
    {
      "inputs": [
        {
          "internalType": "bytes32",
          "name": "role",
          "type": "bytes32"
        }
      ],
      "name": "getRoleAdmin",
      "outputs": [
        {
          "internalType": "bytes32",
          "name": "",
          "type": "bytes32"
        }
      ],
      "stateMutability": "view",
      "type": "function"
    },
    {
      "inputs": [
        {
          "internalType": "bytes32",
          "name": "role",
          "type": "bytes32"
        },
        {
          "internalType": "address",
          "name": "account",
          "type": "address"
        }
      ],
      "name": "grantRole",
      "outputs": [],
      "stateMutability": "nonpayable",
      "type": "function"
    },
    {
      "inputs": [
        {
          "internalType": "bytes32",
          "name": "role",
          "type": "bytes32"
        },
        {
          "internalType": "address",
          "name": "account",
          "type": "address"
        }
      ],
      "name": "hasRole",
      "outputs": [
        {
          "internalType": "bool",
          "name": "",
          "type": "bool"
        }
      ],
      "stateMutability": "view",
      "type": "function"
    },
    {
      "inputs": [
        {
          "internalType": "address",
          "name": "owner",
          "type": "address"
        },
        {
          "internalType": "address",
          "name": "operator",
          "type": "address"
        }
      ],
      "name": "isApprovedForAll",
      "outputs": [
        {
          "internalType": "bool",
          "name": "",
          "type": "bool"
        }
      ],
      "stateMutability": "view",
      "type": "function"
    },
    {
      "inputs": [],
      "name": "name",
      "outputs": [
        {
          "internalType": "string",
          "name": "",
          "type": "string"
        }
      ],
      "stateMutability": "view",
      "type": "function"
    },
    {
      "inputs": [
        {
          "internalType": "address",
          "name": "",
          "type": "address"
        }
      ],
      "name": "nonces",
      "outputs": [
        {
          "internalType": "uint256",
          "name": "",
          "type": "uint256"
        }
      ],
      "stateMutability": "view",
      "type": "function"
    },
    {
      "inputs": [
        {
          "internalType": "uint256",
          "name": "tokenId",
          "type": "uint256"
        }
      ],
      "name": "ownerOf",
      "outputs": [
        {
          "internalType": "address",
          "name": "",
          "type": "address"
        }
      ],
      "stateMutability": "view",
      "type": "function"
    },
    {
      "inputs": [
        {
          "internalType": "bytes32",
          "name": "role",
          "type": "bytes32"
        },
        {
          "internalType": "address",
          "name": "account",
          "type": "address"
        }
      ],
      "name": "renounceRole",
      "outputs": [],
      "stateMutability": "nonpayable",
      "type": "function"
    },
    {
      "inputs": [
        {
          "internalType": "bytes32",
          "name": "role",
          "type": "bytes32"
        },
        {
          "internalType": "address",
          "name": "account",
          "type": "address"
        }
      ],
      "name": "revokeRole",
      "outputs": [],
      "stateMutability": "nonpayable",
      "type": "function"
    },
    {
      "inputs": [
        {
          "internalType": "address",
          "name": "from",
          "type": "address"
        },
        {
          "internalType": "address",
          "name": "to",
          "type": "address"
        },
        {
          "internalType": "uint256",
          "name": "tokenId",
          "type": "uint256"
        }
      ],
      "name": "safeTransferFrom",
      "outputs": [],
      "stateMutability": "nonpayable",
      "type": "function"
    },
    {
      "inputs": [
        {
          "internalType": "address",
          "name": "from",
          "type": "address"
        },
        {
          "internalType": "address",
          "name": "to",
          "type": "address"
        },
        {
          "internalType": "uint256",
          "name": "tokenId",
          "type": "uint256"
        },
        {
          "internalType": "bytes",
          "name": "_data",
          "type": "bytes"
        }
      ],
      "name": "safeTransferFrom",
      "outputs": [],
      "stateMutability": "nonpayable",
      "type": "function"
    },
    {
      "inputs": [
        {
          "internalType": "address",
          "name": "operator",
          "type": "address"
        },
        {
          "internalType": "bool",
          "name": "approved",
          "type": "bool"
        }
      ],
      "name": "setApprovalForAll",
      "outputs": [],
      "stateMutability": "nonpayable",
      "type": "function"
    },
    {
      "inputs": [],
      "name": "symbol",
      "outputs": [
        {
          "internalType": "string",
          "name": "",
          "type": "string"
        }
      ],
      "stateMutability": "view",
      "type": "function"
    },
    {
      "inputs": [
        {
          "internalType": "uint256",
          "name": "tokenId",
          "type": "uint256"
        }
      ],
      "name": "tokenURI",
      "outputs": [
        {
          "internalType": "string",
          "name": "",
          "type": "string"
        }
      ],
      "stateMutability": "view",
      "type": "function"
    },
    {
      "inputs": [
        {
          "internalType": "address",
          "name": "from",
          "type": "address"
        },
        {
          "internalType": "address",
          "name": "to",
          "type": "address"
        },
        {
          "internalType": "uint256",
          "name": "tokenId",
          "type": "uint256"
        }
      ],
      "name": "transferFrom",
      "outputs": [],
      "stateMutability": "nonpayable",
      "type": "function"
    },
    {
      "inputs": [
        {
          "internalType": "address",
          "name": "_to",
          "type": "address"
        },
        {
          "internalType": "uint256",
          "name": "_tokenId",
          "type": "uint256"
        }
      ],
      "name": "mint",
      "outputs": [],
      "stateMutability": "nonpayable",
      "type": "function"
    },
    {
      "inputs": [
        {
          "internalType": "uint256",
          "name": "_tokenId",
          "type": "uint256"
        }
      ],
      "name": "burn",
      "outputs": [],
      "stateMutability": "nonpayable",
      "type": "function"
    },
    {
      "inputs": [
        {
          "internalType": "address",
          "name": "_spender",
          "type": "address"
        },
        {
          "internalType": "uint256",
          "name": "_tokenId",
          "type": "uint256"
        },
        {
          "internalType": "uint256",
          "name": "_deadline",
          "type": "uint256"
        },
        {
          "internalType": "uint8",
          "name": "_v",
          "type": "uint8"
        },
        {
          "internalType": "bytes32",
          "name": "_r",
          "type": "bytes32"
        },
        {
          "internalType": "bytes32",
          "name": "_s",
          "type": "bytes32"
        }
      ],
      "name": "permit",
      "outputs": [],
      "stateMutability": "nonpayable",
      "type": "function"
    },
    {
      "inputs": [
        {
          "internalType": "bytes4",
          "name": "interfaceId",
          "type": "bytes4"
        }
      ],
      "name": "supportsInterface",
      "outputs": [
        {
          "internalType": "bool",
          "name": "",
          "type": "bool"
        }
      ],
      "stateMutability": "view",
      "type": "function"
    }
  ],
  "bytecode": "0x60806040523480156200001157600080fd5b50604051620023783803806200237883398101604081905262000034916200039b565b8251839083906200004d90600190602085019062000283565b5080516200006390600290602084019062000283565b506200007591506000905033620001d3565b60005b8151811015620000f157620000dc7f9f2df0fed2c77648de5860a4cc508cd0818c85b8b8a1ab4ceeef8d981c8956a6838381518110620000c857634e487b7160e01b600052603260045260246000fd5b6020026020010151620001d360201b60201c565b80620000e88162000583565b91505062000078565b50825160208085019190912060408051808201825260018152603160f81b9084015280517f8b73c3c69bb8fe3d512ecc4cf759cc79239f7b179b0ffacaa9a75d522b39400f938101939093528201527fc89efdaa54c0f20c7adf612882df0950f5a951637e0307cdcb4c672f298b8bc6606082015246608082018190523060a08301529060c00160408051601f19818403018152908290528051602091820120600755620001a291859101620004af565b60405160208183030381529060405260099080519060200190620001c892919062000283565b5050505050620005c1565b620001df8282620001e3565b5050565b6000828152602081815260408083206001600160a01b038516845290915290205460ff16620001df576000828152602081815260408083206001600160a01b03851684529091529020805460ff191660011790556200023f3390565b6001600160a01b0316816001600160a01b0316837f2f8788117e7eff1d82e926ec794901d17c78024a50270940304540a733656f0d60405160405180910390a45050565b828054620002919062000546565b90600052602060002090601f016020900481019282620002b5576000855562000300565b82601f10620002d057805160ff191683800117855562000300565b8280016001018555821562000300579182015b8281111562000300578251825591602001919060010190620002e3565b506200030e92915062000312565b5090565b5b808211156200030e576000815560010162000313565b600082601f8301126200033a578081fd5b81516001600160401b03811115620003565762000356620005ab565b6200036b601f8201601f1916602001620004e0565b81815284602083860101111562000380578283fd5b6200039382602083016020870162000513565b949350505050565b600080600060608486031215620003b0578283fd5b83516001600160401b0380821115620003c7578485fd5b620003d58783880162000329565b9450602091508186015181811115620003ec578485fd5b620003fa8882890162000329565b9450506040860151818111156200040f578384fd5b8601601f8101881362000420578384fd5b805182811115620004355762000435620005ab565b838102925062000447848401620004e0565b8181528481019083860185850187018c101562000462578788fd5b8795505b838610156200049e57805194506001600160a01b038516851462000488578788fd5b8483526001959095019491860191860162000466565b508096505050505050509250925092565b600066697066733a2f2f60c81b82528251620004d381600785016020870162000513565b9190910160070192915050565b604051601f8201601f191681016001600160401b03811182821017156200050b576200050b620005ab565b604052919050565b60005b838110156200053057818101518382015260200162000516565b8381111562000540576000848401525b50505050565b6002810460018216806200055b57607f821691505b602082108114156200057d57634e487b7160e01b600052602260045260246000fd5b50919050565b6000600019821415620005a457634e487b7160e01b81526011600452602481fd5b5060010190565b634e487b7160e01b600052604160045260246000fd5b611da780620005d16000396000f3fe608060405234801561001057600080fd5b50600436106101a95760003560e01c80636352211e116100f9578063a217fddf11610097578063c87b56dd11610071578063c87b56dd146103a8578063d5391393146103bb578063d547741f146103e2578063e985e9c5146103f5576101a9565b8063a217fddf1461037a578063a22cb46514610382578063b88d4fde14610395576101a9565b80637ac2ff7b116100d35780637ac2ff7b1461032c5780637ecebe001461033f57806391d148541461035f57806395d89b4114610372576101a9565b80636352211e146102fe5780636c0360eb1461031157806370a0823114610319576101a9565b80632f2ff15d1161016657806336568abe1161014057806336568abe146102b257806340c10f19146102c557806342842e0e146102d857806342966c68146102eb576101a9565b80632f2ff15d1461026f57806330adf81f146102825780633644e515146102a9576101a9565b806301ffc9a7146101ae57806306fdde03146101d6578063081812fc146101eb578063095ea7b31461021657806323b872dd1461022b578063248a9ca31461023e575b600080fd5b6101c16101bc366004611aba565b610431565b60405190151581526020015b60405180910390f35b6101de610444565b6040516101cd9190611b8a565b6101fe6101f9366004611a80565b6104d6565b6040516001600160a01b0390911681526020016101cd565b6102296102243660046119f9565b610570565b005b6102296102393660046118af565b610686565b61026161024c366004611a80565b60009081526020819052604090206001015490565b6040519081526020016101cd565b61022961027d366004611a98565b6106b7565b6102617f49ecf333e5b8c95c40fdafc95c1ad136e8914a8fb55e9dc8bb01eaa83a2df9ad81565b61026160075481565b6102296102c0366004611a98565b610746565b6102296102d33660046119f9565b6107c0565b6102296102e63660046118af565b610837565b6102296102f9366004611a80565b610852565b6101fe61030c366004611a80565b6108cb565b6101de610942565b610261610327366004611863565b6109d0565b61022961033a366004611a22565b610a57565b61026161034d366004611863565b60086020526000908152604090205481565b6101c161036d366004611a98565b610d07565b6101de610d30565b610261600081565b6102296103903660046119bf565b610d3f565b6102296103a33660046118ea565b610e11565b6101de6103b6366004611a80565b610e49565b6102617f9f2df0fed2c77648de5860a4cc508cd0818c85b8b8a1ab4ceeef8d981c8956a681565b6102296103f0366004611a98565b610f31565b6101c161040336600461187d565b6001600160a01b03918216600090815260066020908152604080832093909416825291909152205460ff1690565b600061043c82610fb1565b90505b919050565b60606001805461045390611caf565b80601f016020809104026020016040519081016040528092919081815260200182805461047f90611caf565b80156104cc5780601f106104a1576101008083540402835291602001916104cc565b820191906000526020600020905b8154815290600101906020018083116104af57829003601f168201915b5050505050905090565b6000818152600360205260408120546001600160a01b03166105545760405162461bcd60e51b815260206004820152602c60248201527f4552433732313a20617070726f76656420717565727920666f72206e6f6e657860448201526b34b9ba32b73a103a37b5b2b760a11b60648201526084015b60405180910390fd5b506000908152600560205260409020546001600160a01b031690565b600061057b826108cb565b9050806001600160a01b0316836001600160a01b031614156105e95760405162461bcd60e51b815260206004820152602160248201527f4552433732313a20617070726f76616c20746f2063757272656e74206f776e656044820152603960f91b606482015260840161054b565b336001600160a01b038216148061060557506106058133610403565b6106775760405162461bcd60e51b815260206004820152603860248201527f4552433732313a20617070726f76652063616c6c6572206973206e6f74206f7760448201527f6e6572206e6f7220617070726f76656420666f7220616c6c0000000000000000606482015260840161054b565b6106818383610ff1565b505050565b610690338261105f565b6106ac5760405162461bcd60e51b815260040161054b90611bef565b610681838383611156565b6000828152602081905260409020600101546106d4905b3361036d565b6107385760405162461bcd60e51b815260206004820152602f60248201527f416363657373436f6e74726f6c3a2073656e646572206d75737420626520616e60448201526e0818591b5a5b881d1bc819dc985b9d608a1b606482015260840161054b565b61074282826112f6565b5050565b6001600160a01b03811633146107b65760405162461bcd60e51b815260206004820152602f60248201527f416363657373436f6e74726f6c3a2063616e206f6e6c792072656e6f756e636560448201526e103937b632b9903337b91039b2b63360891b606482015260840161054b565b610742828261137a565b6107ea7f9f2df0fed2c77648de5860a4cc508cd0818c85b8b8a1ab4ceeef8d981c8956a633610d07565b61082d5760405162461bcd60e51b81526020600482015260146024820152736f6e6c794d696e7465723a2062616420726f6c6560601b604482015260640161054b565b61074282826113df565b61068183838360405180602001604052806000815250610e11565b61087c7f9f2df0fed2c77648de5860a4cc508cd0818c85b8b8a1ab4ceeef8d981c8956a633610d07565b6108bf5760405162461bcd60e51b81526020600482015260146024820152736f6e6c794d696e7465723a2062616420726f6c6560601b604482015260640161054b565b6108c881611521565b50565b6000818152600360205260408120546001600160a01b03168061043c5760405162461bcd60e51b815260206004820152602960248201527f4552433732313a206f776e657220717565727920666f72206e6f6e657869737460448201526832b73a103a37b5b2b760b91b606482015260840161054b565b6009805461094f90611caf565b80601f016020809104026020016040519081016040528092919081815260200182805461097b90611caf565b80156109c85780601f1061099d576101008083540402835291602001916109c8565b820191906000526020600020905b8154815290600101906020018083116109ab57829003601f168201915b505050505081565b60006001600160a01b038216610a3b5760405162461bcd60e51b815260206004820152602a60248201527f4552433732313a2062616c616e636520717565727920666f7220746865207a65604482015269726f206164647265737360b01b606482015260840161054b565b506001600160a01b031660009081526004602052604090205490565b42841015610a995760405162461bcd60e51b815260206004820152600f60248201526e1c195c9b5a5d0e8811561412549151608a1b604482015260640161054b565b6000610aa4866108cb565b6007546001600160a01b0382166000908152600860205260408120805493945090927f49ecf333e5b8c95c40fdafc95c1ad136e8914a8fb55e9dc8bb01eaa83a2df9ad918b918b9186610af683611cea565b909155506040805160208101959095526001600160a01b03909316928401929092526060830152608082015260a0810188905260c00160405160208183030381529060405280519060200120604051602001610b6992919061190160f01b81526002810192909252602282015260420190565b604051602081830303815290604052805190602001209050816001600160a01b0316886001600160a01b03161415610be35760405162461bcd60e51b815260206004820152601960248201527f617070726f76616c20746f2063757272656e74206f776e657200000000000000604482015260640161054b565b6040805160008082526020820180845284905260ff881692820192909252606081018690526080810185905260019060a0016020604051602081039080840390855afa158015610c37573d6000803e3d6000fd5b5050604051601f1901519150506001600160a01b038116610c9a5760405162461bcd60e51b815260206004820152601960248201527f7065726d69743a20696e76616c6964207369676e617475726500000000000000604482015260640161054b565b826001600160a01b0316816001600160a01b031614610cf25760405162461bcd60e51b81526020600482015260146024820152731c195c9b5a5d0e88155b985d5d1a1bdc9a5e995960621b604482015260640161054b565b610cfc8989610ff1565b505050505050505050565b6000918252602082815260408084206001600160a01b0393909316845291905290205460ff1690565b60606002805461045390611caf565b6001600160a01b038216331415610d985760405162461bcd60e51b815260206004820152601960248201527f4552433732313a20617070726f766520746f2063616c6c657200000000000000604482015260640161054b565b3360008181526006602090815260408083206001600160a01b0387168085529252909120805460ff1916841515179055906001600160a01b03167f17307eab39ab6107e8899845ad3d59bd9653f200f220920489ca2b5937696c3183604051610e05911515815260200190565b60405180910390a35050565b610e1b338361105f565b610e375760405162461bcd60e51b815260040161054b90611bef565b610e43848484846115bc565b50505050565b6000818152600360205260409020546060906001600160a01b0316610ec85760405162461bcd60e51b815260206004820152602f60248201527f4552433732314d657461646174613a2055524920717565727920666f72206e6f60448201526e3732bc34b9ba32b73a103a37b5b2b760891b606482015260840161054b565b6000610edf60408051602081019091526000815290565b90506000815111610eff5760405180602001604052806000815250610f2a565b80610f09846115ef565b604051602001610f1a929190611b1e565b6040516020818303038152906040525b9392505050565b600082815260208190526040902060010154610f4c906106ce565b6107b65760405162461bcd60e51b815260206004820152603060248201527f416363657373436f6e74726f6c3a2073656e646572206d75737420626520616e60448201526f2061646d696e20746f207265766f6b6560801b606482015260840161054b565b60006001600160e01b031982166380ac58cd60e01b1480610fe257506001600160e01b03198216635b5e139f60e01b145b8061043c575061043c8261170a565b600081815260056020526040902080546001600160a01b0319166001600160a01b0384169081179091558190611026826108cb565b6001600160a01b03167f8c5be1e5ebec7d5bd14f71427d1e84f3dd0314c0f7b2291e5b200ac8c7c3b92560405160405180910390a45050565b6000818152600360205260408120546001600160a01b03166110d85760405162461bcd60e51b815260206004820152602c60248201527f4552433732313a206f70657261746f7220717565727920666f72206e6f6e657860448201526b34b9ba32b73a103a37b5b2b760a11b606482015260840161054b565b60006110e3836108cb565b9050806001600160a01b0316846001600160a01b0316148061111e5750836001600160a01b0316611113846104d6565b6001600160a01b0316145b8061114e57506001600160a01b0380821660009081526006602090815260408083209388168352929052205460ff165b949350505050565b826001600160a01b0316611169826108cb565b6001600160a01b0316146111d15760405162461bcd60e51b815260206004820152602960248201527f4552433732313a207472616e73666572206f6620746f6b656e2074686174206960448201526839903737ba1037bbb760b91b606482015260840161054b565b6001600160a01b0382166112335760405162461bcd60e51b8152602060048201526024808201527f4552433732313a207472616e7366657220746f20746865207a65726f206164646044820152637265737360e01b606482015260840161054b565b61123e600082610ff1565b6001600160a01b0383166000908152600460205260408120805460019290611267908490611c6c565b90915550506001600160a01b0382166000908152600460205260408120805460019290611295908490611c40565b909155505060008181526003602052604080822080546001600160a01b0319166001600160a01b0386811691821790925591518493918716917fddf252ad1be2c89b69c2b068fc378daa952ba7f163c4a11628f55a4df523b3ef91a4505050565b6113008282610d07565b610742576000828152602081815260408083206001600160a01b03851684529091529020805460ff191660011790556113363390565b6001600160a01b0316816001600160a01b0316837f2f8788117e7eff1d82e926ec794901d17c78024a50270940304540a733656f0d60405160405180910390a45050565b6113848282610d07565b15610742576000828152602081815260408083206001600160a01b0385168085529252808320805460ff1916905551339285917ff6391f5c32d9c69d2a47ea670b442974b53935d1edc7fd64eb21e047a839171b9190a45050565b6001600160a01b0382166114355760405162461bcd60e51b815260206004820181905260248201527f4552433732313a206d696e7420746f20746865207a65726f2061646472657373604482015260640161054b565b6000818152600360205260409020546001600160a01b03161561149a5760405162461bcd60e51b815260206004820152601c60248201527f4552433732313a20746f6b656e20616c7265616479206d696e74656400000000604482015260640161054b565b6001600160a01b03821660009081526004602052604081208054600192906114c3908490611c40565b909155505060008181526003602052604080822080546001600160a01b0319166001600160a01b03861690811790915590518392907fddf252ad1be2c89b69c2b068fc378daa952ba7f163c4a11628f55a4df523b3ef908290a45050565b600061152c826108cb565b9050611539600083610ff1565b6001600160a01b0381166000908152600460205260408120805460019290611562908490611c6c565b909155505060008281526003602052604080822080546001600160a01b0319169055518391906001600160a01b038416907fddf252ad1be2c89b69c2b068fc378daa952ba7f163c4a11628f55a4df523b3ef908390a45050565b6115c7848484611156565b6115d38484848461173f565b610e435760405162461bcd60e51b815260040161054b90611b9d565b60608161161457506040805180820190915260018152600360fc1b602082015261043f565b8160005b811561163e578061162881611cea565b91506116379050600a83611c58565b9150611618565b60008167ffffffffffffffff81111561166757634e487b7160e01b600052604160045260246000fd5b6040519080825280601f01601f191660200182016040528015611691576020820181803683370190505b5090505b841561114e576116a6600183611c6c565b91506116b3600a86611d05565b6116be906030611c40565b60f81b8183815181106116e157634e487b7160e01b600052603260045260246000fd5b60200101906001600160f81b031916908160001a905350611703600a86611c58565b9450611695565b60006001600160e01b03198216637965db0b60e01b148061043c57506301ffc9a760e01b6001600160e01b031983161461043c565b60006001600160a01b0384163b1561184157604051630a85bd0160e11b81526001600160a01b0385169063150b7a0290611783903390899088908890600401611b4d565b602060405180830381600087803b15801561179d57600080fd5b505af19250505080156117cd575060408051601f3d908101601f191682019092526117ca91810190611ad6565b60015b611827573d8080156117fb576040519150601f19603f3d011682016040523d82523d6000602084013e611800565b606091505b50805161181f5760405162461bcd60e51b815260040161054b90611b9d565b805181602001fd5b6001600160e01b031916630a85bd0160e11b14905061114e565b506001949350505050565b80356001600160a01b038116811461043f57600080fd5b600060208284031215611874578081fd5b610f2a8261184c565b6000806040838503121561188f578081fd5b6118988361184c565b91506118a66020840161184c565b90509250929050565b6000806000606084860312156118c3578081fd5b6118cc8461184c565b92506118da6020850161184c565b9150604084013590509250925092565b600080600080608085870312156118ff578081fd5b6119088561184c565b93506119166020860161184c565b925060408501359150606085013567ffffffffffffffff80821115611939578283fd5b818701915087601f83011261194c578283fd5b81358181111561195e5761195e611d45565b604051601f8201601f19908116603f0116810190838211818310171561198657611986611d45565b816040528281528a602084870101111561199e578586fd5b82602086016020830137918201602001949094529598949750929550505050565b600080604083850312156119d1578182fd5b6119da8361184c565b9150602083013580151581146119ee578182fd5b809150509250929050565b60008060408385031215611a0b578182fd5b611a148361184c565b946020939093013593505050565b60008060008060008060c08789031215611a3a578182fd5b611a438761184c565b95506020870135945060408701359350606087013560ff81168114611a66578283fd5b9598949750929560808101359460a0909101359350915050565b600060208284031215611a91578081fd5b5035919050565b60008060408385031215611aaa578182fd5b823591506118a66020840161184c565b600060208284031215611acb578081fd5b8135610f2a81611d5b565b600060208284031215611ae7578081fd5b8151610f2a81611d5b565b60008151808452611b0a816020860160208601611c83565b601f01601f19169290920160200192915050565b60008351611b30818460208801611c83565b835190830190611b44818360208801611c83565b01949350505050565b6001600160a01b0385811682528416602082015260408101839052608060608201819052600090611b8090830184611af2565b9695505050505050565b600060208252610f2a6020830184611af2565b60208082526032908201527f4552433732313a207472616e7366657220746f206e6f6e20455243373231526560408201527131b2b4bb32b91034b6b83632b6b2b73a32b960711b606082015260800190565b60208082526031908201527f4552433732313a207472616e736665722063616c6c6572206973206e6f74206f6040820152701ddb995c881b9bdc88185c1c1c9bdd9959607a1b606082015260800190565b60008219821115611c5357611c53611d19565b500190565b600082611c6757611c67611d2f565b500490565b600082821015611c7e57611c7e611d19565b500390565b60005b83811015611c9e578181015183820152602001611c86565b83811115610e435750506000910152565b600281046001821680611cc357607f821691505b60208210811415611ce457634e487b7160e01b600052602260045260246000fd5b50919050565b6000600019821415611cfe57611cfe611d19565b5060010190565b600082611d1457611d14611d2f565b500690565b634e487b7160e01b600052601160045260246000fd5b634e487b7160e01b600052601260045260246000fd5b634e487b7160e01b600052604160045260246000fd5b6001600160e01b0319811681146108c857600080fdfea264697066735822122011da7974be8b30a1211f4048697e43109dcb45528dae24de97d20d126a530db564736f6c63430008020033",
  "immutableReferences": {},
  "source": "// SPDX-License-Identifier: MIT\r\npragma solidity ^0.8.2;\r\n\r\nimport \"@openzeppelin/contracts/token/ERC721/ERC721.sol\";\r\nimport \"@openzeppelin/contracts/token/ERC721/IERC721.sol\";\r\nimport \"@openzeppelin/contracts/access/AccessControl.sol\";\r\nimport \"../interfaces/IWrappedNFT.sol\";\r\n\r\ncontract WrappedNFT is AccessControl, IWrappedNFT, ERC721 {\r\n    bytes32 public constant MINTER_ROLE = keccak256(\"MINTER_ROLE\"); // minter role identifier\r\n    bytes32 public DOMAIN_SEPARATOR;\r\n    // keccak256(\"Permit(address spender,uint256 tokenId,uint256 nonce,uint256 deadline)\");\r\n    bytes32 public constant PERMIT_TYPEHASH =\r\n        0x49ecf333e5b8c95c40fdafc95c1ad136e8914a8fb55e9dc8bb01eaa83a2df9ad;\r\n    mapping(address => uint256) public nonces; // transfer's counter\r\n    string public baseURI;\r\n\r\n    modifier onlyMinter {\r\n        require(hasRole(MINTER_ROLE, msg.sender), \"onlyMinter: bad role\");\r\n        _;\r\n    }\r\n\r\n    /// @dev Constructor that initialize the most important configurations.\r\n    /// @param _name Asset's name\r\n    /// @param _symbol Asset's symbol\r\n    /// @param _minters The accounts allowed to mint new tokens\r\n    constructor(\r\n        string memory _name,\r\n        string memory _symbol,\r\n        address[] memory _minters\r\n    ) ERC721(_name, _symbol) {\r\n        _setupRole(DEFAULT_ADMIN_ROLE, msg.sender);\r\n        for (uint256 i = 0; i < _minters.length; i ++) {\r\n            _setupRole(MINTER_ROLE, _minters[i]);\r\n        }\r\n\r\n        uint256 chainId;\r\n        assembly {\r\n            chainId := chainid()\r\n        }\r\n\r\n        DOMAIN_SEPARATOR = keccak256(\r\n            abi.encode(\r\n                keccak256(\r\n                    \"EIP712Domain(string name,string version,uint256 chainId,address verifyingContract)\"\r\n                ),\r\n                keccak256(bytes(_name)),\r\n                keccak256(bytes(\"1\")),\r\n                chainId,\r\n                address(this)\r\n            )\r\n        );\r\n\r\n        baseURI = string(abi.encodePacked(\"ipfs://\", _symbol));\r\n    }\r\n\r\n    /// @dev Issues new token\r\n    /// @param _to new Token's owner\r\n    /// @param _tokenId new Token's id\r\n    function mint(address _to, uint256 _tokenId) external override onlyMinter(){\r\n        _mint(_to, _tokenId);\r\n    }\r\n\r\n    /// @dev Destory an existing token\r\n    /// @param _tokenId Id of token\r\n    function burn(uint256 _tokenId) external override onlyMinter() {\r\n        _burn(_tokenId);\r\n    }\r\n\r\n    /// @dev Approves the spender by signature\r\n    /// @param _spender Account to be approved\r\n    /// @param _tokenId Token Id to be approved\r\n    /// @param _deadline The permit valids until\r\n    /// @param _v Signature\r\n    /// @param _r Signature\r\n    /// @param _s Signature\r\n    function permit(\r\n        address _spender,\r\n        uint256 _tokenId,\r\n        uint256 _deadline,\r\n        uint8 _v,\r\n        bytes32 _r,\r\n        bytes32 _s\r\n    ) external override{\r\n        require(_deadline >= block.timestamp, \"permit: EXPIRED\");\r\n        address owner = ownerOf(_tokenId);\r\n        bytes32 digest =\r\n            keccak256(\r\n                abi.encodePacked(\r\n                    \"\\x19\\x01\",\r\n                    DOMAIN_SEPARATOR,\r\n                    keccak256(\r\n                        abi.encode(\r\n                            PERMIT_TYPEHASH,\r\n                            _spender,\r\n                            _tokenId,\r\n                            nonces[owner]++,\r\n                            _deadline\r\n                        )\r\n                    )\r\n                )\r\n            );\r\n\r\n        require(_spender != owner, \"approval to current owner\");\r\n        \r\n        address recoveredAddress = ecrecover(digest, _v, _r, _s);\r\n        require(recoveredAddress != address(0), \"permit: invalid signature\");\r\n        require(recoveredAddress == owner, \"permit: Unauthorized\");\r\n        _approve(_spender, _tokenId);\r\n    }\r\n\r\n    /// @dev set base uri of token\r\n    /// @param _baseURI baseURI to set\r\n    function _setBaseURI (string memory _baseURI) internal{\r\n        baseURI = _baseURI;\r\n    }\r\n\r\n    /**\r\n     * @dev See {IERC165-supportsInterface}.\r\n     */\r\n    function supportsInterface(bytes4 interfaceId) public view virtual override(ERC721, AccessControl, IERC165) returns (bool) {\r\n        return super.supportsInterface(interfaceId);\r\n    }\r\n}",
  "sourcePath": "D:\\Ethereum\\Debridge\\debridge-contracts-v1\\contracts\\periphery\\WrappedNFT.sol",
  "compiler": {
    "name": "solc",
    "version": "0.8.2+commit.661d1103.Emscripten.clang"
  },
  "schemaVersion": "3.3.4",
  "updatedAt": "2021-06-08T16:02:58.148Z",
  "devdoc": {
    "kind": "dev",
    "methods": {
      "approve(address,uint256)": {
        "details": "See {IERC721-approve}."
      },
      "balanceOf(address)": {
        "details": "See {IERC721-balanceOf}."
      },
      "burn(uint256)": {
        "details": "Destory an existing token",
        "params": {
          "_tokenId": "Id of token"
        }
      },
      "constructor": {
        "details": "Constructor that initialize the most important configurations.",
        "params": {
          "_minters": "The accounts allowed to mint new tokens",
          "_name": "Asset's name",
          "_symbol": "Asset's symbol"
        }
      },
      "getApproved(uint256)": {
        "details": "See {IERC721-getApproved}."
      },
      "getRoleAdmin(bytes32)": {
        "details": "Returns the admin role that controls `role`. See {grantRole} and {revokeRole}. To change a role's admin, use {_setRoleAdmin}."
      },
      "grantRole(bytes32,address)": {
        "details": "Grants `role` to `account`. If `account` had not been already granted `role`, emits a {RoleGranted} event. Requirements: - the caller must have ``role``'s admin role."
      },
      "hasRole(bytes32,address)": {
        "details": "Returns `true` if `account` has been granted `role`."
      },
      "isApprovedForAll(address,address)": {
        "details": "See {IERC721-isApprovedForAll}."
      },
      "mint(address,uint256)": {
        "details": "Issues new token",
        "params": {
          "_to": "new Token's owner",
          "_tokenId": "new Token's id"
        }
      },
      "name()": {
        "details": "See {IERC721Metadata-name}."
      },
      "ownerOf(uint256)": {
        "details": "See {IERC721-ownerOf}."
      },
      "permit(address,uint256,uint256,uint8,bytes32,bytes32)": {
        "details": "Approves the spender by signature",
        "params": {
          "_deadline": "The permit valids until",
          "_r": "Signature",
          "_s": "Signature",
          "_spender": "Account to be approved",
          "_tokenId": "Token Id to be approved",
          "_v": "Signature"
        }
      },
      "renounceRole(bytes32,address)": {
        "details": "Revokes `role` from the calling account. Roles are often managed via {grantRole} and {revokeRole}: this function's purpose is to provide a mechanism for accounts to lose their privileges if they are compromised (such as when a trusted device is misplaced). If the calling account had been granted `role`, emits a {RoleRevoked} event. Requirements: - the caller must be `account`."
      },
      "revokeRole(bytes32,address)": {
        "details": "Revokes `role` from `account`. If `account` had been granted `role`, emits a {RoleRevoked} event. Requirements: - the caller must have ``role``'s admin role."
      },
      "safeTransferFrom(address,address,uint256)": {
        "details": "See {IERC721-safeTransferFrom}."
      },
      "safeTransferFrom(address,address,uint256,bytes)": {
        "details": "See {IERC721-safeTransferFrom}."
      },
      "setApprovalForAll(address,bool)": {
        "details": "See {IERC721-setApprovalForAll}."
      },
      "supportsInterface(bytes4)": {
        "details": "See {IERC165-supportsInterface}."
      },
      "symbol()": {
        "details": "See {IERC721Metadata-symbol}."
      },
      "tokenURI(uint256)": {
        "details": "See {IERC721Metadata-tokenURI}."
      },
      "transferFrom(address,address,uint256)": {
        "details": "See {IERC721-transferFrom}."
      }
    },
    "version": 1
  },
  "userdoc": {
    "kind": "user",
    "methods": {},
    "version": 1
  }
}