{
  "contractName": "WrappedAsset",
  "abi": [
    {
      "inputs": [
        {
          "internalType": "string",
          "name": "_name",
          "type": "string"
        },
        {
          "internalType": "string",
          "name": "_symbol",
          "type": "string"
        },
        {
          "internalType": "address[]",
          "name": "_minters",
          "type": "address[]"
        }
      ],
      "stateMutability": "nonpayable",
      "type": "constructor"
    },
    {
      "anonymous": false,
      "inputs": [
        {
          "indexed": true,
          "internalType": "address",
          "name": "owner",
          "type": "address"
        },
        {
          "indexed": true,
          "internalType": "address",
          "name": "spender",
          "type": "address"
        },
        {
          "indexed": false,
          "internalType": "uint256",
          "name": "value",
          "type": "uint256"
        }
      ],
      "name": "Approval",
      "type": "event"
    },
    {
      "anonymous": false,
      "inputs": [
        {
          "indexed": true,
          "internalType": "bytes32",
          "name": "role",
          "type": "bytes32"
        },
        {
          "indexed": true,
          "internalType": "bytes32",
          "name": "previousAdminRole",
          "type": "bytes32"
        },
        {
          "indexed": true,
          "internalType": "bytes32",
          "name": "newAdminRole",
          "type": "bytes32"
        }
      ],
      "name": "RoleAdminChanged",
      "type": "event"
    },
    {
      "anonymous": false,
      "inputs": [
        {
          "indexed": true,
          "internalType": "bytes32",
          "name": "role",
          "type": "bytes32"
        },
        {
          "indexed": true,
          "internalType": "address",
          "name": "account",
          "type": "address"
        },
        {
          "indexed": true,
          "internalType": "address",
          "name": "sender",
          "type": "address"
        }
      ],
      "name": "RoleGranted",
      "type": "event"
    },
    {
      "anonymous": false,
      "inputs": [
        {
          "indexed": true,
          "internalType": "bytes32",
          "name": "role",
          "type": "bytes32"
        },
        {
          "indexed": true,
          "internalType": "address",
          "name": "account",
          "type": "address"
        },
        {
          "indexed": true,
          "internalType": "address",
          "name": "sender",
          "type": "address"
        }
      ],
      "name": "RoleRevoked",
      "type": "event"
    },
    {
      "anonymous": false,
      "inputs": [
        {
          "indexed": true,
          "internalType": "address",
          "name": "from",
          "type": "address"
        },
        {
          "indexed": true,
          "internalType": "address",
          "name": "to",
          "type": "address"
        },
        {
          "indexed": false,
          "internalType": "uint256",
          "name": "value",
          "type": "uint256"
        }
      ],
      "name": "Transfer",
      "type": "event"
    },
    {
      "inputs": [],
      "name": "DEFAULT_ADMIN_ROLE",
      "outputs": [
        {
          "internalType": "bytes32",
          "name": "",
          "type": "bytes32"
        }
      ],
      "stateMutability": "view",
      "type": "function"
    },
    {
      "inputs": [],
      "name": "DOMAIN_SEPARATOR",
      "outputs": [
        {
          "internalType": "bytes32",
          "name": "",
          "type": "bytes32"
        }
      ],
      "stateMutability": "view",
      "type": "function"
    },
    {
      "inputs": [],
      "name": "MINTER_ROLE",
      "outputs": [
        {
          "internalType": "bytes32",
          "name": "",
          "type": "bytes32"
        }
      ],
      "stateMutability": "view",
      "type": "function"
    },
    {
      "inputs": [],
      "name": "PERMIT_TYPEHASH",
      "outputs": [
        {
          "internalType": "bytes32",
          "name": "",
          "type": "bytes32"
        }
      ],
      "stateMutability": "view",
      "type": "function"
    },
    {
      "inputs": [
        {
          "internalType": "address",
          "name": "owner",
          "type": "address"
        },
        {
          "internalType": "address",
          "name": "spender",
          "type": "address"
        }
      ],
      "name": "allowance",
      "outputs": [
        {
          "internalType": "uint256",
          "name": "",
          "type": "uint256"
        }
      ],
      "stateMutability": "view",
      "type": "function"
    },
    {
      "inputs": [
        {
          "internalType": "address",
          "name": "spender",
          "type": "address"
        },
        {
          "internalType": "uint256",
          "name": "amount",
          "type": "uint256"
        }
      ],
      "name": "approve",
      "outputs": [
        {
          "internalType": "bool",
          "name": "",
          "type": "bool"
        }
      ],
      "stateMutability": "nonpayable",
      "type": "function"
    },
    {
      "inputs": [
        {
          "internalType": "address",
          "name": "account",
          "type": "address"
        }
      ],
      "name": "balanceOf",
      "outputs": [
        {
          "internalType": "uint256",
          "name": "",
          "type": "uint256"
        }
      ],
      "stateMutability": "view",
      "type": "function"
    },
    {
      "inputs": [],
      "name": "decimals",
      "outputs": [
        {
          "internalType": "uint8",
          "name": "",
          "type": "uint8"
        }
      ],
      "stateMutability": "view",
      "type": "function"
    },
    {
      "inputs": [
        {
          "internalType": "address",
          "name": "spender",
          "type": "address"
        },
        {
          "internalType": "uint256",
          "name": "subtractedValue",
          "type": "uint256"
        }
      ],
      "name": "decreaseAllowance",
      "outputs": [
        {
          "internalType": "bool",
          "name": "",
          "type": "bool"
        }
      ],
      "stateMutability": "nonpayable",
      "type": "function"
    },
    {
      "inputs": [
        {
          "internalType": "bytes32",
          "name": "role",
          "type": "bytes32"
        }
      ],
      "name": "getRoleAdmin",
      "outputs": [
        {
          "internalType": "bytes32",
          "name": "",
          "type": "bytes32"
        }
      ],
      "stateMutability": "view",
      "type": "function"
    },
    {
      "inputs": [
        {
          "internalType": "bytes32",
          "name": "role",
          "type": "bytes32"
        },
        {
          "internalType": "address",
          "name": "account",
          "type": "address"
        }
      ],
      "name": "grantRole",
      "outputs": [],
      "stateMutability": "nonpayable",
      "type": "function"
    },
    {
      "inputs": [
        {
          "internalType": "bytes32",
          "name": "role",
          "type": "bytes32"
        },
        {
          "internalType": "address",
          "name": "account",
          "type": "address"
        }
      ],
      "name": "hasRole",
      "outputs": [
        {
          "internalType": "bool",
          "name": "",
          "type": "bool"
        }
      ],
      "stateMutability": "view",
      "type": "function"
    },
    {
      "inputs": [
        {
          "internalType": "address",
          "name": "spender",
          "type": "address"
        },
        {
          "internalType": "uint256",
          "name": "addedValue",
          "type": "uint256"
        }
      ],
      "name": "increaseAllowance",
      "outputs": [
        {
          "internalType": "bool",
          "name": "",
          "type": "bool"
        }
      ],
      "stateMutability": "nonpayable",
      "type": "function"
    },
    {
      "inputs": [],
      "name": "name",
      "outputs": [
        {
          "internalType": "string",
          "name": "",
          "type": "string"
        }
      ],
      "stateMutability": "view",
      "type": "function"
    },
    {
      "inputs": [
        {
          "internalType": "address",
          "name": "",
          "type": "address"
        }
      ],
      "name": "nonces",
      "outputs": [
        {
          "internalType": "uint256",
          "name": "",
          "type": "uint256"
        }
      ],
      "stateMutability": "view",
      "type": "function"
    },
    {
      "inputs": [
        {
          "internalType": "bytes32",
          "name": "role",
          "type": "bytes32"
        },
        {
          "internalType": "address",
          "name": "account",
          "type": "address"
        }
      ],
      "name": "renounceRole",
      "outputs": [],
      "stateMutability": "nonpayable",
      "type": "function"
    },
    {
      "inputs": [
        {
          "internalType": "bytes32",
          "name": "role",
          "type": "bytes32"
        },
        {
          "internalType": "address",
          "name": "account",
          "type": "address"
        }
      ],
      "name": "revokeRole",
      "outputs": [],
      "stateMutability": "nonpayable",
      "type": "function"
    },
    {
      "inputs": [
        {
          "internalType": "bytes4",
          "name": "interfaceId",
          "type": "bytes4"
        }
      ],
      "name": "supportsInterface",
      "outputs": [
        {
          "internalType": "bool",
          "name": "",
          "type": "bool"
        }
      ],
      "stateMutability": "view",
      "type": "function"
    },
    {
      "inputs": [],
      "name": "symbol",
      "outputs": [
        {
          "internalType": "string",
          "name": "",
          "type": "string"
        }
      ],
      "stateMutability": "view",
      "type": "function"
    },
    {
      "inputs": [],
      "name": "totalSupply",
      "outputs": [
        {
          "internalType": "uint256",
          "name": "",
          "type": "uint256"
        }
      ],
      "stateMutability": "view",
      "type": "function"
    },
    {
      "inputs": [
        {
          "internalType": "address",
          "name": "recipient",
          "type": "address"
        },
        {
          "internalType": "uint256",
          "name": "amount",
          "type": "uint256"
        }
      ],
      "name": "transfer",
      "outputs": [
        {
          "internalType": "bool",
          "name": "",
          "type": "bool"
        }
      ],
      "stateMutability": "nonpayable",
      "type": "function"
    },
    {
      "inputs": [
        {
          "internalType": "address",
          "name": "sender",
          "type": "address"
        },
        {
          "internalType": "address",
          "name": "recipient",
          "type": "address"
        },
        {
          "internalType": "uint256",
          "name": "amount",
          "type": "uint256"
        }
      ],
      "name": "transferFrom",
      "outputs": [
        {
          "internalType": "bool",
          "name": "",
          "type": "bool"
        }
      ],
      "stateMutability": "nonpayable",
      "type": "function"
    },
    {
      "inputs": [
        {
          "internalType": "address",
          "name": "_receiver",
          "type": "address"
        },
        {
          "internalType": "uint256",
          "name": "_amount",
          "type": "uint256"
        }
      ],
      "name": "mint",
      "outputs": [],
      "stateMutability": "nonpayable",
      "type": "function"
    },
    {
      "inputs": [
        {
          "internalType": "uint256",
          "name": "_amount",
          "type": "uint256"
        }
      ],
      "name": "burn",
      "outputs": [],
      "stateMutability": "nonpayable",
      "type": "function"
    },
    {
      "inputs": [
        {
          "internalType": "address",
          "name": "_owner",
          "type": "address"
        },
        {
          "internalType": "address",
          "name": "_spender",
          "type": "address"
        },
        {
          "internalType": "uint256",
          "name": "_value",
          "type": "uint256"
        },
        {
          "internalType": "uint256",
          "name": "_deadline",
          "type": "uint256"
        },
        {
          "internalType": "uint8",
          "name": "_v",
          "type": "uint8"
        },
        {
          "internalType": "bytes32",
          "name": "_r",
          "type": "bytes32"
        },
        {
          "internalType": "bytes32",
          "name": "_s",
          "type": "bytes32"
        }
      ],
      "name": "permit",
      "outputs": [],
      "stateMutability": "nonpayable",
      "type": "function"
    }
  ],
  "bytecode": "0x60806040523480156200001157600080fd5b506040516200192b3803806200192b83398101604081905262000034916200037f565b8251839083906200004d90600490602085019062000248565b5080516200006390600590602084019062000248565b50620000759150600090503362000198565b60005b8151811015620000f157620000dc7f9f2df0fed2c77648de5860a4cc508cd0818c85b8b8a1ab4ceeef8d981c8956a6838381518110620000c857634e487b7160e01b600052603260045260246000fd5b60200260200101516200019860201b60201c565b80620000e88162000503565b91505062000078565b5050815160209283012060408051808201825260018152603160f81b9085015280517f8b73c3c69bb8fe3d512ecc4cf759cc79239f7b179b0ffacaa9a75d522b39400f81860152808201929092527fc89efdaa54c0f20c7adf612882df0950f5a951637e0307cdcb4c672f298b8bc660608301524660808301523060a0808401919091528151808403909101815260c0909201905280519201919091206006555062000541565b620001a48282620001a8565b5050565b6000828152602081815260408083206001600160a01b038516845290915290205460ff16620001a4576000828152602081815260408083206001600160a01b03851684529091529020805460ff19166001179055620002043390565b6001600160a01b0316816001600160a01b0316837f2f8788117e7eff1d82e926ec794901d17c78024a50270940304540a733656f0d60405160405180910390a45050565b8280546200025690620004c6565b90600052602060002090601f0160209004810192826200027a5760008555620002c5565b82601f106200029557805160ff1916838001178555620002c5565b82800160010185558215620002c5579182015b82811115620002c5578251825591602001919060010190620002a8565b50620002d3929150620002d7565b5090565b5b80821115620002d35760008155600101620002d8565b600082601f830112620002ff578081fd5b81516001600160401b038111156200031b576200031b6200052b565b602062000331601f8301601f1916820162000493565b828152858284870101111562000345578384fd5b835b838110156200036457858101830151828201840152820162000347565b838111156200037557848385840101525b5095945050505050565b60008060006060848603121562000394578283fd5b83516001600160401b0380821115620003ab578485fd5b620003b987838801620002ee565b9450602091508186015181811115620003d0578485fd5b620003de88828901620002ee565b945050604086015181811115620003f3578384fd5b8601601f8101881362000404578384fd5b8051828111156200041957620004196200052b565b83810292506200042b84840162000493565b8181528481019083860185850187018c101562000446578788fd5b8795505b838610156200048257805194506001600160a01b03851685146200046c578788fd5b848352600195909501949186019186016200044a565b508096505050505050509250925092565b604051601f8201601f191681016001600160401b0381118282101715620004be57620004be6200052b565b604052919050565b600281046001821680620004db57607f821691505b60208210811415620004fd57634e487b7160e01b600052602260045260246000fd5b50919050565b60006000198214156200052457634e487b7160e01b81526011600452602481fd5b5060010190565b634e487b7160e01b600052604160045260246000fd5b6113da80620005516000396000f3fe608060405234801561001057600080fd5b50600436106101735760003560e01c806340c10f19116100de578063a217fddf11610097578063d505accf11610071578063d505accf14610342578063d539139314610355578063d547741f1461037c578063dd62ed3e1461038f57610173565b8063a217fddf14610314578063a457c2d71461031c578063a9059cbb1461032f57610173565b806340c10f191461028a57806342966c681461029d57806370a08231146102b05780637ecebe00146102d957806391d14854146102f957806395d89b411461030c57610173565b80632f2ff15d116101305780632f2ff15d1461021057806330adf81f14610225578063313ce5671461024c5780633644e5151461025b57806336568abe14610264578063395093511461027757610173565b806301ffc9a71461017857806306fdde03146101a0578063095ea7b3146101b557806318160ddd146101c857806323b872dd146101da578063248a9ca3146101ed575b600080fd5b61018b61018636600461128e565b6103c8565b60405190151581526020015b60405180910390f35b6101a8610401565b60405161019791906112b6565b61018b6101c336600461122b565b610493565b6003545b604051908152602001610197565b61018b6101e836600461117f565b6104a9565b6101cc6101fb366004611254565b60009081526020819052604090206001015490565b61022361021e36600461126c565b61055f565b005b6101cc7f6e71edae12b1b97f4d1f60370fef10105fa2faae0126114a169c64845d6126c981565b60405160128152602001610197565b6101cc60065481565b61022361027236600461126c565b6105ee565b61018b61028536600461122b565b610668565b61022361029836600461122b565b61069f565b6102236102ab366004611254565b610716565b6101cc6102be36600461112c565b6001600160a01b031660009081526001602052604090205490565b6101cc6102e736600461112c565b60076020526000908152604090205481565b61018b61030736600461126c565b610790565b6101a86107b9565b6101cc600081565b61018b61032a36600461122b565b6107c8565b61018b61033d36600461122b565b610863565b6102236103503660046111ba565b610870565b6101cc7f9f2df0fed2c77648de5860a4cc508cd0818c85b8b8a1ab4ceeef8d981c8956a681565b61022361038a36600461126c565b610a81565b6101cc61039d36600461114d565b6001600160a01b03918216600090815260026020908152604080832093909416825291909152205490565b60006001600160e01b03198216637965db0b60e01b14806103f957506301ffc9a760e01b6001600160e01b03198316145b90505b919050565b60606004805461041090611338565b80601f016020809104026020016040519081016040528092919081815260200182805461043c90611338565b80156104895780601f1061045e57610100808354040283529160200191610489565b820191906000526020600020905b81548152906001019060200180831161046c57829003601f168201915b5050505050905090565b60006104a0338484610b01565b50600192915050565b60006104b6848484610c26565b6001600160a01b0384166000908152600260209081526040808320338452909152902054828110156105405760405162461bcd60e51b815260206004820152602860248201527f45524332303a207472616e7366657220616d6f756e74206578636565647320616044820152676c6c6f77616e636560c01b60648201526084015b60405180910390fd5b610554853361054f8685611321565b610b01565b506001949350505050565b60008281526020819052604090206001015461057c905b33610307565b6105e05760405162461bcd60e51b815260206004820152602f60248201527f416363657373436f6e74726f6c3a2073656e646572206d75737420626520616e60448201526e0818591b5a5b881d1bc819dc985b9d608a1b6064820152608401610537565b6105ea8282610dfe565b5050565b6001600160a01b038116331461065e5760405162461bcd60e51b815260206004820152602f60248201527f416363657373436f6e74726f6c3a2063616e206f6e6c792072656e6f756e636560448201526e103937b632b9903337b91039b2b63360891b6064820152608401610537565b6105ea8282610e82565b3360008181526002602090815260408083206001600160a01b038716845290915281205490916104a091859061054f908690611309565b6106c97f9f2df0fed2c77648de5860a4cc508cd0818c85b8b8a1ab4ceeef8d981c8956a633610790565b61070c5760405162461bcd60e51b81526020600482015260146024820152736f6e6c794d696e7465723a2062616420726f6c6560601b6044820152606401610537565b6105ea8282610ee7565b6107407f9f2df0fed2c77648de5860a4cc508cd0818c85b8b8a1ab4ceeef8d981c8956a633610790565b6107835760405162461bcd60e51b81526020600482015260146024820152736f6e6c794d696e7465723a2062616420726f6c6560601b6044820152606401610537565b61078d3382610fc6565b50565b6000918252602082815260408084206001600160a01b0393909316845291905290205460ff1690565b60606005805461041090611338565b3360009081526002602090815260408083206001600160a01b03861684529091528120548281101561084a5760405162461bcd60e51b815260206004820152602560248201527f45524332303a2064656372656173656420616c6c6f77616e63652062656c6f77604482015264207a65726f60d81b6064820152608401610537565b610859338561054f8685611321565b5060019392505050565b60006104a0338484610c26565b428410156108b25760405162461bcd60e51b815260206004820152600f60248201526e1c195c9b5a5d0e8811561412549151608a1b6044820152606401610537565b6006546001600160a01b038816600090815260076020526040812080549192917f6e71edae12b1b97f4d1f60370fef10105fa2faae0126114a169c64845d6126c9918b918b918b91908761090583611373565b909155506040805160208101969096526001600160a01b0394851690860152929091166060840152608083015260a082015260c0810187905260e0016040516020818303038152906040528051906020012060405160200161097e92919061190160f01b81526002810192909252602282015260420190565b60408051601f198184030181528282528051602091820120600080855291840180845281905260ff88169284019290925260608301869052608083018590529092509060019060a0016020604051602081039080840390855afa1580156109e9573d6000803e3d6000fd5b5050604051601f1901519150506001600160a01b03811615801590610a1f5750886001600160a01b0316816001600160a01b0316145b610a6b5760405162461bcd60e51b815260206004820152601960248201527f7065726d69743a20696e76616c6964207369676e6174757265000000000000006044820152606401610537565b610a76898989610b01565b505050505050505050565b600082815260208190526040902060010154610a9c90610576565b61065e5760405162461bcd60e51b815260206004820152603060248201527f416363657373436f6e74726f6c3a2073656e646572206d75737420626520616e60448201526f2061646d696e20746f207265766f6b6560801b6064820152608401610537565b6001600160a01b038316610b635760405162461bcd60e51b8152602060048201526024808201527f45524332303a20617070726f76652066726f6d20746865207a65726f206164646044820152637265737360e01b6064820152608401610537565b6001600160a01b038216610bc45760405162461bcd60e51b815260206004820152602260248201527f45524332303a20617070726f766520746f20746865207a65726f206164647265604482015261737360f01b6064820152608401610537565b6001600160a01b0383811660008181526002602090815260408083209487168084529482529182902085905590518481527f8c5be1e5ebec7d5bd14f71427d1e84f3dd0314c0f7b2291e5b200ac8c7c3b92591015b60405180910390a3505050565b6001600160a01b038316610c8a5760405162461bcd60e51b815260206004820152602560248201527f45524332303a207472616e736665722066726f6d20746865207a65726f206164604482015264647265737360d81b6064820152608401610537565b6001600160a01b038216610cec5760405162461bcd60e51b815260206004820152602360248201527f45524332303a207472616e7366657220746f20746865207a65726f206164647260448201526265737360e81b6064820152608401610537565b6001600160a01b03831660009081526001602052604090205481811015610d645760405162461bcd60e51b815260206004820152602660248201527f45524332303a207472616e7366657220616d6f756e7420657863656564732062604482015265616c616e636560d01b6064820152608401610537565b610d6e8282611321565b6001600160a01b038086166000908152600160205260408082209390935590851681529081208054849290610da4908490611309565b92505081905550826001600160a01b0316846001600160a01b03167fddf252ad1be2c89b69c2b068fc378daa952ba7f163c4a11628f55a4df523b3ef84604051610df091815260200190565b60405180910390a350505050565b610e088282610790565b6105ea576000828152602081815260408083206001600160a01b03851684529091529020805460ff19166001179055610e3e3390565b6001600160a01b0316816001600160a01b0316837f2f8788117e7eff1d82e926ec794901d17c78024a50270940304540a733656f0d60405160405180910390a45050565b610e8c8282610790565b156105ea576000828152602081815260408083206001600160a01b0385168085529252808320805460ff1916905551339285917ff6391f5c32d9c69d2a47ea670b442974b53935d1edc7fd64eb21e047a839171b9190a45050565b6001600160a01b038216610f3d5760405162461bcd60e51b815260206004820152601f60248201527f45524332303a206d696e7420746f20746865207a65726f2061646472657373006044820152606401610537565b8060036000828254610f4f9190611309565b90915550506001600160a01b03821660009081526001602052604081208054839290610f7c908490611309565b90915550506040518181526001600160a01b038316906000907fddf252ad1be2c89b69c2b068fc378daa952ba7f163c4a11628f55a4df523b3ef9060200160405180910390a35050565b6001600160a01b0382166110265760405162461bcd60e51b815260206004820152602160248201527f45524332303a206275726e2066726f6d20746865207a65726f206164647265736044820152607360f81b6064820152608401610537565b6001600160a01b0382166000908152600160205260409020548181101561109a5760405162461bcd60e51b815260206004820152602260248201527f45524332303a206275726e20616d6f756e7420657863656564732062616c616e604482015261636560f01b6064820152608401610537565b6110a48282611321565b6001600160a01b038416600090815260016020526040812091909155600380548492906110d2908490611321565b90915550506040518281526000906001600160a01b038516907fddf252ad1be2c89b69c2b068fc378daa952ba7f163c4a11628f55a4df523b3ef90602001610c19565b80356001600160a01b03811681146103fc57600080fd5b60006020828403121561113d578081fd5b61114682611115565b9392505050565b6000806040838503121561115f578081fd5b61116883611115565b915061117660208401611115565b90509250929050565b600080600060608486031215611193578081fd5b61119c84611115565b92506111aa60208501611115565b9150604084013590509250925092565b600080600080600080600060e0888a0312156111d4578283fd5b6111dd88611115565b96506111eb60208901611115565b95506040880135945060608801359350608088013560ff8116811461120e578384fd5b9699959850939692959460a0840135945060c09093013592915050565b6000806040838503121561123d578182fd5b61124683611115565b946020939093013593505050565b600060208284031215611265578081fd5b5035919050565b6000806040838503121561127e578182fd5b8235915061117660208401611115565b60006020828403121561129f578081fd5b81356001600160e01b031981168114611146578182fd5b6000602080835283518082850152825b818110156112e2578581018301518582016040015282016112c6565b818111156112f35783604083870101525b50601f01601f1916929092016040019392505050565b6000821982111561131c5761131c61138e565b500190565b6000828210156113335761133361138e565b500390565b60028104600182168061134c57607f821691505b6020821081141561136d57634e487b7160e01b600052602260045260246000fd5b50919050565b60006000198214156113875761138761138e565b5060010190565b634e487b7160e01b600052601160045260246000fdfea2646970667358221220fea8c9718b68447623c5dab8ddab5c5fa1b3f7b402af30db4f576ec92517f0f564736f6c63430008020033",
  "immutableReferences": {},
  "source": "// SPDX-License-Identifier: MIT\npragma solidity ^0.8.2;\n\nimport \"@openzeppelin/contracts/token/ERC20/ERC20.sol\";\nimport \"@openzeppelin/contracts/token/ERC20/IERC20.sol\";\nimport \"@openzeppelin/contracts/access/AccessControl.sol\";\nimport \"../interfaces/IWrappedAsset.sol\";\n\ncontract WrappedAsset is AccessControl, IWrappedAsset, ERC20 {\n    bytes32 public constant MINTER_ROLE = keccak256(\"MINTER_ROLE\"); // minter role identifier\n    bytes32 public DOMAIN_SEPARATOR;\n    // keccak256(\"Permit(address owner,address spender,uint256 value,uint256 nonce,uint256 deadline)\");\n    bytes32 public constant PERMIT_TYPEHASH =\n        0x6e71edae12b1b97f4d1f60370fef10105fa2faae0126114a169c64845d6126c9;\n    mapping(address => uint256) public nonces; // transfer's counter\n\n    modifier onlyMinter {\n        require(hasRole(MINTER_ROLE, msg.sender), \"onlyMinter: bad role\");\n        _;\n    }\n\n    /// @dev Constructor that initializes the most important configurations.\n    /// @param _name Asset's name.\n    /// @param _symbol Asset's symbol.\n    /// @param _minters The accounts allowed to int new tokens.\n    constructor(\n        string memory _name,\n        string memory _symbol,\n        address[] memory _minters\n    ) ERC20(_name, _symbol) {\n        _setupRole(DEFAULT_ADMIN_ROLE, msg.sender);\n        for (uint256 i = 0; i < _minters.length; i++) {\n            _setupRole(MINTER_ROLE, _minters[i]);\n        }\n        uint256 chainId;\n        assembly {\n            chainId := chainid()\n        }\n        DOMAIN_SEPARATOR = keccak256(\n            abi.encode(\n                keccak256(\n                    \"EIP712Domain(string name,string version,uint256 chainId,address verifyingContract)\"\n                ),\n                keccak256(bytes(_name)),\n                keccak256(bytes(\"1\")),\n                chainId,\n                address(this)\n            )\n        );\n    }\n\n    /// @dev Issues new tokens.\n    /// @param _receiver Token's receiver.\n    /// @param _amount Amount to be minted.\n    function mint(address _receiver, uint256 _amount)\n        external\n        override\n        onlyMinter()\n    {\n        _mint(_receiver, _amount);\n    }\n\n    /// @dev Destroys existed tokens.\n    /// @param _amount Amount to be burnt.\n    function burn(uint256 _amount) external override onlyMinter() {\n        _burn(msg.sender, _amount);\n    }\n\n    /// @dev Approves the spender by signature.\n    /// @param _owner Token's owner.\n    /// @param _spender Account to be approved.\n    /// @param _value Amount to be approved.\n    /// @param _deadline The permit valid until.\n    /// @param _v Signature part.\n    /// @param _r Signature part.\n    /// @param _s Signature part.\n    function permit(\n        address _owner,\n        address _spender,\n        uint256 _value,\n        uint256 _deadline,\n        uint8 _v,\n        bytes32 _r,\n        bytes32 _s\n    ) external override {\n        require(_deadline >= block.timestamp, \"permit: EXPIRED\");\n        bytes32 digest =\n            keccak256(\n                abi.encodePacked(\n                    \"\\x19\\x01\",\n                    DOMAIN_SEPARATOR,\n                    keccak256(\n                        abi.encode(\n                            PERMIT_TYPEHASH,\n                            _owner,\n                            _spender,\n                            _value,\n                            nonces[_owner]++,\n                            _deadline\n                        )\n                    )\n                )\n            );\n        address recoveredAddress = ecrecover(digest, _v, _r, _s);\n        require(\n            recoveredAddress != address(0) && recoveredAddress == _owner,\n            \"permit: invalid signature\"\n        );\n        _approve(_owner, _spender, _value);\n    }\n}\n",
  "sourcePath": "/root/debridge-contracts/contracts/periphery/WrappedAsset.sol",
  "compiler": {
    "name": "solc",
    "version": "0.8.2+commit.661d1103.Emscripten.clang"
  },
  "schemaVersion": "3.3.4",
  "updatedAt": "2021-06-20T15:43:29.321Z",
  "devdoc": {
    "kind": "dev",
    "methods": {
      "allowance(address,address)": {
        "details": "See {IERC20-allowance}."
      },
      "approve(address,uint256)": {
        "details": "See {IERC20-approve}. Requirements: - `spender` cannot be the zero address."
      },
      "balanceOf(address)": {
        "details": "See {IERC20-balanceOf}."
      },
      "burn(uint256)": {
        "details": "Destroys existed tokens.",
        "params": {
          "_amount": "Amount to be burnt."
        }
      },
      "constructor": {
        "details": "Constructor that initializes the most important configurations.",
        "params": {
          "_minters": "The accounts allowed to int new tokens.",
          "_name": "Asset's name.",
          "_symbol": "Asset's symbol."
        }
      },
      "decimals()": {
        "details": "Returns the number of decimals used to get its user representation. For example, if `decimals` equals `2`, a balance of `505` tokens should be displayed to a user as `5,05` (`505 / 10 ** 2`). Tokens usually opt for a value of 18, imitating the relationship between Ether and Wei. This is the value {ERC20} uses, unless this function is overloaded; NOTE: This information is only used for _display_ purposes: it in no way affects any of the arithmetic of the contract, including {IERC20-balanceOf} and {IERC20-transfer}."
      },
      "decreaseAllowance(address,uint256)": {
        "details": "Atomically decreases the allowance granted to `spender` by the caller. This is an alternative to {approve} that can be used as a mitigation for problems described in {IERC20-approve}. Emits an {Approval} event indicating the updated allowance. Requirements: - `spender` cannot be the zero address. - `spender` must have allowance for the caller of at least `subtractedValue`."
      },
      "getRoleAdmin(bytes32)": {
        "details": "Returns the admin role that controls `role`. See {grantRole} and {revokeRole}. To change a role's admin, use {_setRoleAdmin}."
      },
      "grantRole(bytes32,address)": {
        "details": "Grants `role` to `account`. If `account` had not been already granted `role`, emits a {RoleGranted} event. Requirements: - the caller must have ``role``'s admin role."
      },
      "hasRole(bytes32,address)": {
        "details": "Returns `true` if `account` has been granted `role`."
      },
      "increaseAllowance(address,uint256)": {
        "details": "Atomically increases the allowance granted to `spender` by the caller. This is an alternative to {approve} that can be used as a mitigation for problems described in {IERC20-approve}. Emits an {Approval} event indicating the updated allowance. Requirements: - `spender` cannot be the zero address."
      },
      "mint(address,uint256)": {
        "details": "Issues new tokens.",
        "params": {
          "_amount": "Amount to be minted.",
          "_receiver": "Token's receiver."
        }
      },
      "name()": {
        "details": "Returns the name of the token."
      },
      "permit(address,address,uint256,uint256,uint8,bytes32,bytes32)": {
        "details": "Approves the spender by signature.",
        "params": {
          "_deadline": "The permit valid until.",
          "_owner": "Token's owner.",
          "_r": "Signature part.",
          "_s": "Signature part.",
          "_spender": "Account to be approved.",
          "_v": "Signature part.",
          "_value": "Amount to be approved."
        }
      },
      "renounceRole(bytes32,address)": {
        "details": "Revokes `role` from the calling account. Roles are often managed via {grantRole} and {revokeRole}: this function's purpose is to provide a mechanism for accounts to lose their privileges if they are compromised (such as when a trusted device is misplaced). If the calling account had been granted `role`, emits a {RoleRevoked} event. Requirements: - the caller must be `account`."
      },
      "revokeRole(bytes32,address)": {
        "details": "Revokes `role` from `account`. If `account` had been granted `role`, emits a {RoleRevoked} event. Requirements: - the caller must have ``role``'s admin role."
      },
      "supportsInterface(bytes4)": {
        "details": "See {IERC165-supportsInterface}."
      },
      "symbol()": {
        "details": "Returns the symbol of the token, usually a shorter version of the name."
      },
      "totalSupply()": {
        "details": "See {IERC20-totalSupply}."
      },
      "transfer(address,uint256)": {
        "details": "See {IERC20-transfer}. Requirements: - `recipient` cannot be the zero address. - the caller must have a balance of at least `amount`."
      },
      "transferFrom(address,address,uint256)": {
        "details": "See {IERC20-transferFrom}. Emits an {Approval} event indicating the updated allowance. This is not required by the EIP. See the note at the beginning of {ERC20}. Requirements: - `sender` and `recipient` cannot be the zero address. - `sender` must have a balance of at least `amount`. - the caller must have allowance for ``sender``'s tokens of at least `amount`."
      }
    },
    "version": 1
  },
  "userdoc": {
    "kind": "user",
    "methods": {},
    "version": 1
  }
}